{"abi":[{"type":"constructor","inputs":[{"name":"_feeToSetter","type":"address","internalType":"address"}],"stateMutability":"nonpayable"},{"type":"function","name":"allPairs","inputs":[{"name":"","type":"uint256","internalType":"uint256"}],"outputs":[{"name":"","type":"address","internalType":"address"}],"stateMutability":"view"},{"type":"function","name":"allPairsLength","inputs":[],"outputs":[{"name":"","type":"uint256","internalType":"uint256"}],"stateMutability":"view"},{"type":"function","name":"createPair","inputs":[{"name":"tokenA","type":"address","internalType":"address"},{"name":"tokenB","type":"address","internalType":"address"}],"outputs":[{"name":"pair","type":"address","internalType":"address"}],"stateMutability":"nonpayable"},{"type":"function","name":"feeTo","inputs":[],"outputs":[{"name":"","type":"address","internalType":"address"}],"stateMutability":"view"},{"type":"function","name":"feeToSetter","inputs":[],"outputs":[{"name":"","type":"address","internalType":"address"}],"stateMutability":"view"},{"type":"function","name":"getPair","inputs":[{"name":"","type":"address","internalType":"address"},{"name":"","type":"address","internalType":"address"}],"outputs":[{"name":"","type":"address","internalType":"address"}],"stateMutability":"view"},{"type":"function","name":"pairFor","inputs":[{"name":"tokenA","type":"address","internalType":"address"},{"name":"tokenB","type":"address","internalType":"address"}],"outputs":[{"name":"pair","type":"address","internalType":"address"}],"stateMutability":"view"},{"type":"function","name":"setFeeTo","inputs":[{"name":"_feeTo","type":"address","internalType":"address"}],"outputs":[],"stateMutability":"nonpayable"},{"type":"function","name":"setFeeToSetter","inputs":[{"name":"_feeToSetter","type":"address","internalType":"address"}],"outputs":[],"stateMutability":"nonpayable"},{"type":"event","name":"FeeToSet","inputs":[{"name":"oldFeeTo","type":"address","indexed":true,"internalType":"address"},{"name":"newFeeTo","type":"address","indexed":true,"internalType":"address"}],"anonymous":false},{"type":"event","name":"FeeToSetterSet","inputs":[{"name":"oldSetter","type":"address","indexed":true,"internalType":"address"},{"name":"newSetter","type":"address","indexed":true,"internalType":"address"}],"anonymous":false},{"type":"event","name":"PairCreated","inputs":[{"name":"token0","type":"address","indexed":true,"internalType":"address"},{"name":"token1","type":"address","indexed":true,"internalType":"address"},{"name":"pair","type":"address","indexed":false,"internalType":"address"},{"name":"pairIndex","type":"uint256","indexed":false,"internalType":"uint256"}],"anonymous":false},{"type":"error","name":"IdenticalAddresses","inputs":[]},{"type":"error","name":"PairExists","inputs":[]},{"type":"error","name":"Unauthorized","inputs":[]},{"type":"error","name":"ZeroAddress","inputs":[]}],"bytecode":{"object":"0x608034607057601f61277b38819003918201601f19168301916001600160401b03831184841017607457808492602094604052833981010312607057516001600160a01b03811690819003607057600180546001600160a01b0319169190911790556040516126f290816100898239f35b5f80fd5b634e487b7160e01b5f52604160045260245ffdfe60806040526004361015610011575f80fd5b5f3560e01c8063017e7e58146100a4578063094b74151461009f5780631e3dd18b1461009a578063574f2ba31461009557806396ed28f914610090578063a2e74af61461008b578063c9c6539614610086578063e6a43905146100815763f46901ed1461007c575f80fd5b610615565b6105be565b61035d565b6102e5565b6101a2565b610159565b6100ff565b6100d7565b346100c9575f3660031901126100c9575f546001600160a01b03166080908152602090f35b5f80fd5b5f9103126100c957565b346100c9575f3660031901126100c9576001546040516001600160a01b039091168152602090f35b346100c95760203660031901126100c9576004356003548110156100c95760035f527fc2575a0e9e593c00f959f8c92f12db2869c3395a3b0502d05e2516446f71f85b01546040516001600160a01b039091168152602090f35b346100c9575f3660031901126100c9576020600354604051908152f35b600435906001600160a01b03821682036100c957565b602435906001600160a01b03821682036100c957565b346100c95760403660031901126100c9576102dc6102c26102b661021f61029b6102a76101cd610176565b6101d561018c565b906001600160a01b0380831690821610156102e057905b604051948591602083019384906028926bffffffffffffffffffffffff19809260601b16835260601b1660148201520190565b0393610233601f19958681018352826106ac565b51902092611f57610246602082016106ce565b818152602081019161076683395190206040516001600160f81b0319602082019081523060601b6bffffffffffffffffffffffff19166021830152603582019690965260558101919091529283906075820190565b039081018352826106ac565b5190206001600160a01b031690565b6001600160a01b031690565b6040516001600160a01b0390911681529081906020820190565b0390f35b6101ec565b346100c95760203660031901126100c9576102fe610176565b6001546001600160a01b03808216923384900361034c571680927f56c655744979c8c19b2967356eda980427e39e4fd31f4cb4b416922fd0eb462a5f80a36001600160a01b03191617600155005b6040516282b42960e81b8152600490fd5b346100c9576040806003193601126100c957610377610176565b9061038061018c565b6001600160a01b03929091908383168185168082146105ad5710156105a857915b8383168015610597576103f06102b66103e3846103ce8860018060a01b03165f52600260205260405f2090565b9060018060a01b03165f5260205260405f2090565b546001600160a01b031690565b61058657611f57610403602082016106ce565b90808252602082019061076682398451606087811b6bffffffffffffffffffffffff19908116602084019081529187901b166034830152602882529061044a6048826106ac565b5190209151905ff59385851695863b156100c957845163485cc95560e01b81526001600160a01b03838116600483015285166024820152965f908890604490829084905af191821561058157866104ec610527926102dc9a7f0d3648bd0f6ba80134a33ba9275ac585d9d315f0ad8355cddefde31afa28d0e996610568575b5061050b836104ec8a6103ce8560018060a01b03165f52600260205260405f2090565b80546001600160a01b0319166001600160a01b03909216919091179055565b6001600160a01b0388165f9081526002602052604090206103ce565b610530866106e9565b60035485516001600160a01b03881681526020810191909152931692604090a3516001600160a01b0390911681529081906020820190565b8061057561057b92610693565b806100cd565b5f6104c9565b6106de565b8251633d77e89160e01b8152600490fd5b825163d92e233d60e01b8152600490fd5b6103a1565b8351630bd969eb60e41b8152600490fd5b346100c95760403660031901126100c95760206105d9610176565b61060b6105e461018c565b6001600160a01b039283165f90815260028552604080822092851682526020929092522090565b5416604051908152f35b346100c95760203660031901126100c95761062e610176565b6001546001600160a01b0391908216330361034c57815f549116809282167facdb35963fc2f391109a5045fd4850b0e0759d19f21fcaa7ab17b7d8512a9eca5f80a36001600160a01b031916175f55005b634e487b7160e01b5f52604160045260245ffd5b67ffffffffffffffff81116106a757604052565b61067f565b90601f8019910116810190811067ffffffffffffffff8211176106a757604052565b906106dc60405192836106ac565b565b6040513d5f823e3d90fd5b600354680100000000000000008110156106a75760018101806003558110156107515760035f527fc2575a0e9e593c00f959f8c92f12db2869c3395a3b0502d05e2516446f71f85b0180546001600160a01b0319166001600160a01b03909216919091179055565b634e487b7160e01b5f52603260045260245ffdfe60a034610306576001600160401b03906040908082018381118282101761021d578252600b81526020926a0416e646553776170204c560ac1b848301528251908382018281108282111761021d57845260078252660414e44452d4c560cc1b85830152825181811161021d576003908154906001958683811c931680156102fc575b898410146102e8578190601f9384811161029a575b50899084831160011461023c575f92610231575b50505f1982851b1c191690861b1782555b835192831161021d576004938454978689811c99168015610213575b818a1014610200578883869798999a116101ac575b508092851160011461014757505f9361013c575b505082851b925f19911b1c19161790555b6005553360805251611c4c908161030b823960805181818161030001528181610c79015261194b0152f35b015191505f80610100565b929190879550601f198516875f52845f20945f905b828210610193575050851161017a575b50505050811b019055610111565b01519060f8845f19921b161c191690555f80808061016c565b8484015187558a9890960195938401939081019061015c565b909192939450865f52815f208480880160051c8201928489106101f7575b918a91899897969594930160051c01915b8281106101e95750506100ec565b5f81558897508a91016101db565b925081926101ca565b602286634e487b7160e01b5f525260245ffd5b98607f16986100d7565b634e487b7160e01b5f52604160045260245ffd5b015190505f806100aa565b90889350601f19831691865f528b5f20925f5b8d828210610284575050841161026d575b505050811b0182556100bb565b01515f1983871b60f8161c191690555f8080610260565b8385015186558c9790950194938401930161024f565b909150845f52895f208480850160051c8201928c86106102df575b918a91869594930160051c01915b8281106102d1575050610096565b5f81558594508a91016102c3565b925081926102b5565b634e487b7160e01b5f52602260045260245ffd5b92607f1692610081565b5f80fdfe6080806040526004361015610012575f80fd5b5f905f3560e01c908163017e7e58146114f957508063022c0d9f14610ffa57806306fdde0314610f3d5780630902f1ac14610ee4578063095ea7b314610e615780630dfe168114610e3857806318160ddd14610e1a57806323b872dd14610d33578063313ce56714610d1757806341cd47bf14610cfa578063485cc95514610c4c5780635909c0d514610c2e5780635a3d549314610c105780636a6278421461097557806370a082311461093d5780637464fc3d1461091f5780637f791d601461090357806389afcb44146105a357806395d89b411461049f578063a9059cbb1461046d578063ba9a7a56146102bc578063bc25cf771461032f578063c45a0155146102ea578063d21220a7146102c1578063d73792a9146102bc578063dd62ed3e1461026f5763fff6cae914610147575f80fd5b3461026c578060031936011261026c5761015f6115ee565b6006546040516370a0823160e01b808252306004830152916020916001600160a01b039183908290602490829086165afa9182156102615783918693610230575b50600754169360246040518096819382523060048301525afa9182156102255784926101ef575b506101e79250600854916001600160701b03808460701c1693169161172f565b600160055580f35b90915082813d831161021e575b610206818361158e565b8101031261021a576101e79151905f6101c7565b5f80fd5b503d6101fc565b6040513d86823e3d90fd5b8281939294503d831161025a575b610248818361158e565b8101031261021a57829051915f6101a0565b503d61023e565b6040513d87823e3d90fd5b80fd5b503461026c57604036600319011261026c5761028961151c565b6040610293611532565b9260018060a01b03809316815260016020522091165f52602052602060405f2054604051908152f35b611572565b503461026c578060031936011261026c576007546040516001600160a01b039091168152602090f35b503461026c578060031936011261026c576040517f00000000000000000000000000000000000000000000000000000000000000006001600160a01b03168152602090f35b503461026c576020806003193601126104695761034a61151c565b906103536115ee565b6006546007546040516370a0823160e01b80825230600483015290946001600160a01b039283169490939092168286602481845afa95861561045e57879661042d575b506103b990846103b36001600160701b03988960085416906115b0565b91611611565b6040519081523060048201528181602481875afa9182156104225786926103f2575b50506103b3906101e79460085460701c16906115b0565b90809250813d831161041b575b610409818361158e565b8101031261021a5751836103b36103db565b503d6103ff565b6040513d88823e3d90fd5b9095508281813d8311610457575b610445818361158e565b8101031261021a5751946103b9610396565b503d61043b565b6040513d89823e3d90fd5b5080fd5b503461026c57604036600319011261026c5761049461048a61151c565b6024359033611857565b602060405160018152f35b503461026c578060031936011261026c57604051816004549060018260011c9160018416938415610599575b602094858510811461058557848752908115610563575060011461050a575b610506856104fa8189038261158e565b60405191829182611548565b0390f35b929450600483527f8a35acfbc15ff81a39ae7d344fd709f28e8600b4aa8c65c6b64bfe7fe36bd19b5b8284106105505750505081610506936104fa92820101935f6104ea565b8054858501870152928501928101610533565b60ff191686860152505050151560051b82010191506104fa816105065f6104ea565b634e487b7160e01b83526022600452602483fd5b92607f16926104cb565b503461026c576020908160031936011261026c576105bf61151c565b906105c86115ee565b6105e76008546001600160701b0391828216928260701c169160e01c90565b506006546007546040516370a0823160e01b8082523060048301529794966001600160a01b039384169690949192841686846024818b5afa9384156108f85782946108c9575b5060405199808b523060048c0152878b602481855afa9889156108be578a9b849b9a61088b575b5030845283895261068f61066d8660408720549c61192b565b966106836106888d6106836002549485926115bd565b6115d0565b9d8d6115bd565b998b158015610883575b61087157301561085857305f525f8a5260405f205481811061083057915f828c93602497969530845283865203604083205580600254036002556040519081525f80516020611bf7833981519152843092a36106f68d8b83611611565b6107018c8b86611611565b604051948580928582523060048301525afa9283156102255790899185946107ff575b5060246040518094819382523060048301525afa9283156107f357926107bd575b5098610754929160409a61172f565b61079a575b855191858352848484015216907fdccd412f0b1252819cb1fd330b93224ca42612892bb3f4f789976e6d81936496863392a360016005558351928352820152f35b6107b56008546001600160701b03808260701c1691166115bd565b600b55610759565b929150988683813d83116107ec575b6107d6818361158e565b8101031261021a57915191989091906040610745565b503d6107cc565b604051903d90823e3d90fd5b8281939295503d8311610829575b610817818361158e565b8101031261021a57889051925f610724565b503d61080d565b60405163391434e360e21b815230600482015260248101919091526044810191909152606490fd5b604051634b637e8f60e11b815260048101869052602490fd5b60405163749383ad60e01b8152600490fd5b508a15610699565b8980929c50819b503d83116108b7575b6108a5818361158e565b8101031261021a578a9851995f610654565b503d61089b565b6040513d85823e3d90fd5b9093508681813d83116108f1575b6108e1818361158e565b8101031261021a5751925f61062d565b503d6108d7565b6040513d84823e3d90fd5b503461026c578060031936011261026c57602060405160068152f35b503461026c578060031936011261026c576020600b54604051908152f35b503461026c57602036600319011261026c576020906040906001600160a01b0361096561151c565b1681528083522054604051908152f35b503461026c576020908160031936011261026c5761099161151c565b6109996115ee565b6109b86008546001600160701b0391828216928260701c169160e01c90565b506006546040516370a0823160e01b8082523060048301529395939490916001600160a01b039088908490602490829085165afa928315610261579088918694610bdf575b50600754169560246040518098819382523060048301525afa948515610225578495610bb0575b506001600160701b039283871696610a3c88856115b0565b9685831694610a4b86836115b0565b97610a56858561192b565b966002549b8c155f14610b77575050610a77610a728a8c6115bd565b611a6b565b6103e719810191908211610b635750996103e890818101809111610b4f576002555f5f80516020611bf78339815191528d61dead9384845283825260408420818154019055604051908152a35b8915610b3d57610ad78a610adc96611bac565b61172f565b610b1f575b50604051918252838201527f4c209b5fc8ad50758f13e2e1088ba56a560dff690a1c6fef26394f4c03821c4f60403392a26001600555604051908152f35b610b349060085490808260701c1691166115bd565b600b555f610ae1565b604051633489be7560e21b8152600490fd5b634e487b7160e01b5f52601160045260245ffd5b634e487b7160e01b81526011600452602490fd5b90610683610b90610b97938f969f8f90610683916115bd565b948c6115bd565b905080821015610ba957505b98610ac4565b9050610ba3565b9094508681813d8311610bd8575b610bc8818361158e565b8101031261021a5751935f610a24565b503d610bbe565b8281939295503d8311610c09575b610bf7818361158e565b8101031261021a57879051925f6109fd565b503d610bed565b503461026c578060031936011261026c576020600a54604051908152f35b503461026c578060031936011261026c576020600954604051908152f35b503461026c57604036600319011261026c57610c6661151c565b610c6e611532565b6001600160a01b03907f000000000000000000000000000000000000000000000000000000000000000082163303610cc957816bffffffffffffffffffffffff60a01b93168360065416176006551690600754161760075580f35b60405162461bcd60e51b81526020600482015260096024820152682327a92124a22222a760b91b6044820152606490fd5b503461026c578060031936011261026c5760206040516103e58152f35b503461026c578060031936011261026c57602060405160128152f35b503461026c57606036600319011261026c57610d4d61151c565b610d55611532565b60443591604060018060a01b03821694858152600160205220335f5260205260405f2054935f198503610d8e575b506104949350611857565b838510610df4578015610ddc573315610dc4576104949484915f52600160205260405f20335f526020520360405f20555f610d83565b604051634a1406b160e11b81525f6004820152602490fd5b60405163e602df0560e01b81525f6004820152602490fd5b604051637dc7a0d960e11b81523360048201526024810186905260448101859052606490fd5b503461026c578060031936011261026c576020600254604051908152f35b503461026c578060031936011261026c576006546040516001600160a01b039091168152602090f35b503461026c57604036600319011261026c57610e7b61151c565b602435903315610ddc576001600160a01b0316908115610dc457335f52600160205260405f20825f526020528060405f20556040519081527f8c5be1e5ebec7d5bd14f71427d1e84f3dd0314c0f7b2291e5b200ac8c7c3b92560203392a3602060405160018152f35b503461026c578060031936011261026c57606063ffffffff610f1b6008546001600160701b0391828216928260701c169160e01c90565b909291604051936001600160701b038092168552166020840152166040820152f35b503461026c578060031936011261026c57604051816003549060018260011c9160018416938415610ff0575b6020948585108114610585578487529081156105635750600114610f9757610506856104fa8189038261158e565b929450600383527fc2575a0e9e593c00f959f8c92f12db2869c3395a3b0502d05e2516446f71f85b5b828410610fdd5750505081610506936104fa92820101935f6104ea565b8054858501870152928501928101610fc0565b92607f1692610f69565b503461021a57608036600319011261021a576001600160a01b03604435808216900361021a5767ffffffffffffffff6064351161021a5736602360643501121561021a5767ffffffffffffffff606435600401351161021a573660246064356004013560643501011161021a5761106f6115ee565b600435159081806114ef575b6114dd5761109e6008546001600160701b0391828216928260701c169160e01c90565b506001600160701b0382949216600435108015906114c8575b6114b6578260065416908360075416928285604435161480156114a9575b6114975715611483575b60243561146f575b606435600401356113a4575b604051916020836024816370a0823160e01b948582523060048301525afa92831561045e57879361136f575b5060209060246040518096819382523060048301525afa92831561042257869361133b575b5061115a6004356001600160701b0387166115b0565b8211156113345761117f6111796004356001600160701b0388166115b0565b836115b0565b945b6111966024356001600160701b0384166115b0565b84111561132d576111bb6111b56024356001600160701b0385166115b0565b856115b0565b935b86158080611325575b61131357846103e88102046103e814851517156112ff57600388029088820460031417156112ff576111fc906103e886026115b0565b6103e882028281046103e814831517156112d7576003870290878204600314881517156112eb576112379291611231916115b0565b906115bd565b6112536001600160701b0385166001600160701b0385166115bd565b90620f4240918281029281840414901517156112d757106112c5576112779361172f565b60405192835260208301526004356040830152602435606083015260443516907fd78ad95fa46c994b6551d0da85fc275fe613ce37657fb8d5e3d130840159d82260803392a3600160055580f35b604051632f62f0d960e21b8152600490fd5b634e487b7160e01b8a52601160045260248afd5b634e487b7160e01b8b52601160045260248bfd5b634e487b7160e01b89526011600452602489fd5b60405163098fb56160e01b8152600490fd5b5085156111c6565b86936111bd565b8594611181565b9092506020813d602011611367575b816113576020938361158e565b8101031261021a5751915f611144565b3d915061134a565b9092506020813d60201161139c575b8161138b6020938361158e565b8101031261021a575191602061111f565b3d915061137e565b83604435163b1561021a576040516366f543f560e01b815233600482015260043560248201526024356044820152608060648201526064356004013560848201526064356004013560246064350160a48301375f6004606435013582810160a49081018390528391601f01601f191682018290030181836044358a165af1801561146457611433575b506110f3565b90955067ffffffffffffffff8111611450576040525f945f61142d565b634e487b7160e01b5f52604160045260245ffd5b6040513d5f823e3d90fd5b61147e60243560443585611611565b6110e7565b61149260043560443584611611565b6110df565b604051630521f43160e31b8152600490fd5b50838560443516146110d5565b60405163bb55fd2760e01b8152600490fd5b506001600160701b03811660243510156110b7565b6040516342301c2360e01b8152600490fd5b506024351561107b565b3461021a575f36600319011261021a57600c546001600160a01b03168152602090f35b600435906001600160a01b038216820361021a57565b602435906001600160a01b038216820361021a57565b602060409281835280519182918282860152018484015e5f828201840152601f01601f1916010190565b3461021a575f36600319011261021a5760206040516103e88152f35b90601f8019910116810190811067ffffffffffffffff82111761145057604052565b91908203918211610b4f57565b81810292918115918404141715610b4f57565b81156115da570490565b634e487b7160e01b5f52601260045260245ffd5b6002600554146115ff576002600555565b604051633ee5aeb560e01b8152600490fd5b6040516020938482019363a9059cbb60e01b855260018060a01b03166024830152604482015260448152608081019167ffffffffffffffff9382841085851117611450575f809493819460405251925af1903d1561170f573d9081116114505760405190611688601f8201601f191685018361158e565b81523d5f8483013e5b816116d6575b50156116a05750565b6064906040519062461bcd60e51b82526004820152600f60248201526e1514905394d1915497d19052531151608a1b6044820152fd5b809150518281159182156116ef575b505090505f611697565b838092935001031261021a57810151801515810361021a5780825f6116e5565b506060611691565b6001600160e01b03918216919082156115da57160490565b926001600160701b0390818511801561184e575b61183c577f1c411e9a96e071241c2f21f7726b17ae89e3cab4c78be50e062b03a9fffbbad194604094839263ffffffff60085460e01c81421603169182151580611831575b80611826575b6117d1575b505050607093841b600160701b600160e01b031691169081174260e01b6001600160e01b031916176008819055845191825290921c166020820152a1565b6001600160e01b03916118159190600160701b600160e01b039087908686611801848716607085901b8716611717565b160260095401600955169160701b16611717565b1602600a5401600a555f8080611793565b50848216151561178e565b508481161515611788565b604051631a93c68960e11b8152600490fd5b50818311611743565b916001600160a01b0380841692831561190657169283156118ee57825f525f60205260405f2054908282106118bc5750815f80516020611bf783398151915292602092855f525f84520360405f2055845f5260405f20818154019055604051908152a3565b60405163391434e360e21b81526001600160a01b03919091166004820152602481019190915260448101829052606490fd5b60405163ec442f0560e01b81525f6004820152602490fd5b604051634b637e8f60e11b81525f6004820152602490fd5b91908201809211610b4f57565b604051622fcfcb60e31b8152919291906001600160a01b036020836004817f000000000000000000000000000000000000000000000000000000000000000085165afa928315611464575f93611a2e575b508216151593600b5491855f14611a1e5782611999575b50505050565b610a726119b6916119bc936001600160701b0380911691166115bd565b91611a6b565b908181116119cb575b80611993565b6119db60025461123184846115b0565b90600581029080820460051490151715610b4f57611a02926119fc9161191e565b906115d0565b80611a0e575b806119c5565b611a1791611bac565b5f80611a08565b50509050611a2857565b5f600b55565b9092506020813d602011611a63575b81611a4a6020938361158e565b8101031261021a5751828116810361021a57915f61197c565b3d9150611a3d565b8015611ba757611b35815f908360801c80611b9b575b508060401c80611b8e575b508060201c80611b81575b508060101c80611b74575b508060081c80611b67575b508060041c80611b5a575b508060021c80611b4d575b50600191828092811c611b46575b1c1b611add81856115d0565b01811c611aea81856115d0565b01811c611af781856115d0565b01811c611b0481856115d0565b01811c611b1181856115d0565b01811c611b1e81856115d0565b01811c611b2b81856115d0565b01901c80926115d0565b80821015611b41575090565b905090565b0181611ad1565b600291509101905f611ac3565b600491509101905f611ab8565b600891509101905f611aad565b601091509101905f611aa2565b602091509101905f611a97565b604091509101905f611a8c565b9150506080905f611a81565b505f90565b6001600160a01b03169081156118ee575f80516020611bf7833981519152602082611bda5f9460025461191e565b60025584845283825260408420818154019055604051908152a356feddf252ad1be2c89b69c2b068fc378daa952ba7f163c4a11628f55a4df523b3efa2646970667358221220432c48325bc1990f3b60312f88d53201d3dc1f18bd4342328a7b0c92c27dad2164736f6c63430008190033a264697066735822122076467a42f863d08a2cbae3f690f79df6300555996bbeb9b51afe93ef7e74d99364736f6c63430008190033","linkReferences":{}},"methodIdentifiers":{"allPairs(uint256)":"1e3dd18b","allPairsLength()":"574f2ba3","createPair(address,address)":"c9c65396","feeTo()":"017e7e58","feeToSetter()":"094b7415","getPair(address,address)":"e6a43905","pairFor(address,address)":"96ed28f9","setFeeTo(address)":"f46901ed","setFeeToSetter(address)":"a2e74af6"},"id":124}