{"abi":[{"type":"constructor","inputs":[{"name":"name","type":"string","internalType":"string"},{"name":"symbol","type":"string","internalType":"string"},{"name":"totalSupply","type":"uint256","internalType":"uint256"},{"name":"_creator","type":"address","internalType":"address"}],"stateMutability":"nonpayable"},{"type":"function","name":"allowance","inputs":[{"name":"owner","type":"address","internalType":"address"},{"name":"spender","type":"address","internalType":"address"}],"outputs":[{"name":"","type":"uint256","internalType":"uint256"}],"stateMutability":"view"},{"type":"function","name":"approve","inputs":[{"name":"spender","type":"address","internalType":"address"},{"name":"value","type":"uint256","internalType":"uint256"}],"outputs":[{"name":"","type":"bool","internalType":"bool"}],"stateMutability":"nonpayable"},{"type":"function","name":"balanceOf","inputs":[{"name":"account","type":"address","internalType":"address"}],"outputs":[{"name":"","type":"uint256","internalType":"uint256"}],"stateMutability":"view"},{"type":"function","name":"burn","inputs":[{"name":"value","type":"uint256","internalType":"uint256"}],"outputs":[],"stateMutability":"nonpayable"},{"type":"function","name":"burnFrom","inputs":[{"name":"account","type":"address","internalType":"address"},{"name":"value","type":"uint256","internalType":"uint256"}],"outputs":[],"stateMutability":"nonpayable"},{"type":"function","name":"creator","inputs":[],"outputs":[{"name":"","type":"address","internalType":"address"}],"stateMutability":"view"},{"type":"function","name":"decimals","inputs":[],"outputs":[{"name":"","type":"uint8","internalType":"uint8"}],"stateMutability":"view"},{"type":"function","name":"name","inputs":[],"outputs":[{"name":"","type":"string","internalType":"string"}],"stateMutability":"view"},{"type":"function","name":"symbol","inputs":[],"outputs":[{"name":"","type":"string","internalType":"string"}],"stateMutability":"view"},{"type":"function","name":"totalSupply","inputs":[],"outputs":[{"name":"","type":"uint256","internalType":"uint256"}],"stateMutability":"view"},{"type":"function","name":"transfer","inputs":[{"name":"to","type":"address","internalType":"address"},{"name":"value","type":"uint256","internalType":"uint256"}],"outputs":[{"name":"","type":"bool","internalType":"bool"}],"stateMutability":"nonpayable"},{"type":"function","name":"transferFrom","inputs":[{"name":"from","type":"address","internalType":"address"},{"name":"to","type":"address","internalType":"address"},{"name":"value","type":"uint256","internalType":"uint256"}],"outputs":[{"name":"","type":"bool","internalType":"bool"}],"stateMutability":"nonpayable"},{"type":"event","name":"Approval","inputs":[{"name":"owner","type":"address","indexed":true,"internalType":"address"},{"name":"spender","type":"address","indexed":true,"internalType":"address"},{"name":"value","type":"uint256","indexed":false,"internalType":"uint256"}],"anonymous":false},{"type":"event","name":"Transfer","inputs":[{"name":"from","type":"address","indexed":true,"internalType":"address"},{"name":"to","type":"address","indexed":true,"internalType":"address"},{"name":"value","type":"uint256","indexed":false,"internalType":"uint256"}],"anonymous":false},{"type":"error","name":"ERC20InsufficientAllowance","inputs":[{"name":"spender","type":"address","internalType":"address"},{"name":"allowance","type":"uint256","internalType":"uint256"},{"name":"needed","type":"uint256","internalType":"uint256"}]},{"type":"error","name":"ERC20InsufficientBalance","inputs":[{"name":"sender","type":"address","internalType":"address"},{"name":"balance","type":"uint256","internalType":"uint256"},{"name":"needed","type":"uint256","internalType":"uint256"}]},{"type":"error","name":"ERC20InvalidApprover","inputs":[{"name":"approver","type":"address","internalType":"address"}]},{"type":"error","name":"ERC20InvalidReceiver","inputs":[{"name":"receiver","type":"address","internalType":"address"}]},{"type":"error","name":"ERC20InvalidSender","inputs":[{"name":"sender","type":"address","internalType":"address"}]},{"type":"error","name":"ERC20InvalidSpender","inputs":[{"name":"spender","type":"address","internalType":"address"}]}],"bytecode":{"object":"0x604060a081523461037557610e7c8038038061001a81610379565b92833981016080828203126103755781516001600160401b039290838111610375578261004891830161039e565b60209283830151908582116103755761006291840161039e565b906060868401519301519060018060a01b0382169586830361037557815181811161028a576003908154906001948583811c9316801561036b575b8a841014610357578190601f93848111610309575b508a908483116001146102a9575f9261029e575b50505f1982851b1c191690851b1782555b855192831161028a5760049586548581811c91168015610280575b8a82101461026d5782811161022a575b50889184116001146101c8579383949184925f956101bd575b50501b925f19911b1c19161782555b60805283156101a7576002549082820180921161019457506002555f8381528083528481208054830190558451918252917fddf252ad1be2c89b69c2b068fc378daa952ba7f163c4a11628f55a4df523b3ef91a351610a8c90816103f08239608051816106450152f35b601190634e487b7160e01b5f525260245ffd5b6024905f86519163ec442f0560e01b8352820152fd5b015193505f8061011b565b9190601f19841692875f52848a5f20945f5b8c8983831061021357505050106101fa575b50505050811b01825561012a565b01519060f8845f19921b161c191690555f8080806101ec565b8686015189559097019694850194889350016101da565b875f52895f208380870160051c8201928c8810610264575b0160051c019086905b828110610259575050610102565b5f815501869061024b565b92508192610242565b602288634e487b7160e01b5f525260245ffd5b90607f16906100f2565b634e487b7160e01b5f52604160045260245ffd5b015190505f806100c6565b5f8681528c8120899550929190601f198516908e5b8282106102f257505084116102db575b505050811b0182556100d7565b01515f1983871b60f8161c191690555f80806102ce565b8385015186558b979095019493840193018e6102be565b909150845f528a5f208480850160051c8201928d861061034e575b918991869594930160051c01915b8281106103405750506100b2565b5f8155859450899101610332565b92508192610324565b634e487b7160e01b5f52602260045260245ffd5b92607f169261009d565b5f80fd5b6040519190601f01601f191682016001600160401b0381118382101761028a57604052565b81601f82011215610375578051906001600160401b03821161028a576103cd601f8301601f1916602001610379565b928284526020838301011161037557815f9260208093018386015e830101529056fe6080604090808252600480361015610015575f80fd5b5f3560e01c91826302d05d3f1461061b5750816306fdde03146104f5578163095ea7b31461040e57816318160ddd146103f057816323b872dd146103b4578163313ce5671461039957816342966c681461037d57816370a082311461033a57816379cc67901461030957816395d89b411461012e57508063a9059cbb146100fe5763dd62ed3e146100a4575f80fd5b346100fa57806003193601126100fa576020906100bf6106b1565b6100c76106d4565b9073ffffffffffffffffffffffffffffffffffffffff8091165f5260018452825f2091165f528252805f20549051908152f35b5f80fd5b50346100fa57806003193601126100fa5760209061012761011d6106b1565b6024359033610847565b5160018152f35b9050346100fa575f6003193601126100fa5781515f928254936001948060011c600182169687156102ff575b60209283831089146102d357869798838897985290815f1461027857506001146101fd575b50505003601f017fffffffffffffffffffffffffffffffffffffffffffffffffffffffffffffffe01682019267ffffffffffffffff8411838510176101d157508291826101cd925282610669565b0390f35b6041907f4e487b71000000000000000000000000000000000000000000000000000000005f525260245ffd5b5f888152929493507f8a35acfbc15ff81a39ae7d344fd709f28e8600b4aa8c65c6b64bfe7fe36bd19b5b82841061026257505050907fffffffffffffffffffffffffffffffffffffffffffffffffffffffffffffffe092601f9282010191819361017f565b8054888501870152879450928501928101610227565b7fffffffffffffffffffffffffffffffffffffffffffffffffffffffffffffff0016848701525050151560051b830101905081601f7fffffffffffffffffffffffffffffffffffffffffffffffffffffffffffffffe061017f565b6022887f4e487b71000000000000000000000000000000000000000000000000000000005f525260245ffd5b90607f169061015a565b82346100fa576003193601126100fa576103386103246106b1565b602435906103338233836106f7565b610984565b005b82346100fa5760206003193601126100fa5760209073ffffffffffffffffffffffffffffffffffffffff61036c6106b1565b165f525f8252805f20549051908152f35b346100fa5760206003193601126100fa57610338903533610984565b82346100fa575f6003193601126100fa576020905160128152f35b82346100fa5760606003193601126100fa576020906101276103d46106b1565b6103dc6106d4565b604435916103eb8333836106f7565b610847565b82346100fa575f6003193601126100fa576020906002549051908152f35b82346100fa57806003193601126100fa576104276106b1565b6024359033156104c65773ffffffffffffffffffffffffffffffffffffffff169081156104975760209350335f5260018452825f20825f52845280835f205582519081527f8c5be1e5ebec7d5bd14f71427d1e84f3dd0314c0f7b2291e5b200ac8c7c3b925843392a35160018152f35b6024845f8551917f94280d62000000000000000000000000000000000000000000000000000000008352820152fd5b6024845f8551917fe602df05000000000000000000000000000000000000000000000000000000008352820152fd5b9050346100fa575f6003193601126100fa5781515f92600354936001948060011c60018216968715610611575b60209283831089146102d357869798838897985290815f1461027857506001146105945750505003601f017fffffffffffffffffffffffffffffffffffffffffffffffffffffffffffffffe01682019267ffffffffffffffff8411838510176101d157508291826101cd925282610669565b60035f908152929493507fc2575a0e9e593c00f959f8c92f12db2869c3395a3b0502d05e2516446f71f85b5b8284106105fb57505050907fffffffffffffffffffffffffffffffffffffffffffffffffffffffffffffffe092601f9282010191819361017f565b80548885018701528794509285019281016105c0565b90607f1690610522565b346100fa575f6003193601126100fa5760209073ffffffffffffffffffffffffffffffffffffffff7f0000000000000000000000000000000000000000000000000000000000000000168152f35b7fffffffffffffffffffffffffffffffffffffffffffffffffffffffffffffffe0601f602060409481855280519182918282880152018686015e5f8582860101520116010190565b6004359073ffffffffffffffffffffffffffffffffffffffff821682036100fa57565b6024359073ffffffffffffffffffffffffffffffffffffffff821682036100fa57565b919073ffffffffffffffffffffffffffffffffffffffff80931692835f526001602052604093845f2091831691825f52602052845f2054927fffffffffffffffffffffffffffffffffffffffffffffffffffffffffffffffff840361075f575b505050505050565b8484106107f1575080156107c2578115610793575f526001602052835f20905f5260205203905f20555f8080808080610757565b602485517f94280d620000000000000000000000000000000000000000000000000000000081525f6004820152fd5b602485517fe602df050000000000000000000000000000000000000000000000000000000081525f6004820152fd5b85517ffb8f41b200000000000000000000000000000000000000000000000000000000815273ffffffffffffffffffffffffffffffffffffffff9190911660048201526024810184905260448101859052606490fd5b9173ffffffffffffffffffffffffffffffffffffffff808416928315610954571692831561092457825f525f60205260405f2054908282106108cc5750817fddf252ad1be2c89b69c2b068fc378daa952ba7f163c4a11628f55a4df523b3ef92602092855f525f84520360405f2055845f5260405f20818154019055604051908152a3565b6040517fe450d38c00000000000000000000000000000000000000000000000000000000815273ffffffffffffffffffffffffffffffffffffffff919091166004820152602481019190915260448101829052606490fd5b60246040517fec442f050000000000000000000000000000000000000000000000000000000081525f6004820152fd5b60246040517f96c6fd1e0000000000000000000000000000000000000000000000000000000081525f6004820152fd5b919073ffffffffffffffffffffffffffffffffffffffff831690811561095457815f525f60205260405f2054938185106109fe57506020817fddf252ad1be2c89b69c2b068fc378daa952ba7f163c4a11628f55a4df523b3ef925f95968587528684520360408620558060025403600255604051908152a3565b6040517fe450d38c00000000000000000000000000000000000000000000000000000000815273ffffffffffffffffffffffffffffffffffffffff919091166004820152602481018590526044810191909152606490fdfea2646970667358221220a35cebb9cc0a633bbd27126fe6821de0a880d996af7bf514e41c82f551bb10a364736f6c63430008190033","linkReferences":{}},"methodIdentifiers":{"allowance(address,address)":"dd62ed3e","approve(address,uint256)":"095ea7b3","balanceOf(address)":"70a08231","burn(uint256)":"42966c68","burnFrom(address,uint256)":"79cc6790","creator()":"02d05d3f","decimals()":"313ce567","name()":"06fdde03","symbol()":"95d89b41","totalSupply()":"18160ddd","transfer(address,uint256)":"a9059cbb","transferFrom(address,address,uint256)":"23b872dd"},"id":153}