{"abi":[{"type":"constructor","inputs":[{"name":"initialPrice","type":"int256","internalType":"int256"},{"name":"decimals_","type":"uint8","internalType":"uint8"}],"stateMutability":"nonpayable"},{"type":"function","name":"decimals","inputs":[],"outputs":[{"name":"","type":"uint8","internalType":"uint8"}],"stateMutability":"view"},{"type":"function","name":"getPrice","inputs":[],"outputs":[{"name":"","type":"uint256","internalType":"uint256"}],"stateMutability":"view"},{"type":"function","name":"latestRoundData","inputs":[],"outputs":[{"name":"roundId","type":"uint80","internalType":"uint80"},{"name":"answer","type":"int256","internalType":"int256"},{"name":"startedAt","type":"uint256","internalType":"uint256"},{"name":"updatedAt","type":"uint256","internalType":"uint256"},{"name":"answeredInRound","type":"uint80","internalType":"uint80"}],"stateMutability":"view"},{"type":"function","name":"owner","inputs":[],"outputs":[{"name":"","type":"address","internalType":"address"}],"stateMutability":"view"},{"type":"function","name":"renounceOwnership","inputs":[],"outputs":[],"stateMutability":"nonpayable"},{"type":"function","name":"setPrice","inputs":[{"name":"newPrice","type":"uint256","internalType":"uint256"}],"outputs":[],"stateMutability":"nonpayable"},{"type":"function","name":"transferOwnership","inputs":[{"name":"newOwner","type":"address","internalType":"address"}],"outputs":[],"stateMutability":"nonpayable"},{"type":"event","name":"OwnershipTransferred","inputs":[{"name":"previousOwner","type":"address","indexed":true,"internalType":"address"},{"name":"newOwner","type":"address","indexed":true,"internalType":"address"}],"anonymous":false},{"type":"event","name":"PriceUpdated","inputs":[{"name":"newPrice","type":"uint256","indexed":false,"internalType":"uint256"}],"anonymous":false},{"type":"error","name":"OwnableInvalidOwner","inputs":[{"name":"owner","type":"address","internalType":"address"}]},{"type":"error","name":"OwnableUnauthorizedAccount","inputs":[{"name":"account","type":"address","internalType":"address"}]}],"bytecode":{"object":"0x60803461011c57601f61052e38819003918201601f19168301916001600160401b0383118484101761012057808492604094855283398101031261011c57602081519101519060ff821680920361011c573315610104575f8054336001600160a01b03198216811783556040519290916001600160a01b0316907f8be0079c531659141344cd1fd0a4f28419497f9722a3daafe3b4186f6b6457e09080a35f82126100c2575060015560ff1960025416176002556040516103f990816101358239f35b62461bcd60e51b815260206004820152601a60248201527f5072696365206d757374206265206e6f6e2d6e656761746976650000000000006044820152606490fd5b604051631e4fbdf760e01b81525f6004820152602490fd5b5f80fd5b634e487b7160e01b5f52604160045260245ffdfe60806040908082526004361015610014575f80fd5b5f3560e01c908163313ce5671461033857508063715018a61461029e5780638da5cb5b1461024d57806391b7f5ed146101e257806398d5fdca146101a6578063f2fde38b146100c45763feaf968c1461006b575f80fd5b346100c0575f7ffffffffffffffffffffffffffffffffffffffffffffffffffffffffffffffffc3601126100c05760a09060015490805191600183526020830152429082015242606082015260016080820152f35b5f80fd5b50346100c05760207ffffffffffffffffffffffffffffffffffffffffffffffffffffffffffffffffc3601126100c0576004359073ffffffffffffffffffffffffffffffffffffffff908183168093036100c057610120610373565b821561017757505f54827fffffffffffffffffffffffff00000000000000000000000000000000000000008216175f55167f8be0079c531659141344cd1fd0a4f28419497f9722a3daafe3b4186f6b6457e05f80a3005b602490517f1e4fbdf70000000000000000000000000000000000000000000000000000000081525f6004820152fd5b50346100c0575f7ffffffffffffffffffffffffffffffffffffffffffffffffffffffffffffffffc3601126100c0576020906001549051908152f35b50346100c05760207ffffffffffffffffffffffffffffffffffffffffffffffffffffffffffffffffc3601126100c05760207f66cbca4f3c64fecf1dcb9ce094abcf7f68c3450a1d4e3a8e917dd621edb4ebe09160043590610242610373565b8160015551908152a1005b50346100c0575f7ffffffffffffffffffffffffffffffffffffffffffffffffffffffffffffffffc3601126100c05760209073ffffffffffffffffffffffffffffffffffffffff5f54169051908152f35b346100c0575f7ffffffffffffffffffffffffffffffffffffffffffffffffffffffffffffffffc3601126100c0576102d4610373565b5f73ffffffffffffffffffffffffffffffffffffffff81547fffffffffffffffffffffffff000000000000000000000000000000000000000081168355167f8be0079c531659141344cd1fd0a4f28419497f9722a3daafe3b4186f6b6457e08280a3005b346100c0575f7ffffffffffffffffffffffffffffffffffffffffffffffffffffffffffffffffc3601126100c05760209060ff600254168152f35b73ffffffffffffffffffffffffffffffffffffffff5f5416330361039357565b60246040517f118cdaa7000000000000000000000000000000000000000000000000000000008152336004820152fdfea264697066735822122000aa20e6036004a1933efbf969d24df2408c281f6a914fe56a36c347b45510f664736f6c63430008190033","linkReferences":{}},"methodIdentifiers":{"decimals()":"313ce567","getPrice()":"98d5fdca","latestRoundData()":"feaf968c","owner()":"8da5cb5b","renounceOwnership()":"715018a6","setPrice(uint256)":"91b7f5ed","transferOwnership(address)":"f2fde38b"},"id":172}