{"abi":[{"type":"constructor","inputs":[{"name":"initialPrice","type":"int256","internalType":"int256"},{"name":"decimals_","type":"uint8","internalType":"uint8"}],"stateMutability":"nonpayable"},{"type":"function","name":"decimals","inputs":[],"outputs":[{"name":"","type":"uint8","internalType":"uint8"}],"stateMutability":"view"},{"type":"function","name":"getPrice","inputs":[],"outputs":[{"name":"","type":"uint256","internalType":"uint256"}],"stateMutability":"view"},{"type":"function","name":"latestRoundData","inputs":[],"outputs":[{"name":"roundId","type":"uint80","internalType":"uint80"},{"name":"answer","type":"int256","internalType":"int256"},{"name":"startedAt","type":"uint256","internalType":"uint256"},{"name":"updatedAt","type":"uint256","internalType":"uint256"},{"name":"answeredInRound","type":"uint80","internalType":"uint80"}],"stateMutability":"view"},{"type":"function","name":"owner","inputs":[],"outputs":[{"name":"","type":"address","internalType":"address"}],"stateMutability":"view"},{"type":"function","name":"renounceOwnership","inputs":[],"outputs":[],"stateMutability":"nonpayable"},{"type":"function","name":"setPrice","inputs":[{"name":"newPrice","type":"uint256","internalType":"uint256"}],"outputs":[],"stateMutability":"nonpayable"},{"type":"function","name":"transferOwnership","inputs":[{"name":"newOwner","type":"address","internalType":"address"}],"outputs":[],"stateMutability":"nonpayable"},{"type":"event","name":"OwnershipTransferred","inputs":[{"name":"previousOwner","type":"address","indexed":true,"internalType":"address"},{"name":"newOwner","type":"address","indexed":true,"internalType":"address"}],"anonymous":false},{"type":"event","name":"PriceUpdated","inputs":[{"name":"newPrice","type":"uint256","indexed":false,"internalType":"uint256"}],"anonymous":false},{"type":"error","name":"OwnableInvalidOwner","inputs":[{"name":"owner","type":"address","internalType":"address"}]},{"type":"error","name":"OwnableUnauthorizedAccount","inputs":[{"name":"account","type":"address","internalType":"address"}]}],"bytecode":{"object":"0x60803461011c57601f6103cf38819003918201601f19168301916001600160401b0383118484101761012057808492604094855283398101031261011c57602081519101519060ff821680920361011c573315610104575f8054336001600160a01b03198216811783556040519290916001600160a01b0316907f8be0079c531659141344cd1fd0a4f28419497f9722a3daafe3b4186f6b6457e09080a35f82126100c2575060015560ff19600254161760025560405161029a90816101358239f35b62461bcd60e51b815260206004820152601a60248201527f5072696365206d757374206265206e6f6e2d6e656761746976650000000000006044820152606490fd5b604051631e4fbdf760e01b81525f6004820152602490fd5b5f80fd5b634e487b7160e01b5f52604160045260245ffdfe60806040908082526004361015610014575f80fd5b5f3560e01c908163313ce5671461021c57508063715018a6146101c55780638da5cb5b1461019e57806391b7f5ed1461015157806398d5fdca14610133578063f2fde38b146100a65763feaf968c1461006b575f80fd5b346100a2575f3660031901126100a25760a09060015490805191600183526020830152429082015242606082015260016080820152f35b5f80fd5b50346100a25760203660031901126100a2576001600160a01b0360043581811692908390036100a2576100d7610239565b821561011d57505f54826bffffffffffffffffffffffff60a01b8216175f55167f8be0079c531659141344cd1fd0a4f28419497f9722a3daafe3b4186f6b6457e05f80a3005b51631e4fbdf760e01b81525f6004820152602490fd5b50346100a2575f3660031901126100a2576020906001549051908152f35b50346100a25760203660031901126100a25760207f66cbca4f3c64fecf1dcb9ce094abcf7f68c3450a1d4e3a8e917dd621edb4ebe09160043590610193610239565b8160015551908152a1005b50346100a2575f3660031901126100a2575f5490516001600160a01b039091168152602090f35b346100a2575f3660031901126100a2576101dd610239565b5f80546001600160a01b0319811682556001600160a01b03167f8be0079c531659141344cd1fd0a4f28419497f9722a3daafe3b4186f6b6457e08280a3005b346100a2575f3660031901126100a25760209060ff600254168152f35b5f546001600160a01b0316330361024c57565b60405163118cdaa760e01b8152336004820152602490fdfea264697066735822122091510651327d2459b920f5dac31b88394790c680ff0f622133d2147f241d7bbe64736f6c63430008190033","linkReferences":{}},"methodIdentifiers":{"decimals()":"313ce567","getPrice()":"98d5fdca","latestRoundData()":"feaf968c","owner()":"8da5cb5b","renounceOwnership()":"715018a6","setPrice(uint256)":"91b7f5ed","transferOwnership(address)":"f2fde38b"},"id":172}