{"abi":[{"type":"constructor","inputs":[],"stateMutability":"nonpayable"},{"type":"function","name":"DEFAULT_ADMIN_ROLE","inputs":[],"outputs":[{"name":"","type":"bytes32","internalType":"bytes32"}],"stateMutability":"view"},{"type":"function","name":"GOVERNOR_ROLE","inputs":[],"outputs":[{"name":"","type":"bytes32","internalType":"bytes32"}],"stateMutability":"view"},{"type":"function","name":"GRANT_APPROVER_ROLE","inputs":[],"outputs":[{"name":"","type":"bytes32","internalType":"bytes32"}],"stateMutability":"view"},{"type":"function","name":"GRANT_PROPOSER_ROLE","inputs":[],"outputs":[{"name":"","type":"bytes32","internalType":"bytes32"}],"stateMutability":"view"},{"type":"function","name":"MAX_GRANT_AMOUNT","inputs":[],"outputs":[{"name":"","type":"uint256","internalType":"uint256"}],"stateMutability":"view"},{"type":"function","name":"MIN_GRANT_AMOUNT","inputs":[],"outputs":[{"name":"","type":"uint256","internalType":"uint256"}],"stateMutability":"view"},{"type":"function","name":"MIN_VOTING_POWER","inputs":[],"outputs":[{"name":"","type":"uint256","internalType":"uint256"}],"stateMutability":"view"},{"type":"function","name":"PAUSER_ROLE","inputs":[],"outputs":[{"name":"","type":"bytes32","internalType":"bytes32"}],"stateMutability":"view"},{"type":"function","name":"UPGRADE_INTERFACE_VERSION","inputs":[],"outputs":[{"name":"","type":"string","internalType":"string"}],"stateMutability":"view"},{"type":"function","name":"VOTING_PERIOD","inputs":[],"outputs":[{"name":"","type":"uint256","internalType":"uint256"}],"stateMutability":"view"},{"type":"function","name":"andeToken","inputs":[],"outputs":[{"name":"","type":"address","internalType":"contract IERC20"}],"stateMutability":"view"},{"type":"function","name":"availableFunds","inputs":[],"outputs":[{"name":"","type":"uint256","internalType":"uint256"}],"stateMutability":"view"},{"type":"function","name":"cancelGrant","inputs":[{"name":"grantId","type":"uint256","internalType":"uint256"},{"name":"reason","type":"string","internalType":"string"}],"outputs":[],"stateMutability":"nonpayable"},{"type":"function","name":"disburseGrant","inputs":[{"name":"grantId","type":"uint256","internalType":"uint256"}],"outputs":[],"stateMutability":"nonpayable"},{"type":"function","name":"executeGovernanceTransfer","inputs":[{"name":"recipient","type":"address","internalType":"address"},{"name":"amount","type":"uint256","internalType":"uint256"},{"name":"reason","type":"string","internalType":"string"}],"outputs":[],"stateMutability":"nonpayable"},{"type":"function","name":"finalizeGrant","inputs":[{"name":"grantId","type":"uint256","internalType":"uint256"}],"outputs":[],"stateMutability":"nonpayable"},{"type":"function","name":"getFundBalance","inputs":[],"outputs":[{"name":"total","type":"uint256","internalType":"uint256"},{"name":"disbursed","type":"uint256","internalType":"uint256"},{"name":"available","type":"uint256","internalType":"uint256"}],"stateMutability":"view"},{"type":"function","name":"getGrantInfo","inputs":[{"name":"grantId","type":"uint256","internalType":"uint256"}],"outputs":[{"name":"proposer","type":"address","internalType":"address"},{"name":"recipient","type":"address","internalType":"address"},{"name":"amount","type":"uint256","internalType":"uint256"},{"name":"title","type":"string","internalType":"string"},{"name":"description","type":"string","internalType":"string"},{"name":"ipfsHash","type":"string","internalType":"string"},{"name":"category","type":"uint8","internalType":"enum CommunityTreasury.GrantCategory"},{"name":"status","type":"uint8","internalType":"enum CommunityTreasury.GrantStatus"},{"name":"proposedAt","type":"uint256","internalType":"uint256"},{"name":"approvedAt","type":"uint256","internalType":"uint256"},{"name":"completedAt","type":"uint256","internalType":"uint256"},{"name":"votesFor","type":"uint256","internalType":"uint256"},{"name":"votesAgainst","type":"uint256","internalType":"uint256"}],"stateMutability":"view"},{"type":"function","name":"getGrantStats","inputs":[],"outputs":[{"name":"","type":"tuple","internalType":"struct CommunityTreasury.GrantStats","components":[{"name":"totalProposed","type":"uint256","internalType":"uint256"},{"name":"totalApproved","type":"uint256","internalType":"uint256"},{"name":"totalRejected","type":"uint256","internalType":"uint256"},{"name":"totalCompleted","type":"uint256","internalType":"uint256"},{"name":"totalAmountGranted","type":"uint256","internalType":"uint256"}]}],"stateMutability":"view"},{"type":"function","name":"getRoleAdmin","inputs":[{"name":"role","type":"bytes32","internalType":"bytes32"}],"outputs":[{"name":"","type":"bytes32","internalType":"bytes32"}],"stateMutability":"view"},{"type":"function","name":"grantCount","inputs":[],"outputs":[{"name":"","type":"uint256","internalType":"uint256"}],"stateMutability":"view"},{"type":"function","name":"grantRole","inputs":[{"name":"role","type":"bytes32","internalType":"bytes32"},{"name":"account","type":"address","internalType":"address"}],"outputs":[],"stateMutability":"nonpayable"},{"type":"function","name":"grants","inputs":[{"name":"","type":"uint256","internalType":"uint256"}],"outputs":[{"name":"proposer","type":"address","internalType":"address"},{"name":"recipient","type":"address","internalType":"address"},{"name":"amount","type":"uint256","internalType":"uint256"},{"name":"title","type":"string","internalType":"string"},{"name":"description","type":"string","internalType":"string"},{"name":"ipfsHash","type":"string","internalType":"string"},{"name":"category","type":"uint8","internalType":"enum CommunityTreasury.GrantCategory"},{"name":"status","type":"uint8","internalType":"enum CommunityTreasury.GrantStatus"},{"name":"proposedAt","type":"uint256","internalType":"uint256"},{"name":"approvedAt","type":"uint256","internalType":"uint256"},{"name":"completedAt","type":"uint256","internalType":"uint256"},{"name":"votesFor","type":"uint256","internalType":"uint256"},{"name":"votesAgainst","type":"uint256","internalType":"uint256"}],"stateMutability":"view"},{"type":"function","name":"hasRole","inputs":[{"name":"role","type":"bytes32","internalType":"bytes32"},{"name":"account","type":"address","internalType":"address"}],"outputs":[{"name":"","type":"bool","internalType":"bool"}],"stateMutability":"view"},{"type":"function","name":"hasVotedOnGrant","inputs":[{"name":"grantId","type":"uint256","internalType":"uint256"},{"name":"voter","type":"address","internalType":"address"}],"outputs":[{"name":"","type":"bool","internalType":"bool"}],"stateMutability":"view"},{"type":"function","name":"initialize","inputs":[{"name":"_andeToken","type":"address","internalType":"address"},{"name":"defaultAdmin","type":"address","internalType":"address"}],"outputs":[],"stateMutability":"nonpayable"},{"type":"function","name":"pause","inputs":[],"outputs":[],"stateMutability":"nonpayable"},{"type":"function","name":"paused","inputs":[],"outputs":[{"name":"","type":"bool","internalType":"bool"}],"stateMutability":"view"},{"type":"function","name":"proposeAndApproveGrant","inputs":[{"name":"recipient","type":"address","internalType":"address"},{"name":"amount","type":"uint256","internalType":"uint256"},{"name":"title","type":"string","internalType":"string"},{"name":"description","type":"string","internalType":"string"},{"name":"ipfsHash","type":"string","internalType":"string"},{"name":"category","type":"uint8","internalType":"enum CommunityTreasury.GrantCategory"}],"outputs":[{"name":"","type":"uint256","internalType":"uint256"}],"stateMutability":"nonpayable"},{"type":"function","name":"proposeGrant","inputs":[{"name":"recipient","type":"address","internalType":"address"},{"name":"amount","type":"uint256","internalType":"uint256"},{"name":"title","type":"string","internalType":"string"},{"name":"description","type":"string","internalType":"string"},{"name":"ipfsHash","type":"string","internalType":"string"},{"name":"category","type":"uint8","internalType":"enum CommunityTreasury.GrantCategory"}],"outputs":[{"name":"","type":"uint256","internalType":"uint256"}],"stateMutability":"nonpayable"},{"type":"function","name":"proxiableUUID","inputs":[],"outputs":[{"name":"","type":"bytes32","internalType":"bytes32"}],"stateMutability":"view"},{"type":"function","name":"receiveFunds","inputs":[{"name":"amount","type":"uint256","internalType":"uint256"}],"outputs":[],"stateMutability":"nonpayable"},{"type":"function","name":"renounceRole","inputs":[{"name":"role","type":"bytes32","internalType":"bytes32"},{"name":"callerConfirmation","type":"address","internalType":"address"}],"outputs":[],"stateMutability":"nonpayable"},{"type":"function","name":"revokeRole","inputs":[{"name":"role","type":"bytes32","internalType":"bytes32"},{"name":"account","type":"address","internalType":"address"}],"outputs":[],"stateMutability":"nonpayable"},{"type":"function","name":"stats","inputs":[],"outputs":[{"name":"totalProposed","type":"uint256","internalType":"uint256"},{"name":"totalApproved","type":"uint256","internalType":"uint256"},{"name":"totalRejected","type":"uint256","internalType":"uint256"},{"name":"totalCompleted","type":"uint256","internalType":"uint256"},{"name":"totalAmountGranted","type":"uint256","internalType":"uint256"}],"stateMutability":"view"},{"type":"function","name":"supportsInterface","inputs":[{"name":"interfaceId","type":"bytes4","internalType":"bytes4"}],"outputs":[{"name":"","type":"bool","internalType":"bool"}],"stateMutability":"view"},{"type":"function","name":"totalFundsDisbursed","inputs":[],"outputs":[{"name":"","type":"uint256","internalType":"uint256"}],"stateMutability":"view"},{"type":"function","name":"totalFundsReceived","inputs":[],"outputs":[{"name":"","type":"uint256","internalType":"uint256"}],"stateMutability":"view"},{"type":"function","name":"unpause","inputs":[],"outputs":[],"stateMutability":"nonpayable"},{"type":"function","name":"updateGrantLimits","inputs":[{"name":"newMin","type":"uint256","internalType":"uint256"},{"name":"newMax","type":"uint256","internalType":"uint256"}],"outputs":[],"stateMutability":"nonpayable"},{"type":"function","name":"upgradeToAndCall","inputs":[{"name":"newImplementation","type":"address","internalType":"address"},{"name":"data","type":"bytes","internalType":"bytes"}],"outputs":[],"stateMutability":"payable"},{"type":"function","name":"voteOnGrant","inputs":[{"name":"grantId","type":"uint256","internalType":"uint256"},{"name":"support","type":"bool","internalType":"bool"}],"outputs":[],"stateMutability":"nonpayable"},{"type":"event","name":"FundsReceived","inputs":[{"name":"from","type":"address","indexed":true,"internalType":"address"},{"name":"amount","type":"uint256","indexed":false,"internalType":"uint256"}],"anonymous":false},{"type":"event","name":"GrantApproved","inputs":[{"name":"grantId","type":"uint256","indexed":true,"internalType":"uint256"},{"name":"amount","type":"uint256","indexed":false,"internalType":"uint256"}],"anonymous":false},{"type":"event","name":"GrantCancelled","inputs":[{"name":"grantId","type":"uint256","indexed":true,"internalType":"uint256"},{"name":"reason","type":"string","indexed":false,"internalType":"string"}],"anonymous":false},{"type":"event","name":"GrantCompleted","inputs":[{"name":"grantId","type":"uint256","indexed":true,"internalType":"uint256"}],"anonymous":false},{"type":"event","name":"GrantDisbursed","inputs":[{"name":"grantId","type":"uint256","indexed":true,"internalType":"uint256"},{"name":"recipient","type":"address","indexed":true,"internalType":"address"},{"name":"amount","type":"uint256","indexed":false,"internalType":"uint256"}],"anonymous":false},{"type":"event","name":"GrantProposed","inputs":[{"name":"grantId","type":"uint256","indexed":true,"internalType":"uint256"},{"name":"proposer","type":"address","indexed":true,"internalType":"address"},{"name":"recipient","type":"address","indexed":true,"internalType":"address"},{"name":"amount","type":"uint256","indexed":false,"internalType":"uint256"},{"name":"category","type":"uint8","indexed":false,"internalType":"enum CommunityTreasury.GrantCategory"}],"anonymous":false},{"type":"event","name":"GrantRejected","inputs":[{"name":"grantId","type":"uint256","indexed":true,"internalType":"uint256"},{"name":"reason","type":"string","indexed":false,"internalType":"string"}],"anonymous":false},{"type":"event","name":"GrantVoted","inputs":[{"name":"grantId","type":"uint256","indexed":true,"internalType":"uint256"},{"name":"voter","type":"address","indexed":true,"internalType":"address"},{"name":"support","type":"bool","indexed":false,"internalType":"bool"},{"name":"weight","type":"uint256","indexed":false,"internalType":"uint256"}],"anonymous":false},{"type":"event","name":"Initialized","inputs":[{"name":"version","type":"uint64","indexed":false,"internalType":"uint64"}],"anonymous":false},{"type":"event","name":"Paused","inputs":[{"name":"account","type":"address","indexed":false,"internalType":"address"}],"anonymous":false},{"type":"event","name":"RoleAdminChanged","inputs":[{"name":"role","type":"bytes32","indexed":true,"internalType":"bytes32"},{"name":"previousAdminRole","type":"bytes32","indexed":true,"internalType":"bytes32"},{"name":"newAdminRole","type":"bytes32","indexed":true,"internalType":"bytes32"}],"anonymous":false},{"type":"event","name":"RoleGranted","inputs":[{"name":"role","type":"bytes32","indexed":true,"internalType":"bytes32"},{"name":"account","type":"address","indexed":true,"internalType":"address"},{"name":"sender","type":"address","indexed":true,"internalType":"address"}],"anonymous":false},{"type":"event","name":"RoleRevoked","inputs":[{"name":"role","type":"bytes32","indexed":true,"internalType":"bytes32"},{"name":"account","type":"address","indexed":true,"internalType":"address"},{"name":"sender","type":"address","indexed":true,"internalType":"address"}],"anonymous":false},{"type":"event","name":"Unpaused","inputs":[{"name":"account","type":"address","indexed":false,"internalType":"address"}],"anonymous":false},{"type":"event","name":"Upgraded","inputs":[{"name":"implementation","type":"address","indexed":true,"internalType":"address"}],"anonymous":false},{"type":"error","name":"AccessControlBadConfirmation","inputs":[]},{"type":"error","name":"AccessControlUnauthorizedAccount","inputs":[{"name":"account","type":"address","internalType":"address"},{"name":"neededRole","type":"bytes32","internalType":"bytes32"}]},{"type":"error","name":"AddressEmptyCode","inputs":[{"name":"target","type":"address","internalType":"address"}]},{"type":"error","name":"AddressInsufficientBalance","inputs":[{"name":"account","type":"address","internalType":"address"}]},{"type":"error","name":"AlreadyVoted","inputs":[]},{"type":"error","name":"ERC1967InvalidImplementation","inputs":[{"name":"implementation","type":"address","internalType":"address"}]},{"type":"error","name":"ERC1967NonPayable","inputs":[]},{"type":"error","name":"EnforcedPause","inputs":[]},{"type":"error","name":"ExpectedPause","inputs":[]},{"type":"error","name":"FailedInnerCall","inputs":[]},{"type":"error","name":"GrantNotApproved","inputs":[]},{"type":"error","name":"GrantNotFound","inputs":[]},{"type":"error","name":"GrantNotPending","inputs":[]},{"type":"error","name":"InsufficientFunds","inputs":[]},{"type":"error","name":"InsufficientVotingPower","inputs":[]},{"type":"error","name":"InvalidAmount","inputs":[]},{"type":"error","name":"InvalidCategory","inputs":[]},{"type":"error","name":"InvalidInitialization","inputs":[]},{"type":"error","name":"NotInitializing","inputs":[]},{"type":"error","name":"ReentrancyGuardReentrantCall","inputs":[]},{"type":"error","name":"SafeERC20FailedOperation","inputs":[{"name":"token","type":"address","internalType":"address"}]},{"type":"error","name":"UUPSUnauthorizedCallContext","inputs":[]},{"type":"error","name":"UUPSUnsupportedProxiableUUID","inputs":[{"name":"slot","type":"bytes32","internalType":"bytes32"}]},{"type":"error","name":"VotingPeriodEnded","inputs":[]},{"type":"error","name":"ZeroAddress","inputs":[]}],"bytecode":{"object":"0x60a0806040523460c857306080527ff0c57e16840df040f15088dc2f81fe391c3923bec73e23a9662efc9c229c6a009081549060ff8260401c1660b957506001600160401b036002600160401b0319828216016075575b604051612a5290816100cd823960805181818161133501526114190152f35b6001600160401b031990911681179091556040519081527fc7f505b2f371ae2175ee4913f4499e1f2633a7b5936321eed1cdaeb6115181d290602090a15f80806056565b63f92ee8a960e01b8152600490fd5b5f80fdfe6080806040526004361015610012575f80fd5b5f3560e01c90816301ffc9a714611f57575080630c0debea14611ebb578063140f021c14611e94578063248a9ca314611e5b5780632f2ff15d14611e12578063348a32681461192857806336568abe146118e1578063394a9b58146118be5780633c730e20146118185780633f4ba83a146117a357806346fcff4c14611786578063485cc955146115c55780634f1ef2861461139f57806352d1902d1461132357806352f32863146113065780635c975abb146112d857806363e39f7f1461117b578063805a814214611157578063805adede146110345780638456cb5914610fcf5780638827e09b14610f26578063883a1d3f14610e485780638844012f14610dfc57806391932fdf14610dc257806391d1485414610d6d5780639937da6014610d3d578063a217fddf14610d23578063aaec28b214610c46578063ab6cf05014610c22578063ad3cb1cc14610bc7578063b1610d7e14610baa578063bf27f58514610b8d578063cab4267214610b70578063ccc5749014610b36578063d2196e4d14610aa2578063d547741f14610a57578063d80528ae14610a18578063dae9e379146109ea578063e38e15ad146104db578063e63ab1e9146104a1578063fdfbf854146104675763ff5abe9d146101ea575f80fd5b346103c35760403660031901126103c35760043560243590811515918281036103c357335f9081527fdfaf223ff6550d00359f079128755c88f67dfbdd3e16eafa9484089b041ff9ec60209081526040909120547f233d6d9beb1c92e46850e23f7f8ed753cb2514a7804e03af2031f70fc6a7d0f39060ff16156104495750610271612728565b60015483101561043757825f526002815260405f2060ff600682015460081c1660058110156104235761041157600781015462093a8081018091116103fd5742116103eb57600c810192335f5283835260ff60405f2054166103d9575f546040516370a0823160e01b815233600482015294908490869060249082906001600160a01b03165afa9485156103ce575f9561039b575b5069021e19e0c9bab2400000851061038957335f52835260405f20600160ff198254161790555f1461037457600a016103408382546122bd565b90555b6040519384528301527fddd6711f0cae70ff3317ec0f18506dd7a8c00982ee06f341ad4aa917e62ed44060403393a3005b600b016103828382546122bd565b9055610343565b60405163cabeb65560e01b8152600490fd5b9094508381813d83116103c7575b6103b38183611ffd565b810103126103c35751935f610306565b5f80fd5b503d6103a9565b6040513d5f823e3d90fd5b604051637c9a1cf960e01b8152600490fd5b60405163370ec37160e21b8152600490fd5b634e487b7160e01b5f52601160045260245ffd5b6040516310e39af360e31b8152600490fd5b634e487b7160e01b5f52602160045260245ffd5b604051633dc6547760e11b8152600490fd5b6044906040519063e2517d3f60e01b82523360048301526024820152fd5b346103c3575f3660031901126103c35760206040517f7149fc23f3dd2e496573d86727f0efe136d9b329494172f58c9932c5528a56e28152f35b346103c3575f3660031901126103c35760206040517f65d7a28e3265b37a6474929f336521b332c1681b933f6cb9f3376673440d862a8152f35b346103c3576104e9366121e5565b335f9081527ffc47d214751749ee949ed0c17eeb2483659e5750bc54c5fd19e9229fabb37f6c602052604090205492989597969094909391927f7149fc23f3dd2e496573d86727f0efe136d9b329494172f58c9932c5528a56e29060ff16156104495750610555612728565b6001600160a01b038616156109d857683635c9adc5dea00000871080156109c5575b6109b357600a5487116109a157600154976105918961228a565b600155885f52600260205260405f20946001600160601b0360a01b3381885416178755600187019060018060a01b038a16908254161790558860028701556001600160401b0382116107fd5781906105ec6003880154611faa565b601f8111610951575b505f90601f83116001146108e4575f926108d9575b50508160011b915f199060031b1c19161760038501555b6001600160401b0382116107fd57819061063e6004860154611faa565b601f8111610889575b505f90601f831160011461081c575f92610811575b50508160011b915f199060031b1c19161760048301555b60058201906001600160401b0381116107fd576106908254611faa565b97601f89116107b8575b602098505f90601f83116001146107505761070995949392915f9183610745575b50508160011b915f199060031b1c19161790555b600681016106dd8382612298565b61ff001981541690556007429101556106f760035461228a565b600355604051938452858401906120e4565b6001600160a01b031690339083907fadb3a06d945e7720d99af82de629450c9a56371e471e6e6deb52369373704c1e90604090a4604051908152f35b013590508a806106bb565b601f19831691845f528a5f20925f5b8181106107a15750916001939185610709999897969410610788575b505050811b0190556106cf565b01355f19600384901b60f8161c191690558a808061077b565b91938c60018192878701358155019501920161075f565b825f5260205f20601f830160051c810199602084106107f3575b601f0160051c01985b8981106107e8575061069a565b5f81556001016107db565b90995089906107d2565b634e487b7160e01b5f52604160045260245ffd5b01359050898061065c565b909150601f19831691600486015f5260205f20925f5b8181106108715750908460019594939210610858575b505050811b016004830155610673565b01355f19600384901b60f8161c19169055898080610848565b91936020600181928787013581550195019201610832565b909150600485015f5260205f20601f840160051c8101602085106108d2575b90849392915b601f830160051c820181106108c4575050610647565b5f81558594506001016108ae565b50806108a8565b013590508b8061060a565b909250600387015f5260205f20905f935b601f1984168510610939576001945083601f19811610610920575b505050811b016003850155610621565b01355f19600384901b60f8161c191690558b8080610910565b818101358355602094850194600190930192016108f5565b909150600387015f5260205f20601f840160051c81016020851061099a575b90849392915b601f830160051c8201811061098c5750506105f5565b5f8155859450600101610976565b5080610970565b60405163356680b760e01b8152600490fd5b60405163162908e360e11b8152600490fd5b5069152d02c7e14af68000008711610577565b60405163d92e233d60e01b8152600490fd5b346103c3575f3660031901126103c3576060600854600954600a549060405192835260208301526040820152f35b346103c3575f3660031901126103c35760a060035460045460055460065490600754926040519485526020850152604084015260608301526080820152f35b346103c35760403660031901126103c357610aa0600435610a7661218c565b90805f525f805160206129bd833981519152602052610a9b600160405f20015461240d565b612752565b005b346103c3575f3660031901126103c3575f6080604051610ac181611fe2565b828152826020820152826040820152826060820152015260a0604051610ae681611fe2565b600354908181526004546020820190815260055460408301908152600654916060840192835260806007549401938452604051948552516020850152516040840152516060830152516080820152f35b346103c3575f3660031901126103c35760206040517f7935bd0ae54bc31f548c14dba4d37c5c64b3f8ca900cb468fb8abd54d5894f558152f35b346103c3575f3660031901126103c3576020600154604051908152f35b346103c3575f3660031901126103c3576020600854604051908152f35b346103c3575f3660031901126103c357602060405162093a808152f35b346103c3575f3660031901126103c35760405160408101908082106001600160401b038311176107fd57610c1e9160405260058152640352e302e360dc1b60208201526040519182916020835260208301906120c0565b0390f35b346103c3575f3660031901126103c357602060405169152d02c7e14af68000008152f35b346103c35760603660031901126103c357610c5f6121a2565b6024356044356001600160401b0381116103c357610c819036906004016121b8565b5050610c8b612301565b610c936127d1565b610c9b612728565b6001600160a01b0391808316156109d85781156109b357600a54928383116109a157610cca83610ce4956122b0565b600a55610cd9836009546122bd565b6009555f5416612800565b6040515f81527f8e47b87b0ef542cdfa1659c551d88bad38aa7f452d2bbb349ab7530dfec8be8f60203092a260015f805160206129fd83398151915255005b346103c3575f3660031901126103c35760206040515f8152f35b346103c35760403660031901126103c3576020610d63610d5b61218c565b6004356122ca565b6040519015158152f35b346103c35760403660031901126103c357610d8661218c565b6004355f525f805160206129bd83398151915260205260405f209060018060a01b03165f52602052602060ff60405f2054166040519015158152f35b346103c3575f3660031901126103c35760206040517f233d6d9beb1c92e46850e23f7f8ed753cb2514a7804e03af2031f70fc6a7d0f38152f35b346103c35760403660031901126103c357600435602435610e1b612301565b8115918215610e3f575b8215610e34575b50506109b357005b101590508180610e2c565b81159250610e25565b346103c35760403660031901126103c3576004356024356001600160401b0381116103c357610e7b9036906004016121b8565b610e836123b7565b60015483101561043757825f526002602052600660405f20019182549060ff8260081c1660058110156104235760038114908115610f1b575b50610411577fd4cb628ac28a97a9eb76584616fccdb6be88ae4f22a88cb53452479238292b4c9361040060409361ff00191617905582825193849260208452816020850152848401375f828201840152601f01601f19168101030190a2005b600491501486610ebc565b346103c35760203660031901126103c35760043580156109b3575f546040516323b872dd60e01b602082015233602482015230604482015260648082018490528152610f83916001600160a01b0316610f7e82611fe2565b612890565b610f8f816008546122bd565b600855610f9e81600a546122bd565b600a556040519081527f8e47b87b0ef542cdfa1659c551d88bad38aa7f452d2bbb349ab7530dfec8be8f60203392a2005b346103c3575f3660031901126103c357610fe761235c565b610fef612728565b5f805160206129dd833981519152600160ff198254161790557f62e78cea01bee320cd4e420270b5ea74000d11b0c9f74754ebdbfc544b05a2586020604051338152a1005b346103c35760203660031901126103c3576004356110506123b7565b611058612728565b60015481101561043757805f52600260205260405f206006810190815460ff8160081c1660058110156104235761041157600a820154600b83015410156110ed575060026020917f2c2e71a16b68834ebe81622b18c582bd90b4c157f25574154e9e0423fccb12029361010061ff00198254161790554260088201556110df60045461228a565b6004550154604051908152a2005b610200915061ff00191617905561110560055461228a565b6005557f12cee32083a4770a4578763edcb31da09da236643f81f53ea78b009efe21331a6060604051602081526012602082015271496e73756666696369656e7420766f74657360701b6040820152a2005b346103c3575f3660031901126103c357602060405169021e19e0c9bab24000008152f35b346103c35760203660031901126103c3576004356111976123b7565b61119f6127d1565b6111a7612728565b60015481101561043757805f52600260205260405f20600681019081549060ff8260081c166005811015610423576001036112c6576002810192835491600a5483116109a1576112307f8933b9b5b0399b53eb2382f20d540f3f3d374e82082f838159997c3e38d4188293602093610300899761ff001916179055426009840155600a546122b0565b600a5561124085546009546122bd565b60095561124e60065461228a565b60065561125e85546007546122bd565b6007555f54600191909101805486546001600160a01b0393611284928516908516612800565b54169354604051908152a37fb7eba761397b69979c7034892002e709bca870dfd34a7aaececad76ad2679f9e5f80a260015f805160206129fd83398151915255005b6040516366951feb60e01b8152600490fd5b346103c3575f3660031901126103c357602060ff5f805160206129dd83398151915254166040519015158152f35b346103c3575f3660031901126103c3576020600954604051908152f35b346103c3575f3660031901126103c3577f00000000000000000000000000000000000000000000000000000000000000006001600160a01b0316300361138d5760206040517f360894a13ba1a3210667c828492db98dca3e2076cc3735a920a3ca505d382bbc8152f35b60405163703e46dd60e11b8152600490fd5b60403660031901126103c3576113b36121a2565b60249081356001600160401b0381116103c357366023820112156103c3578060040135916113e08361226f565b6113ed6040519182611ffd565b83815260209384820193368783830101116103c357815f92888893018737830101526001600160a01b037f00000000000000000000000000000000000000000000000000000000000000008116308114908115611597575b5061138d576114526123b7565b6040516352d1902d60e01b8152908316948082600481895afa9182915f93611567575b505061149357604051634c9c8ce360e01b8152600481018690528690fd5b8490867f360894a13ba1a3210667c828492db98dca3e2076cc3735a920a3ca505d382bbc918281036115525750843b1561153c575080546001600160a01b03191682179055604051907fbc7cd75a20ee27fd9adebab32041f755214dbc6bffa90cc0225b39da2e5c2d3b5f80a281511561152257505f610aa09381925190845af461151c61290a565b91612939565b925050503461152d57005b63b398979f60e01b8152600490fd5b604051634c9c8ce360e01b815260048101849052fd5b60405190632a87526960e21b82526004820152fd5b9080929350813d8311611590575b61157f8183611ffd565b810103126103c35751908780611475565b503d611575565b9050817f360894a13ba1a3210667c828492db98dca3e2076cc3735a920a3ca505d382bbc5416141587611445565b346103c35760403660031901126103c3576115de6121a2565b6115e661218c565b907ff0c57e16840df040f15088dc2f81fe391c3923bec73e23a9662efc9c229c6a009182549160ff8360401c1615926001600160401b0381168015908161177e575b6001149081611774575b15908161176b575b506117595767ffffffffffffffff19811660011785558361173a575b5061165f61284f565b61166761284f565b61166f61284f565b61167761284f565b5f805160206129dd833981519152805460ff1916905561169561284f565b61169d61284f565b60015f805160206129fd833981519152556001600160a01b03169081156109d8576116f6916001600160601b0360a01b5f5416175f556116dc8161243b565b506116e6816124bf565b506116f08161256c565b50612612565b506116fd57005b68ff00000000000000001981541690557fc7f505b2f371ae2175ee4913f4499e1f2633a7b5936321eed1cdaeb6115181d2602060405160018152a1005b68ffffffffffffffffff19166801000000000000000117845584611656565b60405163f92ee8a960e01b8152600490fd5b9050158661163a565b303b159150611632565b859150611628565b346103c3575f3660031901126103c3576020600a54604051908152f35b346103c3575f3660031901126103c3576117bb61235c565b5f805160206129dd833981519152805460ff8116156118065760ff191690557f5db9ee0a495bf2e6ff9c91a7834c1ba4fdd244a5e8aa4e537bd38aeae4b073aa6020604051338152a1005b604051638dfc202b60e01b8152600490fd5b346103c35760203660031901126103c357600435600154811015610437575f52600260205260405f2060018060a01b0390610c1e82825416926001830154169160028101549360068201546007830154600884015490600985015492600a86015494600b8701549661188c6003820161201e565b906118a5600561189e6004840161201e565b920161201e565b916040519c8d9c8d9560ff808960081c169816966120f1565b346103c3575f3660031901126103c3576020604051683635c9adc5dea000008152f35b346103c35760403660031901126103c3576118fa61218c565b336001600160a01b0382160361191657610aa090600435612752565b60405163334bd91960e11b8152600490fd5b346103c357611936366121e5565b959361194798959798939193612301565b61194f612728565b6001600160a01b038616156109d857683635c9adc5dea0000089108015611dff575b6109b357600a5489116109a1576001549761198b8961228a565b600155885f52600260205260405f20956001600160601b0360a01b3381895416178855600188019060018060a01b038a16908254161790558a60028801556001600160401b0382116107fd5781906119e66003890154611faa565b601f8111611daf575b505f90601f8311600114611d42575f92611d37575b50508160011b915f199060031b1c19161760038601555b6001600160401b0382116107fd578190611a386004870154611faa565b601f8111611ce7575b505f90601f8311600114611c7a575f92611c6f575b50508160011b915f199060031b1c19161760048401555b6001600160401b0382116107fd57611a886005840154611faa565b601f8111611c27575b509160209693918695935f90601f8311600114611b945791808a9694927f2c2e71a16b68834ebe81622b18c582bd90b4c157f25574154e9e0423fccb12029896945f92611b89575b50508160011b915f199060031b1c19161760058201555b60068101611afe8482612298565b61010061ff0019825416179055426007820155600842910155611b2260035461228a565b600355611b3060045461228a565b600455611b4660405192848452858401906120e4565b6001600160a01b031690339086907fadb3a06d945e7720d99af82de629450c9a56371e471e6e6deb52369373704c1e90604090a4604051908152a2604051908152f35b013590508b80611ad9565b600584015f52895f20915f5b601f1985168110611c0d5750928a9694926001927f2c2e71a16b68834ebe81622b18c582bd90b4c157f25574154e9e0423fccb120299979583601f19811610611bf4575b505050811b016005820155611af0565b01355f19600384901b60f8161c191690558b8080611be4565b8183013584558a9950600190930192908b01908b01611ba0565b600584015f5260205f20601f840160051c81019160208510611c65575b601f0160051c01905b818110611c5a5750611a91565b5f8155600101611c4d565b9091508190611c44565b013590508980611a56565b909150601f19831691600487015f5260205f20925f5b818110611ccf5750908460019594939210611cb6575b505050811b016004840155611a6d565b01355f19600384901b60f8161c19169055898080611ca6565b91936020600181928787013581550195019201611c90565b909150600486015f5260205f20601f840160051c810160208510611d30575b90849392915b601f830160051c82018110611d22575050611a41565b5f8155859450600101611d0c565b5080611d06565b013590508b80611a04565b909150601f19831691600389015f5260205f20925f5b818110611d975750908460019594939210611d7e575b505050811b016003860155611a1b565b01355f19600384901b60f8161c191690558b8080611d6e565b91936020600181928787013581550195019201611d58565b909150600388015f5260205f20601f840160051c810160208510611df8575b90849392915b601f830160051c82018110611dea5750506119ef565b5f8155859450600101611dd4565b5080611dce565b5069152d02c7e14af68000008911611971565b346103c35760403660031901126103c357610aa0600435611e3161218c565b90805f525f805160206129bd833981519152602052611e56600160405f20015461240d565b6126b8565b346103c35760203660031901126103c3576004355f525f805160206129bd8339815191526020526020600160405f200154604051908152f35b346103c3575f3660031901126103c3575f546040516001600160a01b039091168152602090f35b346103c35760203660031901126103c3576004355f52600260205260405f2060018060a01b03610c1e818354169160018401541691600284015493611f026003820161201e565b91611f0f6004830161201e565b90611f1c6005840161201e565b906006840154600785015491600886015493600987015495600b600a890154980154986040519c8d9c8d9560ff808960081c169816966120f1565b346103c35760203660031901126103c3576004359063ffffffff60e01b82168092036103c357602091637965db0b60e01b8114908115611f99575b5015158152f35b6301ffc9a760e01b14905083611f92565b90600182811c92168015611fd8575b6020831014611fc457565b634e487b7160e01b5f52602260045260245ffd5b91607f1691611fb9565b60a081019081106001600160401b038211176107fd57604052565b90601f801991011681019081106001600160401b038211176107fd57604052565b9060405191825f825461203081611faa565b908184526020946001916001811690815f1461209e5750600114612060575b50505061205e92500383611ffd565b565b5f90815285812095935091905b81831061208657505061205e93508201015f808061204f565b8554888401850152948501948794509183019161206d565b9250505061205e94925060ff191682840152151560051b8201015f808061204f565b805180835260209291819084018484015e5f828201840152601f01601f1916010190565b9060068210156104235752565b99969d9c9b9895926121539461215e96926121459460609b9e9b8e612137956101a094859460018060a01b038092168452166020830152604082015201528c01906120c0565b908a820360808c01526120c0565b9088820360a08a01526120c0565b9960c08701906120e4565b6005861015610423576101809560e08601526101008501526101208401526101408301526101608201520152565b602435906001600160a01b03821682036103c357565b600435906001600160a01b03821682036103c357565b9181601f840112156103c3578235916001600160401b0383116103c357602083818601950101116103c357565b9060c06003198301126103c3576004356001600160a01b03811681036103c35791602435916001600160401b036044358181116103c35783612229916004016121b8565b939093926064358381116103c35782612244916004016121b8565b939093926084359182116103c35761225e916004016121b8565b909160a43560068110156103c35790565b6001600160401b0381116107fd57601f01601f191660200190565b5f1981146103fd5760010190565b9060068110156104235760ff80198354169116179055565b919082039182116103fd57565b919082018092116103fd57565b6001548110156122fb575f526002602052600c60405f20019060018060a01b03165f5260205260ff60405f20541690565b50505f90565b335f9081527f75e09417c5070057df3eafe5054d52fa0b2a87d64a235e197963b615aedee80360205260409020547f7935bd0ae54bc31f548c14dba4d37c5c64b3f8ca900cb468fb8abd54d5894f559060ff16156104495750565b335f9081527f75442b0a96088b5456bc4ed01394c96a4feec0f883c9494257d76b96ab1c9b6b60205260409020547f65d7a28e3265b37a6474929f336521b332c1681b933f6cb9f3376673440d862a9060ff16156104495750565b335f9081527fb7db2dd08fcb62d0c9e08c51941cae53c267786a0b75803fb7960902fc8ef97d602052604090205460ff16156123ef57565b60405163e2517d3f60e01b81523360048201525f6024820152604490fd5b805f525f805160206129bd83398151915260205260405f20335f5260205260ff60405f205416156104495750565b6001600160a01b03165f8181527fb7db2dd08fcb62d0c9e08c51941cae53c267786a0b75803fb7960902fc8ef97d60205260409020545f805160206129bd8339815191529060ff166122fb575f805260205260405f20815f5260205260405f20600160ff1982541617905533905f5f8051602061299d8339815191528180a4600190565b6001600160a01b03165f8181527f75442b0a96088b5456bc4ed01394c96a4feec0f883c9494257d76b96ab1c9b6b60205260409020547f65d7a28e3265b37a6474929f336521b332c1681b933f6cb9f3376673440d862a91905f805160206129bd8339815191529060ff1661256557825f5260205260405f20815f5260205260405f20600160ff1982541617905533915f8051602061299d8339815191525f80a4600190565b5050505f90565b6001600160a01b03165f8181527ffc47d214751749ee949ed0c17eeb2483659e5750bc54c5fd19e9229fabb37f6c60205260409020547f7149fc23f3dd2e496573d86727f0efe136d9b329494172f58c9932c5528a56e291905f805160206129bd8339815191529060ff1661256557825f5260205260405f20815f5260205260405f20600160ff1982541617905533915f8051602061299d8339815191525f80a4600190565b6001600160a01b03165f8181527fdfaf223ff6550d00359f079128755c88f67dfbdd3e16eafa9484089b041ff9ec60205260409020547f233d6d9beb1c92e46850e23f7f8ed753cb2514a7804e03af2031f70fc6a7d0f391905f805160206129bd8339815191529060ff1661256557825f5260205260405f20815f5260205260405f20600160ff1982541617905533915f8051602061299d8339815191525f80a4600190565b90815f525f805160206129bd8339815191528060205260405f209160018060a01b031691825f5260205260ff60405f205416155f1461256557825f5260205260405f20815f5260205260405f20600160ff1982541617905533915f8051602061299d8339815191525f80a4600190565b60ff5f805160206129dd833981519152541661274057565b60405163d93c066560e01b8152600490fd5b90815f525f805160206129bd8339815191528060205260405f209160018060a01b031691825f5260205260ff60405f2054165f1461256557825f5260205260405f20815f5260205260405f2060ff19815416905533917ff6391f5c32d9c69d2a47ea670b442974b53935d1edc7fd64eb21e047a839171b5f80a4600190565b5f805160206129fd83398151915260028154146127ee5760029055565b604051633ee5aeb560e01b8152600490fd5b60405163a9059cbb60e01b60208201526001600160a01b03909216602483015260448083019390935291815260808101916001600160401b038311828410176107fd5761205e92604052612890565b60ff7ff0c57e16840df040f15088dc2f81fe391c3923bec73e23a9662efc9c229c6a005460401c161561287e57565b604051631afcd79f60e31b8152600490fd5b5f806128b89260018060a01b03169360208151910182865af16128b161290a565b9083612939565b80519081151591826128e6575b50506128ce5750565b60249060405190635274afe760e01b82526004820152fd5b81925090602091810103126103c357602001518015908115036103c3575f806128c5565b3d15612934573d9061291b8261226f565b916129296040519384611ffd565b82523d5f602084013e565b606090565b90612960575080511561294e57805190602001fd5b604051630a12f52160e11b8152600490fd5b81511580612993575b612971575090565b604051639996b31560e01b81526001600160a01b039091166004820152602490fd5b50803b1561296956fe2f8788117e7eff1d82e926ec794901d17c78024a50270940304540a733656f0d02dd7bc7dec4dceedda775e58dd541e08a116c6c53815c0bd028192f7b626800cd5ed15c6e187e77e9aee88184c21f4f2182ab5827cb3b7e07fbedcd63f033009b779b17422d0df92223018b32b4d1fa46e071723d6817e2486d003becc55f00a26469706673582212203ec9feb05bb968cfa34f3f38cf9a23a0dbf97e3a78a88867626de46fab4db8b064736f6c63430008190033","linkReferences":{}},"methodIdentifiers":{"DEFAULT_ADMIN_ROLE()":"a217fddf","GOVERNOR_ROLE()":"ccc57490","GRANT_APPROVER_ROLE()":"91932fdf","GRANT_PROPOSER_ROLE()":"fdfbf854","MAX_GRANT_AMOUNT()":"ab6cf050","MIN_GRANT_AMOUNT()":"394a9b58","MIN_VOTING_POWER()":"805a8142","PAUSER_ROLE()":"e63ab1e9","UPGRADE_INTERFACE_VERSION()":"ad3cb1cc","VOTING_PERIOD()":"b1610d7e","andeToken()":"140f021c","availableFunds()":"46fcff4c","cancelGrant(uint256,string)":"883a1d3f","disburseGrant(uint256)":"63e39f7f","executeGovernanceTransfer(address,uint256,string)":"aaec28b2","finalizeGrant(uint256)":"805adede","getFundBalance()":"dae9e379","getGrantInfo(uint256)":"3c730e20","getGrantStats()":"d2196e4d","getRoleAdmin(bytes32)":"248a9ca3","grantCount()":"cab42672","grantRole(bytes32,address)":"2f2ff15d","grants(uint256)":"0c0debea","hasRole(bytes32,address)":"91d14854","hasVotedOnGrant(uint256,address)":"9937da60","initialize(address,address)":"485cc955","pause()":"8456cb59","paused()":"5c975abb","proposeAndApproveGrant(address,uint256,string,string,string,uint8)":"348a3268","proposeGrant(address,uint256,string,string,string,uint8)":"e38e15ad","proxiableUUID()":"52d1902d","receiveFunds(uint256)":"8827e09b","renounceRole(bytes32,address)":"36568abe","revokeRole(bytes32,address)":"d547741f","stats()":"d80528ae","supportsInterface(bytes4)":"01ffc9a7","totalFundsDisbursed()":"52f32863","totalFundsReceived()":"bf27f585","unpause()":"3f4ba83a","updateGrantLimits(uint256,uint256)":"8844012f","upgradeToAndCall(address,bytes)":"4f1ef286","voteOnGrant(uint256,bool)":"ff5abe9d"},"id":122}