{"abi":[{"type":"constructor","inputs":[],"stateMutability":"nonpayable"},{"type":"function","name":"DEFAULT_ADMIN_ROLE","inputs":[],"outputs":[{"name":"","type":"bytes32","internalType":"bytes32"}],"stateMutability":"view"},{"type":"function","name":"GOVERNOR_ROLE","inputs":[],"outputs":[{"name":"","type":"bytes32","internalType":"bytes32"}],"stateMutability":"view"},{"type":"function","name":"GRANT_APPROVER_ROLE","inputs":[],"outputs":[{"name":"","type":"bytes32","internalType":"bytes32"}],"stateMutability":"view"},{"type":"function","name":"GRANT_PROPOSER_ROLE","inputs":[],"outputs":[{"name":"","type":"bytes32","internalType":"bytes32"}],"stateMutability":"view"},{"type":"function","name":"MAX_GRANT_AMOUNT","inputs":[],"outputs":[{"name":"","type":"uint256","internalType":"uint256"}],"stateMutability":"view"},{"type":"function","name":"MIN_GRANT_AMOUNT","inputs":[],"outputs":[{"name":"","type":"uint256","internalType":"uint256"}],"stateMutability":"view"},{"type":"function","name":"MIN_VOTING_POWER","inputs":[],"outputs":[{"name":"","type":"uint256","internalType":"uint256"}],"stateMutability":"view"},{"type":"function","name":"PAUSER_ROLE","inputs":[],"outputs":[{"name":"","type":"bytes32","internalType":"bytes32"}],"stateMutability":"view"},{"type":"function","name":"UPGRADE_INTERFACE_VERSION","inputs":[],"outputs":[{"name":"","type":"string","internalType":"string"}],"stateMutability":"view"},{"type":"function","name":"VOTING_PERIOD","inputs":[],"outputs":[{"name":"","type":"uint256","internalType":"uint256"}],"stateMutability":"view"},{"type":"function","name":"andeToken","inputs":[],"outputs":[{"name":"","type":"address","internalType":"contract IERC20"}],"stateMutability":"view"},{"type":"function","name":"availableFunds","inputs":[],"outputs":[{"name":"","type":"uint256","internalType":"uint256"}],"stateMutability":"view"},{"type":"function","name":"cancelGrant","inputs":[{"name":"grantId","type":"uint256","internalType":"uint256"},{"name":"reason","type":"string","internalType":"string"}],"outputs":[],"stateMutability":"nonpayable"},{"type":"function","name":"disburseGrant","inputs":[{"name":"grantId","type":"uint256","internalType":"uint256"}],"outputs":[],"stateMutability":"nonpayable"},{"type":"function","name":"executeGovernanceTransfer","inputs":[{"name":"recipient","type":"address","internalType":"address"},{"name":"amount","type":"uint256","internalType":"uint256"},{"name":"reason","type":"string","internalType":"string"}],"outputs":[],"stateMutability":"nonpayable"},{"type":"function","name":"finalizeGrant","inputs":[{"name":"grantId","type":"uint256","internalType":"uint256"}],"outputs":[],"stateMutability":"nonpayable"},{"type":"function","name":"getFundBalance","inputs":[],"outputs":[{"name":"total","type":"uint256","internalType":"uint256"},{"name":"disbursed","type":"uint256","internalType":"uint256"},{"name":"available","type":"uint256","internalType":"uint256"}],"stateMutability":"view"},{"type":"function","name":"getGrantInfo","inputs":[{"name":"grantId","type":"uint256","internalType":"uint256"}],"outputs":[{"name":"proposer","type":"address","internalType":"address"},{"name":"recipient","type":"address","internalType":"address"},{"name":"amount","type":"uint256","internalType":"uint256"},{"name":"title","type":"string","internalType":"string"},{"name":"description","type":"string","internalType":"string"},{"name":"ipfsHash","type":"string","internalType":"string"},{"name":"category","type":"uint8","internalType":"enum CommunityTreasury.GrantCategory"},{"name":"status","type":"uint8","internalType":"enum CommunityTreasury.GrantStatus"},{"name":"proposedAt","type":"uint256","internalType":"uint256"},{"name":"approvedAt","type":"uint256","internalType":"uint256"},{"name":"completedAt","type":"uint256","internalType":"uint256"},{"name":"votesFor","type":"uint256","internalType":"uint256"},{"name":"votesAgainst","type":"uint256","internalType":"uint256"}],"stateMutability":"view"},{"type":"function","name":"getGrantStats","inputs":[],"outputs":[{"name":"","type":"tuple","internalType":"struct CommunityTreasury.GrantStats","components":[{"name":"totalProposed","type":"uint256","internalType":"uint256"},{"name":"totalApproved","type":"uint256","internalType":"uint256"},{"name":"totalRejected","type":"uint256","internalType":"uint256"},{"name":"totalCompleted","type":"uint256","internalType":"uint256"},{"name":"totalAmountGranted","type":"uint256","internalType":"uint256"}]}],"stateMutability":"view"},{"type":"function","name":"getRoleAdmin","inputs":[{"name":"role","type":"bytes32","internalType":"bytes32"}],"outputs":[{"name":"","type":"bytes32","internalType":"bytes32"}],"stateMutability":"view"},{"type":"function","name":"grantCount","inputs":[],"outputs":[{"name":"","type":"uint256","internalType":"uint256"}],"stateMutability":"view"},{"type":"function","name":"grantRole","inputs":[{"name":"role","type":"bytes32","internalType":"bytes32"},{"name":"account","type":"address","internalType":"address"}],"outputs":[],"stateMutability":"nonpayable"},{"type":"function","name":"grants","inputs":[{"name":"","type":"uint256","internalType":"uint256"}],"outputs":[{"name":"proposer","type":"address","internalType":"address"},{"name":"recipient","type":"address","internalType":"address"},{"name":"amount","type":"uint256","internalType":"uint256"},{"name":"title","type":"string","internalType":"string"},{"name":"description","type":"string","internalType":"string"},{"name":"ipfsHash","type":"string","internalType":"string"},{"name":"category","type":"uint8","internalType":"enum CommunityTreasury.GrantCategory"},{"name":"status","type":"uint8","internalType":"enum CommunityTreasury.GrantStatus"},{"name":"proposedAt","type":"uint256","internalType":"uint256"},{"name":"approvedAt","type":"uint256","internalType":"uint256"},{"name":"completedAt","type":"uint256","internalType":"uint256"},{"name":"votesFor","type":"uint256","internalType":"uint256"},{"name":"votesAgainst","type":"uint256","internalType":"uint256"}],"stateMutability":"view"},{"type":"function","name":"hasRole","inputs":[{"name":"role","type":"bytes32","internalType":"bytes32"},{"name":"account","type":"address","internalType":"address"}],"outputs":[{"name":"","type":"bool","internalType":"bool"}],"stateMutability":"view"},{"type":"function","name":"hasVotedOnGrant","inputs":[{"name":"grantId","type":"uint256","internalType":"uint256"},{"name":"voter","type":"address","internalType":"address"}],"outputs":[{"name":"","type":"bool","internalType":"bool"}],"stateMutability":"view"},{"type":"function","name":"initialize","inputs":[{"name":"_andeToken","type":"address","internalType":"address"},{"name":"defaultAdmin","type":"address","internalType":"address"}],"outputs":[],"stateMutability":"nonpayable"},{"type":"function","name":"pause","inputs":[],"outputs":[],"stateMutability":"nonpayable"},{"type":"function","name":"paused","inputs":[],"outputs":[{"name":"","type":"bool","internalType":"bool"}],"stateMutability":"view"},{"type":"function","name":"proposeAndApproveGrant","inputs":[{"name":"recipient","type":"address","internalType":"address"},{"name":"amount","type":"uint256","internalType":"uint256"},{"name":"title","type":"string","internalType":"string"},{"name":"description","type":"string","internalType":"string"},{"name":"ipfsHash","type":"string","internalType":"string"},{"name":"category","type":"uint8","internalType":"enum CommunityTreasury.GrantCategory"}],"outputs":[{"name":"","type":"uint256","internalType":"uint256"}],"stateMutability":"nonpayable"},{"type":"function","name":"proposeGrant","inputs":[{"name":"recipient","type":"address","internalType":"address"},{"name":"amount","type":"uint256","internalType":"uint256"},{"name":"title","type":"string","internalType":"string"},{"name":"description","type":"string","internalType":"string"},{"name":"ipfsHash","type":"string","internalType":"string"},{"name":"category","type":"uint8","internalType":"enum CommunityTreasury.GrantCategory"}],"outputs":[{"name":"","type":"uint256","internalType":"uint256"}],"stateMutability":"nonpayable"},{"type":"function","name":"proxiableUUID","inputs":[],"outputs":[{"name":"","type":"bytes32","internalType":"bytes32"}],"stateMutability":"view"},{"type":"function","name":"receiveFunds","inputs":[{"name":"amount","type":"uint256","internalType":"uint256"}],"outputs":[],"stateMutability":"nonpayable"},{"type":"function","name":"renounceRole","inputs":[{"name":"role","type":"bytes32","internalType":"bytes32"},{"name":"callerConfirmation","type":"address","internalType":"address"}],"outputs":[],"stateMutability":"nonpayable"},{"type":"function","name":"revokeRole","inputs":[{"name":"role","type":"bytes32","internalType":"bytes32"},{"name":"account","type":"address","internalType":"address"}],"outputs":[],"stateMutability":"nonpayable"},{"type":"function","name":"stats","inputs":[],"outputs":[{"name":"totalProposed","type":"uint256","internalType":"uint256"},{"name":"totalApproved","type":"uint256","internalType":"uint256"},{"name":"totalRejected","type":"uint256","internalType":"uint256"},{"name":"totalCompleted","type":"uint256","internalType":"uint256"},{"name":"totalAmountGranted","type":"uint256","internalType":"uint256"}],"stateMutability":"view"},{"type":"function","name":"supportsInterface","inputs":[{"name":"interfaceId","type":"bytes4","internalType":"bytes4"}],"outputs":[{"name":"","type":"bool","internalType":"bool"}],"stateMutability":"view"},{"type":"function","name":"totalFundsDisbursed","inputs":[],"outputs":[{"name":"","type":"uint256","internalType":"uint256"}],"stateMutability":"view"},{"type":"function","name":"totalFundsReceived","inputs":[],"outputs":[{"name":"","type":"uint256","internalType":"uint256"}],"stateMutability":"view"},{"type":"function","name":"unpause","inputs":[],"outputs":[],"stateMutability":"nonpayable"},{"type":"function","name":"updateGrantLimits","inputs":[{"name":"newMin","type":"uint256","internalType":"uint256"},{"name":"newMax","type":"uint256","internalType":"uint256"}],"outputs":[],"stateMutability":"nonpayable"},{"type":"function","name":"upgradeToAndCall","inputs":[{"name":"newImplementation","type":"address","internalType":"address"},{"name":"data","type":"bytes","internalType":"bytes"}],"outputs":[],"stateMutability":"payable"},{"type":"function","name":"voteOnGrant","inputs":[{"name":"grantId","type":"uint256","internalType":"uint256"},{"name":"support","type":"bool","internalType":"bool"}],"outputs":[],"stateMutability":"nonpayable"},{"type":"event","name":"FundsReceived","inputs":[{"name":"from","type":"address","indexed":true,"internalType":"address"},{"name":"amount","type":"uint256","indexed":false,"internalType":"uint256"}],"anonymous":false},{"type":"event","name":"GrantApproved","inputs":[{"name":"grantId","type":"uint256","indexed":true,"internalType":"uint256"},{"name":"amount","type":"uint256","indexed":false,"internalType":"uint256"}],"anonymous":false},{"type":"event","name":"GrantCancelled","inputs":[{"name":"grantId","type":"uint256","indexed":true,"internalType":"uint256"},{"name":"reason","type":"string","indexed":false,"internalType":"string"}],"anonymous":false},{"type":"event","name":"GrantCompleted","inputs":[{"name":"grantId","type":"uint256","indexed":true,"internalType":"uint256"}],"anonymous":false},{"type":"event","name":"GrantDisbursed","inputs":[{"name":"grantId","type":"uint256","indexed":true,"internalType":"uint256"},{"name":"recipient","type":"address","indexed":true,"internalType":"address"},{"name":"amount","type":"uint256","indexed":false,"internalType":"uint256"}],"anonymous":false},{"type":"event","name":"GrantProposed","inputs":[{"name":"grantId","type":"uint256","indexed":true,"internalType":"uint256"},{"name":"proposer","type":"address","indexed":true,"internalType":"address"},{"name":"recipient","type":"address","indexed":true,"internalType":"address"},{"name":"amount","type":"uint256","indexed":false,"internalType":"uint256"},{"name":"category","type":"uint8","indexed":false,"internalType":"enum CommunityTreasury.GrantCategory"}],"anonymous":false},{"type":"event","name":"GrantRejected","inputs":[{"name":"grantId","type":"uint256","indexed":true,"internalType":"uint256"},{"name":"reason","type":"string","indexed":false,"internalType":"string"}],"anonymous":false},{"type":"event","name":"GrantVoted","inputs":[{"name":"grantId","type":"uint256","indexed":true,"internalType":"uint256"},{"name":"voter","type":"address","indexed":true,"internalType":"address"},{"name":"support","type":"bool","indexed":false,"internalType":"bool"},{"name":"weight","type":"uint256","indexed":false,"internalType":"uint256"}],"anonymous":false},{"type":"event","name":"Initialized","inputs":[{"name":"version","type":"uint64","indexed":false,"internalType":"uint64"}],"anonymous":false},{"type":"event","name":"Paused","inputs":[{"name":"account","type":"address","indexed":false,"internalType":"address"}],"anonymous":false},{"type":"event","name":"RoleAdminChanged","inputs":[{"name":"role","type":"bytes32","indexed":true,"internalType":"bytes32"},{"name":"previousAdminRole","type":"bytes32","indexed":true,"internalType":"bytes32"},{"name":"newAdminRole","type":"bytes32","indexed":true,"internalType":"bytes32"}],"anonymous":false},{"type":"event","name":"RoleGranted","inputs":[{"name":"role","type":"bytes32","indexed":true,"internalType":"bytes32"},{"name":"account","type":"address","indexed":true,"internalType":"address"},{"name":"sender","type":"address","indexed":true,"internalType":"address"}],"anonymous":false},{"type":"event","name":"RoleRevoked","inputs":[{"name":"role","type":"bytes32","indexed":true,"internalType":"bytes32"},{"name":"account","type":"address","indexed":true,"internalType":"address"},{"name":"sender","type":"address","indexed":true,"internalType":"address"}],"anonymous":false},{"type":"event","name":"Unpaused","inputs":[{"name":"account","type":"address","indexed":false,"internalType":"address"}],"anonymous":false},{"type":"event","name":"Upgraded","inputs":[{"name":"implementation","type":"address","indexed":true,"internalType":"address"}],"anonymous":false},{"type":"error","name":"AccessControlBadConfirmation","inputs":[]},{"type":"error","name":"AccessControlUnauthorizedAccount","inputs":[{"name":"account","type":"address","internalType":"address"},{"name":"neededRole","type":"bytes32","internalType":"bytes32"}]},{"type":"error","name":"AddressEmptyCode","inputs":[{"name":"target","type":"address","internalType":"address"}]},{"type":"error","name":"AddressInsufficientBalance","inputs":[{"name":"account","type":"address","internalType":"address"}]},{"type":"error","name":"AlreadyVoted","inputs":[]},{"type":"error","name":"ERC1967InvalidImplementation","inputs":[{"name":"implementation","type":"address","internalType":"address"}]},{"type":"error","name":"ERC1967NonPayable","inputs":[]},{"type":"error","name":"EnforcedPause","inputs":[]},{"type":"error","name":"ExpectedPause","inputs":[]},{"type":"error","name":"FailedInnerCall","inputs":[]},{"type":"error","name":"GrantNotApproved","inputs":[]},{"type":"error","name":"GrantNotFound","inputs":[]},{"type":"error","name":"GrantNotPending","inputs":[]},{"type":"error","name":"InsufficientFunds","inputs":[]},{"type":"error","name":"InsufficientVotingPower","inputs":[]},{"type":"error","name":"InvalidAmount","inputs":[]},{"type":"error","name":"InvalidCategory","inputs":[]},{"type":"error","name":"InvalidInitialization","inputs":[]},{"type":"error","name":"NotInitializing","inputs":[]},{"type":"error","name":"ReentrancyGuardReentrantCall","inputs":[]},{"type":"error","name":"SafeERC20FailedOperation","inputs":[{"name":"token","type":"address","internalType":"address"}]},{"type":"error","name":"UUPSUnauthorizedCallContext","inputs":[]},{"type":"error","name":"UUPSUnsupportedProxiableUUID","inputs":[{"name":"slot","type":"bytes32","internalType":"bytes32"}]},{"type":"error","name":"VotingPeriodEnded","inputs":[]},{"type":"error","name":"ZeroAddress","inputs":[]}],"bytecode":{"object":"0x60a0806040523460c857306080527ff0c57e16840df040f15088dc2f81fe391c3923bec73e23a9662efc9c229c6a009081549060ff8260401c1660b957506001600160401b036002600160401b0319828216016075575b60405161325b90816100cd823960805181818161166f01526117720152f35b6001600160401b031990911681179091556040519081527fc7f505b2f371ae2175ee4913f4499e1f2633a7b5936321eed1cdaeb6115181d290602090a15f80806056565b63f92ee8a960e01b8152600490fd5b5f80fdfe6080806040526004361015610012575f80fd5b5f3560e01c90816301ffc9a7146124ee575080630c0debea14612444578063140f021c14612412578063248a9ca3146123c65780632f2ff15d1461236a578063348a326814611e1757806336568abe14611dab578063394a9b5814611d885780633c730e2014611cd45780633f4ba83a14611c3457806346fcff4c14611c17578063485cc955146119b15780634f1ef286146116e957806352d1902d1461164857806352f328631461162b5780635c975abb146115ea57806363e39f7f1461143a578063805a814214611416578063805adede146112ae5780638456cb59146112365780638827e09b14611167578063883a1d3f1461106b5780638844012f1461101f57806391932fdf14610fe557806391d1485414610f6f5780639937da6014610f3f578063a217fddf14610f25578063aaec28b214610e27578063ab6cf05014610e03578063ad3cb1cc14610d8f578063b1610d7e14610d72578063bf27f58514610d55578063cab4267214610d38578063ccc5749014610cfe578063d2196e4d14610c6a578063d547741f14610c0c578063d80528ae14610bcd578063dae9e37914610b9f578063e38e15ad146105c1578063e63ab1e914610587578063fdfbf8541461054d5763ff5abe9d146101ea575f80fd5b346103fe5760406003193601126103fe5760043560243590811515918281036103fe57335f9081527fdfaf223ff6550d00359f079128755c88f67dfbdd3e16eafa9484089b041ff9ec60209081526040909120547f233d6d9beb1c92e46850e23f7f8ed753cb2514a7804e03af2031f70fc6a7d0f39060ff16156105165750610271612e9a565b6001548310156104ec57825f526002815260405f2060ff600682015460081c1660058110156104bf5761049557600781015462093a80810180911161046857421161043e57600c810192335f5283835260ff60405f205416610414576024938373ffffffffffffffffffffffffffffffffffffffff5f5416604051968780927f70a082310000000000000000000000000000000000000000000000000000000082523360048301525afa948515610409575f956103d6575b5069021e19e0c9bab240000085106103ac57335f52835260405f20600160ff198254161790555f1461039757600a016103638382546128f6565b90555b6040519384528301527fddd6711f0cae70ff3317ec0f18506dd7a8c00982ee06f341ad4aa917e62ed44060403393a3005b600b016103a58382546128f6565b9055610366565b60046040517fcabeb655000000000000000000000000000000000000000000000000000000008152fd5b9094508381813d8311610402575b6103ee81836125f9565b810103126103fe5751935f610329565b5f80fd5b503d6103e4565b6040513d5f823e3d90fd5b60046040517f7c9a1cf9000000000000000000000000000000000000000000000000000000008152fd5b60046040517fdc3b0dc4000000000000000000000000000000000000000000000000000000008152fd5b7f4e487b71000000000000000000000000000000000000000000000000000000005f52601160045260245ffd5b60046040517f871cd798000000000000000000000000000000000000000000000000000000008152fd5b7f4e487b71000000000000000000000000000000000000000000000000000000005f52602160045260245ffd5b60046040517f7b8ca8ee000000000000000000000000000000000000000000000000000000008152fd5b604490604051907fe2517d3f0000000000000000000000000000000000000000000000000000000082523360048301526024820152fd5b346103fe575f6003193601126103fe5760206040517f7149fc23f3dd2e496573d86727f0efe136d9b329494172f58c9932c5528a56e28152f35b346103fe575f6003193601126103fe5760206040517f65d7a28e3265b37a6474929f336521b332c1681b933f6cb9f3376673440d862a8152f35b346103fe576105cf3661280e565b335f9081527ffc47d214751749ee949ed0c17eeb2483659e5750bc54c5fd19e9229fabb37f6c602052604090205492989597969094909391927f7149fc23f3dd2e496573d86727f0efe136d9b329494172f58c9932c5528a56e29060ff1615610516575061063b612e9a565b73ffffffffffffffffffffffffffffffffffffffff861615610b7557683635c9adc5dea0000087108015610b62575b610b3857600a548711610b0e5760015497610684896128c2565b600155885f52600260205260405f20947fffffffffffffffffffffffff00000000000000000000000000000000000000003381885416178755600187019073ffffffffffffffffffffffffffffffffffffffff8a169082541617905588600287015567ffffffffffffffff8211610953578190610704600388015461258c565b601f8111610abe575b505f90601f8311600114610a51575f92610a46575b50505f198260011b9260031b1c19161760038501555b67ffffffffffffffff8211610953578190610756600486015461258c565b601f81116109f6575b505f90601f831160011461098b575f92610980575b50505f198260011b9260031b1c19161760048301555b600582019067ffffffffffffffff8111610953576107a8825461258c565b97601f891161090e575b602098505f90601f831160011461089057918073ffffffffffffffffffffffffffffffffffffffff9796949261085496945f92610885575b50505f198260011b9260031b1c19161790555b6006810161080b83826128d0565b7fffffffffffffffffffffffffffffffffffffffffffffffffffffffffffff00ff81541690556007429101556108426003546128c2565b600355604051948552868501906126e4565b1690827fadb3a06d945e7720d99af82de629450c9a56371e471e6e6deb52369373704c1e60403393a4604051908152f35b013590508b806107ea565b601f19831691845f528a5f20925f5b8181106108f75750926001928592610854989673ffffffffffffffffffffffffffffffffffffffff9b9a9896106108de575b505050811b0190556107fd565b5f1960f88560031b161c199101351690558b80806108d1565b91938c60018192878701358155019501920161089f565b825f5260205f20601f830160051c81019960208410610949575b601f0160051c01985b89811061093e57506107b2565b5f8155600101610931565b9099508990610928565b7f4e487b71000000000000000000000000000000000000000000000000000000005f52604160045260245ffd5b013590508980610774565b9091601f191691600486015f5260205f20925f5b8181106109de57509084600195949392106109c5575b505050811b01600483015561078a565b5f1960f88560031b161c199101351690558980806109b5565b9193602060018192878701358155019501920161099f565b909150600485015f5260205f20601f840160051c810160208510610a3f575b90849392915b601f830160051c82018110610a3157505061075f565b5f8155859450600101610a1b565b5080610a15565b013590508b80610722565b909250600387015f5260205f20905f935b601f1984168510610aa6576001945083601f19811610610a8d575b505050811b016003850155610738565b5f1960f88560031b161c199101351690558b8080610a7d565b81810135835560209485019460019093019201610a62565b909150600387015f5260205f20601f840160051c810160208510610b07575b90849392915b601f830160051c82018110610af957505061070d565b5f8155859450600101610ae3565b5080610add565b60046040517f356680b7000000000000000000000000000000000000000000000000000000008152fd5b60046040517f2c5211c6000000000000000000000000000000000000000000000000000000008152fd5b5069152d02c7e14af6800000871161066a565b60046040517fd92e233d000000000000000000000000000000000000000000000000000000008152fd5b346103fe575f6003193601126103fe576060600854600954600a549060405192835260208301526040820152f35b346103fe575f6003193601126103fe5760a060035460045460055460065490600754926040519485526020850152604084015260608301526080820152f35b346103fe5760406003193601126103fe57610c68600435610c2b61279a565b90805f527f02dd7bc7dec4dceedda775e58dd541e08a116c6c53815c0bd028192f7b626800602052610c63600160405f200154612a6c565b612eef565b005b346103fe575f6003193601126103fe575f6080604051610c89816125dd565b828152826020820152826040820152826060820152015260a0604051610cae816125dd565b600354908181526004546020820190815260055460408301908152600654916060840192835260806007549401938452604051948552516020850152516040840152516060830152516080820152f35b346103fe575f6003193601126103fe5760206040517f7935bd0ae54bc31f548c14dba4d37c5c64b3f8ca900cb468fb8abd54d5894f558152f35b346103fe575f6003193601126103fe576020600154604051908152f35b346103fe575f6003193601126103fe576020600854604051908152f35b346103fe575f6003193601126103fe57602060405162093a808152f35b346103fe575f6003193601126103fe57604051604081019080821067ffffffffffffffff83111761095357610dff91604052600581527f352e302e3000000000000000000000000000000000000000000000000000000060208201526040519182916020835260208301906126bf565b0390f35b346103fe575f6003193601126103fe57602060405169152d02c7e14af68000008152f35b346103fe5760606003193601126103fe57610e406127bd565b60243560443567ffffffffffffffff81116103fe57610e639036906004016127e0565b5050610e6d612948565b610e75612f8f565b610e7d612e9a565b73ffffffffffffffffffffffffffffffffffffffff9182811615610b75578115610b3857600a5492838311610b0e57610eb983610ed3956128e9565b600a55610ec8836009546128f6565b6009555f5416612fe9565b6040515f81527f8e47b87b0ef542cdfa1659c551d88bad38aa7f452d2bbb349ab7530dfec8be8f60203092a260017f9b779b17422d0df92223018b32b4d1fa46e071723d6817e2486d003becc55f0055005b346103fe575f6003193601126103fe5760206040515f8152f35b346103fe5760406003193601126103fe576020610f65610f5d61279a565b600435612903565b6040519015158152f35b346103fe5760406003193601126103fe57610f8861279a565b6004355f527f02dd7bc7dec4dceedda775e58dd541e08a116c6c53815c0bd028192f7b62680060205273ffffffffffffffffffffffffffffffffffffffff60405f2091165f52602052602060ff60405f2054166040519015158152f35b346103fe575f6003193601126103fe5760206040517f233d6d9beb1c92e46850e23f7f8ed753cb2514a7804e03af2031f70fc6a7d0f38152f35b346103fe5760406003193601126103fe5760043560243561103e612948565b8115918215611062575b8215611057575b5050610b3857005b10159050818061104f565b81159250611048565b346103fe5760406003193601126103fe5760043560243567ffffffffffffffff81116103fe5761109f9036906004016127e0565b6110a76129fe565b6001548310156104ec57825f526002602052600660405f20019182549060ff8260081c1660058110156104bf576003811490811561115c575b50610495577fd4cb628ac28a97a9eb76584616fccdb6be88ae4f22a88cb53452479238292b4c936104007fffffffffffffffffffffffffffffffffffffffffffffffffffffffffffff00ff60409416179055601f19601f84845195869460208652816020870152868601375f85828601015201168101030190a2005b6004915014866110e0565b346103fe5760206003193601126103fe576004358015610b38576111ea73ffffffffffffffffffffffffffffffffffffffff5f5416604051907f23b872dd000000000000000000000000000000000000000000000000000000006020830152336024830152306044830152836064830152606482526111e5826125dd565b6130b5565b6111f6816008546128f6565b60085561120581600a546128f6565b600a556040519081527f8e47b87b0ef542cdfa1659c551d88bad38aa7f452d2bbb349ab7530dfec8be8f60203392a2005b346103fe575f6003193601126103fe5761124e6129a3565b611256612e9a565b7fcd5ed15c6e187e77e9aee88184c21f4f2182ab5827cb3b7e07fbedcd63f03300600160ff198254161790557f62e78cea01bee320cd4e420270b5ea74000d11b0c9f74754ebdbfc544b05a2586020604051338152a1005b346103fe5760206003193601126103fe576004356112ca6129fe565b6112d2612e9a565b6001548110156104ec57805f52600260205260405f206006810190815460ff8160081c1660058110156104bf5761049557600a820154600b830154101561138457506002602091836101007fffffffffffffffffffffffffffffffffffffffffffffffffffffffffffff00ff7f2c2e71a16b68834ebe81622b18c582bd90b4c157f25574154e9e0423fccb12029654161790554260088201556113766004546128c2565b6004550154604051908152a2005b61020091507fffffffffffffffffffffffffffffffffffffffffffffffffffffffffffff00ff161790556113b96005546128c2565b6005557f12cee32083a4770a4578763edcb31da09da236643f81f53ea78b009efe21331a606060405160208152601260208201527f496e73756666696369656e7420766f74657300000000000000000000000000006040820152a2005b346103fe575f6003193601126103fe57602060405169021e19e0c9bab24000008152f35b346103fe5760206003193601126103fe576004356114566129fe565b61145e612f8f565b611466612e9a565b6001548110156104ec57805f52600260205260405f20600681019081549060ff8260081c1660058110156104bf576001036115c0576002810192835491600a548311610b0e5761150c7f8933b9b5b0399b53eb2382f20d540f3f3d374e82082f838159997c3e38d41882936020936103007fffffffffffffffffffffffffffffffffffffffffffffffffffffffffffff00ff8a9816179055426009840155600a546128e9565b600a5561151c85546009546128f6565b60095561152a6006546128c2565b60065561153a85546007546128f6565b60075573ffffffffffffffffffffffffffffffffffffffff9061156b6001835f541692019183835416885491612fe9565b54169354604051908152a37fb7eba761397b69979c7034892002e709bca870dfd34a7aaececad76ad2679f9e5f80a260017f9b779b17422d0df92223018b32b4d1fa46e071723d6817e2486d003becc55f0055005b60046040517f66951feb000000000000000000000000000000000000000000000000000000008152fd5b346103fe575f6003193601126103fe57602060ff7fcd5ed15c6e187e77e9aee88184c21f4f2182ab5827cb3b7e07fbedcd63f0330054166040519015158152f35b346103fe575f6003193601126103fe576020600954604051908152f35b346103fe575f6003193601126103fe5773ffffffffffffffffffffffffffffffffffffffff7f00000000000000000000000000000000000000000000000000000000000000001630036116bf5760206040517f360894a13ba1a3210667c828492db98dca3e2076cc3735a920a3ca505d382bbc8152f35b60046040517fe07c8dba000000000000000000000000000000000000000000000000000000008152fd5b60406003193601126103fe576116fd6127bd565b602490813567ffffffffffffffff81116103fe57366023820112156103fe5780600401359161172b836128a6565b61173860405191826125f9565b83815260209384820193368783830101116103fe57815f928888930187378301015273ffffffffffffffffffffffffffffffffffffffff807f000000000000000000000000000000000000000000000000000000000000000016803014908115611983575b506116bf576117aa6129fe565b821693604051907f52d1902d0000000000000000000000000000000000000000000000000000000082528082600481895afa9182915f93611953575b505061181c578585604051907f4c9c8ce30000000000000000000000000000000000000000000000000000000082526004820152fd5b8490867f360894a13ba1a3210667c828492db98dca3e2076cc3735a920a3ca505d382bbc918281036119255750843b156118f65750817fffffffffffffffffffffffff0000000000000000000000000000000000000000825416179055604051907fbc7cd75a20ee27fd9adebab32041f755214dbc6bffa90cc0225b39da2e5c2d3b5f80a28151156118c357505f610c689381925190845af46118bd613156565b91613185565b92505050346118ce57005b807fb398979f0000000000000000000000000000000000000000000000000000000060049252fd5b82604051907f4c9c8ce30000000000000000000000000000000000000000000000000000000082526004820152fd5b604051907faa1d49a40000000000000000000000000000000000000000000000000000000082526004820152fd5b9080929350813d831161197c575b61196b81836125f9565b810103126103fe57519087806117e6565b503d611961565b9050817f360894a13ba1a3210667c828492db98dca3e2076cc3735a920a3ca505d382bbc541614158761179d565b346103fe5760406003193601126103fe576119ca6127bd565b6119d261279a565b907ff0c57e16840df040f15088dc2f81fe391c3923bec73e23a9662efc9c229c6a0091825460ff8160401c16159267ffffffffffffffff821680159081611c0f575b6001149081611c05575b159081611bfc575b50611bd257818460017fffffffffffffffffffffffffffffffffffffffffffffffff000000000000000073ffffffffffffffffffffffffffffffffffffffff9516178755611b9d575b50611a7861305c565b611a8061305c565b611a8861305c565b611a9061305c565b7fcd5ed15c6e187e77e9aee88184c21f4f2182ab5827cb3b7e07fbedcd63f0330060ff198154169055611ac161305c565b611ac961305c565b60017f9b779b17422d0df92223018b32b4d1fa46e071723d6817e2486d003becc55f005516908115610b7557611b43917fffffffffffffffffffffffff00000000000000000000000000000000000000005f5416175f55611b2981612aad565b50611b3381612b64565b50611b3d81612c44565b50612d1d565b50611b4a57005b7fffffffffffffffffffffffffffffffffffffffffffffff00ffffffffffffffff81541690557fc7f505b2f371ae2175ee4913f4499e1f2633a7b5936321eed1cdaeb6115181d2602060405160018152a1005b7fffffffffffffffffffffffffffffffffffffffffffffff000000000000000000166801000000000000000117855585611a6f565b60046040517ff92ee8a9000000000000000000000000000000000000000000000000000000008152fd5b90501586611a26565b303b159150611a1e565b859150611a14565b346103fe575f6003193601126103fe576020600a54604051908152f35b346103fe575f6003193601126103fe57611c4c6129a3565b7fcd5ed15c6e187e77e9aee88184c21f4f2182ab5827cb3b7e07fbedcd63f03300805460ff811615611caa5760ff191690557f5db9ee0a495bf2e6ff9c91a7834c1ba4fdd244a5e8aa4e537bd38aeae4b073aa6020604051338152a1005b60046040517f8dfc202b000000000000000000000000000000000000000000000000000000008152fd5b346103fe5760206003193601126103fe576004356001548110156104ec575f52600260205260405f2073ffffffffffffffffffffffffffffffffffffffff90610dff82825416926001830154169160028101549360068201546007830154600884015490600985015492600a86015494600b87015496611d566003820161261c565b90611d6f6005611d686004840161261c565b920161261c565b916040519c8d9c8d9560ff808960081c169816966126f1565b346103fe575f6003193601126103fe576020604051683635c9adc5dea000008152f35b346103fe5760406003193601126103fe57611dc461279a565b3373ffffffffffffffffffffffffffffffffffffffff821603611ded57610c6890600435612eef565b60046040517f6697b232000000000000000000000000000000000000000000000000000000008152fd5b346103fe57611e253661280e565b9593611e3698959798939193612948565b611e3e612e9a565b73ffffffffffffffffffffffffffffffffffffffff861615610b7557683635c9adc5dea0000089108015612357575b610b3857600a548911610b0e5760015497611e87896128c2565b600155885f52600260205260405f20957fffffffffffffffffffffffff00000000000000000000000000000000000000003381895416178855600188019073ffffffffffffffffffffffffffffffffffffffff8a16908254161790558a600288015567ffffffffffffffff8211610953578190611f07600389015461258c565b601f8111612307575b505f90601f831160011461229c575f92612291575b50505f198260011b9260031b1c19161760038601555b67ffffffffffffffff8211610953578190611f59600487015461258c565b601f8111612241575b505f90601f83116001146121d6575f926121cb575b50505f198260011b9260031b1c19161760048401555b67ffffffffffffffff821161095357611fa9600584015461258c565b601f8111612183575b509160209693918695935f90601f83116001146120db57928273ffffffffffffffffffffffffffffffffffffffff937f2c2e71a16b68834ebe81622b18c582bd90b4c157f25574154e9e0423fccb12029896938c98965f926120d0575b50505f198260011b9260031b1c19161760058201555b6006810161203385826128d0565b6101007fffffffffffffffffffffffffffffffffffffffffffffffffffffffffffff00ff8254161790554260078201556008429101556120746003546128c2565b6003556120826004546128c2565b60045561209860405193858552868501906126e4565b1690857fadb3a06d945e7720d99af82de629450c9a56371e471e6e6deb52369373704c1e60403393a4604051908152a2604051908152f35b013590508c8061200f565b600584015f52895f20915f5b601f19851681106121695750837f2c2e71a16b68834ebe81622b18c582bd90b4c157f25574154e9e0423fccb12029896938c98969360019383601f1973ffffffffffffffffffffffffffffffffffffffff991610612150575b505050811b016005820155612025565b5f1960f88560031b161c199101351690558c8080612140565b8183013584558a9950600190930192908b01908b016120e7565b600584015f5260205f20601f840160051c810191602085106121c1575b601f0160051c01905b8181106121b65750611fb2565b5f81556001016121a9565b90915081906121a0565b013590508980611f77565b9091601f191691600487015f5260205f20925f5b8181106122295750908460019594939210612210575b505050811b016004840155611f8d565b5f1960f88560031b161c19910135169055898080612200565b919360206001819287870135815501950192016121ea565b909150600486015f5260205f20601f840160051c81016020851061228a575b90849392915b601f830160051c8201811061227c575050611f62565b5f8155859450600101612266565b5080612260565b013590508b80611f25565b9091601f191691600389015f5260205f20925f5b8181106122ef57509084600195949392106122d6575b505050811b016003860155611f3b565b5f1960f88560031b161c199101351690558b80806122c6565b919360206001819287870135815501950192016122b0565b909150600388015f5260205f20601f840160051c810160208510612350575b90849392915b601f830160051c82018110612342575050611f10565b5f815585945060010161232c565b5080612326565b5069152d02c7e14af68000008911611e6d565b346103fe5760406003193601126103fe57610c6860043561238961279a565b90805f527f02dd7bc7dec4dceedda775e58dd541e08a116c6c53815c0bd028192f7b6268006020526123c1600160405f200154612a6c565b612df6565b346103fe5760206003193601126103fe576004355f527f02dd7bc7dec4dceedda775e58dd541e08a116c6c53815c0bd028192f7b6268006020526020600160405f200154604051908152f35b346103fe575f6003193601126103fe57602073ffffffffffffffffffffffffffffffffffffffff5f5416604051908152f35b346103fe5760206003193601126103fe576004355f52600260205260405f2073ffffffffffffffffffffffffffffffffffffffff610dff8183541691600184015416916002840154936124996003820161261c565b916124a66004830161261c565b906124b36005840161261c565b906006840154600785015491600886015493600987015495600b600a890154980154986040519c8d9c8d9560ff808960081c169816966126f1565b346103fe5760206003193601126103fe57600435907fffffffff0000000000000000000000000000000000000000000000000000000082168092036103fe57817f7965db0b0000000000000000000000000000000000000000000000000000000060209314908115612562575b5015158152f35b7f01ffc9a7000000000000000000000000000000000000000000000000000000009150148361255b565b90600182811c921680156125d3575b60208310146125a657565b7f4e487b71000000000000000000000000000000000000000000000000000000005f52602260045260245ffd5b91607f169161259b565b60a0810190811067ffffffffffffffff82111761095357604052565b90601f601f19910116810190811067ffffffffffffffff82111761095357604052565b9060405191825f825461262e8161258c565b908184526020946001916001811690815f1461269c575060011461265e575b50505061265c925003836125f9565b565b5f90815285812095935091905b81831061268457505061265c93508201015f808061264d565b8554888401850152948501948794509183019161266b565b91505061265c95935060ff1991501682840152151560051b8201015f808061264d565b90601f19601f602080948051918291828752018686015e5f8582860101520116010190565b9060068210156104bf5752565b99969d9c9b9895926127619461276c96926127539460609b9e9b8e612745956101a094859473ffffffffffffffffffffffffffffffffffffffff8092168452166020830152604082015201528c01906126bf565b908a820360808c01526126bf565b9088820360a08a01526126bf565b9960c08701906126e4565b60058610156104bf576101809560e08601526101008501526101208401526101408301526101608201520152565b6024359073ffffffffffffffffffffffffffffffffffffffff821682036103fe57565b6004359073ffffffffffffffffffffffffffffffffffffffff821682036103fe57565b9181601f840112156103fe5782359167ffffffffffffffff83116103fe57602083818601950101116103fe57565b9060c06003198301126103fe5760043573ffffffffffffffffffffffffffffffffffffffff811681036103fe57916024359167ffffffffffffffff6044358181116103fe5783612860916004016127e0565b939093926064358381116103fe578261287b916004016127e0565b939093926084359182116103fe57612895916004016127e0565b909160a43560068110156103fe5790565b67ffffffffffffffff811161095357601f01601f191660200190565b5f1981146104685760010190565b9060068110156104bf5760ff60ff198354169116179055565b9190820391821161046857565b9190820180921161046857565b600154811015612942575f52600260205273ffffffffffffffffffffffffffffffffffffffff600c60405f200191165f5260205260ff60405f20541690565b50505f90565b335f9081527f75e09417c5070057df3eafe5054d52fa0b2a87d64a235e197963b615aedee80360205260409020547f7935bd0ae54bc31f548c14dba4d37c5c64b3f8ca900cb468fb8abd54d5894f559060ff16156105165750565b335f9081527f75442b0a96088b5456bc4ed01394c96a4feec0f883c9494257d76b96ab1c9b6b60205260409020547f65d7a28e3265b37a6474929f336521b332c1681b933f6cb9f3376673440d862a9060ff16156105165750565b335f9081527fb7db2dd08fcb62d0c9e08c51941cae53c267786a0b75803fb7960902fc8ef97d602052604090205460ff1615612a3657565b60446040517fe2517d3f0000000000000000000000000000000000000000000000000000000081523360048201525f6024820152fd5b805f527f02dd7bc7dec4dceedda775e58dd541e08a116c6c53815c0bd028192f7b62680060205260405f20335f5260205260ff60405f205416156105165750565b73ffffffffffffffffffffffffffffffffffffffff165f8181527fb7db2dd08fcb62d0c9e08c51941cae53c267786a0b75803fb7960902fc8ef97d60205260409020547f02dd7bc7dec4dceedda775e58dd541e08a116c6c53815c0bd028192f7b6268009060ff16612942575f805260205260405f20815f5260205260405f20600160ff1982541617905533905f7f2f8788117e7eff1d82e926ec794901d17c78024a50270940304540a733656f0d8180a4600190565b73ffffffffffffffffffffffffffffffffffffffff165f8181527f75442b0a96088b5456bc4ed01394c96a4feec0f883c9494257d76b96ab1c9b6b60205260409020547f65d7a28e3265b37a6474929f336521b332c1681b933f6cb9f3376673440d862a91907f02dd7bc7dec4dceedda775e58dd541e08a116c6c53815c0bd028192f7b6268009060ff16612c3d57825f5260205260405f20815f5260205260405f20600160ff1982541617905533917f2f8788117e7eff1d82e926ec794901d17c78024a50270940304540a733656f0d5f80a4600190565b5050505f90565b73ffffffffffffffffffffffffffffffffffffffff165f8181527ffc47d214751749ee949ed0c17eeb2483659e5750bc54c5fd19e9229fabb37f6c60205260409020547f7149fc23f3dd2e496573d86727f0efe136d9b329494172f58c9932c5528a56e291907f02dd7bc7dec4dceedda775e58dd541e08a116c6c53815c0bd028192f7b6268009060ff16612c3d57825f5260205260405f20815f5260205260405f20600160ff1982541617905533917f2f8788117e7eff1d82e926ec794901d17c78024a50270940304540a733656f0d5f80a4600190565b73ffffffffffffffffffffffffffffffffffffffff165f8181527fdfaf223ff6550d00359f079128755c88f67dfbdd3e16eafa9484089b041ff9ec60205260409020547f233d6d9beb1c92e46850e23f7f8ed753cb2514a7804e03af2031f70fc6a7d0f391907f02dd7bc7dec4dceedda775e58dd541e08a116c6c53815c0bd028192f7b6268009060ff16612c3d57825f5260205260405f20815f5260205260405f20600160ff1982541617905533917f2f8788117e7eff1d82e926ec794901d17c78024a50270940304540a733656f0d5f80a4600190565b90815f527f02dd7bc7dec4dceedda775e58dd541e08a116c6c53815c0bd028192f7b6268008060205273ffffffffffffffffffffffffffffffffffffffff60405f20921691825f5260205260ff60405f205416155f14612c3d57825f5260205260405f20815f5260205260405f20600160ff1982541617905533917f2f8788117e7eff1d82e926ec794901d17c78024a50270940304540a733656f0d5f80a4600190565b60ff7fcd5ed15c6e187e77e9aee88184c21f4f2182ab5827cb3b7e07fbedcd63f033005416612ec557565b60046040517fd93c0665000000000000000000000000000000000000000000000000000000008152fd5b90815f527f02dd7bc7dec4dceedda775e58dd541e08a116c6c53815c0bd028192f7b6268008060205273ffffffffffffffffffffffffffffffffffffffff60405f20921691825f5260205260ff60405f2054165f14612c3d57825f5260205260405f20815f5260205260405f2060ff19815416905533917ff6391f5c32d9c69d2a47ea670b442974b53935d1edc7fd64eb21e047a839171b5f80a4600190565b7f9b779b17422d0df92223018b32b4d1fa46e071723d6817e2486d003becc55f006002815414612fbf5760029055565b60046040517f3ee5aeb5000000000000000000000000000000000000000000000000000000008152fd5b9173ffffffffffffffffffffffffffffffffffffffff604051927fa9059cbb000000000000000000000000000000000000000000000000000000006020850152166024830152604482015260448152608081019181831067ffffffffffffffff8411176109535761265c926040526130b5565b60ff7ff0c57e16840df040f15088dc2f81fe391c3923bec73e23a9662efc9c229c6a005460401c161561308b57565b60046040517fd7e6bcf8000000000000000000000000000000000000000000000000000000008152fd5b5f8073ffffffffffffffffffffffffffffffffffffffff6130eb93169360208151910182865af16130e4613156565b9083613185565b8051908115159182613132575b50506131015750565b602490604051907f5274afe70000000000000000000000000000000000000000000000000000000082526004820152fd5b81925090602091810103126103fe57602001518015908115036103fe575f806130f8565b3d15613180573d90613167826128a6565b9161317560405193846125f9565b82523d5f602084013e565b606090565b906131c4575080511561319a57805190602001fd5b60046040517f1425ea42000000000000000000000000000000000000000000000000000000008152fd5b8151158061321c575b6131d5575090565b60249073ffffffffffffffffffffffffffffffffffffffff604051917f9996b315000000000000000000000000000000000000000000000000000000008352166004820152fd5b50803b156131cd56fea2646970667358221220c48c789d55bc3525b1876522c80371302929797aa79a2ca3ed8af9b4bac29ba164736f6c63430008190033","linkReferences":{}},"methodIdentifiers":{"DEFAULT_ADMIN_ROLE()":"a217fddf","GOVERNOR_ROLE()":"ccc57490","GRANT_APPROVER_ROLE()":"91932fdf","GRANT_PROPOSER_ROLE()":"fdfbf854","MAX_GRANT_AMOUNT()":"ab6cf050","MIN_GRANT_AMOUNT()":"394a9b58","MIN_VOTING_POWER()":"805a8142","PAUSER_ROLE()":"e63ab1e9","UPGRADE_INTERFACE_VERSION()":"ad3cb1cc","VOTING_PERIOD()":"b1610d7e","andeToken()":"140f021c","availableFunds()":"46fcff4c","cancelGrant(uint256,string)":"883a1d3f","disburseGrant(uint256)":"63e39f7f","executeGovernanceTransfer(address,uint256,string)":"aaec28b2","finalizeGrant(uint256)":"805adede","getFundBalance()":"dae9e379","getGrantInfo(uint256)":"3c730e20","getGrantStats()":"d2196e4d","getRoleAdmin(bytes32)":"248a9ca3","grantCount()":"cab42672","grantRole(bytes32,address)":"2f2ff15d","grants(uint256)":"0c0debea","hasRole(bytes32,address)":"91d14854","hasVotedOnGrant(uint256,address)":"9937da60","initialize(address,address)":"485cc955","pause()":"8456cb59","paused()":"5c975abb","proposeAndApproveGrant(address,uint256,string,string,string,uint8)":"348a3268","proposeGrant(address,uint256,string,string,string,uint8)":"e38e15ad","proxiableUUID()":"52d1902d","receiveFunds(uint256)":"8827e09b","renounceRole(bytes32,address)":"36568abe","revokeRole(bytes32,address)":"d547741f","stats()":"d80528ae","supportsInterface(bytes4)":"01ffc9a7","totalFundsDisbursed()":"52f32863","totalFundsReceived()":"bf27f585","unpause()":"3f4ba83a","updateGrantLimits(uint256,uint256)":"8844012f","upgradeToAndCall(address,bytes)":"4f1ef286","voteOnGrant(uint256,bool)":"ff5abe9d"},"id":122}