{"abi":[{"type":"constructor","inputs":[{"name":"_priceOracle","type":"address","internalType":"address"}],"stateMutability":"nonpayable"},{"type":"function","name":"BASE_RATE","inputs":[],"outputs":[{"name":"","type":"uint256","internalType":"uint256"}],"stateMutability":"view"},{"type":"function","name":"LIQUIDATION_BONUS","inputs":[],"outputs":[{"name":"","type":"uint256","internalType":"uint256"}],"stateMutability":"view"},{"type":"function","name":"LIQUIDATION_THRESHOLD","inputs":[],"outputs":[{"name":"","type":"uint256","internalType":"uint256"}],"stateMutability":"view"},{"type":"function","name":"MIN_HEALTH_FACTOR","inputs":[],"outputs":[{"name":"","type":"uint256","internalType":"uint256"}],"stateMutability":"view"},{"type":"function","name":"OPTIMAL_UTILIZATION","inputs":[],"outputs":[{"name":"","type":"uint256","internalType":"uint256"}],"stateMutability":"view"},{"type":"function","name":"PRECISION","inputs":[],"outputs":[{"name":"","type":"uint256","internalType":"uint256"}],"stateMutability":"view"},{"type":"function","name":"SECONDS_PER_YEAR","inputs":[],"outputs":[{"name":"","type":"uint256","internalType":"uint256"}],"stateMutability":"view"},{"type":"function","name":"SLOPE1","inputs":[],"outputs":[{"name":"","type":"uint256","internalType":"uint256"}],"stateMutability":"view"},{"type":"function","name":"SLOPE2","inputs":[],"outputs":[{"name":"","type":"uint256","internalType":"uint256"}],"stateMutability":"view"},{"type":"function","name":"allMarkets","inputs":[{"name":"","type":"uint256","internalType":"uint256"}],"outputs":[{"name":"","type":"address","internalType":"address"}],"stateMutability":"view"},{"type":"function","name":"borrow","inputs":[{"name":"token","type":"address","internalType":"address"},{"name":"amount","type":"uint256","internalType":"uint256"}],"outputs":[],"stateMutability":"nonpayable"},{"type":"function","name":"createMarket","inputs":[{"name":"token","type":"address","internalType":"address"},{"name":"aToken","type":"address","internalType":"address"},{"name":"collateralFactor","type":"uint256","internalType":"uint256"}],"outputs":[],"stateMutability":"nonpayable"},{"type":"function","name":"deposit","inputs":[{"name":"token","type":"address","internalType":"address"},{"name":"amount","type":"uint256","internalType":"uint256"},{"name":"useAsCollateral","type":"bool","internalType":"bool"}],"outputs":[],"stateMutability":"nonpayable"},{"type":"function","name":"flashLoanFee","inputs":[],"outputs":[{"name":"","type":"uint256","internalType":"uint256"}],"stateMutability":"view"},{"type":"function","name":"getBorrowAPR","inputs":[{"name":"token","type":"address","internalType":"address"}],"outputs":[{"name":"","type":"uint256","internalType":"uint256"}],"stateMutability":"view"},{"type":"function","name":"getHealthFactor","inputs":[{"name":"user","type":"address","internalType":"address"}],"outputs":[{"name":"","type":"uint256","internalType":"uint256"}],"stateMutability":"view"},{"type":"function","name":"getSupplyAPR","inputs":[{"name":"token","type":"address","internalType":"address"}],"outputs":[{"name":"","type":"uint256","internalType":"uint256"}],"stateMutability":"view"},{"type":"function","name":"getUserBorrowValue","inputs":[{"name":"user","type":"address","internalType":"address"}],"outputs":[{"name":"","type":"uint256","internalType":"uint256"}],"stateMutability":"view"},{"type":"function","name":"getUserCollateralValue","inputs":[{"name":"user","type":"address","internalType":"address"}],"outputs":[{"name":"","type":"uint256","internalType":"uint256"}],"stateMutability":"view"},{"type":"function","name":"liquidate","inputs":[{"name":"borrower","type":"address","internalType":"address"},{"name":"debtToken","type":"address","internalType":"address"},{"name":"collateralToken","type":"address","internalType":"address"},{"name":"debtAmount","type":"uint256","internalType":"uint256"}],"outputs":[],"stateMutability":"nonpayable"},{"type":"function","name":"markets","inputs":[{"name":"","type":"address","internalType":"address"}],"outputs":[{"name":"isActive","type":"bool","internalType":"bool"},{"name":"aToken","type":"address","internalType":"address"},{"name":"totalSupply","type":"uint256","internalType":"uint256"},{"name":"totalBorrows","type":"uint256","internalType":"uint256"},{"name":"borrowIndex","type":"uint256","internalType":"uint256"},{"name":"lastUpdateTimestamp","type":"uint256","internalType":"uint256"},{"name":"collateralFactor","type":"uint256","internalType":"uint256"},{"name":"liquidationIncentive","type":"uint256","internalType":"uint256"},{"name":"reserveFactor","type":"uint256","internalType":"uint256"}],"stateMutability":"view"},{"type":"function","name":"owner","inputs":[],"outputs":[{"name":"","type":"address","internalType":"address"}],"stateMutability":"view"},{"type":"function","name":"priceOracle","inputs":[],"outputs":[{"name":"","type":"address","internalType":"address"}],"stateMutability":"view"},{"type":"function","name":"renounceOwnership","inputs":[],"outputs":[],"stateMutability":"nonpayable"},{"type":"function","name":"repay","inputs":[{"name":"token","type":"address","internalType":"address"},{"name":"amount","type":"uint256","internalType":"uint256"}],"outputs":[],"stateMutability":"nonpayable"},{"type":"function","name":"rewardsController","inputs":[],"outputs":[{"name":"","type":"address","internalType":"address"}],"stateMutability":"view"},{"type":"function","name":"setPriceOracle","inputs":[{"name":"newOracle","type":"address","internalType":"address"}],"outputs":[],"stateMutability":"nonpayable"},{"type":"function","name":"transferOwnership","inputs":[{"name":"newOwner","type":"address","internalType":"address"}],"outputs":[],"stateMutability":"nonpayable"},{"type":"function","name":"userBorrowedTokens","inputs":[{"name":"","type":"address","internalType":"address"},{"name":"","type":"uint256","internalType":"uint256"}],"outputs":[{"name":"","type":"address","internalType":"address"}],"stateMutability":"view"},{"type":"function","name":"userCollateralTokens","inputs":[{"name":"","type":"address","internalType":"address"},{"name":"","type":"uint256","internalType":"uint256"}],"outputs":[{"name":"","type":"address","internalType":"address"}],"stateMutability":"view"},{"type":"function","name":"userMarkets","inputs":[{"name":"","type":"address","internalType":"address"},{"name":"","type":"address","internalType":"address"}],"outputs":[{"name":"principal","type":"uint256","internalType":"uint256"},{"name":"borrowBalance","type":"uint256","internalType":"uint256"},{"name":"borrowIndex","type":"uint256","internalType":"uint256"},{"name":"useAsCollateral","type":"bool","internalType":"bool"}],"stateMutability":"view"},{"type":"function","name":"withdraw","inputs":[{"name":"token","type":"address","internalType":"address"},{"name":"amount","type":"uint256","internalType":"uint256"}],"outputs":[],"stateMutability":"nonpayable"},{"type":"event","name":"Borrow","inputs":[{"name":"user","type":"address","indexed":true,"internalType":"address"},{"name":"token","type":"address","indexed":true,"internalType":"address"},{"name":"amount","type":"uint256","indexed":false,"internalType":"uint256"}],"anonymous":false},{"type":"event","name":"Deposit","inputs":[{"name":"user","type":"address","indexed":true,"internalType":"address"},{"name":"token","type":"address","indexed":true,"internalType":"address"},{"name":"amount","type":"uint256","indexed":false,"internalType":"uint256"},{"name":"aTokens","type":"uint256","indexed":false,"internalType":"uint256"}],"anonymous":false},{"type":"event","name":"FlashLoan","inputs":[{"name":"receiver","type":"address","indexed":true,"internalType":"address"},{"name":"token","type":"address","indexed":true,"internalType":"address"},{"name":"amount","type":"uint256","indexed":false,"internalType":"uint256"},{"name":"fee","type":"uint256","indexed":false,"internalType":"uint256"}],"anonymous":false},{"type":"event","name":"Liquidation","inputs":[{"name":"liquidator","type":"address","indexed":true,"internalType":"address"},{"name":"borrower","type":"address","indexed":true,"internalType":"address"},{"name":"collateralToken","type":"address","indexed":true,"internalType":"address"},{"name":"debtToken","type":"address","indexed":false,"internalType":"address"},{"name":"debtAmount","type":"uint256","indexed":false,"internalType":"uint256"},{"name":"collateralAmount","type":"uint256","indexed":false,"internalType":"uint256"}],"anonymous":false},{"type":"event","name":"MarketCreated","inputs":[{"name":"token","type":"address","indexed":true,"internalType":"address"},{"name":"aToken","type":"address","indexed":true,"internalType":"address"},{"name":"collateralFactor","type":"uint256","indexed":false,"internalType":"uint256"}],"anonymous":false},{"type":"event","name":"OwnershipTransferred","inputs":[{"name":"previousOwner","type":"address","indexed":true,"internalType":"address"},{"name":"newOwner","type":"address","indexed":true,"internalType":"address"}],"anonymous":false},{"type":"event","name":"Repay","inputs":[{"name":"user","type":"address","indexed":true,"internalType":"address"},{"name":"token","type":"address","indexed":true,"internalType":"address"},{"name":"amount","type":"uint256","indexed":false,"internalType":"uint256"}],"anonymous":false},{"type":"event","name":"Withdraw","inputs":[{"name":"user","type":"address","indexed":true,"internalType":"address"},{"name":"token","type":"address","indexed":true,"internalType":"address"},{"name":"amount","type":"uint256","indexed":false,"internalType":"uint256"},{"name":"aTokens","type":"uint256","indexed":false,"internalType":"uint256"}],"anonymous":false},{"type":"error","name":"AddressEmptyCode","inputs":[{"name":"target","type":"address","internalType":"address"}]},{"type":"error","name":"AddressInsufficientBalance","inputs":[{"name":"account","type":"address","internalType":"address"}]},{"type":"error","name":"FailedInnerCall","inputs":[]},{"type":"error","name":"FlashLoanFailed","inputs":[]},{"type":"error","name":"HealthFactorOK","inputs":[]},{"type":"error","name":"HealthFactorTooLow","inputs":[]},{"type":"error","name":"InsufficientCollateral","inputs":[]},{"type":"error","name":"InsufficientLiquidity","inputs":[]},{"type":"error","name":"InvalidAmount","inputs":[]},{"type":"error","name":"InvalidMarket","inputs":[]},{"type":"error","name":"MarketAlreadyExists","inputs":[]},{"type":"error","name":"MarketNotActive","inputs":[]},{"type":"error","name":"OwnableInvalidOwner","inputs":[{"name":"owner","type":"address","internalType":"address"}]},{"type":"error","name":"OwnableUnauthorizedAccount","inputs":[{"name":"account","type":"address","internalType":"address"}]},{"type":"error","name":"ReentrancyGuardReentrantCall","inputs":[]},{"type":"error","name":"SafeERC20FailedOperation","inputs":[{"name":"token","type":"address","internalType":"address"}]},{"type":"error","name":"Unauthorized","inputs":[]}],"bytecode":{"object":"0x60803460c957601f611dd438819003918201601f19168301916001600160401b0383118484101760cd5780849260209460405283398101031260c957516001600160a01b03908181169081900360c95760015f55331560b15760018054336001600160a01b03198083168217909355604051949091167f8be0079c531659141344cd1fd0a4f28419497f9722a3daafe3b4186f6b6457e05f80a3600980556007541617600755611cf290816100e28239f35b604051631e4fbdf760e01b81525f6004820152602490fd5b5f80fd5b634e487b7160e01b5f52604160045260245ffdfe60406080815260049081361015610014575f80fd5b5f915f3560e01c908162e0f7a0146112ac5781631c6e0bb8146112685781631e273bf41461121257816322867d78146110955781632630c12f1461106d5781633574d4c4146110515781633edd112814610e9c57816341910f9014610e805781634847cdc814610e615781634b8a352914610c7757816352d84d1e14610c1d578163530e784f14610bd85781636bb65f5314610baf5781636f4d8ada14610b92578163715018a614610b3557816375417da614610a2757816382fca8a1146108285781638da5cb5b146107ff5781638e8f294b1461076757816390a8ae9b1461046f57816399def41c146106db5781639bc21ab71461066a578163aab3f868146104da578163aaf5eb68146104bd578163b3b9be2814610497578163b5627e4214610474578163cf762dfa1461046f578163e6a69ab814610450578163f2fde38b146103c0578163f3fef3a3146101ca57508063f93c6695146101ae5763fe6bcd7c1461017f575f80fd5b346101aa5760203660031901126101aa576020906101a361019e6112e3565b611647565b9051908152f35b5080fd5b50346101aa57816003193601126101aa57602090516101908152f35b9050346103405781600319360112610340576101e46112e3565b91602435916101f161149c565b6001600160a01b03848116808752600260205283872080549196909160ff16156103b05761021e906114bd565b3387526003602052838720865f52602052835f209480155f146103aa57508454945b80549081871161039a57600183019161025f8354600286015490611354565b881161038a5790878a969594939260038301805460ff8116610344575b50509061028891611354565b9055610295878254611354565b90555460081c16803b15610340578351632770a7eb60e21b81523392810192835260208301869052918391839182908490829060400103925af180156103365761031e575b50507ff341246adaac6f497bc2a656f546ab9e182111d630394f0c57c710a59a2cb5679061030983338661177d565b80519280845260208401523392a36001815580f35b610327906113b3565b61033257835f6102da565b8380fd5b83513d84823e3d90fd5b8280fd5b60ff1916905595965093949293509091670de0b6b3a764000061036633611647565b1061037a5790878a96959493925f8061027c565b865163317416e560e11b81528690fd5b865163bb55fd2760e01b81528690fd5b855163162908e360e11b81528590fd5b94610240565b8451635a90bb8d60e11b81528490fd5b905034610340576020366003190112610340576103db6112e3565b906103e46117be565b6001600160a01b0391821692831561043a575050600154826bffffffffffffffffffffffff60a01b821617600155167f8be0079c531659141344cd1fd0a4f28419497f9722a3daafe3b4186f6b6457e05f80a380f35b51631e4fbdf760e01b8152908101849052602490fd5b5050346101aa57816003193601126101aa57602090516301e133808152f35b611338565b5050346101aa57816003193601126101aa5760209051670de0b6b3a76400008152f35b5050346101aa5760203660031901126101aa576020906101a36104b86112e3565b611a66565b5050346101aa57816003193601126101aa57602090516127108152f35b905034610340576080366003190112610340576104f56112e3565b6104fd6112f9565b6044356001600160a01b038181169591868103610666576064359561052061149c565b670de0b6b3a764000061053287611647565b101561065857610541856114bd565b61054a826114bd565b6105548786611867565b90612904918281029281840414901517156106455750829161271061057a920490611981565b93169361058986303388611539565b1693848752602060038152828820855f5281526001835f20016105ad838254611354565b9055848852600281526002838920016105c7838254611354565b905585885260038152828820875f528152825f206105e6858254611354565b905586885260028152600183892001610600858254611354565b905561060d84338961177d565b82519485528401528201527f64f7c2c46814e079964a1934953e50adc025dc52cdbeb7d8e478e9fb9bfd2c2d60603392a46001815580f35b601190634e487b7160e01b5f525260245ffd5b835163755b652760e01b8152fd5b5f80fd5b5050346101aa57806003193601126101aa576080916106876112e3565b826106906112f9565b9260018060a01b03809316815260036020522091165f52602052805f209081549160018101549160ff6003600284015493015416928151948552602085015283015215156060820152f35b828434610764576020366003190112610764576001600160a01b036106fe6112e3565b1681526002602052818120600761072661071783611438565b610720846117fe565b90611375565b91015491612710928303928311610751576020846305f5e1006107498686611375565b049051908152f35b634e487b7160e01b815260118552602490fd5b80fd5b9190503461034057602036600319011261034057610120926001600160a01b0391908190836107946112e3565b16815260026020522090815493600183015490600284015460038501549185015492600586015494600760068801549701549781519960ff811615158b5260081c1660208a01528801526060870152608086015260a085015260c084015260e0830152610100820152f35b5050346101aa57816003193601126101aa5760015490516001600160a01b039091168152602090f35b905034610340576060366003190112610340576108436112e3565b9061084c6112f9565b92604435916108596117be565b6001600160a01b0393841680875260026020528287205490949060ff16610a1857825190610120820182811067ffffffffffffffff821117610a055788600792889287526001855260208501991698898152868501828152606086018381526080870190670de0b6b3a7640000825260a088019242845260c08901948c865261090f8c60e08c01986101f48a526101008d019a6103e88c5281526002602052209a5115158b9060ff801983541691151516179055565b518954610100600160a81b03191660089190911b610100600160a81b0316178955516001890155516002880155516003870155518686015551600585015551600680850191909155905191909201555490600160401b8210156109f25760018201806006558210156109df575060065f527ff652222313e28459528d920b65115c16c04f3efc82aaedc97be59f3f377c0d3f0180546001600160a01b03191684179055519081527fab80d4f237153664013aad30815c82af95ab8234bfb2d63a6518a3656e4d3a8c90602090a380f35b603290634e487b7160e01b5f525260245ffd5b604190634e487b7160e01b5f525260245ffd5b604184634e487b7160e01b5f525260245ffd5b509051630313b28560e01b8152fd5b8383346101aa5760208060031936011261034057610a436112e3565b92809160018060a01b03809516958683528152838220958451808884829a54938481520190865284862092865b86828210610b1d57505050610a87925003886113db565b825b8751811015610b145786610a9d828a6117ea565b51168285526003808552878620825f52855260ff885f20918201541680610b0a575b610ace575b5050600101610a89565b95612710610afb610b0293610ae76001969a5482611867565b9089526002885260058b8a20015490611375565b04906113a6565b949089610ac4565b5080541515610abf565b82858751908152f35b85548c1684526001958601958d955093019201610a70565b8334610764578060031936011261076457610b4e6117be565b600180546001600160a01b031981169091555f906001600160a01b03167f8be0079c531659141344cd1fd0a4f28419497f9722a3daafe3b4186f6b6457e08280a380f35b5050346101aa57816003193601126101aa57602090516117708152f35b5050346101aa57816003193601126101aa5760085490516001600160a01b039091168152602090f35b833461076457602036600319011261076457610bf26112e3565b610bfa6117be565b60018060a01b03166bffffffffffffffffffffffff60a01b600754161760075580f35b90503461034057602036600319011261034057356006548110156103405760065f527ff652222313e28459528d920b65115c16c04f3efc82aaedc97be59f3f377c0d3f015490516001600160a01b03909116815260209150f35b905034610340578160031936011261034057610c916112e3565b9160243591610c9e61149c565b8215610e53576001600160a01b0384168086526002602052828620805491959160ff1615610e4357610ccf826114bd565b600181015490610ce56002820192835490611354565b8611610e33573388526003602052848820875f52602052845f209060018201805480610dc1575b50805480610d1a8a826113a6565b10610db157610d4f95949392600292610d358b6003946113a6565b90550154910155610d478682546113a6565b9055336115f1565b670de0b6b3a7640000610d6133611647565b10610da35750610d7282338561177d565b519081527f312a5e5e1079f5dda4e95dbbd0b908b291fd5b992ef22073643ab691572c5b5260203392a36001815580f35b9051633a23d82560e01b8152fd5b875163162908e360e11b81528790fd5b6003830154600285015490818110610e2357610de9670de0b6b3a764000092610def92611354565b83611375565b049080610dfc83826113a6565b10610e135790610e0b916113a6565b81555f610d0c565b885163162908e360e11b81528890fd5b895163162908e360e11b81528990fd5b845163bb55fd2760e01b81528490fd5b8351635a90bb8d60e11b81528390fd5b905163162908e360e11b8152fd5b5050346101aa57816003193601126101aa576020906009549051908152f35b5050346101aa57816003193601126101aa576020905160c88152f35b9190503461066657606036600319011261066657610eb86112e3565b9060243591604435801515810361066657610ed161149c565b8315611041576001600160a01b038281165f818152600260205285902080549197929160ff161561103157610f05856114bd565b610f118730338b611539565b335f526003602052855f20885f52602052610f4a846003885f20610f368b82546113a6565b8155019060ff801983541691151516179055565b60018101610f598882546113a6565b90555460081c16803b156106665784516340c10f1960e01b81523392810192835260208301879052915f91839182908490829060400103925af1801561102757610fee575b50907fdcbc1c05240f31ff3ad067ef1ee35ce4997762752e3a095284754544f4c709d79291610fde575b5080519280845260208401523392a36001815580f35b610fe89033611594565b5f610fc8565b7fdcbc1c05240f31ff3ad067ef1ee35ce4997762752e3a095284754544f4c709d7939291965061101d906113b3565b5f95909192610f9e565b84513d5f823e3d90fd5b8551635a90bb8d60e11b81528390fd5b825163162908e360e11b81528590fd5b8234610666575f36600319011261066657602090516101f48152f35b8234610666575f3660031901126106665760075490516001600160a01b039091168152602090f35b9050346106665781600319360112610666576110af6112e3565b91602435906110bc61149c565b6001600160a01b0384165f818152600260205282902080549195909160ff1615611202576110e9906114bd565b335f526003602052815f20855f52602052815f20926001840194855480611196575b50508061119057508354925b8454808511611187575b5083946111336002949530338a611539565b61113e868254611354565b905582600383015491015501611155838254611354565b9055519081527f05f2eeda0e08e4b437f487c8d7d29b14537d15e3488170dc3de5dbdf8dac468460203392a360015f55005b93506002611121565b92611117565b60038401546002870154908181106111f257610de9670de0b6b3a7640000926111be92611354565b0491816111cb84826113a6565b106111e45750906111db916113a6565b8555868061110b565b855163162908e360e11b8152fd5b865163162908e360e11b81528490fd5b8251635a90bb8d60e11b81528590fd5b823461066657806003193601126106665761122b6112e3565b906024359160018060a01b038091165f526005602052815f208054841015610666576020936112599161130f565b92905490519260031b1c168152f35b82346106665780600319360112610666576112816112e3565b6024359260018060a01b038092165f52602052815f208054841015610666576020936112599161130f565b8234610666576020366003190112610666576020906001600160a01b036112d16112e3565b165f52600282526101a3815f20611438565b600435906001600160a01b038216820361066657565b602435906001600160a01b038216820361066657565b8054821015611324575f5260205f2001905f90565b634e487b7160e01b5f52603260045260245ffd5b34610666575f366003190112610666576020604051611f408152f35b9190820391821161136157565b634e487b7160e01b5f52601160045260245ffd5b8181029291811591840414171561136157565b8115611392570490565b634e487b7160e01b5f52601260045260245ffd5b9190820180921161136157565b67ffffffffffffffff81116113c757604052565b634e487b7160e01b5f52604160045260245ffd5b90601f8019910116810190811067ffffffffffffffff8211176113c757604052565b8054600160401b8110156113c75761141a9160018201815561130f565b60018060a09493941b038084549260031b9316831b921b1916179055565b611441906117fe565b611f40811161146c57610190908082029182040361136157612710900460c8018060c8116113615790565b611f3f19810190811161136157611770908082029182040361136157612710610258910481018091116113615790565b60025f54146114ab5760025f55565b604051633ee5aeb560e01b8152600490fd5b60018060a01b03165f52600260205260405f2060048101906114e0825442611354565b8015611534576301e1338061150061152d926114fb85611438565b611375565b046003600284019384549461151d6127109687610afb8783611375565b90550192610afb84549283611375565b9055429055565b505050565b6040516323b872dd60e01b60208201526001600160a01b03928316602482015292909116604483015260648083019390935291815260a081019181831067ffffffffffffffff8411176113c75761159292604052611b2c565b565b6001600160a01b039081165f9081526004602052604081208054939290915b8481106115c657505061159292506113fd565b816115d1828561130f565b9190548187169260031b1c16146115ea576001016115b3565b5050505050565b6001600160a01b039081165f9081526005602052604081208054939290915b84811061162357505061159292506113fd565b8161162e828561130f565b9190548187169260031b1c16146115ea57600101611610565b5f60018060a01b039081831691825f526020906004825260409560405f20906040518083868295549384815201905f52865f20925f5b8882821061176557505050611694925003836113db565b5f5b825181101561170657836116aa82856117ea565b5116875f5260038087528a5f20825f52875260ff8b5f209182015416806116fc575b6116db575b5050600101611696565b966116ee6116f492600194995490611867565b906113a6565b95905f6116d1565b50805415156116cc565b509650505050916117179150611a66565b90811561175e57611f409081810291818304149015171561136157612710900490670de0b6b3a7640000918281029281840414901517156113615761175b91611388565b90565b50505f1990565b8554891684526001958601958895509301920161167d565b60405163a9059cbb60e01b60208201526001600160a01b03929092166024830152604480830193909352918152611592916117b96064836113db565b611b2c565b6001546001600160a01b031633036117d257565b60405163118cdaa760e01b8152336004820152602490fd5b80518210156113245760209160051b010190565b600181015490811561182c576002015490612710918281029281840414901517156113615761175b91611388565b50505f90565b60ff6011199116019060ff821161136157565b60ff166012039060ff821161136157565b60ff16604d811161136157600a0a90565b6007546001600160a01b03908116929083156118f95761188683611be5565b829060ff8116601281101561194a5750602093506024916107206118ac6118b193611845565b611856565b935b60405195869384926341976e0960e01b84521660048301525afa91821561193f575f9261190b575b5081156118f957670de0b6b3a7640000916118f591611375565b0490565b604051639db8d5b160e01b8152600490fd5b9091506020813d602011611937575b81611927602093836113db565b810103126106665751905f6118db565b3d915061191a565b6040513d5f823e3d90fd5b60121061195f575b50506024602092936118b3565b602093506024916119756118ac61197b93611832565b90611388565b92611952565b60075490916001600160a01b039182169182156118f9576020906024604051809581936341976e0960e01b8352881660048301525afa91821561193f575f92611a32575b5081156118f957670de0b6b3a764000090818102918183041490151715611361576119f9916119f391611388565b91611be5565b60ff81166012811015611a175750906119756118ac61175b93611845565b601210611a22575090565b906107206118ac61175b93611832565b9091506020813d602011611a5e575b81611a4e602093836113db565b810103126106665751905f6119c5565b3d9150611a41565b6001600160a01b039081165f81815260056020908152604080832081518154808252918552838520949796929490918290818601908a5b87828210611b1457505050611ab4925003826113db565b5f5b8151811015611b0c5782611aca82846117ea565b5116865f5260038552855f20815f5285526001865f2001549081611af3575b5050600101611ab6565b986116ee611b04926001949b611867565b97905f611ae9565b505050505050565b85548816845260019586019587955093019201611a9d565b81516001600160a01b03909116915f91829160200182855af13d15611bd9573d67ffffffffffffffff81116113c757611b879160405191611b776020601f19601f84011601846113db565b82523d5f602084013e5b83611c59565b8051908115159182611bb5575b5050611b9d5750565b60249060405190635274afe760e01b82526004820152fd5b81925090602091810103126106665760200151801590811503610666575f80611b94565b611b8790606090611b81565b60405163313ce56760e01b815290602090829060049082906001600160a01b03165afa5f9181611c1b575b5061175b5750601290565b9091506020813d602011611c51575b81611c37602093836113db565b81010312610666575160ff8116810361066657905f611c10565b3d9150611c2a565b90611c805750805115611c6e57805190602001fd5b604051630a12f52160e11b8152600490fd5b81511580611cb3575b611c91575090565b604051639996b31560e01b81526001600160a01b039091166004820152602490fd5b50803b15611c8956fea26469706673582212204a316b70bc459185146f7aa74926e38d295f62bdd96ee3af42c07988a63256a364736f6c63430008190033","linkReferences":{}},"methodIdentifiers":{"BASE_RATE()":"41910f90","LIQUIDATION_BONUS()":"3574d4c4","LIQUIDATION_THRESHOLD()":"90a8ae9b","MIN_HEALTH_FACTOR()":"b5627e42","OPTIMAL_UTILIZATION()":"cf762dfa","PRECISION()":"aaf5eb68","SECONDS_PER_YEAR()":"e6a69ab8","SLOPE1()":"f93c6695","SLOPE2()":"6f4d8ada","allMarkets(uint256)":"52d84d1e","borrow(address,uint256)":"4b8a3529","createMarket(address,address,uint256)":"82fca8a1","deposit(address,uint256,bool)":"3edd1128","flashLoanFee()":"4847cdc8","getBorrowAPR(address)":"00e0f7a0","getHealthFactor(address)":"fe6bcd7c","getSupplyAPR(address)":"99def41c","getUserBorrowValue(address)":"b3b9be28","getUserCollateralValue(address)":"75417da6","liquidate(address,address,address,uint256)":"aab3f868","markets(address)":"8e8f294b","owner()":"8da5cb5b","priceOracle()":"2630c12f","renounceOwnership()":"715018a6","repay(address,uint256)":"22867d78","rewardsController()":"6bb65f53","setPriceOracle(address)":"530e784f","transferOwnership(address)":"f2fde38b","userBorrowedTokens(address,uint256)":"1e273bf4","userCollateralTokens(address,uint256)":"1c6e0bb8","userMarkets(address,address)":"9bc21ab7","withdraw(address,uint256)":"f3fef3a3"},"id":166}