{"abi":[{"type":"constructor","inputs":[{"name":"_priceOracle","type":"address","internalType":"address"}],"stateMutability":"nonpayable"},{"type":"function","name":"BASE_RATE","inputs":[],"outputs":[{"name":"","type":"uint256","internalType":"uint256"}],"stateMutability":"view"},{"type":"function","name":"LIQUIDATION_BONUS","inputs":[],"outputs":[{"name":"","type":"uint256","internalType":"uint256"}],"stateMutability":"view"},{"type":"function","name":"LIQUIDATION_THRESHOLD","inputs":[],"outputs":[{"name":"","type":"uint256","internalType":"uint256"}],"stateMutability":"view"},{"type":"function","name":"MIN_HEALTH_FACTOR","inputs":[],"outputs":[{"name":"","type":"uint256","internalType":"uint256"}],"stateMutability":"view"},{"type":"function","name":"OPTIMAL_UTILIZATION","inputs":[],"outputs":[{"name":"","type":"uint256","internalType":"uint256"}],"stateMutability":"view"},{"type":"function","name":"PRECISION","inputs":[],"outputs":[{"name":"","type":"uint256","internalType":"uint256"}],"stateMutability":"view"},{"type":"function","name":"SECONDS_PER_YEAR","inputs":[],"outputs":[{"name":"","type":"uint256","internalType":"uint256"}],"stateMutability":"view"},{"type":"function","name":"SLOPE1","inputs":[],"outputs":[{"name":"","type":"uint256","internalType":"uint256"}],"stateMutability":"view"},{"type":"function","name":"SLOPE2","inputs":[],"outputs":[{"name":"","type":"uint256","internalType":"uint256"}],"stateMutability":"view"},{"type":"function","name":"allMarkets","inputs":[{"name":"","type":"uint256","internalType":"uint256"}],"outputs":[{"name":"","type":"address","internalType":"address"}],"stateMutability":"view"},{"type":"function","name":"borrow","inputs":[{"name":"token","type":"address","internalType":"address"},{"name":"amount","type":"uint256","internalType":"uint256"}],"outputs":[],"stateMutability":"nonpayable"},{"type":"function","name":"createMarket","inputs":[{"name":"token","type":"address","internalType":"address"},{"name":"aToken","type":"address","internalType":"address"},{"name":"collateralFactor","type":"uint256","internalType":"uint256"}],"outputs":[],"stateMutability":"nonpayable"},{"type":"function","name":"deposit","inputs":[{"name":"token","type":"address","internalType":"address"},{"name":"amount","type":"uint256","internalType":"uint256"},{"name":"useAsCollateral","type":"bool","internalType":"bool"}],"outputs":[],"stateMutability":"nonpayable"},{"type":"function","name":"flashLoanFee","inputs":[],"outputs":[{"name":"","type":"uint256","internalType":"uint256"}],"stateMutability":"view"},{"type":"function","name":"getBorrowAPR","inputs":[{"name":"token","type":"address","internalType":"address"}],"outputs":[{"name":"","type":"uint256","internalType":"uint256"}],"stateMutability":"view"},{"type":"function","name":"getHealthFactor","inputs":[{"name":"user","type":"address","internalType":"address"}],"outputs":[{"name":"","type":"uint256","internalType":"uint256"}],"stateMutability":"view"},{"type":"function","name":"getSupplyAPR","inputs":[{"name":"token","type":"address","internalType":"address"}],"outputs":[{"name":"","type":"uint256","internalType":"uint256"}],"stateMutability":"view"},{"type":"function","name":"getUserBorrowValue","inputs":[{"name":"user","type":"address","internalType":"address"}],"outputs":[{"name":"","type":"uint256","internalType":"uint256"}],"stateMutability":"view"},{"type":"function","name":"getUserCollateralValue","inputs":[{"name":"user","type":"address","internalType":"address"}],"outputs":[{"name":"","type":"uint256","internalType":"uint256"}],"stateMutability":"view"},{"type":"function","name":"liquidate","inputs":[{"name":"borrower","type":"address","internalType":"address"},{"name":"debtToken","type":"address","internalType":"address"},{"name":"collateralToken","type":"address","internalType":"address"},{"name":"debtAmount","type":"uint256","internalType":"uint256"}],"outputs":[],"stateMutability":"nonpayable"},{"type":"function","name":"markets","inputs":[{"name":"","type":"address","internalType":"address"}],"outputs":[{"name":"isActive","type":"bool","internalType":"bool"},{"name":"aToken","type":"address","internalType":"address"},{"name":"totalSupply","type":"uint256","internalType":"uint256"},{"name":"totalBorrows","type":"uint256","internalType":"uint256"},{"name":"borrowIndex","type":"uint256","internalType":"uint256"},{"name":"lastUpdateTimestamp","type":"uint256","internalType":"uint256"},{"name":"collateralFactor","type":"uint256","internalType":"uint256"},{"name":"liquidationIncentive","type":"uint256","internalType":"uint256"},{"name":"reserveFactor","type":"uint256","internalType":"uint256"}],"stateMutability":"view"},{"type":"function","name":"owner","inputs":[],"outputs":[{"name":"","type":"address","internalType":"address"}],"stateMutability":"view"},{"type":"function","name":"priceOracle","inputs":[],"outputs":[{"name":"","type":"address","internalType":"address"}],"stateMutability":"view"},{"type":"function","name":"renounceOwnership","inputs":[],"outputs":[],"stateMutability":"nonpayable"},{"type":"function","name":"repay","inputs":[{"name":"token","type":"address","internalType":"address"},{"name":"amount","type":"uint256","internalType":"uint256"}],"outputs":[],"stateMutability":"nonpayable"},{"type":"function","name":"rewardsController","inputs":[],"outputs":[{"name":"","type":"address","internalType":"address"}],"stateMutability":"view"},{"type":"function","name":"setPriceOracle","inputs":[{"name":"newOracle","type":"address","internalType":"address"}],"outputs":[],"stateMutability":"nonpayable"},{"type":"function","name":"transferOwnership","inputs":[{"name":"newOwner","type":"address","internalType":"address"}],"outputs":[],"stateMutability":"nonpayable"},{"type":"function","name":"userBorrowedTokens","inputs":[{"name":"","type":"address","internalType":"address"},{"name":"","type":"uint256","internalType":"uint256"}],"outputs":[{"name":"","type":"address","internalType":"address"}],"stateMutability":"view"},{"type":"function","name":"userCollateralTokens","inputs":[{"name":"","type":"address","internalType":"address"},{"name":"","type":"uint256","internalType":"uint256"}],"outputs":[{"name":"","type":"address","internalType":"address"}],"stateMutability":"view"},{"type":"function","name":"userMarkets","inputs":[{"name":"","type":"address","internalType":"address"},{"name":"","type":"address","internalType":"address"}],"outputs":[{"name":"principal","type":"uint256","internalType":"uint256"},{"name":"borrowBalance","type":"uint256","internalType":"uint256"},{"name":"borrowIndex","type":"uint256","internalType":"uint256"},{"name":"useAsCollateral","type":"bool","internalType":"bool"}],"stateMutability":"view"},{"type":"function","name":"withdraw","inputs":[{"name":"token","type":"address","internalType":"address"},{"name":"amount","type":"uint256","internalType":"uint256"}],"outputs":[],"stateMutability":"nonpayable"},{"type":"event","name":"Borrow","inputs":[{"name":"user","type":"address","indexed":true,"internalType":"address"},{"name":"token","type":"address","indexed":true,"internalType":"address"},{"name":"amount","type":"uint256","indexed":false,"internalType":"uint256"}],"anonymous":false},{"type":"event","name":"Deposit","inputs":[{"name":"user","type":"address","indexed":true,"internalType":"address"},{"name":"token","type":"address","indexed":true,"internalType":"address"},{"name":"amount","type":"uint256","indexed":false,"internalType":"uint256"},{"name":"aTokens","type":"uint256","indexed":false,"internalType":"uint256"}],"anonymous":false},{"type":"event","name":"FlashLoan","inputs":[{"name":"receiver","type":"address","indexed":true,"internalType":"address"},{"name":"token","type":"address","indexed":true,"internalType":"address"},{"name":"amount","type":"uint256","indexed":false,"internalType":"uint256"},{"name":"fee","type":"uint256","indexed":false,"internalType":"uint256"}],"anonymous":false},{"type":"event","name":"Liquidation","inputs":[{"name":"liquidator","type":"address","indexed":true,"internalType":"address"},{"name":"borrower","type":"address","indexed":true,"internalType":"address"},{"name":"collateralToken","type":"address","indexed":true,"internalType":"address"},{"name":"debtToken","type":"address","indexed":false,"internalType":"address"},{"name":"debtAmount","type":"uint256","indexed":false,"internalType":"uint256"},{"name":"collateralAmount","type":"uint256","indexed":false,"internalType":"uint256"}],"anonymous":false},{"type":"event","name":"MarketCreated","inputs":[{"name":"token","type":"address","indexed":true,"internalType":"address"},{"name":"aToken","type":"address","indexed":true,"internalType":"address"},{"name":"collateralFactor","type":"uint256","indexed":false,"internalType":"uint256"}],"anonymous":false},{"type":"event","name":"OwnershipTransferred","inputs":[{"name":"previousOwner","type":"address","indexed":true,"internalType":"address"},{"name":"newOwner","type":"address","indexed":true,"internalType":"address"}],"anonymous":false},{"type":"event","name":"Repay","inputs":[{"name":"user","type":"address","indexed":true,"internalType":"address"},{"name":"token","type":"address","indexed":true,"internalType":"address"},{"name":"amount","type":"uint256","indexed":false,"internalType":"uint256"}],"anonymous":false},{"type":"event","name":"Withdraw","inputs":[{"name":"user","type":"address","indexed":true,"internalType":"address"},{"name":"token","type":"address","indexed":true,"internalType":"address"},{"name":"amount","type":"uint256","indexed":false,"internalType":"uint256"},{"name":"aTokens","type":"uint256","indexed":false,"internalType":"uint256"}],"anonymous":false},{"type":"error","name":"AddressEmptyCode","inputs":[{"name":"target","type":"address","internalType":"address"}]},{"type":"error","name":"AddressInsufficientBalance","inputs":[{"name":"account","type":"address","internalType":"address"}]},{"type":"error","name":"FailedInnerCall","inputs":[]},{"type":"error","name":"FlashLoanFailed","inputs":[]},{"type":"error","name":"HealthFactorOK","inputs":[]},{"type":"error","name":"HealthFactorTooLow","inputs":[]},{"type":"error","name":"InsufficientCollateral","inputs":[]},{"type":"error","name":"InsufficientLiquidity","inputs":[]},{"type":"error","name":"InvalidAmount","inputs":[]},{"type":"error","name":"InvalidMarket","inputs":[]},{"type":"error","name":"MarketAlreadyExists","inputs":[]},{"type":"error","name":"MarketNotActive","inputs":[]},{"type":"error","name":"OwnableInvalidOwner","inputs":[{"name":"owner","type":"address","internalType":"address"}]},{"type":"error","name":"OwnableUnauthorizedAccount","inputs":[{"name":"account","type":"address","internalType":"address"}]},{"type":"error","name":"ReentrancyGuardReentrantCall","inputs":[]},{"type":"error","name":"SafeERC20FailedOperation","inputs":[{"name":"token","type":"address","internalType":"address"}]},{"type":"error","name":"Unauthorized","inputs":[]}],"bytecode":{"object":"0x60803460c957601f6124ec38819003918201601f19168301916001600160401b0383118484101760cd5780849260209460405283398101031260c957516001600160a01b03908181169081900360c95760015f55331560b15760018054336001600160a01b03198083168217909355604051949091167f8be0079c531659141344cd1fd0a4f28419497f9722a3daafe3b4186f6b6457e05f80a360098055600754161760075561240a90816100e28239f35b604051631e4fbdf760e01b81525f6004820152602490fd5b5f80fd5b634e487b7160e01b5f52604160045260245ffdfe60406080815260049081361015610014575f80fd5b5f915f3560e01c908162e0f7a0146116e45781631c6e0bb8146116925781631e273bf41461162e57816322867d781461145e5781632630c12f1461142a5781633574d4c41461140e5781633edd1128146111e757816341910f90146111cb5781634847cdc8146111ac5781634b8a352914610f0d57816352d84d1e14610ea6578163530e784f14610e425781636bb65f5314610e0d5781636f4d8ada14610df0578163715018a614610d7057816375417da614610c5457816382fca8a11461098c5781638da5cb5b146109575781638e8f294b146108b357816390a8ae9b1461054857816399def41c146108015781639bc21ab714610782578163aab3f868146105b3578163aaf5eb6814610596578163b3b9be2814610570578163b5627e421461054d578163cf762dfa14610548578163e6a69ab814610529578163f2fde38b14610462578163f3fef3a3146101ca57508063f93c6695146101ae5763fe6bcd7c1461017f575f80fd5b346101aa5760206003193601126101aa576020906101a361019e611728565b611bb8565b9051908152f35b5080fd5b50346101aa57816003193601126101aa57602090516101908152f35b9050346103645781600319360112610364576101e4611728565b91602435916101f16119ae565b73ffffffffffffffffffffffffffffffffffffffff8085169485875260026020528387209060ff8254161561043a57610229906119e7565b3387526003602052838720865f52602052835f209480155f1461043457508454945b80549081871161040c57600183019161026a83546002860154906117cc565b88116103e45790878a969594939260038301805460ff8116610368575b505090610293916117cc565b90556102a08782546117cc565b90555460081c16803b156103645783517f9dc29fac0000000000000000000000000000000000000000000000000000000081523392810192835260208301869052918391839182908490829060400103925af1801561035a57610342575b50507ff341246adaac6f497bc2a656f546ab9e182111d630394f0c57c710a59a2cb5679061032d833386611d1b565b80519280845260208401523392a36001815580f35b61034b9061185d565b61035657835f6102fe565b8380fd5b83513d84823e3d90fd5b8280fd5b7fffffffffffffffffffffffffffffffffffffffffffffffffffffffffffffff0016905595965093949293509091670de0b6b3a76400006103a833611bb8565b106103bc5790878a96959493925f80610287565b8587517f62e82dca000000000000000000000000000000000000000000000000000000008152fd5b8587517fbb55fd27000000000000000000000000000000000000000000000000000000008152fd5b8486517f2c5211c6000000000000000000000000000000000000000000000000000000008152fd5b9461024b565b8385517fb521771a000000000000000000000000000000000000000000000000000000008152fd5b9050346103645760206003193601126103645761047d611728565b90610486611d82565b73ffffffffffffffffffffffffffffffffffffffff8092169283156104fa575050600154827fffffffffffffffffffffffff0000000000000000000000000000000000000000821617600155167f8be0079c531659141344cd1fd0a4f28419497f9722a3daafe3b4186f6b6457e05f80a380f35b908460249251917f1e4fbdf7000000000000000000000000000000000000000000000000000000008352820152fd5b5050346101aa57816003193601126101aa57602090516301e133808152f35b6117b0565b5050346101aa57816003193601126101aa5760209051670de0b6b3a76400008152f35b5050346101aa5760206003193601126101aa576020906101a3610591611728565b6120cf565b5050346101aa57816003193601126101aa57602090516127108152f35b905034610364576080600319360112610364576105ce611728565b6105d661174b565b6044359373ffffffffffffffffffffffffffffffffffffffff8086169586810361077e57606435956106066119ae565b670de0b6b3a764000061061887611bb8565b101561075757610627856119e7565b610630826119e7565b61063a8786611e6e565b906129049182810292818404149015171561072b57508291612710610660920490611fc5565b93169361066f86303388611a71565b1693848752602060038152828820855f5281526001835f20016106938382546117cc565b9055848852600281526002838920016106ad8382546117cc565b905585885260038152828820875f528152825f206106cc8582546117cc565b9055868852600281526001838920016106e68582546117cc565b90556106f3843389611d1b565b82519485528401528201527f64f7c2c46814e079964a1934953e50adc025dc52cdbeb7d8e478e9fb9bfd2c2d60603392a46001815580f35b6011907f4e487b71000000000000000000000000000000000000000000000000000000005f525260245ffd5b83517f755b6527000000000000000000000000000000000000000000000000000000008152fd5b5f80fd5b5050346101aa57806003193601126101aa5760809161079f611728565b826107a861174b565b9273ffffffffffffffffffffffffffffffffffffffff809316815260036020522091165f52602052805f209081549160018101549160ff6003600284015493015416928151948552602085015283015215156060820152f35b8284346108b05760206003193601126108b05773ffffffffffffffffffffffffffffffffffffffff610831611728565b1681526002602052818120600761085961084a8361192d565b61085384611de7565b90611806565b91015491612710928303928311610884576020846305f5e10061087c8686611806565b049051908152f35b806011867f4e487b71000000000000000000000000000000000000000000000000000000006024945252fd5b80fd5b919050346103645760206003193601126103645791826101209373ffffffffffffffffffffffffffffffffffffffff92836108ec611728565b16815260026020522090815493600183015490600284015460038501549185015492600586015494600760068801549701549781519960ff811615158b5260081c1660208a01528801526060870152608086015260a085015260c084015260e0830152610100820152f35b5050346101aa57816003193601126101aa5760209073ffffffffffffffffffffffffffffffffffffffff600154169051908152f35b905034610364576060600319360112610364576109a7611728565b906109b061174b565b92604435916109bd611d82565b73ffffffffffffffffffffffffffffffffffffffff80941693848752600260205260ff8388205416610c2c57825190610120820182811067ffffffffffffffff821117610c005788600792889287526001855260208501991698898152868501828152606086018381526080870190670de0b6b3a7640000825260a088019242845260c08901948c8652610a9d8c60e08c01986101f48a526101008d019a6103e88c5281526002602052209a5115158b9060ff7fffffffffffffffffffffffffffffffffffffffffffffffffffffffffffffff0083541691151516179055565b517fffffffffffffffffffffff0000000000000000000000000000000000000000ff74ffffffffffffffffffffffffffffffffffffffff008b549260081b1691161789555160018901555160028801555160038701555186860155516005850155516006840155519101556006549068010000000000000000821015610bd4576001820180600655821015610ba8575060065f527ff652222313e28459528d920b65115c16c04f3efc82aaedc97be59f3f377c0d3f0180547fffffffffffffffffffffffff00000000000000000000000000000000000000001684179055519081527fab80d4f237153664013aad30815c82af95ab8234bfb2d63a6518a3656e4d3a8c90602090a380f35b6032907f4e487b71000000000000000000000000000000000000000000000000000000005f525260245ffd5b6041907f4e487b71000000000000000000000000000000000000000000000000000000005f525260245ffd5b6041847f4e487b71000000000000000000000000000000000000000000000000000000005f525260245ffd5b5090517f0313b285000000000000000000000000000000000000000000000000000000008152fd5b8383346101aa5760208060031936011261036457610c70611728565b92809173ffffffffffffffffffffffffffffffffffffffff809516958683528152838220958451808884829a54938481520190865284862092865b86828210610d5857505050610cc29250038861189e565b825b8751811015610d4f5786610cd8828a611dd3565b51168285526003808552878620825f52855260ff885f20918201541680610d45575b610d09575b5050600101610cc4565b95612710610d36610d3d93610d226001969a5482611e6e565b9089526002885260058b8a20015490611806565b0490611850565b949089610cff565b5080541515610cfa565b82858751908152f35b85548c1684526001958601958d955093019201610cab565b83346108b057806003193601126108b057610d89611d82565b5f73ffffffffffffffffffffffffffffffffffffffff6001547fffffffffffffffffffffffff00000000000000000000000000000000000000008116600155167f8be0079c531659141344cd1fd0a4f28419497f9722a3daafe3b4186f6b6457e08280a380f35b5050346101aa57816003193601126101aa57602090516117708152f35b5050346101aa57816003193601126101aa5760209073ffffffffffffffffffffffffffffffffffffffff600854169051908152f35b83346108b05760206003193601126108b05773ffffffffffffffffffffffffffffffffffffffff610e71611728565b610e79611d82565b167fffffffffffffffffffffffff0000000000000000000000000000000000000000600754161760075580f35b9050346103645760206003193601126103645735916006548310156108b0575073ffffffffffffffffffffffffffffffffffffffff60209260065f527ff652222313e28459528d920b65115c16c04f3efc82aaedc97be59f3f377c0d3f0154169051908152f35b905034610364578160031936011261036457610f27611728565b9160243591610f346119ae565b82156111855773ffffffffffffffffffffffffffffffffffffffff841693848652600260205282862060ff8154161561115d57610f70826119e7565b600181015490610f8660028201928354906117cc565b8611611135573388526003602052848820875f52602052845f209060018201805480611093575b50805480610fbb8a82611850565b1061106b57610ff095949392600292610fd68b600394611850565b90550154910155610fe8868254611850565b905533611b57565b670de0b6b3a764000061100233611bb8565b106110445750611013823385611d1b565b519081527f312a5e5e1079f5dda4e95dbbd0b908b291fd5b992ef22073643ab691572c5b5260203392a36001815580f35b90517f3a23d825000000000000000000000000000000000000000000000000000000008152fd5b8688517f2c5211c6000000000000000000000000000000000000000000000000000000008152fd5b600383015460028501549081811061110d576110bb670de0b6b3a7640000926110c1926117cc565b83611806565b0490806110ce8382611850565b106110e557906110dd91611850565b81555f610fad565b8789517f2c5211c6000000000000000000000000000000000000000000000000000000008152fd5b888a517f2c5211c6000000000000000000000000000000000000000000000000000000008152fd5b8385517fbb55fd27000000000000000000000000000000000000000000000000000000008152fd5b8284517fb521771a000000000000000000000000000000000000000000000000000000008152fd5b90517f2c5211c6000000000000000000000000000000000000000000000000000000008152fd5b5050346101aa57816003193601126101aa576020906009549051908152f35b5050346101aa57816003193601126101aa576020905160c88152f35b9190503461077e57606060031936011261077e57611203611728565b9060243591604435801515810361077e5761121c6119ae565b83156113e65773ffffffffffffffffffffffffffffffffffffffff9485831695865f526002602052845f2060ff815416156113be5761125a856119e7565b6112668730338b611a71565b335f526003602052855f20885f526020526112be846003885f2061128b8b8254611850565b8155019060ff7fffffffffffffffffffffffffffffffffffffffffffffffffffffffffffffff0083541691151516179055565b600181016112cd888254611850565b90555460081c16803b1561077e5784517f40c10f190000000000000000000000000000000000000000000000000000000081523392810192835260208301879052915f91839182908490829060400103925af180156113b45761137b575b50907fdcbc1c05240f31ff3ad067ef1ee35ce4997762752e3a095284754544f4c709d7929161136b575b5080519280845260208401523392a36001815580f35b6113759033611aef565b5f611355565b7fdcbc1c05240f31ff3ad067ef1ee35ce4997762752e3a095284754544f4c709d793929196506113aa9061185d565b5f9590919261132b565b84513d5f823e3d90fd5b8286517fb521771a000000000000000000000000000000000000000000000000000000008152fd5b8483517f2c5211c6000000000000000000000000000000000000000000000000000000008152fd5b823461077e575f60031936011261077e57602090516101f48152f35b823461077e575f60031936011261077e5760209073ffffffffffffffffffffffffffffffffffffffff600754169051908152f35b90503461077e578160031936011261077e57611478611728565b91602435906114856119ae565b73ffffffffffffffffffffffffffffffffffffffff841693845f526002602052815f209060ff82541615611606576114bc906119e7565b335f526003602052815f20855f52602052815f20926001840194855480611569575b50508061156357508354925b845480851161155a575b5083946115066002949530338a611a71565b6115118682546117cc565b9055826003830154910155016115288382546117cc565b9055519081527f05f2eeda0e08e4b437f487c8d7d29b14537d15e3488170dc3de5dbdf8dac468460203392a360015f55005b935060026114f4565b926114ea565b60038401546002870154908181106115de576110bb670de0b6b3a764000092611591926117cc565b04918161159e8482611850565b106115b75750906115ae91611850565b855586806114de565b85517f2c5211c6000000000000000000000000000000000000000000000000000000008152fd5b8387517f2c5211c6000000000000000000000000000000000000000000000000000000008152fd5b8483517fb521771a000000000000000000000000000000000000000000000000000000008152fd5b823461077e578060031936011261077e57611647611728565b906024359173ffffffffffffffffffffffffffffffffffffffff8091165f526005602052815f20805484101561077e576020936116839161176e565b92905490519260031b1c168152f35b823461077e578060031936011261077e576116ab611728565b6024359273ffffffffffffffffffffffffffffffffffffffff8092165f52602052815f20805484101561077e576020936116839161176e565b823461077e57602060031936011261077e5760209073ffffffffffffffffffffffffffffffffffffffff611716611728565b165f52600282526101a3815f2061192d565b6004359073ffffffffffffffffffffffffffffffffffffffff8216820361077e57565b6024359073ffffffffffffffffffffffffffffffffffffffff8216820361077e57565b8054821015611783575f5260205f2001905f90565b7f4e487b71000000000000000000000000000000000000000000000000000000005f52603260045260245ffd5b3461077e575f60031936011261077e576020604051611f408152f35b919082039182116117d957565b7f4e487b71000000000000000000000000000000000000000000000000000000005f52601160045260245ffd5b818102929181159184041417156117d957565b8115611823570490565b7f4e487b71000000000000000000000000000000000000000000000000000000005f52601260045260245ffd5b919082018092116117d957565b67ffffffffffffffff811161187157604052565b7f4e487b71000000000000000000000000000000000000000000000000000000005f52604160045260245ffd5b90601f7fffffffffffffffffffffffffffffffffffffffffffffffffffffffffffffffe0910116810190811067ffffffffffffffff82111761187157604052565b805468010000000000000000811015611871576119019160018201815561176e565b73ffffffffffffffffffffffffffffffffffffffff9291928084549260031b9316831b921b1916179055565b61193690611de7565b611f4081116119615761019090808202918204036117d957612710900460c8018060c8116117d95790565b7fffffffffffffffffffffffffffffffffffffffffffffffffffffffffffffe0c081019081116117d95761177090808202918204036117d957612710610258910481018091116117d95790565b60025f54146119bd5760025f55565b60046040517f3ee5aeb5000000000000000000000000000000000000000000000000000000008152fd5b73ffffffffffffffffffffffffffffffffffffffff165f52600260205260405f206004810190611a188254426117cc565b8015611a6c576301e13380611a38611a6592611a338561192d565b611806565b0460036002840193845494611a556127109687610d368783611806565b90550192610d3684549283611806565b9055429055565b505050565b9290604051927f23b872dd00000000000000000000000000000000000000000000000000000000602085015273ffffffffffffffffffffffffffffffffffffffff809216602485015216604483015260648201526064815260a081019181831067ffffffffffffffff84111761187157611aed926040526121a1565b565b9073ffffffffffffffffffffffffffffffffffffffff8092165f52600460205260405f205f928154935b848110611b2c575050611aed92506118df565b81611b37828561176e565b9190548187169260031b1c1614611b5057600101611b19565b5050505050565b9073ffffffffffffffffffffffffffffffffffffffff8092165f52600560205260405f205f928154935b848110611b94575050611aed92506118df565b81611b9f828561176e565b9190548187169260031b1c1614611b5057600101611b81565b5f73ffffffffffffffffffffffffffffffffffffffff9081831691825f526020906004825260409560405f20906040518083868295549384815201905f52865f20925f5b88828210611d0357505050611c139250038361189e565b5f5b8251811015611c855783611c298285611dd3565b5116875f5260038087528a5f20825f52875260ff8b5f20918201541680611c7b575b611c5a575b5050600101611c15565b96611c6d611c7392600194995490611e6e565b90611850565b95905f611c50565b5080541515611c4b565b50965050505091611c9691506120cf565b908115611cdd57611f40908181029181830414901517156117d957612710900490670de0b6b3a7640000918281029281840414901517156117d957611cda91611819565b90565b50507fffffffffffffffffffffffffffffffffffffffffffffffffffffffffffffffff90565b85548916845260019586019588955093019201611bfc565b6040517fa9059cbb00000000000000000000000000000000000000000000000000000000602082015273ffffffffffffffffffffffffffffffffffffffff929092166024830152604480830193909352918152611aed91611d7d60648361189e565b6121a1565b73ffffffffffffffffffffffffffffffffffffffff600154163303611da357565b60246040517f118cdaa7000000000000000000000000000000000000000000000000000000008152336004820152fd5b80518210156117835760209160051b010190565b6001810154908115611e15576002015490612710918281029281840414901517156117d957611cda91611819565b50505f90565b60ff7fffffffffffffffffffffffffffffffffffffffffffffffffffffffffffffffee9116019060ff82116117d957565b60ff166012039060ff82116117d957565b60ff16604d81116117d957600a0a90565b73ffffffffffffffffffffffffffffffffffffffff918260075416928315611f2557611e998361229c565b829060ff81166012811015611f8e575060209350602491610853611ebf611ec493611e4c565b611e5d565b935b60405195869384927f41976e090000000000000000000000000000000000000000000000000000000084521660048301525afa918215611f83575f92611f4f575b508115611f2557670de0b6b3a764000091611f2191611806565b0490565b60046040517f9db8d5b1000000000000000000000000000000000000000000000000000000008152fd5b9091506020813d602011611f7b575b81611f6b6020938361189e565b8101031261077e5751905f611f07565b3d9150611f5e565b6040513d5f823e3d90fd5b601210611fa3575b5050602460209293611ec6565b60209350602491611fb9611ebf611fbf93611e1b565b90611819565b92611f96565b9073ffffffffffffffffffffffffffffffffffffffff908160075416918215611f25576020906024604051809581937f41976e09000000000000000000000000000000000000000000000000000000008352881660048301525afa918215611f83575f9261209b575b508115611f2557670de0b6b3a7640000908181029181830414901517156117d9576120629161205c91611819565b9161229c565b60ff81166012811015612080575090611fb9611ebf611cda93611e4c565b60121061208b575090565b90610853611ebf611cda93611e1b565b9091506020813d6020116120c7575b816120b76020938361189e565b8101031261077e5751905f61202e565b3d91506120aa565b905f9173ffffffffffffffffffffffffffffffffffffffff80911690815f5260206005815260409160405f206040518082858294549384815201905f52855f20925f5b87828210612189575050506121299250038261189e565b5f5b8151811015612181578261213f8284611dd3565b5116865f5260038552855f20815f5285526001865f2001549081612168575b505060010161212b565b98611c6d612179926001949b611e6e565b97905f61215e565b505050505050565b85548816845260019586019587955093019201612112565b5f73ffffffffffffffffffffffffffffffffffffffff8192169260208151910182855af13d15612290573d67ffffffffffffffff811161187157612225916040519161221560207fffffffffffffffffffffffffffffffffffffffffffffffffffffffffffffffe0601f840116018461189e565b82523d5f602084013e5b83612334565b805190811515918261226c575b505061223b5750565b602490604051907f5274afe70000000000000000000000000000000000000000000000000000000082526004820152fd5b819250906020918101031261077e576020015180159081150361077e575f80612232565b6122259060609061221f565b602073ffffffffffffffffffffffffffffffffffffffff916004604051809481937f313ce567000000000000000000000000000000000000000000000000000000008352165afa5f91816122f6575b50611cda5750601290565b9091506020813d60201161232c575b816123126020938361189e565b8101031261077e575160ff8116810361077e57905f6122eb565b3d9150612305565b90612373575080511561234957805190602001fd5b60046040517f1425ea42000000000000000000000000000000000000000000000000000000008152fd5b815115806123cb575b612384575090565b60249073ffffffffffffffffffffffffffffffffffffffff604051917f9996b315000000000000000000000000000000000000000000000000000000008352166004820152fd5b50803b1561237c56fea2646970667358221220473d2dee4bac554549f89a8cb0c024dc95521e4730c0eb3d2cf759eca18d85e564736f6c63430008190033","linkReferences":{}},"methodIdentifiers":{"BASE_RATE()":"41910f90","LIQUIDATION_BONUS()":"3574d4c4","LIQUIDATION_THRESHOLD()":"90a8ae9b","MIN_HEALTH_FACTOR()":"b5627e42","OPTIMAL_UTILIZATION()":"cf762dfa","PRECISION()":"aaf5eb68","SECONDS_PER_YEAR()":"e6a69ab8","SLOPE1()":"f93c6695","SLOPE2()":"6f4d8ada","allMarkets(uint256)":"52d84d1e","borrow(address,uint256)":"4b8a3529","createMarket(address,address,uint256)":"82fca8a1","deposit(address,uint256,bool)":"3edd1128","flashLoanFee()":"4847cdc8","getBorrowAPR(address)":"00e0f7a0","getHealthFactor(address)":"fe6bcd7c","getSupplyAPR(address)":"99def41c","getUserBorrowValue(address)":"b3b9be28","getUserCollateralValue(address)":"75417da6","liquidate(address,address,address,uint256)":"aab3f868","markets(address)":"8e8f294b","owner()":"8da5cb5b","priceOracle()":"2630c12f","renounceOwnership()":"715018a6","repay(address,uint256)":"22867d78","rewardsController()":"6bb65f53","setPriceOracle(address)":"530e784f","transferOwnership(address)":"f2fde38b","userBorrowedTokens(address,uint256)":"1e273bf4","userCollateralTokens(address,uint256)":"1c6e0bb8","userMarkets(address,address)":"9bc21ab7","withdraw(address,uint256)":"f3fef3a3"},"id":166}