{"abi":[{"type":"constructor","inputs":[{"name":"name","type":"string","internalType":"string"},{"name":"symbol","type":"string","internalType":"string"},{"name":"totalSupply","type":"uint256","internalType":"uint256"},{"name":"_creator","type":"address","internalType":"address"},{"name":"_buyTax","type":"uint256","internalType":"uint256"},{"name":"_sellTax","type":"uint256","internalType":"uint256"},{"name":"_taxRecipient","type":"address","internalType":"address"},{"name":"_maxTx","type":"uint256","internalType":"uint256"},{"name":"_maxWallet","type":"uint256","internalType":"uint256"}],"stateMutability":"nonpayable"},{"type":"function","name":"allowance","inputs":[{"name":"owner","type":"address","internalType":"address"},{"name":"spender","type":"address","internalType":"address"}],"outputs":[{"name":"","type":"uint256","internalType":"uint256"}],"stateMutability":"view"},{"type":"function","name":"approve","inputs":[{"name":"spender","type":"address","internalType":"address"},{"name":"value","type":"uint256","internalType":"uint256"}],"outputs":[{"name":"","type":"bool","internalType":"bool"}],"stateMutability":"nonpayable"},{"type":"function","name":"balanceOf","inputs":[{"name":"account","type":"address","internalType":"address"}],"outputs":[{"name":"","type":"uint256","internalType":"uint256"}],"stateMutability":"view"},{"type":"function","name":"buyTax","inputs":[],"outputs":[{"name":"","type":"uint256","internalType":"uint256"}],"stateMutability":"view"},{"type":"function","name":"creator","inputs":[],"outputs":[{"name":"","type":"address","internalType":"address"}],"stateMutability":"view"},{"type":"function","name":"decimals","inputs":[],"outputs":[{"name":"","type":"uint8","internalType":"uint8"}],"stateMutability":"view"},{"type":"function","name":"enableTrading","inputs":[],"outputs":[],"stateMutability":"nonpayable"},{"type":"function","name":"excludeFromFee","inputs":[{"name":"account","type":"address","internalType":"address"},{"name":"excluded","type":"bool","internalType":"bool"}],"outputs":[],"stateMutability":"nonpayable"},{"type":"function","name":"excludeFromLimit","inputs":[{"name":"account","type":"address","internalType":"address"},{"name":"excluded","type":"bool","internalType":"bool"}],"outputs":[],"stateMutability":"nonpayable"},{"type":"function","name":"isExcludedFromFee","inputs":[{"name":"","type":"address","internalType":"address"}],"outputs":[{"name":"","type":"bool","internalType":"bool"}],"stateMutability":"view"},{"type":"function","name":"isExcludedFromLimit","inputs":[{"name":"","type":"address","internalType":"address"}],"outputs":[{"name":"","type":"bool","internalType":"bool"}],"stateMutability":"view"},{"type":"function","name":"maxTx","inputs":[],"outputs":[{"name":"","type":"uint256","internalType":"uint256"}],"stateMutability":"view"},{"type":"function","name":"maxWallet","inputs":[],"outputs":[{"name":"","type":"uint256","internalType":"uint256"}],"stateMutability":"view"},{"type":"function","name":"name","inputs":[],"outputs":[{"name":"","type":"string","internalType":"string"}],"stateMutability":"view"},{"type":"function","name":"owner","inputs":[],"outputs":[{"name":"","type":"address","internalType":"address"}],"stateMutability":"view"},{"type":"function","name":"pairAddress","inputs":[],"outputs":[{"name":"","type":"address","internalType":"address"}],"stateMutability":"view"},{"type":"function","name":"renounceOwnership","inputs":[],"outputs":[],"stateMutability":"nonpayable"},{"type":"function","name":"sellTax","inputs":[],"outputs":[{"name":"","type":"uint256","internalType":"uint256"}],"stateMutability":"view"},{"type":"function","name":"setPairAddress","inputs":[{"name":"_pairAddress","type":"address","internalType":"address"}],"outputs":[],"stateMutability":"nonpayable"},{"type":"function","name":"symbol","inputs":[],"outputs":[{"name":"","type":"string","internalType":"string"}],"stateMutability":"view"},{"type":"function","name":"taxRecipient","inputs":[],"outputs":[{"name":"","type":"address","internalType":"address"}],"stateMutability":"view"},{"type":"function","name":"totalSupply","inputs":[],"outputs":[{"name":"","type":"uint256","internalType":"uint256"}],"stateMutability":"view"},{"type":"function","name":"tradingEnabled","inputs":[],"outputs":[{"name":"","type":"bool","internalType":"bool"}],"stateMutability":"view"},{"type":"function","name":"tradingEnabledTime","inputs":[],"outputs":[{"name":"","type":"uint256","internalType":"uint256"}],"stateMutability":"view"},{"type":"function","name":"transfer","inputs":[{"name":"to","type":"address","internalType":"address"},{"name":"value","type":"uint256","internalType":"uint256"}],"outputs":[{"name":"","type":"bool","internalType":"bool"}],"stateMutability":"nonpayable"},{"type":"function","name":"transferFrom","inputs":[{"name":"from","type":"address","internalType":"address"},{"name":"to","type":"address","internalType":"address"},{"name":"value","type":"uint256","internalType":"uint256"}],"outputs":[{"name":"","type":"bool","internalType":"bool"}],"stateMutability":"nonpayable"},{"type":"function","name":"transferOwnership","inputs":[{"name":"newOwner","type":"address","internalType":"address"}],"outputs":[],"stateMutability":"nonpayable"},{"type":"function","name":"updateTaxes","inputs":[{"name":"_buyTax","type":"uint256","internalType":"uint256"},{"name":"_sellTax","type":"uint256","internalType":"uint256"}],"outputs":[],"stateMutability":"nonpayable"},{"type":"event","name":"Approval","inputs":[{"name":"owner","type":"address","indexed":true,"internalType":"address"},{"name":"spender","type":"address","indexed":true,"internalType":"address"},{"name":"value","type":"uint256","indexed":false,"internalType":"uint256"}],"anonymous":false},{"type":"event","name":"OwnershipTransferred","inputs":[{"name":"previousOwner","type":"address","indexed":true,"internalType":"address"},{"name":"newOwner","type":"address","indexed":true,"internalType":"address"}],"anonymous":false},{"type":"event","name":"TaxUpdated","inputs":[{"name":"buyTax","type":"uint256","indexed":false,"internalType":"uint256"},{"name":"sellTax","type":"uint256","indexed":false,"internalType":"uint256"}],"anonymous":false},{"type":"event","name":"TradingEnabled","inputs":[{"name":"timestamp","type":"uint256","indexed":false,"internalType":"uint256"}],"anonymous":false},{"type":"event","name":"Transfer","inputs":[{"name":"from","type":"address","indexed":true,"internalType":"address"},{"name":"to","type":"address","indexed":true,"internalType":"address"},{"name":"value","type":"uint256","indexed":false,"internalType":"uint256"}],"anonymous":false},{"type":"error","name":"ERC20InsufficientAllowance","inputs":[{"name":"spender","type":"address","internalType":"address"},{"name":"allowance","type":"uint256","internalType":"uint256"},{"name":"needed","type":"uint256","internalType":"uint256"}]},{"type":"error","name":"ERC20InsufficientBalance","inputs":[{"name":"sender","type":"address","internalType":"address"},{"name":"balance","type":"uint256","internalType":"uint256"},{"name":"needed","type":"uint256","internalType":"uint256"}]},{"type":"error","name":"ERC20InvalidApprover","inputs":[{"name":"approver","type":"address","internalType":"address"}]},{"type":"error","name":"ERC20InvalidReceiver","inputs":[{"name":"receiver","type":"address","internalType":"address"}]},{"type":"error","name":"ERC20InvalidSender","inputs":[{"name":"sender","type":"address","internalType":"address"}]},{"type":"error","name":"ERC20InvalidSpender","inputs":[{"name":"spender","type":"address","internalType":"address"}]},{"type":"error","name":"ExceedsMaxTransaction","inputs":[]},{"type":"error","name":"ExceedsMaxWallet","inputs":[]},{"type":"error","name":"InvalidTaxRate","inputs":[]},{"type":"error","name":"OwnableInvalidOwner","inputs":[{"name":"owner","type":"address","internalType":"address"}]},{"type":"error","name":"OwnableUnauthorizedAccount","inputs":[{"name":"account","type":"address","internalType":"address"}]},{"type":"error","name":"TradingNotEnabled","inputs":[]}],"bytecode":{"object":"0x60a06040523461061c576115598038038061001981610620565b9283398101906101208183031261061c5780516001600160401b03919082811161061c5783610049918301610645565b9260208201519083821161061c57610062918301610645565b60408201519361007460608401610696565b92608081015160a08201519561008c60c08401610696565b9461010060e0850151940151948051908382116105015760035490600182811c92168015610612575b60208310146104e35781601f8493116105a4575b50602090601f8311600114610520575f92610515575b50508160011b915f199060031b1c1916176003555b80519182116105015760045490600182811c921680156104f7575b60208310146104e35781601f849311610478575b50602090601f83116001146103f4575f926103e9575b50508160011b915f199060031b1c1916176004555b6001600160a01b03958587169485156103d157600580546001600160a01b031980821689179092559093899391889085167f8be0079c531659141344cd1fd0a4f28419497f9722a3daafe3b4186f6b6457e05f80a38860805260085560095516906006541617600655600a55600b55805f52600e60205260405f2060ff1990600182825416179055305f5260405f20600182825416179055815f52600f60205260405f20600182825416179055305f52600160405f2091825416179055839260ff600c541615806103c4575b806103b6575b6103a4575f8052600f6020527ff4803e074bd026baaf6ed2e288c9515f68c72fb7216eebdd7cae1718a53ec3755460ff161580610392575b610333575b5f915f8052600e60205260ff60405f2054161580610321575b6102df575b50816102a4575b61028c84846106ca565b604051610e219081610738823960805181610a0e0152f35b81929350906102b691600654166106ca565b82039182116102cb5761028c91905f80610282565b634e487b7160e01b5f52601160045260245ffd5b60075482169081610305575050905060646102fc600854866106b7565b04905b5f61027b565b036102ff579050606461031a600954866106b7565b04906102ff565b50805f5260ff60405f20541615610276565b600a54851161038057806007541682141580610361575b1561025d57604051630ebe2dbd60e41b8152600490fd5b50815f525f6020526103778560405f20546106aa565b600b541061034a565b60405163864c7e9b60e01b8152600490fd5b50815f5260ff60405f20541615610258565b6040516312f1f92360e01b8152600490fd5b508060055416821415610220565b508060055416151561021a565b604051631e4fbdf760e01b81525f6004820152602490fd5b015190505f80610139565b60045f9081527f8a35acfbc15ff81a39ae7d344fd709f28e8600b4aa8c65c6b64bfe7fe36bd19b9350601f198516905b8181106104605750908460019594939210610448575b505050811b0160045561014e565b01515f1960f88460031b161c191690555f808061043a565b92936020600181928786015181550195019301610424565b60045f529091507f8a35acfbc15ff81a39ae7d344fd709f28e8600b4aa8c65c6b64bfe7fe36bd19b601f840160051c8101602085106104dc575b90849392915b601f830160051c820181106104ce575050610123565b5f81558594506001016104b8565b50806104b2565b634e487b7160e01b5f52602260045260245ffd5b91607f169161010f565b634e487b7160e01b5f52604160045260245ffd5b015190505f806100df565b60035f9081527fc2575a0e9e593c00f959f8c92f12db2869c3395a3b0502d05e2516446f71f85b9350601f198516905b81811061058c5750908460019594939210610574575b505050811b016003556100f4565b01515f1960f88460031b161c191690555f8080610566565b92936020600181928786015181550195019301610550565b60035f529091507fc2575a0e9e593c00f959f8c92f12db2869c3395a3b0502d05e2516446f71f85b601f840160051c81019160208510610608575b90601f859493920160051c01905b8181106105fa57506100c9565b5f81558493506001016105ed565b90915081906105df565b91607f16916100b5565b5f80fd5b6040519190601f01601f191682016001600160401b0381118382101761050157604052565b81601f8201121561061c578051906001600160401b03821161050157610674601f8301601f1916602001610620565b928284526020838301011161061c57815f9260208093018386015e8301015290565b51906001600160a01b038216820361061c57565b919082018092116102cb57565b818102929181159184041417156102cb57565b7fddf252ad1be2c89b69c2b068fc378daa952ba7f163c4a11628f55a4df523b3ef60205f926106fb856002546106aa565b6002556001600160a01b031693841584146107225780600254036002555b604051908152a3565b8484528382526040842081815401905561071956fe6080604090808252600480361015610015575f80fd5b5f3560e01c91826302d05d3f146109fc5750816306fdde0314610921578163095ea7b3146108795781631006ee0c146107fb57816318160ddd146107dd57816323b872dd146106eb578163313ce567146106d05781634ada218b146106ad5781634f7041a51461068f5781635342acb4146106535781636fd8fb7a1461063557816370a08231146105ff578163715018a6146105a4578163737ea06e1461057c5781637437681e1461055e57816381905bf81461051f5781638a8c523c146104ca5781638da5cb5b146104a257816395d89b4114610383578163a22d483214610340578163a8b0898214610318578163a9059cbb146102e8578163cc1776d3146102ca578163d94160e01461028e578163dd62ed3e14610245578163df8408fe14610204578163f2fde38b14610175575063f8b45b0514610154575f80fd5b34610171575f36600319011261017157602090600b549051908152f35b5f80fd5b90503461017157602036600319011261017157610190610a67565b90610199610ac2565b6001600160a01b039182169283156101ee575050600554826bffffffffffffffffffffffff60a01b821617600555167f8be0079c531659141344cd1fd0a4f28419497f9722a3daafe3b4186f6b6457e05f80a3005b905f6024925191631e4fbdf760e01b8352820152fd5b8234610171576102439061021736610a93565b9190610221610ac2565b60018060a01b03165f52600e6020525f209060ff801983541691151516179055565b005b8234610171578060031936011261017157602090610261610a67565b610269610a7d565b9060018060a01b038091165f5260018452825f2091165f528252805f20549051908152f35b8234610171576020366003190112610171576020906001600160a01b036102b3610a67565b165f52600f825260ff815f20541690519015158152f35b8234610171575f366003190112610171576020906009549051908152f35b8234610171578060031936011261017157602090610311610307610a67565b6024359033610aee565b5160018152f35b8234610171575f3660031901126101715760075490516001600160a01b039091168152602090f35b3461017157602036600319011261017157610359610a67565b610361610ac2565b600780546001600160a01b0319166001600160a01b0392909216919091179055005b8234610171575f366003190112610171578051905f835460018160011c9060018316928315610498575b6020938484108114610485578388529081156104695750600114610415575b505050829003601f01601f191682019267ffffffffffffffff84118385101761040257508291826103fe925282610a3d565b0390f35b604190634e487b7160e01b5f525260245ffd5b5f878152929350837f8a35acfbc15ff81a39ae7d344fd709f28e8600b4aa8c65c6b64bfe7fe36bd19b5b83851061045557505050508301018480806103cc565b80548886018301529301928490820161043f565b60ff1916878501525050151560051b84010190508480806103cc565b602289634e487b7160e01b5f525260245ffd5b91607f16916103ad565b8234610171575f3660031901126101715760055490516001600160a01b039091168152602090f35b8234610171575f3660031901126101715760207fb3da2db3dfc3778f99852546c6e9ab39ec253f9de7b0847afec61bd27878e92391610507610ac2565b600160ff19600c541617600c5542600d5551428152a1005b8234610171576102439061053236610a93565b919061053c610ac2565b60018060a01b03165f52600f6020525f209060ff801983541691151516179055565b8234610171575f36600319011261017157602090600a549051908152f35b8234610171575f3660031901126101715760065490516001600160a01b039091168152602090f35b34610171575f366003190112610171576105bc610ac2565b600580546001600160a01b031981169091555f906001600160a01b03167f8be0079c531659141344cd1fd0a4f28419497f9722a3daafe3b4186f6b6457e08280a3005b8234610171576020366003190112610171576020906001600160a01b03610624610a67565b165f525f8252805f20549051908152f35b8234610171575f36600319011261017157602090600d549051908152f35b8234610171576020366003190112610171576020906001600160a01b03610678610a67565b165f52600e825260ff815f20541690519015158152f35b8234610171575f366003190112610171576020906008549051908152f35b8234610171575f3660031901126101715760209060ff600c541690519015158152f35b8234610171575f366003190112610171576020905160128152f35b90503461017157606036600319011261017157610706610a67565b61070e610a7d565b906044359260018060a01b038216805f526001602052855f20335f52602052855f2054915f198303610749575b602087610311888888610aee565b8583106107b157811561079b57331561078557505f9081526001602090815286822033835281529086902091859003909155829061031161073b565b6024905f885191634a1406b160e11b8352820152fd5b6024905f88519163e602df0560e01b8352820152fd5b8651637dc7a0d960e11b8152339181019182526020820193909352604081018690528291506060010390fd5b8234610171575f366003190112610171576020906002549051908152f35b82346101715780600319360112610171578135602435610819610ac2565b60198211801561086f575b610860577fb841faf0d1b32571f4ef966a2f35e3ae51f3cdda45318c3da5570a5b2ad856059350816008558060095582519182526020820152a1005b5050516367e3b83560e01b8152fd5b5060198111610824565b8234610171578060031936011261017157610892610a67565b60243590331561090b576001600160a01b03169081156108f55760209350335f5260018452825f20825f52845280835f205582519081527f8c5be1e5ebec7d5bd14f71427d1e84f3dd0314c0f7b2291e5b200ac8c7c3b925843392a35160018152f35b8251634a1406b160e11b81525f81860152602490fd5b825163e602df0560e01b81525f81860152602490fd5b8234610171575f366003190112610171578051905f60035460018160011c90600183169283156109f2575b602093848410811461048557838852908115610469575060011461099c57505050829003601f01601f191682019267ffffffffffffffff84118385101761040257508291826103fe925282610a3d565b60035f908152929350837fc2575a0e9e593c00f959f8c92f12db2869c3395a3b0502d05e2516446f71f85b5b8385106109de57505050508301018480806103cc565b8054888601830152930192849082016109c8565b91607f169161094c565b34610171575f366003190112610171577f00000000000000000000000000000000000000000000000000000000000000006001600160a01b03168152602090f35b602060409281835280519182918282860152018484015e5f828201840152601f01601f1916010190565b600435906001600160a01b038216820361017157565b602435906001600160a01b038216820361017157565b6040906003190112610171576004356001600160a01b0381168103610171579060243580151581036101715790565b6005546001600160a01b03163303610ad657565b60405163118cdaa760e01b8152336004820152602490fd5b6001600160a01b038082169291908315610cbd57808316908115610ca557859460ff600c54161580610c97575b80610c89575b610c7757805f52600f60205260409260ff845f2054161580610c66575b610c0a575b5f93825f52600e60205260ff815f205416159081610bf8575b50610bb4575b505081610b78575b5050610b769350610cf5565b565b8192945090610b8b916006541685610cf5565b8303928311610ba057610b7692915f80610b6a565b634e487b7160e01b5f52601160045260245ffd5b6007548316918203610bdc57505090506064610bd260085487610ce2565b04905b5f80610b62565b03610bd55790506064610bf160095487610ce2565b0490610bd5565b60ff9150825f525f205416155f610b5c565b600a548811610c5557826007541681141580610c37575b15610b43578351630ebe2dbd60e41b8152600490fd5b50805f525f602052610c4c88855f2054610cd5565b600b5410610c21565b835163864c7e9b60e01b8152600490fd5b50805f5260ff845f20541615610b3e565b6040516312f1f92360e01b8152600490fd5b508160055416831415610b21565b508160055416811415610b1b565b60405163ec442f0560e01b81525f6004820152602490fd5b604051634b637e8f60e11b81525f6004820152602490fd5b91908201809211610ba057565b81810292918115918404141715610ba057565b6001600160a01b0380821692909183610d6c57507fddf252ad1be2c89b69c2b068fc378daa952ba7f163c4a11628f55a4df523b3ef91602091610d3a86600254610cd5565b6002555b169384610d575780600254036002555b604051908152a3565b845f525f825260405f20818154019055610d4e565b835f525f60205260405f205490858210610db9575091602091857fddf252ad1be2c89b69c2b068fc378daa952ba7f163c4a11628f55a4df523b3ef94865f525f85520360405f2055610d3e565b60405163391434e360e21b81526001600160a01b03919091166004820152602481019190915260448101859052606490fdfea26469706673582212205bb36ae8bda140337ee4f87cf2baaafd445619580c184f047f6690bd00ceff5f64736f6c63430008190033","linkReferences":{}},"methodIdentifiers":{"allowance(address,address)":"dd62ed3e","approve(address,uint256)":"095ea7b3","balanceOf(address)":"70a08231","buyTax()":"4f7041a5","creator()":"02d05d3f","decimals()":"313ce567","enableTrading()":"8a8c523c","excludeFromFee(address,bool)":"df8408fe","excludeFromLimit(address,bool)":"81905bf8","isExcludedFromFee(address)":"5342acb4","isExcludedFromLimit(address)":"d94160e0","maxTx()":"7437681e","maxWallet()":"f8b45b05","name()":"06fdde03","owner()":"8da5cb5b","pairAddress()":"a8b08982","renounceOwnership()":"715018a6","sellTax()":"cc1776d3","setPairAddress(address)":"a22d4832","symbol()":"95d89b41","taxRecipient()":"737ea06e","totalSupply()":"18160ddd","tradingEnabled()":"4ada218b","tradingEnabledTime()":"6fd8fb7a","transfer(address,uint256)":"a9059cbb","transferFrom(address,address,uint256)":"23b872dd","transferOwnership(address)":"f2fde38b","updateTaxes(uint256,uint256)":"1006ee0c"},"id":159}