{"abi":[{"type":"constructor","inputs":[{"name":"name","type":"string","internalType":"string"},{"name":"symbol","type":"string","internalType":"string"},{"name":"totalSupply","type":"uint256","internalType":"uint256"},{"name":"_creator","type":"address","internalType":"address"},{"name":"_buyTax","type":"uint256","internalType":"uint256"},{"name":"_sellTax","type":"uint256","internalType":"uint256"},{"name":"_taxRecipient","type":"address","internalType":"address"},{"name":"_maxTx","type":"uint256","internalType":"uint256"},{"name":"_maxWallet","type":"uint256","internalType":"uint256"}],"stateMutability":"nonpayable"},{"type":"function","name":"allowance","inputs":[{"name":"owner","type":"address","internalType":"address"},{"name":"spender","type":"address","internalType":"address"}],"outputs":[{"name":"","type":"uint256","internalType":"uint256"}],"stateMutability":"view"},{"type":"function","name":"approve","inputs":[{"name":"spender","type":"address","internalType":"address"},{"name":"value","type":"uint256","internalType":"uint256"}],"outputs":[{"name":"","type":"bool","internalType":"bool"}],"stateMutability":"nonpayable"},{"type":"function","name":"balanceOf","inputs":[{"name":"account","type":"address","internalType":"address"}],"outputs":[{"name":"","type":"uint256","internalType":"uint256"}],"stateMutability":"view"},{"type":"function","name":"buyTax","inputs":[],"outputs":[{"name":"","type":"uint256","internalType":"uint256"}],"stateMutability":"view"},{"type":"function","name":"creator","inputs":[],"outputs":[{"name":"","type":"address","internalType":"address"}],"stateMutability":"view"},{"type":"function","name":"decimals","inputs":[],"outputs":[{"name":"","type":"uint8","internalType":"uint8"}],"stateMutability":"view"},{"type":"function","name":"enableTrading","inputs":[],"outputs":[],"stateMutability":"nonpayable"},{"type":"function","name":"excludeFromFee","inputs":[{"name":"account","type":"address","internalType":"address"},{"name":"excluded","type":"bool","internalType":"bool"}],"outputs":[],"stateMutability":"nonpayable"},{"type":"function","name":"excludeFromLimit","inputs":[{"name":"account","type":"address","internalType":"address"},{"name":"excluded","type":"bool","internalType":"bool"}],"outputs":[],"stateMutability":"nonpayable"},{"type":"function","name":"isExcludedFromFee","inputs":[{"name":"","type":"address","internalType":"address"}],"outputs":[{"name":"","type":"bool","internalType":"bool"}],"stateMutability":"view"},{"type":"function","name":"isExcludedFromLimit","inputs":[{"name":"","type":"address","internalType":"address"}],"outputs":[{"name":"","type":"bool","internalType":"bool"}],"stateMutability":"view"},{"type":"function","name":"maxTx","inputs":[],"outputs":[{"name":"","type":"uint256","internalType":"uint256"}],"stateMutability":"view"},{"type":"function","name":"maxWallet","inputs":[],"outputs":[{"name":"","type":"uint256","internalType":"uint256"}],"stateMutability":"view"},{"type":"function","name":"name","inputs":[],"outputs":[{"name":"","type":"string","internalType":"string"}],"stateMutability":"view"},{"type":"function","name":"owner","inputs":[],"outputs":[{"name":"","type":"address","internalType":"address"}],"stateMutability":"view"},{"type":"function","name":"pairAddress","inputs":[],"outputs":[{"name":"","type":"address","internalType":"address"}],"stateMutability":"view"},{"type":"function","name":"renounceOwnership","inputs":[],"outputs":[],"stateMutability":"nonpayable"},{"type":"function","name":"sellTax","inputs":[],"outputs":[{"name":"","type":"uint256","internalType":"uint256"}],"stateMutability":"view"},{"type":"function","name":"setPairAddress","inputs":[{"name":"_pairAddress","type":"address","internalType":"address"}],"outputs":[],"stateMutability":"nonpayable"},{"type":"function","name":"symbol","inputs":[],"outputs":[{"name":"","type":"string","internalType":"string"}],"stateMutability":"view"},{"type":"function","name":"taxRecipient","inputs":[],"outputs":[{"name":"","type":"address","internalType":"address"}],"stateMutability":"view"},{"type":"function","name":"totalSupply","inputs":[],"outputs":[{"name":"","type":"uint256","internalType":"uint256"}],"stateMutability":"view"},{"type":"function","name":"tradingEnabled","inputs":[],"outputs":[{"name":"","type":"bool","internalType":"bool"}],"stateMutability":"view"},{"type":"function","name":"tradingEnabledTime","inputs":[],"outputs":[{"name":"","type":"uint256","internalType":"uint256"}],"stateMutability":"view"},{"type":"function","name":"transfer","inputs":[{"name":"to","type":"address","internalType":"address"},{"name":"value","type":"uint256","internalType":"uint256"}],"outputs":[{"name":"","type":"bool","internalType":"bool"}],"stateMutability":"nonpayable"},{"type":"function","name":"transferFrom","inputs":[{"name":"from","type":"address","internalType":"address"},{"name":"to","type":"address","internalType":"address"},{"name":"value","type":"uint256","internalType":"uint256"}],"outputs":[{"name":"","type":"bool","internalType":"bool"}],"stateMutability":"nonpayable"},{"type":"function","name":"transferOwnership","inputs":[{"name":"newOwner","type":"address","internalType":"address"}],"outputs":[],"stateMutability":"nonpayable"},{"type":"function","name":"updateTaxes","inputs":[{"name":"_buyTax","type":"uint256","internalType":"uint256"},{"name":"_sellTax","type":"uint256","internalType":"uint256"}],"outputs":[],"stateMutability":"nonpayable"},{"type":"event","name":"Approval","inputs":[{"name":"owner","type":"address","indexed":true,"internalType":"address"},{"name":"spender","type":"address","indexed":true,"internalType":"address"},{"name":"value","type":"uint256","indexed":false,"internalType":"uint256"}],"anonymous":false},{"type":"event","name":"OwnershipTransferred","inputs":[{"name":"previousOwner","type":"address","indexed":true,"internalType":"address"},{"name":"newOwner","type":"address","indexed":true,"internalType":"address"}],"anonymous":false},{"type":"event","name":"TaxUpdated","inputs":[{"name":"buyTax","type":"uint256","indexed":false,"internalType":"uint256"},{"name":"sellTax","type":"uint256","indexed":false,"internalType":"uint256"}],"anonymous":false},{"type":"event","name":"TradingEnabled","inputs":[{"name":"timestamp","type":"uint256","indexed":false,"internalType":"uint256"}],"anonymous":false},{"type":"event","name":"Transfer","inputs":[{"name":"from","type":"address","indexed":true,"internalType":"address"},{"name":"to","type":"address","indexed":true,"internalType":"address"},{"name":"value","type":"uint256","indexed":false,"internalType":"uint256"}],"anonymous":false},{"type":"error","name":"ERC20InsufficientAllowance","inputs":[{"name":"spender","type":"address","internalType":"address"},{"name":"allowance","type":"uint256","internalType":"uint256"},{"name":"needed","type":"uint256","internalType":"uint256"}]},{"type":"error","name":"ERC20InsufficientBalance","inputs":[{"name":"sender","type":"address","internalType":"address"},{"name":"balance","type":"uint256","internalType":"uint256"},{"name":"needed","type":"uint256","internalType":"uint256"}]},{"type":"error","name":"ERC20InvalidApprover","inputs":[{"name":"approver","type":"address","internalType":"address"}]},{"type":"error","name":"ERC20InvalidReceiver","inputs":[{"name":"receiver","type":"address","internalType":"address"}]},{"type":"error","name":"ERC20InvalidSender","inputs":[{"name":"sender","type":"address","internalType":"address"}]},{"type":"error","name":"ERC20InvalidSpender","inputs":[{"name":"spender","type":"address","internalType":"address"}]},{"type":"error","name":"ExceedsMaxTransaction","inputs":[]},{"type":"error","name":"ExceedsMaxWallet","inputs":[]},{"type":"error","name":"InvalidTaxRate","inputs":[]},{"type":"error","name":"OwnableInvalidOwner","inputs":[{"name":"owner","type":"address","internalType":"address"}]},{"type":"error","name":"OwnableUnauthorizedAccount","inputs":[{"name":"account","type":"address","internalType":"address"}]},{"type":"error","name":"TradingNotEnabled","inputs":[]}],"bytecode":{"object":"0x60a06040523461061c576119c48038038061001981610620565b9283398101906101208183031261061c5780516001600160401b03919082811161061c5783610049918301610645565b9260208201519083821161061c57610062918301610645565b60408201519361007460608401610696565b92608081015160a08201519561008c60c08401610696565b9461010060e0850151940151948051908382116105015760035490600182811c92168015610612575b60208310146104e35781601f8493116105a4575b50602090601f8311600114610520575f92610515575b50508160011b915f199060031b1c1916176003555b80519182116105015760045490600182811c921680156104f7575b60208310146104e35781601f849311610478575b50602090601f83116001146103f4575f926103e9575b50508160011b915f199060031b1c1916176004555b6001600160a01b03958587169485156103d157600580546001600160a01b031980821689179092559093899391889085167f8be0079c531659141344cd1fd0a4f28419497f9722a3daafe3b4186f6b6457e05f80a38860805260085560095516906006541617600655600a55600b55805f52600e60205260405f2060ff1990600182825416179055305f5260405f20600182825416179055815f52600f60205260405f20600182825416179055305f52600160405f2091825416179055839260ff600c541615806103c4575b806103b6575b6103a4575f8052600f6020527ff4803e074bd026baaf6ed2e288c9515f68c72fb7216eebdd7cae1718a53ec3755460ff161580610392575b610333575b5f915f8052600e60205260ff60405f2054161580610321575b6102df575b50816102a4575b61028c84846106ca565b60405161128c9081610738823960805181610d490152f35b81929350906102b691600654166106ca565b82039182116102cb5761028c91905f80610282565b634e487b7160e01b5f52601160045260245ffd5b60075482169081610305575050905060646102fc600854866106b7565b04905b5f61027b565b036102ff579050606461031a600954866106b7565b04906102ff565b50805f5260ff60405f20541615610276565b600a54851161038057806007541682141580610361575b1561025d57604051630ebe2dbd60e41b8152600490fd5b50815f525f6020526103778560405f20546106aa565b600b541061034a565b60405163864c7e9b60e01b8152600490fd5b50815f5260ff60405f20541615610258565b6040516312f1f92360e01b8152600490fd5b508060055416821415610220565b508060055416151561021a565b604051631e4fbdf760e01b81525f6004820152602490fd5b015190505f80610139565b60045f9081527f8a35acfbc15ff81a39ae7d344fd709f28e8600b4aa8c65c6b64bfe7fe36bd19b9350601f198516905b8181106104605750908460019594939210610448575b505050811b0160045561014e565b01515f1960f88460031b161c191690555f808061043a565b92936020600181928786015181550195019301610424565b60045f529091507f8a35acfbc15ff81a39ae7d344fd709f28e8600b4aa8c65c6b64bfe7fe36bd19b601f840160051c8101602085106104dc575b90849392915b601f830160051c820181106104ce575050610123565b5f81558594506001016104b8565b50806104b2565b634e487b7160e01b5f52602260045260245ffd5b91607f169161010f565b634e487b7160e01b5f52604160045260245ffd5b015190505f806100df565b60035f9081527fc2575a0e9e593c00f959f8c92f12db2869c3395a3b0502d05e2516446f71f85b9350601f198516905b81811061058c5750908460019594939210610574575b505050811b016003556100f4565b01515f1960f88460031b161c191690555f8080610566565b92936020600181928786015181550195019301610550565b60035f529091507fc2575a0e9e593c00f959f8c92f12db2869c3395a3b0502d05e2516446f71f85b601f840160051c81019160208510610608575b90601f859493920160051c01905b8181106105fa57506100c9565b5f81558493506001016105ed565b90915081906105df565b91607f16916100b5565b5f80fd5b6040519190601f01601f191682016001600160401b0381118382101761050157604052565b81601f8201121561061c578051906001600160401b03821161050157610674601f8301601f1916602001610620565b928284526020838301011161061c57815f9260208093018386015e8301015290565b51906001600160a01b038216820361061c57565b919082018092116102cb57565b818102929181159184041417156102cb57565b7fddf252ad1be2c89b69c2b068fc378daa952ba7f163c4a11628f55a4df523b3ef60205f926106fb856002546106aa565b6002556001600160a01b031693841584146107225780600254036002555b604051908152a3565b8484528382526040842081815401905561071956fe6080604090808252600480361015610015575f80fd5b5f3560e01c91826302d05d3f14610d1f5750816306fdde0314610bf9578163095ea7b314610b125781631006ee0c14610a7b57816318160ddd14610a5d57816323b872dd146108f3578163313ce567146108d85781634ada218b146108b55781634f7041a5146108975781635342acb41461084e5781636fd8fb7a1461083057816370a08231146107ed578163715018a61461076f578163737ea06e1461073b5781637437681e1461071d57816381905bf8146106b15781638a8c523c1461063e5781638da5cb5b1461060a57816395d89b411461042f578163a22d4832146103cb578163a8b0898214610397578163a9059cbb14610367578163cc1776d314610349578163d94160e014610300578163dd62ed3e146102a9578163df8408fe1461023b578163f2fde38b14610175575063f8b45b0514610154575f80fd5b34610171575f60031936011261017157602090600b549051908152f35b5f80fd5b90503461017157602060031936011261017157610190610db5565b90610199610e37565b73ffffffffffffffffffffffffffffffffffffffff80921692831561020c575050600554827fffffffffffffffffffffffff0000000000000000000000000000000000000000821617600555167f8be0079c531659141344cd1fd0a4f28419497f9722a3daafe3b4186f6b6457e05f80a3005b905f60249251917f1e4fbdf7000000000000000000000000000000000000000000000000000000008352820152fd5b82346101715773ffffffffffffffffffffffffffffffffffffffff6102a79161026336610dfb565b929061026d610e37565b165f52600e6020525f209060ff7fffffffffffffffffffffffffffffffffffffffffffffffffffffffffffffff0083541691151516179055565b005b82346101715780600319360112610171576020906102c5610db5565b6102cd610dd8565b9073ffffffffffffffffffffffffffffffffffffffff8091165f5260018452825f2091165f528252805f20549051908152f35b82346101715760206003193601126101715760209073ffffffffffffffffffffffffffffffffffffffff610332610db5565b165f52600f825260ff815f20541690519015158152f35b8234610171575f600319360112610171576020906009549051908152f35b8234610171578060031936011261017157602090610390610386610db5565b6024359033610e88565b5160018152f35b8234610171575f6003193601126101715760209073ffffffffffffffffffffffffffffffffffffffff600754169051908152f35b346101715760206003193601126101715773ffffffffffffffffffffffffffffffffffffffff6103f9610db5565b610401610e37565b167fffffffffffffffffffffffff000000000000000000000000000000000000000060075416176007555f80f35b905034610171575f6003193601126101715781515f928254936001948060011c60018216968715610600575b60209283831089146105d457869798838897985290815f1461057957506001146104fe575b50505003601f017fffffffffffffffffffffffffffffffffffffffffffffffffffffffffffffffe01682019267ffffffffffffffff8411838510176104d257508291826104ce925282610d6d565b0390f35b6041907f4e487b71000000000000000000000000000000000000000000000000000000005f525260245ffd5b5f888152929493507f8a35acfbc15ff81a39ae7d344fd709f28e8600b4aa8c65c6b64bfe7fe36bd19b5b82841061056357505050907fffffffffffffffffffffffffffffffffffffffffffffffffffffffffffffffe092601f92820101918193610480565b8054888501870152879450928501928101610528565b7fffffffffffffffffffffffffffffffffffffffffffffffffffffffffffffff0016848701525050151560051b830101905081601f7fffffffffffffffffffffffffffffffffffffffffffffffffffffffffffffffe0610480565b6022887f4e487b71000000000000000000000000000000000000000000000000000000005f525260245ffd5b90607f169061045b565b8234610171575f6003193601126101715760209073ffffffffffffffffffffffffffffffffffffffff600554169051908152f35b8234610171575f6003193601126101715760207fb3da2db3dfc3778f99852546c6e9ab39ec253f9de7b0847afec61bd27878e9239161067b610e37565b60017fffffffffffffffffffffffffffffffffffffffffffffffffffffffffffffff00600c541617600c5542600d5551428152a1005b82346101715773ffffffffffffffffffffffffffffffffffffffff6102a7916106d936610dfb565b92906106e3610e37565b165f52600f6020525f209060ff7fffffffffffffffffffffffffffffffffffffffffffffffffffffffffffffff0083541691151516179055565b8234610171575f60031936011261017157602090600a549051908152f35b8234610171575f6003193601126101715760209073ffffffffffffffffffffffffffffffffffffffff600654169051908152f35b34610171575f60031936011261017157610787610e37565b5f73ffffffffffffffffffffffffffffffffffffffff6005547fffffffffffffffffffffffff00000000000000000000000000000000000000008116600555167f8be0079c531659141344cd1fd0a4f28419497f9722a3daafe3b4186f6b6457e08280a3005b82346101715760206003193601126101715760209073ffffffffffffffffffffffffffffffffffffffff61081f610db5565b165f525f8252805f20549051908152f35b8234610171575f60031936011261017157602090600d549051908152f35b82346101715760206003193601126101715760209073ffffffffffffffffffffffffffffffffffffffff610880610db5565b165f52600e825260ff815f20541690519015158152f35b8234610171575f600319360112610171576020906008549051908152f35b8234610171575f6003193601126101715760209060ff600c541690519015158152f35b8234610171575f600319360112610171576020905160128152f35b9050346101715760606003193601126101715761090e610db5565b610916610dd8565b906044359273ffffffffffffffffffffffffffffffffffffffff8216805f526001602052855f20335f52602052855f2054917fffffffffffffffffffffffffffffffffffffffffffffffffffffffffffffffff830361097e575b602087610390888888610e88565b858310610a185781156109e95733156109ba57505f90815260016020908152868220338352815290869020918590039091558290610390610970565b6024905f8851917f94280d62000000000000000000000000000000000000000000000000000000008352820152fd5b6024905f8851917fe602df05000000000000000000000000000000000000000000000000000000008352820152fd5b86517ffb8f41b2000000000000000000000000000000000000000000000000000000008152339181019182526020820193909352604081018690528291506060010390fd5b8234610171575f600319360112610171576020906002549051908152f35b82346101715780600319360112610171578135602435610a99610e37565b601982118015610b08575b610ae0577fb841faf0d1b32571f4ef966a2f35e3ae51f3cdda45318c3da5570a5b2ad856059350816008558060095582519182526020820152a1005b5050517f67e3b835000000000000000000000000000000000000000000000000000000008152fd5b5060198111610aa4565b8234610171578060031936011261017157610b2b610db5565b602435903315610bca5773ffffffffffffffffffffffffffffffffffffffff16908115610b9b5760209350335f5260018452825f20825f52845280835f205582519081527f8c5be1e5ebec7d5bd14f71427d1e84f3dd0314c0f7b2291e5b200ac8c7c3b925843392a35160018152f35b6024845f8551917f94280d62000000000000000000000000000000000000000000000000000000008352820152fd5b6024845f8551917fe602df05000000000000000000000000000000000000000000000000000000008352820152fd5b905034610171575f6003193601126101715781515f92600354936001948060011c60018216968715610d15575b60209283831089146105d457869798838897985290815f146105795750600114610c985750505003601f017fffffffffffffffffffffffffffffffffffffffffffffffffffffffffffffffe01682019267ffffffffffffffff8411838510176104d257508291826104ce925282610d6d565b60035f908152929493507fc2575a0e9e593c00f959f8c92f12db2869c3395a3b0502d05e2516446f71f85b5b828410610cff57505050907fffffffffffffffffffffffffffffffffffffffffffffffffffffffffffffffe092601f92820101918193610480565b8054888501870152879450928501928101610cc4565b90607f1690610c26565b34610171575f6003193601126101715760209073ffffffffffffffffffffffffffffffffffffffff7f0000000000000000000000000000000000000000000000000000000000000000168152f35b7fffffffffffffffffffffffffffffffffffffffffffffffffffffffffffffffe0601f602060409481855280519182918282880152018686015e5f8582860101520116010190565b6004359073ffffffffffffffffffffffffffffffffffffffff8216820361017157565b6024359073ffffffffffffffffffffffffffffffffffffffff8216820361017157565b60031960409101126101715760043573ffffffffffffffffffffffffffffffffffffffff81168103610171579060243580151581036101715790565b73ffffffffffffffffffffffffffffffffffffffff600554163303610e5857565b60246040517f118cdaa7000000000000000000000000000000000000000000000000000000008152336004820152fd5b9073ffffffffffffffffffffffffffffffffffffffff918281169283156110dd578083169081156110ad57859460ff600c5416158061109f575b80611091575b61106757805f52600f60205260409260ff845f2054161580611056575b610fca575b5f93825f52600e60205260ff815f205416159081610fb8575b50610f74575b505081610f1f575b5050610f1d935061112d565b565b8192945090610f3291600654168561112d565b8303928311610f4757610f1d92915f80610f11565b7f4e487b71000000000000000000000000000000000000000000000000000000005f52601160045260245ffd5b6007548316918203610f9c57505090506064610f926008548761111a565b04905b5f80610f09565b03610f955790506064610fb16009548761111a565b0490610f95565b60ff9150825f525f205416155f610f03565b600a54881161102d5782600754168114158061100f575b15610eea57600484517febe2dbd0000000000000000000000000000000000000000000000000000000008152fd5b50805f525f60205261102488855f205461110d565b600b5410610fe1565b600484517f864c7e9b000000000000000000000000000000000000000000000000000000008152fd5b50805f5260ff845f20541615610ee5565b60046040517f12f1f923000000000000000000000000000000000000000000000000000000008152fd5b508160055416831415610ec8565b508160055416811415610ec2565b60246040517fec442f050000000000000000000000000000000000000000000000000000000081525f6004820152fd5b60246040517f96c6fd1e0000000000000000000000000000000000000000000000000000000081525f6004820152fd5b91908201809211610f4757565b81810292918115918404141715610f4757565b73ffffffffffffffffffffffffffffffffffffffff808216929091836111b157507fddf252ad1be2c89b69c2b068fc378daa952ba7f163c4a11628f55a4df523b3ef9160209161117f8660025461110d565b6002555b16938461119c5780600254036002555b604051908152a3565b845f525f825260405f20818154019055611193565b835f525f60205260405f2054908582106111fe575091602091857fddf252ad1be2c89b69c2b068fc378daa952ba7f163c4a11628f55a4df523b3ef94865f525f85520360405f2055611183565b6040517fe450d38c00000000000000000000000000000000000000000000000000000000815273ffffffffffffffffffffffffffffffffffffffff919091166004820152602481019190915260448101859052606490fdfea2646970667358221220c9573d12c9ebd6bddd9a8414af47f15d04132fc886f17ada36a0b45e6d4ca32964736f6c63430008190033","linkReferences":{}},"methodIdentifiers":{"allowance(address,address)":"dd62ed3e","approve(address,uint256)":"095ea7b3","balanceOf(address)":"70a08231","buyTax()":"4f7041a5","creator()":"02d05d3f","decimals()":"313ce567","enableTrading()":"8a8c523c","excludeFromFee(address,bool)":"df8408fe","excludeFromLimit(address,bool)":"81905bf8","isExcludedFromFee(address)":"5342acb4","isExcludedFromLimit(address)":"d94160e0","maxTx()":"7437681e","maxWallet()":"f8b45b05","name()":"06fdde03","owner()":"8da5cb5b","pairAddress()":"a8b08982","renounceOwnership()":"715018a6","sellTax()":"cc1776d3","setPairAddress(address)":"a22d4832","symbol()":"95d89b41","taxRecipient()":"737ea06e","totalSupply()":"18160ddd","tradingEnabled()":"4ada218b","tradingEnabledTime()":"6fd8fb7a","transfer(address,uint256)":"a9059cbb","transferFrom(address,address,uint256)":"23b872dd","transferOwnership(address)":"f2fde38b","updateTaxes(uint256,uint256)":"1006ee0c"},"id":159}