{"abi":[{"type":"constructor","inputs":[{"name":"_votingEscrow","type":"address","internalType":"address"},{"name":"_andeToken","type":"address","internalType":"address"},{"name":"_treasury","type":"address","internalType":"address"},{"name":"_protocolFeeCollector","type":"address","internalType":"address"},{"name":"_sequencer","type":"address","internalType":"address"}],"stateMutability":"nonpayable"},{"type":"function","name":"EPOCH_DURATION","inputs":[],"outputs":[{"name":"","type":"uint256","internalType":"uint256"}],"stateMutability":"view"},{"type":"function","name":"PROTOCOL_FEE","inputs":[],"outputs":[{"name":"","type":"uint256","internalType":"uint256"}],"stateMutability":"view"},{"type":"function","name":"STAKERS_SHARE","inputs":[],"outputs":[{"name":"","type":"uint256","internalType":"uint256"}],"stateMutability":"view"},{"type":"function","name":"TREASURY_SHARE","inputs":[],"outputs":[{"name":"","type":"uint256","internalType":"uint256"}],"stateMutability":"view"},{"type":"function","name":"andeToken","inputs":[],"outputs":[{"name":"","type":"address","internalType":"contract IERC20"}],"stateMutability":"view"},{"type":"function","name":"claimRewards","inputs":[{"name":"upToEpoch","type":"uint256","internalType":"uint256"}],"outputs":[],"stateMutability":"nonpayable"},{"type":"function","name":"claimedByEpoch","inputs":[{"name":"","type":"address","internalType":"address"},{"name":"","type":"uint256","internalType":"uint256"}],"outputs":[{"name":"","type":"uint256","internalType":"uint256"}],"stateMutability":"view"},{"type":"function","name":"currentEpoch","inputs":[],"outputs":[{"name":"","type":"uint256","internalType":"uint256"}],"stateMutability":"view"},{"type":"function","name":"depositMEV","inputs":[{"name":"amount","type":"uint256","internalType":"uint256"}],"outputs":[],"stateMutability":"nonpayable"},{"type":"function","name":"emergencyWithdraw","inputs":[{"name":"token","type":"address","internalType":"address"},{"name":"to","type":"address","internalType":"address"},{"name":"amount","type":"uint256","internalType":"uint256"}],"outputs":[],"stateMutability":"nonpayable"},{"type":"function","name":"epochStartTime","inputs":[],"outputs":[{"name":"","type":"uint256","internalType":"uint256"}],"stateMutability":"view"},{"type":"function","name":"epochs","inputs":[{"name":"","type":"uint256","internalType":"uint256"}],"outputs":[{"name":"totalMEVCaptured","type":"uint256","internalType":"uint256"},{"name":"totalVotingPower","type":"uint256","internalType":"uint256"},{"name":"stakersReward","type":"uint256","internalType":"uint256"},{"name":"protocolFee","type":"uint256","internalType":"uint256"},{"name":"treasuryAmount","type":"uint256","internalType":"uint256"},{"name":"settled","type":"bool","internalType":"bool"},{"name":"timestamp","type":"uint256","internalType":"uint256"}],"stateMutability":"view"},{"type":"function","name":"getCurrentEpochInfo","inputs":[],"outputs":[{"name":"epoch","type":"uint256","internalType":"uint256"},{"name":"startTime","type":"uint256","internalType":"uint256"},{"name":"endTime","type":"uint256","internalType":"uint256"},{"name":"timeRemaining","type":"uint256","internalType":"uint256"}],"stateMutability":"view"},{"type":"function","name":"getEpochData","inputs":[{"name":"epochId","type":"uint256","internalType":"uint256"}],"outputs":[{"name":"totalMEV","type":"uint256","internalType":"uint256"},{"name":"stakersReward","type":"uint256","internalType":"uint256"},{"name":"protocolFee","type":"uint256","internalType":"uint256"},{"name":"treasuryAmount","type":"uint256","internalType":"uint256"},{"name":"settled","type":"bool","internalType":"bool"},{"name":"timestamp","type":"uint256","internalType":"uint256"}],"stateMutability":"view"},{"type":"function","name":"mevCapturePaused","inputs":[],"outputs":[{"name":"","type":"bool","internalType":"bool"}],"stateMutability":"view"},{"type":"function","name":"owner","inputs":[],"outputs":[{"name":"","type":"address","internalType":"address"}],"stateMutability":"view"},{"type":"function","name":"pendingRewards","inputs":[{"name":"user","type":"address","internalType":"address"},{"name":"upToEpoch","type":"uint256","internalType":"uint256"}],"outputs":[{"name":"","type":"uint256","internalType":"uint256"}],"stateMutability":"view"},{"type":"function","name":"protocolFeeCollector","inputs":[],"outputs":[{"name":"","type":"address","internalType":"address"}],"stateMutability":"view"},{"type":"function","name":"renounceOwnership","inputs":[],"outputs":[],"stateMutability":"nonpayable"},{"type":"function","name":"sequencer","inputs":[],"outputs":[{"name":"","type":"address","internalType":"address"}],"stateMutability":"view"},{"type":"function","name":"setMEVCapturePaused","inputs":[{"name":"paused","type":"bool","internalType":"bool"}],"outputs":[],"stateMutability":"nonpayable"},{"type":"function","name":"settleEpoch","inputs":[],"outputs":[],"stateMutability":"nonpayable"},{"type":"function","name":"transferOwnership","inputs":[{"name":"newOwner","type":"address","internalType":"address"}],"outputs":[],"stateMutability":"nonpayable"},{"type":"function","name":"treasury","inputs":[],"outputs":[{"name":"","type":"address","internalType":"address"}],"stateMutability":"view"},{"type":"function","name":"updateProtocolFeeCollector","inputs":[{"name":"newCollector","type":"address","internalType":"address"}],"outputs":[],"stateMutability":"nonpayable"},{"type":"function","name":"updateSequencer","inputs":[{"name":"newSequencer","type":"address","internalType":"address"}],"outputs":[],"stateMutability":"nonpayable"},{"type":"function","name":"updateTreasury","inputs":[{"name":"newTreasury","type":"address","internalType":"address"}],"outputs":[],"stateMutability":"nonpayable"},{"type":"function","name":"userClaims","inputs":[{"name":"","type":"address","internalType":"address"}],"outputs":[{"name":"lastClaimedEpoch","type":"uint256","internalType":"uint256"},{"name":"totalClaimed","type":"uint256","internalType":"uint256"}],"stateMutability":"view"},{"type":"function","name":"votingEscrow","inputs":[],"outputs":[{"name":"","type":"address","internalType":"contract VotingEscrow"}],"stateMutability":"view"},{"type":"event","name":"EpochSettled","inputs":[{"name":"epoch","type":"uint256","indexed":true,"internalType":"uint256"},{"name":"totalMEV","type":"uint256","indexed":false,"internalType":"uint256"},{"name":"stakersReward","type":"uint256","indexed":false,"internalType":"uint256"},{"name":"protocolFee","type":"uint256","indexed":false,"internalType":"uint256"},{"name":"treasuryAmount","type":"uint256","indexed":false,"internalType":"uint256"}],"anonymous":false},{"type":"event","name":"MEVCaptureStatusChanged","inputs":[{"name":"paused","type":"bool","indexed":false,"internalType":"bool"}],"anonymous":false},{"type":"event","name":"MEVDeposited","inputs":[{"name":"epoch","type":"uint256","indexed":true,"internalType":"uint256"},{"name":"amount","type":"uint256","indexed":false,"internalType":"uint256"},{"name":"depositor","type":"address","indexed":true,"internalType":"address"}],"anonymous":false},{"type":"event","name":"OwnershipTransferred","inputs":[{"name":"previousOwner","type":"address","indexed":true,"internalType":"address"},{"name":"newOwner","type":"address","indexed":true,"internalType":"address"}],"anonymous":false},{"type":"event","name":"ProtocolFeeCollectorUpdated","inputs":[{"name":"oldCollector","type":"address","indexed":true,"internalType":"address"},{"name":"newCollector","type":"address","indexed":true,"internalType":"address"}],"anonymous":false},{"type":"event","name":"RewardsClaimed","inputs":[{"name":"user","type":"address","indexed":true,"internalType":"address"},{"name":"epoch","type":"uint256","indexed":true,"internalType":"uint256"},{"name":"amount","type":"uint256","indexed":false,"internalType":"uint256"}],"anonymous":false},{"type":"event","name":"SequencerUpdated","inputs":[{"name":"oldSequencer","type":"address","indexed":true,"internalType":"address"},{"name":"newSequencer","type":"address","indexed":true,"internalType":"address"}],"anonymous":false},{"type":"event","name":"TreasuryUpdated","inputs":[{"name":"oldTreasury","type":"address","indexed":true,"internalType":"address"},{"name":"newTreasury","type":"address","indexed":true,"internalType":"address"}],"anonymous":false},{"type":"error","name":"AddressEmptyCode","inputs":[{"name":"target","type":"address","internalType":"address"}]},{"type":"error","name":"AddressInsufficientBalance","inputs":[{"name":"account","type":"address","internalType":"address"}]},{"type":"error","name":"AlreadyRegistered","inputs":[]},{"type":"error","name":"AmountMustBePositive","inputs":[]},{"type":"error","name":"CannotClaimCurrentEpoch","inputs":[]},{"type":"error","name":"EpochNotFinished","inputs":[]},{"type":"error","name":"FailedInnerCall","inputs":[]},{"type":"error","name":"InvalidAddress","inputs":[]},{"type":"error","name":"MEVCaptureIsPaused","inputs":[]},{"type":"error","name":"NothingToClaim","inputs":[]},{"type":"error","name":"OnlySequencer","inputs":[]},{"type":"error","name":"OwnableInvalidOwner","inputs":[{"name":"owner","type":"address","internalType":"address"}]},{"type":"error","name":"OwnableUnauthorizedAccount","inputs":[{"name":"account","type":"address","internalType":"address"}]},{"type":"error","name":"ReentrancyGuardReentrantCall","inputs":[]},{"type":"error","name":"SafeERC20FailedOperation","inputs":[{"name":"token","type":"address","internalType":"address"}]}],"bytecode":{"object":"0x60c0346101bb57601f6114cd38819003918201601f191683019291906001600160401b038411838510176101bf578160a092849260409687528339810103126101bb5761004b816101d3565b610057602083016101d3565b916100638482016101d3565b9061007c6080610075606084016101d3565b92016101d3565b9133156101a4575f549460018060a01b03908160018060a01b03199633888a16175f55895198823391167f8be0079c531659141344cd1fd0a4f28419497f9722a3daafe3b4186f6b6457e05f80a360018055169687156101955750811691821561018457811692831561018457811693841561018457169485156101735760805260a0528260025416176002558160035416176003556004541617600455426006556001600555516112e590816101e8823960805181818161073601528181610a9201528181610d850152611069015260a0518181816108880152818161093a01528181610aeb015281816110c401526110fa0152f35b865163e6c4247b60e01b8152600490fd5b875163e6c4247b60e01b8152600490fd5b63e6c4247b60e01b8152600490fd5b8551631e4fbdf760e01b81525f6004820152602490fd5b5f80fd5b634e487b7160e01b5f52604160045260245ffd5b51906001600160a01b03821682036101bb5756fe604060808152600480361015610013575f80fd5b5f3560e01c9081630962ef7914610a3f5781630b4501fd14610a2357816313686822146108b7578163140f021c146108745781631d1ecaaa146108515781632ef54f41146107ef57816332696174146107d357816343ae20a3146107655781634f2bfe5b14610722578163565b54ea146106af5781635c1bba38146106885781636099ecb21461065957816361d027b3146106315781636859eebd146105f1578163715018a61461059a578163766718081461057c5781637f51bb1f146104fc578163850a1501146104d4578163859e7d32146104725781638a8f048b146104565781638da5cb5b1461042f578163a70b9f0c14610412578163b6b385f7146103b5578163babc394f1461032b578163c6b61e4c146102bf578163e63ea4081461024a578163f0a3563c1461020a578163f2fde38b1461017d575063f60ca6411461015c575f80fd5b34610179575f366003190112610179576020906006549051908152f35b5f80fd5b90503461017957602036600319011261017957610198610c96565b906101a1611168565b6001600160a01b039182169283156101f45750505f54826bffffffffffffffffffffffff60a01b8216175f55167f8be0079c531659141344cd1fd0a4f28419497f9722a3daafe3b4186f6b6457e05f80a3005b905f6024925191631e4fbdf760e01b8352820152fd5b8234610179576020366003190112610179576001600160a01b0361022c610c96565b165f526009602052805f206001815491015482519182526020820152f35b823461017957606036600319011261017957610264610c96565b6024356001600160a01b0381811693919284840361017957610284611168565b169283156102af57156102a05761029e6044358385610f00565b005b5163e6c4247b60e01b81528390fd5b815163e6c4247b60e01b81528590fd5b8234610179576020366003190112610179578160e092355f526008602052815f20805492600182015492600283015460038401549184015492600660ff600587015416950154958151978852602088015286015260608501526080840152151560a083015260c0820152f35b8234610179575f366003190112610179576005546006549162093a808084019081851161039357428211156103a657428503018181116103935761038f93949550915b51948594859094939260609260808301968352602083015260408201520152565b0390f35b601186634e487b7160e01b5f525260245ffd5b5061038f929394505f9161036e565b8234610179575f366003190112610179576103ce610edd565b60065462093a8081018091116103ff5742106103f2576103ec610f43565b60018055005b5163ec76655760e01b8152fd5b601183634e487b7160e01b5f525260245ffd5b8234610179575f366003190112610179576020905162093a808152f35b8234610179575f366003190112610179575f5490516001600160a01b039091168152602090f35b8234610179575f3660031901126101795760209051611f408152f35b8234610179576020366003190112610179578160c092355f526008602052815f2080549260028201549260038301549083015491600660ff600586015416940154948151968752602087015285015260608401521515608083015260a0820152f35b8234610179575f3660031901126101795760035490516001600160a01b039091168152602090f35b90503461017957602036600319011261017957610517610c96565b90610520611168565b6001600160a01b0391821692831561056f575050816002549182167f4ab5be82436d353e61ca18726e984e561f5c1cc7c6d38b29d2553c790434705a5f80a36001600160a01b03191617600255005b5163e6c4247b60e01b8152fd5b8234610179575f366003190112610179576020906005549051908152f35b34610179575f366003190112610179576105b2611168565b5f80546001600160a01b0319811682556001600160a01b03167f8be0079c531659141344cd1fd0a4f28419497f9722a3daafe3b4186f6b6457e08280a3005b82346101795780600319360112610179576020906001600160a01b03610615610c96565b165f52600a8252805f206024355f528252805f20549051908152f35b8234610179575f3660031901126101795760025490516001600160a01b039091168152602090f35b8234610179578060031936011261017957602090610681610678610c96565b60243590610d42565b9051908152f35b8234610179575f36600319011261017957905490516001600160a01b039091168152602090f35b905034610179576020366003190112610179576106ca610c96565b906106d3611168565b6001600160a01b0391821692831561056f575050816003549182167fd975c62eaa3c65dc5a253ebc57cfcd285d46a7cab97817ca43413a396e3303a85f80a36001600160a01b03191617600355005b8234610179575f36600319011261017957517f00000000000000000000000000000000000000000000000000000000000000006001600160a01b03168152602090f35b82346101795760203660031901126101795761077f610c96565b610787611168565b6001600160a01b039081169182156102a057508183549182167fcd58b762453bd126b48db83f2cecd464f5281dd7e5e6824b528c09d0482984d65f80a36001600160a01b031916179055005b8234610179575f36600319011261017957602090516101f48152f35b905034610179576020366003190112610179573590811515809203610179577f777d8a1a518df8b63fab1ddfb3eb6882e5576d38f3637dd90e600526a673adca9160209161083b611168565b60ff196007541660ff83161760075551908152a1005b8234610179575f3660031901126101795760209060ff6007541690519015158152f35b8234610179575f36600319011261017957517f00000000000000000000000000000000000000000000000000000000000000006001600160a01b03168152602090f35b8234610179576020366003190112610179578154823592906001600160a01b03163303610a155760ff60075416610a07576108f0610edd565b82156109f95781516323b872dd60e01b60208201523360248201523060448201526064808201859052815260a0810167ffffffffffffffff8111828210176109e657835261095e907f0000000000000000000000000000000000000000000000000000000000000000611193565b6006549062093a8082018092116109d357504210156109c6575b6005545f526008602052805f20610990838254610cac565b905560055490519182527f4eae0ca8fb67c5aa1722d93733075d26604b35a5b928e1ebfc0298b41bc5bfcc60203393a360018055005b6109ce610f43565b610978565b601190634e487b7160e01b5f525260245ffd5b604183634e487b7160e01b5f525260245ffd5b9051632e11316f60e11b8152fd5b9051630ebf3dc960e21b8152fd5b905163bb62587160e01b8152fd5b8234610179575f36600319011261017957602090516105dc8152f35b8234610179576020918260031936011261017957803590610a5e610edd565b600592600554831015610c8957335f5260098552805f209485549460019160018701809711610c7657858711610c66575f967f00000000000000000000000000000000000000000000000000000000000000006001600160a01b031693905b87811115610b1c5750505050508315610b0f576103ec8460018786815501610ae6828254610cac565b9055337f0000000000000000000000000000000000000000000000000000000000000000610f00565b516312d37ee560e31b8152fd5b805f5260088352855f209060ff858301541615610c5c5760028201548015610c51578484840154938415610c445760060154895163277166bf60e11b815233818d01908152602081019290925291908290819060400103818b5afa5f9181610c0d575b5093839291610bf995155f14610c0757505f905b8115610bfe57610ba9610bae92610bb594610d11565b610d24565b809c610cac565b9a335f52600a8652885f20825f52865280895f205588519081527fdacbdde355ba930696a362ea6738feb9f8bd52dfb3d81947558fd3217e23e325863392a3610ccd565b610abd565b50505050610ccd565b90610b93565b929150938683813d8311610c3d575b610c268183610cdb565b810103126101795791519193909190610bf9610b7f565b503d610c1c565b505050610bf99150610ccd565b50610bf99150610ccd565b610bf99150610ccd565b505050516312d37ee560e31b8152fd5b601185634e487b7160e01b5f525260245ffd5b51630c72afeb60e21b8152fd5b600435906001600160a01b038216820361017957565b91908201809211610cb957565b634e487b7160e01b5f52601160045260245ffd5b5f198114610cb95760010190565b90601f8019910116810190811067ffffffffffffffff821117610cfd57604052565b634e487b7160e01b5f52604160045260245ffd5b81810292918115918404141715610cb957565b8115610d2e570490565b634e487b7160e01b5f52601260045260245ffd5b60018060a01b038082165f526020926009845260409260405f20549460019260018701809711610cb9578087118015610ed1575b610ec6579291905f95949596957f0000000000000000000000000000000000000000000000000000000000000000165b84871115610db8575050505050505090565b90919293949596875f5260088352865f2060ff600582015416158015610eba575b8015610eaf575b610ea4576006810154885163277166bf60e11b81526001600160a01b038716600482015260248101919091528481604481875afa5f9181610e75575b50610e7057505f5b8015610e645791610e4d8288610e44610e59966002610e53970154610d11565b91015490610d24565b90610cac565b97610ccd565b959493929190610da6565b505096610e5990610ccd565b610e24565b9091508581813d8311610e9d575b610e8d8183610cdb565b810103126101795751905f610e1c565b503d610e83565b5096610e5990610ccd565b508581015415610de0565b50600281015415610dd9565b505050505050505f90565b50600554811015610d76565b600260015414610eee576002600155565b604051633ee5aeb560e01b8152600490fd5b60405163a9059cbb60e01b60208201526001600160a01b03929092166024830152604480830193909352918152610f4191610f3c606483610cdb565b611193565b565b6005545f52600860205260405f20600581019060ff8254166111645780548015928315610ff0575b610fe79350600160ff198254161790554260068301557fdd61069809ef8d608890acc089aa62bd79a1b97490fdb3b8c9c5b96caeeb45c5600554928392610fdf6002830154926004600382015491015490604051948594859094939260609260808301968352602083015260408201520152565b0390a2610ccd565b60055542600655565b611f40938483029483860414811715610cb95761271080950460028501556105dc948584029584870414821715610cb9578060038601960486556101f49182850292858404141715610cb957600485019104815560018060a01b039060405195630981b24d60e41b8752426004880152602087602481867f0000000000000000000000000000000000000000000000000000000000000000165afa805f9161112e575b610fe7985061112457505f60018701555b54806110ef575b5054806110ba575b5050610f6b565b6110e891600254167f0000000000000000000000000000000000000000000000000000000000000000610f00565b5f806110b3565b61111e9083600354167f0000000000000000000000000000000000000000000000000000000000000000610f00565b5f6110ab565b60018701556110a4565b90506020883d60201161115c575b8161114960209383610cdb565b8101031261017957610fe7975190611093565b3d915061113c565b5050565b5f546001600160a01b0316330361117b57565b60405163118cdaa760e01b8152336004820152602490fd5b81516001600160a01b03909116915f91829160200182855af13d15611240573d67ffffffffffffffff8111610cfd576111ee91604051916111de6020601f19601f8401160184610cdb565b82523d5f602084013e5b8361124c565b805190811515918261121c575b50506112045750565b60249060405190635274afe760e01b82526004820152fd5b81925090602091810103126101795760200151801590811503610179575f806111fb565b6111ee906060906111e8565b90611273575080511561126157805190602001fd5b604051630a12f52160e11b8152600490fd5b815115806112a6575b611284575090565b604051639996b31560e01b81526001600160a01b039091166004820152602490fd5b50803b1561127c56fea2646970667358221220c7be4f27140961fa136e97e164ee099065cf2cae7d35c7897f14660727953e1164736f6c63430008190033","linkReferences":{}},"methodIdentifiers":{"EPOCH_DURATION()":"a70b9f0c","PROTOCOL_FEE()":"0b4501fd","STAKERS_SHARE()":"8a8f048b","TREASURY_SHARE()":"32696174","andeToken()":"140f021c","claimRewards(uint256)":"0962ef79","claimedByEpoch(address,uint256)":"6859eebd","currentEpoch()":"76671808","depositMEV(uint256)":"13686822","emergencyWithdraw(address,address,uint256)":"e63ea408","epochStartTime()":"f60ca641","epochs(uint256)":"c6b61e4c","getCurrentEpochInfo()":"babc394f","getEpochData(uint256)":"859e7d32","mevCapturePaused()":"1d1ecaaa","owner()":"8da5cb5b","pendingRewards(address,uint256)":"6099ecb2","protocolFeeCollector()":"850a1501","renounceOwnership()":"715018a6","sequencer()":"5c1bba38","setMEVCapturePaused(bool)":"2ef54f41","settleEpoch()":"b6b385f7","transferOwnership(address)":"f2fde38b","treasury()":"61d027b3","updateProtocolFeeCollector(address)":"565b54ea","updateSequencer(address)":"43ae20a3","updateTreasury(address)":"7f51bb1f","userClaims(address)":"f0a3563c","votingEscrow()":"4f2bfe5b"},"id":168}