{"abi":[{"type":"constructor","inputs":[{"name":"_votingEscrow","type":"address","internalType":"address"},{"name":"_andeToken","type":"address","internalType":"address"},{"name":"_treasury","type":"address","internalType":"address"},{"name":"_protocolFeeCollector","type":"address","internalType":"address"},{"name":"_sequencer","type":"address","internalType":"address"}],"stateMutability":"nonpayable"},{"type":"function","name":"EPOCH_DURATION","inputs":[],"outputs":[{"name":"","type":"uint256","internalType":"uint256"}],"stateMutability":"view"},{"type":"function","name":"PROTOCOL_FEE","inputs":[],"outputs":[{"name":"","type":"uint256","internalType":"uint256"}],"stateMutability":"view"},{"type":"function","name":"STAKERS_SHARE","inputs":[],"outputs":[{"name":"","type":"uint256","internalType":"uint256"}],"stateMutability":"view"},{"type":"function","name":"TREASURY_SHARE","inputs":[],"outputs":[{"name":"","type":"uint256","internalType":"uint256"}],"stateMutability":"view"},{"type":"function","name":"andeToken","inputs":[],"outputs":[{"name":"","type":"address","internalType":"contract IERC20"}],"stateMutability":"view"},{"type":"function","name":"claimRewards","inputs":[{"name":"upToEpoch","type":"uint256","internalType":"uint256"}],"outputs":[],"stateMutability":"nonpayable"},{"type":"function","name":"claimedByEpoch","inputs":[{"name":"","type":"address","internalType":"address"},{"name":"","type":"uint256","internalType":"uint256"}],"outputs":[{"name":"","type":"uint256","internalType":"uint256"}],"stateMutability":"view"},{"type":"function","name":"currentEpoch","inputs":[],"outputs":[{"name":"","type":"uint256","internalType":"uint256"}],"stateMutability":"view"},{"type":"function","name":"depositMEV","inputs":[{"name":"amount","type":"uint256","internalType":"uint256"}],"outputs":[],"stateMutability":"nonpayable"},{"type":"function","name":"emergencyWithdraw","inputs":[{"name":"token","type":"address","internalType":"address"},{"name":"to","type":"address","internalType":"address"},{"name":"amount","type":"uint256","internalType":"uint256"}],"outputs":[],"stateMutability":"nonpayable"},{"type":"function","name":"epochStartTime","inputs":[],"outputs":[{"name":"","type":"uint256","internalType":"uint256"}],"stateMutability":"view"},{"type":"function","name":"epochs","inputs":[{"name":"","type":"uint256","internalType":"uint256"}],"outputs":[{"name":"totalMEVCaptured","type":"uint256","internalType":"uint256"},{"name":"totalVotingPower","type":"uint256","internalType":"uint256"},{"name":"stakersReward","type":"uint256","internalType":"uint256"},{"name":"protocolFee","type":"uint256","internalType":"uint256"},{"name":"treasuryAmount","type":"uint256","internalType":"uint256"},{"name":"settled","type":"bool","internalType":"bool"},{"name":"timestamp","type":"uint256","internalType":"uint256"}],"stateMutability":"view"},{"type":"function","name":"getCurrentEpochInfo","inputs":[],"outputs":[{"name":"epoch","type":"uint256","internalType":"uint256"},{"name":"startTime","type":"uint256","internalType":"uint256"},{"name":"endTime","type":"uint256","internalType":"uint256"},{"name":"timeRemaining","type":"uint256","internalType":"uint256"}],"stateMutability":"view"},{"type":"function","name":"getEpochData","inputs":[{"name":"epochId","type":"uint256","internalType":"uint256"}],"outputs":[{"name":"totalMEV","type":"uint256","internalType":"uint256"},{"name":"stakersReward","type":"uint256","internalType":"uint256"},{"name":"protocolFee","type":"uint256","internalType":"uint256"},{"name":"treasuryAmount","type":"uint256","internalType":"uint256"},{"name":"settled","type":"bool","internalType":"bool"},{"name":"timestamp","type":"uint256","internalType":"uint256"}],"stateMutability":"view"},{"type":"function","name":"mevCapturePaused","inputs":[],"outputs":[{"name":"","type":"bool","internalType":"bool"}],"stateMutability":"view"},{"type":"function","name":"owner","inputs":[],"outputs":[{"name":"","type":"address","internalType":"address"}],"stateMutability":"view"},{"type":"function","name":"pendingRewards","inputs":[{"name":"user","type":"address","internalType":"address"},{"name":"upToEpoch","type":"uint256","internalType":"uint256"}],"outputs":[{"name":"","type":"uint256","internalType":"uint256"}],"stateMutability":"view"},{"type":"function","name":"protocolFeeCollector","inputs":[],"outputs":[{"name":"","type":"address","internalType":"address"}],"stateMutability":"view"},{"type":"function","name":"renounceOwnership","inputs":[],"outputs":[],"stateMutability":"nonpayable"},{"type":"function","name":"sequencer","inputs":[],"outputs":[{"name":"","type":"address","internalType":"address"}],"stateMutability":"view"},{"type":"function","name":"setMEVCapturePaused","inputs":[{"name":"paused","type":"bool","internalType":"bool"}],"outputs":[],"stateMutability":"nonpayable"},{"type":"function","name":"settleEpoch","inputs":[],"outputs":[],"stateMutability":"nonpayable"},{"type":"function","name":"transferOwnership","inputs":[{"name":"newOwner","type":"address","internalType":"address"}],"outputs":[],"stateMutability":"nonpayable"},{"type":"function","name":"treasury","inputs":[],"outputs":[{"name":"","type":"address","internalType":"address"}],"stateMutability":"view"},{"type":"function","name":"updateProtocolFeeCollector","inputs":[{"name":"newCollector","type":"address","internalType":"address"}],"outputs":[],"stateMutability":"nonpayable"},{"type":"function","name":"updateSequencer","inputs":[{"name":"newSequencer","type":"address","internalType":"address"}],"outputs":[],"stateMutability":"nonpayable"},{"type":"function","name":"updateTreasury","inputs":[{"name":"newTreasury","type":"address","internalType":"address"}],"outputs":[],"stateMutability":"nonpayable"},{"type":"function","name":"userClaims","inputs":[{"name":"","type":"address","internalType":"address"}],"outputs":[{"name":"lastClaimedEpoch","type":"uint256","internalType":"uint256"},{"name":"totalClaimed","type":"uint256","internalType":"uint256"}],"stateMutability":"view"},{"type":"function","name":"votingEscrow","inputs":[],"outputs":[{"name":"","type":"address","internalType":"contract VotingEscrow"}],"stateMutability":"view"},{"type":"event","name":"EpochSettled","inputs":[{"name":"epoch","type":"uint256","indexed":true,"internalType":"uint256"},{"name":"totalMEV","type":"uint256","indexed":false,"internalType":"uint256"},{"name":"stakersReward","type":"uint256","indexed":false,"internalType":"uint256"},{"name":"protocolFee","type":"uint256","indexed":false,"internalType":"uint256"},{"name":"treasuryAmount","type":"uint256","indexed":false,"internalType":"uint256"}],"anonymous":false},{"type":"event","name":"MEVCaptureStatusChanged","inputs":[{"name":"paused","type":"bool","indexed":false,"internalType":"bool"}],"anonymous":false},{"type":"event","name":"MEVDeposited","inputs":[{"name":"epoch","type":"uint256","indexed":true,"internalType":"uint256"},{"name":"amount","type":"uint256","indexed":false,"internalType":"uint256"},{"name":"depositor","type":"address","indexed":true,"internalType":"address"}],"anonymous":false},{"type":"event","name":"OwnershipTransferred","inputs":[{"name":"previousOwner","type":"address","indexed":true,"internalType":"address"},{"name":"newOwner","type":"address","indexed":true,"internalType":"address"}],"anonymous":false},{"type":"event","name":"ProtocolFeeCollectorUpdated","inputs":[{"name":"oldCollector","type":"address","indexed":true,"internalType":"address"},{"name":"newCollector","type":"address","indexed":true,"internalType":"address"}],"anonymous":false},{"type":"event","name":"RewardsClaimed","inputs":[{"name":"user","type":"address","indexed":true,"internalType":"address"},{"name":"epoch","type":"uint256","indexed":true,"internalType":"uint256"},{"name":"amount","type":"uint256","indexed":false,"internalType":"uint256"}],"anonymous":false},{"type":"event","name":"SequencerUpdated","inputs":[{"name":"oldSequencer","type":"address","indexed":true,"internalType":"address"},{"name":"newSequencer","type":"address","indexed":true,"internalType":"address"}],"anonymous":false},{"type":"event","name":"TreasuryUpdated","inputs":[{"name":"oldTreasury","type":"address","indexed":true,"internalType":"address"},{"name":"newTreasury","type":"address","indexed":true,"internalType":"address"}],"anonymous":false},{"type":"error","name":"AddressEmptyCode","inputs":[{"name":"target","type":"address","internalType":"address"}]},{"type":"error","name":"AddressInsufficientBalance","inputs":[{"name":"account","type":"address","internalType":"address"}]},{"type":"error","name":"AlreadyRegistered","inputs":[]},{"type":"error","name":"AmountMustBePositive","inputs":[]},{"type":"error","name":"CannotClaimCurrentEpoch","inputs":[]},{"type":"error","name":"EpochNotFinished","inputs":[]},{"type":"error","name":"FailedInnerCall","inputs":[]},{"type":"error","name":"InvalidAddress","inputs":[]},{"type":"error","name":"MEVCaptureIsPaused","inputs":[]},{"type":"error","name":"NothingToClaim","inputs":[]},{"type":"error","name":"OnlySequencer","inputs":[]},{"type":"error","name":"OwnableInvalidOwner","inputs":[{"name":"owner","type":"address","internalType":"address"}]},{"type":"error","name":"OwnableUnauthorizedAccount","inputs":[{"name":"account","type":"address","internalType":"address"}]},{"type":"error","name":"ReentrancyGuardReentrantCall","inputs":[]},{"type":"error","name":"SafeERC20FailedOperation","inputs":[{"name":"token","type":"address","internalType":"address"}]}],"bytecode":{"object":"0x60c0346101bb57601f6119d938819003918201601f191683019291906001600160401b038411838510176101bf578160a092849260409687528339810103126101bb5761004b816101d3565b610057602083016101d3565b916100638482016101d3565b9061007c6080610075606084016101d3565b92016101d3565b9133156101a4575f549460018060a01b03908160018060a01b03199633888a16175f55895198823391167f8be0079c531659141344cd1fd0a4f28419497f9722a3daafe3b4186f6b6457e05f80a360018055169687156101955750811691821561018457811692831561018457811693841561018457169485156101735760805260a0528260025416176002558160035416176003556004541617600455426006556001600555516117f190816101e882396080518181816108df01528181610d390152818161114401526114d1015260a051818181610a8201528181610b4e01528181610d890152818161152c01526115620152f35b865163e6c4247b60e01b8152600490fd5b875163e6c4247b60e01b8152600490fd5b63e6c4247b60e01b8152600490fd5b8551631e4fbdf760e01b81525f6004820152602490fd5b5f80fd5b634e487b7160e01b5f52604160045260245ffd5b51906001600160a01b03821682036101bb5756fe604060808152600480361015610013575f80fd5b5f3560e01c9081630962ef7914610cd05781630b4501fd14610cb45781631368682214610aa6578163140f021c14610a565781631d1ecaaa14610a335781632ef54f41146109b3578163326961741461099757816343ae20a3146109035781634f2bfe5b146108b3578163565b54ea1461081b5781635c1bba38146107e95781636099ecb2146107ba57816361d027b3146107865781636859eebd14610739578163715018a6146106bd578163766718081461069f5781637f51bb1f146105e1578163850a1501146105ad578163859e7d321461054b5781638a8f048b1461052f5781638da5cb5b146104fc578163a70b9f0c146104df578163b6b385f714610450578163babc394f146103ad578163c6b61e4c14610341578163e63ea4081461028e578163f0a3563c14610241578163f2fde38b1461017d575063f60ca6411461015c575f80fd5b34610179575f600319360112610179576020906006549051908152f35b5f80fd5b90503461017957602060031936011261017957610198610fb1565b906101a16115d0565b73ffffffffffffffffffffffffffffffffffffffff8092169283156102125750505f54827fffffffffffffffffffffffff00000000000000000000000000000000000000008216175f55167f8be0079c531659141344cd1fd0a4f28419497f9722a3daafe3b4186f6b6457e05f80a3005b905f60249251917f1e4fbdf7000000000000000000000000000000000000000000000000000000008352820152fd5b82346101795760206003193601126101795773ffffffffffffffffffffffffffffffffffffffff610270610fb1565b165f526009602052805f206001815491015482519182526020820152f35b8234610179576060600319360112610179576102a8610fb1565b906024359073ffffffffffffffffffffffffffffffffffffffff80831693848403610179576102d56115d0565b1692831561031957156102f1576102ef60443583856112fd565b005b8390517fe6c4247b000000000000000000000000000000000000000000000000000000008152fd5b8482517fe6c4247b000000000000000000000000000000000000000000000000000000008152fd5b8234610179576020600319360112610179578160e092355f526008602052815f20805492600182015492600283015460038401549184015492600660ff600587015416950154958151978852602088015286015260608501526080840152151560a083015260c0820152f35b8234610179575f600319360112610179576005546006549162093a8080840190818511610415574282111561044157428503018181116104155761041193949550915b51948594859094939260609260808301968352602083015260408201520152565b0390f35b6011867f4e487b71000000000000000000000000000000000000000000000000000000005f525260245ffd5b50610411929394505f916103f0565b8234610179575f600319360112610179576104696112c2565b60065462093a8081018091116104b357421061048d57610487611366565b60018055005b517fec766557000000000000000000000000000000000000000000000000000000008152fd5b6011837f4e487b71000000000000000000000000000000000000000000000000000000005f525260245ffd5b8234610179575f600319360112610179576020905162093a808152f35b8234610179575f6003193601126101795760209073ffffffffffffffffffffffffffffffffffffffff5f54169051908152f35b8234610179575f6003193601126101795760209051611f408152f35b8234610179576020600319360112610179578160c092355f526008602052815f2080549260028201549260038301549083015491600660ff600586015416940154948151968752602087015285015260608401521515608083015260a0820152f35b8234610179575f6003193601126101795760209073ffffffffffffffffffffffffffffffffffffffff600354169051908152f35b905034610179576020600319360112610179576105fc610fb1565b906106056115d0565b73ffffffffffffffffffffffffffffffffffffffff80921692831561067957837fffffffffffffffffffffffff000000000000000000000000000000000000000084826002549182167f4ab5be82436d353e61ca18726e984e561f5c1cc7c6d38b29d2553c790434705a5f80a31617600255005b517fe6c4247b000000000000000000000000000000000000000000000000000000008152fd5b8234610179575f600319360112610179576020906005549051908152f35b34610179575f600319360112610179576106d56115d0565b5f73ffffffffffffffffffffffffffffffffffffffff81547fffffffffffffffffffffffff000000000000000000000000000000000000000081168355167f8be0079c531659141344cd1fd0a4f28419497f9722a3daafe3b4186f6b6457e08280a3005b823461017957806003193601126101795760209073ffffffffffffffffffffffffffffffffffffffff61076a610fb1565b165f52600a8252805f206024355f528252805f20549051908152f35b8234610179575f6003193601126101795760209073ffffffffffffffffffffffffffffffffffffffff600254169051908152f35b82346101795780600319360112610179576020906107e26107d9610fb1565b602435906110f3565b9051908152f35b8234610179575f6003193601126101795773ffffffffffffffffffffffffffffffffffffffff60209254169051908152f35b90503461017957602060031936011261017957610836610fb1565b9061083f6115d0565b73ffffffffffffffffffffffffffffffffffffffff80921692831561067957837fffffffffffffffffffffffff000000000000000000000000000000000000000084826003549182167fd975c62eaa3c65dc5a253ebc57cfcd285d46a7cab97817ca43413a396e3303a85f80a31617600355005b8234610179575f600319360112610179576020905173ffffffffffffffffffffffffffffffffffffffff7f0000000000000000000000000000000000000000000000000000000000000000168152f35b82346101795760206003193601126101795761091d610fb1565b6109256115d0565b73ffffffffffffffffffffffffffffffffffffffff8091169182156102f157507fffffffffffffffffffffffff0000000000000000000000000000000000000000908284549182167fcd58b762453bd126b48db83f2cecd464f5281dd7e5e6824b528c09d0482984d65f80a316179055005b8234610179575f60031936011261017957602090516101f48152f35b905034610179576020600319360112610179573590811515809203610179577f777d8a1a518df8b63fab1ddfb3eb6882e5576d38f3637dd90e600526a673adca916020916109ff6115d0565b7fffffffffffffffffffffffffffffffffffffffffffffffffffffffffffffff006007541660ff83161760075551908152a1005b8234610179575f6003193601126101795760209060ff6007541690519015158152f35b8234610179575f600319360112610179576020905173ffffffffffffffffffffffffffffffffffffffff7f0000000000000000000000000000000000000000000000000000000000000000168152f35b82346101795760206003193601126101795781359173ffffffffffffffffffffffffffffffffffffffff8154163303610c8d5760ff60075416610c6657610aeb6112c2565b8215610c3f5781517f23b872dd0000000000000000000000000000000000000000000000000000000060208201523360248201523060448201528360648201526064815260a0810181811067ffffffffffffffff821117610c13578352610b72907f0000000000000000000000000000000000000000000000000000000000000000611620565b6006549062093a808201809211610be75750421015610bda575b6005545f526008602052805f20610ba4838254610fd4565b905560055490519182527f4eae0ca8fb67c5aa1722d93733075d26604b35a5b928e1ebfc0298b41bc5bfcc60203393a360018055005b610be2611366565b610b8c565b6011907f4e487b71000000000000000000000000000000000000000000000000000000005f525260245ffd5b6041837f4e487b71000000000000000000000000000000000000000000000000000000005f525260245ffd5b90517f5c2262de000000000000000000000000000000000000000000000000000000008152fd5b90517f3afcf724000000000000000000000000000000000000000000000000000000008152fd5b90517fbb625871000000000000000000000000000000000000000000000000000000008152fd5b8234610179575f60031936011261017957602090516105dc8152f35b8234610179576020918260031936011261017957803590610cef6112c2565b600592600554831015610f8b57335f5260098552805f209485549460019160018701809711610f5f57858711610f36575f969273ffffffffffffffffffffffffffffffffffffffff7f000000000000000000000000000000000000000000000000000000000000000016935b87811115610dd35750505050508315610dad576104878460018786815501610d84828254610fd4565b9055337f00000000000000000000000000000000000000000000000000000000000000006112fd565b517f969bf728000000000000000000000000000000000000000000000000000000008152fd5b805f5260088352855f209060ff858301541615610f2c5760028201548015610f21578484840154938415610f14576006015489517f4ee2cd7e00000000000000000000000000000000000000000000000000000000815233818d01908152602081019290925291908290819060400103818b5afa5f9181610edd575b5093839291610ec995155f14610ed757505f905b8115610ece57610e79610e7e92610e85946110a9565b6110bc565b809c610fd4565b9a335f52600a8652885f20825f52865280895f205588519081527fdacbdde355ba930696a362ea6738feb9f8bd52dfb3d81947558fd3217e23e325863392a361100e565b610d5b565b5050505061100e565b90610e63565b929150938683813d8311610f0d575b610ef6818361103b565b810103126101795791519193909190610ec9610e4f565b503d610eec565b505050610ec9915061100e565b50610ec9915061100e565b610ec9915061100e565b505050517f969bf728000000000000000000000000000000000000000000000000000000008152fd5b6011857f4e487b71000000000000000000000000000000000000000000000000000000005f525260245ffd5b517f31cabfac000000000000000000000000000000000000000000000000000000008152fd5b6004359073ffffffffffffffffffffffffffffffffffffffff8216820361017957565b91908201809211610fe157565b7f4e487b71000000000000000000000000000000000000000000000000000000005f52601160045260245ffd5b7fffffffffffffffffffffffffffffffffffffffffffffffffffffffffffffffff8114610fe15760010190565b90601f7fffffffffffffffffffffffffffffffffffffffffffffffffffffffffffffffe0910116810190811067ffffffffffffffff82111761107c57604052565b7f4e487b71000000000000000000000000000000000000000000000000000000005f52604160045260245ffd5b81810292918115918404141715610fe157565b81156110c6570490565b7f4e487b71000000000000000000000000000000000000000000000000000000005f52601260045260245ffd5b73ffffffffffffffffffffffffffffffffffffffff8082165f526020926009845260409260405f20549460019260018701809711610fe15780871180156112b6575b6112ab579291905f95949596957f0000000000000000000000000000000000000000000000000000000000000000165b84871115611177575050505050505090565b90919293949596875f5260088352865f2060ff60058201541615801561129f575b8015611294575b61128957600681015488517f4ee2cd7e00000000000000000000000000000000000000000000000000000000815273ffffffffffffffffffffffffffffffffffffffff8716600482015260248101919091528481604481875afa5f918161125a575b5061125557505f5b80156112495791611232828861122961123e9660026112389701546110a9565b910154906110bc565b90610fd4565b9761100e565b959493929190611165565b50509661123e9061100e565b611209565b9091508581813d8311611282575b611272818361103b565b810103126101795751905f611201565b503d611268565b509661123e9061100e565b50858101541561119f565b50600281015415611198565b505050505050505f90565b50600554811015611135565b6002600154146112d3576002600155565b60046040517f3ee5aeb5000000000000000000000000000000000000000000000000000000008152fd5b6040517fa9059cbb00000000000000000000000000000000000000000000000000000000602082015273ffffffffffffffffffffffffffffffffffffffff9290921660248301526044808301939093529181526113649161135f60648361103b565b611620565b565b6005545f52600860205260405f20600581019060ff8254166115cc5780548015928315611431575b611428935060017fffffffffffffffffffffffffffffffffffffffffffffffffffffffffffffff008254161790554260068301557fdd61069809ef8d608890acc089aa62bd79a1b97490fdb3b8c9c5b96caeeb45c56005549283926114206002830154926004600382015491015490604051948594859094939260609260808301968352602083015260408201520152565b0390a261100e565b60055542600655565b611f40938483029483860414811715610fe15761271080950460028501556105dc948584029584870414821715610fe1578060038601960486556101f49182850292858404141715610fe157600485019104815573ffffffffffffffffffffffffffffffffffffffff90604051957f981b24d0000000000000000000000000000000000000000000000000000000008752426004880152602087602481867f0000000000000000000000000000000000000000000000000000000000000000165afa805f91611596575b611428985061158c57505f60018701555b5480611557575b505480611522575b505061138e565b61155091600254167f00000000000000000000000000000000000000000000000000000000000000006112fd565b5f8061151b565b6115869083600354167f00000000000000000000000000000000000000000000000000000000000000006112fd565b5f611513565b600187015561150c565b90506020883d6020116115c4575b816115b16020938361103b565b81010312610179576114289751906114fb565b3d91506115a4565b5050565b73ffffffffffffffffffffffffffffffffffffffff5f541633036115f057565b60246040517f118cdaa7000000000000000000000000000000000000000000000000000000008152336004820152fd5b5f73ffffffffffffffffffffffffffffffffffffffff8192169260208151910182855af13d1561170f573d67ffffffffffffffff811161107c576116a4916040519161169460207fffffffffffffffffffffffffffffffffffffffffffffffffffffffffffffffe0601f840116018461103b565b82523d5f602084013e5b8361171b565b80519081151591826116eb575b50506116ba5750565b602490604051907f5274afe70000000000000000000000000000000000000000000000000000000082526004820152fd5b81925090602091810103126101795760200151801590811503610179575f806116b1565b6116a49060609061169e565b9061175a575080511561173057805190602001fd5b60046040517f1425ea42000000000000000000000000000000000000000000000000000000008152fd5b815115806117b2575b61176b575090565b60249073ffffffffffffffffffffffffffffffffffffffff604051917f9996b315000000000000000000000000000000000000000000000000000000008352166004820152fd5b50803b1561176356fea2646970667358221220e9800f91052947c6cd9330cdd5981f71aef2a80b98cf77ff8bab13e829b8fa6764736f6c63430008190033","linkReferences":{}},"methodIdentifiers":{"EPOCH_DURATION()":"a70b9f0c","PROTOCOL_FEE()":"0b4501fd","STAKERS_SHARE()":"8a8f048b","TREASURY_SHARE()":"32696174","andeToken()":"140f021c","claimRewards(uint256)":"0962ef79","claimedByEpoch(address,uint256)":"6859eebd","currentEpoch()":"76671808","depositMEV(uint256)":"13686822","emergencyWithdraw(address,address,uint256)":"e63ea408","epochStartTime()":"f60ca641","epochs(uint256)":"c6b61e4c","getCurrentEpochInfo()":"babc394f","getEpochData(uint256)":"859e7d32","mevCapturePaused()":"1d1ecaaa","owner()":"8da5cb5b","pendingRewards(address,uint256)":"6099ecb2","protocolFeeCollector()":"850a1501","renounceOwnership()":"715018a6","sequencer()":"5c1bba38","setMEVCapturePaused(bool)":"2ef54f41","settleEpoch()":"b6b385f7","transferOwnership(address)":"f2fde38b","treasury()":"61d027b3","updateProtocolFeeCollector(address)":"565b54ea","updateSequencer(address)":"43ae20a3","updateTreasury(address)":"7f51bb1f","userClaims(address)":"f0a3563c","votingEscrow()":"4f2bfe5b"},"id":168}