{"abi":[{"type":"constructor","inputs":[{"name":"_token","type":"address","internalType":"address"},{"name":"_voting_escrow","type":"address","internalType":"address"}],"stateMutability":"nonpayable"},{"type":"function","name":"WEEK","inputs":[],"outputs":[{"name":"","type":"uint256","internalType":"uint256"}],"stateMutability":"view"},{"type":"function","name":"add_gauge","inputs":[{"name":"_addr","type":"address","internalType":"address"},{"name":"_gauge_type","type":"int256","internalType":"int256"},{"name":"_weight","type":"uint256","internalType":"uint256"}],"outputs":[],"stateMutability":"nonpayable"},{"type":"function","name":"add_gauge_type","inputs":[{"name":"_name","type":"string","internalType":"string"}],"outputs":[],"stateMutability":"nonpayable"},{"type":"function","name":"changes_sum","inputs":[{"name":"","type":"int256","internalType":"int256"}],"outputs":[{"name":"","type":"uint256","internalType":"uint256"}],"stateMutability":"view"},{"type":"function","name":"changes_type_weight","inputs":[{"name":"","type":"int256","internalType":"int256"}],"outputs":[{"name":"","type":"uint256","internalType":"uint256"}],"stateMutability":"view"},{"type":"function","name":"changes_weight","inputs":[{"name":"","type":"address","internalType":"address"}],"outputs":[{"name":"","type":"uint256","internalType":"uint256"}],"stateMutability":"view"},{"type":"function","name":"gauge_relative_weight","inputs":[{"name":"_gauge_addr","type":"address","internalType":"address"}],"outputs":[{"name":"","type":"uint256","internalType":"uint256"}],"stateMutability":"view"},{"type":"function","name":"gauge_relative_weight_at","inputs":[{"name":"_gauge_addr","type":"address","internalType":"address"},{"name":"_time","type":"uint256","internalType":"uint256"}],"outputs":[{"name":"","type":"uint256","internalType":"uint256"}],"stateMutability":"view"},{"type":"function","name":"gauge_type_names","inputs":[{"name":"","type":"int256","internalType":"int256"}],"outputs":[{"name":"","type":"string","internalType":"string"}],"stateMutability":"view"},{"type":"function","name":"gauge_types","inputs":[{"name":"","type":"address","internalType":"address"}],"outputs":[{"name":"","type":"int256","internalType":"int256"}],"stateMutability":"view"},{"type":"function","name":"gauges","inputs":[{"name":"","type":"int256","internalType":"int256"}],"outputs":[{"name":"","type":"address","internalType":"address"}],"stateMutability":"view"},{"type":"function","name":"get_gauge_weight","inputs":[{"name":"_gauge_addr","type":"address","internalType":"address"}],"outputs":[{"name":"","type":"uint256","internalType":"uint256"}],"stateMutability":"view"},{"type":"function","name":"last_user_vote","inputs":[{"name":"","type":"address","internalType":"address"},{"name":"","type":"address","internalType":"address"}],"outputs":[{"name":"","type":"uint256","internalType":"uint256"}],"stateMutability":"view"},{"type":"function","name":"n_gauge_types","inputs":[],"outputs":[{"name":"","type":"int256","internalType":"int256"}],"stateMutability":"view"},{"type":"function","name":"n_gauges","inputs":[],"outputs":[{"name":"","type":"int256","internalType":"int256"}],"stateMutability":"view"},{"type":"function","name":"points_sum","inputs":[{"name":"","type":"int256","internalType":"int256"}],"outputs":[{"name":"","type":"uint256","internalType":"uint256"}],"stateMutability":"view"},{"type":"function","name":"points_type_weight","inputs":[{"name":"","type":"int256","internalType":"int256"},{"name":"","type":"uint256","internalType":"uint256"}],"outputs":[{"name":"bias","type":"int256","internalType":"int256"},{"name":"slope","type":"int256","internalType":"int256"},{"name":"ts","type":"uint256","internalType":"uint256"}],"stateMutability":"view"},{"type":"function","name":"points_weight","inputs":[{"name":"","type":"address","internalType":"address"},{"name":"","type":"uint256","internalType":"uint256"}],"outputs":[{"name":"bias","type":"int256","internalType":"int256"},{"name":"slope","type":"int256","internalType":"int256"},{"name":"ts","type":"uint256","internalType":"uint256"}],"stateMutability":"view"},{"type":"function","name":"token","inputs":[],"outputs":[{"name":"","type":"address","internalType":"address"}],"stateMutability":"view"},{"type":"function","name":"user_total_weight","inputs":[{"name":"","type":"address","internalType":"address"}],"outputs":[{"name":"","type":"uint256","internalType":"uint256"}],"stateMutability":"view"},{"type":"function","name":"user_vote_weight","inputs":[{"name":"","type":"address","internalType":"address"},{"name":"","type":"address","internalType":"address"}],"outputs":[{"name":"","type":"uint256","internalType":"uint256"}],"stateMutability":"view"},{"type":"function","name":"vote","inputs":[{"name":"_gauge_addr","type":"address","internalType":"address"},{"name":"_user_weight","type":"uint256","internalType":"uint256"}],"outputs":[],"stateMutability":"nonpayable"},{"type":"function","name":"vote_user_power","inputs":[{"name":"","type":"address","internalType":"address"}],"outputs":[{"name":"","type":"uint256","internalType":"uint256"}],"stateMutability":"view"},{"type":"function","name":"vote_user_slopes","inputs":[{"name":"","type":"address","internalType":"address"}],"outputs":[{"name":"slope","type":"uint256","internalType":"uint256"},{"name":"power","type":"uint256","internalType":"uint256"},{"name":"end","type":"uint256","internalType":"uint256"}],"stateMutability":"view"},{"type":"function","name":"voting_escrow","inputs":[],"outputs":[{"name":"","type":"address","internalType":"contract IVotingEscrow"}],"stateMutability":"view"},{"type":"event","name":"AddGauge","inputs":[{"name":"addr","type":"address","indexed":true,"internalType":"address"},{"name":"gauge_type","type":"int256","indexed":false,"internalType":"int256"},{"name":"weight","type":"uint256","indexed":false,"internalType":"uint256"}],"anonymous":false},{"type":"event","name":"NewGaugeWeight","inputs":[{"name":"gauge","type":"address","indexed":true,"internalType":"address"},{"name":"time","type":"uint256","indexed":false,"internalType":"uint256"},{"name":"weight","type":"uint256","indexed":false,"internalType":"uint256"},{"name":"total_weight","type":"uint256","indexed":false,"internalType":"uint256"}],"anonymous":false},{"type":"event","name":"VoteForGauge","inputs":[{"name":"user","type":"address","indexed":true,"internalType":"address"},{"name":"gauge","type":"address","indexed":true,"internalType":"address"},{"name":"weight","type":"uint256","indexed":false,"internalType":"uint256"}],"anonymous":false},{"type":"error","name":"ReentrancyGuardReentrantCall","inputs":[]}],"bytecode":{"object":"0x60c03461009557601f6110de38819003918201601f19168301916001600160401b0383118484101761009957808492604094855283398101031261009557610052602061004b836100ad565b92016100ad565b9060015f5560805260018060a01b031660a0525f6001555f60035560405161101c90816100c2823960805181610146015260a05181818161025f01526108a20152f35b5f80fd5b634e487b7160e01b5f52604160045260245ffd5b51906001600160a01b03821682036100955756fe6080604090808252600480361015610015575f80fd5b5f3560e01c9182630672bcb914610d5c5750816328d8835414610d1357816335eec7cd14610cec5781633f9095b714610cb7578163411e74b514610c805781634a80309514610c495781634e791a3a14610c225781635f74bbde1461082e5781636207d8661461080757816372eec3e3146107d05781637e418fa01461078757816381c134fa146106a15781638a630f6d146105595781638d71850f146103a45781639fba03a114610386578163a4349c2f14610331578163bbd702ac1461030a578163bdfe1210146102db578163cc207b101461028e578163dfe050311461024b578163e93841d01461022d578163ed506a53146101fe57508063edba527314610196578063f4359ce5146101795763fc0c546a14610133575f80fd5b34610175575f36600319011261017557517f00000000000000000000000000000000000000000000000000000000000000006001600160a01b03168152602090f35b5f80fd5b5034610175575f366003190112610175576020905162093a808152f35b50346101755780600319360112610175576001600160a01b036101b7610d7f565b165f52600b602052805f206024355f52602052805f20906101fa825491600260018501549401549051938493846040919493926060820195825260208201520152565b0390f35b823461017557602036600319011261017557602091355f526005825260018060a01b03815f2054169051908152f35b8234610175575f366003190112610175576020906003549051908152f35b8234610175575f36600319011261017557517f00000000000000000000000000000000000000000000000000000000000000006001600160a01b03168152602090f35b8234610175576020366003190112610175576060906001600160a01b036102b3610d7f565b165f526006602052805f20805491600260018301549201549181519384526020840152820152f35b82346101755780600319360112610175576020906103036102fa610d7f565b60243590610e91565b9051908152f35b823461017557602036600319011261017557602091355f5260108252805f20549051908152f35b905034610175578160031936011261017557355f52600d602052805f206024355f52602052805f20906101fa825491600260018501549401549051938493846040919493926060820195825260208201520152565b8234610175575f366003190112610175576020906001549051908152f35b823461017557602090816003193601126101755782359267ffffffffffffffff808511610175573660238601121561017557848201359481861161054657601f19958451916103fa8789601f8501160184610e13565b818352366024838301011161017557815f9260248993018386013783010152600194855494855f52600282525f20938251938411610533575061043d8454610dab565b601f81116104ed575b508096601f841160011461048a57505061047b949582915f9261047f575b50505f19600383901b1c191690851b179055610e5a565b9055005b015190508680610464565b839792919716845f52875f20975f5b8281106104d8575050918697918461047b989594106104c0575b505050811b019055610e5a565b01515f1960f88460031b161c191690558680806104b3565b848401518a5598880198938101938101610499565b845f52815f20601f850160051c810191838610610529575b601f0160051c019087905b82811061051e575050610446565b5f8155018790610510565b9091508190610505565b604190634e487b7160e01b5f525260245ffd5b604183634e487b7160e01b5f525260245ffd5b823461017557606036600319011261017557610573610d7f565b906024359160018060a01b031691825f52602093808552825f205461065e575f82121580610653575b1561061757936106057f07f3042f2098415e82e4b275df92e89aebfd16bc99e11f9cc45ff264d8afffc5949560035490815f5260058452855f20886bffffffffffffffffffffffff60a01b8254161790556105f685610e5a565b90885f528452855f2055610e5a565b600355825191825260443590820152a2005b825162461bcd60e51b8152908101859052601660248201527547433a20496e76616c6964206761756765207479706560501b6044820152606490fd5b50600154821261059c565b825162461bcd60e51b8152908101859052601c60248201527f47433a20476175676520616c72656164792072656769737465726564000000006044820152606490fd5b8234610175576020918260031936011261017557355f5260028252805f2081519083825f83546106d081610dab565b90818452848401956001916001811690815f146107665750600114610728575b5050506106ff92500383610e13565b825193849281845251918280928501528484015e5f828201840152601f01601f19168101030190f35b5f90815285812095935091905b81831061074e5750889450508201016106ff88806106f0565b85548884018501529485019487945091830191610735565b925050506106ff94925060ff19168552151560051b820101869288806106f0565b82346101755780600319360112610175576020906107a3610d7f565b6107ab610d95565b9060018060a01b038091165f52600a8452825f2091165f528252805f20549051908152f35b8234610175576020366003190112610175576020906001600160a01b036107f5610d7f565b165f52600c8252805f20549051908152f35b823461017557602036600319011261017557602090610303610827610d7f565b4290610e91565b905034610175578160031936011261017557610848610d7f565b9160249283359160025f5414610c135760025f5560018060a01b0380921693845f526020928184525f838120541315610bd25761271090818611610b905790848893928551948580926370a0823160e01b825233878301527f0000000000000000000000000000000000000000000000000000000000000000165afa928315610b86575f93610b57575b508215610b1557335f5260088552835f20875f528552835f2054335f5260098652845f2054908103908111610b0357868101809111610b0357818111610ac157335f5260098652845f205560088552835f20875f52855285845f205581855261093d845f2054610e35565b90335f5260068652845f2090600286519261095784610de3565b805484526001810154898501520154868301528785028581048903610aaf570493600286519161098683610de3565b86835288830190815287830190428252335f5260068a52885f20935184555160018401555191015551808403935f821281861281169082871390151617610a9d5703610a00575b505050907fa682006ea01634628cb5f976779a33f6224b5d14038948fda7160c6c2048b44391519283523392a360015f55005b62093a8091824204838102938185041490151715610a8b5750867fa682006ea01634628cb5f976779a33f6224b5d14038948fda7160c6c2048b443969798505f52600b8552835f20825f5285526001845f2001610a5e848254610e76565b90555f52600d8452825f20905f528352610a7f6001835f2001918254610e76565b90558493925f806109cd565b60118991634e487b7160e01b5f52525ffd5b89601185634e487b7160e01b5f52525ffd5b8a601186634e487b7160e01b5f52525ffd5b845162461bcd60e51b8152808401879052601e818b01527f47433a20546f74616c20776569676874206578636565647320313030303000006044820152606490fd5b88601184634e487b7160e01b5f52525ffd5b835162461bcd60e51b8152808301869052601c818a01527f47433a20596f752068617665206e6f20766f74696e6720706f776572000000006044820152606490fd5b9092508481813d8311610b7f575b610b6f8183610e13565b810103126101755751915f6108d2565b503d610b65565b84513d5f823e3d90fd5b835162461bcd60e51b8152808401869052601b818a01527f47433a20576569676874206d757374206265203c3d20313030303000000000006044820152606490fd5b5060188684606494519362461bcd60e51b85528401528201527f47433a204761756765206e6f74207265676973746572656400000000000000006044820152fd5b51633ee5aeb560e01b81528390fd5b823461017557602036600319011261017557602090610303610c42610d7f565b4290610f8a565b8234610175576020366003190112610175576020906001600160a01b03610c6e610d7f565b165f5260098252805f20549051908152f35b8234610175576020366003190112610175576020906001600160a01b03610ca5610d7f565b165f5260078252805f20549051908152f35b8234610175576020366003190112610175576020916001600160a01b03610cdc610d7f565b165f528252805f20549051908152f35b823461017557602036600319011261017557602091355f52600e8252805f20549051908152f35b8234610175578060031936011261017557602090610d2f610d7f565b610d37610d95565b9060018060a01b038091165f5260088452825f2091165f528252805f20549051908152f35b833461017557602036600319011261017557602092355f52600f83525f20548152f35b600435906001600160a01b038216820361017557565b602435906001600160a01b038216820361017557565b90600182811c92168015610dd9575b6020831014610dc557565b634e487b7160e01b5f52602260045260245ffd5b91607f1691610dba565b6060810190811067ffffffffffffffff821117610dff57604052565b634e487b7160e01b5f52604160045260245ffd5b90601f8019910116810190811067ffffffffffffffff821117610dff57604052565b905f198201918213600116610e4657565b634e487b7160e01b5f52601160045260245ffd5b9060018201915f600184129112908015821691151617610e4657565b9190915f8382019384129112908015821691151617610e4657565b90428111610f50576001600160a01b0382165f90815260046020526040902054610eba90610e35565b915f8312610f495781610ecc91610f8a565b9162093a80809204828102928184041490151715610e46575f52600d60205260405f20905f5260205260405f2090604051610f0681610de3565b825481526040600260018501549485602085015201549101528115610f4357670de0b6b3a764000090818102918183041490151715610e46570490565b50505f90565b5050505f90565b60405162461bcd60e51b815260206004820152601260248201527147433a2054696d6520696e2066757475726560701b6044820152606490fd5b62093a80809204828102928184041490151715610e465760018060a01b03165f52600b60205260405f20905f5260205260405f20604051610fca81610de3565b815481526040600260018401549384602085015201549101529056fea264697066735822122042fe15188fb07361f16d65c73877605b9b8f78e28aa42c6aaa0e48525ac1b06064736f6c63430008190033","linkReferences":{}},"methodIdentifiers":{"WEEK()":"f4359ce5","add_gauge(address,int256,uint256)":"8a630f6d","add_gauge_type(string)":"8d71850f","changes_sum(int256)":"bbd702ac","changes_type_weight(int256)":"35eec7cd","changes_weight(address)":"72eec3e3","gauge_relative_weight(address)":"6207d866","gauge_relative_weight_at(address,uint256)":"bdfe1210","gauge_type_names(int256)":"81c134fa","gauge_types(address)":"3f9095b7","gauges(int256)":"ed506a53","get_gauge_weight(address)":"4e791a3a","last_user_vote(address,address)":"7e418fa0","n_gauge_types()":"9fba03a1","n_gauges()":"e93841d0","points_sum(int256)":"0672bcb9","points_type_weight(int256,uint256)":"a4349c2f","points_weight(address,uint256)":"edba5273","token()":"fc0c546a","user_total_weight(address)":"4a803095","user_vote_weight(address,address)":"28d88354","vote(address,uint256)":"5f74bbde","vote_user_power(address)":"411e74b5","vote_user_slopes(address)":"cc207b10","voting_escrow()":"dfe05031"},"id":132}