{"abi":[{"type":"constructor","inputs":[{"name":"_token","type":"address","internalType":"address"},{"name":"_voting_escrow","type":"address","internalType":"address"}],"stateMutability":"nonpayable"},{"type":"function","name":"WEEK","inputs":[],"outputs":[{"name":"","type":"uint256","internalType":"uint256"}],"stateMutability":"view"},{"type":"function","name":"add_gauge","inputs":[{"name":"_addr","type":"address","internalType":"address"},{"name":"_gauge_type","type":"int256","internalType":"int256"},{"name":"_weight","type":"uint256","internalType":"uint256"}],"outputs":[],"stateMutability":"nonpayable"},{"type":"function","name":"add_gauge_type","inputs":[{"name":"_name","type":"string","internalType":"string"}],"outputs":[],"stateMutability":"nonpayable"},{"type":"function","name":"changes_sum","inputs":[{"name":"","type":"int256","internalType":"int256"}],"outputs":[{"name":"","type":"uint256","internalType":"uint256"}],"stateMutability":"view"},{"type":"function","name":"changes_type_weight","inputs":[{"name":"","type":"int256","internalType":"int256"}],"outputs":[{"name":"","type":"uint256","internalType":"uint256"}],"stateMutability":"view"},{"type":"function","name":"changes_weight","inputs":[{"name":"","type":"address","internalType":"address"}],"outputs":[{"name":"","type":"uint256","internalType":"uint256"}],"stateMutability":"view"},{"type":"function","name":"gauge_relative_weight","inputs":[{"name":"_gauge_addr","type":"address","internalType":"address"}],"outputs":[{"name":"","type":"uint256","internalType":"uint256"}],"stateMutability":"view"},{"type":"function","name":"gauge_relative_weight_at","inputs":[{"name":"_gauge_addr","type":"address","internalType":"address"},{"name":"_time","type":"uint256","internalType":"uint256"}],"outputs":[{"name":"","type":"uint256","internalType":"uint256"}],"stateMutability":"view"},{"type":"function","name":"gauge_type_names","inputs":[{"name":"","type":"int256","internalType":"int256"}],"outputs":[{"name":"","type":"string","internalType":"string"}],"stateMutability":"view"},{"type":"function","name":"gauge_types","inputs":[{"name":"","type":"address","internalType":"address"}],"outputs":[{"name":"","type":"int256","internalType":"int256"}],"stateMutability":"view"},{"type":"function","name":"gauges","inputs":[{"name":"","type":"int256","internalType":"int256"}],"outputs":[{"name":"","type":"address","internalType":"address"}],"stateMutability":"view"},{"type":"function","name":"get_gauge_weight","inputs":[{"name":"_gauge_addr","type":"address","internalType":"address"}],"outputs":[{"name":"","type":"uint256","internalType":"uint256"}],"stateMutability":"view"},{"type":"function","name":"last_user_vote","inputs":[{"name":"","type":"address","internalType":"address"},{"name":"","type":"address","internalType":"address"}],"outputs":[{"name":"","type":"uint256","internalType":"uint256"}],"stateMutability":"view"},{"type":"function","name":"n_gauge_types","inputs":[],"outputs":[{"name":"","type":"int256","internalType":"int256"}],"stateMutability":"view"},{"type":"function","name":"n_gauges","inputs":[],"outputs":[{"name":"","type":"int256","internalType":"int256"}],"stateMutability":"view"},{"type":"function","name":"points_sum","inputs":[{"name":"","type":"int256","internalType":"int256"}],"outputs":[{"name":"","type":"uint256","internalType":"uint256"}],"stateMutability":"view"},{"type":"function","name":"points_type_weight","inputs":[{"name":"","type":"int256","internalType":"int256"},{"name":"","type":"uint256","internalType":"uint256"}],"outputs":[{"name":"bias","type":"int256","internalType":"int256"},{"name":"slope","type":"int256","internalType":"int256"},{"name":"ts","type":"uint256","internalType":"uint256"}],"stateMutability":"view"},{"type":"function","name":"points_weight","inputs":[{"name":"","type":"address","internalType":"address"},{"name":"","type":"uint256","internalType":"uint256"}],"outputs":[{"name":"bias","type":"int256","internalType":"int256"},{"name":"slope","type":"int256","internalType":"int256"},{"name":"ts","type":"uint256","internalType":"uint256"}],"stateMutability":"view"},{"type":"function","name":"token","inputs":[],"outputs":[{"name":"","type":"address","internalType":"address"}],"stateMutability":"view"},{"type":"function","name":"user_total_weight","inputs":[{"name":"","type":"address","internalType":"address"}],"outputs":[{"name":"","type":"uint256","internalType":"uint256"}],"stateMutability":"view"},{"type":"function","name":"user_vote_weight","inputs":[{"name":"","type":"address","internalType":"address"},{"name":"","type":"address","internalType":"address"}],"outputs":[{"name":"","type":"uint256","internalType":"uint256"}],"stateMutability":"view"},{"type":"function","name":"vote","inputs":[{"name":"_gauge_addr","type":"address","internalType":"address"},{"name":"_user_weight","type":"uint256","internalType":"uint256"}],"outputs":[],"stateMutability":"nonpayable"},{"type":"function","name":"vote_user_power","inputs":[{"name":"","type":"address","internalType":"address"}],"outputs":[{"name":"","type":"uint256","internalType":"uint256"}],"stateMutability":"view"},{"type":"function","name":"vote_user_slopes","inputs":[{"name":"","type":"address","internalType":"address"}],"outputs":[{"name":"slope","type":"uint256","internalType":"uint256"},{"name":"power","type":"uint256","internalType":"uint256"},{"name":"end","type":"uint256","internalType":"uint256"}],"stateMutability":"view"},{"type":"function","name":"voting_escrow","inputs":[],"outputs":[{"name":"","type":"address","internalType":"contract IVotingEscrow"}],"stateMutability":"view"},{"type":"event","name":"AddGauge","inputs":[{"name":"addr","type":"address","indexed":true,"internalType":"address"},{"name":"gauge_type","type":"int256","indexed":false,"internalType":"int256"},{"name":"weight","type":"uint256","indexed":false,"internalType":"uint256"}],"anonymous":false},{"type":"event","name":"NewGaugeWeight","inputs":[{"name":"gauge","type":"address","indexed":true,"internalType":"address"},{"name":"time","type":"uint256","indexed":false,"internalType":"uint256"},{"name":"weight","type":"uint256","indexed":false,"internalType":"uint256"},{"name":"total_weight","type":"uint256","indexed":false,"internalType":"uint256"}],"anonymous":false},{"type":"event","name":"VoteForGauge","inputs":[{"name":"user","type":"address","indexed":true,"internalType":"address"},{"name":"gauge","type":"address","indexed":true,"internalType":"address"},{"name":"weight","type":"uint256","indexed":false,"internalType":"uint256"}],"anonymous":false},{"type":"error","name":"ReentrancyGuardReentrantCall","inputs":[]}],"bytecode":{"object":"0x60c03461009557601f6114b238819003918201601f19168301916001600160401b0383118484101761009957808492604094855283398101031261009557610052602061004b836100ad565b92016100ad565b9060015f5560805260018060a01b031660a0525f6001555f6003556040516113f090816100c282396080518161015e015260a05181818161029f0152610a800152f35b5f80fd5b634e487b7160e01b5f52604160045260245ffd5b51906001600160a01b03821682036100955756fe6080604090808252600480361015610015575f80fd5b5f3560e01c9182630672bcb9146110515750816328d8835414610ffa57816335eec7cd14610fd35781633f9095b714610f91578163411e74b514610f4d5781634a80309514610f095781634e791a3a14610ee25781635f74bbde146109e55781636207d866146109be57816372eec3e31461097a5781637e418fa01461092357816381c134fa146107c85781638a630f6d146106285781638d71850f146103e65781639fba03a1146103c8578163a4349c2f14610373578163bbd702ac1461034c578163bdfe12101461031d578163cc207b10146102c3578163dfe0503114610273578163e93841d014610255578163ed506a531461021857508063edba5273146101a3578063f4359ce5146101865763fc0c546a14610133575f80fd5b34610182575f600319360112610182576020905173ffffffffffffffffffffffffffffffffffffffff7f0000000000000000000000000000000000000000000000000000000000000000168152f35b5f80fd5b5034610182575f600319360112610182576020905162093a808152f35b503461018257806003193601126101825773ffffffffffffffffffffffffffffffffffffffff6101d1611074565b165f52600b602052805f206024355f52602052805f2090610214825491600260018501549401549051938493846040919493926060820195825260208201520152565b0390f35b823461018257602060031936011261018257602091355f526005825273ffffffffffffffffffffffffffffffffffffffff815f2054169051908152f35b8234610182575f600319360112610182576020906003549051908152f35b8234610182575f600319360112610182576020905173ffffffffffffffffffffffffffffffffffffffff7f0000000000000000000000000000000000000000000000000000000000000000168152f35b82346101825760206003193601126101825760609073ffffffffffffffffffffffffffffffffffffffff6102f5611074565b165f526006602052805f20805491600260018301549201549181519384526020840152820152f35b823461018257806003193601126101825760209061034561033c611074565b60243590611229565b9051908152f35b823461018257602060031936011261018257602091355f5260108252805f20549051908152f35b905034610182578160031936011261018257355f52600d602052805f206024355f52602052805f2090610214825491600260018501549401549051938493846040919493926060820195825260208201520152565b8234610182575f600319360112610182576020906001549051908152f35b823461018257602090816003193601126101825782359267ffffffffffffffff80851161018257366023860112156101825784820135948186116105fc577fffffffffffffffffffffffffffffffffffffffffffffffffffffffffffffffe09584519161045a8789601f8501160184611154565b818352366024838301011161018257815f9260248993018386013783010152600194855494855f52600282525f209382519384116105d0575061049d84546110ba565b601f811161058a575b508096601f84116001146105085750506104f9949582915f926104fd575b50507fffffffffffffffffffffffffffffffffffffffffffffffffffffffffffffffff82871b9260031b1c19161790556111f2565b9055005b0151905086806104c4565b839792919716845f52875f20975f5b82811061057557505091869791846104f99895941061053e575b505050811b0190556111f2565b01517fffffffffffffffffffffffffffffffffffffffffffffffffffffffffffffffff60f88460031b161c19169055868080610531565b848401518a5598880198938101938101610517565b845f52815f20601f850160051c8101918386106105c6575b601f0160051c019087905b8281106105bb5750506104a6565b5f81550187906105ad565b90915081906105a2565b6041907f4e487b71000000000000000000000000000000000000000000000000000000005f525260245ffd5b6041837f4e487b71000000000000000000000000000000000000000000000000000000005f525260245ffd5b823461018257606060031936011261018257610642611074565b9073ffffffffffffffffffffffffffffffffffffffff602435921691825f52602093808552825f205461076c575f82121580610761575b1561070557936106f37f07f3042f2098415e82e4b275df92e89aebfd16bc99e11f9cc45ff264d8afffc5949560035490815f5260058452855f20887fffffffffffffffffffffffff00000000000000000000000000000000000000008254161790556106e4856111f2565b90885f528452855f20556111f2565b600355825191825260443590820152a2005b606490858451917f08c379a0000000000000000000000000000000000000000000000000000000008352820152601660248201527f47433a20496e76616c69642067617567652074797065000000000000000000006044820152fd5b506001548212610679565b606490858451917f08c379a0000000000000000000000000000000000000000000000000000000008352820152601c60248201527f47433a20476175676520616c72656164792072656769737465726564000000006044820152fd5b8234610182576020918260031936011261018257355f5260028252805f20815190815f8583546107f7816110ba565b90818552828501956001916001811690815f146108c8575060011461086f575b505050509161084b601f927fffffffffffffffffffffffffffffffffffffffffffffffffffffffffffffffe0940385611154565b845195869481865251918280928701528686015e5f85828601015201168101030190f35b5f908152838120939450925b8284106108b25750505082010185827fffffffffffffffffffffffffffffffffffffffffffffffffffffffffffffffe0601f610817565b805488850186015287955092840192810161087b565b7fffffffffffffffffffffffffffffffffffffffffffffffffffffffffffffff00168852505050151560051b830101905085827fffffffffffffffffffffffffffffffffffffffffffffffffffffffffffffffe0601f610817565b823461018257806003193601126101825760209061093f611074565b610947611097565b9073ffffffffffffffffffffffffffffffffffffffff8091165f52600a8452825f2091165f528252805f20549051908152f35b82346101825760206003193601126101825760209073ffffffffffffffffffffffffffffffffffffffff6109ac611074565b165f52600c8252805f20549051908152f35b8234610182576020600319360112610182576020906103456109de611074565b4290611229565b9050346101825781600319360112610182576109ff611074565b9160249283359160025f5414610eba5760025f5573ffffffffffffffffffffffffffffffffffffffff80921693845f526020928184525f838120541315610e5f5761271090818611610e045790848893928551948580927f70a0823100000000000000000000000000000000000000000000000000000000825233878301527f0000000000000000000000000000000000000000000000000000000000000000165afa928315610dfa575f93610dcb575b508215610d7057335f5260088552835f20875f528552835f2054335f5260098652845f2054908103908111610d4557868101809111610d4557818111610cea57335f5260098652845f205560088552835f20875f52855285845f2055818552610b1b845f2054611195565b90335f5260068652845f20906002865192610b358461110b565b805484526001810154898501520154868301528785028581048903610cbf5704936002865191610b648361110b565b86835288830190815287830190428252335f5260068a52885f20935184555160018401555191015551808403935f821281861281169082871390151617610c945703610bde575b505050907fa682006ea01634628cb5f976779a33f6224b5d14038948fda7160c6c2048b44391519283523392a360015f55005b62093a8091824204838102938185041490151715610c695750867fa682006ea01634628cb5f976779a33f6224b5d14038948fda7160c6c2048b443969798505f52600b8552835f20825f5285526001845f2001610c3c84825461120e565b90555f52600d8452825f20905f528352610c5d6001835f200191825461120e565b90558493925f80610bab565b601189917f4e487b71000000000000000000000000000000000000000000000000000000005f52525ffd5b896011857f4e487b71000000000000000000000000000000000000000000000000000000005f52525ffd5b8a6011867f4e487b71000000000000000000000000000000000000000000000000000000005f52525ffd5b606483601e8b898951937f08c379a00000000000000000000000000000000000000000000000000000000085528401528201527f47433a20546f74616c20776569676874206578636565647320313030303000006044820152fd5b886011847f4e487b71000000000000000000000000000000000000000000000000000000005f52525ffd5b606482601c8a888851937f08c379a00000000000000000000000000000000000000000000000000000000085528401528201527f47433a20596f752068617665206e6f20766f74696e6720706f776572000000006044820152fd5b9092508481813d8311610df3575b610de38183611154565b810103126101825751915f610ab0565b503d610dd9565b84513d5f823e3d90fd5b606483601b8a888851937f08c379a00000000000000000000000000000000000000000000000000000000085528401528201527f47433a20576569676874206d757374206265203c3d20313030303000000000006044820152fd5b506018868460649451937f08c379a00000000000000000000000000000000000000000000000000000000085528401528201527f47433a204761756765206e6f74207265676973746572656400000000000000006044820152fd5b8390517f3ee5aeb5000000000000000000000000000000000000000000000000000000008152fd5b823461018257602060031936011261018257602090610345610f02611074565b4290611350565b82346101825760206003193601126101825760209073ffffffffffffffffffffffffffffffffffffffff610f3b611074565b165f5260098252805f20549051908152f35b82346101825760206003193601126101825760209073ffffffffffffffffffffffffffffffffffffffff610f7f611074565b165f5260078252805f20549051908152f35b82346101825760206003193601126101825760209173ffffffffffffffffffffffffffffffffffffffff610fc3611074565b165f528252805f20549051908152f35b823461018257602060031936011261018257602091355f52600e8252805f20549051908152f35b8234610182578060031936011261018257602090611016611074565b61101e611097565b9073ffffffffffffffffffffffffffffffffffffffff8091165f5260088452825f2091165f528252805f20549051908152f35b833461018257602060031936011261018257602092355f52600f83525f20548152f35b6004359073ffffffffffffffffffffffffffffffffffffffff8216820361018257565b6024359073ffffffffffffffffffffffffffffffffffffffff8216820361018257565b90600182811c92168015611101575b60208310146110d457565b7f4e487b71000000000000000000000000000000000000000000000000000000005f52602260045260245ffd5b91607f16916110c9565b6060810190811067ffffffffffffffff82111761112757604052565b7f4e487b71000000000000000000000000000000000000000000000000000000005f52604160045260245ffd5b90601f7fffffffffffffffffffffffffffffffffffffffffffffffffffffffffffffffe0910116810190811067ffffffffffffffff82111761112757604052565b907fffffffffffffffffffffffffffffffffffffffffffffffffffffffffffffffff82019182136001166111c557565b7f4e487b71000000000000000000000000000000000000000000000000000000005f52601160045260245ffd5b9060018201915f6001841291129080158216911516176111c557565b9190915f83820193841291129080158216911516176111c557565b904281116112f25773ffffffffffffffffffffffffffffffffffffffff82165f52600460205261125c60405f2054611195565b915f83126112eb578161126e91611350565b9162093a808092048281029281840414901517156111c5575f52600d60205260405f20905f5260205260405f20906040516112a88161110b565b8254815260406002600185015494856020850152015491015281156112e557670de0b6b3a7640000908181029181830414901517156111c5570490565b50505f90565b5050505f90565b60646040517f08c379a000000000000000000000000000000000000000000000000000000000815260206004820152601260248201527f47433a2054696d6520696e2066757475726500000000000000000000000000006044820152fd5b62093a808092048281029281840414901517156111c55773ffffffffffffffffffffffffffffffffffffffff165f52600b60205260405f20905f5260205260405f2060405161139e8161110b565b815481526040600260018401549384602085015201549101529056fea2646970667358221220d3fde0ad842eb68bad0800d49bdb40119b4ce8d66a30b78ee942606138556d7564736f6c63430008190033","linkReferences":{}},"methodIdentifiers":{"WEEK()":"f4359ce5","add_gauge(address,int256,uint256)":"8a630f6d","add_gauge_type(string)":"8d71850f","changes_sum(int256)":"bbd702ac","changes_type_weight(int256)":"35eec7cd","changes_weight(address)":"72eec3e3","gauge_relative_weight(address)":"6207d866","gauge_relative_weight_at(address,uint256)":"bdfe1210","gauge_type_names(int256)":"81c134fa","gauge_types(address)":"3f9095b7","gauges(int256)":"ed506a53","get_gauge_weight(address)":"4e791a3a","last_user_vote(address,address)":"7e418fa0","n_gauge_types()":"9fba03a1","n_gauges()":"e93841d0","points_sum(int256)":"0672bcb9","points_type_weight(int256,uint256)":"a4349c2f","points_weight(address,uint256)":"edba5273","token()":"fc0c546a","user_total_weight(address)":"4a803095","user_vote_weight(address,address)":"28d88354","vote(address,uint256)":"5f74bbde","vote_user_power(address)":"411e74b5","vote_user_slopes(address)":"cc207b10","voting_escrow()":"dfe05031"},"id":132}