{"abi":[{"type":"constructor","inputs":[],"stateMutability":"nonpayable"},{"type":"receive","stateMutability":"payable"},{"type":"function","name":"BALLOT_TYPEHASH","inputs":[],"outputs":[{"name":"","type":"bytes32","internalType":"bytes32"}],"stateMutability":"view"},{"type":"function","name":"CLOCK_MODE","inputs":[],"outputs":[{"name":"","type":"string","internalType":"string"}],"stateMutability":"view"},{"type":"function","name":"COUNTING_MODE","inputs":[],"outputs":[{"name":"","type":"string","internalType":"string"}],"stateMutability":"pure"},{"type":"function","name":"DEFAULT_ADMIN_ROLE","inputs":[],"outputs":[{"name":"","type":"bytes32","internalType":"bytes32"}],"stateMutability":"view"},{"type":"function","name":"EXTENDED_BALLOT_TYPEHASH","inputs":[],"outputs":[{"name":"","type":"bytes32","internalType":"bytes32"}],"stateMutability":"view"},{"type":"function","name":"MAX_STAKING_BONUS_BPS","inputs":[],"outputs":[{"name":"","type":"uint256","internalType":"uint256"}],"stateMutability":"view"},{"type":"function","name":"UPGRADE_INTERFACE_VERSION","inputs":[],"outputs":[{"name":"","type":"string","internalType":"string"}],"stateMutability":"view"},{"type":"function","name":"cancel","inputs":[{"name":"targets","type":"address[]","internalType":"address[]"},{"name":"values","type":"uint256[]","internalType":"uint256[]"},{"name":"calldatas","type":"bytes[]","internalType":"bytes[]"},{"name":"descriptionHash","type":"bytes32","internalType":"bytes32"}],"outputs":[{"name":"","type":"uint256","internalType":"uint256"}],"stateMutability":"nonpayable"},{"type":"function","name":"castVote","inputs":[{"name":"proposalId","type":"uint256","internalType":"uint256"},{"name":"support","type":"uint8","internalType":"uint8"}],"outputs":[{"name":"","type":"uint256","internalType":"uint256"}],"stateMutability":"nonpayable"},{"type":"function","name":"castVoteBySig","inputs":[{"name":"proposalId","type":"uint256","internalType":"uint256"},{"name":"support","type":"uint8","internalType":"uint8"},{"name":"voter","type":"address","internalType":"address"},{"name":"signature","type":"bytes","internalType":"bytes"}],"outputs":[{"name":"","type":"uint256","internalType":"uint256"}],"stateMutability":"nonpayable"},{"type":"function","name":"castVoteWithReason","inputs":[{"name":"proposalId","type":"uint256","internalType":"uint256"},{"name":"support","type":"uint8","internalType":"uint8"},{"name":"reason","type":"string","internalType":"string"}],"outputs":[{"name":"","type":"uint256","internalType":"uint256"}],"stateMutability":"nonpayable"},{"type":"function","name":"castVoteWithReasonAndParams","inputs":[{"name":"proposalId","type":"uint256","internalType":"uint256"},{"name":"support","type":"uint8","internalType":"uint8"},{"name":"reason","type":"string","internalType":"string"},{"name":"params","type":"bytes","internalType":"bytes"}],"outputs":[{"name":"","type":"uint256","internalType":"uint256"}],"stateMutability":"nonpayable"},{"type":"function","name":"castVoteWithReasonAndParamsBySig","inputs":[{"name":"proposalId","type":"uint256","internalType":"uint256"},{"name":"support","type":"uint8","internalType":"uint8"},{"name":"voter","type":"address","internalType":"address"},{"name":"reason","type":"string","internalType":"string"},{"name":"params","type":"bytes","internalType":"bytes"},{"name":"signature","type":"bytes","internalType":"bytes"}],"outputs":[{"name":"","type":"uint256","internalType":"uint256"}],"stateMutability":"nonpayable"},{"type":"function","name":"clock","inputs":[],"outputs":[{"name":"","type":"uint48","internalType":"uint48"}],"stateMutability":"view"},{"type":"function","name":"eip712Domain","inputs":[],"outputs":[{"name":"fields","type":"bytes1","internalType":"bytes1"},{"name":"name","type":"string","internalType":"string"},{"name":"version","type":"string","internalType":"string"},{"name":"chainId","type":"uint256","internalType":"uint256"},{"name":"verifyingContract","type":"address","internalType":"address"},{"name":"salt","type":"bytes32","internalType":"bytes32"},{"name":"extensions","type":"uint256[]","internalType":"uint256[]"}],"stateMutability":"view"},{"type":"function","name":"execute","inputs":[{"name":"targets","type":"address[]","internalType":"address[]"},{"name":"values","type":"uint256[]","internalType":"uint256[]"},{"name":"calldatas","type":"bytes[]","internalType":"bytes[]"},{"name":"descriptionHash","type":"bytes32","internalType":"bytes32"}],"outputs":[{"name":"","type":"uint256","internalType":"uint256"}],"stateMutability":"payable"},{"type":"function","name":"getCurrentVotes","inputs":[{"name":"account","type":"address","internalType":"address"}],"outputs":[{"name":"","type":"uint256","internalType":"uint256"}],"stateMutability":"view"},{"type":"function","name":"getRoleAdmin","inputs":[{"name":"role","type":"bytes32","internalType":"bytes32"}],"outputs":[{"name":"","type":"bytes32","internalType":"bytes32"}],"stateMutability":"view"},{"type":"function","name":"getStakingInfo","inputs":[{"name":"account","type":"address","internalType":"address"}],"outputs":[{"name":"","type":"tuple","internalType":"struct IAndeNativeStaking.StakeInfo","components":[{"name":"amount","type":"uint256","internalType":"uint256"},{"name":"level","type":"uint8","internalType":"uint8"},{"name":"lockPeriod","type":"uint8","internalType":"uint8"},{"name":"lockUntil","type":"uint256","internalType":"uint256"},{"name":"votingPower","type":"uint256","internalType":"uint256"},{"name":"rewardDebt","type":"uint256","internalType":"uint256"},{"name":"stakedAt","type":"uint256","internalType":"uint256"},{"name":"isSequencer","type":"bool","internalType":"bool"},{"name":"lastStakeBlock","type":"uint256","internalType":"uint256"},{"name":"lastStakeTimestamp","type":"uint256","internalType":"uint256"}]}],"stateMutability":"view"},{"type":"function","name":"getVotes","inputs":[{"name":"account","type":"address","internalType":"address"},{"name":"timepoint","type":"uint256","internalType":"uint256"}],"outputs":[{"name":"","type":"uint256","internalType":"uint256"}],"stateMutability":"view"},{"type":"function","name":"getVotesWithParams","inputs":[{"name":"account","type":"address","internalType":"address"},{"name":"timepoint","type":"uint256","internalType":"uint256"},{"name":"params","type":"bytes","internalType":"bytes"}],"outputs":[{"name":"","type":"uint256","internalType":"uint256"}],"stateMutability":"view"},{"type":"function","name":"getVotesWithStaking","inputs":[{"name":"account","type":"address","internalType":"address"},{"name":"timepoint","type":"uint256","internalType":"uint256"}],"outputs":[{"name":"baseVotes","type":"uint256","internalType":"uint256"},{"name":"stakingBonus","type":"uint256","internalType":"uint256"},{"name":"totalVotes","type":"uint256","internalType":"uint256"}],"stateMutability":"view"},{"type":"function","name":"grantRole","inputs":[{"name":"role","type":"bytes32","internalType":"bytes32"},{"name":"account","type":"address","internalType":"address"}],"outputs":[],"stateMutability":"nonpayable"},{"type":"function","name":"hasRole","inputs":[{"name":"role","type":"bytes32","internalType":"bytes32"},{"name":"account","type":"address","internalType":"address"}],"outputs":[{"name":"","type":"bool","internalType":"bool"}],"stateMutability":"view"},{"type":"function","name":"hasVoted","inputs":[{"name":"proposalId","type":"uint256","internalType":"uint256"},{"name":"account","type":"address","internalType":"address"}],"outputs":[{"name":"","type":"bool","internalType":"bool"}],"stateMutability":"view"},{"type":"function","name":"hashProposal","inputs":[{"name":"targets","type":"address[]","internalType":"address[]"},{"name":"values","type":"uint256[]","internalType":"uint256[]"},{"name":"calldatas","type":"bytes[]","internalType":"bytes[]"},{"name":"descriptionHash","type":"bytes32","internalType":"bytes32"}],"outputs":[{"name":"","type":"uint256","internalType":"uint256"}],"stateMutability":"pure"},{"type":"function","name":"initialize","inputs":[{"name":"_token","type":"address","internalType":"contract IVotes"},{"name":"_stakingContract","type":"address","internalType":"contract IAndeNativeStaking"},{"name":"_timelock","type":"address","internalType":"contract AndeTimelockController"},{"name":"_votingPeriod","type":"uint32","internalType":"uint32"},{"name":"_votingDelay","type":"uint48","internalType":"uint48"},{"name":"_proposalThreshold","type":"uint256","internalType":"uint256"},{"name":"_emergencyCouncil","type":"address","internalType":"address"}],"outputs":[],"stateMutability":"nonpayable"},{"type":"function","name":"name","inputs":[],"outputs":[{"name":"","type":"string","internalType":"string"}],"stateMutability":"view"},{"type":"function","name":"nonces","inputs":[{"name":"owner","type":"address","internalType":"address"}],"outputs":[{"name":"","type":"uint256","internalType":"uint256"}],"stateMutability":"view"},{"type":"function","name":"onERC1155BatchReceived","inputs":[{"name":"","type":"address","internalType":"address"},{"name":"","type":"address","internalType":"address"},{"name":"","type":"uint256[]","internalType":"uint256[]"},{"name":"","type":"uint256[]","internalType":"uint256[]"},{"name":"","type":"bytes","internalType":"bytes"}],"outputs":[{"name":"","type":"bytes4","internalType":"bytes4"}],"stateMutability":"nonpayable"},{"type":"function","name":"onERC1155Received","inputs":[{"name":"","type":"address","internalType":"address"},{"name":"","type":"address","internalType":"address"},{"name":"","type":"uint256","internalType":"uint256"},{"name":"","type":"uint256","internalType":"uint256"},{"name":"","type":"bytes","internalType":"bytes"}],"outputs":[{"name":"","type":"bytes4","internalType":"bytes4"}],"stateMutability":"nonpayable"},{"type":"function","name":"onERC721Received","inputs":[{"name":"","type":"address","internalType":"address"},{"name":"","type":"address","internalType":"address"},{"name":"","type":"uint256","internalType":"uint256"},{"name":"","type":"bytes","internalType":"bytes"}],"outputs":[{"name":"","type":"bytes4","internalType":"bytes4"}],"stateMutability":"nonpayable"},{"type":"function","name":"proposalDeadline","inputs":[{"name":"proposalId","type":"uint256","internalType":"uint256"}],"outputs":[{"name":"","type":"uint256","internalType":"uint256"}],"stateMutability":"view"},{"type":"function","name":"proposalEta","inputs":[{"name":"proposalId","type":"uint256","internalType":"uint256"}],"outputs":[{"name":"","type":"uint256","internalType":"uint256"}],"stateMutability":"view"},{"type":"function","name":"proposalNeedsQueuing","inputs":[{"name":"proposalId","type":"uint256","internalType":"uint256"}],"outputs":[{"name":"","type":"bool","internalType":"bool"}],"stateMutability":"view"},{"type":"function","name":"proposalProposer","inputs":[{"name":"proposalId","type":"uint256","internalType":"uint256"}],"outputs":[{"name":"","type":"address","internalType":"address"}],"stateMutability":"view"},{"type":"function","name":"proposalSnapshot","inputs":[{"name":"proposalId","type":"uint256","internalType":"uint256"}],"outputs":[{"name":"","type":"uint256","internalType":"uint256"}],"stateMutability":"view"},{"type":"function","name":"proposalThreshold","inputs":[],"outputs":[{"name":"","type":"uint256","internalType":"uint256"}],"stateMutability":"view"},{"type":"function","name":"proposalVotes","inputs":[{"name":"proposalId","type":"uint256","internalType":"uint256"}],"outputs":[{"name":"againstVotes","type":"uint256","internalType":"uint256"},{"name":"forVotes","type":"uint256","internalType":"uint256"},{"name":"abstainVotes","type":"uint256","internalType":"uint256"}],"stateMutability":"view"},{"type":"function","name":"propose","inputs":[{"name":"targets","type":"address[]","internalType":"address[]"},{"name":"values","type":"uint256[]","internalType":"uint256[]"},{"name":"calldatas","type":"bytes[]","internalType":"bytes[]"},{"name":"description","type":"string","internalType":"string"}],"outputs":[{"name":"","type":"uint256","internalType":"uint256"}],"stateMutability":"nonpayable"},{"type":"function","name":"proxiableUUID","inputs":[],"outputs":[{"name":"","type":"bytes32","internalType":"bytes32"}],"stateMutability":"view"},{"type":"function","name":"queue","inputs":[{"name":"targets","type":"address[]","internalType":"address[]"},{"name":"values","type":"uint256[]","internalType":"uint256[]"},{"name":"calldatas","type":"bytes[]","internalType":"bytes[]"},{"name":"descriptionHash","type":"bytes32","internalType":"bytes32"}],"outputs":[{"name":"","type":"uint256","internalType":"uint256"}],"stateMutability":"nonpayable"},{"type":"function","name":"quorum","inputs":[{"name":"timepoint","type":"uint256","internalType":"uint256"}],"outputs":[{"name":"","type":"uint256","internalType":"uint256"}],"stateMutability":"view"},{"type":"function","name":"relay","inputs":[{"name":"target","type":"address","internalType":"address"},{"name":"value","type":"uint256","internalType":"uint256"},{"name":"data","type":"bytes","internalType":"bytes"}],"outputs":[],"stateMutability":"payable"},{"type":"function","name":"renounceRole","inputs":[{"name":"role","type":"bytes32","internalType":"bytes32"},{"name":"callerConfirmation","type":"address","internalType":"address"}],"outputs":[],"stateMutability":"nonpayable"},{"type":"function","name":"revokeRole","inputs":[{"name":"role","type":"bytes32","internalType":"bytes32"},{"name":"account","type":"address","internalType":"address"}],"outputs":[],"stateMutability":"nonpayable"},{"type":"function","name":"setProposalThreshold","inputs":[{"name":"newProposalThreshold","type":"uint256","internalType":"uint256"}],"outputs":[],"stateMutability":"nonpayable"},{"type":"function","name":"setVotingDelay","inputs":[{"name":"newVotingDelay","type":"uint48","internalType":"uint48"}],"outputs":[],"stateMutability":"nonpayable"},{"type":"function","name":"setVotingPeriod","inputs":[{"name":"newVotingPeriod","type":"uint32","internalType":"uint32"}],"outputs":[],"stateMutability":"nonpayable"},{"type":"function","name":"stakingContract","inputs":[],"outputs":[{"name":"","type":"address","internalType":"contract IAndeNativeStaking"}],"stateMutability":"view"},{"type":"function","name":"state","inputs":[{"name":"proposalId","type":"uint256","internalType":"uint256"}],"outputs":[{"name":"","type":"uint8","internalType":"enum IGovernor.ProposalState"}],"stateMutability":"view"},{"type":"function","name":"supportsInterface","inputs":[{"name":"interfaceId","type":"bytes4","internalType":"bytes4"}],"outputs":[{"name":"","type":"bool","internalType":"bool"}],"stateMutability":"view"},{"type":"function","name":"timelock","inputs":[],"outputs":[{"name":"","type":"address","internalType":"address"}],"stateMutability":"view"},{"type":"function","name":"token","inputs":[],"outputs":[{"name":"","type":"address","internalType":"contract IERC5805"}],"stateMutability":"view"},{"type":"function","name":"updateStakingContract","inputs":[{"name":"newStakingContract","type":"address","internalType":"contract IAndeNativeStaking"}],"outputs":[],"stateMutability":"nonpayable"},{"type":"function","name":"updateTimelock","inputs":[{"name":"newTimelock","type":"address","internalType":"contract TimelockControllerUpgradeable"}],"outputs":[],"stateMutability":"nonpayable"},{"type":"function","name":"upgradeToAndCall","inputs":[{"name":"newImplementation","type":"address","internalType":"address"},{"name":"data","type":"bytes","internalType":"bytes"}],"outputs":[],"stateMutability":"payable"},{"type":"function","name":"version","inputs":[],"outputs":[{"name":"","type":"string","internalType":"string"}],"stateMutability":"view"},{"type":"function","name":"votingDelay","inputs":[],"outputs":[{"name":"","type":"uint256","internalType":"uint256"}],"stateMutability":"view"},{"type":"function","name":"votingPeriod","inputs":[],"outputs":[{"name":"","type":"uint256","internalType":"uint256"}],"stateMutability":"view"},{"type":"event","name":"EIP712DomainChanged","inputs":[],"anonymous":false},{"type":"event","name":"Initialized","inputs":[{"name":"version","type":"uint64","indexed":false,"internalType":"uint64"}],"anonymous":false},{"type":"event","name":"ProposalCanceled","inputs":[{"name":"proposalId","type":"uint256","indexed":false,"internalType":"uint256"}],"anonymous":false},{"type":"event","name":"ProposalCreated","inputs":[{"name":"proposalId","type":"uint256","indexed":false,"internalType":"uint256"},{"name":"proposer","type":"address","indexed":false,"internalType":"address"},{"name":"targets","type":"address[]","indexed":false,"internalType":"address[]"},{"name":"values","type":"uint256[]","indexed":false,"internalType":"uint256[]"},{"name":"signatures","type":"string[]","indexed":false,"internalType":"string[]"},{"name":"calldatas","type":"bytes[]","indexed":false,"internalType":"bytes[]"},{"name":"voteStart","type":"uint256","indexed":false,"internalType":"uint256"},{"name":"voteEnd","type":"uint256","indexed":false,"internalType":"uint256"},{"name":"description","type":"string","indexed":false,"internalType":"string"}],"anonymous":false},{"type":"event","name":"ProposalExecuted","inputs":[{"name":"proposalId","type":"uint256","indexed":false,"internalType":"uint256"}],"anonymous":false},{"type":"event","name":"ProposalQueued","inputs":[{"name":"proposalId","type":"uint256","indexed":false,"internalType":"uint256"},{"name":"etaSeconds","type":"uint256","indexed":false,"internalType":"uint256"}],"anonymous":false},{"type":"event","name":"ProposalThresholdSet","inputs":[{"name":"oldProposalThreshold","type":"uint256","indexed":false,"internalType":"uint256"},{"name":"newProposalThreshold","type":"uint256","indexed":false,"internalType":"uint256"}],"anonymous":false},{"type":"event","name":"RoleAdminChanged","inputs":[{"name":"role","type":"bytes32","indexed":true,"internalType":"bytes32"},{"name":"previousAdminRole","type":"bytes32","indexed":true,"internalType":"bytes32"},{"name":"newAdminRole","type":"bytes32","indexed":true,"internalType":"bytes32"}],"anonymous":false},{"type":"event","name":"RoleGranted","inputs":[{"name":"role","type":"bytes32","indexed":true,"internalType":"bytes32"},{"name":"account","type":"address","indexed":true,"internalType":"address"},{"name":"sender","type":"address","indexed":true,"internalType":"address"}],"anonymous":false},{"type":"event","name":"RoleRevoked","inputs":[{"name":"role","type":"bytes32","indexed":true,"internalType":"bytes32"},{"name":"account","type":"address","indexed":true,"internalType":"address"},{"name":"sender","type":"address","indexed":true,"internalType":"address"}],"anonymous":false},{"type":"event","name":"StakingContractUpdated","inputs":[{"name":"oldContract","type":"address","indexed":true,"internalType":"address"},{"name":"newContract","type":"address","indexed":true,"internalType":"address"}],"anonymous":false},{"type":"event","name":"TimelockChange","inputs":[{"name":"oldTimelock","type":"address","indexed":false,"internalType":"address"},{"name":"newTimelock","type":"address","indexed":false,"internalType":"address"}],"anonymous":false},{"type":"event","name":"Upgraded","inputs":[{"name":"implementation","type":"address","indexed":true,"internalType":"address"}],"anonymous":false},{"type":"event","name":"VoteCast","inputs":[{"name":"voter","type":"address","indexed":true,"internalType":"address"},{"name":"proposalId","type":"uint256","indexed":false,"internalType":"uint256"},{"name":"support","type":"uint8","indexed":false,"internalType":"uint8"},{"name":"weight","type":"uint256","indexed":false,"internalType":"uint256"},{"name":"reason","type":"string","indexed":false,"internalType":"string"}],"anonymous":false},{"type":"event","name":"VoteCastWithParams","inputs":[{"name":"voter","type":"address","indexed":true,"internalType":"address"},{"name":"proposalId","type":"uint256","indexed":false,"internalType":"uint256"},{"name":"support","type":"uint8","indexed":false,"internalType":"uint8"},{"name":"weight","type":"uint256","indexed":false,"internalType":"uint256"},{"name":"reason","type":"string","indexed":false,"internalType":"string"},{"name":"params","type":"bytes","indexed":false,"internalType":"bytes"}],"anonymous":false},{"type":"event","name":"VotingDelaySet","inputs":[{"name":"oldVotingDelay","type":"uint256","indexed":false,"internalType":"uint256"},{"name":"newVotingDelay","type":"uint256","indexed":false,"internalType":"uint256"}],"anonymous":false},{"type":"event","name":"VotingPeriodSet","inputs":[{"name":"oldVotingPeriod","type":"uint256","indexed":false,"internalType":"uint256"},{"name":"newVotingPeriod","type":"uint256","indexed":false,"internalType":"uint256"}],"anonymous":false},{"type":"event","name":"VotingPowerQueried","inputs":[{"name":"account","type":"address","indexed":true,"internalType":"address"},{"name":"blockNumber","type":"uint256","indexed":false,"internalType":"uint256"},{"name":"baseVotes","type":"uint256","indexed":false,"internalType":"uint256"},{"name":"stakingBonus","type":"uint256","indexed":false,"internalType":"uint256"},{"name":"totalVotes","type":"uint256","indexed":false,"internalType":"uint256"}],"anonymous":false},{"type":"error","name":"AccessControlBadConfirmation","inputs":[]},{"type":"error","name":"AccessControlUnauthorizedAccount","inputs":[{"name":"account","type":"address","internalType":"address"},{"name":"neededRole","type":"bytes32","internalType":"bytes32"}]},{"type":"error","name":"AddressEmptyCode","inputs":[{"name":"target","type":"address","internalType":"address"}]},{"type":"error","name":"ERC1967InvalidImplementation","inputs":[{"name":"implementation","type":"address","internalType":"address"}]},{"type":"error","name":"ERC1967NonPayable","inputs":[]},{"type":"error","name":"FailedInnerCall","inputs":[]},{"type":"error","name":"GovernorAlreadyCastVote","inputs":[{"name":"voter","type":"address","internalType":"address"}]},{"type":"error","name":"GovernorAlreadyQueuedProposal","inputs":[{"name":"proposalId","type":"uint256","internalType":"uint256"}]},{"type":"error","name":"GovernorDisabledDeposit","inputs":[]},{"type":"error","name":"GovernorInsufficientProposerVotes","inputs":[{"name":"proposer","type":"address","internalType":"address"},{"name":"votes","type":"uint256","internalType":"uint256"},{"name":"threshold","type":"uint256","internalType":"uint256"}]},{"type":"error","name":"GovernorInvalidProposalLength","inputs":[{"name":"targets","type":"uint256","internalType":"uint256"},{"name":"calldatas","type":"uint256","internalType":"uint256"},{"name":"values","type":"uint256","internalType":"uint256"}]},{"type":"error","name":"GovernorInvalidSignature","inputs":[{"name":"voter","type":"address","internalType":"address"}]},{"type":"error","name":"GovernorInvalidVoteType","inputs":[]},{"type":"error","name":"GovernorInvalidVotingPeriod","inputs":[{"name":"votingPeriod","type":"uint256","internalType":"uint256"}]},{"type":"error","name":"GovernorNonexistentProposal","inputs":[{"name":"proposalId","type":"uint256","internalType":"uint256"}]},{"type":"error","name":"GovernorNotQueuedProposal","inputs":[{"name":"proposalId","type":"uint256","internalType":"uint256"}]},{"type":"error","name":"GovernorOnlyExecutor","inputs":[{"name":"account","type":"address","internalType":"address"}]},{"type":"error","name":"GovernorOnlyProposer","inputs":[{"name":"account","type":"address","internalType":"address"}]},{"type":"error","name":"GovernorQueueNotImplemented","inputs":[]},{"type":"error","name":"GovernorRestrictedProposer","inputs":[{"name":"proposer","type":"address","internalType":"address"}]},{"type":"error","name":"GovernorUnexpectedProposalState","inputs":[{"name":"proposalId","type":"uint256","internalType":"uint256"},{"name":"current","type":"uint8","internalType":"enum IGovernor.ProposalState"},{"name":"expectedStates","type":"bytes32","internalType":"bytes32"}]},{"type":"error","name":"InvalidAccountNonce","inputs":[{"name":"account","type":"address","internalType":"address"},{"name":"currentNonce","type":"uint256","internalType":"uint256"}]},{"type":"error","name":"InvalidGovernanceToken","inputs":[]},{"type":"error","name":"InvalidInitialization","inputs":[]},{"type":"error","name":"InvalidStakingContract","inputs":[]},{"type":"error","name":"NotInitializing","inputs":[]},{"type":"error","name":"QueueEmpty","inputs":[]},{"type":"error","name":"QueueFull","inputs":[]},{"type":"error","name":"SafeCastOverflowedUintDowncast","inputs":[{"name":"bits","type":"uint8","internalType":"uint8"},{"name":"value","type":"uint256","internalType":"uint256"}]},{"type":"error","name":"UUPSUnauthorizedCallContext","inputs":[]},{"type":"error","name":"UUPSUnsupportedProxiableUUID","inputs":[{"name":"slot","type":"bytes32","internalType":"bytes32"}]}],"bytecode":{"object":"0x60a0806040523460c857306080527ff0c57e16840df040f15088dc2f81fe391c3923bec73e23a9662efc9c229c6a009081549060ff8260401c1660b957506001600160401b036002600160401b0319828216016075575b604051614d8590816100cd823960805181818161119701526112bc0152f35b6001600160401b031990911681179091556040519081527fc7f505b2f371ae2175ee4913f4499e1f2633a7b5936321eed1cdaeb6115181d290602090a15f80806056565b63f92ee8a960e01b8152600490fd5b5f80fdfe60806040526004361015610022575b3615610018575f80fd5b610020613093565b005b5f3560e01c806301ffc9a7146103e157806302a251a3146103dc57806306fdde03146103d7578063143489d0146103d2578063150b7a02146103cd578063160cbed7146103c8578063248a9ca3146103c35780632656227d146103be5780632d63f693146103b95780632f2ff15d146103b45780632fe3e261146103af5780633347e4d6146103aa57806336568abe146103a55780633932abb1146103a05780633e4f49e61461039b5780634385963214610396578063452115d6146103915780634bf5d7e91461038c5780634f1ef2861461038757806352d1902d14610382578063544ffc9c1461037d57806354fd4d501461037857806356781388146103735780635b8d0e0d1461036e5780635f398a1414610369578063744ab38b146103645780637770a5bd1461035f578063790518871461035a5780637b3c71d3146103555780637d5e81e2146103505780637ecebe001461034b57806384b0196e146103465780638ff262e31461034157806391d148541461033c57806391ddadf4146103375780639a802a6d14610332578063a217fddf1461032d578063a890c91014610328578063a9a9529414610323578063aa4704f31461031e578063ab58fb8e14610319578063ad3cb1cc14610314578063b4b5ea571461030f578063b58131b01461030a578063bc197c8114610305578063c01f9e3714610300578063c28bc2fa146102fb578063c59057e4146102f6578063d33219b4146102f1578063d547741f146102ec578063dd4e2ba5146102e7578063deaaa7cc146102e2578063e540d01d146102dd578063e603704a146102d8578063eb9019d4146102d3578063ece40cc1146102ce578063ee99205c146102c9578063f23a6e61146102c4578063f8ce560a146102bf5763fc0c546a0361000e5761243a565b61241c565b6123a5565b61237e565b61235a565b6122e8565b612179565b612147565b6120fa565b61209d565b612051565b61201d565b612001565b611f96565b611f78565b611ed8565b611e9d565b611e76565b611e31565b611dde565b611ce4565b611c51565b611bcc565b611bb2565b611ac2565b611a98565b611a46565b61190d565b61183d565b611751565b6116b8565b61165f565b611632565b61152a565b61150e565b61149b565b61140f565b611390565b61136a565b611313565b6112aa565b611155565b611126565b611059565b610ff8565b610fcb565b610f6a565b610f1f565b610e9c565b610e62565b610e16565b610dd5565b610c48565b610c0f565b6109bc565b610771565b6105d1565b6104e1565b610477565b346104695760203660031901126104695760043563ffffffff60e01b8116809103610469576020906332a2ad4360e11b8114908115610458575b811561042d575b506040519015158152f35b637965db0b60e01b811491508115610447575b505f610422565b6301ffc9a760e01b1490505f610440565b630271189760e51b8114915061041b565b5f80fd5b5f91031261046957565b34610469575f36600319011261046957602063ffffffff5f80516020614bf08339815191525460301c16604051908152f35b805180835260209291819084018484015e5f828201840152601f01601f1916010190565b9060206104de9281815201906104a9565b90565b34610469575f366003190112610469576040515f5f80516020614d1083398151915280549061050f8261246e565b808552916020916001918281169081156105a4575060011461054c575b6105488661053c818803826106d5565b604051918291826104cd565b0390f35b5f90815293507fda13dda7583a39a3cd73e8830529c760837228fa4683752c823b17e10548aad55b8385106105915750505050810160200161053c826105485f61052c565b8054868601840152938201938101610574565b90508695506105489693506020925061053c94915060ff191682840152151560051b82010192935f61052c565b34610469576020366003190112610469576004355f525f80516020614bd0833981519152602052602060018060a01b0360405f205416604051908152f35b6001600160a01b0381160361046957565b634e487b7160e01b5f52604160045260245ffd5b6001600160401b03811161064757604052565b610620565b61014081019081106001600160401b0382111761064757604052565b602081019081106001600160401b0382111761064757604052565b60c081019081106001600160401b0382111761064757604052565b604081019081106001600160401b0382111761064757604052565b61010081019081106001600160401b0382111761064757604052565b90601f801991011681019081106001600160401b0382111761064757604052565b604051906107038261064c565b565b6001600160401b03811161064757601f01601f191660200190565b92919261072c82610705565b9161073a60405193846106d5565b829481845281830111610469578281602093845f960137010152565b9080601f83011215610469578160206104de93359101610720565b346104695760803660031901126104695761078d60043561060f565b61079860243561060f565b6064356001600160401b038111610469576107b7903690600401610756565b505f80516020614cf0833981519152546001600160a01b031630036107e857604051630a85bd0160e11b8152602090f35b604051637485328f60e11b8152600490fd5b6001600160401b0381116106475760051b60200190565b9080601f8301121561046957602090823561082b816107fa565b9361083960405195866106d5565b81855260208086019260051b82010192831161046957602001905b828210610862575050505090565b83809183356108708161060f565b815201910190610854565b9080601f83011215610469576020908235610895816107fa565b936108a360405195866106d5565b81855260208086019260051b82010192831161046957602001905b8282106108cc575050505090565b813581529083019083016108be565b81601f82011215610469578035916020916108f5846107fa565b9361090360405195866106d5565b808552838086019160051b8301019280841161046957848301915b84831061092e5750505050505090565b82356001600160401b03811161046957869161094f84848094890101610756565b81520192019161091e565b6080600319820112610469576001600160401b0391600435838111610469578261098691600401610811565b92602435818111610469578361099e9160040161087b565b92604435918211610469576109b5916004016108db565b9060643590565b34610469576109ca3661095a565b9092916109d982858386612daf565b926109e3846130d2565b505f80516020614cf08339815191528054909590610a11906001600160a01b03165b6001600160a01b031690565b9260409687519063793d064960e11b825260209081836004818a5afa968715610bb457610a7a988b945f99610be6575b50935163b1c5f42760e01b81523060601b6bffffffffffffffffffffffff19169094189883918591829081908d8b8b8e60048601613f23565b03915afa8015610bb457610aac93610a05935f92610bb9575b5050610a9e8a612625565b55546001600160a01b031690565b90813b15610469575f8094610ad7878b51998a97889687956308f2a0bb60e41b875260048701613f68565b03925af1908115610bb457610afb92610af692610b9b575b504261290e565b61452e565b65ffffffffffff811615610b8a57917f9a2e42fd6722813d69113e7d0079d3d940171428df7373df9c7f7617cfda2892610b7984610b5b610548966001610b4188612652565b019065ffffffffffff1665ffffffffffff19825416179055565b835185815265ffffffffffff90911660208201529081906040820190565b0390a1519081529081906020820190565b8251634844252360e11b8152600490fd5b80610ba8610bae92610634565b8061046d565b5f610aef565b612699565b610bd89250803d10610bdf575b610bd081836106d5565b8101906128cf565b5f80610a93565b503d610bc6565b87919950918689610c048795863d8811610bdf57610bd081836106d5565b9b9350505091610a41565b34610469576020366003190112610469576004355f525f80516020614cd08339815191526020526020600160405f200154604051908152f35b610c513661095a565b610c6081838587959697612daf565b92610c6a84613124565b50610c8a610c7785612652565b805460ff60f01b1916600160f01b179055565b5f80516020614cf083398151915280546001600160a01b039691949087163003610d68575b926105489692610cc392610cd49588613fb5565b91543092166001600160a01b031690565b141580610d37575b610d1d575b6040518181527f712ae1383f79ac853f8d882153778e0260ef8f03b504e2866e0593e04d2b291f90602090a16040519081529081906020820190565b610d325f5f80516020614cb083398151915255565b610ce1565b50610d63610d5f5f80516020614cb0833981519152546001600160801b0381169060801c1490565b1590565b610cdc565b9391959094925f5b8551811015610dc55760019030610d9a610a05610d8d848b612680565b516001600160a01b031690565b14610da6575b01610d70565b610dc0610db3828b612680565b5160208151910120613176565b610da0565b5090959294919390929190610caf565b34610469576020366003190112610469576004355f525f80516020614bd0833981519152602052602065ffffffffffff60405f205460a01c16604051908152f35b3461046957604036600319011261046957610020602435600435610e398261060f565b805f525f80516020614cd0833981519152602052610e5d600160405f20015461324f565b613348565b34610469575f3660031901126104695760206040517f3e83946653575f9a39005e1545185629e92736b7528ab20ca3816f315424a8118152f35b3461046957602036600319011261046957600435610eb98161060f565b610ec16133e3565b6001600160a01b03908116908115610f0d575f54826001600160601b0360a01b8216175f55167f7042586b23181180eb30b4798702d7a0233b7fc2551e89806770e8e5d9392e6a5f80a3005b6040516307b18df360e31b8152600490fd5b3461046957604036600319011261046957602435610f3c8161060f565b336001600160a01b03821603610f585761002090600435613461565b60405163334bd91960e11b8152600490fd5b34610469575f36600319011261046957602065ffffffffffff5f80516020614bf08339815191525416604051908152f35b634e487b7160e01b5f52602160045260245ffd5b60081115610fb957565b610f9b565b906008821015610fb95752565b34610469576020366003190112610469576020610fe9600435613507565b610ff66040518092610fbe565bf35b3461046957604036600319011261046957602060ff61104d60243561101c8161060f565b6004355f525f80516020614c908339815191528452600360405f20019060018060a01b03165f5260205260405f2090565b54166040519015158152f35b34610469576110673661095a565b90611076828285879697612daf565b61107f81613507565b6008811015610fb95760018060ff83161b16156110f957505f9081525f80516020614bd083398151915260205260409020546001600160a01b031633036110dd57610548936110cd936141b0565b6040519081529081906020820190565b60405163233d98e360e01b8152336004820152602490fd5b0390fd5b9061111d606492604051926331b75e4d60e01b845260048401526024830190610fbe565b60016044820152fd5b34610469575f366003190112610469576105486111416126dd565b6040519182916020835260208301906104a9565b604036600319011261046957600480359061116f8261060f565b6024356001600160401b0381116104695761118d9036908301610756565b6001600160a01b037f0000000000000000000000000000000000000000000000000000000000000000811630811490811561128f575b5061127e5790602083926111d56131f9565b6040516352d1902d60e01b8152938491829088165afa5f928161125d575b50611221575050604051634c9c8ce360e01b81526001600160a01b0390921690820190815281906020010390fd5b83835f80516020614c7083398151915284036112415761002083836142e2565b604051632a87526960e21b815290810184815281906020010390fd5b61127791935060203d602011610bdf57610bd081836106d5565b915f6111f3565b60405163703e46dd60e11b81528390fd5b9050815f80516020614c70833981519152541614155f6111c3565b34610469575f366003190112610469577f00000000000000000000000000000000000000000000000000000000000000006001600160a01b031630036113015760206040515f80516020614c708339815191528152f35b60405163703e46dd60e11b8152600490fd5b34610469576020366003190112610469576004355f525f80516020614c9083398151915260205260405f20805461054860026001840154930154604051938493846040919493926060820195825260208201520152565b34610469575f3660031901126104695761054861114161279f565b60ff81160361046957565b346104695760403660031901126104695760206113da6024356113b281611385565b6040516113be81610668565b5f8152604051916113ce83610668565b5f8352336004356137ea565b604051908152f35b9181601f84011215610469578235916001600160401b038311610469576020838186019501011161046957565b346104695760c03660031901126104695760243561142c81611385565b604435906114398261060f565b6001600160401b03906064358281116104695761145a9036906004016113e2565b60843584811161046957611472903690600401610756565b9160a43594851161046957610548956114926110cd963690600401610756565b946004356127bc565b34610469576080366003190112610469576024356114b881611385565b6001600160401b0390604435828111610469576114d99036906004016113e2565b9091606435938411610469576115046113da936114fc6020963690600401610756565b933691610720565b90336004356137ea565b34610469575f36600319011261046957602060405161c3508152f35b34610469576040366003190112610469576004356115478161060f565b5f80516020614c5083398151915254604051630748d63560e31b81526001600160a01b038381166004830152602480359083015290929160209184916044918391165afa918215610bb4575f926115fd575b506115a3906138f5565b906115b86115b0826128f2565b612710900490565b82116115e9575b6105486115cc838361290e565b604051938493846040919493926060820195825260208201520152565b90506115f76115b0826128f2565b906115bf565b6115a391925061161b9060203d602011610bdf57610bd081836106d5565b9190611599565b65ffffffffffff81160361046957565b346104695760203660031901126104695761002060043561165281611622565b61165a6133e3565b61394c565b346104695760603660031901126104695760243561167c81611385565b6044356001600160401b038111610469576020916116ab6116a46113da9336906004016113e2565b3691610720565b604051916113ce83610668565b34610469576080366003190112610469576001600160401b03600435818111610469576116e9903690600401610811565b906024358181116104695761170290369060040161087b565b916044358281116104695761171b9036906004016108db565b6064359283116104695736602384011215610469576105489361174b6110cd943690602481600401359101610720565b9261291b565b346104695760203660031901126104695760043561176e8161060f565b60018060a01b03165f527f5ab42ced628888259c08ac98db1eb0cf702fc1501344311d8b100cd1bfe4bb00602052602060405f2054604051908152f35b9081518082526020808093019301915f5b8281106117ca575050505090565b8351855293810193928101926001016117bc565b91611813906118056104de97959693600f60f81b865260e0602087015260e08601906104a9565b9084820360408601526104a9565b60608301949094526001600160a01b031660808201525f60a082015280830360c0909101526117ab565b34610469575f366003190112610469577fa16a46d94261c7517cc8ff89f61c0ce93598e3c849801011dee649a6a557d1005415806118e4575b156118a7576118836124a6565b61188b612579565b90610548611897612a87565b60405193849330914691866117de565b60405162461bcd60e51b81526020600482015260156024820152741152540dcc4c8e88155b9a5b9a5d1a585b1a5e9959605a1b6044820152606490fd5b507fa16a46d94261c7517cc8ff89f61c0ce93598e3c849801011dee649a6a557d1015415611876565b346104695760803660031901126104695760243560043561192d82611385565b6044359161193a8361060f565b6064356001600160401b03811161046957610d5f61195f611a0a923690600401610756565b6001600160a01b0386165f9081527f5ab42ced628888259c08ac98db1eb0cf702fc1501344311d8b100cd1bfe4bb0060205260409020805460018101909155611a049060405160208101917ff2aad550cf55f045cb27e9c559f9889fdfb6e6cdaa032301d6ea397784ae51d7835288604083015260ff8816606083015260018060a01b038a16608083015260a082015260a081526119fc81610683565b519020613633565b866136b3565b611a2557906110cd9161054893611a1f611e1f565b92613618565b6040516394ab6c0760e01b81526001600160a01b0384166004820152602490fd5b3461046957604036600319011261046957602060ff61104d602435611a6a8161060f565b6004355f525f80516020614cd0833981519152845260405f209060018060a01b03165f5260205260405f2090565b34610469575f366003190112610469576020611ab2612a9d565b65ffffffffffff60405191168152f35b3461046957606036600319011261046957600435611adf8161060f565b6044356001600160401b03811161046957611afe903690600401610756565b505f80516020614c5083398151915254604051630748d63560e31b81526001600160a01b038381166004830152602480359083015290916020918391168180604481015b03915afa8015610bb457610548926110cd925f92611b8d575b50611b65906138f5565b90611b726115b0826128f2565b82111561290e579050611b876115b0826128f2565b9061290e565b611b65919250611bab9060203d602011610bdf57610bd081836106d5565b9190611b5b565b34610469575f3660031901126104695760206040515f8152f35b3461046957602036600319011261046957600435611be98161060f565b611bf16133e3565b5f80516020614cf08339815191528054604080516001600160a01b0380841682529094166020850181905292937f08f74ea46ef7894f65eabfb5e6e695de773a000b47c529ab559178069b2264019190a16001600160a01b031916179055005b3461046957602036600319011261046957602060405160018152f35b8151815260208083015160ff16908201526101408101929160408181015160ff1690830152606081015160608301526080810151608083015260a081015160a083015260c081015160c0830152611ccd60e082015160e084019015159052565b610100808201519083015261012080910151910152565b3461046957602036600319011261046957611d8d600435611d048161060f565b5f610120604051611d148161064c565b8281528260208201528260408201528260608201528260808201528260a08201528260c08201528260e0820152826101008201520152611d5d610a055f5460018060a01b031690565b60405163c345315360e01b81526001600160a01b0390921660048301526101409283918391829081906024820190565b03915afa908115610bb457610548925f92611db1575b505060405191829182611c6d565b611dd09250803d10611dd7575b611dc881836106d5565b810190612b3b565b5f80611da3565b503d611dbe565b34610469576020366003190112610469576004355f525f80516020614bd0833981519152602052602065ffffffffffff600160405f20015416604051908152f35b60405190611e2c82610668565b5f8252565b34610469575f36600319011261046957610548604051611e508161069e565b60058152640352e302e360dc1b60208201526040519182916020835260208301906104a9565b346104695760203660031901126104695760206113da600435611e988161060f565b612be5565b34610469575f3660031901126104695760207ed7616c8fe29c6c2fbe1d0c5bc8f2faa4c35b43746e70b24b4d532752affd0054604051908152f35b346104695760a036600319011261046957611ef460043561060f565b611eff60243561060f565b6001600160401b0360443581811161046957611f1f90369060040161087b565b5060643581811161046957611f3890369060040161087b565b5060843590811161046957611f51903690600401610756565b50610548611f5d612c83565b6040516001600160e01b031990911681529081906020820190565b346104695760203660031901126104695760206113da600435612cac565b606036600319011261046957600435611fae8161060f565b604435906001600160401b038211610469575f8091611fd46100209436906004016113e2565b90611fdd6133e3565b81604051928392833781018481520391602435905af1611ffb612ce8565b90613d33565b346104695760206113da6120143661095a565b92919091612daf565b34610469575f366003190112610469575f80516020614cf0833981519152546040516001600160a01b039091168152602090f35b34610469576040366003190112610469576100206024356004356120748261060f565b805f525f80516020614cd0833981519152602052612098600160405f20015461324f565b613461565b34610469575f366003190112610469576105486040516120bc8161069e565b602081527f737570706f72743d627261766f2671756f72756d3d666f722c6162737461696e60208201526040519182916020835260208301906104a9565b34610469575f3660031901126104695760206040517ff2aad550cf55f045cb27e9c559f9889fdfb6e6cdaa032301d6ea397784ae51d78152f35b6064359063ffffffff8216820361046957565b346104695760203660031901126104695760043563ffffffff8116810361046957610020906121746133e3565b613d40565b346104695760e0366003190112610469576004356121968161060f565b6024356121a28161060f565b604435916121af8361060f565b6121b7612134565b608435906121c482611622565b6121cf60c43561060f565b5f80516020614d3083398151915254946001600160401b0360ff8760401c16159616801590816122e0575b60011490816122d6575b1590816122cd575b506122bb575f80516020614d30833981519152805467ffffffffffffffff191660011790556122449486612292575b60a43594612e13565b61224a57005b5f80516020614d30833981519152805460ff60401b19169055604051600181527fc7f505b2f371ae2175ee4913f4499e1f2633a7b5936321eed1cdaeb6115181d290602090a1005b5f80516020614d30833981519152805460ff60401b19166801000000000000000017905561223b565b60405163f92ee8a960e01b8152600490fd5b9050155f61220c565b303b159150612204565b8791506121fa565b34610469576040366003190112610469576004356123058161060f565b5f60405161231281610668565b525f80516020614c5083398151915254604051630748d63560e31b81526001600160a01b03838116600483015260248035908301529091602091839116818060448101611b42565b34610469576020366003190112610469576123736133e3565b610020600435613ecf565b34610469575f366003190112610469575f546040516001600160a01b039091168152602090f35b346104695760a0366003190112610469576123c160043561060f565b6123cc60243561060f565b6084356001600160401b038111610469576123eb903690600401610756565b505f80516020614cf0833981519152546001600160a01b031630036107e85760405163f23a6e6160e01b8152602090f35b346104695760203660031901126104695760206113da600435613012565b34610469575f366003190112610469575f80516020614c50833981519152546040516001600160a01b039091168152602090f35b90600182811c9216801561249c575b602083101461248857565b634e487b7160e01b5f52602260045260245ffd5b91607f169161247d565b604051905f825f80516020614c10833981519152918254926124c78461246e565b8084529360209160019182811690811561255357506001146124f3575b505050610703925003836106d5565b5f9081527f42ad5d3e1f2e6e70edcf6d991b8a3023d3fca8047a131592f9edb9fd9b89d57d9590935091905b82841061253b57506107039450505081016020015f80806124e4565b8554888501830152948501948794509281019261251f565b925050506020925061070394915060ff191682840152151560051b8201015f80806124e4565b604051905f825f80516020614c308339815191529182549261259a8461246e565b8084529360209160019182811690811561255357506001146125c557505050610703925003836106d5565b5f9081527f5f9ce34815f8e11431c7bb75a8e6886a91478f7ffc1dbb0a98dc240fddd76b759590935091905b82841061260d57506107039450505081016020015f80806124e4565b855488850183015294850194879450928101926125f1565b5f527f0d5829787b8befdbc6044ef7457d8a95c2a04bc99235349f1a212c063e59d40160205260405f2090565b5f525f80516020614bd083398151915260205260405f2090565b634e487b7160e01b5f52603260045260245ffd5b80518210156126945760209160051b010190565b61266c565b6040513d5f823e3d90fd5b604051906126b18261069e565b601d82527f6d6f64653d626c6f636b6e756d6265722666726f6d3d64656661756c740000006020830152565b5f80516020614c5083398151915254604051634bf5d7e960e01b8152905f90829060049082906001600160a01b03165afa5f9181612724575b506104de57506104de6126a4565b9091503d805f833e61273681836106d5565b810190602081830312610469578051906001600160401b038211610469570181601f820112156104695780519061276c82610705565b9261277a60405194856106d5565b8284526020838301011161046957815f9260208093018386015e83010152905f612716565b604051906127ac8261069e565b60018252603160f81b6020830152565b939092919695610d5f6128939161288d8a61280f8160018060a01b03165f527f5ab42ced628888259c08ac98db1eb0cf702fc1501344311d8b100cd1bfe4bb0060205260405f2080549060018201905590565b61281a36888a610720565b602081519101208b5160208d0120906040519260208401947f3e83946653575f9a39005e1545185629e92736b7528ab20ca3816f315424a81186528d604086015260ff8d16606086015260018060a01b0316608085015260a084015260c083015260e082015260e081526119fc816106b9565b8a6136b3565b6128ae576104de9596916128a8913691610720565b926137ea565b6040516394ab6c0760e01b81526001600160a01b0388166004820152602490fd5b90816020910312610469575190565b634e487b7160e01b5f52601160045260245ffd5b9061c3509182810292818404149015171561290957565b6128de565b9190820180921161290957565b919392909361292a82336139b7565b15612a6f5765ffffffffffff945f1986612942612a9d565b1601868111612909576129a3966020915f60405161295f81610668565b525f80516020614c5083398151915254604051630748d63560e31b81523360048201529190921660248201529788916001600160a01b031690829081906044820190565b03915afa958615610bb4575f96612a4e575b506129bf336138f5565b612710806129cc896128f2565b048211612a3c575b508601809611612909577ed7616c8fe29c6c2fbe1d0c5bc8f2faa4c35b43746e70b24b4d532752affd005495868110612a1557506104de9495503393613b86565b604051636121770b60e11b8152336004820152602481019190915260448101879052606490fd5b9050612a47876128f2565b045f6129d4565b612a6891965060203d602011610bdf57610bd081836106d5565b945f6129b5565b60405163d9b3955760e01b8152336004820152602490fd5b604051612a9381610668565b5f8152905f368137565b5f80516020614c50833981519152546040516324776b7d60e21b815290602090829060049082906001600160a01b03165afa5f9181612ae6575b506104de57506104de4361452e565b9091506020813d602011612b1b575b81612b02602093836106d5565b810103126104695751612b1481611622565b905f612ad7565b3d9150612af5565b519061070382611385565b5190811515820361046957565b908161014091031261046957612b4f6106f6565b9080518252612b6060208201612b23565b6020830152612b7160408201612b23565b6040830152606081015160608301526080810151608083015260a081015160a083015260c081015160c0830152612baa60e08201612b2e565b60e08301526101008082015190830152610120809101519082015290565b5f1981019190821161290957565b60271981019190821161290957565b612bfb612bf0612a9d565b65ffffffffffff1690565b908115612c7d575f80516020614c5083398151915254612c5e92602091612c2b906001600160a01b031691612bc8565b604051630748d63560e31b81526001600160a01b0385166004820152602481019190915293849190829081906044820190565b03915afa908115610bb4576104de925f92611b8d5750611b65906138f5565b50505f90565b5f80516020614cf0833981519152546001600160a01b031630036107e85763bc197c8160e01b90565b5f525f80516020614bd083398151915260205260405f205465ffffffffffff908163ffffffff8260d01c169160a01c1601818111612909571690565b3d15612d12573d90612cf982610705565b91612d0760405193846106d5565b82523d5f602084013e565b606090565b9081518082526020808093019301915f5b828110612d36575050505090565b83516001600160a01b031685529381019392810192600101612d28565b90808251908181526020809101926020808460051b8301019501935f915b848310612d815750505050505090565b9091929394958480612d9f600193601f198682030187528a516104a9565b9801930193019194939290612d71565b9290612dfb92612e0d92604051948592612deb612dd8602086019960808b5260a0870190612d17565b601f1996878783030160408801526117ab565b9085858303016060860152612d53565b906080830152039081018352826106d5565b51902090565b919395949092604051612e258161069e565b600c815260206b20b73232a3b7bb32b93737b960a11b6020830152612e48614664565b612e5061279f565b90612e59614664565b82516001600160401b038111610647575f80516020614c1083398151915291612e8b82612e86855461246e565b614692565b602090601f8311600114612f6d575093612ed9612f339694612f5f9c9d94612ed285612f2e96612f389e9d9c9a5f91612f62575b508160011b915f199060031b1c19161790565b90556147fd565b612f015f7fa16a46d94261c7517cc8ff89f61c0ce93598e3c849801011dee649a6a557d10055565b612f295f7fa16a46d94261c7517cc8ff89f61c0ce93598e3c849801011dee649a6a557d10155565b6148fe565b613dd0565b613df1565b6001600160a01b0316612f4a81613e5f565b612f52614664565b612f5a614664565b61329d565b50565b90508601515f612ebf565b5f80516020614c108339815191525f5290601f1983167f42ad5d3e1f2e6e70edcf6d991b8a3023d3fca8047a131592f9edb9fd9b89d57d925f905b828210612ffa57505094612f5f9c9d94600185612f389d9c9b9995612ed995612f2e98612f339d9b10612fe2575b5050811b0190556147fd565b8701515f1960f88460031b161c191690555f80612fd6565b80600185968294968c01518155019501930190612fa8565b5f80516020614c5083398151915254604051632394e7a360e21b81526004810192909252602090829060249082906001600160a01b03165afa908115610bb4575f91613074575b50600a810290808204600a1490151715612909576064900490565b61308d915060203d602011610bdf57610bd081836106d5565b5f613059565b5f80516020614cf0833981519152546001600160a01b031630036107e857565b6040906130ce5f939594606083019683526020830190610fbe565b0152565b6130db81613507565b906008821015610fb9576010600160ff84161b16156130f8575090565b61311b606492604051926331b75e4d60e01b845260048401526024830190610fbe565b60106044820152fd5b61312d81613507565b906008821015610fb9576030600160ff84161b161561314a575090565b61316d606492604051926331b75e4d60e01b845260048401526024830190610fbe565b60306044820152fd5b5f80516020614cb08339815191529081548060801c9160018301926001600160801b03809316838516146131e7575f527f7c712897014dbe49c045ef1299aa2d5f9e67e48eea4403efa21f1e0f3ac0cb0360205260405f20558254916001600160801b03199060801b169116179055565b604051638acb5f2760e01b8152600490fd5b335f9081527fb7db2dd08fcb62d0c9e08c51941cae53c267786a0b75803fb7960902fc8ef97d602052604090205460ff161561323157565b60405163e2517d3f60e01b81523360048201525f6024820152604490fd5b5f8181525f80516020614cd08339815191526020908152604080832033845290915290205460ff161561327f5750565b6044906040519063e2517d3f60e01b82523360048301526024820152fd5b6001600160a01b0381165f9081527fb7db2dd08fcb62d0c9e08c51941cae53c267786a0b75803fb7960902fc8ef97d60205260409020545f80516020614cd08339815191529060ff16612c7d575f808052602091825260408082206001600160a01b038516835290925220805460ff1916600117905533906001600160a01b03165f7f2f8788117e7eff1d82e926ec794901d17c78024a50270940304540a733656f0d8180a4600190565b5f8181525f80516020614cd0833981519152602081815260408084206001600160a01b03871685529091529091205460ff166133dc575f828152602091825260408082206001600160a01b038616835290925220805460ff1916600117905533916001600160a01b0316907f2f8788117e7eff1d82e926ec794901d17c78024a50270940304540a733656f0d5f80a4600190565b5050505f90565b5f80516020614cf0833981519152546001600160a01b031633810361344957300361340a57565b61341336610705565b61342060405191826106d5565b3681526020810190365f83375f602036830101525190205b8061344161403a565b036134385750565b6040516347096e4760e01b8152336004820152602490fd5b5f8181525f80516020614cd0833981519152602081815260408084206001600160a01b03871685529091529091205460ff16156133dc575f828152602091825260408082206001600160a01b038616835290925220805460ff1916905533916001600160a01b0316907ff6391f5c32d9c69d2a47ea670b442974b53935d1edc7fd64eb21e047a839171b5f80a4600190565b90816020910312610469576104de90612b2e565b613510816140b9565b9061351a82610faf565b600582036136145761352c9150612625565b545f80516020614cf08339815191525461354e906001600160a01b0316610a05565b604051632c258a9f60e11b81526004810183905260209291908381602481855afa908115610bb4575f916135f7575b501561358b57505050600590565b604051632ab0f52960e01b815260048101929092528290829060249082905afa918215610bb4575f926135ca575b5050156135c557600790565b600290565b6135e99250803d106135f0575b6135e181836106d5565b8101906134f3565b5f806135b9565b503d6135d7565b61360e9150843d86116135f0576135e181836106d5565b5f61357d565b5090565b916104de93916040519361362b85610668565b5f85526137ea565b60429061363e614b20565b613646614b8a565b6040519060208201927f8b73c3c69bb8fe3d512ecc4cf759cc79239f7b179b0ffacaa9a75d522b39400f8452604083015260608201524660808201523060a082015260a0815261369581610683565b519020906040519161190160f01b8352600283015260228201522090565b6136bd8383614384565b506004819592951015610fb957159384613774575b5083156136e0575b50505090565b5f929350908291604051613726816137186020820194630b135d3f60e11b998a875260248401526040604484015260648301906104a9565b03601f1981018352826106d5565b51915afa90613733612ce8565b82613766575b82613749575b50505f80806136da565b61375e919250602080825183010191016128cf565b145f8061373f565b915060208251101591613739565b6001600160a01b0383811691161493505f6136d2565b93909260ff6137b6936104de97958752166020860152604085015260a0606085015260a08401906104a9565b9160808184039101526104a9565b909260ff6080936104de96958452166020830152604082015281606082015201906104a9565b9291906137f684613507565b6008811015610fb9576002600160ff83161b16156138c75750613836613830612bf061382187612652565b5460a01c65ffffffffffff1690565b82614590565b94613843868484886143be565b805161388b57506138857fb8e138887d0aa13bab447e82de9d5c1777041ecd21ca36ba824ff1e6c07ddda4938660405194859460018060a01b031697856137c4565b0390a290565b613885907fe2babfbac5889a709b63bb7f598b324e08bc5a4fb9ec647fb3cbc9ec07eb8712948760405195869560018060a01b0316988661378a565b6040516331b75e4d60e01b8152600481018690526064916138ec906024830190610fbe565b60026044820152fd5b5f54604051635f059d7d60e01b81526001600160a01b0392831660048201529160209183916024918391165afa908115610bb4575f91613933575090565b6104de915060203d602011610bdf57610bd081836106d5565b5f80516020614bf08339815191529081547fc565b045403dc03c2eea82b81a0465edad9e2e7fc4d97e11421c209da93d7a93604065ffffffffffff81519481851686521693846020820152a165ffffffffffff1916179055565b908151811015612694570160200190565b815160348110613a675760131981840101516001600160a01b0319166b1b91f1b211f2119351b859f160a31b01613a6757915f926139f481612bd6565b915b818310613a11575050506001600160a01b0391821691161490565b909193613a37613a32613a2487856139a6565b516001600160f81b03191690565b6144b1565b919015613a5c5760041b6010600160a01b031660ff91909116179360010191906139f6565b505050505050600190565b505050600190565b90613a79826107fa565b613a8660405191826106d5565b8281528092613a97601f19916107fa565b01905f5b828110613aa757505050565b806060602080938501015201613a9b565b9592613aec90613afa939b9a989996959261012090895260209c60018060a01b03168d8a01528060408a0152880190612d17565b9086820360608801526117ab565b9784890360808601528251808a52818a019180808360051b8d01019501925f905b838210613b585750505050506104de96975090613b3f9184820360a0860152612d53565b9360c083015260e08201526101008184039101526104a9565b90919293958380613b778f93600194601f199082030186528a516104a9565b98019201920190939291613b1b565b919493909294613b9e86516020880120828686612daf565b958351855190818114801590613d28575b8015613d20575b613cf757505065ffffffffffff9485613bd16138218a612652565b16613cd0577f7d84a6263ae0d98d3329bd7b46bb4e8d6f98cd35a7adb45c274c8b7fd5ebd5e095613ccb9363ffffffff613c26613c0c612a9d565b5f80516020614bf08339815191525494808616911661290e565b9260301c16613ca9613c378c612652565b80546001600160a01b0319166001600160a01b038a16178155613c80613c5c8661452e565b825465ffffffffffff60a01b191660a09190911b65ffffffffffff60a01b16178255565b613c8983614560565b815463ffffffff60d01b191660d09190911b63ffffffff60d01b16179055565b613cbd613cb68951613a6f565b918461290e565b936040519889988d8a613ab8565b0390a1565b87613cda81613507565b6040516331b75e4d60e01b81529182916110f591600484016130b3565b8351604051630447b05d60e41b8152600481019290925260248201526044810191909152606490fd5b508015613bb6565b508351811415613baf565b9091906107035750614643565b63ffffffff90818116908115613db85769ffffffff000000000000907f7e3f7f0708a84de9203036abaa450dccc85ad5ff52f78c170f3edb55cf5e882860405f80516020614bf0833981519152958654958251918760301c1682526020820152a160301b169069ffffffff0000000000001916179055565b60405163f1cfbf0560e01b81525f6004820152602490fd5b6107039291612174613dec92613de4614664565b61165a614664565b613ecf565b613df9614664565b6001600160a01b03908116918215613e4d5716908115610f0d57613e1b614664565b613e23614664565b6001600160601b0360a01b905f80516020614c5083398151915290828254161790555f5416175f55565b604051636076829760e11b8152600490fd5b613e67614664565b613e6f614664565b5f80516020614cf08339815191528054604080516001600160a01b0380841682529094166020850181905292937f08f74ea46ef7894f65eabfb5e6e695de773a000b47c529ab559178069b2264019190a16001600160a01b031916179055565b7ed7616c8fe29c6c2fbe1d0c5bc8f2faa4c35b43746e70b24b4d532752affd007fccb45da8d5717e6c4544694297c4ba5cf151d455c9bb0ed4fc7a38411bc05461604082548151908152846020820152a155565b949392613f4f608093613f41613f5d9460a08a5260a08a0190612d17565b9088820360208a01526117ab565b908682036040880152612d53565b935f60608201520152565b9192613f9760a094613f89613fa5949998979960c0875260c0870190612d17565b9085820360208701526117ab565b908382036040850152612d53565b945f606083015260808201520152565b9290939160018060a01b035f80516020614cf0833981519152541690813b15610469575f9361400a6040519788958694859463e38335e560e01b86526001600160601b03193060601b16189260048601613f23565b039134905af1908115610bb4575f926140289261402b575b50612625565b55565b61403490610634565b5f614022565b5f80516020614cb0833981519152908154916001600160801b038084169360801c84146140a757835f527f7c712897014dbe49c045ef1299aa2d5f9e67e48eea4403efa21f1e0f3ac0cb03602052600160405f20945f8654965501166001600160801b0319825416179055565b6040516375e52f4f60e01b8152600490fd5b6140c281612652565b5460ff8160f01c166141a95760f81c6141a3576140e4612bf061382183612652565b801561418a576140f5612bf0612a9d565b80911015612c7d5761410682612cac565b106141115750600190565b61411d610d5f826149e2565b801561415b575b1561412f5750600390565b612bf0600161414061414d93612652565b015465ffffffffffff1690565b61415657600490565b600590565b50614185610d5f825f525f80516020614c9083398151915260205260405f20600181015490541090565b614124565b604051636ad0607560e01b815260048101839052602490fd5b50600290565b5050600790565b906141bc939291612daf565b6141c581613507565b6008811015610fb957603b600160ff83161b16156142b557506141ff6141ea82612652565b80546001600160f81b0316600160f81b179055565b6040518181527f789cf55be980739dad1d0699b93b58e806b51c9d96619bfa8fe0a28abaa7b30c90602090a161423481612625565b548061423e575090565b5f80516020614cf08339815191525461425f906001600160a01b0316610a05565b803b156104695760405163c4d252f560e01b815260048101929092525f908290602490829084905af18015610bb4576142a2575b505f61429e82612625565b5590565b80610ba86142af92610634565b5f614293565b906142d9606492604051926331b75e4d60e01b845260048401526024830190610fbe565b603b6044820152fd5b90813b15614363575f80516020614c7083398151915280546001600160a01b0319166001600160a01b0384169081179091557fbc7cd75a20ee27fd9adebab32041f755214dbc6bffa90cc0225b39da2e5c2d3b5f80a280511561434857612f5f91614a3a565b50503461435157565b60405163b398979f60e01b8152600490fd5b604051634c9c8ce360e01b81526001600160a01b0383166004820152602490fd5b81519190604183036143b4576143ad9250602082015190606060408401519301515f1a90614a57565b9192909190565b50505f9160029190565b6143df909291925f525f80516020614c9083398151915260205260405f2090565b916003830161440861440183839060018060a01b03165f5260205260405f2090565b5460ff1690565b6144905761442c60ff9392614439929060018060a01b03165f5260205260405f2090565b805460ff19166001179055565b168061445057509061444c90825461290e565b9055565b600181036144685750600161444c910191825461290e565b60020361447e57600261444c910191825461290e565b6040516303599be160e11b8152600490fd5b6040516371c6af4960e01b81526001600160a01b0383166004820152602490fd5b60f81c9081602f1080614524575b156144d157600191602f190160ff1690565b816040108061451a575b156144ed576001916036190160ff1690565b8160601080614510575b15614509576001916056190160ff1690565b5f91508190565b50606782106144f7565b50604782106144db565b50603a82106144bf565b65ffffffffffff90818111614541571690565b604490604051906306dfcc6560e41b8252603060048301526024820152fd5b63ffffffff90818111614571571690565b604490604051906306dfcc6560e41b8252602060048301526024820152fd5b5f80516020614c5083398151915254604051630748d63560e31b81526001600160a01b03838116600483015260248201949094529260209184916044918391165afa918215610bb4575f9261461e575b506145ea906138f5565b612710806145f7846128f2565b04821161460c575b5081018091116129095790565b9050614617826128f2565b045f6145ff565b6145ea91925061463c9060203d602011610bdf57610bd081836106d5565b91906145e0565b80511561465257805190602001fd5b604051630a12f52160e11b8152600490fd5b60ff5f80516020614d308339815191525460401c161561468057565b604051631afcd79f60e31b8152600490fd5b601f811161469e575050565b5f80516020614c108339815191525f527f42ad5d3e1f2e6e70edcf6d991b8a3023d3fca8047a131592f9edb9fd9b89d57d906020601f840160051c83019310614701575b601f0160051c01905b8181106146f6575050565b5f81556001016146eb565b90915081906146e2565b601f8111614717575050565b5f80516020614d108339815191525f527fda13dda7583a39a3cd73e8830529c760837228fa4683752c823b17e10548aad5906020601f840160051c8301931061477a575b601f0160051c01905b81811061476f575050565b5f8155600101614764565b909150819061475b565b601f8111614790575050565b5f80516020614c308339815191525f527f5f9ce34815f8e11431c7bb75a8e6886a91478f7ffc1dbb0a98dc240fddd76b75906020601f840160051c830193106147f3575b601f0160051c01905b8181106147e8575050565b5f81556001016147dd565b90915081906147d4565b9081516001600160401b038111610647575f80516020614c30833981519152906148308161482b845461246e565b614784565b602080601f831160011461486d5750819061444c9394955f92614862575b50508160011b915f199060031b1c19161790565b015190505f8061484e565b90601f198316956148ab5f80516020614c308339815191525f527f5f9ce34815f8e11431c7bb75a8e6886a91478f7ffc1dbb0a98dc240fddd76b7590565b925f905b8882106148e6575050836001959697106148ce575b505050811b019055565b01515f1960f88460031b161c191690555f80806148c4565b806001859682949686015181550195019301906148af565b90614907614664565b81516001600160401b038111610647575f80516020614d108339815191529061493981614934845461246e565b61470b565b602080601f831160011461496a5750819061444c9394955f926148625750508160011b915f199060031b1c19161790565b90601f198316956149a85f80516020614d108339815191525f527fda13dda7583a39a3cd73e8830529c760837228fa4683752c823b17e10548aad590565b925f905b8882106149ca575050836001959697106148ce57505050811b019055565b806001859682949686015181550195019301906149ac565b5f525f80516020614c9083398151915260205260405f205f80516020614bd0833981519152602052614a2265ffffffffffff60405f205460a01c16613012565b60026001830154920154820180921161290957111590565b5f806104de93602081519101845af4614a51612ce8565b91614ad9565b91907f7fffffffffffffffffffffffffffffff5d576e7357a4501ddfe92f46681b20a08411614ace579160209360809260ff5f9560405194855216868401526040830152606082015282805260015afa15610bb4575f516001600160a01b03811615614ac457905f905f90565b505f906001905f90565b5050505f9160039190565b90614ae45750614643565b81511580614b17575b614af5575090565b604051639996b31560e01b81526001600160a01b039091166004820152602490fd5b50803b15614aed565b614b286124a6565b8051908115614b38576020012090565b50507fa16a46d94261c7517cc8ff89f61c0ce93598e3c849801011dee649a6a557d100548015614b655790565b507fc5d2460186f7233c927e7db2dcc703c0e500b653ca82273b7bfad8045d85a47090565b614b92612579565b8051908115614ba2576020012090565b50507fa16a46d94261c7517cc8ff89f61c0ce93598e3c849801011dee649a6a557d101548015614b65579056fe7c712897014dbe49c045ef1299aa2d5f9e67e48eea4403efa21f1e0f3ac0cb0100d7616c8fe29c6c2fbe1d0c5bc8f2faa4c35b43746e70b24b4d532752affd01a16a46d94261c7517cc8ff89f61c0ce93598e3c849801011dee649a6a557d102a16a46d94261c7517cc8ff89f61c0ce93598e3c849801011dee649a6a557d1033ba4977254e415696610a40ebf2258dbfa0ec6a2ff64e84bfe715ff16977cc00360894a13ba1a3210667c828492db98dca3e2076cc3735a920a3ca505d382bbca1cefa0f43667ef127a258e673c94202a79b656e62899531c4376d87a7f398007c712897014dbe49c045ef1299aa2d5f9e67e48eea4403efa21f1e0f3ac0cb0202dd7bc7dec4dceedda775e58dd541e08a116c6c53815c0bd028192f7b6268000d5829787b8befdbc6044ef7457d8a95c2a04bc99235349f1a212c063e59d4007c712897014dbe49c045ef1299aa2d5f9e67e48eea4403efa21f1e0f3ac0cb00f0c57e16840df040f15088dc2f81fe391c3923bec73e23a9662efc9c229c6a00a2646970667358221220001e304d609694a353eb7bc49e9dc5bcae63db21b3b5d1875f4b419ceb68cc6464736f6c63430008190033","linkReferences":{}},"methodIdentifiers":{"BALLOT_TYPEHASH()":"deaaa7cc","CLOCK_MODE()":"4bf5d7e9","COUNTING_MODE()":"dd4e2ba5","DEFAULT_ADMIN_ROLE()":"a217fddf","EXTENDED_BALLOT_TYPEHASH()":"2fe3e261","MAX_STAKING_BONUS_BPS()":"744ab38b","UPGRADE_INTERFACE_VERSION()":"ad3cb1cc","cancel(address[],uint256[],bytes[],bytes32)":"452115d6","castVote(uint256,uint8)":"56781388","castVoteBySig(uint256,uint8,address,bytes)":"8ff262e3","castVoteWithReason(uint256,uint8,string)":"7b3c71d3","castVoteWithReasonAndParams(uint256,uint8,string,bytes)":"5f398a14","castVoteWithReasonAndParamsBySig(uint256,uint8,address,string,bytes,bytes)":"5b8d0e0d","clock()":"91ddadf4","eip712Domain()":"84b0196e","execute(address[],uint256[],bytes[],bytes32)":"2656227d","getCurrentVotes(address)":"b4b5ea57","getRoleAdmin(bytes32)":"248a9ca3","getStakingInfo(address)":"aa4704f3","getVotes(address,uint256)":"eb9019d4","getVotesWithParams(address,uint256,bytes)":"9a802a6d","getVotesWithStaking(address,uint256)":"7770a5bd","grantRole(bytes32,address)":"2f2ff15d","hasRole(bytes32,address)":"91d14854","hasVoted(uint256,address)":"43859632","hashProposal(address[],uint256[],bytes[],bytes32)":"c59057e4","initialize(address,address,address,uint32,uint48,uint256,address)":"e603704a","name()":"06fdde03","nonces(address)":"7ecebe00","onERC1155BatchReceived(address,address,uint256[],uint256[],bytes)":"bc197c81","onERC1155Received(address,address,uint256,uint256,bytes)":"f23a6e61","onERC721Received(address,address,uint256,bytes)":"150b7a02","proposalDeadline(uint256)":"c01f9e37","proposalEta(uint256)":"ab58fb8e","proposalNeedsQueuing(uint256)":"a9a95294","proposalProposer(uint256)":"143489d0","proposalSnapshot(uint256)":"2d63f693","proposalThreshold()":"b58131b0","proposalVotes(uint256)":"544ffc9c","propose(address[],uint256[],bytes[],string)":"7d5e81e2","proxiableUUID()":"52d1902d","queue(address[],uint256[],bytes[],bytes32)":"160cbed7","quorum(uint256)":"f8ce560a","relay(address,uint256,bytes)":"c28bc2fa","renounceRole(bytes32,address)":"36568abe","revokeRole(bytes32,address)":"d547741f","setProposalThreshold(uint256)":"ece40cc1","setVotingDelay(uint48)":"79051887","setVotingPeriod(uint32)":"e540d01d","stakingContract()":"ee99205c","state(uint256)":"3e4f49e6","supportsInterface(bytes4)":"01ffc9a7","timelock()":"d33219b4","token()":"fc0c546a","updateStakingContract(address)":"3347e4d6","updateTimelock(address)":"a890c910","upgradeToAndCall(address,bytes)":"4f1ef286","version()":"54fd4d50","votingDelay()":"3932abb1","votingPeriod()":"02a251a3"},"id":135}