{"abi":[{"type":"constructor","inputs":[],"stateMutability":"nonpayable"},{"type":"receive","stateMutability":"payable"},{"type":"function","name":"BALLOT_TYPEHASH","inputs":[],"outputs":[{"name":"","type":"bytes32","internalType":"bytes32"}],"stateMutability":"view"},{"type":"function","name":"BASIS_POINTS","inputs":[],"outputs":[{"name":"","type":"uint256","internalType":"uint256"}],"stateMutability":"view"},{"type":"function","name":"CLOCK_MODE","inputs":[],"outputs":[{"name":"","type":"string","internalType":"string"}],"stateMutability":"view"},{"type":"function","name":"COUNTING_MODE","inputs":[],"outputs":[{"name":"","type":"string","internalType":"string"}],"stateMutability":"pure"},{"type":"function","name":"DEFAULT_ADMIN_ROLE","inputs":[],"outputs":[{"name":"","type":"bytes32","internalType":"bytes32"}],"stateMutability":"view"},{"type":"function","name":"EXTENDED_BALLOT_TYPEHASH","inputs":[],"outputs":[{"name":"","type":"bytes32","internalType":"bytes32"}],"stateMutability":"view"},{"type":"function","name":"HIGH_PARTICIPATION_THRESHOLD","inputs":[],"outputs":[{"name":"","type":"uint256","internalType":"uint256"}],"stateMutability":"view"},{"type":"function","name":"LOW_PARTICIPATION_THRESHOLD","inputs":[],"outputs":[{"name":"","type":"uint256","internalType":"uint256"}],"stateMutability":"view"},{"type":"function","name":"MAX_QUORUM_BPS","inputs":[],"outputs":[{"name":"","type":"uint256","internalType":"uint256"}],"stateMutability":"view"},{"type":"function","name":"MAX_STAKING_BONUS_BPS","inputs":[],"outputs":[{"name":"","type":"uint256","internalType":"uint256"}],"stateMutability":"view"},{"type":"function","name":"MIN_QUORUM_BPS","inputs":[],"outputs":[{"name":"","type":"uint256","internalType":"uint256"}],"stateMutability":"view"},{"type":"function","name":"PARTICIPATION_HISTORY_SIZE","inputs":[],"outputs":[{"name":"","type":"uint256","internalType":"uint256"}],"stateMutability":"view"},{"type":"function","name":"UPGRADE_INTERFACE_VERSION","inputs":[],"outputs":[{"name":"","type":"string","internalType":"string"}],"stateMutability":"view"},{"type":"function","name":"cancel","inputs":[{"name":"targets","type":"address[]","internalType":"address[]"},{"name":"values","type":"uint256[]","internalType":"uint256[]"},{"name":"calldatas","type":"bytes[]","internalType":"bytes[]"},{"name":"descriptionHash","type":"bytes32","internalType":"bytes32"}],"outputs":[{"name":"","type":"uint256","internalType":"uint256"}],"stateMutability":"nonpayable"},{"type":"function","name":"castVote","inputs":[{"name":"proposalId","type":"uint256","internalType":"uint256"},{"name":"support","type":"uint8","internalType":"uint8"}],"outputs":[{"name":"","type":"uint256","internalType":"uint256"}],"stateMutability":"nonpayable"},{"type":"function","name":"castVoteBySig","inputs":[{"name":"proposalId","type":"uint256","internalType":"uint256"},{"name":"support","type":"uint8","internalType":"uint8"},{"name":"voter","type":"address","internalType":"address"},{"name":"signature","type":"bytes","internalType":"bytes"}],"outputs":[{"name":"","type":"uint256","internalType":"uint256"}],"stateMutability":"nonpayable"},{"type":"function","name":"castVoteWithReason","inputs":[{"name":"proposalId","type":"uint256","internalType":"uint256"},{"name":"support","type":"uint8","internalType":"uint8"},{"name":"reason","type":"string","internalType":"string"}],"outputs":[{"name":"","type":"uint256","internalType":"uint256"}],"stateMutability":"nonpayable"},{"type":"function","name":"castVoteWithReasonAndParams","inputs":[{"name":"proposalId","type":"uint256","internalType":"uint256"},{"name":"support","type":"uint8","internalType":"uint8"},{"name":"reason","type":"string","internalType":"string"},{"name":"params","type":"bytes","internalType":"bytes"}],"outputs":[{"name":"","type":"uint256","internalType":"uint256"}],"stateMutability":"nonpayable"},{"type":"function","name":"castVoteWithReasonAndParamsBySig","inputs":[{"name":"proposalId","type":"uint256","internalType":"uint256"},{"name":"support","type":"uint8","internalType":"uint8"},{"name":"voter","type":"address","internalType":"address"},{"name":"reason","type":"string","internalType":"string"},{"name":"params","type":"bytes","internalType":"bytes"},{"name":"signature","type":"bytes","internalType":"bytes"}],"outputs":[{"name":"","type":"uint256","internalType":"uint256"}],"stateMutability":"nonpayable"},{"type":"function","name":"clock","inputs":[],"outputs":[{"name":"","type":"uint48","internalType":"uint48"}],"stateMutability":"view"},{"type":"function","name":"configureProposalLevel","inputs":[{"name":"proposalType","type":"uint8","internalType":"enum GovernorMultiLevel.ProposalType"},{"name":"threshold","type":"uint256","internalType":"uint256"},{"name":"votingDelay","type":"uint48","internalType":"uint48"},{"name":"votingPeriod","type":"uint32","internalType":"uint32"},{"name":"quorumBps","type":"uint256","internalType":"uint256"}],"outputs":[],"stateMutability":"nonpayable"},{"type":"function","name":"eip712Domain","inputs":[],"outputs":[{"name":"fields","type":"bytes1","internalType":"bytes1"},{"name":"name","type":"string","internalType":"string"},{"name":"version","type":"string","internalType":"string"},{"name":"chainId","type":"uint256","internalType":"uint256"},{"name":"verifyingContract","type":"address","internalType":"address"},{"name":"salt","type":"bytes32","internalType":"bytes32"},{"name":"extensions","type":"uint256[]","internalType":"uint256[]"}],"stateMutability":"view"},{"type":"function","name":"emergencyCouncil","inputs":[],"outputs":[{"name":"","type":"address","internalType":"address"}],"stateMutability":"view"},{"type":"function","name":"execute","inputs":[{"name":"targets","type":"address[]","internalType":"address[]"},{"name":"values","type":"uint256[]","internalType":"uint256[]"},{"name":"calldatas","type":"bytes[]","internalType":"bytes[]"},{"name":"descriptionHash","type":"bytes32","internalType":"bytes32"}],"outputs":[{"name":"","type":"uint256","internalType":"uint256"}],"stateMutability":"payable"},{"type":"function","name":"getAverageParticipation","inputs":[],"outputs":[{"name":"","type":"uint256","internalType":"uint256"}],"stateMutability":"view"},{"type":"function","name":"getCurrentQuorumBps","inputs":[],"outputs":[{"name":"","type":"uint256","internalType":"uint256"}],"stateMutability":"view"},{"type":"function","name":"getCurrentVotes","inputs":[{"name":"account","type":"address","internalType":"address"}],"outputs":[{"name":"","type":"uint256","internalType":"uint256"}],"stateMutability":"view"},{"type":"function","name":"getParticipationHistory","inputs":[],"outputs":[{"name":"","type":"tuple[10]","internalType":"struct GovernorAdaptiveQuorum.ProposalParticipation[10]","components":[{"name":"proposalId","type":"uint256","internalType":"uint256"},{"name":"totalVotes","type":"uint256","internalType":"uint256"},{"name":"totalSupply","type":"uint256","internalType":"uint256"},{"name":"participationBps","type":"uint256","internalType":"uint256"},{"name":"timestamp","type":"uint256","internalType":"uint256"}]}],"stateMutability":"view"},{"type":"function","name":"getParticipationHistoryCount","inputs":[],"outputs":[{"name":"","type":"uint256","internalType":"uint256"}],"stateMutability":"view"},{"type":"function","name":"getProposalLevel","inputs":[{"name":"proposalType","type":"uint8","internalType":"enum GovernorMultiLevel.ProposalType"}],"outputs":[{"name":"","type":"tuple","internalType":"struct GovernorMultiLevel.ProposalLevel","components":[{"name":"proposalType","type":"uint8","internalType":"enum GovernorMultiLevel.ProposalType"},{"name":"threshold","type":"uint256","internalType":"uint256"},{"name":"votingDelay","type":"uint48","internalType":"uint48"},{"name":"votingPeriod","type":"uint32","internalType":"uint32"},{"name":"quorumBps","type":"uint256","internalType":"uint256"}]}],"stateMutability":"view"},{"type":"function","name":"getProposalType","inputs":[{"name":"proposalId","type":"uint256","internalType":"uint256"}],"outputs":[{"name":"","type":"uint8","internalType":"enum GovernorMultiLevel.ProposalType"}],"stateMutability":"view"},{"type":"function","name":"getRoleAdmin","inputs":[{"name":"role","type":"bytes32","internalType":"bytes32"}],"outputs":[{"name":"","type":"bytes32","internalType":"bytes32"}],"stateMutability":"view"},{"type":"function","name":"getStakingInfo","inputs":[{"name":"account","type":"address","internalType":"address"}],"outputs":[{"name":"","type":"tuple","internalType":"struct IAndeNativeStaking.StakeInfo","components":[{"name":"amount","type":"uint256","internalType":"uint256"},{"name":"level","type":"uint8","internalType":"uint8"},{"name":"lockPeriod","type":"uint8","internalType":"uint8"},{"name":"lockUntil","type":"uint256","internalType":"uint256"},{"name":"votingPower","type":"uint256","internalType":"uint256"},{"name":"rewardDebt","type":"uint256","internalType":"uint256"},{"name":"stakedAt","type":"uint256","internalType":"uint256"},{"name":"isSequencer","type":"bool","internalType":"bool"},{"name":"lastStakeBlock","type":"uint256","internalType":"uint256"},{"name":"lastStakeTimestamp","type":"uint256","internalType":"uint256"}]}],"stateMutability":"view"},{"type":"function","name":"getVotes","inputs":[{"name":"account","type":"address","internalType":"address"},{"name":"timepoint","type":"uint256","internalType":"uint256"}],"outputs":[{"name":"","type":"uint256","internalType":"uint256"}],"stateMutability":"view"},{"type":"function","name":"getVotesWithParams","inputs":[{"name":"account","type":"address","internalType":"address"},{"name":"timepoint","type":"uint256","internalType":"uint256"},{"name":"params","type":"bytes","internalType":"bytes"}],"outputs":[{"name":"","type":"uint256","internalType":"uint256"}],"stateMutability":"view"},{"type":"function","name":"getVotesWithStaking","inputs":[{"name":"account","type":"address","internalType":"address"},{"name":"timepoint","type":"uint256","internalType":"uint256"}],"outputs":[{"name":"baseVotes","type":"uint256","internalType":"uint256"},{"name":"stakingBonus","type":"uint256","internalType":"uint256"},{"name":"totalVotes","type":"uint256","internalType":"uint256"}],"stateMutability":"view"},{"type":"function","name":"grantRole","inputs":[{"name":"role","type":"bytes32","internalType":"bytes32"},{"name":"account","type":"address","internalType":"address"}],"outputs":[],"stateMutability":"nonpayable"},{"type":"function","name":"hasRole","inputs":[{"name":"role","type":"bytes32","internalType":"bytes32"},{"name":"account","type":"address","internalType":"address"}],"outputs":[{"name":"","type":"bool","internalType":"bool"}],"stateMutability":"view"},{"type":"function","name":"hasVoted","inputs":[{"name":"proposalId","type":"uint256","internalType":"uint256"},{"name":"account","type":"address","internalType":"address"}],"outputs":[{"name":"","type":"bool","internalType":"bool"}],"stateMutability":"view"},{"type":"function","name":"hashProposal","inputs":[{"name":"targets","type":"address[]","internalType":"address[]"},{"name":"values","type":"uint256[]","internalType":"uint256[]"},{"name":"calldatas","type":"bytes[]","internalType":"bytes[]"},{"name":"descriptionHash","type":"bytes32","internalType":"bytes32"}],"outputs":[{"name":"","type":"uint256","internalType":"uint256"}],"stateMutability":"pure"},{"type":"function","name":"initialize","inputs":[{"name":"_token","type":"address","internalType":"contract IVotes"},{"name":"_stakingContract","type":"address","internalType":"contract IAndeNativeStaking"},{"name":"_timelock","type":"address","internalType":"contract AndeTimelockController"},{"name":"_votingPeriod","type":"uint32","internalType":"uint32"},{"name":"_votingDelay","type":"uint48","internalType":"uint48"},{"name":"_proposalThreshold","type":"uint256","internalType":"uint256"},{"name":"_emergencyCouncil","type":"address","internalType":"address"}],"outputs":[],"stateMutability":"nonpayable"},{"type":"function","name":"name","inputs":[],"outputs":[{"name":"","type":"string","internalType":"string"}],"stateMutability":"view"},{"type":"function","name":"nonces","inputs":[{"name":"owner","type":"address","internalType":"address"}],"outputs":[{"name":"","type":"uint256","internalType":"uint256"}],"stateMutability":"view"},{"type":"function","name":"onERC1155BatchReceived","inputs":[{"name":"","type":"address","internalType":"address"},{"name":"","type":"address","internalType":"address"},{"name":"","type":"uint256[]","internalType":"uint256[]"},{"name":"","type":"uint256[]","internalType":"uint256[]"},{"name":"","type":"bytes","internalType":"bytes"}],"outputs":[{"name":"","type":"bytes4","internalType":"bytes4"}],"stateMutability":"nonpayable"},{"type":"function","name":"onERC1155Received","inputs":[{"name":"","type":"address","internalType":"address"},{"name":"","type":"address","internalType":"address"},{"name":"","type":"uint256","internalType":"uint256"},{"name":"","type":"uint256","internalType":"uint256"},{"name":"","type":"bytes","internalType":"bytes"}],"outputs":[{"name":"","type":"bytes4","internalType":"bytes4"}],"stateMutability":"nonpayable"},{"type":"function","name":"onERC721Received","inputs":[{"name":"","type":"address","internalType":"address"},{"name":"","type":"address","internalType":"address"},{"name":"","type":"uint256","internalType":"uint256"},{"name":"","type":"bytes","internalType":"bytes"}],"outputs":[{"name":"","type":"bytes4","internalType":"bytes4"}],"stateMutability":"nonpayable"},{"type":"function","name":"proposalDeadline","inputs":[{"name":"proposalId","type":"uint256","internalType":"uint256"}],"outputs":[{"name":"","type":"uint256","internalType":"uint256"}],"stateMutability":"view"},{"type":"function","name":"proposalEta","inputs":[{"name":"proposalId","type":"uint256","internalType":"uint256"}],"outputs":[{"name":"","type":"uint256","internalType":"uint256"}],"stateMutability":"view"},{"type":"function","name":"proposalLevels","inputs":[{"name":"","type":"uint8","internalType":"enum GovernorMultiLevel.ProposalType"}],"outputs":[{"name":"proposalType","type":"uint8","internalType":"enum GovernorMultiLevel.ProposalType"},{"name":"threshold","type":"uint256","internalType":"uint256"},{"name":"votingDelay","type":"uint48","internalType":"uint48"},{"name":"votingPeriod","type":"uint32","internalType":"uint32"},{"name":"quorumBps","type":"uint256","internalType":"uint256"}],"stateMutability":"view"},{"type":"function","name":"proposalNeedsQueuing","inputs":[{"name":"proposalId","type":"uint256","internalType":"uint256"}],"outputs":[{"name":"","type":"bool","internalType":"bool"}],"stateMutability":"view"},{"type":"function","name":"proposalProposer","inputs":[{"name":"proposalId","type":"uint256","internalType":"uint256"}],"outputs":[{"name":"","type":"address","internalType":"address"}],"stateMutability":"view"},{"type":"function","name":"proposalSnapshot","inputs":[{"name":"proposalId","type":"uint256","internalType":"uint256"}],"outputs":[{"name":"","type":"uint256","internalType":"uint256"}],"stateMutability":"view"},{"type":"function","name":"proposalThreshold","inputs":[],"outputs":[{"name":"","type":"uint256","internalType":"uint256"}],"stateMutability":"view"},{"type":"function","name":"proposalTypes","inputs":[{"name":"","type":"uint256","internalType":"uint256"}],"outputs":[{"name":"","type":"uint8","internalType":"enum GovernorMultiLevel.ProposalType"}],"stateMutability":"view"},{"type":"function","name":"proposalVotes","inputs":[{"name":"proposalId","type":"uint256","internalType":"uint256"}],"outputs":[{"name":"againstVotes","type":"uint256","internalType":"uint256"},{"name":"forVotes","type":"uint256","internalType":"uint256"},{"name":"abstainVotes","type":"uint256","internalType":"uint256"}],"stateMutability":"view"},{"type":"function","name":"propose","inputs":[{"name":"targets","type":"address[]","internalType":"address[]"},{"name":"values","type":"uint256[]","internalType":"uint256[]"},{"name":"calldatas","type":"bytes[]","internalType":"bytes[]"},{"name":"description","type":"string","internalType":"string"}],"outputs":[{"name":"","type":"uint256","internalType":"uint256"}],"stateMutability":"nonpayable"},{"type":"function","name":"proposeWithType","inputs":[{"name":"targets","type":"address[]","internalType":"address[]"},{"name":"values","type":"uint256[]","internalType":"uint256[]"},{"name":"calldatas","type":"bytes[]","internalType":"bytes[]"},{"name":"description","type":"string","internalType":"string"},{"name":"proposalType","type":"uint8","internalType":"enum GovernorMultiLevel.ProposalType"}],"outputs":[{"name":"","type":"uint256","internalType":"uint256"}],"stateMutability":"nonpayable"},{"type":"function","name":"proxiableUUID","inputs":[],"outputs":[{"name":"","type":"bytes32","internalType":"bytes32"}],"stateMutability":"view"},{"type":"function","name":"queue","inputs":[{"name":"targets","type":"address[]","internalType":"address[]"},{"name":"values","type":"uint256[]","internalType":"uint256[]"},{"name":"calldatas","type":"bytes[]","internalType":"bytes[]"},{"name":"descriptionHash","type":"bytes32","internalType":"bytes32"}],"outputs":[{"name":"","type":"uint256","internalType":"uint256"}],"stateMutability":"nonpayable"},{"type":"function","name":"quorum","inputs":[{"name":"timepoint","type":"uint256","internalType":"uint256"}],"outputs":[{"name":"","type":"uint256","internalType":"uint256"}],"stateMutability":"view"},{"type":"function","name":"relay","inputs":[{"name":"target","type":"address","internalType":"address"},{"name":"value","type":"uint256","internalType":"uint256"},{"name":"data","type":"bytes","internalType":"bytes"}],"outputs":[],"stateMutability":"payable"},{"type":"function","name":"renounceRole","inputs":[{"name":"role","type":"bytes32","internalType":"bytes32"},{"name":"callerConfirmation","type":"address","internalType":"address"}],"outputs":[],"stateMutability":"nonpayable"},{"type":"function","name":"revokeRole","inputs":[{"name":"role","type":"bytes32","internalType":"bytes32"},{"name":"account","type":"address","internalType":"address"}],"outputs":[],"stateMutability":"nonpayable"},{"type":"function","name":"setProposalThreshold","inputs":[{"name":"newProposalThreshold","type":"uint256","internalType":"uint256"}],"outputs":[],"stateMutability":"nonpayable"},{"type":"function","name":"setVotingDelay","inputs":[{"name":"newVotingDelay","type":"uint48","internalType":"uint48"}],"outputs":[],"stateMutability":"nonpayable"},{"type":"function","name":"setVotingPeriod","inputs":[{"name":"newVotingPeriod","type":"uint32","internalType":"uint32"}],"outputs":[],"stateMutability":"nonpayable"},{"type":"function","name":"stakingContract","inputs":[],"outputs":[{"name":"","type":"address","internalType":"contract IAndeNativeStaking"}],"stateMutability":"view"},{"type":"function","name":"state","inputs":[{"name":"proposalId","type":"uint256","internalType":"uint256"}],"outputs":[{"name":"","type":"uint8","internalType":"enum IGovernor.ProposalState"}],"stateMutability":"view"},{"type":"function","name":"supportsInterface","inputs":[{"name":"interfaceId","type":"bytes4","internalType":"bytes4"}],"outputs":[{"name":"","type":"bool","internalType":"bool"}],"stateMutability":"view"},{"type":"function","name":"timelock","inputs":[],"outputs":[{"name":"","type":"address","internalType":"address"}],"stateMutability":"view"},{"type":"function","name":"token","inputs":[],"outputs":[{"name":"","type":"address","internalType":"contract IERC5805"}],"stateMutability":"view"},{"type":"function","name":"updateEmergencyCouncil","inputs":[{"name":"newCouncil","type":"address","internalType":"address"}],"outputs":[],"stateMutability":"nonpayable"},{"type":"function","name":"updateStakingContract","inputs":[{"name":"newStakingContract","type":"address","internalType":"contract IAndeNativeStaking"}],"outputs":[],"stateMutability":"nonpayable"},{"type":"function","name":"updateTimelock","inputs":[{"name":"newTimelock","type":"address","internalType":"contract TimelockControllerUpgradeable"}],"outputs":[],"stateMutability":"nonpayable"},{"type":"function","name":"upgradeToAndCall","inputs":[{"name":"newImplementation","type":"address","internalType":"address"},{"name":"data","type":"bytes","internalType":"bytes"}],"outputs":[],"stateMutability":"payable"},{"type":"function","name":"version","inputs":[],"outputs":[{"name":"","type":"string","internalType":"string"}],"stateMutability":"view"},{"type":"function","name":"votingDelay","inputs":[],"outputs":[{"name":"","type":"uint256","internalType":"uint256"}],"stateMutability":"view"},{"type":"function","name":"votingPeriod","inputs":[],"outputs":[{"name":"","type":"uint256","internalType":"uint256"}],"stateMutability":"view"},{"type":"event","name":"EIP712DomainChanged","inputs":[],"anonymous":false},{"type":"event","name":"EmergencyCouncilUpdated","inputs":[{"name":"oldCouncil","type":"address","indexed":true,"internalType":"address"},{"name":"newCouncil","type":"address","indexed":true,"internalType":"address"}],"anonymous":false},{"type":"event","name":"Initialized","inputs":[{"name":"version","type":"uint64","indexed":false,"internalType":"uint64"}],"anonymous":false},{"type":"event","name":"ParticipationRecorded","inputs":[{"name":"proposalId","type":"uint256","indexed":true,"internalType":"uint256"},{"name":"participationBps","type":"uint256","indexed":false,"internalType":"uint256"},{"name":"totalVotes","type":"uint256","indexed":false,"internalType":"uint256"},{"name":"totalSupply","type":"uint256","indexed":false,"internalType":"uint256"}],"anonymous":false},{"type":"event","name":"ProposalCanceled","inputs":[{"name":"proposalId","type":"uint256","indexed":false,"internalType":"uint256"}],"anonymous":false},{"type":"event","name":"ProposalCreated","inputs":[{"name":"proposalId","type":"uint256","indexed":false,"internalType":"uint256"},{"name":"proposer","type":"address","indexed":false,"internalType":"address"},{"name":"targets","type":"address[]","indexed":false,"internalType":"address[]"},{"name":"values","type":"uint256[]","indexed":false,"internalType":"uint256[]"},{"name":"signatures","type":"string[]","indexed":false,"internalType":"string[]"},{"name":"calldatas","type":"bytes[]","indexed":false,"internalType":"bytes[]"},{"name":"voteStart","type":"uint256","indexed":false,"internalType":"uint256"},{"name":"voteEnd","type":"uint256","indexed":false,"internalType":"uint256"},{"name":"description","type":"string","indexed":false,"internalType":"string"}],"anonymous":false},{"type":"event","name":"ProposalExecuted","inputs":[{"name":"proposalId","type":"uint256","indexed":false,"internalType":"uint256"}],"anonymous":false},{"type":"event","name":"ProposalLevelConfigured","inputs":[{"name":"proposalType","type":"uint8","indexed":false,"internalType":"enum GovernorMultiLevel.ProposalType"},{"name":"threshold","type":"uint256","indexed":false,"internalType":"uint256"},{"name":"delay","type":"uint48","indexed":false,"internalType":"uint48"},{"name":"period","type":"uint32","indexed":false,"internalType":"uint32"}],"anonymous":false},{"type":"event","name":"ProposalQueued","inputs":[{"name":"proposalId","type":"uint256","indexed":false,"internalType":"uint256"},{"name":"etaSeconds","type":"uint256","indexed":false,"internalType":"uint256"}],"anonymous":false},{"type":"event","name":"ProposalThresholdSet","inputs":[{"name":"oldProposalThreshold","type":"uint256","indexed":false,"internalType":"uint256"},{"name":"newProposalThreshold","type":"uint256","indexed":false,"internalType":"uint256"}],"anonymous":false},{"type":"event","name":"ProposalTypeSet","inputs":[{"name":"proposalId","type":"uint256","indexed":true,"internalType":"uint256"},{"name":"proposalType","type":"uint8","indexed":false,"internalType":"enum GovernorMultiLevel.ProposalType"}],"anonymous":false},{"type":"event","name":"QuorumAdjusted","inputs":[{"name":"proposalId","type":"uint256","indexed":true,"internalType":"uint256"},{"name":"newQuorumBps","type":"uint256","indexed":false,"internalType":"uint256"},{"name":"avgParticipation","type":"uint256","indexed":false,"internalType":"uint256"}],"anonymous":false},{"type":"event","name":"RoleAdminChanged","inputs":[{"name":"role","type":"bytes32","indexed":true,"internalType":"bytes32"},{"name":"previousAdminRole","type":"bytes32","indexed":true,"internalType":"bytes32"},{"name":"newAdminRole","type":"bytes32","indexed":true,"internalType":"bytes32"}],"anonymous":false},{"type":"event","name":"RoleGranted","inputs":[{"name":"role","type":"bytes32","indexed":true,"internalType":"bytes32"},{"name":"account","type":"address","indexed":true,"internalType":"address"},{"name":"sender","type":"address","indexed":true,"internalType":"address"}],"anonymous":false},{"type":"event","name":"RoleRevoked","inputs":[{"name":"role","type":"bytes32","indexed":true,"internalType":"bytes32"},{"name":"account","type":"address","indexed":true,"internalType":"address"},{"name":"sender","type":"address","indexed":true,"internalType":"address"}],"anonymous":false},{"type":"event","name":"StakingContractUpdated","inputs":[{"name":"oldContract","type":"address","indexed":true,"internalType":"address"},{"name":"newContract","type":"address","indexed":true,"internalType":"address"}],"anonymous":false},{"type":"event","name":"TimelockChange","inputs":[{"name":"oldTimelock","type":"address","indexed":false,"internalType":"address"},{"name":"newTimelock","type":"address","indexed":false,"internalType":"address"}],"anonymous":false},{"type":"event","name":"Upgraded","inputs":[{"name":"implementation","type":"address","indexed":true,"internalType":"address"}],"anonymous":false},{"type":"event","name":"VoteCast","inputs":[{"name":"voter","type":"address","indexed":true,"internalType":"address"},{"name":"proposalId","type":"uint256","indexed":false,"internalType":"uint256"},{"name":"support","type":"uint8","indexed":false,"internalType":"uint8"},{"name":"weight","type":"uint256","indexed":false,"internalType":"uint256"},{"name":"reason","type":"string","indexed":false,"internalType":"string"}],"anonymous":false},{"type":"event","name":"VoteCastWithParams","inputs":[{"name":"voter","type":"address","indexed":true,"internalType":"address"},{"name":"proposalId","type":"uint256","indexed":false,"internalType":"uint256"},{"name":"support","type":"uint8","indexed":false,"internalType":"uint8"},{"name":"weight","type":"uint256","indexed":false,"internalType":"uint256"},{"name":"reason","type":"string","indexed":false,"internalType":"string"},{"name":"params","type":"bytes","indexed":false,"internalType":"bytes"}],"anonymous":false},{"type":"event","name":"VotingDelaySet","inputs":[{"name":"oldVotingDelay","type":"uint256","indexed":false,"internalType":"uint256"},{"name":"newVotingDelay","type":"uint256","indexed":false,"internalType":"uint256"}],"anonymous":false},{"type":"event","name":"VotingPeriodSet","inputs":[{"name":"oldVotingPeriod","type":"uint256","indexed":false,"internalType":"uint256"},{"name":"newVotingPeriod","type":"uint256","indexed":false,"internalType":"uint256"}],"anonymous":false},{"type":"event","name":"VotingPowerQueried","inputs":[{"name":"account","type":"address","indexed":true,"internalType":"address"},{"name":"blockNumber","type":"uint256","indexed":false,"internalType":"uint256"},{"name":"baseVotes","type":"uint256","indexed":false,"internalType":"uint256"},{"name":"stakingBonus","type":"uint256","indexed":false,"internalType":"uint256"},{"name":"totalVotes","type":"uint256","indexed":false,"internalType":"uint256"}],"anonymous":false},{"type":"error","name":"AccessControlBadConfirmation","inputs":[]},{"type":"error","name":"AccessControlUnauthorizedAccount","inputs":[{"name":"account","type":"address","internalType":"address"},{"name":"neededRole","type":"bytes32","internalType":"bytes32"}]},{"type":"error","name":"AddressEmptyCode","inputs":[{"name":"target","type":"address","internalType":"address"}]},{"type":"error","name":"ERC1967InvalidImplementation","inputs":[{"name":"implementation","type":"address","internalType":"address"}]},{"type":"error","name":"ERC1967NonPayable","inputs":[]},{"type":"error","name":"FailedInnerCall","inputs":[]},{"type":"error","name":"GovernorAlreadyCastVote","inputs":[{"name":"voter","type":"address","internalType":"address"}]},{"type":"error","name":"GovernorAlreadyQueuedProposal","inputs":[{"name":"proposalId","type":"uint256","internalType":"uint256"}]},{"type":"error","name":"GovernorDisabledDeposit","inputs":[]},{"type":"error","name":"GovernorInsufficientProposerVotes","inputs":[{"name":"proposer","type":"address","internalType":"address"},{"name":"votes","type":"uint256","internalType":"uint256"},{"name":"threshold","type":"uint256","internalType":"uint256"}]},{"type":"error","name":"GovernorInvalidProposalLength","inputs":[{"name":"targets","type":"uint256","internalType":"uint256"},{"name":"calldatas","type":"uint256","internalType":"uint256"},{"name":"values","type":"uint256","internalType":"uint256"}]},{"type":"error","name":"GovernorInvalidSignature","inputs":[{"name":"voter","type":"address","internalType":"address"}]},{"type":"error","name":"GovernorInvalidVoteType","inputs":[]},{"type":"error","name":"GovernorInvalidVotingPeriod","inputs":[{"name":"votingPeriod","type":"uint256","internalType":"uint256"}]},{"type":"error","name":"GovernorNonexistentProposal","inputs":[{"name":"proposalId","type":"uint256","internalType":"uint256"}]},{"type":"error","name":"GovernorNotQueuedProposal","inputs":[{"name":"proposalId","type":"uint256","internalType":"uint256"}]},{"type":"error","name":"GovernorOnlyExecutor","inputs":[{"name":"account","type":"address","internalType":"address"}]},{"type":"error","name":"GovernorOnlyProposer","inputs":[{"name":"account","type":"address","internalType":"address"}]},{"type":"error","name":"GovernorQueueNotImplemented","inputs":[]},{"type":"error","name":"GovernorRestrictedProposer","inputs":[{"name":"proposer","type":"address","internalType":"address"}]},{"type":"error","name":"GovernorUnexpectedProposalState","inputs":[{"name":"proposalId","type":"uint256","internalType":"uint256"},{"name":"current","type":"uint8","internalType":"enum IGovernor.ProposalState"},{"name":"expectedStates","type":"bytes32","internalType":"bytes32"}]},{"type":"error","name":"InsufficientVotingPower","inputs":[{"name":"proposer","type":"address","internalType":"address"},{"name":"currentVotes","type":"uint256","internalType":"uint256"},{"name":"requiredVotes","type":"uint256","internalType":"uint256"}]},{"type":"error","name":"InvalidAccountNonce","inputs":[{"name":"account","type":"address","internalType":"address"},{"name":"currentNonce","type":"uint256","internalType":"uint256"}]},{"type":"error","name":"InvalidGovernanceToken","inputs":[]},{"type":"error","name":"InvalidInitialization","inputs":[]},{"type":"error","name":"InvalidProposalType","inputs":[]},{"type":"error","name":"InvalidStakingContract","inputs":[]},{"type":"error","name":"NotInitializing","inputs":[]},{"type":"error","name":"QueueEmpty","inputs":[]},{"type":"error","name":"QueueFull","inputs":[]},{"type":"error","name":"SafeCastOverflowedUintDowncast","inputs":[{"name":"bits","type":"uint8","internalType":"uint8"},{"name":"value","type":"uint256","internalType":"uint256"}]},{"type":"error","name":"UUPSUnauthorizedCallContext","inputs":[]},{"type":"error","name":"UUPSUnsupportedProxiableUUID","inputs":[{"name":"slot","type":"bytes32","internalType":"bytes32"}]},{"type":"error","name":"UnauthorizedEmergencyProposal","inputs":[]}],"bytecode":{"object":"0x60a0806040523460c857306080527ff0c57e16840df040f15088dc2f81fe391c3923bec73e23a9662efc9c229c6a009081549060ff8260401c1660b957506001600160401b036002600160401b0319828216016075575b6040516176b090816100cd82396080518181816117a10152611b190152f35b6001600160401b031990911681179091556040519081527fc7f505b2f371ae2175ee4913f4499e1f2633a7b5936321eed1cdaeb6115181d290602090a15f80806056565b63f92ee8a960e01b8152600490fd5b5f80fdfe60806040526004361015610022575b3615610018575f80fd5b6100206146c2565b005b5f3560e01c806301ffc9a7146104fc57806302a251a3146104f757806306fdde03146104f257806308671765146104ed578063143489d0146104e8578063150b7a02146104e3578063160cbed7146104de57806317e8369c146104d9578063248a9ca3146104d45780632656227d146104cf5780632d63f693146104ca5780632f2ff15d146104c55780632fe3e261146104c05780633347e4d6146104bb57806336568abe146104b65780633932abb1146104b15780633e4f49e6146104ac57806343859632146104a7578063452115d6146104a25780634bf5d7e91461049d5780634f1ef2861461049857806351c891c21461049357806352d1902d1461048e578063544ffc9c1461048957806354fd4d5014610484578063567813881461047f5780635b8d0e0d1461047a5780635e30b24a146104755780635f398a14146104705780636198c3d01461046b5780636a3dd030146104665780636cfb372014610461578063744ab38b1461045c5780637770a5bd146104575780637778960e14610452578063790518871461044d5780637b3c71d3146104485780637ba96aac146104435780637d5e81e21461043e5780637ecebe001461043957806384b0196e146104345780638e08ae6c1461042f5780638f132a771461042a5780638ff262e31461042557806391d148541461042057806391ddadf41461041b5780639a802a6d14610416578063a217fddf14610411578063a6fb56ac146103b7578063a890c9101461040c578063a9a9529414610407578063aa4704f314610402578063ab58fb8e146103fd578063ad1bd7f7146103f8578063ad3cb1cc146103f3578063b4b5ea57146103ee578063b58131b0146103e9578063bc197c81146103e4578063be4090b7146103df578063bf23a2de146103da578063c01f9e37146103d5578063c28bc2fa146103d0578063c59057e4146103cb578063c94b7693146103c6578063d33219b4146103c1578063d547741f146103bc578063d978ffba146103b7578063dd4e2ba5146103b2578063deaaa7cc146103ad578063e1f1c4a7146103a8578063e540d01d146103a3578063e603704a1461039e578063eb9019d414610399578063ece40cc114610394578063ee99205c1461038f578063f23a6e611461038a578063f8ce560a146103855763fc0c546a0361000e5761367b565b613640565b61358f565b61355d565b613539565b61348e565b613258565b613226565b61320a565b6131d0565b613173565b612a4f565b613114565b6130c2565b6130a6565b61308a565b61301e565b613000565b612fe4565b612f67565b612e97565b612e7d565b612e56565b612df9565b612d54565b612d00565b612bd2565b612b3f565b612a85565b612a22565b612920565b6128f6565b612883565b612705565b612654565b612566565b612420565b612300565b612277565b61225d565b612206565b6121d9565b6121a6565b61207d565b612061565b612030565b611f9f565b611f83565b611d2f565b611d15565b611c88565b611c1f565b611bf9565b611b93565b611af2565b611989565b611750565b611721565b611604565b611582565b611555565b6114c9565b611459565b61139b565b611361565b611302565b6112a8565b611057565b61100b565b610ff0565b610c82565b6109e2565b6107c9565b6107ad565b61068c565b61060f565b34610601576020600319360112610601576004357fffffffff00000000000000000000000000000000000000000000000000000000811680910361060157807f65455a8600000000000000000000000000000000000000000000000000000000602092149081156105d7575b811561057a575b506040519015158152f35b7f7965db0b000000000000000000000000000000000000000000000000000000008114915081156105ad575b505f61056f565b7f01ffc9a7000000000000000000000000000000000000000000000000000000009150145f6105a6565b7f4e2312e00000000000000000000000000000000000000000000000000000000081149150610568565b5f80fd5b5f91031261060157565b34610601575f60031936011261060157602063ffffffff7ed7616c8fe29c6c2fbe1d0c5bc8f2faa4c35b43746e70b24b4d532752affd015460301c16604051908152f35b90601f19601f602080948051918291828752018686015e5f8582860101520116010190565b906020610689928181520190610653565b90565b34610601575f600319360112610601576040515f7f7c712897014dbe49c045ef1299aa2d5f9e67e48eea4403efa21f1e0f3ac0cb008054906106cd826136cd565b80855291602091600191828116908115610762575060011461070a575b610706866106fa81880382610936565b60405191829182610678565b0390f35b5f90815293507fda13dda7583a39a3cd73e8830529c760837228fa4683752c823b17e10548aad55b83851061074f575050505081016020016106fa826107065f6106ea565b8054868601840152938201938101610732565b879650610706979450602093506106fa9592507fffffffffffffffffffffffffffffffffffffffffffffffffffffffffffffff0091501682840152151560051b82010192935f6106ea565b34610601575f6003193601126106015760206040516107d08152f35b34610601576020600319360112610601576004355f527f7c712897014dbe49c045ef1299aa2d5f9e67e48eea4403efa21f1e0f3ac0cb01602052602073ffffffffffffffffffffffffffffffffffffffff60405f205416604051908152f35b73ffffffffffffffffffffffffffffffffffffffff81160361060157565b7f4e487b71000000000000000000000000000000000000000000000000000000005f52604160045260245ffd5b67ffffffffffffffff811161088757604052565b610846565b60a0810190811067ffffffffffffffff82111761088757604052565b610140810190811067ffffffffffffffff82111761088757604052565b6020810190811067ffffffffffffffff82111761088757604052565b60c0810190811067ffffffffffffffff82111761088757604052565b6040810190811067ffffffffffffffff82111761088757604052565b610100810190811067ffffffffffffffff82111761088757604052565b90601f601f19910116810190811067ffffffffffffffff82111761088757604052565b60405190610966826108a8565b565b604051906109668261088c565b67ffffffffffffffff811161088757601f01601f191660200190565b92919261099d82610975565b916109ab6040519384610936565b829481845281830111610601578281602093845f960137010152565b9080601f830112156106015781602061068993359101610991565b34610601576080600319360112610601576109fe600435610828565b610a09602435610828565b60643567ffffffffffffffff811161060157610a299036906004016109c7565b5073ffffffffffffffffffffffffffffffffffffffff7f0d5829787b8befdbc6044ef7457d8a95c2a04bc99235349f1a212c063e59d40054163003610a93576040517f150b7a02000000000000000000000000000000000000000000000000000000008152602090f35b60046040517fe90a651e000000000000000000000000000000000000000000000000000000008152fd5b67ffffffffffffffff81116108875760051b60200190565b9080601f83011215610601576020908235610aef81610abd565b93610afd6040519586610936565b81855260208086019260051b82010192831161060157602001905b828210610b26575050505090565b8380918335610b3481610828565b815201910190610b18565b9080601f83011215610601576020908235610b5981610abd565b93610b676040519586610936565b81855260208086019260051b82010192831161060157602001905b828210610b90575050505090565b81358152908301908301610b82565b81601f8201121561060157803591602091610bb984610abd565b93610bc76040519586610936565b808552838086019160051b8301019280841161060157848301915b848310610bf25750505050505090565b823567ffffffffffffffff8111610601578691610c14848480948901016109c7565b815201920191610be2565b60806003198201126106015767ffffffffffffffff916004358381116106015782610c4c91600401610ad5565b926024358181116106015783610c6491600401610b3f565b9260443591821161060157610c7b91600401610b9f565b9060643590565b3461060157610c9036610c1f565b909291610c9f828583866143ac565b92610ca984614721565b507f0d5829787b8befdbc6044ef7457d8a95c2a04bc99235349f1a212c063e59d40094610d06610ced875473ffffffffffffffffffffffffffffffffffffffff1690565b73ffffffffffffffffffffffffffffffffffffffff1690565b926040968751907ff27a0c9200000000000000000000000000000000000000000000000000000000825260209081836004818a5afa968715610f9557610db4988b945f99610fc7575b508391868989937fffffffffffffffffffffffffffffffffffffffff0000000000000000000000003060601b16189c8d9851988995869485947fb1c5f42700000000000000000000000000000000000000000000000000000000865260048601615cbb565b03915afa8015610f9557610e1b93610ced935f92610f9a575b5050610e008a5f527f0d5829787b8befdbc6044ef7457d8a95c2a04bc99235349f1a212c063e59d40160205260405f2090565b555473ffffffffffffffffffffffffffffffffffffffff1690565b90813b15610601575f8094610e5f878b51998a97889687957f8f2a0bb000000000000000000000000000000000000000000000000000000000875260048701615d00565b03925af1908115610f9557610e8392610e7e92610f7c575b5042613ddd565b616554565b65ffffffffffff811615610f5357917f9a2e42fd6722813d69113e7d0079d3d940171428df7373df9c7f7617cfda2892610f4284610f24610706966001610ef1885f527f7c712897014dbe49c045ef1299aa2d5f9e67e48eea4403efa21f1e0f3ac0cb0160205260405f2090565b019065ffffffffffff167fffffffffffffffffffffffffffffffffffffffffffffffffffff000000000000825416179055565b835185815265ffffffffffff90911660208201529081906040820190565b0390a1519081529081906020820190565b600483517f90884a46000000000000000000000000000000000000000000000000000000008152fd5b80610f89610f8f92610873565b80610605565b5f610e77565b613928565b610fb99250803d10610fc0575b610fb18183610936565b810190613d16565b5f80610dcd565b503d610fa7565b87919950918689610fe58795863d8811610fc057610fb18183610936565b9b9350505091610d4f565b34610601575f600319360112610601576020604051600a8152f35b34610601576020600319360112610601576004355f527f02dd7bc7dec4dceedda775e58dd541e08a116c6c53815c0bd028192f7b6268006020526020600160405f200154604051908152f35b61106036610c1f565b61106f818385879596976143ac565b92611079846147f7565b506110f76110ae855f527f7c712897014dbe49c045ef1299aa2d5f9e67e48eea4403efa21f1e0f3ac0cb0160205260405f2090565b7e010000000000000000000000000000000000000000000000000000000000007fff00ffffffffffffffffffffffffffffffffffffffffffffffffffffffffffff825416179055565b73ffffffffffffffffffffffffffffffffffffffff947f0d5829787b8befdbc6044ef7457d8a95c2a04bc99235349f1a212c063e59d4009386855416300361122e575b92610706969261114e9261116b9588614930565b3092541673ffffffffffffffffffffffffffffffffffffffff1690565b1415806111e1575b6111b4575b6040518181527f712ae1383f79ac853f8d882153778e0260ef8f03b504e2866e0593e04d2b291f90602090a16040519081529081906020820190565b6111dc5f7f7c712897014dbe49c045ef1299aa2d5f9e67e48eea4403efa21f1e0f3ac0cb0255565b611178565b506112296112257f7c712897014dbe49c045ef1299aa2d5f9e67e48eea4403efa21f1e0f3ac0cb02546fffffffffffffffffffffffffffffffff81169060801c1490565b1590565b611173565b9391959094925f5b8551811015611298576001903061126d610ced611253848b61390f565b5173ffffffffffffffffffffffffffffffffffffffff1690565b14611279575b01611236565b611293611286828b61390f565b5160208151910120614862565b611273565b509095929491939092919061113a565b346106015760206003193601126106015760206112fa6004355f527f7c712897014dbe49c045ef1299aa2d5f9e67e48eea4403efa21f1e0f3ac0cb0160205265ffffffffffff60405f205460a01c1690565b604051908152f35b346106015760406003193601126106015761002060243560043561132582610828565b805f527f02dd7bc7dec4dceedda775e58dd541e08a116c6c53815c0bd028192f7b62680060205261135c600160405f200154614ada565b614c78565b34610601575f6003193601126106015760206040517f3e83946653575f9a39005e1545185629e92736b7528ab20ca3816f315424a8118152f35b34610601576020600319360112610601576004356113b881610828565b6113c0614d76565b73ffffffffffffffffffffffffffffffffffffffff80911690811561142f575f54827fffffffffffffffffffffffff00000000000000000000000000000000000000008216175f55167f7042586b23181180eb30b4798702d7a0233b7fc2551e89806770e8e5d9392e6a5f80a3005b60046040517f3d8c6f98000000000000000000000000000000000000000000000000000000008152fd5b346106015760406003193601126106015760243561147681610828565b3373ffffffffffffffffffffffffffffffffffffffff82160361149f5761002090600435614e2c565b60046040517f6697b232000000000000000000000000000000000000000000000000000000008152fd5b34610601575f60031936011261060157602065ffffffffffff7ed7616c8fe29c6c2fbe1d0c5bc8f2faa4c35b43746e70b24b4d532752affd015416604051908152f35b7f4e487b71000000000000000000000000000000000000000000000000000000005f52602160045260245ffd5b6008111561154357565b61150c565b9060088210156115435752565b34610601576020600319360112610601576020611573600435614f35565b6115806040518092611548565bf35b3461060157604060031936011261060157602060ff6115f86024356115a681610828565b6004355f527fa1cefa0f43667ef127a258e673c94202a79b656e62899531c4376d87a7f398008452600360405f20019073ffffffffffffffffffffffffffffffffffffffff165f5260205260405f2090565b54166040519015158152f35b346106015761161236610c1f565b906116218282858796976143ac565b61162a81614f35565b60088110156115435760018060ff83161b16156116db57505f527f7c712897014dbe49c045ef1299aa2d5f9e67e48eea4403efa21f1e0f3ac0cb0160205273ffffffffffffffffffffffffffffffffffffffff60405f20541633036116a657610706936116969361616d565b6040519081529081906020820190565b6040517f233d98e3000000000000000000000000000000000000000000000000000000008152336004820152602490fd5b0390fd5b90611718606492604051927f31b75e4d00000000000000000000000000000000000000000000000000000000845260048401526024830190611548565b60016044820152fd5b34610601575f6003193601126106015761070661173c61396c565b604051918291602083526020830190610653565b604060031936011261060157600480359061176a82610828565b60243567ffffffffffffffff81116106015761178990369083016109c7565b73ffffffffffffffffffffffffffffffffffffffff807f00000000000000000000000000000000000000000000000000000000000000001680301490811561191a575b506118f15790602083926117de614a6c565b604051938480927f52d1902d00000000000000000000000000000000000000000000000000000000825288165afa5f92816118d0575b506118685750506040517f4c9c8ce300000000000000000000000000000000000000000000000000000000815273ffffffffffffffffffffffffffffffffffffffff90921690820190815281906020010390fd5b83837f360894a13ba1a3210667c828492db98dca3e2076cc3735a920a3ca505d382bbc840361189b576100208383616397565b6040517faa1d49a400000000000000000000000000000000000000000000000000000000815290810184815281906020010390fd5b6118ea91935060203d602011610fc057610fb18183610936565b915f611814565b826040517fe07c8dba000000000000000000000000000000000000000000000000000000008152fd5b9050817f360894a13ba1a3210667c828492db98dca3e2076cc3735a920a3ca505d382bbc541614155f6117cc565b60043590600482101561060157565b60843590600482101561060157565b65ffffffffffff81160361060157565b6064359063ffffffff8216820361060157565b346106015760a0600319360112610601577f799fa6583114f822fc2f95f0da05bce0b434fbe826d75c3632c7eb444bd68d426119c3611948565b60243590611aed6044356119d681611966565b6119de611976565b906119e7614d76565b6040516119f38161088c565b6119fc85612511565b848152600385611add60208401898152604085019065ffffffffffff8088168352611aa2606088019163ffffffff93848c168452611a4260808b01986084358a52612511565b8d5f526036602052611a6260405f209a51611a5c81612511565b8b613a65565b5160018a015560028901945116849065ffffffffffff167fffffffffffffffffffffffffffffffffffffffffffffffffffff000000000000825416179055565b5182547fffffffffffffffffffffffffffffffffffffffffffff00000000ffffffffffff16911660301b69ffffffff00000000000016179055565b5191015560405194859485613b51565b0390a1005b34610601575f6003193601126106015773ffffffffffffffffffffffffffffffffffffffff7f0000000000000000000000000000000000000000000000000000000000000000163003611b695760206040517f360894a13ba1a3210667c828492db98dca3e2076cc3735a920a3ca505d382bbc8152f35b60046040517fe07c8dba000000000000000000000000000000000000000000000000000000008152fd5b34610601576020600319360112610601576004355f9081527fa1cefa0f43667ef127a258e673c94202a79b656e62899531c4376d87a7f3980060209081526040918290208054600182015460029092015484519182529281019190915291820152606090f35b34610601575f6003193601126106015761070661173c613b86565b60ff81160361060157565b346106015760406003193601126106015760206112fa602435611c4181611c14565b60405190611c4e826108c5565b5f8252336004356150c0565b9181601f840112156106015782359167ffffffffffffffff8311610601576020838186019501011161060157565b346106015760c060031936011261060157602435611ca581611c14565b60443590611cb282610828565b67ffffffffffffffff9060643582811161060157611cd4903690600401611c5a565b60843584811161060157611cec9036906004016109c7565b9160a4359485116106015761070695611d0c6116969636906004016109c7565b94600435613bbf565b34610601575f6003193601126106015760206112fa615400565b3461060157608060031936011261060157600435602435611d4f81611c14565b67ffffffffffffffff9160443583811161060157611d71903690600401611c5a565b909360643590811161060157611e7494611d92611d9a9236906004016109c7565b923691610991565b90611da48361478c565b506020611de4845f527f7c712897014dbe49c045ef1299aa2d5f9e67e48eea4403efa21f1e0f3ac0cb0160205265ffffffffffff60405f205460a01c1690565b73ffffffffffffffffffffffffffffffffffffffff7f3ba4977254e415696610a40ebf2258dbfa0ec6a2ff64e84bfe715ff16977cc00541660405180809981947f3a46b1a800000000000000000000000000000000000000000000000000000000835233600484016020909392919373ffffffffffffffffffffffffffffffffffffffff60408201951681520152565b03915afa948515610f955761070695611eb8915f91611f64575b50611e9833615466565b90611ead611ea582613d52565b612710900490565b8211611f5057613ddd565b938491611ec783833388616d57565b8051611f145750611f017fb8e138887d0aa13bab447e82de9d5c1777041ecd21ca36ba824ff1e6c07ddda493604051938493339785616521565b0390a26040519081529081906020820190565b611f48907fe2babfbac5889a709b63bb7f598b324e08bc5a4fb9ec647fb3cbc9ec07eb8712946040519485943398866164e7565b0390a2611696565b9050611f5e611ea582613d52565b90613ddd565b611f7d915060203d602011610fc057610fb18183610936565b5f611e8e565b34610601575f6003193601126106015760206040516101908152f35b3461060157602060031936011261060157600435611fbc81610828565b611fc4614d76565b6037549073ffffffffffffffffffffffffffffffffffffffff80911691827fffffffffffffffffffffffff0000000000000000000000000000000000000000821617603755167f957e9800896b1c76250773192dd45f6fc70e4a695c9c0dcdd9975de5639636b95f80a3005b34610601575f60031936011261060157603454600a81111561205957506020600a604051908152f35b6020906112fa565b34610601575f60031936011261060157602060405161c3508152f35b346106015760406003193601126106015760043561209a81610828565b7f3ba4977254e415696610a40ebf2258dbfa0ec6a2ff64e84bfe715ff16977cc00546040517f3a46b1a800000000000000000000000000000000000000000000000000000000815273ffffffffffffffffffffffffffffffffffffffff8381166004830152602480359083015290929160209184916044918391165afa918215610f95575f92612181575b5061212f90615466565b9061213c611ea582613d52565b821161216d575b6107066121508383613ddd565b604051938493846040919493926060820195825260208201520152565b905061217b611ea582613d52565b90612143565b61212f91925061219f9060203d602011610fc057610fb18183610936565b9190612125565b34610601575f60031936011261060157602073ffffffffffffffffffffffffffffffffffffffff60375416604051908152f35b34610601576020600319360112610601576100206004356121f981611966565b612201614d76565b6154e1565b346106015760606003193601126106015760243561222381611c14565b60443567ffffffffffffffff81116106015760209161225361224c6112fa933690600401611c5a565b3691610991565b90336004356150c0565b34610601575f6003193601126106015760206112fa615566565b346106015760806003193601126106015767ffffffffffffffff600435818111610601576122a9903690600401610ad5565b90602435818111610601576122c2903690600401610b3f565b91604435828111610601576122db903690600401610b9f565b60643592831161060157610706936122fa6116969436906004016109c7565b926155ef565b346106015760206003193601126106015773ffffffffffffffffffffffffffffffffffffffff60043561233281610828565b165f527f5ab42ced628888259c08ac98db1eb0cf702fc1501344311d8b100cd1bfe4bb00602052602060405f2054604051908152f35b9081518082526020808093019301915f5b828110612387575050505090565b835185529381019392810192600101612379565b91936124016106899694956123f373ffffffffffffffffffffffffffffffffffffffff947f0f00000000000000000000000000000000000000000000000000000000000000875260e0602088015260e0870190610653565b908582036040870152610653565b9460608401521660808201525f60a082015260c0818403910152612368565b34610601575f600319360112610601577fa16a46d94261c7517cc8ff89f61c0ce93598e3c849801011dee649a6a557d1005415806124e8575b1561248a5761246661371e565b61246e613823565b9061070661247a613dea565b604051938493309146918661239b565b60646040517f08c379a000000000000000000000000000000000000000000000000000000000815260206004820152601560248201527f4549503731323a20556e696e697469616c697a656400000000000000000000006044820152fd5b507fa16a46d94261c7517cc8ff89f61c0ce93598e3c849801011dee649a6a557d1015415612459565b6004111561154357565b91909160808060a0830194805161253181612511565b84526020810151602085015265ffffffffffff604082015116604085015263ffffffff60608201511660608501520151910152565b346106015760206003193601126106015761257f611948565b612587613e00565b5061259181612511565b5f52603660205261070660405f206003604051916125ae8361088c565b60ff8154166125bc81612511565b83526001810154602084015263ffffffff600282015465ffffffffffff8116604086015260301c166060840152015460808201526040519182918261251b565b610640810192915f915b600a831061261357505050565b60019060a083519182518152602092838101518483015260408082015190830152606080820151908301526080809101519082015201920192019190612606565b34610601575f6003193601126106015760408051612671816108a8565b5f5b61014081106126f05782604051612689816108a8565b60025f81835b600a83106126a5576040518061070687826125fc565b60056001918751906126b68261088c565b86548252838701549160209283820152858801548a820152600388015460608201526004880154608082015281520194019201919261268f565b6020906126fb613e00565b8184015201612673565b346106015760806003193601126106015760243560043561272582611c14565b6044359161273283610828565b60643567ffffffffffffffff8111610601576112256127586128219236906004016109c7565b61281b6127ab8773ffffffffffffffffffffffffffffffffffffffff165f527f5ab42ced628888259c08ac98db1eb0cf702fc1501344311d8b100cd1bfe4bb0060205260405f2080549060018201905590565b60405160208101917ff2aad550cf55f045cb27e9c559f9889fdfb6e6cdaa032301d6ea397784ae51d7835288604083015260ff8816606083015273ffffffffffffffffffffffffffffffffffffffff8a16608083015260a082015260a08152612813816108e1565b519020615254565b866152ef565b61283c57906116969161070693612836612de7565b926150c0565b6040517f94ab6c0700000000000000000000000000000000000000000000000000000000815273ffffffffffffffffffffffffffffffffffffffff84166004820152602490fd5b3461060157604060031936011261060157602060ff6115f86024356128a781610828565b6004355f527f02dd7bc7dec4dceedda775e58dd541e08a116c6c53815c0bd028192f7b626800845260405f209073ffffffffffffffffffffffffffffffffffffffff165f5260205260405f2090565b34610601575f600319360112610601576020612910613e2a565b65ffffffffffff60405191168152f35b346106015760606003193601126106015760043561293d81610828565b60443567ffffffffffffffff81116106015761295d9036906004016109c7565b507f3ba4977254e415696610a40ebf2258dbfa0ec6a2ff64e84bfe715ff16977cc00546040517f3a46b1a800000000000000000000000000000000000000000000000000000000815273ffffffffffffffffffffffffffffffffffffffff8381166004830152602480359083015290916020918391168180604481015b03915afa8015610f955761070692611696925f926129fd575b50611e9890615466565b611e98919250612a1b9060203d602011610fc057610fb18183610936565b91906129f3565b34610601575f6003193601126106015760206040515f8152f35b91906020830192612a4c82612511565b52565b34610601576020600319360112610601576004355f526035602052602060ff60405f20541660405190612a8181612511565b8152f35b3461060157602060031936011261060157600435612aa281610828565b612aaa614d76565b7f0d5829787b8befdbc6044ef7457d8a95c2a04bc99235349f1a212c063e59d400907fffffffffffffffffffffffff000000000000000000000000000000000000000082547f08f74ea46ef7894f65eabfb5e6e695de773a000b47c529ab559178069b226401604073ffffffffffffffffffffffffffffffffffffffff8095169481519084168152856020820152a116179055005b3461060157602060031936011261060157602060405160018152f35b8151815260208083015160ff16908201526101408101929160408181015160ff1690830152606081015160608301526080810151608083015260a081015160a083015260c081015160c0830152612bbb60e082015160e084019015159052565b610100808201519083015261012080910151910152565b3461060157602060031936011261060157612caf600435612bf281610828565b5f610120604051612c02816108a8565b8281528260208201528260408201528260608201528260808201528260a08201528260c08201528260e0820152826101008201520152612c59610ced5f5473ffffffffffffffffffffffffffffffffffffffff1690565b6040517fc345315300000000000000000000000000000000000000000000000000000000815273ffffffffffffffffffffffffffffffffffffffff90921660048301526101409283918391829081906024820190565b03915afa908115610f9557610706925f92612cd3575b505060405191829182612b5b565b612cf29250803d10612cf9575b612cea8183610936565b810190613efe565b5f80612cc5565b503d612ce0565b34610601576020600319360112610601576004355f527f7c712897014dbe49c045ef1299aa2d5f9e67e48eea4403efa21f1e0f3ac0cb01602052602065ffffffffffff600160405f20015416604051908152f35b346106015760a06003193601126106015767ffffffffffffffff60043581811161060157612d86903690600401610ad5565b9060243581811161060157612d9f903690600401610b3f565b9160443582811161060157612db8903690600401610b9f565b926064359283116106015761070693612dd86116969436906004016109c7565b91612de1611957565b93613fc1565b60405190612df4826108c5565b5f8252565b34610601575f60031936011261060157610706604051612e18816108fd565b600581527f352e302e300000000000000000000000000000000000000000000000000000006020820152604051918291602083526020830190610653565b346106015760206003193601126106015760206112fa600435612e7881610828565b61419d565b34610601575f6003193601126106015760206112fa615765565b346106015760a060031936011261060157612eb3600435610828565b612ebe602435610828565b67ffffffffffffffff60443581811161060157612edf903690600401610b3f565b5060643581811161060157612ef8903690600401610b3f565b5060843590811161060157612f119036906004016109c7565b50610706612f1d614276565b6040517fffffffff0000000000000000000000000000000000000000000000000000000090911681529081906020820190565b612f5981612511565b5f52603660205260405f2090565b3461060157602060031936011261060157612f80611948565b612f8981612511565b5f52603660205260a060405f2060ff8154169063ffffffff600182015491600360028201549101549260405194612fbf81612511565b8552602085015265ffffffffffff8116604085015260301c1660608301526080820152f35b34610601575f6003193601126106015760206040516103e88152f35b346106015760206003193601126106015760206112fa6004356157ac565b60606003193601126106015760043561303681610828565b6044359067ffffffffffffffff8211610601575f809161305d610020943690600401611c5a565b90613066614d76565b81604051928392833781018481520391602435905af16130846142d8565b9061580f565b346106015760206112fa61309d36610c1f565b929190916143ac565b34610601575f6003193601126106015760206040516105dc8152f35b34610601575f60031936011261060157602073ffffffffffffffffffffffffffffffffffffffff7f0d5829787b8befdbc6044ef7457d8a95c2a04bc99235349f1a212c063e59d4005416604051908152f35b346106015760406003193601126106015761002060243560043561313782610828565b805f527f02dd7bc7dec4dceedda775e58dd541e08a116c6c53815c0bd028192f7b62680060205261316e600160405f200154614ada565b614e2c565b34610601575f60031936011261060157610706604051613192816108fd565b602081527f737570706f72743d627261766f2671756f72756d3d666f722c6162737461696e6020820152604051918291602083526020830190610653565b34610601575f6003193601126106015760206040517ff2aad550cf55f045cb27e9c559f9889fdfb6e6cdaa032301d6ea397784ae51d78152f35b34610601575f6003193601126106015760206040516127108152f35b346106015760206003193601126106015760043563ffffffff811681036106015761002090613253614d76565b61581c565b346106015760e06003193601126106015760043561327581610828565b60243561328181610828565b6044359161328e83610828565b613296611976565b906084356132a381611966565b60c435926132b084610828565b7ff0c57e16840df040f15088dc2f81fe391c3923bec73e23a9662efc9c229c6a00549567ffffffffffffffff60ff8860401c1615971680159081613486575b600114908161347c575b159081613473575b5061344957613368958761335a7ff0c57e16840df040f15088dc2f81fe391c3923bec73e23a9662efc9c229c6a0060017fffffffffffffffffffffffffffffffffffffffffffffffff0000000000000000825416179055565b6133ed575b60a43594614410565b61336e57005b6133ba7ff0c57e16840df040f15088dc2f81fe391c3923bec73e23a9662efc9c229c6a007fffffffffffffffffffffffffffffffffffffffffffffff00ffffffffffffffff8154169055565b604051600181527fc7f505b2f371ae2175ee4913f4499e1f2633a7b5936321eed1cdaeb6115181d2908060208101611aed565b6134447ff0c57e16840df040f15088dc2f81fe391c3923bec73e23a9662efc9c229c6a00680100000000000000007fffffffffffffffffffffffffffffffffffffffffffffff00ffffffffffffffff825416179055565b61335f565b60046040517ff92ee8a9000000000000000000000000000000000000000000000000000000008152fd5b9050155f613301565b303b1591506132f9565b8891506132ef565b34610601576040600319360112610601576004356134ab81610828565b5f6040516134b8816108c5565b527f3ba4977254e415696610a40ebf2258dbfa0ec6a2ff64e84bfe715ff16977cc00546040517f3a46b1a800000000000000000000000000000000000000000000000000000000815273ffffffffffffffffffffffffffffffffffffffff8381166004830152602480359083015290916020918391168180604481016129da565b3461060157602060031936011261060157613552614d76565b610020600435615c65565b34610601575f60031936011261060157602073ffffffffffffffffffffffffffffffffffffffff5f5416604051908152f35b346106015760a0600319360112610601576135ab600435610828565b6135b6602435610828565b60843567ffffffffffffffff8111610601576135d69036906004016109c7565b5073ffffffffffffffffffffffffffffffffffffffff7f0d5829787b8befdbc6044ef7457d8a95c2a04bc99235349f1a212c063e59d40054163003610a93576040517ff23a6e61000000000000000000000000000000000000000000000000000000008152602090f35b34610601576020600319360112610601576020612710613672613664600435616ba2565b61366c615566565b90613d85565b04604051908152f35b34610601575f60031936011261060157602073ffffffffffffffffffffffffffffffffffffffff7f3ba4977254e415696610a40ebf2258dbfa0ec6a2ff64e84bfe715ff16977cc005416604051908152f35b90600182811c92168015613714575b60208310146136e757565b7f4e487b71000000000000000000000000000000000000000000000000000000005f52602260045260245ffd5b91607f16916136dc565b604051905f827fa16a46d94261c7517cc8ff89f61c0ce93598e3c849801011dee649a6a557d10291825492613752846136cd565b808452936020916001918281169081156137de575060011461377e575b50505061096692500383610936565b5f9081527f42ad5d3e1f2e6e70edcf6d991b8a3023d3fca8047a131592f9edb9fd9b89d57d9590935091905b8284106137c657506109669450505081016020015f808061376f565b855488850183015294850194879450928101926137aa565b915050602093506109669592507fffffffffffffffffffffffffffffffffffffffffffffffffffffffffffffff0091501682840152151560051b8201015f808061376f565b604051905f827fa16a46d94261c7517cc8ff89f61c0ce93598e3c849801011dee649a6a557d10391825492613857846136cd565b808452936020916001918281169081156137de57506001146138825750505061096692500383610936565b5f9081527f5f9ce34815f8e11431c7bb75a8e6886a91478f7ffc1dbb0a98dc240fddd76b759590935091905b8284106138ca57506109669450505081016020015f808061376f565b855488850183015294850194879450928101926138ae565b7f4e487b71000000000000000000000000000000000000000000000000000000005f52603260045260245ffd5b80518210156139235760209160051b010190565b6138e2565b6040513d5f823e3d90fd5b60405190613940826108fd565b601d82527f6d6f64653d626c6f636b6e756d6265722666726f6d3d64656661756c740000006020830152565b60045f73ffffffffffffffffffffffffffffffffffffffff7f3ba4977254e415696610a40ebf2258dbfa0ec6a2ff64e84bfe715ff16977cc005416604051928380927f4bf5d7e90000000000000000000000000000000000000000000000000000000082525afa5f91816139e9575b506106895750610689613933565b9091503d805f833e6139fb8183610936565b8101906020818303126106015780519067ffffffffffffffff8211610601570181601f8201121561060157805190613a3282610975565b92613a406040519485610936565b8284526020838301011161060157815f9260208093018386015e83010152905f6139db565b90613a6f81612511565b60ff7fffffffffffffffffffffffffffffffffffffffffffffffffffffffffffffff008354169116179055565b906080600391613ab68151613ab081612511565b85613a65565b60208101516001850155613b4a60028501613b0a65ffffffffffff604085015116829065ffffffffffff167fffffffffffffffffffffffffffffffffffffffffffffffffffff000000000000825416179055565b606083015181547fffffffffffffffffffffffffffffffffffffffffffff00000000ffffffffffff1660309190911b69ffffffff00000000000016179055565b0151910155565b929365ffffffffffff63ffffffff9296956060946080870198613b7381612511565b8752602087015216604085015216910152565b60405190613b93826108fd565b600182527f31000000000000000000000000000000000000000000000000000000000000006020830152565b939092919695611225613cb491613cae87878c8b613c238273ffffffffffffffffffffffffffffffffffffffff165f527f5ab42ced628888259c08ac98db1eb0cf702fc1501344311d8b100cd1bfe4bb0060205260405f2080549060018201905590565b73ffffffffffffffffffffffffffffffffffffffff613c43368c8e610991565b6020815191012092602081519101209360ff6040519660208801987f3e83946653575f9a39005e1545185629e92736b7528ab20ca3816f315424a8118a52604089015216606087015216608085015260a084015260c083015260e082015260e0815261281381610919565b8a6152ef565b613ccf57610689959691613cc9913691610991565b92616547565b6040517f94ab6c0700000000000000000000000000000000000000000000000000000000815273ffffffffffffffffffffffffffffffffffffffff88166004820152602490fd5b90816020910312610601575190565b7f4e487b71000000000000000000000000000000000000000000000000000000005f52601160045260245ffd5b9061c35091828102928184041490151715613d6957565b613d25565b9061271091828102928184041490151715613d6957565b81810292918115918404141715613d6957565b8115613da2570490565b7f4e487b71000000000000000000000000000000000000000000000000000000005f52601260045260245ffd5b9060018201809211613d6957565b91908201809211613d6957565b604051613df6816108c5565b5f8152905f368137565b60405190613e0d8261088c565b5f6080838281528260208201528260408201528260608201520152565b6004602073ffffffffffffffffffffffffffffffffffffffff7f3ba4977254e415696610a40ebf2258dbfa0ec6a2ff64e84bfe715ff16977cc005416604051928380927f91ddadf40000000000000000000000000000000000000000000000000000000082525afa5f9181613ea9575b50610689575061068943616554565b9091506020813d602011613ede575b81613ec560209383610936565b810103126106015751613ed781611966565b905f613e9a565b3d9150613eb8565b519061096682611c14565b5190811515820361060157565b908161014091031261060157613f12610959565b9080518252613f2360208201613ee6565b6020830152613f3460408201613ee6565b6040830152606081015160608301526080810151608083015260a081015160a083015260c081015160c0830152613f6d60e08201613ef1565b60e08301526101008082015190830152610120809101519082015290565b907fffffffffffffffffffffffffffffffffffffffffffffffffffffffffffffffff65ffffffffffff80931601918211613d6957565b90919392613fce84612511565b6003840361408757613ff8610ced60375473ffffffffffffffffffffffffffffffffffffffff1690565b330361405d57614057947fc6688e7355478c216688e518d4cea9fbc3961fefe3191f808b793608f70e13a49361402d936155ef565b928261404b8594614046865f52603560205260405f2090565b613a65565b60405191829182612a3c565b0390a290565b60046040517fa8631626000000000000000000000000000000000000000000000000000000008152fd5b92939190600161409686612f50565b01546140c86140b96140ae6140a9613e2a565b613f8b565b65ffffffffffff1690565b6140c1612de7565b503361659f565b818110614102575050927fc6688e7355478c216688e518d4cea9fbc3961fefe3191f808b793608f70e13a49261402d9261405796956155ef565b6040517f09e915af00000000000000000000000000000000000000000000000000000000815233600482015260248101919091526044810191909152606490fd5b907fffffffffffffffffffffffffffffffffffffffffffffffffffffffffffffffff8201918211613d6957565b907fffffffffffffffffffffffffffffffffffffffffffffffffffffffffffffffd88201918211613d6957565b6141a86140ae613e2a565b908115614270577f3ba4977254e415696610a40ebf2258dbfa0ec6a2ff64e84bfe715ff16977cc0054614251926020916141f89073ffffffffffffffffffffffffffffffffffffffff1691614143565b9060405180809681947f3a46b1a800000000000000000000000000000000000000000000000000000000835287600484016020909392919373ffffffffffffffffffffffffffffffffffffffff60408201951681520152565b03915afa908115610f9557610689925f926129fd5750611e9890615466565b50505f90565b73ffffffffffffffffffffffffffffffffffffffff7f0d5829787b8befdbc6044ef7457d8a95c2a04bc99235349f1a212c063e59d40054163003610a93577fbc197c810000000000000000000000000000000000000000000000000000000090565b3d15614302573d906142e982610975565b916142f76040519384610936565b82523d5f602084013e565b606090565b9081518082526020808093019301915f5b828110614326575050505090565b835173ffffffffffffffffffffffffffffffffffffffff1685529381019392810192600101614318565b90808251908181526020809101926020808460051b8301019501935f915b84831061437e5750505050505090565b909192939495848061439c83601f1986600196030187528a51610653565b980193019301919493929061436e565b92906143f89261440a926040519485926143e86143d5602086019960808b5260a0870190614307565b601f199687878303016040880152612368565b9085858303016060860152614350565b90608083015203908101835282610936565b51902090565b969593949194929092604051614425816108fd565b600c815260207f416e6465476f7665726e6f7200000000000000000000000000000000000000006020830152614459616713565b614461613b86565b9061446a616713565b825167ffffffffffffffff8111610887577fa16a46d94261c7517cc8ff89f61c0ce93598e3c849801011dee649a6a557d102916144b0826144ab85546136cd565b61676c565b602090601f83116001146145d057509461458c6145c29c9d956145376145919673ffffffffffffffffffffffffffffffffffffffff9e9d9b96614530876145a39f9c986145969e995f916145c5575b507fffffffffffffffffffffffffffffffffffffffffffffffffffffffffffffffff8260011b9260031b1c19161790565b9055616910565b61455f5f7fa16a46d94261c7517cc8ff89f61c0ce93598e3c849801011dee649a6a557d10055565b6145875f7fa16a46d94261c7517cc8ff89f61c0ce93598e3c849801011dee649a6a557d10155565b616a79565b6158eb565b61590c565b61459e6159c8565b6159da565b166145ad81615bc0565b6145b5616713565b6145bd616713565b614b6f565b50565b90508601515f6144ff565b7fa16a46d94261c7517cc8ff89f61c0ce93598e3c849801011dee649a6a557d1025f5290601f1983167f42ad5d3e1f2e6e70edcf6d991b8a3023d3fca8047a131592f9edb9fd9b89d57d925f905b8282106146aa575050956145376145c29e9f979673ffffffffffffffffffffffffffffffffffffffff9e9d9b966001876145a39f9c9761458c976145969f9a6145919d10614673575b5050811b019055616910565b8701517fffffffffffffffffffffffffffffffffffffffffffffffffffffffffffffffff60f88460031b161c191690555f80614667565b80600185968294968c0151815501950193019061461e565b73ffffffffffffffffffffffffffffffffffffffff7f0d5829787b8befdbc6044ef7457d8a95c2a04bc99235349f1a212c063e59d40054163003610a9357565b60409061471d5f939594606083019683526020830190611548565b0152565b61472a81614f35565b906008821015611543576010600160ff84161b1615614747575090565b614783606492604051927f31b75e4d00000000000000000000000000000000000000000000000000000000845260048401526024830190611548565b60106044820152fd5b61479581614f35565b906008821015611543576002600160ff84161b16156147b2575090565b6147ee606492604051927f31b75e4d00000000000000000000000000000000000000000000000000000000845260048401526024830190611548565b60026044820152fd5b61480081614f35565b906008821015611543576030600160ff84161b161561481d575090565b614859606492604051927f31b75e4d00000000000000000000000000000000000000000000000000000000845260048401526024830190611548565b60306044820152fd5b7f7c712897014dbe49c045ef1299aa2d5f9e67e48eea4403efa21f1e0f3ac0cb029081548060801c9160018301926fffffffffffffffffffffffffffffffff80931683851614614906575f527f7c712897014dbe49c045ef1299aa2d5f9e67e48eea4403efa21f1e0f3ac0cb0360205260405f20557fffffffffffffffffffffffffffffffff0000000000000000000000000000000083549260801b169116179055565b60046040517f8acb5f27000000000000000000000000000000000000000000000000000000008152fd5b9290939173ffffffffffffffffffffffffffffffffffffffff7f0d5829787b8befdbc6044ef7457d8a95c2a04bc99235349f1a212c063e59d400541690813b15610601575f936149d7604051978895869485947fe38335e50000000000000000000000000000000000000000000000000000000086527fffffffffffffffffffffffffffffffffffffffff0000000000000000000000003060601b16189260048601615cbb565b039134905af1918215610f955761096692614a5d575b505f8181527f0d5829787b8befdbc6044ef7457d8a95c2a04bc99235349f1a212c063e59d40160205260408120555f8181527fa1cefa0f43667ef127a258e673c94202a79b656e62899531c4376d87a7f39800602052604090208054600182015460029092015490919092615dda565b614a6690610873565b5f6149ed565b335f9081527fb7db2dd08fcb62d0c9e08c51941cae53c267786a0b75803fb7960902fc8ef97d602052604090205460ff1615614aa457565b60446040517fe2517d3f0000000000000000000000000000000000000000000000000000000081523360048201525f6024820152fd5b805f527f02dd7bc7dec4dceedda775e58dd541e08a116c6c53815c0bd028192f7b62680060205260ff614b2e3360405f209073ffffffffffffffffffffffffffffffffffffffff165f5260205260405f2090565b541615614b385750565b604490604051907fe2517d3f0000000000000000000000000000000000000000000000000000000082523360048301526024820152fd5b73ffffffffffffffffffffffffffffffffffffffff81165f9081527fb7db2dd08fcb62d0c9e08c51941cae53c267786a0b75803fb7960902fc8ef97d60205260409020547f02dd7bc7dec4dceedda775e58dd541e08a116c6c53815c0bd028192f7b6268009060ff16614270575f8052602052614c0d8160405f209073ffffffffffffffffffffffffffffffffffffffff165f5260205260405f2090565b60017fffffffffffffffffffffffffffffffffffffffffffffffffffffffffffffff0082541617905573ffffffffffffffffffffffffffffffffffffffff3391165f7f2f8788117e7eff1d82e926ec794901d17c78024a50270940304540a733656f0d8180a4600190565b805f527f02dd7bc7dec4dceedda775e58dd541e08a116c6c53815c0bd028192f7b6268008060205260ff614ccd8460405f209073ffffffffffffffffffffffffffffffffffffffff165f5260205260405f2090565b5416614d6f57815f52602052614d048260405f209073ffffffffffffffffffffffffffffffffffffffff165f5260205260405f2090565b60017fffffffffffffffffffffffffffffffffffffffffffffffffffffffffffffff0082541617905573ffffffffffffffffffffffffffffffffffffffff339216907f2f8788117e7eff1d82e926ec794901d17c78024a50270940304540a733656f0d5f80a4600190565b5050505f90565b73ffffffffffffffffffffffffffffffffffffffff7f0d5829787b8befdbc6044ef7457d8a95c2a04bc99235349f1a212c063e59d4005416338103614dfc573003614dbd57565b614dc636610975565b614dd36040519182610936565b3681526020810190365f83375f602036830101525190205b80614df4615f01565b03614deb5750565b60246040517f47096e47000000000000000000000000000000000000000000000000000000008152336004820152fd5b805f527f02dd7bc7dec4dceedda775e58dd541e08a116c6c53815c0bd028192f7b6268008060205260ff614e818460405f209073ffffffffffffffffffffffffffffffffffffffff165f5260205260405f2090565b541615614d6f57815f52602052614eb98260405f209073ffffffffffffffffffffffffffffffffffffffff165f5260205260405f2090565b7fffffffffffffffffffffffffffffffffffffffffffffffffffffffffffffff00815416905573ffffffffffffffffffffffffffffffffffffffff339216907ff6391f5c32d9c69d2a47ea670b442974b53935d1edc7fd64eb21e047a839171b5f80a4600190565b908160209103126106015761068990613ef1565b614f3e81615fcc565b90614f4882611539565b600582036150bc57614f8291505f527f0d5829787b8befdbc6044ef7457d8a95c2a04bc99235349f1a212c063e59d40160205260405f2090565b54614fc4610ced7f0d5829787b8befdbc6044ef7457d8a95c2a04bc99235349f1a212c063e59d4005473ffffffffffffffffffffffffffffffffffffffff1690565b6040517f584b153e0000000000000000000000000000000000000000000000000000000081526004810183905260209291908381602481855afa908115610f95575f9161509f575b501561501a57505050600590565b6040517f2ab0f52900000000000000000000000000000000000000000000000000000000815260048101929092528290829060249082905afa918215610f95575f92615072575b50501561506d57600790565b600290565b6150919250803d10615098575b6150898183610936565b810190614f21565b5f80615061565b503d61507f565b6150b69150843d8611615098576150898183610936565b5f61500c565b5090565b919290604051906150d0826108c5565b5f82526150dc8461478c565b5061511a845f527f7c712897014dbe49c045ef1299aa2d5f9e67e48eea4403efa21f1e0f3ac0cb0160205265ffffffffffff60405f205460a01c1690565b7f3ba4977254e415696610a40ebf2258dbfa0ec6a2ff64e84bfe715ff16977cc00546040517f3a46b1a800000000000000000000000000000000000000000000000000000000815273ffffffffffffffffffffffffffffffffffffffff84811660048301526024820193909352919391906020908290604490829088165afa8015610f95576151b4915f91615235575b50611e9884615466565b9586916151c38383868a616d57565b80516151ff575093614057917fb8e138887d0aa13bab447e82de9d5c1777041ecd21ca36ba824ff1e6c07ddda495604051958695169785616521565b9094614057927fe2babfbac5889a709b63bb7f598b324e08bc5a4fb9ec647fb3cbc9ec07eb8712966040519687961698866164e7565b61524e915060203d602011610fc057610fb18183610936565b5f6151aa565b60429061525f616f7d565b615267616fe7565b6040519060208201927f8b73c3c69bb8fe3d512ecc4cf759cc79239f7b179b0ffacaa9a75d522b39400f8452604083015260608201524660808201523060a082015260a081526152b6816108e1565b51902090604051917f19010000000000000000000000000000000000000000000000000000000000008352600283015260228201522090565b6152f983836164ad565b5061530681959295612511565b1593846153c9575b50831561531c575b50505090565b5f92935090829160405161537b8161536d60208201947f1626ba7e00000000000000000000000000000000000000000000000000000000998a87526024840152604060448401526064830190610653565b03601f198101835282610936565b51915afa906153886142d8565b826153bb575b8261539e575b50505f8080615316565b6153b391925060208082518301019101613d16565b145f80615394565b91506020825110159161538e565b73ffffffffffffffffffffffffffffffffffffffff83811691161493505f61530e565b600a81101561392357600502600201905f90565b60345490811561545f575f91600a90818111156154585750600a90925b5f935b8285106154335750610689929350613d98565b908185101561392357600580860201548101809111613d695760019094019390615420565b909261541d565b6105dc9150565b602073ffffffffffffffffffffffffffffffffffffffff6024815f54169360405194859384927f5f059d7d0000000000000000000000000000000000000000000000000000000084521660048301525afa908115610f95575f916154c8575090565b610689915060203d602011610fc057610fb18183610936565b7ed7616c8fe29c6c2fbe1d0c5bc8f2faa4c35b43746e70b24b4d532752affd01907fffffffffffffffffffffffffffffffffffffffffffffffffffff00000000000082547fc565b045403dc03c2eea82b81a0465edad9e2e7fc4d97e11421c209da93d7a93604065ffffffffffff81519581851687521694856020820152a116179055565b603454156155e957615576615400565b6107d08110156155e2576103e8808211156155da577ffffffffffffffffffffffffffffffffffffffffffffffffffffffffffffffc188201918211613d695761044c91828102928184041490151715613d69576105dc91048103908111613d695790565b50506105dc90565b5061019090565b6105dc90565b91939290936155fd33616ed1565b15615735576156b8602065ffffffffffff6156196140a9613e2a565b165f604051615627816108c5565b5273ffffffffffffffffffffffffffffffffffffffff7f3ba4977254e415696610a40ebf2258dbfa0ec6a2ff64e84bfe715ff16977cc00541660405180809581947f3a46b1a800000000000000000000000000000000000000000000000000000000835233600484016020909392919373ffffffffffffffffffffffffffffffffffffffff60408201951681520152565b03915afa8015610f95576156d6915f91611f645750611e9833615466565b946156df615765565b958681106156f557506106899495503393617290565b6040517fc242ee16000000000000000000000000000000000000000000000000000000008152336004820152602481019190915260448101879052606490fd5b60246040517fd9b39557000000000000000000000000000000000000000000000000000000008152336004820152fd5b73ffffffffffffffffffffffffffffffffffffffff6037541633146157a8577ed7616c8fe29c6c2fbe1d0c5bc8f2faa4c35b43746e70b24b4d532752affd005490565b5f90565b805f52603560205260ff60405f2054166157c581612511565b801590816157e5575b506157dc576106899061668b565b6106899061668b565b90506157f081612511565b5f52603660205263ffffffff600260405f20015460301c16155f6157ce565b90919061096657506166da565b63ffffffff908181169081156158bb5769ffffffff0000000000007fffffffffffffffffffffffffffffffffffffffffffff00000000ffffffffffff917f7e3f7f0708a84de9203036abaa450dccc85ad5ff52f78c170f3edb55cf5e882860407ed7616c8fe29c6c2fbe1d0c5bc8f2faa4c35b43746e70b24b4d532752affd01968754968251918860301c1682526020820152a160301b169116179055565b60246040517ff1cfbf050000000000000000000000000000000000000000000000000000000081525f6004820152fd5b6109669291613253615907926158ff616713565b612201616713565b615c65565b615914616713565b73ffffffffffffffffffffffffffffffffffffffff80911691821561599e571690811561142f57615943616713565b61594b616713565b7fffffffffffffffffffffffff0000000000000000000000000000000000000000907f3ba4977254e415696610a40ebf2258dbfa0ec6a2ff64e84bfe715ff16977cc0090828254161790555f5416175f55565b60046040517fc0ed052e000000000000000000000000000000000000000000000000000000008152fd5b6159d0616713565b5f6001555f603455565b615a27906159e6616713565b73ffffffffffffffffffffffffffffffffffffffff167fffffffffffffffffffffffff00000000000000000000000000000000000000006037541617603755565b615a8d615a32610968565b5f815269d3c21bcecceda100000060208201526201518060408201526203f480606082015261019060808201525f805260366020527f4cb2b152c1b54ce671907a93c300fd5aa72383a9d4ec19a81e3333632ae92e00613a9c565b615af6615a98610968565b600181526a0422ca8b0a00a42500000060208201526202a300604082015262093a806060820152610258608082015260015f5260366020527fc082cfcdc2bfeeffb970c9772df3384f481b69fbc495624ec92a9254cc4b32f0613a9c565b615b5f615b01610968565b600281526a084595161401484a00000060208201526203f4806040820152620d2f0060608201526103e8608082015260025f5260366020527f49d58ea9a5daf69ab79ed6bff1f0de709220367fa3b259710db785f85d2077eb613a9c565b610966615b6a610968565b600381525f60208201525f6040820152615b8960608201620151809052565b5f608082018190526003905260366020527fbc2f57311c21670184a5dbcdfc5939827a8f57c97f69166be8694e2ce000cebc613a9c565b615bc8616713565b615bd0616713565b7f0d5829787b8befdbc6044ef7457d8a95c2a04bc99235349f1a212c063e59d400907fffffffffffffffffffffffff000000000000000000000000000000000000000082547f08f74ea46ef7894f65eabfb5e6e695de773a000b47c529ab559178069b226401604073ffffffffffffffffffffffffffffffffffffffff8095169481519084168152856020820152a116179055565b7ed7616c8fe29c6c2fbe1d0c5bc8f2faa4c35b43746e70b24b4d532752affd00805460408051918252602082018490527fccb45da8d5717e6c4544694297c4ba5cf151d455c9bb0ed4fc7a38411bc0546191a155565b949392615ce7608093615cd9615cf59460a08a5260a08a0190614307565b9088820360208a0152612368565b908682036040880152614350565b935f60608201520152565b9192615d2f60a094615d21615d3d949998979960c0875260c0870190614307565b908582036020870152612368565b908382036040850152614350565b945f606083015260808201520152565b9190615d81576080816004925184556020810151600185015560408101516002850155606081015160038501550151910155565b7f4e487b71000000000000000000000000000000000000000000000000000000005f525f60045260245ffd5b7fffffffffffffffffffffffffffffffffffffffffffffffffffffffffffffffff8114613d695760010190565b9290615dee92615de991613ddd565b613ddd565b8015615efd57615e0a615e056140ae6140a9613e2a565b616ba2565b8015615ef8578181615eb1615e497f74614a4d9afce5c263315472d6220d03d4d7e090bd925c172f8318b8a469b3e994615e448897613d6e565b613d98565b91615e81615e55610968565b878152856020820152826040820152846060820152426080820152615e7b6001546153ec565b90615d4d565b615e9e615e99615e92600154613dcf565b600a900690565b600155565b612150615eac603454615dad565b603455565b0390a27f7b28bf7944bb48ab4c592f4e590ee4181fbfe3f942a56ba74a634cc8253da41d615edd615566565b615ee5615400565b60408051928352602083019190915290a2565b505050565b5050565b7f7c712897014dbe49c045ef1299aa2d5f9e67e48eea4403efa21f1e0f3ac0cb02908154916fffffffffffffffffffffffffffffffff8084169360801c8414615fa257835f527f7c712897014dbe49c045ef1299aa2d5f9e67e48eea4403efa21f1e0f3ac0cb03602052600160405f20945f8654965501167fffffffffffffffffffffffffffffffff00000000000000000000000000000000825416179055565b60046040517f75e52f4f000000000000000000000000000000000000000000000000000000008152fd5b615ffd815f527f7c712897014dbe49c045ef1299aa2d5f9e67e48eea4403efa21f1e0f3ac0cb0160205260405f2090565b5460ff8160f01c166161665760f81c6161605761604d815f527f7c712897014dbe49c045ef1299aa2d5f9e67e48eea4403efa21f1e0f3ac0cb0160205265ffffffffffff60405f205460a01c1690565b801561612e5761605e6140ae613e2a565b809110156142705761606f826157ac565b1061607a5750600190565b61608661122582616c21565b80156160ec575b156160985750600390565b6140ae60016160d16160de935f527f7c712897014dbe49c045ef1299aa2d5f9e67e48eea4403efa21f1e0f3ac0cb0160205260405f2090565b015465ffffffffffff1690565b6160e757600490565b600590565b50616129611225825f527fa1cefa0f43667ef127a258e673c94202a79b656e62899531c4376d87a7f3980060205260405f20600181015490541090565b61608d565b6040517f6ad0607500000000000000000000000000000000000000000000000000000000815260048101839052602490fd5b50600290565b5050600790565b906161799392916143ac565b61618281614f35565b600881101561154357603b600160ff83161b161561635157506162186161cf825f527f7c712897014dbe49c045ef1299aa2d5f9e67e48eea4403efa21f1e0f3ac0cb0160205260405f2090565b7f01000000000000000000000000000000000000000000000000000000000000007effffffffffffffffffffffffffffffffffffffffffffffffffffffffffffff825416179055565b6040518181527f789cf55be980739dad1d0699b93b58e806b51c9d96619bfa8fe0a28abaa7b30c90602090a1616275815f527f0d5829787b8befdbc6044ef7457d8a95c2a04bc99235349f1a212c063e59d40160205260405f2090565b548061627f575090565b6162c0610ced7f0d5829787b8befdbc6044ef7457d8a95c2a04bc99235349f1a212c063e59d4005473ffffffffffffffffffffffffffffffffffffffff1690565b803b15610601576040517fc4d252f500000000000000000000000000000000000000000000000000000000815260048101929092525f908290602490829084905af18015610f955761633e575b505f8181527f0d5829787b8befdbc6044ef7457d8a95c2a04bc99235349f1a212c063e59d401602052604081205590565b80610f8961634b92610873565b5f61630d565b9061638e606492604051927f31b75e4d00000000000000000000000000000000000000000000000000000000845260048401526024830190611548565b603b6044820152fd5b90813b156164665773ffffffffffffffffffffffffffffffffffffffff82167f360894a13ba1a3210667c828492db98dca3e2076cc3735a920a3ca505d382bbc817fffffffffffffffffffffffff00000000000000000000000000000000000000008254161790557fbc7cd75a20ee27fd9adebab32041f755214dbc6bffa90cc0225b39da2e5c2d3b5f80a2805115616433576145c291616cab565b50503461643c57565b60046040517fb398979f000000000000000000000000000000000000000000000000000000008152fd5b60248273ffffffffffffffffffffffffffffffffffffffff604051917f4c9c8ce3000000000000000000000000000000000000000000000000000000008352166004820152fd5b81519190604183036164dd576164d69250602082015190606060408401519301515f1a90616cc8565b9192909190565b50505f9160029190565b93909260ff6165139361068997958752166020860152604085015260a0606085015260a0840190610653565b916080818403910152610653565b909260ff6080936106899695845216602083015260408201528160608201520190610653565b929193906150dc8461478c565b65ffffffffffff90818111616567571690565b604490604051907f6dfcc650000000000000000000000000000000000000000000000000000000008252603060048301526024820152fd5b7f3ba4977254e415696610a40ebf2258dbfa0ec6a2ff64e84bfe715ff16977cc00546040517f3a46b1a800000000000000000000000000000000000000000000000000000000815273ffffffffffffffffffffffffffffffffffffffff838116600483015260248201949094529260209184916044918391165afa918215610f95575f92616666575b5061663290615466565b6127108061663f84613d52565b048211616654575b508101809111613d695790565b905061665f82613d52565b045f616647565b6166329192506166849060203d602011610fc057610fb18183610936565b9190616628565b5f527f7c712897014dbe49c045ef1299aa2d5f9e67e48eea4403efa21f1e0f3ac0cb0160205260405f205465ffffffffffff908163ffffffff8260d01c169160a01c1601818111613d69571690565b8051156166e957805190602001fd5b60046040517f1425ea42000000000000000000000000000000000000000000000000000000008152fd5b60ff7ff0c57e16840df040f15088dc2f81fe391c3923bec73e23a9662efc9c229c6a005460401c161561674257565b60046040517fd7e6bcf8000000000000000000000000000000000000000000000000000000008152fd5b601f8111616778575050565b7fa16a46d94261c7517cc8ff89f61c0ce93598e3c849801011dee649a6a557d1025f527f42ad5d3e1f2e6e70edcf6d991b8a3023d3fca8047a131592f9edb9fd9b89d57d906020601f840160051c830193106167ee575b601f0160051c01905b8181106167e3575050565b5f81556001016167d8565b90915081906167cf565b601f8111616804575050565b7f7c712897014dbe49c045ef1299aa2d5f9e67e48eea4403efa21f1e0f3ac0cb005f527fda13dda7583a39a3cd73e8830529c760837228fa4683752c823b17e10548aad5906020601f840160051c8301931061687a575b601f0160051c01905b81811061686f575050565b5f8155600101616864565b909150819061685b565b601f8111616890575050565b7fa16a46d94261c7517cc8ff89f61c0ce93598e3c849801011dee649a6a557d1035f527f5f9ce34815f8e11431c7bb75a8e6886a91478f7ffc1dbb0a98dc240fddd76b75906020601f840160051c83019310616906575b601f0160051c01905b8181106168fb575050565b5f81556001016168f0565b90915081906168e7565b90815167ffffffffffffffff8111610887577fa16a46d94261c7517cc8ff89f61c0ce93598e3c849801011dee649a6a557d103906169578161695284546136cd565b616884565b602080601f83116001146169b6575081906169a79394955f926169ab575b50507fffffffffffffffffffffffffffffffffffffffffffffffffffffffffffffffff8260011b9260031b1c19161790565b9055565b015190505f80616975565b90601f19831695616a077fa16a46d94261c7517cc8ff89f61c0ce93598e3c849801011dee649a6a557d1035f527f5f9ce34815f8e11431c7bb75a8e6886a91478f7ffc1dbb0a98dc240fddd76b7590565b925f905b888210616a6157505083600195969710616a2a575b505050811b019055565b01517fffffffffffffffffffffffffffffffffffffffffffffffffffffffffffffffff60f88460031b161c191690555f8080616a20565b80600185968294968601518155019501930190616a0b565b90616a82616713565b815167ffffffffffffffff8111610887577f7c712897014dbe49c045ef1299aa2d5f9e67e48eea4403efa21f1e0f3ac0cb0090616ac881616ac384546136cd565b6167f8565b602080601f8311600114616b17575081906169a79394955f926169ab5750507fffffffffffffffffffffffffffffffffffffffffffffffffffffffffffffffff8260011b9260031b1c19161790565b90601f19831695616b687f7c712897014dbe49c045ef1299aa2d5f9e67e48eea4403efa21f1e0f3ac0cb005f527fda13dda7583a39a3cd73e8830529c760837228fa4683752c823b17e10548aad590565b925f905b888210616b8a57505083600195969710616a2a57505050811b019055565b80600185968294968601518155019501930190616b6c565b602073ffffffffffffffffffffffffffffffffffffffff7f3ba4977254e415696610a40ebf2258dbfa0ec6a2ff64e84bfe715ff16977cc005416916024604051809481937f8e539e8c00000000000000000000000000000000000000000000000000000000835260048301525afa908115610f95575f916154c8575090565b805f527fa1cefa0f43667ef127a258e673c94202a79b656e62899531c4376d87a7f39800602052612710616c92613664615e0560405f20945f527f7c712897014dbe49c045ef1299aa2d5f9e67e48eea4403efa21f1e0f3ac0cb0160205265ffffffffffff60405f205460a01c1690565b04600260018301549201548201809211613d6957111590565b5f8061068993602081519101845af4616cc26142d8565b91616f11565b91907f7fffffffffffffffffffffffffffffff5d576e7357a4501ddfe92f46681b20a08411616d4c579160209360809260ff5f9560405194855216868401526040830152606082015282805260015afa15610f95575f5173ffffffffffffffffffffffffffffffffffffffff811615616d4257905f905f90565b505f906001905f90565b5050505f9160039190565b616d8b909291925f527fa1cefa0f43667ef127a258e673c94202a79b656e62899531c4376d87a7f3980060205260405f2090565b9160038301616dc2616dbb83839073ffffffffffffffffffffffffffffffffffffffff165f5260205260405f2090565b5460ff1690565b616e8a57616df460ff9392616e1f929073ffffffffffffffffffffffffffffffffffffffff165f5260205260405f2090565b60017fffffffffffffffffffffffffffffffffffffffffffffffffffffffffffffff00825416179055565b1680616e325750906169a7908254613ddd565b60018103616e4a575060016169a79101918254613ddd565b600203616e605760026169a79101918254613ddd565b60046040517f06b337c2000000000000000000000000000000000000000000000000000000008152fd5b6040517f71c6af4900000000000000000000000000000000000000000000000000000000815273ffffffffffffffffffffffffffffffffffffffff83166004820152602490fd5b73ffffffffffffffffffffffffffffffffffffffff806037541690821614616f0b5760405161068991616f03826108c5565b5f825261703d565b50600190565b90616f1c57506166da565b81511580616f74575b616f2d575090565b60249073ffffffffffffffffffffffffffffffffffffffff604051917f9996b315000000000000000000000000000000000000000000000000000000008352166004820152fd5b50803b15616f25565b616f8561371e565b8051908115616f95576020012090565b50507fa16a46d94261c7517cc8ff89f61c0ce93598e3c849801011dee649a6a557d100548015616fc25790565b507fc5d2460186f7233c927e7db2dcc703c0e500b653ca82273b7bfad8045d85a47090565b616fef613823565b8051908115616fff576020012090565b50507fa16a46d94261c7517cc8ff89f61c0ce93598e3c849801011dee649a6a557d101548015616fc25790565b908151811015613923570160200190565b815160348110617165577f2370726f706f7365723d307800000000000000000000000000000000000000007fffffffffffffffffffffffff00000000000000000000000000000000000000007fffffffffffffffffffffffffffffffffffffffffffffffffffffffffffffffec8386010151160361716557915f926170c181614170565b915b8183106170eb5750505073ffffffffffffffffffffffffffffffffffffffff80911691161490565b9091936171296171246170fe878561702c565b517fff000000000000000000000000000000000000000000000000000000000000001690565b61755a565b91901561715a5773fffffffffffffffffffffffffffffffffffffff060ff600193169160041b1617940191906170c3565b505050505050600190565b505050600190565b9061717782610abd565b6171846040519182610936565b828152601f196171948294610abd565b01905f5b8281106171a457505050565b806060602080938501015201617198565b95926171f790617205939b9a989996959261012090895273ffffffffffffffffffffffffffffffffffffffff60209d168d8a01528060408a0152880190614307565b908682036060880152612368565b9784890360808601528251808a52818a019180808360051b8d01019501925f905b8382106172635750505050506106899697509061724a9184820360a0860152614350565b9360c083015260e0820152610100818403910152610653565b909192939583806172818f93601f1960019582030186528a51610653565b98019201920190939291617226565b9194939092946172a8865160208801208286866143ac565b95835185519081811480159061754f575b8015617547575b61750557505065ffffffffffff94856173126173038a5f527f7c712897014dbe49c045ef1299aa2d5f9e67e48eea4403efa21f1e0f3ac0cb0160205260405f2090565b5460a01c65ffffffffffff1690565b166174c5577f7d84a6263ae0d98d3329bd7b46bb4e8d6f98cd35a7adb45c274c8b7fd5ebd5e0956174c09363ffffffff61737961734d613e2a565b7ed7616c8fe29c6c2fbe1d0c5bc8f2faa4c35b43746e70b24b4d532752affd0154948086169116613ddd565b9260301c1661749e6173b28c5f527f7c712897014dbe49c045ef1299aa2d5f9e67e48eea4403efa21f1e0f3ac0cb0160205260405f2090565b80547fffffffffffffffffffffffff00000000000000000000000000000000000000001673ffffffffffffffffffffffffffffffffffffffff8a161781556174476173fc86616554565b82547fffffffffffff000000000000ffffffffffffffffffffffffffffffffffffffff1660a09190911b79ffffffffffff000000000000000000000000000000000000000016178255565b61745083617631565b7fffff00000000ffffffffffffffffffffffffffffffffffffffffffffffffffff7dffffffff000000000000000000000000000000000000000000000000000083549260d01b169116179055565b6174b26174ab895161716d565b9184613ddd565b936040519889988d8a6171b5565b0390a1565b876174cf81614f35565b906116d76040519283927f31b75e4d00000000000000000000000000000000000000000000000000000000845260048401614702565b83516040517f447b05d0000000000000000000000000000000000000000000000000000000008152600481019290925260248201526044810191909152606490fd5b5080156172c0565b5083518114156172b9565b60f81c9081602f1080617627575b156175985760ff7fffffffffffffffffffffffffffffffffffffffffffffffffffffffffffffffd0600193011690565b816040108061761d575b156175d25760ff7fffffffffffffffffffffffffffffffffffffffffffffffffffffffffffffffc9600193011690565b8160601080617613575b1561760c5760ff7fffffffffffffffffffffffffffffffffffffffffffffffffffffffffffffffa9600193011690565b5f91508190565b50606782106175dc565b50604782106175a2565b50603a8210617568565b63ffffffff90818111617642571690565b604490604051907f6dfcc650000000000000000000000000000000000000000000000000000000008252602060048301526024820152fdfea26469706673582212202e3d6c9f6a600bf560ab42cd4b2b075aa22e5379a13d2a2efccf53584fe25f5864736f6c63430008190033","linkReferences":{}},"methodIdentifiers":{"BALLOT_TYPEHASH()":"deaaa7cc","BASIS_POINTS()":"e1f1c4a7","CLOCK_MODE()":"4bf5d7e9","COUNTING_MODE()":"dd4e2ba5","DEFAULT_ADMIN_ROLE()":"a217fddf","EXTENDED_BALLOT_TYPEHASH()":"2fe3e261","HIGH_PARTICIPATION_THRESHOLD()":"08671765","LOW_PARTICIPATION_THRESHOLD()":"bf23a2de","MAX_QUORUM_BPS()":"c94b7693","MAX_STAKING_BONUS_BPS()":"744ab38b","MIN_QUORUM_BPS()":"6198c3d0","PARTICIPATION_HISTORY_SIZE()":"17e8369c","UPGRADE_INTERFACE_VERSION()":"ad3cb1cc","cancel(address[],uint256[],bytes[],bytes32)":"452115d6","castVote(uint256,uint8)":"56781388","castVoteBySig(uint256,uint8,address,bytes)":"8ff262e3","castVoteWithReason(uint256,uint8,string)":"7b3c71d3","castVoteWithReasonAndParams(uint256,uint8,string,bytes)":"5f398a14","castVoteWithReasonAndParamsBySig(uint256,uint8,address,string,bytes,bytes)":"5b8d0e0d","clock()":"91ddadf4","configureProposalLevel(uint8,uint256,uint48,uint32,uint256)":"51c891c2","eip712Domain()":"84b0196e","emergencyCouncil()":"7778960e","execute(address[],uint256[],bytes[],bytes32)":"2656227d","getAverageParticipation()":"5e30b24a","getCurrentQuorumBps()":"7ba96aac","getCurrentVotes(address)":"b4b5ea57","getParticipationHistory()":"8f132a77","getParticipationHistoryCount()":"6cfb3720","getProposalLevel(uint8)":"8e08ae6c","getProposalType(uint256)":"d978ffba","getRoleAdmin(bytes32)":"248a9ca3","getStakingInfo(address)":"aa4704f3","getVotes(address,uint256)":"eb9019d4","getVotesWithParams(address,uint256,bytes)":"9a802a6d","getVotesWithStaking(address,uint256)":"7770a5bd","grantRole(bytes32,address)":"2f2ff15d","hasRole(bytes32,address)":"91d14854","hasVoted(uint256,address)":"43859632","hashProposal(address[],uint256[],bytes[],bytes32)":"c59057e4","initialize(address,address,address,uint32,uint48,uint256,address)":"e603704a","name()":"06fdde03","nonces(address)":"7ecebe00","onERC1155BatchReceived(address,address,uint256[],uint256[],bytes)":"bc197c81","onERC1155Received(address,address,uint256,uint256,bytes)":"f23a6e61","onERC721Received(address,address,uint256,bytes)":"150b7a02","proposalDeadline(uint256)":"c01f9e37","proposalEta(uint256)":"ab58fb8e","proposalLevels(uint8)":"be4090b7","proposalNeedsQueuing(uint256)":"a9a95294","proposalProposer(uint256)":"143489d0","proposalSnapshot(uint256)":"2d63f693","proposalThreshold()":"b58131b0","proposalTypes(uint256)":"a6fb56ac","proposalVotes(uint256)":"544ffc9c","propose(address[],uint256[],bytes[],string)":"7d5e81e2","proposeWithType(address[],uint256[],bytes[],string,uint8)":"ad1bd7f7","proxiableUUID()":"52d1902d","queue(address[],uint256[],bytes[],bytes32)":"160cbed7","quorum(uint256)":"f8ce560a","relay(address,uint256,bytes)":"c28bc2fa","renounceRole(bytes32,address)":"36568abe","revokeRole(bytes32,address)":"d547741f","setProposalThreshold(uint256)":"ece40cc1","setVotingDelay(uint48)":"79051887","setVotingPeriod(uint32)":"e540d01d","stakingContract()":"ee99205c","state(uint256)":"3e4f49e6","supportsInterface(bytes4)":"01ffc9a7","timelock()":"d33219b4","token()":"fc0c546a","updateEmergencyCouncil(address)":"6a3dd030","updateStakingContract(address)":"3347e4d6","updateTimelock(address)":"a890c910","upgradeToAndCall(address,bytes)":"4f1ef286","version()":"54fd4d50","votingDelay()":"3932abb1","votingPeriod()":"02a251a3"},"id":135}