{"abi":[{"type":"constructor","inputs":[{"name":"name","type":"string","internalType":"string"},{"name":"symbol","type":"string","internalType":"string"},{"name":"initialSupply","type":"uint256","internalType":"uint256"},{"name":"_creator","type":"address","internalType":"address"},{"name":"_reflectionFee","type":"uint256","internalType":"uint256"}],"stateMutability":"nonpayable"},{"type":"function","name":"allowance","inputs":[{"name":"owner","type":"address","internalType":"address"},{"name":"spender","type":"address","internalType":"address"}],"outputs":[{"name":"","type":"uint256","internalType":"uint256"}],"stateMutability":"view"},{"type":"function","name":"approve","inputs":[{"name":"spender","type":"address","internalType":"address"},{"name":"value","type":"uint256","internalType":"uint256"}],"outputs":[{"name":"","type":"bool","internalType":"bool"}],"stateMutability":"nonpayable"},{"type":"function","name":"balanceOf","inputs":[{"name":"account","type":"address","internalType":"address"}],"outputs":[{"name":"","type":"uint256","internalType":"uint256"}],"stateMutability":"view"},{"type":"function","name":"creator","inputs":[],"outputs":[{"name":"","type":"address","internalType":"address"}],"stateMutability":"view"},{"type":"function","name":"decimals","inputs":[],"outputs":[{"name":"","type":"uint8","internalType":"uint8"}],"stateMutability":"view"},{"type":"function","name":"excludeFromReward","inputs":[{"name":"account","type":"address","internalType":"address"}],"outputs":[],"stateMutability":"nonpayable"},{"type":"function","name":"getReflectionFee","inputs":[],"outputs":[{"name":"","type":"uint256","internalType":"uint256"}],"stateMutability":"view"},{"type":"function","name":"includeInReward","inputs":[{"name":"account","type":"address","internalType":"address"}],"outputs":[],"stateMutability":"nonpayable"},{"type":"function","name":"isExcludedFromReward","inputs":[{"name":"","type":"address","internalType":"address"}],"outputs":[{"name":"","type":"bool","internalType":"bool"}],"stateMutability":"view"},{"type":"function","name":"name","inputs":[],"outputs":[{"name":"","type":"string","internalType":"string"}],"stateMutability":"view"},{"type":"function","name":"owner","inputs":[],"outputs":[{"name":"","type":"address","internalType":"address"}],"stateMutability":"view"},{"type":"function","name":"reflectionFee","inputs":[],"outputs":[{"name":"","type":"uint256","internalType":"uint256"}],"stateMutability":"view"},{"type":"function","name":"renounceOwnership","inputs":[],"outputs":[],"stateMutability":"nonpayable"},{"type":"function","name":"symbol","inputs":[],"outputs":[{"name":"","type":"string","internalType":"string"}],"stateMutability":"view"},{"type":"function","name":"tokenFromReflection","inputs":[{"name":"rAmount","type":"uint256","internalType":"uint256"}],"outputs":[{"name":"","type":"uint256","internalType":"uint256"}],"stateMutability":"view"},{"type":"function","name":"totalFees","inputs":[],"outputs":[{"name":"","type":"uint256","internalType":"uint256"}],"stateMutability":"view"},{"type":"function","name":"totalSupply","inputs":[],"outputs":[{"name":"","type":"uint256","internalType":"uint256"}],"stateMutability":"view"},{"type":"function","name":"transfer","inputs":[{"name":"to","type":"address","internalType":"address"},{"name":"value","type":"uint256","internalType":"uint256"}],"outputs":[{"name":"","type":"bool","internalType":"bool"}],"stateMutability":"nonpayable"},{"type":"function","name":"transferFrom","inputs":[{"name":"from","type":"address","internalType":"address"},{"name":"to","type":"address","internalType":"address"},{"name":"value","type":"uint256","internalType":"uint256"}],"outputs":[{"name":"","type":"bool","internalType":"bool"}],"stateMutability":"nonpayable"},{"type":"function","name":"transferOwnership","inputs":[{"name":"newOwner","type":"address","internalType":"address"}],"outputs":[],"stateMutability":"nonpayable"},{"type":"function","name":"updateReflectionFee","inputs":[{"name":"newFee","type":"uint256","internalType":"uint256"}],"outputs":[],"stateMutability":"nonpayable"},{"type":"event","name":"Approval","inputs":[{"name":"owner","type":"address","indexed":true,"internalType":"address"},{"name":"spender","type":"address","indexed":true,"internalType":"address"},{"name":"value","type":"uint256","indexed":false,"internalType":"uint256"}],"anonymous":false},{"type":"event","name":"ExcludedFromReward","inputs":[{"name":"account","type":"address","indexed":false,"internalType":"address"}],"anonymous":false},{"type":"event","name":"IncludedInReward","inputs":[{"name":"account","type":"address","indexed":false,"internalType":"address"}],"anonymous":false},{"type":"event","name":"OwnershipTransferred","inputs":[{"name":"previousOwner","type":"address","indexed":true,"internalType":"address"},{"name":"newOwner","type":"address","indexed":true,"internalType":"address"}],"anonymous":false},{"type":"event","name":"ReflectionFeeUpdated","inputs":[{"name":"newFee","type":"uint256","indexed":false,"internalType":"uint256"}],"anonymous":false},{"type":"event","name":"Transfer","inputs":[{"name":"from","type":"address","indexed":true,"internalType":"address"},{"name":"to","type":"address","indexed":true,"internalType":"address"},{"name":"value","type":"uint256","indexed":false,"internalType":"uint256"}],"anonymous":false},{"type":"error","name":"AlreadyExcluded","inputs":[]},{"type":"error","name":"ERC20InsufficientAllowance","inputs":[{"name":"spender","type":"address","internalType":"address"},{"name":"allowance","type":"uint256","internalType":"uint256"},{"name":"needed","type":"uint256","internalType":"uint256"}]},{"type":"error","name":"ERC20InsufficientBalance","inputs":[{"name":"sender","type":"address","internalType":"address"},{"name":"balance","type":"uint256","internalType":"uint256"},{"name":"needed","type":"uint256","internalType":"uint256"}]},{"type":"error","name":"ERC20InvalidApprover","inputs":[{"name":"approver","type":"address","internalType":"address"}]},{"type":"error","name":"ERC20InvalidReceiver","inputs":[{"name":"receiver","type":"address","internalType":"address"}]},{"type":"error","name":"ERC20InvalidSender","inputs":[{"name":"sender","type":"address","internalType":"address"}]},{"type":"error","name":"ERC20InvalidSpender","inputs":[{"name":"spender","type":"address","internalType":"address"}]},{"type":"error","name":"InvalidFeeRate","inputs":[]},{"type":"error","name":"NotExcluded","inputs":[]},{"type":"error","name":"OwnableInvalidOwner","inputs":[{"name":"owner","type":"address","internalType":"address"}]},{"type":"error","name":"OwnableUnauthorizedAccount","inputs":[{"name":"account","type":"address","internalType":"address"}]}],"bytecode":{"object":"0x604060a08152346103ce576118598038038061001a816103d2565b928339810160a0828203126103ce5781516001600160401b03908181116103ce57826100479185016103f7565b9060209283850151908282116103ce576100629186016103f7565b8585015191606086015160018060a01b0394858216978883036103ce57608001519281518181116102d6576003908154906001948583811c931680156103c4575b8c8410146103b05781908c601f9485811161035f575b50508c908483116001146102f5575f926102ea575b50505f1982851b1c191690851b1782555b86519283116102d65760049687548581811c911680156102cc575b8c8210146102b95780838d9211610274575b50508a918411600114610210579383949184925f95610205575b50501b925f19911b1c19161783555b86156101ef57600580546001600160a01b0319811689179091558851958891167f8be0079c531659141344cd1fd0a4f28419497f9722a3daafe3b4186f6b6457e05f80a36080526006558160075581156101dc5750917fddf252ad1be2c89b69c2b068fc378daa952ba7f163c4a11628f55a4df523b3ef91835f948519061980600855868652600a8452878620558152a3516114109081610449823960805181610dc20152f35b601290634e487b7160e01b5f525260245ffd5b8751631e4fbdf760e01b81525f81850152602490fd5b015193505f80610126565b9190601f19841692885f52848c5f20948d5f905b8983831061025c5750505010610243575b50505050811b018355610135565b01519060f8845f19921b161c191690555f808080610235565b8686015189559097019694850194889350018e610224565b895f5283825f209181880160051c83019388106102b0575b0160051c019086905b8281106102a557508c915061010c565b5f8155018690610295565b9250819261028c565b602289634e487b7160e01b5f525260245ffd5b90607f16906100fa565b634e487b7160e01b5f52604160045260245ffd5b015190505f806100ce565b879350908d91601f198416875f52835f20935f905b82821061033e5750508411610327575b505050811b0182556100df565b01515f1983871b60f8161c191690555f808061031a565b91929395968291958786015181550195019301908f918a969594939261030a565b90919250855f5284825f209181860160051c83019386106103a7575b918991869594930160051c01915b82811061039957508e91506100b9565b5f8155859450899101610389565b9250819261037b565b634e487b7160e01b5f52602260045260245ffd5b92607f16926100a3565b5f80fd5b6040519190601f01601f191682016001600160401b038111838210176102d657604052565b81601f820112156103ce578051906001600160401b0382116102d657610426601f8301601f19166020016103d2565b92828452602083830101116103ce57815f9260208093018386015e830101529056fe608060409080825260049081361015610016575f80fd5b5f3560e01c90816302d05d3f14610d985750806306fdde0314610c73578063095ea7b314610b8b57806313114a9d14610b6d57806318160ddd14610b4f57806323b872dd146109ef5780632d838119146109d0578063313ce567146109b55780633685d419146107765780634be26b19146104ad57806352390c02146105f257806370a08231146105c6578063715018a61461054857806372b50928146104cb57806383ad7994146104ad57806388f82020146104645780638da5cb5b1461043057806395d89b4114610256578063a9059cbb14610226578063dd62ed3e146101cf5763f2fde38b14610107575f80fd5b346101cb5760206003193601126101cb57610120610e2e565b9061012961125d565b73ffffffffffffffffffffffffffffffffffffffff80921692831561019c575050600554827fffffffffffffffffffffffff0000000000000000000000000000000000000000821617600555167f8be0079c531659141344cd1fd0a4f28419497f9722a3daafe3b4186f6b6457e05f80a3005b905f60249251917f1e4fbdf7000000000000000000000000000000000000000000000000000000008352820152fd5b5f80fd5b82346101cb57806003193601126101cb576020906101eb610e2e565b6101f3610e51565b9073ffffffffffffffffffffffffffffffffffffffff8091165f5260018452825f2091165f528252805f20549051908152f35b82346101cb57806003193601126101cb5760209061024f610245610e2e565b6024359033611034565b5160018152f35b50346101cb575f6003193601126101cb5781515f928254936001948060011c60018216968715610426575b60209283831089146103fa57869798838897985290815f1461039f5750600114610324575b50505003601f017fffffffffffffffffffffffffffffffffffffffffffffffffffffffffffffffe01682019267ffffffffffffffff8411838510176102f857508291826102f4925282610de6565b0390f35b6041907f4e487b71000000000000000000000000000000000000000000000000000000005f525260245ffd5b5f888152929493507f8a35acfbc15ff81a39ae7d344fd709f28e8600b4aa8c65c6b64bfe7fe36bd19b5b82841061038957505050907fffffffffffffffffffffffffffffffffffffffffffffffffffffffffffffffe092601f928201019181936102a6565b805488850187015287945092850192810161034e565b7fffffffffffffffffffffffffffffffffffffffffffffffffffffffffffffff0016848701525050151560051b830101905081601f7fffffffffffffffffffffffffffffffffffffffffffffffffffffffffffffffe06102a6565b6022887f4e487b71000000000000000000000000000000000000000000000000000000005f525260245ffd5b90607f1690610281565b82346101cb575f6003193601126101cb5760209073ffffffffffffffffffffffffffffffffffffffff600554169051908152f35b82346101cb5760206003193601126101cb5760209073ffffffffffffffffffffffffffffffffffffffff610496610e2e565b165f52600c825260ff815f20541690519015158152f35b82346101cb575f6003193601126101cb576020906006549051908152f35b5090346101cb5760206003193601126101cb578135916104e961125d565b600a8311610521577f8518b128247bb734c31c3f85e2de792e4d3830c6d17eb5b6bf6a52dd8f193872602084848160065551908152a1005b90517f56d69198000000000000000000000000000000000000000000000000000000008152fd5b346101cb575f6003193601126101cb5761056061125d565b5f73ffffffffffffffffffffffffffffffffffffffff6005547fffffffffffffffffffffffff00000000000000000000000000000000000000008116600555167f8be0079c531659141344cd1fd0a4f28419497f9722a3daafe3b4186f6b6457e08280a3005b82346101cb5760206003193601126101cb576020906105eb6105e6610e2e565b610fec565b9051908152f35b50346101cb57602090816003193601126101cb5761060e610e2e565b9261061761125d565b73ffffffffffffffffffffffffffffffffffffffff841691825f52600c845260ff825f20541661071b57825f52600a8452815f205480610701575b50600c8452815f2060017fffffffffffffffffffffffffffffffffffffffffffffffffffffffffffffff00825416179055600d5490680100000000000000008210156102f857507f110b1fbed46dec7bc9019c3fba97541a3d64821a824872bb7b2ad678490855bf946106ce8260016106fa9401600d55610f50565b90919073ffffffffffffffffffffffffffffffffffffffff8084549260031b9316831b921b1916179055565b51908152a1005b61070a90610eab565b835f52600b8552825f20555f610652565b8360649251917f08c379a0000000000000000000000000000000000000000000000000000000008352820152601060248201527f416c7265616479206578636c75646564000000000000000000000000000000006044820152fd5b5090346101cb576020806003193601126101cb57610792610e2e565b9161079b61125d565b73ffffffffffffffffffffffffffffffffffffffff80931690815f52600c93600c845260ff825f20541615610959575f5b600d80548083101561092957908391866107e585610f50565b949054600395861b1c16146107ff575050506001016107cc565b91949596979093927fffffffffffffffffffffffffffffffffffffffffffffffffffffffffffffffff928381019081116108fd57906106ce8561084461085194610f50565b9054908a1b1c1691610f50565b865f52600b88525f868120558752845f207fffffffffffffffffffffffffffffffffffffffffffffffffffffffffffffff008154169055825480156108d1577f47ab6b2d1f416edec684889dc42cd04ed7cc6c6244edaa04c4215e1077548614985001926108be84610f50565b81939154921b1b191690555551908152a1005b6031897f4e487b71000000000000000000000000000000000000000000000000000000005f525260245ffd5b60118b7f4e487b71000000000000000000000000000000000000000000000000000000005f525260245ffd5b50505050909192507f47ab6b2d1f416edec684889dc42cd04ed7cc6c6244edaa04c4215e107754861493506106fa565b606486858451917f08c379a0000000000000000000000000000000000000000000000000000000008352820152600c60248201527f4e6f74206578636c7564656400000000000000000000000000000000000000006044820152fd5b82346101cb575f6003193601126101cb576020905160128152f35b5090346101cb5760206003193601126101cb576105eb60209235610eab565b50346101cb5760606003193601126101cb57610a09610e2e565b610a11610e51565b906044359273ffffffffffffffffffffffffffffffffffffffff8216805f526001602052855f20335f52602052855f2054917fffffffffffffffffffffffffffffffffffffffffffffffffffffffffffffffff8303610a79575b60208761024f888888611034565b858310610b13578115610ae4573315610ab557505f9081526001602090815286822033835281529086902091859003909155829061024f610a6b565b6024905f8851917f94280d62000000000000000000000000000000000000000000000000000000008352820152fd5b6024905f8851917fe602df05000000000000000000000000000000000000000000000000000000008352820152fd5b60649086848951927ffb8f41b2000000000000000000000000000000000000000000000000000000008452339084015260248301526044820152fd5b82346101cb575f6003193601126101cb576020906007549051908152f35b82346101cb575f6003193601126101cb576020906009549051908152f35b5090346101cb57806003193601126101cb57610ba5610e2e565b602435903315610c445773ffffffffffffffffffffffffffffffffffffffff16908115610c155760209350335f5260018452825f20825f52845280835f205582519081527f8c5be1e5ebec7d5bd14f71427d1e84f3dd0314c0f7b2291e5b200ac8c7c3b925843392a35160018152f35b6024845f8551917f94280d62000000000000000000000000000000000000000000000000000000008352820152fd5b6024845f8551917fe602df05000000000000000000000000000000000000000000000000000000008352820152fd5b50346101cb575f6003193601126101cb5781515f92600354936001948060011c60018216968715610d8e575b60209283831089146103fa57869798838897985290815f1461039f5750600114610d115750505003601f017fffffffffffffffffffffffffffffffffffffffffffffffffffffffffffffffe01682019267ffffffffffffffff8411838510176102f857508291826102f4925282610de6565b60035f908152929493507fc2575a0e9e593c00f959f8c92f12db2869c3395a3b0502d05e2516446f71f85b5b828410610d7857505050907fffffffffffffffffffffffffffffffffffffffffffffffffffffffffffffffe092601f928201019181936102a6565b8054888501870152879450928501928101610d3d565b90607f1690610c9f565b346101cb575f6003193601126101cb5760209073ffffffffffffffffffffffffffffffffffffffff7f0000000000000000000000000000000000000000000000000000000000000000168152f35b7fffffffffffffffffffffffffffffffffffffffffffffffffffffffffffffffe0601f602060409481855280519182918282880152018686015e5f8582860101520116010190565b6004359073ffffffffffffffffffffffffffffffffffffffff821682036101cb57565b6024359073ffffffffffffffffffffffffffffffffffffffff821682036101cb57565b8115610e7e570490565b7f4e487b71000000000000000000000000000000000000000000000000000000005f52601260045260245ffd5b6008548111610ecc57610ec990610ec3610ec36112ce565b90610e74565b90565b60846040517f08c379a000000000000000000000000000000000000000000000000000000000815260206004820152602a60248201527f416d6f756e74206d757374206265206c657373207468616e20746f74616c207260448201527f65666c656374696f6e73000000000000000000000000000000000000000000006064820152fd5b600d54811015610f8557600d5f527fd7b6990105719101dabeb77144f2a3385c8033acd3af97e9423a695e81ad1eb501905f90565b7f4e487b71000000000000000000000000000000000000000000000000000000005f52603260045260245ffd5b91908203918211610fbf57565b7f4e487b71000000000000000000000000000000000000000000000000000000005f52601160045260245ffd5b73ffffffffffffffffffffffffffffffffffffffff165f52600c60205260ff60405f20541661102757600a602052610ec960405f2054610eab565b600b60205260405f205490565b73ffffffffffffffffffffffffffffffffffffffff80911691821561122d57169182156111fd578015611179577fddf252ad1be2c89b69c2b068fc378daa952ba7f163c4a11628f55a4df523b3ef906064611091600654836112ae565b049061109d8282610fb2565b9061113c6110ac610ec36112ce565b936111316110c46110bd87866112ae565b96836112ae565b6110ce8188610fb2565b895f52602097600c895260409660ff885f20541661115f575b508a5f52600a89526110fd875f20918254610fb2565b90558a5f52600c885260ff865f205416611146575b8a5f52600a8852611127865f209182546112c1565b9055600854610fb2565b6008556009546112c1565b60095551908152a3565b600b8852855f206111588882546112c1565b9055611112565b600b8a52611171885f20918254610fb2565b90555f6110e7565b60846040517f08c379a000000000000000000000000000000000000000000000000000000000815260206004820152602960248201527f5472616e7366657220616d6f756e74206d75737420626520677265617465722060448201527f7468616e207a65726f00000000000000000000000000000000000000000000006064820152fd5b60246040517fec442f050000000000000000000000000000000000000000000000000000000081525f6004820152fd5b60246040517f96c6fd1e0000000000000000000000000000000000000000000000000000000081525f6004820152fd5b73ffffffffffffffffffffffffffffffffffffffff60055416330361127e57565b60246040517f118cdaa7000000000000000000000000000000000000000000000000000000008152336004820152fd5b81810292918115918404141715610fbf57565b91908201809211610fbf57565b60085490816007549283905f600d545b8082106113045750506112f18282610e74565b83106112fd5750509190565b9350919050565b9094939561131186610f50565b979073ffffffffffffffffffffffffffffffffffffffff80915460039a8b1b1c165f52600a986020928a845260409a818c5f20541180156113b7575b6113a85793838b9c9361138e611388600b958f9e9f9960019b996113736113a09c610f50565b905490871b1c165f528652875f205490610fb2565b9c610f50565b9054911b1c165f52525f205490610fb2565b9601906112de565b50959950959750505050505050565b50836113c28c610f50565b905490851b1c165f52600b8552858c5f20541161134d56fea2646970667358221220e0ea8ec3b52e45b8fa045c412d48879a4672b155c8718919cb42c0e5268e768064736f6c63430008190033","linkReferences":{}},"methodIdentifiers":{"allowance(address,address)":"dd62ed3e","approve(address,uint256)":"095ea7b3","balanceOf(address)":"70a08231","creator()":"02d05d3f","decimals()":"313ce567","excludeFromReward(address)":"52390c02","getReflectionFee()":"4be26b19","includeInReward(address)":"3685d419","isExcludedFromReward(address)":"88f82020","name()":"06fdde03","owner()":"8da5cb5b","reflectionFee()":"83ad7994","renounceOwnership()":"715018a6","symbol()":"95d89b41","tokenFromReflection(uint256)":"2d838119","totalFees()":"13114a9d","totalSupply()":"18160ddd","transfer(address,uint256)":"a9059cbb","transferFrom(address,address,uint256)":"23b872dd","transferOwnership(address)":"f2fde38b","updateReflectionFee(uint256)":"72b50928"},"id":156}