{"abi":[{"type":"constructor","inputs":[{"name":"name","type":"string","internalType":"string"},{"name":"symbol","type":"string","internalType":"string"},{"name":"initialSupply","type":"uint256","internalType":"uint256"},{"name":"_creator","type":"address","internalType":"address"},{"name":"_reflectionFee","type":"uint256","internalType":"uint256"}],"stateMutability":"nonpayable"},{"type":"function","name":"allowance","inputs":[{"name":"owner","type":"address","internalType":"address"},{"name":"spender","type":"address","internalType":"address"}],"outputs":[{"name":"","type":"uint256","internalType":"uint256"}],"stateMutability":"view"},{"type":"function","name":"approve","inputs":[{"name":"spender","type":"address","internalType":"address"},{"name":"value","type":"uint256","internalType":"uint256"}],"outputs":[{"name":"","type":"bool","internalType":"bool"}],"stateMutability":"nonpayable"},{"type":"function","name":"balanceOf","inputs":[{"name":"account","type":"address","internalType":"address"}],"outputs":[{"name":"","type":"uint256","internalType":"uint256"}],"stateMutability":"view"},{"type":"function","name":"creator","inputs":[],"outputs":[{"name":"","type":"address","internalType":"address"}],"stateMutability":"view"},{"type":"function","name":"decimals","inputs":[],"outputs":[{"name":"","type":"uint8","internalType":"uint8"}],"stateMutability":"view"},{"type":"function","name":"excludeFromReward","inputs":[{"name":"account","type":"address","internalType":"address"}],"outputs":[],"stateMutability":"nonpayable"},{"type":"function","name":"getReflectionFee","inputs":[],"outputs":[{"name":"","type":"uint256","internalType":"uint256"}],"stateMutability":"view"},{"type":"function","name":"includeInReward","inputs":[{"name":"account","type":"address","internalType":"address"}],"outputs":[],"stateMutability":"nonpayable"},{"type":"function","name":"isExcludedFromReward","inputs":[{"name":"","type":"address","internalType":"address"}],"outputs":[{"name":"","type":"bool","internalType":"bool"}],"stateMutability":"view"},{"type":"function","name":"name","inputs":[],"outputs":[{"name":"","type":"string","internalType":"string"}],"stateMutability":"view"},{"type":"function","name":"owner","inputs":[],"outputs":[{"name":"","type":"address","internalType":"address"}],"stateMutability":"view"},{"type":"function","name":"reflectionFee","inputs":[],"outputs":[{"name":"","type":"uint256","internalType":"uint256"}],"stateMutability":"view"},{"type":"function","name":"renounceOwnership","inputs":[],"outputs":[],"stateMutability":"nonpayable"},{"type":"function","name":"symbol","inputs":[],"outputs":[{"name":"","type":"string","internalType":"string"}],"stateMutability":"view"},{"type":"function","name":"tokenFromReflection","inputs":[{"name":"rAmount","type":"uint256","internalType":"uint256"}],"outputs":[{"name":"","type":"uint256","internalType":"uint256"}],"stateMutability":"view"},{"type":"function","name":"totalFees","inputs":[],"outputs":[{"name":"","type":"uint256","internalType":"uint256"}],"stateMutability":"view"},{"type":"function","name":"totalSupply","inputs":[],"outputs":[{"name":"","type":"uint256","internalType":"uint256"}],"stateMutability":"view"},{"type":"function","name":"transfer","inputs":[{"name":"to","type":"address","internalType":"address"},{"name":"value","type":"uint256","internalType":"uint256"}],"outputs":[{"name":"","type":"bool","internalType":"bool"}],"stateMutability":"nonpayable"},{"type":"function","name":"transferFrom","inputs":[{"name":"from","type":"address","internalType":"address"},{"name":"to","type":"address","internalType":"address"},{"name":"value","type":"uint256","internalType":"uint256"}],"outputs":[{"name":"","type":"bool","internalType":"bool"}],"stateMutability":"nonpayable"},{"type":"function","name":"transferOwnership","inputs":[{"name":"newOwner","type":"address","internalType":"address"}],"outputs":[],"stateMutability":"nonpayable"},{"type":"function","name":"updateReflectionFee","inputs":[{"name":"newFee","type":"uint256","internalType":"uint256"}],"outputs":[],"stateMutability":"nonpayable"},{"type":"event","name":"Approval","inputs":[{"name":"owner","type":"address","indexed":true,"internalType":"address"},{"name":"spender","type":"address","indexed":true,"internalType":"address"},{"name":"value","type":"uint256","indexed":false,"internalType":"uint256"}],"anonymous":false},{"type":"event","name":"ExcludedFromReward","inputs":[{"name":"account","type":"address","indexed":false,"internalType":"address"}],"anonymous":false},{"type":"event","name":"IncludedInReward","inputs":[{"name":"account","type":"address","indexed":false,"internalType":"address"}],"anonymous":false},{"type":"event","name":"OwnershipTransferred","inputs":[{"name":"previousOwner","type":"address","indexed":true,"internalType":"address"},{"name":"newOwner","type":"address","indexed":true,"internalType":"address"}],"anonymous":false},{"type":"event","name":"ReflectionFeeUpdated","inputs":[{"name":"newFee","type":"uint256","indexed":false,"internalType":"uint256"}],"anonymous":false},{"type":"event","name":"Transfer","inputs":[{"name":"from","type":"address","indexed":true,"internalType":"address"},{"name":"to","type":"address","indexed":true,"internalType":"address"},{"name":"value","type":"uint256","indexed":false,"internalType":"uint256"}],"anonymous":false},{"type":"error","name":"AlreadyExcluded","inputs":[]},{"type":"error","name":"ERC20InsufficientAllowance","inputs":[{"name":"spender","type":"address","internalType":"address"},{"name":"allowance","type":"uint256","internalType":"uint256"},{"name":"needed","type":"uint256","internalType":"uint256"}]},{"type":"error","name":"ERC20InsufficientBalance","inputs":[{"name":"sender","type":"address","internalType":"address"},{"name":"balance","type":"uint256","internalType":"uint256"},{"name":"needed","type":"uint256","internalType":"uint256"}]},{"type":"error","name":"ERC20InvalidApprover","inputs":[{"name":"approver","type":"address","internalType":"address"}]},{"type":"error","name":"ERC20InvalidReceiver","inputs":[{"name":"receiver","type":"address","internalType":"address"}]},{"type":"error","name":"ERC20InvalidSender","inputs":[{"name":"sender","type":"address","internalType":"address"}]},{"type":"error","name":"ERC20InvalidSpender","inputs":[{"name":"spender","type":"address","internalType":"address"}]},{"type":"error","name":"InvalidFeeRate","inputs":[]},{"type":"error","name":"NotExcluded","inputs":[]},{"type":"error","name":"OwnableInvalidOwner","inputs":[{"name":"owner","type":"address","internalType":"address"}]},{"type":"error","name":"OwnableUnauthorizedAccount","inputs":[{"name":"account","type":"address","internalType":"address"}]}],"bytecode":{"object":"0x604060a08152346103ce5761139d8038038061001a816103d2565b928339810160a0828203126103ce5781516001600160401b03908181116103ce57826100479185016103f7565b9060209283850151908282116103ce576100629186016103f7565b8585015191606086015160018060a01b0394858216978883036103ce57608001519281518181116102d6576003908154906001948583811c931680156103c4575b8c8410146103b05781908c601f9485811161035f575b50508c908483116001146102f5575f926102ea575b50505f1982851b1c191690851b1782555b86519283116102d65760049687548581811c911680156102cc575b8c8210146102b95780838d9211610274575b50508a918411600114610210579383949184925f95610205575b50501b925f19911b1c19161783555b86156101ef57600580546001600160a01b0319811689179091558851958891167f8be0079c531659141344cd1fd0a4f28419497f9722a3daafe3b4186f6b6457e05f80a36080526006558160075581156101dc5750917fddf252ad1be2c89b69c2b068fc378daa952ba7f163c4a11628f55a4df523b3ef91835f948519061980600855868652600a8452878620558152a351610f549081610449823960805181610a520152f35b601290634e487b7160e01b5f525260245ffd5b8751631e4fbdf760e01b81525f81850152602490fd5b015193505f80610126565b9190601f19841692885f52848c5f20948d5f905b8983831061025c5750505010610243575b50505050811b018355610135565b01519060f8845f19921b161c191690555f808080610235565b8686015189559097019694850194889350018e610224565b895f5283825f209181880160051c83019388106102b0575b0160051c019086905b8281106102a557508c915061010c565b5f8155018690610295565b9250819261028c565b602289634e487b7160e01b5f525260245ffd5b90607f16906100fa565b634e487b7160e01b5f52604160045260245ffd5b015190505f806100ce565b879350908d91601f198416875f52835f20935f905b82821061033e5750508411610327575b505050811b0182556100df565b01515f1983871b60f8161c191690555f808061031a565b91929395968291958786015181550195019301908f918a969594939261030a565b90919250855f5284825f209181860160051c83019386106103a7575b918991869594930160051c01915b82811061039957508e91506100b9565b5f8155859450899101610389565b9250819261037b565b634e487b7160e01b5f52602260045260245ffd5b92607f16926100a3565b5f80fd5b6040519190601f01601f191682016001600160401b038111838210176102d657604052565b81601f820112156103ce578051906001600160401b0382116102d657610426601f8301601f19166020016103d2565b92828452602083830101116103ce57815f9260208093018386015e830101529056fe608060409080825260049081361015610016575f80fd5b5f3560e01c90816302d05d3f14610a405750806306fdde0314610964578063095ea7b3146108bb57806313114a9d1461089d57806318160ddd1461087f57806323b872dd146107975780632d83811914610778578063313ce5671461075d5780633685d419146105c55780634be26b191461039557806352390c021461049e57806370a0823114610472578063715018a61461041757806372b50928146103b357806383ad79941461039557806388f82020146103595780638da5cb5b1461033157806395d89b4114610211578063a9059cbb146101e1578063dd62ed3e146101985763f2fde38b14610107575f80fd5b3461019457602036600319011261019457610120610aab565b90610129610dd4565b6001600160a01b0391821692831561017e575050600554826bffffffffffffffffffffffff60a01b821617600555167f8be0079c531659141344cd1fd0a4f28419497f9722a3daafe3b4186f6b6457e05f80a3005b905f6024925191631e4fbdf760e01b8352820152fd5b5f80fd5b82346101945780600319360112610194576020906101b4610aab565b6101bc610ac1565b9060018060a01b038091165f5260018452825f2091165f528252805f20549051908152f35b823461019457806003193601126101945760209061020a610200610aab565b6024359033610c15565b5160018152f35b509034610194575f366003190112610194578051905f835460018160011c9060018316928315610327575b6020938484108114610314578388529081156102f857506001146102a4575b505050829003601f01601f191682019267ffffffffffffffff841183851017610291575082918261028d925282610a81565b0390f35b604190634e487b7160e01b5f525260245ffd5b5f878152929350837f8a35acfbc15ff81a39ae7d344fd709f28e8600b4aa8c65c6b64bfe7fe36bd19b5b8385106102e457505050508301015f808061025b565b8054888601830152930192849082016102ce565b60ff1916878501525050151560051b84010190505f808061025b565b602289634e487b7160e01b5f525260245ffd5b91607f169161023c565b8234610194575f3660031901126101945760055490516001600160a01b039091168152602090f35b8234610194576020366003190112610194576020906001600160a01b0361037e610aab565b165f52600c825260ff815f20541690519015158152f35b8234610194575f366003190112610194576020906006549051908152f35b509034610194576020366003190112610194578135916103d1610dd4565b600a8311610409577f8518b128247bb734c31c3f85e2de792e4d3830c6d17eb5b6bf6a52dd8f193872602084848160065551908152a1005b9051630adad23360e31b8152fd5b34610194575f3660031901126101945761042f610dd4565b600580546001600160a01b031981169091555f906001600160a01b03167f8be0079c531659141344cd1fd0a4f28419497f9722a3daafe3b4186f6b6457e08280a3005b823461019457602036600319011261019457602090610497610492610aab565b610bd8565b9051908152f35b50346101945760209081600319360112610194576104ba610aab565b926104c3610dd4565b6001600160a01b0384165f818152600c85528290205490929060ff1661059157825f52600a8452815f205480610577575b50600c8452815f20600160ff19825416179055600d54906801000000000000000082101561029157507f110b1fbed46dec7bc9019c3fba97541a3d64821a824872bb7b2ad678490855bf946105528260016105709401600d55610b6e565b90919060018060a01b038084549260031b9316831b921b1916179055565b51908152a1005b61058090610af5565b835f52600b8552825f20555f6104f4565b83606492519162461bcd60e51b8352820152601060248201526f105b1c9958591e48195e18db1d59195960821b6044820152fd5b50903461019457602080600319360112610194576105e1610aab565b916105ea610dd4565b60018060a01b0380931690815f52600c93600c845260ff825f2054161561072b575f5b600d8054808310156106fb579083918661062685610b6e565b949054600395861b1c16146106405750505060010161060d565b91949596979093925f19928381019081116106e857906105528561066661067394610b6e565b9054908a1b1c1691610b6e565b865f52600b88525f868120558752845f2060ff198154169055825480156106d5577f47ab6b2d1f416edec684889dc42cd04ed7cc6c6244edaa04c4215e1077548614985001926106c284610b6e565b81939154921b1b191690555551908152a1005b603189634e487b7160e01b5f525260245ffd5b60118b634e487b7160e01b5f525260245ffd5b50505050909192507f47ab6b2d1f416edec684889dc42cd04ed7cc6c6244edaa04c4215e10775486149350610570565b815162461bcd60e51b8152808701859052600c60248201526b139bdd08195e18db1d59195960a21b6044820152606490fd5b8234610194575f366003190112610194576020905160128152f35b5090346101945760203660031901126101945761049760209235610af5565b5034610194576060366003190112610194576107b1610aab565b6107b9610ac1565b906044359260018060a01b038216805f526001602052855f20335f52602052855f2054915f1983036107f4575b60208761020a888888610c15565b85831061085c57811561084657331561083057505f9081526001602090815286822033835281529086902091859003909155829061020a6107e6565b6024905f885191634a1406b160e11b8352820152fd5b6024905f88519163e602df0560e01b8352820152fd5b6064908684895192637dc7a0d960e11b8452339084015260248301526044820152fd5b8234610194575f366003190112610194576020906007549051908152f35b8234610194575f366003190112610194576020906009549051908152f35b5090346101945780600319360112610194576108d5610aab565b60243590331561094e576001600160a01b03169081156109385760209350335f5260018452825f20825f52845280835f205582519081527f8c5be1e5ebec7d5bd14f71427d1e84f3dd0314c0f7b2291e5b200ac8c7c3b925843392a35160018152f35b8251634a1406b160e11b81525f81860152602490fd5b825163e602df0560e01b81525f81860152602490fd5b509034610194575f366003190112610194578051905f60035460018160011c9060018316928315610a36575b6020938484108114610314578388529081156102f857506001146109e057505050829003601f01601f191682019267ffffffffffffffff841183851017610291575082918261028d925282610a81565b60035f908152929350837fc2575a0e9e593c00f959f8c92f12db2869c3395a3b0502d05e2516446f71f85b5b838510610a2257505050508301015f808061025b565b805488860183015293019284908201610a0c565b91607f1691610990565b34610194575f366003190112610194577f00000000000000000000000000000000000000000000000000000000000000006001600160a01b03168152602090f35b602060409281835280519182918282860152018484015e5f828201840152601f01601f1916010190565b600435906001600160a01b038216820361019457565b602435906001600160a01b038216820361019457565b8115610ae1570490565b634e487b7160e01b5f52601260045260245ffd5b6008548111610b1657610b1390610b0d610b0d610e20565b90610ad7565b90565b60405162461bcd60e51b815260206004820152602a60248201527f416d6f756e74206d757374206265206c657373207468616e20746f74616c207260448201526965666c656374696f6e7360b01b6064820152608490fd5b600d54811015610ba357600d5f527fd7b6990105719101dabeb77144f2a3385c8033acd3af97e9423a695e81ad1eb501905f90565b634e487b7160e01b5f52603260045260245ffd5b91908203918211610bc457565b634e487b7160e01b5f52601160045260245ffd5b6001600160a01b03165f908152600c602052604090205460ff16610c0857600a602052610b1360405f2054610af5565b600b60205260405f205490565b6001600160a01b03908116918215610dbc5716918215610da4578015610d4d577fddf252ad1be2c89b69c2b068fc378daa952ba7f163c4a11628f55a4df523b3ef906064610c6560065483610e00565b0490610c718282610bb7565b90610d10610c80610b0d610e20565b93610d05610c98610c918786610e00565b9683610e00565b610ca28188610bb7565b895f52602097600c895260409660ff885f205416610d33575b508a5f52600a8952610cd1875f20918254610bb7565b90558a5f52600c885260ff865f205416610d1a575b8a5f52600a8852610cfb865f20918254610e13565b9055600854610bb7565b600855600954610e13565b60095551908152a3565b600b8852855f20610d2c888254610e13565b9055610ce6565b600b8a52610d45885f20918254610bb7565b90555f610cbb565b60405162461bcd60e51b815260206004820152602960248201527f5472616e7366657220616d6f756e74206d7573742062652067726561746572206044820152687468616e207a65726f60b81b6064820152608490fd5b60405163ec442f0560e01b81525f6004820152602490fd5b604051634b637e8f60e11b81525f6004820152602490fd5b6005546001600160a01b03163303610de857565b60405163118cdaa760e01b8152336004820152602490fd5b81810292918115918404141715610bc457565b91908201809211610bc457565b60085490816007549283905f600d545b808210610e56575050610e438282610ad7565b8310610e4f5750509190565b9350919050565b90949395610e6386610b6e565b979060018060a01b0380915460039a8b1b1c165f52600a986020928a845260409a818c5f2054118015610efb575b610eec5793838b9c93610ed2610ecc600b958f9e9f9960019b99610eb7610ee49c610b6e565b905490871b1c165f528652875f205490610bb7565b9c610b6e565b9054911b1c165f52525f205490610bb7565b960190610e30565b50959950959750505050505050565b5083610f068c610b6e565b905490851b1c165f52600b8552858c5f205411610e9156fea264697066735822122006c6a5308472807ce930b9186f72f4d6dfdf0696be3fe9a972cf4dc400f20a7164736f6c63430008190033","linkReferences":{}},"methodIdentifiers":{"allowance(address,address)":"dd62ed3e","approve(address,uint256)":"095ea7b3","balanceOf(address)":"70a08231","creator()":"02d05d3f","decimals()":"313ce567","excludeFromReward(address)":"52390c02","getReflectionFee()":"4be26b19","includeInReward(address)":"3685d419","isExcludedFromReward(address)":"88f82020","name()":"06fdde03","owner()":"8da5cb5b","reflectionFee()":"83ad7994","renounceOwnership()":"715018a6","symbol()":"95d89b41","tokenFromReflection(uint256)":"2d838119","totalFees()":"13114a9d","totalSupply()":"18160ddd","transfer(address,uint256)":"a9059cbb","transferFrom(address,address,uint256)":"23b872dd","transferOwnership(address)":"f2fde38b","updateReflectionFee(uint256)":"72b50928"},"id":156}