{"abi":[{"type":"constructor","inputs":[],"stateMutability":"nonpayable"},{"type":"function","name":"BASIS_POINTS","inputs":[],"outputs":[{"name":"","type":"uint256","internalType":"uint256"}],"stateMutability":"view"},{"type":"function","name":"DEFAULT_ADMIN_ROLE","inputs":[],"outputs":[{"name":"","type":"bytes32","internalType":"bytes32"}],"stateMutability":"view"},{"type":"function","name":"EPOCH_DURATION","inputs":[],"outputs":[{"name":"","type":"uint256","internalType":"uint256"}],"stateMutability":"view"},{"type":"function","name":"MIN_STAKE_DECENTRALIZED","inputs":[],"outputs":[{"name":"","type":"uint256","internalType":"uint256"}],"stateMutability":"view"},{"type":"function","name":"MIN_STAKE_DUAL","inputs":[],"outputs":[{"name":"","type":"uint256","internalType":"uint256"}],"stateMutability":"view"},{"type":"function","name":"MIN_STAKE_GENESIS","inputs":[],"outputs":[{"name":"","type":"uint256","internalType":"uint256"}],"stateMutability":"view"},{"type":"function","name":"MIN_STAKE_MULTI","inputs":[],"outputs":[{"name":"","type":"uint256","internalType":"uint256"}],"stateMutability":"view"},{"type":"function","name":"MIN_UPTIME_PERCENTAGE","inputs":[],"outputs":[{"name":"","type":"uint256","internalType":"uint256"}],"stateMutability":"view"},{"type":"function","name":"PAUSER_ROLE","inputs":[],"outputs":[{"name":"","type":"bytes32","internalType":"bytes32"}],"stateMutability":"view"},{"type":"function","name":"PHASE_1_DURATION","inputs":[],"outputs":[{"name":"","type":"uint256","internalType":"uint256"}],"stateMutability":"view"},{"type":"function","name":"PHASE_2_DURATION","inputs":[],"outputs":[{"name":"","type":"uint256","internalType":"uint256"}],"stateMutability":"view"},{"type":"function","name":"PHASE_3_DURATION","inputs":[],"outputs":[{"name":"","type":"uint256","internalType":"uint256"}],"stateMutability":"view"},{"type":"function","name":"SEQUENCER_MANAGER_ROLE","inputs":[],"outputs":[{"name":"","type":"bytes32","internalType":"bytes32"}],"stateMutability":"view"},{"type":"function","name":"UPGRADE_INTERFACE_VERSION","inputs":[],"outputs":[{"name":"","type":"string","internalType":"string"}],"stateMutability":"view"},{"type":"function","name":"activeSequencers","inputs":[{"name":"","type":"uint256","internalType":"uint256"}],"outputs":[{"name":"","type":"address","internalType":"address"}],"stateMutability":"view"},{"type":"function","name":"blocksPerRotation","inputs":[],"outputs":[{"name":"","type":"uint256","internalType":"uint256"}],"stateMutability":"view"},{"type":"function","name":"currentEpoch","inputs":[],"outputs":[{"name":"","type":"uint256","internalType":"uint256"}],"stateMutability":"view"},{"type":"function","name":"currentLeaderIndex","inputs":[],"outputs":[{"name":"","type":"uint256","internalType":"uint256"}],"stateMutability":"view"},{"type":"function","name":"currentPhase","inputs":[],"outputs":[{"name":"","type":"uint8","internalType":"enum AndeSequencerRegistry.Phase"}],"stateMutability":"view"},{"type":"function","name":"epochs","inputs":[{"name":"","type":"uint256","internalType":"uint256"}],"outputs":[{"name":"startTime","type":"uint256","internalType":"uint256"},{"name":"endTime","type":"uint256","internalType":"uint256"}],"stateMutability":"view"},{"type":"function","name":"genesisTimestamp","inputs":[],"outputs":[{"name":"","type":"uint256","internalType":"uint256"}],"stateMutability":"view"},{"type":"function","name":"getActiveSequencers","inputs":[],"outputs":[{"name":"","type":"address[]","internalType":"address[]"}],"stateMutability":"view"},{"type":"function","name":"getActiveSequencersCount","inputs":[],"outputs":[{"name":"","type":"uint256","internalType":"uint256"}],"stateMutability":"view"},{"type":"function","name":"getCurrentLeader","inputs":[],"outputs":[{"name":"","type":"address","internalType":"address"}],"stateMutability":"view"},{"type":"function","name":"getEpochInfo","inputs":[{"name":"epoch","type":"uint256","internalType":"uint256"}],"outputs":[{"name":"startTime","type":"uint256","internalType":"uint256"},{"name":"endTime","type":"uint256","internalType":"uint256"},{"name":"sequencersList","type":"address[]","internalType":"address[]"}],"stateMutability":"view"},{"type":"function","name":"getPhaseRequirements","inputs":[],"outputs":[{"name":"minStake","type":"uint256","internalType":"uint256"},{"name":"maxSequencers","type":"uint256","internalType":"uint256"},{"name":"minUptime","type":"uint256","internalType":"uint256"}],"stateMutability":"view"},{"type":"function","name":"getRoleAdmin","inputs":[{"name":"role","type":"bytes32","internalType":"bytes32"}],"outputs":[{"name":"","type":"bytes32","internalType":"bytes32"}],"stateMutability":"view"},{"type":"function","name":"getSequencerBlocksInEpoch","inputs":[{"name":"epoch","type":"uint256","internalType":"uint256"},{"name":"sequencer","type":"address","internalType":"address"}],"outputs":[{"name":"","type":"uint256","internalType":"uint256"}],"stateMutability":"view"},{"type":"function","name":"getSequencerInfo","inputs":[{"name":"sequencer","type":"address","internalType":"address"}],"outputs":[{"name":"","type":"tuple","internalType":"struct AndeSequencerRegistry.SequencerInfo","components":[{"name":"sequencer","type":"address","internalType":"address"},{"name":"stakedAmount","type":"uint256","internalType":"uint256"},{"name":"registeredAt","type":"uint256","internalType":"uint256"},{"name":"lastBlockProduced","type":"uint256","internalType":"uint256"},{"name":"totalBlocksProduced","type":"uint256","internalType":"uint256"},{"name":"uptime","type":"uint256","internalType":"uint256"},{"name":"isActive","type":"bool","internalType":"bool"},{"name":"isPermanent","type":"bool","internalType":"bool"},{"name":"endpoint","type":"string","internalType":"string"}]}],"stateMutability":"view"},{"type":"function","name":"grantRole","inputs":[{"name":"role","type":"bytes32","internalType":"bytes32"},{"name":"account","type":"address","internalType":"address"}],"outputs":[],"stateMutability":"nonpayable"},{"type":"function","name":"hasRole","inputs":[{"name":"role","type":"bytes32","internalType":"bytes32"},{"name":"account","type":"address","internalType":"address"}],"outputs":[{"name":"","type":"bool","internalType":"bool"}],"stateMutability":"view"},{"type":"function","name":"initialize","inputs":[{"name":"defaultAdmin","type":"address","internalType":"address"},{"name":"foundation","type":"address","internalType":"address"}],"outputs":[],"stateMutability":"nonpayable"},{"type":"function","name":"maxSequencersPhase2","inputs":[],"outputs":[{"name":"","type":"uint256","internalType":"uint256"}],"stateMutability":"view"},{"type":"function","name":"maxSequencersPhase3","inputs":[],"outputs":[{"name":"","type":"uint256","internalType":"uint256"}],"stateMutability":"view"},{"type":"function","name":"maxSequencersPhase4","inputs":[],"outputs":[{"name":"","type":"uint256","internalType":"uint256"}],"stateMutability":"view"},{"type":"function","name":"pause","inputs":[],"outputs":[],"stateMutability":"nonpayable"},{"type":"function","name":"paused","inputs":[],"outputs":[{"name":"","type":"bool","internalType":"bool"}],"stateMutability":"view"},{"type":"function","name":"proxiableUUID","inputs":[],"outputs":[{"name":"","type":"bytes32","internalType":"bytes32"}],"stateMutability":"view"},{"type":"function","name":"recordBlockProduced","inputs":[{"name":"sequencer","type":"address","internalType":"address"}],"outputs":[],"stateMutability":"nonpayable"},{"type":"function","name":"registerSequencer","inputs":[{"name":"sequencer","type":"address","internalType":"address"},{"name":"stakedAmount","type":"uint256","internalType":"uint256"},{"name":"endpoint","type":"string","internalType":"string"}],"outputs":[],"stateMutability":"nonpayable"},{"type":"function","name":"removeSequencer","inputs":[{"name":"sequencer","type":"address","internalType":"address"},{"name":"reason","type":"string","internalType":"string"}],"outputs":[],"stateMutability":"nonpayable"},{"type":"function","name":"renounceRole","inputs":[{"name":"role","type":"bytes32","internalType":"bytes32"},{"name":"callerConfirmation","type":"address","internalType":"address"}],"outputs":[],"stateMutability":"nonpayable"},{"type":"function","name":"revokeRole","inputs":[{"name":"role","type":"bytes32","internalType":"bytes32"},{"name":"account","type":"address","internalType":"address"}],"outputs":[],"stateMutability":"nonpayable"},{"type":"function","name":"sequencerList","inputs":[{"name":"","type":"uint256","internalType":"uint256"}],"outputs":[{"name":"","type":"address","internalType":"address"}],"stateMutability":"view"},{"type":"function","name":"sequencers","inputs":[{"name":"","type":"address","internalType":"address"}],"outputs":[{"name":"sequencer","type":"address","internalType":"address"},{"name":"stakedAmount","type":"uint256","internalType":"uint256"},{"name":"registeredAt","type":"uint256","internalType":"uint256"},{"name":"lastBlockProduced","type":"uint256","internalType":"uint256"},{"name":"totalBlocksProduced","type":"uint256","internalType":"uint256"},{"name":"uptime","type":"uint256","internalType":"uint256"},{"name":"isActive","type":"bool","internalType":"bool"},{"name":"isPermanent","type":"bool","internalType":"bool"},{"name":"endpoint","type":"string","internalType":"string"}],"stateMutability":"view"},{"type":"function","name":"slashSequencer","inputs":[{"name":"sequencer","type":"address","internalType":"address"},{"name":"amount","type":"uint256","internalType":"uint256"},{"name":"reason","type":"string","internalType":"string"}],"outputs":[],"stateMutability":"nonpayable"},{"type":"function","name":"startNewEpoch","inputs":[],"outputs":[],"stateMutability":"nonpayable"},{"type":"function","name":"supportsInterface","inputs":[{"name":"interfaceId","type":"bytes4","internalType":"bytes4"}],"outputs":[{"name":"","type":"bool","internalType":"bool"}],"stateMutability":"view"},{"type":"function","name":"transitionPhase","inputs":[],"outputs":[],"stateMutability":"nonpayable"},{"type":"function","name":"unpause","inputs":[],"outputs":[],"stateMutability":"nonpayable"},{"type":"function","name":"updateSequencerUptime","inputs":[{"name":"sequencer","type":"address","internalType":"address"},{"name":"uptimePercentage","type":"uint256","internalType":"uint256"}],"outputs":[],"stateMutability":"nonpayable"},{"type":"function","name":"upgradeToAndCall","inputs":[{"name":"newImplementation","type":"address","internalType":"address"},{"name":"data","type":"bytes","internalType":"bytes"}],"outputs":[],"stateMutability":"payable"},{"type":"event","name":"BlockProduced","inputs":[{"name":"sequencer","type":"address","indexed":true,"internalType":"address"},{"name":"blockNumber","type":"uint256","indexed":false,"internalType":"uint256"},{"name":"timestamp","type":"uint256","indexed":false,"internalType":"uint256"}],"anonymous":false},{"type":"event","name":"EpochEnded","inputs":[{"name":"epoch","type":"uint256","indexed":true,"internalType":"uint256"},{"name":"endTime","type":"uint256","indexed":false,"internalType":"uint256"}],"anonymous":false},{"type":"event","name":"EpochStarted","inputs":[{"name":"epoch","type":"uint256","indexed":true,"internalType":"uint256"},{"name":"startTime","type":"uint256","indexed":false,"internalType":"uint256"},{"name":"sequencers","type":"address[]","indexed":false,"internalType":"address[]"}],"anonymous":false},{"type":"event","name":"Initialized","inputs":[{"name":"version","type":"uint64","indexed":false,"internalType":"uint64"}],"anonymous":false},{"type":"event","name":"LeaderRotated","inputs":[{"name":"oldLeader","type":"address","indexed":true,"internalType":"address"},{"name":"newLeader","type":"address","indexed":true,"internalType":"address"},{"name":"blockNumber","type":"uint256","indexed":false,"internalType":"uint256"}],"anonymous":false},{"type":"event","name":"Paused","inputs":[{"name":"account","type":"address","indexed":false,"internalType":"address"}],"anonymous":false},{"type":"event","name":"PhaseTransitioned","inputs":[{"name":"oldPhase","type":"uint8","indexed":false,"internalType":"enum AndeSequencerRegistry.Phase"},{"name":"newPhase","type":"uint8","indexed":false,"internalType":"enum AndeSequencerRegistry.Phase"},{"name":"timestamp","type":"uint256","indexed":false,"internalType":"uint256"}],"anonymous":false},{"type":"event","name":"RoleAdminChanged","inputs":[{"name":"role","type":"bytes32","indexed":true,"internalType":"bytes32"},{"name":"previousAdminRole","type":"bytes32","indexed":true,"internalType":"bytes32"},{"name":"newAdminRole","type":"bytes32","indexed":true,"internalType":"bytes32"}],"anonymous":false},{"type":"event","name":"RoleGranted","inputs":[{"name":"role","type":"bytes32","indexed":true,"internalType":"bytes32"},{"name":"account","type":"address","indexed":true,"internalType":"address"},{"name":"sender","type":"address","indexed":true,"internalType":"address"}],"anonymous":false},{"type":"event","name":"RoleRevoked","inputs":[{"name":"role","type":"bytes32","indexed":true,"internalType":"bytes32"},{"name":"account","type":"address","indexed":true,"internalType":"address"},{"name":"sender","type":"address","indexed":true,"internalType":"address"}],"anonymous":false},{"type":"event","name":"SequencerRegistered","inputs":[{"name":"sequencer","type":"address","indexed":true,"internalType":"address"},{"name":"stakedAmount","type":"uint256","indexed":false,"internalType":"uint256"},{"name":"isPermanent","type":"bool","indexed":false,"internalType":"bool"}],"anonymous":false},{"type":"event","name":"SequencerRemoved","inputs":[{"name":"sequencer","type":"address","indexed":true,"internalType":"address"},{"name":"reason","type":"string","indexed":false,"internalType":"string"}],"anonymous":false},{"type":"event","name":"SequencerSlashed","inputs":[{"name":"sequencer","type":"address","indexed":true,"internalType":"address"},{"name":"amount","type":"uint256","indexed":false,"internalType":"uint256"},{"name":"reason","type":"string","indexed":false,"internalType":"string"}],"anonymous":false},{"type":"event","name":"Unpaused","inputs":[{"name":"account","type":"address","indexed":false,"internalType":"address"}],"anonymous":false},{"type":"event","name":"Upgraded","inputs":[{"name":"implementation","type":"address","indexed":true,"internalType":"address"}],"anonymous":false},{"type":"error","name":"AccessControlBadConfirmation","inputs":[]},{"type":"error","name":"AccessControlUnauthorizedAccount","inputs":[{"name":"account","type":"address","internalType":"address"},{"name":"neededRole","type":"bytes32","internalType":"bytes32"}]},{"type":"error","name":"AddressEmptyCode","inputs":[{"name":"target","type":"address","internalType":"address"}]},{"type":"error","name":"BelowMinUptime","inputs":[]},{"type":"error","name":"CannotRemovePermanentSequencer","inputs":[]},{"type":"error","name":"ERC1967InvalidImplementation","inputs":[{"name":"implementation","type":"address","internalType":"address"}]},{"type":"error","name":"ERC1967NonPayable","inputs":[]},{"type":"error","name":"EnforcedPause","inputs":[]},{"type":"error","name":"EpochNotEnded","inputs":[]},{"type":"error","name":"ExpectedPause","inputs":[]},{"type":"error","name":"FailedInnerCall","inputs":[]},{"type":"error","name":"InsufficientStake","inputs":[]},{"type":"error","name":"InvalidInitialization","inputs":[]},{"type":"error","name":"InvalidPhase","inputs":[]},{"type":"error","name":"MaxSequencersReached","inputs":[]},{"type":"error","name":"NotActiveSequencer","inputs":[]},{"type":"error","name":"NotInitializing","inputs":[]},{"type":"error","name":"ReentrancyGuardReentrantCall","inputs":[]},{"type":"error","name":"SequencerAlreadyRegistered","inputs":[]},{"type":"error","name":"SequencerNotFound","inputs":[]},{"type":"error","name":"UUPSUnauthorizedCallContext","inputs":[]},{"type":"error","name":"UUPSUnsupportedProxiableUUID","inputs":[{"name":"slot","type":"bytes32","internalType":"bytes32"}]}],"bytecode":{"object":"0x60a080604052346100e057306080526002600755600760085560646009556064600b557ff0c57e16840df040f15088dc2f81fe391c3923bec73e23a9662efc9c229c6a009081549060ff8260401c166100d157506001600160401b036002600160401b03198282160161008c575b6040516126e990816100e58239608051818181610e0f0152610efc0152f35b6001600160401b031990911681179091556040519081527fc7f505b2f371ae2175ee4913f4499e1f2633a7b5936321eed1cdaeb6115181d290602090a15f808061006d565b63f92ee8a960e01b8152600490fd5b5f80fdfe608080604052600480361015610013575f80fd5b5f3560e01c91826301ffc9a71461189957508163055ad42e146118735781630f29f01914611553578163135022c2146117de57816315c0b62a146116da5781631c7a07ee1461162b578163248a9ca3146115f457816324d1a800146115a05781632f2ff15d1461155857816331d0d4841461155357816336568abe146115105781633aab0a621461146a5781633b8ed6d1146114245781633f4ba83a146113af57816345a4f50614611393578163485cc955146111025781634f1ef28614610ead57816352cbd4e914610e7657816352d1902d14610dfd5781635539aa8614610ddf5781635c975abb14610db15781636839c1bd14610b255781636e90f83214610d945781636ffcb8a114610d705781637667180814610d5357816377ec572014610d3657816381f9f32c14610d195781638456cb5914610cb45781638aa6487014610b7e57816391d1485414610b2a578163938ece8914610b25578163a0c8c095146109c2578163a217fddf14610674578163a70b9f0c146109a5578163aa378a7d14610849578163ad3cb1cc14610804578163b28c0286146107e7578163b3b9ecbe146107cb578163b75b846c14610791578163b967fccb14610774578163be228f921461071c578163c637ef75146106dc578163c6b61e4c146106ab578163cacf66ab1461068e578163cb4d330314610674578163d1c6ed55146105ba578163d547741f14610570578163e1f1c4a714610554578163e27a0b451461030657508063e63ab1e9146102cc578063e868ba70146102a05763f4eba8421461025a575f80fd5b3461029c575f36600319011261029c576102986040516102848161027d81611c32565b0382611a1d565b604051918291602083526020830190611930565b0390f35b5f80fd5b3461029c575f36600319011261029c5760206102ba611d9d565b6040516001600160a01b039091168152f35b3461029c575f36600319011261029c5760206040517f65d7a28e3265b37a6474929f336521b332c1681b933f6cb9f3376673440d862a8152f35b3461029c5761031436611ba2565b91929093610320611dc9565b610328611f21565b60018060a01b039283831695865f526020946002865260405f20541661054357610350612520565b86106105325761035e612573565b8354101561052157865f526002855260405f2090876bffffffffffffffffffffffff60a01b83541617825560076001928884820155426002820155600681018461ffff19825416179055019367ffffffffffffffff841161050e57506103c48454611998565b601f81116104d5575b505f90601f84116001146104485793838060409895610432957f1db4aebd1bd4b54bd50b94801b33a2b303dd18917dc3dc787d96459f8bcc7d709b99955f998a9461043d575b50501b9187199060031b1c19161790555b61042d81611cf9565b611d5c565b8351928352820152a2005b013592508d80610413565b601f93929319831691855f52875f20925f5b8181106104c05750937f1db4aebd1bd4b54bd50b94801b33a2b303dd18917dc3dc787d96459f8bcc7d709997935f979360409a97938361043298106104a7575b505050811b019055610424565b891960f88560031b161c199101351690558b808061049a565b8383013585559386019391890191890161045a565b6104fe90855f52875f20601f860160051c810191898710610504575b601f0160051c0190611ce3565b886103cd565b90915081906104f1565b604190634e487b7160e01b5f525260245ffd5b604051635866178960e11b81528390fd5b6040516378de4a6960e11b81528390fd5b604051639a30fa6760e01b81528390fd5b3461029c575f36600319011261029c5760206040516127108152f35b3461029c57604036600319011261029c576105b8903561058e611982565b90805f525f805160206126748339815191526020526105b3600160405f200154611ef3565b61239c565b005b3461029c57604036600319011261029c576105d361196c565b906024356105df611dc9565b6001600160a01b038381165f908152600260205260409020805490939116156106655750806126ac916005840155109081610652575b5061061c57005b6040516105b89161062c82611a01565b601482527342656c6f77206d696e696d756d20757074696d6560601b6020830152611fd0565b60ff91506006015460081c161582610615565b604051630c6ab20360e01b8152fd5b3461029c575f36600319011261029c5760206040515f8152f35b3461029c575f36600319011261029c576020600154604051908152f35b3461029c57602036600319011261029c57355f5260066020526040805f206001815491015482519182526020820152f35b3461029c57602036600319011261029c578035905481101561029c57610703602091611be9565b905460405160039290921b1c6001600160a01b03168152f35b3461029c57602036600319011261029c573560035481101561029c5760035f527fc2575a0e9e593c00f959f8c92f12db2869c3395a3b0502d05e2516446f71f85b01546040516001600160a01b039091168152602090f35b3461029c575f36600319011261029c576020600a54604051908152f35b3461029c575f36600319011261029c5760206040517f725346f2674e7a610d0ae6e19dd9b45a4380674de24b5ed8476a591399281da38152f35b3461029c575f36600319011261029c5760206040516126ac8152f35b3461029c575f36600319011261029c576020600754604051908152f35b3461029c575f36600319011261029c5761029860405161082381611a01565b60058152640352e302e360dc1b6020820152604051918291602083526020830190611ae1565b3461029c57602036600319011261029c5760c09061029861086861196c565b60405190610875826119d0565b5f82525f60208301525f60408301525f60608301525f60808301525f60a08301525f858301525f60e083015260606101008093015260018060a01b03165f52600260205260405f2090604051936108cb856119d0565b60018060a01b0383541685526001830154602086015260028301546040860152600383015460608601528201546080850152600582015460a0850152610931600760068401549360ff851615158888015260ff60e088019560081c161515855201611a3f565b918185019283526040519586956020875260018060a01b038151166020880152602081015160408801526040810151606088015260608101516080880152608081015160a088015260a0810151828801520151151560e0860152511515908401525161012080840152610140830190611ae1565b3461029c575f36600319011261029c5760206040516276a7008152f35b3461029c576109d036611ba2565b906109d9611dc9565b60018060a01b039283851691825f52600260205260405f209485541615610b145760068501549460ff861615610b03577f54feefbe9d950d84d055909aadbe66ae8707aa598d83daaca3756384a47a34569260016060920195610a3d828854611cd6565b80975580604051948593845260406020850152816040850152848401375f828201840152601f01601f19168101030190a2610a76612520565b119081610af4575b50610a8557005b604051906060820182811067ffffffffffffffff821117610ae1576105b89350604052602182527f496e73756666696369656e74207374616b6520616674657220736c617368696e6020830152606760f81b6040830152611fd0565b604184634e487b7160e01b5f525260245ffd5b60ff915060081c161583610a7e565b60405163fe3ed55560e01b81528890fd5b604051630c6ab20360e01b81528790fd5b611b85565b3461029c57604036600319011261029c57610b43611982565b90355f525f8051602061267483398151915260205260405f209060018060a01b03165f52602052602060ff60405f2054166040519015158152f35b3461029c575f36600319011261029c57610b96611e9d565b610ba260015442611cd6565b905f5460ff8116928383811015610ca157801580610c94575b15610c365750506001915b80831015610c235760ff19821660ff8416175f556040517fefa1fea20cc2d4af8027fccfa5980c7e135bc6ef13b99c6fea04c7ff3d7a39d090606090610c1a86610c10838a6118eb565b60208301906118eb565b426040820152a1005b602190634e487b7160e01b5f525260245ffd5b6001811480610c86575b15610c4f575050600291610bc6565b6002149081610c77575b5015610c6757600391610bc6565b5060405163268dbf6760e21b8152fd5b6303bbcf809150101584610c59565b506301da9c00821015610c40565b5062ed4e00821015610bbb565b602184634e487b7160e01b5f525260245ffd5b3461029c575f36600319011261029c57610ccc611e42565b610cd4611f21565b5f80516020612694833981519152600160ff198254161790557f62e78cea01bee320cd4e420270b5ea74000d11b0c9f74754ebdbfc544b05a2586020604051338152a1005b3461029c575f36600319011261029c576020600954604051908152f35b3461029c575f36600319011261029c576020600854604051908152f35b3461029c575f36600319011261029c576020600554604051908152f35b3461029c575f36600319011261029c576020604051690a968163f0a57b4000008152f35b3461029c575f36600319011261029c576020600b54604051908152f35b3461029c575f36600319011261029c57602060ff5f8051602061269483398151915254166040519015158152f35b3461029c575f36600319011261029c5760206040516301e133808152f35b3461029c575f36600319011261029c577f00000000000000000000000000000000000000000000000000000000000000006001600160a01b03163003610e675760206040517f360894a13ba1a3210667c828492db98dca3e2076cc3735a920a3ca505d382bbc8152f35b60405163703e46dd60e11b8152fd5b3461029c575f36600319011261029c576060610e90612520565b610e98612573565b60405191825260208201526126ac6040820152f35b604036600319011261029c57610ec161196c565b9060243567ffffffffffffffff811161029c573660238201121561029c57610ef29036906024818501359101611b4f565b6001600160a01b037f000000000000000000000000000000000000000000000000000000000000000081163081149081156110d4575b506110c357610f35611e9d565b831690604051936352d1902d60e01b855260209081868681875afa5f9681611094575b50610f7557604051634c9c8ce360e01b8152808601859052602490fd5b84847f360894a13ba1a3210667c828492db98dca3e2076cc3735a920a3ca505d382bbc887fc9f76b5ec45e5cdef99837d7b6d2467235c1df8933c8ca56df5c35afa2c7d444810161107d5750833b156110655780546001600160a01b03191682179055604051907fbc7cd75a20ee27fd9adebab32041f755214dbc6bffa90cc0225b39da2e5c2d3b5f80a284511561104d5750505f8084846105b896519101845af4903d15611044573d61102881611b33565b906110366040519283611a1d565b81525f81943d92013e6125f0565b606092506125f0565b92509250503461105957005b63b398979f60e01b8152fd5b604051634c9c8ce360e01b8152808401839052602490fd5b8360249160405191632a87526960e21b8352820152fd5b9096508281813d83116110bc575b6110ac8183611a1d565b8101031261029c57519587610f58565b503d6110a2565b60405163703e46dd60e11b81528390fd5b9050817f360894a13ba1a3210667c828492db98dca3e2076cc3735a920a3ca505d382bbc5416141585610f28565b3461029c57604036600319011261029c5761111b61196c565b611123611982565b907ff0c57e16840df040f15088dc2f81fe391c3923bec73e23a9662efc9c229c6a009182549160ff8360401c16159267ffffffffffffffff81169586158061138c575b60018098149081611382575b159081611379575b5061136a575067ffffffffffffffff198116861785558361134b575b5061119f6125af565b6111a76125af565b6111af6125af565b6111b76125af565b61121e60ff19915f805160206126948339815191528381541690556111da6125af565b6111e26125af565b867f9b779b17422d0df92223018b32b4d1fa46e071723d6817e2486d003becc55f005561120e8161214f565b50611218816121d9565b50612286565b504285555f54165f556064600b555f600a55836005556002600755600760085560646009556112b160018060a01b03821691825f5260026020525f600760408220856bffffffffffffffffffffffff60a01b82541617815582898201554260028201556006810161010161ffff198254161790550161129d8154611998565b601f811161132c575b505561042d81611cf9565b7f1db4aebd1bd4b54bd50b94801b33a2b303dd18917dc3dc787d96459f8bcc7d70604080515f8152866020820152a26112e86124c6565b6112ee57005b805468ff0000000000000000191690556040519081527fc7f505b2f371ae2175ee4913f4499e1f2633a7b5936321eed1cdaeb6115181d290602090a1005b8183526020832061134591601f0160051c810190611ce3565b886112a6565b68ffffffffffffffffff19166801000000000000000117845585611196565b60405163f92ee8a960e01b8152fd5b9050158861117a565b303b159150611172565b5084611166565b3461029c575f36600319011261029c5760209054604051908152f35b3461029c575f36600319011261029c576113c7611e42565b5f805160206126948339815191529081549060ff821615611415575060ff191690557f5db9ee0a495bf2e6ff9c91a7834c1ba4fdd244a5e8aa4e537bd38aeae4b073aa6020604051338152a1005b604051638dfc202b60e01b8152fd5b3461029c57604036600319011261029c5761143d611982565b90355f526006602052600360405f20019060018060a01b03165f52602052602060405f2054604051908152f35b3461029c575f36600319011261029c57611482611dc9565b6005545f52600660205260405f209081546276a70081018091116114fd5742106114ee57506001429101556114e3600554807f27bd0cff633fd950c11ae24bd614aa2d87d938a50d6b65573c3743be7a831f576020604051428152a2611c96565b6005556105b86124c6565b60405163756b785760e01b8152fd5b601182634e487b7160e01b5f525260245ffd5b3461029c57604036600319011261029c57611529611982565b336001600160a01b03821603611543576105b8913561239c565b5060405163334bd91960e11b8152fd5b61190c565b3461029c57604036600319011261029c576105b89035611576611982565b90805f525f8051602061267483398151915260205261159b600160405f200154611ef3565b61232c565b3461029c57604036600319011261029c576115b961196c565b6024359167ffffffffffffffff831161029c576115df6115ee916105b894369101611b05565b6115e7611dc9565b3691611b4f565b90611fd0565b3461029c57602036600319011261029c57355f525f805160206126748339815191526020526020600160405f200154604051908152f35b3461029c57602036600319011261029c576001600160a01b03908161164e61196c565b165f52600260205261029860405f20928354169160018401549260ff600286015495600381015493810154600582015490611690600760068501549401611a3f565b95604051998a99610120978b5260208b015260408a01526060890152608088015260a0870152818116151560c087015260081c16151560e085015280610100850152830190611ae1565b3461029c57602036600319011261029c576116f361196c565b6116fb611dc9565b611703611f21565b6001600160a01b039081165f81815260026020526040902080549192909116156117cd5760ff600682015416156117bc57916117ad92426003820155019061174b8254611c96565b82556005545f526006602052600360405f2001815f5260205260405f206117728154611c96565b90557fec1f874ad03e4e6cc8dd97f4b1facb6f2d61d2707d5c8da5aaba293ff766b97960408051438152426020820152a254600b5490611cb8565b156117b457005b6105b8611f4b565b60405163fe3ed55560e01b81528390fd5b604051630c6ab20360e01b81528390fd5b3461029c576020908160031936011261029c57355f526006815260405f2080549060019060026001820154910160405180938683549283815201925f52865f20915f5b888282106118575788610298898961183b828b0383611a1d565b6040519485948552840152606060408401526060830190611930565b84546001600160a01b0316865290940193928201928201611821565b3461029c575f36600319011261029c57602060ff5f541661189760405180926118eb565bf35b903461029c57602036600319011261029c57359063ffffffff60e01b821680920361029c57602091637965db0b60e01b81149081156118da575b5015158152f35b6301ffc9a760e01b149050836118d3565b9060048210156118f85752565b634e487b7160e01b5f52602160045260245ffd5b3461029c575f36600319011261029c57602060405169152d02c7e14af68000008152f35b9081518082526020808093019301915f5b82811061194f575050505090565b83516001600160a01b031685529381019392810192600101611941565b600435906001600160a01b038216820361029c57565b602435906001600160a01b038216820361029c57565b90600182811c921680156119c6575b60208310146119b257565b634e487b7160e01b5f52602260045260245ffd5b91607f16916119a7565b610120810190811067ffffffffffffffff8211176119ed57604052565b634e487b7160e01b5f52604160045260245ffd5b6040810190811067ffffffffffffffff8211176119ed57604052565b90601f8019910116810190811067ffffffffffffffff8211176119ed57604052565b9060405191825f8254611a5181611998565b908184526020946001916001811690815f14611abf5750600114611a81575b505050611a7f92500383611a1d565b565b5f90815285812095935091905b818310611aa7575050611a7f93508201015f8080611a70565b85548884018501529485019487945091830191611a8e565b92505050611a7f94925060ff191682840152151560051b8201015f8080611a70565b805180835260209291819084018484015e5f828201840152601f01601f1916010190565b9181601f8401121561029c5782359167ffffffffffffffff831161029c576020838186019501011161029c57565b67ffffffffffffffff81116119ed57601f01601f191660200190565b929192611b5b82611b33565b91611b696040519384611a1d565b82948184528183011161029c578281602093845f960137010152565b3461029c575f36600319011261029c57602060405162ed4e008152f35b606060031982011261029c576004356001600160a01b038116810361029c5791602435916044359067ffffffffffffffff821161029c57611be591600401611b05565b9091565b600454811015611c1e5760045f527f8a35acfbc15ff81a39ae7d344fd709f28e8600b4aa8c65c6b64bfe7fe36bd19b01905f90565b634e487b7160e01b5f52603260045260245ffd5b6004549081815260208091019160045f527f8a35acfbc15ff81a39ae7d344fd709f28e8600b4aa8c65c6b64bfe7fe36bd19b915f905b828210611c76575050505090565b83546001600160a01b031685529384019360019384019390910190611c68565b5f198114611ca45760010190565b634e487b7160e01b5f52601160045260245ffd5b8115611cc2570690565b634e487b7160e01b5f52601260045260245ffd5b91908203918211611ca457565b818110611cee575050565b5f8155600101611ce3565b600354600160401b8110156119ed576001810180600355811015611c1e5760035f527fc2575a0e9e593c00f959f8c92f12db2869c3395a3b0502d05e2516446f71f85b0180546001600160a01b0319166001600160a01b03909216919091179055565b60045490600160401b8210156119ed57611d7f826001611a7f9401600455611be9565b90919060018060a01b038084549260031b9316831b921b1916179055565b60045415611dc557611db0600a54611be9565b905460039190911b1c6001600160a01b031690565b5f90565b335f9081527fc157d408da348139bf70cfd0baf22a48779057d99f6df6b2706ae8add81bdb7360205260409020547f725346f2674e7a610d0ae6e19dd9b45a4380674de24b5ed8476a591399281da39060ff1615611e245750565b6044906040519063e2517d3f60e01b82523360048301526024820152fd5b335f9081527f75442b0a96088b5456bc4ed01394c96a4feec0f883c9494257d76b96ab1c9b6b60205260409020547f65d7a28e3265b37a6474929f336521b332c1681b933f6cb9f3376673440d862a9060ff1615611e245750565b335f9081527fb7db2dd08fcb62d0c9e08c51941cae53c267786a0b75803fb7960902fc8ef97d602052604090205460ff1615611ed557565b60405163e2517d3f60e01b81523360048201525f6024820152604490fd5b805f525f8051602061267483398151915260205260405f20335f5260205260ff60405f20541615611e245750565b60ff5f805160206126948339815191525416611f3957565b60405163d93c066560e01b8152600490fd5b6004548015611fcd57600a54611f6081611be9565b90549290916001810191906001600160a01b03908310611ca45780611fb4611fab6020947fecdb921cf987e30750a30d8733483f6824406b2098b69cbfe554546316654d0f96611cb8565b80600a55611be9565b90549060031b1c16946040519443865260031b1c1692a3565b50565b6001600160a01b039081165f81815260026020526040902080549293919284161561213d57600601805460ff8160081c1661212b5760ff191690555f5b60048054808310156120fb579085918561202685611be9565b949054600395861b1c16146120405750505060010161200d565b90925f969294959619918281019081116120e85790611d7f8461206561207294611be9565b905490891b1c1691611be9565b825480156120d557917f60c32c78baeed87b47940bf4b5a12db273eb09931f25b9b08d2ce4a8e04ad8359593916120d0959301926120af84611be9565b81939154921b1b19169055555b604051918291602083526020830190611ae1565b0390a2565b603184634e487b7160e01b5f525260245ffd5b601185634e487b7160e01b5f525260245ffd5b5050507f60c32c78baeed87b47940bf4b5a12db273eb09931f25b9b08d2ce4a8e04ad8359192506120d0906120bc565b60405163ec5e1c1160e01b8152600490fd5b604051630c6ab20360e01b8152600490fd5b6001600160a01b03165f8181527fb7db2dd08fcb62d0c9e08c51941cae53c267786a0b75803fb7960902fc8ef97d60205260409020545f805160206126748339815191529060ff166121d3575f805260205260405f20815f5260205260405f20600160ff1982541617905533905f5f805160206126548339815191528180a4600190565b50505f90565b6001600160a01b03165f8181527f75442b0a96088b5456bc4ed01394c96a4feec0f883c9494257d76b96ab1c9b6b60205260409020547f65d7a28e3265b37a6474929f336521b332c1681b933f6cb9f3376673440d862a91905f805160206126748339815191529060ff1661227f57825f5260205260405f20815f5260205260405f20600160ff1982541617905533915f805160206126548339815191525f80a4600190565b5050505f90565b6001600160a01b03165f8181527fc157d408da348139bf70cfd0baf22a48779057d99f6df6b2706ae8add81bdb7360205260409020547f725346f2674e7a610d0ae6e19dd9b45a4380674de24b5ed8476a591399281da391905f805160206126748339815191529060ff1661227f57825f5260205260405f20815f5260205260405f20600160ff1982541617905533915f805160206126548339815191525f80a4600190565b90815f525f805160206126748339815191528060205260405f209160018060a01b031691825f5260205260ff60405f205416155f1461227f57825f5260205260405f20815f5260205260405f20600160ff1982541617905533915f805160206126548339815191525f80a4600190565b90815f525f805160206126748339815191528060205260405f209160018060a01b031691825f5260205260ff60405f2054165f1461227f57825f5260205260405f20815f5260205260405f2060ff19815416905533917ff6391f5c32d9c69d2a47ea670b442974b53935d1edc7fd64eb21e047a839171b5f80a4600190565b60048114611fcd576004549067ffffffffffffffff82116119ed57600160401b82116119ed5780548282558083106124aa575b505f908152602081207f8a35acfbc15ff81a39ae7d344fd709f28e8600b4aa8c65c6b64bfe7fe36bd19b80545b848410612489575050505050565b600191820180546001600160a01b039092168486015593909101929061247b565b6124c090825f528360205f209182019101611ce3565b5f61244e565b6005545f5260066020526124e2600260405f204281550161241b565b6005547f36951500c298601989df927e42582ff8aaacc5268517101d48fd8e414c4d2c5160405142815260406020820152806120d060408201611c32565b60ff5f541660048110156118f857801561256e576001811461255f576002146125515769152d02c7e14af680000090565b69152d02c7e14af680000090565b50690a968163f0a57b40000090565b505f90565b60ff5f541660048110156118f85780156125a957600181146125a25760021461259c5760095490565b60085490565b5060075490565b50600190565b60ff7ff0c57e16840df040f15088dc2f81fe391c3923bec73e23a9662efc9c229c6a005460401c16156125de57565b604051631afcd79f60e31b8152600490fd5b90612617575080511561260557805190602001fd5b604051630a12f52160e11b8152600490fd5b8151158061264a575b612628575090565b604051639996b31560e01b81526001600160a01b039091166004820152602490fd5b50803b1561262056fe2f8788117e7eff1d82e926ec794901d17c78024a50270940304540a733656f0d02dd7bc7dec4dceedda775e58dd541e08a116c6c53815c0bd028192f7b626800cd5ed15c6e187e77e9aee88184c21f4f2182ab5827cb3b7e07fbedcd63f03300a2646970667358221220d99163a10392de890bf21610aa12cfb748da76a91bd32c877647f745294895d564736f6c63430008190033","linkReferences":{}},"methodIdentifiers":{"BASIS_POINTS()":"e1f1c4a7","DEFAULT_ADMIN_ROLE()":"a217fddf","EPOCH_DURATION()":"a70b9f0c","MIN_STAKE_DECENTRALIZED()":"31d0d484","MIN_STAKE_DUAL()":"6ffcb8a1","MIN_STAKE_GENESIS()":"cb4d3303","MIN_STAKE_MULTI()":"0f29f019","MIN_UPTIME_PERCENTAGE()":"b3b9ecbe","PAUSER_ROLE()":"e63ab1e9","PHASE_1_DURATION()":"6839c1bd","PHASE_2_DURATION()":"938ece89","PHASE_3_DURATION()":"5539aa86","SEQUENCER_MANAGER_ROLE()":"b75b846c","UPGRADE_INTERFACE_VERSION()":"ad3cb1cc","activeSequencers(uint256)":"c637ef75","blocksPerRotation()":"6e90f832","currentEpoch()":"76671808","currentLeaderIndex()":"b967fccb","currentPhase()":"055ad42e","epochs(uint256)":"c6b61e4c","genesisTimestamp()":"cacf66ab","getActiveSequencers()":"f4eba842","getActiveSequencersCount()":"45a4f506","getCurrentLeader()":"e868ba70","getEpochInfo(uint256)":"135022c2","getPhaseRequirements()":"52cbd4e9","getRoleAdmin(bytes32)":"248a9ca3","getSequencerBlocksInEpoch(uint256,address)":"3b8ed6d1","getSequencerInfo(address)":"aa378a7d","grantRole(bytes32,address)":"2f2ff15d","hasRole(bytes32,address)":"91d14854","initialize(address,address)":"485cc955","maxSequencersPhase2()":"b28c0286","maxSequencersPhase3()":"77ec5720","maxSequencersPhase4()":"81f9f32c","pause()":"8456cb59","paused()":"5c975abb","proxiableUUID()":"52d1902d","recordBlockProduced(address)":"15c0b62a","registerSequencer(address,uint256,string)":"e27a0b45","removeSequencer(address,string)":"24d1a800","renounceRole(bytes32,address)":"36568abe","revokeRole(bytes32,address)":"d547741f","sequencerList(uint256)":"be228f92","sequencers(address)":"1c7a07ee","slashSequencer(address,uint256,string)":"a0c8c095","startNewEpoch()":"3aab0a62","supportsInterface(bytes4)":"01ffc9a7","transitionPhase()":"8aa64870","unpause()":"3f4ba83a","updateSequencerUptime(address,uint256)":"d1c6ed55","upgradeToAndCall(address,bytes)":"4f1ef286"},"id":179}