{"abi":[{"type":"constructor","inputs":[],"stateMutability":"nonpayable"},{"type":"function","name":"BASIS_POINTS","inputs":[],"outputs":[{"name":"","type":"uint256","internalType":"uint256"}],"stateMutability":"view"},{"type":"function","name":"DEFAULT_ADMIN_ROLE","inputs":[],"outputs":[{"name":"","type":"bytes32","internalType":"bytes32"}],"stateMutability":"view"},{"type":"function","name":"EPOCH_DURATION","inputs":[],"outputs":[{"name":"","type":"uint256","internalType":"uint256"}],"stateMutability":"view"},{"type":"function","name":"MIN_STAKE_DECENTRALIZED","inputs":[],"outputs":[{"name":"","type":"uint256","internalType":"uint256"}],"stateMutability":"view"},{"type":"function","name":"MIN_STAKE_DUAL","inputs":[],"outputs":[{"name":"","type":"uint256","internalType":"uint256"}],"stateMutability":"view"},{"type":"function","name":"MIN_STAKE_GENESIS","inputs":[],"outputs":[{"name":"","type":"uint256","internalType":"uint256"}],"stateMutability":"view"},{"type":"function","name":"MIN_STAKE_MULTI","inputs":[],"outputs":[{"name":"","type":"uint256","internalType":"uint256"}],"stateMutability":"view"},{"type":"function","name":"MIN_UPTIME_PERCENTAGE","inputs":[],"outputs":[{"name":"","type":"uint256","internalType":"uint256"}],"stateMutability":"view"},{"type":"function","name":"PAUSER_ROLE","inputs":[],"outputs":[{"name":"","type":"bytes32","internalType":"bytes32"}],"stateMutability":"view"},{"type":"function","name":"PHASE_1_DURATION","inputs":[],"outputs":[{"name":"","type":"uint256","internalType":"uint256"}],"stateMutability":"view"},{"type":"function","name":"PHASE_2_DURATION","inputs":[],"outputs":[{"name":"","type":"uint256","internalType":"uint256"}],"stateMutability":"view"},{"type":"function","name":"PHASE_3_DURATION","inputs":[],"outputs":[{"name":"","type":"uint256","internalType":"uint256"}],"stateMutability":"view"},{"type":"function","name":"SEQUENCER_MANAGER_ROLE","inputs":[],"outputs":[{"name":"","type":"bytes32","internalType":"bytes32"}],"stateMutability":"view"},{"type":"function","name":"UPGRADE_INTERFACE_VERSION","inputs":[],"outputs":[{"name":"","type":"string","internalType":"string"}],"stateMutability":"view"},{"type":"function","name":"activeSequencers","inputs":[{"name":"","type":"uint256","internalType":"uint256"}],"outputs":[{"name":"","type":"address","internalType":"address"}],"stateMutability":"view"},{"type":"function","name":"blocksPerRotation","inputs":[],"outputs":[{"name":"","type":"uint256","internalType":"uint256"}],"stateMutability":"view"},{"type":"function","name":"currentEpoch","inputs":[],"outputs":[{"name":"","type":"uint256","internalType":"uint256"}],"stateMutability":"view"},{"type":"function","name":"currentLeaderIndex","inputs":[],"outputs":[{"name":"","type":"uint256","internalType":"uint256"}],"stateMutability":"view"},{"type":"function","name":"currentPhase","inputs":[],"outputs":[{"name":"","type":"uint8","internalType":"enum AndeSequencerRegistry.Phase"}],"stateMutability":"view"},{"type":"function","name":"epochs","inputs":[{"name":"","type":"uint256","internalType":"uint256"}],"outputs":[{"name":"startTime","type":"uint256","internalType":"uint256"},{"name":"endTime","type":"uint256","internalType":"uint256"}],"stateMutability":"view"},{"type":"function","name":"genesisTimestamp","inputs":[],"outputs":[{"name":"","type":"uint256","internalType":"uint256"}],"stateMutability":"view"},{"type":"function","name":"getActiveSequencers","inputs":[],"outputs":[{"name":"","type":"address[]","internalType":"address[]"}],"stateMutability":"view"},{"type":"function","name":"getActiveSequencersCount","inputs":[],"outputs":[{"name":"","type":"uint256","internalType":"uint256"}],"stateMutability":"view"},{"type":"function","name":"getCurrentLeader","inputs":[],"outputs":[{"name":"","type":"address","internalType":"address"}],"stateMutability":"view"},{"type":"function","name":"getEpochInfo","inputs":[{"name":"epoch","type":"uint256","internalType":"uint256"}],"outputs":[{"name":"startTime","type":"uint256","internalType":"uint256"},{"name":"endTime","type":"uint256","internalType":"uint256"},{"name":"sequencersList","type":"address[]","internalType":"address[]"}],"stateMutability":"view"},{"type":"function","name":"getPhaseRequirements","inputs":[],"outputs":[{"name":"minStake","type":"uint256","internalType":"uint256"},{"name":"maxSequencers","type":"uint256","internalType":"uint256"},{"name":"minUptime","type":"uint256","internalType":"uint256"}],"stateMutability":"view"},{"type":"function","name":"getRoleAdmin","inputs":[{"name":"role","type":"bytes32","internalType":"bytes32"}],"outputs":[{"name":"","type":"bytes32","internalType":"bytes32"}],"stateMutability":"view"},{"type":"function","name":"getSequencerBlocksInEpoch","inputs":[{"name":"epoch","type":"uint256","internalType":"uint256"},{"name":"sequencer","type":"address","internalType":"address"}],"outputs":[{"name":"","type":"uint256","internalType":"uint256"}],"stateMutability":"view"},{"type":"function","name":"getSequencerInfo","inputs":[{"name":"sequencer","type":"address","internalType":"address"}],"outputs":[{"name":"","type":"tuple","internalType":"struct AndeSequencerRegistry.SequencerInfo","components":[{"name":"sequencer","type":"address","internalType":"address"},{"name":"stakedAmount","type":"uint256","internalType":"uint256"},{"name":"registeredAt","type":"uint256","internalType":"uint256"},{"name":"lastBlockProduced","type":"uint256","internalType":"uint256"},{"name":"totalBlocksProduced","type":"uint256","internalType":"uint256"},{"name":"uptime","type":"uint256","internalType":"uint256"},{"name":"isActive","type":"bool","internalType":"bool"},{"name":"isPermanent","type":"bool","internalType":"bool"},{"name":"endpoint","type":"string","internalType":"string"}]}],"stateMutability":"view"},{"type":"function","name":"grantRole","inputs":[{"name":"role","type":"bytes32","internalType":"bytes32"},{"name":"account","type":"address","internalType":"address"}],"outputs":[],"stateMutability":"nonpayable"},{"type":"function","name":"hasRole","inputs":[{"name":"role","type":"bytes32","internalType":"bytes32"},{"name":"account","type":"address","internalType":"address"}],"outputs":[{"name":"","type":"bool","internalType":"bool"}],"stateMutability":"view"},{"type":"function","name":"initialize","inputs":[{"name":"defaultAdmin","type":"address","internalType":"address"},{"name":"foundation","type":"address","internalType":"address"}],"outputs":[],"stateMutability":"nonpayable"},{"type":"function","name":"maxSequencersPhase2","inputs":[],"outputs":[{"name":"","type":"uint256","internalType":"uint256"}],"stateMutability":"view"},{"type":"function","name":"maxSequencersPhase3","inputs":[],"outputs":[{"name":"","type":"uint256","internalType":"uint256"}],"stateMutability":"view"},{"type":"function","name":"maxSequencersPhase4","inputs":[],"outputs":[{"name":"","type":"uint256","internalType":"uint256"}],"stateMutability":"view"},{"type":"function","name":"pause","inputs":[],"outputs":[],"stateMutability":"nonpayable"},{"type":"function","name":"paused","inputs":[],"outputs":[{"name":"","type":"bool","internalType":"bool"}],"stateMutability":"view"},{"type":"function","name":"proxiableUUID","inputs":[],"outputs":[{"name":"","type":"bytes32","internalType":"bytes32"}],"stateMutability":"view"},{"type":"function","name":"recordBlockProduced","inputs":[{"name":"sequencer","type":"address","internalType":"address"}],"outputs":[],"stateMutability":"nonpayable"},{"type":"function","name":"registerSequencer","inputs":[{"name":"sequencer","type":"address","internalType":"address"},{"name":"stakedAmount","type":"uint256","internalType":"uint256"},{"name":"endpoint","type":"string","internalType":"string"}],"outputs":[],"stateMutability":"nonpayable"},{"type":"function","name":"removeSequencer","inputs":[{"name":"sequencer","type":"address","internalType":"address"},{"name":"reason","type":"string","internalType":"string"}],"outputs":[],"stateMutability":"nonpayable"},{"type":"function","name":"renounceRole","inputs":[{"name":"role","type":"bytes32","internalType":"bytes32"},{"name":"callerConfirmation","type":"address","internalType":"address"}],"outputs":[],"stateMutability":"nonpayable"},{"type":"function","name":"revokeRole","inputs":[{"name":"role","type":"bytes32","internalType":"bytes32"},{"name":"account","type":"address","internalType":"address"}],"outputs":[],"stateMutability":"nonpayable"},{"type":"function","name":"sequencerList","inputs":[{"name":"","type":"uint256","internalType":"uint256"}],"outputs":[{"name":"","type":"address","internalType":"address"}],"stateMutability":"view"},{"type":"function","name":"sequencers","inputs":[{"name":"","type":"address","internalType":"address"}],"outputs":[{"name":"sequencer","type":"address","internalType":"address"},{"name":"stakedAmount","type":"uint256","internalType":"uint256"},{"name":"registeredAt","type":"uint256","internalType":"uint256"},{"name":"lastBlockProduced","type":"uint256","internalType":"uint256"},{"name":"totalBlocksProduced","type":"uint256","internalType":"uint256"},{"name":"uptime","type":"uint256","internalType":"uint256"},{"name":"isActive","type":"bool","internalType":"bool"},{"name":"isPermanent","type":"bool","internalType":"bool"},{"name":"endpoint","type":"string","internalType":"string"}],"stateMutability":"view"},{"type":"function","name":"slashSequencer","inputs":[{"name":"sequencer","type":"address","internalType":"address"},{"name":"amount","type":"uint256","internalType":"uint256"},{"name":"reason","type":"string","internalType":"string"}],"outputs":[],"stateMutability":"nonpayable"},{"type":"function","name":"startNewEpoch","inputs":[],"outputs":[],"stateMutability":"nonpayable"},{"type":"function","name":"supportsInterface","inputs":[{"name":"interfaceId","type":"bytes4","internalType":"bytes4"}],"outputs":[{"name":"","type":"bool","internalType":"bool"}],"stateMutability":"view"},{"type":"function","name":"transitionPhase","inputs":[],"outputs":[],"stateMutability":"nonpayable"},{"type":"function","name":"unpause","inputs":[],"outputs":[],"stateMutability":"nonpayable"},{"type":"function","name":"updateSequencerUptime","inputs":[{"name":"sequencer","type":"address","internalType":"address"},{"name":"uptimePercentage","type":"uint256","internalType":"uint256"}],"outputs":[],"stateMutability":"nonpayable"},{"type":"function","name":"upgradeToAndCall","inputs":[{"name":"newImplementation","type":"address","internalType":"address"},{"name":"data","type":"bytes","internalType":"bytes"}],"outputs":[],"stateMutability":"payable"},{"type":"event","name":"BlockProduced","inputs":[{"name":"sequencer","type":"address","indexed":true,"internalType":"address"},{"name":"blockNumber","type":"uint256","indexed":false,"internalType":"uint256"},{"name":"timestamp","type":"uint256","indexed":false,"internalType":"uint256"}],"anonymous":false},{"type":"event","name":"EpochEnded","inputs":[{"name":"epoch","type":"uint256","indexed":true,"internalType":"uint256"},{"name":"endTime","type":"uint256","indexed":false,"internalType":"uint256"}],"anonymous":false},{"type":"event","name":"EpochStarted","inputs":[{"name":"epoch","type":"uint256","indexed":true,"internalType":"uint256"},{"name":"startTime","type":"uint256","indexed":false,"internalType":"uint256"},{"name":"sequencers","type":"address[]","indexed":false,"internalType":"address[]"}],"anonymous":false},{"type":"event","name":"Initialized","inputs":[{"name":"version","type":"uint64","indexed":false,"internalType":"uint64"}],"anonymous":false},{"type":"event","name":"LeaderRotated","inputs":[{"name":"oldLeader","type":"address","indexed":true,"internalType":"address"},{"name":"newLeader","type":"address","indexed":true,"internalType":"address"},{"name":"blockNumber","type":"uint256","indexed":false,"internalType":"uint256"}],"anonymous":false},{"type":"event","name":"Paused","inputs":[{"name":"account","type":"address","indexed":false,"internalType":"address"}],"anonymous":false},{"type":"event","name":"PhaseTransitioned","inputs":[{"name":"oldPhase","type":"uint8","indexed":false,"internalType":"enum AndeSequencerRegistry.Phase"},{"name":"newPhase","type":"uint8","indexed":false,"internalType":"enum AndeSequencerRegistry.Phase"},{"name":"timestamp","type":"uint256","indexed":false,"internalType":"uint256"}],"anonymous":false},{"type":"event","name":"RoleAdminChanged","inputs":[{"name":"role","type":"bytes32","indexed":true,"internalType":"bytes32"},{"name":"previousAdminRole","type":"bytes32","indexed":true,"internalType":"bytes32"},{"name":"newAdminRole","type":"bytes32","indexed":true,"internalType":"bytes32"}],"anonymous":false},{"type":"event","name":"RoleGranted","inputs":[{"name":"role","type":"bytes32","indexed":true,"internalType":"bytes32"},{"name":"account","type":"address","indexed":true,"internalType":"address"},{"name":"sender","type":"address","indexed":true,"internalType":"address"}],"anonymous":false},{"type":"event","name":"RoleRevoked","inputs":[{"name":"role","type":"bytes32","indexed":true,"internalType":"bytes32"},{"name":"account","type":"address","indexed":true,"internalType":"address"},{"name":"sender","type":"address","indexed":true,"internalType":"address"}],"anonymous":false},{"type":"event","name":"SequencerRegistered","inputs":[{"name":"sequencer","type":"address","indexed":true,"internalType":"address"},{"name":"stakedAmount","type":"uint256","indexed":false,"internalType":"uint256"},{"name":"isPermanent","type":"bool","indexed":false,"internalType":"bool"}],"anonymous":false},{"type":"event","name":"SequencerRemoved","inputs":[{"name":"sequencer","type":"address","indexed":true,"internalType":"address"},{"name":"reason","type":"string","indexed":false,"internalType":"string"}],"anonymous":false},{"type":"event","name":"SequencerSlashed","inputs":[{"name":"sequencer","type":"address","indexed":true,"internalType":"address"},{"name":"amount","type":"uint256","indexed":false,"internalType":"uint256"},{"name":"reason","type":"string","indexed":false,"internalType":"string"}],"anonymous":false},{"type":"event","name":"Unpaused","inputs":[{"name":"account","type":"address","indexed":false,"internalType":"address"}],"anonymous":false},{"type":"event","name":"Upgraded","inputs":[{"name":"implementation","type":"address","indexed":true,"internalType":"address"}],"anonymous":false},{"type":"error","name":"AccessControlBadConfirmation","inputs":[]},{"type":"error","name":"AccessControlUnauthorizedAccount","inputs":[{"name":"account","type":"address","internalType":"address"},{"name":"neededRole","type":"bytes32","internalType":"bytes32"}]},{"type":"error","name":"AddressEmptyCode","inputs":[{"name":"target","type":"address","internalType":"address"}]},{"type":"error","name":"BelowMinUptime","inputs":[]},{"type":"error","name":"CannotRemovePermanentSequencer","inputs":[]},{"type":"error","name":"ERC1967InvalidImplementation","inputs":[{"name":"implementation","type":"address","internalType":"address"}]},{"type":"error","name":"ERC1967NonPayable","inputs":[]},{"type":"error","name":"EnforcedPause","inputs":[]},{"type":"error","name":"EpochNotEnded","inputs":[]},{"type":"error","name":"ExpectedPause","inputs":[]},{"type":"error","name":"FailedInnerCall","inputs":[]},{"type":"error","name":"InsufficientStake","inputs":[]},{"type":"error","name":"InvalidInitialization","inputs":[]},{"type":"error","name":"InvalidPhase","inputs":[]},{"type":"error","name":"MaxSequencersReached","inputs":[]},{"type":"error","name":"NotActiveSequencer","inputs":[]},{"type":"error","name":"NotInitializing","inputs":[]},{"type":"error","name":"ReentrancyGuardReentrantCall","inputs":[]},{"type":"error","name":"SequencerAlreadyRegistered","inputs":[]},{"type":"error","name":"SequencerNotFound","inputs":[]},{"type":"error","name":"UUPSUnauthorizedCallContext","inputs":[]},{"type":"error","name":"UUPSUnsupportedProxiableUUID","inputs":[{"name":"slot","type":"bytes32","internalType":"bytes32"}]}],"bytecode":{"object":"0x60a080604052346100e057306080526002600755600760085560646009556064600b557ff0c57e16840df040f15088dc2f81fe391c3923bec73e23a9662efc9c229c6a009081549060ff8260401c166100d157506001600160401b036002600160401b03198282160161008c575b60405161303b90816100e5823960805181818161110501526112110152f35b6001600160401b031990911681179091556040519081527fc7f505b2f371ae2175ee4913f4499e1f2633a7b5936321eed1cdaeb6115181d290602090a15f808061006d565b63f92ee8a960e01b8152600490fd5b5f80fdfe608080604052600480361015610013575f80fd5b5f3560e01c91826301ffc9a714611e0f57508163055ad42e14611de95781630f29f01914611a4f578163135022c214611d4757816315c0b62a14611c095781631c7a07ee14611b4d578163248a9ca314611b0357816324d1a80014611aaf5781632f2ff15d14611a5457816331d0d48414611a4f57816336568abe146119e65781633aab0a621461190e5781633b8ed6d1146118ba5781633f4ba83a1461181957816345a4f506146117fd578163485cc955146114c15781634f1ef286146111b457816352cbd4e91461117d57816352d1902d146110de5781635539aa86146110c05781635c975abb1461107f5781636839c1bd14610d745781636e90f832146110625781636ffcb8a11461103e578163766718081461102157816377ec57201461100457816381f9f32c14610fe75781638456cb5914610f6f5781638aa6487014610dee57816391d1485414610d79578163938ece8914610d74578163a0c8c09514610b80578163a217fddf146107d8578163a70b9f0c14610b63578163aa378a7d146109dd578163ad3cb1cc14610980578163b28c028614610963578163b3b9ecbe14610947578163b75b846c1461090d578163b967fccb146108f0578163be228f921461088c578163c637ef7514610840578163c6b61e4c1461080f578163cacf66ab146107f2578163cb4d3303146107d8578163d1c6ed55146106f2578163d547741f14610695578163e1f1c4a714610679578163e27a0b451461031257508063e63ab1e9146102d8578063e868ba70146102a05763f4eba8421461025a575f80fd5b3461029c575f60031936011261029c576102986040516102848161027d816122e8565b0382612050565b604051918291602083526020830190611f0a565b0390f35b5f80fd5b3461029c575f60031936011261029c5760206102ba6124eb565b73ffffffffffffffffffffffffffffffffffffffff60405191168152f35b3461029c575f60031936011261029c5760206040517f65d7a28e3265b37a6474929f336521b332c1681b933f6cb9f3376673440d862a8152f35b3461029c5761032036612232565b9192909361032c612522565b6103346126be565b73ffffffffffffffffffffffffffffffffffffffff9283831695865f526020946002865260405f2054166106505761036a612e7d565b861061062757610378612ed0565b835410156105fe57865f526002855260405f2090877fffffffffffffffffffffffff00000000000000000000000000000000000000008354161782556007600192888482015542600282015560068101847fffffffffffffffffffffffffffffffffffffffffffffffffffffffffffff0000825416179055019367ffffffffffffffff84116105d2575061040c8454611f99565b601f8111610599575b505f90601f84116001146104d057938361049a9381604099967f1db4aebd1bd4b54bd50b94801b33a2b303dd18917dc3dc787d96459f8bcc7d709b99955f998a936104a5575b50507fffffffffffffffffffffffffffffffffffffffffffffffffffffffffffffffff91921b9260031b1c19161790555b6104958161240d565b612497565b8351928352820152a2005b013591507fffffffffffffffffffffffffffffffffffffffffffffffffffffffffffffffff8e61045b565b7fffffffffffffffffffffffffffffffffffffffffffffffffffffffffffffffe08493941691855f52875f20925f5b8181106105845750937f1db4aebd1bd4b54bd50b94801b33a2b303dd18917dc3dc787d96459f8bcc7d709997935f979360409a97938361049a981061054c575b505050811b01905561048c565b7fffffffffffffffffffffffffffffffffffffffffffffffffffffffffffffffff60f88560031b161c199101351690558b808061053f565b838301358555938601939189019189016104ff565b6105c290855f52875f20601f860160051c8101918987106105c8575b601f0160051c01906123f7565b88610415565b90915081906105b5565b6041907f4e487b71000000000000000000000000000000000000000000000000000000005f525260245ffd5b826040517fb0cc2f12000000000000000000000000000000000000000000000000000000008152fd5b826040517ff1bc94d2000000000000000000000000000000000000000000000000000000008152fd5b826040517f9a30fa67000000000000000000000000000000000000000000000000000000008152fd5b3461029c575f60031936011261029c5760206040516127108152f35b3461029c57604060031936011261029c576106f090356106b3611f76565b90805f527f02dd7bc7dec4dceedda775e58dd541e08a116c6c53815c0bd028192f7b6268006020526106eb600160405f20015461267d565b612cc8565b005b3461029c57604060031936011261029c5761070b611f53565b90602435610717612522565b73ffffffffffffffffffffffffffffffffffffffff918284165f52600260205260405f2092835416156107b05750806126ac91600584015510908161079d575b5061075e57005b6040516106f09161076e82612034565b601482527f42656c6f77206d696e696d756d20757074696d6500000000000000000000000060208301526127a4565b60ff91506006015460081c161582610757565b6040517f0c6ab203000000000000000000000000000000000000000000000000000000008152fd5b3461029c575f60031936011261029c5760206040515f8152f35b3461029c575f60031936011261029c576020600154604051908152f35b3461029c57602060031936011261029c57355f5260066020526040805f206001815491015482519182526020820152f35b3461029c57602060031936011261029c578035905481101561029c5773ffffffffffffffffffffffffffffffffffffffff61087c602092612286565b9190546040519260031b1c168152f35b3461029c57602060031936011261029c573560035481101561029c5773ffffffffffffffffffffffffffffffffffffffff60209160035f527fc2575a0e9e593c00f959f8c92f12db2869c3395a3b0502d05e2516446f71f85b015416604051908152f35b3461029c575f60031936011261029c576020600a54604051908152f35b3461029c575f60031936011261029c5760206040517f725346f2674e7a610d0ae6e19dd9b45a4380674de24b5ed8476a591399281da38152f35b3461029c575f60031936011261029c5760206040516126ac8152f35b3461029c575f60031936011261029c576020600754604051908152f35b3461029c575f60031936011261029c5761029860405161099f81612034565b600581527f352e302e300000000000000000000000000000000000000000000000000000006020820152604051918291602083526020830190612134565b3461029c57602060031936011261029c5760c0906102986109fc611f53565b73ffffffffffffffffffffffffffffffffffffffff60405191610a1e83611fea565b5f83525f60208401525f60408401525f60608401525f60808401525f60a08401525f868401525f60e0840152606061010080940152165f52600260205260405f209060405193610a6d85611fea565b73ffffffffffffffffffffffffffffffffffffffff83541685526001830154602086015260028301546040860152600383015460608601528201546080850152600582015460a0850152610ae1600760068401549360ff851615158888015260ff60e088019560081c161515855201612091565b918185019283526040519586956020875273ffffffffffffffffffffffffffffffffffffffff8151166020880152602081015160408801526040810151606088015260608101516080880152608081015160a088015260a0810151828801520151151560e0860152511515908401525161012080840152610140830190612134565b3461029c575f60031936011261029c5760206040516276a7008152f35b3461029c57610b8e36612232565b90610b97612522565b73ffffffffffffffffffffffffffffffffffffffff9283851691825f52600260205260405f209485541615610d4b5760068501549460ff861615610d22577f54feefbe9d950d84d055909aadbe66ae8707aa598d83daaca3756384a47a3456927fffffffffffffffffffffffffffffffffffffffffffffffffffffffffffffffe0601f60016060940197610c2c848a546123ea565b80995580604051968795865260406020870152816040870152868601375f85828601015201168101030190a2610c60612e7d565b119081610d13575b50610c6f57005b604051906060820182811067ffffffffffffffff821117610ce7576106f09350604052602182527f496e73756666696369656e74207374616b6520616674657220736c617368696e60208301527f670000000000000000000000000000000000000000000000000000000000000060408301526127a4565b6041847f4e487b71000000000000000000000000000000000000000000000000000000005f525260245ffd5b60ff915060081c161583610c68565b876040517ffe3ed555000000000000000000000000000000000000000000000000000000008152fd5b866040517f0c6ab203000000000000000000000000000000000000000000000000000000008152fd5b612215565b3461029c57604060031936011261029c57610d92611f76565b90355f527f02dd7bc7dec4dceedda775e58dd541e08a116c6c53815c0bd028192f7b62680060205273ffffffffffffffffffffffffffffffffffffffff60405f2091165f52602052602060ff60405f2054166040519015158152f35b3461029c575f60031936011261029c57610e0661260f565b610e12600154426123ea565b905f5460ff8116928383811015610f4357801580610f36575b15610ebf5750506001915b80831015610e93577fefa1fea20cc2d4af8027fccfa5980c7e135bc6ef13b99c6fea04c7ff3d7a39d0606085610e8a868660ff1960ff83169116175f55610e806040518094611eac565b6020830190611eac565b426040820152a1005b6021907f4e487b71000000000000000000000000000000000000000000000000000000005f525260245ffd5b6001811480610f28575b15610ed8575050600291610e36565b6002149081610f19575b5015610ef057600391610e36565b506040517f9a36fd9c000000000000000000000000000000000000000000000000000000008152fd5b6303bbcf809150101584610ee2565b506301da9c00821015610ec9565b5062ed4e00821015610e2b565b6021847f4e487b71000000000000000000000000000000000000000000000000000000005f525260245ffd5b3461029c575f60031936011261029c57610f876125b4565b610f8f6126be565b7fcd5ed15c6e187e77e9aee88184c21f4f2182ab5827cb3b7e07fbedcd63f03300600160ff198254161790557f62e78cea01bee320cd4e420270b5ea74000d11b0c9f74754ebdbfc544b05a2586020604051338152a1005b3461029c575f60031936011261029c576020600954604051908152f35b3461029c575f60031936011261029c576020600854604051908152f35b3461029c575f60031936011261029c576020600554604051908152f35b3461029c575f60031936011261029c576020604051690a968163f0a57b4000008152f35b3461029c575f60031936011261029c576020600b54604051908152f35b3461029c575f60031936011261029c57602060ff7fcd5ed15c6e187e77e9aee88184c21f4f2182ab5827cb3b7e07fbedcd63f0330054166040519015158152f35b3461029c575f60031936011261029c5760206040516301e133808152f35b3461029c575f60031936011261029c5773ffffffffffffffffffffffffffffffffffffffff7f00000000000000000000000000000000000000000000000000000000000000001630036111555760206040517f360894a13ba1a3210667c828492db98dca3e2076cc3735a920a3ca505d382bbc8152f35b6040517fe07c8dba000000000000000000000000000000000000000000000000000000008152fd5b3461029c575f60031936011261029c576060611197612e7d565b61119f612ed0565b60405191825260208201526126ac6040820152f35b604060031936011261029c576111c8611f53565b9060243567ffffffffffffffff811161029c573660238201121561029c576111f990369060248185013591016121df565b73ffffffffffffffffffffffffffffffffffffffff807f000000000000000000000000000000000000000000000000000000000000000016803014908115611493575b5061146a5761124961260f565b831690604051937f52d1902d00000000000000000000000000000000000000000000000000000000855260209081868681875afa5f968161143b575b506112ba5760248585604051917f4c9c8ce3000000000000000000000000000000000000000000000000000000008352820152fd5b84847f360894a13ba1a3210667c828492db98dca3e2076cc3735a920a3ca505d382bbc887fc9f76b5ec45e5cdef99837d7b6d2467235c1df8933c8ca56df5c35afa2c7d444810161140b5750833b156113db57817fffffffffffffffffffffffff0000000000000000000000000000000000000000825416179055604051907fbc7cd75a20ee27fd9adebab32041f755214dbc6bffa90cc0225b39da2e5c2d3b5f80a28451156113aa5750505f8084846106f096519101845af4903d156113a1573d611385816121a5565b906113936040519283612050565b81525f81943d92013e612f65565b60609250612f65565b9250925050346113b657005b7fb398979f000000000000000000000000000000000000000000000000000000008152fd5b60248383604051917f4c9c8ce3000000000000000000000000000000000000000000000000000000008352820152fd5b83602491604051917faa1d49a4000000000000000000000000000000000000000000000000000000008352820152fd5b9096508281813d8311611463575b6114538183612050565b8101031261029c57519587611285565b503d611449565b826040517fe07c8dba000000000000000000000000000000000000000000000000000000008152fd5b9050817f360894a13ba1a3210667c828492db98dca3e2076cc3735a920a3ca505d382bbc541614158561123c565b3461029c57604060031936011261029c576114da611f53565b6114e2611f76565b907ff0c57e16840df040f15088dc2f81fe391c3923bec73e23a9662efc9c229c6a009182549160ff8360401c16159267ffffffffffffffff8116958615806117f6575b600180981490816117ec575b1590816117e3575b506117bb575083867fffffffffffffffffffffffffffffffffffffffffffffffff00000000000000008316178655611786575b50611575612f0c565b61157d612f0c565b611585612f0c565b61158d612f0c565b61160760ff19917fcd5ed15c6e187e77e9aee88184c21f4f2182ab5827cb3b7e07fbedcd63f033008381541690556115c3612f0c565b6115cb612f0c565b867f9b779b17422d0df92223018b32b4d1fa46e071723d6817e2486d003becc55f00556115f7816129ae565b5061160181612a6b565b50612b4b565b504285555f54165f556064600b555f600a55836005556002600755600760085560646009556116d673ffffffffffffffffffffffffffffffffffffffff821691825f5260026020525f600760408220857fffffffffffffffffffffffff00000000000000000000000000000000000000008254161781558289820155426002820155600681016101017fffffffffffffffffffffffffffffffffffffffffffffffffffffffffffff0000825416179055016116c28154611f99565b601f8111611767575b50556104958161240d565b7f1db4aebd1bd4b54bd50b94801b33a2b303dd18917dc3dc787d96459f8bcc7d70604080515f8152866020820152a261170d612e23565b61171357005b7fc7f505b2f371ae2175ee4913f4499e1f2633a7b5936321eed1cdaeb6115181d291817fffffffffffffffffffffffffffffffffffffffffffffff00ffffffffffffffff60209354169055604051908152a1005b8183526020832061178091601f0160051c8101906123f7565b886116cb565b7fffffffffffffffffffffffffffffffffffffffffffffff00000000000000000016680100000000000000011784558561156c565b6040517ff92ee8a9000000000000000000000000000000000000000000000000000000008152fd5b90501588611539565b303b159150611531565b5084611525565b3461029c575f60031936011261029c5760209054604051908152f35b3461029c575f60031936011261029c576118316125b4565b7fcd5ed15c6e187e77e9aee88184c21f4f2182ab5827cb3b7e07fbedcd63f033009081549060ff821615611892575060ff191690557f5db9ee0a495bf2e6ff9c91a7834c1ba4fdd244a5e8aa4e537bd38aeae4b073aa6020604051338152a1005b6040517f8dfc202b000000000000000000000000000000000000000000000000000000008152fd5b3461029c57604060031936011261029c576118d3611f76565b90355f52600660205273ffffffffffffffffffffffffffffffffffffffff600360405f200191165f52602052602060405f2054604051908152f35b3461029c575f60031936011261029c57611926612522565b6005545f52600660205260405f209081546276a70081018091116119ba5742106119925750600142910155611987600554807f27bd0cff633fd950c11ae24bd614aa2d87d938a50d6b65573c3743be7a831f576020604051428152a2612359565b6005556106f0612e23565b6040517f756b7857000000000000000000000000000000000000000000000000000000008152fd5b6011827f4e487b71000000000000000000000000000000000000000000000000000000005f525260245ffd5b3461029c57604060031936011261029c576119ff611f76565b3373ffffffffffffffffffffffffffffffffffffffff821603611a26576106f09135612cc8565b506040517f6697b232000000000000000000000000000000000000000000000000000000008152fd5b611ee6565b3461029c57604060031936011261029c576106f09035611a72611f76565b90805f527f02dd7bc7dec4dceedda775e58dd541e08a116c6c53815c0bd028192f7b626800602052611aaa600160405f20015461267d565b612c24565b3461029c57604060031936011261029c57611ac8611f53565b6024359167ffffffffffffffff831161029c57611aee611afd916106f094369101612177565b611af6612522565b36916121df565b906127a4565b3461029c57602060031936011261029c57355f527f02dd7bc7dec4dceedda775e58dd541e08a116c6c53815c0bd028192f7b6268006020526020600160405f200154604051908152f35b3461029c57602060031936011261029c5773ffffffffffffffffffffffffffffffffffffffff9081611b7d611f53565b165f52600260205261029860405f20928354169160018401549260ff600286015495600381015493810154600582015490611bbf600760068501549401612091565b95604051998a99610120978b5260208b015260408a01526060890152608088015260a0870152818116151560c087015260081c16151560e085015280610100850152830190612134565b3461029c57602060031936011261029c57611c22611f53565b611c2a612522565b611c326126be565b73ffffffffffffffffffffffffffffffffffffffff80911690815f52600260205260405f209081541615611d1e5760ff60068201541615611cf55791611ce6924260038201550190611c848254612359565b82556005545f526006602052600360405f2001815f5260205260405f20611cab8154612359565b90557fec1f874ad03e4e6cc8dd97f4b1facb6f2d61d2707d5c8da5aaba293ff766b97960408051438152426020820152a254600b54906123b3565b15611ced57005b6106f0612713565b826040517ffe3ed555000000000000000000000000000000000000000000000000000000008152fd5b826040517f0c6ab203000000000000000000000000000000000000000000000000000000008152fd5b3461029c576020908160031936011261029c57355f526006815260405f2080549060019060026001820154910160405180938683549283815201925f52865f20915f5b88828210611dc057886102988989611da4828b0383612050565b6040519485948552840152606060408401526060830190611f0a565b845473ffffffffffffffffffffffffffffffffffffffff16865290940193928201928201611d8a565b3461029c575f60031936011261029c57602060ff5f5416611e0d6040518092611eac565bf35b903461029c57602060031936011261029c5735907fffffffff00000000000000000000000000000000000000000000000000000000821680920361029c57817f7965db0b0000000000000000000000000000000000000000000000000000000060209314908115611e82575b5015158152f35b7f01ffc9a70000000000000000000000000000000000000000000000000000000091501483611e7b565b906004821015611eb95752565b7f4e487b71000000000000000000000000000000000000000000000000000000005f52602160045260245ffd5b3461029c575f60031936011261029c57602060405169152d02c7e14af68000008152f35b9081518082526020808093019301915f5b828110611f29575050505090565b835173ffffffffffffffffffffffffffffffffffffffff1685529381019392810192600101611f1b565b6004359073ffffffffffffffffffffffffffffffffffffffff8216820361029c57565b6024359073ffffffffffffffffffffffffffffffffffffffff8216820361029c57565b90600182811c92168015611fe0575b6020831014611fb357565b7f4e487b71000000000000000000000000000000000000000000000000000000005f52602260045260245ffd5b91607f1691611fa8565b610120810190811067ffffffffffffffff82111761200757604052565b7f4e487b71000000000000000000000000000000000000000000000000000000005f52604160045260245ffd5b6040810190811067ffffffffffffffff82111761200757604052565b90601f7fffffffffffffffffffffffffffffffffffffffffffffffffffffffffffffffe0910116810190811067ffffffffffffffff82111761200757604052565b9060405191825f82546120a381611f99565b908184526020946001916001811690815f1461211157506001146120d3575b5050506120d192500383612050565b565b5f90815285812095935091905b8183106120f95750506120d193508201015f80806120c2565b855488840185015294850194879450918301916120e0565b9150506120d195935060ff1991501682840152151560051b8201015f80806120c2565b907fffffffffffffffffffffffffffffffffffffffffffffffffffffffffffffffe0601f602080948051918291828752018686015e5f8582860101520116010190565b9181601f8401121561029c5782359167ffffffffffffffff831161029c576020838186019501011161029c57565b67ffffffffffffffff811161200757601f017fffffffffffffffffffffffffffffffffffffffffffffffffffffffffffffffe01660200190565b9291926121eb826121a5565b916121f96040519384612050565b82948184528183011161029c578281602093845f960137010152565b3461029c575f60031936011261029c57602060405162ed4e008152f35b606060031982011261029c5760043573ffffffffffffffffffffffffffffffffffffffff8116810361029c5791602435916044359067ffffffffffffffff821161029c5761228291600401612177565b9091565b6004548110156122bb5760045f527f8a35acfbc15ff81a39ae7d344fd709f28e8600b4aa8c65c6b64bfe7fe36bd19b01905f90565b7f4e487b71000000000000000000000000000000000000000000000000000000005f52603260045260245ffd5b6004549081815260208091019160045f527f8a35acfbc15ff81a39ae7d344fd709f28e8600b4aa8c65c6b64bfe7fe36bd19b915f905b82821061232c575050505090565b835473ffffffffffffffffffffffffffffffffffffffff168552938401936001938401939091019061231e565b7fffffffffffffffffffffffffffffffffffffffffffffffffffffffffffffffff81146123865760010190565b7f4e487b71000000000000000000000000000000000000000000000000000000005f52601160045260245ffd5b81156123bd570690565b7f4e487b71000000000000000000000000000000000000000000000000000000005f52601260045260245ffd5b9190820391821161238657565b818110612402575050565b5f81556001016123f7565b600354680100000000000000008110156120075760018101806003558110156122bb5773ffffffffffffffffffffffffffffffffffffffff9060035f527fc2575a0e9e593c00f959f8c92f12db2869c3395a3b0502d05e2516446f71f85b0191167fffffffffffffffffffffffff0000000000000000000000000000000000000000825416179055565b6004549068010000000000000000821015612007576124bf8260016120d19401600455612286565b90919073ffffffffffffffffffffffffffffffffffffffff8084549260031b9316831b921b1916179055565b6004541561251e5773ffffffffffffffffffffffffffffffffffffffff612513600a54612286565b90549060031b1c1690565b5f90565b335f9081527fc157d408da348139bf70cfd0baf22a48779057d99f6df6b2706ae8add81bdb7360205260409020547f725346f2674e7a610d0ae6e19dd9b45a4380674de24b5ed8476a591399281da39060ff161561257d5750565b604490604051907fe2517d3f0000000000000000000000000000000000000000000000000000000082523360048301526024820152fd5b335f9081527f75442b0a96088b5456bc4ed01394c96a4feec0f883c9494257d76b96ab1c9b6b60205260409020547f65d7a28e3265b37a6474929f336521b332c1681b933f6cb9f3376673440d862a9060ff161561257d5750565b335f9081527fb7db2dd08fcb62d0c9e08c51941cae53c267786a0b75803fb7960902fc8ef97d602052604090205460ff161561264757565b60446040517fe2517d3f0000000000000000000000000000000000000000000000000000000081523360048201525f6024820152fd5b805f527f02dd7bc7dec4dceedda775e58dd541e08a116c6c53815c0bd028192f7b62680060205260405f20335f5260205260ff60405f2054161561257d5750565b60ff7fcd5ed15c6e187e77e9aee88184c21f4f2182ab5827cb3b7e07fbedcd63f0330054166126e957565b60046040517fd93c0665000000000000000000000000000000000000000000000000000000008152fd5b60045480156127a157600a5461272881612286565b91909273ffffffffffffffffffffffffffffffffffffffff93549360018301809311612386578061278861277f6020947fecdb921cf987e30750a30d8733483f6824406b2098b69cbfe554546316654d0f966123b3565b80600a55612286565b90549060031b1c16946040519443865260031b1c1692a3565b50565b9073ffffffffffffffffffffffffffffffffffffffff80921690815f52600260205260405f20838154161561298457600601805460ff8160081c1661295a5760ff191690555f5b600480548083101561292a579085918561280485612286565b949054600395861b1c161461281e575050506001016127eb565b90927fffffffffffffffffffffffffffffffffffffffffffffffffffffffffffffffff9692949596918281019081116128fe57906124bf8461286261286f94612286565b905490891b1c1691612286565b825480156128d257917f60c32c78baeed87b47940bf4b5a12db273eb09931f25b9b08d2ce4a8e04ad8359593916128cd959301926128ac84612286565b81939154921b1b19169055555b604051918291602083526020830190612134565b0390a2565b6031847f4e487b71000000000000000000000000000000000000000000000000000000005f525260245ffd5b6011857f4e487b71000000000000000000000000000000000000000000000000000000005f525260245ffd5b5050507f60c32c78baeed87b47940bf4b5a12db273eb09931f25b9b08d2ce4a8e04ad8359192506128cd906128b9565b60046040517fec5e1c11000000000000000000000000000000000000000000000000000000008152fd5b60046040517f0c6ab203000000000000000000000000000000000000000000000000000000008152fd5b73ffffffffffffffffffffffffffffffffffffffff165f8181527fb7db2dd08fcb62d0c9e08c51941cae53c267786a0b75803fb7960902fc8ef97d60205260409020547f02dd7bc7dec4dceedda775e58dd541e08a116c6c53815c0bd028192f7b6268009060ff16612a65575f805260205260405f20815f5260205260405f20600160ff1982541617905533905f7f2f8788117e7eff1d82e926ec794901d17c78024a50270940304540a733656f0d8180a4600190565b50505f90565b73ffffffffffffffffffffffffffffffffffffffff165f8181527f75442b0a96088b5456bc4ed01394c96a4feec0f883c9494257d76b96ab1c9b6b60205260409020547f65d7a28e3265b37a6474929f336521b332c1681b933f6cb9f3376673440d862a91907f02dd7bc7dec4dceedda775e58dd541e08a116c6c53815c0bd028192f7b6268009060ff16612b4457825f5260205260405f20815f5260205260405f20600160ff1982541617905533917f2f8788117e7eff1d82e926ec794901d17c78024a50270940304540a733656f0d5f80a4600190565b5050505f90565b73ffffffffffffffffffffffffffffffffffffffff165f8181527fc157d408da348139bf70cfd0baf22a48779057d99f6df6b2706ae8add81bdb7360205260409020547f725346f2674e7a610d0ae6e19dd9b45a4380674de24b5ed8476a591399281da391907f02dd7bc7dec4dceedda775e58dd541e08a116c6c53815c0bd028192f7b6268009060ff16612b4457825f5260205260405f20815f5260205260405f20600160ff1982541617905533917f2f8788117e7eff1d82e926ec794901d17c78024a50270940304540a733656f0d5f80a4600190565b90815f527f02dd7bc7dec4dceedda775e58dd541e08a116c6c53815c0bd028192f7b6268008060205273ffffffffffffffffffffffffffffffffffffffff60405f20921691825f5260205260ff60405f205416155f14612b4457825f5260205260405f20815f5260205260405f20600160ff1982541617905533917f2f8788117e7eff1d82e926ec794901d17c78024a50270940304540a733656f0d5f80a4600190565b90815f527f02dd7bc7dec4dceedda775e58dd541e08a116c6c53815c0bd028192f7b6268008060205273ffffffffffffffffffffffffffffffffffffffff60405f20921691825f5260205260ff60405f2054165f14612b4457825f5260205260405f20815f5260205260405f2060ff19815416905533917ff6391f5c32d9c69d2a47ea670b442974b53935d1edc7fd64eb21e047a839171b5f80a4600190565b600481146127a1576004549067ffffffffffffffff821161200757680100000000000000008211612007578054828255808310612e07575b505f908152602081207f8a35acfbc15ff81a39ae7d344fd709f28e8600b4aa8c65c6b64bfe7fe36bd19b80545b848410612ddb575050505050565b600173ffffffffffffffffffffffffffffffffffffffff81921692019384549281850155019290612dcd565b612e1d90825f528360205f2091820191016123f7565b5f612da0565b6005545f526006602052612e3f600260405f2042815501612d68565b6005547f36951500c298601989df927e42582ff8aaacc5268517101d48fd8e414c4d2c5160405142815260406020820152806128cd604082016122e8565b60ff5f54166004811015611eb9578015612ecb5760018114612ebc57600214612eae5769152d02c7e14af680000090565b69152d02c7e14af680000090565b50690a968163f0a57b40000090565b505f90565b60ff5f54166004811015611eb9578015612f065760018114612eff57600214612ef95760095490565b60085490565b5060075490565b50600190565b60ff7ff0c57e16840df040f15088dc2f81fe391c3923bec73e23a9662efc9c229c6a005460401c1615612f3b57565b60046040517fd7e6bcf8000000000000000000000000000000000000000000000000000000008152fd5b90612fa45750805115612f7a57805190602001fd5b60046040517f1425ea42000000000000000000000000000000000000000000000000000000008152fd5b81511580612ffc575b612fb5575090565b60249073ffffffffffffffffffffffffffffffffffffffff604051917f9996b315000000000000000000000000000000000000000000000000000000008352166004820152fd5b50803b15612fad56fea2646970667358221220f2e65c4b8d7edb7ba5bd6c9cb991bbdc21717228c0c31ac1d74908f6f32f535964736f6c63430008190033","linkReferences":{}},"methodIdentifiers":{"BASIS_POINTS()":"e1f1c4a7","DEFAULT_ADMIN_ROLE()":"a217fddf","EPOCH_DURATION()":"a70b9f0c","MIN_STAKE_DECENTRALIZED()":"31d0d484","MIN_STAKE_DUAL()":"6ffcb8a1","MIN_STAKE_GENESIS()":"cb4d3303","MIN_STAKE_MULTI()":"0f29f019","MIN_UPTIME_PERCENTAGE()":"b3b9ecbe","PAUSER_ROLE()":"e63ab1e9","PHASE_1_DURATION()":"6839c1bd","PHASE_2_DURATION()":"938ece89","PHASE_3_DURATION()":"5539aa86","SEQUENCER_MANAGER_ROLE()":"b75b846c","UPGRADE_INTERFACE_VERSION()":"ad3cb1cc","activeSequencers(uint256)":"c637ef75","blocksPerRotation()":"6e90f832","currentEpoch()":"76671808","currentLeaderIndex()":"b967fccb","currentPhase()":"055ad42e","epochs(uint256)":"c6b61e4c","genesisTimestamp()":"cacf66ab","getActiveSequencers()":"f4eba842","getActiveSequencersCount()":"45a4f506","getCurrentLeader()":"e868ba70","getEpochInfo(uint256)":"135022c2","getPhaseRequirements()":"52cbd4e9","getRoleAdmin(bytes32)":"248a9ca3","getSequencerBlocksInEpoch(uint256,address)":"3b8ed6d1","getSequencerInfo(address)":"aa378a7d","grantRole(bytes32,address)":"2f2ff15d","hasRole(bytes32,address)":"91d14854","initialize(address,address)":"485cc955","maxSequencersPhase2()":"b28c0286","maxSequencersPhase3()":"77ec5720","maxSequencersPhase4()":"81f9f32c","pause()":"8456cb59","paused()":"5c975abb","proxiableUUID()":"52d1902d","recordBlockProduced(address)":"15c0b62a","registerSequencer(address,uint256,string)":"e27a0b45","removeSequencer(address,string)":"24d1a800","renounceRole(bytes32,address)":"36568abe","revokeRole(bytes32,address)":"d547741f","sequencerList(uint256)":"be228f92","sequencers(address)":"1c7a07ee","slashSequencer(address,uint256,string)":"a0c8c095","startNewEpoch()":"3aab0a62","supportsInterface(bytes4)":"01ffc9a7","transitionPhase()":"8aa64870","unpause()":"3f4ba83a","updateSequencerUptime(address,uint256)":"d1c6ed55","upgradeToAndCall(address,bytes)":"4f1ef286"},"id":179}