{"abi":[{"type":"function","name":"BOND_SCALING_FACTOR","inputs":[],"outputs":[{"name":"","type":"uint256","internalType":"uint256"}],"stateMutability":"view"},{"type":"function","name":"MAX_GAME_DEPTH","inputs":[],"outputs":[{"name":"","type":"uint256","internalType":"uint256"}],"stateMutability":"view"},{"type":"function","name":"SPLIT_DEPTH","inputs":[],"outputs":[{"name":"","type":"uint256","internalType":"uint256"}],"stateMutability":"view"},{"type":"function","name":"attack","inputs":[{"name":"parentIndex","type":"uint256","internalType":"uint256"},{"name":"claim","type":"bytes32","internalType":"bytes32"}],"outputs":[],"stateMutability":"payable"},{"type":"function","name":"chessClock","inputs":[],"outputs":[{"name":"duration","type":"uint64","internalType":"uint64"},{"name":"globalDuration","type":"uint64","internalType":"uint64"},{"name":"startTime","type":"uint64","internalType":"uint64"}],"stateMutability":"view"},{"type":"function","name":"claimCount","inputs":[],"outputs":[{"name":"","type":"uint256","internalType":"uint256"}],"stateMutability":"view"},{"type":"function","name":"claimCountered","inputs":[{"name":"","type":"uint256","internalType":"uint256"}],"outputs":[{"name":"","type":"bool","internalType":"bool"}],"stateMutability":"view"},{"type":"function","name":"claims","inputs":[{"name":"","type":"uint256","internalType":"uint256"}],"outputs":[{"name":"parentIndex","type":"uint32","internalType":"uint32"},{"name":"claimant","type":"address","internalType":"address"},{"name":"bond","type":"uint128","internalType":"uint128"},{"name":"claim","type":"bytes32","internalType":"bytes32"},{"name":"position","type":"uint256","internalType":"uint256"},{"name":"clock","type":"uint256","internalType":"uint256"}],"stateMutability":"view"},{"type":"function","name":"createdAt","inputs":[],"outputs":[{"name":"","type":"uint256","internalType":"uint256"}],"stateMutability":"view"},{"type":"function","name":"creator","inputs":[],"outputs":[{"name":"","type":"address","internalType":"address"}],"stateMutability":"view"},{"type":"function","name":"defend","inputs":[{"name":"parentIndex","type":"uint256","internalType":"uint256"},{"name":"claim","type":"bytes32","internalType":"bytes32"}],"outputs":[],"stateMutability":"payable"},{"type":"function","name":"extraData","inputs":[],"outputs":[{"name":"","type":"bytes","internalType":"bytes"}],"stateMutability":"view"},{"type":"function","name":"gameType","inputs":[],"outputs":[{"name":"","type":"uint8","internalType":"uint8"}],"stateMutability":"pure"},{"type":"function","name":"getClaim","inputs":[{"name":"index","type":"uint256","internalType":"uint256"}],"outputs":[{"name":"","type":"tuple","internalType":"struct AndeFaultGame.ClaimData","components":[{"name":"parentIndex","type":"uint32","internalType":"uint32"},{"name":"claimant","type":"address","internalType":"address"},{"name":"bond","type":"uint128","internalType":"uint128"},{"name":"claim","type":"bytes32","internalType":"bytes32"},{"name":"position","type":"uint256","internalType":"uint256"},{"name":"clock","type":"uint256","internalType":"uint256"}]}],"stateMutability":"view"},{"type":"function","name":"initialize","inputs":[{"name":"_rootClaim","type":"bytes32","internalType":"bytes32"},{"name":"_creator","type":"address","internalType":"address"},{"name":"_extraData","type":"bytes","internalType":"bytes"}],"outputs":[],"stateMutability":"payable"},{"type":"function","name":"maxBond","inputs":[],"outputs":[{"name":"","type":"uint256","internalType":"uint256"}],"stateMutability":"view"},{"type":"function","name":"minBond","inputs":[],"outputs":[{"name":"","type":"uint256","internalType":"uint256"}],"stateMutability":"view"},{"type":"function","name":"resolve","inputs":[],"outputs":[],"stateMutability":"nonpayable"},{"type":"function","name":"resolvedAt","inputs":[],"outputs":[{"name":"","type":"uint256","internalType":"uint256"}],"stateMutability":"view"},{"type":"function","name":"resolvedSubGames","inputs":[{"name":"","type":"uint256","internalType":"uint256"}],"outputs":[{"name":"","type":"bool","internalType":"bool"}],"stateMutability":"view"},{"type":"function","name":"rootClaim","inputs":[],"outputs":[{"name":"","type":"bytes32","internalType":"bytes32"}],"stateMutability":"view"},{"type":"function","name":"status","inputs":[],"outputs":[{"name":"","type":"uint8","internalType":"enum IDisputeGame.GameStatus"}],"stateMutability":"view"},{"type":"function","name":"step","inputs":[{"name":"claimIndex","type":"uint256","internalType":"uint256"},{"name":"stateData","type":"bytes","internalType":"bytes"}],"outputs":[],"stateMutability":"nonpayable"},{"type":"event","name":"ClaimAdded","inputs":[{"name":"claimIndex","type":"uint256","indexed":true,"internalType":"uint256"},{"name":"claimant","type":"address","indexed":true,"internalType":"address"},{"name":"claim","type":"bytes32","indexed":false,"internalType":"bytes32"}],"anonymous":false},{"type":"event","name":"GameStatusChanged","inputs":[{"name":"newStatus","type":"uint8","indexed":true,"internalType":"enum IDisputeGame.GameStatus"},{"name":"resolver","type":"address","indexed":true,"internalType":"address"}],"anonymous":false},{"type":"event","name":"Initialized","inputs":[{"name":"version","type":"uint64","indexed":false,"internalType":"uint64"}],"anonymous":false},{"type":"event","name":"Move","inputs":[{"name":"claimIndex","type":"uint256","indexed":true,"internalType":"uint256"},{"name":"claimant","type":"address","indexed":true,"internalType":"address"},{"name":"claim","type":"bytes32","indexed":false,"internalType":"bytes32"}],"anonymous":false},{"type":"event","name":"StepExecuted","inputs":[{"name":"claimIndex","type":"uint256","indexed":true,"internalType":"uint256"},{"name":"preState","type":"bytes32","indexed":false,"internalType":"bytes32"},{"name":"postState","type":"bytes32","indexed":false,"internalType":"bytes32"}],"anonymous":false},{"type":"error","name":"InvalidInitialization","inputs":[]},{"type":"error","name":"NotInitializing","inputs":[]}],"bytecode":{"object":"0x60808060405234601557611718908161001a8239f35b5f80fdfe6080604090808252600480361015610015575f80fd5b5f3560e01c91826302d05d3f14611003575081630761a00414610e2b57816319effeb414610e0f578163200d2ed214610dd257816324185bc614610db75781632810e1d614610c2657816335fef56714610b9b5781634778efe814610b805781634f00650814610b545781635aef244714610a7a5781635d5bc33414610a4e578163609d333414610954578163831518b714610936578163890371b2146109185781638da4d3c9146108fa578163a888c2cd1461087d578163bbdc02db14610863578163bcef3b5514610845578163c55cd0c71461058e578163c8331adf1461019757508063ce6174721461017b578063cf09e0d01461015d5763f0fa912a1461011d575f80fd5b34610159575f366003190112610159576060906006549067ffffffffffffffff81519281811684528181841c16602085015260801c1690820152f35b5f80fd5b5034610159575f366003190112610159576020906003549051908152f35b5034610159575f3660031901126101595760209051612a8d8152f35b90506060366003190112610159576024356001600160a01b03811691908135908390036101595767ffffffffffffffff92604435848111610159576101df903690850161114d565b917ff0c57e16840df040f15088dc2f81fe391c3923bec73e23a9662efc9c229c6a009485549460ff86891c16159482871696871580610587575b6001809914908161057d575b159081610574575b506105645767ffffffffffffffff1981168817895586610545575b50838755600280546001600160a01b0319168617905542600355805183811161053257600590610278825461105a565b601f81116104cf575b50806020601f8211600114610454575f91610449575b505f19600383901b1c191690891b1790555b60ff195f54165f55608081805181010312610159576102ca60208201611234565b916102d68a8301611234565b9060806060840151930151938b51916060830190838210888311176104365750938c6103cf948894827f4cba5c8f37b96a36a16cf6242b93f0ce58209ccc582f35bb38972fb5fb38699c9a60209a965f9d9a835216968783528084168b8401524216910152846fffffffffffffffff00000000000000006006549267ffffffffffffffff60801b4260801b16941b169167ffffffffffffffff60c01b161717176006558015158814610427575b600a558015158714610417575b600b558a519061039f82611092565b63ffffffff825287858301526001600160801b0334168c83015283606083015289608083015260a0820152611249565b8851908152a36103db57005b7fc7f505b2f371ae2175ee4913f4499e1f2633a7b5936321eed1cdaeb6115181d29260209268ff000000000000000019815416905551908152a1005b5068056bc75e2d63100000610390565b5067016345785d8a0000610383565b604190634e487b7160e01b5f525260245ffd5b90508301515f610297565b8a9250601f19821690845f527f036b6384b5eca791c62761152d0c79bb0604c104a5fb6f4eb0703f3154bb3db0915f5b8181106104b75750831161049f575b5050811b0190556102a9565b8501515f1960f88460031b161c191690555f80610493565b8783015184558d959093019260209283019201610484565b825f527f036b6384b5eca791c62761152d0c79bb0604c104a5fb6f4eb0703f3154bb3db0601f8301841c81019160208410610528575b601f01841c01908a905b82811061051d575050610281565b5f8155018a9061050f565b9091508190610505565b604183634e487b7160e01b5f525260245ffd5b68ffffffffffffffffff1916680100000000000000011788555f610248565b895163f92ee8a960e01b81528390fd5b9050155f61022d565b303b159150610225565b5086610219565b905061059936611044565b929060ff5f54166003811015610832576105b39015611193565b6007548110156107f857600354926105d967ffffffffffffffff600654851c1685611350565b4210156107c6576105f26105ec836110e4565b506111d6565b6080810151948560011b95808704600214901517156107b35761061486611309565b6049811161077c5761062590611689565b34106107455761063760a0914261135d565b910151908082111561073c5761064c9161135d565b905b81156107095750906106b191815f526008602052835f20600160ff198254161790556007549463ffffffff85519361068585611092565b1683523360208401526001600160801b03341685840152866060840152608083015260a0820152611249565b8051838152827f4cba5c8f37b96a36a16cf6242b93f0ce58209ccc582f35bb38972fb5fb38699c60203393a3519182527ff72e54080d1fd61e37adab527727f35717d5cd9caa72be4b373aa73c30d0f3ce60203393a3005b606490602085519162461bcd60e51b8352820152600d60248201526c10db1bd8dac8195e1c1a5c9959609a1b6044820152fd5b50505f9061064e565b845162461bcd60e51b81526020818501526011602482015270125b9cdd59999a58da595b9d08189bdb99607a1b6044820152606490fd5b855162461bcd60e51b8152602081860152601160248201527013585e0819195c1d1a081c995858da1959607a1b6044820152606490fd5b601183634e487b7160e01b5f525260245ffd5b606490602084519162461bcd60e51b8352820152600c60248201526b11d85b5948195e1c1a5c995960a21b6044820152fd5b815162461bcd60e51b81526020818501526014602482015273092dcecc2d8d2c840e0c2e4cadce840d2dcc8caf60631b6044820152606490fd5b602184634e487b7160e01b5f525260245ffd5b8234610159575f366003190112610159576020906001549051908152f35b8234610159575f36600319011261015957602090515f8152f35b90503461015957602036600319011261015957803591600754831015610159576108a860c0936110e4565b508054926001600160801b0360018301541660028301549160038401549301549380519563ffffffff8116875260018060a01b039060201c1660208701528501526060840152608083015260a0820152f35b8234610159575f366003190112610159576020906007549051908152f35b8234610159575f36600319011261015957602090600b549051908152f35b8234610159575f36600319011261015957602090600a549051908152f35b8234610159575f366003190112610159578051905f916005546109768161105a565b808352826020958692838301946001906001811690815f14610a2f57506001146109d2575b50506109a9925003836110c2565b825193849281845251918280928501528484015e5f828201840152601f01601f19168101030190f35b9093915060055f527f036b6384b5eca791c62761152d0c79bb0604c104a5fb6f4eb0703f3154bb3db0935f915b818310610a175750889450508201016109a98861099b565b855488840185015294850194879450918301916109ff565b9150506109a994925060ff19168552151560051b82010186928861099b565b823461015957602036600319011261015957602091355f526009825260ff815f20541690519015158152f35b905034610159576020366003190112610159578035905f60a08451610a9e81611092565b82815282602082015282868201528260608201528260808201520152600754821015610b215760c08360a0610ad56105ec866110e4565b82519263ffffffff8251168452600180841b0360208301511660208501526001600160801b038183015116908401526060810151606084015260808101516080840152015160a0820152f35b606490602084519162461bcd60e51b8352820152600d60248201526c092dcecc2d8d2c840d2dcc8caf609b1b6044820152fd5b823461015957602036600319011261015957602091355f526008825260ff815f20541690519015158152f35b8234610159575f366003190112610159576020905160498152f35b9050610ba636611044565b929060ff5f5416600381101561083257610bc09015611193565b6007548110156107f85760035492610be667ffffffffffffffff600654851c1685611350565b4210156107c657610bf96105ec836110e4565b6080810151948560011b95808704600214901517156107b357600186018096116107b35761061486611309565b8234610159575f3660031901126101595760ff5f5416610c4581611026565b610d8157610c5161136a565b15610d495750610c605f611425565b15610cc0575f805460ff1916600290811790915554610c87906001600160a01b03166115cc565b42905560ff5f5416610c9881611026565b33907fc87f83acd166e5870ebb67c961822cac95eea0599ef1c64a8eb72f920e4af7265f80a3005b600160ff195f5416175f55600754600181115f14610d335760011015610d205760075f527fa66cc928b5edb82af9bd49922954155ab7b0942694bea4ce44661d9a8736c68d54610d1b9060201c6001600160a01b03166115cc565b610c87565b603290634e487b7160e01b5f525260245ffd5b50600254610d1b906001600160a01b03166115cc565b906020606492519162461bcd60e51b8352820152601260248201527110d85b9b9bdd081c995cdbdb1d99481e595d60721b6044820152fd5b906020606492519162461bcd60e51b8352820152601060248201526f105b1c9958591e481c995cdbdb1d995960821b6044820152fd5b8234610159575f3660031901126101595760209051601e8152f35b8234610159575f3660031901126101595760ff5f54169051906003811015610dfc57602092508152f35b602183634e487b7160e01b5f525260245ffd5b8234610159575f36600319011261015957602091549051908152f35b905034610159578160031936011261015957803591602480359267ffffffffffffffff9384811161015957366023820112156101595780820135858111610159578101838101903682116101595760ff5f54166003811015610ff157610e919015611193565b600754881015610fb957610ea76105ec896110e4565b936049610eb76080870151611309565b03610f7e575082869103126101595783820135936044830135968711610159577fadce310d7d68b7526f519309e9951bf711db2ea3640d3a55c938c532259ee70f96610f0493010161114d565b6060845191602092610f37878286808201958a87528051918291018484015e81015f8382015203868101845201826110c2565b5190209201518203610f6457855f5260098152835f20600160ff198254161790555b8351928352820152a2005b855f5260098152835f20600160ff19825416179055610f59565b60649060168760208a519362461bcd60e51b85528401528201527509cdee840c2e840caf0cac6eae8d2dedc40c8cae0e8d60531b6044820152fd5b855162461bcd60e51b815260208186015260138187015272092dcecc2d8d2c840c6d8c2d2da40d2dcc8caf606b1b6044820152606490fd5b85602186634e487b7160e01b5f52525ffd5b34610159575f366003190112610159576002546001600160a01b03168152602090f35b6003111561103057565b634e487b7160e01b5f52602160045260245ffd5b6040906003190112610159576004359060243590565b90600182811c92168015611088575b602083101461107457565b634e487b7160e01b5f52602260045260245ffd5b91607f1691611069565b60c0810190811067ffffffffffffffff8211176110ae57604052565b634e487b7160e01b5f52604160045260245ffd5b90601f8019910116810190811067ffffffffffffffff8211176110ae57604052565b60075481101561111d5760059060075f52027fa66cc928b5edb82af9bd49922954155ab7b0942694bea4ce44661d9a8736c68801905f90565b634e487b7160e01b5f52603260045260245ffd5b67ffffffffffffffff81116110ae57601f01601f191660200190565b81601f820112156101595780359061116482611131565b9261117260405194856110c2565b8284526020838301011161015957815f926020809301838601378301015290565b1561119a57565b60405162461bcd60e51b815260206004820152601460248201527347616d65206e6f7420696e2070726f677265737360601b6044820152606490fd5b906040516111e381611092565b825463ffffffff811682526001600160a01b03602091821c169082015260018301546001600160801b03166040820152600283015460608201526003830154608082015260049092015460a0830152565b519067ffffffffffffffff8216820361015957565b600754680100000000000000008110156110ae5780600161126d92016007556110e4565b9190916112f65780518254602080840151640100000000600160c01b03911b1663ffffffff9092166001600160c01b03199091161717825560408101516001830180546001600160801b039092166fffffffffffffffffffffffffffffffff19909216919091179055606081015160028301556080810151600383015560a00151600490910155565b634e487b7160e01b5f525f60045260245ffd5b5f905b6001908181111561133d57811c915f19811461132957019061130c565b634e487b7160e01b5f52601160045260245ffd5b505090565b906001820180921161132957565b9190820180921161132957565b9190820391821161132957565b6003546006549061138a67ffffffffffffffff60409360401c1682611350565b42101561140857600754915f5b8381106113a75750505050600190565b805f5260206009815260ff80845f2054161591826113f5575b50506113cf575b600101611397565b6113d9834261135d565b60046113e4836110e4565b50015411156113c757505050505f90565b600891925052825f205416155f806113c0565b5050600190565b908160011b918083046002149015171561132957565b9061144261143b835f52600960205260405f2090565b5460ff1690565b6115af5761146261145e61143b845f52600860205260405f2090565b1590565b6115995760806114746105ec846110e4565b0161149161148c611485835161140f565b925161140f565b611342565b915f935f805f906114a184611342565b975b600754891015611513576114b6896110e4565b5060039081015488036114df5750505060016114d188611425565b60019015985b0197906114a3565b88906114ed8b93949b6110e4565b500154146114fe575b6001906114d7565b60019350915061150d82611425565b916114f6565b93965091945092955081611591575b50611576578161156e575b5061155957611547611554915f52600960205260405f2090565b805460ff19166001179055565b600190565b611547611554915f52600960205260405f2090565b90505f61152d565b505061154761158d915f52600960205260405f2090565b5f90565b90505f611522565b90611547611554915f52600960205260405f2090565b906115b9906110e4565b505460201c6001600160a01b0316151590565b5f905f6007545b80821061165d575050816115e5575050565b5f80809381935af13d15611658573d6115fd81611131565b9061160b60405192836110c2565b81525f60203d92013e5b1561161c57565b60405162461bcd60e51b8152602060048201526014602482015273109bdb99081d1c985b9cd9995c8819985a5b195960621b6044820152606490fd5b611615565b90926116816001916001600160801b0383611677886110e4565b5001541690611350565b9301906115d3565b80156116db57600a54905f90600b545b8183106116a65750505090565b909192612a8d90818102918183041490151715611329576127109004928184116116d4576001019190611699565b5091505090565b50600a549056fea26469706673582212209324b109de8ba67f5968a497b9a97e7881c1021029aacc45082595e85a2f9c8164736f6c63430008190033","linkReferences":{}},"methodIdentifiers":{"BOND_SCALING_FACTOR()":"ce617472","MAX_GAME_DEPTH()":"4778efe8","SPLIT_DEPTH()":"24185bc6","attack(uint256,bytes32)":"c55cd0c7","chessClock()":"f0fa912a","claimCount()":"8da4d3c9","claimCountered(uint256)":"4f006508","claims(uint256)":"a888c2cd","createdAt()":"cf09e0d0","creator()":"02d05d3f","defend(uint256,bytes32)":"35fef567","extraData()":"609d3334","gameType()":"bbdc02db","getClaim(uint256)":"5aef2447","initialize(bytes32,address,bytes)":"c8331adf","maxBond()":"890371b2","minBond()":"831518b7","resolve()":"2810e1d6","resolvedAt()":"19effeb4","resolvedSubGames(uint256)":"5d5bc334","rootClaim()":"bcef3b55","status()":"200d2ed2","step(uint256,bytes)":"0761a004"},"id":130}