{"abi":[{"type":"function","name":"BOND_SCALING_FACTOR","inputs":[],"outputs":[{"name":"","type":"uint256","internalType":"uint256"}],"stateMutability":"view"},{"type":"function","name":"MAX_GAME_DEPTH","inputs":[],"outputs":[{"name":"","type":"uint256","internalType":"uint256"}],"stateMutability":"view"},{"type":"function","name":"SPLIT_DEPTH","inputs":[],"outputs":[{"name":"","type":"uint256","internalType":"uint256"}],"stateMutability":"view"},{"type":"function","name":"attack","inputs":[{"name":"parentIndex","type":"uint256","internalType":"uint256"},{"name":"claim","type":"bytes32","internalType":"bytes32"}],"outputs":[],"stateMutability":"payable"},{"type":"function","name":"chessClock","inputs":[],"outputs":[{"name":"duration","type":"uint64","internalType":"uint64"},{"name":"globalDuration","type":"uint64","internalType":"uint64"},{"name":"startTime","type":"uint64","internalType":"uint64"}],"stateMutability":"view"},{"type":"function","name":"claimCount","inputs":[],"outputs":[{"name":"","type":"uint256","internalType":"uint256"}],"stateMutability":"view"},{"type":"function","name":"claimCountered","inputs":[{"name":"","type":"uint256","internalType":"uint256"}],"outputs":[{"name":"","type":"bool","internalType":"bool"}],"stateMutability":"view"},{"type":"function","name":"claims","inputs":[{"name":"","type":"uint256","internalType":"uint256"}],"outputs":[{"name":"parentIndex","type":"uint32","internalType":"uint32"},{"name":"claimant","type":"address","internalType":"address"},{"name":"bond","type":"uint128","internalType":"uint128"},{"name":"claim","type":"bytes32","internalType":"bytes32"},{"name":"position","type":"uint256","internalType":"uint256"},{"name":"clock","type":"uint256","internalType":"uint256"}],"stateMutability":"view"},{"type":"function","name":"createdAt","inputs":[],"outputs":[{"name":"","type":"uint256","internalType":"uint256"}],"stateMutability":"view"},{"type":"function","name":"creator","inputs":[],"outputs":[{"name":"","type":"address","internalType":"address"}],"stateMutability":"view"},{"type":"function","name":"defend","inputs":[{"name":"parentIndex","type":"uint256","internalType":"uint256"},{"name":"claim","type":"bytes32","internalType":"bytes32"}],"outputs":[],"stateMutability":"payable"},{"type":"function","name":"extraData","inputs":[],"outputs":[{"name":"","type":"bytes","internalType":"bytes"}],"stateMutability":"view"},{"type":"function","name":"gameType","inputs":[],"outputs":[{"name":"","type":"uint8","internalType":"uint8"}],"stateMutability":"pure"},{"type":"function","name":"getClaim","inputs":[{"name":"index","type":"uint256","internalType":"uint256"}],"outputs":[{"name":"","type":"tuple","internalType":"struct AndeFaultGame.ClaimData","components":[{"name":"parentIndex","type":"uint32","internalType":"uint32"},{"name":"claimant","type":"address","internalType":"address"},{"name":"bond","type":"uint128","internalType":"uint128"},{"name":"claim","type":"bytes32","internalType":"bytes32"},{"name":"position","type":"uint256","internalType":"uint256"},{"name":"clock","type":"uint256","internalType":"uint256"}]}],"stateMutability":"view"},{"type":"function","name":"initialize","inputs":[{"name":"_rootClaim","type":"bytes32","internalType":"bytes32"},{"name":"_creator","type":"address","internalType":"address"},{"name":"_extraData","type":"bytes","internalType":"bytes"}],"outputs":[],"stateMutability":"payable"},{"type":"function","name":"maxBond","inputs":[],"outputs":[{"name":"","type":"uint256","internalType":"uint256"}],"stateMutability":"view"},{"type":"function","name":"minBond","inputs":[],"outputs":[{"name":"","type":"uint256","internalType":"uint256"}],"stateMutability":"view"},{"type":"function","name":"resolve","inputs":[],"outputs":[],"stateMutability":"nonpayable"},{"type":"function","name":"resolvedAt","inputs":[],"outputs":[{"name":"","type":"uint256","internalType":"uint256"}],"stateMutability":"view"},{"type":"function","name":"resolvedSubGames","inputs":[{"name":"","type":"uint256","internalType":"uint256"}],"outputs":[{"name":"","type":"bool","internalType":"bool"}],"stateMutability":"view"},{"type":"function","name":"rootClaim","inputs":[],"outputs":[{"name":"","type":"bytes32","internalType":"bytes32"}],"stateMutability":"view"},{"type":"function","name":"status","inputs":[],"outputs":[{"name":"","type":"uint8","internalType":"enum IDisputeGame.GameStatus"}],"stateMutability":"view"},{"type":"function","name":"step","inputs":[{"name":"claimIndex","type":"uint256","internalType":"uint256"},{"name":"stateData","type":"bytes","internalType":"bytes"}],"outputs":[],"stateMutability":"nonpayable"},{"type":"event","name":"ClaimAdded","inputs":[{"name":"claimIndex","type":"uint256","indexed":true,"internalType":"uint256"},{"name":"claimant","type":"address","indexed":true,"internalType":"address"},{"name":"claim","type":"bytes32","indexed":false,"internalType":"bytes32"}],"anonymous":false},{"type":"event","name":"GameStatusChanged","inputs":[{"name":"newStatus","type":"uint8","indexed":true,"internalType":"enum IDisputeGame.GameStatus"},{"name":"resolver","type":"address","indexed":true,"internalType":"address"}],"anonymous":false},{"type":"event","name":"Initialized","inputs":[{"name":"version","type":"uint64","indexed":false,"internalType":"uint64"}],"anonymous":false},{"type":"event","name":"Move","inputs":[{"name":"claimIndex","type":"uint256","indexed":true,"internalType":"uint256"},{"name":"claimant","type":"address","indexed":true,"internalType":"address"},{"name":"claim","type":"bytes32","indexed":false,"internalType":"bytes32"}],"anonymous":false},{"type":"event","name":"StepExecuted","inputs":[{"name":"claimIndex","type":"uint256","indexed":true,"internalType":"uint256"},{"name":"preState","type":"bytes32","indexed":false,"internalType":"bytes32"},{"name":"postState","type":"bytes32","indexed":false,"internalType":"bytes32"}],"anonymous":false},{"type":"error","name":"InvalidInitialization","inputs":[]},{"type":"error","name":"NotInitializing","inputs":[]}],"bytecode":{"object":"0x60808060405234601557611dcb908161001a8239f35b5f80fdfe6080604090808252600480361015610015575f80fd5b5f3560e01c91826302d05d3f146114b3575081630761a0041461124157816319effeb414611225578163200d2ed2146111cf57816324185bc6146111b45781632810e1d614610f6057816335fef56714610ed55781634778efe814610eba5781634f00650814610e8e5781635aef244714610d725781635d5bc33414610d46578163609d333414610bda578163831518b714610bbc578163890371b214610b9e5781638da4d3c914610b80578163a888c2cd14610aed578163bbdc02db14610ad3578163bcef3b5514610ab5578163c55cd0c7146106e1578163c8331adf1461019757508063ce6174721461017b578063cf09e0d01461015d5763f0fa912a1461011d575f80fd5b34610159575f600319360112610159576060906006549067ffffffffffffffff81519281811684528181841c16602085015260801c1690820152f35b5f80fd5b5034610159575f600319360112610159576020906003549051908152f35b5034610159575f6003193601126101595760209051612a8d8152f35b90506060600319360112610159578035906024359173ffffffffffffffffffffffffffffffffffffffff83168093036101595767ffffffffffffffff92604435848111610159576101eb90369085016116ab565b917ff0c57e16840df040f15088dc2f81fe391c3923bec73e23a9662efc9c229c6a009485549460ff86891c161594828716968715806106da575b600180991490816106d0575b1590816106c7575b5061069f5786887fffffffffffffffffffffffffffffffffffffffffffffffff00000000000000008316178a5561066a575b50838755847fffffffffffffffffffffffff0000000000000000000000000000000000000000600254161760025542600355805183811161063e576005906102b38254611530565b601f81116105db575b50806020601f8211600114610525575f9161051a575b507fffffffffffffffffffffffffffffffffffffffffffffffffffffffffffffffff828b1b9260031b1c19161790555b7fffffffffffffffffffffffffffffffffffffffffffffffffffffffffffffff005f54165f5560808180518101031261015957610341602082016117c9565b9161034d8a83016117c9565b9060806060840151930151938b51916060830190838210888311176104ee5750938c610471948894827f4cba5c8f37b96a36a16cf6242b93f0ce58209ccc582f35bb38972fb5fb38699c9a60209a965f9d9a835216968783528084168b8401524216910152847fffffffffffffffff0000000000000000000000000000000000000000000000006fffffffffffffffff00000000000000006006549377ffffffffffffffff000000000000000000000000000000004260801b16951b16921617171760065580151588146104df575b600a5580151587146104cf575b600b558a519061043882611581565b63ffffffff825287858301526fffffffffffffffffffffffffffffffff34168c83015283606083015289608083015260a08201526117de565b8851908152a361047d57005b7fc7f505b2f371ae2175ee4913f4499e1f2633a7b5936321eed1cdaeb6115181d292827fffffffffffffffffffffffffffffffffffffffffffffff00ffffffffffffffff6020945416905551908152a1005b5068056bc75e2d63100000610429565b5067016345785d8a000061041c565b6041907f4e487b71000000000000000000000000000000000000000000000000000000005f525260245ffd5b90508301515f6102d2565b7fffffffffffffffffffffffffffffffffffffffffffffffffffffffffffffffe08b931690845f527f036b6384b5eca791c62761152d0c79bb0604c104a5fb6f4eb0703f3154bb3db0915f5b8181106105c35750831161058c575b5050811b019055610302565b8501517fffffffffffffffffffffffffffffffffffffffffffffffffffffffffffffffff60f88460031b161c191690555f80610580565b8783015184558d959093019260209283019201610571565b825f527f036b6384b5eca791c62761152d0c79bb0604c104a5fb6f4eb0703f3154bb3db0601f8301841c81019160208410610634575b601f01841c01908a905b8281106106295750506102bc565b5f8155018a9061061b565b9091508190610611565b6041837f4e487b71000000000000000000000000000000000000000000000000000000005f525260245ffd5b7fffffffffffffffffffffffffffffffffffffffffffffff00000000000000000016680100000000000000011788555f61026b565b828a517ff92ee8a9000000000000000000000000000000000000000000000000000000008152fd5b9050155f610239565b303b159150610231565b5086610225565b90506106ec3661151a565b929060ff5f54166003811015610a895761070690156116f1565b600754811015610a2c576003549261072c67ffffffffffffffff600654851c1685611991565b4210156109cf5761074561073f8361160b565b50611756565b6080810151948560011b95808704600214901517156109a35761076786611912565b604981116109465761077890611d3c565b34106108e95761078a60a0914261199e565b91015190808211156108e05761079f9161199e565b905b811561088357509061082b91815f526008602052835f2060017fffffffffffffffffffffffffffffffffffffffffffffffffffffffffffffff008254161790556007549463ffffffff8551936107f685611581565b1683523360208401526fffffffffffffffffffffffffffffffff341685840152866060840152608083015260a08201526117de565b8051838152827f4cba5c8f37b96a36a16cf6242b93f0ce58209ccc582f35bb38972fb5fb38699c60203393a3519182527ff72e54080d1fd61e37adab527727f35717d5cd9caa72be4b373aa73c30d0f3ce60203393a3005b60649060208551917f08c379a0000000000000000000000000000000000000000000000000000000008352820152600d60248201527f436c6f636b2065787069726564000000000000000000000000000000000000006044820152fd5b50505f906107a1565b60648360208751917f08c379a0000000000000000000000000000000000000000000000000000000008352820152601160248201527f496e73756666696369656e7420626f6e640000000000000000000000000000006044820152fd5b60648460208851917f08c379a0000000000000000000000000000000000000000000000000000000008352820152601160248201527f4d617820646570746820726561636865640000000000000000000000000000006044820152fd5b6011837f4e487b71000000000000000000000000000000000000000000000000000000005f525260245ffd5b60649060208451917f08c379a0000000000000000000000000000000000000000000000000000000008352820152600c60248201527f47616d65206578706972656400000000000000000000000000000000000000006044820152fd5b60648360208451917f08c379a0000000000000000000000000000000000000000000000000000000008352820152601460248201527f496e76616c696420706172656e7420696e6465780000000000000000000000006044820152fd5b6021847f4e487b71000000000000000000000000000000000000000000000000000000005f525260245ffd5b8234610159575f600319360112610159576020906001549051908152f35b8234610159575f60031936011261015957602090515f8152f35b9050346101595760206003193601126101595780359160075483101561015957610b1860c09361160b565b508054926fffffffffffffffffffffffffffffffff60018301541660028301549160038401549301549373ffffffffffffffffffffffffffffffffffffffff81519663ffffffff8116885260201c1660208701528501526060840152608083015260a0820152f35b8234610159575f600319360112610159576020906007549051908152f35b8234610159575f60031936011261015957602090600b549051908152f35b8234610159575f60031936011261015957602090600a549051908152f35b8234610159575f600319360112610159578051905f9160055481610bfd82611530565b9485825260208096818401946001906001811690815f14610cee5750600114610c78575b50505091610c54601f927fffffffffffffffffffffffffffffffffffffffffffffffffffffffffffffffe09403856115ca565b845195869481865251918280928701528686015e5f85828601015201168101030190f35b60055f9081529293507f036b6384b5eca791c62761152d0c79bb0604c104a5fb6f4eb0703f3154bb3db05b828410610cd85750505082010185827fffffffffffffffffffffffffffffffffffffffffffffffffffffffffffffffe0610c21565b8054888501860152879550928401928101610ca3565b7fffffffffffffffffffffffffffffffffffffffffffffffffffffffffffffff001687525050151560051b830101905085827fffffffffffffffffffffffffffffffffffffffffffffffffffffffffffffffe0610c21565b823461015957602060031936011261015957602091355f526009825260ff815f20541690519015158152f35b905034610159576020600319360112610159578035905f60a08451610d9681611581565b82815282602082015282868201528260608201528260808201520152600754821015610e315760c08360a0610dcd61073f8661160b565b82519263ffffffff825116845273ffffffffffffffffffffffffffffffffffffffff60208301511660208501526fffffffffffffffffffffffffffffffff8183015116908401526060810151606084015260808101516080840152015160a0820152f35b60649060208451917f08c379a0000000000000000000000000000000000000000000000000000000008352820152600d60248201527f496e76616c696420696e646578000000000000000000000000000000000000006044820152fd5b823461015957602060031936011261015957602091355f526008825260ff815f20541690519015158152f35b8234610159575f600319360112610159576020905160498152f35b9050610ee03661151a565b929060ff5f54166003811015610a8957610efa90156116f1565b600754811015610a2c5760035492610f2067ffffffffffffffff600654851c1685611991565b4210156109cf57610f3361073f8361160b565b6080810151948560011b95808704600214901517156109a357600186018096116109a35761076786611912565b8234610159575f6003193601126101595760ff5f5416610f7f816114e3565b61115757610f8b6119ab565b156110fa5750610f9a5f611a66565b156110225760027fffffffffffffffffffffffffffffffffffffffffffffffffffffffffffffff005f5416175f55610fe973ffffffffffffffffffffffffffffffffffffffff60025416611c54565b42905560ff5f5416610ffa816114e3565b33907fc87f83acd166e5870ebb67c961822cac95eea0599ef1c64a8eb72f920e4af7265f80a3005b60017fffffffffffffffffffffffffffffffffffffffffffffffffffffffffffffff005f5416175f55600754600181115f146110d857600110156110ac5760075f526110a773ffffffffffffffffffffffffffffffffffffffff7fa66cc928b5edb82af9bd49922954155ab7b0942694bea4ce44661d9a8736c68d5460201c16611c54565b610fe9565b6032907f4e487b71000000000000000000000000000000000000000000000000000000005f525260245ffd5b506110a773ffffffffffffffffffffffffffffffffffffffff60025416611c54565b90602060649251917f08c379a0000000000000000000000000000000000000000000000000000000008352820152601260248201527f43616e6e6f74207265736f6c76652079657400000000000000000000000000006044820152fd5b90602060649251917f08c379a0000000000000000000000000000000000000000000000000000000008352820152601060248201527f416c7265616479207265736f6c766564000000000000000000000000000000006044820152fd5b8234610159575f6003193601126101595760209051601e8152f35b8234610159575f6003193601126101595760ff5f541690519060038110156111f957602092508152f35b6021837f4e487b71000000000000000000000000000000000000000000000000000000005f525260245ffd5b8234610159575f60031936011261015957602091549051908152f35b905034610159578160031936011261015957803591602480359267ffffffffffffffff9384811161015957366023820112156101595780820135858111610159578101838101903682116101595760ff5f54166003811015611488576112a790156116f1565b60075488101561142c576112bd61073f8961160b565b9360496112cd6080870151611912565b036113d0575082869103126101595783820135936044830135968711610159577fadce310d7d68b7526f519309e9951bf711db2ea3640d3a55c938c532259ee70f9661131a9301016116ab565b606084519160209261134d878286808201958a87528051918291018484015e81015f8382015203868101845201826115ca565b519020920151820361139857855f5260098152835f2060017fffffffffffffffffffffffffffffffffffffffffffffffffffffffffffffff008254161790555b8351928352820152a2005b855f5260098152835f2060017fffffffffffffffffffffffffffffffffffffffffffffffffffffffffffffff0082541617905561138d565b60649060168760208a51937f08c379a00000000000000000000000000000000000000000000000000000000085528401528201527f4e6f7420617420657865637574696f6e206465707468000000000000000000006044820152fd5b60648460138760208a51937f08c379a00000000000000000000000000000000000000000000000000000000085528401528201527f496e76616c696420636c61696d20696e646578000000000000000000000000006044820152fd5b856021867f4e487b71000000000000000000000000000000000000000000000000000000005f52525ffd5b34610159575f6003193601126101595760209073ffffffffffffffffffffffffffffffffffffffff600254168152f35b600311156114ed57565b7f4e487b71000000000000000000000000000000000000000000000000000000005f52602160045260245ffd5b6003196040910112610159576004359060243590565b90600182811c92168015611577575b602083101461154a57565b7f4e487b71000000000000000000000000000000000000000000000000000000005f52602260045260245ffd5b91607f169161153f565b60c0810190811067ffffffffffffffff82111761159d57604052565b7f4e487b71000000000000000000000000000000000000000000000000000000005f52604160045260245ffd5b90601f7fffffffffffffffffffffffffffffffffffffffffffffffffffffffffffffffe0910116810190811067ffffffffffffffff82111761159d57604052565b6007548110156116445760059060075f52027fa66cc928b5edb82af9bd49922954155ab7b0942694bea4ce44661d9a8736c68801905f90565b7f4e487b71000000000000000000000000000000000000000000000000000000005f52603260045260245ffd5b67ffffffffffffffff811161159d57601f017fffffffffffffffffffffffffffffffffffffffffffffffffffffffffffffffe01660200190565b81601f82011215610159578035906116c282611671565b926116d060405194856115ca565b8284526020838301011161015957815f926020809301838601378301015290565b156116f857565b60646040517f08c379a000000000000000000000000000000000000000000000000000000000815260206004820152601460248201527f47616d65206e6f7420696e2070726f67726573730000000000000000000000006044820152fd5b9060405161176381611581565b60a06004829473ffffffffffffffffffffffffffffffffffffffff815463ffffffff8116865260201c1660208501526fffffffffffffffffffffffffffffffff600182015416604085015260028101546060850152600381015460808501520154910152565b519067ffffffffffffffff8216820361015957565b6007546801000000000000000081101561159d57806001611802920160075561160b565b9190916118e65760a08163ffffffff6004935116845490807fffffffffffffffffffffffffffffffffffffffffffffffffffffffff0000000083161786557fffffffffffffffff00000000000000000000000000000000000000000000000077ffffffffffffffffffffffffffffffffffffffff00000000602085015160201b16921617178455600184016fffffffffffffffffffffffffffffffff6040830151167fffffffffffffffffffffffffffffffff0000000000000000000000000000000082541617905560608101516002850155608081015160038501550151910155565b7f4e487b71000000000000000000000000000000000000000000000000000000005f525f60045260245ffd5b5f905b6001908181111561197e57811c917fffffffffffffffffffffffffffffffffffffffffffffffffffffffffffffffff8114611951570190611915565b7f4e487b71000000000000000000000000000000000000000000000000000000005f52601160045260245ffd5b505090565b906001820180921161195157565b9190820180921161195157565b9190820391821161195157565b600354600654906119cb67ffffffffffffffff60409360401c1682611991565b421015611a4957600754915f5b8381106119e85750505050600190565b805f5260206009815260ff80845f205416159182611a36575b5050611a10575b6001016119d8565b611a1a834261199e565b6004611a258361160b565b5001541115611a0857505050505f90565b600891925052825f205416155f80611a01565b5050600190565b908160011b918083046002149015171561195157565b90611a83611a7c835f52600960205260405f2090565b5460ff1690565b611c0e57611aa3611a9f611a7c845f52600860205260405f2090565b1590565b611bf8576080611ab561073f8461160b565b01611ad2611acd611ac68351611a50565b9251611a50565b611983565b915f935f805f90611ae284611983565b975b600754891015611b5457611af78961160b565b506003908101548803611b20575050506001611b1288611a66565b60019015985b019790611ae4565b8890611b2e8b93949b61160b565b50015414611b3f575b600190611b18565b600193509150611b4e82611a66565b91611b37565b93965091945092955081611bf0575b50611bd55781611bcd575b50611bb857611b88611bb3915f52600960205260405f2090565b60017fffffffffffffffffffffffffffffffffffffffffffffffffffffffffffffff00825416179055565b600190565b611b88611bb3915f52600960205260405f2090565b90505f611b6e565b5050611b88611bec915f52600960205260405f2090565b5f90565b90505f611b63565b90611b88611bb3915f52600960205260405f2090565b90611c4e611c3073ffffffffffffffffffffffffffffffffffffffff9261160b565b505460201c73ffffffffffffffffffffffffffffffffffffffff1690565b16151590565b5f905f6007545b808210611d0757505081611c6d575050565b5f80809381935af13d15611d02573d611c8581611671565b90611c9360405192836115ca565b81525f60203d92013e5b15611ca457565b60646040517f08c379a000000000000000000000000000000000000000000000000000000000815260206004820152601460248201527f426f6e64207472616e73666572206661696c65640000000000000000000000006044820152fd5b611c9d565b9092611d346001916fffffffffffffffffffffffffffffffff83611d2a8861160b565b5001541690611991565b930190611c5b565b8015611d8e57600a54905f90600b545b818310611d595750505090565b909192612a8d9081810291818304149015171561195157612710900492818411611d87576001019190611d4c565b5091505090565b50600a549056fea26469706673582212203a5d92f6ee108d7a582ff472ca40a8259818f6283815010bba1989245bdfab1e64736f6c63430008190033","linkReferences":{}},"methodIdentifiers":{"BOND_SCALING_FACTOR()":"ce617472","MAX_GAME_DEPTH()":"4778efe8","SPLIT_DEPTH()":"24185bc6","attack(uint256,bytes32)":"c55cd0c7","chessClock()":"f0fa912a","claimCount()":"8da4d3c9","claimCountered(uint256)":"4f006508","claims(uint256)":"a888c2cd","createdAt()":"cf09e0d0","creator()":"02d05d3f","defend(uint256,bytes32)":"35fef567","extraData()":"609d3334","gameType()":"bbdc02db","getClaim(uint256)":"5aef2447","initialize(bytes32,address,bytes)":"c8331adf","maxBond()":"890371b2","minBond()":"831518b7","resolve()":"2810e1d6","resolvedAt()":"19effeb4","resolvedSubGames(uint256)":"5d5bc334","rootClaim()":"bcef3b55","status()":"200d2ed2","step(uint256,bytes)":"0761a004"},"id":130}