{"abi":[{"type":"constructor","inputs":[{"name":"name","type":"string","internalType":"string"},{"name":"symbol","type":"string","internalType":"string"},{"name":"initialSupply","type":"uint256","internalType":"uint256"},{"name":"_maxSupply","type":"uint256","internalType":"uint256"},{"name":"_creator","type":"address","internalType":"address"}],"stateMutability":"nonpayable"},{"type":"function","name":"allowance","inputs":[{"name":"owner","type":"address","internalType":"address"},{"name":"spender","type":"address","internalType":"address"}],"outputs":[{"name":"","type":"uint256","internalType":"uint256"}],"stateMutability":"view"},{"type":"function","name":"approve","inputs":[{"name":"spender","type":"address","internalType":"address"},{"name":"value","type":"uint256","internalType":"uint256"}],"outputs":[{"name":"","type":"bool","internalType":"bool"}],"stateMutability":"nonpayable"},{"type":"function","name":"balanceOf","inputs":[{"name":"account","type":"address","internalType":"address"}],"outputs":[{"name":"","type":"uint256","internalType":"uint256"}],"stateMutability":"view"},{"type":"function","name":"creator","inputs":[],"outputs":[{"name":"","type":"address","internalType":"address"}],"stateMutability":"view"},{"type":"function","name":"decimals","inputs":[],"outputs":[{"name":"","type":"uint8","internalType":"uint8"}],"stateMutability":"view"},{"type":"function","name":"maxSupply","inputs":[],"outputs":[{"name":"","type":"uint256","internalType":"uint256"}],"stateMutability":"view"},{"type":"function","name":"mint","inputs":[{"name":"to","type":"address","internalType":"address"},{"name":"amount","type":"uint256","internalType":"uint256"}],"outputs":[],"stateMutability":"nonpayable"},{"type":"function","name":"name","inputs":[],"outputs":[{"name":"","type":"string","internalType":"string"}],"stateMutability":"view"},{"type":"function","name":"owner","inputs":[],"outputs":[{"name":"","type":"address","internalType":"address"}],"stateMutability":"view"},{"type":"function","name":"renounceOwnership","inputs":[],"outputs":[],"stateMutability":"nonpayable"},{"type":"function","name":"symbol","inputs":[],"outputs":[{"name":"","type":"string","internalType":"string"}],"stateMutability":"view"},{"type":"function","name":"totalSupply","inputs":[],"outputs":[{"name":"","type":"uint256","internalType":"uint256"}],"stateMutability":"view"},{"type":"function","name":"transfer","inputs":[{"name":"to","type":"address","internalType":"address"},{"name":"value","type":"uint256","internalType":"uint256"}],"outputs":[{"name":"","type":"bool","internalType":"bool"}],"stateMutability":"nonpayable"},{"type":"function","name":"transferFrom","inputs":[{"name":"from","type":"address","internalType":"address"},{"name":"to","type":"address","internalType":"address"},{"name":"value","type":"uint256","internalType":"uint256"}],"outputs":[{"name":"","type":"bool","internalType":"bool"}],"stateMutability":"nonpayable"},{"type":"function","name":"transferOwnership","inputs":[{"name":"newOwner","type":"address","internalType":"address"}],"outputs":[],"stateMutability":"nonpayable"},{"type":"event","name":"Approval","inputs":[{"name":"owner","type":"address","indexed":true,"internalType":"address"},{"name":"spender","type":"address","indexed":true,"internalType":"address"},{"name":"value","type":"uint256","indexed":false,"internalType":"uint256"}],"anonymous":false},{"type":"event","name":"OwnershipTransferred","inputs":[{"name":"previousOwner","type":"address","indexed":true,"internalType":"address"},{"name":"newOwner","type":"address","indexed":true,"internalType":"address"}],"anonymous":false},{"type":"event","name":"Transfer","inputs":[{"name":"from","type":"address","indexed":true,"internalType":"address"},{"name":"to","type":"address","indexed":true,"internalType":"address"},{"name":"value","type":"uint256","indexed":false,"internalType":"uint256"}],"anonymous":false},{"type":"error","name":"ERC20InsufficientAllowance","inputs":[{"name":"spender","type":"address","internalType":"address"},{"name":"allowance","type":"uint256","internalType":"uint256"},{"name":"needed","type":"uint256","internalType":"uint256"}]},{"type":"error","name":"ERC20InsufficientBalance","inputs":[{"name":"sender","type":"address","internalType":"address"},{"name":"balance","type":"uint256","internalType":"uint256"},{"name":"needed","type":"uint256","internalType":"uint256"}]},{"type":"error","name":"ERC20InvalidApprover","inputs":[{"name":"approver","type":"address","internalType":"address"}]},{"type":"error","name":"ERC20InvalidReceiver","inputs":[{"name":"receiver","type":"address","internalType":"address"}]},{"type":"error","name":"ERC20InvalidSender","inputs":[{"name":"sender","type":"address","internalType":"address"}]},{"type":"error","name":"ERC20InvalidSpender","inputs":[{"name":"spender","type":"address","internalType":"address"}]},{"type":"error","name":"MaxSupplyExceeded","inputs":[]},{"type":"error","name":"OwnableInvalidOwner","inputs":[{"name":"owner","type":"address","internalType":"address"}]},{"type":"error","name":"OwnableUnauthorizedAccount","inputs":[{"name":"account","type":"address","internalType":"address"}]}],"bytecode":{"object":"0x604060c08152346103e25761111c8038038061001a816103e6565b928339810160a0828203126103e25781516001600160401b0392908381116103e2578261004891830161040b565b9060209283820151908582116103e25761006391830161040b565b908581015192608060608301519201519060018060a01b0390818316978884036103e25781518181116102ea576003908154906001948583811c931680156103d8575b8c8410146103c45781908c601f94858111610373575b50508c90848311600114610309575f926102fe575b50505f1982851b1c191690851b1782555b87519283116102ea5760049788548581811c911680156102e0575b8c8210146102cd5780838d9211610288575b50508a918411600114610224579383949184925f95610219575b50501b925f19911b1c19161784555b861561020357600580546001600160a01b0319811689179091558791167f8be0079c531659141344cd1fd0a4f28419497f9722a3daafe3b4186f6b6457e05f80a360a052608052600254908282018092116101f057506002555f8381528083528481208054830190558451918252917fddf252ad1be2c89b69c2b068fc378daa952ba7f163c4a11628f55a4df523b3ef91a351610cbf908161045d82396080518181816101fb0152610554015260a05181610a0f0152f35b601190634e487b7160e01b5f525260245ffd5b8751631e4fbdf760e01b81525f81860152602490fd5b015193505f80610129565b9190601f19841692895f52848c5f20948d5f905b898383106102705750505010610257575b50505050811b018455610138565b01519060f8845f19921b161c191690555f808080610249565b8686015189559097019694850194889350018e610238565b8a5f5283825f209181880160051c83019388106102c4575b0160051c019086905b8281106102b957508c915061010f565b5f81550186906102a9565b925081926102a0565b60228a634e487b7160e01b5f525260245ffd5b90607f16906100fd565b634e487b7160e01b5f52604160045260245ffd5b015190505f806100d1565b879350908d91601f198416875f52835f20935f905b828210610352575050841161033b575b505050811b0182556100e2565b01515f1983871b60f8161c191690555f808061032e565b91929395968291958786015181550195019301908f918a969594939261031e565b90919250855f5284825f209181860160051c83019386106103bb575b918991869594930160051c01915b8281106103ad57508e91506100bc565b5f815585945089910161039d565b9250819261038f565b634e487b7160e01b5f52602260045260245ffd5b92607f16926100a6565b5f80fd5b6040519190601f01601f191682016001600160401b038111838210176102ea57604052565b81601f820112156103e2578051906001600160401b0382116102ea5761043a601f8301601f19166020016103e6565b92828452602083830101116103e257815f9260208093018386015e830101529056fe608060409080825260049081361015610016575f80fd5b5f3560e01c90816302d05d3f146109e55750806306fdde03146108c0578063095ea7b3146107d857806318160ddd146107ba57806323b872dd14610651578063313ce5671461063657806340c10f191461051d57806370a08231146104da578063715018a61461045c5780638da5cb5b1461042857806395d89b411461024e578063a9059cbb1461021e578063d5abeb01146101e4578063dd62ed3e1461018d5763f2fde38b146100c5575f80fd5b34610189576020600319360112610189576100de610a7b565b906100e7610c38565b73ffffffffffffffffffffffffffffffffffffffff80921692831561015a575050600554827fffffffffffffffffffffffff0000000000000000000000000000000000000000821617600555167f8be0079c531659141344cd1fd0a4f28419497f9722a3daafe3b4186f6b6457e05f80a3005b905f60249251917f1e4fbdf7000000000000000000000000000000000000000000000000000000008352820152fd5b5f80fd5b82346101895780600319360112610189576020906101a9610a7b565b6101b1610a9e565b9073ffffffffffffffffffffffffffffffffffffffff8091165f5260018452825f2091165f528252805f20549051908152f35b8234610189575f60031936011261018957602090517f00000000000000000000000000000000000000000000000000000000000000008152f35b823461018957806003193601126101895760209061024761023d610a7b565b6024359033610afb565b5160018152f35b5034610189575f6003193601126101895781515f928254936001948060011c6001821696871561041e575b60209283831089146103f257869798838897985290815f14610397575060011461031c575b50505003601f017fffffffffffffffffffffffffffffffffffffffffffffffffffffffffffffffe01682019267ffffffffffffffff8411838510176102f057508291826102ec925282610a33565b0390f35b6041907f4e487b71000000000000000000000000000000000000000000000000000000005f525260245ffd5b5f888152929493507f8a35acfbc15ff81a39ae7d344fd709f28e8600b4aa8c65c6b64bfe7fe36bd19b5b82841061038157505050907fffffffffffffffffffffffffffffffffffffffffffffffffffffffffffffffe092601f9282010191819361029e565b8054888501870152879450928501928101610346565b7fffffffffffffffffffffffffffffffffffffffffffffffffffffffffffffff0016848701525050151560051b830101905081601f7fffffffffffffffffffffffffffffffffffffffffffffffffffffffffffffffe061029e565b6022887f4e487b71000000000000000000000000000000000000000000000000000000005f525260245ffd5b90607f1690610279565b8234610189575f6003193601126101895760209073ffffffffffffffffffffffffffffffffffffffff600554169051908152f35b34610189575f60031936011261018957610474610c38565b5f73ffffffffffffffffffffffffffffffffffffffff6005547fffffffffffffffffffffffff00000000000000000000000000000000000000008116600555167f8be0079c531659141344cd1fd0a4f28419497f9722a3daafe3b4186f6b6457e08280a3005b82346101895760206003193601126101895760209073ffffffffffffffffffffffffffffffffffffffff61050c610a7b565b165f525f8252805f20549051908152f35b509034610189578060031936011261018957610537610a7b565b9060243591610544610c38565b600254906105528483610ac1565b7f00000000000000000000000000000000000000000000000000000000000000001061060e5773ffffffffffffffffffffffffffffffffffffffff169384156105df5750827fddf252ad1be2c89b69c2b068fc378daa952ba7f163c4a11628f55a4df523b3ef926105c65f95602094610ac1565b60025585855284835280852082815401905551908152a3005b6024905f8451917fec442f05000000000000000000000000000000000000000000000000000000008352820152fd5b8483517f8a164f63000000000000000000000000000000000000000000000000000000008152fd5b8234610189575f600319360112610189576020905160128152f35b50346101895760606003193601126101895761066b610a7b565b610673610a9e565b906044359273ffffffffffffffffffffffffffffffffffffffff8216805f526001602052855f20335f52602052855f2054917fffffffffffffffffffffffffffffffffffffffffffffffffffffffffffffffff83036106db575b602087610247888888610afb565b85831061077557811561074657331561071757505f908152600160209081528682203383528152908690209185900390915582906102476106cd565b6024905f8851917f94280d62000000000000000000000000000000000000000000000000000000008352820152fd5b6024905f8851917fe602df05000000000000000000000000000000000000000000000000000000008352820152fd5b86517ffb8f41b2000000000000000000000000000000000000000000000000000000008152339181019182526020820193909352604081018690528291506060010390fd5b8234610189575f600319360112610189576020906002549051908152f35b5090346101895780600319360112610189576107f2610a7b565b6024359033156108915773ffffffffffffffffffffffffffffffffffffffff169081156108625760209350335f5260018452825f20825f52845280835f205582519081527f8c5be1e5ebec7d5bd14f71427d1e84f3dd0314c0f7b2291e5b200ac8c7c3b925843392a35160018152f35b6024845f8551917f94280d62000000000000000000000000000000000000000000000000000000008352820152fd5b6024845f8551917fe602df05000000000000000000000000000000000000000000000000000000008352820152fd5b5034610189575f6003193601126101895781515f92600354936001948060011c600182169687156109db575b60209283831089146103f257869798838897985290815f14610397575060011461095e5750505003601f017fffffffffffffffffffffffffffffffffffffffffffffffffffffffffffffffe01682019267ffffffffffffffff8411838510176102f057508291826102ec925282610a33565b60035f908152929493507fc2575a0e9e593c00f959f8c92f12db2869c3395a3b0502d05e2516446f71f85b5b8284106109c557505050907fffffffffffffffffffffffffffffffffffffffffffffffffffffffffffffffe092601f9282010191819361029e565b805488850187015287945092850192810161098a565b90607f16906108ec565b34610189575f6003193601126101895760209073ffffffffffffffffffffffffffffffffffffffff7f0000000000000000000000000000000000000000000000000000000000000000168152f35b7fffffffffffffffffffffffffffffffffffffffffffffffffffffffffffffffe0601f602060409481855280519182918282880152018686015e5f8582860101520116010190565b6004359073ffffffffffffffffffffffffffffffffffffffff8216820361018957565b6024359073ffffffffffffffffffffffffffffffffffffffff8216820361018957565b91908201809211610ace57565b7f4e487b71000000000000000000000000000000000000000000000000000000005f52601160045260245ffd5b9173ffffffffffffffffffffffffffffffffffffffff808416928315610c085716928315610bd857825f525f60205260405f205490828210610b805750817fddf252ad1be2c89b69c2b068fc378daa952ba7f163c4a11628f55a4df523b3ef92602092855f525f84520360405f2055845f5260405f20818154019055604051908152a3565b6040517fe450d38c00000000000000000000000000000000000000000000000000000000815273ffffffffffffffffffffffffffffffffffffffff919091166004820152602481019190915260448101829052606490fd5b60246040517fec442f050000000000000000000000000000000000000000000000000000000081525f6004820152fd5b60246040517f96c6fd1e0000000000000000000000000000000000000000000000000000000081525f6004820152fd5b73ffffffffffffffffffffffffffffffffffffffff600554163303610c5957565b60246040517f118cdaa7000000000000000000000000000000000000000000000000000000008152336004820152fdfea2646970667358221220a0fe9109b09ac6b93610ea9c94abe038ad2169cc465aa42a3909d2a629202d3d64736f6c63430008190033","linkReferences":{}},"methodIdentifiers":{"allowance(address,address)":"dd62ed3e","approve(address,uint256)":"095ea7b3","balanceOf(address)":"70a08231","creator()":"02d05d3f","decimals()":"313ce567","maxSupply()":"d5abeb01","mint(address,uint256)":"40c10f19","name()":"06fdde03","owner()":"8da5cb5b","renounceOwnership()":"715018a6","symbol()":"95d89b41","totalSupply()":"18160ddd","transfer(address,uint256)":"a9059cbb","transferFrom(address,address,uint256)":"23b872dd","transferOwnership(address)":"f2fde38b"},"id":154}