{"abi":[{"type":"constructor","inputs":[{"name":"name","type":"string","internalType":"string"},{"name":"symbol","type":"string","internalType":"string"},{"name":"initialSupply","type":"uint256","internalType":"uint256"},{"name":"_maxSupply","type":"uint256","internalType":"uint256"},{"name":"_creator","type":"address","internalType":"address"}],"stateMutability":"nonpayable"},{"type":"function","name":"allowance","inputs":[{"name":"owner","type":"address","internalType":"address"},{"name":"spender","type":"address","internalType":"address"}],"outputs":[{"name":"","type":"uint256","internalType":"uint256"}],"stateMutability":"view"},{"type":"function","name":"approve","inputs":[{"name":"spender","type":"address","internalType":"address"},{"name":"value","type":"uint256","internalType":"uint256"}],"outputs":[{"name":"","type":"bool","internalType":"bool"}],"stateMutability":"nonpayable"},{"type":"function","name":"balanceOf","inputs":[{"name":"account","type":"address","internalType":"address"}],"outputs":[{"name":"","type":"uint256","internalType":"uint256"}],"stateMutability":"view"},{"type":"function","name":"creator","inputs":[],"outputs":[{"name":"","type":"address","internalType":"address"}],"stateMutability":"view"},{"type":"function","name":"decimals","inputs":[],"outputs":[{"name":"","type":"uint8","internalType":"uint8"}],"stateMutability":"view"},{"type":"function","name":"maxSupply","inputs":[],"outputs":[{"name":"","type":"uint256","internalType":"uint256"}],"stateMutability":"view"},{"type":"function","name":"mint","inputs":[{"name":"to","type":"address","internalType":"address"},{"name":"amount","type":"uint256","internalType":"uint256"}],"outputs":[],"stateMutability":"nonpayable"},{"type":"function","name":"name","inputs":[],"outputs":[{"name":"","type":"string","internalType":"string"}],"stateMutability":"view"},{"type":"function","name":"owner","inputs":[],"outputs":[{"name":"","type":"address","internalType":"address"}],"stateMutability":"view"},{"type":"function","name":"renounceOwnership","inputs":[],"outputs":[],"stateMutability":"nonpayable"},{"type":"function","name":"symbol","inputs":[],"outputs":[{"name":"","type":"string","internalType":"string"}],"stateMutability":"view"},{"type":"function","name":"totalSupply","inputs":[],"outputs":[{"name":"","type":"uint256","internalType":"uint256"}],"stateMutability":"view"},{"type":"function","name":"transfer","inputs":[{"name":"to","type":"address","internalType":"address"},{"name":"value","type":"uint256","internalType":"uint256"}],"outputs":[{"name":"","type":"bool","internalType":"bool"}],"stateMutability":"nonpayable"},{"type":"function","name":"transferFrom","inputs":[{"name":"from","type":"address","internalType":"address"},{"name":"to","type":"address","internalType":"address"},{"name":"value","type":"uint256","internalType":"uint256"}],"outputs":[{"name":"","type":"bool","internalType":"bool"}],"stateMutability":"nonpayable"},{"type":"function","name":"transferOwnership","inputs":[{"name":"newOwner","type":"address","internalType":"address"}],"outputs":[],"stateMutability":"nonpayable"},{"type":"event","name":"Approval","inputs":[{"name":"owner","type":"address","indexed":true,"internalType":"address"},{"name":"spender","type":"address","indexed":true,"internalType":"address"},{"name":"value","type":"uint256","indexed":false,"internalType":"uint256"}],"anonymous":false},{"type":"event","name":"OwnershipTransferred","inputs":[{"name":"previousOwner","type":"address","indexed":true,"internalType":"address"},{"name":"newOwner","type":"address","indexed":true,"internalType":"address"}],"anonymous":false},{"type":"event","name":"Transfer","inputs":[{"name":"from","type":"address","indexed":true,"internalType":"address"},{"name":"to","type":"address","indexed":true,"internalType":"address"},{"name":"value","type":"uint256","indexed":false,"internalType":"uint256"}],"anonymous":false},{"type":"error","name":"ERC20InsufficientAllowance","inputs":[{"name":"spender","type":"address","internalType":"address"},{"name":"allowance","type":"uint256","internalType":"uint256"},{"name":"needed","type":"uint256","internalType":"uint256"}]},{"type":"error","name":"ERC20InsufficientBalance","inputs":[{"name":"sender","type":"address","internalType":"address"},{"name":"balance","type":"uint256","internalType":"uint256"},{"name":"needed","type":"uint256","internalType":"uint256"}]},{"type":"error","name":"ERC20InvalidApprover","inputs":[{"name":"approver","type":"address","internalType":"address"}]},{"type":"error","name":"ERC20InvalidReceiver","inputs":[{"name":"receiver","type":"address","internalType":"address"}]},{"type":"error","name":"ERC20InvalidSender","inputs":[{"name":"sender","type":"address","internalType":"address"}]},{"type":"error","name":"ERC20InvalidSpender","inputs":[{"name":"spender","type":"address","internalType":"address"}]},{"type":"error","name":"MaxSupplyExceeded","inputs":[]},{"type":"error","name":"OwnableInvalidOwner","inputs":[{"name":"owner","type":"address","internalType":"address"}]},{"type":"error","name":"OwnableUnauthorizedAccount","inputs":[{"name":"account","type":"address","internalType":"address"}]}],"bytecode":{"object":"0x604060c08152346103e257610dbd8038038061001a816103e6565b928339810160a0828203126103e25781516001600160401b0392908381116103e2578261004891830161040b565b9060209283820151908582116103e25761006391830161040b565b908581015192608060608301519201519060018060a01b0390818316978884036103e25781518181116102ea576003908154906001948583811c931680156103d8575b8c8410146103c45781908c601f94858111610373575b50508c90848311600114610309575f926102fe575b50505f1982851b1c191690851b1782555b87519283116102ea5760049788548581811c911680156102e0575b8c8210146102cd5780838d9211610288575b50508a918411600114610224579383949184925f95610219575b50501b925f19911b1c19161784555b861561020357600580546001600160a01b0319811689179091558791167f8be0079c531659141344cd1fd0a4f28419497f9722a3daafe3b4186f6b6457e05f80a360a052608052600254908282018092116101f057506002555f8381528083528481208054830190558451918252917fddf252ad1be2c89b69c2b068fc378daa952ba7f163c4a11628f55a4df523b3ef91a351610960908161045d82396080518181816101b60152610419015260a0518161077e0152f35b601190634e487b7160e01b5f525260245ffd5b8751631e4fbdf760e01b81525f81860152602490fd5b015193505f80610129565b9190601f19841692895f52848c5f20948d5f905b898383106102705750505010610257575b50505050811b018455610138565b01519060f8845f19921b161c191690555f808080610249565b8686015189559097019694850194889350018e610238565b8a5f5283825f209181880160051c83019388106102c4575b0160051c019086905b8281106102b957508c915061010f565b5f81550186906102a9565b925081926102a0565b60228a634e487b7160e01b5f525260245ffd5b90607f16906100fd565b634e487b7160e01b5f52604160045260245ffd5b015190505f806100d1565b879350908d91601f198416875f52835f20935f905b828210610352575050841161033b575b505050811b0182556100e2565b01515f1983871b60f8161c191690555f808061032e565b91929395968291958786015181550195019301908f918a969594939261031e565b90919250855f5284825f209181860160051c83019386106103bb575b918991869594930160051c01915b8281106103ad57508e91506100bc565b5f815585945089910161039d565b9250819261038f565b634e487b7160e01b5f52602260045260245ffd5b92607f16926100a6565b5f80fd5b6040519190601f01601f191682016001600160401b038111838210176102ea57604052565b81601f820112156103e2578051906001600160401b0382116102ea5761043a601f8301601f19166020016103e6565b92828452602083830101116103e257815f9260208093018386015e830101529056fe608060409080825260049081361015610016575f80fd5b5f3560e01c90816302d05d3f1461076c5750806306fdde0314610690578063095ea7b3146105e757806318160ddd146105c957806323b872dd146104d8578063313ce567146104bd57806340c10f19146103e257806370a08231146103ac578063715018a6146103515780638da5cb5b1461032957806395d89b4114610209578063a9059cbb146101d9578063d5abeb011461019f578063dd62ed3e146101565763f2fde38b146100c5575f80fd5b34610152576020366003190112610152576100de6107d7565b906100e76108fe565b6001600160a01b0391821692831561013c575050600554826bffffffffffffffffffffffff60a01b821617600555167f8be0079c531659141344cd1fd0a4f28419497f9722a3daafe3b4186f6b6457e05f80a3005b905f6024925191631e4fbdf760e01b8352820152fd5b5f80fd5b82346101525780600319360112610152576020906101726107d7565b61017a6107ed565b9060018060a01b038091165f5260018452825f2091165f528252805f20549051908152f35b8234610152575f36600319011261015257602090517f00000000000000000000000000000000000000000000000000000000000000008152f35b82346101525780600319360112610152576020906102026101f86107d7565b6024359033610824565b5160018152f35b509034610152575f366003190112610152578051905f835460018160011c906001831692831561031f575b602093848410811461030c578388529081156102f0575060011461029c575b505050829003601f01601f191682019267ffffffffffffffff84118385101761028957508291826102859252826107ad565b0390f35b604190634e487b7160e01b5f525260245ffd5b5f878152929350837f8a35acfbc15ff81a39ae7d344fd709f28e8600b4aa8c65c6b64bfe7fe36bd19b5b8385106102dc57505050508301015f8080610253565b8054888601830152930192849082016102c6565b60ff1916878501525050151560051b84010190505f8080610253565b602289634e487b7160e01b5f525260245ffd5b91607f1691610234565b8234610152575f3660031901126101525760055490516001600160a01b039091168152602090f35b34610152575f366003190112610152576103696108fe565b600580546001600160a01b031981169091555f906001600160a01b03167f8be0079c531659141344cd1fd0a4f28419497f9722a3daafe3b4186f6b6457e08280a3005b8234610152576020366003190112610152576020906001600160a01b036103d16107d7565b165f525f8252805f20549051908152f35b5090346101525780600319360112610152576103fc6107d7565b90602435916104096108fe565b600254906104178483610803565b7f0000000000000000000000000000000000000000000000000000000000000000106104ad576001600160a01b03169384156104975750827fddf252ad1be2c89b69c2b068fc378daa952ba7f163c4a11628f55a4df523b3ef9261047e5f95602094610803565b60025585855284835280852082815401905551908152a3005b6024905f84519163ec442f0560e01b8352820152fd5b8251638a164f6360e01b81528590fd5b8234610152575f366003190112610152576020905160128152f35b5034610152576060366003190112610152576104f26107d7565b6104fa6107ed565b906044359260018060a01b038216805f526001602052855f20335f52602052855f2054915f198303610535575b602087610202888888610824565b85831061059d57811561058757331561057157505f90815260016020908152868220338352815290869020918590039091558290610202610527565b6024905f885191634a1406b160e11b8352820152fd5b6024905f88519163e602df0560e01b8352820152fd5b8651637dc7a0d960e11b8152339181019182526020820193909352604081018690528291506060010390fd5b8234610152575f366003190112610152576020906002549051908152f35b5090346101525780600319360112610152576106016107d7565b60243590331561067a576001600160a01b03169081156106645760209350335f5260018452825f20825f52845280835f205582519081527f8c5be1e5ebec7d5bd14f71427d1e84f3dd0314c0f7b2291e5b200ac8c7c3b925843392a35160018152f35b8251634a1406b160e11b81525f81860152602490fd5b825163e602df0560e01b81525f81860152602490fd5b509034610152575f366003190112610152578051905f60035460018160011c9060018316928315610762575b602093848410811461030c578388529081156102f0575060011461070c57505050829003601f01601f191682019267ffffffffffffffff84118385101761028957508291826102859252826107ad565b60035f908152929350837fc2575a0e9e593c00f959f8c92f12db2869c3395a3b0502d05e2516446f71f85b5b83851061074e57505050508301015f8080610253565b805488860183015293019284908201610738565b91607f16916106bc565b34610152575f366003190112610152577f00000000000000000000000000000000000000000000000000000000000000006001600160a01b03168152602090f35b602060409281835280519182918282860152018484015e5f828201840152601f01601f1916010190565b600435906001600160a01b038216820361015257565b602435906001600160a01b038216820361015257565b9190820180921161081057565b634e487b7160e01b5f52601160045260245ffd5b916001600160a01b038084169283156108e657169283156108ce57825f525f60205260405f20549082821061089c5750817fddf252ad1be2c89b69c2b068fc378daa952ba7f163c4a11628f55a4df523b3ef92602092855f525f84520360405f2055845f5260405f20818154019055604051908152a3565b60405163391434e360e21b81526001600160a01b03919091166004820152602481019190915260448101829052606490fd5b60405163ec442f0560e01b81525f6004820152602490fd5b604051634b637e8f60e11b81525f6004820152602490fd5b6005546001600160a01b0316330361091257565b60405163118cdaa760e01b8152336004820152602490fdfea26469706673582212207c7927aed29eea6a92778a5b0acb1f0b9b4680e057a53c43af4e4f492c31536864736f6c63430008190033","linkReferences":{}},"methodIdentifiers":{"allowance(address,address)":"dd62ed3e","approve(address,uint256)":"095ea7b3","balanceOf(address)":"70a08231","creator()":"02d05d3f","decimals()":"313ce567","maxSupply()":"d5abeb01","mint(address,uint256)":"40c10f19","name()":"06fdde03","owner()":"8da5cb5b","renounceOwnership()":"715018a6","symbol()":"95d89b41","totalSupply()":"18160ddd","transfer(address,uint256)":"a9059cbb","transferFrom(address,address,uint256)":"23b872dd","transferOwnership(address)":"f2fde38b"},"id":154}