{"abi":[{"type":"constructor","inputs":[{"name":"name","type":"string","internalType":"string"},{"name":"symbol","type":"string","internalType":"string"},{"name":"_underlyingAsset","type":"address","internalType":"address"},{"name":"_lendingPool","type":"address","internalType":"address"}],"stateMutability":"nonpayable"},{"type":"function","name":"allowance","inputs":[{"name":"owner","type":"address","internalType":"address"},{"name":"spender","type":"address","internalType":"address"}],"outputs":[{"name":"","type":"uint256","internalType":"uint256"}],"stateMutability":"view"},{"type":"function","name":"approve","inputs":[{"name":"spender","type":"address","internalType":"address"},{"name":"value","type":"uint256","internalType":"uint256"}],"outputs":[{"name":"","type":"bool","internalType":"bool"}],"stateMutability":"nonpayable"},{"type":"function","name":"balanceOf","inputs":[{"name":"account","type":"address","internalType":"address"}],"outputs":[{"name":"","type":"uint256","internalType":"uint256"}],"stateMutability":"view"},{"type":"function","name":"burn","inputs":[{"name":"user","type":"address","internalType":"address"},{"name":"amount","type":"uint256","internalType":"uint256"}],"outputs":[],"stateMutability":"nonpayable"},{"type":"function","name":"decimals","inputs":[],"outputs":[{"name":"","type":"uint8","internalType":"uint8"}],"stateMutability":"view"},{"type":"function","name":"lendingPool","inputs":[],"outputs":[{"name":"","type":"address","internalType":"address"}],"stateMutability":"view"},{"type":"function","name":"mint","inputs":[{"name":"user","type":"address","internalType":"address"},{"name":"amount","type":"uint256","internalType":"uint256"}],"outputs":[],"stateMutability":"nonpayable"},{"type":"function","name":"name","inputs":[],"outputs":[{"name":"","type":"string","internalType":"string"}],"stateMutability":"view"},{"type":"function","name":"owner","inputs":[],"outputs":[{"name":"","type":"address","internalType":"address"}],"stateMutability":"view"},{"type":"function","name":"renounceOwnership","inputs":[],"outputs":[],"stateMutability":"nonpayable"},{"type":"function","name":"symbol","inputs":[],"outputs":[{"name":"","type":"string","internalType":"string"}],"stateMutability":"view"},{"type":"function","name":"totalSupply","inputs":[],"outputs":[{"name":"","type":"uint256","internalType":"uint256"}],"stateMutability":"view"},{"type":"function","name":"transfer","inputs":[{"name":"to","type":"address","internalType":"address"},{"name":"value","type":"uint256","internalType":"uint256"}],"outputs":[{"name":"","type":"bool","internalType":"bool"}],"stateMutability":"nonpayable"},{"type":"function","name":"transferFrom","inputs":[{"name":"from","type":"address","internalType":"address"},{"name":"to","type":"address","internalType":"address"},{"name":"value","type":"uint256","internalType":"uint256"}],"outputs":[{"name":"","type":"bool","internalType":"bool"}],"stateMutability":"nonpayable"},{"type":"function","name":"transferOwnership","inputs":[{"name":"newOwner","type":"address","internalType":"address"}],"outputs":[],"stateMutability":"nonpayable"},{"type":"function","name":"underlyingAsset","inputs":[],"outputs":[{"name":"","type":"address","internalType":"address"}],"stateMutability":"view"},{"type":"event","name":"Approval","inputs":[{"name":"owner","type":"address","indexed":true,"internalType":"address"},{"name":"spender","type":"address","indexed":true,"internalType":"address"},{"name":"value","type":"uint256","indexed":false,"internalType":"uint256"}],"anonymous":false},{"type":"event","name":"OwnershipTransferred","inputs":[{"name":"previousOwner","type":"address","indexed":true,"internalType":"address"},{"name":"newOwner","type":"address","indexed":true,"internalType":"address"}],"anonymous":false},{"type":"event","name":"Transfer","inputs":[{"name":"from","type":"address","indexed":true,"internalType":"address"},{"name":"to","type":"address","indexed":true,"internalType":"address"},{"name":"value","type":"uint256","indexed":false,"internalType":"uint256"}],"anonymous":false},{"type":"error","name":"ERC20InsufficientAllowance","inputs":[{"name":"spender","type":"address","internalType":"address"},{"name":"allowance","type":"uint256","internalType":"uint256"},{"name":"needed","type":"uint256","internalType":"uint256"}]},{"type":"error","name":"ERC20InsufficientBalance","inputs":[{"name":"sender","type":"address","internalType":"address"},{"name":"balance","type":"uint256","internalType":"uint256"},{"name":"needed","type":"uint256","internalType":"uint256"}]},{"type":"error","name":"ERC20InvalidApprover","inputs":[{"name":"approver","type":"address","internalType":"address"}]},{"type":"error","name":"ERC20InvalidReceiver","inputs":[{"name":"receiver","type":"address","internalType":"address"}]},{"type":"error","name":"ERC20InvalidSender","inputs":[{"name":"sender","type":"address","internalType":"address"}]},{"type":"error","name":"ERC20InvalidSpender","inputs":[{"name":"spender","type":"address","internalType":"address"}]},{"type":"error","name":"OnlyLendingPool","inputs":[]},{"type":"error","name":"OwnableInvalidOwner","inputs":[{"name":"owner","type":"address","internalType":"address"}]},{"type":"error","name":"OwnableUnauthorizedAccount","inputs":[{"name":"account","type":"address","internalType":"address"}]}],"bytecode":{"object":"0x60c06040523461037957610e86803803806100198161037d565b92833981016080828203126103795781516001600160401b03919082811161037957816100479185016103a2565b6020918285015190848211610379576100619186016103a2565b9261007a6060610073604088016103f3565b96016103f3565b938251828111610290576003918254916001958684811c9416801561036f575b8885101461035b578190601f9485811161030d575b5088908583116001146102af575f926102a4575b50505f1982861b1c191690861b1783555b80519384116102905760049586548681811c91168015610286575b8282101461027357838111610230575b50809285116001146101cb57509383949184925f956101c0575b50501b925f19911b1c19161781555b33156101a9575060058054336001600160a01b0319821681179092556040519391906001600160a01b03167f8be0079c531659141344cd1fd0a4f28419497f9722a3daafe3b4186f6b6457e05f80a360805260a052610a7e9081610408823960805181610483015260a0518181816101ee01528181610248015261056d0152f35b6024905f60405191631e4fbdf760e01b8352820152fd5b015193505f80610119565b92919084601f198116885f52855f20955f905b8983831061021657505050106101fd575b50505050811b018155610128565b01519060f8845f19921b161c191690555f8080806101ef565b8587015189559097019694850194889350908101906101de565b875f52815f208480880160051c82019284891061026a575b0160051c019087905b82811061025f5750506100ff565b5f8155018790610251565b92508192610248565b602288634e487b7160e01b5f525260245ffd5b90607f16906100ef565b634e487b7160e01b5f52604160045260245ffd5b015190505f806100c3565b90889350601f19831691875f528a5f20925f5b8c8282106102f757505084116102e0575b505050811b0183556100d4565b01515f1983881b60f8161c191690555f80806102d3565b8385015186558c979095019493840193016102c2565b909150855f52885f208580850160051c8201928b8610610352575b918a91869594930160051c01915b8281106103445750506100af565b5f81558594508a9101610336565b92508192610328565b634e487b7160e01b5f52602260045260245ffd5b93607f169361009a565b5f80fd5b6040519190601f01601f191682016001600160401b0381118382101761029057604052565b81601f82011215610379578051906001600160401b038211610290576103d1601f8301601f191660200161037d565b928284526020838301011161037957815f9260208093018386015e8301015290565b51906001600160a01b03821682036103795756fe608060409080825260049081361015610016575f80fd5b5f3560e01c90816306fdde03146107f657508063095ea7b31461074d57806318160ddd1461072f57806323b872dd1461063e578063313ce5671461062357806340c10f191461054357806370a082311461050d578063715018a6146104b25780637158da7c1461046f5780638da5cb5b1461044757806395d89b41146103275780639dc29fac1461021d578063a59a9973146101da578063a9059cbb146101aa578063dd62ed3e146101615763f2fde38b146100d0575f80fd5b3461015d57602036600319011261015d576100e9610916565b906100f2610a1c565b6001600160a01b03918216928315610147575050600554826bffffffffffffffffffffffff60a01b821617600555167f8be0079c531659141344cd1fd0a4f28419497f9722a3daafe3b4186f6b6457e05f80a3005b905f6024925191631e4fbdf760e01b8352820152fd5b5f80fd5b823461015d578060031936011261015d5760209061017d610916565b61018561092c565b9060018060a01b038091165f5260018452825f2091165f528252805f20549051908152f35b823461015d578060031936011261015d576020906101d36101c9610916565b6024359033610942565b5160018152f35b823461015d575f36600319011261015d57517f00000000000000000000000000000000000000000000000000000000000000006001600160a01b03168152602090f35b50903461015d578060031936011261015d57610237610916565b602435929091906001600160a01b037f00000000000000000000000000000000000000000000000000000000000000008116330361031857831692831561030257835f525f602052825f2054918583106102ce575f857fddf252ad1be2c89b69c2b068fc378daa952ba7f163c4a11628f55a4df523b3ef6020898881898688528785520381872055816002540360025551908152a3005b835163391434e360e21b81526001600160a01b03909216908201908152602081018390526040810186905281906060010390fd5b505f6024925191634b637e8f60e11b8352820152fd5b5090516323f09b3960e21b8152fd5b50903461015d575f36600319011261015d578051905f835460018160011c906001831692831561043d575b602093848410811461042a5783885290811561040e57506001146103ba575b505050829003601f01601f191682019267ffffffffffffffff8411838510176103a757508291826103a39252826108ec565b0390f35b604190634e487b7160e01b5f525260245ffd5b5f878152929350837f8a35acfbc15ff81a39ae7d344fd709f28e8600b4aa8c65c6b64bfe7fe36bd19b5b8385106103fa57505050508301015f8080610371565b8054888601830152930192849082016103e4565b60ff1916878501525050151560051b84010190505f8080610371565b602289634e487b7160e01b5f525260245ffd5b91607f1691610352565b823461015d575f36600319011261015d5760055490516001600160a01b039091168152602090f35b823461015d575f36600319011261015d57517f00000000000000000000000000000000000000000000000000000000000000006001600160a01b03168152602090f35b3461015d575f36600319011261015d576104ca610a1c565b600580546001600160a01b031981169091555f906001600160a01b03167f8be0079c531659141344cd1fd0a4f28419497f9722a3daafe3b4186f6b6457e08280a3005b823461015d57602036600319011261015d576020906001600160a01b03610532610916565b165f525f8252805f20549051908152f35b50903461015d578060031936011261015d5761055d610916565b60243591906001600160a01b03907f00000000000000000000000000000000000000000000000000000000000000008216330361061357169283156105fe57600254908382018092116105eb57505f927fddf252ad1be2c89b69c2b068fc378daa952ba7f163c4a11628f55a4df523b3ef9260209260025585855284835280852082815401905551908152a3005b601190634e487b7160e01b5f525260245ffd5b5f602492519163ec442f0560e01b8352820152fd5b82516323f09b3960e21b81528590fd5b823461015d575f36600319011261015d576020905160128152f35b503461015d57606036600319011261015d57610658610916565b61066061092c565b906044359260018060a01b038216805f526001602052855f20335f52602052855f2054915f19830361069b575b6020876101d3888888610942565b8583106107035781156106ed5733156106d757505f908152600160209081528682203383528152908690209185900390915582906101d361068d565b6024905f885191634a1406b160e11b8352820152fd5b6024905f88519163e602df0560e01b8352820152fd5b8651637dc7a0d960e11b8152339181019182526020820193909352604081018690528291506060010390fd5b823461015d575f36600319011261015d576020906002549051908152f35b50903461015d578060031936011261015d57610767610916565b6024359033156107e0576001600160a01b03169081156107ca5760209350335f5260018452825f20825f52845280835f205582519081527f8c5be1e5ebec7d5bd14f71427d1e84f3dd0314c0f7b2291e5b200ac8c7c3b925843392a35160018152f35b8251634a1406b160e11b81525f81860152602490fd5b825163e602df0560e01b81525f81860152602490fd5b9050823461015d575f36600319011261015d575f60035460018160011c90600183169283156108e2575b602093848410811461042a578388529081156108c6575060011461087057505050829003601f01601f191682019267ffffffffffffffff8411838510176103a757508291826103a39252826108ec565b60035f908152929350837fc2575a0e9e593c00f959f8c92f12db2869c3395a3b0502d05e2516446f71f85b5b8385106108b25750505050830101848080610371565b80548886018301529301928490820161089c565b60ff1916878501525050151560051b8401019050848080610371565b91607f1691610820565b602060409281835280519182918282860152018484015e5f828201840152601f01601f1916010190565b600435906001600160a01b038216820361015d57565b602435906001600160a01b038216820361015d57565b916001600160a01b03808416928315610a0457169283156109ec57825f525f60205260405f2054908282106109ba5750817fddf252ad1be2c89b69c2b068fc378daa952ba7f163c4a11628f55a4df523b3ef92602092855f525f84520360405f2055845f5260405f20818154019055604051908152a3565b60405163391434e360e21b81526001600160a01b03919091166004820152602481019190915260448101829052606490fd5b60405163ec442f0560e01b81525f6004820152602490fd5b604051634b637e8f60e11b81525f6004820152602490fd5b6005546001600160a01b03163303610a3057565b60405163118cdaa760e01b8152336004820152602490fdfea2646970667358221220bec80a4acd59dcf63b52d2d79f4fbeecd6f89a54c8871faeadd41178eaa21ae264736f6c63430008190033","linkReferences":{}},"methodIdentifiers":{"allowance(address,address)":"dd62ed3e","approve(address,uint256)":"095ea7b3","balanceOf(address)":"70a08231","burn(address,uint256)":"9dc29fac","decimals()":"313ce567","lendingPool()":"a59a9973","mint(address,uint256)":"40c10f19","name()":"06fdde03","owner()":"8da5cb5b","renounceOwnership()":"715018a6","symbol()":"95d89b41","totalSupply()":"18160ddd","transfer(address,uint256)":"a9059cbb","transferFrom(address,address,uint256)":"23b872dd","transferOwnership(address)":"f2fde38b","underlyingAsset()":"7158da7c"},"id":165}