{"abi":[{"type":"constructor","inputs":[{"name":"name","type":"string","internalType":"string"},{"name":"symbol","type":"string","internalType":"string"},{"name":"_underlyingAsset","type":"address","internalType":"address"},{"name":"_lendingPool","type":"address","internalType":"address"}],"stateMutability":"nonpayable"},{"type":"function","name":"allowance","inputs":[{"name":"owner","type":"address","internalType":"address"},{"name":"spender","type":"address","internalType":"address"}],"outputs":[{"name":"","type":"uint256","internalType":"uint256"}],"stateMutability":"view"},{"type":"function","name":"approve","inputs":[{"name":"spender","type":"address","internalType":"address"},{"name":"value","type":"uint256","internalType":"uint256"}],"outputs":[{"name":"","type":"bool","internalType":"bool"}],"stateMutability":"nonpayable"},{"type":"function","name":"balanceOf","inputs":[{"name":"account","type":"address","internalType":"address"}],"outputs":[{"name":"","type":"uint256","internalType":"uint256"}],"stateMutability":"view"},{"type":"function","name":"burn","inputs":[{"name":"user","type":"address","internalType":"address"},{"name":"amount","type":"uint256","internalType":"uint256"}],"outputs":[],"stateMutability":"nonpayable"},{"type":"function","name":"decimals","inputs":[],"outputs":[{"name":"","type":"uint8","internalType":"uint8"}],"stateMutability":"view"},{"type":"function","name":"lendingPool","inputs":[],"outputs":[{"name":"","type":"address","internalType":"address"}],"stateMutability":"view"},{"type":"function","name":"mint","inputs":[{"name":"user","type":"address","internalType":"address"},{"name":"amount","type":"uint256","internalType":"uint256"}],"outputs":[],"stateMutability":"nonpayable"},{"type":"function","name":"name","inputs":[],"outputs":[{"name":"","type":"string","internalType":"string"}],"stateMutability":"view"},{"type":"function","name":"owner","inputs":[],"outputs":[{"name":"","type":"address","internalType":"address"}],"stateMutability":"view"},{"type":"function","name":"renounceOwnership","inputs":[],"outputs":[],"stateMutability":"nonpayable"},{"type":"function","name":"symbol","inputs":[],"outputs":[{"name":"","type":"string","internalType":"string"}],"stateMutability":"view"},{"type":"function","name":"totalSupply","inputs":[],"outputs":[{"name":"","type":"uint256","internalType":"uint256"}],"stateMutability":"view"},{"type":"function","name":"transfer","inputs":[{"name":"to","type":"address","internalType":"address"},{"name":"value","type":"uint256","internalType":"uint256"}],"outputs":[{"name":"","type":"bool","internalType":"bool"}],"stateMutability":"nonpayable"},{"type":"function","name":"transferFrom","inputs":[{"name":"from","type":"address","internalType":"address"},{"name":"to","type":"address","internalType":"address"},{"name":"value","type":"uint256","internalType":"uint256"}],"outputs":[{"name":"","type":"bool","internalType":"bool"}],"stateMutability":"nonpayable"},{"type":"function","name":"transferOwnership","inputs":[{"name":"newOwner","type":"address","internalType":"address"}],"outputs":[],"stateMutability":"nonpayable"},{"type":"function","name":"underlyingAsset","inputs":[],"outputs":[{"name":"","type":"address","internalType":"address"}],"stateMutability":"view"},{"type":"event","name":"Approval","inputs":[{"name":"owner","type":"address","indexed":true,"internalType":"address"},{"name":"spender","type":"address","indexed":true,"internalType":"address"},{"name":"value","type":"uint256","indexed":false,"internalType":"uint256"}],"anonymous":false},{"type":"event","name":"OwnershipTransferred","inputs":[{"name":"previousOwner","type":"address","indexed":true,"internalType":"address"},{"name":"newOwner","type":"address","indexed":true,"internalType":"address"}],"anonymous":false},{"type":"event","name":"Transfer","inputs":[{"name":"from","type":"address","indexed":true,"internalType":"address"},{"name":"to","type":"address","indexed":true,"internalType":"address"},{"name":"value","type":"uint256","indexed":false,"internalType":"uint256"}],"anonymous":false},{"type":"error","name":"ERC20InsufficientAllowance","inputs":[{"name":"spender","type":"address","internalType":"address"},{"name":"allowance","type":"uint256","internalType":"uint256"},{"name":"needed","type":"uint256","internalType":"uint256"}]},{"type":"error","name":"ERC20InsufficientBalance","inputs":[{"name":"sender","type":"address","internalType":"address"},{"name":"balance","type":"uint256","internalType":"uint256"},{"name":"needed","type":"uint256","internalType":"uint256"}]},{"type":"error","name":"ERC20InvalidApprover","inputs":[{"name":"approver","type":"address","internalType":"address"}]},{"type":"error","name":"ERC20InvalidReceiver","inputs":[{"name":"receiver","type":"address","internalType":"address"}]},{"type":"error","name":"ERC20InvalidSender","inputs":[{"name":"sender","type":"address","internalType":"address"}]},{"type":"error","name":"ERC20InvalidSpender","inputs":[{"name":"spender","type":"address","internalType":"address"}]},{"type":"error","name":"OnlyLendingPool","inputs":[]},{"type":"error","name":"OwnableInvalidOwner","inputs":[{"name":"owner","type":"address","internalType":"address"}]},{"type":"error","name":"OwnableUnauthorizedAccount","inputs":[{"name":"account","type":"address","internalType":"address"}]}],"bytecode":{"object":"0x60c0604052346103795761123f803803806100198161037d565b92833981016080828203126103795781516001600160401b03919082811161037957816100479185016103a2565b6020918285015190848211610379576100619186016103a2565b9261007a6060610073604088016103f3565b96016103f3565b938251828111610290576003918254916001958684811c9416801561036f575b8885101461035b578190601f9485811161030d575b5088908583116001146102af575f926102a4575b50505f1982861b1c191690861b1783555b80519384116102905760049586548681811c91168015610286575b8282101461027357838111610230575b50809285116001146101cb57509383949184925f956101c0575b50501b925f19911b1c19161781555b33156101a9575060058054336001600160a01b0319821681179092556040519391906001600160a01b03167f8be0079c531659141344cd1fd0a4f28419497f9722a3daafe3b4186f6b6457e05f80a360805260a052610e37908161040882396080518161061b015260a05181818161024b015281816102a601526107380152f35b6024905f60405191631e4fbdf760e01b8352820152fd5b015193505f80610119565b92919084601f198116885f52855f20955f905b8983831061021657505050106101fd575b50505050811b018155610128565b01519060f8845f19921b161c191690555f8080806101ef565b8587015189559097019694850194889350908101906101de565b875f52815f208480880160051c82019284891061026a575b0160051c019087905b82811061025f5750506100ff565b5f8155018790610251565b92508192610248565b602288634e487b7160e01b5f525260245ffd5b90607f16906100ef565b634e487b7160e01b5f52604160045260245ffd5b015190505f806100c3565b90889350601f19831691875f528a5f20925f5b8c8282106102f757505084116102e0575b505050811b0183556100d4565b01515f1983881b60f8161c191690555f80806102d3565b8385015186558c979095019493840193016102c2565b909150855f52885f208580850160051c8201928b8610610352575b918a91869594930160051c01915b8281106103445750506100af565b5f81558594508a9101610336565b92508192610328565b634e487b7160e01b5f52602260045260245ffd5b93607f169361009a565b5f80fd5b6040519190601f01601f191682016001600160401b0381118382101761029057604052565b81601f82011215610379578051906001600160401b038211610290576103d1601f8301601f191660200161037d565b928284526020838301011161037957815f9260208093018386015e8301015290565b51906001600160a01b03821682036103795756fe608060409080825260049081361015610016575f80fd5b5f3560e01c90816306fdde0314610ac157508063095ea7b3146109d957806318160ddd146109bb57806323b872dd14610852578063313ce5671461083757806340c10f191461070057806370a08231146106bd578063715018a61461063f5780637158da7c146105ef5780638da5cb5b146105bb57806395d89b41146103e15780639dc29fac1461026f578063a59a99731461021f578063a9059cbb146101ef578063dd62ed3e146101985763f2fde38b146100d0575f80fd5b34610194576020600319360112610194576100e9610c2d565b906100f2610db0565b73ffffffffffffffffffffffffffffffffffffffff809216928315610165575050600554827fffffffffffffffffffffffff0000000000000000000000000000000000000000821617600555167f8be0079c531659141344cd1fd0a4f28419497f9722a3daafe3b4186f6b6457e05f80a3005b905f60249251917f1e4fbdf7000000000000000000000000000000000000000000000000000000008352820152fd5b5f80fd5b82346101945780600319360112610194576020906101b4610c2d565b6101bc610c50565b9073ffffffffffffffffffffffffffffffffffffffff8091165f5260018452825f2091165f528252805f20549051908152f35b823461019457806003193601126101945760209061021861020e610c2d565b6024359033610c73565b5160018152f35b8234610194575f600319360112610194576020905173ffffffffffffffffffffffffffffffffffffffff7f0000000000000000000000000000000000000000000000000000000000000000168152f35b509034610194578060031936011261019457610289610c2d565b906024359273ffffffffffffffffffffffffffffffffffffffff807f00000000000000000000000000000000000000000000000000000000000000001633036103b957831692831561038a57835f525f602052825f20549185831061032b575f857fddf252ad1be2c89b69c2b068fc378daa952ba7f163c4a11628f55a4df523b3ef6020898881898688528785520381872055816002540360025551908152a3005b610386868486519485947fe450d38c000000000000000000000000000000000000000000000000000000008652850160409194939273ffffffffffffffffffffffffffffffffffffffff606083019616825260208201520152565b0390fd5b505f60249251917f96c6fd1e000000000000000000000000000000000000000000000000000000008352820152fd5b5090517f8fc26ce4000000000000000000000000000000000000000000000000000000008152fd5b5034610194575f6003193601126101945781515f928254936001948060011c600182169687156105b1575b602092838310891461058557869798838897985290815f1461052a57506001146104af575b50505003601f017fffffffffffffffffffffffffffffffffffffffffffffffffffffffffffffffe01682019267ffffffffffffffff841183851017610483575082918261047f925282610be5565b0390f35b6041907f4e487b71000000000000000000000000000000000000000000000000000000005f525260245ffd5b5f888152929493507f8a35acfbc15ff81a39ae7d344fd709f28e8600b4aa8c65c6b64bfe7fe36bd19b5b82841061051457505050907fffffffffffffffffffffffffffffffffffffffffffffffffffffffffffffffe092601f92820101918193610431565b80548885018701528794509285019281016104d9565b7fffffffffffffffffffffffffffffffffffffffffffffffffffffffffffffff0016848701525050151560051b830101905081601f7fffffffffffffffffffffffffffffffffffffffffffffffffffffffffffffffe0610431565b6022887f4e487b71000000000000000000000000000000000000000000000000000000005f525260245ffd5b90607f169061040c565b8234610194575f6003193601126101945760209073ffffffffffffffffffffffffffffffffffffffff600554169051908152f35b8234610194575f600319360112610194576020905173ffffffffffffffffffffffffffffffffffffffff7f0000000000000000000000000000000000000000000000000000000000000000168152f35b34610194575f60031936011261019457610657610db0565b5f73ffffffffffffffffffffffffffffffffffffffff6005547fffffffffffffffffffffffff00000000000000000000000000000000000000008116600555167f8be0079c531659141344cd1fd0a4f28419497f9722a3daafe3b4186f6b6457e08280a3005b82346101945760206003193601126101945760209073ffffffffffffffffffffffffffffffffffffffff6106ef610c2d565b165f525f8252805f20549051908152f35b50903461019457806003193601126101945761071a610c2d565b906024359173ffffffffffffffffffffffffffffffffffffffff90817f000000000000000000000000000000000000000000000000000000000000000016330361080f57169283156107e157600254908382018092116107b557505f927fddf252ad1be2c89b69c2b068fc378daa952ba7f163c4a11628f55a4df523b3ef9260209260025585855284835280852082815401905551908152a3005b6011907f4e487b71000000000000000000000000000000000000000000000000000000005f525260245ffd5b5f60249251917fec442f05000000000000000000000000000000000000000000000000000000008352820152fd5b8483517f8fc26ce4000000000000000000000000000000000000000000000000000000008152fd5b8234610194575f600319360112610194576020905160128152f35b50346101945760606003193601126101945761086c610c2d565b610874610c50565b906044359273ffffffffffffffffffffffffffffffffffffffff8216805f526001602052855f20335f52602052855f2054917fffffffffffffffffffffffffffffffffffffffffffffffffffffffffffffffff83036108dc575b602087610218888888610c73565b85831061097657811561094757331561091857505f908152600160209081528682203383528152908690209185900390915582906102186108ce565b6024905f8851917f94280d62000000000000000000000000000000000000000000000000000000008352820152fd5b6024905f8851917fe602df05000000000000000000000000000000000000000000000000000000008352820152fd5b86517ffb8f41b2000000000000000000000000000000000000000000000000000000008152339181019182526020820193909352604081018690528291506060010390fd5b8234610194575f600319360112610194576020906002549051908152f35b5090346101945780600319360112610194576109f3610c2d565b602435903315610a925773ffffffffffffffffffffffffffffffffffffffff16908115610a635760209350335f5260018452825f20825f52845280835f205582519081527f8c5be1e5ebec7d5bd14f71427d1e84f3dd0314c0f7b2291e5b200ac8c7c3b925843392a35160018152f35b6024845f8551917f94280d62000000000000000000000000000000000000000000000000000000008352820152fd5b6024845f8551917fe602df05000000000000000000000000000000000000000000000000000000008352820152fd5b905034610194575f600319360112610194575f92600354936001948060011c60018216968715610bdb575b602092838310891461058557869798838897985290815f1461052a5750600114610b5e5750505003601f017fffffffffffffffffffffffffffffffffffffffffffffffffffffffffffffffe01682019267ffffffffffffffff841183851017610483575082918261047f925282610be5565b60035f908152929493507fc2575a0e9e593c00f959f8c92f12db2869c3395a3b0502d05e2516446f71f85b5b828410610bc557505050907fffffffffffffffffffffffffffffffffffffffffffffffffffffffffffffffe092601f92820101918193610431565b8054888501870152879450928501928101610b8a565b90607f1690610aec565b7fffffffffffffffffffffffffffffffffffffffffffffffffffffffffffffffe0601f602060409481855280519182918282880152018686015e5f8582860101520116010190565b6004359073ffffffffffffffffffffffffffffffffffffffff8216820361019457565b6024359073ffffffffffffffffffffffffffffffffffffffff8216820361019457565b9173ffffffffffffffffffffffffffffffffffffffff808416928315610d805716928315610d5057825f525f60205260405f205490828210610cf85750817fddf252ad1be2c89b69c2b068fc378daa952ba7f163c4a11628f55a4df523b3ef92602092855f525f84520360405f2055845f5260405f20818154019055604051908152a3565b6040517fe450d38c00000000000000000000000000000000000000000000000000000000815273ffffffffffffffffffffffffffffffffffffffff919091166004820152602481019190915260448101829052606490fd5b60246040517fec442f050000000000000000000000000000000000000000000000000000000081525f6004820152fd5b60246040517f96c6fd1e0000000000000000000000000000000000000000000000000000000081525f6004820152fd5b73ffffffffffffffffffffffffffffffffffffffff600554163303610dd157565b60246040517f118cdaa7000000000000000000000000000000000000000000000000000000008152336004820152fdfea264697066735822122023deacfc25fec0264d5b3eedf0fc20e889c2741e5a40a4a052954a7040f58b5564736f6c63430008190033","linkReferences":{}},"methodIdentifiers":{"allowance(address,address)":"dd62ed3e","approve(address,uint256)":"095ea7b3","balanceOf(address)":"70a08231","burn(address,uint256)":"9dc29fac","decimals()":"313ce567","lendingPool()":"a59a9973","mint(address,uint256)":"40c10f19","name()":"06fdde03","owner()":"8da5cb5b","renounceOwnership()":"715018a6","symbol()":"95d89b41","totalSupply()":"18160ddd","transfer(address,uint256)":"a9059cbb","transferFrom(address,address,uint256)":"23b872dd","transferOwnership(address)":"f2fde38b","underlyingAsset()":"7158da7c"},"id":165}