{"abi":[{"type":"constructor","inputs":[],"stateMutability":"nonpayable"},{"type":"function","name":"BRIDGE_MANAGER_ROLE","inputs":[],"outputs":[{"name":"","type":"bytes32","internalType":"bytes32"}],"stateMutability":"view"},{"type":"function","name":"DEFAULT_ADMIN_ROLE","inputs":[],"outputs":[{"name":"","type":"bytes32","internalType":"bytes32"}],"stateMutability":"view"},{"type":"function","name":"DOMAIN_SEPARATOR","inputs":[],"outputs":[{"name":"","type":"bytes32","internalType":"bytes32"}],"stateMutability":"view"},{"type":"function","name":"UPGRADE_INTERFACE_VERSION","inputs":[],"outputs":[{"name":"","type":"string","internalType":"string"}],"stateMutability":"view"},{"type":"function","name":"allowance","inputs":[{"name":"owner","type":"address","internalType":"address"},{"name":"spender","type":"address","internalType":"address"}],"outputs":[{"name":"","type":"uint256","internalType":"uint256"}],"stateMutability":"view"},{"type":"function","name":"approve","inputs":[{"name":"spender","type":"address","internalType":"address"},{"name":"value","type":"uint256","internalType":"uint256"}],"outputs":[{"name":"","type":"bool","internalType":"bool"}],"stateMutability":"nonpayable"},{"type":"function","name":"balanceOf","inputs":[{"name":"account","type":"address","internalType":"address"}],"outputs":[{"name":"","type":"uint256","internalType":"uint256"}],"stateMutability":"view"},{"type":"function","name":"bridges","inputs":[{"name":"","type":"address","internalType":"address"}],"outputs":[{"name":"minterParams","type":"tuple","internalType":"struct IXERC20.BridgeParameters","components":[{"name":"timestamp","type":"uint256","internalType":"uint256"},{"name":"ratePerSecond","type":"uint256","internalType":"uint256"},{"name":"maxLimit","type":"uint256","internalType":"uint256"},{"name":"currentLimit","type":"uint256","internalType":"uint256"}]},{"name":"burnerParams","type":"tuple","internalType":"struct IXERC20.BridgeParameters","components":[{"name":"timestamp","type":"uint256","internalType":"uint256"},{"name":"ratePerSecond","type":"uint256","internalType":"uint256"},{"name":"maxLimit","type":"uint256","internalType":"uint256"},{"name":"currentLimit","type":"uint256","internalType":"uint256"}]}],"stateMutability":"view"},{"type":"function","name":"burn","inputs":[{"name":"_user","type":"address","internalType":"address"},{"name":"_amount","type":"uint256","internalType":"uint256"}],"outputs":[],"stateMutability":"nonpayable"},{"type":"function","name":"burningCurrentLimitOf","inputs":[{"name":"_burner","type":"address","internalType":"address"}],"outputs":[{"name":"","type":"uint256","internalType":"uint256"}],"stateMutability":"view"},{"type":"function","name":"burningMaxLimitOf","inputs":[{"name":"_burner","type":"address","internalType":"address"}],"outputs":[{"name":"","type":"uint256","internalType":"uint256"}],"stateMutability":"view"},{"type":"function","name":"decimals","inputs":[],"outputs":[{"name":"","type":"uint8","internalType":"uint8"}],"stateMutability":"view"},{"type":"function","name":"eip712Domain","inputs":[],"outputs":[{"name":"fields","type":"bytes1","internalType":"bytes1"},{"name":"name","type":"string","internalType":"string"},{"name":"version","type":"string","internalType":"string"},{"name":"chainId","type":"uint256","internalType":"uint256"},{"name":"verifyingContract","type":"address","internalType":"address"},{"name":"salt","type":"bytes32","internalType":"bytes32"},{"name":"extensions","type":"uint256[]","internalType":"uint256[]"}],"stateMutability":"view"},{"type":"function","name":"getRoleAdmin","inputs":[{"name":"role","type":"bytes32","internalType":"bytes32"}],"outputs":[{"name":"","type":"bytes32","internalType":"bytes32"}],"stateMutability":"view"},{"type":"function","name":"grantRole","inputs":[{"name":"role","type":"bytes32","internalType":"bytes32"},{"name":"account","type":"address","internalType":"address"}],"outputs":[],"stateMutability":"nonpayable"},{"type":"function","name":"hasRole","inputs":[{"name":"role","type":"bytes32","internalType":"bytes32"},{"name":"account","type":"address","internalType":"address"}],"outputs":[{"name":"","type":"bool","internalType":"bool"}],"stateMutability":"view"},{"type":"function","name":"initialize","inputs":[{"name":"name","type":"string","internalType":"string"},{"name":"symbol","type":"string","internalType":"string"},{"name":"admin","type":"address","internalType":"address"}],"outputs":[],"stateMutability":"nonpayable"},{"type":"function","name":"initialize","inputs":[{"name":"admin","type":"address","internalType":"address"}],"outputs":[],"stateMutability":"nonpayable"},{"type":"function","name":"lockbox","inputs":[],"outputs":[{"name":"","type":"address","internalType":"address"}],"stateMutability":"view"},{"type":"function","name":"mint","inputs":[{"name":"_user","type":"address","internalType":"address"},{"name":"_amount","type":"uint256","internalType":"uint256"}],"outputs":[],"stateMutability":"nonpayable"},{"type":"function","name":"mintingCurrentLimitOf","inputs":[{"name":"_minter","type":"address","internalType":"address"}],"outputs":[{"name":"","type":"uint256","internalType":"uint256"}],"stateMutability":"view"},{"type":"function","name":"mintingMaxLimitOf","inputs":[{"name":"_minter","type":"address","internalType":"address"}],"outputs":[{"name":"","type":"uint256","internalType":"uint256"}],"stateMutability":"view"},{"type":"function","name":"name","inputs":[],"outputs":[{"name":"","type":"string","internalType":"string"}],"stateMutability":"view"},{"type":"function","name":"nonces","inputs":[{"name":"owner","type":"address","internalType":"address"}],"outputs":[{"name":"","type":"uint256","internalType":"uint256"}],"stateMutability":"view"},{"type":"function","name":"permit","inputs":[{"name":"owner","type":"address","internalType":"address"},{"name":"spender","type":"address","internalType":"address"},{"name":"value","type":"uint256","internalType":"uint256"},{"name":"deadline","type":"uint256","internalType":"uint256"},{"name":"v","type":"uint8","internalType":"uint8"},{"name":"r","type":"bytes32","internalType":"bytes32"},{"name":"s","type":"bytes32","internalType":"bytes32"}],"outputs":[],"stateMutability":"nonpayable"},{"type":"function","name":"proxiableUUID","inputs":[],"outputs":[{"name":"","type":"bytes32","internalType":"bytes32"}],"stateMutability":"view"},{"type":"function","name":"renounceRole","inputs":[{"name":"role","type":"bytes32","internalType":"bytes32"},{"name":"callerConfirmation","type":"address","internalType":"address"}],"outputs":[],"stateMutability":"nonpayable"},{"type":"function","name":"revokeRole","inputs":[{"name":"role","type":"bytes32","internalType":"bytes32"},{"name":"account","type":"address","internalType":"address"}],"outputs":[],"stateMutability":"nonpayable"},{"type":"function","name":"setLimits","inputs":[{"name":"_bridge","type":"address","internalType":"address"},{"name":"_mintingLimit","type":"uint256","internalType":"uint256"},{"name":"_burningLimit","type":"uint256","internalType":"uint256"}],"outputs":[],"stateMutability":"nonpayable"},{"type":"function","name":"setLockbox","inputs":[{"name":"_lockbox","type":"address","internalType":"address"}],"outputs":[],"stateMutability":"nonpayable"},{"type":"function","name":"supportsInterface","inputs":[{"name":"interfaceId","type":"bytes4","internalType":"bytes4"}],"outputs":[{"name":"","type":"bool","internalType":"bool"}],"stateMutability":"view"},{"type":"function","name":"symbol","inputs":[],"outputs":[{"name":"","type":"string","internalType":"string"}],"stateMutability":"view"},{"type":"function","name":"totalSupply","inputs":[],"outputs":[{"name":"","type":"uint256","internalType":"uint256"}],"stateMutability":"view"},{"type":"function","name":"transfer","inputs":[{"name":"to","type":"address","internalType":"address"},{"name":"value","type":"uint256","internalType":"uint256"}],"outputs":[{"name":"","type":"bool","internalType":"bool"}],"stateMutability":"nonpayable"},{"type":"function","name":"transferFrom","inputs":[{"name":"from","type":"address","internalType":"address"},{"name":"to","type":"address","internalType":"address"},{"name":"value","type":"uint256","internalType":"uint256"}],"outputs":[{"name":"","type":"bool","internalType":"bool"}],"stateMutability":"nonpayable"},{"type":"function","name":"upgradeToAndCall","inputs":[{"name":"newImplementation","type":"address","internalType":"address"},{"name":"data","type":"bytes","internalType":"bytes"}],"outputs":[],"stateMutability":"payable"},{"type":"event","name":"Approval","inputs":[{"name":"owner","type":"address","indexed":true,"internalType":"address"},{"name":"spender","type":"address","indexed":true,"internalType":"address"},{"name":"value","type":"uint256","indexed":false,"internalType":"uint256"}],"anonymous":false},{"type":"event","name":"BridgeLimitsSet","inputs":[{"name":"mintingLimit","type":"uint256","indexed":false,"internalType":"uint256"},{"name":"burningLimit","type":"uint256","indexed":false,"internalType":"uint256"},{"name":"bridge","type":"address","indexed":true,"internalType":"address"}],"anonymous":false},{"type":"event","name":"EIP712DomainChanged","inputs":[],"anonymous":false},{"type":"event","name":"Initialized","inputs":[{"name":"version","type":"uint64","indexed":false,"internalType":"uint64"}],"anonymous":false},{"type":"event","name":"LockboxSet","inputs":[{"name":"lockbox","type":"address","indexed":true,"internalType":"address"}],"anonymous":false},{"type":"event","name":"RoleAdminChanged","inputs":[{"name":"role","type":"bytes32","indexed":true,"internalType":"bytes32"},{"name":"previousAdminRole","type":"bytes32","indexed":true,"internalType":"bytes32"},{"name":"newAdminRole","type":"bytes32","indexed":true,"internalType":"bytes32"}],"anonymous":false},{"type":"event","name":"RoleGranted","inputs":[{"name":"role","type":"bytes32","indexed":true,"internalType":"bytes32"},{"name":"account","type":"address","indexed":true,"internalType":"address"},{"name":"sender","type":"address","indexed":true,"internalType":"address"}],"anonymous":false},{"type":"event","name":"RoleRevoked","inputs":[{"name":"role","type":"bytes32","indexed":true,"internalType":"bytes32"},{"name":"account","type":"address","indexed":true,"internalType":"address"},{"name":"sender","type":"address","indexed":true,"internalType":"address"}],"anonymous":false},{"type":"event","name":"Transfer","inputs":[{"name":"from","type":"address","indexed":true,"internalType":"address"},{"name":"to","type":"address","indexed":true,"internalType":"address"},{"name":"value","type":"uint256","indexed":false,"internalType":"uint256"}],"anonymous":false},{"type":"event","name":"Upgraded","inputs":[{"name":"implementation","type":"address","indexed":true,"internalType":"address"}],"anonymous":false},{"type":"error","name":"AccessControlBadConfirmation","inputs":[]},{"type":"error","name":"AccessControlUnauthorizedAccount","inputs":[{"name":"account","type":"address","internalType":"address"},{"name":"neededRole","type":"bytes32","internalType":"bytes32"}]},{"type":"error","name":"AddressEmptyCode","inputs":[{"name":"target","type":"address","internalType":"address"}]},{"type":"error","name":"ECDSAInvalidSignature","inputs":[]},{"type":"error","name":"ECDSAInvalidSignatureLength","inputs":[{"name":"length","type":"uint256","internalType":"uint256"}]},{"type":"error","name":"ECDSAInvalidSignatureS","inputs":[{"name":"s","type":"bytes32","internalType":"bytes32"}]},{"type":"error","name":"ERC1967InvalidImplementation","inputs":[{"name":"implementation","type":"address","internalType":"address"}]},{"type":"error","name":"ERC1967NonPayable","inputs":[]},{"type":"error","name":"ERC20InsufficientAllowance","inputs":[{"name":"spender","type":"address","internalType":"address"},{"name":"allowance","type":"uint256","internalType":"uint256"},{"name":"needed","type":"uint256","internalType":"uint256"}]},{"type":"error","name":"ERC20InsufficientBalance","inputs":[{"name":"sender","type":"address","internalType":"address"},{"name":"balance","type":"uint256","internalType":"uint256"},{"name":"needed","type":"uint256","internalType":"uint256"}]},{"type":"error","name":"ERC20InvalidApprover","inputs":[{"name":"approver","type":"address","internalType":"address"}]},{"type":"error","name":"ERC20InvalidReceiver","inputs":[{"name":"receiver","type":"address","internalType":"address"}]},{"type":"error","name":"ERC20InvalidSender","inputs":[{"name":"sender","type":"address","internalType":"address"}]},{"type":"error","name":"ERC20InvalidSpender","inputs":[{"name":"spender","type":"address","internalType":"address"}]},{"type":"error","name":"ERC2612ExpiredSignature","inputs":[{"name":"deadline","type":"uint256","internalType":"uint256"}]},{"type":"error","name":"ERC2612InvalidSigner","inputs":[{"name":"signer","type":"address","internalType":"address"},{"name":"owner","type":"address","internalType":"address"}]},{"type":"error","name":"FailedInnerCall","inputs":[]},{"type":"error","name":"IXERC20_INVALID_0_VALUE","inputs":[]},{"type":"error","name":"IXERC20_NotFactory","inputs":[]},{"type":"error","name":"IXERC20_NotHighEnoughLimits","inputs":[]},{"type":"error","name":"InvalidAccountNonce","inputs":[{"name":"account","type":"address","internalType":"address"},{"name":"currentNonce","type":"uint256","internalType":"uint256"}]},{"type":"error","name":"InvalidInitialization","inputs":[]},{"type":"error","name":"NotInitializing","inputs":[]},{"type":"error","name":"UUPSUnauthorizedCallContext","inputs":[]},{"type":"error","name":"UUPSUnsupportedProxiableUUID","inputs":[{"name":"slot","type":"bytes32","internalType":"bytes32"}]}],"bytecode":{"object":"0x60a060405234603757306080526012603b565b6018603b565b604051612eba90816100d782396080518181816114f401526115ad0152f35b5f80fd5b7ff0c57e16840df040f15088dc2f81fe391c3923bec73e23a9662efc9c229c6a00805460ff8160401c1660c4576001600160401b036002600160401b031982821601608557505050565b6001600160401b031990911681179091556040519081527fc7f505b2f371ae2175ee4913f4499e1f2633a7b5936321eed1cdaeb6115181d290602090a1565b60405163f92ee8a960e01b8152600490fdfe6080806040526004361015610012575f80fd5b5f3560e01c90816301ffc9a7146121de5750806306fdde031461213b578063077f224a14611b06578063095ea7b314611ae05780630c05f82c14611aa557806318160ddd14611a6957806323b872dd14611a31578063248a9ca3146119f85780632f2ff15d146119af578063313ce567146119945780633644e5151461197a57806336568abe1461193357806340c10f19146117ed578063435350b7146117885780634f1ef2861461155e57806352d1902d146114e2578063651fd2681461149857806366cc57021461147157806370a082311461142d5780637ecebe00146113d657806384b0196e146112a457806391d148541461124f57806395d89b4114611175578063998955d3146111205780639dc29fac14610f64578063a08d565414610dc8578063a217fddf14610dae578063a9059cbb14610d7d578063ad3cb1cc14610d34578063c1eb713714610cf9578063c4d66de81461049a578063ced67f0c146103ff578063d505accf14610278578063d547741f1461022d578063dd62ed3e146101e65763f75e8512146101a8575f80fd5b346101e2575f3660031901126101e25760206040517fcce296b040332a080e6df13515a3ec2869e21cd20f7344af0987ddb938d8bd218152f35b5f80fd5b346101e25760403660031901126101e2576101ff612300565b61021061020a612316565b9161232c565b9060018060a01b03165f52602052602060405f2054604051908152f35b346101e25760403660031901126101e25761027660043561024c612316565b90805f525f80516020612e05833981519152602052610271600160405f200154612903565b612931565b005b346101e25760e03660031901126101e257610291612300565b610299612316565b60443590606435926084359360ff851685036101e2578042116103e75760018060a01b039081831695865f527f5ab42ced628888259c08ac98db1eb0cf702fc1501344311d8b100cd1bfe4bb0060205260405f20908154916001830190556040519260208401927f6e71edae12b1b97f4d1f60370fef10105fa2faae0126114a169c64845d6126c98452896040860152858816606086015288608086015260a085015260c084015260c0835260e08301918383106001600160401b038411176103d3576103a29361039993604052519020610372612ab3565b906040519161190160f01b83526002830152602282015260c43591604260a4359220612b28565b90929192612bb5565b168481036103b557506102769350612a57565b60449085604051916325c0072360e11b835260048301526024820152fd5b634e487b7160e01b5f52604160045260245ffd5b6024906040519063313c898160e11b82526004820152fd5b346101e25760203660031901126101e2576001600160a01b03610420612300565b165f52600160205261010060405f20610498610447600461044084612364565b9301612364565b6104726040518094606080918051845260208101516020850152604081015160408501520151910152565b80516080840152602081015160a0840152604081015160c08401526060015160e0830152565bf35b346101e25760203660031901126101e2576104b3612300565b7ff0c57e16840df040f15088dc2f81fe391c3923bec73e23a9662efc9c229c6a0080546001600160401b03811680159081610ce9575b6001149081610cdf575b159081610cd6575b50610c82576001600160401b0319600181831617835560ff8260401c1615610cb7575b6040519361052b85612255565b601085526f43726f73732d436861696e20414e444560801b602086015260405161055481612255565b600581526478414e444560d81b60208201528454926001600160401b03841680159081610ca7575b6001149081610c9d575b159081610c94575b50610c8257600190841617855560ff8360401c1615610c63575b6105b0612a16565b6105b8612a16565b85516001600160401b0381116103d3576105df5f80516020612d45833981519152546123a6565b601f8111610bef575b50806020601f8211600114610b68575f91610b5d575b508160011b915f199060031b1c1916175f80516020612d45833981519152555b8051906001600160401b0382116103d35781906106485f80516020612da5833981519152546123a6565b601f8111610adf575b50602090601f8311600114610a53575f92610a48575b50508160011b915f199060031b1c1916175f80516020612da5833981519152555b610690612a16565b6040519461069d86612255565b60018652603160f81b60208701526106b3612a16565b8051906001600160401b0382116103d35781906106dd5f80516020612d85833981519152546123a6565b601f81116109ca575b50602090601f831160011461093e575f92610933575b50508160011b915f199060031b1c1916175f80516020612d85833981519152555b84516001600160401b0381116103d3577fa16a46d94261c7517cc8ff89f61c0ce93598e3c849801011dee649a6a557d1039061075982546123a6565b601f81116108e4575b506020601f821160011461086d57918160ff9798926107d994899796945f92610862575b50508160011b915f199060031b1c19161790555b5f5f80516020612dc5833981519152555f5f80516020612e45833981519152556107c2612a16565b6107ca612a16565b6107d38161254c565b506125e9565b5060401c1615610827575b60401c16156107ef57005b60ff60401b1981541690557fc7f505b2f371ae2175ee4913f4499e1f2633a7b5936321eed1cdaeb6115181d2602060405160018152a1005b60ff60401b1983541683557fc7f505b2f371ae2175ee4913f4499e1f2633a7b5936321eed1cdaeb6115181d2602060405160018152a16107e4565b015190508a80610786565b601f19821697835f525f80516020612e65833981519152985f5b8181106108cc57509260ff98996107d99593600193838c9a9997106108b4575b505050811b01905561079a565b01515f1960f88460031b161c191690558a80806108a7565b838301518b556001909a019960209384019301610887565b825f525f80516020612e65833981519152601f830160051c81019160208410610929575b601f0160051c01905b81811061091e5750610762565b5f8155600101610911565b9091508190610908565b0151905087806106fc565b92505f80516020612d858339815191525f525f80516020612de5833981519152905f935b601f19841685106109af576001945083601f19811610610997575b505050811b015f80516020612d858339815191525561071d565b01515f1960f88460031b161c1916905587808061097d565b81810151835560209485019460019093019290910190610962565b9091505f80516020612d858339815191525f52601f830160051c5f80516020612de5833981519152019060208410610a33575b90601f8493920160051c5f80516020612de583398151915201905b818110610a2557506106e6565b5f8155849350600101610a18565b5f80516020612de583398151915291506109fd565b015190508780610667565b92505f80516020612da58339815191525f525f80516020612e25833981519152905f935b601f1984168510610ac4576001945083601f19811610610aac575b505050811b015f80516020612da583398151915255610688565b01515f1960f88460031b161c19169055878080610a92565b81810151835560209485019460019093019290910190610a77565b9091505f80516020612da58339815191525f52601f830160051c5f80516020612e25833981519152019060208410610b48575b90601f8493920160051c5f80516020612e2583398151915201905b818110610b3a5750610651565b5f8155849350600101610b2d565b5f80516020612e258339815191529150610b12565b9050870151886105fe565b91505f80516020612d458339815191525f525f80516020612d258339815191525f925b601f1983168410610bd7576001935082601f19811610610bbf575b5050811b015f80516020612d458339815191525561061e565b8901515f1960f88460031b161c191690558880610ba6565b89810151825560209384019360019092019101610b8b565b5f80516020612d458339815191525f52601f820160051c5f80516020612d25833981519152019060208310610c4e575b601f0160051c5f80516020612d2583398151915201905b818110610c4357506105e8565b5f8155600101610c36565b5f80516020612d258339815191529150610c1f565b68ffffffffffffffffff198316680100000000000000011785556105a8565b60405163f92ee8a960e01b8152600490fd5b9050158861058e565b303b159150610586565b604086901c60ff1615915061057c565b68ffffffffffffffffff1982166801000000000000000117835561051e565b905015846104fb565b303b1591506104f3565b604083901c60ff161591506104e9565b346101e25760203660031901126101e2576001600160a01b03610d1a612300565b165f5260016020526020600660405f200154604051908152f35b346101e2575f3660031901126101e257610d79604051610d5381612255565b60058152640352e302e360dc1b6020820152604051918291602083526020830190612231565b0390f35b346101e25760403660031901126101e257610da3610d99612300565b60243590336127f4565b602060405160018152f35b346101e2575f3660031901126101e25760206040515f8152f35b346101e25760603660031901126101e257610de1612300565b6024356044357fcce296b040332a080e6df13515a3ec2869e21cd20f7344af0987ddb938d8bd2192835f526020935f80516020612e05833981519152855260405f20335f52855260ff60405f20541615610f465750916040917f93f3bbfe8cfb354ec059175107653f49f6eb479a8622a7d83866ea015435c9449360018060a01b031694855f5260018152835f2080549081155f14610f18575050825b865f5260018252845f2042815562015180918286046001830155856002830155600382015560048101549081155f14610ee3575050600783915b885f5260018452865f20904260048301558504600582015584600682015501558351928352820152a2005b610efd9160078201549160056006820154910154926129de565b83811115610f1057506007835b91610eb8565b600790610f0a565b610f329160038201549160016002820154910154926129de565b83811115610f41575082610e7e565b610e7e565b6044906040519063e2517d3f60e01b82523360048301526024820152fd5b346101e25760403660031901126101e257610f7d612300565b6001600160a01b03818116906024359033839003611110575b5f54163303611075575b811561105d57815f525f80516020612d658339815191528060205260405f20549382851061102c5750817fddf252ad1be2c89b69c2b068fc378daa952ba7f163c4a11628f55a4df523b3ef925f9560209386885284520360408620557f52c63247e1f47db19d5ce0460030c497f067ca4cebf71ba98eeadabe20bace02818154039055604051908152a3005b60405163391434e360e21b81526001600160a01b039190911660048201526024810185905260448101839052606490fd5b604051634b637e8f60e11b81525f6004820152602490fd5b335f526001602052806110a060405f20600781015490600681015460056004830154920154926129de565b106110fe57335f5260016020526110e9816110d360405f20600781015490600681015460056004830154920154926129de565b335f52600160205242600460405f2001556129b0565b335f526001602052600760405f200155610fa0565b6040516305b4215560e11b8152600490fd5b61111b82338661272c565b610f96565b346101e25760203660031901126101e2576001600160a01b03611141612300565b165f526001602052602061116d60405f20600781015490600681015460056004830154920154926129de565b604051908152f35b346101e2575f3660031901126101e2576040515f80516020612da58339815191528054825f6111a3836123a6565b92838352602094600191866001821691825f1461122d5750506001146111e6575b50506111d292500383612270565b610d79604051928284938452830190612231565b8592505f525f80516020612e25833981519152905f915b8583106112155750506111d2935082010185806111c4565b805483890185015287945086939092019181016111fd565b92509350506111d294915060ff191682840152151560051b82010185806111c4565b346101e25760403660031901126101e257611268612316565b6004355f525f80516020612e0583398151915260205260405f209060018060a01b03165f52602052602060ff60405f2054166040519015158152f35b346101e2575f3660031901126101e2575f80516020612dc58339815191525415806113c0575b15611383576112d76123de565b6112df6124a0565b6040516020808201928284106001600160401b038511176103d357916020611338859461132a97966040525f8452604051978897600f60f81b895260e0858a015260e0890190612231565b908782036040890152612231565b914660608701523060808701525f60a087015285830360c087015251918281520192915f5b82811061136c57505050500390f35b83518552869550938101939281019260010161135d565b60405162461bcd60e51b81526020600482015260156024820152741152540dcc4c8e88155b9a5b9a5d1a585b1a5e9959605a1b6044820152606490fd5b505f80516020612e4583398151915254156112ca565b346101e25760203660031901126101e2576001600160a01b036113f7612300565b165f527f5ab42ced628888259c08ac98db1eb0cf702fc1501344311d8b100cd1bfe4bb00602052602060405f2054604051908152f35b346101e25760203660031901126101e2576001600160a01b0361144e612300565b165f525f80516020612d65833981519152602052602060405f2054604051908152f35b346101e2575f3660031901126101e2575f546040516001600160a01b039091168152602090f35b346101e25760203660031901126101e2576001600160a01b036114b9612300565b165f526001602052602061116d60405f20600381015490600281015460018254920154926129de565b346101e2575f3660031901126101e2577f00000000000000000000000000000000000000000000000000000000000000006001600160a01b0316300361154c5760206040517f360894a13ba1a3210667c828492db98dca3e2076cc3735a920a3ca505d382bbc8152f35b60405163703e46dd60e11b8152600490fd5b60403660031901126101e257611572612300565b6024356001600160401b0381116101e257366023820112156101e2576115a29036906024816004013591016122ac565b906001600160a01b037f0000000000000000000000000000000000000000000000000000000000000000811630811490811561175a575b5061154c576115e66128ad565b6040516352d1902d60e01b8152908216916020918281600481875afa5f918161172b575b5061162857604051634c9c8ce360e01b815260048101859052602490fd5b9284937f360894a13ba1a3210667c828492db98dca3e2076cc3735a920a3ca505d382bbc908181036117135750823b156116fa5780546001600160a01b03191682179055604051907fbc7cd75a20ee27fd9adebab32041f755214dbc6bffa90cc0225b39da2e5c2d3b5f80a28351156116e057505f80848461027696519101845af4903d156116d7573d6116bb81612291565b906116c96040519283612270565b81525f81943d92013e612cc1565b60609250612cc1565b92505050346116eb57005b63b398979f60e01b8152600490fd5b604051634c9c8ce360e01b815260048101839052602490fd5b60249060405190632a87526960e21b82526004820152fd5b9091508381813d8311611753575b6117438183612270565b810103126101e25751908661160a565b503d611739565b9050817f360894a13ba1a3210667c828492db98dca3e2076cc3735a920a3ca505d382bbc54161415846115d9565b346101e25760203660031901126101e2576117a1612300565b6117a96128ad565b5f80546001600160a01b0319166001600160a01b039290921691821781557ffa2e15ea41196e438f0593ecdd6036acd83bdfcd39d627b77c17eab43f376a399080a2005b346101e25760403660031901126101e257611806612300565b5f54602435916001600160a01b0391821633036118b7575b1690811561189f577fddf252ad1be2c89b69c2b068fc378daa952ba7f163c4a11628f55a4df523b3ef60205f927f52c63247e1f47db19d5ce0460030c497f067ca4cebf71ba98eeadabe20bace026118778282546129d1565b90558484525f80516020612d65833981519152825260408420818154019055604051908152a3005b60405163ec442f0560e01b81525f6004820152602490fd5b335f52600180602052836118df60405f206003810154906002810154858254920154926129de565b106110fe57335f528060205261191f8461190d60405f206003810154906002810154868254920154926129de565b335f52836020524260405f20556129b0565b90335f52602052600360405f20015561181e565b346101e25760403660031901126101e25761194c612316565b336001600160a01b038216036119685761027690600435612931565b60405163334bd91960e11b8152600490fd5b346101e2575f3660031901126101e257602061116d612ab3565b346101e2575f3660031901126101e257602060405160128152f35b346101e25760403660031901126101e2576102766004356119ce612316565b90805f525f80516020612e058339815191526020526119f3600160405f200154612903565b6126a9565b346101e25760203660031901126101e2576004355f525f80516020612e058339815191526020526020600160405f200154604051908152f35b346101e25760603660031901126101e257610da3611a4d612300565b611a55612316565b60443591611a6483338361272c565b6127f4565b346101e2575f3660031901126101e25760207f52c63247e1f47db19d5ce0460030c497f067ca4cebf71ba98eeadabe20bace0254604051908152f35b346101e25760203660031901126101e2576001600160a01b03611ac6612300565b165f5260016020526020600260405f200154604051908152f35b346101e25760403660031901126101e257610da3611afc612300565b6024359033612a57565b346101e25760603660031901126101e2576001600160401b036004358181116101e257611b379036906004016122e2565b6024358281116101e257611b4f9036906004016122e2565b6044356001600160a01b03811681036101e2577ff0c57e16840df040f15088dc2f81fe391c3923bec73e23a9662efc9c229c6a009283549460ff8660401c16159381871696871580612134575b6001809914908161212a575b159081612121575b50610c825767ffffffffffffffff1981168817875585612102575b50611bd4612a16565b611bdc612a16565b8251908282116103d3575f80516020612d45833981519152611bfe81546123a6565b92601f938481116120b3575b5080602085821160011461204b575f91612040575b505f19600383901b1c1916908a1b1790555b80518381116103d357805f80516020612da583398151915292611c5484546123a6565b858111611fe6575b50602090858311600114611f7c575f92611f71575b50505f19600383901b1c191690891b1790555b611c8c612a16565b60405192611c9984612255565b878452603160f81b6020850152611cae612a16565b80518381116103d357805f80516020612d8583398151915292611cd184546123a6565b858111611f17575b50602090858311600114611ead575f92611ea2575b50505f19600383901b1c191690891b1790555b82519182116103d3577fa16a46d94261c7517cc8ff89f61c0ce93598e3c849801011dee649a6a557d10392611d3684546123a6565b828111611e53575b506020918311600114611de457611d94949392915f9183611dd9575b50505f19600383901b1c191690871b1790555f5f80516020612dc5833981519152555f5f80516020612e45833981519152556107c2612a16565b50611d9b57005b805468ff0000000000000000191690556040519081527fc7f505b2f371ae2175ee4913f4499e1f2633a7b5936321eed1cdaeb6115181d290602090a1005b015190508880611d5a565b9392918791601f19821690845f525f80516020612e65833981519152915f5b818110611e3b57509683611d949810611e2357505050811b01905561079a565b01515f1960f88460031b161c191690558880806108a7565b8289015184558b959093019260209283019201611e03565b845f525f80516020612e658339815191528380860160051c82019260208710611e99575b0160051c019089905b828110611e8e575050611d3e565b5f8155018990611e80565b92508192611e77565b015190508a80611cee565b908b9350601f19831691855f525f80516020612de5833981519152925f5b818110611eff57508411611ee7575b505050811b019055611d01565b01515f1960f88460031b161c191690558a8080611eda565b8284015185558e969094019360209384019301611ecb565b909150835f525f80516020612de58339815191528580850160051c82019260208610611f68575b918d91869594930160051c01915b828110611f5a575050611cd9565b5f81558594508d9101611f4c565b92508192611f3e565b015190508a80611c71565b908b9350601f19831691855f525f80516020612e25833981519152925f5b818110611fce57508411611fb6575b505050811b019055611c84565b01515f1960f88460031b161c191690558a8080611fa9565b8284015185558e969094019360209384019301611f9a565b909150835f525f80516020612e258339815191528580850160051c82019260208610612037575b918d91869594930160051c01915b828110612029575050611c5c565b5f81558594508d910161201b565b9250819261200d565b90508601518b611c1f565b8b9250601f19821690845f525f80516020612d25833981519152915f5b81811061209b57508311612083575b5050811b019055611c31565b8801515f1960f88460031b161c191690558b80612077565b8a83015184558e959093019260209283019201612068565b825f525f80516020612d258339815191528580840160051c820192602085106120f9575b0160051c01908b905b8281106120ee575050611c0a565b5f8155018b906120e0565b925081926120d7565b68ffffffffffffffffff19166801000000000000000117865587611bcb565b90501589611bb0565b303b159150611ba8565b5085611b9c565b346101e2575f3660031901126101e2576040515f80516020612d458339815191528054825f612169836123a6565b92838352602094600191866001821691825f1461122d5750506001146121975750506111d292500383612270565b8592505f525f80516020612d25833981519152905f915b8583106121c65750506111d2935082010185806111c4565b805483890185015287945086939092019181016121ae565b346101e25760203660031901126101e2576004359063ffffffff60e01b82168092036101e257602091637965db0b60e01b8114908115612220575b5015158152f35b6301ffc9a760e01b14905083612219565b805180835260209291819084018484015e5f828201840152601f01601f1916010190565b604081019081106001600160401b038211176103d357604052565b90601f801991011681019081106001600160401b038211176103d357604052565b6001600160401b0381116103d357601f01601f191660200190565b9291926122b882612291565b916122c66040519384612270565b8294818452818301116101e2578281602093845f960137010152565b9080601f830112156101e2578160206122fd933591016122ac565b90565b600435906001600160a01b03821682036101e257565b602435906001600160a01b03821682036101e257565b6001600160a01b03165f9081527f52c63247e1f47db19d5ce0460030c497f067ca4cebf71ba98eeadabe20bace016020526040902090565b90604051608081018181106001600160401b038211176103d3576040526060600382948054845260018101546020850152600281015460408501520154910152565b90600182811c921680156123d4575b60208310146123c057565b634e487b7160e01b5f52602260045260245ffd5b91607f16916123b5565b604051905f825f80516020612d85833981519152918254926123ff846123a6565b8084529360209160019182811690811561247a575060011461242d575b50505061242b92500383612270565b565b5f9081525f80516020612de58339815191529590935091905b828410612462575061242b9450505081016020015f808061241c565b85548885018301529485019487945092810192612446565b925050506020925061242b94915060ff191682840152151560051b8201015f808061241c565b604051905f827fa16a46d94261c7517cc8ff89f61c0ce93598e3c849801011dee649a6a557d103918254926124d4846123a6565b8084529360209160019182811690811561247a57506001146124ff5750505061242b92500383612270565b5f9081525f80516020612e658339815191529590935091905b828410612534575061242b9450505081016020015f808061241c565b85548885018301529485019487945092810192612518565b6001600160a01b03165f8181527fb7db2dd08fcb62d0c9e08c51941cae53c267786a0b75803fb7960902fc8ef97d60205260409020545f80516020612e058339815191529060ff166125e3575f805260205260405f20815f5260205260405f20600160ff1982541617905533905f7f2f8788117e7eff1d82e926ec794901d17c78024a50270940304540a733656f0d8180a4600190565b50505f90565b6001600160a01b03165f8181527f4d44061e302ce240c09e60f815c0f6347fd82839d7b74858e680e192c4602a0c60205260409020547fcce296b040332a080e6df13515a3ec2869e21cd20f7344af0987ddb938d8bd2191905f80516020612e058339815191529060ff166126a257825f5260205260405f20815f5260205260405f20600160ff1982541617905533917f2f8788117e7eff1d82e926ec794901d17c78024a50270940304540a733656f0d5f80a4600190565b5050505f90565b90815f525f80516020612e058339815191528060205260405f209160018060a01b031691825f5260205260ff60405f205416155f146126a257825f5260205260405f20815f5260205260405f20600160ff1982541617905533917f2f8788117e7eff1d82e926ec794901d17c78024a50270940304540a733656f0d5f80a4600190565b6127358161232c565b9060018060a01b0380841692835f5260205260405f2054935f19850361275e575b505050505050565b8585106127c357508116156127ab5781156127935761277c9061232c565b905f526020520360405f20555f8080808080612756565b604051634a1406b160e11b81525f6004820152602490fd5b60405163e602df0560e01b81525f6004820152602490fd5b604051637dc7a0d960e11b81526001600160a01b039190911660048201526024810185905260448101869052606490fd5b916001600160a01b0380841692831561105d571692831561189f57825f525f80516020612d658339815191528060205260405f20549183831061287a575091806020927fddf252ad1be2c89b69c2b068fc378daa952ba7f163c4a11628f55a4df523b3ef94865f5284520360405f2055845f5260405f20818154019055604051908152a3565b60405163391434e360e21b81526001600160a01b0391909116600482015260248101929092525060448101829052606490fd5b335f9081527fb7db2dd08fcb62d0c9e08c51941cae53c267786a0b75803fb7960902fc8ef97d602052604090205460ff16156128e557565b60405163e2517d3f60e01b81523360048201525f6024820152604490fd5b805f525f80516020612e0583398151915260205260405f20335f5260205260ff60405f20541615610f465750565b90815f525f80516020612e058339815191528060205260405f209160018060a01b031691825f5260205260ff60405f2054165f146126a257825f5260205260405f20815f5260205260405f2060ff19815416905533917ff6391f5c32d9c69d2a47ea670b442974b53935d1edc7fd64eb21e047a839171b5f80a4600190565b919082039182116129bd57565b634e487b7160e01b5f52601160045260245ffd5b919082018092116129bd57565b916129ec90939193426129b0565b8181029181830414901517156129bd57612a05916129d1565b81811115612a11575090565b905090565b60ff7ff0c57e16840df040f15088dc2f81fe391c3923bec73e23a9662efc9c229c6a005460401c1615612a4557565b604051631afcd79f60e31b8152600490fd5b916001600160a01b038084169283156127ab5716928315612793577f8c5be1e5ebec7d5bd14f71427d1e84f3dd0314c0f7b2291e5b200ac8c7c3b92591612a9f60209261232c565b855f5282528060405f2055604051908152a3565b612abb612c38565b612ac3612c8f565b6040519060208201927f8b73c3c69bb8fe3d512ecc4cf759cc79239f7b179b0ffacaa9a75d522b39400f8452604083015260608201524660808201523060a082015260a0815260c081018181106001600160401b038211176103d35760405251902090565b91907f7fffffffffffffffffffffffffffffff5d576e7357a4501ddfe92f46681b20a08411612baa579160209360809260ff5f9560405194855216868401526040830152606082015282805260015afa15612b9f575f516001600160a01b03811615612b9557905f905f90565b505f906001905f90565b6040513d5f823e3d90fd5b5050505f9160039190565b6004811015612c245780612bc7575050565b60018103612be15760405163f645eedf60e01b8152600490fd5b60028103612c025760405163fce698f760e01b815260048101839052602490fd5b600314612c0c5750565b602490604051906335e2f38360e21b82526004820152fd5b634e487b7160e01b5f52602160045260245ffd5b612c406123de565b8051908115612c50576020012090565b50505f80516020612dc5833981519152548015612c6a5790565b507fc5d2460186f7233c927e7db2dcc703c0e500b653ca82273b7bfad8045d85a47090565b612c976124a0565b8051908115612ca7576020012090565b50505f80516020612e45833981519152548015612c6a5790565b90612ce85750805115612cd657805190602001fd5b604051630a12f52160e11b8152600490fd5b81511580612d1b575b612cf9575090565b604051639996b31560e01b81526001600160a01b039091166004820152602490fd5b50803b15612cf156fe2ae08a8e29253f69ac5d979a101956ab8f8d9d7ded63fa7a83b16fc47648eab052c63247e1f47db19d5ce0460030c497f067ca4cebf71ba98eeadabe20bace0352c63247e1f47db19d5ce0460030c497f067ca4cebf71ba98eeadabe20bace00a16a46d94261c7517cc8ff89f61c0ce93598e3c849801011dee649a6a557d10252c63247e1f47db19d5ce0460030c497f067ca4cebf71ba98eeadabe20bace04a16a46d94261c7517cc8ff89f61c0ce93598e3c849801011dee649a6a557d10042ad5d3e1f2e6e70edcf6d991b8a3023d3fca8047a131592f9edb9fd9b89d57d02dd7bc7dec4dceedda775e58dd541e08a116c6c53815c0bd028192f7b62680046a2803e59a4de4e7a4c574b1243f25977ac4c77d5a1a4a609b5394cebb4a2aaa16a46d94261c7517cc8ff89f61c0ce93598e3c849801011dee649a6a557d1015f9ce34815f8e11431c7bb75a8e6886a91478f7ffc1dbb0a98dc240fddd76b75a2646970667358221220673d1392763ddf3401a452f2d88a148dc091fb576e1af9f8b388719f689fc43264736f6c63430008190033","linkReferences":{}},"methodIdentifiers":{"BRIDGE_MANAGER_ROLE()":"f75e8512","DEFAULT_ADMIN_ROLE()":"a217fddf","DOMAIN_SEPARATOR()":"3644e515","UPGRADE_INTERFACE_VERSION()":"ad3cb1cc","allowance(address,address)":"dd62ed3e","approve(address,uint256)":"095ea7b3","balanceOf(address)":"70a08231","bridges(address)":"ced67f0c","burn(address,uint256)":"9dc29fac","burningCurrentLimitOf(address)":"998955d3","burningMaxLimitOf(address)":"c1eb7137","decimals()":"313ce567","eip712Domain()":"84b0196e","getRoleAdmin(bytes32)":"248a9ca3","grantRole(bytes32,address)":"2f2ff15d","hasRole(bytes32,address)":"91d14854","initialize(address)":"c4d66de8","initialize(string,string,address)":"077f224a","lockbox()":"66cc5702","mint(address,uint256)":"40c10f19","mintingCurrentLimitOf(address)":"651fd268","mintingMaxLimitOf(address)":"0c05f82c","name()":"06fdde03","nonces(address)":"7ecebe00","permit(address,address,uint256,uint256,uint8,bytes32,bytes32)":"d505accf","proxiableUUID()":"52d1902d","renounceRole(bytes32,address)":"36568abe","revokeRole(bytes32,address)":"d547741f","setLimits(address,uint256,uint256)":"a08d5654","setLockbox(address)":"435350b7","supportsInterface(bytes4)":"01ffc9a7","symbol()":"95d89b41","totalSupply()":"18160ddd","transfer(address,uint256)":"a9059cbb","transferFrom(address,address,uint256)":"23b872dd","upgradeToAndCall(address,bytes)":"4f1ef286"},"id":187}