{"abi":[{"type":"constructor","inputs":[],"stateMutability":"nonpayable"},{"type":"function","name":"BRIDGE_MANAGER_ROLE","inputs":[],"outputs":[{"name":"","type":"bytes32","internalType":"bytes32"}],"stateMutability":"view"},{"type":"function","name":"DEFAULT_ADMIN_ROLE","inputs":[],"outputs":[{"name":"","type":"bytes32","internalType":"bytes32"}],"stateMutability":"view"},{"type":"function","name":"DOMAIN_SEPARATOR","inputs":[],"outputs":[{"name":"","type":"bytes32","internalType":"bytes32"}],"stateMutability":"view"},{"type":"function","name":"UPGRADE_INTERFACE_VERSION","inputs":[],"outputs":[{"name":"","type":"string","internalType":"string"}],"stateMutability":"view"},{"type":"function","name":"allowance","inputs":[{"name":"owner","type":"address","internalType":"address"},{"name":"spender","type":"address","internalType":"address"}],"outputs":[{"name":"","type":"uint256","internalType":"uint256"}],"stateMutability":"view"},{"type":"function","name":"approve","inputs":[{"name":"spender","type":"address","internalType":"address"},{"name":"value","type":"uint256","internalType":"uint256"}],"outputs":[{"name":"","type":"bool","internalType":"bool"}],"stateMutability":"nonpayable"},{"type":"function","name":"balanceOf","inputs":[{"name":"account","type":"address","internalType":"address"}],"outputs":[{"name":"","type":"uint256","internalType":"uint256"}],"stateMutability":"view"},{"type":"function","name":"bridges","inputs":[{"name":"","type":"address","internalType":"address"}],"outputs":[{"name":"minterParams","type":"tuple","internalType":"struct IXERC20.BridgeParameters","components":[{"name":"timestamp","type":"uint256","internalType":"uint256"},{"name":"ratePerSecond","type":"uint256","internalType":"uint256"},{"name":"maxLimit","type":"uint256","internalType":"uint256"},{"name":"currentLimit","type":"uint256","internalType":"uint256"}]},{"name":"burnerParams","type":"tuple","internalType":"struct IXERC20.BridgeParameters","components":[{"name":"timestamp","type":"uint256","internalType":"uint256"},{"name":"ratePerSecond","type":"uint256","internalType":"uint256"},{"name":"maxLimit","type":"uint256","internalType":"uint256"},{"name":"currentLimit","type":"uint256","internalType":"uint256"}]}],"stateMutability":"view"},{"type":"function","name":"burn","inputs":[{"name":"_user","type":"address","internalType":"address"},{"name":"_amount","type":"uint256","internalType":"uint256"}],"outputs":[],"stateMutability":"nonpayable"},{"type":"function","name":"burningCurrentLimitOf","inputs":[{"name":"_burner","type":"address","internalType":"address"}],"outputs":[{"name":"","type":"uint256","internalType":"uint256"}],"stateMutability":"view"},{"type":"function","name":"burningMaxLimitOf","inputs":[{"name":"_burner","type":"address","internalType":"address"}],"outputs":[{"name":"","type":"uint256","internalType":"uint256"}],"stateMutability":"view"},{"type":"function","name":"decimals","inputs":[],"outputs":[{"name":"","type":"uint8","internalType":"uint8"}],"stateMutability":"view"},{"type":"function","name":"eip712Domain","inputs":[],"outputs":[{"name":"fields","type":"bytes1","internalType":"bytes1"},{"name":"name","type":"string","internalType":"string"},{"name":"version","type":"string","internalType":"string"},{"name":"chainId","type":"uint256","internalType":"uint256"},{"name":"verifyingContract","type":"address","internalType":"address"},{"name":"salt","type":"bytes32","internalType":"bytes32"},{"name":"extensions","type":"uint256[]","internalType":"uint256[]"}],"stateMutability":"view"},{"type":"function","name":"getRoleAdmin","inputs":[{"name":"role","type":"bytes32","internalType":"bytes32"}],"outputs":[{"name":"","type":"bytes32","internalType":"bytes32"}],"stateMutability":"view"},{"type":"function","name":"grantRole","inputs":[{"name":"role","type":"bytes32","internalType":"bytes32"},{"name":"account","type":"address","internalType":"address"}],"outputs":[],"stateMutability":"nonpayable"},{"type":"function","name":"hasRole","inputs":[{"name":"role","type":"bytes32","internalType":"bytes32"},{"name":"account","type":"address","internalType":"address"}],"outputs":[{"name":"","type":"bool","internalType":"bool"}],"stateMutability":"view"},{"type":"function","name":"initialize","inputs":[{"name":"name","type":"string","internalType":"string"},{"name":"symbol","type":"string","internalType":"string"},{"name":"admin","type":"address","internalType":"address"}],"outputs":[],"stateMutability":"nonpayable"},{"type":"function","name":"initialize","inputs":[{"name":"admin","type":"address","internalType":"address"}],"outputs":[],"stateMutability":"nonpayable"},{"type":"function","name":"lockbox","inputs":[],"outputs":[{"name":"","type":"address","internalType":"address"}],"stateMutability":"view"},{"type":"function","name":"mint","inputs":[{"name":"_user","type":"address","internalType":"address"},{"name":"_amount","type":"uint256","internalType":"uint256"}],"outputs":[],"stateMutability":"nonpayable"},{"type":"function","name":"mintingCurrentLimitOf","inputs":[{"name":"_minter","type":"address","internalType":"address"}],"outputs":[{"name":"","type":"uint256","internalType":"uint256"}],"stateMutability":"view"},{"type":"function","name":"mintingMaxLimitOf","inputs":[{"name":"_minter","type":"address","internalType":"address"}],"outputs":[{"name":"","type":"uint256","internalType":"uint256"}],"stateMutability":"view"},{"type":"function","name":"name","inputs":[],"outputs":[{"name":"","type":"string","internalType":"string"}],"stateMutability":"view"},{"type":"function","name":"nonces","inputs":[{"name":"owner","type":"address","internalType":"address"}],"outputs":[{"name":"","type":"uint256","internalType":"uint256"}],"stateMutability":"view"},{"type":"function","name":"permit","inputs":[{"name":"owner","type":"address","internalType":"address"},{"name":"spender","type":"address","internalType":"address"},{"name":"value","type":"uint256","internalType":"uint256"},{"name":"deadline","type":"uint256","internalType":"uint256"},{"name":"v","type":"uint8","internalType":"uint8"},{"name":"r","type":"bytes32","internalType":"bytes32"},{"name":"s","type":"bytes32","internalType":"bytes32"}],"outputs":[],"stateMutability":"nonpayable"},{"type":"function","name":"proxiableUUID","inputs":[],"outputs":[{"name":"","type":"bytes32","internalType":"bytes32"}],"stateMutability":"view"},{"type":"function","name":"renounceRole","inputs":[{"name":"role","type":"bytes32","internalType":"bytes32"},{"name":"callerConfirmation","type":"address","internalType":"address"}],"outputs":[],"stateMutability":"nonpayable"},{"type":"function","name":"revokeRole","inputs":[{"name":"role","type":"bytes32","internalType":"bytes32"},{"name":"account","type":"address","internalType":"address"}],"outputs":[],"stateMutability":"nonpayable"},{"type":"function","name":"setLimits","inputs":[{"name":"_bridge","type":"address","internalType":"address"},{"name":"_mintingLimit","type":"uint256","internalType":"uint256"},{"name":"_burningLimit","type":"uint256","internalType":"uint256"}],"outputs":[],"stateMutability":"nonpayable"},{"type":"function","name":"setLockbox","inputs":[{"name":"_lockbox","type":"address","internalType":"address"}],"outputs":[],"stateMutability":"nonpayable"},{"type":"function","name":"supportsInterface","inputs":[{"name":"interfaceId","type":"bytes4","internalType":"bytes4"}],"outputs":[{"name":"","type":"bool","internalType":"bool"}],"stateMutability":"view"},{"type":"function","name":"symbol","inputs":[],"outputs":[{"name":"","type":"string","internalType":"string"}],"stateMutability":"view"},{"type":"function","name":"totalSupply","inputs":[],"outputs":[{"name":"","type":"uint256","internalType":"uint256"}],"stateMutability":"view"},{"type":"function","name":"transfer","inputs":[{"name":"to","type":"address","internalType":"address"},{"name":"value","type":"uint256","internalType":"uint256"}],"outputs":[{"name":"","type":"bool","internalType":"bool"}],"stateMutability":"nonpayable"},{"type":"function","name":"transferFrom","inputs":[{"name":"from","type":"address","internalType":"address"},{"name":"to","type":"address","internalType":"address"},{"name":"value","type":"uint256","internalType":"uint256"}],"outputs":[{"name":"","type":"bool","internalType":"bool"}],"stateMutability":"nonpayable"},{"type":"function","name":"upgradeToAndCall","inputs":[{"name":"newImplementation","type":"address","internalType":"address"},{"name":"data","type":"bytes","internalType":"bytes"}],"outputs":[],"stateMutability":"payable"},{"type":"event","name":"Approval","inputs":[{"name":"owner","type":"address","indexed":true,"internalType":"address"},{"name":"spender","type":"address","indexed":true,"internalType":"address"},{"name":"value","type":"uint256","indexed":false,"internalType":"uint256"}],"anonymous":false},{"type":"event","name":"BridgeLimitsSet","inputs":[{"name":"mintingLimit","type":"uint256","indexed":false,"internalType":"uint256"},{"name":"burningLimit","type":"uint256","indexed":false,"internalType":"uint256"},{"name":"bridge","type":"address","indexed":true,"internalType":"address"}],"anonymous":false},{"type":"event","name":"EIP712DomainChanged","inputs":[],"anonymous":false},{"type":"event","name":"Initialized","inputs":[{"name":"version","type":"uint64","indexed":false,"internalType":"uint64"}],"anonymous":false},{"type":"event","name":"LockboxSet","inputs":[{"name":"lockbox","type":"address","indexed":true,"internalType":"address"}],"anonymous":false},{"type":"event","name":"RoleAdminChanged","inputs":[{"name":"role","type":"bytes32","indexed":true,"internalType":"bytes32"},{"name":"previousAdminRole","type":"bytes32","indexed":true,"internalType":"bytes32"},{"name":"newAdminRole","type":"bytes32","indexed":true,"internalType":"bytes32"}],"anonymous":false},{"type":"event","name":"RoleGranted","inputs":[{"name":"role","type":"bytes32","indexed":true,"internalType":"bytes32"},{"name":"account","type":"address","indexed":true,"internalType":"address"},{"name":"sender","type":"address","indexed":true,"internalType":"address"}],"anonymous":false},{"type":"event","name":"RoleRevoked","inputs":[{"name":"role","type":"bytes32","indexed":true,"internalType":"bytes32"},{"name":"account","type":"address","indexed":true,"internalType":"address"},{"name":"sender","type":"address","indexed":true,"internalType":"address"}],"anonymous":false},{"type":"event","name":"Transfer","inputs":[{"name":"from","type":"address","indexed":true,"internalType":"address"},{"name":"to","type":"address","indexed":true,"internalType":"address"},{"name":"value","type":"uint256","indexed":false,"internalType":"uint256"}],"anonymous":false},{"type":"event","name":"Upgraded","inputs":[{"name":"implementation","type":"address","indexed":true,"internalType":"address"}],"anonymous":false},{"type":"error","name":"AccessControlBadConfirmation","inputs":[]},{"type":"error","name":"AccessControlUnauthorizedAccount","inputs":[{"name":"account","type":"address","internalType":"address"},{"name":"neededRole","type":"bytes32","internalType":"bytes32"}]},{"type":"error","name":"AddressEmptyCode","inputs":[{"name":"target","type":"address","internalType":"address"}]},{"type":"error","name":"ECDSAInvalidSignature","inputs":[]},{"type":"error","name":"ECDSAInvalidSignatureLength","inputs":[{"name":"length","type":"uint256","internalType":"uint256"}]},{"type":"error","name":"ECDSAInvalidSignatureS","inputs":[{"name":"s","type":"bytes32","internalType":"bytes32"}]},{"type":"error","name":"ERC1967InvalidImplementation","inputs":[{"name":"implementation","type":"address","internalType":"address"}]},{"type":"error","name":"ERC1967NonPayable","inputs":[]},{"type":"error","name":"ERC20InsufficientAllowance","inputs":[{"name":"spender","type":"address","internalType":"address"},{"name":"allowance","type":"uint256","internalType":"uint256"},{"name":"needed","type":"uint256","internalType":"uint256"}]},{"type":"error","name":"ERC20InsufficientBalance","inputs":[{"name":"sender","type":"address","internalType":"address"},{"name":"balance","type":"uint256","internalType":"uint256"},{"name":"needed","type":"uint256","internalType":"uint256"}]},{"type":"error","name":"ERC20InvalidApprover","inputs":[{"name":"approver","type":"address","internalType":"address"}]},{"type":"error","name":"ERC20InvalidReceiver","inputs":[{"name":"receiver","type":"address","internalType":"address"}]},{"type":"error","name":"ERC20InvalidSender","inputs":[{"name":"sender","type":"address","internalType":"address"}]},{"type":"error","name":"ERC20InvalidSpender","inputs":[{"name":"spender","type":"address","internalType":"address"}]},{"type":"error","name":"ERC2612ExpiredSignature","inputs":[{"name":"deadline","type":"uint256","internalType":"uint256"}]},{"type":"error","name":"ERC2612InvalidSigner","inputs":[{"name":"signer","type":"address","internalType":"address"},{"name":"owner","type":"address","internalType":"address"}]},{"type":"error","name":"FailedInnerCall","inputs":[]},{"type":"error","name":"IXERC20_INVALID_0_VALUE","inputs":[]},{"type":"error","name":"IXERC20_NotFactory","inputs":[]},{"type":"error","name":"IXERC20_NotHighEnoughLimits","inputs":[]},{"type":"error","name":"InvalidAccountNonce","inputs":[{"name":"account","type":"address","internalType":"address"},{"name":"currentNonce","type":"uint256","internalType":"uint256"}]},{"type":"error","name":"InvalidInitialization","inputs":[]},{"type":"error","name":"NotInitializing","inputs":[]},{"type":"error","name":"UUPSUnauthorizedCallContext","inputs":[]},{"type":"error","name":"UUPSUnsupportedProxiableUUID","inputs":[{"name":"slot","type":"bytes32","internalType":"bytes32"}]}],"bytecode":{"object":"0x60a060405234603757306080526012603b565b6018603b565b604051613a8190816100d78239608051818181611afc0152611bd40152f35b5f80fd5b7ff0c57e16840df040f15088dc2f81fe391c3923bec73e23a9662efc9c229c6a00805460ff8160401c1660c4576001600160401b036002600160401b031982821601608557505050565b6001600160401b031990911681179091556040519081527fc7f505b2f371ae2175ee4913f4499e1f2633a7b5936321eed1cdaeb6115181d290602090a1565b60405163f92ee8a960e01b8152600490fdfe6080806040526004361015610012575f80fd5b5f3560e01c90816301ffc9a714612ac75750806306fdde03146129fe578063077f224a1461226f578063095ea7b3146122495780630c05f82c1461220157806318160ddd146121c557806323b872dd1461218d578063248a9ca3146121415780632f2ff15d146120e5578063313ce567146120ca5780633644e515146120b057806336568abe1461204457806340c10f1914611ec6578063435350b714611e415780634f1ef28614611b7657806352d1902d14611ad5578063651fd26814611a7e57806366cc570214611a4c57806370a08231146119e85780637ecebe001461198457806384b0196e146117ee57806391d148541461177857806395d89b4114611659578063998955d3146115f75780639dc29fac146113c6578063a08d5654146111f0578063a217fddf146111d6578063a9059cbb146111a5578063ad3cb1cc14611144578063c1eb7137146110fc578063c4d66de81461057b578063ced67f0c146104d3578063d505accf146102d7578063d547741f14610279578063dd62ed3e146101e65763f75e8512146101a8575f80fd5b346101e2575f6003193601126101e25760206040517fcce296b040332a080e6df13515a3ec2869e21cd20f7344af0987ddb938d8bd218152f35b5f80fd5b346101e25760406003193601126101e2576101ff612c39565b73ffffffffffffffffffffffffffffffffffffffff61026361021f612c5c565b9273ffffffffffffffffffffffffffffffffffffffff165f527f52c63247e1f47db19d5ce0460030c497f067ca4cebf71ba98eeadabe20bace0160205260405f2090565b91165f52602052602060405f2054604051908152f35b346101e25760406003193601126101e2576102d5600435610298612c5c565b90805f527f02dd7bc7dec4dceedda775e58dd541e08a116c6c53815c0bd028192f7b6268006020526102d0600160405f200154613489565b6134ca565b005b346101e25760e06003193601126101e2576102f0612c39565b6102f8612c5c565b60443590606435926084359360ff851685036101e2578042116104a25773ffffffffffffffffffffffffffffffffffffffff9081831695865f527f5ab42ced628888259c08ac98db1eb0cf702fc1501344311d8b100cd1bfe4bb0060205260405f20908154916001830190556040519260208401927f6e71edae12b1b97f4d1f60370fef10105fa2faae0126114a169c64845d6126c98452896040860152858816606086015288608086015260a085015260c084015260c0835260e083019183831067ffffffffffffffff8411176104755761042b93610422936040525190206103e0613707565b90604051917f190100000000000000000000000000000000000000000000000000000000000083526002830152602282015260c43591604260a435922061377d565b90929192613817565b1684810361043e57506102d59350613660565b60449085604051917f4b800e4600000000000000000000000000000000000000000000000000000000835260048301526024820152fd5b7f4e487b71000000000000000000000000000000000000000000000000000000005f52604160045260245ffd5b602490604051907f627913020000000000000000000000000000000000000000000000000000000082526004820152fd5b346101e25760206003193601126101e25773ffffffffffffffffffffffffffffffffffffffff610501612c39565b165f52600160205261010060405f20610579610528600461052184612c7f565b9301612c7f565b6105536040518094606080918051845260208101516020850152604081015160408501520151910152565b80516080840152602081015160a0840152604081015160c08401526060015160e0830152565bf35b346101e25760206003193601126101e257610594612c39565b7ff0c57e16840df040f15088dc2f81fe391c3923bec73e23a9662efc9c229c6a00805467ffffffffffffffff8116801590816110ec575b60011490816110e2575b1590816110d9575b50611057577fffffffffffffffffffffffffffffffffffffffffffffffff0000000000000000600181831617835560ff8260401c16156110a4575b6040519361062585612b8a565b601085527f43726f73732d436861696e20414e444500000000000000000000000000000000602086015260405161065b81612b8a565b600581527f78414e4445000000000000000000000000000000000000000000000000000000602082015284549267ffffffffffffffff841680159081611094575b600114908161108a575b159081611081575b5061105757600190841617855560ff8360401c1615611022575b6106d0613607565b6106d8613607565b855167ffffffffffffffff8111610475576107137f52c63247e1f47db19d5ce0460030c497f067ca4cebf71ba98eeadabe20bace0354612cc2565b601f8111610f62575b50806020601f8211600114610ea2575f91610e97575b505f198260011b9260031b1c1916177f52c63247e1f47db19d5ce0460030c497f067ca4cebf71ba98eeadabe20bace03555b80519067ffffffffffffffff82116104755781906107a27f52c63247e1f47db19d5ce0460030c497f067ca4cebf71ba98eeadabe20bace0454612cc2565b601f8111610dcd575b50602090601f8311600114610d08575f92610cfd575b50505f198260011b9260031b1c1916177f52c63247e1f47db19d5ce0460030c497f067ca4cebf71ba98eeadabe20bace04555b6107fc613607565b6040519461080986612b8a565b600186527f3100000000000000000000000000000000000000000000000000000000000000602087015261083b613607565b80519067ffffffffffffffff82116104755781906108797fa16a46d94261c7517cc8ff89f61c0ce93598e3c849801011dee649a6a557d10254612cc2565b601f8111610c33575b50602090601f8311600114610b6e575f92610b63575b50505f198260011b9260031b1c1916177fa16a46d94261c7517cc8ff89f61c0ce93598e3c849801011dee649a6a557d102555b845167ffffffffffffffff8111610475577fa16a46d94261c7517cc8ff89f61c0ce93598e3c849801011dee649a6a557d103906109088254612cc2565b601f8111610b01575b506020601f8211600114610a7757918160ff9798926109ad94899796945f92610a6c575b50505f198260011b9260031b1c19161790555b5f7fa16a46d94261c7517cc8ff89f61c0ce93598e3c849801011dee649a6a557d100555f7fa16a46d94261c7517cc8ff89f61c0ce93598e3c849801011dee649a6a557d10155610996613607565b61099e613607565b6109a781612ed9565b50612fb4565b5060401c1615610a16575b60401c16156109c357005b7fffffffffffffffffffffffffffffffffffffffffffffff00ffffffffffffffff81541690557fc7f505b2f371ae2175ee4913f4499e1f2633a7b5936321eed1cdaeb6115181d2602060405160018152a1005b7fffffffffffffffffffffffffffffffffffffffffffffff00ffffffffffffffff83541683557fc7f505b2f371ae2175ee4913f4499e1f2633a7b5936321eed1cdaeb6115181d2602060405160018152a16109b8565b015190508a80610935565b601f19821697835f527f5f9ce34815f8e11431c7bb75a8e6886a91478f7ffc1dbb0a98dc240fddd76b75985f5b818110610ae957509260ff98996109ad9593600193838c9a999710610ad1575b505050811b019055610948565b01515f1960f88460031b161c191690558a8080610ac4565b838301518b556001909a019960209384019301610aa4565b825f527f5f9ce34815f8e11431c7bb75a8e6886a91478f7ffc1dbb0a98dc240fddd76b75601f830160051c81019160208410610b59575b601f0160051c01905b818110610b4e5750610911565b5f8155600101610b41565b9091508190610b38565b015190508780610898565b92507fa16a46d94261c7517cc8ff89f61c0ce93598e3c849801011dee649a6a557d1025f527f42ad5d3e1f2e6e70edcf6d991b8a3023d3fca8047a131592f9edb9fd9b89d57d905f935b601f1984168510610c18576001945083601f19811610610c00575b505050811b017fa16a46d94261c7517cc8ff89f61c0ce93598e3c849801011dee649a6a557d102556108cb565b01515f1960f88460031b161c19169055878080610bd3565b81810151835560209485019460019093019290910190610bb8565b9091507fa16a46d94261c7517cc8ff89f61c0ce93598e3c849801011dee649a6a557d1025f52601f830160051c7f42ad5d3e1f2e6e70edcf6d991b8a3023d3fca8047a131592f9edb9fd9b89d57d019060208410610cd5575b90601f8493920160051c7f42ad5d3e1f2e6e70edcf6d991b8a3023d3fca8047a131592f9edb9fd9b89d57d01905b818110610cc75750610882565b5f8155849350600101610cba565b7f42ad5d3e1f2e6e70edcf6d991b8a3023d3fca8047a131592f9edb9fd9b89d57d9150610c8c565b0151905087806107c1565b92507f52c63247e1f47db19d5ce0460030c497f067ca4cebf71ba98eeadabe20bace045f527f46a2803e59a4de4e7a4c574b1243f25977ac4c77d5a1a4a609b5394cebb4a2aa905f935b601f1984168510610db2576001945083601f19811610610d9a575b505050811b017f52c63247e1f47db19d5ce0460030c497f067ca4cebf71ba98eeadabe20bace04556107f4565b01515f1960f88460031b161c19169055878080610d6d565b81810151835560209485019460019093019290910190610d52565b9091507f52c63247e1f47db19d5ce0460030c497f067ca4cebf71ba98eeadabe20bace045f52601f830160051c7f46a2803e59a4de4e7a4c574b1243f25977ac4c77d5a1a4a609b5394cebb4a2aa019060208410610e6f575b90601f8493920160051c7f46a2803e59a4de4e7a4c574b1243f25977ac4c77d5a1a4a609b5394cebb4a2aa01905b818110610e6157506107ab565b5f8155849350600101610e54565b7f46a2803e59a4de4e7a4c574b1243f25977ac4c77d5a1a4a609b5394cebb4a2aa9150610e26565b905087015188610732565b91507f52c63247e1f47db19d5ce0460030c497f067ca4cebf71ba98eeadabe20bace035f527f2ae08a8e29253f69ac5d979a101956ab8f8d9d7ded63fa7a83b16fc47648eab05f925b601f1983168410610f4a576001935082601f19811610610f32575b5050811b017f52c63247e1f47db19d5ce0460030c497f067ca4cebf71ba98eeadabe20bace0355610764565b8901515f1960f88460031b161c191690558880610f06565b89810151825560209384019360019092019101610eeb565b7f52c63247e1f47db19d5ce0460030c497f067ca4cebf71ba98eeadabe20bace035f52601f820160051c7f2ae08a8e29253f69ac5d979a101956ab8f8d9d7ded63fa7a83b16fc47648eab0019060208310610ffa575b601f0160051c7f2ae08a8e29253f69ac5d979a101956ab8f8d9d7ded63fa7a83b16fc47648eab001905b818110610fef575061071c565b5f8155600101610fe2565b7f2ae08a8e29253f69ac5d979a101956ab8f8d9d7ded63fa7a83b16fc47648eab09150610fb8565b680100000000000000017fffffffffffffffffffffffffffffffffffffffffffffff00000000000000000084161785556106c8565b60046040517ff92ee8a9000000000000000000000000000000000000000000000000000000008152fd5b905015886106ae565b303b1591506106a6565b604086901c60ff1615915061069c565b680100000000000000017fffffffffffffffffffffffffffffffffffffffffffffff0000000000000000008316178355610618565b905015846105dd565b303b1591506105d5565b604083901c60ff161591506105cb565b346101e25760206003193601126101e25773ffffffffffffffffffffffffffffffffffffffff61112a612c39565b165f5260016020526020600660405f200154604051908152f35b346101e2575f6003193601126101e2576111a160405161116381612b8a565b600581527f352e302e300000000000000000000000000000000000000000000000000000006020820152604051918291602083526020830190612b65565b0390f35b346101e25760406003193601126101e2576111cb6111c1612c39565b602435903361331c565b602060405160018152f35b346101e2575f6003193601126101e25760206040515f8152f35b346101e25760606003193601126101e257611209612c39565b6024356044357fcce296b040332a080e6df13515a3ec2869e21cd20f7344af0987ddb938d8bd2192835f526020937f02dd7bc7dec4dceedda775e58dd541e08a116c6c53815c0bd028192f7b626800855260405f20335f52855260ff60405f2054161561138f57509160409173ffffffffffffffffffffffffffffffffffffffff7f93f3bbfe8cfb354ec059175107653f49f6eb479a8622a7d83866ea015435c944941694855f5260018152835f2080549081155f14611361575050825b865f5260018252845f2042815562015180918286046001830155856002830155600382015560048101549081155f1461132c575050600783915b885f5260018452865f20904260048301558504600582015584600682015501558351928352820152a2005b6113469160078201549160056006820154910154926135cf565b8381111561135957506007835b91611301565b600790611353565b61137b9160038201549160016002820154910154926135cf565b8381111561138a5750826112c7565b6112c7565b604490604051907fe2517d3f0000000000000000000000000000000000000000000000000000000082523360048301526024820152fd5b346101e25760406003193601126101e2576113df612c39565b60243573ffffffffffffffffffffffffffffffffffffffff90818316918233036115e7575b5f54163303611534575b811561150457815f527f52c63247e1f47db19d5ce0460030c497f067ca4cebf71ba98eeadabe20bace008060205260405f2054938285106114ad5750817fddf252ad1be2c89b69c2b068fc378daa952ba7f163c4a11628f55a4df523b3ef925f9560209386885284520360408620557f52c63247e1f47db19d5ce0460030c497f067ca4cebf71ba98eeadabe20bace02818154039055604051908152a3005b6040517fe450d38c00000000000000000000000000000000000000000000000000000000815273ffffffffffffffffffffffffffffffffffffffff9190911660048201526024810185905260448101839052606490fd5b60246040517f96c6fd1e0000000000000000000000000000000000000000000000000000000081525f6004820152fd5b335f5260016020528061155f60405f20600781015490600681015460056004830154920154926135cf565b106115bd57335f5260016020526115a88161159260405f20600781015490600681015460056004830154920154926135cf565b335f52600160205242600460405f200155613588565b335f526001602052600760405f20015561140e565b60046040517f0b6842aa000000000000000000000000000000000000000000000000000000008152fd5b6115f2823386613174565b611404565b346101e25760206003193601126101e25773ffffffffffffffffffffffffffffffffffffffff611625612c39565b165f526001602052602061165160405f20600781015490600681015460056004830154920154926135cf565b604051908152f35b346101e2575f6003193601126101e2576040517f52c63247e1f47db19d5ce0460030c497f067ca4cebf71ba98eeadabe20bace048054825f61169a83612cc2565b92838352602094600191866001821691825f146117375750506001146116dd575b50506116c992500383612ba6565b6111a1604051928284938452830190612b65565b8592505f527f46a2803e59a4de4e7a4c574b1243f25977ac4c77d5a1a4a609b5394cebb4a2aa905f915b85831061171f5750506116c9935082010185806116bb565b80548389018501528794508693909201918101611707565b915093506116c99592507fffffffffffffffffffffffffffffffffffffffffffffffffffffffffffffff0091501682840152151560051b82010185806116bb565b346101e25760406003193601126101e257611791612c5c565b6004355f527f02dd7bc7dec4dceedda775e58dd541e08a116c6c53815c0bd028192f7b62680060205273ffffffffffffffffffffffffffffffffffffffff60405f2091165f52602052602060ff60405f2054166040519015158152f35b346101e2575f6003193601126101e2577fa16a46d94261c7517cc8ff89f61c0ce93598e3c849801011dee649a6a557d10054158061195b575b156118fd57611834612d13565b61183c612e1a565b60405160208082019282841067ffffffffffffffff851117610475579160206118b285946118a497966040525f84526040519788977f0f00000000000000000000000000000000000000000000000000000000000000895260e0858a015260e0890190612b65565b908782036040890152612b65565b914660608701523060808701525f60a087015285830360c087015251918281520192915f5b8281106118e657505050500390f35b8351855286955093810193928101926001016118d7565b60646040517f08c379a000000000000000000000000000000000000000000000000000000000815260206004820152601560248201527f4549503731323a20556e696e697469616c697a656400000000000000000000006044820152fd5b507fa16a46d94261c7517cc8ff89f61c0ce93598e3c849801011dee649a6a557d1015415611827565b346101e25760206003193601126101e25773ffffffffffffffffffffffffffffffffffffffff6119b2612c39565b165f527f5ab42ced628888259c08ac98db1eb0cf702fc1501344311d8b100cd1bfe4bb00602052602060405f2054604051908152f35b346101e25760206003193601126101e25773ffffffffffffffffffffffffffffffffffffffff611a16612c39565b165f527f52c63247e1f47db19d5ce0460030c497f067ca4cebf71ba98eeadabe20bace00602052602060405f2054604051908152f35b346101e2575f6003193601126101e257602073ffffffffffffffffffffffffffffffffffffffff5f5416604051908152f35b346101e25760206003193601126101e25773ffffffffffffffffffffffffffffffffffffffff611aac612c39565b165f526001602052602061165160405f20600381015490600281015460018254920154926135cf565b346101e2575f6003193601126101e25773ffffffffffffffffffffffffffffffffffffffff7f0000000000000000000000000000000000000000000000000000000000000000163003611b4c5760206040517f360894a13ba1a3210667c828492db98dca3e2076cc3735a920a3ca505d382bbc8152f35b60046040517fe07c8dba000000000000000000000000000000000000000000000000000000008152fd5b60406003193601126101e257611b8a612c39565b60243567ffffffffffffffff81116101e257366023820112156101e257611bbb903690602481600401359101612be5565b9073ffffffffffffffffffffffffffffffffffffffff807f000000000000000000000000000000000000000000000000000000000000000016803014908115611e13575b50611b4c57611c0c61341b565b811690604051907f52d1902d0000000000000000000000000000000000000000000000000000000082526020918281600481875afa5f9181611de4575b50611c7f57602484604051907f4c9c8ce30000000000000000000000000000000000000000000000000000000082526004820152fd5b9284937f360894a13ba1a3210667c828492db98dca3e2076cc3735a920a3ca505d382bbc90818103611db35750823b15611d8257817fffffffffffffffffffffffff0000000000000000000000000000000000000000825416179055604051907fbc7cd75a20ee27fd9adebab32041f755214dbc6bffa90cc0225b39da2e5c2d3b5f80a2835115611d4f57505f8084846102d596519101845af4903d15611d46573d611d2a81612bc9565b90611d386040519283612ba6565b81525f81943d92013e6139ab565b606092506139ab565b9250505034611d5a57005b807fb398979f0000000000000000000000000000000000000000000000000000000060049252fd5b602482604051907f4c9c8ce30000000000000000000000000000000000000000000000000000000082526004820152fd5b602490604051907faa1d49a40000000000000000000000000000000000000000000000000000000082526004820152fd5b9091508381813d8311611e0c575b611dfc8183612ba6565b810103126101e257519086611c49565b503d611df2565b9050817f360894a13ba1a3210667c828492db98dca3e2076cc3735a920a3ca505d382bbc5416141584611bff565b346101e25760206003193601126101e25773ffffffffffffffffffffffffffffffffffffffff611e6f612c39565b611e7761341b565b16807fffffffffffffffffffffffff00000000000000000000000000000000000000005f5416175f557ffa2e15ea41196e438f0593ecdd6036acd83bdfcd39d627b77c17eab43f376a395f80a2005b346101e25760406003193601126101e257611edf612c39565b6024359073ffffffffffffffffffffffffffffffffffffffff90815f54163303611fc8575b16908115611f98577fddf252ad1be2c89b69c2b068fc378daa952ba7f163c4a11628f55a4df523b3ef60205f927f52c63247e1f47db19d5ce0460030c497f067ca4cebf71ba98eeadabe20bace02611f5d8282546135c2565b90558484527f52c63247e1f47db19d5ce0460030c497f067ca4cebf71ba98eeadabe20bace00825260408420818154019055604051908152a3005b60246040517fec442f050000000000000000000000000000000000000000000000000000000081525f6004820152fd5b335f5260018060205283611ff060405f206003810154906002810154858254920154926135cf565b106115bd57335f52806020526120308461201e60405f206003810154906002810154868254920154926135cf565b335f52836020524260405f2055613588565b90335f52602052600360405f200155611f04565b346101e25760406003193601126101e25761205d612c5c565b3373ffffffffffffffffffffffffffffffffffffffff821603612086576102d5906004356134ca565b60046040517f6697b232000000000000000000000000000000000000000000000000000000008152fd5b346101e2575f6003193601126101e2576020611651613707565b346101e2575f6003193601126101e257602060405160128152f35b346101e25760406003193601126101e2576102d5600435612104612c5c565b90805f527f02dd7bc7dec4dceedda775e58dd541e08a116c6c53815c0bd028192f7b62680060205261213c600160405f200154613489565b6130b2565b346101e25760206003193601126101e2576004355f527f02dd7bc7dec4dceedda775e58dd541e08a116c6c53815c0bd028192f7b6268006020526020600160405f200154604051908152f35b346101e25760606003193601126101e2576111cb6121a9612c39565b6121b1612c5c565b604435916121c0833383613174565b61331c565b346101e2575f6003193601126101e25760207f52c63247e1f47db19d5ce0460030c497f067ca4cebf71ba98eeadabe20bace0254604051908152f35b346101e25760206003193601126101e25773ffffffffffffffffffffffffffffffffffffffff61222f612c39565b165f5260016020526020600260405f200154604051908152f35b346101e25760406003193601126101e2576111cb612265612c39565b6024359033613660565b346101e25760606003193601126101e25767ffffffffffffffff6004358181116101e2576122a1903690600401612c1b565b6024358281116101e2576122b9903690600401612c1b565b60443573ffffffffffffffffffffffffffffffffffffffff811681036101e2577ff0c57e16840df040f15088dc2f81fe391c3923bec73e23a9662efc9c229c6a009283549460ff8660401c161593818716968715806129f7575b600180991490816129ed575b1590816129e4575b506110575785887fffffffffffffffffffffffffffffffffffffffffffffffff000000000000000083161788556129af575b50612362613607565b61236a613607565b825190828211610475577f52c63247e1f47db19d5ce0460030c497f067ca4cebf71ba98eeadabe20bace0361239f8154612cc2565b92601f9384811161294d575b508060208582116001146128d4575f916128c9575b505f19828c1b9260031b1c19161790555b805183811161047557807f52c63247e1f47db19d5ce0460030c497f067ca4cebf71ba98eeadabe20bace04926124078454612cc2565b85811161285c575b506020908583116001146127e1575f926127d6575b50505f19828b1b9260031b1c19161790555b61243e613607565b6040519261244b84612b8a565b8784527f3100000000000000000000000000000000000000000000000000000000000000602085015261247c613607565b805183811161047557807fa16a46d94261c7517cc8ff89f61c0ce93598e3c849801011dee649a6a557d102926124b28454612cc2565b858111612769575b506020908583116001146126ee575f926126e3575b50505f19828b1b9260031b1c19161790555b8251918211610475577fa16a46d94261c7517cc8ff89f61c0ce93598e3c849801011dee649a6a557d103926125168454612cc2565b828111612681575b5060209183116001146125ff57612599949392915f91836125f4575b50505f1982891b9260031b1c19161790555f7fa16a46d94261c7517cc8ff89f61c0ce93598e3c849801011dee649a6a557d100555f7fa16a46d94261c7517cc8ff89f61c0ce93598e3c849801011dee649a6a557d10155610996613607565b506125a057005b7fc7f505b2f371ae2175ee4913f4499e1f2633a7b5936321eed1cdaeb6115181d291817fffffffffffffffffffffffffffffffffffffffffffffff00ffffffffffffffff60209354169055604051908152a1005b01519050888061253a565b9392918791601f19821690845f527f5f9ce34815f8e11431c7bb75a8e6886a91478f7ffc1dbb0a98dc240fddd76b75915f5b81811061266957509683612599981061265157505050811b019055610948565b01515f1960f88460031b161c19169055888080610ac4565b8289015184558b959093019260209283019201612631565b845f527f5f9ce34815f8e11431c7bb75a8e6886a91478f7ffc1dbb0a98dc240fddd76b758380860160051c820192602087106126da575b0160051c019089905b8281106126cf57505061251e565b5f81550189906126c1565b925081926126b8565b015190508a806124cf565b90601f198c941691855f527f42ad5d3e1f2e6e70edcf6d991b8a3023d3fca8047a131592f9edb9fd9b89d57d925f5b81811061275157508411612739575b505050811b0190556124e1565b01515f1960f88460031b161c191690558a808061272c565b8284015185558e96909401936020938401930161271d565b909150835f527f42ad5d3e1f2e6e70edcf6d991b8a3023d3fca8047a131592f9edb9fd9b89d57d8580850160051c820192602086106127cd575b918d91869594930160051c01915b8281106127bf5750506124ba565b5f81558594508d91016127b1565b925081926127a3565b015190508a80612424565b90601f198c941691855f527f46a2803e59a4de4e7a4c574b1243f25977ac4c77d5a1a4a609b5394cebb4a2aa925f5b8181106128445750841161282c575b505050811b019055612436565b01515f1960f88460031b161c191690558a808061281f565b8284015185558e969094019360209384019301612810565b909150835f527f46a2803e59a4de4e7a4c574b1243f25977ac4c77d5a1a4a609b5394cebb4a2aa8580850160051c820192602086106128c0575b918d91869594930160051c01915b8281106128b257505061240f565b5f81558594508d91016128a4565b92508192612896565b90508601518b6123c0565b601f198c931690845f527f2ae08a8e29253f69ac5d979a101956ab8f8d9d7ded63fa7a83b16fc47648eab0915f5b8181106129355750831161291d575b5050811b0190556123d1565b8801515f1960f88460031b161c191690558b80612911565b8a83015184558e959093019260209283019201612902565b825f527f2ae08a8e29253f69ac5d979a101956ab8f8d9d7ded63fa7a83b16fc47648eab08580840160051c820192602085106129a6575b0160051c01908b905b82811061299b5750506123ab565b5f8155018b9061298d565b92508192612984565b7fffffffffffffffffffffffffffffffffffffffffffffff000000000000000000166801000000000000000117865587612359565b90501589612327565b303b15915061231f565b5085612313565b346101e2575f6003193601126101e2576040517f52c63247e1f47db19d5ce0460030c497f067ca4cebf71ba98eeadabe20bace038054825f612a3f83612cc2565b92838352602094600191866001821691825f14611737575050600114612a6d5750506116c992500383612ba6565b8592505f527f2ae08a8e29253f69ac5d979a101956ab8f8d9d7ded63fa7a83b16fc47648eab0905f915b858310612aaf5750506116c9935082010185806116bb565b80548389018501528794508693909201918101612a97565b346101e25760206003193601126101e257600435907fffffffff0000000000000000000000000000000000000000000000000000000082168092036101e257817f7965db0b0000000000000000000000000000000000000000000000000000000060209314908115612b3b575b5015158152f35b7f01ffc9a70000000000000000000000000000000000000000000000000000000091501483612b34565b90601f19601f602080948051918291828752018686015e5f8582860101520116010190565b6040810190811067ffffffffffffffff82111761047557604052565b90601f601f19910116810190811067ffffffffffffffff82111761047557604052565b67ffffffffffffffff811161047557601f01601f191660200190565b929192612bf182612bc9565b91612bff6040519384612ba6565b8294818452818301116101e2578281602093845f960137010152565b9080601f830112156101e257816020612c3693359101612be5565b90565b6004359073ffffffffffffffffffffffffffffffffffffffff821682036101e257565b6024359073ffffffffffffffffffffffffffffffffffffffff821682036101e257565b906040516080810181811067ffffffffffffffff821117610475576040526060600382948054845260018101546020850152600281015460408501520154910152565b90600182811c92168015612d09575b6020831014612cdc57565b7f4e487b71000000000000000000000000000000000000000000000000000000005f52602260045260245ffd5b91607f1691612cd1565b604051905f827fa16a46d94261c7517cc8ff89f61c0ce93598e3c849801011dee649a6a557d10291825492612d4784612cc2565b80845293602091600191828116908115612dd55750600114612d75575b505050612d7392500383612ba6565b565b5f9081527f42ad5d3e1f2e6e70edcf6d991b8a3023d3fca8047a131592f9edb9fd9b89d57d9590935091905b828410612dbd5750612d739450505081016020015f8080612d64565b85548885018301529485019487945092810192612da1565b91505060209350612d739592507fffffffffffffffffffffffffffffffffffffffffffffffffffffffffffffff0091501682840152151560051b8201015f8080612d64565b604051905f827fa16a46d94261c7517cc8ff89f61c0ce93598e3c849801011dee649a6a557d10391825492612e4e84612cc2565b80845293602091600191828116908115612dd55750600114612e7957505050612d7392500383612ba6565b5f9081527f5f9ce34815f8e11431c7bb75a8e6886a91478f7ffc1dbb0a98dc240fddd76b759590935091905b828410612ec15750612d739450505081016020015f8080612d64565b85548885018301529485019487945092810192612ea5565b73ffffffffffffffffffffffffffffffffffffffff165f8181527fb7db2dd08fcb62d0c9e08c51941cae53c267786a0b75803fb7960902fc8ef97d60205260409020547f02dd7bc7dec4dceedda775e58dd541e08a116c6c53815c0bd028192f7b6268009060ff16612fae575f805260205260405f20815f5260205260405f2060017fffffffffffffffffffffffffffffffffffffffffffffffffffffffffffffff0082541617905533905f7f2f8788117e7eff1d82e926ec794901d17c78024a50270940304540a733656f0d8180a4600190565b50505f90565b73ffffffffffffffffffffffffffffffffffffffff165f8181527f4d44061e302ce240c09e60f815c0f6347fd82839d7b74858e680e192c4602a0c60205260409020547fcce296b040332a080e6df13515a3ec2869e21cd20f7344af0987ddb938d8bd2191907f02dd7bc7dec4dceedda775e58dd541e08a116c6c53815c0bd028192f7b6268009060ff166130ab57825f5260205260405f20815f5260205260405f2060017fffffffffffffffffffffffffffffffffffffffffffffffffffffffffffffff0082541617905533917f2f8788117e7eff1d82e926ec794901d17c78024a50270940304540a733656f0d5f80a4600190565b5050505f90565b90815f527f02dd7bc7dec4dceedda775e58dd541e08a116c6c53815c0bd028192f7b6268008060205273ffffffffffffffffffffffffffffffffffffffff60405f20921691825f5260205260ff60405f205416155f146130ab57825f5260205260405f20815f5260205260405f2060017fffffffffffffffffffffffffffffffffffffffffffffffffffffffffffffff0082541617905533917f2f8788117e7eff1d82e926ec794901d17c78024a50270940304540a733656f0d5f80a4600190565b6131bb8173ffffffffffffffffffffffffffffffffffffffff165f527f52c63247e1f47db19d5ce0460030c497f067ca4cebf71ba98eeadabe20bace0160205260405f2090565b9073ffffffffffffffffffffffffffffffffffffffff80841692835f5260205260405f2054935f1985036131f2575b505050505050565b8585106132c557508116156132955781156132655761324e9073ffffffffffffffffffffffffffffffffffffffff165f527f52c63247e1f47db19d5ce0460030c497f067ca4cebf71ba98eeadabe20bace0160205260405f2090565b905f526020520360405f20555f80808080806131ea565b60246040517f94280d620000000000000000000000000000000000000000000000000000000081525f6004820152fd5b60246040517fe602df050000000000000000000000000000000000000000000000000000000081525f6004820152fd5b6040517ffb8f41b200000000000000000000000000000000000000000000000000000000815273ffffffffffffffffffffffffffffffffffffffff9190911660048201526024810185905260448101869052606490fd5b9173ffffffffffffffffffffffffffffffffffffffff8084169283156115045716928315611f9857825f527f52c63247e1f47db19d5ce0460030c497f067ca4cebf71ba98eeadabe20bace008060205260405f2054918383106133c2575091806020927fddf252ad1be2c89b69c2b068fc378daa952ba7f163c4a11628f55a4df523b3ef94865f5284520360405f2055845f5260405f20818154019055604051908152a3565b6040517fe450d38c00000000000000000000000000000000000000000000000000000000815273ffffffffffffffffffffffffffffffffffffffff91909116600482015260248101929092525060448101829052606490fd5b335f9081527fb7db2dd08fcb62d0c9e08c51941cae53c267786a0b75803fb7960902fc8ef97d602052604090205460ff161561345357565b60446040517fe2517d3f0000000000000000000000000000000000000000000000000000000081523360048201525f6024820152fd5b805f527f02dd7bc7dec4dceedda775e58dd541e08a116c6c53815c0bd028192f7b62680060205260405f20335f5260205260ff60405f2054161561138f5750565b90815f527f02dd7bc7dec4dceedda775e58dd541e08a116c6c53815c0bd028192f7b6268008060205273ffffffffffffffffffffffffffffffffffffffff60405f20921691825f5260205260ff60405f2054165f146130ab57825f5260205260405f20815f5260205260405f207fffffffffffffffffffffffffffffffffffffffffffffffffffffffffffffff00815416905533917ff6391f5c32d9c69d2a47ea670b442974b53935d1edc7fd64eb21e047a839171b5f80a4600190565b9190820391821161359557565b7f4e487b71000000000000000000000000000000000000000000000000000000005f52601160045260245ffd5b9190820180921161359557565b916135dd9093919342613588565b818102918183041490151715613595576135f6916135c2565b81811115613602575090565b905090565b60ff7ff0c57e16840df040f15088dc2f81fe391c3923bec73e23a9662efc9c229c6a005460401c161561363657565b60046040517fd7e6bcf8000000000000000000000000000000000000000000000000000000008152fd5b9173ffffffffffffffffffffffffffffffffffffffff8084169283156132955716928315613265577f8c5be1e5ebec7d5bd14f71427d1e84f3dd0314c0f7b2291e5b200ac8c7c3b925916136f360209273ffffffffffffffffffffffffffffffffffffffff165f527f52c63247e1f47db19d5ce0460030c497f067ca4cebf71ba98eeadabe20bace0160205260405f2090565b855f5282528060405f2055604051908152a3565b61370f6138fc565b613717613966565b6040519060208201927f8b73c3c69bb8fe3d512ecc4cf759cc79239f7b179b0ffacaa9a75d522b39400f8452604083015260608201524660808201523060a082015260a0815260c0810181811067ffffffffffffffff8211176104755760405251902090565b91907f7fffffffffffffffffffffffffffffff5d576e7357a4501ddfe92f46681b20a0841161380c579160209360809260ff5f9560405194855216868401526040830152606082015282805260015afa15613801575f5173ffffffffffffffffffffffffffffffffffffffff8116156137f757905f905f90565b505f906001905f90565b6040513d5f823e3d90fd5b5050505f9160039190565b60048110156138cf5780613829575050565b6001810361385b5760046040517ff645eedf000000000000000000000000000000000000000000000000000000008152fd5b6002810361389457602482604051907ffce698f70000000000000000000000000000000000000000000000000000000082526004820152fd5b60031461389e5750565b602490604051907fd78bce0c0000000000000000000000000000000000000000000000000000000082526004820152fd5b7f4e487b71000000000000000000000000000000000000000000000000000000005f52602160045260245ffd5b613904612d13565b8051908115613914576020012090565b50507fa16a46d94261c7517cc8ff89f61c0ce93598e3c849801011dee649a6a557d1005480156139415790565b507fc5d2460186f7233c927e7db2dcc703c0e500b653ca82273b7bfad8045d85a47090565b61396e612e1a565b805190811561397e576020012090565b50507fa16a46d94261c7517cc8ff89f61c0ce93598e3c849801011dee649a6a557d1015480156139415790565b906139ea57508051156139c057805190602001fd5b60046040517f1425ea42000000000000000000000000000000000000000000000000000000008152fd5b81511580613a42575b6139fb575090565b60249073ffffffffffffffffffffffffffffffffffffffff604051917f9996b315000000000000000000000000000000000000000000000000000000008352166004820152fd5b50803b156139f356fea26469706673582212206a8e49ca9e0a1e5077ee425a66bde315ea7e066c793c1ee92607c821c783b5c164736f6c63430008190033","linkReferences":{}},"methodIdentifiers":{"BRIDGE_MANAGER_ROLE()":"f75e8512","DEFAULT_ADMIN_ROLE()":"a217fddf","DOMAIN_SEPARATOR()":"3644e515","UPGRADE_INTERFACE_VERSION()":"ad3cb1cc","allowance(address,address)":"dd62ed3e","approve(address,uint256)":"095ea7b3","balanceOf(address)":"70a08231","bridges(address)":"ced67f0c","burn(address,uint256)":"9dc29fac","burningCurrentLimitOf(address)":"998955d3","burningMaxLimitOf(address)":"c1eb7137","decimals()":"313ce567","eip712Domain()":"84b0196e","getRoleAdmin(bytes32)":"248a9ca3","grantRole(bytes32,address)":"2f2ff15d","hasRole(bytes32,address)":"91d14854","initialize(address)":"c4d66de8","initialize(string,string,address)":"077f224a","lockbox()":"66cc5702","mint(address,uint256)":"40c10f19","mintingCurrentLimitOf(address)":"651fd268","mintingMaxLimitOf(address)":"0c05f82c","name()":"06fdde03","nonces(address)":"7ecebe00","permit(address,address,uint256,uint256,uint8,bytes32,bytes32)":"d505accf","proxiableUUID()":"52d1902d","renounceRole(bytes32,address)":"36568abe","revokeRole(bytes32,address)":"d547741f","setLimits(address,uint256,uint256)":"a08d5654","setLockbox(address)":"435350b7","supportsInterface(bytes4)":"01ffc9a7","symbol()":"95d89b41","totalSupply()":"18160ddd","transfer(address,uint256)":"a9059cbb","transferFrom(address,address,uint256)":"23b872dd","upgradeToAndCall(address,bytes)":"4f1ef286"},"id":187}