{"abi":[{"type":"constructor","inputs":[{"name":"_token_addr","type":"address","internalType":"address"},{"name":"_name","type":"string","internalType":"string"},{"name":"_symbol","type":"string","internalType":"string"},{"name":"_version","type":"string","internalType":"string"}],"stateMutability":"nonpayable"},{"type":"function","name":"MAXTIME","inputs":[],"outputs":[{"name":"","type":"uint256","internalType":"uint256"}],"stateMutability":"view"},{"type":"function","name":"MAX_EPOCH_JUMP","inputs":[],"outputs":[{"name":"","type":"uint256","internalType":"uint256"}],"stateMutability":"view"},{"type":"function","name":"WEEK","inputs":[],"outputs":[{"name":"","type":"uint256","internalType":"uint256"}],"stateMutability":"view"},{"type":"function","name":"balanceOf","inputs":[{"name":"_owner","type":"address","internalType":"address"}],"outputs":[{"name":"","type":"uint256","internalType":"uint256"}],"stateMutability":"view"},{"type":"function","name":"balanceOfAt","inputs":[{"name":"_owner","type":"address","internalType":"address"},{"name":"_t","type":"uint256","internalType":"uint256"}],"outputs":[{"name":"","type":"uint256","internalType":"uint256"}],"stateMutability":"view"},{"type":"function","name":"create_lock","inputs":[{"name":"_value","type":"uint256","internalType":"uint256"},{"name":"_unlock_time","type":"uint256","internalType":"uint256"}],"outputs":[],"stateMutability":"nonpayable"},{"type":"function","name":"decimals","inputs":[],"outputs":[{"name":"","type":"uint8","internalType":"uint8"}],"stateMutability":"view"},{"type":"function","name":"epoch","inputs":[],"outputs":[{"name":"","type":"uint256","internalType":"uint256"}],"stateMutability":"view"},{"type":"function","name":"iMAXTIME","inputs":[],"outputs":[{"name":"","type":"int128","internalType":"int128"}],"stateMutability":"view"},{"type":"function","name":"increase_amount","inputs":[{"name":"_value","type":"uint256","internalType":"uint256"}],"outputs":[],"stateMutability":"nonpayable"},{"type":"function","name":"increase_unlock_time","inputs":[{"name":"_unlock_time","type":"uint256","internalType":"uint256"}],"outputs":[],"stateMutability":"nonpayable"},{"type":"function","name":"locked","inputs":[{"name":"","type":"address","internalType":"address"}],"outputs":[{"name":"amount","type":"int128","internalType":"int128"},{"name":"end","type":"uint256","internalType":"uint256"}],"stateMutability":"view"},{"type":"function","name":"name","inputs":[],"outputs":[{"name":"","type":"string","internalType":"string"}],"stateMutability":"view"},{"type":"function","name":"point_history","inputs":[{"name":"","type":"uint256","internalType":"uint256"}],"outputs":[{"name":"bias","type":"int256","internalType":"int256"},{"name":"slope","type":"int128","internalType":"int128"},{"name":"ts","type":"uint256","internalType":"uint256"},{"name":"blk","type":"uint256","internalType":"uint256"}],"stateMutability":"view"},{"type":"function","name":"supply","inputs":[],"outputs":[{"name":"","type":"uint256","internalType":"uint256"}],"stateMutability":"view"},{"type":"function","name":"symbol","inputs":[],"outputs":[{"name":"","type":"string","internalType":"string"}],"stateMutability":"view"},{"type":"function","name":"token","inputs":[],"outputs":[{"name":"","type":"address","internalType":"contract IERC20"}],"stateMutability":"view"},{"type":"function","name":"totalSupply","inputs":[],"outputs":[{"name":"","type":"uint256","internalType":"uint256"}],"stateMutability":"view"},{"type":"function","name":"totalSupplyAt","inputs":[{"name":"_t","type":"uint256","internalType":"uint256"}],"outputs":[{"name":"","type":"uint256","internalType":"uint256"}],"stateMutability":"view"},{"type":"function","name":"user_point_epoch","inputs":[{"name":"","type":"address","internalType":"address"}],"outputs":[{"name":"","type":"uint256","internalType":"uint256"}],"stateMutability":"view"},{"type":"function","name":"user_point_history","inputs":[{"name":"","type":"address","internalType":"address"},{"name":"","type":"uint256","internalType":"uint256"}],"outputs":[{"name":"bias","type":"int256","internalType":"int256"},{"name":"slope","type":"int128","internalType":"int128"},{"name":"ts","type":"uint256","internalType":"uint256"},{"name":"blk","type":"uint256","internalType":"uint256"}],"stateMutability":"view"},{"type":"function","name":"version","inputs":[],"outputs":[{"name":"","type":"string","internalType":"string"}],"stateMutability":"view"},{"type":"function","name":"withdraw","inputs":[],"outputs":[],"stateMutability":"nonpayable"},{"type":"event","name":"Deposit","inputs":[{"name":"provider","type":"address","indexed":true,"internalType":"address"},{"name":"value","type":"uint256","indexed":false,"internalType":"uint256"},{"name":"locktime","type":"uint256","indexed":true,"internalType":"uint256"},{"name":"deposit_type","type":"uint8","indexed":true,"internalType":"enum VotingEscrow.DepositType"},{"name":"ts","type":"uint256","indexed":false,"internalType":"uint256"}],"anonymous":false},{"type":"event","name":"Supply","inputs":[{"name":"prevSupply","type":"uint256","indexed":false,"internalType":"uint256"},{"name":"supply","type":"uint256","indexed":false,"internalType":"uint256"}],"anonymous":false},{"type":"event","name":"Withdraw","inputs":[{"name":"provider","type":"address","indexed":true,"internalType":"address"},{"name":"value","type":"uint256","indexed":false,"internalType":"uint256"},{"name":"ts","type":"uint256","indexed":false,"internalType":"uint256"}],"anonymous":false},{"type":"error","name":"AddressEmptyCode","inputs":[{"name":"target","type":"address","internalType":"address"}]},{"type":"error","name":"AddressInsufficientBalance","inputs":[{"name":"account","type":"address","internalType":"address"}]},{"type":"error","name":"FailedInnerCall","inputs":[]},{"type":"error","name":"ReentrancyGuardReentrantCall","inputs":[]},{"type":"error","name":"SafeCastOverflowedIntToUint","inputs":[{"name":"value","type":"int256","internalType":"int256"}]},{"type":"error","name":"SafeERC20FailedOperation","inputs":[{"name":"token","type":"address","internalType":"address"}]}],"bytecode":{"object":"0x60a06040523461047b57611f24803803806100198161047f565b928339810160808282031261047b5781516001600160a01b038116919082900361047b5760208381015190936001600160401b0392909183811161047b57816100639184016104a4565b91604081015184811161047b578261007c9183016104a4565b91606082015185811161047b5761009392016104a4565b90600194855f55801561043657608052825184811161029b578554938685811c9516801561042c575b8886101461027d578190601f958681116103de575b50889086831160011461037f575f92610374575b50505f19600383901b1c191690861b1785555b80519084821161029b57600254908682811c9216801561036a575b8883101461027d57818584931161031b575b5087908583116001146102ba575f926102af575b50505f19600383901b1c191690851b176002555b805192831161029b5760039485548581811c91168015610291575b8282101461027d5783811161023a575b50809284116001146101d957509282939183925f946101ce575b50501b915f1990841b1c19161790555b601260ff196004541617600455604051611a2e90816104f6823960805181818161013001526107b00152f35b015192505f80610192565b919083601f198116875f52845f20945f905b888383106102205750505010610209575b505050811b0190556101a2565b01515f1983861b60f8161c191690555f80806101fc565b8587015188559096019594850194879350908101906101eb565b865f52815f208480870160051c820192848810610274575b0160051c019086905b828110610269575050610178565b5f815501869061025b565b92508192610252565b634e487b7160e01b5f52602260045260245ffd5b90607f1690610168565b634e487b7160e01b5f52604160045260245ffd5b015190505f80610139565b90879350601f1983169160025f52895f20925f5b8b82821061030557505084116102ed575b505050811b0160025561014d565b01515f1960f88460031b161c191690555f80806102df565b8385015186558b979095019493840193016102ce565b90915060025f52875f208580850160051c8201928a8610610361575b918991869594930160051c01915b828110610353575050610125565b5f8155859450899101610345565b92508192610337565b91607f1691610113565b015190505f806100e5565b90889350601f19831691845f528a5f20925f5b8c8282106103c857505084116103b0575b505050811b0185556100f8565b01515f1960f88460031b161c191690555f80806103a3565b8385015186558c97909501949384019301610392565b909150875f52885f208680850160051c8201928b8610610423575b918a91869594930160051c01915b8281106104155750506100d1565b5f81558594508a9101610407565b925081926103f9565b94607f16946100bc565b60405162461bcd60e51b815260048101889052601960248201527f56453a20496e76616c696420746f6b656e2061646472657373000000000000006044820152606490fd5b5f80fd5b6040519190601f01601f191682016001600160401b0381118382101761029b57604052565b81601f8201121561047b578051906001600160401b03821161029b576104d3601f8301601f191660200161047f565b928284526020838301011161047b57815f9260208093018386015e830101529056fe6080604090808252600480361015610015575f80fd5b5f3560e01c918263010ae75714610f2d57508163047fc9aa14610f0f57816306fdde0314610e4f578163096f5be214610e3457816318160ddd14610e1757816328d09d4714610da1578163313ce56714610d82578163338a0b08146104395781633ccfd60b14610c165781634957677c14610a575781634ee2cd7e14610a0c57816354fd4d501461094c57816365fc38731461067957816370a082311461063c578163900cf0cf1461061e57816395d89b4114610520578163981b24d0146104fb578163cbf9fe5f146104b8578163d1febfb914610457578163ee00ef3a14610439578163eff7a6121461018057508063f4359ce5146101635763fc0c546a1461011d575f80fd5b3461015f575f36600319011261015f57517f00000000000000000000000000000000000000000000000000000000000000006001600160a01b03168152602090f35b5f80fd5b503461015f575f36600319011261015f576020905162093a808152f35b90503461015f576020908160031936011261015f578035906101a0611273565b335f5260078352835f20908451926101b784610f77565b6101d55f60018554600f0b958688520154948787019586521361106f565b82514210156104035782518111156103c057806102e1575b508251600f0b60016001607f1b03811360016001607f1b03198212176102ce57805f918552131561028b5760036001857fbe9cf0e939c614fad640a623a53ba0a807c8cb503c4c4c8dacabe27b86ff2dd588878761024c828033611303565b335f5260078552825f2091516001600160801b0319835416906001600160801b03161782555194859101558051925f845242908401523392a460015f55005b845162461bcd60e51b8152908101849052601f60248201527f56453a204e6577206c6f636b20616d6f756e74206d757374206265203e2030006044820152606490fd5b601182634e487b7160e01b5f525260245ffd5b4281111561037d57630784ce00420180421161036a57811161031c5762093a808091048181029181830414901517156102ce5782525f6101ed565b855162461bcd60e51b8152808301869052602260248201527f56453a20566f74696e67206c6f636b2063616e2062652034207965617273206d6044820152610c2f60f31b6064820152608490fd5b601183634e487b7160e01b5f525260245ffd5b855162461bcd60e51b8152808301869052601e60248201527f56453a2043616e206f6e6c79206c6f636b20756e74696c2066757475726500006044820152606490fd5b855162461bcd60e51b8152808301869052601f60248201527f56453a2043616e206f6e6c7920696e637265617365206c6f636b2074696d65006044820152606490fd5b855162461bcd60e51b8152808301869052601060248201526f15914e88131bd8dac8195e1c1a5c995960821b6044820152606490fd5b823461015f575f36600319011261015f5760209051630784ce008152f35b90503461015f57602036600319011261015f57355f526005602052805f20906104b48254916001840154600f0b93600360028201549101549151948594859094939260609260808301968352600f0b602083015260408201520152565b0390f35b823461015f57602036600319011261015f576001600160a01b036104da610f61565b165f526007602052805f2060018154600f0b91015482519182526020820152f35b823461015f57602036600319011261015f576105196020923561117c565b9051908152f35b823461015f575f36600319011261015f578051905f9260025460018160011c91600181168015610614575b602094858510821461060157508387529081156105e15750600114610587575b50505061057d826104b4940383610fdf565b5191829182611001565b60025f9081529295507f405787fa12a823e0f2b7631cc41b3ba8828b3321ca811111fa75cd3aa3bb5ace5b8284106105ce57505050826104b49461057d928201019461056b565b80548685018801529286019281016105b2565b60ff1916868501525050151560051b830101925061057d826104b461056b565b602290634e487b7160e01b5f525260245ffd5b92607f169261054b565b823461015f575f36600319011261015f576020906008549051908152f35b823461015f57602036600319011261015f5760209061051961065c610f61565b6001600160a01b0381165f908152600985528390205442916117fd565b90503461015f578160031936011261015f5780359060249081359061069c611273565b335f5260209260078452855f209260018751946106b886610f77565b8054600f0b8652015492858501938452861515916106d58361102b565b8551600f0b61090a578061081c575b505f6106f788600f0b8751600f0b6112dd565b600f0b80875213156107da57600180887fbe9cf0e939c614fad640a623a53ba0a807c8cb503c4c4c8dacabe27b86ff2dd58b8a8a8a8a8a610739848033611303565b61077d575b50335f5260078352835f2091516001600160801b0319835416906001600160801b0316178255519586910155815193845242908401523392a460015f55005b6107d4908551906323b872dd60e01b868301523390820152306044820152876064820152606481526107ae81610fc3565b7f00000000000000000000000000000000000000000000000000000000000000006118dc565b8861073e565b875162461bcd60e51b8152908101869052601f818401527f56453a204e6577206c6f636b20616d6f756e74206d757374206265203e2030006044820152606490fd5b428111156108c857630784ce0042018042116108b65781116108695762093a808091048181029181830414901517156108575784525f6106e4565b83601183634e487b7160e01b5f52525ffd5b885162461bcd60e51b81528083018890526022818601527f56453a20566f74696e67206c6f636b2063616e2062652034207965617273206d6044820152610c2f60f31b6064820152608490fd5b84601184634e487b7160e01b5f52525ffd5b885162461bcd60e51b8152808301889052601e818601527f56453a2043616e206f6e6c79206c6f636b20756e74696c2066757475726500006044820152606490fd5b885162461bcd60e51b8152808301889052601d818601527f56453a205769746864726177206f6c6420746f6b656e732066697273740000006044820152606490fd5b823461015f575f36600319011261015f578051905f9260035460018160011c91600181168015610a02575b602094858510821461060157508387529081156105e157506001146109a85750505061057d826104b4940383610fdf565b60035f9081529295507fc2575a0e9e593c00f959f8c92f12db2869c3395a3b0502d05e2516446f71f85b5b8284106109ef57505050826104b49461057d928201019461056b565b80548685018801529286019281016109d3565b92607f1692610977565b823461015f578060031936011261015f57602090610519610a2b610f61565b60243590610a3b428311156110af565b6001600160a01b0381165f9081526009865284902054906117fd565b90503461015f5760208060031936011261015f57813591610a76611273565b335f5260078252835f20906001855192610a8f84610f77565b8054600f0b845201549083830191825284151590610aac8261102b565b610abb5f8551600f0b1361106f565b8251421015610bd3575f610ad687600f0b8651600f0b6112dd565b600f0b8086521315610b905760026001877fbe9cf0e939c614fad640a623a53ba0a807c8cb503c4c4c8dacabe27b86ff2dd58a89898989610b18838033611303565b610b5b575b335f5260078352835f2091516001600160801b0319835416906001600160801b0316178255519586910155815193845242908401523392a460015f55005b610b8b84516323b872dd60e01b85820152336024820152306044820152876064820152606481526107ae81610fc3565b610b1d565b865162461bcd60e51b8152908101859052601f60248201527f56453a204e6577206c6f636b20616d6f756e74206d757374206265203e2030006044820152606490fd5b865162461bcd60e51b8152908101859052601e60248201527f56453a2043616e6e6f742061646420746f2065787069726564206c6f636b00006044820152606490fd5b823461015f575f36600319011261015f57610c2f611273565b335f52602060078152815f20926001835194610c4a86610f77565b8054600f0b8652015480838601524210610d41575f8451600f0b1315610d005750907ff279e6a1f5e320cca91135676d9cb6e44ca8a08c0b88342bcdb1144f6511b56891610cb18451600f0b94835190610ca382610f77565b5f82525f8483015233611303565b335f52600781525f60018382208281550155610ced825163a9059cbb60e01b83820152336024820152856044820152604481526107ae81610fa7565b815193845242908401523392a260015f55005b915162461bcd60e51b815291820152601760248201527f56453a204e6f7468696e6720746f2077697468647261770000000000000000006044820152606490fd5b915162461bcd60e51b815291820152601860248201527f56453a204c6f636b206e6f7420796574206578706972656400000000000000006044820152606490fd5b823461015f575f36600319011261015f5760ff60209254169051908152f35b823461015f578060031936011261015f576001600160a01b03610dc2610f61565b165f526006602052805f206024355f52602052805f20906104b48254916001840154600f0b93600360028201549101549151948594859094939260609260808301968352600f0b602083015260408201520152565b823461015f575f36600319011261015f576020906105194261117c565b823461015f575f36600319011261015f576020905160ff8152f35b823461015f575f36600319011261015f578051905f9260018054908160011c91600181168015610f05575b602094858510821461060157508387529081156105e15750600114610eab5750505061057d826104b4940383610fdf565b60015f9081529295507fb10e2d527612073b26eecdfd717e6a320cf44b4afac2b0732d9fcbe2b7fa0cf65b828410610ef257505050826104b49461057d928201019461056b565b8054868501880152928601928101610ed6565b92607f1692610e7a565b823461015f575f36600319011261015f57602090600a549051908152f35b83903461015f57602036600319011261015f576020916001600160a01b03610f53610f61565b165f52600983525f20548152f35b600435906001600160a01b038216820361015f57565b6040810190811067ffffffffffffffff821117610f9357604052565b634e487b7160e01b5f52604160045260245ffd5b6080810190811067ffffffffffffffff821117610f9357604052565b60a0810190811067ffffffffffffffff821117610f9357604052565b90601f8019910116810190811067ffffffffffffffff821117610f9357604052565b602060409281835280519182918282860152018484015e5f828201840152601f01601f1916010190565b1561103257565b60405162461bcd60e51b8152602060048201526015602482015274056453a2056616c7565206d757374206265203e203605c1b6044820152606490fd5b1561107657565b60405162461bcd60e51b815260206004820152601160248201527015914e88139bc81b1bd8dac8199bdd5b99607a1b6044820152606490fd5b156110b657565b60405162461bcd60e51b815260206004820152601760248201527f56453a2054696d657374616d7020696e206675747572650000000000000000006044820152606490fd5b9190820180921161110857565b634e487b7160e01b5f52601160045260245ffd5b9190820391821161110857565b90630784ce009182810292818405149015171561110857565b81810292915f8212600160ff1b82141661110857818405149015171561110857565b81810392915f13801582851316918412161761110857565b611188428211156110af565b600854801561126d576001905b8082106112135750906111fb915f5260056020526111f560405f206111ef604051916111c083610fa7565b8054948584526001820154600f0b9384602082015260606003600285015494856040850152015491015261111c565b90611142565b90611164565b5f811261120e5761120b906118ba565b90565b505f90565b61121d81836110fb565b600181018091116111085760011c90815f52600560205283600260405f200154115f1461126557505f1981019081111561119557634e487b7160e01b5f52601160045260245ffd5b915090611195565b50505f90565b60025f54146112825760025f55565b604051633ee5aeb560e01b8152600490fd5b604051906112a182610fa7565b5f6060838281528260208201528260408201520152565b600f91820b910b039060016001607f1b0319821260016001607f1b0383131761110857565b90600f0b90600f0b019060016001607f1b0319821260016001607f1b0383131761110857565b61130b611294565b91611314611294565b915f945f9160018060a01b031690815f52600960205260405f205493846117b1575b602081015190428211806117a4575b611755575b505060208101519042821180611748575b611714575b50506001830180931161110857805f5260096020528260405f2055604084019242845260608501914383525f52600660205260405f20905f52602052600360405f2091855183556001830194602087019586516001600160801b0319825416906001600160801b0316179055516002840155519101556008549283156116aa575b835f52600560205261140862093a80611401600260405f2001544261111c565b04856110fb565b938085116115bf575b5083600855835f52600560205260405f20906040519161143083610fa7565b6001815491828552015495600f966020850190880b8152604085019161146260608701944285524386528b5190611164565b9451945f8682019687129112908015821691151617611108576114aa6114fb986114a06115009c6003988a5260208d8751900b9101518d0b906112b8565b90518b0b906112dd565b890b82525f52600560205260405f20945185556001850190516001600160801b0319825416906001600160801b0316179055516002840155519101556114f4600a5495840b611129565b920b611129565b611164565b5f811261155d57611513611519916118ba565b826110fb565b600a555b600a5480820361152b575050565b7f5e2aa66efd74cce82b21852e317e5490d9ecc9e6bb953ae24d90851258cc2f5c9160409182519182526020820152a1565b600160ff1b8114611108575f038082106115835761157b908261111c565b600a5561151d565b60405162461bcd60e51b815260206004820152601460248201527356453a20537570706c7920756e646572666c6f7760601b6044820152606490fd5b60ff6115cb828761111c565b1161166557805f52600560205260405f2090604051906115ea82610fa7565b8254825260036001840154600f0b936020840194855260028101546040850152015460608301525b868110611620575050611411565b8151906001810191828211611108576001925f52600560205260405f209081558285519101906001600160801b0319825416906001600160801b031617905501611612565b60405162461bcd60e51b815260206004820152601b60248201527f56453a20546f6f206d616e792065706f63687320746f2066696c6c00000000006044820152606490fd5b604051600194506116ba81610fa7565b5f81526003602082015f815260408301428152606084019143835260015f52600560205260405f20945185556001850190516001600160801b0319825416906001600160801b0316179055516002840155519101556113e1565b630784ce0091935051600f0b059161173a61173484600f0b92429061111c565b82611142565b855260208501525f80611360565b505f8151600f0b1361135b565b611784919850611774630784ce0061177d9251600f0b0599429061111c565b89600f0b611142565b8751611164565b865260208601611798888251600f0b6112b8565b600f0b90525f8061134a565b505f8151600f0b13611345565b9550600660205260405f20845f5260205260405f206003604051916117d583610fa7565b805483526001810154600f0b6020840152600281015460408401520154606082015295611336565b92919080156118b3576001905b80821061184757506111fb929360018060a01b03165f52600660205260405f20905f526020526111f560405f206111ef604051916111c083610fa7565b61185181836110fb565b600181018091116111085760011c9060018060a01b0386165f52836002602060068152604090815f2090865f52525f200154115f146118ab57505f1981019081111561180a57634e487b7160e01b5f52601160045260245ffd5b91509061180a565b505f925050565b5f81126118c45790565b60249060405190635467221960e11b82526004820152fd5b81516001600160a01b03909116915f91829160200182855af13d15611989573d67ffffffffffffffff8111610f935761193791604051916119276020601f19601f8401160184610fdf565b82523d5f602084013e5b83611995565b8051908115159182611965575b505061194d5750565b60249060405190635274afe760e01b82526004820152fd5b819250906020918101031261015f576020015180159081150361015f575f80611944565b61193790606090611931565b906119bc57508051156119aa57805190602001fd5b604051630a12f52160e11b8152600490fd5b815115806119ef575b6119cd575090565b604051639996b31560e01b81526001600160a01b039091166004820152602490fd5b50803b156119c556fea2646970667358221220a1fb69e4496384c42b87036f7e72fd2e9dcd2ad9d91cafb147740694303f087164736f6c63430008190033","linkReferences":{}},"methodIdentifiers":{"MAXTIME()":"ee00ef3a","MAX_EPOCH_JUMP()":"096f5be2","WEEK()":"f4359ce5","balanceOf(address)":"70a08231","balanceOfAt(address,uint256)":"4ee2cd7e","create_lock(uint256,uint256)":"65fc3873","decimals()":"313ce567","epoch()":"900cf0cf","iMAXTIME()":"338a0b08","increase_amount(uint256)":"4957677c","increase_unlock_time(uint256)":"eff7a612","locked(address)":"cbf9fe5f","name()":"06fdde03","point_history(uint256)":"d1febfb9","supply()":"047fc9aa","symbol()":"95d89b41","token()":"fc0c546a","totalSupply()":"18160ddd","totalSupplyAt(uint256)":"981b24d0","user_point_epoch(address)":"010ae757","user_point_history(address,uint256)":"28d09d47","version()":"54fd4d50","withdraw()":"3ccfd60b"},"id":134}