{"abi":[{"type":"constructor","inputs":[{"name":"_token_addr","type":"address","internalType":"address"},{"name":"_name","type":"string","internalType":"string"},{"name":"_symbol","type":"string","internalType":"string"},{"name":"_version","type":"string","internalType":"string"}],"stateMutability":"nonpayable"},{"type":"function","name":"MAXTIME","inputs":[],"outputs":[{"name":"","type":"uint256","internalType":"uint256"}],"stateMutability":"view"},{"type":"function","name":"MAX_EPOCH_JUMP","inputs":[],"outputs":[{"name":"","type":"uint256","internalType":"uint256"}],"stateMutability":"view"},{"type":"function","name":"WEEK","inputs":[],"outputs":[{"name":"","type":"uint256","internalType":"uint256"}],"stateMutability":"view"},{"type":"function","name":"balanceOf","inputs":[{"name":"_owner","type":"address","internalType":"address"}],"outputs":[{"name":"","type":"uint256","internalType":"uint256"}],"stateMutability":"view"},{"type":"function","name":"balanceOfAt","inputs":[{"name":"_owner","type":"address","internalType":"address"},{"name":"_t","type":"uint256","internalType":"uint256"}],"outputs":[{"name":"","type":"uint256","internalType":"uint256"}],"stateMutability":"view"},{"type":"function","name":"create_lock","inputs":[{"name":"_value","type":"uint256","internalType":"uint256"},{"name":"_unlock_time","type":"uint256","internalType":"uint256"}],"outputs":[],"stateMutability":"nonpayable"},{"type":"function","name":"decimals","inputs":[],"outputs":[{"name":"","type":"uint8","internalType":"uint8"}],"stateMutability":"view"},{"type":"function","name":"epoch","inputs":[],"outputs":[{"name":"","type":"uint256","internalType":"uint256"}],"stateMutability":"view"},{"type":"function","name":"iMAXTIME","inputs":[],"outputs":[{"name":"","type":"int128","internalType":"int128"}],"stateMutability":"view"},{"type":"function","name":"increase_amount","inputs":[{"name":"_value","type":"uint256","internalType":"uint256"}],"outputs":[],"stateMutability":"nonpayable"},{"type":"function","name":"increase_unlock_time","inputs":[{"name":"_unlock_time","type":"uint256","internalType":"uint256"}],"outputs":[],"stateMutability":"nonpayable"},{"type":"function","name":"locked","inputs":[{"name":"","type":"address","internalType":"address"}],"outputs":[{"name":"amount","type":"int128","internalType":"int128"},{"name":"end","type":"uint256","internalType":"uint256"}],"stateMutability":"view"},{"type":"function","name":"name","inputs":[],"outputs":[{"name":"","type":"string","internalType":"string"}],"stateMutability":"view"},{"type":"function","name":"point_history","inputs":[{"name":"","type":"uint256","internalType":"uint256"}],"outputs":[{"name":"bias","type":"int256","internalType":"int256"},{"name":"slope","type":"int128","internalType":"int128"},{"name":"ts","type":"uint256","internalType":"uint256"},{"name":"blk","type":"uint256","internalType":"uint256"}],"stateMutability":"view"},{"type":"function","name":"supply","inputs":[],"outputs":[{"name":"","type":"uint256","internalType":"uint256"}],"stateMutability":"view"},{"type":"function","name":"symbol","inputs":[],"outputs":[{"name":"","type":"string","internalType":"string"}],"stateMutability":"view"},{"type":"function","name":"token","inputs":[],"outputs":[{"name":"","type":"address","internalType":"contract IERC20"}],"stateMutability":"view"},{"type":"function","name":"totalSupply","inputs":[],"outputs":[{"name":"","type":"uint256","internalType":"uint256"}],"stateMutability":"view"},{"type":"function","name":"totalSupplyAt","inputs":[{"name":"_t","type":"uint256","internalType":"uint256"}],"outputs":[{"name":"","type":"uint256","internalType":"uint256"}],"stateMutability":"view"},{"type":"function","name":"user_point_epoch","inputs":[{"name":"","type":"address","internalType":"address"}],"outputs":[{"name":"","type":"uint256","internalType":"uint256"}],"stateMutability":"view"},{"type":"function","name":"user_point_history","inputs":[{"name":"","type":"address","internalType":"address"},{"name":"","type":"uint256","internalType":"uint256"}],"outputs":[{"name":"bias","type":"int256","internalType":"int256"},{"name":"slope","type":"int128","internalType":"int128"},{"name":"ts","type":"uint256","internalType":"uint256"},{"name":"blk","type":"uint256","internalType":"uint256"}],"stateMutability":"view"},{"type":"function","name":"version","inputs":[],"outputs":[{"name":"","type":"string","internalType":"string"}],"stateMutability":"view"},{"type":"function","name":"withdraw","inputs":[],"outputs":[],"stateMutability":"nonpayable"},{"type":"event","name":"Deposit","inputs":[{"name":"provider","type":"address","indexed":true,"internalType":"address"},{"name":"value","type":"uint256","indexed":false,"internalType":"uint256"},{"name":"locktime","type":"uint256","indexed":true,"internalType":"uint256"},{"name":"deposit_type","type":"uint8","indexed":true,"internalType":"enum VotingEscrow.DepositType"},{"name":"ts","type":"uint256","indexed":false,"internalType":"uint256"}],"anonymous":false},{"type":"event","name":"Supply","inputs":[{"name":"prevSupply","type":"uint256","indexed":false,"internalType":"uint256"},{"name":"supply","type":"uint256","indexed":false,"internalType":"uint256"}],"anonymous":false},{"type":"event","name":"Withdraw","inputs":[{"name":"provider","type":"address","indexed":true,"internalType":"address"},{"name":"value","type":"uint256","indexed":false,"internalType":"uint256"},{"name":"ts","type":"uint256","indexed":false,"internalType":"uint256"}],"anonymous":false},{"type":"error","name":"AddressEmptyCode","inputs":[{"name":"target","type":"address","internalType":"address"}]},{"type":"error","name":"AddressInsufficientBalance","inputs":[{"name":"account","type":"address","internalType":"address"}]},{"type":"error","name":"FailedInnerCall","inputs":[]},{"type":"error","name":"ReentrancyGuardReentrantCall","inputs":[]},{"type":"error","name":"SafeCastOverflowedIntToUint","inputs":[{"name":"value","type":"int256","internalType":"int256"}]},{"type":"error","name":"SafeERC20FailedOperation","inputs":[{"name":"token","type":"address","internalType":"address"}]}],"bytecode":{"object":"0x60a06040523461047b576125c1803803806100198161047f565b928339810160808282031261047b5781516001600160a01b038116919082900361047b5760208381015190936001600160401b0392909183811161047b57816100639184016104a4565b91604081015184811161047b578261007c9183016104a4565b91606082015185811161047b5761009392016104a4565b90600194855f55801561043657608052825184811161029b578554938685811c9516801561042c575b8886101461027d578190601f958681116103de575b50889086831160011461037f575f92610374575b50505f19600383901b1c191690861b1785555b80519084821161029b57600254908682811c9216801561036a575b8883101461027d57818584931161031b575b5087908583116001146102ba575f926102af575b50505f19600383901b1c191690851b176002555b805192831161029b5760039485548581811c91168015610291575b8282101461027d5783811161023a575b50809284116001146101d957509282939183925f946101ce575b50501b915f1990841b1c19161790555b601260ff1960045416176004556040516120cb90816104f68239608051818181610148015261095f0152f35b015192505f80610192565b919083601f198116875f52845f20945f905b888383106102205750505010610209575b505050811b0190556101a2565b01515f1983861b60f8161c191690555f80806101fc565b8587015188559096019594850194879350908101906101eb565b865f52815f208480870160051c820192848810610274575b0160051c019086905b828110610269575050610178565b5f815501869061025b565b92508192610252565b634e487b7160e01b5f52602260045260245ffd5b90607f1690610168565b634e487b7160e01b5f52604160045260245ffd5b015190505f80610139565b90879350601f1983169160025f52895f20925f5b8b82821061030557505084116102ed575b505050811b0160025561014d565b01515f1960f88460031b161c191690555f80806102df565b8385015186558b979095019493840193016102ce565b90915060025f52875f208580850160051c8201928a8610610361575b918991869594930160051c01915b828110610353575050610125565b5f8155859450899101610345565b92508192610337565b91607f1691610113565b015190505f806100e5565b90889350601f19831691845f528a5f20925f5b8c8282106103c857505084116103b0575b505050811b0185556100f8565b01515f1960f88460031b161c191690555f80806103a3565b8385015186558c97909501949384019301610392565b909150875f52885f208680850160051c8201928b8610610423575b918a91869594930160051c01915b8281106104155750506100d1565b5f81558594508a9101610407565b925081926103f9565b94607f16946100bc565b60405162461bcd60e51b815260048101889052601960248201527f56453a20496e76616c696420746f6b656e2061646472657373000000000000006044820152606490fd5b5f80fd5b6040519190601f01601f191682016001600160401b0381118382101761029b57604052565b81601f8201121561047b578051906001600160401b03821161029b576104d3601f8301601f191660200161047f565b928284526020838301011161047b57815f9260208093018386015e830101529056fe6080604090808252600480361015610015575f80fd5b5f3560e01c918263010ae7571461125e57508163047fc9aa1461124057816306fdde0314611180578163096f5be21461116557816318160ddd1461114857816328d09d47146110c5578163313ce567146110a6578163338a0b081461055f5781633ccfd60b14610eed5781634957677c14610cc25781634ee2cd7e14610c6c57816354fd4d5014610bac57816365fc3873146107ee57816370a08231146107a6578163900cf0cf1461078857816395d89b4114610653578163981b24d01461062e578163cbf9fe5f146105de578163d1febfb91461057d578163ee00ef3a1461055f578163eff7a6121461018d57508063f4359ce5146101705763fc0c546a1461011d575f80fd5b3461016c575f60031936011261016c576020905173ffffffffffffffffffffffffffffffffffffffff7f0000000000000000000000000000000000000000000000000000000000000000168152f35b5f80fd5b503461016c575f60031936011261016c576020905162093a808152f35b90503461016c576020908160031936011261016c578035906101ad6116e0565b335f5260078352835f20908451926101c4846112c2565b6101e25f60018554600f0b9586885201549487870195865213611431565b82514210156105035782518111156104a75780610362575b508251600f0b7fffffffffffffffffffffffffffffffff8000000000000000000000000000000081126f7fffffffffffffffffffffffffffffff82131761033657805f91855213156102da5760036001857fbe9cf0e939c614fad640a623a53ba0a807c8cb503c4c4c8dacabe27b86ff2dd588878761027a8280336117cb565b335f5260078552825f2091517fffffffffffffffffffffffffffffffff00000000000000000000000000000000835416906fffffffffffffffffffffffffffffffff161782555194859101558051925f845242908401523392a460015f55005b606490848651917f08c379a0000000000000000000000000000000000000000000000000000000008352820152601f60248201527f56453a204e6577206c6f636b20616d6f756e74206d757374206265203e2030006044820152fd5b6011827f4e487b71000000000000000000000000000000000000000000000000000000005f525260245ffd5b4281111561044b57630784ce00420180421161041f57811161039d5762093a808091048181029181830414901517156103365782525f6101fa565b608482868851917f08c379a0000000000000000000000000000000000000000000000000000000008352820152602260248201527f56453a20566f74696e67206c6f636b2063616e2062652034207965617273206d60448201527f61780000000000000000000000000000000000000000000000000000000000006064820152fd5b6011837f4e487b71000000000000000000000000000000000000000000000000000000005f525260245ffd5b606482868851917f08c379a0000000000000000000000000000000000000000000000000000000008352820152601e60248201527f56453a2043616e206f6e6c79206c6f636b20756e74696c2066757475726500006044820152fd5b606482868851917f08c379a0000000000000000000000000000000000000000000000000000000008352820152601f60248201527f56453a2043616e206f6e6c7920696e637265617365206c6f636b2074696d65006044820152fd5b606482868851917f08c379a0000000000000000000000000000000000000000000000000000000008352820152601060248201527f56453a204c6f636b2065787069726564000000000000000000000000000000006044820152fd5b823461016c575f60031936011261016c5760209051630784ce008152f35b90503461016c57602060031936011261016c57355f526005602052805f20906105da8254916001840154600f0b93600360028201549101549151948594859094939260609260808301968352600f0b602083015260408201520152565b0390f35b823461016c57602060031936011261016c5773ffffffffffffffffffffffffffffffffffffffff61060d61129f565b165f526007602052805f2060018154600f0b91015482519182526020820152f35b823461016c57602060031936011261016c5761064c602092356115b1565b9051908152f35b823461016c575f60031936011261016c578051905f9260025460018160011c9160018116801561077e575b6020948585108214610752575083875290811561071457506001146106ba575b5050506106b0826105da940383611343565b5191829182611384565b60025f9081529295507f405787fa12a823e0f2b7631cc41b3ba8828b3321ca811111fa75cd3aa3bb5ace5b82841061070157505050826105da946106b0928201019461069e565b80548685018801529286019281016106e5565b7fffffffffffffffffffffffffffffffffffffffffffffffffffffffffffffff0016868501525050151560051b83010192506106b0826105da61069e565b6022907f4e487b71000000000000000000000000000000000000000000000000000000005f525260245ffd5b92607f169261067e565b823461016c575f60031936011261016c576020906008549051908152f35b823461016c57602060031936011261016c5760209061064c6107c661129f565b73ffffffffffffffffffffffffffffffffffffffff81165f5260098452825f20544291611dae565b90503461016c578160031936011261016c578035906024908135906108116116e0565b335f5260209260078452855f2092600187519461082d866112c2565b8054600f0b86520154928585019384528615159161084a836113cc565b8551600f0b610b5157806109e4575b505f61086c88600f0b8751600f0b611784565b600f0b808752131561098957600180887fbe9cf0e939c614fad640a623a53ba0a807c8cb503c4c4c8dacabe27b86ff2dd58b8a8a8a8a8a6108ae8480336117cb565b610913575b50335f5260078352835f2091517fffffffffffffffffffffffffffffffff00000000000000000000000000000000835416906fffffffffffffffffffffffffffffffff16178255519586910155815193845242908401523392a460015f55005b610983908551907f23b872dd000000000000000000000000000000000000000000000000000000008683015233908201523060448201528760648201526064815261095d81611327565b7f0000000000000000000000000000000000000000000000000000000000000000611efa565b886108b3565b606490601f84888b51937f08c379a00000000000000000000000000000000000000000000000000000000085528401528201527f56453a204e6577206c6f636b20616d6f756e74206d757374206265203e2030006044820152fd5b42811115610af657630784ce004201804211610acb578111610a4a5762093a80809104818102918183041490151715610a1f5784525f610859565b836011837f4e487b71000000000000000000000000000000000000000000000000000000005f52525ffd5b6084826022868a8d51937f08c379a00000000000000000000000000000000000000000000000000000000085528401528201527f56453a20566f74696e67206c6f636b2063616e2062652034207965617273206d60448201527f61780000000000000000000000000000000000000000000000000000000000006064820152fd5b846011847f4e487b71000000000000000000000000000000000000000000000000000000005f52525ffd5b606482601e868a8d51937f08c379a00000000000000000000000000000000000000000000000000000000085528401528201527f56453a2043616e206f6e6c79206c6f636b20756e74696c2066757475726500006044820152fd5b606482601d868a8d51937f08c379a00000000000000000000000000000000000000000000000000000000085528401528201527f56453a205769746864726177206f6c6420746f6b656e732066697273740000006044820152fd5b823461016c575f60031936011261016c578051905f9260035460018160011c91600181168015610c62575b602094858510821461075257508387529081156107145750600114610c08575050506106b0826105da940383611343565b60035f9081529295507fc2575a0e9e593c00f959f8c92f12db2869c3395a3b0502d05e2516446f71f85b5b828410610c4f57505050826105da946106b0928201019461069e565b8054868501880152928601928101610c33565b92607f1692610bd7565b823461016c578060031936011261016c5760209061064c610c8b61129f565b60243590610c9b42831115611496565b73ffffffffffffffffffffffffffffffffffffffff81165f5260098552835f205490611dae565b90503461016c5760208060031936011261016c57813591610ce16116e0565b335f5260078252835f20906001855192610cfa846112c2565b8054600f0b845201549083830191825284151590610d17826113cc565b610d265f8551600f0b13611431565b8251421015610e91575f610d4187600f0b8651600f0b611784565b600f0b8086521315610e355760026001877fbe9cf0e939c614fad640a623a53ba0a807c8cb503c4c4c8dacabe27b86ff2dd58a89898989610d838380336117cb565b610de7575b335f5260078352835f2091517fffffffffffffffffffffffffffffffff00000000000000000000000000000000835416906fffffffffffffffffffffffffffffffff16178255519586910155815193845242908401523392a460015f55005b610e3084517f23b872dd00000000000000000000000000000000000000000000000000000000858201523360248201523060448201528760648201526064815261095d81611327565b610d88565b606490858851917f08c379a0000000000000000000000000000000000000000000000000000000008352820152601f60248201527f56453a204e6577206c6f636b20616d6f756e74206d757374206265203e2030006044820152fd5b606490858851917f08c379a0000000000000000000000000000000000000000000000000000000008352820152601e60248201527f56453a2043616e6e6f742061646420746f2065787069726564206c6f636b00006044820152fd5b823461016c575f60031936011261016c57610f066116e0565b335f52602060078152815f20926001835194610f21866112c2565b8054600f0b865201548083860152421061104b575f8451600f0b1315610ff05750907ff279e6a1f5e320cca91135676d9cb6e44ca8a08c0b88342bcdb1144f6511b56891610f888451600f0b94835190610f7a826112c2565b5f82525f84830152336117cb565b335f52600781525f60018382208281550155610fdd82517fa9059cbb00000000000000000000000000000000000000000000000000000000838201523360248201528560448201526044815261095d8161130b565b815193845242908401523392a260015f55005b9060649251917f08c379a0000000000000000000000000000000000000000000000000000000008352820152601760248201527f56453a204e6f7468696e6720746f2077697468647261770000000000000000006044820152fd5b9060649251917f08c379a0000000000000000000000000000000000000000000000000000000008352820152601860248201527f56453a204c6f636b206e6f7420796574206578706972656400000000000000006044820152fd5b823461016c575f60031936011261016c5760ff60209254169051908152f35b823461016c578060031936011261016c5773ffffffffffffffffffffffffffffffffffffffff6110f361129f565b165f526006602052805f206024355f52602052805f20906105da8254916001840154600f0b93600360028201549101549151948594859094939260609260808301968352600f0b602083015260408201520152565b823461016c575f60031936011261016c5760209061064c426115b1565b823461016c575f60031936011261016c576020905160ff8152f35b823461016c575f60031936011261016c578051905f9260018054908160011c91600181168015611236575b6020948585108214610752575083875290811561071457506001146111dc575050506106b0826105da940383611343565b60015f9081529295507fb10e2d527612073b26eecdfd717e6a320cf44b4afac2b0732d9fcbe2b7fa0cf65b82841061122357505050826105da946106b0928201019461069e565b8054868501880152928601928101611207565b92607f16926111ab565b823461016c575f60031936011261016c57602090600a549051908152f35b83903461016c57602060031936011261016c5760209173ffffffffffffffffffffffffffffffffffffffff61129161129f565b165f52600983525f20548152f35b6004359073ffffffffffffffffffffffffffffffffffffffff8216820361016c57565b6040810190811067ffffffffffffffff8211176112de57604052565b7f4e487b71000000000000000000000000000000000000000000000000000000005f52604160045260245ffd5b6080810190811067ffffffffffffffff8211176112de57604052565b60a0810190811067ffffffffffffffff8211176112de57604052565b90601f7fffffffffffffffffffffffffffffffffffffffffffffffffffffffffffffffe0910116810190811067ffffffffffffffff8211176112de57604052565b7fffffffffffffffffffffffffffffffffffffffffffffffffffffffffffffffe0601f602060409481855280519182918282880152018686015e5f8582860101520116010190565b156113d357565b60646040517f08c379a000000000000000000000000000000000000000000000000000000000815260206004820152601560248201527f56453a2056616c7565206d757374206265203e203000000000000000000000006044820152fd5b1561143857565b60646040517f08c379a000000000000000000000000000000000000000000000000000000000815260206004820152601160248201527f56453a204e6f206c6f636b20666f756e640000000000000000000000000000006044820152fd5b1561149d57565b60646040517f08c379a000000000000000000000000000000000000000000000000000000000815260206004820152601760248201527f56453a2054696d657374616d7020696e206675747572650000000000000000006044820152fd5b9190820180921161150857565b7f4e487b71000000000000000000000000000000000000000000000000000000005f52601160045260245ffd5b9190820391821161150857565b90630784ce009182810292818405149015171561150857565b81810292915f82127f800000000000000000000000000000000000000000000000000000000000000082141661150857818405149015171561150857565b81810392915f13801582851316918412161761150857565b6115bd42821115611496565b60085480156116da576001905b808210611648575090611630915f52600560205261162a60405f20611624604051916115f58361130b565b8054948584526001820154600f0b93846020820152606060036002850154948560408501520154910152611535565b9061155b565b90611599565b5f81126116435761164090611ebf565b90565b505f90565b61165281836114fb565b600181018091116115085760011c90815f52600560205283600260405f200154115f146116d257507fffffffffffffffffffffffffffffffffffffffffffffffffffffffffffffffff8101908111156115ca577f4e487b71000000000000000000000000000000000000000000000000000000005f52601160045260245ffd5b9150906115ca565b50505f90565b60025f54146116ef5760025f55565b60046040517f3ee5aeb5000000000000000000000000000000000000000000000000000000008152fd5b604051906117268261130b565b5f6060838281528260208201528260408201520152565b90600f0b90600f0b03906f7fffffffffffffffffffffffffffffff82137fffffffffffffffffffffffffffffffff8000000000000000000000000000000083121761150857565b90600f0b90600f0b01907fffffffffffffffffffffffffffffffff8000000000000000000000000000000082126f7fffffffffffffffffffffffffffffff83131761150857565b6117d3611719565b916117dc611719565b915f9473ffffffffffffffffffffffffffffffffffffffff5f921690815f52600960205260405f20549384611d62575b60208101519042821180611d55575b611d06575b505060208101519042821180611cf9575b611cc5575b50506001830180931161150857805f5260096020528260405f2055604084019242845260608501914383525f52600660205260405f20905f52602052600360405f2091855183556001830194602087019586517fffffffffffffffffffffffffffffffff00000000000000000000000000000000825416906fffffffffffffffffffffffffffffffff1617905551600284015551910155600854928315611c3a575b835f5260056020526118ff62093a806118f8600260405f20015442611535565b04856114fb565b93808511611b15575b5083600855835f52600560205260405f2090604051916119278361130b565b6001815491828552015495600f966020850190880b8152604085019161195960608701944285524386528b5190611599565b9451945f8682019687129112908015821691151617611508576119a1611a1398611997611a189c6003988a5260208d8751900b9101518d0b9061173d565b90518b0b90611784565b890b82525f52600560205260405f20945185556001850190517fffffffffffffffffffffffffffffffff00000000000000000000000000000000825416906fffffffffffffffffffffffffffffffff1617905551600284015551910155611a0c600a5495840b611542565b920b611542565b611599565b5f8112611a7557611a2b611a3191611ebf565b826114fb565b600a555b600a54808203611a43575050565b7f5e2aa66efd74cce82b21852e317e5490d9ecc9e6bb953ae24d90851258cc2f5c9160409182519182526020820152a1565b7f80000000000000000000000000000000000000000000000000000000000000008114611508575f03808210611ab757611aaf9082611535565b600a55611a35565b60646040517f08c379a000000000000000000000000000000000000000000000000000000000815260206004820152601460248201527f56453a20537570706c7920756e646572666c6f770000000000000000000000006044820152fd5b60ff611b218287611535565b11611bdc57805f52600560205260405f209060405190611b408261130b565b8254825260036001840154600f0b936020840194855260028101546040850152015460608301525b868110611b76575050611908565b8151906001810191828211611508576001925f52600560205260405f209081558285519101907fffffffffffffffffffffffffffffffff00000000000000000000000000000000825416906fffffffffffffffffffffffffffffffff1617905501611b68565b60646040517f08c379a000000000000000000000000000000000000000000000000000000000815260206004820152601b60248201527f56453a20546f6f206d616e792065706f63687320746f2066696c6c00000000006044820152fd5b60405160019450611c4a8161130b565b5f81526003602082015f815260408301428152606084019143835260015f52600560205260405f20945185556001850190517fffffffffffffffffffffffffffffffff00000000000000000000000000000000825416906fffffffffffffffffffffffffffffffff16179055516002840155519101556118d8565b630784ce0091935051600f0b0591611ceb611ce584600f0b924290611535565b8261155b565b855260208501525f80611836565b505f8151600f0b13611831565b611d35919850611d25630784ce00611d2e9251600f0b05994290611535565b89600f0b61155b565b8751611599565b865260208601611d49888251600f0b61173d565b600f0b90525f80611820565b505f8151600f0b1361181b565b9550600660205260405f20845f5260205260405f20600360405191611d868361130b565b805483526001810154600f0b602084015260028101546040840152015460608201529561180c565b9291908015611eb8576001905b808210611e06575073ffffffffffffffffffffffffffffffffffffffff6116309394165f52600660205260405f20905f5260205261162a60405f20611624604051916115f58361130b565b611e1081836114fb565b600181018091116115085760011c9073ffffffffffffffffffffffffffffffffffffffff86165f52836002602060068152604090815f2090865f52525f200154115f14611eb057507fffffffffffffffffffffffffffffffffffffffffffffffffffffffffffffffff810190811115611dbb577f4e487b71000000000000000000000000000000000000000000000000000000005f52601160045260245ffd5b915090611dbb565b505f925050565b5f8112611ec95790565b602490604051907fa8ce44320000000000000000000000000000000000000000000000000000000082526004820152fd5b5f73ffffffffffffffffffffffffffffffffffffffff8192169260208151910182855af13d15611fe9573d67ffffffffffffffff81116112de57611f7e9160405191611f6e60207fffffffffffffffffffffffffffffffffffffffffffffffffffffffffffffffe0601f8401160184611343565b82523d5f602084013e5b83611ff5565b8051908115159182611fc5575b5050611f945750565b602490604051907f5274afe70000000000000000000000000000000000000000000000000000000082526004820152fd5b819250906020918101031261016c576020015180159081150361016c575f80611f8b565b611f7e90606090611f78565b90612034575080511561200a57805190602001fd5b60046040517f1425ea42000000000000000000000000000000000000000000000000000000008152fd5b8151158061208c575b612045575090565b60249073ffffffffffffffffffffffffffffffffffffffff604051917f9996b315000000000000000000000000000000000000000000000000000000008352166004820152fd5b50803b1561203d56fea26469706673582212208c01e839f3a7edf500d743f8cf0ae2ee4f753e1aeb3550a29623493250ea3cc464736f6c63430008190033","linkReferences":{}},"methodIdentifiers":{"MAXTIME()":"ee00ef3a","MAX_EPOCH_JUMP()":"096f5be2","WEEK()":"f4359ce5","balanceOf(address)":"70a08231","balanceOfAt(address,uint256)":"4ee2cd7e","create_lock(uint256,uint256)":"65fc3873","decimals()":"313ce567","epoch()":"900cf0cf","iMAXTIME()":"338a0b08","increase_amount(uint256)":"4957677c","increase_unlock_time(uint256)":"eff7a612","locked(address)":"cbf9fe5f","name()":"06fdde03","point_history(uint256)":"d1febfb9","supply()":"047fc9aa","symbol()":"95d89b41","token()":"fc0c546a","totalSupply()":"18160ddd","totalSupplyAt(uint256)":"981b24d0","user_point_epoch(address)":"010ae757","user_point_history(address,uint256)":"28d09d47","version()":"54fd4d50","withdraw()":"3ccfd60b"},"id":134}