{"abi":[{"type":"constructor","inputs":[],"stateMutability":"nonpayable"},{"type":"function","name":"BASIS_POINTS","inputs":[],"outputs":[{"name":"","type":"uint256","internalType":"uint256"}],"stateMutability":"view"},{"type":"function","name":"DEFAULT_ADMIN_ROLE","inputs":[],"outputs":[{"name":"","type":"bytes32","internalType":"bytes32"}],"stateMutability":"view"},{"type":"function","name":"EPOCH_DURATION","inputs":[],"outputs":[{"name":"","type":"uint256","internalType":"uint256"}],"stateMutability":"view"},{"type":"function","name":"FEE_COLLECTOR_ROLE","inputs":[],"outputs":[{"name":"","type":"bytes32","internalType":"bytes32"}],"stateMutability":"view"},{"type":"function","name":"GOVERNOR_ROLE","inputs":[],"outputs":[{"name":"","type":"bytes32","internalType":"bytes32"}],"stateMutability":"view"},{"type":"function","name":"PAUSER_ROLE","inputs":[],"outputs":[{"name":"","type":"bytes32","internalType":"bytes32"}],"stateMutability":"view"},{"type":"function","name":"UPGRADE_INTERFACE_VERSION","inputs":[],"outputs":[{"name":"","type":"string","internalType":"string"}],"stateMutability":"view"},{"type":"function","name":"andeToken","inputs":[],"outputs":[{"name":"","type":"address","internalType":"contract IERC20"}],"stateMutability":"view"},{"type":"function","name":"collectFees","inputs":[{"name":"amount","type":"uint256","internalType":"uint256"}],"outputs":[],"stateMutability":"nonpayable"},{"type":"function","name":"communityTreasury","inputs":[],"outputs":[{"name":"","type":"address","internalType":"address"}],"stateMutability":"view"},{"type":"function","name":"currentEpoch","inputs":[],"outputs":[{"name":"","type":"uint256","internalType":"uint256"}],"stateMutability":"view"},{"type":"function","name":"distributeFees","inputs":[],"outputs":[],"stateMutability":"nonpayable"},{"type":"function","name":"distributionConfig","inputs":[],"outputs":[{"name":"sequencerShare","type":"uint256","internalType":"uint256"},{"name":"stakersShare","type":"uint256","internalType":"uint256"},{"name":"protocolShare","type":"uint256","internalType":"uint256"},{"name":"communityTreasuryShare","type":"uint256","internalType":"uint256"}],"stateMutability":"view"},{"type":"function","name":"endEpoch","inputs":[],"outputs":[],"stateMutability":"nonpayable"},{"type":"function","name":"epochStats","inputs":[{"name":"","type":"uint256","internalType":"uint256"}],"outputs":[{"name":"totalFeesCollected","type":"uint256","internalType":"uint256"},{"name":"sequencerFees","type":"uint256","internalType":"uint256"},{"name":"stakersFees","type":"uint256","internalType":"uint256"},{"name":"protocolFees","type":"uint256","internalType":"uint256"},{"name":"communityTreasuryFees","type":"uint256","internalType":"uint256"},{"name":"startTime","type":"uint256","internalType":"uint256"},{"name":"endTime","type":"uint256","internalType":"uint256"}],"stateMutability":"view"},{"type":"function","name":"getCurrentEpochStats","inputs":[],"outputs":[{"name":"","type":"tuple","internalType":"struct AndeFeeDistributor.EpochStats","components":[{"name":"totalFeesCollected","type":"uint256","internalType":"uint256"},{"name":"sequencerFees","type":"uint256","internalType":"uint256"},{"name":"stakersFees","type":"uint256","internalType":"uint256"},{"name":"protocolFees","type":"uint256","internalType":"uint256"},{"name":"communityTreasuryFees","type":"uint256","internalType":"uint256"},{"name":"startTime","type":"uint256","internalType":"uint256"},{"name":"endTime","type":"uint256","internalType":"uint256"}]}],"stateMutability":"view"},{"type":"function","name":"getDistributionConfig","inputs":[],"outputs":[{"name":"","type":"tuple","internalType":"struct AndeFeeDistributor.FeeDistributionConfig","components":[{"name":"sequencerShare","type":"uint256","internalType":"uint256"},{"name":"stakersShare","type":"uint256","internalType":"uint256"},{"name":"protocolShare","type":"uint256","internalType":"uint256"},{"name":"communityTreasuryShare","type":"uint256","internalType":"uint256"}]}],"stateMutability":"view"},{"type":"function","name":"getEpochStats","inputs":[{"name":"epoch","type":"uint256","internalType":"uint256"}],"outputs":[{"name":"","type":"tuple","internalType":"struct AndeFeeDistributor.EpochStats","components":[{"name":"totalFeesCollected","type":"uint256","internalType":"uint256"},{"name":"sequencerFees","type":"uint256","internalType":"uint256"},{"name":"stakersFees","type":"uint256","internalType":"uint256"},{"name":"protocolFees","type":"uint256","internalType":"uint256"},{"name":"communityTreasuryFees","type":"uint256","internalType":"uint256"},{"name":"startTime","type":"uint256","internalType":"uint256"},{"name":"endTime","type":"uint256","internalType":"uint256"}]}],"stateMutability":"view"},{"type":"function","name":"getRoleAdmin","inputs":[{"name":"role","type":"bytes32","internalType":"bytes32"}],"outputs":[{"name":"","type":"bytes32","internalType":"bytes32"}],"stateMutability":"view"},{"type":"function","name":"getTotalStats","inputs":[],"outputs":[{"name":"_totalFeesCollected","type":"uint256","internalType":"uint256"},{"name":"_totalSequencerFees","type":"uint256","internalType":"uint256"},{"name":"_totalStakersFees","type":"uint256","internalType":"uint256"},{"name":"_totalProtocolFees","type":"uint256","internalType":"uint256"},{"name":"_totalCommunityTreasuryFees","type":"uint256","internalType":"uint256"}],"stateMutability":"view"},{"type":"function","name":"grantRole","inputs":[{"name":"role","type":"bytes32","internalType":"bytes32"},{"name":"account","type":"address","internalType":"address"}],"outputs":[],"stateMutability":"nonpayable"},{"type":"function","name":"hasRole","inputs":[{"name":"role","type":"bytes32","internalType":"bytes32"},{"name":"account","type":"address","internalType":"address"}],"outputs":[{"name":"","type":"bool","internalType":"bool"}],"stateMutability":"view"},{"type":"function","name":"initialize","inputs":[{"name":"_andeToken","type":"address","internalType":"address"},{"name":"_sequencerRegistry","type":"address","internalType":"address"},{"name":"_stakingContract","type":"address","internalType":"address"},{"name":"_protocolTreasury","type":"address","internalType":"address"},{"name":"_communityTreasury","type":"address","internalType":"address"},{"name":"defaultAdmin","type":"address","internalType":"address"}],"outputs":[],"stateMutability":"nonpayable"},{"type":"function","name":"pause","inputs":[],"outputs":[],"stateMutability":"nonpayable"},{"type":"function","name":"paused","inputs":[],"outputs":[{"name":"","type":"bool","internalType":"bool"}],"stateMutability":"view"},{"type":"function","name":"protocolTreasury","inputs":[],"outputs":[{"name":"","type":"address","internalType":"address"}],"stateMutability":"view"},{"type":"function","name":"proxiableUUID","inputs":[],"outputs":[{"name":"","type":"bytes32","internalType":"bytes32"}],"stateMutability":"view"},{"type":"function","name":"renounceRole","inputs":[{"name":"role","type":"bytes32","internalType":"bytes32"},{"name":"callerConfirmation","type":"address","internalType":"address"}],"outputs":[],"stateMutability":"nonpayable"},{"type":"function","name":"revokeRole","inputs":[{"name":"role","type":"bytes32","internalType":"bytes32"},{"name":"account","type":"address","internalType":"address"}],"outputs":[],"stateMutability":"nonpayable"},{"type":"function","name":"sequencerRegistry","inputs":[],"outputs":[{"name":"","type":"address","internalType":"address"}],"stateMutability":"view"},{"type":"function","name":"stakingContract","inputs":[],"outputs":[{"name":"","type":"address","internalType":"address"}],"stateMutability":"view"},{"type":"function","name":"supportsInterface","inputs":[{"name":"interfaceId","type":"bytes4","internalType":"bytes4"}],"outputs":[{"name":"","type":"bool","internalType":"bool"}],"stateMutability":"view"},{"type":"function","name":"totalCommunityTreasuryFees","inputs":[],"outputs":[{"name":"","type":"uint256","internalType":"uint256"}],"stateMutability":"view"},{"type":"function","name":"totalFeesCollected","inputs":[],"outputs":[{"name":"","type":"uint256","internalType":"uint256"}],"stateMutability":"view"},{"type":"function","name":"totalProtocolFees","inputs":[],"outputs":[{"name":"","type":"uint256","internalType":"uint256"}],"stateMutability":"view"},{"type":"function","name":"totalSequencerFees","inputs":[],"outputs":[{"name":"","type":"uint256","internalType":"uint256"}],"stateMutability":"view"},{"type":"function","name":"totalStakersFees","inputs":[],"outputs":[{"name":"","type":"uint256","internalType":"uint256"}],"stateMutability":"view"},{"type":"function","name":"unpause","inputs":[],"outputs":[],"stateMutability":"nonpayable"},{"type":"function","name":"updateCommunityTreasury","inputs":[{"name":"newAddress","type":"address","internalType":"address"}],"outputs":[],"stateMutability":"nonpayable"},{"type":"function","name":"updateDistributionConfig","inputs":[{"name":"sequencerShare","type":"uint256","internalType":"uint256"},{"name":"stakersShare","type":"uint256","internalType":"uint256"},{"name":"protocolShare","type":"uint256","internalType":"uint256"},{"name":"communityTreasuryShare","type":"uint256","internalType":"uint256"}],"outputs":[],"stateMutability":"nonpayable"},{"type":"function","name":"updateProtocolTreasury","inputs":[{"name":"newAddress","type":"address","internalType":"address"}],"outputs":[],"stateMutability":"nonpayable"},{"type":"function","name":"updateSequencerRegistry","inputs":[{"name":"newAddress","type":"address","internalType":"address"}],"outputs":[],"stateMutability":"nonpayable"},{"type":"function","name":"updateStakingContract","inputs":[{"name":"newAddress","type":"address","internalType":"address"}],"outputs":[],"stateMutability":"nonpayable"},{"type":"function","name":"upgradeToAndCall","inputs":[{"name":"newImplementation","type":"address","internalType":"address"},{"name":"data","type":"bytes","internalType":"bytes"}],"outputs":[],"stateMutability":"payable"},{"type":"event","name":"ContractAddressUpdated","inputs":[{"name":"contractType","type":"string","indexed":true,"internalType":"string"},{"name":"newAddress","type":"address","indexed":false,"internalType":"address"}],"anonymous":false},{"type":"event","name":"DistributionConfigUpdated","inputs":[{"name":"sequencerShare","type":"uint256","indexed":false,"internalType":"uint256"},{"name":"stakersShare","type":"uint256","indexed":false,"internalType":"uint256"},{"name":"protocolShare","type":"uint256","indexed":false,"internalType":"uint256"},{"name":"communityTreasuryShare","type":"uint256","indexed":false,"internalType":"uint256"}],"anonymous":false},{"type":"event","name":"EpochEnded","inputs":[{"name":"epoch","type":"uint256","indexed":true,"internalType":"uint256"},{"name":"totalFees","type":"uint256","indexed":false,"internalType":"uint256"}],"anonymous":false},{"type":"event","name":"FeesCollected","inputs":[{"name":"from","type":"address","indexed":true,"internalType":"address"},{"name":"amount","type":"uint256","indexed":false,"internalType":"uint256"},{"name":"epoch","type":"uint256","indexed":false,"internalType":"uint256"}],"anonymous":false},{"type":"event","name":"FeesDistributed","inputs":[{"name":"epoch","type":"uint256","indexed":true,"internalType":"uint256"},{"name":"sequencerFees","type":"uint256","indexed":false,"internalType":"uint256"},{"name":"stakersFees","type":"uint256","indexed":false,"internalType":"uint256"},{"name":"protocolFees","type":"uint256","indexed":false,"internalType":"uint256"},{"name":"communityTreasuryFees","type":"uint256","indexed":false,"internalType":"uint256"}],"anonymous":false},{"type":"event","name":"Initialized","inputs":[{"name":"version","type":"uint64","indexed":false,"internalType":"uint64"}],"anonymous":false},{"type":"event","name":"Paused","inputs":[{"name":"account","type":"address","indexed":false,"internalType":"address"}],"anonymous":false},{"type":"event","name":"RoleAdminChanged","inputs":[{"name":"role","type":"bytes32","indexed":true,"internalType":"bytes32"},{"name":"previousAdminRole","type":"bytes32","indexed":true,"internalType":"bytes32"},{"name":"newAdminRole","type":"bytes32","indexed":true,"internalType":"bytes32"}],"anonymous":false},{"type":"event","name":"RoleGranted","inputs":[{"name":"role","type":"bytes32","indexed":true,"internalType":"bytes32"},{"name":"account","type":"address","indexed":true,"internalType":"address"},{"name":"sender","type":"address","indexed":true,"internalType":"address"}],"anonymous":false},{"type":"event","name":"RoleRevoked","inputs":[{"name":"role","type":"bytes32","indexed":true,"internalType":"bytes32"},{"name":"account","type":"address","indexed":true,"internalType":"address"},{"name":"sender","type":"address","indexed":true,"internalType":"address"}],"anonymous":false},{"type":"event","name":"Unpaused","inputs":[{"name":"account","type":"address","indexed":false,"internalType":"address"}],"anonymous":false},{"type":"event","name":"Upgraded","inputs":[{"name":"implementation","type":"address","indexed":true,"internalType":"address"}],"anonymous":false},{"type":"error","name":"AccessControlBadConfirmation","inputs":[]},{"type":"error","name":"AccessControlUnauthorizedAccount","inputs":[{"name":"account","type":"address","internalType":"address"},{"name":"neededRole","type":"bytes32","internalType":"bytes32"}]},{"type":"error","name":"AddressEmptyCode","inputs":[{"name":"target","type":"address","internalType":"address"}]},{"type":"error","name":"AddressInsufficientBalance","inputs":[{"name":"account","type":"address","internalType":"address"}]},{"type":"error","name":"ERC1967InvalidImplementation","inputs":[{"name":"implementation","type":"address","internalType":"address"}]},{"type":"error","name":"ERC1967NonPayable","inputs":[]},{"type":"error","name":"EnforcedPause","inputs":[]},{"type":"error","name":"EpochNotEnded","inputs":[]},{"type":"error","name":"ExpectedPause","inputs":[]},{"type":"error","name":"FailedInnerCall","inputs":[]},{"type":"error","name":"InsufficientBalance","inputs":[]},{"type":"error","name":"InvalidAmount","inputs":[]},{"type":"error","name":"InvalidDistributionShares","inputs":[]},{"type":"error","name":"InvalidInitialization","inputs":[]},{"type":"error","name":"NotInitializing","inputs":[]},{"type":"error","name":"ReentrancyGuardReentrantCall","inputs":[]},{"type":"error","name":"SafeERC20FailedOperation","inputs":[{"name":"token","type":"address","internalType":"address"}]},{"type":"error","name":"UUPSUnauthorizedCallContext","inputs":[]},{"type":"error","name":"UUPSUnsupportedProxiableUUID","inputs":[{"name":"slot","type":"bytes32","internalType":"bytes32"}]},{"type":"error","name":"ZeroAddress","inputs":[]}],"bytecode":{"object":"0x60a0806040523460c857306080527ff0c57e16840df040f15088dc2f81fe391c3923bec73e23a9662efc9c229c6a009081549060ff8260401c1660b957506001600160401b036002600160401b0319828216016075575b60405161298690816100cd82396080518181816114c601526115c30152f35b6001600160401b031990911681179091556040519081527fc7f505b2f371ae2175ee4913f4499e1f2633a7b5936321eed1cdaeb6115181d290602090a15f80806056565b63f92ee8a960e01b8152600490fd5b5f80fdfe6080604090808252600480361015610015575f80fd5b5f3560e01c91826301ffc9a714611ef9575081630b9663db14611dc0578163140f021c14611d8d578163248a9ca314611d445781632f2ff15d14611d1c57816330b3937e14611cb55781633347e4d614611b5f57816336568abe14611af557816337053db9146119795781633b1f4d891461195b5781633f4ba83a1461189c57816345c09e6b146118225781634f1ef2861461153b57816352d1902d1461149e57816358c12dbe1461146c578163593f5c31146114325781635c975abb146113f057816360c6d8ae146113d257816362a2a47c14611398578163766718081461137a578163774a724f1461135c578163803db96d146113285781638456cb59146112925781638a52e236146110f657816391d1485414611085578163926f86ce14610f2f578163a217fddf14610f15578163a70b9f0c14610ef8578163ad3cb1cc14610e55578163b17acdcd14610c73578163bb57ad2014610a12578163cc2a9a5b1461068a578163ccc5749014610650578163cdf1dd4e14610632578163d0bdb29214610571578163d547741f14610516578163e1f1c4a7146104fa578163e63ab1e9146104c0578163eb90e39f1461048c578163ee99205c14610458578163f526e39a1461043a578163f890031a1461028757508063fc5cbf1d146102475763ff639a6714610204575f80fd5b34610243575f600319360112610243576005546006546007546008549351928352602083019190915260408201526060810191909152608090f35b0390f35b5f80fd5b5034610243575f6003193601126102435760a090600b5490600c5490600d54600e5491600f54938151958652602086015284015260608301526080820152f35b9050346102435760209182600319360112610243576102a4611fb9565b7f7935bd0ae54bc31f548c14dba4d37c5c64b3f8ca900cb468fb8abd54d5894f55805f527f02dd7bc7dec4dceedda775e58dd541e08a116c6c53815c0bd028192f7b626800808652835f20335f52865260ff845f20541615908161041d575b506103e7575073ffffffffffffffffffffffffffffffffffffffff169182156103c0577f7930a6ee245f315cf201859c59db9b0df8cee9548e26cb8dd25ee0d4b4de07407fa42de6429c1410f4470a8ff5afeeae27c734519ac1693e8eb58798a81715c947858585817fffffffffffffffffffffffff000000000000000000000000000000000000000060015416176001557f73657175656e636572526567697374727900000000000000000000000000000081515251908152a2005b90517fd92e233d000000000000000000000000000000000000000000000000000000008152fd5b836044918451917fe2517d3f00000000000000000000000000000000000000000000000000000000835233908301526024820152fd5b90505f80528552825f20335f52855260ff835f205416155f610303565b8234610243575f60031936011261024357602090600e549051908152f35b8234610243575f6003193601126102435760209073ffffffffffffffffffffffffffffffffffffffff600254169051908152f35b8234610243575f6003193601126102435760209073ffffffffffffffffffffffffffffffffffffffff600154169051908152f35b8234610243575f60031936011261024357602090517f65d7a28e3265b37a6474929f336521b332c1681b933f6cb9f3376673440d862a8152f35b8234610243575f60031936011261024357602090516127108152f35b823461024357806003193601126102435761056f913561056a6001610539611f96565b93835f527f02dd7bc7dec4dceedda775e58dd541e08a116c6c53815c0bd028192f7b6268006020525f20015461223f565b612612565b005b9050346102435760206003193601126102435761023f916105906120f6565b5081355f52600a6020526006815f208251936105ab85612025565b8154855260018201546020860152600282015484860152600382015460608601528101546080850152600581015460a0850152015460c0830152519182918291909160c08060e0830194805184526020810151602085015260408101516040850152606081015160608501526080810151608085015260a081015160a08501520151910152565b8234610243575f60031936011261024357602090600f549051908152f35b8234610243575f60031936011261024357602090517f7935bd0ae54bc31f548c14dba4d37c5c64b3f8ca900cb468fb8abd54d5894f558152f35b82346102435760c0600319360112610243576106a4611fb9565b916106ad611f96565b926044359073ffffffffffffffffffffffffffffffffffffffff8083168093036102435760643593818516809503610243576084358281168091036102435760a435928084168403610243577ff0c57e16840df040f15088dc2f81fe391c3923bec73e23a9662efc9c229c6a009687549660ff888b1c16159667ffffffffffffffff891698891580610a0b575b6001809b149081610a01575b1590816109f8575b506109d0579081898b7fffffffffffffffffffffffffffffffffffffffffffffffff0000000000000000889516178d5561099b575b5061078c612828565b610794612828565b61079c612828565b6107a4612828565b7fcd5ed15c6e187e77e9aee88184c21f4f2182ab5827cb3b7e07fbedcd63f033007fffffffffffffffffffffffffffffffffffffffffffffffffffffffffffffff0081541690556107f3612828565b6107fb612828565b897f9b779b17422d0df92223018b32b4d1fa46e071723d6817e2486d003becc55f0055169283158015610991575b8015610989575b8015610981575b8015610979575b610951576108ac9798999a9b7fffffffffffffffffffffffff000000000000000000000000000000000000000094855f5416175f5516838a541617895582600254161760025581600354161760035582541617905561089c81612280565b506108a68161235b565b50612459565b50606084516108ba81611fdc565b610fa0808252610bb8908160208401526107d09283898201526103e894859101526005556006556007556008556009545f52600a602052426005855f2001556108ff57005b7fc7f505b2f371ae2175ee4913f4499e1f2633a7b5936321eed1cdaeb6115181d292827fffffffffffffffffffffffffffffffffffffffffffffff00ffffffffffffffff6020945416905551908152a1005b858b517fd92e233d000000000000000000000000000000000000000000000000000000008152fd5b50841561083e565b508215610837565b508115610830565b50808c1615610829565b7fffffffffffffffffffffffffffffffffffffffffffffff0000000000000000001668010000000000000001178b558d610783565b868c517ff92ee8a9000000000000000000000000000000000000000000000000000000008152fd5b9050158e61074e565b303b159150610746565b508861073a565b8234610243575f600319360112610243577f9b779b17422d0df92223018b32b4d1fa46e071723d6817e2486d003becc55f00906002825414610c4b5760028255610a5a6126d0565b6009545f52600a602052805f208054908115610c2357907f5e6c0cbe2644fd646f1214bf0ff8bc707760f5625a4d69c66d1c98af4cde26e791610b6a600196612710938185610aab6005548461212c565b049486610aba6006548561212c565b0496610ad781610acc6007548761212c565b04946008549061212c565b049381878d879401558860028201558460038201550155610afa85600c546120bc565b600c55610b0986600d546120bc565b600d55610b1882600e546120bc565b600e55610b2783600f546120bc565b600f5584610bf7575b85610bca575b81610b9d575b8280610b70575b50506009549651948594859094939260609260808301968352602083015260408201520152565b0390a255005b610b969173ffffffffffffffffffffffffffffffffffffffff805f541691541690612725565b8982610b43565b610bc58273ffffffffffffffffffffffffffffffffffffffff805f5416906003541690612725565b610b3c565b610bf28673ffffffffffffffffffffffffffffffffffffffff805f5416906002541690612725565b610b36565b610c1e8573ffffffffffffffffffffffffffffffffffffffff805f5416908d541690612725565b610b30565b8483517ff4d678b8000000000000000000000000000000000000000000000000000000008152fd5b9050517f3ee5aeb5000000000000000000000000000000000000000000000000000000008152fd5b82346102435760209081600319360112610243578235917f2dca0f5ce7e75a4b43fe2b0d6f5d0b7a2bf92ecf89f8f0aa17b8308b67038821805f527f02dd7bc7dec4dceedda775e58dd541e08a116c6c53815c0bd028192f7b6268008252825f20335f52825260ff835f20541615610e1f5750610cee6126d0565b8215610df75773ffffffffffffffffffffffffffffffffffffffff5f54168251947f23b872dd00000000000000000000000000000000000000000000000000000000838701523360248701523060448701528460648701526064865260a086019086821067ffffffffffffffff831117610dcb575094610d92917f2e4fb6077d4acf86e12bb7411fb82b2b3eaa6a49787f4b1e17b423e7ea84116995968552612787565b6009545f52600a8152815f20610da98582546120bc565b9055610db784600b546120bc565b600b556009549082519485528401523392a2005b6041907f4e487b71000000000000000000000000000000000000000000000000000000005f525260245ffd5b8382517f2c5211c6000000000000000000000000000000000000000000000000000000008152fd5b846044918451917fe2517d3f00000000000000000000000000000000000000000000000000000000835233908301526024820152fd5b8234610243575f600319360112610243578051918183019083821067ffffffffffffffff831117610dcb575081526005825260208201917f352e302e3000000000000000000000000000000000000000000000000000000083527fffffffffffffffffffffffffffffffffffffffffffffffffffffffffffffffe0601f8351948593602085525180918160208701528686015e5f85828601015201168101030190f35b8234610243575f600319360112610243576020905162093a808152f35b8234610243575f60031936011261024357602090515f8152f35b905034610243576020918260031936011261024357610f4c611fb9565b7f7935bd0ae54bc31f548c14dba4d37c5c64b3f8ca900cb468fb8abd54d5894f55805f527f02dd7bc7dec4dceedda775e58dd541e08a116c6c53815c0bd028192f7b626800808652835f20335f52865260ff845f205416159081611068575b506103e7575073ffffffffffffffffffffffffffffffffffffffff169182156103c0577f98a08b109af967040154d3dee7d756f958d1b3d59eae22fb415a27272bc644cc7fa42de6429c1410f4470a8ff5afeeae27c734519ac1693e8eb58798a81715c947858585817fffffffffffffffffffffffff000000000000000000000000000000000000000060035416176003557f70726f746f636f6c54726561737572790000000000000000000000000000000081515251908152a2005b90505f80528552825f20335f52855260ff835f205416155f610fab565b82346102435780600319360112610243576020916110a1611f96565b90355f527f02dd7bc7dec4dceedda775e58dd541e08a116c6c53815c0bd028192f7b626800835273ffffffffffffffffffffffffffffffffffffffff825f2091165f52825260ff815f20541690519015158152f35b82346102435760806003193601126102435781356024359160443590606435947f7935bd0ae54bc31f548c14dba4d37c5c64b3f8ca900cb468fb8abd54d5894f55805f527f02dd7bc7dec4dceedda775e58dd541e08a116c6c53815c0bd028192f7b62680080602052835f20335f5260205260ff845f205416159081611273575b5061123f575061271061119787611192866111928a8a6120bc565b6120bc565b0361121857509361121391858260607f5b00f982fbe46902a762ef83094f300567be1a26e3004d46589551915d5b0fa998516111d281611fdc565b878152886020820152848482015201528460055585600655816007558260085551948594859094939260609260808301968352602083015260408201520152565b0390a1005b90517f18768fe8000000000000000000000000000000000000000000000000000000008152fd5b60449251917fe2517d3f00000000000000000000000000000000000000000000000000000000835233908301526024820152fd5b90505f8052602052825f20335f5260205260ff835f2054161588611177565b8234610243575f6003193601126102435760207f62e78cea01bee320cd4e420270b5ea74000d11b0c9f74754ebdbfc544b05a258916112cf6121ad565b6112d76126d0565b7fcd5ed15c6e187e77e9aee88184c21f4f2182ab5827cb3b7e07fbedcd63f0330060017fffffffffffffffffffffffffffffffffffffffffffffffffffffffffffffff0082541617905551338152a1005b8234610243575f6003193601126102435760209073ffffffffffffffffffffffffffffffffffffffff600354169051908152f35b8234610243575f60031936011261024357602090600d549051908152f35b8234610243575f600319360112610243576020906009549051908152f35b8234610243575f60031936011261024357602090517f2dca0f5ce7e75a4b43fe2b0d6f5d0b7a2bf92ecf89f8f0aa17b8308b670388218152f35b8234610243575f60031936011261024357602090600b549051908152f35b8234610243575f6003193601126102435760209060ff7fcd5ed15c6e187e77e9aee88184c21f4f2182ab5827cb3b7e07fbedcd63f03300541690519015158152f35b905034610243575f6003193601126102435761023f916114506120f6565b506009545f52600a6020526006815f208251936105ab85612025565b8234610243575f6003193601126102435773ffffffffffffffffffffffffffffffffffffffff60209254169051908152f35b8234610243575f6003193601126102435773ffffffffffffffffffffffffffffffffffffffff7f000000000000000000000000000000000000000000000000000000000000000016300361151557602090517f360894a13ba1a3210667c828492db98dca3e2076cc3735a920a3ca505d382bbc8152f35b517fe07c8dba000000000000000000000000000000000000000000000000000000008152fd5b90508160031936011261024357611550611fb9565b602492833567ffffffffffffffff8111610243573660238201121561024357808401359261157d84612082565b61158984519182612041565b848152602094858201933689838301011161024357815f928a89930187378301015273ffffffffffffffffffffffffffffffffffffffff807f0000000000000000000000000000000000000000000000000000000000000000168030149081156117f4575b506117cc576115fb61213f565b8216948451907f52d1902d000000000000000000000000000000000000000000000000000000008252808289818a5afa9182915f9361179c575b5050611669575050505051917f4c9c8ce3000000000000000000000000000000000000000000000000000000008352820152fd5b858588928a7f360894a13ba1a3210667c828492db98dca3e2076cc3735a920a3ca505d382bbc9182810361176f5750863b156117425750827fffffffffffffffffffffffff000000000000000000000000000000000000000082541617905551907fbc7cd75a20ee27fd9adebab32041f755214dbc6bffa90cc0225b39da2e5c2d3b5f80a28251156117115750505f61056f9381925190845af461170b612881565b916128b0565b92509250503461171d57005b7fb398979f000000000000000000000000000000000000000000000000000000008152fd5b94505051917f4c9c8ce3000000000000000000000000000000000000000000000000000000008352820152fd5b85908451917faa1d49a4000000000000000000000000000000000000000000000000000000008352820152fd5b9080929350813d83116117c5575b6117b48183612041565b810103126102435751905f80611635565b503d6117aa565b8685517fe07c8dba000000000000000000000000000000000000000000000000000000008152fd5b9050817f360894a13ba1a3210667c828492db98dca3e2076cc3735a920a3ca505d382bbc541614155f6115ee565b8234610243575f60031936011261024357805f60606080935161184481611fdc565b82815282602082015282848201520152805161185f81611fdc565b6005549182825260065460208301908152600754908284019182526060600854940193845282519485525160208501525190830152516060820152f35b8234610243575f600319360112610243576118b56121ad565b7fcd5ed15c6e187e77e9aee88184c21f4f2182ab5827cb3b7e07fbedcd63f033009182549060ff821615611934577f5db9ee0a495bf2e6ff9c91a7834c1ba4fdd244a5e8aa4e537bd38aeae4b073aa602084867fffffffffffffffffffffffffffffffffffffffffffffffffffffffffffffff008616905551338152a1005b82517f8dfc202b000000000000000000000000000000000000000000000000000000008152fd5b8234610243575f60031936011261024357602090600c549051908152f35b8234610243576020908160031936011261024357611995611fb9565b7f7935bd0ae54bc31f548c14dba4d37c5c64b3f8ca900cb468fb8abd54d5894f55805f527f02dd7bc7dec4dceedda775e58dd541e08a116c6c53815c0bd028192f7b626800808552835f20335f52855260ff845f205416159081611ad8575b50610e1f575073ffffffffffffffffffffffffffffffffffffffff16908115611ab057907fa42de6429c1410f4470a8ff5afeeae27c734519ac1693e8eb58798a81715c947929184827fffffffffffffffffffffffff00000000000000000000000000000000000000007f36a9af9ba79dd2edccd3f98d368fa5cb15180c1f3b85fb561c476ca2dbd7cf719754161790557f636f6d6d756e697479547265617375727900000000000000000000000000000081515251908152a2005b8390517fd92e233d000000000000000000000000000000000000000000000000000000008152fd5b90505f80528452825f20335f52845260ff835f20541615866119f4565b8234610243578060031936011261024357611b0e611f96565b903373ffffffffffffffffffffffffffffffffffffffff831603611b37575061056f9135612612565b9050517f6697b232000000000000000000000000000000000000000000000000000000008152fd5b905034610243576020918260031936011261024357611b7c611fb9565b7f7935bd0ae54bc31f548c14dba4d37c5c64b3f8ca900cb468fb8abd54d5894f55805f527f02dd7bc7dec4dceedda775e58dd541e08a116c6c53815c0bd028192f7b626800808652835f20335f52865260ff845f205416159081611c98575b506103e7575073ffffffffffffffffffffffffffffffffffffffff169182156103c0577f5553200237abb923922b83072064150da184345b608169d71c6cab88421f07e17fa42de6429c1410f4470a8ff5afeeae27c734519ac1693e8eb58798a81715c947858585817fffffffffffffffffffffffff000000000000000000000000000000000000000060025416176002557f7374616b696e67436f6e7472616374000000000000000000000000000000000081515251908152a2005b90505f80528552825f20335f52855260ff835f205416155f611bdb565b8234610243576020600319360112610243578160e092355f52600a602052815f208054926001820154926002830154600384015491840154926006600586015495015495815197885260208801528601526060850152608084015260a083015260c0820152f35b823461024357806003193601126102435761056f9135611d3f6001610539611f96565b612550565b823461024357602060031936011261024357602091355f527f02dd7bc7dec4dceedda775e58dd541e08a116c6c53815c0bd028192f7b62680082526001815f2001549051908152f35b8234610243575f6003193601126102435760209073ffffffffffffffffffffffffffffffffffffffff5f54169051908152f35b905034610243575f60031936011261024357611dda61213f565b6009545f52600a602052815f20600581015462093a808101809111611ecd574210611ea557906020914260068201557f27bd0cff633fd950c11ae24bd614aa2d87d938a50d6b65573c3743be7a831f57600954938492548651908152a27fffffffffffffffffffffffffffffffffffffffffffffffffffffffffffffffff8214611e795750600101806009555f52600a602052600542915f2001555f80f35b6011907f4e487b71000000000000000000000000000000000000000000000000000000005f525260245ffd5b5090517f756b7857000000000000000000000000000000000000000000000000000000008152fd5b6011837f4e487b71000000000000000000000000000000000000000000000000000000005f525260245ffd5b90346102435760206003193601126102435735907fffffffff00000000000000000000000000000000000000000000000000000000821680920361024357817f7965db0b0000000000000000000000000000000000000000000000000000000060209314908115611f6c575b5015158152f35b7f01ffc9a70000000000000000000000000000000000000000000000000000000091501483611f65565b6024359073ffffffffffffffffffffffffffffffffffffffff8216820361024357565b6004359073ffffffffffffffffffffffffffffffffffffffff8216820361024357565b6080810190811067ffffffffffffffff821117611ff857604052565b7f4e487b71000000000000000000000000000000000000000000000000000000005f52604160045260245ffd5b60e0810190811067ffffffffffffffff821117611ff857604052565b90601f7fffffffffffffffffffffffffffffffffffffffffffffffffffffffffffffffe0910116810190811067ffffffffffffffff821117611ff857604052565b67ffffffffffffffff8111611ff857601f017fffffffffffffffffffffffffffffffffffffffffffffffffffffffffffffffe01660200190565b919082018092116120c957565b7f4e487b71000000000000000000000000000000000000000000000000000000005f52601160045260245ffd5b6040519061210382612025565b5f60c0838281528260208201528260408201528260608201528260808201528260a08201520152565b818102929181159184041417156120c957565b335f9081527fb7db2dd08fcb62d0c9e08c51941cae53c267786a0b75803fb7960902fc8ef97d602052604090205460ff161561217757565b60446040517fe2517d3f0000000000000000000000000000000000000000000000000000000081523360048201525f6024820152fd5b335f9081527f75442b0a96088b5456bc4ed01394c96a4feec0f883c9494257d76b96ab1c9b6b60205260409020547f65d7a28e3265b37a6474929f336521b332c1681b933f6cb9f3376673440d862a9060ff16156122085750565b604490604051907fe2517d3f0000000000000000000000000000000000000000000000000000000082523360048301526024820152fd5b805f527f02dd7bc7dec4dceedda775e58dd541e08a116c6c53815c0bd028192f7b62680060205260405f20335f5260205260ff60405f205416156122085750565b73ffffffffffffffffffffffffffffffffffffffff165f8181527fb7db2dd08fcb62d0c9e08c51941cae53c267786a0b75803fb7960902fc8ef97d60205260409020547f02dd7bc7dec4dceedda775e58dd541e08a116c6c53815c0bd028192f7b6268009060ff16612355575f805260205260405f20815f5260205260405f2060017fffffffffffffffffffffffffffffffffffffffffffffffffffffffffffffff0082541617905533905f7f2f8788117e7eff1d82e926ec794901d17c78024a50270940304540a733656f0d8180a4600190565b50505f90565b73ffffffffffffffffffffffffffffffffffffffff165f8181527f75442b0a96088b5456bc4ed01394c96a4feec0f883c9494257d76b96ab1c9b6b60205260409020547f65d7a28e3265b37a6474929f336521b332c1681b933f6cb9f3376673440d862a91907f02dd7bc7dec4dceedda775e58dd541e08a116c6c53815c0bd028192f7b6268009060ff1661245257825f5260205260405f20815f5260205260405f2060017fffffffffffffffffffffffffffffffffffffffffffffffffffffffffffffff0082541617905533917f2f8788117e7eff1d82e926ec794901d17c78024a50270940304540a733656f0d5f80a4600190565b5050505f90565b73ffffffffffffffffffffffffffffffffffffffff165f8181527fa8ea5f0b60e3d1883b67e04ac795bb381f9e8ced1ffcbc3cabc51aea2761583160205260409020547f2dca0f5ce7e75a4b43fe2b0d6f5d0b7a2bf92ecf89f8f0aa17b8308b6703882191907f02dd7bc7dec4dceedda775e58dd541e08a116c6c53815c0bd028192f7b6268009060ff1661245257825f5260205260405f20815f5260205260405f2060017fffffffffffffffffffffffffffffffffffffffffffffffffffffffffffffff0082541617905533917f2f8788117e7eff1d82e926ec794901d17c78024a50270940304540a733656f0d5f80a4600190565b90815f527f02dd7bc7dec4dceedda775e58dd541e08a116c6c53815c0bd028192f7b6268008060205273ffffffffffffffffffffffffffffffffffffffff60405f20921691825f5260205260ff60405f205416155f1461245257825f5260205260405f20815f5260205260405f2060017fffffffffffffffffffffffffffffffffffffffffffffffffffffffffffffff0082541617905533917f2f8788117e7eff1d82e926ec794901d17c78024a50270940304540a733656f0d5f80a4600190565b90815f527f02dd7bc7dec4dceedda775e58dd541e08a116c6c53815c0bd028192f7b6268008060205273ffffffffffffffffffffffffffffffffffffffff60405f20921691825f5260205260ff60405f2054165f1461245257825f5260205260405f20815f5260205260405f207fffffffffffffffffffffffffffffffffffffffffffffffffffffffffffffff00815416905533917ff6391f5c32d9c69d2a47ea670b442974b53935d1edc7fd64eb21e047a839171b5f80a4600190565b60ff7fcd5ed15c6e187e77e9aee88184c21f4f2182ab5827cb3b7e07fbedcd63f0330054166126fb57565b60046040517fd93c0665000000000000000000000000000000000000000000000000000000008152fd5b6127859273ffffffffffffffffffffffffffffffffffffffff604051937fa9059cbb00000000000000000000000000000000000000000000000000000000602086015216602484015260448301526044825261278082611fdc565b612787565b565b5f8073ffffffffffffffffffffffffffffffffffffffff6127bd93169360208151910182865af16127b6612881565b90836128b0565b8051908115159182612804575b50506127d35750565b602490604051907f5274afe70000000000000000000000000000000000000000000000000000000082526004820152fd5b81925090602091810103126102435760200151801590811503610243575f806127ca565b60ff7ff0c57e16840df040f15088dc2f81fe391c3923bec73e23a9662efc9c229c6a005460401c161561285757565b60046040517fd7e6bcf8000000000000000000000000000000000000000000000000000000008152fd5b3d156128ab573d9061289282612082565b916128a06040519384612041565b82523d5f602084013e565b606090565b906128ef57508051156128c557805190602001fd5b60046040517f1425ea42000000000000000000000000000000000000000000000000000000008152fd5b81511580612947575b612900575090565b60249073ffffffffffffffffffffffffffffffffffffffff604051917f9996b315000000000000000000000000000000000000000000000000000000008352166004820152fd5b50803b156128f856fea2646970667358221220519fea8fd0aab743ab39130cbf940bdba6f4575996af447819763d96a9c7116464736f6c63430008190033","linkReferences":{}},"methodIdentifiers":{"BASIS_POINTS()":"e1f1c4a7","DEFAULT_ADMIN_ROLE()":"a217fddf","EPOCH_DURATION()":"a70b9f0c","FEE_COLLECTOR_ROLE()":"62a2a47c","GOVERNOR_ROLE()":"ccc57490","PAUSER_ROLE()":"e63ab1e9","UPGRADE_INTERFACE_VERSION()":"ad3cb1cc","andeToken()":"140f021c","collectFees(uint256)":"b17acdcd","communityTreasury()":"58c12dbe","currentEpoch()":"76671808","distributeFees()":"bb57ad20","distributionConfig()":"ff639a67","endEpoch()":"0b9663db","epochStats(uint256)":"30b3937e","getCurrentEpochStats()":"593f5c31","getDistributionConfig()":"45c09e6b","getEpochStats(uint256)":"d0bdb292","getRoleAdmin(bytes32)":"248a9ca3","getTotalStats()":"fc5cbf1d","grantRole(bytes32,address)":"2f2ff15d","hasRole(bytes32,address)":"91d14854","initialize(address,address,address,address,address,address)":"cc2a9a5b","pause()":"8456cb59","paused()":"5c975abb","protocolTreasury()":"803db96d","proxiableUUID()":"52d1902d","renounceRole(bytes32,address)":"36568abe","revokeRole(bytes32,address)":"d547741f","sequencerRegistry()":"eb90e39f","stakingContract()":"ee99205c","supportsInterface(bytes4)":"01ffc9a7","totalCommunityTreasuryFees()":"cdf1dd4e","totalFeesCollected()":"60c6d8ae","totalProtocolFees()":"f526e39a","totalSequencerFees()":"3b1f4d89","totalStakersFees()":"774a724f","unpause()":"3f4ba83a","updateCommunityTreasury(address)":"37053db9","updateDistributionConfig(uint256,uint256,uint256,uint256)":"8a52e236","updateProtocolTreasury(address)":"926f86ce","updateSequencerRegistry(address)":"f890031a","updateStakingContract(address)":"3347e4d6","upgradeToAndCall(address,bytes)":"4f1ef286"},"id":181}