{"abi":[{"type":"constructor","inputs":[],"stateMutability":"nonpayable"},{"type":"function","name":"BURNER_ROLE","inputs":[],"outputs":[{"name":"","type":"bytes32","internalType":"bytes32"}],"stateMutability":"view"},{"type":"function","name":"CLOCK_MODE","inputs":[],"outputs":[{"name":"","type":"string","internalType":"string"}],"stateMutability":"view"},{"type":"function","name":"DEFAULT_ADMIN_ROLE","inputs":[],"outputs":[{"name":"","type":"bytes32","internalType":"bytes32"}],"stateMutability":"view"},{"type":"function","name":"DOMAIN_SEPARATOR","inputs":[],"outputs":[{"name":"","type":"bytes32","internalType":"bytes32"}],"stateMutability":"view"},{"type":"function","name":"MINTER_ROLE","inputs":[],"outputs":[{"name":"","type":"bytes32","internalType":"bytes32"}],"stateMutability":"view"},{"type":"function","name":"PAUSER_ROLE","inputs":[],"outputs":[{"name":"","type":"bytes32","internalType":"bytes32"}],"stateMutability":"view"},{"type":"function","name":"UPGRADE_INTERFACE_VERSION","inputs":[],"outputs":[{"name":"","type":"string","internalType":"string"}],"stateMutability":"view"},{"type":"function","name":"allowance","inputs":[{"name":"owner","type":"address","internalType":"address"},{"name":"spender","type":"address","internalType":"address"}],"outputs":[{"name":"","type":"uint256","internalType":"uint256"}],"stateMutability":"view"},{"type":"function","name":"approve","inputs":[{"name":"spender","type":"address","internalType":"address"},{"name":"value","type":"uint256","internalType":"uint256"}],"outputs":[{"name":"","type":"bool","internalType":"bool"}],"stateMutability":"nonpayable"},{"type":"function","name":"balanceOf","inputs":[{"name":"account","type":"address","internalType":"address"}],"outputs":[{"name":"","type":"uint256","internalType":"uint256"}],"stateMutability":"view"},{"type":"function","name":"burn","inputs":[{"name":"value","type":"uint256","internalType":"uint256"}],"outputs":[],"stateMutability":"nonpayable"},{"type":"function","name":"burnFrom","inputs":[{"name":"account","type":"address","internalType":"address"},{"name":"value","type":"uint256","internalType":"uint256"}],"outputs":[],"stateMutability":"nonpayable"},{"type":"function","name":"checkpoints","inputs":[{"name":"account","type":"address","internalType":"address"},{"name":"pos","type":"uint32","internalType":"uint32"}],"outputs":[{"name":"","type":"tuple","internalType":"struct Checkpoints.Checkpoint208","components":[{"name":"_key","type":"uint48","internalType":"uint48"},{"name":"_value","type":"uint208","internalType":"uint208"}]}],"stateMutability":"view"},{"type":"function","name":"clock","inputs":[],"outputs":[{"name":"","type":"uint48","internalType":"uint48"}],"stateMutability":"view"},{"type":"function","name":"decimals","inputs":[],"outputs":[{"name":"","type":"uint8","internalType":"uint8"}],"stateMutability":"view"},{"type":"function","name":"delegate","inputs":[{"name":"delegatee","type":"address","internalType":"address"}],"outputs":[],"stateMutability":"nonpayable"},{"type":"function","name":"delegateBySig","inputs":[{"name":"delegatee","type":"address","internalType":"address"},{"name":"nonce","type":"uint256","internalType":"uint256"},{"name":"expiry","type":"uint256","internalType":"uint256"},{"name":"v","type":"uint8","internalType":"uint8"},{"name":"r","type":"bytes32","internalType":"bytes32"},{"name":"s","type":"bytes32","internalType":"bytes32"}],"outputs":[],"stateMutability":"nonpayable"},{"type":"function","name":"delegates","inputs":[{"name":"account","type":"address","internalType":"address"}],"outputs":[{"name":"","type":"address","internalType":"address"}],"stateMutability":"view"},{"type":"function","name":"eip712Domain","inputs":[],"outputs":[{"name":"fields","type":"bytes1","internalType":"bytes1"},{"name":"name","type":"string","internalType":"string"},{"name":"version","type":"string","internalType":"string"},{"name":"chainId","type":"uint256","internalType":"uint256"},{"name":"verifyingContract","type":"address","internalType":"address"},{"name":"salt","type":"bytes32","internalType":"bytes32"},{"name":"extensions","type":"uint256[]","internalType":"uint256[]"}],"stateMutability":"view"},{"type":"function","name":"getPastTotalSupply","inputs":[{"name":"timepoint","type":"uint256","internalType":"uint256"}],"outputs":[{"name":"","type":"uint256","internalType":"uint256"}],"stateMutability":"view"},{"type":"function","name":"getPastVotes","inputs":[{"name":"account","type":"address","internalType":"address"},{"name":"timepoint","type":"uint256","internalType":"uint256"}],"outputs":[{"name":"","type":"uint256","internalType":"uint256"}],"stateMutability":"view"},{"type":"function","name":"getRoleAdmin","inputs":[{"name":"role","type":"bytes32","internalType":"bytes32"}],"outputs":[{"name":"","type":"bytes32","internalType":"bytes32"}],"stateMutability":"view"},{"type":"function","name":"getVotes","inputs":[{"name":"account","type":"address","internalType":"address"}],"outputs":[{"name":"","type":"uint256","internalType":"uint256"}],"stateMutability":"view"},{"type":"function","name":"grantRole","inputs":[{"name":"role","type":"bytes32","internalType":"bytes32"},{"name":"account","type":"address","internalType":"address"}],"outputs":[],"stateMutability":"nonpayable"},{"type":"function","name":"hasRole","inputs":[{"name":"role","type":"bytes32","internalType":"bytes32"},{"name":"account","type":"address","internalType":"address"}],"outputs":[{"name":"","type":"bool","internalType":"bool"}],"stateMutability":"view"},{"type":"function","name":"initialize","inputs":[{"name":"defaultAdmin","type":"address","internalType":"address"},{"name":"minter","type":"address","internalType":"address"},{"name":"precompile","type":"address","internalType":"address"}],"outputs":[],"stateMutability":"nonpayable"},{"type":"function","name":"mint","inputs":[{"name":"to","type":"address","internalType":"address"},{"name":"amount","type":"uint256","internalType":"uint256"}],"outputs":[],"stateMutability":"nonpayable"},{"type":"function","name":"name","inputs":[],"outputs":[{"name":"","type":"string","internalType":"string"}],"stateMutability":"view"},{"type":"function","name":"nonces","inputs":[{"name":"owner","type":"address","internalType":"address"}],"outputs":[{"name":"","type":"uint256","internalType":"uint256"}],"stateMutability":"view"},{"type":"function","name":"numCheckpoints","inputs":[{"name":"account","type":"address","internalType":"address"}],"outputs":[{"name":"","type":"uint32","internalType":"uint32"}],"stateMutability":"view"},{"type":"function","name":"pause","inputs":[],"outputs":[],"stateMutability":"nonpayable"},{"type":"function","name":"paused","inputs":[],"outputs":[{"name":"","type":"bool","internalType":"bool"}],"stateMutability":"view"},{"type":"function","name":"permit","inputs":[{"name":"owner","type":"address","internalType":"address"},{"name":"spender","type":"address","internalType":"address"},{"name":"value","type":"uint256","internalType":"uint256"},{"name":"deadline","type":"uint256","internalType":"uint256"},{"name":"v","type":"uint8","internalType":"uint8"},{"name":"r","type":"bytes32","internalType":"bytes32"},{"name":"s","type":"bytes32","internalType":"bytes32"}],"outputs":[],"stateMutability":"nonpayable"},{"type":"function","name":"precompileAddress","inputs":[],"outputs":[{"name":"","type":"address","internalType":"address"}],"stateMutability":"view"},{"type":"function","name":"proxiableUUID","inputs":[],"outputs":[{"name":"","type":"bytes32","internalType":"bytes32"}],"stateMutability":"view"},{"type":"function","name":"renounceRole","inputs":[{"name":"role","type":"bytes32","internalType":"bytes32"},{"name":"callerConfirmation","type":"address","internalType":"address"}],"outputs":[],"stateMutability":"nonpayable"},{"type":"function","name":"revokeRole","inputs":[{"name":"role","type":"bytes32","internalType":"bytes32"},{"name":"account","type":"address","internalType":"address"}],"outputs":[],"stateMutability":"nonpayable"},{"type":"function","name":"setPrecompileAddress","inputs":[{"name":"newPrecompileAddress","type":"address","internalType":"address"}],"outputs":[],"stateMutability":"nonpayable"},{"type":"function","name":"supportsInterface","inputs":[{"name":"interfaceId","type":"bytes4","internalType":"bytes4"}],"outputs":[{"name":"","type":"bool","internalType":"bool"}],"stateMutability":"view"},{"type":"function","name":"symbol","inputs":[],"outputs":[{"name":"","type":"string","internalType":"string"}],"stateMutability":"view"},{"type":"function","name":"totalSupply","inputs":[],"outputs":[{"name":"","type":"uint256","internalType":"uint256"}],"stateMutability":"view"},{"type":"function","name":"transfer","inputs":[{"name":"to","type":"address","internalType":"address"},{"name":"value","type":"uint256","internalType":"uint256"}],"outputs":[{"name":"","type":"bool","internalType":"bool"}],"stateMutability":"nonpayable"},{"type":"function","name":"transferFrom","inputs":[{"name":"from","type":"address","internalType":"address"},{"name":"to","type":"address","internalType":"address"},{"name":"value","type":"uint256","internalType":"uint256"}],"outputs":[{"name":"","type":"bool","internalType":"bool"}],"stateMutability":"nonpayable"},{"type":"function","name":"unpause","inputs":[],"outputs":[],"stateMutability":"nonpayable"},{"type":"function","name":"upgradeToAndCall","inputs":[{"name":"newImplementation","type":"address","internalType":"address"},{"name":"data","type":"bytes","internalType":"bytes"}],"outputs":[],"stateMutability":"payable"},{"type":"event","name":"Approval","inputs":[{"name":"owner","type":"address","indexed":true,"internalType":"address"},{"name":"spender","type":"address","indexed":true,"internalType":"address"},{"name":"value","type":"uint256","indexed":false,"internalType":"uint256"}],"anonymous":false},{"type":"event","name":"DelegateChanged","inputs":[{"name":"delegator","type":"address","indexed":true,"internalType":"address"},{"name":"fromDelegate","type":"address","indexed":true,"internalType":"address"},{"name":"toDelegate","type":"address","indexed":true,"internalType":"address"}],"anonymous":false},{"type":"event","name":"DelegateVotesChanged","inputs":[{"name":"delegate","type":"address","indexed":true,"internalType":"address"},{"name":"previousVotes","type":"uint256","indexed":false,"internalType":"uint256"},{"name":"newVotes","type":"uint256","indexed":false,"internalType":"uint256"}],"anonymous":false},{"type":"event","name":"EIP712DomainChanged","inputs":[],"anonymous":false},{"type":"event","name":"Initialized","inputs":[{"name":"version","type":"uint64","indexed":false,"internalType":"uint64"}],"anonymous":false},{"type":"event","name":"Paused","inputs":[{"name":"account","type":"address","indexed":false,"internalType":"address"}],"anonymous":false},{"type":"event","name":"PrecompileAddressUpdated","inputs":[{"name":"oldAddress","type":"address","indexed":true,"internalType":"address"},{"name":"newAddress","type":"address","indexed":true,"internalType":"address"}],"anonymous":false},{"type":"event","name":"RoleAdminChanged","inputs":[{"name":"role","type":"bytes32","indexed":true,"internalType":"bytes32"},{"name":"previousAdminRole","type":"bytes32","indexed":true,"internalType":"bytes32"},{"name":"newAdminRole","type":"bytes32","indexed":true,"internalType":"bytes32"}],"anonymous":false},{"type":"event","name":"RoleGranted","inputs":[{"name":"role","type":"bytes32","indexed":true,"internalType":"bytes32"},{"name":"account","type":"address","indexed":true,"internalType":"address"},{"name":"sender","type":"address","indexed":true,"internalType":"address"}],"anonymous":false},{"type":"event","name":"RoleRevoked","inputs":[{"name":"role","type":"bytes32","indexed":true,"internalType":"bytes32"},{"name":"account","type":"address","indexed":true,"internalType":"address"},{"name":"sender","type":"address","indexed":true,"internalType":"address"}],"anonymous":false},{"type":"event","name":"Transfer","inputs":[{"name":"from","type":"address","indexed":true,"internalType":"address"},{"name":"to","type":"address","indexed":true,"internalType":"address"},{"name":"value","type":"uint256","indexed":false,"internalType":"uint256"}],"anonymous":false},{"type":"event","name":"Unpaused","inputs":[{"name":"account","type":"address","indexed":false,"internalType":"address"}],"anonymous":false},{"type":"event","name":"Upgraded","inputs":[{"name":"implementation","type":"address","indexed":true,"internalType":"address"}],"anonymous":false},{"type":"error","name":"AccessControlBadConfirmation","inputs":[]},{"type":"error","name":"AccessControlUnauthorizedAccount","inputs":[{"name":"account","type":"address","internalType":"address"},{"name":"neededRole","type":"bytes32","internalType":"bytes32"}]},{"type":"error","name":"AddressEmptyCode","inputs":[{"name":"target","type":"address","internalType":"address"}]},{"type":"error","name":"CheckpointUnorderedInsertion","inputs":[]},{"type":"error","name":"ECDSAInvalidSignature","inputs":[]},{"type":"error","name":"ECDSAInvalidSignatureLength","inputs":[{"name":"length","type":"uint256","internalType":"uint256"}]},{"type":"error","name":"ECDSAInvalidSignatureS","inputs":[{"name":"s","type":"bytes32","internalType":"bytes32"}]},{"type":"error","name":"ERC1967InvalidImplementation","inputs":[{"name":"implementation","type":"address","internalType":"address"}]},{"type":"error","name":"ERC1967NonPayable","inputs":[]},{"type":"error","name":"ERC20ExceededSafeSupply","inputs":[{"name":"increasedSupply","type":"uint256","internalType":"uint256"},{"name":"cap","type":"uint256","internalType":"uint256"}]},{"type":"error","name":"ERC20InsufficientAllowance","inputs":[{"name":"spender","type":"address","internalType":"address"},{"name":"allowance","type":"uint256","internalType":"uint256"},{"name":"needed","type":"uint256","internalType":"uint256"}]},{"type":"error","name":"ERC20InsufficientBalance","inputs":[{"name":"sender","type":"address","internalType":"address"},{"name":"balance","type":"uint256","internalType":"uint256"},{"name":"needed","type":"uint256","internalType":"uint256"}]},{"type":"error","name":"ERC20InvalidApprover","inputs":[{"name":"approver","type":"address","internalType":"address"}]},{"type":"error","name":"ERC20InvalidReceiver","inputs":[{"name":"receiver","type":"address","internalType":"address"}]},{"type":"error","name":"ERC20InvalidSender","inputs":[{"name":"sender","type":"address","internalType":"address"}]},{"type":"error","name":"ERC20InvalidSpender","inputs":[{"name":"spender","type":"address","internalType":"address"}]},{"type":"error","name":"ERC2612ExpiredSignature","inputs":[{"name":"deadline","type":"uint256","internalType":"uint256"}]},{"type":"error","name":"ERC2612InvalidSigner","inputs":[{"name":"signer","type":"address","internalType":"address"},{"name":"owner","type":"address","internalType":"address"}]},{"type":"error","name":"ERC5805FutureLookup","inputs":[{"name":"timepoint","type":"uint256","internalType":"uint256"},{"name":"clock","type":"uint48","internalType":"uint48"}]},{"type":"error","name":"ERC6372InconsistentClock","inputs":[]},{"type":"error","name":"EnforcedPause","inputs":[]},{"type":"error","name":"ExpectedPause","inputs":[]},{"type":"error","name":"FailedInnerCall","inputs":[]},{"type":"error","name":"InvalidAccountNonce","inputs":[{"name":"account","type":"address","internalType":"address"},{"name":"currentNonce","type":"uint256","internalType":"uint256"}]},{"type":"error","name":"InvalidInitialization","inputs":[]},{"type":"error","name":"InvalidPrecompileAddress","inputs":[]},{"type":"error","name":"NotInitializing","inputs":[]},{"type":"error","name":"PrecompileCallFailed","inputs":[{"name":"returnData","type":"bytes","internalType":"bytes"}]},{"type":"error","name":"SafeCastOverflowedUintDowncast","inputs":[{"name":"bits","type":"uint8","internalType":"uint8"},{"name":"value","type":"uint256","internalType":"uint256"}]},{"type":"error","name":"UUPSUnauthorizedCallContext","inputs":[]},{"type":"error","name":"UUPSUnsupportedProxiableUUID","inputs":[{"name":"slot","type":"bytes32","internalType":"bytes32"}]},{"type":"error","name":"VotesExpiredSignature","inputs":[{"name":"expiry","type":"uint256","internalType":"uint256"}]}],"bytecode":{"object":"0x60a0806040523460c857306080527ff0c57e16840df040f15088dc2f81fe391c3923bec73e23a9662efc9c229c6a009081549060ff8260401c1660b957506001600160401b036002600160401b0319828216016075575b604051614b7a90816100cd8239608051818181610d4a0152610f1c0152f35b6001600160401b031990911681179091556040519081527fc7f505b2f371ae2175ee4913f4499e1f2633a7b5936321eed1cdaeb6115181d290602090a15f80806056565b63f92ee8a960e01b8152600490fd5b5f80fdfe60806040526004361015610011575f80fd5b5f3560e01c806301ffc9a7146102e457806305d92ddc146102df57806306fdde03146102da578063095ea7b3146102d557806318160ddd146102d057806323b872dd146102cb578063248a9ca3146102c6578063282c51f3146102c15780632f2ff15d146102bc578063313ce567146102b75780633644e515146102b257806336568abe146102ad5780633a46b1a8146102a85780633f4ba83a146102a357806340c10f191461029e57806342966c68146102995780634bf5d7e9146102945780634f1ef2861461028f57806352d1902d1461028a578063587cde1e146102855780635c19a95c146102805780635c975abb1461027b5780636fcfff451461027657806370a082311461027157806379cc67901461026c5780637ecebe00146102675780638456cb591461026257806384b0196e1461025d5780638e539e8c1461025857806391d148541461025357806391ddadf41461024e57806395d89b41146102495780639ab24eb014610244578063a217fddf1461023f578063a9059cbb1461023a578063ad3cb1cc14610235578063be47b67614610230578063c0c53b8b1461022b578063c3cda52014610226578063d505accf14610221578063d53913931461021c578063d547741f14610217578063dd62ed3e14610212578063e63ab1e91461020d5763f1127ed814610208575f80fd5b611e6b565b611e31565b611d98565b611d3c565b611d02565b611b14565b611a25565b611806565b6117d4565b611777565b611751565b611737565b6116ed565b611628565b6115fd565b611582565b6113fc565b61130b565b6111c6565b611162565b611132565b61110f565b61105e565b61101d565b610ffb565b610f96565b610ef5565b610cc5565b610b28565b610b0b565b610a00565b610942565b6107a3565b610737565b61071d565b610702565b6106a6565b61066c565b610620565b6105e8565b6105c6565b610595565b610474565b6103f2565b34610385576020600319360112610385576004357fffffffff00000000000000000000000000000000000000000000000000000000811680910361038557807f7965db0b000000000000000000000000000000000000000000000000000000006020921490811561035b575b506040519015158152f35b7f01ffc9a7000000000000000000000000000000000000000000000000000000009150145f610350565b5f80fd5b6004359073ffffffffffffffffffffffffffffffffffffffff8216820361038557565b6024359073ffffffffffffffffffffffffffffffffffffffff8216820361038557565b6044359073ffffffffffffffffffffffffffffffffffffffff8216820361038557565b346103855760206003193601126103855761041b61040e610389565b6104166124e3565b612690565b005b907fffffffffffffffffffffffffffffffffffffffffffffffffffffffffffffffe0601f602080948051918291828752018686015e5f8582860101520116010190565b90602061047192818152019061041d565b90565b34610385575f600319360112610385576040515f7f52c63247e1f47db19d5ce0460030c497f067ca4cebf71ba98eeadabe20bace038054906104b582611f40565b8085529160209160019182811690811561054a57506001146104f2575b6104ee866104e281880382610c3b565b60405191829182610460565b0390f35b5f90815293507f2ae08a8e29253f69ac5d979a101956ab8f8d9d7ded63fa7a83b16fc47648eab05b838510610537575050505081016020016104e2826104ee5f6104d2565b805486860184015293820193810161051a565b8796506104ee979450602093506104e29592507fffffffffffffffffffffffffffffffffffffffffffffffffffffffffffffff0091501682840152151560051b82010192935f6104d2565b34610385576040600319360112610385576105bb6105b1610389565b602435903361366f565b602060405160018152f35b34610385575f6003193601126103855760206105e0612193565b604051908152f35b34610385576060600319360112610385576105bb610604610389565b61060c6103ac565b6044359161061b833383612729565b6128ba565b34610385576020600319360112610385576004355f527f02dd7bc7dec4dceedda775e58dd541e08a116c6c53815c0bd028192f7b6268006020526020600160405f200154604051908152f35b34610385575f6003193601126103855760206040517f3c11d16cbaffd01df69ce1c404f6340ee057498f5f00246190ea54220576a8488152f35b346103855760406003193601126103855761041b6004356106c56103ac565b90805f527f02dd7bc7dec4dceedda775e58dd541e08a116c6c53815c0bd028192f7b6268006020526106fd600160405f20015461263c565b612d62565b34610385575f60031936011261038557602060405160128152f35b34610385575f6003193601126103855760206105e0613712565b34610385576040600319360112610385576107506103ac565b3373ffffffffffffffffffffffffffffffffffffffff8216036107795761041b90600435612db7565b60046040517f6697b232000000000000000000000000000000000000000000000000000000008152fd5b34610385576040600319360112610385576107bc610389565b602435906107c943612eac565b9065ffffffffffff918281168410156108fc575061082761082d9173ffffffffffffffffffffffffffffffffffffffff165f527fe8b26c30fad74198956032a3533d903385d56dd795af560196f9c78d4af40d0160205260405f2090565b92612eac565b8254905f9082600581116108ae575b50610848935084613990565b908161087957505079ffffffffffffffffffffffffffffffffffffffffffffffffffff5f5b60405191168152602090f35b61089d79ffffffffffffffffffffffffffffffffffffffffffffffffffff92612f24565b905f5260205f20015460301c61086d565b90926108b9826137bf565b82039182116108f75761084894865f52808360205f20015416908516105f146108e55750915b5f61083c565b9291506108f190612f32565b906108df565b612ef7565b6040517fecd3f81e0000000000000000000000000000000000000000000000000000000081526004810185905265ffffffffffff919091166024820152604490fd5b0390fd5b34610385575f6003193601126103855761095a612551565b7fcd5ed15c6e187e77e9aee88184c21f4f2182ab5827cb3b7e07fbedcd63f03300805460ff8116156109d6577fffffffffffffffffffffffffffffffffffffffffffffffffffffffffffffff001690557f5db9ee0a495bf2e6ff9c91a7834c1ba4fdd244a5e8aa4e537bd38aeae4b073aa6020604051338152a1005b60046040517f8dfc202b000000000000000000000000000000000000000000000000000000008152fd5b3461038557604060031936011261038557610a19610389565b602435610a246125e5565b610a2c612f40565b5f80546040517f2db6b0e7000000000000000000000000000000000000000000000000000000006020820190815273ffffffffffffffffffffffffffffffffffffffff868116602484015260448084018790528352849316918390610a92606482610c3b565b51925af1610a9e612155565b5015610aad5761041b91612f6b565b60646040517f08c379a000000000000000000000000000000000000000000000000000000000815260206004820152602060248201527f4661696c656420746f206465706f736974206e61746976652062616c616e63656044820152fd5b346103855760206003193601126103855761041b600435336130e0565b34610385575f60031936011261038557610b4143612eac565b65ffffffffffff80610b5243612eac565b16911603610ba7576104ee604051610b6981610bfe565b601d81527f6d6f64653d626c6f636b6e756d6265722666726f6d3d64656661756c74000000602082015260405191829160208352602083019061041d565b60046040517f6ff07140000000000000000000000000000000000000000000000000000000008152fd5b7f4e487b71000000000000000000000000000000000000000000000000000000005f52604160045260245ffd5b6040810190811067ffffffffffffffff821117610c1a57604052565b610bd1565b60a0810190811067ffffffffffffffff821117610c1a57604052565b90601f7fffffffffffffffffffffffffffffffffffffffffffffffffffffffffffffffe0910116810190811067ffffffffffffffff821117610c1a57604052565b60405190610c8982610bfe565b565b67ffffffffffffffff8111610c1a57601f017fffffffffffffffffffffffffffffffffffffffffffffffffffffffffffffffe01660200190565b60408060031936011261038557610cda610389565b60243567ffffffffffffffff81116103855736602382011215610385578060040135610d0581610c8b565b91610d1285519384610c3b565b818352366024838301011161038557815f92602460209301838601378301015273ffffffffffffffffffffffffffffffffffffffff807f000000000000000000000000000000000000000000000000000000000000000016803014908115610ec7575b50610e9e576020600491610d876124e3565b8551928380927f52d1902d00000000000000000000000000000000000000000000000000000000825287165afa5f9181610e6d575b50610e075783517f4c9c8ce300000000000000000000000000000000000000000000000000000000815273ffffffffffffffffffffffffffffffffffffffff84166004820152602490fd5b7f360894a13ba1a3210667c828492db98dca3e2076cc3735a920a3ca505d382bbc8193929303610e3b5761041b8383613b0e565b83517faa1d49a40000000000000000000000000000000000000000000000000000000081526004810191909152602490fd5b610e9091925060203d602011610e97575b610e888183610c3b565b810190612184565b905f610dbc565b503d610e7e565b600484517fe07c8dba000000000000000000000000000000000000000000000000000000008152fd5b9050817f360894a13ba1a3210667c828492db98dca3e2076cc3735a920a3ca505d382bbc541614155f610d75565b34610385575f6003193601126103855773ffffffffffffffffffffffffffffffffffffffff7f0000000000000000000000000000000000000000000000000000000000000000163003610f6c5760206040517f360894a13ba1a3210667c828492db98dca3e2076cc3735a920a3ca505d382bbc8152f35b60046040517fe07c8dba000000000000000000000000000000000000000000000000000000008152fd5b3461038557602060031936011261038557602073ffffffffffffffffffffffffffffffffffffffff80610fc7610389565b165f527fe8b26c30fad74198956032a3533d903385d56dd795af560196f9c78d4af40d00825260405f205416604051908152f35b346103855760206003193601126103855761041b611017610389565b336131f2565b34610385575f60031936011261038557602060ff7fcd5ed15c6e187e77e9aee88184c21f4f2182ab5827cb3b7e07fbedcd63f0330054166040519015158152f35b34610385576020600319360112610385576110bd61107a610389565b73ffffffffffffffffffffffffffffffffffffffff165f527fe8b26c30fad74198956032a3533d903385d56dd795af560196f9c78d4af40d0160205260405f2090565b5463ffffffff908181116110d75760209160405191168152f35b604490604051907f6dfcc650000000000000000000000000000000000000000000000000000000008252602060048301526024820152fd5b346103855760206003193601126103855760206105e061112d610389565b61220f565b346103855760406003193601126103855761041b61114e610389565b6024359061115d823383612729565b6130e0565b346103855760206003193601126103855773ffffffffffffffffffffffffffffffffffffffff611190610389565b165f527f5ab42ced628888259c08ac98db1eb0cf702fc1501344311d8b100cd1bfe4bb00602052602060405f2054604051908152f35b34610385575f600319360112610385576111de612551565b6111e6612f40565b7fcd5ed15c6e187e77e9aee88184c21f4f2182ab5827cb3b7e07fbedcd63f0330060017fffffffffffffffffffffffffffffffffffffffffffffffffffffffffffffff008254161790557f62e78cea01bee320cd4e420270b5ea74000d11b0c9f74754ebdbfc544b05a2586020604051338152a1005b91936112c073ffffffffffffffffffffffffffffffffffffffff92957f0f0000000000000000000000000000000000000000000000000000000000000085526112b260209760e0602088015260e087019061041d565b90858203604087015261041d565b9360608401521660808201525f60a082015260c0818303910152602080845192838152019301915f5b8281106112f7575050505090565b8351855293810193928101926001016112e9565b34610385575f600319360112610385577fa16a46d94261c7517cc8ff89f61c0ce93598e3c849801011dee649a6a557d1005415806113d3575b1561137557611351611f91565b611359612096565b906104ee61136561228a565b604051938493309146918661125c565b60646040517f08c379a000000000000000000000000000000000000000000000000000000000815260206004820152601560248201527f4549503731323a20556e696e697469616c697a656400000000000000000000006044820152fd5b507fa16a46d94261c7517cc8ff89f61c0ce93598e3c849801011dee649a6a557d1015415611344565b346103855760206003193601126103855760043561141943612eac565b9065ffffffffffff91828116821015611542575061143690612eac565b907fe8b26c30fad74198956032a3533d903385d56dd795af560196f9c78d4af40d02918254905f9082600581116114dc575b5061147393506138f8565b90816114a357505060205f5b79ffffffffffffffffffffffffffffffffffffffffffffffffffff60405191168152f35b6114ae602092612f24565b905f527f88c46c62109817164d0ae1873830d4299a82e5daf552a3d8e989b27638fcf748015460301c61147f565b90926114e7826137bf565b82039182116108f75761147394865f5280837f88c46c62109817164d0ae1873830d4299a82e5daf552a3d8e989b27638fcf748015416908516105f146115305750915b5f611468565b92915061153c90612f32565b9061152a565b6040517fecd3f81e000000000000000000000000000000000000000000000000000000008152600481019290925265ffffffffffff166024820152604490fd5b3461038557604060031936011261038557602060ff6115f16115a26103ac565b6004355f527f02dd7bc7dec4dceedda775e58dd541e08a116c6c53815c0bd028192f7b626800845260405f209073ffffffffffffffffffffffffffffffffffffffff165f5260205260405f2090565b54166040519015158152f35b34610385575f60031936011261038557602061161843612eac565b65ffffffffffff60405191168152f35b34610385575f600319360112610385576040515f7f52c63247e1f47db19d5ce0460030c497f067ca4cebf71ba98eeadabe20bace0480549061166982611f40565b8085529160209160019182811690811561054a5750600114611695576104ee866104e281880382610c3b565b5f90815293507f46a2803e59a4de4e7a4c574b1243f25977ac4c77d5a1a4a609b5394cebb4a2aa5b8385106116da575050505081016020016104e2826104ee5f6104d2565b80548686018401529382019381016116bd565b3461038557602060031936011261038557602079ffffffffffffffffffffffffffffffffffffffffffffffffffff61172e61172961107a610389565b613305565b16604051908152f35b34610385575f6003193601126103855760206040515f8152f35b34610385576040600319360112610385576105bb61176d610389565b60243590336128ba565b34610385575f600319360112610385576104ee60405161179681610bfe565b600581527f352e302e30000000000000000000000000000000000000000000000000000000602082015260405191829160208352602083019061041d565b34610385575f60031936011261038557602073ffffffffffffffffffffffffffffffffffffffff5f5416604051908152f35b346103855760606003193601126103855761181f610389565b6118276103ac565b906118306103cf565b7ff0c57e16840df040f15088dc2f81fe391c3923bec73e23a9662efc9c229c6a00549267ffffffffffffffff60ff8560401c16159416801590816119fd575b60011490816119f3575b1590816119ea575b506119c0576118e392846118da7ff0c57e16840df040f15088dc2f81fe391c3923bec73e23a9662efc9c229c6a0060017fffffffffffffffffffffffffffffffffffffffffffffffff0000000000000000825416179055565b611964576122ea565b6118e957005b6119357ff0c57e16840df040f15088dc2f81fe391c3923bec73e23a9662efc9c229c6a007fffffffffffffffffffffffffffffffffffffffffffffff00ffffffffffffffff8154169055565b604051600181527fc7f505b2f371ae2175ee4913f4499e1f2633a7b5936321eed1cdaeb6115181d290602090a1005b6119bb7ff0c57e16840df040f15088dc2f81fe391c3923bec73e23a9662efc9c229c6a00680100000000000000007fffffffffffffffffffffffffffffffffffffffffffffff00ffffffffffffffff825416179055565b6122ea565b60046040517ff92ee8a9000000000000000000000000000000000000000000000000000000008152fd5b9050155f611881565b303b159150611879565b85915061186f565b6064359060ff8216820361038557565b6084359060ff8216820361038557565b346103855760c060031936011261038557611a3e610389565b60443590602435611a4d611a05565b834211611ae357611ad761041b94611ade926040519060208201927fe48329057bfd03d55e49b547132e39cffd9c1820ad7b9d4c5307691425d15adf845273ffffffffffffffffffffffffffffffffffffffff88166040840152866060840152608083015260808252611abf82610c1f565b611ad260a435936084359351902061356a565b6135ab565b91826135c3565b6131f2565b602484604051907f4683af0e0000000000000000000000000000000000000000000000000000000082526004820152fd5b346103855760e060031936011261038557611b2d610389565b611b356103ac565b60443590606435611b44611a15565b814211611cd15790611c18611c5792611c44611ba68873ffffffffffffffffffffffffffffffffffffffff165f527f5ab42ced628888259c08ac98db1eb0cf702fc1501344311d8b100cd1bfe4bb0060205260405f2080549060018201905590565b9360405193849160208301968a8a8d8a91959493909260a09360c08401977f6e71edae12b1b97f4d1f60370fef10105fa2faae0126114a169c64845d6126c9855273ffffffffffffffffffffffffffffffffffffffff8092166020860152166040840152606083015260808201520152565b037fffffffffffffffffffffffffffffffffffffffffffffffffffffffffffffffe08101845283610c3b565b611ad260c4359360a4359351902061356a565b73ffffffffffffffffffffffffffffffffffffffff80851690821603611c81575061041b9261366f565b6040517f4b800e4600000000000000000000000000000000000000000000000000000000815273ffffffffffffffffffffffffffffffffffffffff91821660048201529084166024820152604490fd5b602482604051907f627913020000000000000000000000000000000000000000000000000000000082526004820152fd5b34610385575f6003193601126103855760206040517f9f2df0fed2c77648de5860a4cc508cd0818c85b8b8a1ab4ceeef8d981c8956a68152f35b346103855760406003193601126103855761041b600435611d5b6103ac565b90805f527f02dd7bc7dec4dceedda775e58dd541e08a116c6c53815c0bd028192f7b626800602052611d93600160405f20015461263c565b612db7565b34610385576040600319360112610385576020611e28611db6610389565b611e05611dc16103ac565b9173ffffffffffffffffffffffffffffffffffffffff165f527f52c63247e1f47db19d5ce0460030c497f067ca4cebf71ba98eeadabe20bace0160205260405f2090565b9073ffffffffffffffffffffffffffffffffffffffff165f5260205260405f2090565b54604051908152f35b34610385575f6003193601126103855760206040517f65d7a28e3265b37a6474929f336521b332c1681b933f6cb9f3376673440d862a8152f35b3461038557604060031936011261038557611e84610389565b60243563ffffffff8116810361038557611f04611f0a91611ef6604094611ea96124cb565b50611eb26124cb565b5073ffffffffffffffffffffffffffffffffffffffff165f527fe8b26c30fad74198956032a3533d903385d56dd795af560196f9c78d4af40d0160205260405f2090565b611efe6124cb565b50614498565b506144da565b79ffffffffffffffffffffffffffffffffffffffffffffffffffff602083519265ffffffffffff81511684520151166020820152f35b90600182811c92168015611f87575b6020831014611f5a57565b7f4e487b71000000000000000000000000000000000000000000000000000000005f52602260045260245ffd5b91607f1691611f4f565b604051905f827fa16a46d94261c7517cc8ff89f61c0ce93598e3c849801011dee649a6a557d10291825492611fc584611f40565b808452936020916001918281169081156120515750600114611ff1575b505050610c8992500383610c3b565b5f9081527f42ad5d3e1f2e6e70edcf6d991b8a3023d3fca8047a131592f9edb9fd9b89d57d9590935091905b8284106120395750610c899450505081016020015f8080611fe2565b8554888501830152948501948794509281019261201d565b91505060209350610c899592507fffffffffffffffffffffffffffffffffffffffffffffffffffffffffffffff0091501682840152151560051b8201015f8080611fe2565b604051905f827fa16a46d94261c7517cc8ff89f61c0ce93598e3c849801011dee649a6a557d103918254926120ca84611f40565b8084529360209160019182811690811561205157506001146120f557505050610c8992500383610c3b565b5f9081527f5f9ce34815f8e11431c7bb75a8e6886a91478f7ffc1dbb0a98dc240fddd76b759590935091905b82841061213d5750610c899450505081016020015f8080611fe2565b85548885018301529485019487945092810192612121565b3d1561217f573d9061216682610c8b565b916121746040519384610c3b565b82523d5f602084013e565b606090565b90816020910312610385575190565b5f8073ffffffffffffffffffffffffffffffffffffffff81541660405160208101907f18160ddd000000000000000000000000000000000000000000000000000000008252600481526121e581610bfe565b51915afa6121f1612155565b901561220a578060208061047193518301019101612184565b505f90565b73ffffffffffffffffffffffffffffffffffffffff90815f54166040519260208401927fefd8be6200000000000000000000000000000000000000000000000000000000845216602484015260248352606083019183831067ffffffffffffffff841117610c1a575f93849360405251915afa6121f1612155565b6040516020810181811067ffffffffffffffff821117610c1a576040525f8152905f368137565b604051906122be82610bfe565b600482527f414e4445000000000000000000000000000000000000000000000000000000006020830152565b906122f36122b1565b6122fb6122b1565b90612304613e0a565b61230c613e0a565b805167ffffffffffffffff8111610c1a577f52c63247e1f47db19d5ce0460030c497f067ca4cebf71ba98eeadabe20bace03916123528261234d8554611f40565b613e63565b602090816001601f8511146123f95750936123e293612394846123e8989561239b95610c899c9b995f926123ee575b50505f198260011b9260031b1c19161790565b9055614093565b6123a3613e0a565b6123ab613e0a565b6123bb6123b66122b1565b61332d565b6123c3613e0a565b6123cb613e0a565b6123d3613511565b6123dc83612a90565b50612b9f565b50612cd3565b50612690565b015190505f80612381565b7f52c63247e1f47db19d5ce0460030c497f067ca4cebf71ba98eeadabe20bace035f5291907fffffffffffffffffffffffffffffffffffffffffffffffffffffffffffffffe084167f2ae08a8e29253f69ac5d979a101956ab8f8d9d7ded63fa7a83b16fc47648eab0935f905b8282106124b35750508461239b94610c899b9a98946123e298946123e89b986001951061249b575b505050811b019055614093565b01515f1960f88460031b161c191690555f808061248e565b80600186978294978701518155019601940190612466565b604051906124d882610bfe565b5f6020838281520152565b335f9081527fb7db2dd08fcb62d0c9e08c51941cae53c267786a0b75803fb7960902fc8ef97d602052604090205460ff161561251b57565b60446040517fe2517d3f0000000000000000000000000000000000000000000000000000000081523360048201525f6024820152fd5b335f9081527f75442b0a96088b5456bc4ed01394c96a4feec0f883c9494257d76b96ab1c9b6b602052604090207f65d7a28e3265b37a6474929f336521b332c1681b933f6cb9f3376673440d862a9060ff905b5416156125ae5750565b604490604051907fe2517d3f0000000000000000000000000000000000000000000000000000000082523360048301526024820152fd5b335f9081527f549fe2656c81d2947b3b913f0a53b9ea86c71e049f3a1b8aa23c09a8a05cb8d4602052604090207f9f2df0fed2c77648de5860a4cc508cd0818c85b8b8a1ab4ceeef8d981c8956a69060ff906125a4565b805f527f02dd7bc7dec4dceedda775e58dd541e08a116c6c53815c0bd028192f7b62680060205260ff6125a43360405f209073ffffffffffffffffffffffffffffffffffffffff165f5260205260405f2090565b73ffffffffffffffffffffffffffffffffffffffff8091169081156126ff575f54827fffffffffffffffffffffffff00000000000000000000000000000000000000008216175f55167fcb1c61ab12284716d03905b8774a57d6a5c888015359fce535fe252e639f4aaa5f80a3565b60046040517fed6ca573000000000000000000000000000000000000000000000000000000008152fd5b919061277681611e058573ffffffffffffffffffffffffffffffffffffffff165f527f52c63247e1f47db19d5ce0460030c497f067ca4cebf71ba98eeadabe20bace0160205260405f2090565b545f198103612786575b50505050565b8281106128685773ffffffffffffffffffffffffffffffffffffffff8085161561283857821615612808576127fe92611e0591039373ffffffffffffffffffffffffffffffffffffffff165f527f52c63247e1f47db19d5ce0460030c497f067ca4cebf71ba98eeadabe20bace0160205260405f2090565b555f808080612780565b60246040517f94280d620000000000000000000000000000000000000000000000000000000081525f6004820152fd5b60246040517fe602df050000000000000000000000000000000000000000000000000000000081525f6004820152fd5b9160649273ffffffffffffffffffffffffffffffffffffffff604051937ffb8f41b200000000000000000000000000000000000000000000000000000000855216600484015260248301526044820152fd5b9173ffffffffffffffffffffffffffffffffffffffff91828416928315612a60578116938415612a30577fcd5ed15c6e187e77e9aee88184c21f4f2182ab5827cb3b7e07fbedcd63f033005460ff16612a0657828161295d84612920845f9788976139ef565b6040805173ffffffffffffffffffffffffffffffffffffffff94851660208201908152949092169082015260608101939093528260808101611c18565b8261297c815473ffffffffffffffffffffffffffffffffffffffff1690565b9251925af1612989612155565b90156129c357506040519081527fddf252ad1be2c89b69c2b068fc378daa952ba7f163c4a11628f55a4df523b3ef9080602081015b0390a3565b80519081612a015761093e906040519182917f0f1e618200000000000000000000000000000000000000000000000000000000835260048301610460565b602001fd5b60046040517fd93c0665000000000000000000000000000000000000000000000000000000008152fd5b60246040517fec442f050000000000000000000000000000000000000000000000000000000081525f6004820152fd5b60246040517f96c6fd1e0000000000000000000000000000000000000000000000000000000081525f6004820152fd5b73ffffffffffffffffffffffffffffffffffffffff81165f9081527fb7db2dd08fcb62d0c9e08c51941cae53c267786a0b75803fb7960902fc8ef97d60205260409020547f02dd7bc7dec4dceedda775e58dd541e08a116c6c53815c0bd028192f7b6268009060ff16612b99575f8052602052612b2e8160405f209073ffffffffffffffffffffffffffffffffffffffff165f5260205260405f2090565b60017fffffffffffffffffffffffffffffffffffffffffffffffffffffffffffffff0082541617905573ffffffffffffffffffffffffffffffffffffffff3391165f7f2f8788117e7eff1d82e926ec794901d17c78024a50270940304540a733656f0d8180a4600190565b50505f90565b73ffffffffffffffffffffffffffffffffffffffff81165f9081527f549fe2656c81d2947b3b913f0a53b9ea86c71e049f3a1b8aa23c09a8a05cb8d4602052604090207f9f2df0fed2c77648de5860a4cc508cd0818c85b8b8a1ab4ceeef8d981c8956a6907f02dd7bc7dec4dceedda775e58dd541e08a116c6c53815c0bd028192f7b6268009060ff905b5416612ccc57815f52602052612c618260405f209073ffffffffffffffffffffffffffffffffffffffff165f5260205260405f2090565b60017fffffffffffffffffffffffffffffffffffffffffffffffffffffffffffffff0082541617905573ffffffffffffffffffffffffffffffffffffffff339216907f2f8788117e7eff1d82e926ec794901d17c78024a50270940304540a733656f0d5f80a4600190565b5050505f90565b73ffffffffffffffffffffffffffffffffffffffff81165f9081527f75442b0a96088b5456bc4ed01394c96a4feec0f883c9494257d76b96ab1c9b6b602052604090207f65d7a28e3265b37a6474929f336521b332c1681b933f6cb9f3376673440d862a907f02dd7bc7dec4dceedda775e58dd541e08a116c6c53815c0bd028192f7b6268009060ff90612c2a565b805f527f02dd7bc7dec4dceedda775e58dd541e08a116c6c53815c0bd028192f7b6268008060205260ff612c2a8460405f209073ffffffffffffffffffffffffffffffffffffffff165f5260205260405f2090565b805f527f02dd7bc7dec4dceedda775e58dd541e08a116c6c53815c0bd028192f7b6268008060205260ff612e0c8460405f209073ffffffffffffffffffffffffffffffffffffffff165f5260205260405f2090565b541615612ccc57815f52602052612e448260405f209073ffffffffffffffffffffffffffffffffffffffff165f5260205260405f2090565b7fffffffffffffffffffffffffffffffffffffffffffffffffffffffffffffff00815416905573ffffffffffffffffffffffffffffffffffffffff339216907ff6391f5c32d9c69d2a47ea670b442974b53935d1edc7fd64eb21e047a839171b5f80a4600190565b65ffffffffffff90818111612ebf571690565b604490604051907f6dfcc650000000000000000000000000000000000000000000000000000000008252603060048301526024820152fd5b7f4e487b71000000000000000000000000000000000000000000000000000000005f52601160045260245ffd5b905f1982019182116108f757565b90600182018092116108f757565b60ff7fcd5ed15c6e187e77e9aee88184c21f4f2182ab5827cb3b7e07fbedcd63f033005416612a0657565b9060ff7fcd5ed15c6e187e77e9aee88184c21f4f2182ab5827cb3b7e07fbedcd63f033005416612a0657612f9e816145bf565b91612fa843612eac565b79ffffffffffffffffffffffffffffffffffffffffffffffffffff938480612fce6132a1565b169116018481116108f757612fe29161485b565b505073ffffffffffffffffffffffffffffffffffffffff809116928315613075575b5060208261306c5f947fddf252ad1be2c89b69c2b068fc378daa952ba7f163c4a11628f55a4df523b3ef948680527fe8b26c30fad74198956032a3533d903385d56dd795af560196f9c78d4af40d008552806040882054169088885260408820541690613c27565b604051908152a3565b9061307f836145bf565b9261308943612eac565b9383806130946132a1565b16911690039283116108f75761306c816020936130d37fddf252ad1be2c89b69c2b068fc378daa952ba7f163c4a11628f55a4df523b3ef965f9861485b565b5050945050509250613004565b73ffffffffffffffffffffffffffffffffffffffff809116908115612a605760ff7fcd5ed15c6e187e77e9aee88184c21f4f2182ab5827cb3b7e07fbedcd63f033005416612a0657613131836145bf565b9061313b43612eac565b9379ffffffffffffffffffffffffffffffffffffffffffffffffffff9283806131626132a1565b16911690039283116108f7576131e2816129be936131a27fddf252ad1be2c89b69c2b068fc378daa952ba7f163c4a11628f55a4df523b3ef965f9961485b565b50508688527fe8b26c30fad74198956032a3533d903385d56dd795af560196f9c78d4af40d00602052806040892054169088805260408920541690613c27565b6040519081529081906020820190565b610c899161329b73ffffffffffffffffffffffffffffffffffffffff927fffffffffffffffffffffffff000000000000000000000000000000000000000084821694855f527fe8b26c30fad74198956032a3533d903385d56dd795af560196f9c78d4af40d0060205260405f20958654968288169788938816948591161790557f3134e8a2e6d97e929a7e54011ea5485d7d196dd5f0ba4d4ef95803e8e3fc257f5f80a461220f565b91613c27565b7fe8b26c30fad74198956032a3533d903385d56dd795af560196f9c78d4af40d028054806132cf5750505f90565b805f198101116108f7577f88c46c62109817164d0ae1873830d4299a82e5daf552a3d8e989b27638fcf747915f52015460301c90565b8054806133125750505f90565b5f199181838101116108f7575f5260205f2001015460301c90565b90613336613e0a565b60405161334281610bfe565b60018082526020907f31000000000000000000000000000000000000000000000000000000000000006020840152613378613e0a565b84519067ffffffffffffffff8211610c1a577fa16a46d94261c7517cc8ff89f61c0ce93598e3c849801011dee649a6a557d102926133bf836133ba8654611f40565b613eef565b602091601f841160011461344a57505090806133f3926133fa96975f926123ee5750505f198260011b9260031b1c19161790565b90556141d0565b6134225f7fa16a46d94261c7517cc8ff89f61c0ce93598e3c849801011dee649a6a557d10055565b610c895f7fa16a46d94261c7517cc8ff89f61c0ce93598e3c849801011dee649a6a557d10155565b7fa16a46d94261c7517cc8ff89f61c0ce93598e3c849801011dee649a6a557d1025f9081527fffffffffffffffffffffffffffffffffffffffffffffffffffffffffffffffe08516987f42ad5d3e1f2e6e70edcf6d991b8a3023d3fca8047a131592f9edb9fd9b89d57d949390925b8a83106134fa57505050908392916001946133fa9899106134e2575b505050811b0190556141d0565b01515f1960f88460031b161c191690555f80806134d5565b8385015186559485019493810193918101916134b9565b613519613e0a565b613521613e0a565b7fcd5ed15c6e187e77e9aee88184c21f4f2182ab5827cb3b7e07fbedcd63f033007fffffffffffffffffffffffffffffffffffffffffffffffffffffffffffffff008154169055565b604290613575613712565b90604051917f19010000000000000000000000000000000000000000000000000000000000008352600283015260228201522090565b9161047193916135ba936142f0565b909291926143c1565b6136138173ffffffffffffffffffffffffffffffffffffffff165f527f5ab42ced628888259c08ac98db1eb0cf702fc1501344311d8b100cd1bfe4bb0060205260405f2080549060018201905590565b80920361361e575050565b6040517f752d88c000000000000000000000000000000000000000000000000000000000815273ffffffffffffffffffffffffffffffffffffffff9190911660048201526024810191909152604490fd5b9073ffffffffffffffffffffffffffffffffffffffff9182811692831561283857821693841561280857806137087f8c5be1e5ebec7d5bd14f71427d1e84f3dd0314c0f7b2291e5b200ac8c7c3b92594611e0560209573ffffffffffffffffffffffffffffffffffffffff165f527f52c63247e1f47db19d5ce0460030c497f067ca4cebf71ba98eeadabe20bace0160205260405f2090565b55604051908152a3565b61371a6144fe565b613722614568565b6040519060208201927f8b73c3c69bb8fe3d512ecc4cf759cc79239f7b179b0ffacaa9a75d522b39400f8452604083015260608201524660808201523060a082015260a0815260c0810181811067ffffffffffffffff821117610c1a5760405251902090565b8115613792570490565b7f4e487b71000000000000000000000000000000000000000000000000000000005f52601260045260245ffd5b801561220a578061389161388a61388061387661386c61386261385861384e60016104719a5f908b60801c806138ec575b508060401c806138df575b508060201c806138d2575b508060101c806138c5575b508060081c806138b8575b508060041c806138ab575b508060021c8061389e575b50821c613897575b811c1b613847818b613788565b0160011c90565b613847818a613788565b6138478189613788565b6138478188613788565b6138478187613788565b6138478186613788565b6138478185613788565b8092613788565b906145ad565b810161383a565b600291509101905f613832565b600491509101905f613827565b600891509101905f61381c565b601091509101905f613811565b602091509101905f613806565b604091509101905f6137fb565b9150506080905f6137f0565b905b82811061390657505090565b90918082169080831860011c82018092116108f7577fe8b26c30fad74198956032a3533d903385d56dd795af560196f9c78d4af40d025f5265ffffffffffff80837f88c46c62109817164d0ae1873830d4299a82e5daf552a3d8e989b27638fcf748015416908516105f1461397e5750915b906138fa565b92915061398a90612f32565b90613978565b91905b8382106139a05750505090565b9091928083169080841860011c82018092116108f757845f5265ffffffffffff808360205f20015416908416105f146139dd5750925b9190613993565b9392506139e990612f32565b916139d6565b73ffffffffffffffffffffffffffffffffffffffff908116929181908415613ab6575b16908115613a5b575b610c89935f527fe8b26c30fad74198956032a3533d903385d56dd795af560196f9c78d4af40d006020528060405f205416915f5260405f20541690613c27565b613a64836145bf565b93613a6e43612eac565b79ffffffffffffffffffffffffffffffffffffffffffffffffffff958680613a946132a1565b16911690039586116108f757610c8995613aad9161485b565b50509350613a1b565b9050613ac1836145bf565b90613acb43612eac565b79ffffffffffffffffffffffffffffffffffffffffffffffffffff928380613af16132a1565b169116019283116108f7578392613b079161485b565b5050613a12565b90813b15613be05773ffffffffffffffffffffffffffffffffffffffff82167f360894a13ba1a3210667c828492db98dca3e2076cc3735a920a3ca505d382bbc817fffffffffffffffffffffffff00000000000000000000000000000000000000008254161790557fbc7cd75a20ee27fd9adebab32041f755214dbc6bffa90cc0225b39da2e5c2d3b5f80a2805115613bad57613baa91614667565b50565b505034613bb657565b60046040517fb398979f000000000000000000000000000000000000000000000000000000008152fd5b60248273ffffffffffffffffffffffffffffffffffffffff604051917f4c9c8ce3000000000000000000000000000000000000000000000000000000008352166004820152fd5b919073ffffffffffffffffffffffffffffffffffffffff92838216938116908482141580613e01575b613c5c575b5050505050565b81613d22575b505082613c71575b8080613c55565b7fdec2bacdd2f05b59de34da9b523dff8be42e5e38e818c82fdb0bae774387a72491613ce6613ce0613cec9373ffffffffffffffffffffffffffffffffffffffff165f527fe8b26c30fad74198956032a3533d903385d56dd795af560196f9c78d4af40d0160205260405f2090565b916145bf565b9061461e565b6040805179ffffffffffffffffffffffffffffffffffffffffffffffffffff9384168152919092166020820152a25f8080613c6a565b613d699073ffffffffffffffffffffffffffffffffffffffff165f527fe8b26c30fad74198956032a3533d903385d56dd795af560196f9c78d4af40d0160205260405f2090565b613d72846145bf565b613d7b43612eac565b79ffffffffffffffffffffffffffffffffffffffffffffffffffff918280613da286613305565b1691169003928284116108f7577fdec2bacdd2f05b59de34da9b523dff8be42e5e38e818c82fdb0bae774387a72493613df792613dde92614a40565b6040805192851683529316602082015291829190820190565b0390a25f80613c62565b50831515613c50565b60ff7ff0c57e16840df040f15088dc2f81fe391c3923bec73e23a9662efc9c229c6a005460401c1615613e3957565b60046040517fd7e6bcf8000000000000000000000000000000000000000000000000000000008152fd5b601f8111613e6f575050565b7f52c63247e1f47db19d5ce0460030c497f067ca4cebf71ba98eeadabe20bace035f527f2ae08a8e29253f69ac5d979a101956ab8f8d9d7ded63fa7a83b16fc47648eab0906020601f840160051c83019310613ee5575b601f0160051c01905b818110613eda575050565b5f8155600101613ecf565b9091508190613ec6565b601f8111613efb575050565b7fa16a46d94261c7517cc8ff89f61c0ce93598e3c849801011dee649a6a557d1025f527f42ad5d3e1f2e6e70edcf6d991b8a3023d3fca8047a131592f9edb9fd9b89d57d906020601f840160051c83019310613f71575b601f0160051c01905b818110613f66575050565b5f8155600101613f5b565b9091508190613f52565b601f8111613f87575050565b7f52c63247e1f47db19d5ce0460030c497f067ca4cebf71ba98eeadabe20bace045f527f46a2803e59a4de4e7a4c574b1243f25977ac4c77d5a1a4a609b5394cebb4a2aa906020601f840160051c83019310613ffd575b601f0160051c01905b818110613ff2575050565b5f8155600101613fe7565b9091508190613fde565b601f8111614013575050565b7fa16a46d94261c7517cc8ff89f61c0ce93598e3c849801011dee649a6a557d1035f527f5f9ce34815f8e11431c7bb75a8e6886a91478f7ffc1dbb0a98dc240fddd76b75906020601f840160051c83019310614089575b601f0160051c01905b81811061407e575050565b5f8155600101614073565b909150819061406a565b90815167ffffffffffffffff8111610c1a577f52c63247e1f47db19d5ce0460030c497f067ca4cebf71ba98eeadabe20bace04906140da816140d58454611f40565b613f7b565b602080601f831160011461410e5750819061410a9394955f926123ee5750505f198260011b9260031b1c19161790565b9055565b907fffffffffffffffffffffffffffffffffffffffffffffffffffffffffffffffe083169561417d7f52c63247e1f47db19d5ce0460030c497f067ca4cebf71ba98eeadabe20bace045f527f46a2803e59a4de4e7a4c574b1243f25977ac4c77d5a1a4a609b5394cebb4a2aa90565b925f905b8882106141b8575050836001959697106141a0575b505050811b019055565b01515f1960f88460031b161c191690555f8080614196565b80600185968294968601518155019501930190614181565b90815167ffffffffffffffff8111610c1a577fa16a46d94261c7517cc8ff89f61c0ce93598e3c849801011dee649a6a557d10390614217816142128454611f40565b614007565b602080601f83116001146142475750819061410a9394955f926123ee5750505f198260011b9260031b1c19161790565b907fffffffffffffffffffffffffffffffffffffffffffffffffffffffffffffffe08316956142b67fa16a46d94261c7517cc8ff89f61c0ce93598e3c849801011dee649a6a557d1035f527f5f9ce34815f8e11431c7bb75a8e6886a91478f7ffc1dbb0a98dc240fddd76b7590565b925f905b8882106142d8575050836001959697106141a057505050811b019055565b806001859682949686015181550195019301906142ba565b91907f7fffffffffffffffffffffffffffffff5d576e7357a4501ddfe92f46681b20a0841161437f579160209360809260ff5f9560405194855216868401526040830152606082015282805260015afa15614374575f5173ffffffffffffffffffffffffffffffffffffffff81161561436a57905f905f90565b505f906001905f90565b6040513d5f823e3d90fd5b5050505f9160039190565b6004111561439457565b7f4e487b71000000000000000000000000000000000000000000000000000000005f52602160045260245ffd5b6143ca8161438a565b806143d3575050565b6143dc8161438a565b6001810361440e5760046040517ff645eedf000000000000000000000000000000000000000000000000000000008152fd5b6144178161438a565b60028103614451576040517ffce698f700000000000000000000000000000000000000000000000000000000815260048101839052602490fd5b8061445d60039261438a565b146144655750565b6040517fd78bce0c0000000000000000000000000000000000000000000000000000000081526004810191909152602490fd5b80548210156144ad575f5260205f2001905f90565b7f4e487b71000000000000000000000000000000000000000000000000000000005f52603260045260245ffd5b906040516144e781610bfe565b915465ffffffffffff8116835260301c6020830152565b614506611f91565b8051908115614516576020012090565b50507fa16a46d94261c7517cc8ff89f61c0ce93598e3c849801011dee649a6a557d1005480156145435790565b507fc5d2460186f7233c927e7db2dcc703c0e500b653ca82273b7bfad8045d85a47090565b614570612096565b8051908115614580576020012090565b50507fa16a46d94261c7517cc8ff89f61c0ce93598e3c849801011dee649a6a557d1015480156145435790565b90808210156145ba575090565b905090565b79ffffffffffffffffffffffffffffffffffffffffffffffffffff908181116145e6571690565b604490604051907f6dfcc65000000000000000000000000000000000000000000000000000000000825260d060048301526024820152fd5b9061462843612eac565b79ffffffffffffffffffffffffffffffffffffffffffffffffffff91828061464f86613305565b169116019182116108f75761466392614a40565b9091565b5f8061047193602081519101845af461467e612155565b91906146be575080511561469457805190602001fd5b60046040517f1425ea42000000000000000000000000000000000000000000000000000000008152fd5b81511580614716575b6146cf575090565b60249073ffffffffffffffffffffffffffffffffffffffff604051917f9996b315000000000000000000000000000000000000000000000000000000008352166004820152fd5b50803b156146c7565b7fe8b26c30fad74198956032a3533d903385d56dd795af560196f9c78d4af40d0290815468010000000000000000811015610c1a57600181018084558110156144ad575f9290925280516020919091015160301b7fffffffffffffffffffffffffffffffffffffffffffffffffffff0000000000001665ffffffffffff91909116177f88c46c62109817164d0ae1873830d4299a82e5daf552a3d8e989b27638fcf74890910155565b805468010000000000000000811015610c1a576147ea91600182018155614498565b61482f5781516020929092015160301b7fffffffffffffffffffffffffffffffffffffffffffffffffffff0000000000001665ffffffffffff92909216919091179055565b7f4e487b71000000000000000000000000000000000000000000000000000000005f525f60045260245ffd5b7fe8b26c30fad74198956032a3533d903385d56dd795af560196f9c78d4af40d0254919291908115614a04576148e36148de61489684612f24565b7fe8b26c30fad74198956032a3533d903385d56dd795af560196f9c78d4af40d025f527f88c46c62109817164d0ae1873830d4299a82e5daf552a3d8e989b27638fcf7480190565b6144da565b805165ffffffffffff83811694911684106149da578560209361498b9561491e614913865165ffffffffffff1690565b65ffffffffffff1690565b0361498f575061493361489661496a93612f24565b9065ffffffffffff7fffffffffffffffffffffffffffffffffffffffffffffffffffff00000000000083549260301b169116179055565b015179ffffffffffffffffffffffffffffffffffffffffffffffffffff1690565b9190565b90506149d591506149af6149a1610c7c565b65ffffffffffff9092168252565b79ffffffffffffffffffffffffffffffffffffffffffffffffffff87168185015261471f565b61496a565b60046040517f2520601d000000000000000000000000000000000000000000000000000000008152fd5b614a3b9150614a146149a1610c7c565b79ffffffffffffffffffffffffffffffffffffffffffffffffffff8416602082015261471f565b5f9190565b805492939291908215614b0d57614a676148de614a5c85612f24565b835f5260205f200190565b90614a78825165ffffffffffff1690565b65ffffffffffff848116911681106149da5761498b946020948892614aa6614913875165ffffffffffff1690565b03614ac7575061496a92614abc61493392612f24565b905f5260205f200190565b9150506149d591614ae7614ad9610c7c565b65ffffffffffff9093168352565b79ffffffffffffffffffffffffffffffffffffffffffffffffffff8816828601526147c8565b614a3b9250614b1d614ad9610c7c565b79ffffffffffffffffffffffffffffffffffffffffffffffffffff851660208301526147c856fea26469706673582212205656b2d0949b5164a9cc3c377a43470dea157ffa674b188f3308efbac59b65ad64736f6c63430008190033","linkReferences":{}},"methodIdentifiers":{"BURNER_ROLE()":"282c51f3","CLOCK_MODE()":"4bf5d7e9","DEFAULT_ADMIN_ROLE()":"a217fddf","DOMAIN_SEPARATOR()":"3644e515","MINTER_ROLE()":"d5391393","PAUSER_ROLE()":"e63ab1e9","UPGRADE_INTERFACE_VERSION()":"ad3cb1cc","allowance(address,address)":"dd62ed3e","approve(address,uint256)":"095ea7b3","balanceOf(address)":"70a08231","burn(uint256)":"42966c68","burnFrom(address,uint256)":"79cc6790","checkpoints(address,uint32)":"f1127ed8","clock()":"91ddadf4","decimals()":"313ce567","delegate(address)":"5c19a95c","delegateBySig(address,uint256,uint256,uint8,bytes32,bytes32)":"c3cda520","delegates(address)":"587cde1e","eip712Domain()":"84b0196e","getPastTotalSupply(uint256)":"8e539e8c","getPastVotes(address,uint256)":"3a46b1a8","getRoleAdmin(bytes32)":"248a9ca3","getVotes(address)":"9ab24eb0","grantRole(bytes32,address)":"2f2ff15d","hasRole(bytes32,address)":"91d14854","initialize(address,address,address)":"c0c53b8b","mint(address,uint256)":"40c10f19","name()":"06fdde03","nonces(address)":"7ecebe00","numCheckpoints(address)":"6fcfff45","pause()":"8456cb59","paused()":"5c975abb","permit(address,address,uint256,uint256,uint8,bytes32,bytes32)":"d505accf","precompileAddress()":"be47b676","proxiableUUID()":"52d1902d","renounceRole(bytes32,address)":"36568abe","revokeRole(bytes32,address)":"d547741f","setPrecompileAddress(address)":"05d92ddc","supportsInterface(bytes4)":"01ffc9a7","symbol()":"95d89b41","totalSupply()":"18160ddd","transfer(address,uint256)":"a9059cbb","transferFrom(address,address,uint256)":"23b872dd","unpause()":"3f4ba83a","upgradeToAndCall(address,bytes)":"4f1ef286"},"id":98}