{"abi":[{"type":"constructor","inputs":[],"stateMutability":"nonpayable"},{"type":"function","name":"BURNER_ROLE","inputs":[],"outputs":[{"name":"","type":"bytes32","internalType":"bytes32"}],"stateMutability":"view"},{"type":"function","name":"CLOCK_MODE","inputs":[],"outputs":[{"name":"","type":"string","internalType":"string"}],"stateMutability":"view"},{"type":"function","name":"DEFAULT_ADMIN_ROLE","inputs":[],"outputs":[{"name":"","type":"bytes32","internalType":"bytes32"}],"stateMutability":"view"},{"type":"function","name":"DOMAIN_SEPARATOR","inputs":[],"outputs":[{"name":"","type":"bytes32","internalType":"bytes32"}],"stateMutability":"view"},{"type":"function","name":"MINTER_ROLE","inputs":[],"outputs":[{"name":"","type":"bytes32","internalType":"bytes32"}],"stateMutability":"view"},{"type":"function","name":"PAUSER_ROLE","inputs":[],"outputs":[{"name":"","type":"bytes32","internalType":"bytes32"}],"stateMutability":"view"},{"type":"function","name":"UPGRADE_INTERFACE_VERSION","inputs":[],"outputs":[{"name":"","type":"string","internalType":"string"}],"stateMutability":"view"},{"type":"function","name":"allowance","inputs":[{"name":"owner","type":"address","internalType":"address"},{"name":"spender","type":"address","internalType":"address"}],"outputs":[{"name":"","type":"uint256","internalType":"uint256"}],"stateMutability":"view"},{"type":"function","name":"approve","inputs":[{"name":"spender","type":"address","internalType":"address"},{"name":"value","type":"uint256","internalType":"uint256"}],"outputs":[{"name":"","type":"bool","internalType":"bool"}],"stateMutability":"nonpayable"},{"type":"function","name":"balanceOf","inputs":[{"name":"account","type":"address","internalType":"address"}],"outputs":[{"name":"","type":"uint256","internalType":"uint256"}],"stateMutability":"view"},{"type":"function","name":"burn","inputs":[{"name":"value","type":"uint256","internalType":"uint256"}],"outputs":[],"stateMutability":"nonpayable"},{"type":"function","name":"burnFrom","inputs":[{"name":"account","type":"address","internalType":"address"},{"name":"value","type":"uint256","internalType":"uint256"}],"outputs":[],"stateMutability":"nonpayable"},{"type":"function","name":"checkpoints","inputs":[{"name":"account","type":"address","internalType":"address"},{"name":"pos","type":"uint32","internalType":"uint32"}],"outputs":[{"name":"","type":"tuple","internalType":"struct Checkpoints.Checkpoint208","components":[{"name":"_key","type":"uint48","internalType":"uint48"},{"name":"_value","type":"uint208","internalType":"uint208"}]}],"stateMutability":"view"},{"type":"function","name":"clock","inputs":[],"outputs":[{"name":"","type":"uint48","internalType":"uint48"}],"stateMutability":"view"},{"type":"function","name":"decimals","inputs":[],"outputs":[{"name":"","type":"uint8","internalType":"uint8"}],"stateMutability":"view"},{"type":"function","name":"delegate","inputs":[{"name":"delegatee","type":"address","internalType":"address"}],"outputs":[],"stateMutability":"nonpayable"},{"type":"function","name":"delegateBySig","inputs":[{"name":"delegatee","type":"address","internalType":"address"},{"name":"nonce","type":"uint256","internalType":"uint256"},{"name":"expiry","type":"uint256","internalType":"uint256"},{"name":"v","type":"uint8","internalType":"uint8"},{"name":"r","type":"bytes32","internalType":"bytes32"},{"name":"s","type":"bytes32","internalType":"bytes32"}],"outputs":[],"stateMutability":"nonpayable"},{"type":"function","name":"delegates","inputs":[{"name":"account","type":"address","internalType":"address"}],"outputs":[{"name":"","type":"address","internalType":"address"}],"stateMutability":"view"},{"type":"function","name":"eip712Domain","inputs":[],"outputs":[{"name":"fields","type":"bytes1","internalType":"bytes1"},{"name":"name","type":"string","internalType":"string"},{"name":"version","type":"string","internalType":"string"},{"name":"chainId","type":"uint256","internalType":"uint256"},{"name":"verifyingContract","type":"address","internalType":"address"},{"name":"salt","type":"bytes32","internalType":"bytes32"},{"name":"extensions","type":"uint256[]","internalType":"uint256[]"}],"stateMutability":"view"},{"type":"function","name":"getPastTotalSupply","inputs":[{"name":"timepoint","type":"uint256","internalType":"uint256"}],"outputs":[{"name":"","type":"uint256","internalType":"uint256"}],"stateMutability":"view"},{"type":"function","name":"getPastVotes","inputs":[{"name":"account","type":"address","internalType":"address"},{"name":"timepoint","type":"uint256","internalType":"uint256"}],"outputs":[{"name":"","type":"uint256","internalType":"uint256"}],"stateMutability":"view"},{"type":"function","name":"getRoleAdmin","inputs":[{"name":"role","type":"bytes32","internalType":"bytes32"}],"outputs":[{"name":"","type":"bytes32","internalType":"bytes32"}],"stateMutability":"view"},{"type":"function","name":"getVotes","inputs":[{"name":"account","type":"address","internalType":"address"}],"outputs":[{"name":"","type":"uint256","internalType":"uint256"}],"stateMutability":"view"},{"type":"function","name":"grantRole","inputs":[{"name":"role","type":"bytes32","internalType":"bytes32"},{"name":"account","type":"address","internalType":"address"}],"outputs":[],"stateMutability":"nonpayable"},{"type":"function","name":"hasRole","inputs":[{"name":"role","type":"bytes32","internalType":"bytes32"},{"name":"account","type":"address","internalType":"address"}],"outputs":[{"name":"","type":"bool","internalType":"bool"}],"stateMutability":"view"},{"type":"function","name":"initialize","inputs":[{"name":"defaultAdmin","type":"address","internalType":"address"},{"name":"minter","type":"address","internalType":"address"},{"name":"precompile","type":"address","internalType":"address"}],"outputs":[],"stateMutability":"nonpayable"},{"type":"function","name":"mint","inputs":[{"name":"to","type":"address","internalType":"address"},{"name":"amount","type":"uint256","internalType":"uint256"}],"outputs":[],"stateMutability":"nonpayable"},{"type":"function","name":"name","inputs":[],"outputs":[{"name":"","type":"string","internalType":"string"}],"stateMutability":"view"},{"type":"function","name":"nonces","inputs":[{"name":"owner","type":"address","internalType":"address"}],"outputs":[{"name":"","type":"uint256","internalType":"uint256"}],"stateMutability":"view"},{"type":"function","name":"numCheckpoints","inputs":[{"name":"account","type":"address","internalType":"address"}],"outputs":[{"name":"","type":"uint32","internalType":"uint32"}],"stateMutability":"view"},{"type":"function","name":"pause","inputs":[],"outputs":[],"stateMutability":"nonpayable"},{"type":"function","name":"paused","inputs":[],"outputs":[{"name":"","type":"bool","internalType":"bool"}],"stateMutability":"view"},{"type":"function","name":"permit","inputs":[{"name":"owner","type":"address","internalType":"address"},{"name":"spender","type":"address","internalType":"address"},{"name":"value","type":"uint256","internalType":"uint256"},{"name":"deadline","type":"uint256","internalType":"uint256"},{"name":"v","type":"uint8","internalType":"uint8"},{"name":"r","type":"bytes32","internalType":"bytes32"},{"name":"s","type":"bytes32","internalType":"bytes32"}],"outputs":[],"stateMutability":"nonpayable"},{"type":"function","name":"precompileAddress","inputs":[],"outputs":[{"name":"","type":"address","internalType":"address"}],"stateMutability":"view"},{"type":"function","name":"proxiableUUID","inputs":[],"outputs":[{"name":"","type":"bytes32","internalType":"bytes32"}],"stateMutability":"view"},{"type":"function","name":"renounceRole","inputs":[{"name":"role","type":"bytes32","internalType":"bytes32"},{"name":"callerConfirmation","type":"address","internalType":"address"}],"outputs":[],"stateMutability":"nonpayable"},{"type":"function","name":"revokeRole","inputs":[{"name":"role","type":"bytes32","internalType":"bytes32"},{"name":"account","type":"address","internalType":"address"}],"outputs":[],"stateMutability":"nonpayable"},{"type":"function","name":"setPrecompileAddress","inputs":[{"name":"newPrecompileAddress","type":"address","internalType":"address"}],"outputs":[],"stateMutability":"nonpayable"},{"type":"function","name":"supportsInterface","inputs":[{"name":"interfaceId","type":"bytes4","internalType":"bytes4"}],"outputs":[{"name":"","type":"bool","internalType":"bool"}],"stateMutability":"view"},{"type":"function","name":"symbol","inputs":[],"outputs":[{"name":"","type":"string","internalType":"string"}],"stateMutability":"view"},{"type":"function","name":"totalSupply","inputs":[],"outputs":[{"name":"","type":"uint256","internalType":"uint256"}],"stateMutability":"view"},{"type":"function","name":"transfer","inputs":[{"name":"to","type":"address","internalType":"address"},{"name":"value","type":"uint256","internalType":"uint256"}],"outputs":[{"name":"","type":"bool","internalType":"bool"}],"stateMutability":"nonpayable"},{"type":"function","name":"transferFrom","inputs":[{"name":"from","type":"address","internalType":"address"},{"name":"to","type":"address","internalType":"address"},{"name":"value","type":"uint256","internalType":"uint256"}],"outputs":[{"name":"","type":"bool","internalType":"bool"}],"stateMutability":"nonpayable"},{"type":"function","name":"unpause","inputs":[],"outputs":[],"stateMutability":"nonpayable"},{"type":"function","name":"upgradeToAndCall","inputs":[{"name":"newImplementation","type":"address","internalType":"address"},{"name":"data","type":"bytes","internalType":"bytes"}],"outputs":[],"stateMutability":"payable"},{"type":"event","name":"Approval","inputs":[{"name":"owner","type":"address","indexed":true,"internalType":"address"},{"name":"spender","type":"address","indexed":true,"internalType":"address"},{"name":"value","type":"uint256","indexed":false,"internalType":"uint256"}],"anonymous":false},{"type":"event","name":"DelegateChanged","inputs":[{"name":"delegator","type":"address","indexed":true,"internalType":"address"},{"name":"fromDelegate","type":"address","indexed":true,"internalType":"address"},{"name":"toDelegate","type":"address","indexed":true,"internalType":"address"}],"anonymous":false},{"type":"event","name":"DelegateVotesChanged","inputs":[{"name":"delegate","type":"address","indexed":true,"internalType":"address"},{"name":"previousVotes","type":"uint256","indexed":false,"internalType":"uint256"},{"name":"newVotes","type":"uint256","indexed":false,"internalType":"uint256"}],"anonymous":false},{"type":"event","name":"EIP712DomainChanged","inputs":[],"anonymous":false},{"type":"event","name":"Initialized","inputs":[{"name":"version","type":"uint64","indexed":false,"internalType":"uint64"}],"anonymous":false},{"type":"event","name":"Paused","inputs":[{"name":"account","type":"address","indexed":false,"internalType":"address"}],"anonymous":false},{"type":"event","name":"PrecompileAddressUpdated","inputs":[{"name":"oldAddress","type":"address","indexed":true,"internalType":"address"},{"name":"newAddress","type":"address","indexed":true,"internalType":"address"}],"anonymous":false},{"type":"event","name":"RoleAdminChanged","inputs":[{"name":"role","type":"bytes32","indexed":true,"internalType":"bytes32"},{"name":"previousAdminRole","type":"bytes32","indexed":true,"internalType":"bytes32"},{"name":"newAdminRole","type":"bytes32","indexed":true,"internalType":"bytes32"}],"anonymous":false},{"type":"event","name":"RoleGranted","inputs":[{"name":"role","type":"bytes32","indexed":true,"internalType":"bytes32"},{"name":"account","type":"address","indexed":true,"internalType":"address"},{"name":"sender","type":"address","indexed":true,"internalType":"address"}],"anonymous":false},{"type":"event","name":"RoleRevoked","inputs":[{"name":"role","type":"bytes32","indexed":true,"internalType":"bytes32"},{"name":"account","type":"address","indexed":true,"internalType":"address"},{"name":"sender","type":"address","indexed":true,"internalType":"address"}],"anonymous":false},{"type":"event","name":"Transfer","inputs":[{"name":"from","type":"address","indexed":true,"internalType":"address"},{"name":"to","type":"address","indexed":true,"internalType":"address"},{"name":"value","type":"uint256","indexed":false,"internalType":"uint256"}],"anonymous":false},{"type":"event","name":"Unpaused","inputs":[{"name":"account","type":"address","indexed":false,"internalType":"address"}],"anonymous":false},{"type":"event","name":"Upgraded","inputs":[{"name":"implementation","type":"address","indexed":true,"internalType":"address"}],"anonymous":false},{"type":"error","name":"AccessControlBadConfirmation","inputs":[]},{"type":"error","name":"AccessControlUnauthorizedAccount","inputs":[{"name":"account","type":"address","internalType":"address"},{"name":"neededRole","type":"bytes32","internalType":"bytes32"}]},{"type":"error","name":"AddressEmptyCode","inputs":[{"name":"target","type":"address","internalType":"address"}]},{"type":"error","name":"CheckpointUnorderedInsertion","inputs":[]},{"type":"error","name":"ECDSAInvalidSignature","inputs":[]},{"type":"error","name":"ECDSAInvalidSignatureLength","inputs":[{"name":"length","type":"uint256","internalType":"uint256"}]},{"type":"error","name":"ECDSAInvalidSignatureS","inputs":[{"name":"s","type":"bytes32","internalType":"bytes32"}]},{"type":"error","name":"ERC1967InvalidImplementation","inputs":[{"name":"implementation","type":"address","internalType":"address"}]},{"type":"error","name":"ERC1967NonPayable","inputs":[]},{"type":"error","name":"ERC20ExceededSafeSupply","inputs":[{"name":"increasedSupply","type":"uint256","internalType":"uint256"},{"name":"cap","type":"uint256","internalType":"uint256"}]},{"type":"error","name":"ERC20InsufficientAllowance","inputs":[{"name":"spender","type":"address","internalType":"address"},{"name":"allowance","type":"uint256","internalType":"uint256"},{"name":"needed","type":"uint256","internalType":"uint256"}]},{"type":"error","name":"ERC20InsufficientBalance","inputs":[{"name":"sender","type":"address","internalType":"address"},{"name":"balance","type":"uint256","internalType":"uint256"},{"name":"needed","type":"uint256","internalType":"uint256"}]},{"type":"error","name":"ERC20InvalidApprover","inputs":[{"name":"approver","type":"address","internalType":"address"}]},{"type":"error","name":"ERC20InvalidReceiver","inputs":[{"name":"receiver","type":"address","internalType":"address"}]},{"type":"error","name":"ERC20InvalidSender","inputs":[{"name":"sender","type":"address","internalType":"address"}]},{"type":"error","name":"ERC20InvalidSpender","inputs":[{"name":"spender","type":"address","internalType":"address"}]},{"type":"error","name":"ERC2612ExpiredSignature","inputs":[{"name":"deadline","type":"uint256","internalType":"uint256"}]},{"type":"error","name":"ERC2612InvalidSigner","inputs":[{"name":"signer","type":"address","internalType":"address"},{"name":"owner","type":"address","internalType":"address"}]},{"type":"error","name":"ERC5805FutureLookup","inputs":[{"name":"timepoint","type":"uint256","internalType":"uint256"},{"name":"clock","type":"uint48","internalType":"uint48"}]},{"type":"error","name":"ERC6372InconsistentClock","inputs":[]},{"type":"error","name":"EnforcedPause","inputs":[]},{"type":"error","name":"ExpectedPause","inputs":[]},{"type":"error","name":"FailedInnerCall","inputs":[]},{"type":"error","name":"InvalidAccountNonce","inputs":[{"name":"account","type":"address","internalType":"address"},{"name":"currentNonce","type":"uint256","internalType":"uint256"}]},{"type":"error","name":"InvalidInitialization","inputs":[]},{"type":"error","name":"InvalidPrecompileAddress","inputs":[]},{"type":"error","name":"NotInitializing","inputs":[]},{"type":"error","name":"PrecompileCallFailed","inputs":[{"name":"returnData","type":"bytes","internalType":"bytes"}]},{"type":"error","name":"SafeCastOverflowedUintDowncast","inputs":[{"name":"bits","type":"uint8","internalType":"uint8"},{"name":"value","type":"uint256","internalType":"uint256"}]},{"type":"error","name":"UUPSUnauthorizedCallContext","inputs":[]},{"type":"error","name":"UUPSUnsupportedProxiableUUID","inputs":[{"name":"slot","type":"bytes32","internalType":"bytes32"}]},{"type":"error","name":"VotesExpiredSignature","inputs":[{"name":"expiry","type":"uint256","internalType":"uint256"}]}],"bytecode":{"object":"0x60a0806040523460c857306080527ff0c57e16840df040f15088dc2f81fe391c3923bec73e23a9662efc9c229c6a009081549060ff8260401c1660b957506001600160401b036002600160401b0319828216016075575b604051613a0990816100cd8239608051818181610aba0152610be30152f35b6001600160401b031990911681179091556040519081527fc7f505b2f371ae2175ee4913f4499e1f2633a7b5936321eed1cdaeb6115181d290602090a15f80806056565b63f92ee8a960e01b8152600490fd5b5f80fdfe60806040526004361015610011575f80fd5b5f3560e01c806301ffc9a7146102e457806305d92ddc146102df57806306fdde03146102da578063095ea7b3146102d557806318160ddd146102d057806323b872dd146102cb578063248a9ca3146102c6578063282c51f3146102c15780632f2ff15d146102bc578063313ce567146102b75780633644e515146102b257806336568abe146102ad5780633a46b1a8146102a85780633f4ba83a146102a357806340c10f191461029e57806342966c68146102995780634bf5d7e9146102945780634f1ef2861461028f57806352d1902d1461028a578063587cde1e146102855780635c19a95c146102805780635c975abb1461027b5780636fcfff451461027657806370a082311461027157806379cc67901461026c5780637ecebe00146102675780638456cb591461026257806384b0196e1461025d5780638e539e8c1461025857806391d148541461025357806391ddadf41461024e57806395d89b41146102495780639ab24eb014610244578063a217fddf1461023f578063a9059cbb1461023a578063ad3cb1cc14610235578063be47b67614610230578063c0c53b8b1461022b578063c3cda52014610226578063d505accf14610221578063d53913931461021c578063d547741f14610217578063dd62ed3e14610212578063e63ab1e91461020d5763f1127ed814610208575f80fd5b611750565b611716565b6116c9565b611680565b611646565b6114ec565b611423565b6112ca565b6112a3565b61125e565b611238565b61121e565b6111e7565b611135565b61110a565b6110b0565b610f8e565b610ebe565b610dd3565b610d7c565b610d4c565b610d29565b610ccf565b610ca1565b610c7f565b610c3a565b610bd1565b610a44565b610919565b6108fc565b610831565b6107bc565b610696565b61064f565b610635565b61061a565b6105d1565b610597565b61055e565b610526565b610504565b6104d3565b6103e3565b610380565b3461033a57602036600319011261033a5760043563ffffffff60e01b811680910361033a57602090637965db0b60e01b8114908115610329575b506040519015158152f35b6301ffc9a760e01b1490505f61031e565b5f80fd5b600435906001600160a01b038216820361033a57565b602435906001600160a01b038216820361033a57565b604435906001600160a01b038216820361033a57565b3461033a57602036600319011261033a576103a961039c61033e565b6103a4611ce7565b611e3b565b005b805180835260209291819084018484015e5f828201840152601f01601f1916010190565b9060206103e09281815201906103ab565b90565b3461033a575f36600319011261033a576040515f5f80516020613874833981519152805490610411826117d7565b808552916020916001918281169081156104a6575060011461044e575b61044a8661043e818803826109f9565b604051918291826103cf565b0390f35b5f90815293507f2ae08a8e29253f69ac5d979a101956ab8f8d9d7ded63fa7a83b16fc47648eab05b8385106104935750505050810160200161043e8261044a5f61042e565b8054868601840152938201938101610476565b905086955061044a9693506020925061043e94915060ff191682840152151560051b82010192935f61042e565b3461033a57604036600319011261033a576104f96104ef61033e565b60243590336128c0565b602060405160018152f35b3461033a575f36600319011261033a57602061051e6119cc565b604051908152f35b3461033a57606036600319011261033a576104f961054261033e565b61054a610354565b60443591610559833383611e9e565b611f53565b3461033a57602036600319011261033a576004355f525f805160206139548339815191526020526020600160405f200154604051908152f35b3461033a575f36600319011261033a5760206040517f3c11d16cbaffd01df69ce1c404f6340ee057498f5f00246190ea54220576a8488152f35b3461033a57604036600319011261033a576103a96004356105f0610354565b90805f525f80516020613954833981519152602052610615600160405f200154611e0f565b61226c565b3461033a575f36600319011261033a57602060405160128152f35b3461033a575f36600319011261033a57602061051e612918565b3461033a57604036600319011261033a57610668610354565b336001600160a01b03821603610684576103a9906004356122a2565b60405163334bd91960e11b8152600490fd5b3461033a57604036600319011261033a576106af61033e565b602435906106bc43612334565b9065ffffffffffff9182811684101561078f57506106dc6106e291611a24565b92612334565b8254905f908260058111610741575b506106fd935084612b56565b908161072457505061044a5f5b6040516001600160d01b0390911681529081906020820190565b61073061044a9261237a565b905f5260205f20015460301c61070a565b909261074c826129ab565b820391821161078a576106fd94865f52808360205f20015416908516105f146107785750915b5f6106f1565b92915061078490612388565b90610772565b612366565b604051637669fc0f60e11b81526004810185905265ffffffffffff919091166024820152604490fd5b0390fd5b3461033a575f36600319011261033a576107d4611d3d565b5f80516020613974833981519152805460ff81161561081f5760ff191690557f5db9ee0a495bf2e6ff9c91a7834c1ba4fdd244a5e8aa4e537bd38aeae4b073aa6020604051338152a1005b604051638dfc202b60e01b8152600490fd5b3461033a57604036600319011261033a5761084a61033e565b602435610855611db8565b61085d612396565b5f8054604051632db6b0e760e01b602082019081526001600160a01b0386811660248401526044808401879052835284931691839061089d6064826109f9565b51925af16108a961198e565b50156108b8576103a9916123ae565b606460405162461bcd60e51b815260206004820152602060248201527f4661696c656420746f206465706f736974206e61746976652062616c616e63656044820152fd5b3461033a57602036600319011261033a576103a9600435336124b7565b3461033a575f36600319011261033a5761093243612334565b65ffffffffffff8061094343612334565b169116036109985761044a60405161095a816109be565b601d81527f6d6f64653d626c6f636b6e756d6265722666726f6d3d64656661756c7400000060208201526040519182916020835260208301906103ab565b6040516301bfc1c560e61b8152600490fd5b634e487b7160e01b5f52604160045260245ffd5b604081019081106001600160401b038211176109d957604052565b6109aa565b60a081019081106001600160401b038211176109d957604052565b90601f801991011681019081106001600160401b038211176109d957604052565b60405190610a27826109be565b565b6001600160401b0381116109d957601f01601f191660200190565b60408060031936011261033a57610a5961033e565b6024356001600160401b03811161033a573660238201121561033a578060040135610a8381610a29565b91610a90855193846109f9565b818352366024838301011161033a57815f9260246020930183860137830101526001600160a01b037f00000000000000000000000000000000000000000000000000000000000000008116308114908115610bb6575b50610ba5576020600491610af8611ce7565b85516352d1902d60e01b8152928391829087165afa5f9181610b74575b50610b3a578351634c9c8ce360e01b81526001600160a01b0384166004820152602490fd5b5f805160206138f48339815191528193929303610b5b576103a98383612c8e565b8351632a87526960e21b81526004810191909152602490fd5b610b9791925060203d602011610b9e575b610b8f81836109f9565b8101906119bd565b905f610b15565b503d610b85565b835163703e46dd60e11b8152600490fd5b9050815f805160206138f4833981519152541614155f610ae6565b3461033a575f36600319011261033a577f00000000000000000000000000000000000000000000000000000000000000006001600160a01b03163003610c285760206040515f805160206138f48339815191528152f35b60405163703e46dd60e11b8152600490fd5b3461033a57602036600319011261033a5760206001600160a01b0380610c5e61033e565b165f525f80516020613854833981519152825260405f205416604051908152f35b3461033a57602036600319011261033a576103a9610c9b61033e565b33612570565b3461033a575f36600319011261033a57602060ff5f8051602061397483398151915254166040519015158152f35b3461033a57602036600319011261033a57610cf0610ceb61033e565b611a24565b5463ffffffff90818111610d0a5760209160405191168152f35b604490604051906306dfcc6560e41b8252602060048301526024820152fd5b3461033a57602036600319011261033a57602061051e610d4761033e565b611a94565b3461033a57604036600319011261033a576103a9610d6861033e565b60243590610d77823383611e9e565b6124b7565b3461033a57602036600319011261033a576001600160a01b03610d9d61033e565b165f527f5ab42ced628888259c08ac98db1eb0cf702fc1501344311d8b100cd1bfe4bb00602052602060405f2054604051908152f35b3461033a575f36600319011261033a57610deb611d3d565b610df3612396565b5f80516020613974833981519152600160ff198254161790557f62e78cea01bee320cd4e420270b5ea74000d11b0c9f74754ebdbfc544b05a2586020604051338152a1005b91610e6c90949194600f60f81b8452610e5e60209660e0602087015260e08601906103ab565b9084820360408601526103ab565b92606083015260018060a01b031660808201525f60a082015260c0818303910152602080845192838152019301915f5b828110610eaa575050505090565b835185529381019392810192600101610e9c565b3461033a575f36600319011261033a577fa16a46d94261c7517cc8ff89f61c0ce93598e3c849801011dee649a6a557d100541580610f65575b15610f2857610f0461180f565b610f0c6118e2565b9061044a610f18611aec565b6040519384933091469186610e38565b60405162461bcd60e51b81526020600482015260156024820152741152540dcc4c8e88155b9a5b9a5d1a585b1a5e9959605a1b6044820152606490fd5b507fa16a46d94261c7517cc8ff89f61c0ce93598e3c849801011dee649a6a557d1015415610ef7565b3461033a57602036600319011261033a57600435610fab43612334565b9065ffffffffffff918281168210156110895750610fc890612334565b905f80516020613914833981519152918254905f908260058111611036575b50610ff29350612ae4565b908161101057505060205f5b6040516001600160d01b039091168152f35b61101b60209261237a565b905f525f805160206139b4833981519152015460301c610ffe565b9092611041826129ab565b820391821161078a57610ff294865f5280835f805160206139b4833981519152015416908516105f146110775750915b5f610fe7565b92915061108390612388565b90611071565b604051637669fc0f60e11b8152600481019290925265ffffffffffff166024820152604490fd5b3461033a57604036600319011261033a57602060ff6110fe6110d0610354565b6004355f525f80516020613954833981519152845260405f209060018060a01b03165f5260205260405f2090565b54166040519015158152f35b3461033a575f36600319011261033a57602061112543612334565b65ffffffffffff60405191168152f35b3461033a575f36600319011261033a576040515f5f805160206138b4833981519152805490611163826117d7565b808552916020916001918281169081156104a6575060011461118f5761044a8661043e818803826109f9565b5f90815293507f46a2803e59a4de4e7a4c574b1243f25977ac4c77d5a1a4a609b5394cebb4a2aa5b8385106111d45750505050810160200161043e8261044a5f61042e565b80548686018401529382019381016111b7565b3461033a57602036600319011261033a5760206001600160d01b03611215611210610ceb61033e565b612639565b16604051908152f35b3461033a575f36600319011261033a5760206040515f8152f35b3461033a57604036600319011261033a576104f961125461033e565b6024359033611f53565b3461033a575f36600319011261033a5761044a60405161127d816109be565b60058152640352e302e360dc1b60208201526040519182916020835260208301906103ab565b3461033a575f36600319011261033a575f546040516001600160a01b039091168152602090f35b3461033a57606036600319011261033a576112e361033e565b6112eb610354565b906112f461036a565b5f8051602061399483398151915254926001600160401b0360ff8560401c16159416801590816113fb575b60011490816113f1575b1590816113e8575b506113d6575f80516020613994833981519152805467ffffffffffffffff1916600117905561136492846113b257611b32565b61136a57005b5f80516020613994833981519152805460ff60401b19169055604051600181527fc7f505b2f371ae2175ee4913f4499e1f2633a7b5936321eed1cdaeb6115181d290602090a1005b5f80516020613994833981519152805460ff60401b1916600160401b179055611b32565b60405163f92ee8a960e01b8152600490fd5b9050155f611331565b303b159150611329565b85915061131f565b6064359060ff8216820361033a57565b6084359060ff8216820361033a57565b3461033a5760c036600319011261033a5761143c61033e565b6044359060243561144b611403565b8342116114d3576114c76103a9946114ce926040519060208201927fe48329057bfd03d55e49b547132e39cffd9c1820ad7b9d4c5307691425d15adf845260018060a01b03881660408401528660608401526080830152608082526114af826109de565b6114c260a435936084359351902061280d565b612833565b918261284b565b612570565b604051632341d78760e11b815260048101859052602490fd5b3461033a5760e036600319011261033a5761150561033e565b61150d610354565b6044359060643561151c611413565b81421161162d576001600160a01b038581165f8181527f5ab42ced628888259c08ac98db1eb0cf702fc1501344311d8b100cd1bfe4bb00602090815260409182902080546001810190915582517f6e71edae12b1b97f4d1f60370fef10105fa2faae0126114a169c64845d6126c99281019283529283019390935292861660608201526080810187905260a081019190915260c08101939093526115e69290916115d38260e081015b03601f1981018452836109f9565b6114c260c4359360a4359351902061280d565b6001600160a01b038481169082160361160357506103a9926128c0565b6040516325c0072360e11b81526001600160a01b0391821660048201529084166024820152604490fd5b60405163313c898160e11b815260048101839052602490fd5b3461033a575f36600319011261033a5760206040517f9f2df0fed2c77648de5860a4cc508cd0818c85b8b8a1ab4ceeef8d981c8956a68152f35b3461033a57604036600319011261033a576103a960043561169f610354565b90805f525f805160206139548339815191526020526116c4600160405f200154611e0f565b6122a2565b3461033a57604036600319011261033a57602061170d6116e761033e565b6116f86116f2610354565b91611a5c565b9060018060a01b03165f5260205260405f2090565b54604051908152f35b3461033a575f36600319011261033a5760206040517f65d7a28e3265b37a6474929f336521b332c1681b933f6cb9f3376673440d862a8152f35b3461033a57604036600319011261033a5761176961033e565b60243563ffffffff8116810361033a576117ab6117b19161179d60409461178e611ccf565b50611797611ccf565b50611a24565b6117a5611ccf565b50613386565b506133af565b8151815165ffffffffffff1681526020918201516001600160d01b031691810191909152f35b90600182811c92168015611805575b60208310146117f157565b634e487b7160e01b5f52602260045260245ffd5b91607f16916117e6565b604051905f825f8051602061389483398151915291825492611830846117d7565b808452936020916001918281169081156118bc575060011461185c575b505050610a27925003836109f9565b5f9081527f42ad5d3e1f2e6e70edcf6d991b8a3023d3fca8047a131592f9edb9fd9b89d57d9590935091905b8284106118a45750610a279450505081016020015f808061184d565b85548885018301529485019487945092810192611888565b9250505060209250610a2794915060ff191682840152151560051b8201015f808061184d565b604051905f825f805160206138d483398151915291825492611903846117d7565b808452936020916001918281169081156118bc575060011461192e57505050610a27925003836109f9565b5f9081527f5f9ce34815f8e11431c7bb75a8e6886a91478f7ffc1dbb0a98dc240fddd76b759590935091905b8284106119765750610a279450505081016020015f808061184d565b8554888501830152948501948794509281019261195a565b3d156119b8573d9061199f82610a29565b916119ad60405193846109f9565b82523d5f602084013e565b606090565b9081602091031261033a575190565b5f80546040516318160ddd60e01b602082019081526004825283926001600160a01b0316916119fa816109be565b51915afa611a0661198e565b9015611a1f57806020806103e0935183010191016119bd565b505f90565b6001600160a01b03165f9081527fe8b26c30fad74198956032a3533d903385d56dd795af560196f9c78d4af40d016020526040902090565b6001600160a01b03165f9081527f52c63247e1f47db19d5ce0460030c497f067ca4cebf71ba98eeadabe20bace016020526040902090565b5f546040516377ec5f3160e11b602082019081526001600160a01b0393841660248084019190915282529092606084019216906001600160401b038311848410176109d9575f93849360405251915afa611a0661198e565b604051602081018181106001600160401b038211176109d9576040525f8152905f368137565b60405190611b1f826109be565b6004825263414e444560e01b6020830152565b90611b3b611b12565b611b43611b12565b90611b4c612e67565b611b54612e67565b80516001600160401b0381116109d9575f8051602061387483398151915291611b8682611b8185546117d7565b612e95565b602090816001601f851114611c2e575093611c1793611bc984611c1d9895611bd095610a279c9b995f92611c23575b50508160011b915f199060031b1c19161790565b9055613079565b611bd8612e67565b611be0612e67565b611bf0611beb611b12565b612661565b611bf8612e67565b611c00612e67565b611c086127e5565b611c1183612076565b50612127565b506121fd565b50611e3b565b015190505f80611bb5565b5f805160206138748339815191525f529190601f1984167f2ae08a8e29253f69ac5d979a101956ab8f8d9d7ded63fa7a83b16fc47648eab0935f905b828210611cb757505084611bd094610a279b9a9894611c179894611c1d9b9860019510611c9f575b505050811b019055613079565b01515f1960f88460031b161c191690555f8080611c92565b80600186978294978701518155019601940190611c6a565b60405190611cdc826109be565b5f6020838281520152565b335f9081527fb7db2dd08fcb62d0c9e08c51941cae53c267786a0b75803fb7960902fc8ef97d602052604090205460ff1615611d1f57565b60405163e2517d3f60e01b81523360048201525f6024820152604490fd5b335f9081527f75442b0a96088b5456bc4ed01394c96a4feec0f883c9494257d76b96ab1c9b6b602052604090207f65d7a28e3265b37a6474929f336521b332c1681b933f6cb9f3376673440d862a9060ff905b541615611d9a5750565b6044906040519063e2517d3f60e01b82523360048301526024820152fd5b335f9081527f549fe2656c81d2947b3b913f0a53b9ea86c71e049f3a1b8aa23c09a8a05cb8d4602052604090207f9f2df0fed2c77648de5860a4cc508cd0818c85b8b8a1ab4ceeef8d981c8956a69060ff90611d90565b5f8181525f8051602061395483398151915260209081526040808320338452909152902060ff90611d90565b6001600160a01b03908116908115611e8c575f54826bffffffffffffffffffffffff60a01b8216175f55167fcb1c61ab12284716d03905b8774a57d6a5c888015359fce535fe252e639f4aaa5f80a3565b60405163ed6ca57360e01b8152600490fd5b9190611ead816116f885611a5c565b5460018101611ebd575b50505050565b828110611f24576001600160a01b0384811615611f0c57821615611ef457611eea926116f8910393611a5c565b555f808080611eb7565b604051634a1406b160e11b81525f6004820152602490fd5b60405163e602df0560e01b81525f6004820152602490fd5b604051637dc7a0d960e11b81526001600160a01b03909216600483015260248201526044810191909152606490fd5b916001600160a01b038084169290831561205e578116938415612046575f805160206139748339815191525460ff16612034578281611fc984611f99845f978897612bb5565b604080516001600160a01b03948516602082019081529490921690820152606081019390935282608081016115c5565b825483906001600160a01b03169251925af1611fe361198e565b901561200a57506040519081525f805160206139348339815191529080602081015b0390a3565b8051908161202f5760405163078f30c160e11b81529081906107b890600483016103cf565b602001fd5b60405163d93c066560e01b8152600490fd5b60405163ec442f0560e01b81525f6004820152602490fd5b604051634b637e8f60e11b81525f6004820152602490fd5b6001600160a01b0381165f9081527fb7db2dd08fcb62d0c9e08c51941cae53c267786a0b75803fb7960902fc8ef97d60205260409020545f805160206139548339815191529060ff16612121575f808052602091825260408082206001600160a01b038516835290925220805460ff1916600117905533906001600160a01b03165f7f2f8788117e7eff1d82e926ec794901d17c78024a50270940304540a733656f0d8180a4600190565b50505f90565b6001600160a01b0381165f9081527f549fe2656c81d2947b3b913f0a53b9ea86c71e049f3a1b8aa23c09a8a05cb8d4602052604090207f9f2df0fed2c77648de5860a4cc508cd0818c85b8b8a1ab4ceeef8d981c8956a6905f805160206139548339815191529060ff905b54166121f6575f828152602091825260408082206001600160a01b038616835290925220805460ff1916600117905533916001600160a01b0316907f2f8788117e7eff1d82e926ec794901d17c78024a50270940304540a733656f0d5f80a4600190565b5050505f90565b6001600160a01b0381165f9081527f75442b0a96088b5456bc4ed01394c96a4feec0f883c9494257d76b96ab1c9b6b602052604090207f65d7a28e3265b37a6474929f336521b332c1681b933f6cb9f3376673440d862a905f805160206139548339815191529060ff90612192565b5f8181525f80516020613954833981519152602081815260408084206001600160a01b038716855290915290912060ff90612192565b5f8181525f80516020613954833981519152602081815260408084206001600160a01b03871685529091529091205460ff16156121f6575f828152602091825260408082206001600160a01b038616835290925220805460ff1916905533916001600160a01b0316907ff6391f5c32d9c69d2a47ea670b442974b53935d1edc7fd64eb21e047a839171b5f80a4600190565b65ffffffffffff90818111612347571690565b604490604051906306dfcc6560e41b8252603060048301526024820152fd5b634e487b7160e01b5f52601160045260245ffd5b5f1981019190821161078a57565b906001820180921161078a57565b60ff5f80516020613974833981519152541661203457565b9060ff5f805160206139748339815191525416612034576123ce81613494565b916123d843612334565b6001600160d01b039384806123eb6125e8565b1691160184811161078a576123ff91613638565b50506001600160a01b0390811692831561245f575b506020826124565f945f80516020613934833981519152948680525f805160206138548339815191528552806040882054169088885260408820541690612d33565b604051908152a3565b9061246983613494565b9261247343612334565b93838061247e6125e8565b169116900392831161078a57612456816020936124aa5f80516020613934833981519152965f98613638565b5050945050509250612414565b6001600160a01b0390811690811561205e5760ff5f805160206139748339815191525416612034576124e883613494565b906124f243612334565b936001600160d01b039283806125066125e8565b169116900392831161078a5761256081612005936125335f80516020613934833981519152965f99613638565b50508688525f80516020613854833981519152602052806040892054169088805260408920541690612d33565b6040519081529081906020820190565b6001600160a01b038181165f8181525f805160206138548339815191526020526040812080548685166001600160a01b031982168117909255610a27969416946125e29390928691907f3134e8a2e6d97e929a7e54011ea5485d7d196dd5f0ba4d4ef95803e8e3fc257f9080a4611a94565b91612d33565b5f805160206139148339815191528054806126035750505f90565b805f1981011161078a577f88c46c62109817164d0ae1873830d4299a82e5daf552a3d8e989b27638fcf747915f52015460301c90565b8054806126465750505f90565b5f1991818381011161078a575f5260205f2001015460301c90565b9061266a612e67565b604051612676816109be565b6001808252602090603160f81b6020840152612690612e67565b8451906001600160401b0382116109d9575f80516020613894833981519152926126c3836126be86546117d7565b612f0e565b602091601f841160011461274f57505090806126f8926126ff96975f92611c235750508160011b915f199060031b1c19161790565b9055613172565b6127275f7fa16a46d94261c7517cc8ff89f61c0ce93598e3c849801011dee649a6a557d10055565b610a275f7fa16a46d94261c7517cc8ff89f61c0ce93598e3c849801011dee649a6a557d10155565b5f805160206138948339815191525f908152601f198516987f42ad5d3e1f2e6e70edcf6d991b8a3023d3fca8047a131592f9edb9fd9b89d57d949390925b8a83106127ce57505050908392916001946126ff9899106127b6575b505050811b019055613172565b01515f1960f88460031b161c191690555f80806127a9565b83850151865594850194938101939181019161278d565b6127ed612e67565b6127f5612e67565b5f80516020613974833981519152805460ff19169055565b604290612818612918565b906040519161190160f01b8352600283015260228201522090565b916103e093916128429361324e565b909291926132f9565b6001600160a01b0381165f9081527f5ab42ced628888259c08ac98db1eb0cf702fc1501344311d8b100cd1bfe4bb0060205260409020805460018101909155809203612895575050565b6040516301d4b62360e61b81526001600160a01b039190911660048201526024810191909152604490fd5b6001600160a01b038082169291908315611f0c578216938415611ef4578061290e7f8c5be1e5ebec7d5bd14f71427d1e84f3dd0314c0f7b2291e5b200ac8c7c3b925946116f8602095611a5c565b55604051908152a3565b6129206133d3565b61292861343d565b6040519060208201927f8b73c3c69bb8fe3d512ecc4cf759cc79239f7b179b0ffacaa9a75d522b39400f8452604083015260608201524660808201523060a082015260a0815260c081018181106001600160401b038211176109d95760405251902090565b8115612997570490565b634e487b7160e01b5f52601260045260245ffd5b8015611a1f5780612a7d612a76612a6c612a62612a58612a4e612a44612a3a60016103e09a5f908b60801c80612ad8575b508060401c80612acb575b508060201c80612abe575b508060101c80612ab1575b508060081c80612aa4575b508060041c80612a97575b508060021c80612a8a575b50821c612a83575b811c1b612a33818b61298d565b0160011c90565b612a33818a61298d565b612a33818961298d565b612a33818861298d565b612a33818761298d565b612a33818661298d565b612a33818561298d565b809261298d565b90613482565b8101612a26565b600291509101905f612a1e565b600491509101905f612a13565b600891509101905f612a08565b601091509101905f6129fd565b602091509101905f6129f2565b604091509101905f6129e7565b9150506080905f6129dc565b905b828110612af257505090565b90918082169080831860011c820180921161078a575f805160206139148339815191525f5265ffffffffffff80835f805160206139b4833981519152015416908516105f14612b445750915b90612ae6565b929150612b5090612388565b90612b3e565b91905b838210612b665750505090565b9091928083169080841860011c820180921161078a57845f5265ffffffffffff808360205f20015416908416105f14612ba35750925b9190612b59565b939250612baf90612388565b91612b9c565b6001600160a01b03908116929181908415612c49575b16908115612c01575b610a27935f525f805160206138548339815191526020528060405f205416915f5260405f20541690612d33565b612c0a83613494565b93612c1443612334565b6001600160d01b03958680612c276125e8565b169116900395861161078a57610a2795612c4091613638565b50509350612bd4565b9050612c5483613494565b90612c5e43612334565b6001600160d01b03928380612c716125e8565b1691160192831161078a578392612c8791613638565b5050612bcb565b90813b15612d12575f805160206138f483398151915280546001600160a01b0319166001600160a01b0384169081179091557fbc7cd75a20ee27fd9adebab32041f755214dbc6bffa90cc0225b39da2e5c2d3b5f80a2805115612cf757612cf4916134fd565b50565b505034612d0057565b60405163b398979f60e01b8152600490fd5b604051634c9c8ce360e01b81526001600160a01b0383166004820152602490fd5b6001600160a01b03808316939291908116908185141580612e5e575b612d5b575b5050505050565b81612dd0575b505082612d70575b8080612d54565b7fdec2bacdd2f05b59de34da9b523dff8be42e5e38e818c82fdb0bae774387a72491612da7612da1612dad93611a24565b91613494565b906134c7565b604080516001600160d01b039384168152919092166020820152a25f8080612d69565b612dd990611a24565b612de284613494565b612deb43612334565b6001600160d01b03918280612dff86612639565b16911690039282841161078a577fdec2bacdd2f05b59de34da9b523dff8be42e5e38e818c82fdb0bae774387a72493612e5492612e3b92613775565b6040805192851683529316602082015291829190820190565b0390a25f80612d61565b50831515612d4f565b60ff5f805160206139948339815191525460401c1615612e8357565b604051631afcd79f60e31b8152600490fd5b601f8111612ea1575050565b5f805160206138748339815191525f527f2ae08a8e29253f69ac5d979a101956ab8f8d9d7ded63fa7a83b16fc47648eab0906020601f840160051c83019310612f04575b601f0160051c01905b818110612ef9575050565b5f8155600101612eee565b9091508190612ee5565b601f8111612f1a575050565b5f805160206138948339815191525f527f42ad5d3e1f2e6e70edcf6d991b8a3023d3fca8047a131592f9edb9fd9b89d57d906020601f840160051c83019310612f7d575b601f0160051c01905b818110612f72575050565b5f8155600101612f67565b9091508190612f5e565b601f8111612f93575050565b5f805160206138b48339815191525f527f46a2803e59a4de4e7a4c574b1243f25977ac4c77d5a1a4a609b5394cebb4a2aa906020601f840160051c83019310612ff6575b601f0160051c01905b818110612feb575050565b5f8155600101612fe0565b9091508190612fd7565b601f811161300c575050565b5f805160206138d48339815191525f527f5f9ce34815f8e11431c7bb75a8e6886a91478f7ffc1dbb0a98dc240fddd76b75906020601f840160051c8301931061306f575b601f0160051c01905b818110613064575050565b5f8155600101613059565b9091508190613050565b9081516001600160401b0381116109d9575f805160206138b4833981519152906130ac816130a784546117d7565b612f87565b602080601f83116001146130e1575081906130dd9394955f92611c235750508160011b915f199060031b1c19161790565b9055565b90601f1983169561311f5f805160206138b48339815191525f527f46a2803e59a4de4e7a4c574b1243f25977ac4c77d5a1a4a609b5394cebb4a2aa90565b925f905b88821061315a57505083600195969710613142575b505050811b019055565b01515f1960f88460031b161c191690555f8080613138565b80600185968294968601518155019501930190613123565b9081516001600160401b0381116109d9575f805160206138d4833981519152906131a5816131a084546117d7565b613000565b602080601f83116001146131d6575081906130dd9394955f92611c235750508160011b915f199060031b1c19161790565b90601f198316956132145f805160206138d48339815191525f527f5f9ce34815f8e11431c7bb75a8e6886a91478f7ffc1dbb0a98dc240fddd76b7590565b925f905b8882106132365750508360019596971061314257505050811b019055565b80600185968294968601518155019501930190613218565b91907f7fffffffffffffffffffffffffffffff5d576e7357a4501ddfe92f46681b20a084116132d0579160209360809260ff5f9560405194855216868401526040830152606082015282805260015afa156132c5575f516001600160a01b038116156132bb57905f905f90565b505f906001905f90565b6040513d5f823e3d90fd5b5050505f9160039190565b600411156132e557565b634e487b7160e01b5f52602160045260245ffd5b613302816132db565b8061330b575050565b613314816132db565b6001810361332e5760405163f645eedf60e01b8152600490fd5b613337816132db565b600281036133585760405163fce698f760e01b815260048101839052602490fd5b806133646003926132db565b1461336c5750565b6040516335e2f38360e21b81526004810191909152602490fd5b805482101561339b575f5260205f2001905f90565b634e487b7160e01b5f52603260045260245ffd5b906040516133bc816109be565b915465ffffffffffff8116835260301c6020830152565b6133db61180f565b80519081156133eb576020012090565b50507fa16a46d94261c7517cc8ff89f61c0ce93598e3c849801011dee649a6a557d1005480156134185790565b507fc5d2460186f7233c927e7db2dcc703c0e500b653ca82273b7bfad8045d85a47090565b6134456118e2565b8051908115613455576020012090565b50507fa16a46d94261c7517cc8ff89f61c0ce93598e3c849801011dee649a6a557d1015480156134185790565b908082101561348f575090565b905090565b6001600160d01b03908181116134a8571690565b604490604051906306dfcc6560e41b825260d060048301526024820152fd5b906134d143612334565b6001600160d01b039182806134e586612639565b1691160191821161078a576134f992613775565b9091565b5f806103e093602081519101845af461351461198e565b919061353c575080511561352a57805190602001fd5b604051630a12f52160e11b8152600490fd5b8151158061356f575b61354d575090565b604051639996b31560e01b81526001600160a01b039091166004820152602490fd5b50803b15613545565b5f80516020613914833981519152908154600160401b8110156109d9576001810180845581101561339b575f92909252805160209091015160301b65ffffffffffff191665ffffffffffff91909116175f805160206139b48339815191529190910155565b8054600160401b8110156109d9576135fa91600182018155613386565b61362557815160209092015160301b65ffffffffffff191665ffffffffffff92909216919091179055565b634e487b7160e01b5f525f60045260245ffd5b5f805160206139148339815191525491929190811561374c576136876136826136608461237a565b5f805160206139148339815191525f525f805160206139b48339815191520190565b6133af565b805165ffffffffffff838116949116841061373a57856020936136fe956136c26136b7865165ffffffffffff1690565b65ffffffffffff1690565b0361370257506136d76136606136f09361237a565b9065ffffffffffff82549181199060301b169116179055565b01516001600160d01b031690565b9190565b90506137359150613722613714610a1a565b65ffffffffffff9092168252565b6001600160d01b03871681850152613578565b6136f0565b604051632520601d60e01b8152600490fd5b613770915061375c613714610a1a565b6001600160d01b0384166020820152613578565b5f9190565b80549293929190821561382f5761379c6136826137918561237a565b835f5260205f200190565b906137ad825165ffffffffffff1690565b65ffffffffffff8481169116811061373a576136fe9460209488926137db6136b7875165ffffffffffff1690565b036137fc57506136f0926137f16136d79261237a565b905f5260205f200190565b9150506137359161381c61380e610a1a565b65ffffffffffff9093168352565b6001600160d01b038816828601526135dd565b613770925061383f61380e610a1a565b6001600160d01b03851660208301526135dd56fee8b26c30fad74198956032a3533d903385d56dd795af560196f9c78d4af40d0052c63247e1f47db19d5ce0460030c497f067ca4cebf71ba98eeadabe20bace03a16a46d94261c7517cc8ff89f61c0ce93598e3c849801011dee649a6a557d10252c63247e1f47db19d5ce0460030c497f067ca4cebf71ba98eeadabe20bace04a16a46d94261c7517cc8ff89f61c0ce93598e3c849801011dee649a6a557d103360894a13ba1a3210667c828492db98dca3e2076cc3735a920a3ca505d382bbce8b26c30fad74198956032a3533d903385d56dd795af560196f9c78d4af40d02ddf252ad1be2c89b69c2b068fc378daa952ba7f163c4a11628f55a4df523b3ef02dd7bc7dec4dceedda775e58dd541e08a116c6c53815c0bd028192f7b626800cd5ed15c6e187e77e9aee88184c21f4f2182ab5827cb3b7e07fbedcd63f03300f0c57e16840df040f15088dc2f81fe391c3923bec73e23a9662efc9c229c6a0088c46c62109817164d0ae1873830d4299a82e5daf552a3d8e989b27638fcf748a2646970667358221220481e5b0829ec842b59824ef6b1611e42b7ae0b49d75c8a9ae9527b3c53c2dfa464736f6c63430008190033","linkReferences":{}},"methodIdentifiers":{"BURNER_ROLE()":"282c51f3","CLOCK_MODE()":"4bf5d7e9","DEFAULT_ADMIN_ROLE()":"a217fddf","DOMAIN_SEPARATOR()":"3644e515","MINTER_ROLE()":"d5391393","PAUSER_ROLE()":"e63ab1e9","UPGRADE_INTERFACE_VERSION()":"ad3cb1cc","allowance(address,address)":"dd62ed3e","approve(address,uint256)":"095ea7b3","balanceOf(address)":"70a08231","burn(uint256)":"42966c68","burnFrom(address,uint256)":"79cc6790","checkpoints(address,uint32)":"f1127ed8","clock()":"91ddadf4","decimals()":"313ce567","delegate(address)":"5c19a95c","delegateBySig(address,uint256,uint256,uint8,bytes32,bytes32)":"c3cda520","delegates(address)":"587cde1e","eip712Domain()":"84b0196e","getPastTotalSupply(uint256)":"8e539e8c","getPastVotes(address,uint256)":"3a46b1a8","getRoleAdmin(bytes32)":"248a9ca3","getVotes(address)":"9ab24eb0","grantRole(bytes32,address)":"2f2ff15d","hasRole(bytes32,address)":"91d14854","initialize(address,address,address)":"c0c53b8b","mint(address,uint256)":"40c10f19","name()":"06fdde03","nonces(address)":"7ecebe00","numCheckpoints(address)":"6fcfff45","pause()":"8456cb59","paused()":"5c975abb","permit(address,address,uint256,uint256,uint8,bytes32,bytes32)":"d505accf","precompileAddress()":"be47b676","proxiableUUID()":"52d1902d","renounceRole(bytes32,address)":"36568abe","revokeRole(bytes32,address)":"d547741f","setPrecompileAddress(address)":"05d92ddc","supportsInterface(bytes4)":"01ffc9a7","symbol()":"95d89b41","totalSupply()":"18160ddd","transfer(address,uint256)":"a9059cbb","transferFrom(address,address,uint256)":"23b872dd","unpause()":"3f4ba83a","upgradeToAndCall(address,bytes)":"4f1ef286"},"id":98}