{"abi":[{"type":"constructor","inputs":[],"stateMutability":"nonpayable"},{"type":"receive","stateMutability":"payable"},{"type":"function","name":"BALLOT_TYPEHASH","inputs":[],"outputs":[{"name":"","type":"bytes32","internalType":"bytes32"}],"stateMutability":"view"},{"type":"function","name":"CLOCK_MODE","inputs":[],"outputs":[{"name":"","type":"string","internalType":"string"}],"stateMutability":"view"},{"type":"function","name":"COUNTING_MODE","inputs":[],"outputs":[{"name":"","type":"string","internalType":"string"}],"stateMutability":"pure"},{"type":"function","name":"DEFAULT_ADMIN_ROLE","inputs":[],"outputs":[{"name":"","type":"bytes32","internalType":"bytes32"}],"stateMutability":"view"},{"type":"function","name":"EXTENDED_BALLOT_TYPEHASH","inputs":[],"outputs":[{"name":"","type":"bytes32","internalType":"bytes32"}],"stateMutability":"view"},{"type":"function","name":"UPGRADE_INTERFACE_VERSION","inputs":[],"outputs":[{"name":"","type":"string","internalType":"string"}],"stateMutability":"view"},{"type":"function","name":"cancel","inputs":[{"name":"targets","type":"address[]","internalType":"address[]"},{"name":"values","type":"uint256[]","internalType":"uint256[]"},{"name":"calldatas","type":"bytes[]","internalType":"bytes[]"},{"name":"descriptionHash","type":"bytes32","internalType":"bytes32"}],"outputs":[{"name":"","type":"uint256","internalType":"uint256"}],"stateMutability":"nonpayable"},{"type":"function","name":"castVote","inputs":[{"name":"proposalId","type":"uint256","internalType":"uint256"},{"name":"support","type":"uint8","internalType":"uint8"}],"outputs":[{"name":"","type":"uint256","internalType":"uint256"}],"stateMutability":"nonpayable"},{"type":"function","name":"castVoteBySig","inputs":[{"name":"proposalId","type":"uint256","internalType":"uint256"},{"name":"support","type":"uint8","internalType":"uint8"},{"name":"voter","type":"address","internalType":"address"},{"name":"signature","type":"bytes","internalType":"bytes"}],"outputs":[{"name":"","type":"uint256","internalType":"uint256"}],"stateMutability":"nonpayable"},{"type":"function","name":"castVoteWithReason","inputs":[{"name":"proposalId","type":"uint256","internalType":"uint256"},{"name":"support","type":"uint8","internalType":"uint8"},{"name":"reason","type":"string","internalType":"string"}],"outputs":[{"name":"","type":"uint256","internalType":"uint256"}],"stateMutability":"nonpayable"},{"type":"function","name":"castVoteWithReasonAndParams","inputs":[{"name":"proposalId","type":"uint256","internalType":"uint256"},{"name":"support","type":"uint8","internalType":"uint8"},{"name":"reason","type":"string","internalType":"string"},{"name":"params","type":"bytes","internalType":"bytes"}],"outputs":[{"name":"","type":"uint256","internalType":"uint256"}],"stateMutability":"nonpayable"},{"type":"function","name":"castVoteWithReasonAndParamsBySig","inputs":[{"name":"proposalId","type":"uint256","internalType":"uint256"},{"name":"support","type":"uint8","internalType":"uint8"},{"name":"voter","type":"address","internalType":"address"},{"name":"reason","type":"string","internalType":"string"},{"name":"params","type":"bytes","internalType":"bytes"},{"name":"signature","type":"bytes","internalType":"bytes"}],"outputs":[{"name":"","type":"uint256","internalType":"uint256"}],"stateMutability":"nonpayable"},{"type":"function","name":"clock","inputs":[],"outputs":[{"name":"","type":"uint48","internalType":"uint48"}],"stateMutability":"view"},{"type":"function","name":"eip712Domain","inputs":[],"outputs":[{"name":"fields","type":"bytes1","internalType":"bytes1"},{"name":"name","type":"string","internalType":"string"},{"name":"version","type":"string","internalType":"string"},{"name":"chainId","type":"uint256","internalType":"uint256"},{"name":"verifyingContract","type":"address","internalType":"address"},{"name":"salt","type":"bytes32","internalType":"bytes32"},{"name":"extensions","type":"uint256[]","internalType":"uint256[]"}],"stateMutability":"view"},{"type":"function","name":"execute","inputs":[{"name":"targets","type":"address[]","internalType":"address[]"},{"name":"values","type":"uint256[]","internalType":"uint256[]"},{"name":"calldatas","type":"bytes[]","internalType":"bytes[]"},{"name":"descriptionHash","type":"bytes32","internalType":"bytes32"}],"outputs":[{"name":"","type":"uint256","internalType":"uint256"}],"stateMutability":"payable"},{"type":"function","name":"getRoleAdmin","inputs":[{"name":"role","type":"bytes32","internalType":"bytes32"}],"outputs":[{"name":"","type":"bytes32","internalType":"bytes32"}],"stateMutability":"view"},{"type":"function","name":"getVotes","inputs":[{"name":"account","type":"address","internalType":"address"},{"name":"timepoint","type":"uint256","internalType":"uint256"}],"outputs":[{"name":"","type":"uint256","internalType":"uint256"}],"stateMutability":"view"},{"type":"function","name":"getVotesWithParams","inputs":[{"name":"account","type":"address","internalType":"address"},{"name":"timepoint","type":"uint256","internalType":"uint256"},{"name":"params","type":"bytes","internalType":"bytes"}],"outputs":[{"name":"","type":"uint256","internalType":"uint256"}],"stateMutability":"view"},{"type":"function","name":"grantRole","inputs":[{"name":"role","type":"bytes32","internalType":"bytes32"},{"name":"account","type":"address","internalType":"address"}],"outputs":[],"stateMutability":"nonpayable"},{"type":"function","name":"hasRole","inputs":[{"name":"role","type":"bytes32","internalType":"bytes32"},{"name":"account","type":"address","internalType":"address"}],"outputs":[{"name":"","type":"bool","internalType":"bool"}],"stateMutability":"view"},{"type":"function","name":"hasVoted","inputs":[{"name":"proposalId","type":"uint256","internalType":"uint256"},{"name":"account","type":"address","internalType":"address"}],"outputs":[{"name":"","type":"bool","internalType":"bool"}],"stateMutability":"view"},{"type":"function","name":"hashProposal","inputs":[{"name":"targets","type":"address[]","internalType":"address[]"},{"name":"values","type":"uint256[]","internalType":"uint256[]"},{"name":"calldatas","type":"bytes[]","internalType":"bytes[]"},{"name":"descriptionHash","type":"bytes32","internalType":"bytes32"}],"outputs":[{"name":"","type":"uint256","internalType":"uint256"}],"stateMutability":"pure"},{"type":"function","name":"initialize","inputs":[{"name":"token","type":"address","internalType":"contract IVotes"},{"name":"timelock","type":"address","internalType":"contract AndeTimelockController"},{"name":"votingDelay","type":"uint48","internalType":"uint48"},{"name":"votingPeriod","type":"uint32","internalType":"uint32"},{"name":"proposalThreshold","type":"uint256","internalType":"uint256"},{"name":"admin","type":"address","internalType":"address"}],"outputs":[],"stateMutability":"nonpayable"},{"type":"function","name":"name","inputs":[],"outputs":[{"name":"","type":"string","internalType":"string"}],"stateMutability":"view"},{"type":"function","name":"nonces","inputs":[{"name":"owner","type":"address","internalType":"address"}],"outputs":[{"name":"","type":"uint256","internalType":"uint256"}],"stateMutability":"view"},{"type":"function","name":"onERC1155BatchReceived","inputs":[{"name":"","type":"address","internalType":"address"},{"name":"","type":"address","internalType":"address"},{"name":"","type":"uint256[]","internalType":"uint256[]"},{"name":"","type":"uint256[]","internalType":"uint256[]"},{"name":"","type":"bytes","internalType":"bytes"}],"outputs":[{"name":"","type":"bytes4","internalType":"bytes4"}],"stateMutability":"nonpayable"},{"type":"function","name":"onERC1155Received","inputs":[{"name":"","type":"address","internalType":"address"},{"name":"","type":"address","internalType":"address"},{"name":"","type":"uint256","internalType":"uint256"},{"name":"","type":"uint256","internalType":"uint256"},{"name":"","type":"bytes","internalType":"bytes"}],"outputs":[{"name":"","type":"bytes4","internalType":"bytes4"}],"stateMutability":"nonpayable"},{"type":"function","name":"onERC721Received","inputs":[{"name":"","type":"address","internalType":"address"},{"name":"","type":"address","internalType":"address"},{"name":"","type":"uint256","internalType":"uint256"},{"name":"","type":"bytes","internalType":"bytes"}],"outputs":[{"name":"","type":"bytes4","internalType":"bytes4"}],"stateMutability":"nonpayable"},{"type":"function","name":"proposalDeadline","inputs":[{"name":"proposalId","type":"uint256","internalType":"uint256"}],"outputs":[{"name":"","type":"uint256","internalType":"uint256"}],"stateMutability":"view"},{"type":"function","name":"proposalEta","inputs":[{"name":"proposalId","type":"uint256","internalType":"uint256"}],"outputs":[{"name":"","type":"uint256","internalType":"uint256"}],"stateMutability":"view"},{"type":"function","name":"proposalNeedsQueuing","inputs":[{"name":"proposalId","type":"uint256","internalType":"uint256"}],"outputs":[{"name":"","type":"bool","internalType":"bool"}],"stateMutability":"view"},{"type":"function","name":"proposalProposer","inputs":[{"name":"proposalId","type":"uint256","internalType":"uint256"}],"outputs":[{"name":"","type":"address","internalType":"address"}],"stateMutability":"view"},{"type":"function","name":"proposalSnapshot","inputs":[{"name":"proposalId","type":"uint256","internalType":"uint256"}],"outputs":[{"name":"","type":"uint256","internalType":"uint256"}],"stateMutability":"view"},{"type":"function","name":"proposalThreshold","inputs":[],"outputs":[{"name":"","type":"uint256","internalType":"uint256"}],"stateMutability":"view"},{"type":"function","name":"proposalVotes","inputs":[{"name":"proposalId","type":"uint256","internalType":"uint256"}],"outputs":[{"name":"againstVotes","type":"uint256","internalType":"uint256"},{"name":"forVotes","type":"uint256","internalType":"uint256"},{"name":"abstainVotes","type":"uint256","internalType":"uint256"}],"stateMutability":"view"},{"type":"function","name":"propose","inputs":[{"name":"targets","type":"address[]","internalType":"address[]"},{"name":"values","type":"uint256[]","internalType":"uint256[]"},{"name":"calldatas","type":"bytes[]","internalType":"bytes[]"},{"name":"description","type":"string","internalType":"string"}],"outputs":[{"name":"","type":"uint256","internalType":"uint256"}],"stateMutability":"nonpayable"},{"type":"function","name":"proxiableUUID","inputs":[],"outputs":[{"name":"","type":"bytes32","internalType":"bytes32"}],"stateMutability":"view"},{"type":"function","name":"queue","inputs":[{"name":"targets","type":"address[]","internalType":"address[]"},{"name":"values","type":"uint256[]","internalType":"uint256[]"},{"name":"calldatas","type":"bytes[]","internalType":"bytes[]"},{"name":"descriptionHash","type":"bytes32","internalType":"bytes32"}],"outputs":[{"name":"","type":"uint256","internalType":"uint256"}],"stateMutability":"nonpayable"},{"type":"function","name":"quorum","inputs":[{"name":"","type":"uint256","internalType":"uint256"}],"outputs":[{"name":"","type":"uint256","internalType":"uint256"}],"stateMutability":"pure"},{"type":"function","name":"relay","inputs":[{"name":"target","type":"address","internalType":"address"},{"name":"value","type":"uint256","internalType":"uint256"},{"name":"data","type":"bytes","internalType":"bytes"}],"outputs":[],"stateMutability":"payable"},{"type":"function","name":"renounceRole","inputs":[{"name":"role","type":"bytes32","internalType":"bytes32"},{"name":"callerConfirmation","type":"address","internalType":"address"}],"outputs":[],"stateMutability":"nonpayable"},{"type":"function","name":"revokeRole","inputs":[{"name":"role","type":"bytes32","internalType":"bytes32"},{"name":"account","type":"address","internalType":"address"}],"outputs":[],"stateMutability":"nonpayable"},{"type":"function","name":"setProposalThreshold","inputs":[{"name":"newProposalThreshold","type":"uint256","internalType":"uint256"}],"outputs":[],"stateMutability":"nonpayable"},{"type":"function","name":"setVotingDelay","inputs":[{"name":"newVotingDelay","type":"uint48","internalType":"uint48"}],"outputs":[],"stateMutability":"nonpayable"},{"type":"function","name":"setVotingPeriod","inputs":[{"name":"newVotingPeriod","type":"uint32","internalType":"uint32"}],"outputs":[],"stateMutability":"nonpayable"},{"type":"function","name":"state","inputs":[{"name":"proposalId","type":"uint256","internalType":"uint256"}],"outputs":[{"name":"","type":"uint8","internalType":"enum IGovernor.ProposalState"}],"stateMutability":"view"},{"type":"function","name":"supportsInterface","inputs":[{"name":"interfaceId","type":"bytes4","internalType":"bytes4"}],"outputs":[{"name":"","type":"bool","internalType":"bool"}],"stateMutability":"view"},{"type":"function","name":"timelock","inputs":[],"outputs":[{"name":"","type":"address","internalType":"address"}],"stateMutability":"view"},{"type":"function","name":"token","inputs":[],"outputs":[{"name":"","type":"address","internalType":"contract IERC5805"}],"stateMutability":"view"},{"type":"function","name":"updateTimelock","inputs":[{"name":"newTimelock","type":"address","internalType":"contract TimelockControllerUpgradeable"}],"outputs":[],"stateMutability":"nonpayable"},{"type":"function","name":"upgradeToAndCall","inputs":[{"name":"newImplementation","type":"address","internalType":"address"},{"name":"data","type":"bytes","internalType":"bytes"}],"outputs":[],"stateMutability":"payable"},{"type":"function","name":"version","inputs":[],"outputs":[{"name":"","type":"string","internalType":"string"}],"stateMutability":"view"},{"type":"function","name":"votingDelay","inputs":[],"outputs":[{"name":"","type":"uint256","internalType":"uint256"}],"stateMutability":"view"},{"type":"function","name":"votingPeriod","inputs":[],"outputs":[{"name":"","type":"uint256","internalType":"uint256"}],"stateMutability":"view"},{"type":"event","name":"EIP712DomainChanged","inputs":[],"anonymous":false},{"type":"event","name":"Initialized","inputs":[{"name":"version","type":"uint64","indexed":false,"internalType":"uint64"}],"anonymous":false},{"type":"event","name":"ProposalCanceled","inputs":[{"name":"proposalId","type":"uint256","indexed":false,"internalType":"uint256"}],"anonymous":false},{"type":"event","name":"ProposalCreated","inputs":[{"name":"proposalId","type":"uint256","indexed":false,"internalType":"uint256"},{"name":"proposer","type":"address","indexed":false,"internalType":"address"},{"name":"targets","type":"address[]","indexed":false,"internalType":"address[]"},{"name":"values","type":"uint256[]","indexed":false,"internalType":"uint256[]"},{"name":"signatures","type":"string[]","indexed":false,"internalType":"string[]"},{"name":"calldatas","type":"bytes[]","indexed":false,"internalType":"bytes[]"},{"name":"voteStart","type":"uint256","indexed":false,"internalType":"uint256"},{"name":"voteEnd","type":"uint256","indexed":false,"internalType":"uint256"},{"name":"description","type":"string","indexed":false,"internalType":"string"}],"anonymous":false},{"type":"event","name":"ProposalExecuted","inputs":[{"name":"proposalId","type":"uint256","indexed":false,"internalType":"uint256"}],"anonymous":false},{"type":"event","name":"ProposalQueued","inputs":[{"name":"proposalId","type":"uint256","indexed":false,"internalType":"uint256"},{"name":"etaSeconds","type":"uint256","indexed":false,"internalType":"uint256"}],"anonymous":false},{"type":"event","name":"ProposalThresholdSet","inputs":[{"name":"oldProposalThreshold","type":"uint256","indexed":false,"internalType":"uint256"},{"name":"newProposalThreshold","type":"uint256","indexed":false,"internalType":"uint256"}],"anonymous":false},{"type":"event","name":"RoleAdminChanged","inputs":[{"name":"role","type":"bytes32","indexed":true,"internalType":"bytes32"},{"name":"previousAdminRole","type":"bytes32","indexed":true,"internalType":"bytes32"},{"name":"newAdminRole","type":"bytes32","indexed":true,"internalType":"bytes32"}],"anonymous":false},{"type":"event","name":"RoleGranted","inputs":[{"name":"role","type":"bytes32","indexed":true,"internalType":"bytes32"},{"name":"account","type":"address","indexed":true,"internalType":"address"},{"name":"sender","type":"address","indexed":true,"internalType":"address"}],"anonymous":false},{"type":"event","name":"RoleRevoked","inputs":[{"name":"role","type":"bytes32","indexed":true,"internalType":"bytes32"},{"name":"account","type":"address","indexed":true,"internalType":"address"},{"name":"sender","type":"address","indexed":true,"internalType":"address"}],"anonymous":false},{"type":"event","name":"TimelockChange","inputs":[{"name":"oldTimelock","type":"address","indexed":false,"internalType":"address"},{"name":"newTimelock","type":"address","indexed":false,"internalType":"address"}],"anonymous":false},{"type":"event","name":"Upgraded","inputs":[{"name":"implementation","type":"address","indexed":true,"internalType":"address"}],"anonymous":false},{"type":"event","name":"VoteCast","inputs":[{"name":"voter","type":"address","indexed":true,"internalType":"address"},{"name":"proposalId","type":"uint256","indexed":false,"internalType":"uint256"},{"name":"support","type":"uint8","indexed":false,"internalType":"uint8"},{"name":"weight","type":"uint256","indexed":false,"internalType":"uint256"},{"name":"reason","type":"string","indexed":false,"internalType":"string"}],"anonymous":false},{"type":"event","name":"VoteCastWithParams","inputs":[{"name":"voter","type":"address","indexed":true,"internalType":"address"},{"name":"proposalId","type":"uint256","indexed":false,"internalType":"uint256"},{"name":"support","type":"uint8","indexed":false,"internalType":"uint8"},{"name":"weight","type":"uint256","indexed":false,"internalType":"uint256"},{"name":"reason","type":"string","indexed":false,"internalType":"string"},{"name":"params","type":"bytes","indexed":false,"internalType":"bytes"}],"anonymous":false},{"type":"event","name":"VotingDelaySet","inputs":[{"name":"oldVotingDelay","type":"uint256","indexed":false,"internalType":"uint256"},{"name":"newVotingDelay","type":"uint256","indexed":false,"internalType":"uint256"}],"anonymous":false},{"type":"event","name":"VotingPeriodSet","inputs":[{"name":"oldVotingPeriod","type":"uint256","indexed":false,"internalType":"uint256"},{"name":"newVotingPeriod","type":"uint256","indexed":false,"internalType":"uint256"}],"anonymous":false},{"type":"error","name":"AccessControlBadConfirmation","inputs":[]},{"type":"error","name":"AccessControlUnauthorizedAccount","inputs":[{"name":"account","type":"address","internalType":"address"},{"name":"neededRole","type":"bytes32","internalType":"bytes32"}]},{"type":"error","name":"AddressEmptyCode","inputs":[{"name":"target","type":"address","internalType":"address"}]},{"type":"error","name":"ERC1967InvalidImplementation","inputs":[{"name":"implementation","type":"address","internalType":"address"}]},{"type":"error","name":"ERC1967NonPayable","inputs":[]},{"type":"error","name":"FailedInnerCall","inputs":[]},{"type":"error","name":"GovernorAlreadyCastVote","inputs":[{"name":"voter","type":"address","internalType":"address"}]},{"type":"error","name":"GovernorAlreadyQueuedProposal","inputs":[{"name":"proposalId","type":"uint256","internalType":"uint256"}]},{"type":"error","name":"GovernorDisabledDeposit","inputs":[]},{"type":"error","name":"GovernorInsufficientProposerVotes","inputs":[{"name":"proposer","type":"address","internalType":"address"},{"name":"votes","type":"uint256","internalType":"uint256"},{"name":"threshold","type":"uint256","internalType":"uint256"}]},{"type":"error","name":"GovernorInvalidProposalLength","inputs":[{"name":"targets","type":"uint256","internalType":"uint256"},{"name":"calldatas","type":"uint256","internalType":"uint256"},{"name":"values","type":"uint256","internalType":"uint256"}]},{"type":"error","name":"GovernorInvalidSignature","inputs":[{"name":"voter","type":"address","internalType":"address"}]},{"type":"error","name":"GovernorInvalidVoteType","inputs":[]},{"type":"error","name":"GovernorInvalidVotingPeriod","inputs":[{"name":"votingPeriod","type":"uint256","internalType":"uint256"}]},{"type":"error","name":"GovernorNonexistentProposal","inputs":[{"name":"proposalId","type":"uint256","internalType":"uint256"}]},{"type":"error","name":"GovernorNotQueuedProposal","inputs":[{"name":"proposalId","type":"uint256","internalType":"uint256"}]},{"type":"error","name":"GovernorOnlyExecutor","inputs":[{"name":"account","type":"address","internalType":"address"}]},{"type":"error","name":"GovernorOnlyProposer","inputs":[{"name":"account","type":"address","internalType":"address"}]},{"type":"error","name":"GovernorQueueNotImplemented","inputs":[]},{"type":"error","name":"GovernorRestrictedProposer","inputs":[{"name":"proposer","type":"address","internalType":"address"}]},{"type":"error","name":"GovernorUnexpectedProposalState","inputs":[{"name":"proposalId","type":"uint256","internalType":"uint256"},{"name":"current","type":"uint8","internalType":"enum IGovernor.ProposalState"},{"name":"expectedStates","type":"bytes32","internalType":"bytes32"}]},{"type":"error","name":"InvalidAccountNonce","inputs":[{"name":"account","type":"address","internalType":"address"},{"name":"currentNonce","type":"uint256","internalType":"uint256"}]},{"type":"error","name":"InvalidInitialization","inputs":[]},{"type":"error","name":"NotInitializing","inputs":[]},{"type":"error","name":"QueueEmpty","inputs":[]},{"type":"error","name":"QueueFull","inputs":[]},{"type":"error","name":"SafeCastOverflowedUintDowncast","inputs":[{"name":"bits","type":"uint8","internalType":"uint8"},{"name":"value","type":"uint256","internalType":"uint256"}]},{"type":"error","name":"UUPSUnauthorizedCallContext","inputs":[]},{"type":"error","name":"UUPSUnsupportedProxiableUUID","inputs":[{"name":"slot","type":"bytes32","internalType":"bytes32"}]}],"bytecode":{"object":"0x60a0806040523460c857306080527ff0c57e16840df040f15088dc2f81fe391c3923bec73e23a9662efc9c229c6a009081549060ff8260401c1660b957506001600160401b036002600160401b0319828216016075575b604051615b3f90816100cd82396080518181816114d601526116a40152f35b6001600160401b031990911681179091556040519081527fc7f505b2f371ae2175ee4913f4499e1f2633a7b5936321eed1cdaeb6115181d290602090a15f80806056565b63f92ee8a960e01b8152600490fd5b5f80fdfe60806040526004361015610022575b3615610018575f80fd5b6100206134db565b005b5f3560e01c806301ffc9a71461038157806302a251a31461037c57806306fdde0314610377578063143489d014610372578063150b7a021461036d578063160cbed714610368578063248a9ca3146103635780632656227d1461035e5780632d63f693146103595780632f2ff15d146103545780632fe3e2611461034f57806336568abe1461034a5780633932abb1146103455780633e4f49e614610340578063438596321461033b578063452115d6146103365780634bf5d7e9146103315780634f1ef2861461032c57806352d1902d14610327578063544ffc9c1461032257806354fd4d501461031d57806356781388146103185780635b8d0e0d146103135780635f398a141461030e57806379051887146103095780637b3c71d3146103045780637d5e81e2146102ff5780637ecebe00146102fa578063801ced9f146102f557806384b0196e146102f05780638ff262e3146102eb57806391d14854146102e657806391ddadf4146102e15780639a802a6d146102dc578063a217fddf146102d7578063a890c910146102d2578063a9a95294146102cd578063ab58fb8e146102c8578063ad3cb1cc146102c3578063b58131b0146102be578063bc197c81146102b9578063c01f9e37146102b4578063c28bc2fa146102af578063c59057e4146102aa578063d33219b4146102a5578063d547741f146102a0578063dd4e2ba51461029b578063deaaa7cc14610296578063e540d01d14610291578063eb9019d41461028c578063ece40cc114610287578063f23a6e6114610282578063f8ce560a1461027d5763fc0c546a0361000e5761282c565b612810565b61275f565b61273b565b612676565b612644565b61260a565b6125ad565b61254e565b6124fc565b6124e0565b612474565b612456565b61239d565b612362565b612305565b61229f565b612283565b6121c9565b6121af565b6120b7565b61208d565b61201a565b611e9f565b611dae565b611ad0565b611a55565b6119bb565b611965565b611938565b6118b8565b61182f565b6117b3565b611788565b61171e565b61167d565b611485565b611456565b611339565b6112b7565b61128a565b6111fe565b61118e565b611154565b6110f5565b6110a1565b610e50565b610e04565b610a96565b6107f6565b610632565b610511565b610494565b34610486576020600319360112610486576004357fffffffff00000000000000000000000000000000000000000000000000000000811680910361048657807f65455a86000000000000000000000000000000000000000000000000000000006020921490811561045c575b81156103ff575b506040519015158152f35b7f7965db0b00000000000000000000000000000000000000000000000000000000811491508115610432575b505f6103f4565b7f01ffc9a7000000000000000000000000000000000000000000000000000000009150145f61042b565b7f4e2312e000000000000000000000000000000000000000000000000000000000811491506103ed565b5f80fd5b5f91031261048657565b34610486575f60031936011261048657602063ffffffff7ed7616c8fe29c6c2fbe1d0c5bc8f2faa4c35b43746e70b24b4d532752affd015460301c16604051908152f35b90601f19601f602080948051918291828752018686015e5f8582860101520116010190565b90602061050e9281815201906104d8565b90565b34610486575f600319360112610486576040515f7f7c712897014dbe49c045ef1299aa2d5f9e67e48eea4403efa21f1e0f3ac0cb008054906105528261287e565b808552916020916001918281169081156105e7575060011461058f575b61058b8661057f81880382610766565b604051918291826104fd565b0390f35b5f90815293507fda13dda7583a39a3cd73e8830529c760837228fa4683752c823b17e10548aad55b8385106105d45750505050810160200161057f8261058b5f61056f565b80548686018401529382019381016105b7565b87965061058b9794506020935061057f9592507fffffffffffffffffffffffffffffffffffffffffffffffffffffffffffffff0091501682840152151560051b82010192935f61056f565b34610486576020600319360112610486576004355f527f7c712897014dbe49c045ef1299aa2d5f9e67e48eea4403efa21f1e0f3ac0cb01602052602073ffffffffffffffffffffffffffffffffffffffff60405f205416604051908152f35b73ffffffffffffffffffffffffffffffffffffffff81160361048657565b7f4e487b71000000000000000000000000000000000000000000000000000000005f52604160045260245ffd5b67ffffffffffffffff81116106f057604052565b6106af565b6020810190811067ffffffffffffffff8211176106f057604052565b60c0810190811067ffffffffffffffff8211176106f057604052565b6040810190811067ffffffffffffffff8211176106f057604052565b610100810190811067ffffffffffffffff8211176106f057604052565b90601f601f19910116810190811067ffffffffffffffff8211176106f057604052565b67ffffffffffffffff81116106f057601f01601f191660200190565b9291926107b182610789565b916107bf6040519384610766565b829481845281830111610486578281602093845f960137010152565b9080601f830112156104865781602061050e933591016107a5565b3461048657608060031936011261048657610812600435610691565b61081d602435610691565b60643567ffffffffffffffff81116104865761083d9036906004016107db565b5073ffffffffffffffffffffffffffffffffffffffff7f0d5829787b8befdbc6044ef7457d8a95c2a04bc99235349f1a212c063e59d400541630036108a7576040517f150b7a02000000000000000000000000000000000000000000000000000000008152602090f35b60046040517fe90a651e000000000000000000000000000000000000000000000000000000008152fd5b67ffffffffffffffff81116106f05760051b60200190565b9080601f83011215610486576020908235610903816108d1565b936109116040519586610766565b81855260208086019260051b82010192831161048657602001905b82821061093a575050505090565b838091833561094881610691565b81520191019061092c565b9080601f8301121561048657602090823561096d816108d1565b9361097b6040519586610766565b81855260208086019260051b82010192831161048657602001905b8282106109a4575050505090565b81358152908301908301610996565b81601f82011215610486578035916020916109cd846108d1565b936109db6040519586610766565b808552838086019160051b8301019280841161048657848301915b848310610a065750505050505090565b823567ffffffffffffffff8111610486578691610a28848480948901016107db565b8152019201916109f6565b60806003198201126104865767ffffffffffffffff916004358381116104865782610a60916004016108e9565b926024358181116104865783610a7891600401610953565b9260443591821161048657610a8f916004016109b3565b9060643590565b3461048657610aa436610a33565b909291610ab382858386613477565b92610abd8461353a565b507f0d5829787b8befdbc6044ef7457d8a95c2a04bc99235349f1a212c063e59d40094610b1a610b01875473ffffffffffffffffffffffffffffffffffffffff1690565b73ffffffffffffffffffffffffffffffffffffffff1690565b926040968751907ff27a0c9200000000000000000000000000000000000000000000000000000000825260209081836004818a5afa968715610da957610bc8988b945f99610ddb575b508391868989937fffffffffffffffffffffffffffffffffffffffff0000000000000000000000003060601b16189c8d9851988995869485947fb1c5f427000000000000000000000000000000000000000000000000000000008652600486016149bc565b03915afa8015610da957610c2f93610b01935f92610dae575b5050610c148a5f527f0d5829787b8befdbc6044ef7457d8a95c2a04bc99235349f1a212c063e59d40160205260405f2090565b555473ffffffffffffffffffffffffffffffffffffffff1690565b90813b15610486575f8094610c73878b51998a97889687957f8f2a0bb000000000000000000000000000000000000000000000000000000000875260048701614a01565b03925af1908115610da957610c9792610c9292610d90575b50426142c9565b615382565b65ffffffffffff811615610d6757917f9a2e42fd6722813d69113e7d0079d3d940171428df7373df9c7f7617cfda2892610d5684610d3861058b966001610d05885f527f7c712897014dbe49c045ef1299aa2d5f9e67e48eea4403efa21f1e0f3ac0cb0160205260405f2090565b019065ffffffffffff167fffffffffffffffffffffffffffffffffffffffffffffffffffff000000000000825416179055565b835185815265ffffffffffff90911660208201529081906040820190565b0390a1519081529081906020820190565b600483517f90884a46000000000000000000000000000000000000000000000000000000008152fd5b80610d9d610da3926106dc565b8061048a565b5f610c8b565b612adb565b610dcd9250803d10610dd4575b610dc58183610766565b810190613c86565b5f80610be1565b503d610dbb565b87919950918689610df98795863d8811610dd457610dc58183610766565b9b9350505091610b63565b34610486576020600319360112610486576004355f527f02dd7bc7dec4dceedda775e58dd541e08a116c6c53815c0bd028192f7b6268006020526020600160405f200154604051908152f35b610e5936610a33565b610e6881838587959697613477565b92610e72846135a5565b50610ef0610ea7855f527f7c712897014dbe49c045ef1299aa2d5f9e67e48eea4403efa21f1e0f3ac0cb0160205260405f2090565b7e010000000000000000000000000000000000000000000000000000000000007fff00ffffffffffffffffffffffffffffffffffffffffffffffffffffffffffff825416179055565b73ffffffffffffffffffffffffffffffffffffffff947f0d5829787b8befdbc6044ef7457d8a95c2a04bc99235349f1a212c063e59d40093868554163003611027575b9261058b9692610f4792610f649588614a4e565b3092541673ffffffffffffffffffffffffffffffffffffffff1690565b141580610fda575b610fad575b6040518181527f712ae1383f79ac853f8d882153778e0260ef8f03b504e2866e0593e04d2b291f90602090a16040519081529081906020820190565b610fd55f7f7c712897014dbe49c045ef1299aa2d5f9e67e48eea4403efa21f1e0f3ac0cb0255565b610f71565b5061102261101e7f7c712897014dbe49c045ef1299aa2d5f9e67e48eea4403efa21f1e0f3ac0cb02546fffffffffffffffffffffffffffffffff81169060801c1490565b1590565b610f6c565b9391959094925f5b85518110156110915760019030611066610b0161104c848b612ac2565b5173ffffffffffffffffffffffffffffffffffffffff1690565b14611072575b0161102f565b61108c61107f828b612ac2565b5160208151910120613610565b61106c565b5090959294919390929190610f33565b34610486576020600319360112610486576004355f527f7c712897014dbe49c045ef1299aa2d5f9e67e48eea4403efa21f1e0f3ac0cb01602052602065ffffffffffff60405f205460a01c16604051908152f35b346104865760406003193601126104865761002060243560043561111882610691565b805f527f02dd7bc7dec4dceedda775e58dd541e08a116c6c53815c0bd028192f7b62680060205261114f600160405f20015461374c565b6138f0565b34610486575f6003193601126104865760206040517f3e83946653575f9a39005e1545185629e92736b7528ab20ca3816f315424a8118152f35b34610486576040600319360112610486576024356111ab81610691565b3373ffffffffffffffffffffffffffffffffffffffff8216036111d457610020906004356139ee565b60046040517f6697b232000000000000000000000000000000000000000000000000000000008152fd5b34610486575f60031936011261048657602065ffffffffffff7ed7616c8fe29c6c2fbe1d0c5bc8f2faa4c35b43746e70b24b4d532752affd015416604051908152f35b7f4e487b71000000000000000000000000000000000000000000000000000000005f52602160045260245ffd5b6008111561127857565b611241565b9060088210156112785752565b346104865760206003193601126104865760206112a8600435613afb565b6112b5604051809261127d565bf35b3461048657604060031936011261048657602060ff61132d6024356112db81610691565b6004355f527fa1cefa0f43667ef127a258e673c94202a79b656e62899531c4376d87a7f398008452600360405f20019073ffffffffffffffffffffffffffffffffffffffff165f5260205260405f2090565b54166040519015158152f35b346104865761134736610a33565b90611356828285879697613477565b61135f81613afb565b60088110156112785760018060ff83161b161561141057505f527f7c712897014dbe49c045ef1299aa2d5f9e67e48eea4403efa21f1e0f3ac0cb0160205273ffffffffffffffffffffffffffffffffffffffff60405f20541633036113db5761058b936113cb93614ce8565b6040519081529081906020820190565b6040517f233d98e3000000000000000000000000000000000000000000000000000000008152336004820152602490fd5b0390fd5b9061144d606492604051927f31b75e4d0000000000000000000000000000000000000000000000000000000084526004840152602483019061127d565b60016044820152fd5b34610486575f6003193601126104865761058b611471612b1f565b6040519182916020835260208301906104d8565b604060031936011261048657600480359061149f82610691565b60243567ffffffffffffffff8111610486576114be90369083016107db565b73ffffffffffffffffffffffffffffffffffffffff807f00000000000000000000000000000000000000000000000000000000000000001680301490811561164f575b506116265790602083926115136136de565b604051938480927f52d1902d00000000000000000000000000000000000000000000000000000000825288165afa5f9281611605575b5061159d5750506040517f4c9c8ce300000000000000000000000000000000000000000000000000000000815273ffffffffffffffffffffffffffffffffffffffff90921690820190815281906020010390fd5b83837f360894a13ba1a3210667c828492db98dca3e2076cc3735a920a3ca505d382bbc84036115d0576100208383614f12565b6040517faa1d49a400000000000000000000000000000000000000000000000000000000815290810184815281906020010390fd5b61161f91935060203d602011610dd457610dc58183610766565b915f611549565b826040517fe07c8dba000000000000000000000000000000000000000000000000000000008152fd5b9050817f360894a13ba1a3210667c828492db98dca3e2076cc3735a920a3ca505d382bbc541614155f611501565b34610486575f6003193601126104865773ffffffffffffffffffffffffffffffffffffffff7f00000000000000000000000000000000000000000000000000000000000000001630036116f45760206040517f360894a13ba1a3210667c828492db98dca3e2076cc3735a920a3ca505d382bbc8152f35b60046040517fe07c8dba000000000000000000000000000000000000000000000000000000008152fd5b34610486576020600319360112610486576004355f527fa1cefa0f43667ef127a258e673c94202a79b656e62899531c4376d87a7f3980060205260405f20805461058b60026001840154930154604051938493846040919493926060820195825260208201520152565b34610486575f6003193601126104865761058b611471612c18565b6024359060ff8216820361048657565b346104865760406003193601126104865760206117f96117d16117a3565b6040516117dd816106f5565b5f8152604051916117ed836106f5565b5f835233600435613ea8565b604051908152f35b9181601f840112156104865782359167ffffffffffffffff8311610486576020838186019501011161048657565b346104865760c0600319360112610486576118486117a3565b6044359061185582610691565b67ffffffffffffffff9060643582811161048657611877903690600401611801565b6084358481116104865761188f9036906004016107db565b9160a4359485116104865761058b956118af6113cb9636906004016107db565b94600435612c51565b34610486576080600319360112610486576118d16117a3565b67ffffffffffffffff90604435828111610486576118f3903690600401611801565b90916064359384116104865761191e6117f99361191660209636906004016107db565b9336916107a5565b9033600435613ea8565b65ffffffffffff81160361048657565b346104865760206003193601126104865761002060043561195881611928565b611960614020565b6140d6565b346104865760606003193601126104865761197e6117a3565b60443567ffffffffffffffff8111610486576020916119ae6119a76117f9933690600401611801565b36916107a5565b604051916117ed836106f5565b346104865760806003193601126104865767ffffffffffffffff600435818111610486576119ed9036906004016108e9565b9060243581811161048657611a06903690600401610953565b9160443582811161048657611a1f9036906004016109b3565b60643592831161048657366023840112156104865761058b93611a4f6113cb9436906024816004013591016107a5565b92612dd5565b346104865760206003193601126104865773ffffffffffffffffffffffffffffffffffffffff600435611a8781610691565b165f527f5ab42ced628888259c08ac98db1eb0cf702fc1501344311d8b100cd1bfe4bb00602052602060405f2054604051908152f35b6064359063ffffffff8216820361048657565b346104865760c060031936011261048657600435611aed81610691565b602435611af981610691565b60443591611b0683611928565b611b0e611abd565b9060a43591611b1c83610691565b7ff0c57e16840df040f15088dc2f81fe391c3923bec73e23a9662efc9c229c6a00549467ffffffffffffffff60ff8760401c1615961680159081611cee575b6001149081611ce4575b159081611cdb575b50611cb157611bd49486611bc67ff0c57e16840df040f15088dc2f81fe391c3923bec73e23a9662efc9c229c6a0060017fffffffffffffffffffffffffffffffffffffffffffffffff0000000000000000825416179055565b611c55575b60843593612f86565b611bda57005b611c267ff0c57e16840df040f15088dc2f81fe391c3923bec73e23a9662efc9c229c6a007fffffffffffffffffffffffffffffffffffffffffffffff00ffffffffffffffff8154169055565b604051600181527fc7f505b2f371ae2175ee4913f4499e1f2633a7b5936321eed1cdaeb6115181d290602090a1005b611cac7ff0c57e16840df040f15088dc2f81fe391c3923bec73e23a9662efc9c229c6a00680100000000000000007fffffffffffffffffffffffffffffffffffffffffffffff00ffffffffffffffff825416179055565b611bcb565b60046040517ff92ee8a9000000000000000000000000000000000000000000000000000000008152fd5b9050155f611b6d565b303b159150611b65565b879150611b5b565b9081518082526020808093019301915f5b828110611d15575050505090565b835185529381019392810192600101611d07565b9193611d8f61050e969495611d8173ffffffffffffffffffffffffffffffffffffffff947f0f00000000000000000000000000000000000000000000000000000000000000875260e0602088015260e08701906104d8565b9085820360408701526104d8565b9460608401521660808201525f60a082015260c0818403910152611cf6565b34610486575f600319360112610486577fa16a46d94261c7517cc8ff89f61c0ce93598e3c849801011dee649a6a557d100541580611e76575b15611e1857611df46128cf565b611dfc6129d6565b9061058b611e08613220565b6040519384933091469186611d29565b60646040517f08c379a000000000000000000000000000000000000000000000000000000000815260206004820152601560248201527f4549503731323a20556e696e697469616c697a656400000000000000000000006044820152fd5b507fa16a46d94261c7517cc8ff89f61c0ce93598e3c849801011dee649a6a557d1015415611de7565b3461048657608060031936011261048657600435611ebb6117a3565b9060443591611ec983610691565b60643567ffffffffffffffff81116104865761101e611eef611fb89236906004016107db565b611fb2611f428773ffffffffffffffffffffffffffffffffffffffff165f527f5ab42ced628888259c08ac98db1eb0cf702fc1501344311d8b100cd1bfe4bb0060205260405f2080549060018201905590565b60405160208101917ff2aad550cf55f045cb27e9c559f9889fdfb6e6cdaa032301d6ea397784ae51d7835288604083015260ff8816606083015273ffffffffffffffffffffffffffffffffffffffff8a16608083015260a082015260a08152611faa81610711565b519020613cb0565b86613d4b565b611fd357906113cb9161058b93611fcd6122f3565b92613c95565b6040517f94ab6c0700000000000000000000000000000000000000000000000000000000815273ffffffffffffffffffffffffffffffffffffffff84166004820152602490fd5b3461048657604060031936011261048657602060ff61132d60243561203e81610691565b6004355f527f02dd7bc7dec4dceedda775e58dd541e08a116c6c53815c0bd028192f7b626800845260405f209073ffffffffffffffffffffffffffffffffffffffff165f5260205260405f2090565b34610486575f6003193601126104865760206120a7613236565b65ffffffffffff60405191168152f35b34610486576060600319360112610486576004356120d481610691565b60443567ffffffffffffffff8111610486576120f49036906004016107db565b50602073ffffffffffffffffffffffffffffffffffffffff6044817f3ba4977254e415696610a40ebf2258dbfa0ec6a2ff64e84bfe715ff16977cc0054169360405194859384927f3a46b1a800000000000000000000000000000000000000000000000000000000845216600483015260243560248301525afa8015610da95761058b915f91612190575b506040519081529081906020820190565b6121a9915060203d602011610dd457610dc58183610766565b5f61217f565b34610486575f6003193601126104865760206040515f8152f35b34610486576020600319360112610486576004356121e681610691565b6121ee614020565b7f0d5829787b8befdbc6044ef7457d8a95c2a04bc99235349f1a212c063e59d400907fffffffffffffffffffffffff000000000000000000000000000000000000000082547f08f74ea46ef7894f65eabfb5e6e695de773a000b47c529ab559178069b226401604073ffffffffffffffffffffffffffffffffffffffff8095169481519084168152856020820152a116179055005b3461048657602060031936011261048657602060405160018152f35b34610486576020600319360112610486576004355f527f7c712897014dbe49c045ef1299aa2d5f9e67e48eea4403efa21f1e0f3ac0cb01602052602065ffffffffffff600160405f20015416604051908152f35b60405190612300826106f5565b5f8252565b34610486575f6003193601126104865761058b6040516123248161072d565b600581527f352e302e3000000000000000000000000000000000000000000000000000000060208201526040519182916020835260208301906104d8565b34610486575f6003193601126104865760207ed7616c8fe29c6c2fbe1d0c5bc8f2faa4c35b43746e70b24b4d532752affd0054604051908152f35b346104865760a0600319360112610486576123b9600435610691565b6123c4602435610691565b67ffffffffffffffff604435818111610486576123e5903690600401610953565b50606435818111610486576123fe903690600401610953565b50608435908111610486576124179036906004016107db565b5061058b6124236132f2565b6040517fffffffff0000000000000000000000000000000000000000000000000000000090911681529081906020820190565b346104865760206003193601126104865760206117f9600435613354565b60606003193601126104865760043561248c81610691565b6044359067ffffffffffffffff8211610486575f80916124b3610020943690600401611801565b906124bc614020565b81604051928392833781018481520391602435905af16124da6133a3565b9061488c565b346104865760206117f96124f336610a33565b92919091613477565b34610486575f60031936011261048657602073ffffffffffffffffffffffffffffffffffffffff7f0d5829787b8befdbc6044ef7457d8a95c2a04bc99235349f1a212c063e59d4005416604051908152f35b346104865760406003193601126104865761002060243560043561257182610691565b805f527f02dd7bc7dec4dceedda775e58dd541e08a116c6c53815c0bd028192f7b6268006020526125a8600160405f20015461374c565b6139ee565b34610486575f6003193601126104865761058b6040516125cc8161072d565b602081527f737570706f72743d627261766f2671756f72756d3d666f722c6162737461696e60208201526040519182916020835260208301906104d8565b34610486575f6003193601126104865760206040517ff2aad550cf55f045cb27e9c559f9889fdfb6e6cdaa032301d6ea397784ae51d78152f35b346104865760206003193601126104865760043563ffffffff811681036104865761002090612671614020565b614899565b346104865760406003193601126104865760043561269381610691565b5f6040516126a0816106f5565b52602073ffffffffffffffffffffffffffffffffffffffff6044817f3ba4977254e415696610a40ebf2258dbfa0ec6a2ff64e84bfe715ff16977cc0054169360405194859384927f3a46b1a800000000000000000000000000000000000000000000000000000000845216600483015260243560248301525afa8015610da95761058b915f9161219057506040519081529081906020820190565b3461048657602060031936011261048657612754614020565b610020600435614968565b346104865760a06003193601126104865761277b600435610691565b612786602435610691565b60843567ffffffffffffffff8111610486576127a69036906004016107db565b5073ffffffffffffffffffffffffffffffffffffffff7f0d5829787b8befdbc6044ef7457d8a95c2a04bc99235349f1a212c063e59d400541630036108a7576040517ff23a6e61000000000000000000000000000000000000000000000000000000008152602090f35b3461048657602060031936011261048657602060405160048152f35b34610486575f60031936011261048657602073ffffffffffffffffffffffffffffffffffffffff7f3ba4977254e415696610a40ebf2258dbfa0ec6a2ff64e84bfe715ff16977cc005416604051908152f35b90600182811c921680156128c5575b602083101461289857565b7f4e487b71000000000000000000000000000000000000000000000000000000005f52602260045260245ffd5b91607f169161288d565b604051905f827fa16a46d94261c7517cc8ff89f61c0ce93598e3c849801011dee649a6a557d102918254926129038461287e565b808452936020916001918281169081156129915750600114612931575b50505061292f92500383610766565b565b5f9081527f42ad5d3e1f2e6e70edcf6d991b8a3023d3fca8047a131592f9edb9fd9b89d57d9590935091905b828410612979575061292f9450505081016020015f8080612920565b8554888501830152948501948794509281019261295d565b9150506020935061292f9592507fffffffffffffffffffffffffffffffffffffffffffffffffffffffffffffff0091501682840152151560051b8201015f8080612920565b604051905f827fa16a46d94261c7517cc8ff89f61c0ce93598e3c849801011dee649a6a557d10391825492612a0a8461287e565b808452936020916001918281169081156129915750600114612a355750505061292f92500383610766565b5f9081527f5f9ce34815f8e11431c7bb75a8e6886a91478f7ffc1dbb0a98dc240fddd76b759590935091905b828410612a7d575061292f9450505081016020015f8080612920565b85548885018301529485019487945092810192612a61565b7f4e487b71000000000000000000000000000000000000000000000000000000005f52603260045260245ffd5b8051821015612ad65760209160051b010190565b612a95565b6040513d5f823e3d90fd5b60405190612af38261072d565b601d82527f6d6f64653d626c6f636b6e756d6265722666726f6d3d64656661756c740000006020830152565b60045f73ffffffffffffffffffffffffffffffffffffffff7f3ba4977254e415696610a40ebf2258dbfa0ec6a2ff64e84bfe715ff16977cc005416604051928380927f4bf5d7e90000000000000000000000000000000000000000000000000000000082525afa5f9181612b9c575b5061050e575061050e612ae6565b9091503d805f833e612bae8183610766565b8101906020818303126104865780519067ffffffffffffffff8211610486570181601f8201121561048657805190612be582610789565b92612bf36040519485610766565b8284526020838301011161048657815f9260208093018386015e83010152905f612b8e565b60405190612c258261072d565b600182527f31000000000000000000000000000000000000000000000000000000000000006020830152565b93909291969561101e612d4691612d4087878c8b612cb58273ffffffffffffffffffffffffffffffffffffffff165f527f5ab42ced628888259c08ac98db1eb0cf702fc1501344311d8b100cd1bfe4bb0060205260405f2080549060018201905590565b73ffffffffffffffffffffffffffffffffffffffff612cd5368c8e6107a5565b6020815191012092602081519101209360ff6040519660208801987f3e83946653575f9a39005e1545185629e92736b7528ab20ca3816f315424a8118a52604089015216606087015216608085015260a084015260c083015260e082015260e08152611faa81610749565b8a613d4b565b612d615761050e959691612d5b9136916107a5565b92613ea8565b6040517f94ab6c0700000000000000000000000000000000000000000000000000000000815273ffffffffffffffffffffffffffffffffffffffff88166004820152602490fd5b7f4e487b71000000000000000000000000000000000000000000000000000000005f52601160045260245ffd5b9193929093612de48233614199565b15612f565765ffffffffffff947fffffffffffffffffffffffffffffffffffffffffffffffffffffffffffffffff86612e1b613236565b160195808711612f51576020905f604051612e35816106f5565b52604473ffffffffffffffffffffffffffffffffffffffff7f3ba4977254e415696610a40ebf2258dbfa0ec6a2ff64e84bfe715ff16977cc00541698604051998a9384927f3a46b1a80000000000000000000000000000000000000000000000000000000084523360048501521660248301525afa958615610da9575f96612f30575b507ed7616c8fe29c6c2fbe1d0c5bc8f2faa4c35b43746e70b24b4d532752affd005495868110612ef0575061050e94955033936143f9565b6040517fc242ee16000000000000000000000000000000000000000000000000000000008152336004820152602481019190915260448101879052606490fd5b612f4a91965060203d602011610dd457610dc58183610766565b945f612eb8565b612da8565b60246040517fd9b39557000000000000000000000000000000000000000000000000000000008152336004820152fd5b91959493909260405196612f998861072d565b600c88526020977f416e6465476f7665726e6f7200000000000000000000000000000000000000006020820152612fce615416565b612fd6612c18565b98612fdf615416565b815167ffffffffffffffff81116106f0577fa16a46d94261c7517cc8ff89f61c0ce93598e3c849801011dee649a6a557d1029161302582613020855461287e565b61546f565b602090601f83116001146131315750936130fe613103946130a96131239d9e61310e9c9a966130a2876131089c9873ffffffffffffffffffffffffffffffffffffffff9f9c5f91613126575b507fffffffffffffffffffffffffffffffffffffffffffffffffffffffffffffffff8260011b9260031b1c19161790565b9055615613565b6130d15f7fa16a46d94261c7517cc8ff89f61c0ce93598e3c849801011dee649a6a557d10055565b6130f95f7fa16a46d94261c7517cc8ff89f61c0ce93598e3c849801011dee649a6a557d10155565b615778565b6146b4565b6146d5565b16614746565b613116615416565b61311e615416565b6137e1565b50565b90508601515f613071565b7fa16a46d94261c7517cc8ff89f61c0ce93598e3c849801011dee649a6a557d1025f5290601f1983167f42ad5d3e1f2e6e70edcf6d991b8a3023d3fca8047a131592f9edb9fd9b89d57d925f905b828210613208575050946130a96131239d9e61310e9c9a9660018773ffffffffffffffffffffffffffffffffffffffff9e9b976130fe976131089e9a6131039d106131d1575b5050811b019055615613565b8701517fffffffffffffffffffffffffffffffffffffffffffffffffffffffffffffffff60f88460031b161c191690555f806131c5565b80600185968294968b0151815501950193019061317f565b60405161322c816106f5565b5f8152905f368137565b6004602073ffffffffffffffffffffffffffffffffffffffff7f3ba4977254e415696610a40ebf2258dbfa0ec6a2ff64e84bfe715ff16977cc005416604051928380927f91ddadf40000000000000000000000000000000000000000000000000000000082525afa5f91816132b5575b5061050e575061050e43615382565b9091506020813d6020116132ea575b816132d160209383610766565b8101031261048657516132e381611928565b905f6132a6565b3d91506132c4565b73ffffffffffffffffffffffffffffffffffffffff7f0d5829787b8befdbc6044ef7457d8a95c2a04bc99235349f1a212c063e59d400541630036108a7577fbc197c810000000000000000000000000000000000000000000000000000000090565b5f527f7c712897014dbe49c045ef1299aa2d5f9e67e48eea4403efa21f1e0f3ac0cb0160205260405f205465ffffffffffff908163ffffffff8260d01c169160a01c1601818111612f51571690565b3d156133cd573d906133b482610789565b916133c26040519384610766565b82523d5f602084013e565b606090565b9081518082526020808093019301915f5b8281106133f1575050505090565b835173ffffffffffffffffffffffffffffffffffffffff16855293810193928101926001016133e3565b90808251908181526020809101926020808460051b8301019501935f915b8483106134495750505050505090565b909192939495848061346783601f1986600196030187528a516104d8565b9801930193019194939290613439565b92906134c3926134d5926040519485926134b36134a0602086019960808b5260a08701906133d2565b601f199687878303016040880152611cf6565b908585830301606086015261341b565b90608083015203908101835282610766565b51902090565b73ffffffffffffffffffffffffffffffffffffffff7f0d5829787b8befdbc6044ef7457d8a95c2a04bc99235349f1a212c063e59d400541630036108a757565b6040906135365f93959460608301968352602083019061127d565b0152565b61354381613afb565b906008821015611278576010600160ff84161b1615613560575090565b61359c606492604051927f31b75e4d0000000000000000000000000000000000000000000000000000000084526004840152602483019061127d565b60106044820152fd5b6135ae81613afb565b906008821015611278576030600160ff84161b16156135cb575090565b613607606492604051927f31b75e4d0000000000000000000000000000000000000000000000000000000084526004840152602483019061127d565b60306044820152fd5b7f7c712897014dbe49c045ef1299aa2d5f9e67e48eea4403efa21f1e0f3ac0cb029081548060801c9160018301926fffffffffffffffffffffffffffffffff809316838516146136b4575f527f7c712897014dbe49c045ef1299aa2d5f9e67e48eea4403efa21f1e0f3ac0cb0360205260405f20557fffffffffffffffffffffffffffffffff0000000000000000000000000000000083549260801b169116179055565b60046040517f8acb5f27000000000000000000000000000000000000000000000000000000008152fd5b335f9081527fb7db2dd08fcb62d0c9e08c51941cae53c267786a0b75803fb7960902fc8ef97d602052604090205460ff161561371657565b60446040517fe2517d3f0000000000000000000000000000000000000000000000000000000081523360048201525f6024820152fd5b805f527f02dd7bc7dec4dceedda775e58dd541e08a116c6c53815c0bd028192f7b62680060205260ff6137a03360405f209073ffffffffffffffffffffffffffffffffffffffff165f5260205260405f2090565b5416156137aa5750565b604490604051907fe2517d3f0000000000000000000000000000000000000000000000000000000082523360048301526024820152fd5b73ffffffffffffffffffffffffffffffffffffffff81165f9081527fb7db2dd08fcb62d0c9e08c51941cae53c267786a0b75803fb7960902fc8ef97d60205260409020547f02dd7bc7dec4dceedda775e58dd541e08a116c6c53815c0bd028192f7b6268009060ff166138ea575f805260205261387f8160405f209073ffffffffffffffffffffffffffffffffffffffff165f5260205260405f2090565b60017fffffffffffffffffffffffffffffffffffffffffffffffffffffffffffffff0082541617905573ffffffffffffffffffffffffffffffffffffffff3391165f7f2f8788117e7eff1d82e926ec794901d17c78024a50270940304540a733656f0d8180a4600190565b50505f90565b805f527f02dd7bc7dec4dceedda775e58dd541e08a116c6c53815c0bd028192f7b6268008060205260ff6139458460405f209073ffffffffffffffffffffffffffffffffffffffff165f5260205260405f2090565b54166139e757815f5260205261397c8260405f209073ffffffffffffffffffffffffffffffffffffffff165f5260205260405f2090565b60017fffffffffffffffffffffffffffffffffffffffffffffffffffffffffffffff0082541617905573ffffffffffffffffffffffffffffffffffffffff339216907f2f8788117e7eff1d82e926ec794901d17c78024a50270940304540a733656f0d5f80a4600190565b5050505f90565b805f527f02dd7bc7dec4dceedda775e58dd541e08a116c6c53815c0bd028192f7b6268008060205260ff613a438460405f209073ffffffffffffffffffffffffffffffffffffffff165f5260205260405f2090565b5416156139e757815f52602052613a7b8260405f209073ffffffffffffffffffffffffffffffffffffffff165f5260205260405f2090565b7fffffffffffffffffffffffffffffffffffffffffffffffffffffffffffffff00815416905573ffffffffffffffffffffffffffffffffffffffff339216907ff6391f5c32d9c69d2a47ea670b442974b53935d1edc7fd64eb21e047a839171b5f80a4600190565b90816020910312610486575180151581036104865790565b613b0481614b4d565b90613b0e8261126e565b60058203613c8257613b4891505f527f0d5829787b8befdbc6044ef7457d8a95c2a04bc99235349f1a212c063e59d40160205260405f2090565b54613b8a610b017f0d5829787b8befdbc6044ef7457d8a95c2a04bc99235349f1a212c063e59d4005473ffffffffffffffffffffffffffffffffffffffff1690565b6040517f584b153e0000000000000000000000000000000000000000000000000000000081526004810183905260209291908381602481855afa908115610da9575f91613c65575b5015613be057505050600590565b6040517f2ab0f52900000000000000000000000000000000000000000000000000000000815260048101929092528290829060249082905afa918215610da9575f92613c38575b505015613c3357600790565b600290565b613c579250803d10613c5e575b613c4f8183610766565b810190613ae3565b5f80613c27565b503d613c45565b613c7c9150843d8611613c5e57613c4f8183610766565b5f613bd2565b5090565b90816020910312610486575190565b9161050e939160405193613ca8856106f5565b5f8552613ea8565b604290613cbb615a5a565b613cc3615ac4565b6040519060208201927f8b73c3c69bb8fe3d512ecc4cf759cc79239f7b179b0ffacaa9a75d522b39400f8452604083015260608201524660808201523060a082015260a08152613d1281610711565b51902090604051917f19010000000000000000000000000000000000000000000000000000000000008352600283015260228201522090565b613d558383615028565b50600481959295101561127857159384613e25575b508315613d78575b50505090565b5f929350908291604051613dd781613dc960208201947f1626ba7e00000000000000000000000000000000000000000000000000000000998a875260248401526040604484015260648301906104d8565b03601f198101835282610766565b51915afa90613de46133a3565b82613e17575b82613dfa575b50505f8080613d72565b613e0f91925060208082518301019101613c86565b145f80613df0565b915060208251101591613dea565b73ffffffffffffffffffffffffffffffffffffffff83811691161493505f613d6a565b93909260ff613e749361050e97958752166020860152604085015260a0606085015260a08401906104d8565b9160808184039101526104d8565b909260ff60809361050e96958452166020830152604082015281606082015201906104d8565b92909193613eb584613afb565b6008811015611278576002600160ff83161b1615613fda5750613f28613f22613f17613f08875f527f7c712897014dbe49c045ef1299aa2d5f9e67e48eea4403efa21f1e0f3ac0cb0160205260405f2090565b5460a01c65ffffffffffff1690565b65ffffffffffff1690565b846147eb565b948591613f3783838789615062565b8051613f8f575073ffffffffffffffffffffffffffffffffffffffff927fb8e138887d0aa13bab447e82de9d5c1777041ecd21ca36ba824ff1e6c07ddda49492613f8992604051958695169785613e82565b0390a290565b73ffffffffffffffffffffffffffffffffffffffff937fe2babfbac5889a709b63bb7f598b324e08bc5a4fb9ec647fb3cbc9ec07eb87129593613f8993604051968796169886613e48565b84614017606492604051927f31b75e4d0000000000000000000000000000000000000000000000000000000084526004840152602483019061127d565b60026044820152fd5b73ffffffffffffffffffffffffffffffffffffffff7f0d5829787b8befdbc6044ef7457d8a95c2a04bc99235349f1a212c063e59d40054163381036140a657300361406757565b61407036610789565b61407d6040519182610766565b3681526020810190365f83375f602036830101525190205b8061409e6151e0565b036140955750565b60246040517f47096e47000000000000000000000000000000000000000000000000000000008152336004820152fd5b7ed7616c8fe29c6c2fbe1d0c5bc8f2faa4c35b43746e70b24b4d532752affd01907fffffffffffffffffffffffffffffffffffffffffffffffffffff00000000000082547fc565b045403dc03c2eea82b81a0465edad9e2e7fc4d97e11421c209da93d7a93604065ffffffffffff81519581851687521694856020820152a116179055565b907fffffffffffffffffffffffffffffffffffffffffffffffffffffffffffffffd88201918211612f5157565b908151811015612ad6570160200190565b8151603481106142c1577f2370726f706f7365723d307800000000000000000000000000000000000000007fffffffffffffffffffffffff00000000000000000000000000000000000000007fffffffffffffffffffffffffffffffffffffffffffffffffffffffffffffffec838601015116036142c157915f9261421d8161415b565b915b8183106142475750505073ffffffffffffffffffffffffffffffffffffffff80911691161490565b90919361428561428061425a8785614188565b517fff000000000000000000000000000000000000000000000000000000000000001690565b6152ab565b9190156142b65773fffffffffffffffffffffffffffffffffffffff060ff600193169160041b16179401919061421f565b505050505050600190565b505050600190565b91908201809211612f5157565b906142e0826108d1565b6142ed6040519182610766565b828152601f196142fd82946108d1565b01905f5b82811061430d57505050565b806060602080938501015201614301565b95926143609061436e939b9a989996959261012090895273ffffffffffffffffffffffffffffffffffffffff60209d168d8a01528060408a01528801906133d2565b908682036060880152611cf6565b9784890360808601528251808a52818a019180808360051b8d01019501925f905b8382106143cc57505050505061050e969750906143b39184820360a086015261341b565b9360c083015260e08201526101008184039101526104d8565b909192939583806143ea8f93601f1960019582030186528a516104d8565b9801920192019093929161438f565b91949390929461441186516020880120828686613477565b9583518551908181148015906146a9575b80156146a1575b61465f57505065ffffffffffff948561446c613f088a5f527f7c712897014dbe49c045ef1299aa2d5f9e67e48eea4403efa21f1e0f3ac0cb0160205260405f2090565b1661461f577f7d84a6263ae0d98d3329bd7b46bb4e8d6f98cd35a7adb45c274c8b7fd5ebd5e09561461a9363ffffffff6144d36144a7613236565b7ed7616c8fe29c6c2fbe1d0c5bc8f2faa4c35b43746e70b24b4d532752affd01549480861691166142c9565b9260301c166145f861450c8c5f527f7c712897014dbe49c045ef1299aa2d5f9e67e48eea4403efa21f1e0f3ac0cb0160205260405f2090565b80547fffffffffffffffffffffffff00000000000000000000000000000000000000001673ffffffffffffffffffffffffffffffffffffffff8a161781556145a161455686615382565b82547fffffffffffff000000000000ffffffffffffffffffffffffffffffffffffffff1660a09190911b79ffffffffffff000000000000000000000000000000000000000016178255565b6145aa836153cd565b7fffff00000000ffffffffffffffffffffffffffffffffffffffffffffffffffff7dffffffff000000000000000000000000000000000000000000000000000083549260d01b169116179055565b61460c61460589516142d6565b91846142c9565b936040519889988d8a61431e565b0390a1565b8761462981613afb565b9061140c6040519283927f31b75e4d0000000000000000000000000000000000000000000000000000000084526004840161351b565b83516040517f447b05d0000000000000000000000000000000000000000000000000000000008152600481019290925260248201526044810191909152606490fd5b508015614429565b508351811415614422565b61292f92916126716146d0926146c8615416565b611960615416565b614968565b6146dd615416565b6146e5615416565b73ffffffffffffffffffffffffffffffffffffffff7f3ba4977254e415696610a40ebf2258dbfa0ec6a2ff64e84bfe715ff16977cc0091167fffffffffffffffffffffffff0000000000000000000000000000000000000000825416179055565b61474e615416565b614756615416565b7f0d5829787b8befdbc6044ef7457d8a95c2a04bc99235349f1a212c063e59d400907fffffffffffffffffffffffff000000000000000000000000000000000000000082547f08f74ea46ef7894f65eabfb5e6e695de773a000b47c529ab559178069b226401604073ffffffffffffffffffffffffffffffffffffffff8095169481519084168152856020820152a116179055565b602090604473ffffffffffffffffffffffffffffffffffffffff91827f3ba4977254e415696610a40ebf2258dbfa0ec6a2ff64e84bfe715ff16977cc00541660405195869485937f3a46b1a800000000000000000000000000000000000000000000000000000000855216600484015260248301525afa908115610da9575f91614873575090565b61050e915060203d602011610dd457610dc58183610766565b90919061292f57506158a1565b63ffffffff908181169081156149385769ffffffff0000000000007fffffffffffffffffffffffffffffffffffffffffffff00000000ffffffffffff917f7e3f7f0708a84de9203036abaa450dccc85ad5ff52f78c170f3edb55cf5e882860407ed7616c8fe29c6c2fbe1d0c5bc8f2faa4c35b43746e70b24b4d532752affd01968754968251918860301c1682526020820152a160301b169116179055565b60246040517ff1cfbf050000000000000000000000000000000000000000000000000000000081525f6004820152fd5b7ed7616c8fe29c6c2fbe1d0c5bc8f2faa4c35b43746e70b24b4d532752affd007fccb45da8d5717e6c4544694297c4ba5cf151d455c9bb0ed4fc7a38411bc05461604082548151908152846020820152a155565b9493926149e86080936149da6149f69460a08a5260a08a01906133d2565b9088820360208a0152611cf6565b90868203604088015261341b565b935f60608201520152565b9192614a3060a094614a22614a3e949998979960c0875260c08701906133d2565b908582036020870152611cf6565b90838203604085015261341b565b945f606083015260808201520152565b9290939173ffffffffffffffffffffffffffffffffffffffff7f0d5829787b8befdbc6044ef7457d8a95c2a04bc99235349f1a212c063e59d400541690813b15610486575f93614af5604051978895869485947fe38335e50000000000000000000000000000000000000000000000000000000086527fffffffffffffffffffffffffffffffffffffffff0000000000000000000000003060601b161892600486016149bc565b039134905af1908115610da9575f92614b3b92614b3e575b505f527f0d5829787b8befdbc6044ef7457d8a95c2a04bc99235349f1a212c063e59d40160205260405f2090565b55565b614b47906106dc565b5f614b0d565b614b7e815f527f7c712897014dbe49c045ef1299aa2d5f9e67e48eea4403efa21f1e0f3ac0cb0160205260405f2090565b5460ff8160f01c16614ce15760f81c614cdb57614bc8613f17613f08835f527f7c712897014dbe49c045ef1299aa2d5f9e67e48eea4403efa21f1e0f3ac0cb0160205260405f2090565b8015614ca957614bd9613f17613236565b809110156138ea57614bea82613354565b10614bf55750600190565b614c0161101e826158da565b8015614c67575b15614c135750600390565b613f176001614c4c614c59935f527f7c712897014dbe49c045ef1299aa2d5f9e67e48eea4403efa21f1e0f3ac0cb0160205260405f2090565b015465ffffffffffff1690565b614c6257600490565b600590565b50614ca461101e825f527fa1cefa0f43667ef127a258e673c94202a79b656e62899531c4376d87a7f3980060205260405f20600181015490541090565b614c08565b6040517f6ad0607500000000000000000000000000000000000000000000000000000000815260048101839052602490fd5b50600290565b5050600790565b90614cf4939291613477565b614cfd81613afb565b600881101561127857603b600160ff83161b1615614ecc5750614d93614d4a825f527f7c712897014dbe49c045ef1299aa2d5f9e67e48eea4403efa21f1e0f3ac0cb0160205260405f2090565b7f01000000000000000000000000000000000000000000000000000000000000007effffffffffffffffffffffffffffffffffffffffffffffffffffffffffffff825416179055565b6040518181527f789cf55be980739dad1d0699b93b58e806b51c9d96619bfa8fe0a28abaa7b30c90602090a1614df0815f527f0d5829787b8befdbc6044ef7457d8a95c2a04bc99235349f1a212c063e59d40160205260405f2090565b5480614dfa575090565b614e3b610b017f0d5829787b8befdbc6044ef7457d8a95c2a04bc99235349f1a212c063e59d4005473ffffffffffffffffffffffffffffffffffffffff1690565b803b15610486576040517fc4d252f500000000000000000000000000000000000000000000000000000000815260048101929092525f908290602490829084905af18015610da957614eb9575b505f8181527f0d5829787b8befdbc6044ef7457d8a95c2a04bc99235349f1a212c063e59d401602052604081205590565b80610d9d614ec6926106dc565b5f614e88565b90614f09606492604051927f31b75e4d0000000000000000000000000000000000000000000000000000000084526004840152602483019061127d565b603b6044820152fd5b90813b15614fe15773ffffffffffffffffffffffffffffffffffffffff82167f360894a13ba1a3210667c828492db98dca3e2076cc3735a920a3ca505d382bbc817fffffffffffffffffffffffff00000000000000000000000000000000000000008254161790557fbc7cd75a20ee27fd9adebab32041f755214dbc6bffa90cc0225b39da2e5c2d3b5f80a2805115614fae5761312391615942565b505034614fb757565b60046040517fb398979f000000000000000000000000000000000000000000000000000000008152fd5b60248273ffffffffffffffffffffffffffffffffffffffff604051917f4c9c8ce3000000000000000000000000000000000000000000000000000000008352166004820152fd5b8151919060418303615058576150519250602082015190606060408401519301515f1a9061595f565b9192909190565b50505f9160029190565b615096909291925f527fa1cefa0f43667ef127a258e673c94202a79b656e62899531c4376d87a7f3980060205260405f2090565b91600383016150cd6150c683839073ffffffffffffffffffffffffffffffffffffffff165f5260205260405f2090565b5460ff1690565b615199576150ff60ff939261512a929073ffffffffffffffffffffffffffffffffffffffff165f5260205260405f2090565b60017fffffffffffffffffffffffffffffffffffffffffffffffffffffffffffffff00825416179055565b168061514157509061513d9082546142c9565b9055565b600181036151595750600161513d91019182546142c9565b60020361516f57600261513d91019182546142c9565b60046040517f06b337c2000000000000000000000000000000000000000000000000000000008152fd5b6040517f71c6af4900000000000000000000000000000000000000000000000000000000815273ffffffffffffffffffffffffffffffffffffffff83166004820152602490fd5b7f7c712897014dbe49c045ef1299aa2d5f9e67e48eea4403efa21f1e0f3ac0cb02908154916fffffffffffffffffffffffffffffffff8084169360801c841461528157835f527f7c712897014dbe49c045ef1299aa2d5f9e67e48eea4403efa21f1e0f3ac0cb03602052600160405f20945f8654965501167fffffffffffffffffffffffffffffffff00000000000000000000000000000000825416179055565b60046040517f75e52f4f000000000000000000000000000000000000000000000000000000008152fd5b60f81c9081602f1080615378575b156152e95760ff7fffffffffffffffffffffffffffffffffffffffffffffffffffffffffffffffd0600193011690565b816040108061536e575b156153235760ff7fffffffffffffffffffffffffffffffffffffffffffffffffffffffffffffffc9600193011690565b8160601080615364575b1561535d5760ff7fffffffffffffffffffffffffffffffffffffffffffffffffffffffffffffffa9600193011690565b5f91508190565b506067821061532d565b50604782106152f3565b50603a82106152b9565b65ffffffffffff90818111615395571690565b604490604051907f6dfcc650000000000000000000000000000000000000000000000000000000008252603060048301526024820152fd5b63ffffffff908181116153de571690565b604490604051907f6dfcc650000000000000000000000000000000000000000000000000000000008252602060048301526024820152fd5b60ff7ff0c57e16840df040f15088dc2f81fe391c3923bec73e23a9662efc9c229c6a005460401c161561544557565b60046040517fd7e6bcf8000000000000000000000000000000000000000000000000000000008152fd5b601f811161547b575050565b7fa16a46d94261c7517cc8ff89f61c0ce93598e3c849801011dee649a6a557d1025f527f42ad5d3e1f2e6e70edcf6d991b8a3023d3fca8047a131592f9edb9fd9b89d57d906020601f840160051c830193106154f1575b601f0160051c01905b8181106154e6575050565b5f81556001016154db565b90915081906154d2565b601f8111615507575050565b7f7c712897014dbe49c045ef1299aa2d5f9e67e48eea4403efa21f1e0f3ac0cb005f527fda13dda7583a39a3cd73e8830529c760837228fa4683752c823b17e10548aad5906020601f840160051c8301931061557d575b601f0160051c01905b818110615572575050565b5f8155600101615567565b909150819061555e565b601f8111615593575050565b7fa16a46d94261c7517cc8ff89f61c0ce93598e3c849801011dee649a6a557d1035f527f5f9ce34815f8e11431c7bb75a8e6886a91478f7ffc1dbb0a98dc240fddd76b75906020601f840160051c83019310615609575b601f0160051c01905b8181106155fe575050565b5f81556001016155f3565b90915081906155ea565b90815167ffffffffffffffff81116106f0577fa16a46d94261c7517cc8ff89f61c0ce93598e3c849801011dee649a6a557d1039061565a81615655845461287e565b615587565b602080601f83116001146156b55750819061513d9394955f926156aa575b50507fffffffffffffffffffffffffffffffffffffffffffffffffffffffffffffffff8260011b9260031b1c19161790565b015190505f80615678565b90601f198316956157067fa16a46d94261c7517cc8ff89f61c0ce93598e3c849801011dee649a6a557d1035f527f5f9ce34815f8e11431c7bb75a8e6886a91478f7ffc1dbb0a98dc240fddd76b7590565b925f905b88821061576057505083600195969710615729575b505050811b019055565b01517fffffffffffffffffffffffffffffffffffffffffffffffffffffffffffffffff60f88460031b161c191690555f808061571f565b8060018596829496860151815501950193019061570a565b90615781615416565b815167ffffffffffffffff81116106f0577f7c712897014dbe49c045ef1299aa2d5f9e67e48eea4403efa21f1e0f3ac0cb00906157c7816157c2845461287e565b6154fb565b602080601f83116001146158165750819061513d9394955f926156aa5750507fffffffffffffffffffffffffffffffffffffffffffffffffffffffffffffffff8260011b9260031b1c19161790565b90601f198316956158677f7c712897014dbe49c045ef1299aa2d5f9e67e48eea4403efa21f1e0f3ac0cb005f527fda13dda7583a39a3cd73e8830529c760837228fa4683752c823b17e10548aad590565b925f905b8882106158895750508360019596971061572957505050811b019055565b8060018596829496860151815501950193019061586b565b8051156158b057805190602001fd5b60046040517f1425ea42000000000000000000000000000000000000000000000000000000008152fd5b5f527fa1cefa0f43667ef127a258e673c94202a79b656e62899531c4376d87a7f3980060205260405f207f7c712897014dbe49c045ef1299aa2d5f9e67e48eea4403efa21f1e0f3ac0cb01602052600260018201549101548101809111612f51576004111590565b5f8061050e93602081519101845af46159596133a3565b916159ee565b91907f7fffffffffffffffffffffffffffffff5d576e7357a4501ddfe92f46681b20a084116159e3579160209360809260ff5f9560405194855216868401526040830152606082015282805260015afa15610da9575f5173ffffffffffffffffffffffffffffffffffffffff8116156159d957905f905f90565b505f906001905f90565b5050505f9160039190565b906159f957506158a1565b81511580615a51575b615a0a575090565b60249073ffffffffffffffffffffffffffffffffffffffff604051917f9996b315000000000000000000000000000000000000000000000000000000008352166004820152fd5b50803b15615a02565b615a626128cf565b8051908115615a72576020012090565b50507fa16a46d94261c7517cc8ff89f61c0ce93598e3c849801011dee649a6a557d100548015615a9f5790565b507fc5d2460186f7233c927e7db2dcc703c0e500b653ca82273b7bfad8045d85a47090565b615acc6129d6565b8051908115615adc576020012090565b50507fa16a46d94261c7517cc8ff89f61c0ce93598e3c849801011dee649a6a557d101548015615a9f579056fea2646970667358221220ee9d0e4e836c383b3ace239c8c80aaee5d709a8f053f6e0ab170e03fcc8feb5564736f6c63430008190033","linkReferences":{}},"methodIdentifiers":{"BALLOT_TYPEHASH()":"deaaa7cc","CLOCK_MODE()":"4bf5d7e9","COUNTING_MODE()":"dd4e2ba5","DEFAULT_ADMIN_ROLE()":"a217fddf","EXTENDED_BALLOT_TYPEHASH()":"2fe3e261","UPGRADE_INTERFACE_VERSION()":"ad3cb1cc","cancel(address[],uint256[],bytes[],bytes32)":"452115d6","castVote(uint256,uint8)":"56781388","castVoteBySig(uint256,uint8,address,bytes)":"8ff262e3","castVoteWithReason(uint256,uint8,string)":"7b3c71d3","castVoteWithReasonAndParams(uint256,uint8,string,bytes)":"5f398a14","castVoteWithReasonAndParamsBySig(uint256,uint8,address,string,bytes,bytes)":"5b8d0e0d","clock()":"91ddadf4","eip712Domain()":"84b0196e","execute(address[],uint256[],bytes[],bytes32)":"2656227d","getRoleAdmin(bytes32)":"248a9ca3","getVotes(address,uint256)":"eb9019d4","getVotesWithParams(address,uint256,bytes)":"9a802a6d","grantRole(bytes32,address)":"2f2ff15d","hasRole(bytes32,address)":"91d14854","hasVoted(uint256,address)":"43859632","hashProposal(address[],uint256[],bytes[],bytes32)":"c59057e4","initialize(address,address,uint48,uint32,uint256,address)":"801ced9f","name()":"06fdde03","nonces(address)":"7ecebe00","onERC1155BatchReceived(address,address,uint256[],uint256[],bytes)":"bc197c81","onERC1155Received(address,address,uint256,uint256,bytes)":"f23a6e61","onERC721Received(address,address,uint256,bytes)":"150b7a02","proposalDeadline(uint256)":"c01f9e37","proposalEta(uint256)":"ab58fb8e","proposalNeedsQueuing(uint256)":"a9a95294","proposalProposer(uint256)":"143489d0","proposalSnapshot(uint256)":"2d63f693","proposalThreshold()":"b58131b0","proposalVotes(uint256)":"544ffc9c","propose(address[],uint256[],bytes[],string)":"7d5e81e2","proxiableUUID()":"52d1902d","queue(address[],uint256[],bytes[],bytes32)":"160cbed7","quorum(uint256)":"f8ce560a","relay(address,uint256,bytes)":"c28bc2fa","renounceRole(bytes32,address)":"36568abe","revokeRole(bytes32,address)":"d547741f","setProposalThreshold(uint256)":"ece40cc1","setVotingDelay(uint48)":"79051887","setVotingPeriod(uint32)":"e540d01d","state(uint256)":"3e4f49e6","supportsInterface(bytes4)":"01ffc9a7","timelock()":"d33219b4","token()":"fc0c546a","updateTimelock(address)":"a890c910","upgradeToAndCall(address,bytes)":"4f1ef286","version()":"54fd4d50","votingDelay()":"3932abb1","votingPeriod()":"02a251a3"},"id":136}