{"abi":[{"type":"constructor","inputs":[],"stateMutability":"nonpayable"},{"type":"receive","stateMutability":"payable"},{"type":"function","name":"BALLOT_TYPEHASH","inputs":[],"outputs":[{"name":"","type":"bytes32","internalType":"bytes32"}],"stateMutability":"view"},{"type":"function","name":"CLOCK_MODE","inputs":[],"outputs":[{"name":"","type":"string","internalType":"string"}],"stateMutability":"view"},{"type":"function","name":"COUNTING_MODE","inputs":[],"outputs":[{"name":"","type":"string","internalType":"string"}],"stateMutability":"pure"},{"type":"function","name":"DEFAULT_ADMIN_ROLE","inputs":[],"outputs":[{"name":"","type":"bytes32","internalType":"bytes32"}],"stateMutability":"view"},{"type":"function","name":"EXTENDED_BALLOT_TYPEHASH","inputs":[],"outputs":[{"name":"","type":"bytes32","internalType":"bytes32"}],"stateMutability":"view"},{"type":"function","name":"UPGRADE_INTERFACE_VERSION","inputs":[],"outputs":[{"name":"","type":"string","internalType":"string"}],"stateMutability":"view"},{"type":"function","name":"cancel","inputs":[{"name":"targets","type":"address[]","internalType":"address[]"},{"name":"values","type":"uint256[]","internalType":"uint256[]"},{"name":"calldatas","type":"bytes[]","internalType":"bytes[]"},{"name":"descriptionHash","type":"bytes32","internalType":"bytes32"}],"outputs":[{"name":"","type":"uint256","internalType":"uint256"}],"stateMutability":"nonpayable"},{"type":"function","name":"castVote","inputs":[{"name":"proposalId","type":"uint256","internalType":"uint256"},{"name":"support","type":"uint8","internalType":"uint8"}],"outputs":[{"name":"","type":"uint256","internalType":"uint256"}],"stateMutability":"nonpayable"},{"type":"function","name":"castVoteBySig","inputs":[{"name":"proposalId","type":"uint256","internalType":"uint256"},{"name":"support","type":"uint8","internalType":"uint8"},{"name":"voter","type":"address","internalType":"address"},{"name":"signature","type":"bytes","internalType":"bytes"}],"outputs":[{"name":"","type":"uint256","internalType":"uint256"}],"stateMutability":"nonpayable"},{"type":"function","name":"castVoteWithReason","inputs":[{"name":"proposalId","type":"uint256","internalType":"uint256"},{"name":"support","type":"uint8","internalType":"uint8"},{"name":"reason","type":"string","internalType":"string"}],"outputs":[{"name":"","type":"uint256","internalType":"uint256"}],"stateMutability":"nonpayable"},{"type":"function","name":"castVoteWithReasonAndParams","inputs":[{"name":"proposalId","type":"uint256","internalType":"uint256"},{"name":"support","type":"uint8","internalType":"uint8"},{"name":"reason","type":"string","internalType":"string"},{"name":"params","type":"bytes","internalType":"bytes"}],"outputs":[{"name":"","type":"uint256","internalType":"uint256"}],"stateMutability":"nonpayable"},{"type":"function","name":"castVoteWithReasonAndParamsBySig","inputs":[{"name":"proposalId","type":"uint256","internalType":"uint256"},{"name":"support","type":"uint8","internalType":"uint8"},{"name":"voter","type":"address","internalType":"address"},{"name":"reason","type":"string","internalType":"string"},{"name":"params","type":"bytes","internalType":"bytes"},{"name":"signature","type":"bytes","internalType":"bytes"}],"outputs":[{"name":"","type":"uint256","internalType":"uint256"}],"stateMutability":"nonpayable"},{"type":"function","name":"clock","inputs":[],"outputs":[{"name":"","type":"uint48","internalType":"uint48"}],"stateMutability":"view"},{"type":"function","name":"eip712Domain","inputs":[],"outputs":[{"name":"fields","type":"bytes1","internalType":"bytes1"},{"name":"name","type":"string","internalType":"string"},{"name":"version","type":"string","internalType":"string"},{"name":"chainId","type":"uint256","internalType":"uint256"},{"name":"verifyingContract","type":"address","internalType":"address"},{"name":"salt","type":"bytes32","internalType":"bytes32"},{"name":"extensions","type":"uint256[]","internalType":"uint256[]"}],"stateMutability":"view"},{"type":"function","name":"execute","inputs":[{"name":"targets","type":"address[]","internalType":"address[]"},{"name":"values","type":"uint256[]","internalType":"uint256[]"},{"name":"calldatas","type":"bytes[]","internalType":"bytes[]"},{"name":"descriptionHash","type":"bytes32","internalType":"bytes32"}],"outputs":[{"name":"","type":"uint256","internalType":"uint256"}],"stateMutability":"payable"},{"type":"function","name":"getRoleAdmin","inputs":[{"name":"role","type":"bytes32","internalType":"bytes32"}],"outputs":[{"name":"","type":"bytes32","internalType":"bytes32"}],"stateMutability":"view"},{"type":"function","name":"getVotes","inputs":[{"name":"account","type":"address","internalType":"address"},{"name":"timepoint","type":"uint256","internalType":"uint256"}],"outputs":[{"name":"","type":"uint256","internalType":"uint256"}],"stateMutability":"view"},{"type":"function","name":"getVotesWithParams","inputs":[{"name":"account","type":"address","internalType":"address"},{"name":"timepoint","type":"uint256","internalType":"uint256"},{"name":"params","type":"bytes","internalType":"bytes"}],"outputs":[{"name":"","type":"uint256","internalType":"uint256"}],"stateMutability":"view"},{"type":"function","name":"grantRole","inputs":[{"name":"role","type":"bytes32","internalType":"bytes32"},{"name":"account","type":"address","internalType":"address"}],"outputs":[],"stateMutability":"nonpayable"},{"type":"function","name":"hasRole","inputs":[{"name":"role","type":"bytes32","internalType":"bytes32"},{"name":"account","type":"address","internalType":"address"}],"outputs":[{"name":"","type":"bool","internalType":"bool"}],"stateMutability":"view"},{"type":"function","name":"hasVoted","inputs":[{"name":"proposalId","type":"uint256","internalType":"uint256"},{"name":"account","type":"address","internalType":"address"}],"outputs":[{"name":"","type":"bool","internalType":"bool"}],"stateMutability":"view"},{"type":"function","name":"hashProposal","inputs":[{"name":"targets","type":"address[]","internalType":"address[]"},{"name":"values","type":"uint256[]","internalType":"uint256[]"},{"name":"calldatas","type":"bytes[]","internalType":"bytes[]"},{"name":"descriptionHash","type":"bytes32","internalType":"bytes32"}],"outputs":[{"name":"","type":"uint256","internalType":"uint256"}],"stateMutability":"pure"},{"type":"function","name":"initialize","inputs":[{"name":"token","type":"address","internalType":"contract IVotes"},{"name":"timelock","type":"address","internalType":"contract AndeTimelockController"},{"name":"votingDelay","type":"uint48","internalType":"uint48"},{"name":"votingPeriod","type":"uint32","internalType":"uint32"},{"name":"proposalThreshold","type":"uint256","internalType":"uint256"},{"name":"admin","type":"address","internalType":"address"}],"outputs":[],"stateMutability":"nonpayable"},{"type":"function","name":"name","inputs":[],"outputs":[{"name":"","type":"string","internalType":"string"}],"stateMutability":"view"},{"type":"function","name":"nonces","inputs":[{"name":"owner","type":"address","internalType":"address"}],"outputs":[{"name":"","type":"uint256","internalType":"uint256"}],"stateMutability":"view"},{"type":"function","name":"onERC1155BatchReceived","inputs":[{"name":"","type":"address","internalType":"address"},{"name":"","type":"address","internalType":"address"},{"name":"","type":"uint256[]","internalType":"uint256[]"},{"name":"","type":"uint256[]","internalType":"uint256[]"},{"name":"","type":"bytes","internalType":"bytes"}],"outputs":[{"name":"","type":"bytes4","internalType":"bytes4"}],"stateMutability":"nonpayable"},{"type":"function","name":"onERC1155Received","inputs":[{"name":"","type":"address","internalType":"address"},{"name":"","type":"address","internalType":"address"},{"name":"","type":"uint256","internalType":"uint256"},{"name":"","type":"uint256","internalType":"uint256"},{"name":"","type":"bytes","internalType":"bytes"}],"outputs":[{"name":"","type":"bytes4","internalType":"bytes4"}],"stateMutability":"nonpayable"},{"type":"function","name":"onERC721Received","inputs":[{"name":"","type":"address","internalType":"address"},{"name":"","type":"address","internalType":"address"},{"name":"","type":"uint256","internalType":"uint256"},{"name":"","type":"bytes","internalType":"bytes"}],"outputs":[{"name":"","type":"bytes4","internalType":"bytes4"}],"stateMutability":"nonpayable"},{"type":"function","name":"proposalDeadline","inputs":[{"name":"proposalId","type":"uint256","internalType":"uint256"}],"outputs":[{"name":"","type":"uint256","internalType":"uint256"}],"stateMutability":"view"},{"type":"function","name":"proposalEta","inputs":[{"name":"proposalId","type":"uint256","internalType":"uint256"}],"outputs":[{"name":"","type":"uint256","internalType":"uint256"}],"stateMutability":"view"},{"type":"function","name":"proposalNeedsQueuing","inputs":[{"name":"proposalId","type":"uint256","internalType":"uint256"}],"outputs":[{"name":"","type":"bool","internalType":"bool"}],"stateMutability":"view"},{"type":"function","name":"proposalProposer","inputs":[{"name":"proposalId","type":"uint256","internalType":"uint256"}],"outputs":[{"name":"","type":"address","internalType":"address"}],"stateMutability":"view"},{"type":"function","name":"proposalSnapshot","inputs":[{"name":"proposalId","type":"uint256","internalType":"uint256"}],"outputs":[{"name":"","type":"uint256","internalType":"uint256"}],"stateMutability":"view"},{"type":"function","name":"proposalThreshold","inputs":[],"outputs":[{"name":"","type":"uint256","internalType":"uint256"}],"stateMutability":"view"},{"type":"function","name":"proposalVotes","inputs":[{"name":"proposalId","type":"uint256","internalType":"uint256"}],"outputs":[{"name":"againstVotes","type":"uint256","internalType":"uint256"},{"name":"forVotes","type":"uint256","internalType":"uint256"},{"name":"abstainVotes","type":"uint256","internalType":"uint256"}],"stateMutability":"view"},{"type":"function","name":"propose","inputs":[{"name":"targets","type":"address[]","internalType":"address[]"},{"name":"values","type":"uint256[]","internalType":"uint256[]"},{"name":"calldatas","type":"bytes[]","internalType":"bytes[]"},{"name":"description","type":"string","internalType":"string"}],"outputs":[{"name":"","type":"uint256","internalType":"uint256"}],"stateMutability":"nonpayable"},{"type":"function","name":"proxiableUUID","inputs":[],"outputs":[{"name":"","type":"bytes32","internalType":"bytes32"}],"stateMutability":"view"},{"type":"function","name":"queue","inputs":[{"name":"targets","type":"address[]","internalType":"address[]"},{"name":"values","type":"uint256[]","internalType":"uint256[]"},{"name":"calldatas","type":"bytes[]","internalType":"bytes[]"},{"name":"descriptionHash","type":"bytes32","internalType":"bytes32"}],"outputs":[{"name":"","type":"uint256","internalType":"uint256"}],"stateMutability":"nonpayable"},{"type":"function","name":"quorum","inputs":[{"name":"","type":"uint256","internalType":"uint256"}],"outputs":[{"name":"","type":"uint256","internalType":"uint256"}],"stateMutability":"pure"},{"type":"function","name":"relay","inputs":[{"name":"target","type":"address","internalType":"address"},{"name":"value","type":"uint256","internalType":"uint256"},{"name":"data","type":"bytes","internalType":"bytes"}],"outputs":[],"stateMutability":"payable"},{"type":"function","name":"renounceRole","inputs":[{"name":"role","type":"bytes32","internalType":"bytes32"},{"name":"callerConfirmation","type":"address","internalType":"address"}],"outputs":[],"stateMutability":"nonpayable"},{"type":"function","name":"revokeRole","inputs":[{"name":"role","type":"bytes32","internalType":"bytes32"},{"name":"account","type":"address","internalType":"address"}],"outputs":[],"stateMutability":"nonpayable"},{"type":"function","name":"setProposalThreshold","inputs":[{"name":"newProposalThreshold","type":"uint256","internalType":"uint256"}],"outputs":[],"stateMutability":"nonpayable"},{"type":"function","name":"setVotingDelay","inputs":[{"name":"newVotingDelay","type":"uint48","internalType":"uint48"}],"outputs":[],"stateMutability":"nonpayable"},{"type":"function","name":"setVotingPeriod","inputs":[{"name":"newVotingPeriod","type":"uint32","internalType":"uint32"}],"outputs":[],"stateMutability":"nonpayable"},{"type":"function","name":"state","inputs":[{"name":"proposalId","type":"uint256","internalType":"uint256"}],"outputs":[{"name":"","type":"uint8","internalType":"enum IGovernor.ProposalState"}],"stateMutability":"view"},{"type":"function","name":"supportsInterface","inputs":[{"name":"interfaceId","type":"bytes4","internalType":"bytes4"}],"outputs":[{"name":"","type":"bool","internalType":"bool"}],"stateMutability":"view"},{"type":"function","name":"timelock","inputs":[],"outputs":[{"name":"","type":"address","internalType":"address"}],"stateMutability":"view"},{"type":"function","name":"token","inputs":[],"outputs":[{"name":"","type":"address","internalType":"contract IERC5805"}],"stateMutability":"view"},{"type":"function","name":"updateTimelock","inputs":[{"name":"newTimelock","type":"address","internalType":"contract TimelockControllerUpgradeable"}],"outputs":[],"stateMutability":"nonpayable"},{"type":"function","name":"upgradeToAndCall","inputs":[{"name":"newImplementation","type":"address","internalType":"address"},{"name":"data","type":"bytes","internalType":"bytes"}],"outputs":[],"stateMutability":"payable"},{"type":"function","name":"version","inputs":[],"outputs":[{"name":"","type":"string","internalType":"string"}],"stateMutability":"view"},{"type":"function","name":"votingDelay","inputs":[],"outputs":[{"name":"","type":"uint256","internalType":"uint256"}],"stateMutability":"view"},{"type":"function","name":"votingPeriod","inputs":[],"outputs":[{"name":"","type":"uint256","internalType":"uint256"}],"stateMutability":"view"},{"type":"event","name":"EIP712DomainChanged","inputs":[],"anonymous":false},{"type":"event","name":"Initialized","inputs":[{"name":"version","type":"uint64","indexed":false,"internalType":"uint64"}],"anonymous":false},{"type":"event","name":"ProposalCanceled","inputs":[{"name":"proposalId","type":"uint256","indexed":false,"internalType":"uint256"}],"anonymous":false},{"type":"event","name":"ProposalCreated","inputs":[{"name":"proposalId","type":"uint256","indexed":false,"internalType":"uint256"},{"name":"proposer","type":"address","indexed":false,"internalType":"address"},{"name":"targets","type":"address[]","indexed":false,"internalType":"address[]"},{"name":"values","type":"uint256[]","indexed":false,"internalType":"uint256[]"},{"name":"signatures","type":"string[]","indexed":false,"internalType":"string[]"},{"name":"calldatas","type":"bytes[]","indexed":false,"internalType":"bytes[]"},{"name":"voteStart","type":"uint256","indexed":false,"internalType":"uint256"},{"name":"voteEnd","type":"uint256","indexed":false,"internalType":"uint256"},{"name":"description","type":"string","indexed":false,"internalType":"string"}],"anonymous":false},{"type":"event","name":"ProposalExecuted","inputs":[{"name":"proposalId","type":"uint256","indexed":false,"internalType":"uint256"}],"anonymous":false},{"type":"event","name":"ProposalQueued","inputs":[{"name":"proposalId","type":"uint256","indexed":false,"internalType":"uint256"},{"name":"etaSeconds","type":"uint256","indexed":false,"internalType":"uint256"}],"anonymous":false},{"type":"event","name":"ProposalThresholdSet","inputs":[{"name":"oldProposalThreshold","type":"uint256","indexed":false,"internalType":"uint256"},{"name":"newProposalThreshold","type":"uint256","indexed":false,"internalType":"uint256"}],"anonymous":false},{"type":"event","name":"RoleAdminChanged","inputs":[{"name":"role","type":"bytes32","indexed":true,"internalType":"bytes32"},{"name":"previousAdminRole","type":"bytes32","indexed":true,"internalType":"bytes32"},{"name":"newAdminRole","type":"bytes32","indexed":true,"internalType":"bytes32"}],"anonymous":false},{"type":"event","name":"RoleGranted","inputs":[{"name":"role","type":"bytes32","indexed":true,"internalType":"bytes32"},{"name":"account","type":"address","indexed":true,"internalType":"address"},{"name":"sender","type":"address","indexed":true,"internalType":"address"}],"anonymous":false},{"type":"event","name":"RoleRevoked","inputs":[{"name":"role","type":"bytes32","indexed":true,"internalType":"bytes32"},{"name":"account","type":"address","indexed":true,"internalType":"address"},{"name":"sender","type":"address","indexed":true,"internalType":"address"}],"anonymous":false},{"type":"event","name":"TimelockChange","inputs":[{"name":"oldTimelock","type":"address","indexed":false,"internalType":"address"},{"name":"newTimelock","type":"address","indexed":false,"internalType":"address"}],"anonymous":false},{"type":"event","name":"Upgraded","inputs":[{"name":"implementation","type":"address","indexed":true,"internalType":"address"}],"anonymous":false},{"type":"event","name":"VoteCast","inputs":[{"name":"voter","type":"address","indexed":true,"internalType":"address"},{"name":"proposalId","type":"uint256","indexed":false,"internalType":"uint256"},{"name":"support","type":"uint8","indexed":false,"internalType":"uint8"},{"name":"weight","type":"uint256","indexed":false,"internalType":"uint256"},{"name":"reason","type":"string","indexed":false,"internalType":"string"}],"anonymous":false},{"type":"event","name":"VoteCastWithParams","inputs":[{"name":"voter","type":"address","indexed":true,"internalType":"address"},{"name":"proposalId","type":"uint256","indexed":false,"internalType":"uint256"},{"name":"support","type":"uint8","indexed":false,"internalType":"uint8"},{"name":"weight","type":"uint256","indexed":false,"internalType":"uint256"},{"name":"reason","type":"string","indexed":false,"internalType":"string"},{"name":"params","type":"bytes","indexed":false,"internalType":"bytes"}],"anonymous":false},{"type":"event","name":"VotingDelaySet","inputs":[{"name":"oldVotingDelay","type":"uint256","indexed":false,"internalType":"uint256"},{"name":"newVotingDelay","type":"uint256","indexed":false,"internalType":"uint256"}],"anonymous":false},{"type":"event","name":"VotingPeriodSet","inputs":[{"name":"oldVotingPeriod","type":"uint256","indexed":false,"internalType":"uint256"},{"name":"newVotingPeriod","type":"uint256","indexed":false,"internalType":"uint256"}],"anonymous":false},{"type":"error","name":"AccessControlBadConfirmation","inputs":[]},{"type":"error","name":"AccessControlUnauthorizedAccount","inputs":[{"name":"account","type":"address","internalType":"address"},{"name":"neededRole","type":"bytes32","internalType":"bytes32"}]},{"type":"error","name":"AddressEmptyCode","inputs":[{"name":"target","type":"address","internalType":"address"}]},{"type":"error","name":"ERC1967InvalidImplementation","inputs":[{"name":"implementation","type":"address","internalType":"address"}]},{"type":"error","name":"ERC1967NonPayable","inputs":[]},{"type":"error","name":"FailedInnerCall","inputs":[]},{"type":"error","name":"GovernorAlreadyCastVote","inputs":[{"name":"voter","type":"address","internalType":"address"}]},{"type":"error","name":"GovernorAlreadyQueuedProposal","inputs":[{"name":"proposalId","type":"uint256","internalType":"uint256"}]},{"type":"error","name":"GovernorDisabledDeposit","inputs":[]},{"type":"error","name":"GovernorInsufficientProposerVotes","inputs":[{"name":"proposer","type":"address","internalType":"address"},{"name":"votes","type":"uint256","internalType":"uint256"},{"name":"threshold","type":"uint256","internalType":"uint256"}]},{"type":"error","name":"GovernorInvalidProposalLength","inputs":[{"name":"targets","type":"uint256","internalType":"uint256"},{"name":"calldatas","type":"uint256","internalType":"uint256"},{"name":"values","type":"uint256","internalType":"uint256"}]},{"type":"error","name":"GovernorInvalidSignature","inputs":[{"name":"voter","type":"address","internalType":"address"}]},{"type":"error","name":"GovernorInvalidVoteType","inputs":[]},{"type":"error","name":"GovernorInvalidVotingPeriod","inputs":[{"name":"votingPeriod","type":"uint256","internalType":"uint256"}]},{"type":"error","name":"GovernorNonexistentProposal","inputs":[{"name":"proposalId","type":"uint256","internalType":"uint256"}]},{"type":"error","name":"GovernorNotQueuedProposal","inputs":[{"name":"proposalId","type":"uint256","internalType":"uint256"}]},{"type":"error","name":"GovernorOnlyExecutor","inputs":[{"name":"account","type":"address","internalType":"address"}]},{"type":"error","name":"GovernorOnlyProposer","inputs":[{"name":"account","type":"address","internalType":"address"}]},{"type":"error","name":"GovernorQueueNotImplemented","inputs":[]},{"type":"error","name":"GovernorRestrictedProposer","inputs":[{"name":"proposer","type":"address","internalType":"address"}]},{"type":"error","name":"GovernorUnexpectedProposalState","inputs":[{"name":"proposalId","type":"uint256","internalType":"uint256"},{"name":"current","type":"uint8","internalType":"enum IGovernor.ProposalState"},{"name":"expectedStates","type":"bytes32","internalType":"bytes32"}]},{"type":"error","name":"InvalidAccountNonce","inputs":[{"name":"account","type":"address","internalType":"address"},{"name":"currentNonce","type":"uint256","internalType":"uint256"}]},{"type":"error","name":"InvalidInitialization","inputs":[]},{"type":"error","name":"NotInitializing","inputs":[]},{"type":"error","name":"QueueEmpty","inputs":[]},{"type":"error","name":"QueueFull","inputs":[]},{"type":"error","name":"SafeCastOverflowedUintDowncast","inputs":[{"name":"bits","type":"uint8","internalType":"uint8"},{"name":"value","type":"uint256","internalType":"uint256"}]},{"type":"error","name":"UUPSUnauthorizedCallContext","inputs":[]},{"type":"error","name":"UUPSUnsupportedProxiableUUID","inputs":[{"name":"slot","type":"bytes32","internalType":"bytes32"}]}],"bytecode":{"object":"0x60a0806040523460c857306080527ff0c57e16840df040f15088dc2f81fe391c3923bec73e23a9662efc9c229c6a009081549060ff8260401c1660b957506001600160401b036002600160401b0319828216016075575b60405161467d90816100cd823960805181818161108901526111ae0152f35b6001600160401b031990911681179091556040519081527fc7f505b2f371ae2175ee4913f4499e1f2633a7b5936321eed1cdaeb6115181d290602090a15f80806056565b63f92ee8a960e01b8152600490fd5b5f80fdfe60806040526004361015610022575b3615610018575f80fd5b610020612a2c565b005b5f3560e01c806301ffc9a71461038157806302a251a31461037c57806306fdde0314610377578063143489d014610372578063150b7a021461036d578063160cbed714610368578063248a9ca3146103635780632656227d1461035e5780632d63f693146103595780632f2ff15d146103545780632fe3e2611461034f57806336568abe1461034a5780633932abb1146103455780633e4f49e614610340578063438596321461033b578063452115d6146103365780634bf5d7e9146103315780634f1ef2861461032c57806352d1902d14610327578063544ffc9c1461032257806354fd4d501461031d57806356781388146103185780635b8d0e0d146103135780635f398a141461030e57806379051887146103095780637b3c71d3146103045780637d5e81e2146102ff5780637ecebe00146102fa578063801ced9f146102f557806384b0196e146102f05780638ff262e3146102eb57806391d14854146102e657806391ddadf4146102e15780639a802a6d146102dc578063a217fddf146102d7578063a890c910146102d2578063a9a95294146102cd578063ab58fb8e146102c8578063ad3cb1cc146102c3578063b58131b0146102be578063bc197c81146102b9578063c01f9e37146102b4578063c28bc2fa146102af578063c59057e4146102aa578063d33219b4146102a5578063d547741f146102a0578063dd4e2ba51461029b578063deaaa7cc14610296578063e540d01d14610291578063eb9019d41461028c578063ece40cc114610287578063f23a6e6114610282578063f8ce560a1461027d5763fc0c546a0361000e5761202b565b61200f565b611f98565b611f74565b611ee6565b611eb4565b611e7a565b611e1d565b611dd1565b611d9d565b611d81565b611d16565b611cf8565b611c58565b611c1d565b611bd8565b611b85565b611b69565b611ae4565b611aca565b611a0a565b6119e0565b61198e565b611858565b611788565b611591565b611524565b61148b565b611436565b611409565b61138a565b611302565b611287565b61125c565b611205565b61119c565b611047565b611018565b610f4b565b610eea565b610ebd565b610e5c565b610e11565b610dd7565b610d8b565b610d4a565b610bbd565b610b84565b610931565b6106e6565b610571565b610481565b610417565b346104095760203660031901126104095760043563ffffffff60e01b8116809103610409576020906332a2ad4360e11b81149081156103f8575b81156103cd575b506040519015158152f35b637965db0b60e01b8114915081156103e7575b505f6103c2565b6301ffc9a760e01b1490505f6103e0565b630271189760e51b811491506103bb565b5f80fd5b5f91031261040957565b34610409575f36600319011261040957602063ffffffff5f805160206144e88339815191525460301c16604051908152f35b805180835260209291819084018484015e5f828201840152601f01601f1916010190565b90602061047e928181520190610449565b90565b34610409575f366003190112610409576040515f5f805160206146088339815191528054906104af8261205f565b8085529160209160019182811690811561054457506001146104ec575b6104e8866104dc81880382610659565b6040519182918261046d565b0390f35b5f90815293507fda13dda7583a39a3cd73e8830529c760837228fa4683752c823b17e10548aad55b838510610531575050505081016020016104dc826104e85f6104cc565b8054868601840152938201938101610514565b90508695506104e8969350602092506104dc94915060ff191682840152151560051b82010192935f6104cc565b34610409576020366003190112610409576004355f525f805160206144c8833981519152602052602060018060a01b0360405f205416604051908152f35b6001600160a01b0381160361040957565b634e487b7160e01b5f52604160045260245ffd5b6001600160401b0381116105e757604052565b6105c0565b602081019081106001600160401b038211176105e757604052565b60c081019081106001600160401b038211176105e757604052565b604081019081106001600160401b038211176105e757604052565b61010081019081106001600160401b038211176105e757604052565b90601f801991011681019081106001600160401b038211176105e757604052565b6001600160401b0381116105e757601f01601f191660200190565b9291926106a18261067a565b916106af6040519384610659565b829481845281830111610409578281602093845f960137010152565b9080601f830112156104095781602061047e93359101610695565b34610409576080366003190112610409576107026004356105af565b61070d6024356105af565b6064356001600160401b0381116104095761072c9036906004016106cb565b505f805160206145e8833981519152546001600160a01b0316300361075d57604051630a85bd0160e11b8152602090f35b604051637485328f60e11b8152600490fd5b6001600160401b0381116105e75760051b60200190565b9080601f830112156104095760209082356107a08161076f565b936107ae6040519586610659565b81855260208086019260051b82010192831161040957602001905b8282106107d7575050505090565b83809183356107e5816105af565b8152019101906107c9565b9080601f8301121561040957602090823561080a8161076f565b936108186040519586610659565b81855260208086019260051b82010192831161040957602001905b828210610841575050505090565b81358152908301908301610833565b81601f820112156104095780359160209161086a8461076f565b936108786040519586610659565b808552838086019160051b8301019280841161040957848301915b8483106108a35750505050505090565b82356001600160401b0381116104095786916108c4848480948901016106cb565b815201920191610893565b6080600319820112610409576001600160401b039160043583811161040957826108fb91600401610786565b926024358181116104095783610913916004016107f0565b926044359182116104095761092a91600401610850565b9060643590565b346104095761093f366108cf565b90929161094e828583866129c8565b9261095884612a6b565b505f805160206145e88339815191528054909590610986906001600160a01b03165b6001600160a01b031690565b9260409687519063793d064960e11b825260209081836004818a5afa968715610b29576109ef988b945f99610b5b575b50935163b1c5f42760e01b81523060601b6bffffffffffffffffffffffff19169094189883918591829081908d8b8b8e600486016138df565b03915afa8015610b2957610a219361097a935f92610b2e575b5050610a138a612218565b55546001600160a01b031690565b90813b15610409575f8094610a4c878b51998a97889687956308f2a0bb60e41b875260048701613924565b03925af1908115610b2957610a7092610a6b92610b10575b50426133e4565b613eef565b65ffffffffffff811615610aff57917f9a2e42fd6722813d69113e7d0079d3d940171428df7373df9c7f7617cfda2892610aee84610ad06104e8966001610ab688612245565b019065ffffffffffff1665ffffffffffff19825416179055565b835185815265ffffffffffff90911660208201529081906040820190565b0390a1519081529081906020820190565b8251634844252360e11b8152600490fd5b80610b1d610b23926105d4565b8061040d565b5f610a64565b61228c565b610b4d9250803d10610b54575b610b458183610659565b810190612f3d565b5f80610a08565b503d610b3b565b87919950918689610b798795863d8811610b5457610b458183610659565b9b93505050916109b6565b34610409576020366003190112610409576004355f525f805160206145c88339815191526020526020600160405f200154604051908152f35b610bc6366108cf565b610bd5818385879596976129c8565b92610bdf84612abd565b50610bff610bec85612245565b805460ff60f01b1916600160f01b179055565b5f805160206145e883398151915280546001600160a01b039691949087163003610cdd575b926104e89692610c3892610c499588613971565b91543092166001600160a01b031690565b141580610cac575b610c92575b6040518181527f712ae1383f79ac853f8d882153778e0260ef8f03b504e2866e0593e04d2b291f90602090a16040519081529081906020820190565b610ca75f5f805160206145a883398151915255565b610c56565b50610cd8610cd45f805160206145a8833981519152546001600160801b0381169060801c1490565b1590565b610c51565b9391959094925f5b8551811015610d3a5760019030610d0f61097a610d02848b612273565b516001600160a01b031690565b14610d1b575b01610ce5565b610d35610d28828b612273565b5160208151910120612b0f565b610d15565b5090959294919390929190610c24565b34610409576020366003190112610409576004355f525f805160206144c8833981519152602052602065ffffffffffff60405f205460a01c16604051908152f35b3461040957604036600319011261040957610020602435600435610dae826105af565b805f525f805160206145c8833981519152602052610dd2600160405f200154612be8565b612ce7565b34610409575f3660031901126104095760206040517f3e83946653575f9a39005e1545185629e92736b7528ab20ca3816f315424a8118152f35b3461040957604036600319011261040957602435610e2e816105af565b336001600160a01b03821603610e4a5761002090600435612d82565b60405163334bd91960e11b8152600490fd5b34610409575f36600319011261040957602065ffffffffffff5f805160206144e88339815191525416604051908152f35b634e487b7160e01b5f52602160045260245ffd5b60081115610eab57565b610e8d565b906008821015610eab5752565b34610409576020366003190112610409576020610edb600435612e2c565b610ee86040518092610eb0565bf35b3461040957604036600319011261040957602060ff610f3f602435610f0e816105af565b6004355f525f805160206145888339815191528452600360405f20019060018060a01b03165f5260205260405f2090565b54166040519015158152f35b3461040957610f59366108cf565b90610f688282858796976129c8565b610f7181612e2c565b6008811015610eab5760018060ff83161b1615610feb57505f9081525f805160206144c883398151915260205260409020546001600160a01b03163303610fcf576104e893610fbf93613af2565b6040519081529081906020820190565b60405163233d98e360e01b8152336004820152602490fd5b0390fd5b9061100f606492604051926331b75e4d60e01b845260048401526024830190610eb0565b60016044820152fd5b34610409575f366003190112610409576104e86110336122d0565b604051918291602083526020830190610449565b6040366003190112610409576004803590611061826105af565b6024356001600160401b0381116104095761107f90369083016106cb565b6001600160a01b037f00000000000000000000000000000000000000000000000000000000000000008116308114908115611181575b506111705790602083926110c7612b92565b6040516352d1902d60e01b8152938491829088165afa5f928161114f575b50611113575050604051634c9c8ce360e01b81526001600160a01b0390921690820190815281906020010390fd5b83835f805160206145688339815191528403611133576100208383613c24565b604051632a87526960e21b815290810184815281906020010390fd5b61116991935060203d602011610b5457610b458183610659565b915f6110e5565b60405163703e46dd60e11b81528390fd5b9050815f80516020614568833981519152541614155f6110b5565b34610409575f366003190112610409577f00000000000000000000000000000000000000000000000000000000000000006001600160a01b031630036111f35760206040515f805160206145688339815191528152f35b60405163703e46dd60e11b8152600490fd5b34610409576020366003190112610409576004355f525f8051602061458883398151915260205260405f2080546104e860026001840154930154604051938493846040919493926060820195825260208201520152565b34610409575f366003190112610409576104e8611033612392565b6024359060ff8216820361040957565b346104095760403660031901126104095760206112cd6112a5611277565b6040516112b1816105ec565b5f8152604051916112c1836105ec565b5f83523360043561311e565b604051908152f35b9181601f84011215610409578235916001600160401b038311610409576020838186019501011161040957565b346104095760c03660031901126104095761131b611277565b60443590611328826105af565b6001600160401b0390606435828111610409576113499036906004016112d5565b608435848111610409576113619036906004016106cb565b9160a435948511610409576104e895611381610fbf9636906004016106cb565b946004356123af565b34610409576080366003190112610409576113a3611277565b6001600160401b0390604435828111610409576113c49036906004016112d5565b9091606435938411610409576113ef6112cd936113e760209636906004016106cb565b933691610695565b903360043561311e565b65ffffffffffff81160361040957565b3461040957602036600319011261040957610020600435611429816113f9565b611431613234565b6132b2565b346104095760603660031901126104095761144f611277565b6044356001600160401b0381116104095760209161147e6114776112cd9336906004016112d5565b3691610695565b604051916112c1836105ec565b34610409576080366003190112610409576001600160401b03600435818111610409576114bc903690600401610786565b90602435818111610409576114d59036906004016107f0565b91604435828111610409576114ee903690600401610850565b6064359283116104095736602384011215610409576104e89361151e610fbf943690602481600401359101610695565b926124d6565b3461040957602036600319011261040957600435611541816105af565b60018060a01b03165f527f5ab42ced628888259c08ac98db1eb0cf702fc1501344311d8b100cd1bfe4bb00602052602060405f2054604051908152f35b6064359063ffffffff8216820361040957565b346104095760c0366003190112610409576004356115ae816105af565b6024356115ba816105af565b604435916115c7836113f9565b6115cf61157e565b9060a435916115dd836105af565b5f8051602061462883398151915254946001600160401b0360ff8760401c16159616801590816116ee575b60011490816116e4575b1590816116db575b506116c9575f80516020614628833981519152805467ffffffffffffffff1916600117905561165294866116a0575b60843593612600565b61165857005b5f80516020614628833981519152805460ff60401b19169055604051600181527fc7f505b2f371ae2175ee4913f4499e1f2633a7b5936321eed1cdaeb6115181d290602090a1005b5f80516020614628833981519152805460ff60401b191668010000000000000000179055611649565b60405163f92ee8a960e01b8152600490fd5b9050155f61161a565b303b159150611612565b879150611608565b9081518082526020808093019301915f5b828110611715575050505090565b835185529381019392810192600101611707565b9161175e9061175061047e97959693600f60f81b865260e0602087015260e0860190610449565b908482036040860152610449565b60608301949094526001600160a01b031660808201525f60a082015280830360c0909101526116f6565b34610409575f366003190112610409577fa16a46d94261c7517cc8ff89f61c0ce93598e3c849801011dee649a6a557d10054158061182f575b156117f2576117ce612097565b6117d661216c565b906104e86117e2612800565b6040519384933091469186611729565b60405162461bcd60e51b81526020600482015260156024820152741152540dcc4c8e88155b9a5b9a5d1a585b1a5e9959605a1b6044820152606490fd5b507fa16a46d94261c7517cc8ff89f61c0ce93598e3c849801011dee649a6a557d10154156117c1565b3461040957608036600319011261040957600435611874611277565b9060443591611882836105af565b6064356001600160401b03811161040957610cd46118a76119529236906004016106cb565b6001600160a01b0386165f9081527f5ab42ced628888259c08ac98db1eb0cf702fc1501344311d8b100cd1bfe4bb006020526040902080546001810190915561194c9060405160208101917ff2aad550cf55f045cb27e9c559f9889fdfb6e6cdaa032301d6ea397784ae51d7835288604083015260ff8816606083015260018060a01b038a16608083015260a082015260a0815261194481610607565b519020612f67565b86612fe7565b61196d5790610fbf916104e893611967611bc6565b92612f4c565b6040516394ab6c0760e01b81526001600160a01b0384166004820152602490fd5b3461040957604036600319011261040957602060ff610f3f6024356119b2816105af565b6004355f525f805160206145c8833981519152845260405f209060018060a01b03165f5260205260405f2090565b34610409575f3660031901126104095760206119fa612816565b65ffffffffffff60405191168152f35b3461040957606036600319011261040957600435611a27816105af565b6044356001600160401b03811161040957611a469036906004016106cb565b505f8051602061454883398151915254604051630748d63560e31b81526001600160a01b03928316600482015260248035908201529160209183916044918391165afa8015610b29576104e8915f91611aab575b506040519081529081906020820190565b611ac4915060203d602011610b5457610b458183610659565b5f611a9a565b34610409575f3660031901126104095760206040515f8152f35b3461040957602036600319011261040957600435611b01816105af565b611b09613234565b5f805160206145e88339815191528054604080516001600160a01b0380841682529094166020850181905292937f08f74ea46ef7894f65eabfb5e6e695de773a000b47c529ab559178069b2264019190a16001600160a01b031916179055005b3461040957602036600319011261040957602060405160018152f35b34610409576020366003190112610409576004355f525f805160206144c8833981519152602052602065ffffffffffff600160405f20015416604051908152f35b60405190611bd3826105ec565b5f8252565b34610409575f366003190112610409576104e8604051611bf781610622565b60058152640352e302e360dc1b6020820152604051918291602083526020830190610449565b34610409575f3660031901126104095760207ed7616c8fe29c6c2fbe1d0c5bc8f2faa4c35b43746e70b24b4d532752affd0054604051908152f35b346104095760a036600319011261040957611c746004356105af565b611c7f6024356105af565b6001600160401b0360443581811161040957611c9f9036906004016107f0565b5060643581811161040957611cb89036906004016107f0565b5060843590811161040957611cd19036906004016106cb565b506104e8611cdd61289c565b6040516001600160e01b031990911681529081906020820190565b346104095760203660031901126104095760206112cd6004356128c5565b606036600319011261040957600435611d2e816105af565b604435906001600160401b038211610409575f8091611d546100209436906004016112d5565b90611d5d613234565b81604051928392833781018481520391602435905af1611d7b612901565b906137ee565b346104095760206112cd611d94366108cf565b929190916129c8565b34610409575f366003190112610409575f805160206145e8833981519152546040516001600160a01b039091168152602090f35b3461040957604036600319011261040957610020602435600435611df4826105af565b805f525f805160206145c8833981519152602052611e18600160405f200154612be8565b612d82565b34610409575f366003190112610409576104e8604051611e3c81610622565b602081527f737570706f72743d627261766f2671756f72756d3d666f722c6162737461696e6020820152604051918291602083526020830190610449565b34610409575f3660031901126104095760206040517ff2aad550cf55f045cb27e9c559f9889fdfb6e6cdaa032301d6ea397784ae51d78152f35b346104095760203660031901126104095760043563ffffffff811681036104095761002090611ee1613234565b6137fb565b3461040957604036600319011261040957600435611f03816105af565b5f604051611f10816105ec565b525f8051602061454883398151915254604051630748d63560e31b81526001600160a01b03928316600482015260248035908201529160209183916044918391165afa8015610b29576104e8915f91611aab57506040519081529081906020820190565b3461040957602036600319011261040957611f8d613234565b61002060043561388b565b346104095760a036600319011261040957611fb46004356105af565b611fbf6024356105af565b6084356001600160401b03811161040957611fde9036906004016106cb565b505f805160206145e8833981519152546001600160a01b0316300361075d5760405163f23a6e6160e01b8152602090f35b3461040957602036600319011261040957602060405160048152f35b34610409575f366003190112610409575f80516020614548833981519152546040516001600160a01b039091168152602090f35b90600182811c9216801561208d575b602083101461207957565b634e487b7160e01b5f52602260045260245ffd5b91607f169161206e565b604051905f825f80516020614508833981519152918254926120b88461205f565b8084529360209160019182811690811561214657506001146120e6575b5050506120e492500383610659565b565b5f9081527f42ad5d3e1f2e6e70edcf6d991b8a3023d3fca8047a131592f9edb9fd9b89d57d9590935091905b82841061212e57506120e49450505081016020015f80806120d5565b85548885018301529485019487945092810192612112565b92505050602092506120e494915060ff191682840152151560051b8201015f80806120d5565b604051905f825f805160206145288339815191529182549261218d8461205f565b8084529360209160019182811690811561214657506001146121b8575050506120e492500383610659565b5f9081527f5f9ce34815f8e11431c7bb75a8e6886a91478f7ffc1dbb0a98dc240fddd76b759590935091905b82841061220057506120e49450505081016020015f80806120d5565b855488850183015294850194879450928101926121e4565b5f527f0d5829787b8befdbc6044ef7457d8a95c2a04bc99235349f1a212c063e59d40160205260405f2090565b5f525f805160206144c883398151915260205260405f2090565b634e487b7160e01b5f52603260045260245ffd5b80518210156122875760209160051b010190565b61225f565b6040513d5f823e3d90fd5b604051906122a482610622565b601d82527f6d6f64653d626c6f636b6e756d6265722666726f6d3d64656661756c740000006020830152565b5f8051602061454883398151915254604051634bf5d7e960e01b8152905f90829060049082906001600160a01b03165afa5f9181612317575b5061047e575061047e612297565b9091503d805f833e6123298183610659565b810190602081830312610409578051906001600160401b038211610409570181601f820112156104095780519061235f8261067a565b9261236d6040519485610659565b8284526020838301011161040957815f9260208093018386015e83010152905f612309565b6040519061239f82610622565b60018252603160f81b6020830152565b939092919695610cd4612486916124808a6124028160018060a01b03165f527f5ab42ced628888259c08ac98db1eb0cf702fc1501344311d8b100cd1bfe4bb0060205260405f2080549060018201905590565b61240d36888a610695565b602081519101208b5160208d0120906040519260208401947f3e83946653575f9a39005e1545185629e92736b7528ab20ca3816f315424a81186528d604086015260ff8d16606086015260018060a01b0316608085015260a084015260c083015260e082015260e081526119448161063d565b8a612fe7565b6124a15761047e95969161249b913691610695565b9261311e565b6040516394ab6c0760e01b81526001600160a01b0388166004820152602490fd5b634e487b7160e01b5f52601160045260245ffd5b91939290936124e5823361332c565b156125e85765ffffffffffff945f19866124fd612816565b1601958087116125e3576020905f604051612517816105ec565b525f8051602061454883398151915254604051630748d63560e31b8152336004820152989091166024890152879060449082906001600160a01b03165afa958615610b29575f966125c2575b507ed7616c8fe29c6c2fbe1d0c5bc8f2faa4c35b43746e70b24b4d532752affd00549586811061259b575061047e9495503393613508565b604051636121770b60e11b8152336004820152602481019190915260448101879052606490fd5b6125dc91965060203d602011610b5457610b458183610659565b945f612563565b6124c2565b60405163d9b3955760e01b8152336004820152602490fd5b9290939160405161261081610622565b600c815260206b20b73232a3b7bb32b93737b960a11b6020830152612633613f51565b61263b612392565b90612644613f51565b82516001600160401b0381116105e7575f805160206145088339815191529161267682612671855461205f565b613f7f565b602090601f83116001146127575750612721946126c76127499c9b999561272699956126c0866127349e9b9761271c975f9161274c575b508160011b915f199060031b1c19161790565b90556140ea565b6126ef5f7fa16a46d94261c7517cc8ff89f61c0ce93598e3c849801011dee649a6a557d10055565b6127175f7fa16a46d94261c7517cc8ff89f61c0ce93598e3c849801011dee649a6a557d10155565b6141eb565b6136b5565b6136d6565b6001600160a01b0316613713565b61273c613f51565b612744613f51565b612c36565b50565b90508601515f6126ad565b5f805160206145088339815191525f5290601f1983167f42ad5d3e1f2e6e70edcf6d991b8a3023d3fca8047a131592f9edb9fd9b89d57d925f905b8282106127e85750506127499c9b9995612726999560018661271c966127349f9c98966127219c976126c797106127d0575b5050811b0190556140ea565b8701515f1960f88460031b161c191690555f806127c4565b80600185968294968c01518155019501930190612792565b60405161280c816105ec565b5f8152905f368137565b5f80516020614548833981519152546040516324776b7d60e21b815290602090829060049082906001600160a01b03165afa5f918161285f575b5061047e575061047e43613eef565b9091506020813d602011612894575b8161287b60209383610659565b81010312610409575161288d816113f9565b905f612850565b3d915061286e565b5f805160206145e8833981519152546001600160a01b0316300361075d5763bc197c8160e01b90565b5f525f805160206144c883398151915260205260405f205465ffffffffffff908163ffffffff8260d01c169160a01c16018181116125e3571690565b3d1561292b573d906129128261067a565b916129206040519384610659565b82523d5f602084013e565b606090565b9081518082526020808093019301915f5b82811061294f575050505090565b83516001600160a01b031685529381019392810192600101612941565b90808251908181526020809101926020808460051b8301019501935f915b84831061299a5750505050505090565b90919293949584806129b8600193601f198682030187528a51610449565b980193019301919493929061298a565b9290612a1492612a2692604051948592612a046129f1602086019960808b5260a0870190612930565b601f1996878783030160408801526116f6565b908585830301606086015261296c565b90608083015203908101835282610659565b51902090565b5f805160206145e8833981519152546001600160a01b0316300361075d57565b604090612a675f939594606083019683526020830190610eb0565b0152565b612a7481612e2c565b906008821015610eab576010600160ff84161b1615612a91575090565b612ab4606492604051926331b75e4d60e01b845260048401526024830190610eb0565b60106044820152fd5b612ac681612e2c565b906008821015610eab576030600160ff84161b1615612ae3575090565b612b06606492604051926331b75e4d60e01b845260048401526024830190610eb0565b60306044820152fd5b5f805160206145a88339815191529081548060801c9160018301926001600160801b0380931683851614612b80575f527f7c712897014dbe49c045ef1299aa2d5f9e67e48eea4403efa21f1e0f3ac0cb0360205260405f20558254916001600160801b03199060801b169116179055565b604051638acb5f2760e01b8152600490fd5b335f9081527fb7db2dd08fcb62d0c9e08c51941cae53c267786a0b75803fb7960902fc8ef97d602052604090205460ff1615612bca57565b60405163e2517d3f60e01b81523360048201525f6024820152604490fd5b5f8181525f805160206145c88339815191526020908152604080832033845290915290205460ff1615612c185750565b6044906040519063e2517d3f60e01b82523360048301526024820152fd5b6001600160a01b0381165f9081527fb7db2dd08fcb62d0c9e08c51941cae53c267786a0b75803fb7960902fc8ef97d60205260409020545f805160206145c88339815191529060ff16612ce1575f808052602091825260408082206001600160a01b038516835290925220805460ff1916600117905533906001600160a01b03165f7f2f8788117e7eff1d82e926ec794901d17c78024a50270940304540a733656f0d8180a4600190565b50505f90565b5f8181525f805160206145c8833981519152602081815260408084206001600160a01b03871685529091529091205460ff16612d7b575f828152602091825260408082206001600160a01b038616835290925220805460ff1916600117905533916001600160a01b0316907f2f8788117e7eff1d82e926ec794901d17c78024a50270940304540a733656f0d5f80a4600190565b5050505f90565b5f8181525f805160206145c8833981519152602081815260408084206001600160a01b03871685529091529091205460ff1615612d7b575f828152602091825260408082206001600160a01b038616835290925220805460ff1916905533916001600160a01b0316907ff6391f5c32d9c69d2a47ea670b442974b53935d1edc7fd64eb21e047a839171b5f80a4600190565b90816020910312610409575180151581036104095790565b612e35816139fb565b90612e3f82610ea1565b60058203612f3957612e519150612218565b545f805160206145e883398151915254612e73906001600160a01b031661097a565b604051632c258a9f60e11b81526004810183905260209291908381602481855afa908115610b29575f91612f1c575b5015612eb057505050600590565b604051632ab0f52960e01b815260048101929092528290829060249082905afa918215610b29575f92612eef575b505015612eea57600790565b600290565b612f0e9250803d10612f15575b612f068183610659565b810190612e14565b5f80612ede565b503d612efc565b612f339150843d8611612f1557612f068183610659565b5f612ea2565b5090565b90816020910312610409575190565b9161047e939160405193612f5f856105ec565b5f855261311e565b604290612f72614418565b612f7a614482565b6040519060208201927f8b73c3c69bb8fe3d512ecc4cf759cc79239f7b179b0ffacaa9a75d522b39400f8452604083015260608201524660808201523060a082015260a08152612fc981610607565b519020906040519161190160f01b8352600283015260228201522090565b612ff18383613cc6565b506004819592951015610eab571593846130a8575b508315613014575b50505090565b5f92935090829160405161305a8161304c6020820194630b135d3f60e11b998a87526024840152604060448401526064830190610449565b03601f198101835282610659565b51915afa90613067612901565b8261309a575b8261307d575b50505f808061300e565b61309291925060208082518301019101612f3d565b145f80613073565b91506020825110159161306d565b6001600160a01b0383811691161493505f613006565b93909260ff6130ea9361047e97958752166020860152604085015260a0606085015260a0840190610449565b916080818403910152610449565b909260ff60809361047e9695845216602083015260408201528160608201520190610449565b92919061312a84612e2c565b6008811015610eab576002600160ff83161b1615613206575061317561316f61316461315587612245565b5460a01c65ffffffffffff1690565b65ffffffffffff1690565b82613783565b9461318286848488613d00565b80516131ca57506131c47fb8e138887d0aa13bab447e82de9d5c1777041ecd21ca36ba824ff1e6c07ddda4938660405194859460018060a01b031697856130f8565b0390a290565b6131c4907fe2babfbac5889a709b63bb7f598b324e08bc5a4fb9ec647fb3cbc9ec07eb8712948760405195869560018060a01b031698866130be565b6040516331b75e4d60e01b81526004810186905260649161322b906024830190610eb0565b60026044820152fd5b5f805160206145e8833981519152546001600160a01b031633810361329a57300361325b57565b6132643661067a565b6132716040519182610659565b3681526020810190365f83375f602036830101525190205b80613292613df3565b036132895750565b6040516347096e4760e01b8152336004820152602490fd5b5f805160206144e88339815191529081547fc565b045403dc03c2eea82b81a0465edad9e2e7fc4d97e11421c209da93d7a93604065ffffffffffff81519481851686521693846020820152a165ffffffffffff1916179055565b6027198101919082116125e357565b908151811015612287570160200190565b8151603481106133dc5760131981840101516001600160a01b0319166b1b91f1b211f2119351b859f160a31b016133dc57915f926133698161330c565b915b818310613386575050506001600160a01b0391821691161490565b9091936133ac6133a7613399878561331b565b516001600160f81b03191690565b613e72565b9190156133d15760041b6010600160a01b031660ff919091161793600101919061336b565b505050505050600190565b505050600190565b919082018092116125e357565b906133fb8261076f565b6134086040519182610659565b8281528092613419601f199161076f565b01905f5b82811061342957505050565b80606060208093850101520161341d565b959261346e9061347c939b9a989996959261012090895260209c60018060a01b03168d8a01528060408a0152880190612930565b9086820360608801526116f6565b9784890360808601528251808a52818a019180808360051b8d01019501925f905b8382106134da57505050505061047e969750906134c19184820360a086015261296c565b9360c083015260e0820152610100818403910152610449565b909192939583806134f98f93600194601f199082030186528a51610449565b9801920192019093929161349d565b919493909294613520865160208801208286866129c8565b9583518551908181148015906136aa575b80156136a2575b61367957505065ffffffffffff94856135536131558a612245565b16613652577f7d84a6263ae0d98d3329bd7b46bb4e8d6f98cd35a7adb45c274c8b7fd5ebd5e09561364d9363ffffffff6135a861358e612816565b5f805160206144e8833981519152549480861691166133e4565b9260301c1661362b6135b98c612245565b80546001600160a01b0319166001600160a01b038a161781556136026135de86613eef565b825465ffffffffffff60a01b191660a09190911b65ffffffffffff60a01b16178255565b61360b83613f21565b815463ffffffff60d01b191660d09190911b63ffffffff60d01b16179055565b61363f61363889516133f1565b91846133e4565b936040519889988d8a61343a565b0390a1565b8761365c81612e2c565b6040516331b75e4d60e01b8152918291610fe79160048401612a4c565b8351604051630447b05d60e41b8152600481019290925260248201526044810191909152606490fd5b508015613538565b508351811415613531565b6120e49291611ee16136d1926136c9613f51565b611431613f51565b61388b565b6136de613f51565b6136e6613f51565b5f8051602061454883398151915280546001600160a01b0319166001600160a01b03909216919091179055565b61371b613f51565b613723613f51565b5f805160206145e88339815191528054604080516001600160a01b0380841682529094166020850181905292937f08f74ea46ef7894f65eabfb5e6e695de773a000b47c529ab559178069b2264019190a16001600160a01b031916179055565b5f8051602061454883398151915254604051630748d63560e31b81526001600160a01b039283166004820152602481019390935260209183916044918391165afa908115610b29575f916137d5575090565b61047e915060203d602011610b5457610b458183610659565b9091906120e457506142cf565b63ffffffff908181169081156138735769ffffffff000000000000907f7e3f7f0708a84de9203036abaa450dccc85ad5ff52f78c170f3edb55cf5e882860405f805160206144e8833981519152958654958251918760301c1682526020820152a160301b169069ffffffff0000000000001916179055565b60405163f1cfbf0560e01b81525f6004820152602490fd5b7ed7616c8fe29c6c2fbe1d0c5bc8f2faa4c35b43746e70b24b4d532752affd007fccb45da8d5717e6c4544694297c4ba5cf151d455c9bb0ed4fc7a38411bc05461604082548151908152846020820152a155565b94939261390b6080936138fd6139199460a08a5260a08a0190612930565b9088820360208a01526116f6565b90868203604088015261296c565b935f60608201520152565b919261395360a094613945613961949998979960c0875260c0870190612930565b9085820360208701526116f6565b90838203604085015261296c565b945f606083015260808201520152565b9290939160018060a01b035f805160206145e8833981519152541690813b15610409575f936139cb6040519788958694859463e38335e560e01b86526bffffffffffffffffffffffff193060601b161892600486016138df565b039134905af1908115610b29575f926139e9926139ec575b50612218565b55565b6139f5906105d4565b5f6139e3565b613a0481612245565b5460ff8160f01c16613aeb5760f81c613ae557613a2661316461315583612245565b8015613acc57613a37613164612816565b80911015612ce157613a48826128c5565b10613a535750600190565b613a5f610cd4826142f0565b8015613a9d575b15613a715750600390565b6131646001613a82613a8f93612245565b015465ffffffffffff1690565b613a9857600490565b600590565b50613ac7610cd4825f525f8051602061458883398151915260205260405f20600181015490541090565b613a66565b604051636ad0607560e01b815260048101839052602490fd5b50600290565b5050600790565b90613afe9392916129c8565b613b0781612e2c565b6008811015610eab57603b600160ff83161b1615613bf75750613b41613b2c82612245565b80546001600160f81b0316600160f81b179055565b6040518181527f789cf55be980739dad1d0699b93b58e806b51c9d96619bfa8fe0a28abaa7b30c90602090a1613b7681612218565b5480613b80575090565b5f805160206145e883398151915254613ba1906001600160a01b031661097a565b803b156104095760405163c4d252f560e01b815260048101929092525f908290602490829084905af18015610b2957613be4575b505f613be082612218565b5590565b80610b1d613bf1926105d4565b5f613bd5565b90613c1b606492604051926331b75e4d60e01b845260048401526024830190610eb0565b603b6044820152fd5b90813b15613ca5575f8051602061456883398151915280546001600160a01b0319166001600160a01b0384169081179091557fbc7cd75a20ee27fd9adebab32041f755214dbc6bffa90cc0225b39da2e5c2d3b5f80a2805115613c8a5761274991614332565b505034613c9357565b60405163b398979f60e01b8152600490fd5b604051634c9c8ce360e01b81526001600160a01b0383166004820152602490fd5b8151919060418303613cf657613cef9250602082015190606060408401519301515f1a9061434f565b9192909190565b50505f9160029190565b613d21909291925f525f8051602061458883398151915260205260405f2090565b9160038301613d4a613d4383839060018060a01b03165f5260205260405f2090565b5460ff1690565b613dd257613d6e60ff9392613d7b929060018060a01b03165f5260205260405f2090565b805460ff19166001179055565b1680613d92575090613d8e9082546133e4565b9055565b60018103613daa57506001613d8e91019182546133e4565b600203613dc0576002613d8e91019182546133e4565b6040516303599be160e11b8152600490fd5b6040516371c6af4960e01b81526001600160a01b0383166004820152602490fd5b5f805160206145a8833981519152908154916001600160801b038084169360801c8414613e6057835f527f7c712897014dbe49c045ef1299aa2d5f9e67e48eea4403efa21f1e0f3ac0cb03602052600160405f20945f8654965501166001600160801b0319825416179055565b6040516375e52f4f60e01b8152600490fd5b60f81c9081602f1080613ee5575b15613e9257600191602f190160ff1690565b8160401080613edb575b15613eae576001916036190160ff1690565b8160601080613ed1575b15613eca576001916056190160ff1690565b5f91508190565b5060678210613eb8565b5060478210613e9c565b50603a8210613e80565b65ffffffffffff90818111613f02571690565b604490604051906306dfcc6560e41b8252603060048301526024820152fd5b63ffffffff90818111613f32571690565b604490604051906306dfcc6560e41b8252602060048301526024820152fd5b60ff5f805160206146288339815191525460401c1615613f6d57565b604051631afcd79f60e31b8152600490fd5b601f8111613f8b575050565b5f805160206145088339815191525f527f42ad5d3e1f2e6e70edcf6d991b8a3023d3fca8047a131592f9edb9fd9b89d57d906020601f840160051c83019310613fee575b601f0160051c01905b818110613fe3575050565b5f8155600101613fd8565b9091508190613fcf565b601f8111614004575050565b5f805160206146088339815191525f527fda13dda7583a39a3cd73e8830529c760837228fa4683752c823b17e10548aad5906020601f840160051c83019310614067575b601f0160051c01905b81811061405c575050565b5f8155600101614051565b9091508190614048565b601f811161407d575050565b5f805160206145288339815191525f527f5f9ce34815f8e11431c7bb75a8e6886a91478f7ffc1dbb0a98dc240fddd76b75906020601f840160051c830193106140e0575b601f0160051c01905b8181106140d5575050565b5f81556001016140ca565b90915081906140c1565b9081516001600160401b0381116105e7575f805160206145288339815191529061411d81614118845461205f565b614071565b602080601f831160011461415a57508190613d8e9394955f9261414f575b50508160011b915f199060031b1c19161790565b015190505f8061413b565b90601f198316956141985f805160206145288339815191525f527f5f9ce34815f8e11431c7bb75a8e6886a91478f7ffc1dbb0a98dc240fddd76b7590565b925f905b8882106141d3575050836001959697106141bb575b505050811b019055565b01515f1960f88460031b161c191690555f80806141b1565b8060018596829496860151815501950193019061419c565b906141f4613f51565b81516001600160401b0381116105e7575f805160206146088339815191529061422681614221845461205f565b613ff8565b602080601f831160011461425757508190613d8e9394955f9261414f5750508160011b915f199060031b1c19161790565b90601f198316956142955f805160206146088339815191525f527fda13dda7583a39a3cd73e8830529c760837228fa4683752c823b17e10548aad590565b925f905b8882106142b7575050836001959697106141bb57505050811b019055565b80600185968294968601518155019501930190614299565b8051156142de57805190602001fd5b604051630a12f52160e11b8152600490fd5b5f525f8051602061458883398151915260205260405f205f805160206144c88339815191526020526002600182015491015481018091116125e3576004111590565b5f8061047e93602081519101845af4614349612901565b916143d1565b91907f7fffffffffffffffffffffffffffffff5d576e7357a4501ddfe92f46681b20a084116143c6579160209360809260ff5f9560405194855216868401526040830152606082015282805260015afa15610b29575f516001600160a01b038116156143bc57905f905f90565b505f906001905f90565b5050505f9160039190565b906143dc57506142cf565b8151158061440f575b6143ed575090565b604051639996b31560e01b81526001600160a01b039091166004820152602490fd5b50803b156143e5565b614420612097565b8051908115614430576020012090565b50507fa16a46d94261c7517cc8ff89f61c0ce93598e3c849801011dee649a6a557d10054801561445d5790565b507fc5d2460186f7233c927e7db2dcc703c0e500b653ca82273b7bfad8045d85a47090565b61448a61216c565b805190811561449a576020012090565b50507fa16a46d94261c7517cc8ff89f61c0ce93598e3c849801011dee649a6a557d10154801561445d579056fe7c712897014dbe49c045ef1299aa2d5f9e67e48eea4403efa21f1e0f3ac0cb0100d7616c8fe29c6c2fbe1d0c5bc8f2faa4c35b43746e70b24b4d532752affd01a16a46d94261c7517cc8ff89f61c0ce93598e3c849801011dee649a6a557d102a16a46d94261c7517cc8ff89f61c0ce93598e3c849801011dee649a6a557d1033ba4977254e415696610a40ebf2258dbfa0ec6a2ff64e84bfe715ff16977cc00360894a13ba1a3210667c828492db98dca3e2076cc3735a920a3ca505d382bbca1cefa0f43667ef127a258e673c94202a79b656e62899531c4376d87a7f398007c712897014dbe49c045ef1299aa2d5f9e67e48eea4403efa21f1e0f3ac0cb0202dd7bc7dec4dceedda775e58dd541e08a116c6c53815c0bd028192f7b6268000d5829787b8befdbc6044ef7457d8a95c2a04bc99235349f1a212c063e59d4007c712897014dbe49c045ef1299aa2d5f9e67e48eea4403efa21f1e0f3ac0cb00f0c57e16840df040f15088dc2f81fe391c3923bec73e23a9662efc9c229c6a00a26469706673582212209a8157f2f69d8644f4d009fefd5d9fdb32c231943dd2a76304931d053ed2564064736f6c63430008190033","linkReferences":{}},"methodIdentifiers":{"BALLOT_TYPEHASH()":"deaaa7cc","CLOCK_MODE()":"4bf5d7e9","COUNTING_MODE()":"dd4e2ba5","DEFAULT_ADMIN_ROLE()":"a217fddf","EXTENDED_BALLOT_TYPEHASH()":"2fe3e261","UPGRADE_INTERFACE_VERSION()":"ad3cb1cc","cancel(address[],uint256[],bytes[],bytes32)":"452115d6","castVote(uint256,uint8)":"56781388","castVoteBySig(uint256,uint8,address,bytes)":"8ff262e3","castVoteWithReason(uint256,uint8,string)":"7b3c71d3","castVoteWithReasonAndParams(uint256,uint8,string,bytes)":"5f398a14","castVoteWithReasonAndParamsBySig(uint256,uint8,address,string,bytes,bytes)":"5b8d0e0d","clock()":"91ddadf4","eip712Domain()":"84b0196e","execute(address[],uint256[],bytes[],bytes32)":"2656227d","getRoleAdmin(bytes32)":"248a9ca3","getVotes(address,uint256)":"eb9019d4","getVotesWithParams(address,uint256,bytes)":"9a802a6d","grantRole(bytes32,address)":"2f2ff15d","hasRole(bytes32,address)":"91d14854","hasVoted(uint256,address)":"43859632","hashProposal(address[],uint256[],bytes[],bytes32)":"c59057e4","initialize(address,address,uint48,uint32,uint256,address)":"801ced9f","name()":"06fdde03","nonces(address)":"7ecebe00","onERC1155BatchReceived(address,address,uint256[],uint256[],bytes)":"bc197c81","onERC1155Received(address,address,uint256,uint256,bytes)":"f23a6e61","onERC721Received(address,address,uint256,bytes)":"150b7a02","proposalDeadline(uint256)":"c01f9e37","proposalEta(uint256)":"ab58fb8e","proposalNeedsQueuing(uint256)":"a9a95294","proposalProposer(uint256)":"143489d0","proposalSnapshot(uint256)":"2d63f693","proposalThreshold()":"b58131b0","proposalVotes(uint256)":"544ffc9c","propose(address[],uint256[],bytes[],string)":"7d5e81e2","proxiableUUID()":"52d1902d","queue(address[],uint256[],bytes[],bytes32)":"160cbed7","quorum(uint256)":"f8ce560a","relay(address,uint256,bytes)":"c28bc2fa","renounceRole(bytes32,address)":"36568abe","revokeRole(bytes32,address)":"d547741f","setProposalThreshold(uint256)":"ece40cc1","setVotingDelay(uint48)":"79051887","setVotingPeriod(uint32)":"e540d01d","state(uint256)":"3e4f49e6","supportsInterface(bytes4)":"01ffc9a7","timelock()":"d33219b4","token()":"fc0c546a","updateTimelock(address)":"a890c910","upgradeToAndCall(address,bytes)":"4f1ef286","version()":"54fd4d50","votingDelay()":"3932abb1","votingPeriod()":"02a251a3"},"id":136}