{"abi":[{"type":"constructor","inputs":[],"stateMutability":"nonpayable"},{"type":"function","name":"BASIS_POINTS","inputs":[],"outputs":[{"name":"","type":"uint256","internalType":"uint256"}],"stateMutability":"view"},{"type":"function","name":"DEFAULT_ADMIN_ROLE","inputs":[],"outputs":[{"name":"","type":"bytes32","internalType":"bytes32"}],"stateMutability":"view"},{"type":"function","name":"GOVERNANCE_SHARE","inputs":[],"outputs":[{"name":"","type":"uint256","internalType":"uint256"}],"stateMutability":"view"},{"type":"function","name":"LIQUIDITY_SHARE","inputs":[],"outputs":[{"name":"","type":"uint256","internalType":"uint256"}],"stateMutability":"view"},{"type":"function","name":"LOCK_12_MONTHS","inputs":[],"outputs":[{"name":"","type":"uint256","internalType":"uint256"}],"stateMutability":"view"},{"type":"function","name":"LOCK_24_MONTHS","inputs":[],"outputs":[{"name":"","type":"uint256","internalType":"uint256"}],"stateMutability":"view"},{"type":"function","name":"LOCK_3_MONTHS","inputs":[],"outputs":[{"name":"","type":"uint256","internalType":"uint256"}],"stateMutability":"view"},{"type":"function","name":"LOCK_6_MONTHS","inputs":[],"outputs":[{"name":"","type":"uint256","internalType":"uint256"}],"stateMutability":"view"},{"type":"function","name":"MAX_SLASHES","inputs":[],"outputs":[{"name":"","type":"uint256","internalType":"uint256"}],"stateMutability":"view"},{"type":"function","name":"MIN_GOVERNANCE_STAKE","inputs":[],"outputs":[{"name":"","type":"uint256","internalType":"uint256"}],"stateMutability":"view"},{"type":"function","name":"MIN_LIQUIDITY_STAKE","inputs":[],"outputs":[{"name":"","type":"uint256","internalType":"uint256"}],"stateMutability":"view"},{"type":"function","name":"MIN_SEQUENCER_STAKE","inputs":[],"outputs":[{"name":"","type":"uint256","internalType":"uint256"}],"stateMutability":"view"},{"type":"function","name":"MIN_VOTING_POWER_BLOCKS","inputs":[],"outputs":[{"name":"","type":"uint256","internalType":"uint256"}],"stateMutability":"view"},{"type":"function","name":"MIN_VOTING_POWER_TIME","inputs":[],"outputs":[{"name":"","type":"uint256","internalType":"uint256"}],"stateMutability":"view"},{"type":"function","name":"MULTIPLIER_12_MONTHS","inputs":[],"outputs":[{"name":"","type":"uint256","internalType":"uint256"}],"stateMutability":"view"},{"type":"function","name":"MULTIPLIER_24_MONTHS","inputs":[],"outputs":[{"name":"","type":"uint256","internalType":"uint256"}],"stateMutability":"view"},{"type":"function","name":"MULTIPLIER_3_MONTHS","inputs":[],"outputs":[{"name":"","type":"uint256","internalType":"uint256"}],"stateMutability":"view"},{"type":"function","name":"MULTIPLIER_6_MONTHS","inputs":[],"outputs":[{"name":"","type":"uint256","internalType":"uint256"}],"stateMutability":"view"},{"type":"function","name":"PAUSER_ROLE","inputs":[],"outputs":[{"name":"","type":"bytes32","internalType":"bytes32"}],"stateMutability":"view"},{"type":"function","name":"REWARD_DISTRIBUTOR_ROLE","inputs":[],"outputs":[{"name":"","type":"bytes32","internalType":"bytes32"}],"stateMutability":"view"},{"type":"function","name":"SEQUENCER_MANAGER_ROLE","inputs":[],"outputs":[{"name":"","type":"bytes32","internalType":"bytes32"}],"stateMutability":"view"},{"type":"function","name":"SEQUENCER_SHARE","inputs":[],"outputs":[{"name":"","type":"uint256","internalType":"uint256"}],"stateMutability":"view"},{"type":"function","name":"SLASH_PERCENTAGE","inputs":[],"outputs":[{"name":"","type":"uint256","internalType":"uint256"}],"stateMutability":"view"},{"type":"function","name":"UPGRADE_INTERFACE_VERSION","inputs":[],"outputs":[{"name":"","type":"string","internalType":"string"}],"stateMutability":"view"},{"type":"function","name":"andeToken","inputs":[],"outputs":[{"name":"","type":"address","internalType":"contract IERC20"}],"stateMutability":"view"},{"type":"function","name":"circuitBreaker","inputs":[],"outputs":[{"name":"stakingPaused","type":"bool","internalType":"bool"},{"name":"unstakingPaused","type":"bool","internalType":"bool"},{"name":"rewardClaimPaused","type":"bool","internalType":"bool"},{"name":"rewardDistributionPaused","type":"bool","internalType":"bool"},{"name":"maxStakePerTx","type":"uint256","internalType":"uint256"},{"name":"maxUnstakePerTx","type":"uint256","internalType":"uint256"},{"name":"dailyWithdrawLimit","type":"uint256","internalType":"uint256"},{"name":"withdrawnToday","type":"uint256","internalType":"uint256"},{"name":"lastResetDay","type":"uint256","internalType":"uint256"}],"stateMutability":"view"},{"type":"function","name":"claimRewards","inputs":[],"outputs":[],"stateMutability":"nonpayable"},{"type":"function","name":"distributeRewards","inputs":[{"name":"totalAmount","type":"uint256","internalType":"uint256"}],"outputs":[],"stateMutability":"nonpayable"},{"type":"function","name":"emergencyPauseRewardClaim","inputs":[],"outputs":[],"stateMutability":"nonpayable"},{"type":"function","name":"emergencyPauseRewardDistribution","inputs":[],"outputs":[],"stateMutability":"nonpayable"},{"type":"function","name":"emergencyPauseStaking","inputs":[],"outputs":[],"stateMutability":"nonpayable"},{"type":"function","name":"emergencyPauseUnstaking","inputs":[],"outputs":[],"stateMutability":"nonpayable"},{"type":"function","name":"emergencyResumeRewardClaim","inputs":[],"outputs":[],"stateMutability":"nonpayable"},{"type":"function","name":"emergencyResumeRewardDistribution","inputs":[],"outputs":[],"stateMutability":"nonpayable"},{"type":"function","name":"emergencyResumeStaking","inputs":[],"outputs":[],"stateMutability":"nonpayable"},{"type":"function","name":"emergencyResumeUnstaking","inputs":[],"outputs":[],"stateMutability":"nonpayable"},{"type":"function","name":"extendLock","inputs":[{"name":"newLockPeriod","type":"uint8","internalType":"enum AndeNativeStaking.LockPeriod"}],"outputs":[],"stateMutability":"nonpayable"},{"type":"function","name":"getActiveSequencersCount","inputs":[],"outputs":[{"name":"","type":"uint256","internalType":"uint256"}],"stateMutability":"view"},{"type":"function","name":"getPendingRewards","inputs":[{"name":"user","type":"address","internalType":"address"}],"outputs":[{"name":"","type":"uint256","internalType":"uint256"}],"stateMutability":"view"},{"type":"function","name":"getRoleAdmin","inputs":[{"name":"role","type":"bytes32","internalType":"bytes32"}],"outputs":[{"name":"","type":"bytes32","internalType":"bytes32"}],"stateMutability":"view"},{"type":"function","name":"getSequencers","inputs":[],"outputs":[{"name":"","type":"address[]","internalType":"address[]"}],"stateMutability":"view"},{"type":"function","name":"getStakeInfo","inputs":[{"name":"user","type":"address","internalType":"address"}],"outputs":[{"name":"","type":"tuple","internalType":"struct AndeNativeStaking.StakeInfo","components":[{"name":"amount","type":"uint256","internalType":"uint256"},{"name":"level","type":"uint8","internalType":"enum AndeNativeStaking.StakingLevel"},{"name":"lockPeriod","type":"uint8","internalType":"enum AndeNativeStaking.LockPeriod"},{"name":"lockUntil","type":"uint256","internalType":"uint256"},{"name":"votingPower","type":"uint256","internalType":"uint256"},{"name":"rewardDebt","type":"uint256","internalType":"uint256"},{"name":"stakedAt","type":"uint256","internalType":"uint256"},{"name":"isSequencer","type":"bool","internalType":"bool"},{"name":"lastStakeBlock","type":"uint256","internalType":"uint256"},{"name":"lastStakeTimestamp","type":"uint256","internalType":"uint256"}]}],"stateMutability":"view"},{"type":"function","name":"getVotingPowerWithFlashLoanProtection","inputs":[{"name":"user","type":"address","internalType":"address"}],"outputs":[{"name":"","type":"uint256","internalType":"uint256"}],"stateMutability":"view"},{"type":"function","name":"grantRole","inputs":[{"name":"role","type":"bytes32","internalType":"bytes32"},{"name":"account","type":"address","internalType":"address"}],"outputs":[],"stateMutability":"nonpayable"},{"type":"function","name":"hasRole","inputs":[{"name":"role","type":"bytes32","internalType":"bytes32"},{"name":"account","type":"address","internalType":"address"}],"outputs":[{"name":"","type":"bool","internalType":"bool"}],"stateMutability":"view"},{"type":"function","name":"initialize","inputs":[{"name":"_andeToken","type":"address","internalType":"address"},{"name":"defaultAdmin","type":"address","internalType":"address"},{"name":"_treasury","type":"address","internalType":"address"}],"outputs":[],"stateMutability":"nonpayable"},{"type":"function","name":"isActiveSequencer","inputs":[{"name":"","type":"address","internalType":"address"}],"outputs":[{"name":"","type":"bool","internalType":"bool"}],"stateMutability":"view"},{"type":"function","name":"pause","inputs":[],"outputs":[],"stateMutability":"nonpayable"},{"type":"function","name":"paused","inputs":[],"outputs":[{"name":"","type":"bool","internalType":"bool"}],"stateMutability":"view"},{"type":"function","name":"proxiableUUID","inputs":[],"outputs":[{"name":"","type":"bytes32","internalType":"bytes32"}],"stateMutability":"view"},{"type":"function","name":"recordSequencerActivity","inputs":[{"name":"sequencer","type":"address","internalType":"address"}],"outputs":[],"stateMutability":"nonpayable"},{"type":"function","name":"recordSequencerMiss","inputs":[{"name":"sequencer","type":"address","internalType":"address"}],"outputs":[],"stateMutability":"nonpayable"},{"type":"function","name":"registerSequencer","inputs":[{"name":"sequencer","type":"address","internalType":"address"}],"outputs":[],"stateMutability":"nonpayable"},{"type":"function","name":"renounceRole","inputs":[{"name":"role","type":"bytes32","internalType":"bytes32"},{"name":"callerConfirmation","type":"address","internalType":"address"}],"outputs":[],"stateMutability":"nonpayable"},{"type":"function","name":"revokeRole","inputs":[{"name":"role","type":"bytes32","internalType":"bytes32"},{"name":"account","type":"address","internalType":"address"}],"outputs":[],"stateMutability":"nonpayable"},{"type":"function","name":"rewardPools","inputs":[{"name":"","type":"uint8","internalType":"enum AndeNativeStaking.StakingLevel"}],"outputs":[{"name":"totalRewards","type":"uint256","internalType":"uint256"},{"name":"rewardPerShare","type":"uint256","internalType":"uint256"},{"name":"lastUpdateTime","type":"uint256","internalType":"uint256"}],"stateMutability":"view"},{"type":"function","name":"sequencerPerformance","inputs":[{"name":"","type":"address","internalType":"address"}],"outputs":[{"name":"totalBlocks","type":"uint256","internalType":"uint256"},{"name":"missedBlocks","type":"uint256","internalType":"uint256"},{"name":"lastActivityBlock","type":"uint256","internalType":"uint256"},{"name":"isActive","type":"bool","internalType":"bool"},{"name":"slashCount","type":"uint256","internalType":"uint256"}],"stateMutability":"view"},{"type":"function","name":"sequencers","inputs":[{"name":"","type":"uint256","internalType":"uint256"}],"outputs":[{"name":"","type":"address","internalType":"address"}],"stateMutability":"view"},{"type":"function","name":"setDailyWithdrawLimit","inputs":[{"name":"newLimit","type":"uint256","internalType":"uint256"}],"outputs":[],"stateMutability":"nonpayable"},{"type":"function","name":"setMaxStakePerTx","inputs":[{"name":"newMax","type":"uint256","internalType":"uint256"}],"outputs":[],"stateMutability":"nonpayable"},{"type":"function","name":"setMaxUnstakePerTx","inputs":[{"name":"newMax","type":"uint256","internalType":"uint256"}],"outputs":[],"stateMutability":"nonpayable"},{"type":"function","name":"setTreasury","inputs":[{"name":"newTreasury","type":"address","internalType":"address"}],"outputs":[],"stateMutability":"nonpayable"},{"type":"function","name":"slashSequencer","inputs":[{"name":"sequencer","type":"address","internalType":"address"},{"name":"reason","type":"string","internalType":"string"}],"outputs":[],"stateMutability":"nonpayable"},{"type":"function","name":"stakeGovernance","inputs":[{"name":"amount","type":"uint256","internalType":"uint256"},{"name":"lockPeriod","type":"uint8","internalType":"enum AndeNativeStaking.LockPeriod"}],"outputs":[],"stateMutability":"nonpayable"},{"type":"function","name":"stakeLiquidity","inputs":[{"name":"amount","type":"uint256","internalType":"uint256"}],"outputs":[],"stateMutability":"nonpayable"},{"type":"function","name":"stakeSequencer","inputs":[{"name":"amount","type":"uint256","internalType":"uint256"}],"outputs":[],"stateMutability":"nonpayable"},{"type":"function","name":"stakes","inputs":[{"name":"","type":"address","internalType":"address"}],"outputs":[{"name":"amount","type":"uint256","internalType":"uint256"},{"name":"level","type":"uint8","internalType":"enum AndeNativeStaking.StakingLevel"},{"name":"lockPeriod","type":"uint8","internalType":"enum AndeNativeStaking.LockPeriod"},{"name":"lockUntil","type":"uint256","internalType":"uint256"},{"name":"votingPower","type":"uint256","internalType":"uint256"},{"name":"rewardDebt","type":"uint256","internalType":"uint256"},{"name":"stakedAt","type":"uint256","internalType":"uint256"},{"name":"isSequencer","type":"bool","internalType":"bool"},{"name":"lastStakeBlock","type":"uint256","internalType":"uint256"},{"name":"lastStakeTimestamp","type":"uint256","internalType":"uint256"}],"stateMutability":"view"},{"type":"function","name":"supportsInterface","inputs":[{"name":"interfaceId","type":"bytes4","internalType":"bytes4"}],"outputs":[{"name":"","type":"bool","internalType":"bool"}],"stateMutability":"view"},{"type":"function","name":"totalRewardDebt","inputs":[],"outputs":[{"name":"","type":"uint256","internalType":"uint256"}],"stateMutability":"view"},{"type":"function","name":"totalStaked","inputs":[{"name":"","type":"uint8","internalType":"enum AndeNativeStaking.StakingLevel"}],"outputs":[{"name":"","type":"uint256","internalType":"uint256"}],"stateMutability":"view"},{"type":"function","name":"totalVotingPower","inputs":[],"outputs":[{"name":"","type":"uint256","internalType":"uint256"}],"stateMutability":"view"},{"type":"function","name":"treasury","inputs":[],"outputs":[{"name":"","type":"address","internalType":"address"}],"stateMutability":"view"},{"type":"function","name":"unpause","inputs":[],"outputs":[],"stateMutability":"nonpayable"},{"type":"function","name":"unstake","inputs":[],"outputs":[],"stateMutability":"nonpayable"},{"type":"function","name":"upgradeToAndCall","inputs":[{"name":"newImplementation","type":"address","internalType":"address"},{"name":"data","type":"bytes","internalType":"bytes"}],"outputs":[],"stateMutability":"payable"},{"type":"event","name":"CircuitBreakerTriggered","inputs":[{"name":"breakerType","type":"string","indexed":false,"internalType":"string"},{"name":"enabled","type":"bool","indexed":false,"internalType":"bool"}],"anonymous":false},{"type":"event","name":"DailyLimitUpdated","inputs":[{"name":"newLimit","type":"uint256","indexed":false,"internalType":"uint256"}],"anonymous":false},{"type":"event","name":"Initialized","inputs":[{"name":"version","type":"uint64","indexed":false,"internalType":"uint64"}],"anonymous":false},{"type":"event","name":"InvariantCheckFailed","inputs":[{"name":"invariantType","type":"string","indexed":false,"internalType":"string"},{"name":"expected","type":"uint256","indexed":false,"internalType":"uint256"},{"name":"actual","type":"uint256","indexed":false,"internalType":"uint256"}],"anonymous":false},{"type":"event","name":"LockExtended","inputs":[{"name":"user","type":"address","indexed":true,"internalType":"address"},{"name":"newLockPeriod","type":"uint8","indexed":false,"internalType":"enum AndeNativeStaking.LockPeriod"},{"name":"newLockUntil","type":"uint256","indexed":false,"internalType":"uint256"}],"anonymous":false},{"type":"event","name":"Paused","inputs":[{"name":"account","type":"address","indexed":false,"internalType":"address"}],"anonymous":false},{"type":"event","name":"RewardsClaimed","inputs":[{"name":"user","type":"address","indexed":true,"internalType":"address"},{"name":"amount","type":"uint256","indexed":false,"internalType":"uint256"}],"anonymous":false},{"type":"event","name":"RewardsDistributed","inputs":[{"name":"level","type":"uint8","indexed":false,"internalType":"enum AndeNativeStaking.StakingLevel"},{"name":"amount","type":"uint256","indexed":false,"internalType":"uint256"}],"anonymous":false},{"type":"event","name":"RoleAdminChanged","inputs":[{"name":"role","type":"bytes32","indexed":true,"internalType":"bytes32"},{"name":"previousAdminRole","type":"bytes32","indexed":true,"internalType":"bytes32"},{"name":"newAdminRole","type":"bytes32","indexed":true,"internalType":"bytes32"}],"anonymous":false},{"type":"event","name":"RoleGranted","inputs":[{"name":"role","type":"bytes32","indexed":true,"internalType":"bytes32"},{"name":"account","type":"address","indexed":true,"internalType":"address"},{"name":"sender","type":"address","indexed":true,"internalType":"address"}],"anonymous":false},{"type":"event","name":"RoleRevoked","inputs":[{"name":"role","type":"bytes32","indexed":true,"internalType":"bytes32"},{"name":"account","type":"address","indexed":true,"internalType":"address"},{"name":"sender","type":"address","indexed":true,"internalType":"address"}],"anonymous":false},{"type":"event","name":"SequencerRegistered","inputs":[{"name":"sequencer","type":"address","indexed":true,"internalType":"address"}],"anonymous":false},{"type":"event","name":"SequencerRemoved","inputs":[{"name":"sequencer","type":"address","indexed":true,"internalType":"address"}],"anonymous":false},{"type":"event","name":"SequencerSlashed","inputs":[{"name":"sequencer","type":"address","indexed":true,"internalType":"address"},{"name":"amount","type":"uint256","indexed":false,"internalType":"uint256"},{"name":"reason","type":"string","indexed":false,"internalType":"string"}],"anonymous":false},{"type":"event","name":"Staked","inputs":[{"name":"user","type":"address","indexed":true,"internalType":"address"},{"name":"amount","type":"uint256","indexed":false,"internalType":"uint256"},{"name":"level","type":"uint8","indexed":false,"internalType":"enum AndeNativeStaking.StakingLevel"},{"name":"lockPeriod","type":"uint8","indexed":false,"internalType":"enum AndeNativeStaking.LockPeriod"},{"name":"votingPower","type":"uint256","indexed":false,"internalType":"uint256"}],"anonymous":false},{"type":"event","name":"Unpaused","inputs":[{"name":"account","type":"address","indexed":false,"internalType":"address"}],"anonymous":false},{"type":"event","name":"Unstaked","inputs":[{"name":"user","type":"address","indexed":true,"internalType":"address"},{"name":"amount","type":"uint256","indexed":false,"internalType":"uint256"},{"name":"reward","type":"uint256","indexed":false,"internalType":"uint256"}],"anonymous":false},{"type":"event","name":"Upgraded","inputs":[{"name":"implementation","type":"address","indexed":true,"internalType":"address"}],"anonymous":false},{"type":"error","name":"AccessControlBadConfirmation","inputs":[]},{"type":"error","name":"AccessControlUnauthorizedAccount","inputs":[{"name":"account","type":"address","internalType":"address"},{"name":"neededRole","type":"bytes32","internalType":"bytes32"}]},{"type":"error","name":"AddressEmptyCode","inputs":[{"name":"target","type":"address","internalType":"address"}]},{"type":"error","name":"AddressInsufficientBalance","inputs":[{"name":"account","type":"address","internalType":"address"}]},{"type":"error","name":"CannotReduceLockPeriod","inputs":[]},{"type":"error","name":"ERC1967InvalidImplementation","inputs":[{"name":"implementation","type":"address","internalType":"address"}]},{"type":"error","name":"ERC1967NonPayable","inputs":[]},{"type":"error","name":"EnforcedPause","inputs":[]},{"type":"error","name":"ExceedsDailyLimit","inputs":[]},{"type":"error","name":"ExceedsMaxPerTx","inputs":[]},{"type":"error","name":"ExpectedPause","inputs":[]},{"type":"error","name":"FailedInnerCall","inputs":[]},{"type":"error","name":"InsufficientStakeAmount","inputs":[]},{"type":"error","name":"InvalidInitialization","inputs":[]},{"type":"error","name":"InvalidLockPeriod","inputs":[]},{"type":"error","name":"InvalidStakingLevel","inputs":[]},{"type":"error","name":"InvariantViolation","inputs":[{"name":"reason","type":"string","internalType":"string"}]},{"type":"error","name":"MaxSlashesReached","inputs":[]},{"type":"error","name":"NoStakeFound","inputs":[]},{"type":"error","name":"NotInitializing","inputs":[]},{"type":"error","name":"NotSequencer","inputs":[]},{"type":"error","name":"ReentrancyGuardReentrantCall","inputs":[]},{"type":"error","name":"RewardClaimPaused","inputs":[]},{"type":"error","name":"RewardDistributionPaused","inputs":[]},{"type":"error","name":"SafeERC20FailedOperation","inputs":[{"name":"token","type":"address","internalType":"address"}]},{"type":"error","name":"SequencerStakeRequired","inputs":[]},{"type":"error","name":"StakeStillLocked","inputs":[]},{"type":"error","name":"StakingPaused","inputs":[]},{"type":"error","name":"UUPSUnauthorizedCallContext","inputs":[]},{"type":"error","name":"UUPSUnsupportedProxiableUUID","inputs":[{"name":"slot","type":"bytes32","internalType":"bytes32"}]},{"type":"error","name":"UnstakingPaused","inputs":[]}],"bytecode":{"object":"0x60a0806040523460c857306080527ff0c57e16840df040f15088dc2f81fe391c3923bec73e23a9662efc9c229c6a009081549060ff8260401c1660b957506001600160401b036002600160401b0319828216016075575b60405161374290816100cd8239608051818181611a030152611ad30152f35b6001600160401b031990911681179091556040519081527fc7f505b2f371ae2175ee4913f4499e1f2633a7b5936321eed1cdaeb6115181d290602090a15f80806056565b63f92ee8a960e01b8152600490fd5b5f80fdfe604060808152600480361015610013575f80fd5b60e05f35811c90816301644c241461289157816301ffc9a71461283d5781630569ce581461281a57816311149445146127fd578163125c5f161461273b578163140f021c1461271457816316934fc41461266057816316efd941146125ea5781631ee59c46146125b9578163248a9ca3146125825781632a079624146123985781632def66201461215f5781632f2ff15d1461213657816332e4bb0a146120fc57816333803860146120de5781633507637314611f0457816336568abe14611ebf578163372500ab14611e195781633f4ba83a14611da357816343270d56146114f757816345a4f50614611d33578163487ebf4f14611d0f5781634880a49414611cb15781634e8bd10814611c8e5781634f1ef28614611a835781635099080314611a6757816352d1902d146119ef578163582074ae1461198f578163586104f91461192a57816358f921ce1461190a57816359974e38146116105781635a336aba146115f05781635c975abb146115c15781635f059d7d1461159c57816361d027b31461157457816364dd3a8514611559578163671b37931461153c5781636ba7ccff146114fc5781636f1cc76a146114f757816372b58050146114905781637f0c57db1461147457816383bb38771461145657816383c440a61461122e5781638456cb59146111b657816388163eed1461119a5781638b7429441461117c57816391d148541461112b578163933be7a2146110ef5781639a0bb514146110895781639f29f1351461106d578163a1fa930314610f38578163a217fddf14610f1e578163ad3cb1cc14610eb1578163b75b846c14610e77578163c0a9c35d14610e5a578163c0c53b8b14610c2d578163c345315314610aa457508063c55a4eee14610a88578063c85ec05614610a1b578063ce25bf64146109ff578063cf8df30e1461079a578063d547741f14610751578063d7d9e76e14610705578063e1261185146106c1578063e13b2bd91461066b578063e1f1c4a71461064f578063e3f76681146105f4578063e63ab1e9146105ba578063eb9cc6ea1461059f578063ec0674d814610583578063f0f4426014610540578063f3495d501461042f578063f6d0756a146103cb578063f6ed20171461039f5763f761e07914610357575f80fd5b3461039b57602036600319011261039b573590600382101561039b5761037e60609261295e565b805491600260018301549201549181519384526020840152820152f35b5f80fd5b823461039b57602036600319011261039b576020906103c46103bf6128ed565b612c04565b9051908152f35b823461039b575f36600319011261039b5760805f805160206136ed833981519152916103f5612c5b565b6201000062ff0000196007541617600755600b8151918083528201526a726577617264436c61696d60a81b606082015260016020820152a1005b50903461039b57602036600319011261039b5761044a6128ed565b610452612d2a565b60018060a01b0380911692835f526001602052825f2069152d02c7e14af6800000815410610531576006015460ff161561052357835f52600660205260ff835f2054161561049c57005b600554906801000000000000000082101561051057508060016104c29201600555612a36565b819291549060031b9185831b921b1916179055815f5260066020525f20600160ff198254161790557fabc492a6409e9258da817c6e277ac9c1321a59ab65feba891fabe760d4f85b065f80a2005b604190634e487b7160e01b5f525260245ffd5b82516314f8a09f60e21b8152fd5b50825163467f340960e01b8152fd5b3461039b57602036600319011261039b576105596128ed565b610561612cd4565b600e80546001600160a01b0319166001600160a01b0392909216919091179055005b823461039b575f36600319011261039b5760209051610fa08152f35b823461039b575f36600319011261039b576020905160038152f35b823461039b575f36600319011261039b57602090517f65d7a28e3265b37a6474929f336521b332c1681b933f6cb9f3376673440d862a8152f35b823461039b575f36600319011261039b5760805f805160206136ed8339815191529161061e612c5b565b61ff001960075416600755600981519180835282015268756e7374616b696e6760b81b60608201525f6020820152a1005b823461039b575f36600319011261039b57602090516127108152f35b823461039b575f36600319011261039b5760805f805160206136ed83398151915291610695612c5b565b6007805460ff19168155815182815291820152667374616b696e6760c81b60608201525f6020820152a1005b823461039b57602036600319011261039b576001906106de6128ed565b6106e6612d2a565b828060a01b03165f52600d6020525f20016107018154612ad1565b9055005b503461039b57602036600319011261039b577f6cd8635c4285386b9de2e59a4c1eaf32ad41f28ae64c308280217d7af51464e0916020913590610746612cd4565b81600a5551908152a1005b50903461039b578060031936011261039b5761079891356107936001610775612903565b93835f525f8051602061368d8339815191526020525f200154612d85565b6133b1565b005b503461039b578160031936011261039b576107b36128ed565b9060243567ffffffffffffffff811161039b573660238201121561039b576107e49036906024818501359101612a00565b926107ed612d2a565b60018060a01b0393848416805f526020916006835260ff845f205416156109ef57815f5260018352835f2060ff600682015416156109df57825f52600d8452600386865f20015410156109cf578054906101f490818302908382048314841517156109bc576108626127108093048095612ac4565b815560ff6001820161087682825416612947565b610881878254612ac4565b9055541660038110156109a957600114610922575b505050917f54feefbe9d950d84d055909aadbe66ae8707aa598d83daaca3756384a47a34568192846108d8600d97968c60039c9d5f541690600e541690613072565b835f5286865288885f20016108ed8154612ad1565b905561090788519283928352898884015289830190612a7f565b0390a25f52525f200154101561091957005b61079890613021565b60030190815492808402908482041484151715610996578460039b9c6109847f54feefbe9d950d84d055909aadbe66ae8707aa598d83daaca3756384a47a3456968a999661097b600d9d9c9a976108d897048093612ac4565b90558d54612ac4565b8c559c9b509450508194959650610896565b60118a634e487b7160e01b5f525260245ffd5b60218a634e487b7160e01b5f525260245ffd5b601189634e487b7160e01b5f525260245ffd5b8451630116195360e71b81528690fd5b84516314f8a09f60e21b81528690fd5b505050516314f8a09f60e21b8152fd5b823461039b575f36600319011261039b5760209051610e108152f35b823461039b575f36600319011261039b5760805f805160206136ed83398151915291610a45612c5b565b630100000063ff0000001960075416176007556012815191808352820152713932bbb0b9322234b9ba3934b13aba34b7b760711b606082015260016020820152a1005b823461039b575f36600319011261039b5760209051614e208152f35b9190503461039b57602036600319011261039b57610ac06128ed565b835192610acc84612991565b5f84525f60208501525f858501525f60608501525f60808501525f60a08501525f60c08501525f81850152610100915f838601525f6101208096015260018060a01b03165f526001602052845f2090855193610b2785612991565b82548552600183015460208601979060ff81166003811015610c1a578952868201929060081c60ff166005811015610c0757835260028501549060608801918252600386015490608089019182528601549160a0890192835260058701549360c08a01948552600688015460ff1695878b0196151587526007890154988a8c01998a52600801549a8c81019b8c5282519d8e915182525190602001610bcb91612919565b51908c01610bd89161293a565b5160608b01525160808a01525160a08901525160c0880152511515908601525190840152519082015261014090f35b602182634e487b7160e01b5f525260245ffd5b602184634e487b7160e01b5f525260245ffd5b82843461039b57606036600319011261039b57610c486128ed565b610c50612903565b6001600160a01b03906044358281169081900361039b577ff0c57e16840df040f15088dc2f81fe391c3923bec73e23a9662efc9c229c6a009384549360ff85881c16159467ffffffffffffffff811680159081610e52575b6001149081610e48575b159081610e3f575b50610e2f5785610d7a9697989950600167ffffffffffffffff198316178955610e10575b50610ce7613599565b610cef613599565b610cf7613599565b610cff613599565b5f805160206136ad833981519152805460ff19169055610d1d613599565b610d25613599565b60015f805160206136cd833981519152556bffffffffffffffffffffffff60a01b9116815f5416175f55600e541617600e55610d60816130c4565b50610d6a81613148565b50610d74816131f5565b5061329b565b5060025f526002602052426002845f20015560015f52426002845f2001555f8052426002845f20015569d3c21bcecceda100000080600a556a084595161401484a000000600855600955620151804204600c55610dd357005b805468ff00000000000000001916905551600181527fc7f505b2f371ae2175ee4913f4499e1f2633a7b5936321eed1cdaeb6115181d290602090a1005b68ffffffffffffffffff19166801000000000000000117875588610cde565b875163f92ee8a960e01b81528990fd5b9050158a610cba565b303b159150610cb2565b879150610ca8565b833461039b575f36600319011261039b576020905162ed4e008152f35b833461039b575f36600319011261039b57602090517f725346f2674e7a610d0ae6e19dd9b45a4380674de24b5ed8476a591399281da38152f35b82843461039b575f36600319011261039b5780519080820182811067ffffffffffffffff821117610f0b57610f079350815260058252640352e302e360dc1b602083015251918291602083526020830190612a7f565b0390f35b604184634e487b7160e01b5f525260245ffd5b833461039b575f36600319011261039b57602090515f8152f35b82843461039b57602036600319011261039b57813590600582101561039b57335f526001602052805f20805493841561105f57600182019460ff865460081c16600581101561103d578511156110505760ff610fc996610f9787613489565b600386016002612710610fb5835497610faf8d613550565b90612adf565b049a8b93610fc38c87612be5565b42612aa3565b970196875555541695600387101561103d5760017f7f7240db95ee32b3ea13e7a1501c9f6870a3b7d7d66d1e4417f3bc47e43b80f2969714611020575b505050546110168251809561293a565b60208401523392a2005b61102e611033928454612ac4565b612aa3565b9055848080611006565b602183634e487b7160e01b5f525260245ffd5b508251631e127b3160e21b8152fd5b8251632cdf478160e11b8152fd5b833461039b575f36600319011261039b57602090516101f48152f35b833461039b575f36600319011261039b5760805f805160206136ed833981519152916110b3612c5b565b63ff00000019600754166007556012815191808352820152713932bbb0b9322234b9ba3934b13aba34b7b760711b60608201525f6020820152a1005b833461039b57602036600319011261039b576020906001600160a01b036111146128ed565b165f526006825260ff815f20541690519015158152f35b82843461039b578060031936011261039b57602091611148612903565b90355f525f8051602061368d8339815191528352815f209060018060a01b03165f52825260ff815f20541690519015158152f35b833461039b575f36600319011261039b57602090516303c267008152f35b833461039b575f36600319011261039b5760209051613a988152f35b82843461039b575f36600319011261039b576111d0612c5b565b5f805160206136ad8339815191529182549060ff8216611220577f62e78cea01bee320cd4e420270b5ea74000d11b0c9f74754ebdbfc544b05a2586020848660018660ff191617905551338152a1005b825163d93c066560e01b8152fd5b50503461039b578160031936011261039b57803590602435600581101561039b5760ff60075416801561143e575b61142f57611268612db3565b600854831161142057683635c9adc5dea000008310611411578015611402576113af90600194855f526002602052426002825f200155335f5285602052805f209384546113f3575b5f546112ca908790309033906001600160a01b0316613430565b6112d383613489565b946113116127106112ec6112e687613550565b8a612adf565b04966112f9898454612aa3565b8355610fc3868b85018c60ff19825416178155612be5565b600282015560038101611325878254612aa3565b9055426005820155436007820155426008820155670de0b6b3a764000061135b82548a5f5260026020528a865f20015490612adf565b04906113738261102e85600f54940193845490612ac4565b600f5555865f526003602052815f2061138d878254612aa3565b905561139a858254612aa3565b9055805194855285602086015284019061293a565b60608201527f460149dcc806063b409e87cd1622b4db5c31dc026921c539670b39d63a4db16060803392a26113e2612de2565b5f805160206136cd83398151915255005b6113fc33612f7a565b506112b0565b508251632a82a34f60e01b8152fd5b50825163a8ded35f60e01b8152fd5b508251638cc2fc5560e01b8152fd5b5082516326d1807b60e01b8152fd5b5060ff5f805160206136ad833981519152541661125c565b833461039b575f36600319011261039b57602090600f549051908152f35b833461039b575f36600319011261039b5760209051612ee08152f35b50503461039b57602036600319011261039b5760a0916001600160a01b036114b66128ed565b165f52600d602052805f2080549260018201549260028301549160ff6003850154169301549381519586526020860152840152151560608301526080820152f35b612975565b50503461039b57602036600319011261039b57359060055482101561039b57611526602092612a36565b905491519160018060a01b039160031b1c168152f35b82843461039b575f36600319011261039b57602091549051908152f35b833461039b575f36600319011261039b576020905160028152f35b833461039b575f36600319011261039b57600e5490516001600160a01b039091168152602090f35b833461039b57602036600319011261039b576020906103c46115bc6128ed565b612b10565b833461039b575f36600319011261039b5760209060ff5f805160206136ad833981519152541690519015158152f35b823461039b57602036600319011261039b5761160a612cd4565b35600955005b82843461039b5760208060031936011261039b5782357fb814ff4a26ea3ec5cd1fa579daad86324826254265f3acfec78303a19845b449805f525f8051602061368d8339815191528352835f20335f52835260ff845f205416156118ec575060ff60075460181c166118dd57610fa0808202821591838204148217156118ca5761271080910491610bb890818502918583041417156118b7575f54919004926116c591309033906001600160a01b0316613430565b600290815f52600390818552855f2054611836575b5060015f52808452845f20546117a4575b5f8052808452845f2054611702575b610798612de2565b818452845f20914290830155611719838354612aa3565b8255670de0b6b3a764000095868402968488041484151715611791575060016117707f9e3feeb5046e3fdd703c402a5590573d660890042796341a2097f204d234c04a9761177a935f80528752875f205490612af2565b9201918254612aa3565b90558251915f8352820152a18080808080806116fa565b601190634e487b7160e01b5f525260245ffd5b818452845f2042838201556117ba848254612aa3565b8155670de0b6b3a76400008085029085820414851517156118235760016117706117ee92825f52858952895f205490612af2565b90557f9e3feeb5046e3fdd703c402a5590573d660890042796341a2097f204d234c04a858051600181528587820152a16116eb565b601188634e487b7160e01b5f525260245ffd5b828552855f20428482015561184c828254612aa3565b8155670de0b6b3a76400008083029083820414831517156109bc579187916118a460016117707f9e3feeb5046e3fdd703c402a5590573d660890042796341a2097f204d234c04a96895f52888c52865f205490612af2565b905581519085825287820152a1866116da565b601187634e487b7160e01b5f525260245ffd5b601186634e487b7160e01b5f525260245ffd5b5050516327b3480160e21b8152fd5b835163e2517d3f60e01b815233818701526024810191909152604490fd5b823461039b57602036600319011261039b57611924612cd4565b35600855005b833461039b57602036600319011261039b576003906119476128ed565b61194f612d2a565b6001600160a01b03165f818152600d602052829020805461196f90612ad1565b90555f908152600d6020522043600282015501805460ff19166001179055005b833461039b575f36600319011261039b5760805f805160206136ed833981519152916119b9612c5b565b61010061ff00196007541617600755600981519180835282015268756e7374616b696e6760b81b606082015260016020820152a1005b82843461039b575f36600319011261039b577f00000000000000000000000000000000000000000000000000000000000000006001600160a01b03163003611a5a57602090517f360894a13ba1a3210667c828492db98dca3e2076cc3735a920a3ca505d382bbc8152f35b5163703e46dd60e11b8152fd5b833461039b575f36600319011261039b57602090516129048152f35b50508160031936011261039b57611a986128ed565b60243567ffffffffffffffff811161039b573660238201121561039b57611ac89036906024818601359101612a00565b926001600160a01b037f00000000000000000000000000000000000000000000000000000000000000008116308114908115611c60575b50611c5057611b0c612cd4565b82169181516352d1902d60e01b81526020818681875afa5f9181611c1c575b50611b4757505051634c9c8ce360e01b81529182015260249150fd5b7f360894a13ba1a3210667c828492db98dca3e2076cc3735a920a3ca505d382bbc949392919490818103611c065750843b15611bf05780546001600160a01b0319168317905551907fbc7cd75a20ee27fd9adebab32041f755214dbc6bffa90cc0225b39da2e5c2d3b5f80a2835115611bd95750505f8083602061079895519101845af4611bd36135da565b91613609565b9150915034611be457005b63b398979f60e01b8152fd5b5051634c9c8ce360e01b81529182015260249150fd5b84602491845191632a87526960e21b8352820152fd5b9091506020813d602011611c48575b81611c38602093836129c2565b8101031261039b5751905f611b2b565b3d9150611c2b565b815163703e46dd60e11b81528490fd5b9050817f360894a13ba1a3210667c828492db98dca3e2076cc3735a920a3ca505d382bbc541614155f611aff565b833461039b575f36600319011261039b5760209051683635c9adc5dea000008152f35b833461039b575f36600319011261039b5760805f805160206136ed83398151915291611cdb612c5b565b62ff00001960075416600755600b8151918083528201526a726577617264436c61696d60a81b60608201525f6020820152a1005b833461039b575f36600319011261039b576020905169152d02c7e14af68000008152f35b833461039b575f36600319011261039b575f80600554905b818110611d5c576020838551908152f35b611d6581612a36565b60018060a01b0391549060031b1c165f52600660205260ff845f205416611d8f575b600101611d4b565b91611d9b600191612ad1565b929050611d87565b82843461039b575f36600319011261039b57611dbd612c5b565b5f805160206136ad8339815191529182549060ff821615611e0b577f5db9ee0a495bf2e6ff9c91a7834c1ba4fdd244a5e8aa4e537bd38aeae4b073aa602084868560ff1916905551338152a1005b8251638dfc202b60e01b8152fd5b50503461039b575f36600319011261039b5760ff60075460101c16611eb157611e40612db3565b335f526001602052815f209081541561105f5750600160ff910154166002611e68429261295e565b0155611e7333612f7a565b90519081527ffc30cddea38e2bf4d6ea7d3f9ed3b6ad7f176419f4963bd81318067a4aee73fe60203392a260015f805160206136cd83398151915255005b90516309dfb95560e31b8152fd5b82843461039b578060031936011261039b57611ed9612903565b90336001600160a01b03831603611ef5575061079891356133b1565b5163334bd91960e11b81529050fd5b50503461039b576020918260031936011261039b5781359260ff6007541680156120c6575b6120b857611f35612db3565b60085484116120aa5768056bc75e2d63100000841061209c575f805260028152426002835f200155335f5260018152815f20805461208d575b5f54611f88908690309033906001600160a01b0316613430565b6127108086028681048214871517156118ca575f94939192612021869461102e930497670de0b6b3a764000061200f611fc28c8654612aa3565b8086556001860161ffff19815416905542600287015560038601611fe78d8254612aa3565b90554260058701554360078701554260088701558880526002885260018a8a20015490612adf565b04938491600f54940193845490612ac4565b600f55558180526003815282822061203a878254612aa3565b9055825195865285015283015260608201527f460149dcc806063b409e87cd1622b4db5c31dc026921c539670b39d63a4db16060803392a261207a612de2565b60015f805160206136cd83398151915255005b61209633612f7a565b50611f6e565b505163a8ded35f60e01b8152fd5b5051638cc2fc5560e01b8152fd5b50516326d1807b60e01b8152fd5b5060ff5f805160206136ad8339815191525416611f29565b833461039b575f36600319011261039b57602090516301e133808152f35b833461039b575f36600319011261039b57602090517fb814ff4a26ea3ec5cd1fa579daad86324826254265f3acfec78303a19845b4498152f35b82843461039b578060031936011261039b57610798913561215a6001610775612903565b613341565b82843461039b575f36600319011261039b5760ff60075460081c168015612380575b6123735761218d612db3565b335f5260019081602052805f20546009541061236457335f5281602052805f2054620151804204600c548111612357575b50600b546121cc8282612aa3565b600a541061234757906121de91612aa3565b600b55335f5281602052805f20908154156123385760028201544210612329578282019142600261221260ff86541661295e565b015561221d33612f7a565b9060ff815494541661224a8783015461223583612947565b612240888254612ac4565b9055600f54612ac4565b600f55600381101561231657859660ff60065f947f7fc4727e062e336010f2c282598ef5f14facb3de68cf8195c2f23e1454b2b74e989960089514612300575b0154166122f2575b338352876020528285812091818355818a84015581600284015581600384015582015582600582015582600682015582600782015501556122dd843360018060a01b035f5416613072565b815193845260208401523392a26113e2612de2565b6122fb33613021565b612292565b61230f60038201548554612ac4565b845561228a565b602187634e487b7160e01b5f525260245ffd5b51633fb34cfb60e11b81528390fd5b51632cdf478160e11b81528390fd5b825163158081a560e21b81528590fd5b5f600b55600c55846121be565b51638cc2fc5560e01b81529050fd5b516347d385a960e01b8152fd5b5060ff5f805160206136ad8339815191525416612181565b82843461039b576020908160031936011261039b5782359160ff60075416801561256a575b61255a576123c9612db3565b600854831161254a5769152d02c7e14af6800000831061253a57600292835f528382524284845f200155335f52600193848352835f2090815461252b575b5f54612421908490309033906001600160a01b0316613430565b613a9880840290848204148415171561182357612710900491612445848254612aa3565b80825587820161030261ffff198254161790556301e13380420180421161099657916124bd899a670de0b6b3a764000061200f61102e95889760069e9c9b9a99870155600386016124978a8254612aa3565b9055426005870155436007870155426008870155875f52878b528b8d5f20015490612adf565b600f5555805f5260038452855f206124d6848254612aa3565b905585519283528383015260038583015260608201527f460149dcc806063b409e87cd1622b4db5c31dc026921c539670b39d63a4db16060803392a2335f52525f20018160ff198254161790556113e2612de2565b61253433612f7a565b50612407565b815163a8ded35f60e01b81528490fd5b8151638cc2fc5560e01b81528490fd5b81516326d1807b60e01b81528490fd5b5060ff5f805160206136ad83398151915254166123bd565b82843461039b57602036600319011261039b57602091355f525f8051602061368d83398151915282526001815f2001549051908152f35b50503461039b57602036600319011261039b573590600382101561039b576125e2602092612947565b549051908152f35b833461039b575f36600319011261039b57610120916007549060085490600954600a5490600b549360ff600c549688519882821615158a52828260081c16151560208b0152828260101c161515908a015260181c1615156060880152608087015260a086015260c0850152830152610100820152f35b82843461039b57602036600319011261039b57610140926001600160a01b036126876128ed565b165f526001602052815f2090815493600183015490600284015490600385015490850154906005860154926126ec60ff6006890154169560ff600860078b01549a01549a6126e0602082519e8f90815201838516612919565b8c019160081c1661293a565b6060890152608088015260a087015260c0860152151590840152610100830152610120820152f35b833461039b575f36600319011261039b575f5490516001600160a01b039091168152602090f35b833461039b575f36600319011261039b5780519081600554908181526020809101809260055f527f036b6384b5eca791c62761152d0c79bb0604c104a5fb6f4eb0703f3154bb3db0905f5b8181106127e0575050508461279c9103856129c2565b825181815293518185018190528493840192915f5b8281106127c057505050500390f35b83516001600160a01b0316855286955093810193928101926001016127b1565b82546001600160a01b031684529284019260019283019201612786565b833461039b575f36600319011261039b57602090516276a7008152f35b833461039b575f36600319011261039b576020905168056bc75e2d631000008152f35b50503461039b57602036600319011261039b573563ffffffff60e01b811680910361039b57602091637965db0b60e01b8214918215612880575b50519015158152f35b6301ffc9a760e01b1491505f612877565b833461039b575f36600319011261039b5760805f805160206136ed833981519152916128bb612c5b565b600160ff1960075416176007556007815191808352820152667374616b696e6760c81b606082015260016020820152a1005b600435906001600160a01b038216820361039b57565b602435906001600160a01b038216820361039b57565b9060038210156129265752565b634e487b7160e01b5f52602160045260245ffd5b9060058210156129265752565b6003811015612926575f52600360205260405f2090565b6003811015612926575f52600260205260405f2090565b3461039b575f36600319011261039b576020604051610bb88152f35b610140810190811067ffffffffffffffff8211176129ae57604052565b634e487b7160e01b5f52604160045260245ffd5b90601f8019910116810190811067ffffffffffffffff8211176129ae57604052565b67ffffffffffffffff81116129ae57601f01601f191660200190565b929192612a0c826129e4565b91612a1a60405193846129c2565b82948184528183011161039b578281602093845f960137010152565b600554811015612a6b5760055f527f036b6384b5eca791c62761152d0c79bb0604c104a5fb6f4eb0703f3154bb3db001905f90565b634e487b7160e01b5f52603260045260245ffd5b805180835260209291819084018484015e5f828201840152601f01601f1916010190565b91908201809211612ab057565b634e487b7160e01b5f52601160045260245ffd5b91908203918211612ab057565b5f198114612ab05760010190565b81810292918115918404141715612ab057565b8115612afc570490565b634e487b7160e01b5f52601260045260245ffd5b60018060a01b03165f52600160205260405f20604051612b2f81612991565b81548152600182015460ff81169060038210156129265760ff91602084015260081c166005811015612926576040820152600282015460608201526002612bbe60038401549360808401948552600481015460a0850152600581015460c085015260ff600682015416151560e08501526101206008600783015492836101008801520154940193845243612ac4565b10612bdf57612bd1610e10915142612ac4565b10612bda575190565b505f90565b50505f90565b9060058110156129265761ff0082549160081b169061ff001916179055565b6001600160a01b03165f9081526001602052604090208054908115612bdf576004670de0b6b3a7640000612c4e612c58946001612c4660ff828801541661295e565b015490612adf565b0491015490612ac4565b90565b335f9081527f75442b0a96088b5456bc4ed01394c96a4feec0f883c9494257d76b96ab1c9b6b60205260409020547f65d7a28e3265b37a6474929f336521b332c1681b933f6cb9f3376673440d862a9060ff1615612cb65750565b6044906040519063e2517d3f60e01b82523360048301526024820152fd5b335f9081527fb7db2dd08fcb62d0c9e08c51941cae53c267786a0b75803fb7960902fc8ef97d602052604090205460ff1615612d0c57565b60405163e2517d3f60e01b81523360048201525f6024820152604490fd5b335f9081527fc157d408da348139bf70cfd0baf22a48779057d99f6df6b2706ae8add81bdb7360205260409020547f725346f2674e7a610d0ae6e19dd9b45a4380674de24b5ed8476a591399281da39060ff1615612cb65750565b805f525f8051602061368d83398151915260205260405f20335f5260205260ff60405f20541615612cb65750565b5f805160206136cd8339815191526002815414612dd05760029055565b604051633ee5aeb560e01b8152600490fd5b5f54604080516370a0823160e01b81523060048201526020928390829060249082906001600160a01b03165afa908115612f70575f91612f43575b505f80526003835280612e50612e3e845f205460015f52855f205490612aa3565b60025f5260038652845f205490612aa3565b11612ef05760015f5260038352815f205415801590612ee1575b8015612ed1575b612e7a57505050565b15612e83575050565b60849250519063015cf55b60e31b82526004820152602160248201527f4e6f6e2d7a65726f207374616b65732077697468207a65726f2062616c616e636044820152606560f81b6064820152fd5b5060025f52815f20541515612e71565b505f8052815f20541515612e6a565b815163015cf55b60e31b815260048101849052602560248201527f546f74616c207374616b6564206578636565647320636f6e74726163742062616044820152646c616e636560d81b6064820152608490fd5b90508281813d8311612f69575b612f5a81836129c2565b8101031261039b57515f612e1d565b503d612f50565b82513d5f823e3d90fd5b60018060a01b038082165f526001602052612fbe60405f20612fa260ff60018301541661295e565b9060018154920191670de0b6b3a7640000938491845490612adf565b0492612fd06004830194855490612ac4565b95869384612fe3575b5050505050505090565b612ffa61102e9561300693613012995f5416613072565b85549354905490612adf565b04809355600f54612ac4565b600f555f808281808080612fd9565b6001600160a01b03165f818152600660205260409020805460ff811661304657505050565b60ff191690557f65cc197fd699db876319e374dc4b8117a40f5a65a313e0c87dc388c423e01c205f80a2565b60405163a9059cbb60e01b60208201526001600160a01b039092166024830152604480830193909352918152608081019167ffffffffffffffff8311828410176129ae576130c2926040526134d6565b565b6001600160a01b03165f8181527fb7db2dd08fcb62d0c9e08c51941cae53c267786a0b75803fb7960902fc8ef97d60205260409020545f8051602061368d8339815191529060ff16612bdf575f805260205260405f20815f5260205260405f20600160ff1982541617905533905f5f8051602061366d8339815191528180a4600190565b6001600160a01b03165f8181527f75442b0a96088b5456bc4ed01394c96a4feec0f883c9494257d76b96ab1c9b6b60205260409020547f65d7a28e3265b37a6474929f336521b332c1681b933f6cb9f3376673440d862a91905f8051602061368d8339815191529060ff166131ee57825f5260205260405f20815f5260205260405f20600160ff1982541617905533915f8051602061366d8339815191525f80a4600190565b5050505f90565b6001600160a01b03165f8181527f799a8790d7ebc9751b4601a5fe9130e5d4e69ec8e18bf13b700f13dc029043dc60205260409020547fb814ff4a26ea3ec5cd1fa579daad86324826254265f3acfec78303a19845b44991905f8051602061368d8339815191529060ff166131ee57825f5260205260405f20815f5260205260405f20600160ff1982541617905533915f8051602061366d8339815191525f80a4600190565b6001600160a01b03165f8181527fc157d408da348139bf70cfd0baf22a48779057d99f6df6b2706ae8add81bdb7360205260409020547f725346f2674e7a610d0ae6e19dd9b45a4380674de24b5ed8476a591399281da391905f8051602061368d8339815191529060ff166131ee57825f5260205260405f20815f5260205260405f20600160ff1982541617905533915f8051602061366d8339815191525f80a4600190565b90815f525f8051602061368d8339815191528060205260405f209160018060a01b031691825f5260205260ff60405f205416155f146131ee57825f5260205260405f20815f5260205260405f20600160ff1982541617905533915f8051602061366d8339815191525f80a4600190565b90815f525f8051602061368d8339815191528060205260405f209160018060a01b031691825f5260205260ff60405f2054165f146131ee57825f5260205260405f20815f5260205260405f2060ff19815416905533917ff6391f5c32d9c69d2a47ea670b442974b53935d1edc7fd64eb21e047a839171b5f80a4600190565b6040516323b872dd60e01b60208201526001600160a01b03928316602482015292909116604483015260648083019390935291815260a081019181831067ffffffffffffffff8411176129ae576130c2926040526134d6565b600581101561292657600181146134ce57600281146134c657600381146134bd576004146134b5575f90565b6303c2670090565b506301e1338090565b5062ed4e0090565b506276a70090565b5f806134fe9260018060a01b03169360208151910182865af16134f76135da565b9083613609565b805190811515918261352c575b50506135145750565b60249060405190635274afe760e01b82526004820152fd5b819250906020918101031261039b576020015180159081150361039b575f8061350b565b60058110156129265760018114613592576002811461358b57600381146135845760041461357e5761271090565b614e2090565b50613a9890565b50612ee090565b5061290490565b60ff7ff0c57e16840df040f15088dc2f81fe391c3923bec73e23a9662efc9c229c6a005460401c16156135c857565b604051631afcd79f60e31b8152600490fd5b3d15613604573d906135eb826129e4565b916135f960405193846129c2565b82523d5f602084013e565b606090565b90613630575080511561361e57805190602001fd5b604051630a12f52160e11b8152600490fd5b81511580613663575b613641575090565b604051639996b31560e01b81526001600160a01b039091166004820152602490fd5b50803b1561363956fe2f8788117e7eff1d82e926ec794901d17c78024a50270940304540a733656f0d02dd7bc7dec4dceedda775e58dd541e08a116c6c53815c0bd028192f7b626800cd5ed15c6e187e77e9aee88184c21f4f2182ab5827cb3b7e07fbedcd63f033009b779b17422d0df92223018b32b4d1fa46e071723d6817e2486d003becc55f00f2f4264d1c2d2820a2437db4d293cc8f939e6701132a47a07f9f3046caec4604a26469706673582212201e1fbfb3453ee244edbf223139eeaebf7481f5db575eb17961318516de36029464736f6c63430008190033","linkReferences":{}},"methodIdentifiers":{"BASIS_POINTS()":"e1f1c4a7","DEFAULT_ADMIN_ROLE()":"a217fddf","GOVERNANCE_SHARE()":"6f1cc76a","LIQUIDITY_SHARE()":"43270d56","LOCK_12_MONTHS()":"33803860","LOCK_24_MONTHS()":"8b742944","LOCK_3_MONTHS()":"11149445","LOCK_6_MONTHS()":"c0a9c35d","MAX_SLASHES()":"eb9cc6ea","MIN_GOVERNANCE_STAKE()":"4e8bd108","MIN_LIQUIDITY_STAKE()":"0569ce58","MIN_SEQUENCER_STAKE()":"487ebf4f","MIN_VOTING_POWER_BLOCKS()":"64dd3a85","MIN_VOTING_POWER_TIME()":"ce25bf64","MULTIPLIER_12_MONTHS()":"88163eed","MULTIPLIER_24_MONTHS()":"c55a4eee","MULTIPLIER_3_MONTHS()":"50990803","MULTIPLIER_6_MONTHS()":"7f0c57db","PAUSER_ROLE()":"e63ab1e9","REWARD_DISTRIBUTOR_ROLE()":"32e4bb0a","SEQUENCER_MANAGER_ROLE()":"b75b846c","SEQUENCER_SHARE()":"ec0674d8","SLASH_PERCENTAGE()":"9f29f135","UPGRADE_INTERFACE_VERSION()":"ad3cb1cc","andeToken()":"140f021c","circuitBreaker()":"16efd941","claimRewards()":"372500ab","distributeRewards(uint256)":"59974e38","emergencyPauseRewardClaim()":"f6d0756a","emergencyPauseRewardDistribution()":"c85ec056","emergencyPauseStaking()":"01644c24","emergencyPauseUnstaking()":"582074ae","emergencyResumeRewardClaim()":"4880a494","emergencyResumeRewardDistribution()":"9a0bb514","emergencyResumeStaking()":"e13b2bd9","emergencyResumeUnstaking()":"e3f76681","extendLock(uint8)":"a1fa9303","getActiveSequencersCount()":"45a4f506","getPendingRewards(address)":"f6ed2017","getRoleAdmin(bytes32)":"248a9ca3","getSequencers()":"125c5f16","getStakeInfo(address)":"c3453153","getVotingPowerWithFlashLoanProtection(address)":"5f059d7d","grantRole(bytes32,address)":"2f2ff15d","hasRole(bytes32,address)":"91d14854","initialize(address,address,address)":"c0c53b8b","isActiveSequencer(address)":"933be7a2","pause()":"8456cb59","paused()":"5c975abb","proxiableUUID()":"52d1902d","recordSequencerActivity(address)":"586104f9","recordSequencerMiss(address)":"e1261185","registerSequencer(address)":"f3495d50","renounceRole(bytes32,address)":"36568abe","revokeRole(bytes32,address)":"d547741f","rewardPools(uint8)":"f761e079","sequencerPerformance(address)":"72b58050","sequencers(uint256)":"6ba7ccff","setDailyWithdrawLimit(uint256)":"d7d9e76e","setMaxStakePerTx(uint256)":"58f921ce","setMaxUnstakePerTx(uint256)":"5a336aba","setTreasury(address)":"f0f44260","slashSequencer(address,string)":"cf8df30e","stakeGovernance(uint256,uint8)":"83c440a6","stakeLiquidity(uint256)":"35076373","stakeSequencer(uint256)":"2a079624","stakes(address)":"16934fc4","supportsInterface(bytes4)":"01ffc9a7","totalRewardDebt()":"83bb3877","totalStaked(uint8)":"1ee59c46","totalVotingPower()":"671b3793","treasury()":"61d027b3","unpause()":"3f4ba83a","unstake()":"2def6620","upgradeToAndCall(address,bytes)":"4f1ef286"},"id":180}