{"abi":[{"type":"constructor","inputs":[],"stateMutability":"nonpayable"},{"type":"function","name":"BASIS_POINTS","inputs":[],"outputs":[{"name":"","type":"uint256","internalType":"uint256"}],"stateMutability":"view"},{"type":"function","name":"DEFAULT_ADMIN_ROLE","inputs":[],"outputs":[{"name":"","type":"bytes32","internalType":"bytes32"}],"stateMutability":"view"},{"type":"function","name":"GOVERNANCE_SHARE","inputs":[],"outputs":[{"name":"","type":"uint256","internalType":"uint256"}],"stateMutability":"view"},{"type":"function","name":"LIQUIDITY_SHARE","inputs":[],"outputs":[{"name":"","type":"uint256","internalType":"uint256"}],"stateMutability":"view"},{"type":"function","name":"LOCK_12_MONTHS","inputs":[],"outputs":[{"name":"","type":"uint256","internalType":"uint256"}],"stateMutability":"view"},{"type":"function","name":"LOCK_24_MONTHS","inputs":[],"outputs":[{"name":"","type":"uint256","internalType":"uint256"}],"stateMutability":"view"},{"type":"function","name":"LOCK_3_MONTHS","inputs":[],"outputs":[{"name":"","type":"uint256","internalType":"uint256"}],"stateMutability":"view"},{"type":"function","name":"LOCK_6_MONTHS","inputs":[],"outputs":[{"name":"","type":"uint256","internalType":"uint256"}],"stateMutability":"view"},{"type":"function","name":"MAX_SLASHES","inputs":[],"outputs":[{"name":"","type":"uint256","internalType":"uint256"}],"stateMutability":"view"},{"type":"function","name":"MIN_GOVERNANCE_STAKE","inputs":[],"outputs":[{"name":"","type":"uint256","internalType":"uint256"}],"stateMutability":"view"},{"type":"function","name":"MIN_LIQUIDITY_STAKE","inputs":[],"outputs":[{"name":"","type":"uint256","internalType":"uint256"}],"stateMutability":"view"},{"type":"function","name":"MIN_SEQUENCER_STAKE","inputs":[],"outputs":[{"name":"","type":"uint256","internalType":"uint256"}],"stateMutability":"view"},{"type":"function","name":"MIN_VOTING_POWER_BLOCKS","inputs":[],"outputs":[{"name":"","type":"uint256","internalType":"uint256"}],"stateMutability":"view"},{"type":"function","name":"MIN_VOTING_POWER_TIME","inputs":[],"outputs":[{"name":"","type":"uint256","internalType":"uint256"}],"stateMutability":"view"},{"type":"function","name":"MULTIPLIER_12_MONTHS","inputs":[],"outputs":[{"name":"","type":"uint256","internalType":"uint256"}],"stateMutability":"view"},{"type":"function","name":"MULTIPLIER_24_MONTHS","inputs":[],"outputs":[{"name":"","type":"uint256","internalType":"uint256"}],"stateMutability":"view"},{"type":"function","name":"MULTIPLIER_3_MONTHS","inputs":[],"outputs":[{"name":"","type":"uint256","internalType":"uint256"}],"stateMutability":"view"},{"type":"function","name":"MULTIPLIER_6_MONTHS","inputs":[],"outputs":[{"name":"","type":"uint256","internalType":"uint256"}],"stateMutability":"view"},{"type":"function","name":"PAUSER_ROLE","inputs":[],"outputs":[{"name":"","type":"bytes32","internalType":"bytes32"}],"stateMutability":"view"},{"type":"function","name":"REWARD_DISTRIBUTOR_ROLE","inputs":[],"outputs":[{"name":"","type":"bytes32","internalType":"bytes32"}],"stateMutability":"view"},{"type":"function","name":"SEQUENCER_MANAGER_ROLE","inputs":[],"outputs":[{"name":"","type":"bytes32","internalType":"bytes32"}],"stateMutability":"view"},{"type":"function","name":"SEQUENCER_SHARE","inputs":[],"outputs":[{"name":"","type":"uint256","internalType":"uint256"}],"stateMutability":"view"},{"type":"function","name":"SLASH_PERCENTAGE","inputs":[],"outputs":[{"name":"","type":"uint256","internalType":"uint256"}],"stateMutability":"view"},{"type":"function","name":"UPGRADE_INTERFACE_VERSION","inputs":[],"outputs":[{"name":"","type":"string","internalType":"string"}],"stateMutability":"view"},{"type":"function","name":"andeToken","inputs":[],"outputs":[{"name":"","type":"address","internalType":"contract IERC20"}],"stateMutability":"view"},{"type":"function","name":"circuitBreaker","inputs":[],"outputs":[{"name":"stakingPaused","type":"bool","internalType":"bool"},{"name":"unstakingPaused","type":"bool","internalType":"bool"},{"name":"rewardClaimPaused","type":"bool","internalType":"bool"},{"name":"rewardDistributionPaused","type":"bool","internalType":"bool"},{"name":"maxStakePerTx","type":"uint256","internalType":"uint256"},{"name":"maxUnstakePerTx","type":"uint256","internalType":"uint256"},{"name":"dailyWithdrawLimit","type":"uint256","internalType":"uint256"},{"name":"withdrawnToday","type":"uint256","internalType":"uint256"},{"name":"lastResetDay","type":"uint256","internalType":"uint256"}],"stateMutability":"view"},{"type":"function","name":"claimRewards","inputs":[],"outputs":[],"stateMutability":"nonpayable"},{"type":"function","name":"distributeRewards","inputs":[{"name":"totalAmount","type":"uint256","internalType":"uint256"}],"outputs":[],"stateMutability":"nonpayable"},{"type":"function","name":"emergencyPauseRewardClaim","inputs":[],"outputs":[],"stateMutability":"nonpayable"},{"type":"function","name":"emergencyPauseRewardDistribution","inputs":[],"outputs":[],"stateMutability":"nonpayable"},{"type":"function","name":"emergencyPauseStaking","inputs":[],"outputs":[],"stateMutability":"nonpayable"},{"type":"function","name":"emergencyPauseUnstaking","inputs":[],"outputs":[],"stateMutability":"nonpayable"},{"type":"function","name":"emergencyResumeRewardClaim","inputs":[],"outputs":[],"stateMutability":"nonpayable"},{"type":"function","name":"emergencyResumeRewardDistribution","inputs":[],"outputs":[],"stateMutability":"nonpayable"},{"type":"function","name":"emergencyResumeStaking","inputs":[],"outputs":[],"stateMutability":"nonpayable"},{"type":"function","name":"emergencyResumeUnstaking","inputs":[],"outputs":[],"stateMutability":"nonpayable"},{"type":"function","name":"extendLock","inputs":[{"name":"newLockPeriod","type":"uint8","internalType":"enum AndeNativeStaking.LockPeriod"}],"outputs":[],"stateMutability":"nonpayable"},{"type":"function","name":"getActiveSequencersCount","inputs":[],"outputs":[{"name":"","type":"uint256","internalType":"uint256"}],"stateMutability":"view"},{"type":"function","name":"getPendingRewards","inputs":[{"name":"user","type":"address","internalType":"address"}],"outputs":[{"name":"","type":"uint256","internalType":"uint256"}],"stateMutability":"view"},{"type":"function","name":"getRoleAdmin","inputs":[{"name":"role","type":"bytes32","internalType":"bytes32"}],"outputs":[{"name":"","type":"bytes32","internalType":"bytes32"}],"stateMutability":"view"},{"type":"function","name":"getSequencers","inputs":[],"outputs":[{"name":"","type":"address[]","internalType":"address[]"}],"stateMutability":"view"},{"type":"function","name":"getStakeInfo","inputs":[{"name":"user","type":"address","internalType":"address"}],"outputs":[{"name":"","type":"tuple","internalType":"struct AndeNativeStaking.StakeInfo","components":[{"name":"amount","type":"uint256","internalType":"uint256"},{"name":"level","type":"uint8","internalType":"enum AndeNativeStaking.StakingLevel"},{"name":"lockPeriod","type":"uint8","internalType":"enum AndeNativeStaking.LockPeriod"},{"name":"lockUntil","type":"uint256","internalType":"uint256"},{"name":"votingPower","type":"uint256","internalType":"uint256"},{"name":"rewardDebt","type":"uint256","internalType":"uint256"},{"name":"stakedAt","type":"uint256","internalType":"uint256"},{"name":"isSequencer","type":"bool","internalType":"bool"},{"name":"lastStakeBlock","type":"uint256","internalType":"uint256"},{"name":"lastStakeTimestamp","type":"uint256","internalType":"uint256"}]}],"stateMutability":"view"},{"type":"function","name":"getVotingPowerWithFlashLoanProtection","inputs":[{"name":"user","type":"address","internalType":"address"}],"outputs":[{"name":"","type":"uint256","internalType":"uint256"}],"stateMutability":"view"},{"type":"function","name":"grantRole","inputs":[{"name":"role","type":"bytes32","internalType":"bytes32"},{"name":"account","type":"address","internalType":"address"}],"outputs":[],"stateMutability":"nonpayable"},{"type":"function","name":"hasRole","inputs":[{"name":"role","type":"bytes32","internalType":"bytes32"},{"name":"account","type":"address","internalType":"address"}],"outputs":[{"name":"","type":"bool","internalType":"bool"}],"stateMutability":"view"},{"type":"function","name":"initialize","inputs":[{"name":"_andeToken","type":"address","internalType":"address"},{"name":"defaultAdmin","type":"address","internalType":"address"},{"name":"_treasury","type":"address","internalType":"address"}],"outputs":[],"stateMutability":"nonpayable"},{"type":"function","name":"isActiveSequencer","inputs":[{"name":"","type":"address","internalType":"address"}],"outputs":[{"name":"","type":"bool","internalType":"bool"}],"stateMutability":"view"},{"type":"function","name":"pause","inputs":[],"outputs":[],"stateMutability":"nonpayable"},{"type":"function","name":"paused","inputs":[],"outputs":[{"name":"","type":"bool","internalType":"bool"}],"stateMutability":"view"},{"type":"function","name":"proxiableUUID","inputs":[],"outputs":[{"name":"","type":"bytes32","internalType":"bytes32"}],"stateMutability":"view"},{"type":"function","name":"recordSequencerActivity","inputs":[{"name":"sequencer","type":"address","internalType":"address"}],"outputs":[],"stateMutability":"nonpayable"},{"type":"function","name":"recordSequencerMiss","inputs":[{"name":"sequencer","type":"address","internalType":"address"}],"outputs":[],"stateMutability":"nonpayable"},{"type":"function","name":"registerSequencer","inputs":[{"name":"sequencer","type":"address","internalType":"address"}],"outputs":[],"stateMutability":"nonpayable"},{"type":"function","name":"renounceRole","inputs":[{"name":"role","type":"bytes32","internalType":"bytes32"},{"name":"callerConfirmation","type":"address","internalType":"address"}],"outputs":[],"stateMutability":"nonpayable"},{"type":"function","name":"revokeRole","inputs":[{"name":"role","type":"bytes32","internalType":"bytes32"},{"name":"account","type":"address","internalType":"address"}],"outputs":[],"stateMutability":"nonpayable"},{"type":"function","name":"rewardPools","inputs":[{"name":"","type":"uint8","internalType":"enum AndeNativeStaking.StakingLevel"}],"outputs":[{"name":"totalRewards","type":"uint256","internalType":"uint256"},{"name":"rewardPerShare","type":"uint256","internalType":"uint256"},{"name":"lastUpdateTime","type":"uint256","internalType":"uint256"}],"stateMutability":"view"},{"type":"function","name":"sequencerPerformance","inputs":[{"name":"","type":"address","internalType":"address"}],"outputs":[{"name":"totalBlocks","type":"uint256","internalType":"uint256"},{"name":"missedBlocks","type":"uint256","internalType":"uint256"},{"name":"lastActivityBlock","type":"uint256","internalType":"uint256"},{"name":"isActive","type":"bool","internalType":"bool"},{"name":"slashCount","type":"uint256","internalType":"uint256"}],"stateMutability":"view"},{"type":"function","name":"sequencers","inputs":[{"name":"","type":"uint256","internalType":"uint256"}],"outputs":[{"name":"","type":"address","internalType":"address"}],"stateMutability":"view"},{"type":"function","name":"setDailyWithdrawLimit","inputs":[{"name":"newLimit","type":"uint256","internalType":"uint256"}],"outputs":[],"stateMutability":"nonpayable"},{"type":"function","name":"setMaxStakePerTx","inputs":[{"name":"newMax","type":"uint256","internalType":"uint256"}],"outputs":[],"stateMutability":"nonpayable"},{"type":"function","name":"setMaxUnstakePerTx","inputs":[{"name":"newMax","type":"uint256","internalType":"uint256"}],"outputs":[],"stateMutability":"nonpayable"},{"type":"function","name":"setTreasury","inputs":[{"name":"newTreasury","type":"address","internalType":"address"}],"outputs":[],"stateMutability":"nonpayable"},{"type":"function","name":"slashSequencer","inputs":[{"name":"sequencer","type":"address","internalType":"address"},{"name":"reason","type":"string","internalType":"string"}],"outputs":[],"stateMutability":"nonpayable"},{"type":"function","name":"stakeGovernance","inputs":[{"name":"amount","type":"uint256","internalType":"uint256"},{"name":"lockPeriod","type":"uint8","internalType":"enum AndeNativeStaking.LockPeriod"}],"outputs":[],"stateMutability":"nonpayable"},{"type":"function","name":"stakeLiquidity","inputs":[{"name":"amount","type":"uint256","internalType":"uint256"}],"outputs":[],"stateMutability":"nonpayable"},{"type":"function","name":"stakeSequencer","inputs":[{"name":"amount","type":"uint256","internalType":"uint256"}],"outputs":[],"stateMutability":"nonpayable"},{"type":"function","name":"stakes","inputs":[{"name":"","type":"address","internalType":"address"}],"outputs":[{"name":"amount","type":"uint256","internalType":"uint256"},{"name":"level","type":"uint8","internalType":"enum AndeNativeStaking.StakingLevel"},{"name":"lockPeriod","type":"uint8","internalType":"enum AndeNativeStaking.LockPeriod"},{"name":"lockUntil","type":"uint256","internalType":"uint256"},{"name":"votingPower","type":"uint256","internalType":"uint256"},{"name":"rewardDebt","type":"uint256","internalType":"uint256"},{"name":"stakedAt","type":"uint256","internalType":"uint256"},{"name":"isSequencer","type":"bool","internalType":"bool"},{"name":"lastStakeBlock","type":"uint256","internalType":"uint256"},{"name":"lastStakeTimestamp","type":"uint256","internalType":"uint256"}],"stateMutability":"view"},{"type":"function","name":"supportsInterface","inputs":[{"name":"interfaceId","type":"bytes4","internalType":"bytes4"}],"outputs":[{"name":"","type":"bool","internalType":"bool"}],"stateMutability":"view"},{"type":"function","name":"totalRewardDebt","inputs":[],"outputs":[{"name":"","type":"uint256","internalType":"uint256"}],"stateMutability":"view"},{"type":"function","name":"totalStaked","inputs":[{"name":"","type":"uint8","internalType":"enum AndeNativeStaking.StakingLevel"}],"outputs":[{"name":"","type":"uint256","internalType":"uint256"}],"stateMutability":"view"},{"type":"function","name":"totalVotingPower","inputs":[],"outputs":[{"name":"","type":"uint256","internalType":"uint256"}],"stateMutability":"view"},{"type":"function","name":"treasury","inputs":[],"outputs":[{"name":"","type":"address","internalType":"address"}],"stateMutability":"view"},{"type":"function","name":"unpause","inputs":[],"outputs":[],"stateMutability":"nonpayable"},{"type":"function","name":"unstake","inputs":[],"outputs":[],"stateMutability":"nonpayable"},{"type":"function","name":"upgradeToAndCall","inputs":[{"name":"newImplementation","type":"address","internalType":"address"},{"name":"data","type":"bytes","internalType":"bytes"}],"outputs":[],"stateMutability":"payable"},{"type":"event","name":"CircuitBreakerTriggered","inputs":[{"name":"breakerType","type":"string","indexed":false,"internalType":"string"},{"name":"enabled","type":"bool","indexed":false,"internalType":"bool"}],"anonymous":false},{"type":"event","name":"DailyLimitUpdated","inputs":[{"name":"newLimit","type":"uint256","indexed":false,"internalType":"uint256"}],"anonymous":false},{"type":"event","name":"Initialized","inputs":[{"name":"version","type":"uint64","indexed":false,"internalType":"uint64"}],"anonymous":false},{"type":"event","name":"InvariantCheckFailed","inputs":[{"name":"invariantType","type":"string","indexed":false,"internalType":"string"},{"name":"expected","type":"uint256","indexed":false,"internalType":"uint256"},{"name":"actual","type":"uint256","indexed":false,"internalType":"uint256"}],"anonymous":false},{"type":"event","name":"LockExtended","inputs":[{"name":"user","type":"address","indexed":true,"internalType":"address"},{"name":"newLockPeriod","type":"uint8","indexed":false,"internalType":"enum AndeNativeStaking.LockPeriod"},{"name":"newLockUntil","type":"uint256","indexed":false,"internalType":"uint256"}],"anonymous":false},{"type":"event","name":"Paused","inputs":[{"name":"account","type":"address","indexed":false,"internalType":"address"}],"anonymous":false},{"type":"event","name":"RewardsClaimed","inputs":[{"name":"user","type":"address","indexed":true,"internalType":"address"},{"name":"amount","type":"uint256","indexed":false,"internalType":"uint256"}],"anonymous":false},{"type":"event","name":"RewardsDistributed","inputs":[{"name":"level","type":"uint8","indexed":false,"internalType":"enum AndeNativeStaking.StakingLevel"},{"name":"amount","type":"uint256","indexed":false,"internalType":"uint256"}],"anonymous":false},{"type":"event","name":"RoleAdminChanged","inputs":[{"name":"role","type":"bytes32","indexed":true,"internalType":"bytes32"},{"name":"previousAdminRole","type":"bytes32","indexed":true,"internalType":"bytes32"},{"name":"newAdminRole","type":"bytes32","indexed":true,"internalType":"bytes32"}],"anonymous":false},{"type":"event","name":"RoleGranted","inputs":[{"name":"role","type":"bytes32","indexed":true,"internalType":"bytes32"},{"name":"account","type":"address","indexed":true,"internalType":"address"},{"name":"sender","type":"address","indexed":true,"internalType":"address"}],"anonymous":false},{"type":"event","name":"RoleRevoked","inputs":[{"name":"role","type":"bytes32","indexed":true,"internalType":"bytes32"},{"name":"account","type":"address","indexed":true,"internalType":"address"},{"name":"sender","type":"address","indexed":true,"internalType":"address"}],"anonymous":false},{"type":"event","name":"SequencerRegistered","inputs":[{"name":"sequencer","type":"address","indexed":true,"internalType":"address"}],"anonymous":false},{"type":"event","name":"SequencerRemoved","inputs":[{"name":"sequencer","type":"address","indexed":true,"internalType":"address"}],"anonymous":false},{"type":"event","name":"SequencerSlashed","inputs":[{"name":"sequencer","type":"address","indexed":true,"internalType":"address"},{"name":"amount","type":"uint256","indexed":false,"internalType":"uint256"},{"name":"reason","type":"string","indexed":false,"internalType":"string"}],"anonymous":false},{"type":"event","name":"Staked","inputs":[{"name":"user","type":"address","indexed":true,"internalType":"address"},{"name":"amount","type":"uint256","indexed":false,"internalType":"uint256"},{"name":"level","type":"uint8","indexed":false,"internalType":"enum AndeNativeStaking.StakingLevel"},{"name":"lockPeriod","type":"uint8","indexed":false,"internalType":"enum AndeNativeStaking.LockPeriod"},{"name":"votingPower","type":"uint256","indexed":false,"internalType":"uint256"}],"anonymous":false},{"type":"event","name":"Unpaused","inputs":[{"name":"account","type":"address","indexed":false,"internalType":"address"}],"anonymous":false},{"type":"event","name":"Unstaked","inputs":[{"name":"user","type":"address","indexed":true,"internalType":"address"},{"name":"amount","type":"uint256","indexed":false,"internalType":"uint256"},{"name":"reward","type":"uint256","indexed":false,"internalType":"uint256"}],"anonymous":false},{"type":"event","name":"Upgraded","inputs":[{"name":"implementation","type":"address","indexed":true,"internalType":"address"}],"anonymous":false},{"type":"error","name":"AccessControlBadConfirmation","inputs":[]},{"type":"error","name":"AccessControlUnauthorizedAccount","inputs":[{"name":"account","type":"address","internalType":"address"},{"name":"neededRole","type":"bytes32","internalType":"bytes32"}]},{"type":"error","name":"AddressEmptyCode","inputs":[{"name":"target","type":"address","internalType":"address"}]},{"type":"error","name":"AddressInsufficientBalance","inputs":[{"name":"account","type":"address","internalType":"address"}]},{"type":"error","name":"CannotReduceLockPeriod","inputs":[]},{"type":"error","name":"ERC1967InvalidImplementation","inputs":[{"name":"implementation","type":"address","internalType":"address"}]},{"type":"error","name":"ERC1967NonPayable","inputs":[]},{"type":"error","name":"EnforcedPause","inputs":[]},{"type":"error","name":"ExceedsDailyLimit","inputs":[]},{"type":"error","name":"ExceedsMaxPerTx","inputs":[]},{"type":"error","name":"ExpectedPause","inputs":[]},{"type":"error","name":"FailedInnerCall","inputs":[]},{"type":"error","name":"InsufficientStakeAmount","inputs":[]},{"type":"error","name":"InvalidInitialization","inputs":[]},{"type":"error","name":"InvalidLockPeriod","inputs":[]},{"type":"error","name":"InvalidStakingLevel","inputs":[]},{"type":"error","name":"InvariantViolation","inputs":[{"name":"reason","type":"string","internalType":"string"}]},{"type":"error","name":"MaxSlashesReached","inputs":[]},{"type":"error","name":"NoStakeFound","inputs":[]},{"type":"error","name":"NotInitializing","inputs":[]},{"type":"error","name":"NotSequencer","inputs":[]},{"type":"error","name":"ReentrancyGuardReentrantCall","inputs":[]},{"type":"error","name":"RewardClaimPaused","inputs":[]},{"type":"error","name":"RewardDistributionPaused","inputs":[]},{"type":"error","name":"SafeERC20FailedOperation","inputs":[{"name":"token","type":"address","internalType":"address"}]},{"type":"error","name":"SequencerStakeRequired","inputs":[]},{"type":"error","name":"StakeStillLocked","inputs":[]},{"type":"error","name":"StakingPaused","inputs":[]},{"type":"error","name":"UUPSUnauthorizedCallContext","inputs":[]},{"type":"error","name":"UUPSUnsupportedProxiableUUID","inputs":[{"name":"slot","type":"bytes32","internalType":"bytes32"}]},{"type":"error","name":"UnstakingPaused","inputs":[]}],"bytecode":{"object":"0x60a0806040523460c857306080527ff0c57e16840df040f15088dc2f81fe391c3923bec73e23a9662efc9c229c6a009081549060ff8260401c1660b957506001600160401b036002600160401b0319828216016075575b6040516144ff90816100cd8239608051818181611fff01526120ee0152f35b6001600160401b031990911681179091556040519081527fc7f505b2f371ae2175ee4913f4499e1f2633a7b5936321eed1cdaeb6115181d290602090a15f80806056565b63f92ee8a960e01b8152600490fd5b5f80fdfe604060808152600480361015610013575f80fd5b60e05f35811c90816301644c241461328857816301ffc9a7146131e95781630569ce58146131c657816311149445146131a9578163125c5f16146130cd578163140f021c1461309a57816316934fc414612fd957816316efd94114612f635781631ee59c4614612f32578163248a9ca314612ee85781632a07962414612c7b5781632def66201461298c5781632f2ff15d1461296357816332e4bb0a14612929578163338038601461290b578163350763731461269857816336568abe1461262d578163372500ab1461255b5781633f4ba83a146124b957816343270d56146119ae57816345a4f5061461243b578163487ebf4f146124175781634880a494146123785781634e8bd108146123555781634f1ef28614612090578163509908031461207457816352d1902d14611fd6578163582074ae14611f32578163586104f914611ec257816358f921ce14611ea257816359974e3814611af45781635a336aba14611ad45781635c975abb14611a925781635f059d7d14611a6d57816361d027b314611a3957816364dd3a8514611a1e578163671b379314611a015781636ba7ccff146119b35781636f1cc76a146119ae57816372b580501461193a5781637f0c57db1461191e57816383bb38771461190057816383c440a6146116435781638456cb591461159f57816388163eed146115835781638b7429441461156557816391d14854146114f3578163933be7a2146114aa5781639a0bb5141461140b5781639f29f135146113ef578163a1fa93031461126f578163a217fddf14611255578163ad3cb1cc146111b7578163b75b846c1461117d578163c0a9c35d14611160578163c0c53b8b14610e94578163c345315314610ccb57508063c55a4eee14610caf578063c85ec05614610c09578063ce25bf6414610bed578063cf8df30e146108e6578063d547741f1461088a578063d7d9e76e1461083e578063e1261185146107eb578063e13b2bd91461076a578063e1f1c4a71461074e578063e3f76681146106af578063e63ab1e914610675578063eb9cc6ea1461065a578063ec0674d81461063e578063f0f44260146105da578063f3495d5014610470578063f6d0756a146103cb578063f6ed20171461039f5763f761e07914610357575f80fd5b3461039b57602060031936011261039b573590600382101561039b5761037e6060926133b1565b805491600260018301549201549181519384526020840152820152f35b5f80fd5b823461039b57602060031936011261039b576020906103c46103bf61330d565b613761565b9051908152f35b823461039b575f60031936011261039b5760807ff2f4264d1c2d2820a2437db4d293cc8f939e6701132a47a07f9f3046caec4604916104086137c3565b620100007fffffffffffffffffffffffffffffffffffffffffffffffffffffffffff00ffff6007541617600755600b8151918083528201527f726577617264436c61696d000000000000000000000000000000000000000000606082015260016020820152a1005b50903461039b57602060031936011261039b5761048b61330d565b6104936138c3565b73ffffffffffffffffffffffffffffffffffffffff80911692835f526001602052825f2069152d02c7e14af68000008154106105b2576006015460ff161561058b57835f52600660205260ff835f205416156104eb57005b600554906801000000000000000082101561055f575080600161051192016005556134df565b819291549060031b9185831b921b1916179055815f5260066020525f20600160ff198254161790557fabc492a6409e9258da817c6e277ac9c1321a59ab65feba891fabe760d4f85b065f80a2005b6041907f4e487b71000000000000000000000000000000000000000000000000000000005f525260245ffd5b82517f53e2827c000000000000000000000000000000000000000000000000000000008152fd5b5082517f467f3409000000000000000000000000000000000000000000000000000000008152fd5b3461039b57602060031936011261039b5773ffffffffffffffffffffffffffffffffffffffff61060861330d565b610610613855565b167fffffffffffffffffffffffff0000000000000000000000000000000000000000600e541617600e555f80f35b823461039b575f60031936011261039b5760209051610fa08152f35b823461039b575f60031936011261039b576020905160038152f35b823461039b575f60031936011261039b57602090517f65d7a28e3265b37a6474929f336521b332c1681b933f6cb9f3376673440d862a8152f35b823461039b575f60031936011261039b5760807ff2f4264d1c2d2820a2437db4d293cc8f939e6701132a47a07f9f3046caec4604916106ec6137c3565b7fffffffffffffffffffffffffffffffffffffffffffffffffffffffffffff00ff6007541660075560098151918083528201527f756e7374616b696e67000000000000000000000000000000000000000000000060608201525f6020820152a1005b823461039b575f60031936011261039b57602090516127108152f35b823461039b575f60031936011261039b5760807ff2f4264d1c2d2820a2437db4d293cc8f939e6701132a47a07f9f3046caec4604916107a76137c3565b60ff196007541660075560078151918083528201527f7374616b696e670000000000000000000000000000000000000000000000000060608201525f6020820152a1005b823461039b57602060031936011261039b5760019073ffffffffffffffffffffffffffffffffffffffff61081d61330d565b6108256138c3565b165f52600d6020525f200161083a81546135cb565b9055005b503461039b57602060031936011261039b577f6cd8635c4285386b9de2e59a4c1eaf32ad41f28ae64c308280217d7af51464e091602091359061087f613855565b81600a5551908152a1005b50903461039b578060031936011261039b576108e491356108df60016108ae613330565b93835f527f02dd7bc7dec4dceedda775e58dd541e08a116c6c53815c0bd028192f7b6268006020525f20015461391e565b61414e565b005b503461039b578160031936011261039b576108ff61330d565b9060243567ffffffffffffffff811161039b573660238201121561039b5761093090369060248185013591016134a9565b926109396138c3565b73ffffffffffffffffffffffffffffffffffffffff93848416805f526020916006835260ff845f20541615610bc457815f5260018352835f2060ff60068201541615610b9c57825f52600d8452600386865f2001541015610b74578054906101f49081830290838204831484151715610b48576109bc61271080930480956135be565b815560ff600182016109d08282541661339a565b6109db8782546135be565b905554166003811015610b1c57600114610a7c575b505050917f54feefbe9d950d84d055909aadbe66ae8707aa598d83daaca3756384a47a3456819284610a32600d97968c60039c9d5f541690600e541690613cec565b835f5286865288885f2001610a4781546135cb565b9055610a6188519283928352898884015289830190613541565b0390a25f52525f2001541015610a7357005b6108e490613c8f565b60030190815492808402908482041484151715610af0578460039b9c610ade7f54feefbe9d950d84d055909aadbe66ae8707aa598d83daaca3756384a47a3456968a9996610ad5600d9d9c9a97610a32970480936135be565b90558d546135be565b8c559c9b5094505081949596506109f0565b60118a7f4e487b71000000000000000000000000000000000000000000000000000000005f525260245ffd5b60218a7f4e487b71000000000000000000000000000000000000000000000000000000005f525260245ffd5b6011897f4e487b71000000000000000000000000000000000000000000000000000000005f525260245ffd5b8585517f8b0ca980000000000000000000000000000000000000000000000000000000008152fd5b8585517f53e2827c000000000000000000000000000000000000000000000000000000008152fd5b505050517f53e2827c000000000000000000000000000000000000000000000000000000008152fd5b823461039b575f60031936011261039b5760209051610e108152f35b823461039b575f60031936011261039b5760807ff2f4264d1c2d2820a2437db4d293cc8f939e6701132a47a07f9f3046caec460491610c466137c3565b63010000007fffffffffffffffffffffffffffffffffffffffffffffffffffffffff00ffffff600754161760075560128151918083528201527f726577617264446973747269627574696f6e0000000000000000000000000000606082015260016020820152a1005b823461039b575f60031936011261039b5760209051614e208152f35b9190503461039b57602060031936011261039b57610ce761330d565b835192610cf3846133e4565b5f84525f60208501525f858501525f60608501525f60808501525f60a08501525f60c08501525f8185015273ffffffffffffffffffffffffffffffffffffffff610100925f848701525f61012080970152165f526001602052845f2090855193610d5c856133e4565b82548552600183015460208601979060ff81166003811015610e68578952868201929060081c60ff166005811015610e3c57835260028501549060608801918252600386015490608089019182528601549160a0890192835260058701549360c08a01948552600688015460ff1695878b0196151587526007890154988a8c01998a52600801549a8c81019b8c5282519d8e915182525190602001610e0091613353565b51908c01610e0d9161338d565b5160608b01525160808a01525160a08901525160c0880152511515908601525190840152519082015261014090f35b6021827f4e487b71000000000000000000000000000000000000000000000000000000005f525260245ffd5b6021847f4e487b71000000000000000000000000000000000000000000000000000000005f525260245ffd5b82843461039b57606060031936011261039b57610eaf61330d565b610eb7613330565b6044359073ffffffffffffffffffffffffffffffffffffffff9182811680910361039b577ff0c57e16840df040f15088dc2f81fe391c3923bec73e23a9662efc9c229c6a009384549360ff85881c16159467ffffffffffffffff811680159081611158575b600114908161114e575b159081611145575b5061111d578561103c969798995060017fffffffffffffffffffffffffffffffffffffffffffffffff000000000000000083161789556110e8575b50610f726143a1565b610f7a6143a1565b610f826143a1565b610f8a6143a1565b7fcd5ed15c6e187e77e9aee88184c21f4f2182ab5827cb3b7e07fbedcd63f0330060ff198154169055610fbb6143a1565b610fc36143a1565b60017f9b779b17422d0df92223018b32b4d1fa46e071723d6817e2486d003becc55f00557fffffffffffffffffffffffff00000000000000000000000000000000000000009116815f5416175f55600e541617600e5561102281613d61565b5061102c81613e18565b5061103681613ef8565b50613fd1565b5060025f526002602052426002845f20015560015f52426002845f2001555f8052426002845f20015569d3c21bcecceda100000080600a556a084595161401484a000000600855600955620151804204600c5561109557005b7fc7f505b2f371ae2175ee4913f4499e1f2633a7b5936321eed1cdaeb6115181d291817fffffffffffffffffffffffffffffffffffffffffffffff00ffffffffffffffff602093541690555160018152a1005b7fffffffffffffffffffffffffffffffffffffffffffffff000000000000000000166801000000000000000117875588610f69565b8888517ff92ee8a9000000000000000000000000000000000000000000000000000000008152fd5b9050158a610f2e565b303b159150610f26565b879150610f1c565b833461039b575f60031936011261039b576020905162ed4e008152f35b833461039b575f60031936011261039b57602090517f725346f2674e7a610d0ae6e19dd9b45a4380674de24b5ed8476a591399281da38152f35b82843461039b575f60031936011261039b5780519080820182811067ffffffffffffffff8211176112295761122593508152600582527f352e302e30000000000000000000000000000000000000000000000000000000602083015251918291602083526020830190613541565b0390f35b6041847f4e487b71000000000000000000000000000000000000000000000000000000005f525260245ffd5b833461039b575f60031936011261039b57602090515f8152f35b82843461039b57602060031936011261039b57813590600582101561039b57335f526001602052805f2080549384156113c857600182019460ff865460081c166005811015611374578511156113a05760ff611300966112ce8761426a565b6003860160026127106112ec8354976112e68d614358565b906135f8565b049a8b936112fa8c87613725565b42613584565b97019687555554169560038710156113745760017f7f7240db95ee32b3ea13e7a1501c9f6870a3b7d7d66d1e4417f3bc47e43b80f2969714611357575b5050505461134d8251809561338d565b60208401523392a2005b61136561136a9284546135be565b613584565b905584808061133d565b6021837f4e487b71000000000000000000000000000000000000000000000000000000005f525260245ffd5b5082517f7849ecc4000000000000000000000000000000000000000000000000000000008152fd5b82517f59be8f02000000000000000000000000000000000000000000000000000000008152fd5b833461039b575f60031936011261039b57602090516101f48152f35b833461039b575f60031936011261039b5760807ff2f4264d1c2d2820a2437db4d293cc8f939e6701132a47a07f9f3046caec4604916114486137c3565b7fffffffffffffffffffffffffffffffffffffffffffffffffffffffff00ffffff6007541660075560128151918083528201527f726577617264446973747269627574696f6e000000000000000000000000000060608201525f6020820152a1005b833461039b57602060031936011261039b5760209073ffffffffffffffffffffffffffffffffffffffff6114dc61330d565b165f526006825260ff815f20541690519015158152f35b82843461039b578060031936011261039b57602091611510613330565b90355f527f02dd7bc7dec4dceedda775e58dd541e08a116c6c53815c0bd028192f7b626800835273ffffffffffffffffffffffffffffffffffffffff825f2091165f52825260ff815f20541690519015158152f35b833461039b575f60031936011261039b57602090516303c267008152f35b833461039b575f60031936011261039b5760209051613a988152f35b82843461039b575f60031936011261039b576115b96137c3565b7fcd5ed15c6e187e77e9aee88184c21f4f2182ab5827cb3b7e07fbedcd63f033009182549060ff821661161c577f62e78cea01bee320cd4e420270b5ea74000d11b0c9f74754ebdbfc544b05a25860208486600160ff19871617905551338152a1005b82517fd93c0665000000000000000000000000000000000000000000000000000000008152fd5b50503461039b578160031936011261039b57803590602435600581101561039b5760ff6007541680156118d5575b6118ad5761167d61395f565b600854831161188557683635c9adc5dea00000831061185d578015611835576117cf90600194855f526002602052426002825f200155335f5285602052805f20938454611826575b6116ea8673ffffffffffffffffffffffffffffffffffffffff5f5416309033906141ee565b6116f38361426a565b9461173161271061170c61170687614358565b8a6135f8565b0496611719898454613584565b83556112fa868b85018c60ff19825416178155613725565b600282015560038101611745878254613584565b9055426005820155436007820155426008820155670de0b6b3a764000061177b82548a5f5260026020528a865f200154906135f8565b04906117938261136585600f549401938454906135be565b600f5555865f526003602052815f206117ad878254613584565b90556117ba858254613584565b9055805194855285602086015284019061338d565b60608201527f460149dcc806063b409e87cd1622b4db5c31dc026921c539670b39d63a4db16060803392a26118026139b9565b7f9b779b17422d0df92223018b32b4d1fa46e071723d6817e2486d003becc55f0055005b61182f33613bda565b506116c5565b5082517f2a82a34f000000000000000000000000000000000000000000000000000000008152fd5b5082517fa8ded35f000000000000000000000000000000000000000000000000000000008152fd5b5082517f8cc2fc55000000000000000000000000000000000000000000000000000000008152fd5b5082517f26d1807b000000000000000000000000000000000000000000000000000000008152fd5b5060ff7fcd5ed15c6e187e77e9aee88184c21f4f2182ab5827cb3b7e07fbedcd63f033005416611671565b833461039b575f60031936011261039b57602090600f549051908152f35b833461039b575f60031936011261039b5760209051612ee08152f35b50503461039b57602060031936011261039b5760a09173ffffffffffffffffffffffffffffffffffffffff61196d61330d565b165f52600d602052805f2080549260018201549260028301549160ff6003850154169301549381519586526020860152840152151560608301526080820152f35b6133c8565b50503461039b57602060031936011261039b57359060055482101561039b5773ffffffffffffffffffffffffffffffffffffffff6119f26020936134df565b92905490519260031b1c168152f35b82843461039b575f60031936011261039b57602091549051908152f35b833461039b575f60031936011261039b576020905160028152f35b833461039b575f60031936011261039b5760209073ffffffffffffffffffffffffffffffffffffffff600e54169051908152f35b833461039b57602060031936011261039b576020906103c4611a8d61330d565b613642565b833461039b575f60031936011261039b5760209060ff7fcd5ed15c6e187e77e9aee88184c21f4f2182ab5827cb3b7e07fbedcd63f03300541690519015158152f35b823461039b57602060031936011261039b57611aee613855565b35600955005b82843461039b5760208060031936011261039b5782357fb814ff4a26ea3ec5cd1fa579daad86324826254265f3acfec78303a19845b449805f527f02dd7bc7dec4dceedda775e58dd541e08a116c6c53815c0bd028192f7b6268008352835f20335f52835260ff845f20541615611e6c575060ff60075460181c16611e4457610fa080820282159183820414821715611e185761271080910491610bb89081850291858304141715611dec5790611bc891049273ffffffffffffffffffffffffffffffffffffffff5f5416309033906141ee565b600290815f52600390818552855f2054611d6b575b5060015f52808452845f2054611cc0575b5f8052808452845f2054611c05575b6108e46139b9565b818452845f20914290830155611c1c838354613584565b8255670de0b6b3a764000095868402968488041484151715611c9457506001611c737f9e3feeb5046e3fdd703c402a5590573d660890042796341a2097f204d234c04a97611c7d935f80528752875f20549061360b565b9201918254613584565b90558251915f8352820152a1808080808080611bfd565b6011907f4e487b71000000000000000000000000000000000000000000000000000000005f525260245ffd5b818452845f204283820155611cd6848254613584565b8155670de0b6b3a7640000808502908582041485151715611d3f576001611c73611d0a92825f52858952895f20549061360b565b90557f9e3feeb5046e3fdd703c402a5590573d660890042796341a2097f204d234c04a858051600181528587820152a1611bee565b6011887f4e487b71000000000000000000000000000000000000000000000000000000005f525260245ffd5b828552855f204284820155611d81828254613584565b8155670de0b6b3a7640000808302908382041483151715610b4857918791611dd96001611c737f9e3feeb5046e3fdd703c402a5590573d660890042796341a2097f204d234c04a96895f52888c52865f20549061360b565b905581519085825287820152a186611bdd565b6011877f4e487b71000000000000000000000000000000000000000000000000000000005f525260245ffd5b6011867f4e487b71000000000000000000000000000000000000000000000000000000005f525260245ffd5b5050517f9ecd2004000000000000000000000000000000000000000000000000000000008152fd5b846044918551917fe2517d3f00000000000000000000000000000000000000000000000000000000835233908301526024820152fd5b823461039b57602060031936011261039b57611ebc613855565b35600855005b833461039b57602060031936011261039b5760039073ffffffffffffffffffffffffffffffffffffffff611ef461330d565b611efc6138c3565b16805f52600d602052815f20611f1281546135cb565b90555f908152600d6020522043600282015501805460ff19166001179055005b833461039b575f60031936011261039b5760807ff2f4264d1c2d2820a2437db4d293cc8f939e6701132a47a07f9f3046caec460491611f6f6137c3565b6101007fffffffffffffffffffffffffffffffffffffffffffffffffffffffffffff00ff600754161760075560098151918083528201527f756e7374616b696e670000000000000000000000000000000000000000000000606082015260016020820152a1005b82843461039b575f60031936011261039b5773ffffffffffffffffffffffffffffffffffffffff7f000000000000000000000000000000000000000000000000000000000000000016300361204e57602090517f360894a13ba1a3210667c828492db98dca3e2076cc3735a920a3ca505d382bbc8152f35b517fe07c8dba000000000000000000000000000000000000000000000000000000008152fd5b833461039b575f60031936011261039b57602090516129048152f35b50508160031936011261039b576120a561330d565b60243567ffffffffffffffff811161039b573660238201121561039b576120d590369060248186013591016134a9565b9273ffffffffffffffffffffffffffffffffffffffff807f000000000000000000000000000000000000000000000000000000000000000016803014908115612327575b506122ff57612126613855565b82169181517f52d1902d0000000000000000000000000000000000000000000000000000000081526020818681875afa5f91816122cb575b506121935750506024935051917f4c9c8ce3000000000000000000000000000000000000000000000000000000008352820152fd5b7f360894a13ba1a3210667c828492db98dca3e2076cc3735a920a3ca505d382bbc94939291949081810361229c5750843b1561226d57827fffffffffffffffffffffffff000000000000000000000000000000000000000082541617905551907fbc7cd75a20ee27fd9adebab32041f755214dbc6bffa90cc0225b39da2e5c2d3b5f80a283511561223d5750505f808360206108e495519101845af46122376143fa565b91614429565b915091503461224857005b7fb398979f000000000000000000000000000000000000000000000000000000008152fd5b506024935051917f4c9c8ce3000000000000000000000000000000000000000000000000000000008352820152fd5b846024918451917faa1d49a4000000000000000000000000000000000000000000000000000000008352820152fd5b9091506020813d6020116122f7575b816122e76020938361342e565b8101031261039b5751905f61215e565b3d91506122da565b8382517fe07c8dba000000000000000000000000000000000000000000000000000000008152fd5b9050817f360894a13ba1a3210667c828492db98dca3e2076cc3735a920a3ca505d382bbc541614155f612119565b833461039b575f60031936011261039b5760209051683635c9adc5dea000008152f35b833461039b575f60031936011261039b5760807ff2f4264d1c2d2820a2437db4d293cc8f939e6701132a47a07f9f3046caec4604916123b56137c3565b7fffffffffffffffffffffffffffffffffffffffffffffffffffffffffff00ffff60075416600755600b8151918083528201527f726577617264436c61696d00000000000000000000000000000000000000000060608201525f6020820152a1005b833461039b575f60031936011261039b576020905169152d02c7e14af68000008152f35b833461039b575f60031936011261039b575f80600554905b818110612464576020838551908152f35b73ffffffffffffffffffffffffffffffffffffffff612482826134df565b90549060031b1c165f52600660205260ff845f2054166124a5575b600101612453565b916124b16001916135cb565b92905061249d565b82843461039b575f60031936011261039b576124d36137c3565b7fcd5ed15c6e187e77e9aee88184c21f4f2182ab5827cb3b7e07fbedcd63f033009182549060ff821615612534577f5db9ee0a495bf2e6ff9c91a7834c1ba4fdd244a5e8aa4e537bd38aeae4b073aa6020848660ff198616905551338152a1005b82517f8dfc202b000000000000000000000000000000000000000000000000000000008152fd5b50503461039b575f60031936011261039b5760ff60075460101c166126065761258261395f565b335f526001602052815f20908154156113c85750600160ff9101541660026125aa42926133b1565b01556125b533613bda565b90519081527ffc30cddea38e2bf4d6ea7d3f9ed3b6ad7f176419f4963bd81318067a4aee73fe60203392a260017f9b779b17422d0df92223018b32b4d1fa46e071723d6817e2486d003becc55f0055005b90517f4efdcaa8000000000000000000000000000000000000000000000000000000008152fd5b82843461039b578060031936011261039b57612647613330565b903373ffffffffffffffffffffffffffffffffffffffff83160361267057506108e4913561414e565b9050517f6697b232000000000000000000000000000000000000000000000000000000008152fd5b50503461039b576020918260031936011261039b5781359260ff6007541680156128e0575b6128b9576126c961395f565b60085484116128925768056bc75e2d63100000841061286b575f805260028152426002835f200155335f5260018152815f20805461285c575b6127278573ffffffffffffffffffffffffffffffffffffffff5f5416309033906141ee565b612710808602868104821487151715611e18575f949391926127dd8694611365930497670de0b6b3a76400006127cb6127618c8654613584565b808655600186017fffffffffffffffffffffffffffffffffffffffffffffffffffffffffffff00008154169055426002870155600386016127a38d8254613584565b90554260058701554360078701554260088701558880526002885260018a8a200154906135f8565b04938491600f549401938454906135be565b600f5555818052600381528282206127f6878254613584565b9055825195865285015283015260608201527f460149dcc806063b409e87cd1622b4db5c31dc026921c539670b39d63a4db16060803392a26128366139b9565b60017f9b779b17422d0df92223018b32b4d1fa46e071723d6817e2486d003becc55f0055005b61286533613bda565b50612702565b50517fa8ded35f000000000000000000000000000000000000000000000000000000008152fd5b50517f8cc2fc55000000000000000000000000000000000000000000000000000000008152fd5b50517f26d1807b000000000000000000000000000000000000000000000000000000008152fd5b5060ff7fcd5ed15c6e187e77e9aee88184c21f4f2182ab5827cb3b7e07fbedcd63f0330054166126bd565b833461039b575f60031936011261039b57602090516301e133808152f35b833461039b575f60031936011261039b57602090517fb814ff4a26ea3ec5cd1fa579daad86324826254265f3acfec78303a19845b4498152f35b82843461039b578060031936011261039b576108e4913561298760016108ae613330565b6140aa565b82843461039b575f60031936011261039b5760ff60075460081c168015612c50575b612c2a576129ba61395f565b335f5260019081602052805f205460095410612c0257335f5281602052805f2054620151804204600c548111612bf5575b50600b546129f98282613584565b600a5410612bcd5790612a0b91613584565b600b55335f5281602052805f2090815415612ba55760028201544210612b7d5782820191426002612a3f60ff8654166133b1565b0155612a4a33613bda565b9060ff8154945416612a7787830154612a628361339a565b612a6d8882546135be565b9055600f546135be565b600f556003811015612b5157859660ff60065f947f7fc4727e062e336010f2c282598ef5f14facb3de68cf8195c2f23e1454b2b74e989960089514612b3b575b015416612b2d575b338352876020528285812091818355818a8401558160028401558160038401558201558260058201558260068201558260078201550155612b18843373ffffffffffffffffffffffffffffffffffffffff5f5416613cec565b815193845260208401523392a26118026139b9565b612b3633613c8f565b612abf565b612b4a600382015485546135be565b8455612ab7565b6021877f4e487b71000000000000000000000000000000000000000000000000000000005f525260245ffd5b8390517f7f6699f6000000000000000000000000000000000000000000000000000000008152fd5b8390517f59be8f02000000000000000000000000000000000000000000000000000000008152fd5b8483517f56020694000000000000000000000000000000000000000000000000000000008152fd5b5f600b55600c55846129eb565b9050517f8cc2fc55000000000000000000000000000000000000000000000000000000008152fd5b517f47d385a9000000000000000000000000000000000000000000000000000000008152fd5b5060ff7fcd5ed15c6e187e77e9aee88184c21f4f2182ab5827cb3b7e07fbedcd63f0330054166129ae565b82843461039b576020908160031936011261039b5782359160ff600754168015612ebd575b612e9557612cac61395f565b6008548311612e6d5769152d02c7e14af68000008310612e4557600292835f528382524284845f200155335f52600193848352835f20908154612e36575b612d0f8373ffffffffffffffffffffffffffffffffffffffff5f5416309033906141ee565b613a98808402908482041484151715611d3f57612710900491612d33848254613584565b8082558782016103027fffffffffffffffffffffffffffffffffffffffffffffffffffffffffffff00008254161790556301e133804201804211610af05791612dc8899a670de0b6b3a76400006127cb61136595889760069e9c9b9a9987015560038601612da28a8254613584565b9055426005870155436007870155426008870155875f52878b528b8d5f200154906135f8565b600f5555805f5260038452855f20612de1848254613584565b905585519283528383015260038583015260608201527f460149dcc806063b409e87cd1622b4db5c31dc026921c539670b39d63a4db16060803392a2335f52525f20018160ff198254161790556118026139b9565b612e3f33613bda565b50612cea565b8382517fa8ded35f000000000000000000000000000000000000000000000000000000008152fd5b8382517f8cc2fc55000000000000000000000000000000000000000000000000000000008152fd5b8382517f26d1807b000000000000000000000000000000000000000000000000000000008152fd5b5060ff7fcd5ed15c6e187e77e9aee88184c21f4f2182ab5827cb3b7e07fbedcd63f033005416612ca0565b82843461039b57602060031936011261039b57602091355f527f02dd7bc7dec4dceedda775e58dd541e08a116c6c53815c0bd028192f7b62680082526001815f2001549051908152f35b50503461039b57602060031936011261039b573590600382101561039b57612f5b60209261339a565b549051908152f35b833461039b575f60031936011261039b57610120916007549060085490600954600a5490600b549360ff600c549688519882821615158a52828260081c16151560208b0152828260101c161515908a015260181c1615156060880152608087015260a086015260c0850152830152610100820152f35b82843461039b57602060031936011261039b576101409273ffffffffffffffffffffffffffffffffffffffff61300d61330d565b165f526001602052815f20908154936001830154906002840154906003850154908501549060058601549261307260ff6006890154169560ff600860078b01549a01549a613066602082519e8f90815201838516613353565b8c019160081c1661338d565b6060890152608088015260a087015260c0860152151590840152610100830152610120820152f35b833461039b575f60031936011261039b5760209073ffffffffffffffffffffffffffffffffffffffff5f54169051908152f35b833461039b575f60031936011261039b5780519081600554908181526020809101809260055f527f036b6384b5eca791c62761152d0c79bb0604c104a5fb6f4eb0703f3154bb3db0905f5b81811061317f575050508461312e91038561342e565b825181815293518185018190528493840192915f5b82811061315257505050500390f35b835173ffffffffffffffffffffffffffffffffffffffff1685528695509381019392810192600101613143565b825473ffffffffffffffffffffffffffffffffffffffff1684529284019260019283019201613118565b833461039b575f60031936011261039b57602090516276a7008152f35b833461039b575f60031936011261039b576020905168056bc75e2d631000008152f35b50503461039b57602060031936011261039b57357fffffffff00000000000000000000000000000000000000000000000000000000811680910361039b576020917f7965db0b00000000000000000000000000000000000000000000000000000000821491821561325e575b50519015158152f35b7f01ffc9a7000000000000000000000000000000000000000000000000000000001491505f613255565b833461039b575f60031936011261039b5760807ff2f4264d1c2d2820a2437db4d293cc8f939e6701132a47a07f9f3046caec4604916132c56137c3565b600160ff19600754161760075560078151918083528201527f7374616b696e6700000000000000000000000000000000000000000000000000606082015260016020820152a1005b6004359073ffffffffffffffffffffffffffffffffffffffff8216820361039b57565b6024359073ffffffffffffffffffffffffffffffffffffffff8216820361039b57565b9060038210156133605752565b7f4e487b71000000000000000000000000000000000000000000000000000000005f52602160045260245ffd5b9060058210156133605752565b6003811015613360575f52600360205260405f2090565b6003811015613360575f52600260205260405f2090565b3461039b575f60031936011261039b576020604051610bb88152f35b610140810190811067ffffffffffffffff82111761340157604052565b7f4e487b71000000000000000000000000000000000000000000000000000000005f52604160045260245ffd5b90601f7fffffffffffffffffffffffffffffffffffffffffffffffffffffffffffffffe0910116810190811067ffffffffffffffff82111761340157604052565b67ffffffffffffffff811161340157601f017fffffffffffffffffffffffffffffffffffffffffffffffffffffffffffffffe01660200190565b9291926134b58261346f565b916134c3604051938461342e565b82948184528183011161039b578281602093845f960137010152565b6005548110156135145760055f527f036b6384b5eca791c62761152d0c79bb0604c104a5fb6f4eb0703f3154bb3db001905f90565b7f4e487b71000000000000000000000000000000000000000000000000000000005f52603260045260245ffd5b907fffffffffffffffffffffffffffffffffffffffffffffffffffffffffffffffe0601f602080948051918291828752018686015e5f8582860101520116010190565b9190820180921161359157565b7f4e487b71000000000000000000000000000000000000000000000000000000005f52601160045260245ffd5b9190820391821161359157565b7fffffffffffffffffffffffffffffffffffffffffffffffffffffffffffffffff81146135915760010190565b8181029291811591840414171561359157565b8115613615570490565b7f4e487b71000000000000000000000000000000000000000000000000000000005f52601260045260245ffd5b73ffffffffffffffffffffffffffffffffffffffff165f52600160205260405f2060405161366f816133e4565b81548152600182015460ff81169060038210156133605760ff91602084015260081c1660058110156133605760408201526002820154606082015260026136fe60038401549360808401948552600481015460a0850152600581015460c085015260ff600682015416151560e085015261012060086007830154928361010088015201549401938452436135be565b1061371f57613711610e109151426135be565b1061371a575190565b505f90565b50505f90565b906005811015613360577fffffffffffffffffffffffffffffffffffffffffffffffffffffffffffff00ff61ff0083549260081b169116179055565b73ffffffffffffffffffffffffffffffffffffffff165f52600160205260405f20805490811561371f576004670de0b6b3a76400006137b66137c09460016137ae60ff82880154166133b1565b0154906135f8565b04910154906135be565b90565b335f9081527f75442b0a96088b5456bc4ed01394c96a4feec0f883c9494257d76b96ab1c9b6b60205260409020547f65d7a28e3265b37a6474929f336521b332c1681b933f6cb9f3376673440d862a9060ff161561381e5750565b604490604051907fe2517d3f0000000000000000000000000000000000000000000000000000000082523360048301526024820152fd5b335f9081527fb7db2dd08fcb62d0c9e08c51941cae53c267786a0b75803fb7960902fc8ef97d602052604090205460ff161561388d57565b60446040517fe2517d3f0000000000000000000000000000000000000000000000000000000081523360048201525f6024820152fd5b335f9081527fc157d408da348139bf70cfd0baf22a48779057d99f6df6b2706ae8add81bdb7360205260409020547f725346f2674e7a610d0ae6e19dd9b45a4380674de24b5ed8476a591399281da39060ff161561381e5750565b805f527f02dd7bc7dec4dceedda775e58dd541e08a116c6c53815c0bd028192f7b62680060205260405f20335f5260205260ff60405f2054161561381e5750565b7f9b779b17422d0df92223018b32b4d1fa46e071723d6817e2486d003becc55f00600281541461398f5760029055565b60046040517f3ee5aeb5000000000000000000000000000000000000000000000000000000008152fd5b73ffffffffffffffffffffffffffffffffffffffff5f54166040805180927f70a0823100000000000000000000000000000000000000000000000000000000825230600483015281602460209586935afa908115613bd0575f91613ba3575b505f80526003835280613a4b613a39845f205460015f52855f205490613584565b60025f5260038652845f205490613584565b11613b205760015f5260038352815f205415801590613b11575b8015613b01575b613a7557505050565b15613a7e575050565b6084925051907f0ae7aad80000000000000000000000000000000000000000000000000000000082526004820152602160248201527f4e6f6e2d7a65726f207374616b65732077697468207a65726f2062616c616e6360448201527f65000000000000000000000000000000000000000000000000000000000000006064820152fd5b5060025f52815f20541515613a6c565b505f8052815f20541515613a65565b6084838351907f0ae7aad80000000000000000000000000000000000000000000000000000000082526004820152602560248201527f546f74616c207374616b6564206578636565647320636f6e747261637420626160448201527f6c616e63650000000000000000000000000000000000000000000000000000006064820152fd5b90508281813d8311613bc9575b613bba818361342e565b8101031261039b57515f613a18565b503d613bb0565b82513d5f823e3d90fd5b73ffffffffffffffffffffffffffffffffffffffff8082165f526001602052613c2c60405f20613c1060ff6001830154166133b1565b9060018154920191670de0b6b3a76400009384918454906135f8565b0492613c3e60048301948554906135be565b95869384613c51575b5050505050505090565b613c6861136595613c7493613c80995f5416613cec565b855493549054906135f8565b04809355600f546135be565b600f555f808281808080613c47565b73ffffffffffffffffffffffffffffffffffffffff16805f52600660205260405f20805460ff8116613cc057505050565b60ff191690557f65cc197fd699db876319e374dc4b8117a40f5a65a313e0c87dc388c423e01c205f80a2565b9173ffffffffffffffffffffffffffffffffffffffff604051927fa9059cbb000000000000000000000000000000000000000000000000000000006020850152166024830152604482015260448152608081019181831067ffffffffffffffff84111761340157613d5f926040526142b7565b565b73ffffffffffffffffffffffffffffffffffffffff165f8181527fb7db2dd08fcb62d0c9e08c51941cae53c267786a0b75803fb7960902fc8ef97d60205260409020547f02dd7bc7dec4dceedda775e58dd541e08a116c6c53815c0bd028192f7b6268009060ff1661371f575f805260205260405f20815f5260205260405f20600160ff1982541617905533905f7f2f8788117e7eff1d82e926ec794901d17c78024a50270940304540a733656f0d8180a4600190565b73ffffffffffffffffffffffffffffffffffffffff165f8181527f75442b0a96088b5456bc4ed01394c96a4feec0f883c9494257d76b96ab1c9b6b60205260409020547f65d7a28e3265b37a6474929f336521b332c1681b933f6cb9f3376673440d862a91907f02dd7bc7dec4dceedda775e58dd541e08a116c6c53815c0bd028192f7b6268009060ff16613ef157825f5260205260405f20815f5260205260405f20600160ff1982541617905533917f2f8788117e7eff1d82e926ec794901d17c78024a50270940304540a733656f0d5f80a4600190565b5050505f90565b73ffffffffffffffffffffffffffffffffffffffff165f8181527f799a8790d7ebc9751b4601a5fe9130e5d4e69ec8e18bf13b700f13dc029043dc60205260409020547fb814ff4a26ea3ec5cd1fa579daad86324826254265f3acfec78303a19845b44991907f02dd7bc7dec4dceedda775e58dd541e08a116c6c53815c0bd028192f7b6268009060ff16613ef157825f5260205260405f20815f5260205260405f20600160ff1982541617905533917f2f8788117e7eff1d82e926ec794901d17c78024a50270940304540a733656f0d5f80a4600190565b73ffffffffffffffffffffffffffffffffffffffff165f8181527fc157d408da348139bf70cfd0baf22a48779057d99f6df6b2706ae8add81bdb7360205260409020547f725346f2674e7a610d0ae6e19dd9b45a4380674de24b5ed8476a591399281da391907f02dd7bc7dec4dceedda775e58dd541e08a116c6c53815c0bd028192f7b6268009060ff16613ef157825f5260205260405f20815f5260205260405f20600160ff1982541617905533917f2f8788117e7eff1d82e926ec794901d17c78024a50270940304540a733656f0d5f80a4600190565b90815f527f02dd7bc7dec4dceedda775e58dd541e08a116c6c53815c0bd028192f7b6268008060205273ffffffffffffffffffffffffffffffffffffffff60405f20921691825f5260205260ff60405f205416155f14613ef157825f5260205260405f20815f5260205260405f20600160ff1982541617905533917f2f8788117e7eff1d82e926ec794901d17c78024a50270940304540a733656f0d5f80a4600190565b90815f527f02dd7bc7dec4dceedda775e58dd541e08a116c6c53815c0bd028192f7b6268008060205273ffffffffffffffffffffffffffffffffffffffff60405f20921691825f5260205260ff60405f2054165f14613ef157825f5260205260405f20815f5260205260405f2060ff19815416905533917ff6391f5c32d9c69d2a47ea670b442974b53935d1edc7fd64eb21e047a839171b5f80a4600190565b9290604051927f23b872dd00000000000000000000000000000000000000000000000000000000602085015273ffffffffffffffffffffffffffffffffffffffff809216602485015216604483015260648201526064815260a081019181831067ffffffffffffffff84111761340157613d5f926040526142b7565b600581101561336057600181146142af57600281146142a7576003811461429e57600414614296575f90565b6303c2670090565b506301e1338090565b5062ed4e0090565b506276a70090565b5f8073ffffffffffffffffffffffffffffffffffffffff6142ed93169360208151910182865af16142e66143fa565b9083614429565b8051908115159182614334575b50506143035750565b602490604051907f5274afe70000000000000000000000000000000000000000000000000000000082526004820152fd5b819250906020918101031261039b576020015180159081150361039b575f806142fa565b6005811015613360576001811461439a5760028114614393576003811461438c576004146143865761271090565b614e2090565b50613a9890565b50612ee090565b5061290490565b60ff7ff0c57e16840df040f15088dc2f81fe391c3923bec73e23a9662efc9c229c6a005460401c16156143d057565b60046040517fd7e6bcf8000000000000000000000000000000000000000000000000000000008152fd5b3d15614424573d9061440b8261346f565b91614419604051938461342e565b82523d5f602084013e565b606090565b90614468575080511561443e57805190602001fd5b60046040517f1425ea42000000000000000000000000000000000000000000000000000000008152fd5b815115806144c0575b614479575090565b60249073ffffffffffffffffffffffffffffffffffffffff604051917f9996b315000000000000000000000000000000000000000000000000000000008352166004820152fd5b50803b1561447156fea26469706673582212200984ff8882b77f631533349bc471c0a3e6934a1e08ee593dcbb0452b3babca1664736f6c63430008190033","linkReferences":{}},"methodIdentifiers":{"BASIS_POINTS()":"e1f1c4a7","DEFAULT_ADMIN_ROLE()":"a217fddf","GOVERNANCE_SHARE()":"6f1cc76a","LIQUIDITY_SHARE()":"43270d56","LOCK_12_MONTHS()":"33803860","LOCK_24_MONTHS()":"8b742944","LOCK_3_MONTHS()":"11149445","LOCK_6_MONTHS()":"c0a9c35d","MAX_SLASHES()":"eb9cc6ea","MIN_GOVERNANCE_STAKE()":"4e8bd108","MIN_LIQUIDITY_STAKE()":"0569ce58","MIN_SEQUENCER_STAKE()":"487ebf4f","MIN_VOTING_POWER_BLOCKS()":"64dd3a85","MIN_VOTING_POWER_TIME()":"ce25bf64","MULTIPLIER_12_MONTHS()":"88163eed","MULTIPLIER_24_MONTHS()":"c55a4eee","MULTIPLIER_3_MONTHS()":"50990803","MULTIPLIER_6_MONTHS()":"7f0c57db","PAUSER_ROLE()":"e63ab1e9","REWARD_DISTRIBUTOR_ROLE()":"32e4bb0a","SEQUENCER_MANAGER_ROLE()":"b75b846c","SEQUENCER_SHARE()":"ec0674d8","SLASH_PERCENTAGE()":"9f29f135","UPGRADE_INTERFACE_VERSION()":"ad3cb1cc","andeToken()":"140f021c","circuitBreaker()":"16efd941","claimRewards()":"372500ab","distributeRewards(uint256)":"59974e38","emergencyPauseRewardClaim()":"f6d0756a","emergencyPauseRewardDistribution()":"c85ec056","emergencyPauseStaking()":"01644c24","emergencyPauseUnstaking()":"582074ae","emergencyResumeRewardClaim()":"4880a494","emergencyResumeRewardDistribution()":"9a0bb514","emergencyResumeStaking()":"e13b2bd9","emergencyResumeUnstaking()":"e3f76681","extendLock(uint8)":"a1fa9303","getActiveSequencersCount()":"45a4f506","getPendingRewards(address)":"f6ed2017","getRoleAdmin(bytes32)":"248a9ca3","getSequencers()":"125c5f16","getStakeInfo(address)":"c3453153","getVotingPowerWithFlashLoanProtection(address)":"5f059d7d","grantRole(bytes32,address)":"2f2ff15d","hasRole(bytes32,address)":"91d14854","initialize(address,address,address)":"c0c53b8b","isActiveSequencer(address)":"933be7a2","pause()":"8456cb59","paused()":"5c975abb","proxiableUUID()":"52d1902d","recordSequencerActivity(address)":"586104f9","recordSequencerMiss(address)":"e1261185","registerSequencer(address)":"f3495d50","renounceRole(bytes32,address)":"36568abe","revokeRole(bytes32,address)":"d547741f","rewardPools(uint8)":"f761e079","sequencerPerformance(address)":"72b58050","sequencers(uint256)":"6ba7ccff","setDailyWithdrawLimit(uint256)":"d7d9e76e","setMaxStakePerTx(uint256)":"58f921ce","setMaxUnstakePerTx(uint256)":"5a336aba","setTreasury(address)":"f0f44260","slashSequencer(address,string)":"cf8df30e","stakeGovernance(uint256,uint8)":"83c440a6","stakeLiquidity(uint256)":"35076373","stakeSequencer(uint256)":"2a079624","stakes(address)":"16934fc4","supportsInterface(bytes4)":"01ffc9a7","totalRewardDebt()":"83bb3877","totalStaked(uint8)":"1ee59c46","totalVotingPower()":"671b3793","treasury()":"61d027b3","unpause()":"3f4ba83a","unstake()":"2def6620","upgradeToAndCall(address,bytes)":"4f1ef286"},"id":180}