{"abi":[{"type":"constructor","inputs":[{"name":"_collateralToken","type":"address","internalType":"address"},{"name":"_priceOracle","type":"address","internalType":"address"},{"name":"_insuranceFund","type":"address","internalType":"address"},{"name":"_feeRecipient","type":"address","internalType":"address"}],"stateMutability":"nonpayable"},{"type":"function","name":"BASIS_POINTS","inputs":[],"outputs":[{"name":"","type":"uint256","internalType":"uint256"}],"stateMutability":"view"},{"type":"function","name":"FUNDING_INTERVAL","inputs":[],"outputs":[{"name":"","type":"uint256","internalType":"uint256"}],"stateMutability":"view"},{"type":"function","name":"FUNDING_RATE_PRECISION","inputs":[],"outputs":[{"name":"","type":"uint256","internalType":"uint256"}],"stateMutability":"view"},{"type":"function","name":"LIQUIDATION_FEE_RATE","inputs":[],"outputs":[{"name":"","type":"uint256","internalType":"uint256"}],"stateMutability":"view"},{"type":"function","name":"MAINTENANCE_MARGIN_RATE","inputs":[],"outputs":[{"name":"","type":"uint256","internalType":"uint256"}],"stateMutability":"view"},{"type":"function","name":"MAX_FUNDING_RATE","inputs":[],"outputs":[{"name":"","type":"uint256","internalType":"uint256"}],"stateMutability":"view"},{"type":"function","name":"MAX_LEVERAGE","inputs":[],"outputs":[{"name":"","type":"uint256","internalType":"uint256"}],"stateMutability":"view"},{"type":"function","name":"MIN_LEVERAGE","inputs":[],"outputs":[{"name":"","type":"uint256","internalType":"uint256"}],"stateMutability":"view"},{"type":"function","name":"PRECISION","inputs":[],"outputs":[{"name":"","type":"uint256","internalType":"uint256"}],"stateMutability":"view"},{"type":"function","name":"TRADING_FEE_RATE","inputs":[],"outputs":[{"name":"","type":"uint256","internalType":"uint256"}],"stateMutability":"view"},{"type":"function","name":"addMarket","inputs":[{"name":"indexToken","type":"address","internalType":"address"},{"name":"maxOpenInterest","type":"uint256","internalType":"uint256"}],"outputs":[],"stateMutability":"nonpayable"},{"type":"function","name":"allMarkets","inputs":[{"name":"","type":"uint256","internalType":"uint256"}],"outputs":[{"name":"","type":"address","internalType":"address"}],"stateMutability":"view"},{"type":"function","name":"closePosition","inputs":[{"name":"market","type":"address","internalType":"address"}],"outputs":[],"stateMutability":"nonpayable"},{"type":"function","name":"collateralToken","inputs":[],"outputs":[{"name":"","type":"address","internalType":"address"}],"stateMutability":"view"},{"type":"function","name":"feeRecipient","inputs":[],"outputs":[{"name":"","type":"address","internalType":"address"}],"stateMutability":"view"},{"type":"function","name":"getLiquidationPrice","inputs":[{"name":"user","type":"address","internalType":"address"},{"name":"market","type":"address","internalType":"address"}],"outputs":[{"name":"liquidationPrice","type":"uint256","internalType":"uint256"}],"stateMutability":"view"},{"type":"function","name":"getPosition","inputs":[{"name":"user","type":"address","internalType":"address"},{"name":"market","type":"address","internalType":"address"}],"outputs":[{"name":"","type":"tuple","internalType":"struct AndePerpetuals.Position","components":[{"name":"side","type":"uint8","internalType":"enum AndePerpetuals.PositionSide"},{"name":"size","type":"uint256","internalType":"uint256"},{"name":"collateral","type":"uint256","internalType":"uint256"},{"name":"entryPrice","type":"uint256","internalType":"uint256"},{"name":"leverage","type":"uint256","internalType":"uint256"},{"name":"lastFundingIndex","type":"int256","internalType":"int256"},{"name":"openTimestamp","type":"uint256","internalType":"uint256"},{"name":"takeProfitPrice","type":"uint256","internalType":"uint256"},{"name":"stopLossPrice","type":"uint256","internalType":"uint256"},{"name":"isOpen","type":"bool","internalType":"bool"}]}],"stateMutability":"view"},{"type":"function","name":"getPositionPnL","inputs":[{"name":"user","type":"address","internalType":"address"},{"name":"market","type":"address","internalType":"address"}],"outputs":[{"name":"pnl","type":"int256","internalType":"int256"},{"name":"fundingFee","type":"uint256","internalType":"uint256"}],"stateMutability":"view"},{"type":"function","name":"insuranceFund","inputs":[],"outputs":[{"name":"","type":"address","internalType":"address"}],"stateMutability":"view"},{"type":"function","name":"liquidate","inputs":[{"name":"user","type":"address","internalType":"address"},{"name":"market","type":"address","internalType":"address"}],"outputs":[],"stateMutability":"nonpayable"},{"type":"function","name":"markets","inputs":[{"name":"","type":"address","internalType":"address"}],"outputs":[{"name":"indexToken","type":"address","internalType":"address"},{"name":"longOpenInterest","type":"uint256","internalType":"uint256"},{"name":"shortOpenInterest","type":"uint256","internalType":"uint256"},{"name":"maxOpenInterest","type":"uint256","internalType":"uint256"},{"name":"fundingRatePerHour","type":"uint256","internalType":"uint256"},{"name":"lastFundingTime","type":"uint256","internalType":"uint256"},{"name":"cumulativeFundingRate","type":"int256","internalType":"int256"},{"name":"isActive","type":"bool","internalType":"bool"}],"stateMutability":"view"},{"type":"function","name":"openPosition","inputs":[{"name":"market","type":"address","internalType":"address"},{"name":"side","type":"uint8","internalType":"enum AndePerpetuals.PositionSide"},{"name":"collateralAmount","type":"uint256","internalType":"uint256"},{"name":"leverage","type":"uint256","internalType":"uint256"},{"name":"takeProfitPrice","type":"uint256","internalType":"uint256"},{"name":"stopLossPrice","type":"uint256","internalType":"uint256"}],"outputs":[],"stateMutability":"nonpayable"},{"type":"function","name":"owner","inputs":[],"outputs":[{"name":"","type":"address","internalType":"address"}],"stateMutability":"view"},{"type":"function","name":"paused","inputs":[],"outputs":[{"name":"","type":"bool","internalType":"bool"}],"stateMutability":"view"},{"type":"function","name":"positions","inputs":[{"name":"","type":"address","internalType":"address"},{"name":"","type":"address","internalType":"address"}],"outputs":[{"name":"side","type":"uint8","internalType":"enum AndePerpetuals.PositionSide"},{"name":"size","type":"uint256","internalType":"uint256"},{"name":"collateral","type":"uint256","internalType":"uint256"},{"name":"entryPrice","type":"uint256","internalType":"uint256"},{"name":"leverage","type":"uint256","internalType":"uint256"},{"name":"lastFundingIndex","type":"int256","internalType":"int256"},{"name":"openTimestamp","type":"uint256","internalType":"uint256"},{"name":"takeProfitPrice","type":"uint256","internalType":"uint256"},{"name":"stopLossPrice","type":"uint256","internalType":"uint256"},{"name":"isOpen","type":"bool","internalType":"bool"}],"stateMutability":"view"},{"type":"function","name":"priceOracle","inputs":[],"outputs":[{"name":"","type":"address","internalType":"address"}],"stateMutability":"view"},{"type":"function","name":"protocolFees","inputs":[],"outputs":[{"name":"","type":"uint256","internalType":"uint256"}],"stateMutability":"view"},{"type":"function","name":"renounceOwnership","inputs":[],"outputs":[],"stateMutability":"nonpayable"},{"type":"function","name":"setPaused","inputs":[{"name":"_paused","type":"bool","internalType":"bool"}],"outputs":[],"stateMutability":"nonpayable"},{"type":"function","name":"totalCollateral","inputs":[],"outputs":[{"name":"","type":"uint256","internalType":"uint256"}],"stateMutability":"view"},{"type":"function","name":"transferOwnership","inputs":[{"name":"newOwner","type":"address","internalType":"address"}],"outputs":[],"stateMutability":"nonpayable"},{"type":"function","name":"withdrawFees","inputs":[],"outputs":[],"stateMutability":"nonpayable"},{"type":"event","name":"CollateralDeposited","inputs":[{"name":"user","type":"address","indexed":true,"internalType":"address"},{"name":"amount","type":"uint256","indexed":false,"internalType":"uint256"}],"anonymous":false},{"type":"event","name":"CollateralWithdrawn","inputs":[{"name":"user","type":"address","indexed":true,"internalType":"address"},{"name":"amount","type":"uint256","indexed":false,"internalType":"uint256"}],"anonymous":false},{"type":"event","name":"FundingRateUpdated","inputs":[{"name":"market","type":"address","indexed":true,"internalType":"address"},{"name":"fundingRate","type":"int256","indexed":false,"internalType":"int256"},{"name":"timestamp","type":"uint256","indexed":false,"internalType":"uint256"}],"anonymous":false},{"type":"event","name":"OwnershipTransferred","inputs":[{"name":"previousOwner","type":"address","indexed":true,"internalType":"address"},{"name":"newOwner","type":"address","indexed":true,"internalType":"address"}],"anonymous":false},{"type":"event","name":"PositionClosed","inputs":[{"name":"user","type":"address","indexed":true,"internalType":"address"},{"name":"market","type":"address","indexed":true,"internalType":"address"},{"name":"exitPrice","type":"uint256","indexed":false,"internalType":"uint256"},{"name":"pnl","type":"int256","indexed":false,"internalType":"int256"},{"name":"feesPaid","type":"uint256","indexed":false,"internalType":"uint256"}],"anonymous":false},{"type":"event","name":"PositionLiquidated","inputs":[{"name":"user","type":"address","indexed":true,"internalType":"address"},{"name":"market","type":"address","indexed":true,"internalType":"address"},{"name":"liquidator","type":"address","indexed":true,"internalType":"address"},{"name":"liquidationPrice","type":"uint256","indexed":false,"internalType":"uint256"},{"name":"liquidationFee","type":"uint256","indexed":false,"internalType":"uint256"}],"anonymous":false},{"type":"event","name":"PositionOpened","inputs":[{"name":"user","type":"address","indexed":true,"internalType":"address"},{"name":"market","type":"address","indexed":true,"internalType":"address"},{"name":"side","type":"uint8","indexed":false,"internalType":"enum AndePerpetuals.PositionSide"},{"name":"size","type":"uint256","indexed":false,"internalType":"uint256"},{"name":"collateral","type":"uint256","indexed":false,"internalType":"uint256"},{"name":"leverage","type":"uint256","indexed":false,"internalType":"uint256"},{"name":"entryPrice","type":"uint256","indexed":false,"internalType":"uint256"}],"anonymous":false},{"type":"error","name":"AddressEmptyCode","inputs":[{"name":"target","type":"address","internalType":"address"}]},{"type":"error","name":"AddressInsufficientBalance","inputs":[{"name":"account","type":"address","internalType":"address"}]},{"type":"error","name":"ContractPaused","inputs":[]},{"type":"error","name":"FailedInnerCall","inputs":[]},{"type":"error","name":"InsufficientCollateral","inputs":[]},{"type":"error","name":"InvalidLeverage","inputs":[]},{"type":"error","name":"InvalidPrice","inputs":[]},{"type":"error","name":"LiquidationNotAllowed","inputs":[]},{"type":"error","name":"MarketNotActive","inputs":[]},{"type":"error","name":"MaxOpenInterestReached","inputs":[]},{"type":"error","name":"NoOpenPosition","inputs":[]},{"type":"error","name":"OwnableInvalidOwner","inputs":[{"name":"owner","type":"address","internalType":"address"}]},{"type":"error","name":"OwnableUnauthorizedAccount","inputs":[{"name":"account","type":"address","internalType":"address"}]},{"type":"error","name":"PositionAlreadyOpen","inputs":[]},{"type":"error","name":"PositionTooSmall","inputs":[]},{"type":"error","name":"ReentrancyGuardReentrantCall","inputs":[]},{"type":"error","name":"SafeERC20FailedOperation","inputs":[{"name":"token","type":"address","internalType":"address"}]}],"bytecode":{"object":"0x60803461010d57601f61208238819003918201601f19168301916001600160401b038311848410176101115780849260809460405283398101031261010d5761004781610125565b61005360208301610125565b9161006c606061006560408401610125565b9201610125565b33156100f5575f549360018060a01b03928380928160018060a01b03199733898b16175f5560405199823391167f8be0079c531659141344cd1fd0a4f28419497f9722a3daafe3b4186f6b6457e05f80a36001805516876005541617600555168560065416176006551683600754161760075516906008541617600855611f48908161013a8239f35b604051631e4fbdf760e01b81525f6004820152602490fd5b5f80fd5b634e487b7160e01b5f52604160045260245ffd5b51906001600160a01b038216820361010d5756fe604060808152600480361015610013575f80fd5b60e0905f35821c91826316c38b3c1461150f5782631867b480146114db5782631ad8b03b146114bd5782632630c12f1461148957826329c47db91461146e5782632f86e2dd146111fa57826334c1557d146111df57826346904840146111ab578263476343ee146111625782634ac8eb5f146111445782634bd214451461107a57826352d84d1e1461102d57826355efb287146110115782635c975abb14610fee57826362d194a614610faf5782636be6026b14610f90578263715018a614610f145782637e4ad26114610b2257826386b9d81f14610c0d5782638da5cb5b14610bda5782638e8f294b14610b4257826393663d5b14610b275782639b45ec9714610b22578263a5f879ca1461096b578263a9e79c2d14610482578263aaf5eb6814610460578263b2016bd41461042c578263b33dc190146102b357508163b79023031461027f578163e1f1c4a714610263578163f2fde38b1461019f575063f40f2a7914610180575f80fd5b3461019b575f60031936011261019b57602090516101f48152f35b5f80fd5b90503461019b57602060031936011261019b576101ba611565565b906101c361187e565b73ffffffffffffffffffffffffffffffffffffffff8092169283156102345750505f54827fffffffffffffffffffffffff00000000000000000000000000000000000000008216175f55167f8be0079c531659141344cd1fd0a4f28419497f9722a3daafe3b4186f6b6457e05f80a3005b905f60249251917f1e4fbdf7000000000000000000000000000000000000000000000000000000008352820152fd5b823461019b575f60031936011261019b57602090516127108152f35b823461019b575f60031936011261019b5760209073ffffffffffffffffffffffffffffffffffffffff600754169051908152f35b91503461019b578260031936011261019b576102cd611565565b6102d5611588565b928451936102e2856117e7565b5f8552602085015f90528585015f9052606085015f9052608085015f905260a085015f905260c085015f90528185015f9052610100928386015f90526101208096015f905273ffffffffffffffffffffffffffffffffffffffff8091165f526002602052865f2091165f52602052845f2090855193610360856117e7565b825460ff1661036f9086611872565b60018301549660208601978852600284015491818701928352600385015490606088019182528501546080880190815260058601549160a0890192835260068701549360c08a01948552600788015495878b019687526008890154988a8c01998a526009015460ff169a8c81019b15158c5282519d8e809251906103f2916115ab565b51906020015251908c01525160608b01525160808a01525160a08901525160c0880152519086015251908401525115159082015261014090f35b833461019b575f60031936011261019b5760209073ffffffffffffffffffffffffffffffffffffffff600554169051908152f35b833461019b575f60031936011261019b5760209051670de0b6b3a76400008152f35b91503461019b5760c060031936011261019b5761049d611565565b602435926002948585101561019b5760443591606435936104bc6118ce565b60ff600b54166109435773ffffffffffffffffffffffffffffffffffffffff9182821698895f526020926003845260ff6007875f200154161561091b578188108015610911575b6108e95786156108c157335f52818452855f208b5f52845260ff6009875f20015416610899578061053661053b926119c8565b611a90565b9788156108735761054c8888611662565b948b5f5260038552865f20908b155f146108495760018201805461057089826116e6565b6003850154106108215788610584916116e6565b90555b600554168751907f23b872dd00000000000000000000000000000000000000000000000000000000878301523360248301523060448301528960648301526064825260a0820182811067ffffffffffffffff8211176107f55789526105ec9190611d77565b6105f8886009546116e6565b600955600a8602868104600a14871517156107c9579385938d938b8d8f98956127108d97049d8e610628916116d9565b9d600a5490610636916116e6565b600a55600601549386519961064a8b6117e7565b610654908b611872565b8d898b018d8152888c0191825260608c0193845260808c0194855260a08c0196875260c08c01974289528c01986084358a526101008d019a8d60a4358d52610120019c60018e52335f52858152825f20915f52525f209b518381101561079d57918c9b999795939160099b9997959360ff6107559f7fffffffffffffffffffffffffffffffffffffffffffffffffffffffffffffff009054169116178d555160018d015551908b01555160038a0155519088015551600587015551600686015551600785015551600884015551151591019060ff7fffffffffffffffffffffffffffffffffffffffffffffffffffffffffffffff0083541691151516179055565b610761835180986115ab565b860152840152606083015260808201527fdfc9af90c4bd6bbcc8172ca2c1a6a7105c90496c061528b4d81b576f5e75f36d60a03392a360018055005b6021877f4e487b71000000000000000000000000000000000000000000000000000000005f525260245ffd5b6011837f4e487b71000000000000000000000000000000000000000000000000000000005f525260245ffd5b6041857f4e487b71000000000000000000000000000000000000000000000000000000005f525260245ffd5b848a517f7caef348000000000000000000000000000000000000000000000000000000008152fd5b838201805461085889826116e6565b600385015410610821578861086c916116e6565b9055610587565b85517ebfc921000000000000000000000000000000000000000000000000000000008152fd5b8886517f1f19c11d000000000000000000000000000000000000000000000000000000008152fd5b8886517f3a23d825000000000000000000000000000000000000000000000000000000008152fd5b8886517f7fd13972000000000000000000000000000000000000000000000000000000008152fd5b5060328811610503565b8886517fb521771a000000000000000000000000000000000000000000000000000000008152fd5b8583517fab35696f000000000000000000000000000000000000000000000000000000008152fd5b91503461019b578260031936011261019b57610985611565565b9261098e61187e565b805190610100820182811067ffffffffffffffff821117610af65781600791610a9194935273ffffffffffffffffffffffffffffffffffffffff80971695868452602084015f81528285015f815260608601602435815260808701915f835260a08801934285528c60c08a01965f88528a0197600189528d5f5260036020525f209951167fffffffffffffffffffffffff00000000000000000000000000000000000000008a5416178955516001890155516002880155516003870155518786015551600585015551600684015551151591019060ff7fffffffffffffffffffffffffffffffffffffffffffffffffffffffffffffff0083541691151516179055565b80549068010000000000000000821015610aca57600182019055610ab4906115e5565b909283549160031b92831b921b19161790555f80f35b6041907f4e487b71000000000000000000000000000000000000000000000000000000005f525260245ffd5b6041847f4e487b71000000000000000000000000000000000000000000000000000000005f525260245ffd5b611647565b833461019b575f60031936011261019b5760209051600a8152f35b83903461019b57602060031936011261019b576101009273ffffffffffffffffffffffffffffffffffffffff80610b77611565565b165f526003602052835f2090815416936001820154926002830154906003840154908401549160058501549360ff6007600688015497015416968151998a5260208a01528801526060870152608086015260a085015260c0840152151590820152f35b833461019b575f60031936011261019b5760209073ffffffffffffffffffffffffffffffffffffffff5f54169051908152f35b50823461019b578060031936011261019b57610c27611565565b610c2f611588565b91610c386118ce565b73ffffffffffffffffffffffffffffffffffffffff80841691825f526020916003835260ff6007835f2001541615610eec5780851692835f52600291828252835f20865f528252835f20600981019360ff85541615610ec457610c9a8a6119c8565b610ca38a611a90565b98875f52818552865f20895f52855289875f209b610cc092611b2d565b90828c015490610ccf916117b4565b90610cd9916117cf565b946001809b015495606487029680880460641490151715610e98576127108097041315610e7057818301918254966032880288810460321489151715610e445790610d26910480986116d9565b938a5f5260038752885f209160ff82541681811015610e1757918e7faaa3e6a935674cc172e60bf40d5e74691d4b2192405f3843f12ac33dacadb73d9b9a999897969492610dba9694155f14610dff575080610d8892015492019182546116d9565b90555b7fffffffffffffffffffffffffffffffffffffffffffffffffffffffffffffff008154169055546009546116d9565b600955610dcd8483600554163390611c74565b80610de4575b505082519687528601523394a48055005b81610df89260055416906007541690611c74565b8880610dd3565b90610e1092015492019182546116d9565b9055610d8b565b5060218f7f4e487b71000000000000000000000000000000000000000000000000000000005f525260245ffd5b60118f7f4e487b71000000000000000000000000000000000000000000000000000000005f525260245ffd5b8b87517f05357ce0000000000000000000000000000000000000000000000000000000008152fd5b60118d7f4e487b71000000000000000000000000000000000000000000000000000000005f525260245ffd5b8a86517f556729af000000000000000000000000000000000000000000000000000000008152fd5b8682517fb521771a000000000000000000000000000000000000000000000000000000008152fd5b3461019b575f60031936011261019b57610f2c61187e565b5f73ffffffffffffffffffffffffffffffffffffffff81547fffffffffffffffffffffffff000000000000000000000000000000000000000081168355167f8be0079c531659141344cd1fd0a4f28419497f9722a3daafe3b4186f6b6457e08280a3005b833461019b575f60031936011261019b57602090516402540be4008152f35b833461019b578060031936011261019b57610fe2610fcb611565565b610fd3611588565b610fdc81611a90565b91611b2d565b82519182526020820152f35b833461019b575f60031936011261019b5760209060ff600b541690519015158152f35b833461019b575f60031936011261019b5760209051610e108152f35b50823461019b57602060031936011261019b578135915482101561019b5773ffffffffffffffffffffffffffffffffffffffff61106b6020936115e5565b92905490519260031b1c168152f35b91503461019b578260031936011261019b5761014092611098611565565b6110a0611588565b9073ffffffffffffffffffffffffffffffffffffffff8091165f526002602052825f2091165f52602052805f209060ff8254169360018301549360028401549060038501549085015460058601549160068701549360078801549660ff600960088b01549a015416996111158251809d6115ab565b60208c01528a01526060890152608088015260a087015260c08601528401526101008301521515610120820152f35b833461019b575f60031936011261019b576020906009549051908152f35b3461019b575f60031936011261019b5761117a61187e565b6111a9600a545f600a5573ffffffffffffffffffffffffffffffffffffffff8060055416906008541690611c74565b005b833461019b575f60031936011261019b5760209073ffffffffffffffffffffffffffffffffffffffff600854169051908152f35b833461019b575f60031936011261019b576020905160028152f35b50823461019b5760208060031936011261019b57611216611565565b9161121f6118ce565b60ff600b54166114465773ffffffffffffffffffffffffffffffffffffffff9384841694855f526003845260ff6007845f200154161561141e57335f5260028452825f20865f528452825f2091600983019160ff835416156113f657611284876119c8565b61129861129088611a90565b809833611b2d565b939094600181018054600a8102818104600a14821517156113ca57918893916127108e969404976112db896112d68c6112d6600289019a8b546117b4565b6117cf565b965f5260038d5260ff8c5f2094541690600282101561139e57509161133f9998979695939161131e9593155f1461138d57506001610d88915492019182546116d9565b60095561132d83600a546116e6565b600a555f8113611377575b50506116e6565b9282519485528401528201527fd24499e00e810c36b4c492ca81e4919ee9b8d8deb5563eb25da2cc26e3ca22f360603392a360018055005b61138691339060055416611c74565b8880611338565b91610e1091506002019182546116d9565b6021907f4e487b71000000000000000000000000000000000000000000000000000000005f525260245ffd5b6011877f4e487b71000000000000000000000000000000000000000000000000000000005f525260245ffd5b5083517f556729af000000000000000000000000000000000000000000000000000000008152fd5b5090517fb521771a000000000000000000000000000000000000000000000000000000008152fd5b8390517fab35696f000000000000000000000000000000000000000000000000000000008152fd5b833461019b575f60031936011261019b576020905160648152f35b833461019b575f60031936011261019b5760209073ffffffffffffffffffffffffffffffffffffffff600654169051908152f35b833461019b575f60031936011261019b57602090600a549051908152f35b833461019b578060031936011261019b576020906115086114fa611565565b611502611588565b906116f3565b9051908152f35b503461019b57602060031936011261019b573580151580910361019b5761153461187e565b60ff7fffffffffffffffffffffffffffffffffffffffffffffffffffffffffffffff00600b5416911617600b555f80f35b6004359073ffffffffffffffffffffffffffffffffffffffff8216820361019b57565b6024359073ffffffffffffffffffffffffffffffffffffffff8216820361019b57565b9060028210156115b85752565b7f4e487b71000000000000000000000000000000000000000000000000000000005f52602160045260245ffd5b60045481101561161a5760045f527f8a35acfbc15ff81a39ae7d344fd709f28e8600b4aa8c65c6b64bfe7fe36bd19b01905f90565b7f4e487b71000000000000000000000000000000000000000000000000000000005f52603260045260245ffd5b3461019b575f60031936011261019b57602060405160328152f35b8181029291811591840414171561167557565b7f4e487b71000000000000000000000000000000000000000000000000000000005f52601160045260245ffd5b81156116ac570490565b7f4e487b71000000000000000000000000000000000000000000000000000000005f52601260045260245ffd5b9190820391821161167557565b9190820180921161167557565b73ffffffffffffffffffffffffffffffffffffffff8091165f52600260205260405f2091165f5260205260405f2060ff600982015416156117af57600181015490606482028281046064148315171561167557612710900460ff82541660028110156115b85761178f5761178c9261178160036117776117869460028701546116d9565b9401548094611662565b6116a2565b906116d9565b90565b61178c9261178160036117776117a99460028701546116d9565b906116e6565b505f90565b9190915f838201938412911290801582169115161761167557565b81810392915f13801582851316918412161761167557565b610140810190811067ffffffffffffffff82111761180457604052565b7f4e487b71000000000000000000000000000000000000000000000000000000005f52604160045260245ffd5b90601f7fffffffffffffffffffffffffffffffffffffffffffffffffffffffffffffffe0910116810190811067ffffffffffffffff82111761180457604052565b60028210156115b85752565b73ffffffffffffffffffffffffffffffffffffffff5f5416330361189e57565b60246040517f118cdaa7000000000000000000000000000000000000000000000000000000008152336004820152fd5b6002600154146118df576002600155565b60046040517f3ee5aeb5000000000000000000000000000000000000000000000000000000008152fd5b81810292915f82127f800000000000000000000000000000000000000000000000000000000000000082141661167557818405149015171561167557565b81156116ac577fffffffffffffffffffffffffffffffffffffffffffffffffffffffffffffffff82147f8000000000000000000000000000000000000000000000000000000000000000821416611675570590565b7f80000000000000000000000000000000000000000000000000000000000000008114611675575f0390565b73ffffffffffffffffffffffffffffffffffffffff16805f52600360205260405f20600581016119f98154426116d9565b610e1091828210611a895783604093611a46611a3f60017f769084355bca6d68d2849f20818a61530e0c68371f43a43c0ca7edc0b3ee2750980154600285015490611ce9565b9485611909565b05611a56600683019182546117b4565b90555f831315611a7857600483915b01554290558151908152426020820152a2565b6004611a838461199c565b91611a65565b5050505050565b602073ffffffffffffffffffffffffffffffffffffffff602481600654169360405194859384927f41976e090000000000000000000000000000000000000000000000000000000084521660048301525afa908115611b22575f91611af3575090565b90506020813d602011611b1a575b81611b0e60209383611831565b8101031261019b575190565b3d9150611b01565b6040513d5f823e3d90fd5b9290919273ffffffffffffffffffffffffffffffffffffffff8091165f52600260205260405f20921691825f5260205260405f2060ff81541660028110156115b85715938415611c5857611b9d90611b98611b8d600385015480936117cf565b600185015490611909565b611947565b935b600282015493611bae8561199c565b808712611c4e575b50611c00611c079387936402540be400935f526003602052611be4600660405f2001546005840154906117cf565b9015611c2c575f811315611c23576001905b915b015490611662565b04936117b4565b5f811215611c1557505f9150565b808311611c1f5750565b9150565b5060015f611bf6565b5f811215611c4557611c3f60019161199c565b91611bf8565b5060015f611c3f565b9550611c00611bb6565b611c6e90611b98611b8d600385015492836117cf565b93611b9f565b9173ffffffffffffffffffffffffffffffffffffffff604051927fa9059cbb000000000000000000000000000000000000000000000000000000006020850152166024830152604482015260448152608081019181831067ffffffffffffffff84111761180457611ce792604052611d77565b565b90811580611d6f575b611d695780611d04611d0a92846117cf565b926116e6565b908115611d69576101f4918282029180830584149015171561167557611d2f91611947565b81811315611d3b575090565b9190507ffffffffffffffffffffffffffffffffffffffffffffffffffffffffffffffe0c808312611c1f5750565b50505f90565b508015611cf2565b5f73ffffffffffffffffffffffffffffffffffffffff8192169260208151910182855af13d15611e66573d67ffffffffffffffff811161180457611dfb9160405191611deb60207fffffffffffffffffffffffffffffffffffffffffffffffffffffffffffffffe0601f8401160184611831565b82523d5f602084013e5b83611e72565b8051908115159182611e42575b5050611e115750565b602490604051907f5274afe70000000000000000000000000000000000000000000000000000000082526004820152fd5b819250906020918101031261019b576020015180159081150361019b575f80611e08565b611dfb90606090611df5565b90611eb15750805115611e8757805190602001fd5b60046040517f1425ea42000000000000000000000000000000000000000000000000000000008152fd5b81511580611f09575b611ec2575090565b60249073ffffffffffffffffffffffffffffffffffffffff604051917f9996b315000000000000000000000000000000000000000000000000000000008352166004820152fd5b50803b15611eba56fea264697066735822122011b5fc9b3ca25dd89bb4d01afd057b9dbed1b0fa2fc0c18f31b54bf889d3c14164736f6c63430008190033","linkReferences":{}},"methodIdentifiers":{"BASIS_POINTS()":"e1f1c4a7","FUNDING_INTERVAL()":"55efb287","FUNDING_RATE_PRECISION()":"6be6026b","LIQUIDATION_FEE_RATE()":"7e4ad261","MAINTENANCE_MARGIN_RATE()":"29c47db9","MAX_FUNDING_RATE()":"f40f2a79","MAX_LEVERAGE()":"9b45ec97","MIN_LEVERAGE()":"34c1557d","PRECISION()":"aaf5eb68","TRADING_FEE_RATE()":"93663d5b","addMarket(address,uint256)":"a5f879ca","allMarkets(uint256)":"52d84d1e","closePosition(address)":"2f86e2dd","collateralToken()":"b2016bd4","feeRecipient()":"46904840","getLiquidationPrice(address,address)":"1867b480","getPosition(address,address)":"b33dc190","getPositionPnL(address,address)":"62d194a6","insuranceFund()":"b7902303","liquidate(address,address)":"86b9d81f","markets(address)":"8e8f294b","openPosition(address,uint8,uint256,uint256,uint256,uint256)":"a9e79c2d","owner()":"8da5cb5b","paused()":"5c975abb","positions(address,address)":"4bd21445","priceOracle()":"2630c12f","protocolFees()":"1ad8b03b","renounceOwnership()":"715018a6","setPaused(bool)":"16c38b3c","totalCollateral()":"4ac8eb5f","transferOwnership(address)":"f2fde38b","withdrawFees()":"476343ee"},"id":176}