{"abi":[{"type":"constructor","inputs":[{"name":"_collateralToken","type":"address","internalType":"address"},{"name":"_priceOracle","type":"address","internalType":"address"},{"name":"_insuranceFund","type":"address","internalType":"address"},{"name":"_feeRecipient","type":"address","internalType":"address"}],"stateMutability":"nonpayable"},{"type":"function","name":"BASIS_POINTS","inputs":[],"outputs":[{"name":"","type":"uint256","internalType":"uint256"}],"stateMutability":"view"},{"type":"function","name":"FUNDING_INTERVAL","inputs":[],"outputs":[{"name":"","type":"uint256","internalType":"uint256"}],"stateMutability":"view"},{"type":"function","name":"FUNDING_RATE_PRECISION","inputs":[],"outputs":[{"name":"","type":"uint256","internalType":"uint256"}],"stateMutability":"view"},{"type":"function","name":"LIQUIDATION_FEE_RATE","inputs":[],"outputs":[{"name":"","type":"uint256","internalType":"uint256"}],"stateMutability":"view"},{"type":"function","name":"MAINTENANCE_MARGIN_RATE","inputs":[],"outputs":[{"name":"","type":"uint256","internalType":"uint256"}],"stateMutability":"view"},{"type":"function","name":"MAX_FUNDING_RATE","inputs":[],"outputs":[{"name":"","type":"uint256","internalType":"uint256"}],"stateMutability":"view"},{"type":"function","name":"MAX_LEVERAGE","inputs":[],"outputs":[{"name":"","type":"uint256","internalType":"uint256"}],"stateMutability":"view"},{"type":"function","name":"MIN_LEVERAGE","inputs":[],"outputs":[{"name":"","type":"uint256","internalType":"uint256"}],"stateMutability":"view"},{"type":"function","name":"PRECISION","inputs":[],"outputs":[{"name":"","type":"uint256","internalType":"uint256"}],"stateMutability":"view"},{"type":"function","name":"TRADING_FEE_RATE","inputs":[],"outputs":[{"name":"","type":"uint256","internalType":"uint256"}],"stateMutability":"view"},{"type":"function","name":"addMarket","inputs":[{"name":"indexToken","type":"address","internalType":"address"},{"name":"maxOpenInterest","type":"uint256","internalType":"uint256"}],"outputs":[],"stateMutability":"nonpayable"},{"type":"function","name":"allMarkets","inputs":[{"name":"","type":"uint256","internalType":"uint256"}],"outputs":[{"name":"","type":"address","internalType":"address"}],"stateMutability":"view"},{"type":"function","name":"closePosition","inputs":[{"name":"market","type":"address","internalType":"address"}],"outputs":[],"stateMutability":"nonpayable"},{"type":"function","name":"collateralToken","inputs":[],"outputs":[{"name":"","type":"address","internalType":"address"}],"stateMutability":"view"},{"type":"function","name":"feeRecipient","inputs":[],"outputs":[{"name":"","type":"address","internalType":"address"}],"stateMutability":"view"},{"type":"function","name":"getLiquidationPrice","inputs":[{"name":"user","type":"address","internalType":"address"},{"name":"market","type":"address","internalType":"address"}],"outputs":[{"name":"liquidationPrice","type":"uint256","internalType":"uint256"}],"stateMutability":"view"},{"type":"function","name":"getPosition","inputs":[{"name":"user","type":"address","internalType":"address"},{"name":"market","type":"address","internalType":"address"}],"outputs":[{"name":"","type":"tuple","internalType":"struct AndePerpetuals.Position","components":[{"name":"side","type":"uint8","internalType":"enum AndePerpetuals.PositionSide"},{"name":"size","type":"uint256","internalType":"uint256"},{"name":"collateral","type":"uint256","internalType":"uint256"},{"name":"entryPrice","type":"uint256","internalType":"uint256"},{"name":"leverage","type":"uint256","internalType":"uint256"},{"name":"lastFundingIndex","type":"int256","internalType":"int256"},{"name":"openTimestamp","type":"uint256","internalType":"uint256"},{"name":"takeProfitPrice","type":"uint256","internalType":"uint256"},{"name":"stopLossPrice","type":"uint256","internalType":"uint256"},{"name":"isOpen","type":"bool","internalType":"bool"}]}],"stateMutability":"view"},{"type":"function","name":"getPositionPnL","inputs":[{"name":"user","type":"address","internalType":"address"},{"name":"market","type":"address","internalType":"address"}],"outputs":[{"name":"pnl","type":"int256","internalType":"int256"},{"name":"fundingFee","type":"uint256","internalType":"uint256"}],"stateMutability":"view"},{"type":"function","name":"insuranceFund","inputs":[],"outputs":[{"name":"","type":"address","internalType":"address"}],"stateMutability":"view"},{"type":"function","name":"liquidate","inputs":[{"name":"user","type":"address","internalType":"address"},{"name":"market","type":"address","internalType":"address"}],"outputs":[],"stateMutability":"nonpayable"},{"type":"function","name":"markets","inputs":[{"name":"","type":"address","internalType":"address"}],"outputs":[{"name":"indexToken","type":"address","internalType":"address"},{"name":"longOpenInterest","type":"uint256","internalType":"uint256"},{"name":"shortOpenInterest","type":"uint256","internalType":"uint256"},{"name":"maxOpenInterest","type":"uint256","internalType":"uint256"},{"name":"fundingRatePerHour","type":"uint256","internalType":"uint256"},{"name":"lastFundingTime","type":"uint256","internalType":"uint256"},{"name":"cumulativeFundingRate","type":"int256","internalType":"int256"},{"name":"isActive","type":"bool","internalType":"bool"}],"stateMutability":"view"},{"type":"function","name":"openPosition","inputs":[{"name":"market","type":"address","internalType":"address"},{"name":"side","type":"uint8","internalType":"enum AndePerpetuals.PositionSide"},{"name":"collateralAmount","type":"uint256","internalType":"uint256"},{"name":"leverage","type":"uint256","internalType":"uint256"},{"name":"takeProfitPrice","type":"uint256","internalType":"uint256"},{"name":"stopLossPrice","type":"uint256","internalType":"uint256"}],"outputs":[],"stateMutability":"nonpayable"},{"type":"function","name":"owner","inputs":[],"outputs":[{"name":"","type":"address","internalType":"address"}],"stateMutability":"view"},{"type":"function","name":"paused","inputs":[],"outputs":[{"name":"","type":"bool","internalType":"bool"}],"stateMutability":"view"},{"type":"function","name":"positions","inputs":[{"name":"","type":"address","internalType":"address"},{"name":"","type":"address","internalType":"address"}],"outputs":[{"name":"side","type":"uint8","internalType":"enum AndePerpetuals.PositionSide"},{"name":"size","type":"uint256","internalType":"uint256"},{"name":"collateral","type":"uint256","internalType":"uint256"},{"name":"entryPrice","type":"uint256","internalType":"uint256"},{"name":"leverage","type":"uint256","internalType":"uint256"},{"name":"lastFundingIndex","type":"int256","internalType":"int256"},{"name":"openTimestamp","type":"uint256","internalType":"uint256"},{"name":"takeProfitPrice","type":"uint256","internalType":"uint256"},{"name":"stopLossPrice","type":"uint256","internalType":"uint256"},{"name":"isOpen","type":"bool","internalType":"bool"}],"stateMutability":"view"},{"type":"function","name":"priceOracle","inputs":[],"outputs":[{"name":"","type":"address","internalType":"address"}],"stateMutability":"view"},{"type":"function","name":"protocolFees","inputs":[],"outputs":[{"name":"","type":"uint256","internalType":"uint256"}],"stateMutability":"view"},{"type":"function","name":"renounceOwnership","inputs":[],"outputs":[],"stateMutability":"nonpayable"},{"type":"function","name":"setPaused","inputs":[{"name":"_paused","type":"bool","internalType":"bool"}],"outputs":[],"stateMutability":"nonpayable"},{"type":"function","name":"totalCollateral","inputs":[],"outputs":[{"name":"","type":"uint256","internalType":"uint256"}],"stateMutability":"view"},{"type":"function","name":"transferOwnership","inputs":[{"name":"newOwner","type":"address","internalType":"address"}],"outputs":[],"stateMutability":"nonpayable"},{"type":"function","name":"withdrawFees","inputs":[],"outputs":[],"stateMutability":"nonpayable"},{"type":"event","name":"CollateralDeposited","inputs":[{"name":"user","type":"address","indexed":true,"internalType":"address"},{"name":"amount","type":"uint256","indexed":false,"internalType":"uint256"}],"anonymous":false},{"type":"event","name":"CollateralWithdrawn","inputs":[{"name":"user","type":"address","indexed":true,"internalType":"address"},{"name":"amount","type":"uint256","indexed":false,"internalType":"uint256"}],"anonymous":false},{"type":"event","name":"FundingRateUpdated","inputs":[{"name":"market","type":"address","indexed":true,"internalType":"address"},{"name":"fundingRate","type":"int256","indexed":false,"internalType":"int256"},{"name":"timestamp","type":"uint256","indexed":false,"internalType":"uint256"}],"anonymous":false},{"type":"event","name":"OwnershipTransferred","inputs":[{"name":"previousOwner","type":"address","indexed":true,"internalType":"address"},{"name":"newOwner","type":"address","indexed":true,"internalType":"address"}],"anonymous":false},{"type":"event","name":"PositionClosed","inputs":[{"name":"user","type":"address","indexed":true,"internalType":"address"},{"name":"market","type":"address","indexed":true,"internalType":"address"},{"name":"exitPrice","type":"uint256","indexed":false,"internalType":"uint256"},{"name":"pnl","type":"int256","indexed":false,"internalType":"int256"},{"name":"feesPaid","type":"uint256","indexed":false,"internalType":"uint256"}],"anonymous":false},{"type":"event","name":"PositionLiquidated","inputs":[{"name":"user","type":"address","indexed":true,"internalType":"address"},{"name":"market","type":"address","indexed":true,"internalType":"address"},{"name":"liquidator","type":"address","indexed":true,"internalType":"address"},{"name":"liquidationPrice","type":"uint256","indexed":false,"internalType":"uint256"},{"name":"liquidationFee","type":"uint256","indexed":false,"internalType":"uint256"}],"anonymous":false},{"type":"event","name":"PositionOpened","inputs":[{"name":"user","type":"address","indexed":true,"internalType":"address"},{"name":"market","type":"address","indexed":true,"internalType":"address"},{"name":"side","type":"uint8","indexed":false,"internalType":"enum AndePerpetuals.PositionSide"},{"name":"size","type":"uint256","indexed":false,"internalType":"uint256"},{"name":"collateral","type":"uint256","indexed":false,"internalType":"uint256"},{"name":"leverage","type":"uint256","indexed":false,"internalType":"uint256"},{"name":"entryPrice","type":"uint256","indexed":false,"internalType":"uint256"}],"anonymous":false},{"type":"error","name":"AddressEmptyCode","inputs":[{"name":"target","type":"address","internalType":"address"}]},{"type":"error","name":"AddressInsufficientBalance","inputs":[{"name":"account","type":"address","internalType":"address"}]},{"type":"error","name":"ContractPaused","inputs":[]},{"type":"error","name":"FailedInnerCall","inputs":[]},{"type":"error","name":"InsufficientCollateral","inputs":[]},{"type":"error","name":"InvalidLeverage","inputs":[]},{"type":"error","name":"InvalidPrice","inputs":[]},{"type":"error","name":"LiquidationNotAllowed","inputs":[]},{"type":"error","name":"MarketNotActive","inputs":[]},{"type":"error","name":"MaxOpenInterestReached","inputs":[]},{"type":"error","name":"NoOpenPosition","inputs":[]},{"type":"error","name":"OwnableInvalidOwner","inputs":[{"name":"owner","type":"address","internalType":"address"}]},{"type":"error","name":"OwnableUnauthorizedAccount","inputs":[{"name":"account","type":"address","internalType":"address"}]},{"type":"error","name":"PositionAlreadyOpen","inputs":[]},{"type":"error","name":"PositionTooSmall","inputs":[]},{"type":"error","name":"ReentrancyGuardReentrantCall","inputs":[]},{"type":"error","name":"SafeERC20FailedOperation","inputs":[{"name":"token","type":"address","internalType":"address"}]}],"bytecode":{"object":"0x60803461010d57601f611a0838819003918201601f19168301916001600160401b038311848410176101115780849260809460405283398101031261010d5761004781610125565b61005360208301610125565b9161006c606061006560408401610125565b9201610125565b33156100f5575f549360018060a01b03928380928160018060a01b03199733898b16175f5560405199823391167f8be0079c531659141344cd1fd0a4f28419497f9722a3daafe3b4186f6b6457e05f80a360018055168760055416176005551685600654161760065516836007541617600755169060085416176008556118ce908161013a8239f35b604051631e4fbdf760e01b81525f6004820152602490fd5b5f80fd5b634e487b7160e01b5f52604160045260245ffd5b51906001600160a01b038216820361010d5756fe604060808152600480361015610013575f80fd5b60e0905f35821c91826316c38b3c146111245782631867b480146110f05782631ad8b03b146110d25782632630c12f146110aa57826329c47db91461108f5782632f86e2dd14610ea257826334c1557d14610e875782634690484014610e5f578263476343ee14610e245782634ac8eb5f14610e065782634bd2144514610d4a57826352d84d1e14610d0b57826355efb28714610cef5782635c975abb14610ccc57826362d194a614610c8d5782636be6026b14610c6e578263715018a614610c175782637e4ad261146108fe57826386b9d81f146109d05782638da5cb5b146109a95782638e8f294b1461091e57826393663d5b146109035782639b45ec97146108fe578263a5f879ca146107b7578263a9e79c2d14610427578263aaf5eb6814610405578263b2016bd4146103dd578263b33dc1901461027057508163b790230314610248578163e1f1c4a71461022c578163f2fde38b1461019f575063f40f2a7914610180575f80fd5b3461019b575f36600319011261019b57602090516101f48152f35b5f80fd5b90503461019b57602036600319011261019b576101ba61115b565b906101c36113b0565b6001600160a01b039182169283156102165750505f54826bffffffffffffffffffffffff60a01b8216175f55167f8be0079c531659141344cd1fd0a4f28419497f9722a3daafe3b4186f6b6457e05f80a3005b905f6024925191631e4fbdf760e01b8352820152fd5b823461019b575f36600319011261019b57602090516127108152f35b823461019b575f36600319011261019b5760075490516001600160a01b039091168152602090f35b91503461019b578260031936011261019b5761028a61115b565b610292611171565b9284519361029f85611351565b5f8552602085015f90528585015f9052606085015f9052608085015f905260a085015f905260c085015f90528185015f9052610100928386015f90526101208096015f9052600160a01b600190038091165f526002602052865f2091165f52602052845f209085519361031185611351565b825460ff1661032090866113a4565b60018301549660208601978852600284015491818701928352600385015490606088019182528501546080880190815260058601549160a0890192835260068701549360c08a01948552600788015495878b019687526008890154988a8c01998a526009015460ff169a8c81019b15158c5282519d8e809251906103a391611187565b51906020015251908c01525160608b01525160808a01525160a08901525160c0880152519086015251908401525115159082015261014090f35b833461019b575f36600319011261019b5760055490516001600160a01b039091168152602090f35b833461019b575f36600319011261019b5760209051670de0b6b3a76400008152f35b91503461019b5760c036600319011261019b5761044261115b565b602435926002948585101561019b5760443591606435936104616113db565b60ff600b54166107a75760018060a01b039182821698895f526020926003845260ff6007875f200154161561079757818810801561078d575b61077d57861561076d57335f52818452855f208b5f52845260ff6009875f2001541661075d57806104cd6104d29261144a565b611507565b978815610750576104e3888861120c565b948b5f5260038552865f20908b155f1461072657600182018054610507898261125e565b600385015410610716578861051b9161125e565b90555b60055488516323b872dd60e01b8882015233602482015230604482015260648082018c90528152911660a0820167ffffffffffffffff81118382101761070357895261056a919061177c565b6105768860095461125e565b600955600a8602868104600a14871517156106f0579385938d938b8d8f98956127108d97049d8e6105a691611251565b9d600a54906105b49161125e565b600a5560060154938651996105c88b611351565b6105d2908b6113a4565b8d898b018d8152888c0191825260608c0193845260808c0194855260a08c0196875260c08c01974289528c01986084358a526101008d019a8d60a4358d52610120019c60018e52335f52858152825f20915f52525f209b51838110156106dd57918c9b999795939160099b9997959360ff6106959f81199054169116178d555160018d015551908b01555160038a0155519088015551600587015551600686015551600785015551600884015551151591019060ff801983541691151516179055565b6106a183518098611187565b860152840152606083015260808201527fdfc9af90c4bd6bbcc8172ca2c1a6a7105c90496c061528b4d81b576f5e75f36d60a03392a360018055005b602187634e487b7160e01b5f525260245ffd5b601183634e487b7160e01b5f525260245ffd5b604185634e487b7160e01b5f525260245ffd5b8951630f95de6960e31b81528590fd5b8382018054610735898261125e565b60038501541061071657886107499161125e565b905561051e565b855162bfc92160e01b8152fd5b8551631f19c11d60e01b81528990fd5b8551633a23d82560e01b81528990fd5b8551633fe89cb960e11b81528990fd5b506032881161049a565b8551635a90bb8d60e11b81528990fd5b825163ab35696f60e01b81528690fd5b91503461019b578260031936011261019b576107d161115b565b926107da6113b0565b805190610100820182811067ffffffffffffffff8211176108eb578160079161089f94935260018060a01b0380971695868452602084015f81528285015f815260608601602435815260808701915f835260a08801934285528c60c08a01965f88528a0197600189528d5f5260036020525f209951166bffffffffffffffffffffffff60a01b8a5416178955516001890155516002880155516003870155518786015551600585015551600684015551151591019060ff801983541691151516179055565b805490680100000000000000008210156108d8576001820190556108c2906111a8565b909283549160031b92831b921b19161790555f80f35b604190634e487b7160e01b5f525260245ffd5b604184634e487b7160e01b5f525260245ffd5b6111f1565b833461019b575f36600319011261019b5760209051600a8152f35b83903461019b57602036600319011261019b57610100926001600160a01b038061094661115b565b165f526003602052835f2090815416936001820154926002830154906003840154908401549160058501549360ff6007600688015497015416968151998a5260208a01528801526060870152608086015260a085015260c0840152151590820152f35b833461019b575f36600319011261019b575f5490516001600160a01b039091168152602090f35b50823461019b578060031936011261019b576109ea61115b565b6109f2611171565b916109fb6113db565b60018060a01b0380841691825f526020916003835260ff6007835f2001541615610c075780851692835f52600291828252835f20865f528252835f20600981019360ff85541615610bf757610a4f8a61144a565b610a588a611507565b98875f52818552865f20895f52855289875f209b610a7592611580565b90828c015490610a849161131e565b90610a8e91611339565b946001809b015495606487029680880460641490151715610be4576127108097041315610bd557818301918254966032880288810460321489151715610bc25790610adb91048098611251565b938a5f5260038752885f209160ff82541681811015610bae57918e7faaa3e6a935674cc172e60bf40d5e74691d4b2192405f3843f12ac33dacadb73d9b9a999897969492610b519694155f14610b96575080610b3d9201549201918254611251565b90555b805460ff1916905554600954611251565b600955610b6484836005541633906116b9565b80610b7b575b505082519687528601523394a48055005b81610b8f92600554169060075416906116b9565b8880610b6a565b90610ba79201549201918254611251565b9055610b40565b5060218f634e487b7160e01b5f525260245ffd5b60118f634e487b7160e01b5f525260245ffd5b86516229abe760e51b81528c90fd5b60118d634e487b7160e01b5f525260245ffd5b855163556729af60e01b81528b90fd5b8151635a90bb8d60e11b81528790fd5b3461019b575f36600319011261019b57610c2f6113b0565b5f80546001600160a01b0319811682556001600160a01b03167f8be0079c531659141344cd1fd0a4f28419497f9722a3daafe3b4186f6b6457e08280a3005b833461019b575f36600319011261019b57602090516402540be4008152f35b833461019b578060031936011261019b57610cc0610ca961115b565b610cb1611171565b610cba81611507565b91611580565b82519182526020820152f35b833461019b575f36600319011261019b5760209060ff600b541690519015158152f35b833461019b575f36600319011261019b5760209051610e108152f35b50823461019b57602036600319011261019b578135915482101561019b57610d346020926111a8565b905491519160018060a01b039160031b1c168152f35b91503461019b578260031936011261019b5761014092610d6861115b565b610d70611171565b9060018060a01b038091165f526002602052825f2091165f52602052805f209060ff8254169360018301549360028401549060038501549085015460058601549160068701549360078801549660ff600960088b01549a01541699610dd78251809d611187565b60208c01528a01526060890152608088015260a087015260c08601528401526101008301521515610120820152f35b833461019b575f36600319011261019b576020906009549051908152f35b3461019b575f36600319011261019b57610e3c6113b0565b610e5d600a545f600a5560018060a01b0380600554169060085416906116b9565b005b833461019b575f36600319011261019b5760085490516001600160a01b039091168152602090f35b833461019b575f36600319011261019b576020905160028152f35b50823461019b5760208060031936011261019b57610ebe61115b565b91610ec76113db565b60ff600b5416611080576001600160a01b038381165f81815260038552839020600701549095919060ff161561107157335f5260028452825f20865f528452825f2091600983019160ff8354161561106257610f228761144a565b610f36610f2e88611507565b809833611580565b939094600181018054600a8102818104600a148215171561104f57918893916127108e96940497610f7989610f748c610f74600289019a8b5461131e565b611339565b965f5260038d5260ff8c5f2094541690600282101561103c575091610fdd99989796959391610fbc9593155f1461102b57506001610b3d91549201918254611251565b600955610fcb83600a5461125e565b600a555f8113611015575b505061125e565b9282519485528401528201527fd24499e00e810c36b4c492ca81e4919ee9b8d8deb5563eb25da2cc26e3ca22f360603392a360018055005b611024913390600554166116b9565b8880610fd6565b91610ba79150600201918254611251565b602190634e487b7160e01b5f525260245ffd5b601187634e487b7160e01b5f525260245ffd5b50835163556729af60e01b8152fd5b509051635a90bb8d60e11b8152fd5b5163ab35696f60e01b81528390fd5b833461019b575f36600319011261019b576020905160648152f35b833461019b575f36600319011261019b5760065490516001600160a01b039091168152602090f35b833461019b575f36600319011261019b57602090600a549051908152f35b833461019b578060031936011261019b5760209061111d61110f61115b565b611117611171565b9061126b565b9051908152f35b503461019b57602036600319011261019b573580151580910361019b576111496113b0565b60ff8019600b5416911617600b555f80f35b600435906001600160a01b038216820361019b57565b602435906001600160a01b038216820361019b57565b9060028210156111945752565b634e487b7160e01b5f52602160045260245ffd5b6004548110156111dd5760045f527f8a35acfbc15ff81a39ae7d344fd709f28e8600b4aa8c65c6b64bfe7fe36bd19b01905f90565b634e487b7160e01b5f52603260045260245ffd5b3461019b575f36600319011261019b57602060405160328152f35b8181029291811591840414171561121f57565b634e487b7160e01b5f52601160045260245ffd5b811561123d570490565b634e487b7160e01b5f52601260045260245ffd5b9190820391821161121f57565b9190820180921161121f57565b60018060a01b038091165f52600260205260405f2091165f5260205260405f2060ff6009820154161561131957600181015490606482028281046064148315171561121f57612710900460ff8254166002811015611194576112f9576112f6926112eb60036112e16112f0946002870154611251565b940154809461120c565b611233565b90611251565b90565b6112f6926112eb60036112e1611313946002870154611251565b9061125e565b505f90565b9190915f838201938412911290801582169115161761121f57565b81810392915f13801582851316918412161761121f57565b610140810190811067ffffffffffffffff82111761136e57604052565b634e487b7160e01b5f52604160045260245ffd5b90601f8019910116810190811067ffffffffffffffff82111761136e57604052565b60028210156111945752565b5f546001600160a01b031633036113c357565b60405163118cdaa760e01b8152336004820152602490fd5b6002600154146113ec576002600155565b604051633ee5aeb560e01b8152600490fd5b81810292915f8212600160ff1b82141661121f57818405149015171561121f57565b811561123d57600160ff1b81145f1983141661121f570590565b600160ff1b811461121f575f0390565b6001600160a01b03165f8181526003602052604090206005810180546114709042611251565b610e109182821061150057836040936114bd6114b660017f769084355bca6d68d2849f20818a61530e0c68371f43a43c0ca7edc0b3ee275098015460028501549061170b565b94856113fe565b056114cd6006830191825461131e565b90555f8313156114ef57600483915b01554290558151908152426020820152a2565b60046114fa8461143a565b916114dc565b5050505050565b6006546040516341976e0960e01b81526001600160a01b0392831660048201529160209183916024918391165afa908115611575575f91611546575090565b90506020813d60201161156d575b8161156160209383611382565b8101031261019b575190565b3d9150611554565b6040513d5f823e3d90fd5b9290919260018060a01b038091165f52600260205260405f20921691825f5260205260405f2060ff8154166002811015611194571593841561169d576115e2906115dd6115d260038501548093611339565b6001850154906113fe565b611420565b935b6002820154936115f38561143a565b808712611693575b5061164561164c9387936402540be400935f526003602052611629600660405f200154600584015490611339565b9015611671575f811315611668576001905b915b01549061120c565b049361131e565b5f81121561165a57505f9150565b8083116116645750565b9150565b5060015f61163b565b5f81121561168a5761168460019161143a565b9161163d565b5060015f611684565b95506116456115fb565b6116b3906115dd6115d260038501549283611339565b936115e4565b60405163a9059cbb60e01b60208201526001600160a01b039092166024830152604480830193909352918152608081019167ffffffffffffffff83118284101761136e576117099260405261177c565b565b90811580611774575b61176e578061172661172c9284611339565b9261125e565b90811561176e576101f4918282029180830584149015171561121f5761175191611420565b8181131561175d575090565b9190506101f3198083126116645750565b50505f90565b508015611714565b81516001600160a01b03909116915f91829160200182855af13d15611829573d67ffffffffffffffff811161136e576117d791604051916117c76020601f19601f8401160184611382565b82523d5f602084013e5b83611835565b8051908115159182611805575b50506117ed5750565b60249060405190635274afe760e01b82526004820152fd5b819250906020918101031261019b576020015180159081150361019b575f806117e4565b6117d7906060906117d1565b9061185c575080511561184a57805190602001fd5b604051630a12f52160e11b8152600490fd5b8151158061188f575b61186d575090565b604051639996b31560e01b81526001600160a01b039091166004820152602490fd5b50803b1561186556fea2646970667358221220beb08fcc76a977dbfea06cbd968dcd3f084093394eb39b04b26972bad3df00b764736f6c63430008190033","linkReferences":{}},"methodIdentifiers":{"BASIS_POINTS()":"e1f1c4a7","FUNDING_INTERVAL()":"55efb287","FUNDING_RATE_PRECISION()":"6be6026b","LIQUIDATION_FEE_RATE()":"7e4ad261","MAINTENANCE_MARGIN_RATE()":"29c47db9","MAX_FUNDING_RATE()":"f40f2a79","MAX_LEVERAGE()":"9b45ec97","MIN_LEVERAGE()":"34c1557d","PRECISION()":"aaf5eb68","TRADING_FEE_RATE()":"93663d5b","addMarket(address,uint256)":"a5f879ca","allMarkets(uint256)":"52d84d1e","closePosition(address)":"2f86e2dd","collateralToken()":"b2016bd4","feeRecipient()":"46904840","getLiquidationPrice(address,address)":"1867b480","getPosition(address,address)":"b33dc190","getPositionPnL(address,address)":"62d194a6","insuranceFund()":"b7902303","liquidate(address,address)":"86b9d81f","markets(address)":"8e8f294b","openPosition(address,uint8,uint256,uint256,uint256,uint256)":"a9e79c2d","owner()":"8da5cb5b","paused()":"5c975abb","positions(address,address)":"4bd21445","priceOracle()":"2630c12f","protocolFees()":"1ad8b03b","renounceOwnership()":"715018a6","setPaused(bool)":"16c38b3c","totalCollateral()":"4ac8eb5f","transferOwnership(address)":"f2fde38b","withdrawFees()":"476343ee"},"id":176}