{"abi":[{"type":"constructor","inputs":[{"name":"_pythContract","type":"address","internalType":"address"}],"stateMutability":"nonpayable"},{"type":"function","name":"CIRCUIT_BREAKER_THRESHOLD","inputs":[],"outputs":[{"name":"","type":"uint256","internalType":"uint256"}],"stateMutability":"view"},{"type":"function","name":"MAX_PRICE_AGE","inputs":[],"outputs":[{"name":"","type":"uint256","internalType":"uint256"}],"stateMutability":"view"},{"type":"function","name":"MAX_PRICE_DEVIATION","inputs":[],"outputs":[{"name":"","type":"uint256","internalType":"uint256"}],"stateMutability":"view"},{"type":"function","name":"PRICE_PRECISION","inputs":[],"outputs":[{"name":"","type":"uint256","internalType":"uint256"}],"stateMutability":"view"},{"type":"function","name":"chainlinkRegistry","inputs":[],"outputs":[{"name":"","type":"address","internalType":"address"}],"stateMutability":"view"},{"type":"function","name":"configureOracle","inputs":[{"name":"asset","type":"address","internalType":"address"},{"name":"chainlinkFeed","type":"address","internalType":"address"},{"name":"pythPriceId","type":"bytes32","internalType":"bytes32"},{"name":"twapPool","type":"address","internalType":"address"},{"name":"heartbeat","type":"uint256","internalType":"uint256"}],"outputs":[],"stateMutability":"nonpayable"},{"type":"function","name":"emergencyMode","inputs":[],"outputs":[{"name":"","type":"bool","internalType":"bool"}],"stateMutability":"view"},{"type":"function","name":"getOracleConfig","inputs":[{"name":"asset","type":"address","internalType":"address"}],"outputs":[{"name":"","type":"tuple","internalType":"struct AndeOracleAggregator.OracleConfig","components":[{"name":"chainlinkFeed","type":"address","internalType":"address"},{"name":"pythPriceId","type":"bytes32","internalType":"bytes32"},{"name":"twapPool","type":"address","internalType":"address"},{"name":"enabled","type":"bool","internalType":"bool"},{"name":"heartbeat","type":"uint256","internalType":"uint256"}]}],"stateMutability":"view"},{"type":"function","name":"getPrice","inputs":[{"name":"asset","type":"address","internalType":"address"}],"outputs":[{"name":"price","type":"uint256","internalType":"uint256"}],"stateMutability":"view"},{"type":"function","name":"getPriceWithMetadata","inputs":[{"name":"asset","type":"address","internalType":"address"}],"outputs":[{"name":"price","type":"uint256","internalType":"uint256"},{"name":"timestamp","type":"uint256","internalType":"uint256"},{"name":"source","type":"uint8","internalType":"enum AndeOracleAggregator.OracleSource"}],"stateMutability":"view"},{"type":"function","name":"isCircuitBroken","inputs":[{"name":"","type":"address","internalType":"address"}],"outputs":[{"name":"","type":"bool","internalType":"bool"}],"stateMutability":"view"},{"type":"function","name":"isPriceFresh","inputs":[{"name":"asset","type":"address","internalType":"address"}],"outputs":[{"name":"","type":"bool","internalType":"bool"}],"stateMutability":"view"},{"type":"function","name":"latestPrices","inputs":[{"name":"","type":"address","internalType":"address"}],"outputs":[{"name":"price","type":"uint256","internalType":"uint256"},{"name":"timestamp","type":"uint256","internalType":"uint256"},{"name":"source","type":"uint8","internalType":"enum AndeOracleAggregator.OracleSource"},{"name":"confidence","type":"uint256","internalType":"uint256"}],"stateMutability":"view"},{"type":"function","name":"oracleConfigs","inputs":[{"name":"","type":"address","internalType":"address"}],"outputs":[{"name":"chainlinkFeed","type":"address","internalType":"address"},{"name":"pythPriceId","type":"bytes32","internalType":"bytes32"},{"name":"twapPool","type":"address","internalType":"address"},{"name":"enabled","type":"bool","internalType":"bool"},{"name":"heartbeat","type":"uint256","internalType":"uint256"}],"stateMutability":"view"},{"type":"function","name":"owner","inputs":[],"outputs":[{"name":"","type":"address","internalType":"address"}],"stateMutability":"view"},{"type":"function","name":"pythContract","inputs":[],"outputs":[{"name":"","type":"address","internalType":"address"}],"stateMutability":"view"},{"type":"function","name":"renounceOwnership","inputs":[],"outputs":[],"stateMutability":"nonpayable"},{"type":"function","name":"resetCircuitBreaker","inputs":[{"name":"asset","type":"address","internalType":"address"}],"outputs":[],"stateMutability":"nonpayable"},{"type":"function","name":"setEmergencyMode","inputs":[{"name":"active","type":"bool","internalType":"bool"}],"outputs":[],"stateMutability":"nonpayable"},{"type":"function","name":"setManualPrice","inputs":[{"name":"asset","type":"address","internalType":"address"},{"name":"price","type":"uint256","internalType":"uint256"}],"outputs":[],"stateMutability":"nonpayable"},{"type":"function","name":"setPythContract","inputs":[{"name":"_pythContract","type":"address","internalType":"address"}],"outputs":[],"stateMutability":"nonpayable"},{"type":"function","name":"transferOwnership","inputs":[{"name":"newOwner","type":"address","internalType":"address"}],"outputs":[],"stateMutability":"nonpayable"},{"type":"function","name":"updatePrice","inputs":[{"name":"asset","type":"address","internalType":"address"}],"outputs":[],"stateMutability":"nonpayable"},{"type":"event","name":"CircuitBreakerTriggered","inputs":[{"name":"asset","type":"address","indexed":true,"internalType":"address"},{"name":"oldPrice","type":"uint256","indexed":false,"internalType":"uint256"},{"name":"newPrice","type":"uint256","indexed":false,"internalType":"uint256"}],"anonymous":false},{"type":"event","name":"EmergencyModeActivated","inputs":[{"name":"active","type":"bool","indexed":false,"internalType":"bool"}],"anonymous":false},{"type":"event","name":"OracleConfigured","inputs":[{"name":"asset","type":"address","indexed":true,"internalType":"address"},{"name":"chainlinkFeed","type":"address","indexed":false,"internalType":"address"},{"name":"pythId","type":"bytes32","indexed":false,"internalType":"bytes32"}],"anonymous":false},{"type":"event","name":"OwnershipTransferred","inputs":[{"name":"previousOwner","type":"address","indexed":true,"internalType":"address"},{"name":"newOwner","type":"address","indexed":true,"internalType":"address"}],"anonymous":false},{"type":"event","name":"PriceUpdated","inputs":[{"name":"asset","type":"address","indexed":true,"internalType":"address"},{"name":"price","type":"uint256","indexed":false,"internalType":"uint256"},{"name":"source","type":"uint8","indexed":false,"internalType":"enum AndeOracleAggregator.OracleSource"},{"name":"timestamp","type":"uint256","indexed":false,"internalType":"uint256"}],"anonymous":false},{"type":"error","name":"CircuitBreakerActive","inputs":[]},{"type":"error","name":"InvalidPrice","inputs":[]},{"type":"error","name":"OracleNotConfigured","inputs":[]},{"type":"error","name":"OwnableInvalidOwner","inputs":[{"name":"owner","type":"address","internalType":"address"}]},{"type":"error","name":"OwnableUnauthorizedAccount","inputs":[{"name":"account","type":"address","internalType":"address"}]},{"type":"error","name":"PriceDeviationTooHigh","inputs":[]},{"type":"error","name":"PriceNotAvailable","inputs":[]},{"type":"error","name":"PriceStale","inputs":[]},{"type":"error","name":"ReentrancyGuardReentrantCall","inputs":[]}],"bytecode":{"object":"0x60803460c157601f61191438819003918201601f19168301916001600160401b0383118484101760c55780849260209460405283398101031260c157516001600160a01b03908181169081900360c157331560a9575f5460018060a01b03199033828216175f55604051933391167f8be0079c531659141344cd1fd0a4f28419497f9722a3daafe3b4186f6b6457e05f80a360018055600554161760055561183a90816100da8239f35b604051631e4fbdf760e01b81525f6004820152602490fd5b5f80fd5b634e487b7160e01b5f52604160045260245ffdfe608060409080825260049081361015610016575f80fd5b5f3560e01c908163067a4b0614610e6c575080630905f56014610e465780630af1a39f14610dbd5780630ca55cd714610da157806331e84b0014610d6d57806333fbeb6214610d0957806341976e0914610be9578063715018a614610b6d5780638a32ada014610b395780638da5cb5b14610b0657806395082d2514610ae457806396e85ced1461084357806396f277b7146108275780639d7f7e861461080b578063a58b615c146107a2578063a622a2781461065a578063a95121b5146104d0578063b4bbec531461045f578063be32b3f8146103c8578063c3547109146102fa578063e25243461461022b578063e7b4da7e146101e35763f2fde38b1461011d575f80fd5b346101df5760206003193601126101df57610136610ee2565b9061013f61104f565b73ffffffffffffffffffffffffffffffffffffffff8092169283156101b05750505f54827fffffffffffffffffffffffff00000000000000000000000000000000000000008216175f55167f8be0079c531659141344cd1fd0a4f28419497f9722a3daafe3b4186f6b6457e05f80a3005b905f60249251917f1e4fbdf7000000000000000000000000000000000000000000000000000000008352820152fd5b5f80fd5b5090346101df5760206003193601126101df5760209173ffffffffffffffffffffffffffffffffffffffff610216610ee2565b165f52825260ff815f20541690519015158152f35b5090346101df5760206003193601126101df5773ffffffffffffffffffffffffffffffffffffffff61025b610ee2565b165f526003602052805f209080519161027383610f4b565b8054835260018101549260208101938452600360ff6002840154169261029c8584019485610f3f565b0154606082015251925190519360058510156102ce5750815192835260208301526060926102cc91830190610f05565bf35b6021907f4e487b71000000000000000000000000000000000000000000000000000000005f525260245ffd5b82346101df5760206003193601126101df5760a090610317610ee2565b905f6080825161032681610f94565b8281528260208201528284820152826060820152015273ffffffffffffffffffffffffffffffffffffffff8092165f526002602052805f2081519161036a83610f94565b8382541693848452600183015492602085019384526002810154936080600385880193858816855260ff60608a01988c1c16151588520154960195865283519687525160208701525116908401525115156060830152516080820152f35b50346101df5760206003193601126101df5735908115158092036101df577fe3619ba936aa20474cedab93fac30a7aa8a1089430ebc5a875a664b2a52774799160209161041361104f565b6006547fffffffffffffffffffffff00ffffffffffffffffffffffffffffffffffffffff74ff00000000000000000000000000000000000000008460a01b1691161760065551908152a1005b82346101df5760206003193601126101df5760809073ffffffffffffffffffffffffffffffffffffffff610491610ee2565b165f526003602052805f20906104c9825492600181015492600360ff6002840154169201549381519586526020860152840190610f05565b6060820152f35b50346101df57816003193601126101df576104e9610ee2565b91602435916104f661104f565b60ff60065460a01c16156105fe57815161050f81610f4b565b838152602081019442865283820183815273ffffffffffffffffffffffffffffffffffffffff60608401926103e884521696875f526003602052855f209351845551600184015560028301905160058110156105d2577f5cbfdd086220f495e5d8a15805e17c05374548375649d8fe513a473b69cead769694928260039260ff7fffffffffffffffffffffffffffffffffffffffffffffffffffffffffffffff0060609a98965416911617905551910155815192835260208301524290820152a2005b6021857f4e487b71000000000000000000000000000000000000000000000000000000005f525260245ffd5b602060649251917f08c379a0000000000000000000000000000000000000000000000000000000008352820152601560248201527f4e6f7420696e20656d657267656e6379206d6f646500000000000000000000006044820152fd5b82346101df5760a06003193601126101df57610674610ee2565b6024359173ffffffffffffffffffffffffffffffffffffffff928381168091036101df576044356064358581168091036101df5760037f57e3e00eedb00dfe301d209541b27c18561116a9f0723ab2290bdf6d2eb6109d956106d461104f565b8551926106e084610f94565b8584526020840198858a528785019182526060850190600182528060808701946084358652169a8b5f526002602052818a5f209751167fffffffffffffffffffffffff0000000000000000000000000000000000000000885416178755516001870155600286019251167fffffffffffffffffffffff00000000000000000000000000000000000000000074ff000000000000000000000000000000000000000084549351151560a01b169216171790555191015582519182526020820152a2005b50346101df5760206003193601126101df5773ffffffffffffffffffffffffffffffffffffffff6107d1610ee2565b6107d961104f565b165f526020525f207fffffffffffffffffffffffffffffffffffffffffffffffffffffffffffffff0081541690555f80f35b82346101df575f6003193601126101df5760209051610e108152f35b82346101df575f6003193601126101df57602090516103e88152f35b50346101df57602090816003193601126101df5761085f610ee2565b916001936002855414610abc576002855573ffffffffffffffffffffffffffffffffffffffff9283851694855f5260028452825f208351956108a087610f94565b80825416875288820154868801908152600283015492600360ff888b0195858116875260a01c161591821560608c0152015460808a0152610a9457816108e461102b565b985116610a77575b8751159081610a6c575b50610a4f575b8651159182610a42575b5050610a25575b8451156109fd57845161091f916116b8565b845f5260038352815f20938051855583810190815188870155600286019584820196875160058110156109d15760ff7fffffffffffffffffffffffffffffffffffffffffffffffffffffffffffffff008354169116179055600360608301519101555194519160058310156102ce5750916109c9606094927f5cbfdd086220f495e5d8a15805e17c05374548375649d8fe513a473b69cead76969451938351958652850190610f05565b820152a28055005b6021867f4e487b71000000000000000000000000000000000000000000000000000000005f525260245ffd5b5090517f579a4801000000000000000000000000000000000000000000000000000000008152fd5b610a2e81611513565b90610a3a575b5061090d565b94505f610a34565b5116151590505f80610906565b610a5883611287565b90610a64575b506108fc565b96505f610a5e565b90505115155f6108f6565b610a80846110b6565b90610a8c575b506108ec565b97505f610a86565b8486517f04beb044000000000000000000000000000000000000000000000000000000008152fd5b9050517f3ee5aeb5000000000000000000000000000000000000000000000000000000008152fd5b82346101df575f6003193601126101df5760209051670de0b6b3a76400008152f35b82346101df575f6003193601126101df5760209073ffffffffffffffffffffffffffffffffffffffff5f54169051908152f35b82346101df575f6003193601126101df5760209073ffffffffffffffffffffffffffffffffffffffff600554169051908152f35b346101df575f6003193601126101df57610b8561104f565b5f73ffffffffffffffffffffffffffffffffffffffff81547fffffffffffffffffffffffff000000000000000000000000000000000000000081168355167f8be0079c531659141344cd1fd0a4f28419497f9722a3daafe3b4186f6b6457e08280a3005b5090346101df5760206003193601126101df5773ffffffffffffffffffffffffffffffffffffffff610c19610ee2565b16805f528260205260ff825f205416610ce2575f526003602052805f20610e10610c7c835192610c4884610f4b565b80548452600360018201549160208601928352610c6e60ff600283015416888801610f3f565b015460608501525142610ff1565b11610cbb57805115610c945760209250519051908152f35b50517f579a4801000000000000000000000000000000000000000000000000000000008152fd5b50517f28771d91000000000000000000000000000000000000000000000000000000008152fd5b50517fff0376e7000000000000000000000000000000000000000000000000000000008152fd5b346101df5760206003193601126101df5773ffffffffffffffffffffffffffffffffffffffff610d37610ee2565b610d3f61104f565b167fffffffffffffffffffffffff000000000000000000000000000000000000000060055416176005555f80f35b82346101df575f6003193601126101df5760209073ffffffffffffffffffffffffffffffffffffffff600654169051908152f35b82346101df575f6003193601126101df57602090516113888152f35b82346101df5760206003193601126101df5760209073ffffffffffffffffffffffffffffffffffffffff610def610ee2565b165f5260038252610e10610e3d825f208351610e0a81610f4b565b8154815260606003600184015493888401948552610e3160ff600283015416898601610f3f565b01549101525142610ff1565b11159051908152f35b82346101df575f6003193601126101df5760209060ff60065460a01c1690519015158152f35b8390346101df5760206003193601126101df5760a09160ff73ffffffffffffffffffffffffffffffffffffffff9182610ea3610ee2565b165f526002602052805f209083825416936001830154600360028501549401549587526020870152821690850152841c16151560608301526080820152f35b6004359073ffffffffffffffffffffffffffffffffffffffff821682036101df57565b906005821015610f125752565b7f4e487b71000000000000000000000000000000000000000000000000000000005f52602160045260245ffd5b6005821015610f125752565b6080810190811067ffffffffffffffff821117610f6757604052565b7f4e487b71000000000000000000000000000000000000000000000000000000005f52604160045260245ffd5b60a0810190811067ffffffffffffffff821117610f6757604052565b90601f7fffffffffffffffffffffffffffffffffffffffffffffffffffffffffffffffe0910116810190811067ffffffffffffffff821117610f6757604052565b91908203918211610ffe57565b7f4e487b71000000000000000000000000000000000000000000000000000000005f52601160045260245ffd5b6040519061103882610f4b565b5f6060838281528260208201528260408201520152565b73ffffffffffffffffffffffffffffffffffffffff5f5416330361106f57565b60246040517f118cdaa7000000000000000000000000000000000000000000000000000000008152336004820152fd5b519069ffffffffffffffffffff821682036101df57565b906110bf61102b565b9173ffffffffffffffffffffffffffffffffffffffff8091165f5260026020526040805f2090608060038251936110f585610f94565b60ff86825416968787526001830154602088015260028301549081168688015260a01c161515606086015201549201918252821561123a5760a06004938251948580927ffeaf968c0000000000000000000000000000000000000000000000000000000082525afa91825f945f946111e4575b5061117657505050505f9190565b5f849692939413156111da5761118c8442610ff1565b9051106111d157506402540be40093848102948186041490151715610ffe576001918151946111ba86610f4b565b855260208501528301526064606083015260019190565b935050505f9190565b50935050505f9190565b9450925060a0843d60a011611232575b8161120160a09383610fb0565b810103126101df576112128461109f565b50602084015161122960806060870151960161109f565b5093925f611168565b3d91506111f4565b5050505f9190565b604d8111610ffe57600a0a90565b811561125a570490565b7f4e487b71000000000000000000000000000000000000000000000000000000005f52601260045260245ffd5b9061129061102b565b9173ffffffffffffffffffffffffffffffffffffffff8091165f526020600281526040805f208151936112c285610f94565b808254168552600182015494858582015260ff60028401548381168684015260a01c16151560608201526080600380940154910152841580156114ec575b6114e257608090600554169460248451809781937f96834ad300000000000000000000000000000000000000000000000000000000835260048301525afa5f9481611460575b5061135457505050505f9190565b90919294855160070b905f8213156114555750828601905f8251840b125f14611411575051810b907fffffffffffffffffffffffffffffffffffffffffffffffffffffffff800000008214610ffe576113b0915f03900b611242565b90845160070b670de0b6b3a764000090818102918183041490151715610ffe576002926113dc91611250565b945b67ffffffffffffffff84606083015192015116938251966113fe88610f4b565b8752860152840152606083015260019190565b929190670de0b6b3a76400009081850292858404831486151715610ffe5761143b9151900b611242565b80940202928184041490151715610ffe57600291946113de565b9550505050505f9190565b9094506080813d6080116114da575b8161147c60809383610fb0565b810103126101df5782519061149082610f4b565b80518060070b81036101df5782528481015167ffffffffffffffff811681036101df5785830152838101519081840b82036101df576060918584015201516060820152935f611346565b3d915061146f565b50505050505f9190565b50806005541615611300565b51906dffffffffffffffffffffffffffff821682036101df57565b9061151c61102b565b9173ffffffffffffffffffffffffffffffffffffffff8091165f526002602052604090815f2091805161154e81610f94565b8284541681526001840154602082015260806003600286015494851695868585015260ff60609660a01c161515868501520154910152821561123a57816004938251948580927f0902f1ac0000000000000000000000000000000000000000000000000000000082525afa5f93849182918161165f575b506115d45750505050505f9190565b6dffffffffffffffffffffffffffff9694968092169485158015611655575b61164957501690670de0b6b3a764000091828102928184041490151715610ffe5763ffffffff6116286101f495600394611250565b9682519761163589610f4b565b885216602087015285015283015260019190565b965050505050505f9190565b50828216156115f3565b92509450508281813d83116116b1575b6116798183610fb0565b810103126101df5761168a816114f8565b82611697602084016114f8565b9201519063ffffffff821682036101df579190945f6115c5565b503d61166f565b73ffffffffffffffffffffffffffffffffffffffff1690815f5260036020526040805f209160038251936116eb85610f4b565b805485526001810154602086015261170c60ff600283015416858701610f3f565b01546060840152825180156117fd5781818111156117cc575050611731835182610ff1565b61271090818102918183041490151715610ffe5761175461138891855190611250565b11611760575b50505050565b7f249ffe6adefed2d14f2d2086abb427d5c2bc5cc8d63d2308930340c5fb51e27a92845f526004602052825f2060017fffffffffffffffffffffffffffffffffffffffffffffffffffffffffffffff00825416179055519082519182526020820152a25f80808061175a565b6117d591610ff1565b61271090818102918183041490151715610ffe576117f861138891855190611250565b611754565b505050505056fea26469706673582212208bc4e5b1561cee9e50d673282bbd09ad814535c187c2fdfa1c37c4705c0711df64736f6c63430008190033","linkReferences":{}},"methodIdentifiers":{"CIRCUIT_BREAKER_THRESHOLD()":"0ca55cd7","MAX_PRICE_AGE()":"9d7f7e86","MAX_PRICE_DEVIATION()":"96f277b7","PRICE_PRECISION()":"95082d25","chainlinkRegistry()":"31e84b00","configureOracle(address,address,bytes32,address,uint256)":"a622a278","emergencyMode()":"0905f560","getOracleConfig(address)":"c3547109","getPrice(address)":"41976e09","getPriceWithMetadata(address)":"e2524346","isCircuitBroken(address)":"e7b4da7e","isPriceFresh(address)":"0af1a39f","latestPrices(address)":"b4bbec53","oracleConfigs(address)":"067a4b06","owner()":"8da5cb5b","pythContract()":"8a32ada0","renounceOwnership()":"715018a6","resetCircuitBreaker(address)":"a58b615c","setEmergencyMode(bool)":"be32b3f8","setManualPrice(address,uint256)":"a95121b5","setPythContract(address)":"33fbeb62","transferOwnership(address)":"f2fde38b","updatePrice(address)":"96e85ced"},"id":175}