{"abi":[{"type":"constructor","inputs":[{"name":"_pythContract","type":"address","internalType":"address"}],"stateMutability":"nonpayable"},{"type":"function","name":"CIRCUIT_BREAKER_THRESHOLD","inputs":[],"outputs":[{"name":"","type":"uint256","internalType":"uint256"}],"stateMutability":"view"},{"type":"function","name":"MAX_PRICE_AGE","inputs":[],"outputs":[{"name":"","type":"uint256","internalType":"uint256"}],"stateMutability":"view"},{"type":"function","name":"MAX_PRICE_DEVIATION","inputs":[],"outputs":[{"name":"","type":"uint256","internalType":"uint256"}],"stateMutability":"view"},{"type":"function","name":"PRICE_PRECISION","inputs":[],"outputs":[{"name":"","type":"uint256","internalType":"uint256"}],"stateMutability":"view"},{"type":"function","name":"chainlinkRegistry","inputs":[],"outputs":[{"name":"","type":"address","internalType":"address"}],"stateMutability":"view"},{"type":"function","name":"configureOracle","inputs":[{"name":"asset","type":"address","internalType":"address"},{"name":"chainlinkFeed","type":"address","internalType":"address"},{"name":"pythPriceId","type":"bytes32","internalType":"bytes32"},{"name":"twapPool","type":"address","internalType":"address"},{"name":"heartbeat","type":"uint256","internalType":"uint256"}],"outputs":[],"stateMutability":"nonpayable"},{"type":"function","name":"emergencyMode","inputs":[],"outputs":[{"name":"","type":"bool","internalType":"bool"}],"stateMutability":"view"},{"type":"function","name":"getOracleConfig","inputs":[{"name":"asset","type":"address","internalType":"address"}],"outputs":[{"name":"","type":"tuple","internalType":"struct AndeOracleAggregator.OracleConfig","components":[{"name":"chainlinkFeed","type":"address","internalType":"address"},{"name":"pythPriceId","type":"bytes32","internalType":"bytes32"},{"name":"twapPool","type":"address","internalType":"address"},{"name":"enabled","type":"bool","internalType":"bool"},{"name":"heartbeat","type":"uint256","internalType":"uint256"}]}],"stateMutability":"view"},{"type":"function","name":"getPrice","inputs":[{"name":"asset","type":"address","internalType":"address"}],"outputs":[{"name":"price","type":"uint256","internalType":"uint256"}],"stateMutability":"view"},{"type":"function","name":"getPriceWithMetadata","inputs":[{"name":"asset","type":"address","internalType":"address"}],"outputs":[{"name":"price","type":"uint256","internalType":"uint256"},{"name":"timestamp","type":"uint256","internalType":"uint256"},{"name":"source","type":"uint8","internalType":"enum AndeOracleAggregator.OracleSource"}],"stateMutability":"view"},{"type":"function","name":"isCircuitBroken","inputs":[{"name":"","type":"address","internalType":"address"}],"outputs":[{"name":"","type":"bool","internalType":"bool"}],"stateMutability":"view"},{"type":"function","name":"isPriceFresh","inputs":[{"name":"asset","type":"address","internalType":"address"}],"outputs":[{"name":"","type":"bool","internalType":"bool"}],"stateMutability":"view"},{"type":"function","name":"latestPrices","inputs":[{"name":"","type":"address","internalType":"address"}],"outputs":[{"name":"price","type":"uint256","internalType":"uint256"},{"name":"timestamp","type":"uint256","internalType":"uint256"},{"name":"source","type":"uint8","internalType":"enum AndeOracleAggregator.OracleSource"},{"name":"confidence","type":"uint256","internalType":"uint256"}],"stateMutability":"view"},{"type":"function","name":"oracleConfigs","inputs":[{"name":"","type":"address","internalType":"address"}],"outputs":[{"name":"chainlinkFeed","type":"address","internalType":"address"},{"name":"pythPriceId","type":"bytes32","internalType":"bytes32"},{"name":"twapPool","type":"address","internalType":"address"},{"name":"enabled","type":"bool","internalType":"bool"},{"name":"heartbeat","type":"uint256","internalType":"uint256"}],"stateMutability":"view"},{"type":"function","name":"owner","inputs":[],"outputs":[{"name":"","type":"address","internalType":"address"}],"stateMutability":"view"},{"type":"function","name":"pythContract","inputs":[],"outputs":[{"name":"","type":"address","internalType":"address"}],"stateMutability":"view"},{"type":"function","name":"renounceOwnership","inputs":[],"outputs":[],"stateMutability":"nonpayable"},{"type":"function","name":"resetCircuitBreaker","inputs":[{"name":"asset","type":"address","internalType":"address"}],"outputs":[],"stateMutability":"nonpayable"},{"type":"function","name":"setEmergencyMode","inputs":[{"name":"active","type":"bool","internalType":"bool"}],"outputs":[],"stateMutability":"nonpayable"},{"type":"function","name":"setManualPrice","inputs":[{"name":"asset","type":"address","internalType":"address"},{"name":"price","type":"uint256","internalType":"uint256"}],"outputs":[],"stateMutability":"nonpayable"},{"type":"function","name":"setPythContract","inputs":[{"name":"_pythContract","type":"address","internalType":"address"}],"outputs":[],"stateMutability":"nonpayable"},{"type":"function","name":"transferOwnership","inputs":[{"name":"newOwner","type":"address","internalType":"address"}],"outputs":[],"stateMutability":"nonpayable"},{"type":"function","name":"updatePrice","inputs":[{"name":"asset","type":"address","internalType":"address"}],"outputs":[],"stateMutability":"nonpayable"},{"type":"event","name":"CircuitBreakerTriggered","inputs":[{"name":"asset","type":"address","indexed":true,"internalType":"address"},{"name":"oldPrice","type":"uint256","indexed":false,"internalType":"uint256"},{"name":"newPrice","type":"uint256","indexed":false,"internalType":"uint256"}],"anonymous":false},{"type":"event","name":"EmergencyModeActivated","inputs":[{"name":"active","type":"bool","indexed":false,"internalType":"bool"}],"anonymous":false},{"type":"event","name":"OracleConfigured","inputs":[{"name":"asset","type":"address","indexed":true,"internalType":"address"},{"name":"chainlinkFeed","type":"address","indexed":false,"internalType":"address"},{"name":"pythId","type":"bytes32","indexed":false,"internalType":"bytes32"}],"anonymous":false},{"type":"event","name":"OwnershipTransferred","inputs":[{"name":"previousOwner","type":"address","indexed":true,"internalType":"address"},{"name":"newOwner","type":"address","indexed":true,"internalType":"address"}],"anonymous":false},{"type":"event","name":"PriceUpdated","inputs":[{"name":"asset","type":"address","indexed":true,"internalType":"address"},{"name":"price","type":"uint256","indexed":false,"internalType":"uint256"},{"name":"source","type":"uint8","indexed":false,"internalType":"enum AndeOracleAggregator.OracleSource"},{"name":"timestamp","type":"uint256","indexed":false,"internalType":"uint256"}],"anonymous":false},{"type":"error","name":"CircuitBreakerActive","inputs":[]},{"type":"error","name":"InvalidPrice","inputs":[]},{"type":"error","name":"OracleNotConfigured","inputs":[]},{"type":"error","name":"OwnableInvalidOwner","inputs":[{"name":"owner","type":"address","internalType":"address"}]},{"type":"error","name":"OwnableUnauthorizedAccount","inputs":[{"name":"account","type":"address","internalType":"address"}]},{"type":"error","name":"PriceDeviationTooHigh","inputs":[]},{"type":"error","name":"PriceNotAvailable","inputs":[]},{"type":"error","name":"PriceStale","inputs":[]},{"type":"error","name":"ReentrancyGuardReentrantCall","inputs":[]}],"bytecode":{"object":"0x60803460c157601f6114aa38819003918201601f19168301916001600160401b0383118484101760c55780849260209460405283398101031260c157516001600160a01b03908181169081900360c157331560a9575f5460018060a01b03199033828216175f55604051933391167f8be0079c531659141344cd1fd0a4f28419497f9722a3daafe3b4186f6b6457e05f80a36001805560055416176005556113d090816100da8239f35b604051631e4fbdf760e01b81525f6004820152602490fd5b5f80fd5b634e487b7160e01b5f52604160045260245ffdfe608060409080825260049081361015610016575f80fd5b5f3560e01c908163067a4b0614610b8d575080630905f56014610b675780630af1a39f14610aeb5780630ca55cd714610acf57806331e84b0014610aa757806333fbeb6214610a6457806341976e0914610999578063715018a6146109425780638a32ada01461091a5780638da5cb5b146108f357806395082d25146108d157806396e85ced146106c057806396f277b7146106a45780639d7f7e8614610688578063a58b615c14610648578063a622a27814610540578063a95121b51461041e578063b4bbec53146103ba578063be32b3f81461034f578063c354710914610290578063e2524346146101e7578063e7b4da7e146101ac5763f2fde38b1461011d575f80fd5b346101a85760203660031901126101a857610136610bf7565b9061013f610ced565b6001600160a01b039182169283156101925750505f54826bffffffffffffffffffffffff60a01b8216175f55167f8be0079c531659141344cd1fd0a4f28419497f9722a3daafe3b4186f6b6457e05f80a3005b905f6024925191631e4fbdf760e01b8352820152fd5b5f80fd5b5090346101a85760203660031901126101a8576020916001600160a01b036101d2610bf7565b165f52825260ff815f20541690519015158152f35b5090346101a85760203660031901126101a8576001600160a01b0361020a610bf7565b165f526003602052805f209080519161022283610c3a565b8054835260018101549260208101938452600360ff6002840154169261024b8584019485610c2e565b01546060820152519251905193600585101561027d57508151928352602083015260609261027b91830190610c0d565bf35b602190634e487b7160e01b5f525260245ffd5b82346101a85760203660031901126101a85760a0906102ad610bf7565b905f608082516102bc81610c6a565b82815282602082015282848201528260608201520152600180841b038092165f526002602052805f208151916102f183610c6a565b8382541693848452600183015492602085019384526002810154936080600385880193858816855260ff60608a01988c1c16151588520154960195865283519687525160208701525116908401525115156060830152516080820152f35b50346101a85760203660031901126101a85735908115158092036101a8577fe3619ba936aa20474cedab93fac30a7aa8a1089430ebc5a875a664b2a52774799160209161039a610ced565b6006805460ff60a01b191660a084901b60ff60a01b1617905551908152a1005b82346101a85760203660031901126101a8576080906001600160a01b036103df610bf7565b165f526003602052805f2090610417825492600181015492600360ff6002840154169201549381519586526020860152840190610c0d565b6060820152f35b50346101a857816003193601126101a857610437610bf7565b9160243591610444610ced565b60ff60065460a01c161561050657815161045d81610c3a565b838152602081019442865283820183815260608301916103e8835260018060a01b031696875f526003602052855f209351845551600184015560028301905160058110156104f357815460ff191660ff9190911617905551600391909101558151928352602083015242908201527f5cbfdd086220f495e5d8a15805e17c05374548375649d8fe513a473b69cead7690606090a2005b602185634e487b7160e01b5f525260245ffd5b6020606492519162461bcd60e51b835282015260156024820152744e6f7420696e20656d657267656e6379206d6f646560581b6044820152fd5b82346101a85760a03660031901126101a85761055a610bf7565b6001600160a01b0391602435838116908190036101a8576044356064358581168091036101a85760037f57e3e00eedb00dfe301d209541b27c18561116a9f0723ab2290bdf6d2eb6109d956105ad610ced565b8551926105b984610c6a565b8584526020840198858a528785019182526060850190600182528060808701946084358652169a8b5f526002602052818a5f209751166bffffffffffffffffffffffff60a01b8854161787555160018701556002860192511682549160ff60a01b9051151560a01b16916affffffffffffffffffffff60a81b16171790555191015582519182526020820152a2005b50346101a85760203660031901126101a857610662610bf7565b61066a610ced565b6001600160a01b03165f90815260209190915220805460ff19169055005b82346101a8575f3660031901126101a85760209051610e108152f35b82346101a8575f3660031901126101a857602090516103e88152f35b50346101a857602090816003193601126101a8576106dc610bf7565b9160019360028554146108c2576002855560018060a01b039283851694855f5260028452825f2083519561070f87610c6a565b80825416875288820154868801908152600283015492600360ff888b0195858116875260a01c161591821560608c0152015460808a01526108b25781610753610cc9565b985116610895575b875115908161088a575b5061086d575b8651159182610860575b5050610843575b84511561083457845161078e9161127a565b845f5260038352815f20938051855583810190815188870155600286019584820196875160058110156108215760ff801983541691161790556003606083015191015551945191600583101561027d575091610819606094927f5cbfdd086220f495e5d8a15805e17c05374548375649d8fe513a473b69cead76969451938351958652850190610c0d565b820152a28055005b602186634e487b7160e01b5f525260245ffd5b50905163579a480160e01b8152fd5b61084c81611103565b90610858575b5061077c565b94505f610852565b5116151590505f80610775565b61087683610ec0565b90610882575b5061076b565b96505f61087c565b90505115155f610765565b61089e84610d2f565b906108aa575b5061075b565b97505f6108a4565b855163012fac1160e21b81528590fd5b51633ee5aeb560e01b81529050fd5b82346101a8575f3660031901126101a85760209051670de0b6b3a76400008152f35b82346101a8575f3660031901126101a8575f5490516001600160a01b039091168152602090f35b82346101a8575f3660031901126101a85760055490516001600160a01b039091168152602090f35b346101a8575f3660031901126101a85761095a610ced565b5f80546001600160a01b0319811682556001600160a01b03167f8be0079c531659141344cd1fd0a4f28419497f9722a3daafe3b4186f6b6457e08280a3005b5090346101a85760203660031901126101a8576001600160a01b036109bc610bf7565b16805f528260205260ff825f205416610a53575f526003602052805f20610e10610a1f8351926109eb84610c3a565b80548452600360018201549160208601928352610a1160ff600283015416888801610c2e565b015460608501525142610ca8565b11610a4557805115610a375760209250519051908152f35b505163579a480160e01b8152fd5b50516328771d9160e01b8152fd5b5051600162fc891960e01b03198152fd5b346101a85760203660031901126101a857610a7d610bf7565b610a85610ced565b600580546001600160a01b0319166001600160a01b0392909216919091179055005b82346101a8575f3660031901126101a85760065490516001600160a01b039091168152602090f35b82346101a8575f3660031901126101a857602090516113888152f35b82346101a85760203660031901126101a8576020906001600160a01b03610b10610bf7565b165f5260038252610e10610b5e825f208351610b2b81610c3a565b8154815260606003600184015493888401948552610b5260ff600283015416898601610c2e565b01549101525142610ca8565b11159051908152f35b82346101a8575f3660031901126101a85760209060ff60065460a01c1690519015158152f35b8390346101a85760203660031901126101a85760a0916001600160a01b039060ff9082610bb8610bf7565b165f526002602052805f209083825416936001830154600360028501549401549587526020870152821690850152841c16151560608301526080820152f35b600435906001600160a01b03821682036101a857565b906005821015610c1a5752565b634e487b7160e01b5f52602160045260245ffd5b6005821015610c1a5752565b6080810190811067ffffffffffffffff821117610c5657604052565b634e487b7160e01b5f52604160045260245ffd5b60a0810190811067ffffffffffffffff821117610c5657604052565b90601f8019910116810190811067ffffffffffffffff821117610c5657604052565b91908203918211610cb557565b634e487b7160e01b5f52601160045260245ffd5b60405190610cd682610c3a565b5f6060838281528260208201528260408201520152565b5f546001600160a01b03163303610d0057565b60405163118cdaa760e01b8152336004820152602490fd5b519069ffffffffffffffffffff821682036101a857565b90610d38610cc9565b9160018060a01b038091165f5260026020526040805f209060806003825193610d6085610c6a565b60ff86825416968787526001830154602088015260028301549081168688015260a01c1615156060860152015492019182528215610e8c5760a0600493825194858092633fabe5a360e21b82525afa91825f945f94610e36575b50610dc857505050505f9190565b5f84969293941315610e2c57610dde8442610ca8565b905110610e2357506402540be40093848102948186041490151715610cb557600191815194610e0c86610c3a565b855260208501528301526064606083015260019190565b935050505f9190565b50935050505f9190565b9450925060a0843d60a011610e84575b81610e5360a09383610c86565b810103126101a857610e6484610d18565b506020840151610e7b608060608701519601610d18565b5093925f610dba565b3d9150610e46565b5050505f9190565b604d8111610cb557600a0a90565b8115610eac570490565b634e487b7160e01b5f52601260045260245ffd5b90610ec9610cc9565b9160018060a01b038091165f526020600281526040805f20815193610eed85610c6a565b808254168552600182015494858582015260ff60028401548381168684015260a01c16151560608201526080600380940154910152841580156110e3575b6110d957608090600554169460248451809781936396834ad360e01b835260048301525afa5f9481611057575b50610f6657505050505f9190565b90919294855160070b905f82131561104c5750828601905f8251840b125f14611008575051810b90637fffffff198214610cb557610fa7915f03900b610e94565b90845160070b670de0b6b3a764000090818102918183041490151715610cb557600292610fd391610ea2565b945b67ffffffffffffffff8460608301519201511693825196610ff588610c3a565b8752860152840152606083015260019190565b929190670de0b6b3a76400009081850292858404831486151715610cb5576110329151900b610e94565b80940202928184041490151715610cb55760029194610fd5565b9550505050505f9190565b9094506080813d6080116110d1575b8161107360809383610c86565b810103126101a85782519061108782610c3a565b80518060070b81036101a85782528481015167ffffffffffffffff811681036101a85785830152838101519081840b82036101a8576060918584015201516060820152935f610f58565b3d9150611066565b50505050505f9190565b50806005541615610f2b565b51906001600160701b03821682036101a857565b9061110c610cc9565b9160018060a01b038091165f526002602052604090815f2091805161113081610c6a565b8284541681526001840154602082015260806003600286015494851695868585015260ff60609660a01c1615158685015201549101528215610e8c5781600493825194858092630240bc6b60e21b82525afa5f938491829181611221575b5061119d5750505050505f9190565b6001600160701b039694968092169485158015611217575b61120b57501690670de0b6b3a764000091828102928184041490151715610cb55763ffffffff6111ea6101f495600394610ea2565b968251976111f789610c3a565b885216602087015285015283015260019190565b965050505050505f9190565b50828216156111b5565b92509450508281813d8311611273575b61123b8183610c86565b810103126101a85761124c816110ef565b82611259602084016110ef565b9201519063ffffffff821682036101a8579190945f61118e565b503d611231565b60018060a01b031690815f5260036020526040805f2091600382519361129f85610c3a565b80548552600181015460208601526112c060ff600283015416858701610c2e565b01546060840152825180156113935781818111156113625750506112e5835182610ca8565b61271090818102918183041490151715610cb55761130861138891855190610ea2565b11611314575b50505050565b7f249ffe6adefed2d14f2d2086abb427d5c2bc5cc8d63d2308930340c5fb51e27a92845f526004602052825f20600160ff19825416179055519082519182526020820152a25f80808061130e565b61136b91610ca8565b61271090818102918183041490151715610cb55761138e61138891855190610ea2565b611308565b505050505056fea264697066735822122086e19ea4f74c157098bf293f3bb4c3a60579ed602cc035bff0df6c203e35c7b664736f6c63430008190033","linkReferences":{}},"methodIdentifiers":{"CIRCUIT_BREAKER_THRESHOLD()":"0ca55cd7","MAX_PRICE_AGE()":"9d7f7e86","MAX_PRICE_DEVIATION()":"96f277b7","PRICE_PRECISION()":"95082d25","chainlinkRegistry()":"31e84b00","configureOracle(address,address,bytes32,address,uint256)":"a622a278","emergencyMode()":"0905f560","getOracleConfig(address)":"c3547109","getPrice(address)":"41976e09","getPriceWithMetadata(address)":"e2524346","isCircuitBroken(address)":"e7b4da7e","isPriceFresh(address)":"0af1a39f","latestPrices(address)":"b4bbec53","oracleConfigs(address)":"067a4b06","owner()":"8da5cb5b","pythContract()":"8a32ada0","renounceOwnership()":"715018a6","resetCircuitBreaker(address)":"a58b615c","setEmergencyMode(bool)":"be32b3f8","setManualPrice(address,uint256)":"a95121b5","setPythContract(address)":"33fbeb62","transferOwnership(address)":"f2fde38b","updatePrice(address)":"96e85ced"},"id":175}