{"abi":[{"type":"constructor","inputs":[],"stateMutability":"nonpayable"},{"type":"function","name":"BASIS_POINTS","inputs":[],"outputs":[{"name":"","type":"uint256","internalType":"uint256"}],"stateMutability":"view"},{"type":"function","name":"BLOCKS_PER_ROTATION","inputs":[],"outputs":[{"name":"","type":"uint256","internalType":"uint256"}],"stateMutability":"view"},{"type":"function","name":"DEFAULT_ADMIN_ROLE","inputs":[],"outputs":[{"name":"","type":"bytes32","internalType":"bytes32"}],"stateMutability":"view"},{"type":"function","name":"FORCE_INCLUSION_TIMEOUT","inputs":[],"outputs":[{"name":"","type":"uint256","internalType":"uint256"}],"stateMutability":"view"},{"type":"function","name":"MIN_STAKE_AMOUNT","inputs":[],"outputs":[{"name":"","type":"uint256","internalType":"uint256"}],"stateMutability":"view"},{"type":"function","name":"MIN_UPTIME_PERCENTAGE","inputs":[],"outputs":[{"name":"","type":"uint256","internalType":"uint256"}],"stateMutability":"view"},{"type":"function","name":"ORACLE_ROLE","inputs":[],"outputs":[{"name":"","type":"bytes32","internalType":"bytes32"}],"stateMutability":"view"},{"type":"function","name":"PAUSER_ROLE","inputs":[],"outputs":[{"name":"","type":"bytes32","internalType":"bytes32"}],"stateMutability":"view"},{"type":"function","name":"SEQUENCER_MANAGER_ROLE","inputs":[],"outputs":[{"name":"","type":"bytes32","internalType":"bytes32"}],"stateMutability":"view"},{"type":"function","name":"SLASH_PERCENTAGE_INVALID","inputs":[],"outputs":[{"name":"","type":"uint256","internalType":"uint256"}],"stateMutability":"view"},{"type":"function","name":"SLASH_PERCENTAGE_TIMEOUT","inputs":[],"outputs":[{"name":"","type":"uint256","internalType":"uint256"}],"stateMutability":"view"},{"type":"function","name":"TIMEOUT_BLOCKS","inputs":[],"outputs":[{"name":"","type":"uint256","internalType":"uint256"}],"stateMutability":"view"},{"type":"function","name":"UPGRADE_INTERFACE_VERSION","inputs":[],"outputs":[{"name":"","type":"string","internalType":"string"}],"stateMutability":"view"},{"type":"function","name":"activateEmergencyMode","inputs":[{"name":"reason","type":"string","internalType":"string"}],"outputs":[],"stateMutability":"nonpayable"},{"type":"function","name":"activeSequencers","inputs":[{"name":"","type":"uint256","internalType":"uint256"}],"outputs":[{"name":"","type":"address","internalType":"address"}],"stateMutability":"view"},{"type":"function","name":"andeToken","inputs":[],"outputs":[{"name":"","type":"address","internalType":"contract IERC20"}],"stateMutability":"view"},{"type":"function","name":"checkForceInclusionTimeout","inputs":[],"outputs":[],"stateMutability":"nonpayable"},{"type":"function","name":"checkTimeout","inputs":[],"outputs":[],"stateMutability":"nonpayable"},{"type":"function","name":"currentLeader","inputs":[],"outputs":[{"name":"","type":"address","internalType":"address"}],"stateMutability":"view"},{"type":"function","name":"currentLeaderIndex","inputs":[],"outputs":[{"name":"","type":"uint256","internalType":"uint256"}],"stateMutability":"view"},{"type":"function","name":"currentRotationNumber","inputs":[],"outputs":[{"name":"","type":"uint256","internalType":"uint256"}],"stateMutability":"view"},{"type":"function","name":"deactivateEmergencyMode","inputs":[],"outputs":[],"stateMutability":"nonpayable"},{"type":"function","name":"emergencyMode","inputs":[],"outputs":[{"name":"","type":"bool","internalType":"bool"}],"stateMutability":"view"},{"type":"function","name":"emergencySequencer","inputs":[],"outputs":[{"name":"","type":"address","internalType":"address"}],"stateMutability":"view"},{"type":"function","name":"forceInclusionRequests","inputs":[{"name":"","type":"bytes32","internalType":"bytes32"}],"outputs":[{"name":"requester","type":"address","internalType":"address"},{"name":"txHash","type":"bytes32","internalType":"bytes32"},{"name":"requestedAt","type":"uint256","internalType":"uint256"},{"name":"included","type":"bool","internalType":"bool"}],"stateMutability":"view"},{"type":"function","name":"forceRotation","inputs":[{"name":"reason","type":"string","internalType":"string"}],"outputs":[],"stateMutability":"nonpayable"},{"type":"function","name":"getActiveSequencers","inputs":[],"outputs":[{"name":"","type":"address[]","internalType":"address[]"}],"stateMutability":"view"},{"type":"function","name":"getCurrentRotation","inputs":[],"outputs":[{"name":"","type":"tuple","internalType":"struct AndeSequencerCoordinator.RotationInfo","components":[{"name":"rotationNumber","type":"uint256","internalType":"uint256"},{"name":"startBlock","type":"uint256","internalType":"uint256"},{"name":"endBlock","type":"uint256","internalType":"uint256"},{"name":"leader","type":"address","internalType":"address"},{"name":"blocksProduced","type":"uint256","internalType":"uint256"},{"name":"missedBlocks","type":"uint256","internalType":"uint256"},{"name":"completedSuccessfully","type":"bool","internalType":"bool"}]}],"stateMutability":"view"},{"type":"function","name":"getPendingForceInclusions","inputs":[],"outputs":[{"name":"","type":"bytes32[]","internalType":"bytes32[]"}],"stateMutability":"view"},{"type":"function","name":"getRoleAdmin","inputs":[{"name":"role","type":"bytes32","internalType":"bytes32"}],"outputs":[{"name":"","type":"bytes32","internalType":"bytes32"}],"stateMutability":"view"},{"type":"function","name":"getRotationInfo","inputs":[{"name":"rotationNumber","type":"uint256","internalType":"uint256"}],"outputs":[{"name":"","type":"tuple","internalType":"struct AndeSequencerCoordinator.RotationInfo","components":[{"name":"rotationNumber","type":"uint256","internalType":"uint256"},{"name":"startBlock","type":"uint256","internalType":"uint256"},{"name":"endBlock","type":"uint256","internalType":"uint256"},{"name":"leader","type":"address","internalType":"address"},{"name":"blocksProduced","type":"uint256","internalType":"uint256"},{"name":"missedBlocks","type":"uint256","internalType":"uint256"},{"name":"completedSuccessfully","type":"bool","internalType":"bool"}]}],"stateMutability":"view"},{"type":"function","name":"getSequencerInfo","inputs":[{"name":"sequencer","type":"address","internalType":"address"}],"outputs":[{"name":"","type":"tuple","internalType":"struct AndeSequencerCoordinator.SequencerInfo","components":[{"name":"sequencerAddress","type":"address","internalType":"address"},{"name":"stakedAmount","type":"uint256","internalType":"uint256"},{"name":"registeredAt","type":"uint256","internalType":"uint256"},{"name":"lastBlockProduced","type":"uint256","internalType":"uint256"},{"name":"lastBlockNumber","type":"uint256","internalType":"uint256"},{"name":"totalBlocksProduced","type":"uint256","internalType":"uint256"},{"name":"totalTimeouts","type":"uint256","internalType":"uint256"},{"name":"totalSlashes","type":"uint256","internalType":"uint256"},{"name":"uptimePercentage","type":"uint256","internalType":"uint256"},{"name":"isActive","type":"bool","internalType":"bool"},{"name":"isJailed","type":"bool","internalType":"bool"},{"name":"jailEndTime","type":"uint256","internalType":"uint256"},{"name":"endpoint","type":"string","internalType":"string"},{"name":"nodeId","type":"bytes32","internalType":"bytes32"}]}],"stateMutability":"view"},{"type":"function","name":"grantRole","inputs":[{"name":"role","type":"bytes32","internalType":"bytes32"},{"name":"account","type":"address","internalType":"address"}],"outputs":[],"stateMutability":"nonpayable"},{"type":"function","name":"hasRole","inputs":[{"name":"role","type":"bytes32","internalType":"bytes32"},{"name":"account","type":"address","internalType":"address"}],"outputs":[{"name":"","type":"bool","internalType":"bool"}],"stateMutability":"view"},{"type":"function","name":"heartbeat","inputs":[],"outputs":[],"stateMutability":"nonpayable"},{"type":"function","name":"increaseStake","inputs":[{"name":"amount","type":"uint256","internalType":"uint256"}],"outputs":[],"stateMutability":"nonpayable"},{"type":"function","name":"initialize","inputs":[{"name":"defaultAdmin","type":"address","internalType":"address"},{"name":"_andeToken","type":"address","internalType":"address"},{"name":"_emergencySequencer","type":"address","internalType":"address"}],"outputs":[],"stateMutability":"nonpayable"},{"type":"function","name":"isTimeoutReached","inputs":[],"outputs":[{"name":"","type":"bool","internalType":"bool"}],"stateMutability":"view"},{"type":"function","name":"lastBlockNumber","inputs":[],"outputs":[{"name":"","type":"uint256","internalType":"uint256"}],"stateMutability":"view"},{"type":"function","name":"lastHeartbeat","inputs":[{"name":"","type":"address","internalType":"address"}],"outputs":[{"name":"","type":"uint256","internalType":"uint256"}],"stateMutability":"view"},{"type":"function","name":"lastRotationBlock","inputs":[],"outputs":[{"name":"","type":"uint256","internalType":"uint256"}],"stateMutability":"view"},{"type":"function","name":"markForceInclusionCompleted","inputs":[{"name":"txHash","type":"bytes32","internalType":"bytes32"},{"name":"includedAtBlock","type":"uint256","internalType":"uint256"}],"outputs":[],"stateMutability":"nonpayable"},{"type":"function","name":"pause","inputs":[],"outputs":[],"stateMutability":"nonpayable"},{"type":"function","name":"paused","inputs":[],"outputs":[{"name":"","type":"bool","internalType":"bool"}],"stateMutability":"view"},{"type":"function","name":"pendingForceInclusions","inputs":[{"name":"","type":"uint256","internalType":"uint256"}],"outputs":[{"name":"","type":"bytes32","internalType":"bytes32"}],"stateMutability":"view"},{"type":"function","name":"proxiableUUID","inputs":[],"outputs":[{"name":"","type":"bytes32","internalType":"bytes32"}],"stateMutability":"view"},{"type":"function","name":"recordBlockProduced","inputs":[{"name":"sequencer","type":"address","internalType":"address"},{"name":"blockNumber","type":"uint256","internalType":"uint256"},{"name":"gasUsed","type":"uint256","internalType":"uint256"}],"outputs":[],"stateMutability":"nonpayable"},{"type":"function","name":"registerSequencer","inputs":[{"name":"stakedAmount","type":"uint256","internalType":"uint256"},{"name":"endpoint","type":"string","internalType":"string"},{"name":"nodeId","type":"bytes32","internalType":"bytes32"}],"outputs":[],"stateMutability":"nonpayable"},{"type":"function","name":"renounceRole","inputs":[{"name":"role","type":"bytes32","internalType":"bytes32"},{"name":"callerConfirmation","type":"address","internalType":"address"}],"outputs":[],"stateMutability":"nonpayable"},{"type":"function","name":"reportInvalidBlock","inputs":[{"name":"sequencer","type":"address","internalType":"address"},{"name":"blockNumber","type":"uint256","internalType":"uint256"},{"name":"reason","type":"string","internalType":"string"}],"outputs":[],"stateMutability":"nonpayable"},{"type":"function","name":"requestForceInclusion","inputs":[{"name":"txHash","type":"bytes32","internalType":"bytes32"}],"outputs":[],"stateMutability":"nonpayable"},{"type":"function","name":"revokeRole","inputs":[{"name":"role","type":"bytes32","internalType":"bytes32"},{"name":"account","type":"address","internalType":"address"}],"outputs":[],"stateMutability":"nonpayable"},{"type":"function","name":"rotations","inputs":[{"name":"","type":"uint256","internalType":"uint256"}],"outputs":[{"name":"rotationNumber","type":"uint256","internalType":"uint256"},{"name":"startBlock","type":"uint256","internalType":"uint256"},{"name":"endBlock","type":"uint256","internalType":"uint256"},{"name":"leader","type":"address","internalType":"address"},{"name":"blocksProduced","type":"uint256","internalType":"uint256"},{"name":"missedBlocks","type":"uint256","internalType":"uint256"},{"name":"completedSuccessfully","type":"bool","internalType":"bool"}],"stateMutability":"view"},{"type":"function","name":"sequencerList","inputs":[{"name":"","type":"uint256","internalType":"uint256"}],"outputs":[{"name":"","type":"address","internalType":"address"}],"stateMutability":"view"},{"type":"function","name":"sequencers","inputs":[{"name":"","type":"address","internalType":"address"}],"outputs":[{"name":"sequencerAddress","type":"address","internalType":"address"},{"name":"stakedAmount","type":"uint256","internalType":"uint256"},{"name":"registeredAt","type":"uint256","internalType":"uint256"},{"name":"lastBlockProduced","type":"uint256","internalType":"uint256"},{"name":"lastBlockNumber","type":"uint256","internalType":"uint256"},{"name":"totalBlocksProduced","type":"uint256","internalType":"uint256"},{"name":"totalTimeouts","type":"uint256","internalType":"uint256"},{"name":"totalSlashes","type":"uint256","internalType":"uint256"},{"name":"uptimePercentage","type":"uint256","internalType":"uint256"},{"name":"isActive","type":"bool","internalType":"bool"},{"name":"isJailed","type":"bool","internalType":"bool"},{"name":"jailEndTime","type":"uint256","internalType":"uint256"},{"name":"endpoint","type":"string","internalType":"string"},{"name":"nodeId","type":"bytes32","internalType":"bytes32"}],"stateMutability":"view"},{"type":"function","name":"setBlocksPerRotation","inputs":[{"name":"newBlocks","type":"uint256","internalType":"uint256"}],"outputs":[],"stateMutability":"nonpayable"},{"type":"function","name":"setEmergencySequencer","inputs":[{"name":"newEmergencySequencer","type":"address","internalType":"address"}],"outputs":[],"stateMutability":"nonpayable"},{"type":"function","name":"slashSequencer","inputs":[{"name":"sequencer","type":"address","internalType":"address"},{"name":"amount","type":"uint256","internalType":"uint256"},{"name":"reason","type":"string","internalType":"string"}],"outputs":[],"stateMutability":"nonpayable"},{"type":"function","name":"supportsInterface","inputs":[{"name":"interfaceId","type":"bytes4","internalType":"bytes4"}],"outputs":[{"name":"","type":"bool","internalType":"bool"}],"stateMutability":"view"},{"type":"function","name":"unjailSequencer","inputs":[{"name":"sequencer","type":"address","internalType":"address"}],"outputs":[],"stateMutability":"nonpayable"},{"type":"function","name":"unpause","inputs":[],"outputs":[],"stateMutability":"nonpayable"},{"type":"function","name":"unregisterSequencer","inputs":[],"outputs":[],"stateMutability":"nonpayable"},{"type":"function","name":"updateSequencerUptime","inputs":[{"name":"sequencer","type":"address","internalType":"address"},{"name":"uptimePercentage","type":"uint256","internalType":"uint256"}],"outputs":[],"stateMutability":"nonpayable"},{"type":"function","name":"upgradeToAndCall","inputs":[{"name":"newImplementation","type":"address","internalType":"address"},{"name":"data","type":"bytes","internalType":"bytes"}],"outputs":[],"stateMutability":"payable"},{"type":"event","name":"BlockProduced","inputs":[{"name":"sequencer","type":"address","indexed":true,"internalType":"address"},{"name":"blockNumber","type":"uint256","indexed":false,"internalType":"uint256"},{"name":"timestamp","type":"uint256","indexed":false,"internalType":"uint256"},{"name":"gasUsed","type":"uint256","indexed":false,"internalType":"uint256"}],"anonymous":false},{"type":"event","name":"EmergencyModeActivated","inputs":[{"name":"emergencySequencer","type":"address","indexed":true,"internalType":"address"},{"name":"reason","type":"string","indexed":false,"internalType":"string"}],"anonymous":false},{"type":"event","name":"EmergencyModeDeactivated","inputs":[],"anonymous":false},{"type":"event","name":"ForceInclusionCompleted","inputs":[{"name":"txHash","type":"bytes32","indexed":true,"internalType":"bytes32"},{"name":"includedAtBlock","type":"uint256","indexed":false,"internalType":"uint256"}],"anonymous":false},{"type":"event","name":"ForceInclusionRequested","inputs":[{"name":"txHash","type":"bytes32","indexed":true,"internalType":"bytes32"},{"name":"requester","type":"address","indexed":true,"internalType":"address"},{"name":"requestBlock","type":"uint256","indexed":false,"internalType":"uint256"}],"anonymous":false},{"type":"event","name":"Initialized","inputs":[{"name":"version","type":"uint64","indexed":false,"internalType":"uint64"}],"anonymous":false},{"type":"event","name":"InvalidBlockDetected","inputs":[{"name":"sequencer","type":"address","indexed":true,"internalType":"address"},{"name":"blockNumber","type":"uint256","indexed":false,"internalType":"uint256"},{"name":"reason","type":"string","indexed":false,"internalType":"string"}],"anonymous":false},{"type":"event","name":"LeaderRotated","inputs":[{"name":"rotationNumber","type":"uint256","indexed":true,"internalType":"uint256"},{"name":"oldLeader","type":"address","indexed":true,"internalType":"address"},{"name":"newLeader","type":"address","indexed":true,"internalType":"address"},{"name":"blockNumber","type":"uint256","indexed":false,"internalType":"uint256"},{"name":"reason","type":"string","indexed":false,"internalType":"string"}],"anonymous":false},{"type":"event","name":"Paused","inputs":[{"name":"account","type":"address","indexed":false,"internalType":"address"}],"anonymous":false},{"type":"event","name":"RoleAdminChanged","inputs":[{"name":"role","type":"bytes32","indexed":true,"internalType":"bytes32"},{"name":"previousAdminRole","type":"bytes32","indexed":true,"internalType":"bytes32"},{"name":"newAdminRole","type":"bytes32","indexed":true,"internalType":"bytes32"}],"anonymous":false},{"type":"event","name":"RoleGranted","inputs":[{"name":"role","type":"bytes32","indexed":true,"internalType":"bytes32"},{"name":"account","type":"address","indexed":true,"internalType":"address"},{"name":"sender","type":"address","indexed":true,"internalType":"address"}],"anonymous":false},{"type":"event","name":"RoleRevoked","inputs":[{"name":"role","type":"bytes32","indexed":true,"internalType":"bytes32"},{"name":"account","type":"address","indexed":true,"internalType":"address"},{"name":"sender","type":"address","indexed":true,"internalType":"address"}],"anonymous":false},{"type":"event","name":"SequencerJailed","inputs":[{"name":"sequencer","type":"address","indexed":true,"internalType":"address"},{"name":"jailEndTime","type":"uint256","indexed":false,"internalType":"uint256"},{"name":"reason","type":"string","indexed":false,"internalType":"string"}],"anonymous":false},{"type":"event","name":"SequencerRegistered","inputs":[{"name":"sequencer","type":"address","indexed":true,"internalType":"address"},{"name":"stakedAmount","type":"uint256","indexed":false,"internalType":"uint256"},{"name":"endpoint","type":"string","indexed":false,"internalType":"string"},{"name":"nodeId","type":"bytes32","indexed":false,"internalType":"bytes32"}],"anonymous":false},{"type":"event","name":"SequencerSlashed","inputs":[{"name":"sequencer","type":"address","indexed":true,"internalType":"address"},{"name":"amount","type":"uint256","indexed":false,"internalType":"uint256"},{"name":"reason","type":"string","indexed":false,"internalType":"string"},{"name":"newStake","type":"uint256","indexed":false,"internalType":"uint256"}],"anonymous":false},{"type":"event","name":"SequencerUnjailed","inputs":[{"name":"sequencer","type":"address","indexed":true,"internalType":"address"}],"anonymous":false},{"type":"event","name":"SequencerUnregistered","inputs":[{"name":"sequencer","type":"address","indexed":true,"internalType":"address"},{"name":"returnedStake","type":"uint256","indexed":false,"internalType":"uint256"}],"anonymous":false},{"type":"event","name":"TimeoutDetected","inputs":[{"name":"sequencer","type":"address","indexed":true,"internalType":"address"},{"name":"missedBlocks","type":"uint256","indexed":false,"internalType":"uint256"},{"name":"slashedAmount","type":"uint256","indexed":false,"internalType":"uint256"}],"anonymous":false},{"type":"event","name":"Unpaused","inputs":[{"name":"account","type":"address","indexed":false,"internalType":"address"}],"anonymous":false},{"type":"event","name":"Upgraded","inputs":[{"name":"implementation","type":"address","indexed":true,"internalType":"address"}],"anonymous":false},{"type":"event","name":"UptimeUpdated","inputs":[{"name":"sequencer","type":"address","indexed":true,"internalType":"address"},{"name":"uptimePercentage","type":"uint256","indexed":false,"internalType":"uint256"}],"anonymous":false},{"type":"error","name":"AccessControlBadConfirmation","inputs":[]},{"type":"error","name":"AccessControlUnauthorizedAccount","inputs":[{"name":"account","type":"address","internalType":"address"},{"name":"neededRole","type":"bytes32","internalType":"bytes32"}]},{"type":"error","name":"AddressEmptyCode","inputs":[{"name":"target","type":"address","internalType":"address"}]},{"type":"error","name":"ERC1967InvalidImplementation","inputs":[{"name":"implementation","type":"address","internalType":"address"}]},{"type":"error","name":"ERC1967NonPayable","inputs":[]},{"type":"error","name":"EmergencyModeActive","inputs":[]},{"type":"error","name":"EnforcedPause","inputs":[]},{"type":"error","name":"ExpectedPause","inputs":[]},{"type":"error","name":"FailedInnerCall","inputs":[]},{"type":"error","name":"ForceInclusionNotDue","inputs":[]},{"type":"error","name":"InsufficientStake","inputs":[]},{"type":"error","name":"InvalidBlockNumber","inputs":[]},{"type":"error","name":"InvalidInitialization","inputs":[]},{"type":"error","name":"NoActiveSequencers","inputs":[]},{"type":"error","name":"NotCurrentLeader","inputs":[]},{"type":"error","name":"NotInitializing","inputs":[]},{"type":"error","name":"ReentrancyGuardReentrantCall","inputs":[]},{"type":"error","name":"RotationNotDue","inputs":[]},{"type":"error","name":"SequencerAlreadyRegistered","inputs":[]},{"type":"error","name":"SequencerIsJailed","inputs":[]},{"type":"error","name":"SequencerNotActive","inputs":[]},{"type":"error","name":"SequencerNotFound","inputs":[]},{"type":"error","name":"TimeoutNotReached","inputs":[]},{"type":"error","name":"UUPSUnauthorizedCallContext","inputs":[]},{"type":"error","name":"UUPSUnsupportedProxiableUUID","inputs":[{"name":"slot","type":"bytes32","internalType":"bytes32"}]}],"bytecode":{"object":"0x60a0806040523460c857306080527ff0c57e16840df040f15088dc2f81fe391c3923bec73e23a9662efc9c229c6a009081549060ff8260401c1660b957506001600160401b036002600160401b0319828216016075575b60405161468e90816100cd82396080518181816120e201526121ba0152f35b6001600160401b031990911681179091556040519081527fc7f505b2f371ae2175ee4913f4499e1f2633a7b5936321eed1cdaeb6115181d290602090a15f80806056565b63f92ee8a960e01b8152600490fd5b5f80fdfe6080806040526004361015610012575f80fd5b5f3560e01c908163010cf644146135775750806301ffc9a7146134d657806307e2cea51461349c5780630905f5601461347757806309bbd6a01461327f578063140f021c1461324d5780631a5425c514612c295780631c7a07ee14612b2d5780632220967e14612ae8578063248a9ca314612a9c5780632552317c14612a7f57806327ed718814612a5b5780632d151ab114612a405780632e9c3bb814612a235780632f2ff15d146129c757806332c58b6c146127e457806336568abe146127785780633defb962146127215780633f4ba83a1461268157806342c689bf14612666578063494d0f3d1461264a57806349d25f44146124625780634e89386e146124275780634f1ef2861461215c57806352d1902d146120bb5780635c975abb1461207a57806364de801014611ec0578063657eb44a14611e3a5780638456cb5914611dc25780638a4c098814611d5e5780638ff8319714611bb457806391d1485414611b3e57806399b20eaf14611a7a5780639a91be3c14611981578063a0c8c0951461186a578063a217fddf14611850578063a99a05e614611834578063aa378a7d1461160e578063ac4bd53a146115db578063ad3cb1cc1461157a578063af210412146111d8578063b1f602f5146111bf578063b33d3e191461100a578063b3b9ecbe14610fee578063b6e5c59014610fa3578063b75b846c14610f69578063b967fccb14610f4c578063be228f9214610ee6578063c0c53b8b14610c45578063c124a24714610b4c578063c637ef7514610afe578063c90f9e48146108e8578063ce69ac91146108b1578063d1c6ed55146107c9578063d547741f1461076b578063e1f1c4a71461074f578063e26d2d8d14610732578063e31e08d3146106cb578063e63ab1e914610691578063e908154e1461066d578063e940e56a1461063a578063eeb619e214610588578063eedad66b146103be5763f4eba842146102dc575f80fd5b346103ba575f6003193601126103ba57604051806003548083526020809301809160035f527fc2575a0e9e593c00f959f8c92f12db2869c3395a3b0502d05e2516446f71f85b905f5b8682821061039057868661033b828803836136aa565b60405192839281840190828552518091526040840192915f5b82811061036357505050500390f35b835173ffffffffffffffffffffffffffffffffffffffff1685528695509381019392810192600101610354565b835473ffffffffffffffffffffffffffffffffffffffff1685529093019260019283019201610325565b5f80fd5b346103ba576020806003193601126103ba57600435906103dc613c96565b335f526001815260405f209073ffffffffffffffffffffffffffffffffffffffff808354161561055e575f80546040517f23b872dd000000000000000000000000000000000000000000000000000000008152336004820152306024820152604481018790529284928492606492849291165af1908115610553575f91610526575b50156104c85750600101805491820180921161049b575560017f9b779b17422d0df92223018b32b4d1fa46e071723d6817e2486d003becc55f0055005b7f4e487b71000000000000000000000000000000000000000000000000000000005f52601160045260245ffd5b606490604051907f08c379a00000000000000000000000000000000000000000000000000000000082526004820152600f60248201527f5472616e73666572206661696c656400000000000000000000000000000000006044820152fd5b6105469150823d841161054c575b61053e81836136aa565b810190613939565b8461045e565b503d610534565b6040513d5f823e3d90fd5b60046040517f0c6ab203000000000000000000000000000000000000000000000000000000008152fd5b346103ba575f6003193601126103ba5760405180600c5480835260208093018091600c5f527fdf6966c971051c3d54ec59162606531493a51404a002842f56009d7e5cf4a8c7905f5b868282106106265786866105e7828803836136aa565b60405192839281840190828552518091526040840192915f5b82811061060f57505050500390f35b835185528695509381019392810192600101610600565b8354855290930192600192830192016105d1565b346103ba575f6003193601126103ba57602073ffffffffffffffffffffffffffffffffffffffff600d5416604051908152f35b346103ba575f6003193601126103ba576020610687613a19565b6040519015158152f35b346103ba575f6003193601126103ba5760206040517f65d7a28e3265b37a6474929f336521b332c1681b933f6cb9f3376673440d862a8152f35b346103ba5760206003193601126103ba576004355f52600b602052608060405f2073ffffffffffffffffffffffffffffffffffffffff8154169060018101549060ff6003600283015492015416916040519384526020840152604083015215156060820152f35b346103ba575f6003193601126103ba576020600454604051908152f35b346103ba575f6003193601126103ba5760206040516127108152f35b346103ba5760406003193601126103ba576107c760043561078a6135e1565b90805f527f02dd7bc7dec4dceedda775e58dd541e08a116c6c53815c0bd028192f7b6268006020526107c2600160405f200154613f72565b6143a6565b005b346103ba5760406003193601126103ba576107e26135be565b6024356107ed613dbc565b73ffffffffffffffffffffffffffffffffffffffff9081831690815f52600160205260405f20928354161561055e576126ac918160088501557f5813235528d9bfc726c4ffa2f6e0ad329d24b145b1b79aaa1b7be6699d31d66f6020604051848152a210908161089e575b5061085f57005b6040516107c79161086f8261368e565b600a82527f4c6f7720757074696d65000000000000000000000000000000000000000000006020830152613a5d565b60ff91506009015460081c161582610858565b346103ba5760206003193601126103ba57600435600c548110156103ba576108da602091613895565b90546040519160031b1c8152f35b346103ba575f6003193601126103ba57610900613c96565b335f5260206001815260405f209073ffffffffffffffffffffffffffffffffffffffff91828154161561055e57600981019081549360ff8560081c16610ad4575f9260ff196001869401549616905561095833614446565b3381600654161480610ac9575b610a87575b8254166044604051809481937fa9059cbb0000000000000000000000000000000000000000000000000000000083523360048401528860248401525af1908115610553575f91610a6a575b5015610a0c577ff30566b6d5b4cee577f40701796dc3a8b610c4ca3ad23e1e15018d3ce5ed0f51906040519283523392a260017f9b779b17422d0df92223018b32b4d1fa46e071723d6817e2486d003becc55f0055005b606490604051907f08c379a00000000000000000000000000000000000000000000000000000000082526004820152601360248201527f5374616b652072657475726e206661696c6564000000000000000000000000006044820152fd5b610a819150823d841161054c5761053e81836136aa565b836109b5565b610ac4604051610a968161368e565b601381527f4c656164657220756e726567697374657265640000000000000000000000000084820152613b47565b61096a565b506003541515610965565b60046040517f770035a9000000000000000000000000000000000000000000000000000000008152fd5b346103ba5760206003193601126103ba576004356003548110156103ba5773ffffffffffffffffffffffffffffffffffffffff610b3c6020926138ca565b90549060031b1c16604051908152f35b346103ba5760206003193601126103ba5760043567ffffffffffffffff81116103ba57610b9e7fa8bfc00a82dac609a5575e0d4bf2d4f2284be6d96c469bef935e1f8319277f4b913690600401613590565b9190610ba8613ea9565b73ffffffffffffffffffffffffffffffffffffffff600d54740100000000000000000000000000000000000000007fffffffffffffffffffffff00ffffffffffffffffffffffffffffffffffffffff821617600d551692837fffffffffffffffffffffffff00000000000000000000000000000000000000006006541617600655610c406040519283926020845260208401916139a5565b0390a2005b346103ba5760606003193601126103ba57610c5e6135be565b610c666135e1565b9060443573ffffffffffffffffffffffffffffffffffffffff8082168092036103ba577ff0c57e16840df040f15088dc2f81fe391c3923bec73e23a9662efc9c229c6a0093845460ff8160401c16159467ffffffffffffffff821680159081610ede575b6001149081610ed4575b159081610ecb575b50610ea157818660017fffffffffffffffffffffffffffffffffffffffffffffffff0000000000000000610db49516178955610e6c575b50610d1c61455f565b610d2461455f565b610d2c61455f565b610d3461455f565b7fcd5ed15c6e187e77e9aee88184c21f4f2182ab5827cb3b7e07fbedcd63f0330060ff198154169055610d6561455f565b610d6d61455f565b60017f9b779b17422d0df92223018b32b4d1fa46e071723d6817e2486d003becc55f0055610d9a81613fb3565b50610da481614070565b50610dae81614150565b50614229565b50167fffffffffffffffffffffffff00000000000000000000000000000000000000005f5416175f557fffffffffffffffffffffff000000000000000000000000000000000000000000600d541617600d5560016004555f60055543600755610e1957005b7fffffffffffffffffffffffffffffffffffffffffffffff00ffffffffffffffff81541690557fc7f505b2f371ae2175ee4913f4499e1f2633a7b5936321eed1cdaeb6115181d2602060405160018152a1005b7fffffffffffffffffffffffffffffffffffffffffffffff000000000000000000166801000000000000000117875587610d13565b60046040517ff92ee8a9000000000000000000000000000000000000000000000000000000008152fd5b90501588610cdc565b303b159150610cd4565b879150610cca565b346103ba5760206003193601126103ba576004356002548110156103ba5773ffffffffffffffffffffffffffffffffffffffff60209160025f527f405787fa12a823e0f2b7631cc41b3ba8828b3321ca811111fa75cd3aa3bb5ace015416604051908152f35b346103ba575f6003193601126103ba576020600554604051908152f35b346103ba575f6003193601126103ba5760206040517f725346f2674e7a610d0ae6e19dd9b45a4380674de24b5ed8476a591399281da38152f35b346103ba5760206003193601126103ba5760043567ffffffffffffffff81116103ba57610fe9610fda6107c7923690600401613590565b610fe2613f17565b369161380b565b613b47565b346103ba575f6003193601126103ba5760206040516126ac8152f35b346103ba5761101836613841565b9192611022613dbc565b73ffffffffffffffffffffffffffffffffffffffff9283821694855f52600160205260405f20858154161561055e57600181018054906113889687830297838904148315171561049b577fcc817284fab3dfe3c62527ca8ce8422341f7c4de74cb5529241b96d4b2937b438a967f13694938dd2e03b0abb17f2892c27096ceb14ef30cc3084fc683d0166224deb4966110f78994600760a0996110ce6111769f6127109004809b6138ff565b809955016110dc815461390c565b905560405193849384526040602085015260408401916139a5565b0390a260405191825260606020830152601660608301527f496e76616c696420626c6f636b2070726f64756365640000000000000000000060808301526040820152a2604051906111478261368e565b600d82527f496e76616c696420626c6f636b000000000000000000000000000000000000006020830152613a5d565b600654161461118157005b6107c76040516111908161368e565b601d81527f4c65616465722070726f647563656420696e76616c696420626c6f636b0000006020820152613b47565b346103ba5760206003193601126103ba576107c7613ea9565b346103ba5760606003193601126103ba576111f16135be565b60248035906111fe613dbc565b611206613c41565b73ffffffffffffffffffffffffffffffffffffffff80931692835f5260019360209285845260405f2090838254161561055e5760ff9060099160ff6009850154161561155057856006541685141580611540575b611516576003944286860155886004860155600580950161127b815461390c565b9055805f52600988524260405f205588600a556004545f527f5616d214d2bb1d57e77ffdf77a24c65cd38fc0a6358d21c7f3ae8238cea9c2b4606060089a60088b52600460405f20016112ce815461390c565b9055604051908152428b8201526044356040820152a26007546064810180911161049b574310158061150c575b61130157005b8454156114e2576004545f526008875260405f20436002820155600681018a60ff19825416179055846113378b830154436138ff565b6004830154808211156114d95761134d916138ff565b915b01558560065416978454938a850180951161049b578761137f6113778998978e9a5490613b10565b8088556138ca565b905490881b1c169a5b61143e575b505050505050506113dc90841693847fffffffffffffffffffffffff00000000000000000000000000000000000000006006541617600655436007556113d460045461390c565b600455613cf0565b7f79137f4c48cf8ba36b8b2aac69e26a0fc6cf6b300f7e872d7dda33355e312f806080600454926040805191438352820152600b60408201527f526f756e642d726f62696e0000000000000000000000000000000000000000006060820152a4005b909192939495998781165f528a8952838260405f200154841c16806114cf575b156114c9575084548a810180911161149d57908761148d6114858d979695948a5490613b10565b8089556138ca565b905490891b1c169a969594611388565b847f4e487b71000000000000000000000000000000000000000000000000000000005f5260116004525ffd5b9961138d565b508a87541161145e565b50505f9161134f565b60046040517f8e76f426000000000000000000000000000000000000000000000000000000008152fd5b50888554116112fb565b60046040517f3d9fe98b000000000000000000000000000000000000000000000000000000008152fd5b5060ff600d5460a01c161561125a565b60046040517fb40cd6a2000000000000000000000000000000000000000000000000000000008152fd5b346103ba575f6003193601126103ba576115d76040516115998161368e565b600581527f352e302e30000000000000000000000000000000000000000000000000000000602082015260405191829160208352602083019061378e565b0390f35b346103ba575f6003193601126103ba57602073ffffffffffffffffffffffffffffffffffffffff60065416604051908152f35b346103ba5760206003193601126103ba5773ffffffffffffffffffffffffffffffffffffffff61163c6135be565b5f6101a060405161164c81613655565b8281528260208201528260408201528260608201528260808201528260a08201528260c08201528260e08201528261010082015282610120820152826101408201528261016082015260606101808201520152165f52600160205260405f20600c604051916116ba83613655565b73ffffffffffffffffffffffffffffffffffffffff815416835260018101546020840152600281015460408401526003810154606084015260048101546080840152600581015460a0840152600681015460c0840152600781015460e0840152600881015461010084015260ff6009820154818116151561012086015260081c161515610140840152600a81015461016084015261175a600b82016136eb565b61018084015201546101a082015260405180916020825273ffffffffffffffffffffffffffffffffffffffff8151166020830152602081015160408301526040810151606083015260608101516080830152608081015160a083015260a081015160c083015260c081015160e083015260e0810151610100830152610100810151610120830152610120810151151561014083015261014081015115156101608301526101608101516101808301526101808101516101a06118296101c09283838701526101e086019061378e565b920151908301520390f35b346103ba575f6003193601126103ba5760206040516103e88152f35b346103ba575f6003193601126103ba5760206040515f8152f35b346103ba5761187836613841565b611880613f17565b73ffffffffffffffffffffffffffffffffffffffff9182851691825f52600160205260405f20938454161561055e5769152d02c7e14af6800000946119277f13694938dd2e03b0abb17f2892c27096ceb14ef30cc3084fc683d0166224deb493600760018801978854948581115f1461197657506118fe85806138ff565b8099550161190c815461390c565b905560405193849384526060602085015260608401916139a5565b8560408301520390a21061193757005b6040516107c7916119478261368e565b601382527f5374616b652062656c6f77206d696e696d756d000000000000000000000000006020830152613a5d565b6118fe9080966138ff565b346103ba5760206003193601126103ba5761199a6139e3565b506004355f5260086020526115d760405f2060ff6006604051926119bd84613672565b80548452600181015460208501526002810154604085015273ffffffffffffffffffffffffffffffffffffffff600382015416606085015260048101546080850152600581015460a0850152015416151560c08201526040519182918291909160c08060e083019480518452602081015160208501526040810151604085015273ffffffffffffffffffffffffffffffffffffffff60608201511660608501526080810151608085015260a081015160a085015201511515910152565b346103ba575f6003193601126103ba57611a92613ea9565b7fffffffffffffffffffffff00ffffffffffffffffffffffffffffffffffffffff600d5416600d55600354611ae8575b7f70b9dcaceb756943ac1a4f48b8df9ea82fbb012b87e405cba4ed77d1ded0df415f80a1005b73ffffffffffffffffffffffffffffffffffffffff611b086005546138ca565b90549060031b1c167fffffffffffffffffffffffff00000000000000000000000000000000000000006006541617600655611ac2565b346103ba5760406003193601126103ba57611b576135e1565b6004355f527f02dd7bc7dec4dceedda775e58dd541e08a116c6c53815c0bd028192f7b62680060205273ffffffffffffffffffffffffffffffffffffffff60405f2091165f52602052602060ff60405f2054166040519015158152f35b346103ba575f6003193601126103ba575f5b600c548110156107c757611bd981613895565b919054600392831b1c5f52602091600b835260ff60405f209182015416159081611d44575b50611c0e575b6001915001611bc6565b73ffffffffffffffffffffffffffffffffffffffff91600690838254165f52600180825260405f20908101908154906101f49182810292818404148115171561049b57600197611d3f96600760c094611c8d6127107f13694938dd2e03b0abb17f2892c27096ceb14ef30cc3084fc683d0166224deb4980480966138ff565b80985501611c9b815461390c565b9055541693602460405192606090845280888501528301527f43656e736f7273686970202d20666f72636520696e636c7573696f6e2074696d60808301527f656f75740000000000000000000000000000000000000000000000000000000060a08301526040820152a27f466f72636520696e636c7573696f6e2074696d656f757400000000000000000060405191611d338361368e565b60178352820152613b47565b611c04565b6002915001546032810180911161049b5743101583611bfe565b346103ba5760206003193601126103ba5773ffffffffffffffffffffffffffffffffffffffff611d8c6135be565b611d94613ea9565b167fffffffffffffffffffffffff0000000000000000000000000000000000000000600d541617600d555f80f35b346103ba575f6003193601126103ba57611dda613e4e565b611de2613c41565b7fcd5ed15c6e187e77e9aee88184c21f4f2182ab5827cb3b7e07fbedcd63f03300600160ff198254161790557f62e78cea01bee320cd4e420270b5ea74000d11b0c9f74754ebdbfc544b05a2586020604051338152a1005b346103ba5760206003193601126103ba576004355f52600860205260e060405f20805490600181015490600281015473ffffffffffffffffffffffffffffffffffffffff60038301541660048301549160ff600660058601549501541694604051968752602087015260408601526060850152608084015260a0830152151560c0820152f35b346103ba5760206003193601126103ba57611ed96135be565b73ffffffffffffffffffffffffffffffffffffffff80821691825f52600160205260405f20918254161561055e5760098201805460ff8160081c161561201c57600a84019384544210611fbe57600169152d02c7e14af680000091015410611f94577fffffffffffffffffffffffffffffffffffffffffffffffffffffffffffff00006001915f611f6e965516179055613951565b7f566f71043714a122b7f765dcfa4cd820776e3e2acf7492455840d88e163f6f3d5f80a2005b60046040517ff1bc94d2000000000000000000000000000000000000000000000000000000008152fd5b60646040517f08c379a000000000000000000000000000000000000000000000000000000000815260206004820152601560248201527f4a61696c20706572696f64206e6f7420656e64656400000000000000000000006044820152fd5b60646040517f08c379a000000000000000000000000000000000000000000000000000000000815260206004820152600a60248201527f4e6f74206a61696c6564000000000000000000000000000000000000000000006044820152fd5b346103ba575f6003193601126103ba57602060ff7fcd5ed15c6e187e77e9aee88184c21f4f2182ab5827cb3b7e07fbedcd63f0330054166040519015158152f35b346103ba575f6003193601126103ba5773ffffffffffffffffffffffffffffffffffffffff7f00000000000000000000000000000000000000000000000000000000000000001630036121325760206040517f360894a13ba1a3210667c828492db98dca3e2076cc3735a920a3ca505d382bbc8152f35b60046040517fe07c8dba000000000000000000000000000000000000000000000000000000008152fd5b60406003193601126103ba576121706135be565b60243567ffffffffffffffff81116103ba57366023820112156103ba576121a190369060248160040135910161380b565b9073ffffffffffffffffffffffffffffffffffffffff807f0000000000000000000000000000000000000000000000000000000000000000168030149081156123f9575b50612132576121f2613ea9565b811690604051907f52d1902d0000000000000000000000000000000000000000000000000000000082526020918281600481875afa5f91816123ca575b5061226557602484604051907f4c9c8ce30000000000000000000000000000000000000000000000000000000082526004820152fd5b9284937f360894a13ba1a3210667c828492db98dca3e2076cc3735a920a3ca505d382bbc908181036123995750823b1561236857817fffffffffffffffffffffffff0000000000000000000000000000000000000000825416179055604051907fbc7cd75a20ee27fd9adebab32041f755214dbc6bffa90cc0225b39da2e5c2d3b5f80a283511561233557505f8084846107c796519101845af4903d1561232c573d612310816137d1565b9061231e60405192836136aa565b81525f81943d92013e6145b8565b606092506145b8565b925050503461234057005b807fb398979f0000000000000000000000000000000000000000000000000000000060049252fd5b602482604051907f4c9c8ce30000000000000000000000000000000000000000000000000000000082526004820152fd5b602490604051907faa1d49a40000000000000000000000000000000000000000000000000000000082526004820152fd5b9091508381813d83116123f2575b6123e281836136aa565b810103126103ba5751908661222f565b503d6123d8565b9050817f360894a13ba1a3210667c828492db98dca3e2076cc3735a920a3ca505d382bbc54161415846121e5565b346103ba575f6003193601126103ba5761243f6139e3565b506004545f5260086020526115d760405f2060ff6006604051926119bd84613672565b346103ba576020806003193601126103ba57600435805f52600b8252600260405f2001546125ec57604051608081019080821067ffffffffffffffff8311176125bf576125339160405233815260038482018481526040830143815260608401915f8352865f52600b885273ffffffffffffffffffffffffffffffffffffffff60405f209551167fffffffffffffffffffffffff000000000000000000000000000000000000000086541617855551600185015551600284015551151591019060ff60ff1983541691151516179055565b600c54680100000000000000008110156125bf5761259061255b826001859401600c55613895565b81939154907fffffffffffffffffffffffffffffffffffffffffffffffffffffffffffffffff9060031b92831b921b19161790565b90557fd3d4f440600d6cecf15d54393430dd55f4da1c59574d2dc0c840555d7f1e204b604051924384523393a3005b7f4e487b71000000000000000000000000000000000000000000000000000000005f52604160045260245ffd5b606482604051907f08c379a00000000000000000000000000000000000000000000000000000000082526004820152601160248201527f416c7265616479207265717565737465640000000000000000000000000000006044820152fd5b346103ba575f6003193601126103ba5760206040516113888152f35b346103ba575f6003193601126103ba57602060405160648152f35b346103ba575f6003193601126103ba57612699613e4e565b7fcd5ed15c6e187e77e9aee88184c21f4f2182ab5827cb3b7e07fbedcd63f03300805460ff8116156126f75760ff191690557f5db9ee0a495bf2e6ff9c91a7834c1ba4fdd244a5e8aa4e537bd38aeae4b073aa6020604051338152a1005b60046040517f8dfc202b000000000000000000000000000000000000000000000000000000008152fd5b346103ba575f6003193601126103ba57335f52600160205260405f2073ffffffffffffffffffffffffffffffffffffffff8154161561055e576009015460ff161561155057335f5260096020524260405f20555f80f35b346103ba5760406003193601126103ba576127916135e1565b3373ffffffffffffffffffffffffffffffffffffffff8216036127ba576107c7906004356143a6565b60046040517f6697b232000000000000000000000000000000000000000000000000000000008152fd5b346103ba5760406003193601126103ba576004356024612802613dbc565b815f52600b60205260405f206002810154156129695760038091019060019282600160ff19869554161790555f935b612865575b847fd621e20c6f1132356ca940462c937c3f11ca256a67fa3d3229f6c834da9db9da60206040516024358152a2005b600c805480861015612962578661287b87613895565b905490861b1c146128925750508280940193612831565b92949093507fffffffffffffffffffffffffffffffffffffffffffffffffffffffffffffffff928381019081116129365761255b6128d26128de92613895565b905490881b1c92613895565b9055825490811561290b57508101926128f684613895565b81939154921b1b191690555581808080612836565b7f4e487b71000000000000000000000000000000000000000000000000000000005f5260316004525ffd5b827f4e487b71000000000000000000000000000000000000000000000000000000005f5260116004525ffd5b5050612836565b60646040517f08c379a000000000000000000000000000000000000000000000000000000000815260206004820152601160248201527f52657175657374206e6f7420666f756e640000000000000000000000000000006044820152fd5b346103ba5760406003193601126103ba576107c76004356129e66135e1565b90805f527f02dd7bc7dec4dceedda775e58dd541e08a116c6c53815c0bd028192f7b626800602052612a1e600160405f200154613f72565b614302565b346103ba575f6003193601126103ba576020600754604051908152f35b346103ba575f6003193601126103ba57602060405160328152f35b346103ba575f6003193601126103ba57602060405169152d02c7e14af68000008152f35b346103ba575f6003193601126103ba576020600a54604051908152f35b346103ba5760206003193601126103ba576004355f527f02dd7bc7dec4dceedda775e58dd541e08a116c6c53815c0bd028192f7b6268006020526020600160405f200154604051908152f35b346103ba5760206003193601126103ba5773ffffffffffffffffffffffffffffffffffffffff612b166135be565b165f526009602052602060405f2054604051908152f35b346103ba5760206003193601126103ba5773ffffffffffffffffffffffffffffffffffffffff80612b5c6135be565b165f52600160205260405f20908154166001820154906002830154926003810154916004820154600583015460068401546007850154600886015491600987015493600a88015495600b8901612bb1906136eb565b98600c0154996040519c8d9c8d6101c09b81526020015260408d015260608c015260808b015260a08a015260c089015260e088015261010087015260ff8116151561012087015260081c60ff161515610140860152610160850152806101808501528301612c1e9161378e565b906101a08301520390f35b346103ba5760606003193601126103ba5760243567ffffffffffffffff81116103ba57612c5a903690600401613590565b90612c63613c41565b612c6b613c96565b335f52600160205273ffffffffffffffffffffffffffffffffffffffff60405f2054166132235769152d02c7e14af680000060043510611f94575f80546040517f23b872dd0000000000000000000000000000000000000000000000000000000081523360048083019190915230602483015235604482015291602091839160649183919073ffffffffffffffffffffffffffffffffffffffff165af1908115610553575f91613204575b50156131a657604051612d2881613655565b33815260043560208201524260408201524260608201524360808201525f60a08201525f60c08201525f60e082015261271061010082015260016101208201525f6101408201525f610160820152612d8136848461380b565b6101808201526044356101a0820152335f52600160205260405f209073ffffffffffffffffffffffffffffffffffffffff8151167fffffffffffffffffffffffff00000000000000000000000000000000000000008354161782556020810151600183015560408101516002830155606081015160038301556080810151600483015560a0810151600583015560c0810151600683015560e08101516007830155610100810151600883015560098201612e4f6101208301511515829060ff60ff1983541691151516179055565b61014082015181547fffffffffffffffffffffffffffffffffffffffffffffffffffffffffffff00ff1690151560081b61ff0016179055610160810151600a83015561018081015180519067ffffffffffffffff82116125bf57612eb6600b850154613604565b601f811161315e575b50602090601f8311600114613091579180600c94926101a0945f92613086575b50507fffffffffffffffffffffffffffffffffffffffffffffffffffffffffffffffff8260011b9260031b1c191617600b8501555b0151910155600254680100000000000000008110156125bf576001810180600255811015613059577f21cc56a8858f14905dc4305357f54d29c136580aecd1b3f7882590512a530e4c91612fec9160025f527f405787fa12a823e0f2b7631cc41b3ba8828b3321ca811111fa75cd3aa3bb5ace01337fffffffffffffffffffffffff0000000000000000000000000000000000000000825416179055612fb933613951565b335f5260096020524260405f2055600160035414613021575b6040519360043585526060602086015260608501916139a5565b9160443560408201528033930390a260017f9b779b17422d0df92223018b32b4d1fa46e071723d6817e2486d003becc55f0055005b337fffffffffffffffffffffffff0000000000000000000000000000000000000000600654161760065561305433613cf0565b612fd2565b7f4e487b71000000000000000000000000000000000000000000000000000000005f52603260045260245ffd5b015190508880612edf565b90600b85015f5260205f20915f5b7fffffffffffffffffffffffffffffffffffffffffffffffffffffffffffffffe085168110613146575092600c94926001926101a095837fffffffffffffffffffffffffffffffffffffffffffffffffffffffffffffffe081161061310f575b505050811b01600b850155612f14565b01517fffffffffffffffffffffffffffffffffffffffffffffffffffffffffffffffff60f88460031b161c191690558880806130ff565b9192602060018192868501518155019401920161309f565b600b85015f5260205f20601f840160051c8101916020851061319c575b601f0160051c01905b8181106131915750612ebf565b5f8155600101613184565b909150819061317b565b60646040517f08c379a000000000000000000000000000000000000000000000000000000000815260206004820152601560248201527f5374616b65207472616e73666572206661696c656400000000000000000000006044820152fd5b61321d915060203d60201161054c5761053e81836136aa565b83612d16565b60046040517f9a30fa67000000000000000000000000000000000000000000000000000000008152fd5b346103ba575f6003193601126103ba57602073ffffffffffffffffffffffffffffffffffffffff5f5416604051908152f35b346103ba575f6003193601126103ba57600354156114e25773ffffffffffffffffffffffffffffffffffffffff80600654165f52600160205260405f206132ca6004820154436138ff565b90600a821061344d5760018101918254936103e880860290868204148615171561049b577f286952bd7df13c7ac4471e7b8cb2efb504f22a9a6fc2dd487ffaa8bbca192333956003956040947f13694938dd2e03b0abb17f2892c27096ceb14ef30cc3084fc683d0166224deb49461334961271060a0960480956138ff565b8093556007600689019861335d8a5461390c565b809a550161336b815461390c565b90556006541698868a9792889351908152856020820152a260405191825260606020830152601c60608301527f54696d656f7574202d206e6f20626c6f636b732070726f64756365640000000060808301526040820152a21015613408575b6107c76040516133d98161368e565b601081527f54696d656f7574206465746563746564000000000000000000000000000000006020820152613b47565b604051613447916134188261368e565b601182527f4d756c7469706c652074696d656f7574730000000000000000000000000000006020830152613a5d565b806133ca565b60046040517f9b0056ac000000000000000000000000000000000000000000000000000000008152fd5b346103ba575f6003193601126103ba57602060ff600d5460a01c166040519015158152f35b346103ba575f6003193601126103ba5760206040517f68e79a7bf1e0bc45d0a330c573bc367f9cf464fd326078812f301165fbda4ef18152f35b346103ba5760206003193601126103ba576004357fffffffff0000000000000000000000000000000000000000000000000000000081168091036103ba57807f7965db0b000000000000000000000000000000000000000000000000000000006020921490811561354d575b506040519015158152f35b7f01ffc9a70000000000000000000000000000000000000000000000000000000091501482613542565b346103ba575f6003193601126103ba5780600a60209252f35b9181601f840112156103ba5782359167ffffffffffffffff83116103ba57602083818601950101116103ba57565b6004359073ffffffffffffffffffffffffffffffffffffffff821682036103ba57565b6024359073ffffffffffffffffffffffffffffffffffffffff821682036103ba57565b90600182811c9216801561364b575b602083101461361e57565b7f4e487b71000000000000000000000000000000000000000000000000000000005f52602260045260245ffd5b91607f1691613613565b6101c0810190811067ffffffffffffffff8211176125bf57604052565b60e0810190811067ffffffffffffffff8211176125bf57604052565b6040810190811067ffffffffffffffff8211176125bf57604052565b90601f7fffffffffffffffffffffffffffffffffffffffffffffffffffffffffffffffe0910116810190811067ffffffffffffffff8211176125bf57604052565b9060405191825f82546136fd81613604565b908184526020946001916001811690815f1461376b575060011461372d575b50505061372b925003836136aa565b565b5f90815285812095935091905b81831061375357505061372b93508201015f808061371c565b8554888401850152948501948794509183019161373a565b91505061372b95935060ff1991501682840152151560051b8201015f808061371c565b907fffffffffffffffffffffffffffffffffffffffffffffffffffffffffffffffe0601f602080948051918291828752018686015e5f8582860101520116010190565b67ffffffffffffffff81116125bf57601f017fffffffffffffffffffffffffffffffffffffffffffffffffffffffffffffffe01660200190565b929192613817826137d1565b9161382560405193846136aa565b8294818452818301116103ba578281602093845f960137010152565b60606003198201126103ba5760043573ffffffffffffffffffffffffffffffffffffffff811681036103ba5791602435916044359067ffffffffffffffff82116103ba5761389191600401613590565b9091565b600c5481101561305957600c5f527fdf6966c971051c3d54ec59162606531493a51404a002842f56009d7e5cf4a8c701905f90565b6003548110156130595760035f527fc2575a0e9e593c00f959f8c92f12db2869c3395a3b0502d05e2516446f71f85b01905f90565b9190820391821161049b57565b7fffffffffffffffffffffffffffffffffffffffffffffffffffffffffffffffff811461049b5760010190565b908160209103126103ba575180151581036103ba5790565b60035490680100000000000000008210156125bf5761397982600161372b94016003556138ca565b90919073ffffffffffffffffffffffffffffffffffffffff8084549260031b9316831b921b1916179055565b601f82602094937fffffffffffffffffffffffffffffffffffffffffffffffffffffffffffffffe093818652868601375f8582860101520116010190565b604051906139f082613672565b5f60c0838281528260208201528260408201528260608201528260808201528260a08201520152565b60035415613a595773ffffffffffffffffffffffffffffffffffffffff600654165f526001602052600a613a54600460405f200154436138ff565b101590565b5f90565b73ffffffffffffffffffffffffffffffffffffffff811691825f52600160205260405f20600981016101007fffffffffffffffffffffffffffffffffffffffffffffffffffffffffffff00ff82541617905562093a8042019081421161049b577f3ec2a26a57c92fe5d1a8f7d1a2dcbb93671e3f3c9ef7dd9bcadebd917a6b5c9793600a613aee9201928355614446565b54613b0b604051928392835260406020840152604083019061378e565b0390a2565b8115613b1a570690565b7f4e487b71000000000000000000000000000000000000000000000000000000005f52601260045260245ffd5b600354156114e25773ffffffffffffffffffffffffffffffffffffffff8060065416906004545f526008602052600660405f204360028201550160ff1981541690556005546001810180911161049b5781613bb4613bab613bf59360035490613b10565b806005556138ca565b90549060031b1c16807fffffffffffffffffffffffff00000000000000000000000000000000000000006006541617600655436007556113d460045461390c565b7f79137f4c48cf8ba36b8b2aac69e26a0fc6cf6b300f7e872d7dda33355e312f80613c3c60045492600654169460405191829143835260406020840152604083019061378e565b0390a4565b60ff7fcd5ed15c6e187e77e9aee88184c21f4f2182ab5827cb3b7e07fbedcd63f033005416613c6c57565b60046040517fd93c0665000000000000000000000000000000000000000000000000000000008152fd5b7f9b779b17422d0df92223018b32b4d1fa46e071723d6817e2486d003becc55f006002815414613cc65760029055565b60046040517f3ee5aeb5000000000000000000000000000000000000000000000000000000008152fd5b61372b90600660045460405192613d0684613672565b818452602084019043825260408501905f8252606086019073ffffffffffffffffffffffffffffffffffffffff809116825260808701925f845260a08801945f865260c08901965f88525f52600860205260405f2098518955516001890155516002880155600387019151167fffffffffffffffffffffffff000000000000000000000000000000000000000082541617905551600485015551600584015551151591019060ff60ff1983541691151516179055565b335f9081527f0b45fb0a7d123af421db170fce034e3ce3a70e5f1150428004face1400c458f260205260409020547f68e79a7bf1e0bc45d0a330c573bc367f9cf464fd326078812f301165fbda4ef19060ff1615613e175750565b604490604051907fe2517d3f0000000000000000000000000000000000000000000000000000000082523360048301526024820152fd5b335f9081527f75442b0a96088b5456bc4ed01394c96a4feec0f883c9494257d76b96ab1c9b6b60205260409020547f65d7a28e3265b37a6474929f336521b332c1681b933f6cb9f3376673440d862a9060ff1615613e175750565b335f9081527fb7db2dd08fcb62d0c9e08c51941cae53c267786a0b75803fb7960902fc8ef97d602052604090205460ff1615613ee157565b60446040517fe2517d3f0000000000000000000000000000000000000000000000000000000081523360048201525f6024820152fd5b335f9081527fc157d408da348139bf70cfd0baf22a48779057d99f6df6b2706ae8add81bdb7360205260409020547f725346f2674e7a610d0ae6e19dd9b45a4380674de24b5ed8476a591399281da39060ff1615613e175750565b805f527f02dd7bc7dec4dceedda775e58dd541e08a116c6c53815c0bd028192f7b62680060205260405f20335f5260205260ff60405f20541615613e175750565b73ffffffffffffffffffffffffffffffffffffffff165f8181527fb7db2dd08fcb62d0c9e08c51941cae53c267786a0b75803fb7960902fc8ef97d60205260409020547f02dd7bc7dec4dceedda775e58dd541e08a116c6c53815c0bd028192f7b6268009060ff1661406a575f805260205260405f20815f5260205260405f20600160ff1982541617905533905f7f2f8788117e7eff1d82e926ec794901d17c78024a50270940304540a733656f0d8180a4600190565b50505f90565b73ffffffffffffffffffffffffffffffffffffffff165f8181527f75442b0a96088b5456bc4ed01394c96a4feec0f883c9494257d76b96ab1c9b6b60205260409020547f65d7a28e3265b37a6474929f336521b332c1681b933f6cb9f3376673440d862a91907f02dd7bc7dec4dceedda775e58dd541e08a116c6c53815c0bd028192f7b6268009060ff1661414957825f5260205260405f20815f5260205260405f20600160ff1982541617905533917f2f8788117e7eff1d82e926ec794901d17c78024a50270940304540a733656f0d5f80a4600190565b5050505f90565b73ffffffffffffffffffffffffffffffffffffffff165f8181527fc157d408da348139bf70cfd0baf22a48779057d99f6df6b2706ae8add81bdb7360205260409020547f725346f2674e7a610d0ae6e19dd9b45a4380674de24b5ed8476a591399281da391907f02dd7bc7dec4dceedda775e58dd541e08a116c6c53815c0bd028192f7b6268009060ff1661414957825f5260205260405f20815f5260205260405f20600160ff1982541617905533917f2f8788117e7eff1d82e926ec794901d17c78024a50270940304540a733656f0d5f80a4600190565b73ffffffffffffffffffffffffffffffffffffffff165f8181527f0b45fb0a7d123af421db170fce034e3ce3a70e5f1150428004face1400c458f260205260409020547f68e79a7bf1e0bc45d0a330c573bc367f9cf464fd326078812f301165fbda4ef191907f02dd7bc7dec4dceedda775e58dd541e08a116c6c53815c0bd028192f7b6268009060ff1661414957825f5260205260405f20815f5260205260405f20600160ff1982541617905533917f2f8788117e7eff1d82e926ec794901d17c78024a50270940304540a733656f0d5f80a4600190565b90815f527f02dd7bc7dec4dceedda775e58dd541e08a116c6c53815c0bd028192f7b6268008060205273ffffffffffffffffffffffffffffffffffffffff60405f20921691825f5260205260ff60405f205416155f1461414957825f5260205260405f20815f5260205260405f20600160ff1982541617905533917f2f8788117e7eff1d82e926ec794901d17c78024a50270940304540a733656f0d5f80a4600190565b90815f527f02dd7bc7dec4dceedda775e58dd541e08a116c6c53815c0bd028192f7b6268008060205273ffffffffffffffffffffffffffffffffffffffff60405f20921691825f5260205260ff60405f2054165f1461414957825f5260205260405f20815f5260205260405f2060ff19815416905533917ff6391f5c32d9c69d2a47ea670b442974b53935d1edc7fd64eb21e047a839171b5f80a4600190565b5f5b6003805490818310156145595761445e836138ca565b919073ffffffffffffffffffffffffffffffffffffffff9283915490831b1c168286161461449157505050600101614448565b90919293507fffffffffffffffffffffffffffffffffffffffffffffffffffffffffffffffff9283810190811161049b57826144cf6144df926138ca565b905490841b1c16613979866138ca565b8054801561452c578301916144f3836138ca565b9091825491841b1b191690555560059182548091111580614523575b61451857505050565b801561049b57019055565b5080151561450f565b7f4e487b71000000000000000000000000000000000000000000000000000000005f52603160045260245ffd5b50505050565b60ff7ff0c57e16840df040f15088dc2f81fe391c3923bec73e23a9662efc9c229c6a005460401c161561458e57565b60046040517fd7e6bcf8000000000000000000000000000000000000000000000000000000008152fd5b906145f757508051156145cd57805190602001fd5b60046040517f1425ea42000000000000000000000000000000000000000000000000000000008152fd5b8151158061464f575b614608575090565b60249073ffffffffffffffffffffffffffffffffffffffff604051917f9996b315000000000000000000000000000000000000000000000000000000008352166004820152fd5b50803b1561460056fea2646970667358221220215bee8d6a42c6e91e4ffc5cd8317c939f74a393f65b6fc6b5761081f533a0aa64736f6c63430008190033","linkReferences":{}},"methodIdentifiers":{"BASIS_POINTS()":"e1f1c4a7","BLOCKS_PER_ROTATION()":"42c689bf","DEFAULT_ADMIN_ROLE()":"a217fddf","FORCE_INCLUSION_TIMEOUT()":"2d151ab1","MIN_STAKE_AMOUNT()":"27ed7188","MIN_UPTIME_PERCENTAGE()":"b3b9ecbe","ORACLE_ROLE()":"07e2cea5","PAUSER_ROLE()":"e63ab1e9","SEQUENCER_MANAGER_ROLE()":"b75b846c","SLASH_PERCENTAGE_INVALID()":"494d0f3d","SLASH_PERCENTAGE_TIMEOUT()":"a99a05e6","TIMEOUT_BLOCKS()":"010cf644","UPGRADE_INTERFACE_VERSION()":"ad3cb1cc","activateEmergencyMode(string)":"c124a247","activeSequencers(uint256)":"c637ef75","andeToken()":"140f021c","checkForceInclusionTimeout()":"8ff83197","checkTimeout()":"09bbd6a0","currentLeader()":"ac4bd53a","currentLeaderIndex()":"b967fccb","currentRotationNumber()":"e26d2d8d","deactivateEmergencyMode()":"99b20eaf","emergencyMode()":"0905f560","emergencySequencer()":"e940e56a","forceInclusionRequests(bytes32)":"e31e08d3","forceRotation(string)":"b6e5c590","getActiveSequencers()":"f4eba842","getCurrentRotation()":"4e89386e","getPendingForceInclusions()":"eeb619e2","getRoleAdmin(bytes32)":"248a9ca3","getRotationInfo(uint256)":"9a91be3c","getSequencerInfo(address)":"aa378a7d","grantRole(bytes32,address)":"2f2ff15d","hasRole(bytes32,address)":"91d14854","heartbeat()":"3defb962","increaseStake(uint256)":"eedad66b","initialize(address,address,address)":"c0c53b8b","isTimeoutReached()":"e908154e","lastBlockNumber()":"2552317c","lastHeartbeat(address)":"2220967e","lastRotationBlock()":"2e9c3bb8","markForceInclusionCompleted(bytes32,uint256)":"32c58b6c","pause()":"8456cb59","paused()":"5c975abb","pendingForceInclusions(uint256)":"ce69ac91","proxiableUUID()":"52d1902d","recordBlockProduced(address,uint256,uint256)":"af210412","registerSequencer(uint256,string,bytes32)":"1a5425c5","renounceRole(bytes32,address)":"36568abe","reportInvalidBlock(address,uint256,string)":"b33d3e19","requestForceInclusion(bytes32)":"49d25f44","revokeRole(bytes32,address)":"d547741f","rotations(uint256)":"657eb44a","sequencerList(uint256)":"be228f92","sequencers(address)":"1c7a07ee","setBlocksPerRotation(uint256)":"b1f602f5","setEmergencySequencer(address)":"8a4c0988","slashSequencer(address,uint256,string)":"a0c8c095","supportsInterface(bytes4)":"01ffc9a7","unjailSequencer(address)":"64de8010","unpause()":"3f4ba83a","unregisterSequencer()":"c90f9e48","updateSequencerUptime(address,uint256)":"d1c6ed55","upgradeToAndCall(address,bytes)":"4f1ef286"},"id":178}