{"abi":[{"type":"function","name":"getNonce","inputs":[{"name":"sender","type":"address","internalType":"address"},{"name":"key","type":"uint192","internalType":"uint192"}],"outputs":[{"name":"nonce","type":"uint256","internalType":"uint256"}],"stateMutability":"view"},{"type":"function","name":"incrementNonce","inputs":[{"name":"key","type":"uint192","internalType":"uint192"}],"outputs":[],"stateMutability":"nonpayable"},{"type":"function","name":"nonceSequenceNumber","inputs":[{"name":"","type":"address","internalType":"address"},{"name":"","type":"uint192","internalType":"uint192"}],"outputs":[{"name":"","type":"uint256","internalType":"uint256"}],"stateMutability":"view"}],"bytecode":{"object":"0x6080806040523460155761019b908161001a8239f35b5f80fdfe6040608081526004361015610012575f80fd5b5f3560e01c80630bd28e3b146100d15780631b2e01b81461008f576335567e1a1461003b575f80fd5b3461008b5760209061004c3661012f565b6001600160a01b039091165f9081528084528281206001600160c01b038316825284528290205482519190921b67ffffffffffffffff19169091178152f35b5f80fd5b503461008b576020906100a13661012f565b6001600160a01b039091165f9081528084528281206001600160c01b039092168152908352819020549051908152f35b503461008b57602036600319011261008b576004356001600160c01b0381169081900361008b57335f525f602052815f20905f526020525f2080545f19811461011b576001019055005b634e487b7160e01b5f52601160045260245ffd5b604090600319011261008b576004356001600160a01b038116810361008b57906024356001600160c01b038116810361008b579056fea26469706673582212202ef2c942744f8caa4f63b612c554566fc45e47b7aadc9a4dadf4c8e7f66a2acd64736f6c63430008190033","linkReferences":{}},"methodIdentifiers":{"getNonce(address,uint192)":"35567e1a","incrementNonce(uint192)":"0bd28e3b","nonceSequenceNumber(address,uint192)":"1b2e01b8"},"id":105}