{"abi":[{"type":"constructor","inputs":[],"stateMutability":"nonpayable"},{"type":"receive","stateMutability":"payable"},{"type":"function","name":"CANCELLER_ROLE","inputs":[],"outputs":[{"name":"","type":"bytes32","internalType":"bytes32"}],"stateMutability":"view"},{"type":"function","name":"DEFAULT_ADMIN_ROLE","inputs":[],"outputs":[{"name":"","type":"bytes32","internalType":"bytes32"}],"stateMutability":"view"},{"type":"function","name":"EXECUTOR_ROLE","inputs":[],"outputs":[{"name":"","type":"bytes32","internalType":"bytes32"}],"stateMutability":"view"},{"type":"function","name":"PROPOSER_ROLE","inputs":[],"outputs":[{"name":"","type":"bytes32","internalType":"bytes32"}],"stateMutability":"view"},{"type":"function","name":"cancel","inputs":[{"name":"id","type":"bytes32","internalType":"bytes32"}],"outputs":[],"stateMutability":"nonpayable"},{"type":"function","name":"execute","inputs":[{"name":"target","type":"address","internalType":"address"},{"name":"value","type":"uint256","internalType":"uint256"},{"name":"payload","type":"bytes","internalType":"bytes"},{"name":"predecessor","type":"bytes32","internalType":"bytes32"},{"name":"salt","type":"bytes32","internalType":"bytes32"}],"outputs":[],"stateMutability":"payable"},{"type":"function","name":"executeBatch","inputs":[{"name":"targets","type":"address[]","internalType":"address[]"},{"name":"values","type":"uint256[]","internalType":"uint256[]"},{"name":"payloads","type":"bytes[]","internalType":"bytes[]"},{"name":"predecessor","type":"bytes32","internalType":"bytes32"},{"name":"salt","type":"bytes32","internalType":"bytes32"}],"outputs":[],"stateMutability":"payable"},{"type":"function","name":"getMinDelay","inputs":[],"outputs":[{"name":"","type":"uint256","internalType":"uint256"}],"stateMutability":"view"},{"type":"function","name":"getOperationState","inputs":[{"name":"id","type":"bytes32","internalType":"bytes32"}],"outputs":[{"name":"","type":"uint8","internalType":"enum TimelockControllerUpgradeable.OperationState"}],"stateMutability":"view"},{"type":"function","name":"getRoleAdmin","inputs":[{"name":"role","type":"bytes32","internalType":"bytes32"}],"outputs":[{"name":"","type":"bytes32","internalType":"bytes32"}],"stateMutability":"view"},{"type":"function","name":"getTimestamp","inputs":[{"name":"id","type":"bytes32","internalType":"bytes32"}],"outputs":[{"name":"","type":"uint256","internalType":"uint256"}],"stateMutability":"view"},{"type":"function","name":"grantRole","inputs":[{"name":"role","type":"bytes32","internalType":"bytes32"},{"name":"account","type":"address","internalType":"address"}],"outputs":[],"stateMutability":"nonpayable"},{"type":"function","name":"hasRole","inputs":[{"name":"role","type":"bytes32","internalType":"bytes32"},{"name":"account","type":"address","internalType":"address"}],"outputs":[{"name":"","type":"bool","internalType":"bool"}],"stateMutability":"view"},{"type":"function","name":"hashOperation","inputs":[{"name":"target","type":"address","internalType":"address"},{"name":"value","type":"uint256","internalType":"uint256"},{"name":"data","type":"bytes","internalType":"bytes"},{"name":"predecessor","type":"bytes32","internalType":"bytes32"},{"name":"salt","type":"bytes32","internalType":"bytes32"}],"outputs":[{"name":"","type":"bytes32","internalType":"bytes32"}],"stateMutability":"pure"},{"type":"function","name":"hashOperationBatch","inputs":[{"name":"targets","type":"address[]","internalType":"address[]"},{"name":"values","type":"uint256[]","internalType":"uint256[]"},{"name":"payloads","type":"bytes[]","internalType":"bytes[]"},{"name":"predecessor","type":"bytes32","internalType":"bytes32"},{"name":"salt","type":"bytes32","internalType":"bytes32"}],"outputs":[{"name":"","type":"bytes32","internalType":"bytes32"}],"stateMutability":"pure"},{"type":"function","name":"initialize","inputs":[{"name":"minDelay","type":"uint256","internalType":"uint256"},{"name":"proposers","type":"address[]","internalType":"address[]"},{"name":"executors","type":"address[]","internalType":"address[]"},{"name":"admin","type":"address","internalType":"address"}],"outputs":[],"stateMutability":"nonpayable"},{"type":"function","name":"isOperation","inputs":[{"name":"id","type":"bytes32","internalType":"bytes32"}],"outputs":[{"name":"","type":"bool","internalType":"bool"}],"stateMutability":"view"},{"type":"function","name":"isOperationDone","inputs":[{"name":"id","type":"bytes32","internalType":"bytes32"}],"outputs":[{"name":"","type":"bool","internalType":"bool"}],"stateMutability":"view"},{"type":"function","name":"isOperationPending","inputs":[{"name":"id","type":"bytes32","internalType":"bytes32"}],"outputs":[{"name":"","type":"bool","internalType":"bool"}],"stateMutability":"view"},{"type":"function","name":"isOperationReady","inputs":[{"name":"id","type":"bytes32","internalType":"bytes32"}],"outputs":[{"name":"","type":"bool","internalType":"bool"}],"stateMutability":"view"},{"type":"function","name":"onERC1155BatchReceived","inputs":[{"name":"","type":"address","internalType":"address"},{"name":"","type":"address","internalType":"address"},{"name":"","type":"uint256[]","internalType":"uint256[]"},{"name":"","type":"uint256[]","internalType":"uint256[]"},{"name":"","type":"bytes","internalType":"bytes"}],"outputs":[{"name":"","type":"bytes4","internalType":"bytes4"}],"stateMutability":"nonpayable"},{"type":"function","name":"onERC1155Received","inputs":[{"name":"","type":"address","internalType":"address"},{"name":"","type":"address","internalType":"address"},{"name":"","type":"uint256","internalType":"uint256"},{"name":"","type":"uint256","internalType":"uint256"},{"name":"","type":"bytes","internalType":"bytes"}],"outputs":[{"name":"","type":"bytes4","internalType":"bytes4"}],"stateMutability":"nonpayable"},{"type":"function","name":"onERC721Received","inputs":[{"name":"","type":"address","internalType":"address"},{"name":"","type":"address","internalType":"address"},{"name":"","type":"uint256","internalType":"uint256"},{"name":"","type":"bytes","internalType":"bytes"}],"outputs":[{"name":"","type":"bytes4","internalType":"bytes4"}],"stateMutability":"nonpayable"},{"type":"function","name":"renounceRole","inputs":[{"name":"role","type":"bytes32","internalType":"bytes32"},{"name":"callerConfirmation","type":"address","internalType":"address"}],"outputs":[],"stateMutability":"nonpayable"},{"type":"function","name":"revokeRole","inputs":[{"name":"role","type":"bytes32","internalType":"bytes32"},{"name":"account","type":"address","internalType":"address"}],"outputs":[],"stateMutability":"nonpayable"},{"type":"function","name":"schedule","inputs":[{"name":"target","type":"address","internalType":"address"},{"name":"value","type":"uint256","internalType":"uint256"},{"name":"data","type":"bytes","internalType":"bytes"},{"name":"predecessor","type":"bytes32","internalType":"bytes32"},{"name":"salt","type":"bytes32","internalType":"bytes32"},{"name":"delay","type":"uint256","internalType":"uint256"}],"outputs":[],"stateMutability":"nonpayable"},{"type":"function","name":"scheduleBatch","inputs":[{"name":"targets","type":"address[]","internalType":"address[]"},{"name":"values","type":"uint256[]","internalType":"uint256[]"},{"name":"payloads","type":"bytes[]","internalType":"bytes[]"},{"name":"predecessor","type":"bytes32","internalType":"bytes32"},{"name":"salt","type":"bytes32","internalType":"bytes32"},{"name":"delay","type":"uint256","internalType":"uint256"}],"outputs":[],"stateMutability":"nonpayable"},{"type":"function","name":"supportsInterface","inputs":[{"name":"interfaceId","type":"bytes4","internalType":"bytes4"}],"outputs":[{"name":"","type":"bool","internalType":"bool"}],"stateMutability":"view"},{"type":"function","name":"updateDelay","inputs":[{"name":"newDelay","type":"uint256","internalType":"uint256"}],"outputs":[],"stateMutability":"nonpayable"},{"type":"event","name":"CallExecuted","inputs":[{"name":"id","type":"bytes32","indexed":true,"internalType":"bytes32"},{"name":"index","type":"uint256","indexed":true,"internalType":"uint256"},{"name":"target","type":"address","indexed":false,"internalType":"address"},{"name":"value","type":"uint256","indexed":false,"internalType":"uint256"},{"name":"data","type":"bytes","indexed":false,"internalType":"bytes"}],"anonymous":false},{"type":"event","name":"CallSalt","inputs":[{"name":"id","type":"bytes32","indexed":true,"internalType":"bytes32"},{"name":"salt","type":"bytes32","indexed":false,"internalType":"bytes32"}],"anonymous":false},{"type":"event","name":"CallScheduled","inputs":[{"name":"id","type":"bytes32","indexed":true,"internalType":"bytes32"},{"name":"index","type":"uint256","indexed":true,"internalType":"uint256"},{"name":"target","type":"address","indexed":false,"internalType":"address"},{"name":"value","type":"uint256","indexed":false,"internalType":"uint256"},{"name":"data","type":"bytes","indexed":false,"internalType":"bytes"},{"name":"predecessor","type":"bytes32","indexed":false,"internalType":"bytes32"},{"name":"delay","type":"uint256","indexed":false,"internalType":"uint256"}],"anonymous":false},{"type":"event","name":"Cancelled","inputs":[{"name":"id","type":"bytes32","indexed":true,"internalType":"bytes32"}],"anonymous":false},{"type":"event","name":"Initialized","inputs":[{"name":"version","type":"uint64","indexed":false,"internalType":"uint64"}],"anonymous":false},{"type":"event","name":"MinDelayChange","inputs":[{"name":"oldDuration","type":"uint256","indexed":false,"internalType":"uint256"},{"name":"newDuration","type":"uint256","indexed":false,"internalType":"uint256"}],"anonymous":false},{"type":"event","name":"RoleAdminChanged","inputs":[{"name":"role","type":"bytes32","indexed":true,"internalType":"bytes32"},{"name":"previousAdminRole","type":"bytes32","indexed":true,"internalType":"bytes32"},{"name":"newAdminRole","type":"bytes32","indexed":true,"internalType":"bytes32"}],"anonymous":false},{"type":"event","name":"RoleGranted","inputs":[{"name":"role","type":"bytes32","indexed":true,"internalType":"bytes32"},{"name":"account","type":"address","indexed":true,"internalType":"address"},{"name":"sender","type":"address","indexed":true,"internalType":"address"}],"anonymous":false},{"type":"event","name":"RoleRevoked","inputs":[{"name":"role","type":"bytes32","indexed":true,"internalType":"bytes32"},{"name":"account","type":"address","indexed":true,"internalType":"address"},{"name":"sender","type":"address","indexed":true,"internalType":"address"}],"anonymous":false},{"type":"error","name":"AccessControlBadConfirmation","inputs":[]},{"type":"error","name":"AccessControlUnauthorizedAccount","inputs":[{"name":"account","type":"address","internalType":"address"},{"name":"neededRole","type":"bytes32","internalType":"bytes32"}]},{"type":"error","name":"FailedInnerCall","inputs":[]},{"type":"error","name":"InvalidInitialization","inputs":[]},{"type":"error","name":"NotInitializing","inputs":[]},{"type":"error","name":"TimelockInsufficientDelay","inputs":[{"name":"delay","type":"uint256","internalType":"uint256"},{"name":"minDelay","type":"uint256","internalType":"uint256"}]},{"type":"error","name":"TimelockInvalidOperationLength","inputs":[{"name":"targets","type":"uint256","internalType":"uint256"},{"name":"payloads","type":"uint256","internalType":"uint256"},{"name":"values","type":"uint256","internalType":"uint256"}]},{"type":"error","name":"TimelockUnauthorizedCaller","inputs":[{"name":"caller","type":"address","internalType":"address"}]},{"type":"error","name":"TimelockUnexecutedPredecessor","inputs":[{"name":"predecessorId","type":"bytes32","internalType":"bytes32"}]},{"type":"error","name":"TimelockUnexpectedOperationState","inputs":[{"name":"operationId","type":"bytes32","internalType":"bytes32"},{"name":"expectedStates","type":"bytes32","internalType":"bytes32"}]}],"bytecode":{"object":"0x6080806040523460b4577ff0c57e16840df040f15088dc2f81fe391c3923bec73e23a9662efc9c229c6a009081549060ff8260401c1660a557506001600160401b036002600160401b0319828216016061575b60405161231590816100b98239f35b6001600160401b031990911681179091556040519081527fc7f505b2f371ae2175ee4913f4499e1f2633a7b5936321eed1cdaeb6115181d290602090a15f80806052565b63f92ee8a960e01b8152600490fd5b5f80fdfe60406080815260048036101561001e575b5050361561001c575f80fd5b005b5f3560e01c90816301d5062a1461109b57816301ffc9a714610fc657816307bd026514610f8c578163134008d314610eb057816313bc9f2014610e92578163150b7a0214610e26578163248a9ca314610ddd5781632ab0f52914610dbf5781632f2ff15d14610d9757816331d5075014610d7957816336568abe14610d0f578163584b153e14610ce857816364d6235314610c485781637958004c14610bed5781638065657f14610bcc5781638f2a0bb014610a2c5781638f61f4f5146109f257816391d1485414610981578163a217fddf14610967578163b08e51c01461092d578163b1c5f42714610902578163bc197c8114610865578163c4c4c7b314610575578163c4d252f514610438578163d45c4435146103f2578163d547741f14610397578163e38335e514610215578163f23a6e61146101a9575063f27a0c92146101695780610010565b346101a5575f6003193601126101a5576020907f9a37c2aa9d186a0969ff8a8267bf4e07e864c2f2768f5040949e28a624fb3601549051908152f35b5f80fd5b82346101a55760a06003193601126101a5576101c3611147565b506101cc61116a565b5060843567ffffffffffffffff81116101a5576020926101ee913691016112e0565b50517ff23a6e61000000000000000000000000000000000000000000000000000000008152f35b905061022036611357565b9098949591939296977fd8aa0f3194971a2a116679f7c2090f6939c8d4e01a2a8d7e41d55e5351469e635f527f02dd7bc7dec4dceedda775e58dd541e08a116c6c53815c0bd028192f7b626800602052855f205f805260205260ff865f20541615610389575b83831480159061037f575b61033b57506102a96102b0918a868a878b888f611785565b9889611bc0565b5f5b8181106102c25761001c89611cab565b80808a7fc2617efa69bab66782fa219543714338489c4e9e178271560a91b82c3f612b588a8a61033261031a8f988c610313828e61030d8f60019f6103089185916116c7565b611704565b976116c7565b3595611725565b9061032782828787611c58565b8d519485948561151d565b0390a3016102b2565b85517fffb032110000000000000000000000000000000000000000000000000000000081529081019283526020830185905260408301849052918291506060010390fd5b5084831415610291565b61039233611af5565b610286565b82346101a557806003193601126101a55761001c91356103ed60016103ba61116a565b93835f527f02dd7bc7dec4dceedda775e58dd541e08a116c6c53815c0bd028192f7b6268006020525f2001543390611b66565b612171565b82346101a55760206003193601126101a557602091355f527f9a37c2aa9d186a0969ff8a8267bf4e07e864c2f2768f5040949e28a624fb36008252805f20549051908152f35b82346101a55760206003193601126101a5578135917ffd643c72710c63c0180259aba6b2d05451e3591a24e58b62239378085726f783805f527f02dd7bc7dec4dceedda775e58dd541e08a116c6c53815c0bd028192f7b626800602052825f20335f5260205260ff835f2054161561054157506104b4836115c6565b1561050c57505f908282527f9a37c2aa9d186a0969ff8a8267bf4e07e864c2f2768f5040949e28a624fb36006020528120557fbaa1eb22f2a492ba1a5fea61b8df4d27c6c8b5f3971e63bb58fa14ff72eedb705f80a2005b8260449251917f5ead8eb500000000000000000000000000000000000000000000000000000000835282015260066024820152fd5b60449251917fe2517d3f00000000000000000000000000000000000000000000000000000000835233908301526024820152fd5b9050346101a55760806003193601126101a55780359067ffffffffffffffff6024358181116101a5576105ab9036908401611431565b926044358281116101a5576105c39036908501611431565b936064359473ffffffffffffffffffffffffffffffffffffffff91828716968781036101a5577ff0c57e16840df040f15088dc2f81fe391c3923bec73e23a9662efc9c229c6a0097885460ff818c1c16159781169889158061085e575b6001809b149081610854575b15908161084b575b5061082457509081888a7fffffffffffffffffffffffffffffffffffffffffffffffff00000000000000008197969516178c556107ef575b50610675612272565b61067d612272565b61068630611ce8565b506107df575b5088939192905f845b61078b575b5050825f905b610752575b50505050817f11c24f4ead16507c69ac467fbd5e4eed5fb5c699626d2cc6d66421df253886d5927f9a37c2aa9d186a0969ff8a8267bf4e07e864c2f2768f5040949e28a624fb3601558151905f82526020820152a161070057005b7fc7f505b2f371ae2175ee4913f4499e1f2633a7b5936321eed1cdaeb6115181d292827fffffffffffffffffffffffffffffffffffffffffffffff00ffffffffffffffff6020945416905551908152a1005b909192938251821015610784575080610777846107708794866122cb565b5116611fb8565b50019083929189946106a0565b93926106a5565b90809294939550518110156107d557806107b1866107aa8694866122cb565b5116611dc3565b506107c7866107c083866122cb565b5116611ec1565b5001908293918a9593610695565b899492939161069a565b6107e890611ce8565b505f61068c565b7fffffffffffffffffffffffffffffffffffffffffffffff0000000000000000001668010000000000000001178a555f61066c565b8b517ff92ee8a9000000000000000000000000000000000000000000000000000000008152fd5b9050155f610634565b303b15915061062c565b5088610620565b82346101a55760a06003193601126101a55761087f611147565b5061088861116a565b5067ffffffffffffffff6044358181116101a5576108a990369085016113d1565b506064358181116101a5576108c190369085016113d1565b506084359081116101a5576020926108db913691016112e0565b50517fbc197c81000000000000000000000000000000000000000000000000000000008152f35b82346101a55760209061092661091736611357565b96959095949194939293611785565b9051908152f35b82346101a5575f6003193601126101a557602090517ffd643c72710c63c0180259aba6b2d05451e3591a24e58b62239378085726f7838152f35b82346101a5575f6003193601126101a557602090515f8152f35b82346101a557806003193601126101a55760209161099d61116a565b90355f527f02dd7bc7dec4dceedda775e58dd541e08a116c6c53815c0bd028192f7b626800835273ffffffffffffffffffffffffffffffffffffffff825f2091165f52825260ff815f20541690519015158152f35b82346101a5575f6003193601126101a557602090517fb09aa5aeb3702cfd50b6b62bc4532604938f21248a27a1d5ca736082b6819cc18152f35b82346101a55760c06003193601126101a55767ffffffffffffffff9082358281116101a557610a5e9036908501611326565b936024358481116101a557610a769036908301611326565b946044359081116101a557610a8e9036908401611326565b60649391933590608435978960a43594610aa733611a4d565b828214801590610bc2575b610b7f575089848489858a610ac7968e611785565b99610ad2858c611942565b8a5f5b8a838210610b13578c809250610ae757005b7f20fda5fd27a1ea7bf5b9567f143ac5470bb059374a27e8f67cb44f946f6d03879160209151908152a2005b6001927f4cf4410cc57040e44862ef0f45f3dd5a5e02db8eb8add648d4b0e236f1d07dca8b8b610b748f8c88978f92898f8f8f610b6291610b5c610308868094610b69996116c7565b9a6116c7565b3598611725565b9151968796876114d7565b0390a3018b90610ad5565b89517fffb0321100000000000000000000000000000000000000000000000000000000815290810191825260208201849052604082018390529081906060010390fd5b5083821415610ab2565b82346101a557602090610926610be1366111dc565b94939093929192611646565b82346101a55760206003193601126101a557610c0982356115ef565b90519082811015610c1c57602092508152f35b6021837f4e487b71000000000000000000000000000000000000000000000000000000005f525260245ffd5b82346101a55760206003193601126101a557813591303303610cb957507f11c24f4ead16507c69ac467fbd5e4eed5fb5c699626d2cc6d66421df253886d57f9a37c2aa9d186a0969ff8a8267bf4e07e864c2f2768f5040949e28a624fb36019182548151908152846020820152a155005b60249151907fe2850c590000000000000000000000000000000000000000000000000000000082523390820152fd5b82346101a55760206003193601126101a557610d06602092356115c6565b90519015158152f35b82346101a557806003193601126101a557610d2861116a565b903373ffffffffffffffffffffffffffffffffffffffff831603610d51575061001c9135612171565b9050517f6697b232000000000000000000000000000000000000000000000000000000008152fd5b82346101a55760206003193601126101a557610d06602092356115af565b82346101a557806003193601126101a55761001c9135610dba60016103ba61116a565b6120af565b82346101a55760206003193601126101a557610d0660209235611597565b82346101a55760206003193601126101a557602091355f527f02dd7bc7dec4dceedda775e58dd541e08a116c6c53815c0bd028192f7b62680082526001815f2001549051908152f35b82346101a55760806003193601126101a557610e40611147565b50610e4961116a565b5060643567ffffffffffffffff81116101a557602092610e6b913691016112e0565b50517f150b7a02000000000000000000000000000000000000000000000000000000008152f35b82346101a55760206003193601126101a557610d0660209235611552565b61001c610f605f610f767fc2617efa69bab66782fa219543714338489c4e9e178271560a91b82c3f612b58610f5788610ee8366111dc565b7fd8aa0f3194971a2a116679f7c2090f6939c8d4e01a2a8d7e41d55e5351469e638b9a9697939598929a527f02dd7bc7dec4dceedda775e58dd541e08a116c6c53815c0bd028192f7b626800602052828b208b805260205260ff838c20541615610f7e575b8985858a8a611646565b998a9889611bc0565b610f6c83838888611c58565b519485948561151d565b0390a3611cab565b610f8733611af5565b610f4d565b82346101a5575f6003193601126101a557602090517fd8aa0f3194971a2a116679f7c2090f6939c8d4e01a2a8d7e41d55e5351469e638152f35b9050346101a55760206003193601126101a557357fffffffff0000000000000000000000000000000000000000000000000000000081168091036101a5576020917f4e2312e000000000000000000000000000000000000000000000000000000000821491821561103b575b50519015158152f35b9091507f7965db0b000000000000000000000000000000000000000000000000000000008114908115611071575b50905f611032565b7f01ffc9a7000000000000000000000000000000000000000000000000000000009150145f611069565b82346101a55760c06003193601126101a5576110b5611147565b90602435926044359367ffffffffffffffff85116101a5576110fc5f927f4cf4410cc57040e44862ef0f45f3dd5a5e02db8eb8add648d4b0e236f1d07dca963691016111ae565b9590916064359561113d6084359760a4359061111733611a4d565b6111258a828d8a8989611646565b9a8b97611132848a611942565b8a51968796876114d7565b0390a381610ae757005b6004359073ffffffffffffffffffffffffffffffffffffffff821682036101a557565b6024359073ffffffffffffffffffffffffffffffffffffffff821682036101a557565b359073ffffffffffffffffffffffffffffffffffffffff821682036101a557565b9181601f840112156101a55782359167ffffffffffffffff83116101a557602083818601950101116101a557565b60a06003198201126101a55760043573ffffffffffffffffffffffffffffffffffffffff811681036101a55791602435916044359067ffffffffffffffff82116101a55761122c916004016111ae565b90916064359060843590565b90601f7fffffffffffffffffffffffffffffffffffffffffffffffffffffffffffffffe0910116810190811067ffffffffffffffff82111761127957604052565b7f4e487b71000000000000000000000000000000000000000000000000000000005f52604160045260245ffd5b67ffffffffffffffff811161127957601f017fffffffffffffffffffffffffffffffffffffffffffffffffffffffffffffffe01660200190565b81601f820112156101a5578035906112f7826112a6565b926113056040519485611238565b828452602083830101116101a557815f926020809301838601378301015290565b9181601f840112156101a55782359167ffffffffffffffff83116101a5576020808501948460051b0101116101a557565b9060a06003198301126101a55767ffffffffffffffff6004358181116101a5578361138491600401611326565b939093926024358381116101a5578261139f91600401611326565b939093926044359182116101a55761122c91600401611326565b67ffffffffffffffff81116112795760051b60200190565b9080601f830112156101a55760209082356113eb816113b9565b936113f96040519586611238565b81855260208086019260051b8201019283116101a557602001905b828210611422575050505090565b81358152908301908301611414565b9080601f830112156101a557602090823561144b816113b9565b936114596040519586611238565b81855260208086019260051b8201019283116101a557602001905b828210611482575050505090565b83809161148e8461118d565b815201910190611474565b601f82602094937fffffffffffffffffffffffffffffffffffffffffffffffffffffffffffffffe093818652868601375f8582860101520116010190565b9290936115139273ffffffffffffffffffffffffffffffffffffffff60809699989799168552602085015260a0604085015260a0840191611499565b9460608201520152565b61154f949273ffffffffffffffffffffffffffffffffffffffff60609316825260208201528160408201520191611499565b90565b61155b906115ef565b600481101561156a5760021490565b7f4e487b71000000000000000000000000000000000000000000000000000000005f52602160045260245ffd5b6115a0906115ef565b600481101561156a5760031490565b6115b8906115ef565b600481101561156a57151590565b6115cf906115ef565b600481101561156a57600181149081156115e7575090565b600291501490565b5f527f9a37c2aa9d186a0969ff8a8267bf4e07e864c2f2768f5040949e28a624fb360060205260405f205480155f1461162757505f90565b600181036116355750600390565b42101561164157600190565b600290565b9461168a6116c19495929360405196879573ffffffffffffffffffffffffffffffffffffffff602088019a168a52604087015260a0606087015260c0860191611499565b91608084015260a0830152037fffffffffffffffffffffffffffffffffffffffffffffffffffffffffffffffe08101835282611238565b51902090565b91908110156116d75760051b0190565b7f4e487b71000000000000000000000000000000000000000000000000000000005f52603260045260245ffd5b3573ffffffffffffffffffffffffffffffffffffffff811681036101a55790565b91908110156116d75760051b810135907fffffffffffffffffffffffffffffffffffffffffffffffffffffffffffffffe1813603018212156101a557019081359167ffffffffffffffff83116101a55760200182360381136101a5579190565b969294909695919560405196602091828901998060c08b0160a08d525260e08a0191905f5b8582821061190f57505050507fffffffffffffffffffffffffffffffffffffffffffffffffffffffffffffffe097888a83030160408b01528082527f07ffffffffffffffffffffffffffffffffffffffffffffffffffffffffffffff81116101a5579089969495939897929160051b80928a830137019380888601878703606089015252604085019460408260051b82010195835f925b848410611869575050505050506116c19550608084015260a083015203908101835282611238565b91939698509193989994967fffffffffffffffffffffffffffffffffffffffffffffffffffffffffffffffc082820301845289357fffffffffffffffffffffffffffffffffffffffffffffffffffffffffffffffe1843603018112156101a557830186810191903567ffffffffffffffff81116101a55780360383136101a5576118f888928392600195611499565b9b0194019401918b98969394919a9997959a611841565b80849573ffffffffffffffffffffffffffffffffffffffff611934600195969761118d565b1681520194019291016117aa565b9061194c826115af565b611a15577f9a37c2aa9d186a0969ff8a8267bf4e07e864c2f2768f5040949e28a624fb3601548082106119de57504201908142116119b1575f527f9a37c2aa9d186a0969ff8a8267bf4e07e864c2f2768f5040949e28a624fb360060205260405f2055565b7f4e487b71000000000000000000000000000000000000000000000000000000005f52601160045260245ffd5b60449250604051917f5433660900000000000000000000000000000000000000000000000000000000835260048301526024820152fd5b604482604051907f5ead8eb5000000000000000000000000000000000000000000000000000000008252600482015260016024820152fd5b73ffffffffffffffffffffffffffffffffffffffff165f8181527f5a8734c34b98d7c96eb2ea25f298989407e1f25da116ec139bcce0887bcb7cf760205260409020547fb09aa5aeb3702cfd50b6b62bc4532604938f21248a27a1d5ca736082b6819cc19060ff1615611abe575050565b60449250604051917fe2517d3f00000000000000000000000000000000000000000000000000000000835260048301526024820152fd5b73ffffffffffffffffffffffffffffffffffffffff165f8181527f52fce5e8a5d0d9e8d1ea29f4525e512e9c27bf92cae50374d497f918ab48f38260205260409020547fd8aa0f3194971a2a116679f7c2090f6939c8d4e01a2a8d7e41d55e5351469e639060ff1615611abe575050565b805f527f02dd7bc7dec4dceedda775e58dd541e08a116c6c53815c0bd028192f7b62680060205273ffffffffffffffffffffffffffffffffffffffff60405f20921691825f5260205260ff60405f20541615611abe575050565b611bc981611552565b15611c20575080151580611c10575b611bdf5750565b602490604051907f90a9a6180000000000000000000000000000000000000000000000000000000082526004820152fd5b50611c1a81611597565b15611bd8565b604490604051907f5ead8eb5000000000000000000000000000000000000000000000000000000008252600482015260046024820152fd5b611ca0935f93928493826040519384928337810185815203925af13d15611ca3573d90611c84826112a6565b91611c926040519384611238565b82523d5f602084013e61222f565b50565b60609061222f565b611cb481611552565b15611c20575f527f9a37c2aa9d186a0969ff8a8267bf4e07e864c2f2768f5040949e28a624fb3600602052600160405f2055565b73ffffffffffffffffffffffffffffffffffffffff165f8181527fb7db2dd08fcb62d0c9e08c51941cae53c267786a0b75803fb7960902fc8ef97d60205260409020547f02dd7bc7dec4dceedda775e58dd541e08a116c6c53815c0bd028192f7b6268009060ff16611dbd575f805260205260405f20815f5260205260405f2060017fffffffffffffffffffffffffffffffffffffffffffffffffffffffffffffff0082541617905533905f7f2f8788117e7eff1d82e926ec794901d17c78024a50270940304540a733656f0d8180a4600190565b50505f90565b73ffffffffffffffffffffffffffffffffffffffff165f8181527f5a8734c34b98d7c96eb2ea25f298989407e1f25da116ec139bcce0887bcb7cf760205260409020547fb09aa5aeb3702cfd50b6b62bc4532604938f21248a27a1d5ca736082b6819cc191907f02dd7bc7dec4dceedda775e58dd541e08a116c6c53815c0bd028192f7b6268009060ff16611eba57825f5260205260405f20815f5260205260405f2060017fffffffffffffffffffffffffffffffffffffffffffffffffffffffffffffff0082541617905533917f2f8788117e7eff1d82e926ec794901d17c78024a50270940304540a733656f0d5f80a4600190565b5050505f90565b73ffffffffffffffffffffffffffffffffffffffff165f8181527ffa71e07f24c4701ef65a970775979de1292cfe909335cd18a32d2b7b7398791460205260409020547ffd643c72710c63c0180259aba6b2d05451e3591a24e58b62239378085726f78391907f02dd7bc7dec4dceedda775e58dd541e08a116c6c53815c0bd028192f7b6268009060ff16611eba57825f5260205260405f20815f5260205260405f2060017fffffffffffffffffffffffffffffffffffffffffffffffffffffffffffffff0082541617905533917f2f8788117e7eff1d82e926ec794901d17c78024a50270940304540a733656f0d5f80a4600190565b73ffffffffffffffffffffffffffffffffffffffff165f8181527f52fce5e8a5d0d9e8d1ea29f4525e512e9c27bf92cae50374d497f918ab48f38260205260409020547fd8aa0f3194971a2a116679f7c2090f6939c8d4e01a2a8d7e41d55e5351469e6391907f02dd7bc7dec4dceedda775e58dd541e08a116c6c53815c0bd028192f7b6268009060ff16611eba57825f5260205260405f20815f5260205260405f2060017fffffffffffffffffffffffffffffffffffffffffffffffffffffffffffffff0082541617905533917f2f8788117e7eff1d82e926ec794901d17c78024a50270940304540a733656f0d5f80a4600190565b90815f527f02dd7bc7dec4dceedda775e58dd541e08a116c6c53815c0bd028192f7b6268008060205273ffffffffffffffffffffffffffffffffffffffff60405f20921691825f5260205260ff60405f205416155f14611eba57825f5260205260405f20815f5260205260405f2060017fffffffffffffffffffffffffffffffffffffffffffffffffffffffffffffff0082541617905533917f2f8788117e7eff1d82e926ec794901d17c78024a50270940304540a733656f0d5f80a4600190565b90815f527f02dd7bc7dec4dceedda775e58dd541e08a116c6c53815c0bd028192f7b6268008060205273ffffffffffffffffffffffffffffffffffffffff60405f20921691825f5260205260ff60405f2054165f14611eba57825f5260205260405f20815f5260205260405f207fffffffffffffffffffffffffffffffffffffffffffffffffffffffffffffff00815416905533917ff6391f5c32d9c69d2a47ea670b442974b53935d1edc7fd64eb21e047a839171b5f80a4600190565b909190612270575080511561224657805190602001fd5b60046040517f1425ea42000000000000000000000000000000000000000000000000000000008152fd5b565b60ff7ff0c57e16840df040f15088dc2f81fe391c3923bec73e23a9662efc9c229c6a005460401c16156122a157565b60046040517fd7e6bcf8000000000000000000000000000000000000000000000000000000008152fd5b80518210156116d75760209160051b01019056fea26469706673582212206c231481d2d54125dff2ac4733f5abc5330ee3fcbee1d72e403cc6e2f987473164736f6c63430008190033","linkReferences":{}},"methodIdentifiers":{"CANCELLER_ROLE()":"b08e51c0","DEFAULT_ADMIN_ROLE()":"a217fddf","EXECUTOR_ROLE()":"07bd0265","PROPOSER_ROLE()":"8f61f4f5","cancel(bytes32)":"c4d252f5","execute(address,uint256,bytes,bytes32,bytes32)":"134008d3","executeBatch(address[],uint256[],bytes[],bytes32,bytes32)":"e38335e5","getMinDelay()":"f27a0c92","getOperationState(bytes32)":"7958004c","getRoleAdmin(bytes32)":"248a9ca3","getTimestamp(bytes32)":"d45c4435","grantRole(bytes32,address)":"2f2ff15d","hasRole(bytes32,address)":"91d14854","hashOperation(address,uint256,bytes,bytes32,bytes32)":"8065657f","hashOperationBatch(address[],uint256[],bytes[],bytes32,bytes32)":"b1c5f427","initialize(uint256,address[],address[],address)":"c4c4c7b3","isOperation(bytes32)":"31d50750","isOperationDone(bytes32)":"2ab0f529","isOperationPending(bytes32)":"584b153e","isOperationReady(bytes32)":"13bc9f20","onERC1155BatchReceived(address,address,uint256[],uint256[],bytes)":"bc197c81","onERC1155Received(address,address,uint256,uint256,bytes)":"f23a6e61","onERC721Received(address,address,uint256,bytes)":"150b7a02","renounceRole(bytes32,address)":"36568abe","revokeRole(bytes32,address)":"d547741f","schedule(address,uint256,bytes,bytes32,bytes32,uint256)":"01d5062a","scheduleBatch(address[],uint256[],bytes[],bytes32,bytes32,uint256)":"8f2a0bb0","supportsInterface(bytes4)":"01ffc9a7","updateDelay(uint256)":"64d62353"},"id":138}