{"abi":[{"type":"constructor","inputs":[],"stateMutability":"nonpayable"},{"type":"function","name":"BASIS_POINTS","inputs":[],"outputs":[{"name":"","type":"uint256","internalType":"uint256"}],"stateMutability":"view"},{"type":"function","name":"DEFAULT_ADMIN_ROLE","inputs":[],"outputs":[{"name":"","type":"bytes32","internalType":"bytes32"}],"stateMutability":"view"},{"type":"function","name":"EMERGENCY_ROLE","inputs":[],"outputs":[{"name":"","type":"bytes32","internalType":"bytes32"}],"stateMutability":"view"},{"type":"function","name":"GOVERNOR_ROLE","inputs":[],"outputs":[{"name":"","type":"bytes32","internalType":"bytes32"}],"stateMutability":"view"},{"type":"function","name":"MAX_BASE_FEE","inputs":[],"outputs":[{"name":"","type":"uint256","internalType":"uint256"}],"stateMutability":"view"},{"type":"function","name":"MAX_PRIORITY_FEE","inputs":[],"outputs":[{"name":"","type":"uint256","internalType":"uint256"}],"stateMutability":"view"},{"type":"function","name":"MAX_SEQUENCER_CUT_BPS","inputs":[],"outputs":[{"name":"","type":"uint256","internalType":"uint256"}],"stateMutability":"view"},{"type":"function","name":"PAUSER_ROLE","inputs":[],"outputs":[{"name":"","type":"bytes32","internalType":"bytes32"}],"stateMutability":"view"},{"type":"function","name":"UPGRADE_INTERFACE_VERSION","inputs":[],"outputs":[{"name":"","type":"string","internalType":"string"}],"stateMutability":"view"},{"type":"function","name":"addSequencer","inputs":[{"name":"newSequencer","type":"address","internalType":"address"},{"name":"stake","type":"uint256","internalType":"uint256"}],"outputs":[],"stateMutability":"nonpayable"},{"type":"function","name":"baseFeePerGas","inputs":[],"outputs":[{"name":"","type":"uint256","internalType":"uint256"}],"stateMutability":"view"},{"type":"function","name":"calculateSequencerCut","inputs":[{"name":"totalFee","type":"uint256","internalType":"uint256"}],"outputs":[{"name":"","type":"uint256","internalType":"uint256"}],"stateMutability":"view"},{"type":"function","name":"calculateTotalFee","inputs":[{"name":"gasUsed","type":"uint256","internalType":"uint256"}],"outputs":[{"name":"","type":"uint256","internalType":"uint256"}],"stateMutability":"view"},{"type":"function","name":"celestiaDAFee","inputs":[],"outputs":[{"name":"","type":"uint256","internalType":"uint256"}],"stateMutability":"view"},{"type":"function","name":"celestiaNamespace","inputs":[],"outputs":[{"name":"","type":"bytes29","internalType":"bytes29"}],"stateMutability":"view"},{"type":"function","name":"emergencyPause","inputs":[],"outputs":[],"stateMutability":"nonpayable"},{"type":"function","name":"emergencyUnpause","inputs":[],"outputs":[],"stateMutability":"nonpayable"},{"type":"function","name":"getRoleAdmin","inputs":[{"name":"role","type":"bytes32","internalType":"bytes32"}],"outputs":[{"name":"","type":"bytes32","internalType":"bytes32"}],"stateMutability":"view"},{"type":"function","name":"getRollupParameters","inputs":[],"outputs":[{"name":"baseFee","type":"uint256","internalType":"uint256"},{"name":"priorityFee","type":"uint256","internalType":"uint256"},{"name":"sequencerCut","type":"uint256","internalType":"uint256"},{"name":"celestiaFee","type":"uint256","internalType":"uint256"},{"name":"isPaused","type":"bool","internalType":"bool"}],"stateMutability":"view"},{"type":"function","name":"grantRole","inputs":[{"name":"role","type":"bytes32","internalType":"bytes32"},{"name":"account","type":"address","internalType":"address"}],"outputs":[],"stateMutability":"nonpayable"},{"type":"function","name":"hasRole","inputs":[{"name":"role","type":"bytes32","internalType":"bytes32"},{"name":"account","type":"address","internalType":"address"}],"outputs":[{"name":"","type":"bool","internalType":"bool"}],"stateMutability":"view"},{"type":"function","name":"initialize","inputs":[{"name":"_sequencerRegistry","type":"address","internalType":"address"},{"name":"governor","type":"address","internalType":"address"}],"outputs":[],"stateMutability":"nonpayable"},{"type":"function","name":"paused","inputs":[],"outputs":[{"name":"","type":"bool","internalType":"bool"}],"stateMutability":"view"},{"type":"function","name":"priorityFeePerGas","inputs":[],"outputs":[{"name":"","type":"uint256","internalType":"uint256"}],"stateMutability":"view"},{"type":"function","name":"proxiableUUID","inputs":[],"outputs":[{"name":"","type":"bytes32","internalType":"bytes32"}],"stateMutability":"view"},{"type":"function","name":"removeSequencer","inputs":[{"name":"sequencer","type":"address","internalType":"address"}],"outputs":[],"stateMutability":"nonpayable"},{"type":"function","name":"renounceRole","inputs":[{"name":"role","type":"bytes32","internalType":"bytes32"},{"name":"callerConfirmation","type":"address","internalType":"address"}],"outputs":[],"stateMutability":"nonpayable"},{"type":"function","name":"revokeRole","inputs":[{"name":"role","type":"bytes32","internalType":"bytes32"},{"name":"account","type":"address","internalType":"address"}],"outputs":[],"stateMutability":"nonpayable"},{"type":"function","name":"sequencerCutBps","inputs":[],"outputs":[{"name":"","type":"uint256","internalType":"uint256"}],"stateMutability":"view"},{"type":"function","name":"sequencerRegistry","inputs":[],"outputs":[{"name":"","type":"address","internalType":"contract IAndeSequencerRegistry"}],"stateMutability":"view"},{"type":"function","name":"supportsInterface","inputs":[{"name":"interfaceId","type":"bytes4","internalType":"bytes4"}],"outputs":[{"name":"","type":"bool","internalType":"bool"}],"stateMutability":"view"},{"type":"function","name":"updateBaseFee","inputs":[{"name":"newBaseFee","type":"uint256","internalType":"uint256"}],"outputs":[],"stateMutability":"nonpayable"},{"type":"function","name":"updateCelestiaDAFee","inputs":[{"name":"newFee","type":"uint256","internalType":"uint256"}],"outputs":[],"stateMutability":"nonpayable"},{"type":"function","name":"updateCelestiaNamespace","inputs":[{"name":"newNamespace","type":"bytes29","internalType":"bytes29"}],"outputs":[],"stateMutability":"nonpayable"},{"type":"function","name":"updatePriorityFee","inputs":[{"name":"newPriorityFee","type":"uint256","internalType":"uint256"}],"outputs":[],"stateMutability":"nonpayable"},{"type":"function","name":"updateSequencerCut","inputs":[{"name":"newCutBps","type":"uint256","internalType":"uint256"}],"outputs":[],"stateMutability":"nonpayable"},{"type":"function","name":"updateSequencerRegistry","inputs":[{"name":"newRegistry","type":"address","internalType":"address"}],"outputs":[],"stateMutability":"nonpayable"},{"type":"function","name":"updateSequencerStake","inputs":[{"name":"sequencer","type":"address","internalType":"address"},{"name":"newStake","type":"uint256","internalType":"uint256"}],"outputs":[],"stateMutability":"nonpayable"},{"type":"function","name":"upgradeToAndCall","inputs":[{"name":"newImplementation","type":"address","internalType":"address"},{"name":"data","type":"bytes","internalType":"bytes"}],"outputs":[],"stateMutability":"payable"},{"type":"event","name":"BaseFeeUpdated","inputs":[{"name":"oldFee","type":"uint256","indexed":false,"internalType":"uint256"},{"name":"newFee","type":"uint256","indexed":false,"internalType":"uint256"}],"anonymous":false},{"type":"event","name":"CelestiaDAFeeUpdated","inputs":[{"name":"oldFee","type":"uint256","indexed":false,"internalType":"uint256"},{"name":"newFee","type":"uint256","indexed":false,"internalType":"uint256"}],"anonymous":false},{"type":"event","name":"CelestiaNamespaceUpdated","inputs":[{"name":"oldNamespace","type":"bytes29","indexed":false,"internalType":"bytes29"},{"name":"newNamespace","type":"bytes29","indexed":false,"internalType":"bytes29"}],"anonymous":false},{"type":"event","name":"EmergencyPaused","inputs":[{"name":"pauser","type":"address","indexed":true,"internalType":"address"}],"anonymous":false},{"type":"event","name":"EmergencyUnpaused","inputs":[{"name":"unpauser","type":"address","indexed":true,"internalType":"address"}],"anonymous":false},{"type":"event","name":"Initialized","inputs":[{"name":"version","type":"uint64","indexed":false,"internalType":"uint64"}],"anonymous":false},{"type":"event","name":"PriorityFeeUpdated","inputs":[{"name":"oldFee","type":"uint256","indexed":false,"internalType":"uint256"},{"name":"newFee","type":"uint256","indexed":false,"internalType":"uint256"}],"anonymous":false},{"type":"event","name":"RoleAdminChanged","inputs":[{"name":"role","type":"bytes32","indexed":true,"internalType":"bytes32"},{"name":"previousAdminRole","type":"bytes32","indexed":true,"internalType":"bytes32"},{"name":"newAdminRole","type":"bytes32","indexed":true,"internalType":"bytes32"}],"anonymous":false},{"type":"event","name":"RoleGranted","inputs":[{"name":"role","type":"bytes32","indexed":true,"internalType":"bytes32"},{"name":"account","type":"address","indexed":true,"internalType":"address"},{"name":"sender","type":"address","indexed":true,"internalType":"address"}],"anonymous":false},{"type":"event","name":"RoleRevoked","inputs":[{"name":"role","type":"bytes32","indexed":true,"internalType":"bytes32"},{"name":"account","type":"address","indexed":true,"internalType":"address"},{"name":"sender","type":"address","indexed":true,"internalType":"address"}],"anonymous":false},{"type":"event","name":"SequencerAdded","inputs":[{"name":"sequencer","type":"address","indexed":true,"internalType":"address"},{"name":"stake","type":"uint256","indexed":false,"internalType":"uint256"}],"anonymous":false},{"type":"event","name":"SequencerCutUpdated","inputs":[{"name":"oldCut","type":"uint256","indexed":false,"internalType":"uint256"},{"name":"newCut","type":"uint256","indexed":false,"internalType":"uint256"}],"anonymous":false},{"type":"event","name":"SequencerRegistryUpdated","inputs":[{"name":"oldRegistry","type":"address","indexed":true,"internalType":"address"},{"name":"newRegistry","type":"address","indexed":true,"internalType":"address"}],"anonymous":false},{"type":"event","name":"SequencerRemoved","inputs":[{"name":"sequencer","type":"address","indexed":true,"internalType":"address"}],"anonymous":false},{"type":"event","name":"Upgraded","inputs":[{"name":"implementation","type":"address","indexed":true,"internalType":"address"}],"anonymous":false},{"type":"error","name":"AccessControlBadConfirmation","inputs":[]},{"type":"error","name":"AccessControlUnauthorizedAccount","inputs":[{"name":"account","type":"address","internalType":"address"},{"name":"neededRole","type":"bytes32","internalType":"bytes32"}]},{"type":"error","name":"AddressEmptyCode","inputs":[{"name":"target","type":"address","internalType":"address"}]},{"type":"error","name":"ERC1967InvalidImplementation","inputs":[{"name":"implementation","type":"address","internalType":"address"}]},{"type":"error","name":"ERC1967NonPayable","inputs":[]},{"type":"error","name":"FailedInnerCall","inputs":[]},{"type":"error","name":"FeeExceedsMaximum","inputs":[]},{"type":"error","name":"InvalidBasisPoints","inputs":[]},{"type":"error","name":"InvalidInitialization","inputs":[]},{"type":"error","name":"InvalidSequencerStake","inputs":[]},{"type":"error","name":"NotInitializing","inputs":[]},{"type":"error","name":"RollupNotPaused","inputs":[]},{"type":"error","name":"RollupPaused","inputs":[]},{"type":"error","name":"UUPSUnauthorizedCallContext","inputs":[]},{"type":"error","name":"UUPSUnsupportedProxiableUUID","inputs":[{"name":"slot","type":"bytes32","internalType":"bytes32"}]},{"type":"error","name":"ZeroAddress","inputs":[]}],"bytecode":{"object":"0x60a0806040523460c857306080527ff0c57e16840df040f15088dc2f81fe391c3923bec73e23a9662efc9c229c6a009081549060ff8260401c1660b957506001600160401b036002600160401b0319828216016075575b60405161175e90816100cd823960805181818161095c0152610af20152f35b6001600160401b031990911681179091556040519081527fc7f505b2f371ae2175ee4913f4499e1f2633a7b5936321eed1cdaeb6115181d290602090a15f80806056565b63f92ee8a960e01b8152600490fd5b5f80fdfe60806040818152600480361015610014575f80fd5b5f925f3560e01c90816301ffc9a7146111f8575080630487cbda146111dc5780630d698e331461116057806311f2d4911461114257806320df435914611108578063248a9ca3146110d157806325d2ee5f146110895780632f2ff15d1461104257806336568abe14610ffd578063366cf17614610f765780633a51198d14610f2c578063485cc95514610d725780634a4e3bd514610d0a5780634f1ef28614610a79578063513dcf7d14610a5b57806351858e27146109ee57806352708a8c146109c057806352d1902d1461094857806359b19f81146108b85780635c975abb146108925780636989ca7c146107e557806370edb915146107065780637c8bc7f3146106975780638e6901861461060b57806391d14854146105bc57806398cc7a371461059c578063a217fddf14610581578063ad3cb1cc14610503578063bd86344d146104e4578063c1036327146104c7578063c90e3446146104a7578063ccc574901461046c578063d547741f14610421578063e1f1c4a714610404578063e63ab1e9146103c9578063e9dde387146103a1578063eb90e39f14610375578063f7a822cf1461024d5763f890031a146101cd575f80fd5b34610249576020366003190112610249576101e6611260565b906101ef611303565b6001600160a01b0391821692831561023c57505082546001600160a01b0319811683178455167f0e4ba2d68a783e3bb35cb21a87e223b7d6408f767a57ecfdbb6a61b0808fab9e8380a380f35b5163d92e233d60e01b8152fd5b8280fd5b5034610249578160031936011261024957610266611260565b9160243591610273611303565b60ff60055460e81c16610367576001600160a01b03848116949085156103575769152d02c7e14af68000008510610347579086929183541691823b1561033957845163f7a822cf60e01b81526001600160a01b03909216908201908152602081018690529091839183919082908490829060400103925af1801561033d57610325575b50507f4fd176ea5a84f3047cc893049bb44ef7418b01c9e07affb753a6847a9cfd6a669160209151908152a280f35b61032e90611276565b61033957835f6102f6565b8380fd5b83513d84823e3d90fd5b835163c561306160e01b81528390fd5b835163d92e233d60e01b81528390fd5b9051631178f06f60e11b8152fd5b50503461039d578160031936011261039d57905490516001600160a01b039091168152602090f35b5080fd5b50503461039d578160031936011261039d5760209060055460181b90519062ffffff19168152f35b50503461039d578160031936011261039d57602090517f65d7a28e3265b37a6474929f336521b332c1681b933f6cb9f3376673440d862a8152f35b50503461039d578160031936011261039d57602090516127108152f35b5090346102495780600319360112610249576104689135610463600161044561124a565b938387525f80516020611709833981519152602052862001546113d7565b6115e5565b5080f35b50503461039d578160031936011261039d57602090517f7935bd0ae54bc31f548c14dba4d37c5c64b3f8ca900cb468fb8abd54d5894f558152f35b50503461039d578160031936011261039d576020905164174876e8008152f35b503461024957826003193601126102495760209250549051908152f35b50503461039d578160031936011261039d576020906002549051908152f35b50346102495782600319360112610249578151908282019082821067ffffffffffffffff83111761056e575082526005815260208101640352e302e360dc1b81528251938492602084525180928160208601528585015e828201840152601f01601f19168101030190f35b604190634e487b7160e01b5f525260245ffd5b50503461039d578160031936011261039d5751908152602090f35b50503461039d578160031936011261039d576020905164e8d4a510008152f35b5034610249578160031936011261024957816020936105d961124a565b923581525f805160206117098339815191528552209060018060a01b03165f52825260ff815f20541690519015158152f35b503461024957602036600319011261024957803590610628611303565b60ff60055460e81c166106895764e8d4a51000821161067b5750907f19ad72acd40a59cad104f97c7897cc5675e52fe1e2679088c4bfffd96a9d58a791600154908060015582519182526020820152a180f35b8251632be7087760e21b8152fd5b8251631178f06f60e11b8152fd5b50346102495760203660031901126102495780356106b3611303565b60ff60055460e81c166106f75790817f815e15306354bd73115a816cdb9961d08e971eba51cdb125da1333c303e3e8ba93928254925582519182526020820152a180f35b509051631178f06f60e11b8152fd5b5091903461039d578060031936011261039d57610721611260565b9060243561072d611303565b60ff60055460e81c166107d55769152d02c7e14af680000081106107c55793839460018060a01b03855416803b156107c15783516370edb91560e01b81526001600160a01b039095169285019283526020830191909152849184919082908490829060400103925af19081156107b857506107a55750f35b6107ae90611276565b6107b55780f35b80fd5b513d84823e3d90fd5b8580fd5b815163c561306160e01b81528590fd5b8151631178f06f60e11b81528590fd5b50903461088e57602036600319011261088e57610800611260565b90610809611303565b5f546001600160a01b039081169290833b1561088e5760245f928385519687948593631a62729f60e21b85521680998401525af19081156108855750610872575b507f65cc197fd699db876319e374dc4b8117a40f5a65a313e0c87dc388c423e01c208280a280f35b61087d919250611276565b5f905f61084a565b513d5f823e3d90fd5b5f80fd5b823461088e575f36600319011261088e5760209060ff60055460e81c1690519015158152f35b50903461088e57602036600319011261088e57813562ffffff198082169081830361088e576108e5611303565b6005549260ff8460e81c16610938577f7c41ba825a0a6bd21fed005b6f51a3bd72a9ba617178937424b3f6bea673566d955060181c62ffffff60e81b84161760055583519260181b1682526020820152a1005b8451631178f06f60e11b81528690fd5b50903461088e575f36600319011261088e577f00000000000000000000000000000000000000000000000000000000000000006001600160a01b031630036109b357602090517f360894a13ba1a3210667c828492db98dca3e2076cc3735a920a3ca505d382bbc8152f35b5163703e46dd60e11b8152fd5b50903461088e57602036600319011261088e576127106109e660209360035490356112dc565b049051908152f35b503461088e575f36600319011261088e57610a0761137c565b6005549160ff8360e81c16610a4e5760ff60e81b198316600160e81b17600555337fb8fad2fa0ed7a383e747c309ef2c4391d7b65592a48893e57ccc1fab707914565f80a2005b51631178f06f60e11b8152fd5b823461088e575f36600319011261088e576020906003549051908152f35b508160031936011261088e57610a8d611260565b602492833567ffffffffffffffff811161088e573660238201121561088e5780840135610ab9816112c0565b93610ac68451958661129e565b818552602091828601933689838301011161088e57815f928a8693018737870101526001600160a01b037f00000000000000000000000000000000000000000000000000000000000000008116308114908115610cdc575b50610ccc575f80525f805160206117098339815191528352845f20335f52835260ff855f20541615610cb15781169484516352d1902d60e01b8152838189818a5afa5f9181610c82575b50610b835750505050505191634c9c8ce360e01b8352820152fd5b9087878794938b7f360894a13ba1a3210667c828492db98dca3e2076cc3735a920a3ca505d382bbc91828103610c6d5750853b15610c59575080546001600160a01b031916821790558451907fbc7cd75a20ee27fd9adebab32041f755214dbc6bffa90cc0225b39da2e5c2d3b5f80a2825115610c3f5750505f610c339581925190845af4913d15610c35573d610c25610c1c826112c0565b9251928361129e565b81525f81943d92013e6116a5565b005b50606092506116a5565b9450945050505034610c4d57005b63b398979f60e01b8152fd5b8651634c9c8ce360e01b8152808501849052fd5b8751632a87526960e21b815280860191909152fd5b9091508481813d8311610caa575b610c9a818361129e565b8101031261088e5751908a610b68565b503d610c90565b845163e2517d3f60e01b815233818901525f818a0152604490fd5b845163703e46dd60e11b81528790fd5b9050817f360894a13ba1a3210667c828492db98dca3e2076cc3735a920a3ca505d382bbc5416141589610b1e565b503461088e575f36600319011261088e57610d2361137c565b6005549160ff8360e81c1615610d655760ff60e81b198316600555337ff5cbf596165cc457b2cd92e8d8450827ee314968160a5696402d75766fc52caf5f80a2005b5163551ae7bb60e01b8152fd5b503461088e578160031936011261088e57610d8b611260565b610d9361124a565b917ff0c57e16840df040f15088dc2f81fe391c3923bec73e23a9662efc9c229c6a009283549260ff84871c16159367ffffffffffffffff811680159081610f24575b6001149081610f1a575b159081610f11575b50610f015767ffffffffffffffff198116600117865584610ee2575b50610e0c611664565b610e14611664565b6001600160a01b03908116908115908115610ed7575b50610ec757662386f26fc100009291610e62916bffffffffffffffffffffffff60a01b5f5416175f55610e5c81611405565b506114a2565b50633b9aca006001819055600255610fa0600355556005805460ff60e81b19169055610e8a57005b805468ff00000000000000001916905551600181527fc7f505b2f371ae2175ee4913f4499e1f2633a7b5936321eed1cdaeb6115181d290602090a1005b855163d92e233d60e01b81528390fd5b905082161587610e2a565b68ffffffffffffffffff19166801000000000000000117855586610e03565b865163f92ee8a960e01b81528490fd5b90501588610de7565b303b159150610ddf565b869150610dd5565b50903461088e57602036600319011261088e576001546002548101809111610f6357610f5c9060209335906112dc565b9051908152f35b601183634e487b7160e01b5f525260245ffd5b50903461088e57602036600319011261088e578135610f93611303565b60ff60055460e81c16610fef576113888111610fe1577f308b4110c5cff4fcd6b333e198bcf0082d1c6a8c0349b00f80bec6b8ce860ee59250600354908060035582519182526020820152a1005b505163800c7e9160e01b8152fd5b5051631178f06f60e11b8152fd5b50903461088e578060031936011261088e5761101761124a565b90336001600160a01b038316036110335750610c3391356115e5565b5163334bd91960e11b81529050fd5b50903461088e578060031936011261088e57610c339135611084600161106661124a565b93835f525f805160206117098339815191526020525f2001546113d7565b611562565b50903461088e575f36600319011261088e5760a091600154916002549160035490549160ff60055460e81c169381519586526020860152840152606083015215156080820152f35b50903461088e57602036600319011261088e57602091355f525f8051602061170983398151915282526001815f2001549051908152f35b823461088e575f36600319011261088e57602090517fbf233dd2aafeb4d50879c4aa5c81e96d92f6e6945c906a58f9f2d1c1631b4b268152f35b823461088e575f36600319011261088e576020906001549051908152f35b50903461088e57602036600319011261088e57813561117d611303565b60ff60055460e81c16610fef5764174876e80081116111ce577fdcfcf20e3278086a65f0fa79512897b5a455a0b74774d63f1e138fdb330cf69a9250600254908060025582519182526020820152a1005b5051632be7087760e21b8152fd5b823461088e575f36600319011261088e57602090516113888152f35b823461088e57602036600319011261088e57359063ffffffff60e01b821680920361088e57602091637965db0b60e01b8114908115611239575b5015158152f35b6301ffc9a760e01b14905083611232565b602435906001600160a01b038216820361088e57565b600435906001600160a01b038216820361088e57565b67ffffffffffffffff811161128a57604052565b634e487b7160e01b5f52604160045260245ffd5b90601f8019910116810190811067ffffffffffffffff82111761128a57604052565b67ffffffffffffffff811161128a57601f01601f191660200190565b818102929181159184041417156112ef57565b634e487b7160e01b5f52601160045260245ffd5b335f9081527f75e09417c5070057df3eafe5054d52fa0b2a87d64a235e197963b615aedee80360205260409020547f7935bd0ae54bc31f548c14dba4d37c5c64b3f8ca900cb468fb8abd54d5894f559060ff161561135e5750565b6044906040519063e2517d3f60e01b82523360048301526024820152fd5b335f9081527f762c7c328dd70a077c65c77b60e4c38eed3d2f6aa056d4d0fa114aeff8234b5660205260409020547fbf233dd2aafeb4d50879c4aa5c81e96d92f6e6945c906a58f9f2d1c1631b4b269060ff161561135e5750565b805f525f8051602061170983398151915260205260405f20335f5260205260ff60405f2054161561135e5750565b6001600160a01b03165f8181527fb7db2dd08fcb62d0c9e08c51941cae53c267786a0b75803fb7960902fc8ef97d60205260409020545f805160206117098339815191529060ff1661149c575f805260205260405f20815f5260205260405f20600160ff1982541617905533905f7f2f8788117e7eff1d82e926ec794901d17c78024a50270940304540a733656f0d8180a4600190565b50505f90565b6001600160a01b03165f8181527f75e09417c5070057df3eafe5054d52fa0b2a87d64a235e197963b615aedee80360205260409020547f7935bd0ae54bc31f548c14dba4d37c5c64b3f8ca900cb468fb8abd54d5894f5591905f805160206117098339815191529060ff1661155b57825f5260205260405f20815f5260205260405f20600160ff1982541617905533917f2f8788117e7eff1d82e926ec794901d17c78024a50270940304540a733656f0d5f80a4600190565b5050505f90565b90815f525f805160206117098339815191528060205260405f209160018060a01b031691825f5260205260ff60405f205416155f1461155b57825f5260205260405f20815f5260205260405f20600160ff1982541617905533917f2f8788117e7eff1d82e926ec794901d17c78024a50270940304540a733656f0d5f80a4600190565b90815f525f805160206117098339815191528060205260405f209160018060a01b031691825f5260205260ff60405f2054165f1461155b57825f5260205260405f20815f5260205260405f2060ff19815416905533917ff6391f5c32d9c69d2a47ea670b442974b53935d1edc7fd64eb21e047a839171b5f80a4600190565b60ff7ff0c57e16840df040f15088dc2f81fe391c3923bec73e23a9662efc9c229c6a005460401c161561169357565b604051631afcd79f60e31b8152600490fd5b906116cc57508051156116ba57805190602001fd5b604051630a12f52160e11b8152600490fd5b815115806116ff575b6116dd575090565b604051639996b31560e01b81526001600160a01b039091166004820152602490fd5b50803b156116d556fe02dd7bc7dec4dceedda775e58dd541e08a116c6c53815c0bd028192f7b626800a2646970667358221220d7d08ba30b75ca65331ab36482df25e3cf63639340a61636ee88a1f75271bc0464736f6c63430008190033","linkReferences":{}},"methodIdentifiers":{"BASIS_POINTS()":"e1f1c4a7","DEFAULT_ADMIN_ROLE()":"a217fddf","EMERGENCY_ROLE()":"20df4359","GOVERNOR_ROLE()":"ccc57490","MAX_BASE_FEE()":"98cc7a37","MAX_PRIORITY_FEE()":"c90e3446","MAX_SEQUENCER_CUT_BPS()":"0487cbda","PAUSER_ROLE()":"e63ab1e9","UPGRADE_INTERFACE_VERSION()":"ad3cb1cc","addSequencer(address,uint256)":"f7a822cf","baseFeePerGas()":"11f2d491","calculateSequencerCut(uint256)":"52708a8c","calculateTotalFee(uint256)":"3a51198d","celestiaDAFee()":"c1036327","celestiaNamespace()":"e9dde387","emergencyPause()":"51858e27","emergencyUnpause()":"4a4e3bd5","getRoleAdmin(bytes32)":"248a9ca3","getRollupParameters()":"25d2ee5f","grantRole(bytes32,address)":"2f2ff15d","hasRole(bytes32,address)":"91d14854","initialize(address,address)":"485cc955","paused()":"5c975abb","priorityFeePerGas()":"bd86344d","proxiableUUID()":"52d1902d","removeSequencer(address)":"6989ca7c","renounceRole(bytes32,address)":"36568abe","revokeRole(bytes32,address)":"d547741f","sequencerCutBps()":"513dcf7d","sequencerRegistry()":"eb90e39f","supportsInterface(bytes4)":"01ffc9a7","updateBaseFee(uint256)":"8e690186","updateCelestiaDAFee(uint256)":"7c8bc7f3","updateCelestiaNamespace(bytes29)":"59b19f81","updatePriorityFee(uint256)":"0d698e33","updateSequencerCut(uint256)":"366cf176","updateSequencerRegistry(address)":"f890031a","updateSequencerStake(address,uint256)":"70edb915","upgradeToAndCall(address,bytes)":"4f1ef286"},"id":137}