{"abi":[{"type":"constructor","inputs":[],"stateMutability":"nonpayable"},{"type":"function","name":"BASIS_POINTS","inputs":[],"outputs":[{"name":"","type":"uint256","internalType":"uint256"}],"stateMutability":"view"},{"type":"function","name":"DEFAULT_ADMIN_ROLE","inputs":[],"outputs":[{"name":"","type":"bytes32","internalType":"bytes32"}],"stateMutability":"view"},{"type":"function","name":"EMERGENCY_ROLE","inputs":[],"outputs":[{"name":"","type":"bytes32","internalType":"bytes32"}],"stateMutability":"view"},{"type":"function","name":"GOVERNOR_ROLE","inputs":[],"outputs":[{"name":"","type":"bytes32","internalType":"bytes32"}],"stateMutability":"view"},{"type":"function","name":"MAX_BASE_FEE","inputs":[],"outputs":[{"name":"","type":"uint256","internalType":"uint256"}],"stateMutability":"view"},{"type":"function","name":"MAX_PRIORITY_FEE","inputs":[],"outputs":[{"name":"","type":"uint256","internalType":"uint256"}],"stateMutability":"view"},{"type":"function","name":"MAX_SEQUENCER_CUT_BPS","inputs":[],"outputs":[{"name":"","type":"uint256","internalType":"uint256"}],"stateMutability":"view"},{"type":"function","name":"PAUSER_ROLE","inputs":[],"outputs":[{"name":"","type":"bytes32","internalType":"bytes32"}],"stateMutability":"view"},{"type":"function","name":"UPGRADE_INTERFACE_VERSION","inputs":[],"outputs":[{"name":"","type":"string","internalType":"string"}],"stateMutability":"view"},{"type":"function","name":"addSequencer","inputs":[{"name":"newSequencer","type":"address","internalType":"address"},{"name":"stake","type":"uint256","internalType":"uint256"}],"outputs":[],"stateMutability":"nonpayable"},{"type":"function","name":"baseFeePerGas","inputs":[],"outputs":[{"name":"","type":"uint256","internalType":"uint256"}],"stateMutability":"view"},{"type":"function","name":"calculateSequencerCut","inputs":[{"name":"totalFee","type":"uint256","internalType":"uint256"}],"outputs":[{"name":"","type":"uint256","internalType":"uint256"}],"stateMutability":"view"},{"type":"function","name":"calculateTotalFee","inputs":[{"name":"gasUsed","type":"uint256","internalType":"uint256"}],"outputs":[{"name":"","type":"uint256","internalType":"uint256"}],"stateMutability":"view"},{"type":"function","name":"celestiaDAFee","inputs":[],"outputs":[{"name":"","type":"uint256","internalType":"uint256"}],"stateMutability":"view"},{"type":"function","name":"celestiaNamespace","inputs":[],"outputs":[{"name":"","type":"bytes29","internalType":"bytes29"}],"stateMutability":"view"},{"type":"function","name":"emergencyPause","inputs":[],"outputs":[],"stateMutability":"nonpayable"},{"type":"function","name":"emergencyUnpause","inputs":[],"outputs":[],"stateMutability":"nonpayable"},{"type":"function","name":"getRoleAdmin","inputs":[{"name":"role","type":"bytes32","internalType":"bytes32"}],"outputs":[{"name":"","type":"bytes32","internalType":"bytes32"}],"stateMutability":"view"},{"type":"function","name":"getRollupParameters","inputs":[],"outputs":[{"name":"baseFee","type":"uint256","internalType":"uint256"},{"name":"priorityFee","type":"uint256","internalType":"uint256"},{"name":"sequencerCut","type":"uint256","internalType":"uint256"},{"name":"celestiaFee","type":"uint256","internalType":"uint256"},{"name":"isPaused","type":"bool","internalType":"bool"}],"stateMutability":"view"},{"type":"function","name":"grantRole","inputs":[{"name":"role","type":"bytes32","internalType":"bytes32"},{"name":"account","type":"address","internalType":"address"}],"outputs":[],"stateMutability":"nonpayable"},{"type":"function","name":"hasRole","inputs":[{"name":"role","type":"bytes32","internalType":"bytes32"},{"name":"account","type":"address","internalType":"address"}],"outputs":[{"name":"","type":"bool","internalType":"bool"}],"stateMutability":"view"},{"type":"function","name":"initialize","inputs":[{"name":"_sequencerRegistry","type":"address","internalType":"address"},{"name":"governor","type":"address","internalType":"address"}],"outputs":[],"stateMutability":"nonpayable"},{"type":"function","name":"paused","inputs":[],"outputs":[{"name":"","type":"bool","internalType":"bool"}],"stateMutability":"view"},{"type":"function","name":"priorityFeePerGas","inputs":[],"outputs":[{"name":"","type":"uint256","internalType":"uint256"}],"stateMutability":"view"},{"type":"function","name":"proxiableUUID","inputs":[],"outputs":[{"name":"","type":"bytes32","internalType":"bytes32"}],"stateMutability":"view"},{"type":"function","name":"removeSequencer","inputs":[{"name":"sequencer","type":"address","internalType":"address"}],"outputs":[],"stateMutability":"nonpayable"},{"type":"function","name":"renounceRole","inputs":[{"name":"role","type":"bytes32","internalType":"bytes32"},{"name":"callerConfirmation","type":"address","internalType":"address"}],"outputs":[],"stateMutability":"nonpayable"},{"type":"function","name":"revokeRole","inputs":[{"name":"role","type":"bytes32","internalType":"bytes32"},{"name":"account","type":"address","internalType":"address"}],"outputs":[],"stateMutability":"nonpayable"},{"type":"function","name":"sequencerCutBps","inputs":[],"outputs":[{"name":"","type":"uint256","internalType":"uint256"}],"stateMutability":"view"},{"type":"function","name":"sequencerRegistry","inputs":[],"outputs":[{"name":"","type":"address","internalType":"contract IAndeSequencerRegistry"}],"stateMutability":"view"},{"type":"function","name":"supportsInterface","inputs":[{"name":"interfaceId","type":"bytes4","internalType":"bytes4"}],"outputs":[{"name":"","type":"bool","internalType":"bool"}],"stateMutability":"view"},{"type":"function","name":"updateBaseFee","inputs":[{"name":"newBaseFee","type":"uint256","internalType":"uint256"}],"outputs":[],"stateMutability":"nonpayable"},{"type":"function","name":"updateCelestiaDAFee","inputs":[{"name":"newFee","type":"uint256","internalType":"uint256"}],"outputs":[],"stateMutability":"nonpayable"},{"type":"function","name":"updateCelestiaNamespace","inputs":[{"name":"newNamespace","type":"bytes29","internalType":"bytes29"}],"outputs":[],"stateMutability":"nonpayable"},{"type":"function","name":"updatePriorityFee","inputs":[{"name":"newPriorityFee","type":"uint256","internalType":"uint256"}],"outputs":[],"stateMutability":"nonpayable"},{"type":"function","name":"updateSequencerCut","inputs":[{"name":"newCutBps","type":"uint256","internalType":"uint256"}],"outputs":[],"stateMutability":"nonpayable"},{"type":"function","name":"updateSequencerRegistry","inputs":[{"name":"newRegistry","type":"address","internalType":"address"}],"outputs":[],"stateMutability":"nonpayable"},{"type":"function","name":"updateSequencerStake","inputs":[{"name":"sequencer","type":"address","internalType":"address"},{"name":"newStake","type":"uint256","internalType":"uint256"}],"outputs":[],"stateMutability":"nonpayable"},{"type":"function","name":"upgradeToAndCall","inputs":[{"name":"newImplementation","type":"address","internalType":"address"},{"name":"data","type":"bytes","internalType":"bytes"}],"outputs":[],"stateMutability":"payable"},{"type":"event","name":"BaseFeeUpdated","inputs":[{"name":"oldFee","type":"uint256","indexed":false,"internalType":"uint256"},{"name":"newFee","type":"uint256","indexed":false,"internalType":"uint256"}],"anonymous":false},{"type":"event","name":"CelestiaDAFeeUpdated","inputs":[{"name":"oldFee","type":"uint256","indexed":false,"internalType":"uint256"},{"name":"newFee","type":"uint256","indexed":false,"internalType":"uint256"}],"anonymous":false},{"type":"event","name":"CelestiaNamespaceUpdated","inputs":[{"name":"oldNamespace","type":"bytes29","indexed":false,"internalType":"bytes29"},{"name":"newNamespace","type":"bytes29","indexed":false,"internalType":"bytes29"}],"anonymous":false},{"type":"event","name":"EmergencyPaused","inputs":[{"name":"pauser","type":"address","indexed":true,"internalType":"address"}],"anonymous":false},{"type":"event","name":"EmergencyUnpaused","inputs":[{"name":"unpauser","type":"address","indexed":true,"internalType":"address"}],"anonymous":false},{"type":"event","name":"Initialized","inputs":[{"name":"version","type":"uint64","indexed":false,"internalType":"uint64"}],"anonymous":false},{"type":"event","name":"PriorityFeeUpdated","inputs":[{"name":"oldFee","type":"uint256","indexed":false,"internalType":"uint256"},{"name":"newFee","type":"uint256","indexed":false,"internalType":"uint256"}],"anonymous":false},{"type":"event","name":"RoleAdminChanged","inputs":[{"name":"role","type":"bytes32","indexed":true,"internalType":"bytes32"},{"name":"previousAdminRole","type":"bytes32","indexed":true,"internalType":"bytes32"},{"name":"newAdminRole","type":"bytes32","indexed":true,"internalType":"bytes32"}],"anonymous":false},{"type":"event","name":"RoleGranted","inputs":[{"name":"role","type":"bytes32","indexed":true,"internalType":"bytes32"},{"name":"account","type":"address","indexed":true,"internalType":"address"},{"name":"sender","type":"address","indexed":true,"internalType":"address"}],"anonymous":false},{"type":"event","name":"RoleRevoked","inputs":[{"name":"role","type":"bytes32","indexed":true,"internalType":"bytes32"},{"name":"account","type":"address","indexed":true,"internalType":"address"},{"name":"sender","type":"address","indexed":true,"internalType":"address"}],"anonymous":false},{"type":"event","name":"SequencerAdded","inputs":[{"name":"sequencer","type":"address","indexed":true,"internalType":"address"},{"name":"stake","type":"uint256","indexed":false,"internalType":"uint256"}],"anonymous":false},{"type":"event","name":"SequencerCutUpdated","inputs":[{"name":"oldCut","type":"uint256","indexed":false,"internalType":"uint256"},{"name":"newCut","type":"uint256","indexed":false,"internalType":"uint256"}],"anonymous":false},{"type":"event","name":"SequencerRegistryUpdated","inputs":[{"name":"oldRegistry","type":"address","indexed":true,"internalType":"address"},{"name":"newRegistry","type":"address","indexed":true,"internalType":"address"}],"anonymous":false},{"type":"event","name":"SequencerRemoved","inputs":[{"name":"sequencer","type":"address","indexed":true,"internalType":"address"}],"anonymous":false},{"type":"event","name":"Upgraded","inputs":[{"name":"implementation","type":"address","indexed":true,"internalType":"address"}],"anonymous":false},{"type":"error","name":"AccessControlBadConfirmation","inputs":[]},{"type":"error","name":"AccessControlUnauthorizedAccount","inputs":[{"name":"account","type":"address","internalType":"address"},{"name":"neededRole","type":"bytes32","internalType":"bytes32"}]},{"type":"error","name":"AddressEmptyCode","inputs":[{"name":"target","type":"address","internalType":"address"}]},{"type":"error","name":"ERC1967InvalidImplementation","inputs":[{"name":"implementation","type":"address","internalType":"address"}]},{"type":"error","name":"ERC1967NonPayable","inputs":[]},{"type":"error","name":"FailedInnerCall","inputs":[]},{"type":"error","name":"FeeExceedsMaximum","inputs":[]},{"type":"error","name":"InvalidBasisPoints","inputs":[]},{"type":"error","name":"InvalidInitialization","inputs":[]},{"type":"error","name":"InvalidSequencerStake","inputs":[]},{"type":"error","name":"NotInitializing","inputs":[]},{"type":"error","name":"RollupNotPaused","inputs":[]},{"type":"error","name":"RollupPaused","inputs":[]},{"type":"error","name":"UUPSUnauthorizedCallContext","inputs":[]},{"type":"error","name":"UUPSUnsupportedProxiableUUID","inputs":[{"name":"slot","type":"bytes32","internalType":"bytes32"}]},{"type":"error","name":"ZeroAddress","inputs":[]}],"bytecode":{"object":"0x60a0806040523460c857306080527ff0c57e16840df040f15088dc2f81fe391c3923bec73e23a9662efc9c229c6a009081549060ff8260401c1660b957506001600160401b036002600160401b0319828216016075575b604051611f0790816100cd8239608051818181610c000152610e030152f35b6001600160401b031990911681179091556040519081527fc7f505b2f371ae2175ee4913f4499e1f2633a7b5936321eed1cdaeb6115181d290602090a15f80806056565b63f92ee8a960e01b8152600490fd5b5f80fdfe60806040818152600480361015610014575f80fd5b5f925f3560e01c90816301ffc9a714611772575080630487cbda146117565780630d698e33146116c157806311f2d491146116a357806320df435914611669578063248a9ca31461161f57806325d2ee5f146115d75780632f2ff15d1461157d57806336568abe14611512578063366cf176146114595780633a51198d146113f6578063485cc955146111915780634a4e3bd5146110f25780634f1ef28614610d7c578063513dcf7d14610d5e57806351858e2714610ca357806352708a8c14610c7557806352d1902d14610bd757806359b19f8114610af95780635c975abb14610ad35780636989ca7c14610a0157806370edb915146108ba5780637c8bc7f3146108325780638e6901861461077457806391d148541461070457806398cc7a37146106e4578063a217fddf146106c9578063ad3cb1cc146105fc578063bd86344d146105dd578063c1036327146105c0578063c90e3446146105a0578063ccc5749014610565578063d547741f14610507578063e1f1c4a7146104ea578063e63ab1e9146104af578063e9dde3871461046b578063eb90e39f14610434578063f7a822cf1461028b5763f890031a146101cd575f80fd5b34610287576020600319360112610287576101e6611832565b906101ef611951565b73ffffffffffffffffffffffffffffffffffffffff8092169283156102615750508254827fffffffffffffffffffffffff00000000000000000000000000000000000000008216178455167f0e4ba2d68a783e3bb35cb21a87e223b7d6408f767a57ecfdbb6a61b0808fab9e8380a380f35b517fd92e233d000000000000000000000000000000000000000000000000000000008152fd5b8280fd5b50346102875781600319360112610287576102a4611832565b91602435916102b1611951565b60ff60055460e81c1661040d5773ffffffffffffffffffffffffffffffffffffffff938481169485156103e55769152d02c7e14af680000085106103bd579086929183541691823b156103af5761035d9284928388938851968795869485937ff7a822cf00000000000000000000000000000000000000000000000000000000855284016020909392919373ffffffffffffffffffffffffffffffffffffffff60408201951681520152565b03925af180156103b35761039b575b50507f4fd176ea5a84f3047cc893049bb44ef7418b01c9e07affb753a6847a9cfd6a669160209151908152a280f35b6103a490611855565b6103af57835f61036c565b8380fd5b83513d84823e3d90fd5b8284517fc5613061000000000000000000000000000000000000000000000000000000008152fd5b8284517fd92e233d000000000000000000000000000000000000000000000000000000008152fd5b90517f22f1e0de000000000000000000000000000000000000000000000000000000008152fd5b50503461046757816003193601126104675773ffffffffffffffffffffffffffffffffffffffff60209254169051908152f35b5080fd5b5050346104675781600319360112610467576020907fffffffffffffffffffffffffffffffffffffffffffffffffffffffffff00000060055460181b915191168152f35b505034610467578160031936011261046757602090517f65d7a28e3265b37a6474929f336521b332c1681b933f6cb9f3376673440d862a8152f35b505034610467578160031936011261046757602090516127108152f35b509034610287578060031936011261028757610561913561055c600161052b61180f565b938387527f02dd7bc7dec4dceedda775e58dd541e08a116c6c53815c0bd028192f7b62680060205286200154611a3e565b611d1a565b5080f35b505034610467578160031936011261046757602090517f7935bd0ae54bc31f548c14dba4d37c5c64b3f8ca900cb468fb8abd54d5894f558152f35b5050346104675781600319360112610467576020905164174876e8008152f35b503461028757826003193601126102875760209250549051908152f35b5050346104675781600319360112610467576020906002549051908152f35b50346102875782600319360112610287578151908282019082821067ffffffffffffffff83111761069d57508252600581527fffffffffffffffffffffffffffffffffffffffffffffffffffffffffffffffe0601f602083017f352e302e3000000000000000000000000000000000000000000000000000000081528451958694602086525180928160208801528787015e85828601015201168101030190f35b6041907f4e487b71000000000000000000000000000000000000000000000000000000005f525260245ffd5b50503461046757816003193601126104675751908152602090f35b5050346104675781600319360112610467576020905164e8d4a510008152f35b503461028757816003193601126102875773ffffffffffffffffffffffffffffffffffffffff8260209461073661180f565b933581527f02dd7bc7dec4dceedda775e58dd541e08a116c6c53815c0bd028192f7b62680086522091165f52825260ff815f20541690519015158152f35b503461028757602060031936011261028757803590610791611951565b60ff60055460e81c1661080b5764e8d4a5100082116107e45750907f19ad72acd40a59cad104f97c7897cc5675e52fe1e2679088c4bfffd96a9d58a791600154908060015582519182526020820152a180f35b82517faf9c21dc000000000000000000000000000000000000000000000000000000008152fd5b82517f22f1e0de000000000000000000000000000000000000000000000000000000008152fd5b503461028757602060031936011261028757803561084e611951565b60ff60055460e81c166108925790817f815e15306354bd73115a816cdb9961d08e971eba51cdb125da1333c303e3e8ba93928254925582519182526020820152a180f35b5090517f22f1e0de000000000000000000000000000000000000000000000000000000008152fd5b509190346104675780600319360112610467576108d5611832565b906024356108e1611951565b60ff60055460e81c166109d95769152d02c7e14af680000081106109b15793839473ffffffffffffffffffffffffffffffffffffffff855416803b156109ad5761097e948680948651978895869485937f70edb91500000000000000000000000000000000000000000000000000000000855284016020909392919373ffffffffffffffffffffffffffffffffffffffff60408201951681520152565b03925af19081156109a457506109915750f35b61099a90611855565b6109a15780f35b80fd5b513d84823e3d90fd5b8580fd5b8482517fc5613061000000000000000000000000000000000000000000000000000000008152fd5b8482517f22f1e0de000000000000000000000000000000000000000000000000000000008152fd5b509034610acf576020600319360112610acf57610a1c611832565b90610a25611951565b73ffffffffffffffffffffffffffffffffffffffff91825f541692833b15610acf5760245f9283855196879485937f6989ca7c0000000000000000000000000000000000000000000000000000000085521680998401525af1908115610ac65750610ab3575b507f65cc197fd699db876319e374dc4b8117a40f5a65a313e0c87dc388c423e01c208280a280f35b610abe919250611855565b5f905f610a8b565b513d5f823e3d90fd5b5f80fd5b8234610acf575f600319360112610acf5760209060ff60055460e81c1690519015158152f35b509034610acf576020600319360112610acf5781357fffffffffffffffffffffffffffffffffffffffffffffffffffffffffff00000080821690818303610acf57610b42611951565b6005549260ff8460e81c16610baf577f7c41ba825a0a6bd21fed005b6f51a3bd72a9ba617178937424b3f6bea673566d955060181c7fffffff000000000000000000000000000000000000000000000000000000000084161760055583519260181b1682526020820152a1005b8585517f22f1e0de000000000000000000000000000000000000000000000000000000008152fd5b509034610acf575f600319360112610acf5773ffffffffffffffffffffffffffffffffffffffff7f0000000000000000000000000000000000000000000000000000000000000000163003610c4f57602090517f360894a13ba1a3210667c828492db98dca3e2076cc3735a920a3ca505d382bbc8152f35b517fe07c8dba000000000000000000000000000000000000000000000000000000008152fd5b509034610acf576020600319360112610acf57612710610c9b6020936003549035611911565b049051908152f35b5034610acf575f600319360112610acf57610cbc6119e3565b6005549160ff8360e81c16610d38577d0100000000000000000000000000000000000000000000000000000000007fffff00ffffffffffffffffffffffffffffffffffffffffffffffffffffffffff841617600555337fb8fad2fa0ed7a383e747c309ef2c4391d7b65592a48893e57ccc1fab707914565f80a2005b517f22f1e0de000000000000000000000000000000000000000000000000000000008152fd5b8234610acf575f600319360112610acf576020906003549051908152f35b5081600319360112610acf57610d90611832565b602492833567ffffffffffffffff8111610acf5736602382011215610acf5780840135610dbc816118d7565b93610dc984519586611896565b8185526020918286019336898383010111610acf57815f928a86930187378701015273ffffffffffffffffffffffffffffffffffffffff807f0000000000000000000000000000000000000000000000000000000000000000168030149081156110c4575b5061109c575f80527f02dd7bc7dec4dceedda775e58dd541e08a116c6c53815c0bd028192f7b6268008352845f20335f52835260ff855f205416156110685781169484517f52d1902d000000000000000000000000000000000000000000000000000000008152838189818a5afa5f9181611039575b50610ed857505050505051917f4c9c8ce3000000000000000000000000000000000000000000000000000000008352820152fd5b9087878794938b7f360894a13ba1a3210667c828492db98dca3e2076cc3735a920a3ca505d382bbc9182810361100c5750853b15610fdf5750817fffffffffffffffffffffffff00000000000000000000000000000000000000008254161790558451907fbc7cd75a20ee27fd9adebab32041f755214dbc6bffa90cc0225b39da2e5c2d3b5f80a2825115610fac5750505f610fa09581925190845af4913d15610fa2573d610f92610f89826118d7565b92519283611896565b81525f81943d92013e611e31565b005b5060609250611e31565b9450945050505034610fba57005b7fb398979f000000000000000000000000000000000000000000000000000000008152fd5b83838851917f4c9c8ce3000000000000000000000000000000000000000000000000000000008352820152fd5b84908851917faa1d49a4000000000000000000000000000000000000000000000000000000008352820152fd5b9091508481813d8311611061575b6110518183611896565b81010312610acf5751908a610ea4565b503d611047565b84517fe2517d3f00000000000000000000000000000000000000000000000000000000815233818901525f818a0152604490fd5b8685517fe07c8dba000000000000000000000000000000000000000000000000000000008152fd5b9050817f360894a13ba1a3210667c828492db98dca3e2076cc3735a920a3ca505d382bbc5416141589610e2e565b509034610acf575f600319360112610acf5761110c6119e3565b6005549060ff8260e81c1615611169577fffff00ffffffffffffffffffffffffffffffffffffffffffffffffffffffffff8216600555337ff5cbf596165cc457b2cd92e8d8450827ee314968160a5696402d75766fc52caf5f80a2005b9050517f551ae7bb000000000000000000000000000000000000000000000000000000008152fd5b5034610acf5781600319360112610acf576111aa611832565b6111b261180f565b917ff0c57e16840df040f15088dc2f81fe391c3923bec73e23a9662efc9c229c6a009283549260ff84871c16159367ffffffffffffffff8116801590816113ee575b60011490816113e4575b1590816113db575b506113b3578460017fffffffffffffffffffffffffffffffffffffffffffffffff0000000000000000831617875561137e575b50611242611dd8565b61124a611dd8565b73ffffffffffffffffffffffffffffffffffffffff809116908115908115611373575b5061134b57662386f26fc1000092916112b6917fffffffffffffffffffffffff00000000000000000000000000000000000000005f5416175f556112b081611a7f565b50611b5a565b50633b9aca0080600155600255610fa0600355557fffff00ffffffffffffffffffffffffffffffffffffffffffffffffffffffffff600554166005556112f857005b7fc7f505b2f371ae2175ee4913f4499e1f2633a7b5936321eed1cdaeb6115181d291817fffffffffffffffffffffffffffffffffffffffffffffff00ffffffffffffffff602093541690555160018152a1005b8286517fd92e233d000000000000000000000000000000000000000000000000000000008152fd5b90508216158761126d565b7fffffffffffffffffffffffffffffffffffffffffffffff000000000000000000166801000000000000000117855586611239565b8387517ff92ee8a9000000000000000000000000000000000000000000000000000000008152fd5b90501588611206565b303b1591506111fe565b8691506111f4565b509034610acf576020600319360112610acf57600154600254810180911161142d57611426906020933590611911565b9051908152f35b6011837f4e487b71000000000000000000000000000000000000000000000000000000005f525260245ffd5b509034610acf576020600319360112610acf578135611476611951565b60ff60055460e81c166114eb5761138881116114c4577f308b4110c5cff4fcd6b333e198bcf0082d1c6a8c0349b00f80bec6b8ce860ee59250600354908060035582519182526020820152a1005b50517f800c7e91000000000000000000000000000000000000000000000000000000008152fd5b50517f22f1e0de000000000000000000000000000000000000000000000000000000008152fd5b509034610acf5780600319360112610acf5761152c61180f565b903373ffffffffffffffffffffffffffffffffffffffff8316036115555750610fa09135611d1a565b9050517f6697b232000000000000000000000000000000000000000000000000000000008152fd5b509034610acf5780600319360112610acf57610fa091356115d260016115a161180f565b93835f527f02dd7bc7dec4dceedda775e58dd541e08a116c6c53815c0bd028192f7b6268006020525f200154611a3e565b611c58565b509034610acf575f600319360112610acf5760a091600154916002549160035490549160ff60055460e81c169381519586526020860152840152606083015215156080820152f35b509034610acf576020600319360112610acf57602091355f527f02dd7bc7dec4dceedda775e58dd541e08a116c6c53815c0bd028192f7b62680082526001815f2001549051908152f35b8234610acf575f600319360112610acf57602090517fbf233dd2aafeb4d50879c4aa5c81e96d92f6e6945c906a58f9f2d1c1631b4b268152f35b8234610acf575f600319360112610acf576020906001549051908152f35b509034610acf576020600319360112610acf5781356116de611951565b60ff60055460e81c166114eb5764174876e800811161172f577fdcfcf20e3278086a65f0fa79512897b5a455a0b74774d63f1e138fdb330cf69a9250600254908060025582519182526020820152a1005b50517faf9c21dc000000000000000000000000000000000000000000000000000000008152fd5b8234610acf575f600319360112610acf57602090516113888152f35b8234610acf576020600319360112610acf5735907fffffffff000000000000000000000000000000000000000000000000000000008216809203610acf57817f7965db0b00000000000000000000000000000000000000000000000000000000602093149081156117e5575b5015158152f35b7f01ffc9a700000000000000000000000000000000000000000000000000000000915014836117de565b6024359073ffffffffffffffffffffffffffffffffffffffff82168203610acf57565b6004359073ffffffffffffffffffffffffffffffffffffffff82168203610acf57565b67ffffffffffffffff811161186957604052565b7f4e487b71000000000000000000000000000000000000000000000000000000005f52604160045260245ffd5b90601f7fffffffffffffffffffffffffffffffffffffffffffffffffffffffffffffffe0910116810190811067ffffffffffffffff82111761186957604052565b67ffffffffffffffff811161186957601f017fffffffffffffffffffffffffffffffffffffffffffffffffffffffffffffffe01660200190565b8181029291811591840414171561192457565b7f4e487b71000000000000000000000000000000000000000000000000000000005f52601160045260245ffd5b335f9081527f75e09417c5070057df3eafe5054d52fa0b2a87d64a235e197963b615aedee80360205260409020547f7935bd0ae54bc31f548c14dba4d37c5c64b3f8ca900cb468fb8abd54d5894f559060ff16156119ac5750565b604490604051907fe2517d3f0000000000000000000000000000000000000000000000000000000082523360048301526024820152fd5b335f9081527f762c7c328dd70a077c65c77b60e4c38eed3d2f6aa056d4d0fa114aeff8234b5660205260409020547fbf233dd2aafeb4d50879c4aa5c81e96d92f6e6945c906a58f9f2d1c1631b4b269060ff16156119ac5750565b805f527f02dd7bc7dec4dceedda775e58dd541e08a116c6c53815c0bd028192f7b62680060205260405f20335f5260205260ff60405f205416156119ac5750565b73ffffffffffffffffffffffffffffffffffffffff165f8181527fb7db2dd08fcb62d0c9e08c51941cae53c267786a0b75803fb7960902fc8ef97d60205260409020547f02dd7bc7dec4dceedda775e58dd541e08a116c6c53815c0bd028192f7b6268009060ff16611b54575f805260205260405f20815f5260205260405f2060017fffffffffffffffffffffffffffffffffffffffffffffffffffffffffffffff0082541617905533905f7f2f8788117e7eff1d82e926ec794901d17c78024a50270940304540a733656f0d8180a4600190565b50505f90565b73ffffffffffffffffffffffffffffffffffffffff165f8181527f75e09417c5070057df3eafe5054d52fa0b2a87d64a235e197963b615aedee80360205260409020547f7935bd0ae54bc31f548c14dba4d37c5c64b3f8ca900cb468fb8abd54d5894f5591907f02dd7bc7dec4dceedda775e58dd541e08a116c6c53815c0bd028192f7b6268009060ff16611c5157825f5260205260405f20815f5260205260405f2060017fffffffffffffffffffffffffffffffffffffffffffffffffffffffffffffff0082541617905533917f2f8788117e7eff1d82e926ec794901d17c78024a50270940304540a733656f0d5f80a4600190565b5050505f90565b90815f527f02dd7bc7dec4dceedda775e58dd541e08a116c6c53815c0bd028192f7b6268008060205273ffffffffffffffffffffffffffffffffffffffff60405f20921691825f5260205260ff60405f205416155f14611c5157825f5260205260405f20815f5260205260405f2060017fffffffffffffffffffffffffffffffffffffffffffffffffffffffffffffff0082541617905533917f2f8788117e7eff1d82e926ec794901d17c78024a50270940304540a733656f0d5f80a4600190565b90815f527f02dd7bc7dec4dceedda775e58dd541e08a116c6c53815c0bd028192f7b6268008060205273ffffffffffffffffffffffffffffffffffffffff60405f20921691825f5260205260ff60405f2054165f14611c5157825f5260205260405f20815f5260205260405f207fffffffffffffffffffffffffffffffffffffffffffffffffffffffffffffff00815416905533917ff6391f5c32d9c69d2a47ea670b442974b53935d1edc7fd64eb21e047a839171b5f80a4600190565b60ff7ff0c57e16840df040f15088dc2f81fe391c3923bec73e23a9662efc9c229c6a005460401c1615611e0757565b60046040517fd7e6bcf8000000000000000000000000000000000000000000000000000000008152fd5b90611e705750805115611e4657805190602001fd5b60046040517f1425ea42000000000000000000000000000000000000000000000000000000008152fd5b81511580611ec8575b611e81575090565b60249073ffffffffffffffffffffffffffffffffffffffff604051917f9996b315000000000000000000000000000000000000000000000000000000008352166004820152fd5b50803b15611e7956fea264697066735822122043f146825be7a357ffa15e2a78d8762bac23f57ae0165bd6a519425a19fafe6264736f6c63430008190033","linkReferences":{}},"methodIdentifiers":{"BASIS_POINTS()":"e1f1c4a7","DEFAULT_ADMIN_ROLE()":"a217fddf","EMERGENCY_ROLE()":"20df4359","GOVERNOR_ROLE()":"ccc57490","MAX_BASE_FEE()":"98cc7a37","MAX_PRIORITY_FEE()":"c90e3446","MAX_SEQUENCER_CUT_BPS()":"0487cbda","PAUSER_ROLE()":"e63ab1e9","UPGRADE_INTERFACE_VERSION()":"ad3cb1cc","addSequencer(address,uint256)":"f7a822cf","baseFeePerGas()":"11f2d491","calculateSequencerCut(uint256)":"52708a8c","calculateTotalFee(uint256)":"3a51198d","celestiaDAFee()":"c1036327","celestiaNamespace()":"e9dde387","emergencyPause()":"51858e27","emergencyUnpause()":"4a4e3bd5","getRoleAdmin(bytes32)":"248a9ca3","getRollupParameters()":"25d2ee5f","grantRole(bytes32,address)":"2f2ff15d","hasRole(bytes32,address)":"91d14854","initialize(address,address)":"485cc955","paused()":"5c975abb","priorityFeePerGas()":"bd86344d","proxiableUUID()":"52d1902d","removeSequencer(address)":"6989ca7c","renounceRole(bytes32,address)":"36568abe","revokeRole(bytes32,address)":"d547741f","sequencerCutBps()":"513dcf7d","sequencerRegistry()":"eb90e39f","supportsInterface(bytes4)":"01ffc9a7","updateBaseFee(uint256)":"8e690186","updateCelestiaDAFee(uint256)":"7c8bc7f3","updateCelestiaNamespace(bytes29)":"59b19f81","updatePriorityFee(uint256)":"0d698e33","updateSequencerCut(uint256)":"366cf176","updateSequencerRegistry(address)":"f890031a","updateSequencerStake(address,uint256)":"70edb915","upgradeToAndCall(address,bytes)":"4f1ef286"},"id":137}