{"abi":[{"type":"constructor","inputs":[{"name":"initialOwner","type":"address","internalType":"address"},{"name":"_bondAmount","type":"uint256","internalType":"uint256"},{"name":"_maxGameDuration","type":"uint256","internalType":"uint256"}],"stateMutability":"nonpayable"},{"type":"function","name":"bondAmount","inputs":[],"outputs":[{"name":"","type":"uint256","internalType":"uint256"}],"stateMutability":"view"},{"type":"function","name":"createGame","inputs":[{"name":"gameType","type":"uint8","internalType":"enum AndeDisputeGameFactory.GameType"},{"name":"rootClaim","type":"bytes32","internalType":"bytes32"},{"name":"extraData","type":"bytes","internalType":"bytes"}],"outputs":[{"name":"game","type":"address","internalType":"contract IDisputeGame"}],"stateMutability":"payable"},{"type":"function","name":"gameCount","inputs":[],"outputs":[{"name":"","type":"uint256","internalType":"uint256"}],"stateMutability":"view"},{"type":"function","name":"gameImplementations","inputs":[{"name":"","type":"uint8","internalType":"enum AndeDisputeGameFactory.GameType"}],"outputs":[{"name":"implementation","type":"address","internalType":"address"},{"name":"initialized","type":"bool","internalType":"bool"}],"stateMutability":"view"},{"type":"function","name":"gameIndex","inputs":[{"name":"","type":"address","internalType":"address"}],"outputs":[{"name":"","type":"uint256","internalType":"uint256"}],"stateMutability":"view"},{"type":"function","name":"games","inputs":[{"name":"","type":"uint256","internalType":"uint256"}],"outputs":[{"name":"","type":"address","internalType":"contract IDisputeGame"}],"stateMutability":"view"},{"type":"function","name":"getGames","inputs":[{"name":"offset","type":"uint256","internalType":"uint256"},{"name":"limit","type":"uint256","internalType":"uint256"}],"outputs":[{"name":"","type":"address[]","internalType":"contract IDisputeGame[]"}],"stateMutability":"view"},{"type":"function","name":"maxGameDuration","inputs":[],"outputs":[{"name":"","type":"uint256","internalType":"uint256"}],"stateMutability":"view"},{"type":"function","name":"owner","inputs":[],"outputs":[{"name":"","type":"address","internalType":"address"}],"stateMutability":"view"},{"type":"function","name":"renounceOwnership","inputs":[],"outputs":[],"stateMutability":"nonpayable"},{"type":"function","name":"setBondAmount","inputs":[{"name":"newBondAmount","type":"uint256","internalType":"uint256"}],"outputs":[],"stateMutability":"nonpayable"},{"type":"function","name":"setGameImplementation","inputs":[{"name":"gameType","type":"uint8","internalType":"enum AndeDisputeGameFactory.GameType"},{"name":"implementation","type":"address","internalType":"address"}],"outputs":[],"stateMutability":"nonpayable"},{"type":"function","name":"setMaxGameDuration","inputs":[{"name":"newMaxDuration","type":"uint256","internalType":"uint256"}],"outputs":[],"stateMutability":"nonpayable"},{"type":"function","name":"transferOwnership","inputs":[{"name":"newOwner","type":"address","internalType":"address"}],"outputs":[],"stateMutability":"nonpayable"},{"type":"event","name":"DisputeGameCreated","inputs":[{"name":"gameProxy","type":"address","indexed":true,"internalType":"address"},{"name":"gameType","type":"uint8","indexed":true,"internalType":"enum AndeDisputeGameFactory.GameType"},{"name":"rootClaim","type":"bytes32","indexed":true,"internalType":"bytes32"},{"name":"creator","type":"address","indexed":false,"internalType":"address"}],"anonymous":false},{"type":"event","name":"GameImplementationSet","inputs":[{"name":"gameType","type":"uint8","indexed":true,"internalType":"enum AndeDisputeGameFactory.GameType"},{"name":"implementation","type":"address","indexed":true,"internalType":"address"}],"anonymous":false},{"type":"event","name":"OwnershipTransferred","inputs":[{"name":"previousOwner","type":"address","indexed":true,"internalType":"address"},{"name":"newOwner","type":"address","indexed":true,"internalType":"address"}],"anonymous":false},{"type":"error","name":"OwnableInvalidOwner","inputs":[{"name":"owner","type":"address","internalType":"address"}]},{"type":"error","name":"OwnableUnauthorizedAccount","inputs":[{"name":"account","type":"address","internalType":"address"}]}],"bytecode":{"object":"0x60803460c657601f610cd538819003918201601f19168301916001600160401b0383118484101760ca5780849260609460405283398101031260c65780516001600160a01b03918282169182900360c6576040602082015191015191801560ae575f80546001600160a01b03198116831782556040519516907f8be0079c531659141344cd1fd0a4f28419497f9722a3daafe3b4186f6b6457e09080a3600455600555610bf690816100df8239f35b604051631e4fbdf760e01b81525f6004820152602490fd5b5f80fd5b634e487b7160e01b5f52604160045260245ffdfe60806040526004361015610011575f80fd5b5f3560e01c8063117a5b90146100f457806328f9f3e6146100ef578063443449d2146100ea5780634d1975b4146100e5578063715018a6146100e057806380f323a7146100db5780638da5cb5b146100d65780638f073342146100d1578063a5a48d6b146100cc578063ac451185146100c7578063b64ea8c6146100c2578063c2feb473146100bd578063f2fde38b146100b85763fece7145146100b3575f80fd5b61070f565b6105fa565b6105d9565b6105bc565b6104c5565b610449565b610405565b6103a9565b61038c565b610335565b610318565b610201565b6101a5565b610147565b634e487b7160e01b5f52603260045260245ffd5b6002548110156101425760025f527f405787fa12a823e0f2b7631cc41b3ba8828b3321ca811111fa75cd3aa3bb5ace01905f90565b6100f9565b346101a15760203660031901126101a1576004356002548110156101a15760025f527f405787fa12a823e0f2b7631cc41b3ba8828b3321ca811111fa75cd3aa3bb5ace01546040516001600160a01b039091168152602090f35b5f80fd5b346101a15760203660031901126101a1576101be610acd565b600480359055005b6004359060038210156101a157565b602435906001600160a01b03821682036101a157565b600435906001600160a01b03821682036101a157565b346101a15760403660031901126101a15761021a6101c6565b6102226101d5565b9061022b610acd565b6001600160a01b0382169182156102d0576102a19061025a61024b6106ef565b6001600160a01b039092168252565b6001602082015261026a836103ee565b815181546020909301516001600160a81b03199093166001600160a01b03919091161791151560a01b60ff60a01b16919091179055565b6102aa816103d0565b7fde8e25465d87939ee93be2ea08d54a9df5b5742a2e93e8b32f1734a6e34c20045f80a3005b60405162461bcd60e51b815260206004820152601660248201527524b73b30b634b21034b6b83632b6b2b73a30ba34b7b760511b6044820152606490fd5b5f9103126101a157565b346101a1575f3660031901126101a1576020600254604051908152f35b346101a1575f3660031901126101a15761034d610acd565b5f80546001600160a01b0319811682556001600160a01b03167f8be0079c531659141344cd1fd0a4f28419497f9722a3daafe3b4186f6b6457e08280a3005b346101a1575f3660031901126101a1576020600454604051908152f35b346101a1575f3660031901126101a1575f546040516001600160a01b039091168152602090f35b600311156103da57565b634e487b7160e01b5f52602160045260245ffd5b60038110156103da575f52600160205260405f2090565b346101a15760203660031901126101a15760406104286104236101c6565b6103ee565b5481516001600160a01b038216815260a09190911c60ff1615156020820152f35b346101a15760203660031901126101a1576001600160a01b0361046a6101eb565b165f526003602052602060405f2054604051908152f35b60209060206040818301928281528551809452019301915f5b8281106104a8575050505090565b83516001600160a01b03168552938101939281019260010161049a565b346101a15760403660031901126101a157600435600254808210156105805781610504916104f5602435836107c3565b90808211610578575b506107d5565b61050d816107fa565b915f5b82811061052957604051806105258682610481565b0390f35b8061057261055961054461053f600195876107c3565b61010d565b905460039190911b1c6001600160a01b031690565b610563838861082c565b6001600160a01b039091169052565b01610510565b90505f6104fe565b60405162461bcd60e51b81526020600482015260146024820152734f6666736574206f7574206f6620626f756e647360601b6044820152606490fd5b346101a1575f3660031901126101a1576020600554604051908152f35b346101a15760203660031901126101a1576105f2610acd565b600435600555005b346101a15760203660031901126101a1576106136101eb565b61061b610acd565b6001600160a01b0390811690811561066c575f54826bffffffffffffffffffffffff60a01b8216175f55167f8be0079c531659141344cd1fd0a4f28419497f9722a3daafe3b4186f6b6457e05f80a3005b604051631e4fbdf760e01b81525f6004820152602490fd5b634e487b7160e01b5f52604160045260245ffd5b67ffffffffffffffff81116106ac57604052565b610684565b6080810190811067ffffffffffffffff8211176106ac57604052565b90601f8019910116810190811067ffffffffffffffff8211176106ac57604052565b604051906040820182811067ffffffffffffffff8211176106ac57604052565b60603660031901126101a1576107236101c6565b60443567ffffffffffffffff918282116101a157366023830112156101a15781600401359283116106ac5760405190610766601f8501601f1916602001836106cd565b83825236602485850101116101a1575f60208561052596602461079597018387013784010152602435906109ba565b6040516001600160a01b0390911681529081906020820190565b634e487b7160e01b5f52601160045260245ffd5b919082018092116107d057565b6107af565b919082039182116107d057565b67ffffffffffffffff81116106ac5760051b60200190565b90610804826107e2565b61081160405191826106cd565b8281528092610822601f19916107e2565b0190602036910137565b80518210156101425760209160051b010190565b1561084757565b60405162461bcd60e51b8152602060048201526011602482015270125b9cdd59999a58da595b9d08189bdb99607a1b6044820152606490fd5b906040516040810181811067ffffffffffffffff8211176106ac5760405291546001600160a01b038116835260a01c60ff1615156020830152565b156108c257565b60405162461bcd60e51b815260206004820152601960248201527f47616d652074797065206e6f7420696e697469616c697a6564000000000000006044820152606490fd5b9192608093602092845260018060a01b031682840152606060408401528051918291826060860152018484015e5f828201840152601f01601f1916010190565b6040513d5f823e3d90fd5b600254680100000000000000008110156106ac5760018101806002558110156101425760025f527f405787fa12a823e0f2b7631cc41b3ba8828b3321ca811111fa75cd3aa3bb5ace0180546001600160a01b0319166001600160a01b03909216919091179055565b9291926109cb600454341015610840565b610a09610a046109e26109dd846103ee565b610880565b6109f76109f26020830151151590565b6108bb565b516001600160a01b031690565b610af8565b936001600160a01b03851690813b156101a1575f610a3d916040518093819263c8331adf60e01b8352338960048501610907565b038134865af18015610ac857610aaf575b508094610a6e6002549160018060a01b03165f52600360205260405f2090565b55610a7881610952565b610a81826103d0565b6040513381527f335522a1c73ae48bba1699464d34420941b05d66ee80327871a1613fa27f6fd590602090a4565b80610abc610ac292610698565b8061030e565b5f610a4e565b610947565b5f546001600160a01b03163303610ae057565b60405163118cdaa760e01b8152336004820152602490fd5b6037600254604051602081019182524260408201523360601b606082015260548152610b23816106b1565b519020604051733d602d80600a3d3981f3363d3d373d3d3d363d7360601b815260609390931b60148401526e5af43d82803e903d91602b57fd5bf360881b6028840152915ff5906001600160a01b03821615610b7b57565b60405162461bcd60e51b815260206004820152601760248201527f436c6f6e65206465706c6f796d656e74206661696c65640000000000000000006044820152606490fdfea2646970667358221220b8c84b4fbbb1639c8643a431d6c033ad625f5d25d9158db5779764b8fdba3a9964736f6c63430008190033","linkReferences":{}},"methodIdentifiers":{"bondAmount()":"80f323a7","createGame(uint8,bytes32,bytes)":"fece7145","gameCount()":"4d1975b4","gameImplementations(uint8)":"8f073342","gameIndex(address)":"a5a48d6b","games(uint256)":"117a5b90","getGames(uint256,uint256)":"ac451185","maxGameDuration()":"b64ea8c6","owner()":"8da5cb5b","renounceOwnership()":"715018a6","setBondAmount(uint256)":"28f9f3e6","setGameImplementation(uint8,address)":"443449d2","setMaxGameDuration(uint256)":"c2feb473","transferOwnership(address)":"f2fde38b"},"id":129}