{"abi":[{"type":"constructor","inputs":[{"name":"initialOwner","type":"address","internalType":"address"},{"name":"_bondAmount","type":"uint256","internalType":"uint256"},{"name":"_maxGameDuration","type":"uint256","internalType":"uint256"}],"stateMutability":"nonpayable"},{"type":"function","name":"bondAmount","inputs":[],"outputs":[{"name":"","type":"uint256","internalType":"uint256"}],"stateMutability":"view"},{"type":"function","name":"createGame","inputs":[{"name":"gameType","type":"uint8","internalType":"enum AndeDisputeGameFactory.GameType"},{"name":"rootClaim","type":"bytes32","internalType":"bytes32"},{"name":"extraData","type":"bytes","internalType":"bytes"}],"outputs":[{"name":"game","type":"address","internalType":"contract IDisputeGame"}],"stateMutability":"payable"},{"type":"function","name":"gameCount","inputs":[],"outputs":[{"name":"","type":"uint256","internalType":"uint256"}],"stateMutability":"view"},{"type":"function","name":"gameImplementations","inputs":[{"name":"","type":"uint8","internalType":"enum AndeDisputeGameFactory.GameType"}],"outputs":[{"name":"implementation","type":"address","internalType":"address"},{"name":"initialized","type":"bool","internalType":"bool"}],"stateMutability":"view"},{"type":"function","name":"gameIndex","inputs":[{"name":"","type":"address","internalType":"address"}],"outputs":[{"name":"","type":"uint256","internalType":"uint256"}],"stateMutability":"view"},{"type":"function","name":"games","inputs":[{"name":"","type":"uint256","internalType":"uint256"}],"outputs":[{"name":"","type":"address","internalType":"contract IDisputeGame"}],"stateMutability":"view"},{"type":"function","name":"getGames","inputs":[{"name":"offset","type":"uint256","internalType":"uint256"},{"name":"limit","type":"uint256","internalType":"uint256"}],"outputs":[{"name":"","type":"address[]","internalType":"contract IDisputeGame[]"}],"stateMutability":"view"},{"type":"function","name":"maxGameDuration","inputs":[],"outputs":[{"name":"","type":"uint256","internalType":"uint256"}],"stateMutability":"view"},{"type":"function","name":"owner","inputs":[],"outputs":[{"name":"","type":"address","internalType":"address"}],"stateMutability":"view"},{"type":"function","name":"renounceOwnership","inputs":[],"outputs":[],"stateMutability":"nonpayable"},{"type":"function","name":"setBondAmount","inputs":[{"name":"newBondAmount","type":"uint256","internalType":"uint256"}],"outputs":[],"stateMutability":"nonpayable"},{"type":"function","name":"setGameImplementation","inputs":[{"name":"gameType","type":"uint8","internalType":"enum AndeDisputeGameFactory.GameType"},{"name":"implementation","type":"address","internalType":"address"}],"outputs":[],"stateMutability":"nonpayable"},{"type":"function","name":"setMaxGameDuration","inputs":[{"name":"newMaxDuration","type":"uint256","internalType":"uint256"}],"outputs":[],"stateMutability":"nonpayable"},{"type":"function","name":"transferOwnership","inputs":[{"name":"newOwner","type":"address","internalType":"address"}],"outputs":[],"stateMutability":"nonpayable"},{"type":"event","name":"DisputeGameCreated","inputs":[{"name":"gameProxy","type":"address","indexed":true,"internalType":"address"},{"name":"gameType","type":"uint8","indexed":true,"internalType":"enum AndeDisputeGameFactory.GameType"},{"name":"rootClaim","type":"bytes32","indexed":true,"internalType":"bytes32"},{"name":"creator","type":"address","indexed":false,"internalType":"address"}],"anonymous":false},{"type":"event","name":"GameImplementationSet","inputs":[{"name":"gameType","type":"uint8","indexed":true,"internalType":"enum AndeDisputeGameFactory.GameType"},{"name":"implementation","type":"address","indexed":true,"internalType":"address"}],"anonymous":false},{"type":"event","name":"OwnershipTransferred","inputs":[{"name":"previousOwner","type":"address","indexed":true,"internalType":"address"},{"name":"newOwner","type":"address","indexed":true,"internalType":"address"}],"anonymous":false},{"type":"error","name":"OwnableInvalidOwner","inputs":[{"name":"owner","type":"address","internalType":"address"}]},{"type":"error","name":"OwnableUnauthorizedAccount","inputs":[{"name":"account","type":"address","internalType":"address"}]}],"bytecode":{"object":"0x60803460c657601f61105338819003918201601f19168301916001600160401b0383118484101760ca5780849260609460405283398101031260c65780516001600160a01b03918282169182900360c6576040602082015191015191801560ae575f80546001600160a01b03198116831782556040519516907f8be0079c531659141344cd1fd0a4f28419497f9722a3daafe3b4186f6b6457e09080a3600455600555610f7490816100df8239f35b604051631e4fbdf760e01b81525f6004820152602490fd5b5f80fd5b634e487b7160e01b5f52604160045260245ffdfe60806040526004361015610011575f80fd5b5f3560e01c8063117a5b90146100f457806328f9f3e6146100ef578063443449d2146100ea5780634d1975b4146100e5578063715018a6146100e057806380f323a7146100db5780638da5cb5b146100d65780638f073342146100d1578063a5a48d6b146100cc578063ac451185146100c7578063b64ea8c6146100c2578063c2feb473146100bd578063f2fde38b146100b85763fece7145146100b3575f80fd5b6108f2565b61076f565b61074e565b610731565b610601565b61056b565b61051c565b61049c565b61047f565b610403565b6103e6565b610240565b6101ca565b610160565b7f4e487b71000000000000000000000000000000000000000000000000000000005f52603260045260245ffd5b60025481101561015b5760025f527f405787fa12a823e0f2b7631cc41b3ba8828b3321ca811111fa75cd3aa3bb5ace01905f90565b6100f9565b346101c65760206003193601126101c6576004356002548110156101c65773ffffffffffffffffffffffffffffffffffffffff60209160025f527f405787fa12a823e0f2b7631cc41b3ba8828b3321ca811111fa75cd3aa3bb5ace015416604051908152f35b5f80fd5b346101c65760206003193601126101c6576101e3610deb565b600480359055005b6004359060038210156101c657565b6024359073ffffffffffffffffffffffffffffffffffffffff821682036101c657565b6004359073ffffffffffffffffffffffffffffffffffffffff821682036101c657565b346101c65760406003193601126101c6576102596101eb565b6102616101fa565b9061026a610deb565b73ffffffffffffffffffffffffffffffffffffffff821691821561037e5761034f906102b36102976108d2565b73ffffffffffffffffffffffffffffffffffffffff9092168252565b600160208201526102c383610505565b9073ffffffffffffffffffffffffffffffffffffffff8151167fffffffffffffffffffffff00000000000000000000000000000000000000000074ff00000000000000000000000000000000000000006020855494847fffffffffffffffffffffffff000000000000000000000000000000000000000087161787550151151560a01b16921617179055565b610358816104ce565b7fde8e25465d87939ee93be2ea08d54a9df5b5742a2e93e8b32f1734a6e34c20045f80a3005b60646040517f08c379a000000000000000000000000000000000000000000000000000000000815260206004820152601660248201527f496e76616c696420696d706c656d656e746174696f6e000000000000000000006044820152fd5b5f9103126101c657565b346101c6575f6003193601126101c6576020600254604051908152f35b346101c6575f6003193601126101c65761041b610deb565b5f73ffffffffffffffffffffffffffffffffffffffff81547fffffffffffffffffffffffff000000000000000000000000000000000000000081168355167f8be0079c531659141344cd1fd0a4f28419497f9722a3daafe3b4186f6b6457e08280a3005b346101c6575f6003193601126101c6576020600454604051908152f35b346101c6575f6003193601126101c657602073ffffffffffffffffffffffffffffffffffffffff5f5416604051908152f35b600311156104d857565b7f4e487b71000000000000000000000000000000000000000000000000000000005f52602160045260245ffd5b60038110156104d8575f52600160205260405f2090565b346101c65760206003193601126101c657604061053f61053a6101eb565b610505565b5460ff82519173ffffffffffffffffffffffffffffffffffffffff8116835260a01c1615156020820152f35b346101c65760206003193601126101c65773ffffffffffffffffffffffffffffffffffffffff61059961021d565b165f526003602052602060405f2054604051908152f35b60209060206040818301928281528551809452019301915f5b8281106105d7575050505090565b835173ffffffffffffffffffffffffffffffffffffffff16855293810193928101926001016105c9565b346101c65760406003193601126101c657600435600254808210156106d3578161064091610631602435836109ea565b908082116106cb575b506109fc565b61064981610a21565b915f5b828110610665576040518061066186826105b0565b0390f35b806106c56106a061068061067b600195876109ea565b610126565b905473ffffffffffffffffffffffffffffffffffffffff9160031b1c1690565b6106aa8388610a70565b9073ffffffffffffffffffffffffffffffffffffffff169052565b0161064c565b90505f61063a565b60646040517f08c379a000000000000000000000000000000000000000000000000000000000815260206004820152601460248201527f4f6666736574206f7574206f6620626f756e64730000000000000000000000006044820152fd5b346101c6575f6003193601126101c6576020600554604051908152f35b346101c65760206003193601126101c657610767610deb565b600435600555005b346101c65760206003193601126101c65761078861021d565b610790610deb565b73ffffffffffffffffffffffffffffffffffffffff8091169081156107ff575f54827fffffffffffffffffffffffff00000000000000000000000000000000000000008216175f55167f8be0079c531659141344cd1fd0a4f28419497f9722a3daafe3b4186f6b6457e05f80a3005b60246040517f1e4fbdf70000000000000000000000000000000000000000000000000000000081525f6004820152fd5b7f4e487b71000000000000000000000000000000000000000000000000000000005f52604160045260245ffd5b67ffffffffffffffff811161087057604052565b61082f565b6080810190811067ffffffffffffffff82111761087057604052565b90601f7fffffffffffffffffffffffffffffffffffffffffffffffffffffffffffffffe0910116810190811067ffffffffffffffff82111761087057604052565b604051906040820182811067ffffffffffffffff82111761087057604052565b60606003193601126101c6576109066101eb565b60443567ffffffffffffffff918282116101c657366023830112156101c6578160040135928311610870576040519061096760207fffffffffffffffffffffffffffffffffffffffffffffffffffffffffffffffe0601f8701160183610891565b83825236602485850101116101c6575f6020856106619660246109969701838701378401015260243590610c97565b60405173ffffffffffffffffffffffffffffffffffffffff90911681529081906020820190565b7f4e487b71000000000000000000000000000000000000000000000000000000005f52601160045260245ffd5b919082018092116109f757565b6109bd565b919082039182116109f757565b67ffffffffffffffff81116108705760051b60200190565b90610a2b82610a09565b610a386040519182610891565b8281527fffffffffffffffffffffffffffffffffffffffffffffffffffffffffffffffe0610a668294610a09565b0190602036910137565b805182101561015b5760209160051b010190565b15610a8b57565b60646040517f08c379a000000000000000000000000000000000000000000000000000000000815260206004820152601160248201527f496e73756666696369656e7420626f6e640000000000000000000000000000006044820152fd5b906040516040810181811067ffffffffffffffff82111761087057604052915473ffffffffffffffffffffffffffffffffffffffff8116835260a01c60ff1615156020830152565b15610b3857565b60646040517f08c379a000000000000000000000000000000000000000000000000000000000815260206004820152601960248201527f47616d652074797065206e6f7420696e697469616c697a6564000000000000006044820152fd5b91602060809473ffffffffffffffffffffffffffffffffffffffff601f937fffffffffffffffffffffffffffffffffffffffffffffffffffffffffffffffe09587521682860152606060408601528051918291826060880152018686015e5f8582860101520116010190565b6040513d5f823e3d90fd5b6002546801000000000000000081101561087057600181018060025581101561015b5773ffffffffffffffffffffffffffffffffffffffff9060025f527f405787fa12a823e0f2b7631cc41b3ba8828b3321ca811111fa75cd3aa3bb5ace0191167fffffffffffffffffffffffff0000000000000000000000000000000000000000825416179055565b929192610ca8600454341015610a84565b610cf3610cee610cbf610cba84610505565b610ae9565b610cd4610ccf6020830151151590565b610b31565b5173ffffffffffffffffffffffffffffffffffffffff1690565b610e3b565b9373ffffffffffffffffffffffffffffffffffffffff851690813b156101c6575f610d4d91604051809381927fc8331adf000000000000000000000000000000000000000000000000000000008352338960048501610b96565b038134865af18015610de657610dcd575b508094610d8c6002549173ffffffffffffffffffffffffffffffffffffffff165f52600360205260405f2090565b55610d9681610c0d565b610d9f826104ce565b6040513381527f335522a1c73ae48bba1699464d34420941b05d66ee80327871a1613fa27f6fd590602090a4565b80610dda610de09261085c565b806103dc565b5f610d5e565b610c02565b73ffffffffffffffffffffffffffffffffffffffff5f54163303610e0b57565b60246040517f118cdaa7000000000000000000000000000000000000000000000000000000008152336004820152fd5b6037600254604051602081019182524260408201523360601b606082015260548152610e6681610875565b51902091604051907f3d602d80600a3d3981f3363d3d373d3d3d363d73000000000000000000000000825260601b60148201527f5af43d82803e903d91602b57fd5bf3000000000000000000000000000000000060288201525ff59073ffffffffffffffffffffffffffffffffffffffff821615610ee057565b60646040517f08c379a000000000000000000000000000000000000000000000000000000000815260206004820152601760248201527f436c6f6e65206465706c6f796d656e74206661696c65640000000000000000006044820152fdfea26469706673582212204a86c2ffb156729d5c82cf0d62d3676569c070f5a62e8d032bfff1569f91af9464736f6c63430008190033","linkReferences":{}},"methodIdentifiers":{"bondAmount()":"80f323a7","createGame(uint8,bytes32,bytes)":"fece7145","gameCount()":"4d1975b4","gameImplementations(uint8)":"8f073342","gameIndex(address)":"a5a48d6b","games(uint256)":"117a5b90","getGames(uint256,uint256)":"ac451185","maxGameDuration()":"b64ea8c6","owner()":"8da5cb5b","renounceOwnership()":"715018a6","setBondAmount(uint256)":"28f9f3e6","setGameImplementation(uint8,address)":"443449d2","setMaxGameDuration(uint256)":"c2feb473","transferOwnership(address)":"f2fde38b"},"id":129}