{"abi":[{"type":"constructor","inputs":[{"name":"_zkVerifier","type":"address","internalType":"address"},{"name":"_celestiaClient","type":"address","internalType":"address"},{"name":"initialOwner","type":"address","internalType":"address"}],"stateMutability":"nonpayable"},{"type":"function","name":"BRIDGE_TIMEOUT","inputs":[],"outputs":[{"name":"","type":"uint256","internalType":"uint256"}],"stateMutability":"view"},{"type":"function","name":"addSupportedToken","inputs":[{"name":"token","type":"address","internalType":"address"}],"outputs":[],"stateMutability":"nonpayable"},{"type":"function","name":"celestiaClient","inputs":[],"outputs":[{"name":"","type":"address","internalType":"contract ICelestiaLightClient"}],"stateMutability":"view"},{"type":"function","name":"chainId","inputs":[],"outputs":[{"name":"","type":"uint256","internalType":"uint256"}],"stateMutability":"view"},{"type":"function","name":"completed","inputs":[{"name":"","type":"uint256","internalType":"uint256"}],"outputs":[{"name":"","type":"bool","internalType":"bool"}],"stateMutability":"view"},{"type":"function","name":"emergencyUnlock","inputs":[{"name":"nonce","type":"uint256","internalType":"uint256"}],"outputs":[],"stateMutability":"nonpayable"},{"type":"function","name":"emergencyWithdraw","inputs":[{"name":"token","type":"address","internalType":"address"},{"name":"to","type":"address","internalType":"address"},{"name":"amount","type":"uint256","internalType":"uint256"}],"outputs":[],"stateMutability":"nonpayable"},{"type":"function","name":"getBridgeStats","inputs":[{"name":"nonce","type":"uint256","internalType":"uint256"}],"outputs":[{"name":"celestiaHeight","type":"uint64","internalType":"uint64"},{"name":"isComplete","type":"bool","internalType":"bool"},{"name":"timeElapsed","type":"uint256","internalType":"uint256"}],"stateMutability":"view"},{"type":"function","name":"getCurrentNonce","inputs":[],"outputs":[{"name":"","type":"uint256","internalType":"uint256"}],"stateMutability":"view"},{"type":"function","name":"getLock","inputs":[{"name":"nonce","type":"uint256","internalType":"uint256"}],"outputs":[{"name":"","type":"tuple","internalType":"struct ILazybridge.BridgeLock","components":[{"name":"token","type":"address","internalType":"address"},{"name":"amount","type":"uint256","internalType":"uint256"},{"name":"sender","type":"address","internalType":"address"},{"name":"sourceChainId","type":"uint256","internalType":"uint256"},{"name":"destChainId","type":"uint256","internalType":"uint256"},{"name":"recipient","type":"address","internalType":"address"},{"name":"nonce","type":"uint256","internalType":"uint256"},{"name":"timestamp","type":"uint64","internalType":"uint64"}]}],"stateMutability":"view"},{"type":"function","name":"isCompleted","inputs":[{"name":"nonce","type":"uint256","internalType":"uint256"}],"outputs":[{"name":"","type":"bool","internalType":"bool"}],"stateMutability":"view"},{"type":"function","name":"isSupportedToken","inputs":[{"name":"token","type":"address","internalType":"address"}],"outputs":[{"name":"","type":"bool","internalType":"bool"}],"stateMutability":"view"},{"type":"function","name":"lock","inputs":[{"name":"token","type":"address","internalType":"address"},{"name":"amount","type":"uint256","internalType":"uint256"},{"name":"destChainId","type":"uint256","internalType":"uint256"},{"name":"recipient","type":"address","internalType":"address"}],"outputs":[{"name":"nonce","type":"uint256","internalType":"uint256"}],"stateMutability":"nonpayable"},{"type":"function","name":"lockToCelestiaHeight","inputs":[{"name":"","type":"uint256","internalType":"uint256"}],"outputs":[{"name":"","type":"uint64","internalType":"uint64"}],"stateMutability":"view"},{"type":"function","name":"locks","inputs":[{"name":"","type":"uint256","internalType":"uint256"}],"outputs":[{"name":"token","type":"address","internalType":"address"},{"name":"amount","type":"uint256","internalType":"uint256"},{"name":"sender","type":"address","internalType":"address"},{"name":"sourceChainId","type":"uint256","internalType":"uint256"},{"name":"destChainId","type":"uint256","internalType":"uint256"},{"name":"recipient","type":"address","internalType":"address"},{"name":"nonce","type":"uint256","internalType":"uint256"},{"name":"timestamp","type":"uint64","internalType":"uint64"}],"stateMutability":"view"},{"type":"function","name":"minCelestiaConfirmations","inputs":[],"outputs":[{"name":"","type":"uint64","internalType":"uint64"}],"stateMutability":"view"},{"type":"function","name":"owner","inputs":[],"outputs":[{"name":"","type":"address","internalType":"address"}],"stateMutability":"view"},{"type":"function","name":"relay","inputs":[{"name":"lockData","type":"tuple","internalType":"struct ILazybridge.BridgeLock","components":[{"name":"token","type":"address","internalType":"address"},{"name":"amount","type":"uint256","internalType":"uint256"},{"name":"sender","type":"address","internalType":"address"},{"name":"sourceChainId","type":"uint256","internalType":"uint256"},{"name":"destChainId","type":"uint256","internalType":"uint256"},{"name":"recipient","type":"address","internalType":"address"},{"name":"nonce","type":"uint256","internalType":"uint256"},{"name":"timestamp","type":"uint64","internalType":"uint64"}]},{"name":"zkProof","type":"tuple","internalType":"struct ILazybridge.ZKProof","components":[{"name":"proof","type":"bytes","internalType":"bytes"},{"name":"publicSignals","type":"uint256[]","internalType":"uint256[]"},{"name":"celestiaHeight","type":"uint64","internalType":"uint64"},{"name":"dataRoot","type":"bytes32","internalType":"bytes32"}]},{"name":"ibcPacket","type":"bytes","internalType":"bytes"},{"name":"daProof","type":"bytes","internalType":"bytes"}],"outputs":[],"stateMutability":"nonpayable"},{"type":"function","name":"removeSupportedToken","inputs":[{"name":"token","type":"address","internalType":"address"}],"outputs":[],"stateMutability":"nonpayable"},{"type":"function","name":"renounceOwnership","inputs":[],"outputs":[],"stateMutability":"nonpayable"},{"type":"function","name":"supportedTokens","inputs":[{"name":"","type":"address","internalType":"address"}],"outputs":[{"name":"","type":"bool","internalType":"bool"}],"stateMutability":"view"},{"type":"function","name":"transferOwnership","inputs":[{"name":"newOwner","type":"address","internalType":"address"}],"outputs":[],"stateMutability":"nonpayable"},{"type":"function","name":"updateCelestiaClient","inputs":[{"name":"newClient","type":"address","internalType":"address"}],"outputs":[],"stateMutability":"nonpayable"},{"type":"function","name":"updateMinConfirmations","inputs":[{"name":"newMin","type":"uint64","internalType":"uint64"}],"outputs":[],"stateMutability":"nonpayable"},{"type":"function","name":"zkVerifier","inputs":[],"outputs":[{"name":"","type":"address","internalType":"contract IZKVerifier"}],"stateMutability":"view"},{"type":"event","name":"BridgeCompleted","inputs":[{"name":"nonce","type":"uint256","indexed":true,"internalType":"uint256"},{"name":"recipient","type":"address","indexed":true,"internalType":"address"},{"name":"amount","type":"uint256","indexed":false,"internalType":"uint256"},{"name":"totalTime","type":"uint256","indexed":false,"internalType":"uint256"}],"anonymous":false},{"type":"event","name":"OwnershipTransferred","inputs":[{"name":"previousOwner","type":"address","indexed":true,"internalType":"address"},{"name":"newOwner","type":"address","indexed":true,"internalType":"address"}],"anonymous":false},{"type":"event","name":"ProofSubmitted","inputs":[{"name":"nonce","type":"uint256","indexed":true,"internalType":"uint256"},{"name":"celestiaHeight","type":"uint64","indexed":false,"internalType":"uint64"},{"name":"proofHash","type":"bytes32","indexed":false,"internalType":"bytes32"}],"anonymous":false},{"type":"event","name":"TokensLocked","inputs":[{"name":"token","type":"address","indexed":true,"internalType":"address"},{"name":"sender","type":"address","indexed":true,"internalType":"address"},{"name":"recipient","type":"address","indexed":true,"internalType":"address"},{"name":"amount","type":"uint256","indexed":false,"internalType":"uint256"},{"name":"destChainId","type":"uint256","indexed":false,"internalType":"uint256"},{"name":"nonce","type":"uint256","indexed":false,"internalType":"uint256"}],"anonymous":false},{"type":"event","name":"TokensUnlocked","inputs":[{"name":"token","type":"address","indexed":true,"internalType":"address"},{"name":"recipient","type":"address","indexed":true,"internalType":"address"},{"name":"amount","type":"uint256","indexed":false,"internalType":"uint256"},{"name":"sourceChainId","type":"uint256","indexed":false,"internalType":"uint256"},{"name":"nonce","type":"uint256","indexed":false,"internalType":"uint256"}],"anonymous":false},{"type":"error","name":"AddressEmptyCode","inputs":[{"name":"target","type":"address","internalType":"address"}]},{"type":"error","name":"AddressInsufficientBalance","inputs":[{"name":"account","type":"address","internalType":"address"}]},{"type":"error","name":"AlreadyCompleted","inputs":[]},{"type":"error","name":"BridgeNotExpired","inputs":[]},{"type":"error","name":"FailedInnerCall","inputs":[]},{"type":"error","name":"InsufficientCelestiaConfirmations","inputs":[]},{"type":"error","name":"InvalidAmount","inputs":[]},{"type":"error","name":"InvalidChainId","inputs":[]},{"type":"error","name":"InvalidIBCPacket","inputs":[]},{"type":"error","name":"InvalidRecipient","inputs":[]},{"type":"error","name":"InvalidZKProof","inputs":[]},{"type":"error","name":"LockNotFound","inputs":[]},{"type":"error","name":"OwnableInvalidOwner","inputs":[{"name":"owner","type":"address","internalType":"address"}]},{"type":"error","name":"OwnableUnauthorizedAccount","inputs":[{"name":"account","type":"address","internalType":"address"}]},{"type":"error","name":"ReentrancyGuardReentrantCall","inputs":[]},{"type":"error","name":"SafeERC20FailedOperation","inputs":[{"name":"token","type":"address","internalType":"address"}]},{"type":"error","name":"TokenNotSupported","inputs":[]},{"type":"error","name":"TransferFailed","inputs":[]},{"type":"error","name":"Unauthorized","inputs":[]}],"bytecode":{"object":"0x60c03461015457601f611a6c38819003918201601f191683019291906001600160401b038411838510176101585781606092849260409687528339810103126101545761004b8161016c565b90826100596020830161016c565b916001600160a01b0391829161006f910161016c565b1691821561013d57815f549460018060a01b03199480868816175f5582885197167f8be0079c531659141344cd1fd0a4f28419497f9722a3daafe3b4186f6b6457e05f80a360018055600880546001600160401b031916600c1790551693841561012e57501691821561011d5760805260025416176002554660a0526001600355516118eb908161018182396080518181816102df0152610b0b015260a05181818161061d01526112ae0152f35b8351634e46966960e11b8152600490fd5b634e46966960e11b8152600490fd5b8451631e4fbdf760e01b81525f6004820152602490fd5b5f80fd5b634e487b7160e01b5f52604160045260245ffd5b51906001600160a01b03821682036101545756fe60806040526004361015610011575f80fd5b5f3560e01c80630852c9ea14611248578063240028e81461075f5780632837df32146111ef578063298551d5146111c757806333c34d51146111945780633a60c386146111775780633d24f86a146110f8578063579b6132146110d2578063648920c01461079c57806368c4ac261461075f5780636d69fcaf1461071b578063715018a6146106c457806376319190146106835780637a41984b146104205780638da5cb5b1461065c5780639a7c91d9146106405780639a8a059214610606578063b07933131461044f578063c0cca5ef14610420578063d68f4dd11461030e578063d6df096d146102ca578063dac1177414610288578063e63ea40814610242578063f2fde38b146101bd5763f4dadc611461012c575f80fd5b346101b95760203660031901126101b9576004355f52600460205261010060405f2060018060a01b03808254169160018101549180600283015416906003830154600484015491600585015416926001600160401b03600760068701549601541695604051978852602088015260408701526060860152608085015260a084015260c083015260e0820152f35b5f80fd5b346101b95760203660031901126101b9576101d6611480565b6101de611563565b6001600160a01b0390811690811561022a575f54826001600160601b0360a01b8216175f55167f8be0079c531659141344cd1fd0a4f28419497f9722a3daafe3b4186f6b6457e05f80a3005b604051631e4fbdf760e01b81525f6004820152602490fd5b346101b95760603660031901126101b95761025b611480565b6001600160a01b039060243582811681036101b9576102869261027c611563565b6044359216611752565b005b346101b95760203660031901126101b9576004356001600160401b0381168091036101b9576102b5611563565b6001600160401b031960085416176008555f80f35b346101b9575f3660031901126101b9576040517f00000000000000000000000000000000000000000000000000000000000000006001600160a01b03168152602090f35b346101b95760203660031901126101b9575f60e060405161032e816114c3565b8281528260208201528260408201528260608201528260808201528260a08201528260c082015201526004355f52600460205261010060405f206007604051610376816114c3565b60018060a01b0392838154169384835260018201546020840190815281600284015416604085019081526003840154606086019081528360048601549260808801938452816005880154169460a0890195865260e060068901549860c08b01998a526001600160401b039b8c9101541699019889526040519a8b525160208b015251166040890152516060880152516080870152511660a08501525160c0840152511660e0820152f35b346101b95760203660031901126101b9576004355f526005602052602060ff60405f2054166040519015158152f35b346101b95760203660031901126101b95760043561046b611540565b805f52600460205260405f209060405190610485826114c3565b60018060a01b039081845416835260018401549360208401948552826002820154169360408101948552600760038301549260608301938452600481015460808401528560058201541660a0840152600681015460c08401526001600160401b0391829101541660e0830190808252156105f457845f52600560205260ff60405f2054166105e2578587511633036105d1575116610e1081018091116105bd5742106105ab57837ecff72eb8dd7ec094c1462f889f7cacaf5e165528a2bda284e68c98115355b5946105a292855f52600560205260405f20600160ff1982541617905561057b82825116838a51168b5191611752565b51169551169551915192604051938493846040919493926060820195825260208201520152565b0390a360018055005b604051631ea0da2b60e11b8152600490fd5b634e487b7160e01b5f52601160045260245ffd5b6040516282b42960e81b8152600490fd5b60405163195332a560e01b8152600490fd5b604051636086ee6f60e11b8152600490fd5b346101b9575f3660031901126101b95760206040517f00000000000000000000000000000000000000000000000000000000000000008152f35b346101b9575f3660031901126101b9576020604051610e108152f35b346101b9575f3660031901126101b9575f546040516001600160a01b039091168152602090f35b346101b95760203660031901126101b95761069c611480565b6106a4611563565b6001600160a01b03165f908152600760205260409020805460ff19169055005b346101b9575f3660031901126101b9576106dc611563565b5f80546001600160a01b0319811682556001600160a01b03167f8be0079c531659141344cd1fd0a4f28419497f9722a3daafe3b4186f6b6457e08280a3005b346101b95760203660031901126101b957610734611480565b61073c611563565b6001600160a01b03165f908152600760205260409020805460ff19166001179055005b346101b95760203660031901126101b9576001600160a01b03610780611480565b165f526007602052602060ff60405f2054166040519015158152f35b346101b957366003190161016081126101b957610100136101b9576001600160401b0361010435116101b957608061010435360360031901126101b957610124356001600160401b0381116101b9576107f9903690600401611496565b610144356001600160401b0381116101b957610819903690600401611496565b610821611540565b60c4355f5260046020526001600160401b03600760405f20015416156105f45760c4355f52600560205260ff60405f2054166105e25760c4355f52600460205260405f2060405190610872826114c3565b80546001600160a01b039081168084526001830154602085015260028301548216604085015260038301546060850152600483015460808501526005830154821660a0850152600683015460c08501526007909201546001600160401b031660e08401526108de611514565b160361109c57602081015160243503611065576044356001600160a01b038116908190036101b95760408201516001600160a01b03160361102e5761092161152a565b60a08201516001600160a01b03908116911603610ff457606081015160643503610fb7576080015160843503610f7c576006610969602461010435016101043560040161158e565b905010610f3e57610986602461010435016101043560040161158e565b15610de0576001600160a01b0361099b611514565b16903503610f01576109b9602461010435016101043560040161158e565b60011015610de057602060243591013503610ec3576109e4602461010435016101043560040161158e565b60021015610de057604060643591013503610e7e57610a0f602461010435016101043560040161158e565b60031015610de057606060843591013503610e3957610a3a602461010435016101043560040161158e565b60041015610de05760806001600160a01b03610a5461152a565b1691013503610df457610a73602461010435016101043560040161158e565b60051015610de05760a060c43591013503610da357610ad5610a9b60046101043501806115c3565b9190610ab3602461010435016101043560040161158e565b92909160405194631e8e1e1360e01b865260406004870152604486019161160d565b8381036003190160248501528281526001600160fb1b0383116101b95783809260209492859360051b809285830137010301815f7f00000000000000000000000000000000000000000000000000000000000000006001600160a01b03165af1908115610d55575f91610d84575b5015610d7257610b59916101043560040161162d565b15610d6057600254610bc292602092610bb0926001600160a01b031691905f90610b8960046101043501806115c3565b97906040519889978896879563f87400ab60e01b875260406004880152604487019161160d565b8481036003190160248601529161160d565b03925af1908115610d55575f91610d26575b5015610d145760c4355f52600560205260405f20600160ff19825416179055610c0260446101043501611500565b60066020526001600160401b0360405f2091166001600160401b0319825416179055610c4960018060a01b03610c36611514565b1660243590610c4361152a565b90611752565b60e4356001600160401b0381168091036101b95742034281116105bd57610c6e611514565b610c7661152a565b604080516024358152606435602082015260c435918101919091526001600160a01b0391821692909116907ecff72eb8dd7ec094c1462f889f7cacaf5e165528a2bda284e68c98115355b590606090a36001600160a01b03610cd661152a565b169060405190602435825260208201527ff0df39f1817afe20078c03425c0ead7e30e4a0adc46ab05f74c1bb2942a4a9b3604060c43592a360018055005b604051639bde598d60e01b8152600490fd5b610d48915060203d602011610d4e575b610d4081836114df565b8101906115f5565b81610bd4565b503d610d36565b6040513d5f823e3d90fd5b6040516373c5e67960e01b8152600490fd5b6040516303b2487b60e11b8152600490fd5b610d9d915060203d602011610d4e57610d4081836114df565b85610b43565b60405162461bcd60e51b815260206004820152601560248201527409cdedcc6ca40e6d2cedcc2d840dad2e6dac2e8c6d605b1b6044820152606490fd5b634e487b7160e01b5f52603260045260245ffd5b60405162461bcd60e51b815260206004820152601960248201527f526563697069656e74207369676e616c206d69736d61746368000000000000006044820152606490fd5b60405162461bcd60e51b815260206004820152601a60248201527f4465737420636861696e207369676e616c206d69736d617463680000000000006044820152606490fd5b60405162461bcd60e51b815260206004820152601c60248201527f536f7572636520636861696e207369676e616c206d69736d61746368000000006044820152606490fd5b60405162461bcd60e51b8152602060048201526016602482015275082dadeeadce840e6d2cedcc2d840dad2e6dac2e8c6d60531b6044820152606490fd5b60405162461bcd60e51b81526020600482015260156024820152740a8ded6cadc40e6d2cedcc2d840dad2e6dac2e8c6d605b1b6044820152606490fd5b60405162461bcd60e51b8152602060048201526016602482015275496e76616c6964207075626c6963207369676e616c7360501b6044820152606490fd5b60405162461bcd60e51b8152602060048201526013602482015272088cae6e840c6d0c2d2dc40dad2e6dac2e8c6d606b1b6044820152606490fd5b60405162461bcd60e51b81526020600482015260156024820152740a6deeae4c6ca40c6d0c2d2dc40dad2e6dac2e8c6d605b1b6044820152606490fd5b60405162461bcd60e51b81526020600482015260126024820152710a4cac6d2e0d2cadce840dad2e6dac2e8c6d60731b6044820152606490fd5b60405162461bcd60e51b815260206004820152600f60248201526e0a6cadcc8cae440dad2e6dac2e8c6d608b1b6044820152606490fd5b60405162461bcd60e51b815260206004820152600f60248201526e082dadeeadce840dad2e6dac2e8c6d608b1b6044820152606490fd5b60405162461bcd60e51b815260206004820152600e60248201526d0a8ded6cadc40dad2e6dac2e8c6d60931b6044820152606490fd5b346101b9575f3660031901126101b95760206001600160401b0360085416604051908152f35b346101b95760203660031901126101b95760605f6004355f5260066020526001600160401b03908160405f20541691600560205260ff60405f2054168091819261115f575b50611157575b604051928352151560208301526040820152f35b5f9150611143565b90506004602052600760405f2001541615158561113d565b346101b9575f3660031901126101b9576020600354604051908152f35b346101b95760203660031901126101b9576004355f52600660205260206001600160401b0360405f205416604051908152f35b346101b9575f3660031901126101b9576002546040516001600160a01b039091168152602090f35b346101b95760203660031901126101b957611208611480565b611210611563565b6001600160a01b03168015611236576001600160601b0360a01b60025416176002555f80f35b604051634e46966960e11b8152600490fd5b346101b95760803660031901126101b957611261611480565b604435906001600160a01b039060643582811691602435918390036101b957839061128a611540565b16805f52600760205260ff60405f2054161561146e57811561145c578215611236577f000000000000000000000000000000000000000000000000000000000000000080861461144a57600354945f1986146105bd5785906001820160035560076001600160401b0393849260405191611303836114c3565b878352602083018981526040840192338452606085019283528d6080860190815260a08601938d855260c08701958a875260e088019a8a42168c525f5260046020528360405f20985116946001600160601b0360a01b95868a54161789555160018901558360028901915116858254161790555160038701555160048601556005850192511690825416179055516006820155019151166001600160401b03198254161790556040516323b872dd60e01b60208201523360248201523060448201528360648201526064815260a0810191818310908311176114365760209661141287927fa9e36d2328b9b36d82d602195e22f1ca65cffb4a0a9769b70985e4ec8ce2cd6794604052856117a3565b6040805195865260208601919091528401523392606090a460018055604051908152f35b634e487b7160e01b5f52604160045260245ffd5b604051633d23e4d160e11b8152600490fd5b60405163162908e360e11b8152600490fd5b604051633dd1b30560e01b8152600490fd5b600435906001600160a01b03821682036101b957565b9181601f840112156101b9578235916001600160401b0383116101b957602083818601950101116101b957565b61010081019081106001600160401b0382111761143657604052565b90601f801991011681019081106001600160401b0382111761143657604052565b356001600160401b03811681036101b95790565b6004356001600160a01b03811681036101b95790565b60a4356001600160a01b03811681036101b95790565b600260015414611551576002600155565b604051633ee5aeb560e01b8152600490fd5b5f546001600160a01b0316330361157657565b60405163118cdaa760e01b8152336004820152602490fd5b903590601e19813603018212156101b957018035906001600160401b0382116101b957602001918160051b360383136101b957565b903590601e19813603018212156101b957018035906001600160401b0382116101b9576020019181360383136101b957565b908160209103126101b9575180151581036101b95790565b908060209392818452848401375f828201840152601f01601f1916010190565b6002546040516313b4763360e21b81526020949392916001600160a01b0316908581600481855afa908115610d55575f91611715575b50604083019361167285611500565b916001600160401b03928380600854169116018381116105bd5783169083161061170a576060956116db5f926116a88a98611500565b92604051998a98899788966301ff7b3360e21b88521660048701520135602485015260606044850152606484019161160d565b03925af1918215610d55575f926116f157505090565b6117079250803d10610d4e57610d4081836114df565b90565b505050505050505f90565b90508581813d831161174b575b61172c81836114df565b810103126101b957516001600160401b03811681036101b9575f611663565b503d611722565b60405163a9059cbb60e01b60208201526001600160a01b03909216602483015260448083019390935291815260808101916001600160401b03831182841017611436576117a1926040526117a3565b565b81516001600160a01b03909116915f91829160200182855af13d15611846573d6001600160401b038111611436576117fd91604051916117ed6020601f19601f84011601846114df565b82523d5f602084013e5b83611852565b805190811515918261182b575b50506118135750565b60249060405190635274afe760e01b82526004820152fd5b61183e92506020809183010191016115f5565b155f8061180a565b6117fd906060906117f7565b90611879575080511561186757805190602001fd5b604051630a12f52160e11b8152600490fd5b815115806118ac575b61188a575090565b604051639996b31560e01b81526001600160a01b039091166004820152602490fd5b50803b1561188256fea2646970667358221220c20ac9ec02dca6b40db87ba4d932a071a8d7497bd2c4c36e7004775213e4f0fb64736f6c63430008190033","linkReferences":{}},"methodIdentifiers":{"BRIDGE_TIMEOUT()":"9a7c91d9","addSupportedToken(address)":"6d69fcaf","celestiaClient()":"298551d5","chainId()":"9a8a0592","completed(uint256)":"c0cca5ef","emergencyUnlock(uint256)":"b0793313","emergencyWithdraw(address,address,uint256)":"e63ea408","getBridgeStats(uint256)":"3d24f86a","getCurrentNonce()":"3a60c386","getLock(uint256)":"d68f4dd1","isCompleted(uint256)":"7a41984b","isSupportedToken(address)":"240028e8","lock(address,uint256,uint256,address)":"0852c9ea","lockToCelestiaHeight(uint256)":"33c34d51","locks(uint256)":"f4dadc61","minCelestiaConfirmations()":"579b6132","owner()":"8da5cb5b","relay((address,uint256,address,uint256,uint256,address,uint256,uint64),(bytes,uint256[],uint64,bytes32),bytes,bytes)":"648920c0","removeSupportedToken(address)":"76319190","renounceOwnership()":"715018a6","supportedTokens(address)":"68c4ac26","transferOwnership(address)":"f2fde38b","updateCelestiaClient(address)":"2837df32","updateMinConfirmations(uint64)":"dac11774","zkVerifier()":"d6df096d"},"id":161}