{"abi":[{"type":"constructor","inputs":[{"name":"_zkVerifier","type":"address","internalType":"address"},{"name":"_celestiaClient","type":"address","internalType":"address"},{"name":"initialOwner","type":"address","internalType":"address"}],"stateMutability":"nonpayable"},{"type":"function","name":"BRIDGE_TIMEOUT","inputs":[],"outputs":[{"name":"","type":"uint256","internalType":"uint256"}],"stateMutability":"view"},{"type":"function","name":"addSupportedToken","inputs":[{"name":"token","type":"address","internalType":"address"}],"outputs":[],"stateMutability":"nonpayable"},{"type":"function","name":"celestiaClient","inputs":[],"outputs":[{"name":"","type":"address","internalType":"contract ICelestiaLightClient"}],"stateMutability":"view"},{"type":"function","name":"chainId","inputs":[],"outputs":[{"name":"","type":"uint256","internalType":"uint256"}],"stateMutability":"view"},{"type":"function","name":"completed","inputs":[{"name":"","type":"uint256","internalType":"uint256"}],"outputs":[{"name":"","type":"bool","internalType":"bool"}],"stateMutability":"view"},{"type":"function","name":"emergencyUnlock","inputs":[{"name":"nonce","type":"uint256","internalType":"uint256"}],"outputs":[],"stateMutability":"nonpayable"},{"type":"function","name":"emergencyWithdraw","inputs":[{"name":"token","type":"address","internalType":"address"},{"name":"to","type":"address","internalType":"address"},{"name":"amount","type":"uint256","internalType":"uint256"}],"outputs":[],"stateMutability":"nonpayable"},{"type":"function","name":"getBridgeStats","inputs":[{"name":"nonce","type":"uint256","internalType":"uint256"}],"outputs":[{"name":"celestiaHeight","type":"uint64","internalType":"uint64"},{"name":"isComplete","type":"bool","internalType":"bool"},{"name":"timeElapsed","type":"uint256","internalType":"uint256"}],"stateMutability":"view"},{"type":"function","name":"getCurrentNonce","inputs":[],"outputs":[{"name":"","type":"uint256","internalType":"uint256"}],"stateMutability":"view"},{"type":"function","name":"getLock","inputs":[{"name":"nonce","type":"uint256","internalType":"uint256"}],"outputs":[{"name":"","type":"tuple","internalType":"struct ILazybridge.BridgeLock","components":[{"name":"token","type":"address","internalType":"address"},{"name":"amount","type":"uint256","internalType":"uint256"},{"name":"sender","type":"address","internalType":"address"},{"name":"sourceChainId","type":"uint256","internalType":"uint256"},{"name":"destChainId","type":"uint256","internalType":"uint256"},{"name":"recipient","type":"address","internalType":"address"},{"name":"nonce","type":"uint256","internalType":"uint256"},{"name":"timestamp","type":"uint64","internalType":"uint64"}]}],"stateMutability":"view"},{"type":"function","name":"isCompleted","inputs":[{"name":"nonce","type":"uint256","internalType":"uint256"}],"outputs":[{"name":"","type":"bool","internalType":"bool"}],"stateMutability":"view"},{"type":"function","name":"isSupportedToken","inputs":[{"name":"token","type":"address","internalType":"address"}],"outputs":[{"name":"","type":"bool","internalType":"bool"}],"stateMutability":"view"},{"type":"function","name":"lock","inputs":[{"name":"token","type":"address","internalType":"address"},{"name":"amount","type":"uint256","internalType":"uint256"},{"name":"destChainId","type":"uint256","internalType":"uint256"},{"name":"recipient","type":"address","internalType":"address"}],"outputs":[{"name":"nonce","type":"uint256","internalType":"uint256"}],"stateMutability":"nonpayable"},{"type":"function","name":"lockToCelestiaHeight","inputs":[{"name":"","type":"uint256","internalType":"uint256"}],"outputs":[{"name":"","type":"uint64","internalType":"uint64"}],"stateMutability":"view"},{"type":"function","name":"locks","inputs":[{"name":"","type":"uint256","internalType":"uint256"}],"outputs":[{"name":"token","type":"address","internalType":"address"},{"name":"amount","type":"uint256","internalType":"uint256"},{"name":"sender","type":"address","internalType":"address"},{"name":"sourceChainId","type":"uint256","internalType":"uint256"},{"name":"destChainId","type":"uint256","internalType":"uint256"},{"name":"recipient","type":"address","internalType":"address"},{"name":"nonce","type":"uint256","internalType":"uint256"},{"name":"timestamp","type":"uint64","internalType":"uint64"}],"stateMutability":"view"},{"type":"function","name":"minCelestiaConfirmations","inputs":[],"outputs":[{"name":"","type":"uint64","internalType":"uint64"}],"stateMutability":"view"},{"type":"function","name":"owner","inputs":[],"outputs":[{"name":"","type":"address","internalType":"address"}],"stateMutability":"view"},{"type":"function","name":"relay","inputs":[{"name":"lockData","type":"tuple","internalType":"struct ILazybridge.BridgeLock","components":[{"name":"token","type":"address","internalType":"address"},{"name":"amount","type":"uint256","internalType":"uint256"},{"name":"sender","type":"address","internalType":"address"},{"name":"sourceChainId","type":"uint256","internalType":"uint256"},{"name":"destChainId","type":"uint256","internalType":"uint256"},{"name":"recipient","type":"address","internalType":"address"},{"name":"nonce","type":"uint256","internalType":"uint256"},{"name":"timestamp","type":"uint64","internalType":"uint64"}]},{"name":"zkProof","type":"tuple","internalType":"struct ILazybridge.ZKProof","components":[{"name":"proof","type":"bytes","internalType":"bytes"},{"name":"publicSignals","type":"uint256[]","internalType":"uint256[]"},{"name":"celestiaHeight","type":"uint64","internalType":"uint64"},{"name":"dataRoot","type":"bytes32","internalType":"bytes32"}]},{"name":"ibcPacket","type":"bytes","internalType":"bytes"},{"name":"daProof","type":"bytes","internalType":"bytes"}],"outputs":[],"stateMutability":"nonpayable"},{"type":"function","name":"removeSupportedToken","inputs":[{"name":"token","type":"address","internalType":"address"}],"outputs":[],"stateMutability":"nonpayable"},{"type":"function","name":"renounceOwnership","inputs":[],"outputs":[],"stateMutability":"nonpayable"},{"type":"function","name":"supportedTokens","inputs":[{"name":"","type":"address","internalType":"address"}],"outputs":[{"name":"","type":"bool","internalType":"bool"}],"stateMutability":"view"},{"type":"function","name":"transferOwnership","inputs":[{"name":"newOwner","type":"address","internalType":"address"}],"outputs":[],"stateMutability":"nonpayable"},{"type":"function","name":"updateCelestiaClient","inputs":[{"name":"newClient","type":"address","internalType":"address"}],"outputs":[],"stateMutability":"nonpayable"},{"type":"function","name":"updateMinConfirmations","inputs":[{"name":"newMin","type":"uint64","internalType":"uint64"}],"outputs":[],"stateMutability":"nonpayable"},{"type":"function","name":"zkVerifier","inputs":[],"outputs":[{"name":"","type":"address","internalType":"contract IZKVerifier"}],"stateMutability":"view"},{"type":"event","name":"BridgeCompleted","inputs":[{"name":"nonce","type":"uint256","indexed":true,"internalType":"uint256"},{"name":"recipient","type":"address","indexed":true,"internalType":"address"},{"name":"amount","type":"uint256","indexed":false,"internalType":"uint256"},{"name":"totalTime","type":"uint256","indexed":false,"internalType":"uint256"}],"anonymous":false},{"type":"event","name":"OwnershipTransferred","inputs":[{"name":"previousOwner","type":"address","indexed":true,"internalType":"address"},{"name":"newOwner","type":"address","indexed":true,"internalType":"address"}],"anonymous":false},{"type":"event","name":"ProofSubmitted","inputs":[{"name":"nonce","type":"uint256","indexed":true,"internalType":"uint256"},{"name":"celestiaHeight","type":"uint64","indexed":false,"internalType":"uint64"},{"name":"proofHash","type":"bytes32","indexed":false,"internalType":"bytes32"}],"anonymous":false},{"type":"event","name":"TokensLocked","inputs":[{"name":"token","type":"address","indexed":true,"internalType":"address"},{"name":"sender","type":"address","indexed":true,"internalType":"address"},{"name":"recipient","type":"address","indexed":true,"internalType":"address"},{"name":"amount","type":"uint256","indexed":false,"internalType":"uint256"},{"name":"destChainId","type":"uint256","indexed":false,"internalType":"uint256"},{"name":"nonce","type":"uint256","indexed":false,"internalType":"uint256"}],"anonymous":false},{"type":"event","name":"TokensUnlocked","inputs":[{"name":"token","type":"address","indexed":true,"internalType":"address"},{"name":"recipient","type":"address","indexed":true,"internalType":"address"},{"name":"amount","type":"uint256","indexed":false,"internalType":"uint256"},{"name":"sourceChainId","type":"uint256","indexed":false,"internalType":"uint256"},{"name":"nonce","type":"uint256","indexed":false,"internalType":"uint256"}],"anonymous":false},{"type":"error","name":"AddressEmptyCode","inputs":[{"name":"target","type":"address","internalType":"address"}]},{"type":"error","name":"AddressInsufficientBalance","inputs":[{"name":"account","type":"address","internalType":"address"}]},{"type":"error","name":"AlreadyCompleted","inputs":[]},{"type":"error","name":"BridgeNotExpired","inputs":[]},{"type":"error","name":"FailedInnerCall","inputs":[]},{"type":"error","name":"InsufficientCelestiaConfirmations","inputs":[]},{"type":"error","name":"InvalidAmount","inputs":[]},{"type":"error","name":"InvalidChainId","inputs":[]},{"type":"error","name":"InvalidIBCPacket","inputs":[]},{"type":"error","name":"InvalidRecipient","inputs":[]},{"type":"error","name":"InvalidZKProof","inputs":[]},{"type":"error","name":"LockNotFound","inputs":[]},{"type":"error","name":"OwnableInvalidOwner","inputs":[{"name":"owner","type":"address","internalType":"address"}]},{"type":"error","name":"OwnableUnauthorizedAccount","inputs":[{"name":"account","type":"address","internalType":"address"}]},{"type":"error","name":"ReentrancyGuardReentrantCall","inputs":[]},{"type":"error","name":"SafeERC20FailedOperation","inputs":[{"name":"token","type":"address","internalType":"address"}]},{"type":"error","name":"TokenNotSupported","inputs":[]},{"type":"error","name":"TransferFailed","inputs":[]},{"type":"error","name":"Unauthorized","inputs":[]}],"bytecode":{"object":"0x60c03461015457601f61227e38819003918201601f191683019291906001600160401b038411838510176101585781606092849260409687528339810103126101545761004b8161016c565b90826100596020830161016c565b916001600160a01b0391829161006f910161016c565b1691821561013d57815f549460018060a01b03199480868816175f5582885197167f8be0079c531659141344cd1fd0a4f28419497f9722a3daafe3b4186f6b6457e05f80a360018055600880546001600160401b031916600c1790551693841561012e57501691821561011d5760805260025416176002554660a0526001600355516120fd908161018182396080518181816103660152610da2015260a05181818161074f01526118300152f35b8351634e46966960e11b8152600490fd5b634e46966960e11b8152600490fd5b8451631e4fbdf760e01b81525f6004820152602490fd5b5f80fd5b634e487b7160e01b5f52604160045260245ffd5b51906001600160a01b03821682036101545756fe60806040526004361015610011575f80fd5b5f3560e01c80630852c9ea146117bd578063240028e8146109175780632837df3214611729578063298551d5146116f657806333c34d51146116c25780633a60c386146116a55780633d24f86a14611625578063579b6132146115fe578063648920c01461096157806368c4ac26146109175780636d69fcaf146108a8578063715018a61461082c57806376319190146107c05780637a41984b146104ab5780638da5cb5b1461078e5780639a7c91d9146107725780639a8a059214610738578063b0793313146104da578063c0cca5ef146104ab578063d68f4dd11461038a578063d6df096d1461033a578063dac11774146102df578063e63ea4081461028c578063f2fde38b146101cc5763f4dadc611461012c575f80fd5b346101c85760206003193601126101c8576004355f52600460205261010060405f2073ffffffffffffffffffffffffffffffffffffffff8082541691600181015491806002830154169060038301546004840154916005850154169267ffffffffffffffff600760068701549601541695604051978852602088015260408701526060860152608085015260a084015260c083015260e0820152f35b5f80fd5b346101c85760206003193601126101c8576101e5611aca565b6101ed611c0f565b73ffffffffffffffffffffffffffffffffffffffff80911690811561025c575f54827fffffffffffffffffffffffff00000000000000000000000000000000000000008216175f55167f8be0079c531659141344cd1fd0a4f28419497f9722a3daafe3b4186f6b6457e05f80a3005b60246040517f1e4fbdf70000000000000000000000000000000000000000000000000000000081525f6004820152fd5b346101c85760606003193601126101c8576102a5611aca565b73ffffffffffffffffffffffffffffffffffffffff9060243582811681036101c8576102dd926102d3611c0f565b6044359216611ec0565b005b346101c85760206003193601126101c85760043567ffffffffffffffff81168091036101c85761030d611c0f565b7fffffffffffffffffffffffffffffffffffffffffffffffff000000000000000060085416176008555f80f35b346101c8575f6003193601126101c857602060405173ffffffffffffffffffffffffffffffffffffffff7f0000000000000000000000000000000000000000000000000000000000000000168152f35b346101c85760206003193601126101c8575f60e06040516103aa81611b1b565b8281528260208201528260408201528260608201528260808201528260a08201528260c082015201526004355f52600460205261010060405f2060076040516103f281611b1b565b73ffffffffffffffffffffffffffffffffffffffff92838154169384835260018201546020840190815281600284015416604085019081526003840154606086019081528360048601549260808801938452816005880154169460a0890195865260e060068901549860c08b01998a5267ffffffffffffffff9b8c9101541699019889526040519a8b525160208b015251166040890152516060880152516080870152511660a08501525160c0840152511660e0820152f35b346101c85760206003193601126101c8576004355f526005602052602060ff60405f2054166040519015158152f35b346101c85760206003193601126101c8576004356104f6611bd4565b805f52600460205260405f20906040519061051082611b1b565b73ffffffffffffffffffffffffffffffffffffffff9081845416835260018401549360208401948552826002820154169360408101948552600760038301549260608301938452600481015460808401528560058201541660a0840152600681015460c084015267ffffffffffffffff91829101541660e08301908082521561070e57845f52600560205260ff60405f2054166106e4578587511633036106ba575116610e10810180911161068d57421061066357837ecff72eb8dd7ec094c1462f889f7cacaf5e165528a2bda284e68c98115355b59461065a92855f52600560205260405f2060017fffffffffffffffffffffffffffffffffffffffffffffffffffffffffffffff0082541617905561063382825116838a51168b5191611ec0565b51169551169551915192604051938493846040919493926060820195825260208201520152565b0390a360018055005b60046040517f3d41b456000000000000000000000000000000000000000000000000000000008152fd5b7f4e487b71000000000000000000000000000000000000000000000000000000005f52601160045260245ffd5b60046040517f82b42900000000000000000000000000000000000000000000000000000000008152fd5b60046040517f195332a5000000000000000000000000000000000000000000000000000000008152fd5b60046040517fc10ddcde000000000000000000000000000000000000000000000000000000008152fd5b346101c8575f6003193601126101c85760206040517f00000000000000000000000000000000000000000000000000000000000000008152f35b346101c8575f6003193601126101c8576020604051610e108152f35b346101c8575f6003193601126101c857602073ffffffffffffffffffffffffffffffffffffffff5f5416604051908152f35b346101c85760206003193601126101c85773ffffffffffffffffffffffffffffffffffffffff6107ee611aca565b6107f6611c0f565b165f52600760205260405f207fffffffffffffffffffffffffffffffffffffffffffffffffffffffffffffff0081541690555f80f35b346101c8575f6003193601126101c857610844611c0f565b5f73ffffffffffffffffffffffffffffffffffffffff81547fffffffffffffffffffffffff000000000000000000000000000000000000000081168355167f8be0079c531659141344cd1fd0a4f28419497f9722a3daafe3b4186f6b6457e08280a3005b346101c85760206003193601126101c85773ffffffffffffffffffffffffffffffffffffffff6108d6611aca565b6108de611c0f565b165f52600760205260405f2060017fffffffffffffffffffffffffffffffffffffffffffffffffffffffffffffff008254161790555f80f35b346101c85760206003193601126101c85773ffffffffffffffffffffffffffffffffffffffff610945611aca565b165f526007602052602060ff60405f2054166040519015158152f35b346101c857600319360161016081126101c857610100136101c85767ffffffffffffffff61010435116101c857608060031961010435360301126101c8576101243567ffffffffffffffff81116101c8576109c0903690600401611aed565b6101443567ffffffffffffffff81116101c8576109e1903690600401611aed565b6109e9611bd4565b60c4355f52600460205267ffffffffffffffff600760405f200154161561070e5760c4355f52600560205260ff60405f2054166106e45760c4355f52600460205260405f2060405190610a3b82611b1b565b67ffffffffffffffff600773ffffffffffffffffffffffffffffffffffffffff835416928385526001810154602086015273ffffffffffffffffffffffffffffffffffffffff6002820154166040860152600381015460608601526004810154608086015273ffffffffffffffffffffffffffffffffffffffff60058201541660a0860152600681015460c086015201541660e083015273ffffffffffffffffffffffffffffffffffffffff610aef611b8e565b16036115a0576020810151602435036115425760443573ffffffffffffffffffffffffffffffffffffffff81168091036101c85773ffffffffffffffffffffffffffffffffffffffff604083015116036114e457610b4b611bb1565b73ffffffffffffffffffffffffffffffffffffffff8060a084015116911603611486576060810151606435036114285760800151608435036113ca576006610b9f6024610104350161010435600401611c5f565b90501061136c57610bbc6024610104350161010435600401611c5f565b156111695773ffffffffffffffffffffffffffffffffffffffff610bde611b8e565b1690350361130e57610bfc6024610104350161010435600401611c5f565b60011015611169576020602435910135036112b057610c276024610104350161010435600401611c5f565b600210156111695760406064359101350361125257610c526024610104350161010435600401611c5f565b60031015611169576060608435910135036111f457610c7d6024610104350161010435600401611c5f565b6004101561116957608073ffffffffffffffffffffffffffffffffffffffff610ca4611bb1565b169101350361119657610cc36024610104350161010435600401611c5f565b600510156111695760a060c4359101350361110b57610d3e610ceb6004610104350180611cb3565b9190610d036024610104350161010435600401611c5f565b929091604051947f1e8e1e13000000000000000000000000000000000000000000000000000000008652604060048701526044860191611d1c565b6003198482030160248501528281527f07ffffffffffffffffffffffffffffffffffffffffffffffffffffffffffffff83116101c85783809260209492859360051b809285830137010301815f73ffffffffffffffffffffffffffffffffffffffff7f0000000000000000000000000000000000000000000000000000000000000000165af190811561108d575f916110ec575b50156110c257610de89161010435600401611d5a565b1561109857610e68602091610e7a935f73ffffffffffffffffffffffffffffffffffffffff6002541692610e286101043560040161010435600401611cb3565b9790604051988997889687957ff87400ab000000000000000000000000000000000000000000000000000000008752604060048801526044870191611d1c565b91600319858403016024860152611d1c565b03925af190811561108d575f9161105e575b50156110345760c4355f52600560205260405f2060017fffffffffffffffffffffffffffffffffffffffffffffffffffffffffffffff00825416179055610ed860446101043501611b79565b600660205267ffffffffffffffff60405f2091167fffffffffffffffffffffffffffffffffffffffffffffffff0000000000000000825416179055610f4673ffffffffffffffffffffffffffffffffffffffff610f33611b8e565b1660243590610f40611bb1565b90611ec0565b60e43567ffffffffffffffff81168091036101c857420342811161068d57610f6c611b8e565b610f74611bb1565b7ecff72eb8dd7ec094c1462f889f7cacaf5e165528a2bda284e68c98115355b573ffffffffffffffffffffffffffffffffffffffff80604051931693169180610fd660c435606435602435846040919493926060820195825260208201520152565b0390a373ffffffffffffffffffffffffffffffffffffffff610ff6611bb1565b169060405190602435825260208201527ff0df39f1817afe20078c03425c0ead7e30e4a0adc46ab05f74c1bb2942a4a9b3604060c43592a360018055005b60046040517f9bde598d000000000000000000000000000000000000000000000000000000008152fd5b611080915060203d602011611086575b6110788183611b38565b810190611d04565b81610e8c565b503d61106e565b6040513d5f823e3d90fd5b60046040517f73c5e679000000000000000000000000000000000000000000000000000000008152fd5b60046040517f076490f6000000000000000000000000000000000000000000000000000000008152fd5b611105915060203d602011611086576110788183611b38565b85610dd2565b60646040517f08c379a000000000000000000000000000000000000000000000000000000000815260206004820152601560248201527f4e6f6e6365207369676e616c206d69736d6174636800000000000000000000006044820152fd5b7f4e487b71000000000000000000000000000000000000000000000000000000005f52603260045260245ffd5b60646040517f08c379a000000000000000000000000000000000000000000000000000000000815260206004820152601960248201527f526563697069656e74207369676e616c206d69736d61746368000000000000006044820152fd5b60646040517f08c379a000000000000000000000000000000000000000000000000000000000815260206004820152601a60248201527f4465737420636861696e207369676e616c206d69736d617463680000000000006044820152fd5b60646040517f08c379a000000000000000000000000000000000000000000000000000000000815260206004820152601c60248201527f536f7572636520636861696e207369676e616c206d69736d61746368000000006044820152fd5b60646040517f08c379a000000000000000000000000000000000000000000000000000000000815260206004820152601660248201527f416d6f756e74207369676e616c206d69736d61746368000000000000000000006044820152fd5b60646040517f08c379a000000000000000000000000000000000000000000000000000000000815260206004820152601560248201527f546f6b656e207369676e616c206d69736d6174636800000000000000000000006044820152fd5b60646040517f08c379a000000000000000000000000000000000000000000000000000000000815260206004820152601660248201527f496e76616c6964207075626c6963207369676e616c73000000000000000000006044820152fd5b60646040517f08c379a000000000000000000000000000000000000000000000000000000000815260206004820152601360248201527f4465737420636861696e206d69736d61746368000000000000000000000000006044820152fd5b60646040517f08c379a000000000000000000000000000000000000000000000000000000000815260206004820152601560248201527f536f7572636520636861696e206d69736d6174636800000000000000000000006044820152fd5b60646040517f08c379a000000000000000000000000000000000000000000000000000000000815260206004820152601260248201527f526563697069656e74206d69736d6174636800000000000000000000000000006044820152fd5b60646040517f08c379a000000000000000000000000000000000000000000000000000000000815260206004820152600f60248201527f53656e646572206d69736d6174636800000000000000000000000000000000006044820152fd5b60646040517f08c379a000000000000000000000000000000000000000000000000000000000815260206004820152600f60248201527f416d6f756e74206d69736d6174636800000000000000000000000000000000006044820152fd5b60646040517f08c379a000000000000000000000000000000000000000000000000000000000815260206004820152600e60248201527f546f6b656e206d69736d617463680000000000000000000000000000000000006044820152fd5b346101c8575f6003193601126101c857602067ffffffffffffffff60085416604051908152f35b346101c85760206003193601126101c85760605f6004355f52600660205267ffffffffffffffff908160405f20541691600560205260ff60405f2054168091819261168d575b50611685575b604051928352151560208301526040820152f35b5f9150611671565b90506004602052600760405f2001541615158561166b565b346101c8575f6003193601126101c8576020600354604051908152f35b346101c85760206003193601126101c8576004355f526006602052602067ffffffffffffffff60405f205416604051908152f35b346101c8575f6003193601126101c857602073ffffffffffffffffffffffffffffffffffffffff60025416604051908152f35b346101c85760206003193601126101c85773ffffffffffffffffffffffffffffffffffffffff611757611aca565b61175f611c0f565b168015611793577fffffffffffffffffffffffff000000000000000000000000000000000000000060025416176002555f80f35b60046040517f9c8d2cd2000000000000000000000000000000000000000000000000000000008152fd5b346101c85760806003193601126101c8576117d6611aca565b60243590604435916064359073ffffffffffffffffffffffffffffffffffffffff928383168093036101c857839061180c611bd4565b16805f52600760205260ff60405f20541615611aa0578115611a76578215611793577f0000000000000000000000000000000000000000000000000000000000000000808614611a4c57600354947fffffffffffffffffffffffffffffffffffffffffffffffffffffffffffffffff861461068d57859060018201600355600767ffffffffffffffff938492604051916118a583611b1b565b878352602083018981526040840192338452606085019283528d6080860190815260a08601938d855260c08701958a875260e088019a8a42168c525f5260046020528360405f20985116947fffffffffffffffffffffffff000000000000000000000000000000000000000095868a54161789555160018901558360028901915116858254161790555160038701555160048601556005850192511690825416179055516006820155019151167fffffffffffffffffffffffffffffffffffffffffffffffff00000000000000008254161790556040517f23b872dd0000000000000000000000000000000000000000000000000000000060208201523360248201523060448201528360648201526064815260a081019181831090831117611a1f576020966119fb87927fa9e36d2328b9b36d82d602195e22f1ca65cffb4a0a9769b70985e4ec8ce2cd679460405285611f35565b6040805195865260208601919091528401523392606090a460018055604051908152f35b7f4e487b71000000000000000000000000000000000000000000000000000000005f52604160045260245ffd5b60046040517f7a47c9a2000000000000000000000000000000000000000000000000000000008152fd5b60046040517f2c5211c6000000000000000000000000000000000000000000000000000000008152fd5b60046040517f3dd1b305000000000000000000000000000000000000000000000000000000008152fd5b6004359073ffffffffffffffffffffffffffffffffffffffff821682036101c857565b9181601f840112156101c85782359167ffffffffffffffff83116101c857602083818601950101116101c857565b610100810190811067ffffffffffffffff821117611a1f57604052565b90601f7fffffffffffffffffffffffffffffffffffffffffffffffffffffffffffffffe0910116810190811067ffffffffffffffff821117611a1f57604052565b3567ffffffffffffffff811681036101c85790565b60043573ffffffffffffffffffffffffffffffffffffffff811681036101c85790565b60a43573ffffffffffffffffffffffffffffffffffffffff811681036101c85790565b600260015414611be5576002600155565b60046040517f3ee5aeb5000000000000000000000000000000000000000000000000000000008152fd5b73ffffffffffffffffffffffffffffffffffffffff5f54163303611c2f57565b60246040517f118cdaa7000000000000000000000000000000000000000000000000000000008152336004820152fd5b9035907fffffffffffffffffffffffffffffffffffffffffffffffffffffffffffffffe1813603018212156101c8570180359067ffffffffffffffff82116101c857602001918160051b360383136101c857565b9035907fffffffffffffffffffffffffffffffffffffffffffffffffffffffffffffffe1813603018212156101c8570180359067ffffffffffffffff82116101c8576020019181360383136101c857565b908160209103126101c8575180151581036101c85790565b601f82602094937fffffffffffffffffffffffffffffffffffffffffffffffffffffffffffffffe093818652868601375f8582860101520116010190565b919073ffffffffffffffffffffffffffffffffffffffff6002541692604051937f4ed1d8cc0000000000000000000000000000000000000000000000000000000085526020948581600481855afa90811561108d575f91611e82575b506040830193611dc585611b79565b9167ffffffffffffffff9283806008541691160183811161068d57831690831610611e7757606095611e485f92611dfc8a98611b79565b92604051998a98899788967f07fdeccc00000000000000000000000000000000000000000000000000000000885216600487015201356024850152606060448501526064840191611d1c565b03925af191821561108d575f92611e5e57505090565b611e749250803d10611086576110788183611b38565b90565b505050505050505f90565b90508581813d8311611eb9575b611e998183611b38565b810103126101c8575167ffffffffffffffff811681036101c8575f611db6565b503d611e8f565b9173ffffffffffffffffffffffffffffffffffffffff604051927fa9059cbb000000000000000000000000000000000000000000000000000000006020850152166024830152604482015260448152608081019181831067ffffffffffffffff841117611a1f57611f3392604052611f35565b565b5f73ffffffffffffffffffffffffffffffffffffffff8192169260208151910182855af13d1561201b573d67ffffffffffffffff8111611a1f57611fb99160405191611fa960207fffffffffffffffffffffffffffffffffffffffffffffffffffffffffffffffe0601f8401160184611b38565b82523d5f602084013e5b83612027565b8051908115159182612000575b5050611fcf5750565b602490604051907f5274afe70000000000000000000000000000000000000000000000000000000082526004820152fd5b6120139250602080918301019101611d04565b155f80611fc6565b611fb990606090611fb3565b90612066575080511561203c57805190602001fd5b60046040517f1425ea42000000000000000000000000000000000000000000000000000000008152fd5b815115806120be575b612077575090565b60249073ffffffffffffffffffffffffffffffffffffffff604051917f9996b315000000000000000000000000000000000000000000000000000000008352166004820152fd5b50803b1561206f56fea26469706673582212200e5e5f8aa3cf9e58bc809cd850bc47615471ac251308a32563b6ca6813518f7164736f6c63430008190033","linkReferences":{}},"methodIdentifiers":{"BRIDGE_TIMEOUT()":"9a7c91d9","addSupportedToken(address)":"6d69fcaf","celestiaClient()":"298551d5","chainId()":"9a8a0592","completed(uint256)":"c0cca5ef","emergencyUnlock(uint256)":"b0793313","emergencyWithdraw(address,address,uint256)":"e63ea408","getBridgeStats(uint256)":"3d24f86a","getCurrentNonce()":"3a60c386","getLock(uint256)":"d68f4dd1","isCompleted(uint256)":"7a41984b","isSupportedToken(address)":"240028e8","lock(address,uint256,uint256,address)":"0852c9ea","lockToCelestiaHeight(uint256)":"33c34d51","locks(uint256)":"f4dadc61","minCelestiaConfirmations()":"579b6132","owner()":"8da5cb5b","relay((address,uint256,address,uint256,uint256,address,uint256,uint64),(bytes,uint256[],uint64,bytes32),bytes,bytes)":"648920c0","removeSupportedToken(address)":"76319190","renounceOwnership()":"715018a6","supportedTokens(address)":"68c4ac26","transferOwnership(address)":"f2fde38b","updateCelestiaClient(address)":"2837df32","updateMinConfirmations(uint64)":"dac11774","zkVerifier()":"d6df096d"},"id":161}