{"abi":[{"type":"constructor","inputs":[{"name":"initialOwner","type":"address","internalType":"address"},{"name":"_blobstreamVerifier","type":"address","internalType":"address"},{"name":"_minConfirmations","type":"uint256","internalType":"uint256"},{"name":"_forceInclusionPeriod","type":"uint256","internalType":"uint256"}],"stateMutability":"nonpayable"},{"type":"function","name":"addSupportedToken","inputs":[{"name":"token","type":"address","internalType":"address"}],"outputs":[],"stateMutability":"nonpayable"},{"type":"function","name":"blobstreamVerifier","inputs":[],"outputs":[{"name":"","type":"address","internalType":"address"}],"stateMutability":"view"},{"type":"function","name":"bridgeTokens","inputs":[{"name":"token","type":"address","internalType":"address"},{"name":"recipient","type":"address","internalType":"address"},{"name":"amount","type":"uint256","internalType":"uint256"},{"name":"destinationChain","type":"uint256","internalType":"uint256"}],"outputs":[],"stateMutability":"nonpayable"},{"type":"function","name":"destinationBridges","inputs":[{"name":"","type":"uint256","internalType":"uint256"}],"outputs":[{"name":"","type":"address","internalType":"address"}],"stateMutability":"view"},{"type":"function","name":"emergencyClaims","inputs":[{"name":"","type":"address","internalType":"address"},{"name":"","type":"bytes32","internalType":"bytes32"}],"outputs":[{"name":"","type":"bool","internalType":"bool"}],"stateMutability":"view"},{"type":"function","name":"emergencyGracePeriod","inputs":[],"outputs":[{"name":"","type":"uint256","internalType":"uint256"}],"stateMutability":"view"},{"type":"function","name":"emergencyMode","inputs":[],"outputs":[{"name":"","type":"bool","internalType":"bool"}],"stateMutability":"view"},{"type":"function","name":"emergencyWithdraw","inputs":[{"name":"token","type":"address","internalType":"address"},{"name":"recipient","type":"address","internalType":"address"},{"name":"amount","type":"uint256","internalType":"uint256"},{"name":"sourceTxHash","type":"bytes32","internalType":"bytes32"},{"name":"proof","type":"bytes","internalType":"bytes"}],"outputs":[],"stateMutability":"nonpayable"},{"type":"function","name":"forceInclusionPeriod","inputs":[],"outputs":[{"name":"","type":"uint256","internalType":"uint256"}],"stateMutability":"view"},{"type":"function","name":"forceTransaction","inputs":[{"name":"txData","type":"tuple","internalType":"struct AndeChainBridge.BridgeTransaction","components":[{"name":"token","type":"address","internalType":"address"},{"name":"recipient","type":"address","internalType":"address"},{"name":"amount","type":"uint256","internalType":"uint256"},{"name":"sourceChain","type":"uint256","internalType":"uint256"},{"name":"sourceTxHash","type":"bytes32","internalType":"bytes32"},{"name":"blockTimestamp","type":"uint256","internalType":"uint256"}]},{"name":"proof","type":"bytes","internalType":"bytes"}],"outputs":[],"stateMutability":"nonpayable"},{"type":"function","name":"getDestinationBridge","inputs":[{"name":"chainId","type":"uint256","internalType":"uint256"}],"outputs":[{"name":"","type":"address","internalType":"address"}],"stateMutability":"view"},{"type":"function","name":"isTokenSupported","inputs":[{"name":"token","type":"address","internalType":"address"}],"outputs":[{"name":"","type":"bool","internalType":"bool"}],"stateMutability":"view"},{"type":"function","name":"isTransactionProcessed","inputs":[{"name":"txHash","type":"bytes32","internalType":"bytes32"}],"outputs":[{"name":"","type":"bool","internalType":"bool"}],"stateMutability":"view"},{"type":"function","name":"minConfirmations","inputs":[],"outputs":[{"name":"","type":"uint256","internalType":"uint256"}],"stateMutability":"view"},{"type":"function","name":"nonce","inputs":[],"outputs":[{"name":"","type":"uint256","internalType":"uint256"}],"stateMutability":"view"},{"type":"function","name":"owner","inputs":[],"outputs":[{"name":"","type":"address","internalType":"address"}],"stateMutability":"view"},{"type":"function","name":"pause","inputs":[],"outputs":[],"stateMutability":"nonpayable"},{"type":"function","name":"paused","inputs":[],"outputs":[{"name":"","type":"bool","internalType":"bool"}],"stateMutability":"view"},{"type":"function","name":"processedTransactions","inputs":[{"name":"","type":"bytes32","internalType":"bytes32"}],"outputs":[{"name":"","type":"bool","internalType":"bool"}],"stateMutability":"view"},{"type":"function","name":"receiveTokens","inputs":[{"name":"token","type":"address","internalType":"address"},{"name":"recipient","type":"address","internalType":"address"},{"name":"amount","type":"uint256","internalType":"uint256"},{"name":"sourceChain","type":"uint256","internalType":"uint256"},{"name":"sourceTxHash","type":"bytes32","internalType":"bytes32"},{"name":"proof","type":"bytes","internalType":"bytes"}],"outputs":[],"stateMutability":"nonpayable"},{"type":"function","name":"removeSupportedToken","inputs":[{"name":"token","type":"address","internalType":"address"}],"outputs":[],"stateMutability":"nonpayable"},{"type":"function","name":"renounceOwnership","inputs":[],"outputs":[],"stateMutability":"nonpayable"},{"type":"function","name":"setBlobstreamVerifier","inputs":[{"name":"newVerifier","type":"address","internalType":"address"}],"outputs":[],"stateMutability":"nonpayable"},{"type":"function","name":"setDestinationBridge","inputs":[{"name":"chainId","type":"uint256","internalType":"uint256"},{"name":"bridge","type":"address","internalType":"address"}],"outputs":[],"stateMutability":"nonpayable"},{"type":"function","name":"setEmergencyGracePeriod","inputs":[{"name":"_emergencyGracePeriod","type":"uint256","internalType":"uint256"}],"outputs":[],"stateMutability":"nonpayable"},{"type":"function","name":"setForceInclusionPeriod","inputs":[{"name":"_forceInclusionPeriod","type":"uint256","internalType":"uint256"}],"outputs":[],"stateMutability":"nonpayable"},{"type":"function","name":"setMinConfirmations","inputs":[{"name":"newMinConfirmations","type":"uint256","internalType":"uint256"}],"outputs":[],"stateMutability":"nonpayable"},{"type":"function","name":"supportedTokens","inputs":[{"name":"","type":"address","internalType":"address"}],"outputs":[{"name":"","type":"bool","internalType":"bool"}],"stateMutability":"view"},{"type":"function","name":"toggleEmergencyMode","inputs":[{"name":"_reason","type":"string","internalType":"string"}],"outputs":[],"stateMutability":"nonpayable"},{"type":"function","name":"transferOwnership","inputs":[{"name":"newOwner","type":"address","internalType":"address"}],"outputs":[],"stateMutability":"nonpayable"},{"type":"function","name":"unpause","inputs":[],"outputs":[],"stateMutability":"nonpayable"},{"type":"event","name":"DestinationBridgeSet","inputs":[{"name":"chainId","type":"uint256","indexed":true,"internalType":"uint256"},{"name":"bridge","type":"address","indexed":false,"internalType":"address"}],"anonymous":false},{"type":"event","name":"EmergencyModeToggled","inputs":[{"name":"enabled","type":"bool","indexed":false,"internalType":"bool"},{"name":"triggeredBy","type":"address","indexed":true,"internalType":"address"},{"name":"reason","type":"string","indexed":false,"internalType":"string"}],"anonymous":false},{"type":"event","name":"EmergencyWithdrawal","inputs":[{"name":"user","type":"address","indexed":true,"internalType":"address"},{"name":"token","type":"address","indexed":true,"internalType":"address"},{"name":"amount","type":"uint256","indexed":false,"internalType":"uint256"},{"name":"sourceTxHash","type":"bytes32","indexed":true,"internalType":"bytes32"}],"anonymous":false},{"type":"event","name":"OwnershipTransferred","inputs":[{"name":"previousOwner","type":"address","indexed":true,"internalType":"address"},{"name":"newOwner","type":"address","indexed":true,"internalType":"address"}],"anonymous":false},{"type":"event","name":"Paused","inputs":[{"name":"account","type":"address","indexed":false,"internalType":"address"}],"anonymous":false},{"type":"event","name":"TokenAdded","inputs":[{"name":"token","type":"address","indexed":true,"internalType":"address"}],"anonymous":false},{"type":"event","name":"TokenRemoved","inputs":[{"name":"token","type":"address","indexed":true,"internalType":"address"}],"anonymous":false},{"type":"event","name":"TokensBridged","inputs":[{"name":"token","type":"address","indexed":true,"internalType":"address"},{"name":"sender","type":"address","indexed":true,"internalType":"address"},{"name":"recipient","type":"address","indexed":true,"internalType":"address"},{"name":"amount","type":"uint256","indexed":false,"internalType":"uint256"},{"name":"destinationChain","type":"uint256","indexed":false,"internalType":"uint256"},{"name":"nonce","type":"uint256","indexed":false,"internalType":"uint256"}],"anonymous":false},{"type":"event","name":"TokensReceived","inputs":[{"name":"token","type":"address","indexed":true,"internalType":"address"},{"name":"recipient","type":"address","indexed":true,"internalType":"address"},{"name":"amount","type":"uint256","indexed":false,"internalType":"uint256"},{"name":"sourceChain","type":"uint256","indexed":false,"internalType":"uint256"},{"name":"sourceTxHash","type":"bytes32","indexed":true,"internalType":"bytes32"}],"anonymous":false},{"type":"event","name":"Unpaused","inputs":[{"name":"account","type":"address","indexed":false,"internalType":"address"}],"anonymous":false},{"type":"error","name":"DestinationChainNotConfigured","inputs":[]},{"type":"error","name":"EmergencyClaimAlreadyProcessed","inputs":[]},{"type":"error","name":"EmergencyModeNotActive","inputs":[]},{"type":"error","name":"EnforcedPause","inputs":[]},{"type":"error","name":"ExpectedPause","inputs":[]},{"type":"error","name":"ForcePeriodNotElapsed","inputs":[]},{"type":"error","name":"InsufficientConfirmations","inputs":[]},{"type":"error","name":"InvalidAmount","inputs":[]},{"type":"error","name":"InvalidBlobstreamVerifier","inputs":[]},{"type":"error","name":"InvalidEmergencyClaim","inputs":[]},{"type":"error","name":"InvalidRecipient","inputs":[]},{"type":"error","name":"OwnableInvalidOwner","inputs":[{"name":"owner","type":"address","internalType":"address"}]},{"type":"error","name":"OwnableUnauthorizedAccount","inputs":[{"name":"account","type":"address","internalType":"address"}]},{"type":"error","name":"ProofVerificationFailed","inputs":[]},{"type":"error","name":"ReentrancyGuardReentrantCall","inputs":[]},{"type":"error","name":"TokenNotSupported","inputs":[]},{"type":"error","name":"TransactionAlreadyProcessed","inputs":[]}],"bytecode":{"object":"0x60803461011e57601f61127b38819003918201601f19168301916001600160401b038311848410176101225780849260809460405283398101031261011e5761004781610136565b9061005460208201610136565b604082015160609092015160015f55926001600160a01b03908116918215610106576001549260405193818482167f8be0079c531659141344cd1fd0a4f28419497f9722a3daafe3b4186f6b6457e05f80a36001600160a81b03191617600155169081156100f75750600780546001600160a01b03191691909117905560065560085562015180600b556009805460ff19169055604051611130908161014b8239f35b6320a6abb760e01b8152600490fd5b604051631e4fbdf760e01b81525f6004820152602490fd5b5f80fd5b634e487b7160e01b5f52604160045260245ffd5b51906001600160a01b038216820361011e5756fe60806040818152600480361015610014575f80fd5b5f925f3560e01c9081630905f56014610eb9575080632c20e96014610e9b5780633f4ba83a14610e2b57806346d482fe14610db557806350fc932c14610d955780635aa241a614610c105780635c3e2e6514610bf15780635c975abb14610bca5780635c98d56e14610ba157806368c4ac261461091d5780636d38900014610a245780636d69fcaf146109bb578063715018a61461095b57806375151b631461091d57806376319190146108b75780638456cb5914610856578063868c75cb146107c157806389288a561461047a5780638da5cb5b146107985780639b5d5faf14610751578063ac2e493614610207578063affed0e014610732578063b3af614f146104ce578063d2821655146104ac578063d761aa151461047a578063e2838deb14610458578063e291c836146103fc578063e7c4393e146103d9578063e9cec08d14610232578063efc646ca146102075763f2fde38b14610175575f80fd5b346102035760203660031901126102035761018e610eee565b90610197610fc8565b6001600160a01b039182169283156101ed575050600154826bffffffffffffffffffffffff60a01b821617600155167f8be0079c531659141344cd1fd0a4f28419497f9722a3daafe3b4186f6b6457e05f80a380f35b51631e4fbdf760e01b8152908101849052602490fd5b8280fd5b503461020357602036600319011261020357816020938260ff93358252855220541690519015158152f35b50903461020357366003190160e0811261039a5760c0136102035760c43567ffffffffffffffff811161039a5761026c9036908401610f04565b929091610277610ff4565b61027f611015565b608435938486528260205260ff82872054166103cb576102a490606435948587611036565b156103be5760a43560085481018091116103ab57421061039e578385526020829052808520805460ff191660011790556001600160a01b039085826102e7610f9c565b166102f0610fb2565b60443595823b1561039a5784516340c10f1960e01b81526001600160a01b03909216908201908152602081018790529091839183919082908490829060400103925af1801561039057610378575b5050815f805160206110db83398151915292610358610f9c565b95610361610fb2565b908451968752602087015216941692a46001815580f35b61038190610f32565b61038c57855f61033e565b8580fd5b83513d84823e3d90fd5b8380fd5b516336808ba560e11b8152fd5b634e487b7160e01b865260118352602486fd5b51631ac2386360e31b8152fd5b505163eb4156ad60e01b8152fd5b5050346103f857816003193601126103f8576020906006549051908152f35b5080fd5b503461020357602036600319011261020357610416610eee565b61041e610fc8565b6001600160a01b031691821561044b5750506bffffffffffffffffffffffff60a01b600754161760075580f35b516320a6abb760e01b8152fd5b8382346103f85760203660031901126103f857610473610fc8565b3560085580f35b50346102035760203660031901126102035735825260036020908152918190205490516001600160a01b039091168152f35b8382346103f85760203660031901126103f8576104c7610fc8565b3560065580f35b5090346102035760a0366003190112610203576104e9610eee565b916104f2610ed8565b92604435926064359460843567ffffffffffffffff81116106a05761051a9036908601610f04565b919093610525610ff4565b87895260209486865260ff858b20541661072257338a52600a8652848a20898b52865260ff858b205416610712578560018060a01b039485600754168b8a6006546105978b5197889687958695631420ff3360e01b875286015260016024860152608060448601526084850191610f7c565b90606483015203915afa908115610708575f916106ce575b50156106be5760ff60095416156106ae5782899189835287875285832060ff1990600182825416179055338452600a88528684208b855288526001878520918254161790551695863b156103f85784516340c10f1960e01b81526001600160a01b03841691810191825260208201899052908290829081906040010381838b5af180156106a45761068c575b505060015f805160206110db83398151915294888786518a81527fbcb28a572c38fde09f5bb041c22540dd74dee31a880c551d8a83064dd3cf40c2843392a484519788528701521693a46001815580f35b61069590610f32565b6106a057875f61063b565b8780fd5b85513d84823e3d90fd5b835163c5cd049360e01b81528690fd5b8351631ac2386360e31b81528690fd5b90508581813d8311610701575b6106e58183610f5a565b810103126106fd575180151581036106fd575f6105af565b5f80fd5b503d6106db565b85513d5f823e3d90fd5b8451631828b41d60e21b81528790fd5b845163eb4156ad60e01b81528790fd5b5050346103f857816003193601126103f8576020906005549051908152f35b5050346103f857806003193601126103f85760209160ff9082906001600160a01b0361077b610eee565b168152600a85528181206024358252855220541690519015158152f35b5050346103f857816003193601126103f85760015490516001600160a01b039091168152602090f35b5034610203576020366003190112610203578281359167ffffffffffffffff83116103f857610816610850917e659c44ef638366dcc64605e6764338e9e277fa14b46af85c13c062f035914194369101610f04565b9190610820610fc8565b6009549260ff80851615168060ff1986161760095587519586951617151584528660208501523396840191610f7c565b0390a280f35b5050346103f857816003193601126103f85760207f62e78cea01bee320cd4e420270b5ea74000d11b0c9f74754ebdbfc544b05a25891610894610fc8565b61089c611015565b6001805460ff60a01b1916600160a01b17905551338152a180f35b5050346103f85760203660031901126103f8576108d2610eee565b6108da610fc8565b6001600160a01b03168083526002602052908220805460ff191690557f4c910b69fe65a61f7531b9c5042b2329ca7179c77290aa7e2eb3afa3c8511fd38280a280f35b5050346103f85760203660031901126103f85760209160ff9082906001600160a01b03610948610eee565b1681526002855220541690519015158152f35b83346109b857806003193601126109b857610974610fc8565b600180546001600160a01b031981169091555f906001600160a01b03167f8be0079c531659141344cd1fd0a4f28419497f9722a3daafe3b4186f6b6457e08280a380f35b80fd5b5050346103f85760203660031901126103f8576109d6610eee565b6109de610fc8565b6001600160a01b03168083526002602052908220805460ff191660011790557f784c8f4dbf0ffedd6e72c76501c545a70f8b203b30a26ce542bf92ba87c248a48280a280f35b50903461020357608036600319011261020357610a3f610eee565b91610a48610ed8565b9060443592606435610a58610ff4565b610a60611015565b6001600160a01b0395861680885260026020528288205490949060ff1615610b92578515610b83578616958615610b74578188526003602052828820541615610b6657833b15610b58578151632770a7eb60e21b815233848201908152602081018790528891908290829081906040010381838a5af18015610b5c57610b44575b5050600554925f198414610b31575060018301600555815194855260208501528301527f562b76311bffc61c23e4dcde8b3b7d7caebe59eecaf30dbc31d15539021cbfc860603393a46001815580f35b634e487b7160e01b885260119052602487fd5b610b4d90610f32565b610b5857865f610ae1565b8680fd5b84513d84823e3d90fd5b5051631c51c20360e21b8152fd5b505051634e46966960e11b8152fd5b50505163162908e360e11b8152fd5b505051633dd1b30560e01b8152fd5b5050346103f857816003193601126103f85760075490516001600160a01b039091168152602090f35b5050346103f857816003193601126103f85760209060ff60015460a01c1690519015158152f35b5050346103f857816003193601126103f8576020906008549051908152f35b50346106fd5760c03660031901126106fd57610c2a610eee565b90610c33610ed8565b9260443592606435946084359560a43567ffffffffffffffff81116106fd57610c5f9036908701610f04565b610c6a969196610ff4565b610c72611015565b610c7a610fc8565b6001600160a01b039485165f81815260026020528790205490979060ff1615610d8557895f528260205260ff875f205416610d755790610cbb91848b611036565b15610d6757875f5280602052845f20600160ff19825416179055853b156106fd5784516340c10f1960e01b81526001600160a01b03841691810191825260208201889052905f90829081906040010381838a5af1801561070857610d3f575b508351958652602086015216925f805160206110db8339815191529190a46001815580f35b5f805160206110db833981519152949392919850610d5c90610f32565b5f9790919293610d1a565b8451631ac2386360e31b8152fd5b865163eb4156ad60e01b81528390fd5b8651633dd1b30560e01b81528390fd5b50346106fd5760203660031901126106fd57610daf610fc8565b35600b55005b50346106fd57816003193601126106fd5760207f768b37526b7ccd7628667d5b176c7833a41e999cf864a9bdc8df341e5ce0d8bb913592610df4610ed8565b90610dfd610fc8565b5f8581526003845281902080546001600160a01b0319166001600160a01b03909316928317905551908152a2005b5090346106fd575f3660031901126106fd57610e45610fc8565b6001549160ff8360a01c1615610e8d5760ff60a01b19831660015581513381527f5db9ee0a495bf2e6ff9c91a7834c1ba4fdd244a5e8aa4e537bd38aeae4b073aa90602090a1005b9051638dfc202b60e01b8152fd5b82346106fd575f3660031901126106fd57602090600b549051908152f35b346106fd575f3660031901126106fd5760209060ff6009541615158152f35b602435906001600160a01b03821682036106fd57565b600435906001600160a01b03821682036106fd57565b9181601f840112156106fd5782359167ffffffffffffffff83116106fd57602083818601950101116106fd57565b67ffffffffffffffff8111610f4657604052565b634e487b7160e01b5f52604160045260245ffd5b90601f8019910116810190811067ffffffffffffffff821117610f4657604052565b908060209392818452848401375f828201840152601f01601f1916010190565b6004356001600160a01b03811681036106fd5790565b6024356001600160a01b03811681036106fd5790565b6001546001600160a01b03163303610fdc57565b60405163118cdaa760e01b8152336004820152602490fd5b60025f54146110035760025f55565b604051633ee5aeb560e01b8152600490fd5b60ff60015460a01c1661102457565b60405163d93c066560e01b8152600490fd5b602092939160018060a01b03600754169160065461107c60405197889687958695631420ff3360e01b875260048701526024860152608060448601526084850191610f7c565b90606483015203915afa9081156110cf575f91611097575090565b90506020813d6020116110c7575b816110b260209383610f5a565b810103126106fd575180151581036106fd5790565b3d91506110a5565b6040513d5f823e3d90fdfe15f6c9ccde5337ced80285975fb115e4b562f310e9dfb741ac1f0b7b42c7994fa2646970667358221220dc4eb64b3d79b114838bde2fd6b6a7d3b92b6e3c60e7e76401612fdaab1e1f6d64736f6c63430008190033","linkReferences":{}},"methodIdentifiers":{"addSupportedToken(address)":"6d69fcaf","blobstreamVerifier()":"5c98d56e","bridgeTokens(address,address,uint256,uint256)":"6d389000","destinationBridges(uint256)":"d761aa15","emergencyClaims(address,bytes32)":"9b5d5faf","emergencyGracePeriod()":"2c20e960","emergencyMode()":"0905f560","emergencyWithdraw(address,address,uint256,bytes32,bytes)":"b3af614f","forceInclusionPeriod()":"5c3e2e65","forceTransaction((address,address,uint256,uint256,bytes32,uint256),bytes)":"e9cec08d","getDestinationBridge(uint256)":"89288a56","isTokenSupported(address)":"75151b63","isTransactionProcessed(bytes32)":"efc646ca","minConfirmations()":"e7c4393e","nonce()":"affed0e0","owner()":"8da5cb5b","pause()":"8456cb59","paused()":"5c975abb","processedTransactions(bytes32)":"ac2e4936","receiveTokens(address,address,uint256,uint256,bytes32,bytes)":"5aa241a6","removeSupportedToken(address)":"76319190","renounceOwnership()":"715018a6","setBlobstreamVerifier(address)":"e291c836","setDestinationBridge(uint256,address)":"46d482fe","setEmergencyGracePeriod(uint256)":"50fc932c","setForceInclusionPeriod(uint256)":"e2838deb","setMinConfirmations(uint256)":"d2821655","supportedTokens(address)":"68c4ac26","toggleEmergencyMode(string)":"868c75cb","transferOwnership(address)":"f2fde38b","unpause()":"3f4ba83a"},"id":120}