{"abi":[{"type":"constructor","inputs":[{"name":"initialOwner","type":"address","internalType":"address"},{"name":"_blobstreamVerifier","type":"address","internalType":"address"},{"name":"_minConfirmations","type":"uint256","internalType":"uint256"},{"name":"_forceInclusionPeriod","type":"uint256","internalType":"uint256"}],"stateMutability":"nonpayable"},{"type":"function","name":"addSupportedToken","inputs":[{"name":"token","type":"address","internalType":"address"}],"outputs":[],"stateMutability":"nonpayable"},{"type":"function","name":"blobstreamVerifier","inputs":[],"outputs":[{"name":"","type":"address","internalType":"address"}],"stateMutability":"view"},{"type":"function","name":"bridgeTokens","inputs":[{"name":"token","type":"address","internalType":"address"},{"name":"recipient","type":"address","internalType":"address"},{"name":"amount","type":"uint256","internalType":"uint256"},{"name":"destinationChain","type":"uint256","internalType":"uint256"}],"outputs":[],"stateMutability":"nonpayable"},{"type":"function","name":"destinationBridges","inputs":[{"name":"","type":"uint256","internalType":"uint256"}],"outputs":[{"name":"","type":"address","internalType":"address"}],"stateMutability":"view"},{"type":"function","name":"emergencyClaims","inputs":[{"name":"","type":"address","internalType":"address"},{"name":"","type":"bytes32","internalType":"bytes32"}],"outputs":[{"name":"","type":"bool","internalType":"bool"}],"stateMutability":"view"},{"type":"function","name":"emergencyGracePeriod","inputs":[],"outputs":[{"name":"","type":"uint256","internalType":"uint256"}],"stateMutability":"view"},{"type":"function","name":"emergencyMode","inputs":[],"outputs":[{"name":"","type":"bool","internalType":"bool"}],"stateMutability":"view"},{"type":"function","name":"emergencyWithdraw","inputs":[{"name":"token","type":"address","internalType":"address"},{"name":"recipient","type":"address","internalType":"address"},{"name":"amount","type":"uint256","internalType":"uint256"},{"name":"sourceTxHash","type":"bytes32","internalType":"bytes32"},{"name":"proof","type":"bytes","internalType":"bytes"}],"outputs":[],"stateMutability":"nonpayable"},{"type":"function","name":"forceInclusionPeriod","inputs":[],"outputs":[{"name":"","type":"uint256","internalType":"uint256"}],"stateMutability":"view"},{"type":"function","name":"forceTransaction","inputs":[{"name":"txData","type":"tuple","internalType":"struct AndeChainBridge.BridgeTransaction","components":[{"name":"token","type":"address","internalType":"address"},{"name":"recipient","type":"address","internalType":"address"},{"name":"amount","type":"uint256","internalType":"uint256"},{"name":"sourceChain","type":"uint256","internalType":"uint256"},{"name":"sourceTxHash","type":"bytes32","internalType":"bytes32"},{"name":"blockTimestamp","type":"uint256","internalType":"uint256"}]},{"name":"proof","type":"bytes","internalType":"bytes"}],"outputs":[],"stateMutability":"nonpayable"},{"type":"function","name":"getDestinationBridge","inputs":[{"name":"chainId","type":"uint256","internalType":"uint256"}],"outputs":[{"name":"","type":"address","internalType":"address"}],"stateMutability":"view"},{"type":"function","name":"isTokenSupported","inputs":[{"name":"token","type":"address","internalType":"address"}],"outputs":[{"name":"","type":"bool","internalType":"bool"}],"stateMutability":"view"},{"type":"function","name":"isTransactionProcessed","inputs":[{"name":"txHash","type":"bytes32","internalType":"bytes32"}],"outputs":[{"name":"","type":"bool","internalType":"bool"}],"stateMutability":"view"},{"type":"function","name":"minConfirmations","inputs":[],"outputs":[{"name":"","type":"uint256","internalType":"uint256"}],"stateMutability":"view"},{"type":"function","name":"nonce","inputs":[],"outputs":[{"name":"","type":"uint256","internalType":"uint256"}],"stateMutability":"view"},{"type":"function","name":"owner","inputs":[],"outputs":[{"name":"","type":"address","internalType":"address"}],"stateMutability":"view"},{"type":"function","name":"pause","inputs":[],"outputs":[],"stateMutability":"nonpayable"},{"type":"function","name":"paused","inputs":[],"outputs":[{"name":"","type":"bool","internalType":"bool"}],"stateMutability":"view"},{"type":"function","name":"processedTransactions","inputs":[{"name":"","type":"bytes32","internalType":"bytes32"}],"outputs":[{"name":"","type":"bool","internalType":"bool"}],"stateMutability":"view"},{"type":"function","name":"receiveTokens","inputs":[{"name":"token","type":"address","internalType":"address"},{"name":"recipient","type":"address","internalType":"address"},{"name":"amount","type":"uint256","internalType":"uint256"},{"name":"sourceChain","type":"uint256","internalType":"uint256"},{"name":"sourceTxHash","type":"bytes32","internalType":"bytes32"},{"name":"proof","type":"bytes","internalType":"bytes"}],"outputs":[],"stateMutability":"nonpayable"},{"type":"function","name":"removeSupportedToken","inputs":[{"name":"token","type":"address","internalType":"address"}],"outputs":[],"stateMutability":"nonpayable"},{"type":"function","name":"renounceOwnership","inputs":[],"outputs":[],"stateMutability":"nonpayable"},{"type":"function","name":"setBlobstreamVerifier","inputs":[{"name":"newVerifier","type":"address","internalType":"address"}],"outputs":[],"stateMutability":"nonpayable"},{"type":"function","name":"setDestinationBridge","inputs":[{"name":"chainId","type":"uint256","internalType":"uint256"},{"name":"bridge","type":"address","internalType":"address"}],"outputs":[],"stateMutability":"nonpayable"},{"type":"function","name":"setEmergencyGracePeriod","inputs":[{"name":"_emergencyGracePeriod","type":"uint256","internalType":"uint256"}],"outputs":[],"stateMutability":"nonpayable"},{"type":"function","name":"setForceInclusionPeriod","inputs":[{"name":"_forceInclusionPeriod","type":"uint256","internalType":"uint256"}],"outputs":[],"stateMutability":"nonpayable"},{"type":"function","name":"setMinConfirmations","inputs":[{"name":"newMinConfirmations","type":"uint256","internalType":"uint256"}],"outputs":[],"stateMutability":"nonpayable"},{"type":"function","name":"supportedTokens","inputs":[{"name":"","type":"address","internalType":"address"}],"outputs":[{"name":"","type":"bool","internalType":"bool"}],"stateMutability":"view"},{"type":"function","name":"toggleEmergencyMode","inputs":[{"name":"_reason","type":"string","internalType":"string"}],"outputs":[],"stateMutability":"nonpayable"},{"type":"function","name":"transferOwnership","inputs":[{"name":"newOwner","type":"address","internalType":"address"}],"outputs":[],"stateMutability":"nonpayable"},{"type":"function","name":"unpause","inputs":[],"outputs":[],"stateMutability":"nonpayable"},{"type":"event","name":"DestinationBridgeSet","inputs":[{"name":"chainId","type":"uint256","indexed":true,"internalType":"uint256"},{"name":"bridge","type":"address","indexed":false,"internalType":"address"}],"anonymous":false},{"type":"event","name":"EmergencyModeToggled","inputs":[{"name":"enabled","type":"bool","indexed":false,"internalType":"bool"},{"name":"triggeredBy","type":"address","indexed":true,"internalType":"address"},{"name":"reason","type":"string","indexed":false,"internalType":"string"}],"anonymous":false},{"type":"event","name":"EmergencyWithdrawal","inputs":[{"name":"user","type":"address","indexed":true,"internalType":"address"},{"name":"token","type":"address","indexed":true,"internalType":"address"},{"name":"amount","type":"uint256","indexed":false,"internalType":"uint256"},{"name":"sourceTxHash","type":"bytes32","indexed":true,"internalType":"bytes32"}],"anonymous":false},{"type":"event","name":"OwnershipTransferred","inputs":[{"name":"previousOwner","type":"address","indexed":true,"internalType":"address"},{"name":"newOwner","type":"address","indexed":true,"internalType":"address"}],"anonymous":false},{"type":"event","name":"Paused","inputs":[{"name":"account","type":"address","indexed":false,"internalType":"address"}],"anonymous":false},{"type":"event","name":"TokenAdded","inputs":[{"name":"token","type":"address","indexed":true,"internalType":"address"}],"anonymous":false},{"type":"event","name":"TokenRemoved","inputs":[{"name":"token","type":"address","indexed":true,"internalType":"address"}],"anonymous":false},{"type":"event","name":"TokensBridged","inputs":[{"name":"token","type":"address","indexed":true,"internalType":"address"},{"name":"sender","type":"address","indexed":true,"internalType":"address"},{"name":"recipient","type":"address","indexed":true,"internalType":"address"},{"name":"amount","type":"uint256","indexed":false,"internalType":"uint256"},{"name":"destinationChain","type":"uint256","indexed":false,"internalType":"uint256"},{"name":"nonce","type":"uint256","indexed":false,"internalType":"uint256"}],"anonymous":false},{"type":"event","name":"TokensReceived","inputs":[{"name":"token","type":"address","indexed":true,"internalType":"address"},{"name":"recipient","type":"address","indexed":true,"internalType":"address"},{"name":"amount","type":"uint256","indexed":false,"internalType":"uint256"},{"name":"sourceChain","type":"uint256","indexed":false,"internalType":"uint256"},{"name":"sourceTxHash","type":"bytes32","indexed":true,"internalType":"bytes32"}],"anonymous":false},{"type":"event","name":"Unpaused","inputs":[{"name":"account","type":"address","indexed":false,"internalType":"address"}],"anonymous":false},{"type":"error","name":"DestinationChainNotConfigured","inputs":[]},{"type":"error","name":"EmergencyClaimAlreadyProcessed","inputs":[]},{"type":"error","name":"EmergencyModeNotActive","inputs":[]},{"type":"error","name":"EnforcedPause","inputs":[]},{"type":"error","name":"ExpectedPause","inputs":[]},{"type":"error","name":"ForcePeriodNotElapsed","inputs":[]},{"type":"error","name":"InsufficientConfirmations","inputs":[]},{"type":"error","name":"InvalidAmount","inputs":[]},{"type":"error","name":"InvalidBlobstreamVerifier","inputs":[]},{"type":"error","name":"InvalidEmergencyClaim","inputs":[]},{"type":"error","name":"InvalidRecipient","inputs":[]},{"type":"error","name":"OwnableInvalidOwner","inputs":[{"name":"owner","type":"address","internalType":"address"}]},{"type":"error","name":"OwnableUnauthorizedAccount","inputs":[{"name":"account","type":"address","internalType":"address"}]},{"type":"error","name":"ProofVerificationFailed","inputs":[]},{"type":"error","name":"ReentrancyGuardReentrantCall","inputs":[]},{"type":"error","name":"TokenNotSupported","inputs":[]},{"type":"error","name":"TransactionAlreadyProcessed","inputs":[]}],"bytecode":{"object":"0x60803461011e57601f61184738819003918201601f19168301916001600160401b038311848410176101225780849260809460405283398101031261011e5761004781610136565b9061005460208201610136565b604082015160609092015160015f55926001600160a01b03908116918215610106576001549260405193818482167f8be0079c531659141344cd1fd0a4f28419497f9722a3daafe3b4186f6b6457e05f80a36001600160a81b03191617600155169081156100f75750600780546001600160a01b03191691909117905560065560085562015180600b556009805460ff191690556040516116fc908161014b8239f35b6320a6abb760e01b8152600490fd5b604051631e4fbdf760e01b81525f6004820152602490fd5b5f80fd5b634e487b7160e01b5f52604160045260245ffd5b51906001600160a01b038216820361011e5756fe60806040818152600480361015610014575f80fd5b5f925f3560e01c9081630905f5601461139f575080632c20e960146113815780633f4ba83a146112df57806346d482fe1461124657806350fc932c146112265780635aa241a614610fe45780635c3e2e6514610fc55780635c975abb14610f9e5780635c98d56e14610f6957806368c4ac2614610bcc5780636d38900014610d2c5780636d69fcaf14610c98578063715018a614610c1557806375151b6314610bcc5780637631919014610b3b5780638456cb5914610aae578063868c75cb146109fb57806389288a56146105b45780638da5cb5b146109c65780639b5d5faf14610974578063ac2e49361461023e578063affed0e014610955578063b3af614f14610613578063d2821655146105f1578063d761aa15146105b4578063e2838deb14610592578063e291c836146104ff578063e7c4393e146104dc578063e9cec08d14610269578063efc646ca1461023e5763f2fde38b14610175575f80fd5b3461023a57602060031936011261023a5761018e6113e1565b90610197611538565b73ffffffffffffffffffffffffffffffffffffffff80921692831561020b575050600154827fffffffffffffffffffffffff0000000000000000000000000000000000000000821617600155167f8be0079c531659141344cd1fd0a4f28419497f9722a3daafe3b4186f6b6457e05f80a380f35b908460249251917f1e4fbdf7000000000000000000000000000000000000000000000000000000008352820152fd5b8280fd5b503461023a57602060031936011261023a57816020938260ff93358252855220541690519015158152f35b50903461023a57600319360160e081126104395760c01361023a5760c43567ffffffffffffffff8111610439576102a39036908401611404565b9290916102ae611589565b6102b66115c2565b608435938486528260205260ff82872054166104b5576102db906064359485876115fb565b1561048f5760a435600854810180911161046357421061043d578385528160205280852060017fffffffffffffffffffffffffffffffffffffffffffffffffffffffffffffff0082541617905573ffffffffffffffffffffffffffffffffffffffff9085826103486114f2565b16610351611515565b60443595823b15610439576103bb9284928389938851968795869485937f40c10f1900000000000000000000000000000000000000000000000000000000855284016020909392919373ffffffffffffffffffffffffffffffffffffffff60408201951681520152565b03925af1801561042f57610417575b5050817f15f6c9ccde5337ced80285975fb115e4b562f310e9dfb741ac1f0b7b42c7994f926103f76114f2565b95610400611515565b908451968752602087015216941692a46001815580f35b61042090611432565b61042b57855f6103ca565b8580fd5b83513d84823e3d90fd5b8380fd5b517f6d01174a000000000000000000000000000000000000000000000000000000008152fd5b6024866011857f4e487b7100000000000000000000000000000000000000000000000000000000835252fd5b517fd611c318000000000000000000000000000000000000000000000000000000008152fd5b50517feb4156ad000000000000000000000000000000000000000000000000000000008152fd5b5050346104fb57816003193601126104fb576020906006549051908152f35b5080fd5b503461023a57602060031936011261023a5773ffffffffffffffffffffffffffffffffffffffff61052e6113e1565b610536611538565b1691821561056c5750507fffffffffffffffffffffffff0000000000000000000000000000000000000000600754161760075580f35b517f20a6abb7000000000000000000000000000000000000000000000000000000008152fd5b8382346104fb5760206003193601126104fb576105ad611538565b3560085580f35b503461023a57602060031936011261023a578160209373ffffffffffffffffffffffffffffffffffffffff92358152600385522054169051908152f35b8382346104fb5760206003193601126104fb5761060c611538565b3560065580f35b50903461023a5760a060031936011261023a5761062e6113e1565b916106376113be565b92604435926064359460843567ffffffffffffffff81116108635761065f9036908601611404565b91909361066a611589565b87895260209486865260ff858b20541661092d57338a52600a8652848a20898b52865260ff858b205416610905578573ffffffffffffffffffffffffffffffffffffffff9485600754168b8a6006546107038b51978896879586957f1420ff33000000000000000000000000000000000000000000000000000000008752860152600160248601526080604486015260848501916114b4565b90606483015203915afa9081156108fb575f916108c1575b50156108995760ff6009541615610871578289918983528787528583207fffffffffffffffffffffffffffffffffffffffffffffffffffffffffffffff0090600182825416179055338452600a88528684208b855288526001878520918254161790551695863b156104fb5784517f40c10f1900000000000000000000000000000000000000000000000000000000815273ffffffffffffffffffffffffffffffffffffffff841691810191825260208201899052908290829081906040010381838b5af180156108675761084f575b505060017f15f6c9ccde5337ced80285975fb115e4b562f310e9dfb741ac1f0b7b42c7994f94888786518a81527fbcb28a572c38fde09f5bb041c22540dd74dee31a880c551d8a83064dd3cf40c2843392a484519788528701521693a46001815580f35b61085890611432565b61086357875f6107eb565b8780fd5b85513d84823e3d90fd5b8584517fc5cd0493000000000000000000000000000000000000000000000000000000008152fd5b8584517fd611c318000000000000000000000000000000000000000000000000000000008152fd5b90508581813d83116108f4575b6108d88183611473565b810103126108f0575180151581036108f0575f61071b565b5f80fd5b503d6108ce565b85513d5f823e3d90fd5b8685517f60a2d074000000000000000000000000000000000000000000000000000000008152fd5b8685517feb4156ad000000000000000000000000000000000000000000000000000000008152fd5b5050346104fb57816003193601126104fb576020906005549051908152f35b5050346104fb57806003193601126104fb5760ff8160209373ffffffffffffffffffffffffffffffffffffffff6109a96113e1565b168152600a85528181206024358252855220541690519015158152f35b5050346104fb57816003193601126104fb5760209073ffffffffffffffffffffffffffffffffffffffff600154169051908152f35b503461023a57602060031936011261023a578281359167ffffffffffffffff83116104fb57610a50610aa8917e659c44ef638366dcc64605e6764338e9e277fa14b46af85c13c062f035914194369101611404565b9190610a5a611538565b6009549260ff8085161516807fffffffffffffffffffffffffffffffffffffffffffffffffffffffffffffff00861617600955875195869516171515845286602085015233968401916114b4565b0390a280f35b5050346104fb57816003193601126104fb5760207f62e78cea01bee320cd4e420270b5ea74000d11b0c9f74754ebdbfc544b05a25891610aec611538565b610af46115c2565b740100000000000000000000000000000000000000007fffffffffffffffffffffff00ffffffffffffffffffffffffffffffffffffffff600154161760015551338152a180f35b5050346104fb5760206003193601126104fb5773ffffffffffffffffffffffffffffffffffffffff610b6b6113e1565b610b73611538565b1690818352600260205282207fffffffffffffffffffffffffffffffffffffffffffffffffffffffffffffff0081541690557f4c910b69fe65a61f7531b9c5042b2329ca7179c77290aa7e2eb3afa3c8511fd38280a280f35b5050346104fb5760206003193601126104fb5760ff8160209373ffffffffffffffffffffffffffffffffffffffff610c026113e1565b1681526002855220541690519015158152f35b8334610c955780600319360112610c9557610c2e611538565b5f73ffffffffffffffffffffffffffffffffffffffff6001547fffffffffffffffffffffffff00000000000000000000000000000000000000008116600155167f8be0079c531659141344cd1fd0a4f28419497f9722a3daafe3b4186f6b6457e08280a380f35b80fd5b5050346104fb5760206003193601126104fb5773ffffffffffffffffffffffffffffffffffffffff610cc86113e1565b610cd0611538565b16908183526002602052822060017fffffffffffffffffffffffffffffffffffffffffffffffffffffffffffffff008254161790557f784c8f4dbf0ffedd6e72c76501c545a70f8b203b30a26ce542bf92ba87c248a48280a280f35b50903461023a57608060031936011261023a57610d476113e1565b91610d506113be565b9060443592606435610d60611589565b610d686115c2565b73ffffffffffffffffffffffffffffffffffffffff80961693848852600260205260ff838920541615610f41578515610f19578616958615610ef1578188526003602052828820541615610eca57833b15610ebc5781517f9dc29fac00000000000000000000000000000000000000000000000000000000815233848201908152602081018790528891908290829081906040010381838a5af18015610ec057610ea8575b5050600554927fffffffffffffffffffffffffffffffffffffffffffffffffffffffffffffffff8414610e7c575060018301600555815194855260208501528301527f562b76311bffc61c23e4dcde8b3b7d7caebe59eecaf30dbc31d15539021cbfc860603393a46001815580f35b8760116024927f4e487b7100000000000000000000000000000000000000000000000000000000835252fd5b610eb190611432565b610ebc57865f610e0d565b8680fd5b84513d84823e3d90fd5b50517f7147080c000000000000000000000000000000000000000000000000000000008152fd5b5050517f9c8d2cd2000000000000000000000000000000000000000000000000000000008152fd5b5050517f2c5211c6000000000000000000000000000000000000000000000000000000008152fd5b5050517f3dd1b305000000000000000000000000000000000000000000000000000000008152fd5b5050346104fb57816003193601126104fb5760209073ffffffffffffffffffffffffffffffffffffffff600754169051908152f35b5050346104fb57816003193601126104fb5760209060ff60015460a01c1690519015158152f35b5050346104fb57816003193601126104fb576020906008549051908152f35b50346108f05760c06003193601126108f057610ffe6113e1565b906110076113be565b9260443592606435946084359560a43567ffffffffffffffff81116108f0576110339036908701611404565b61103e969196611589565b6110466115c2565b61104e611538565b73ffffffffffffffffffffffffffffffffffffffff80951696875f52600260205260ff875f205416156111fe57895f528260205260ff875f2054166111d6579061109991848b6115fb565b156111af57875f5280602052845f2060017fffffffffffffffffffffffffffffffffffffffffffffffffffffffffffffff00825416179055853b156108f05784517f40c10f1900000000000000000000000000000000000000000000000000000000815273ffffffffffffffffffffffffffffffffffffffff841691810191825260208201889052905f90829081906040010381838a5af180156108fb57611174575b508351958652602086015216927f15f6c9ccde5337ced80285975fb115e4b562f310e9dfb741ac1f0b7b42c7994f9190a46001815580f35b7f15f6c9ccde5337ced80285975fb115e4b562f310e9dfb741ac1f0b7b42c7994f9493929198506111a490611432565b5f979091929361113c565b84517fd611c318000000000000000000000000000000000000000000000000000000008152fd5b8287517feb4156ad000000000000000000000000000000000000000000000000000000008152fd5b8287517f3dd1b305000000000000000000000000000000000000000000000000000000008152fd5b50346108f05760206003193601126108f057611240611538565b35600b55005b50346108f057816003193601126108f05760207f768b37526b7ccd7628667d5b176c7833a41e999cf864a9bdc8df341e5ce0d8bb9135926112856113be565b9061128e611538565b845f526003835273ffffffffffffffffffffffffffffffffffffffff815f20921691827fffffffffffffffffffffffff000000000000000000000000000000000000000082541617905551908152a2005b5090346108f0575f6003193601126108f0576112f9611538565b6001549160ff8360a01c161561135a577f5db9ee0a495bf2e6ff9c91a7834c1ba4fdd244a5e8aa4e537bd38aeae4b073aa6020837fffffffffffffffffffffff00ffffffffffffffffffffffffffffffffffffffff861660015551338152a1005b90517f8dfc202b000000000000000000000000000000000000000000000000000000008152fd5b82346108f0575f6003193601126108f057602090600b549051908152f35b346108f0575f6003193601126108f05760209060ff6009541615158152f35b6024359073ffffffffffffffffffffffffffffffffffffffff821682036108f057565b6004359073ffffffffffffffffffffffffffffffffffffffff821682036108f057565b9181601f840112156108f05782359167ffffffffffffffff83116108f057602083818601950101116108f057565b67ffffffffffffffff811161144657604052565b7f4e487b71000000000000000000000000000000000000000000000000000000005f52604160045260245ffd5b90601f7fffffffffffffffffffffffffffffffffffffffffffffffffffffffffffffffe0910116810190811067ffffffffffffffff82111761144657604052565b601f82602094937fffffffffffffffffffffffffffffffffffffffffffffffffffffffffffffffe093818652868601375f8582860101520116010190565b60043573ffffffffffffffffffffffffffffffffffffffff811681036108f05790565b60243573ffffffffffffffffffffffffffffffffffffffff811681036108f05790565b73ffffffffffffffffffffffffffffffffffffffff60015416330361155957565b60246040517f118cdaa7000000000000000000000000000000000000000000000000000000008152336004820152fd5b60025f54146115985760025f55565b60046040517f3ee5aeb5000000000000000000000000000000000000000000000000000000008152fd5b60ff60015460a01c166115d157565b60046040517fd93c0665000000000000000000000000000000000000000000000000000000008152fd5b602092939173ffffffffffffffffffffffffffffffffffffffff6007541691600654611668604051978896879586957f1420ff33000000000000000000000000000000000000000000000000000000008752600487015260248601526080604486015260848501916114b4565b90606483015203915afa9081156116bb575f91611683575090565b90506020813d6020116116b3575b8161169e60209383611473565b810103126108f0575180151581036108f05790565b3d9150611691565b6040513d5f823e3d90fdfea2646970667358221220303c1aa80f9cb48d5e00aa93cfc45ddd06ec75899161f183aea42a1c72b230f064736f6c63430008190033","linkReferences":{}},"methodIdentifiers":{"addSupportedToken(address)":"6d69fcaf","blobstreamVerifier()":"5c98d56e","bridgeTokens(address,address,uint256,uint256)":"6d389000","destinationBridges(uint256)":"d761aa15","emergencyClaims(address,bytes32)":"9b5d5faf","emergencyGracePeriod()":"2c20e960","emergencyMode()":"0905f560","emergencyWithdraw(address,address,uint256,bytes32,bytes)":"b3af614f","forceInclusionPeriod()":"5c3e2e65","forceTransaction((address,address,uint256,uint256,bytes32,uint256),bytes)":"e9cec08d","getDestinationBridge(uint256)":"89288a56","isTokenSupported(address)":"75151b63","isTransactionProcessed(bytes32)":"efc646ca","minConfirmations()":"e7c4393e","nonce()":"affed0e0","owner()":"8da5cb5b","pause()":"8456cb59","paused()":"5c975abb","processedTransactions(bytes32)":"ac2e4936","receiveTokens(address,address,uint256,uint256,bytes32,bytes)":"5aa241a6","removeSupportedToken(address)":"76319190","renounceOwnership()":"715018a6","setBlobstreamVerifier(address)":"e291c836","setDestinationBridge(uint256,address)":"46d482fe","setEmergencyGracePeriod(uint256)":"50fc932c","setForceInclusionPeriod(uint256)":"e2838deb","setMinConfirmations(uint256)":"d2821655","supportedTokens(address)":"68c4ac26","toggleEmergencyMode(string)":"868c75cb","transferOwnership(address)":"f2fde38b","unpause()":"3f4ba83a"},"id":120}