{"abi":[{"type":"constructor","inputs":[],"stateMutability":"nonpayable"},{"type":"function","name":"COMMUNITY_ALLOCATION","inputs":[],"outputs":[{"name":"","type":"uint256","internalType":"uint256"}],"stateMutability":"view"},{"type":"function","name":"DEFAULT_ADMIN_ROLE","inputs":[],"outputs":[{"name":"","type":"bytes32","internalType":"bytes32"}],"stateMutability":"view"},{"type":"function","name":"LIQUIDITY_ALLOCATION","inputs":[],"outputs":[{"name":"","type":"uint256","internalType":"uint256"}],"stateMutability":"view"},{"type":"function","name":"PAUSER_ROLE","inputs":[],"outputs":[{"name":"","type":"bytes32","internalType":"bytes32"}],"stateMutability":"view"},{"type":"function","name":"PRIVATE_ALLOCATION","inputs":[],"outputs":[{"name":"","type":"uint256","internalType":"uint256"}],"stateMutability":"view"},{"type":"function","name":"PRIVATE_CLIFF","inputs":[],"outputs":[{"name":"","type":"uint256","internalType":"uint256"}],"stateMutability":"view"},{"type":"function","name":"PRIVATE_VESTING","inputs":[],"outputs":[{"name":"","type":"uint256","internalType":"uint256"}],"stateMutability":"view"},{"type":"function","name":"PUBLIC_ALLOCATION","inputs":[],"outputs":[{"name":"","type":"uint256","internalType":"uint256"}],"stateMutability":"view"},{"type":"function","name":"PUBLIC_CLIFF","inputs":[],"outputs":[{"name":"","type":"uint256","internalType":"uint256"}],"stateMutability":"view"},{"type":"function","name":"PUBLIC_VESTING","inputs":[],"outputs":[{"name":"","type":"uint256","internalType":"uint256"}],"stateMutability":"view"},{"type":"function","name":"SEED_ALLOCATION","inputs":[],"outputs":[{"name":"","type":"uint256","internalType":"uint256"}],"stateMutability":"view"},{"type":"function","name":"SEED_CLIFF","inputs":[],"outputs":[{"name":"","type":"uint256","internalType":"uint256"}],"stateMutability":"view"},{"type":"function","name":"SEED_VESTING","inputs":[],"outputs":[{"name":"","type":"uint256","internalType":"uint256"}],"stateMutability":"view"},{"type":"function","name":"SEQUENCERS_ALLOCATION","inputs":[],"outputs":[{"name":"","type":"uint256","internalType":"uint256"}],"stateMutability":"view"},{"type":"function","name":"TEAM_ALLOCATION","inputs":[],"outputs":[{"name":"","type":"uint256","internalType":"uint256"}],"stateMutability":"view"},{"type":"function","name":"TEAM_CLIFF","inputs":[],"outputs":[{"name":"","type":"uint256","internalType":"uint256"}],"stateMutability":"view"},{"type":"function","name":"TEAM_VESTING","inputs":[],"outputs":[{"name":"","type":"uint256","internalType":"uint256"}],"stateMutability":"view"},{"type":"function","name":"TOTAL_SUPPLY","inputs":[],"outputs":[{"name":"","type":"uint256","internalType":"uint256"}],"stateMutability":"view"},{"type":"function","name":"UPGRADE_INTERFACE_VERSION","inputs":[],"outputs":[{"name":"","type":"string","internalType":"string"}],"stateMutability":"view"},{"type":"function","name":"VESTING_MANAGER_ROLE","inputs":[],"outputs":[{"name":"","type":"bytes32","internalType":"bytes32"}],"stateMutability":"view"},{"type":"function","name":"allocatedAmounts","inputs":[{"name":"","type":"uint8","internalType":"enum AndeVesting.AllocationCategory"}],"outputs":[{"name":"","type":"uint256","internalType":"uint256"}],"stateMutability":"view"},{"type":"function","name":"andeToken","inputs":[],"outputs":[{"name":"","type":"address","internalType":"contract IERC20"}],"stateMutability":"view"},{"type":"function","name":"claim","inputs":[{"name":"scheduleId","type":"uint256","internalType":"uint256"}],"outputs":[],"stateMutability":"nonpayable"},{"type":"function","name":"claimAll","inputs":[],"outputs":[],"stateMutability":"nonpayable"},{"type":"function","name":"claimedAmounts","inputs":[{"name":"","type":"uint8","internalType":"enum AndeVesting.AllocationCategory"}],"outputs":[{"name":"","type":"uint256","internalType":"uint256"}],"stateMutability":"view"},{"type":"function","name":"createBatchVestingSchedules","inputs":[{"name":"beneficiaries","type":"address[]","internalType":"address[]"},{"name":"amounts","type":"uint256[]","internalType":"uint256[]"},{"name":"category","type":"uint8","internalType":"enum AndeVesting.AllocationCategory"}],"outputs":[],"stateMutability":"nonpayable"},{"type":"function","name":"createVestingSchedule","inputs":[{"name":"beneficiary","type":"address","internalType":"address"},{"name":"amount","type":"uint256","internalType":"uint256"},{"name":"category","type":"uint8","internalType":"enum AndeVesting.AllocationCategory"}],"outputs":[{"name":"","type":"uint256","internalType":"uint256"}],"stateMutability":"nonpayable"},{"type":"function","name":"getAllClaimableAmount","inputs":[{"name":"beneficiary","type":"address","internalType":"address"}],"outputs":[{"name":"","type":"uint256","internalType":"uint256"}],"stateMutability":"view"},{"type":"function","name":"getAllocationStatus","inputs":[{"name":"category","type":"uint8","internalType":"enum AndeVesting.AllocationCategory"}],"outputs":[{"name":"maxAllocation","type":"uint256","internalType":"uint256"},{"name":"allocated","type":"uint256","internalType":"uint256"},{"name":"claimed","type":"uint256","internalType":"uint256"},{"name":"available","type":"uint256","internalType":"uint256"}],"stateMutability":"view"},{"type":"function","name":"getClaimableAmount","inputs":[{"name":"beneficiary","type":"address","internalType":"address"},{"name":"scheduleId","type":"uint256","internalType":"uint256"}],"outputs":[{"name":"","type":"uint256","internalType":"uint256"}],"stateMutability":"view"},{"type":"function","name":"getRoleAdmin","inputs":[{"name":"role","type":"bytes32","internalType":"bytes32"}],"outputs":[{"name":"","type":"bytes32","internalType":"bytes32"}],"stateMutability":"view"},{"type":"function","name":"getVestingSchedule","inputs":[{"name":"beneficiary","type":"address","internalType":"address"},{"name":"scheduleId","type":"uint256","internalType":"uint256"}],"outputs":[{"name":"","type":"tuple","internalType":"struct AndeVesting.VestingSchedule","components":[{"name":"totalAmount","type":"uint256","internalType":"uint256"},{"name":"claimedAmount","type":"uint256","internalType":"uint256"},{"name":"startTime","type":"uint256","internalType":"uint256"},{"name":"cliffDuration","type":"uint256","internalType":"uint256"},{"name":"vestingDuration","type":"uint256","internalType":"uint256"},{"name":"category","type":"uint8","internalType":"enum AndeVesting.AllocationCategory"},{"name":"revoked","type":"bool","internalType":"bool"}]}],"stateMutability":"view"},{"type":"function","name":"getVestingScheduleCount","inputs":[{"name":"beneficiary","type":"address","internalType":"address"}],"outputs":[{"name":"","type":"uint256","internalType":"uint256"}],"stateMutability":"view"},{"type":"function","name":"grantRole","inputs":[{"name":"role","type":"bytes32","internalType":"bytes32"},{"name":"account","type":"address","internalType":"address"}],"outputs":[],"stateMutability":"nonpayable"},{"type":"function","name":"hasRole","inputs":[{"name":"role","type":"bytes32","internalType":"bytes32"},{"name":"account","type":"address","internalType":"address"}],"outputs":[{"name":"","type":"bool","internalType":"bool"}],"stateMutability":"view"},{"type":"function","name":"initialize","inputs":[{"name":"_andeToken","type":"address","internalType":"address"},{"name":"defaultAdmin","type":"address","internalType":"address"}],"outputs":[],"stateMutability":"nonpayable"},{"type":"function","name":"pause","inputs":[],"outputs":[],"stateMutability":"nonpayable"},{"type":"function","name":"paused","inputs":[],"outputs":[{"name":"","type":"bool","internalType":"bool"}],"stateMutability":"view"},{"type":"function","name":"proxiableUUID","inputs":[],"outputs":[{"name":"","type":"bytes32","internalType":"bytes32"}],"stateMutability":"view"},{"type":"function","name":"renounceRole","inputs":[{"name":"role","type":"bytes32","internalType":"bytes32"},{"name":"callerConfirmation","type":"address","internalType":"address"}],"outputs":[],"stateMutability":"nonpayable"},{"type":"function","name":"revokeRole","inputs":[{"name":"role","type":"bytes32","internalType":"bytes32"},{"name":"account","type":"address","internalType":"address"}],"outputs":[],"stateMutability":"nonpayable"},{"type":"function","name":"revokeVestingSchedule","inputs":[{"name":"beneficiary","type":"address","internalType":"address"},{"name":"scheduleId","type":"uint256","internalType":"uint256"}],"outputs":[],"stateMutability":"nonpayable"},{"type":"function","name":"setTGE","inputs":[{"name":"timestamp","type":"uint256","internalType":"uint256"}],"outputs":[],"stateMutability":"nonpayable"},{"type":"function","name":"supportsInterface","inputs":[{"name":"interfaceId","type":"bytes4","internalType":"bytes4"}],"outputs":[{"name":"","type":"bool","internalType":"bool"}],"stateMutability":"view"},{"type":"function","name":"tgeTimestamp","inputs":[],"outputs":[{"name":"","type":"uint256","internalType":"uint256"}],"stateMutability":"view"},{"type":"function","name":"unpause","inputs":[],"outputs":[],"stateMutability":"nonpayable"},{"type":"function","name":"upgradeToAndCall","inputs":[{"name":"newImplementation","type":"address","internalType":"address"},{"name":"data","type":"bytes","internalType":"bytes"}],"outputs":[],"stateMutability":"payable"},{"type":"function","name":"vestingSchedules","inputs":[{"name":"","type":"address","internalType":"address"},{"name":"","type":"uint256","internalType":"uint256"}],"outputs":[{"name":"totalAmount","type":"uint256","internalType":"uint256"},{"name":"claimedAmount","type":"uint256","internalType":"uint256"},{"name":"startTime","type":"uint256","internalType":"uint256"},{"name":"cliffDuration","type":"uint256","internalType":"uint256"},{"name":"vestingDuration","type":"uint256","internalType":"uint256"},{"name":"category","type":"uint8","internalType":"enum AndeVesting.AllocationCategory"},{"name":"revoked","type":"bool","internalType":"bool"}],"stateMutability":"view"},{"type":"event","name":"Initialized","inputs":[{"name":"version","type":"uint64","indexed":false,"internalType":"uint64"}],"anonymous":false},{"type":"event","name":"Paused","inputs":[{"name":"account","type":"address","indexed":false,"internalType":"address"}],"anonymous":false},{"type":"event","name":"RoleAdminChanged","inputs":[{"name":"role","type":"bytes32","indexed":true,"internalType":"bytes32"},{"name":"previousAdminRole","type":"bytes32","indexed":true,"internalType":"bytes32"},{"name":"newAdminRole","type":"bytes32","indexed":true,"internalType":"bytes32"}],"anonymous":false},{"type":"event","name":"RoleGranted","inputs":[{"name":"role","type":"bytes32","indexed":true,"internalType":"bytes32"},{"name":"account","type":"address","indexed":true,"internalType":"address"},{"name":"sender","type":"address","indexed":true,"internalType":"address"}],"anonymous":false},{"type":"event","name":"RoleRevoked","inputs":[{"name":"role","type":"bytes32","indexed":true,"internalType":"bytes32"},{"name":"account","type":"address","indexed":true,"internalType":"address"},{"name":"sender","type":"address","indexed":true,"internalType":"address"}],"anonymous":false},{"type":"event","name":"TGESet","inputs":[{"name":"timestamp","type":"uint256","indexed":false,"internalType":"uint256"}],"anonymous":false},{"type":"event","name":"TokensClaimed","inputs":[{"name":"beneficiary","type":"address","indexed":true,"internalType":"address"},{"name":"scheduleId","type":"uint256","indexed":false,"internalType":"uint256"},{"name":"amount","type":"uint256","indexed":false,"internalType":"uint256"}],"anonymous":false},{"type":"event","name":"Unpaused","inputs":[{"name":"account","type":"address","indexed":false,"internalType":"address"}],"anonymous":false},{"type":"event","name":"Upgraded","inputs":[{"name":"implementation","type":"address","indexed":true,"internalType":"address"}],"anonymous":false},{"type":"event","name":"VestingRevoked","inputs":[{"name":"beneficiary","type":"address","indexed":true,"internalType":"address"},{"name":"scheduleId","type":"uint256","indexed":false,"internalType":"uint256"}],"anonymous":false},{"type":"event","name":"VestingScheduleCreated","inputs":[{"name":"beneficiary","type":"address","indexed":true,"internalType":"address"},{"name":"scheduleId","type":"uint256","indexed":false,"internalType":"uint256"},{"name":"amount","type":"uint256","indexed":false,"internalType":"uint256"},{"name":"category","type":"uint8","indexed":false,"internalType":"enum AndeVesting.AllocationCategory"}],"anonymous":false},{"type":"error","name":"AccessControlBadConfirmation","inputs":[]},{"type":"error","name":"AccessControlUnauthorizedAccount","inputs":[{"name":"account","type":"address","internalType":"address"},{"name":"neededRole","type":"bytes32","internalType":"bytes32"}]},{"type":"error","name":"AddressEmptyCode","inputs":[{"name":"target","type":"address","internalType":"address"}]},{"type":"error","name":"AddressInsufficientBalance","inputs":[{"name":"account","type":"address","internalType":"address"}]},{"type":"error","name":"AllocationExceeded","inputs":[]},{"type":"error","name":"ERC1967InvalidImplementation","inputs":[{"name":"implementation","type":"address","internalType":"address"}]},{"type":"error","name":"ERC1967NonPayable","inputs":[]},{"type":"error","name":"EnforcedPause","inputs":[]},{"type":"error","name":"ExpectedPause","inputs":[]},{"type":"error","name":"FailedInnerCall","inputs":[]},{"type":"error","name":"InvalidCategory","inputs":[]},{"type":"error","name":"InvalidInitialization","inputs":[]},{"type":"error","name":"InvalidSchedule","inputs":[]},{"type":"error","name":"NoVestingSchedule","inputs":[]},{"type":"error","name":"NotInitializing","inputs":[]},{"type":"error","name":"NothingToClaim","inputs":[]},{"type":"error","name":"ReentrancyGuardReentrantCall","inputs":[]},{"type":"error","name":"SafeERC20FailedOperation","inputs":[{"name":"token","type":"address","internalType":"address"}]},{"type":"error","name":"TGEAlreadySet","inputs":[]},{"type":"error","name":"TGENotSet","inputs":[]},{"type":"error","name":"UUPSUnauthorizedCallContext","inputs":[]},{"type":"error","name":"UUPSUnsupportedProxiableUUID","inputs":[{"name":"slot","type":"bytes32","internalType":"bytes32"}]},{"type":"error","name":"VestingAlreadyRevoked","inputs":[]}],"bytecode":{"object":"0x60a0806040523460c857306080527ff0c57e16840df040f15088dc2f81fe391c3923bec73e23a9662efc9c229c6a009081549060ff8260401c1660b957506001600160401b036002600160401b0319828216016075575b60405161202d90816100cd8239608051818181610b900152610c6e0152f35b6001600160401b031990911681179091556040519081527fc7f505b2f371ae2175ee4913f4499e1f2633a7b5936321eed1cdaeb6115181d290602090a15f80806056565b63f92ee8a960e01b8152600490fd5b5f80fdfe6080604081815260049182361015610015575f80fd5b5f3560e01c90816301ffc9a71461139a5750806307d0d91614611363578063140f021c1461133c5780631940ca171461131e578063248a9ca3146112e85780632d2b09cd146112ca5780632f2ff15d146112a25780632f85dac5146102b957806332ec9920146105dc578063339481431461127d57806336568abe14611239578063379607f5146111295780633f4ba83a146110b457806345626bd614611016578063485cc95514610e625780634cc0c18814610e225780634f1ef28614610bf457806352d1902d14610b7d5780635c975abb14610b4e5780636239bc3614610a415780636bd91e8b14610a235780636bda0781146109fa5780636d85e29a1461099b5780638456cb5914610936578063892c0fdb146105dc578063902d55a51461091057806391d14854146108c0578063993eb1c51461089a5780639a7af18a146107af578063a217fddf14610795578063a4317ef414610777578063a96b5fec146106e7578063ad3cb1cc14610667578063b3743f6014610638578063b78913601461061b578063b8664dca146105e1578063b9972607146105dc578063be0e740a146105ab578063bed9757e146104a3578063d1058e591461035d578063d547741f14610315578063dafcf93e146102f8578063e3177e6b146102b9578063e63ab1e9146102be578063ec9f1790146102b9578063f9428f38146102b9578063fd99cbed146102945763ff1a318d1461022f575f80fd5b346102905760203660031901126102905781359161024b6116e1565b600154610282577f9f5b1d2626fe1a57b989b4566912279df2387b8a481a7297f0a11373c230073c602084848160015551908152a1005b9051634fdfe42560e11b8152fd5b5f80fd5b5034610290575f36600319011261029057602090516acecb8f27f4200f3a0000008152f35b611418565b5034610290575f36600319011261029057602090517f65d7a28e3265b37a6474929f336521b332c1681b933f6cb9f3376673440d862a8152f35b5034610290575f36600319011261029057602090516276a7008152f35b503461029057806003193601126102905761035b91356103566001610338611402565b93835f525f80516020611f988339815191526020525f200154611737565b6119ac565b005b509034610290575f36600319011261029057610377611a2b565b61037f611a5a565b335f5260206002602052825f2092835415610494575f905f5b8554811015610451576103ab818761145b565b50600581015460ff90818160081c16156103cb575b505050600101610398565b6103d483611a84565b92836103e1575b506103c0565b9561040661041893859893600180989795016103fe868254611576565b905516611517565b610411838254611576565b9055611576565b93835190828252868201527f9923b4306c6c030f2bdfbf156517d5983b87e15b96176da122cd4f2effa4ba7b843392a2905f80806103db565b8483838115610485575f5461047290839033906001600160a01b0316611b02565b60015f80516020611fd883398151915255005b516312d37ee560e31b81529050fd5b516366ef36c960e01b81529050fd5b50903461029057816003193601126102905760e0916104c06113ec565b5f60c083516104ce816114a9565b82815282602082015282858201528260608201528260808201528260a0820152015260018060a01b03165f5260026020526105a1610510602435835f2061145b565b509282519361051e856114a9565b8054855260018101549160208601928352600282015494808701958652600560038401549260608901938452840154936080890194855201549560a088019461056a60ff891687611601565b60ff60c08a019860081c161515885282519851895251602089015251908701525160608601525160808501525160a0840190611488565b51151560c0820152f35b5090346102905760203660031901126102905735906007821015610290576105d4602092611517565b549051908152f35b61143d565b5034610290575f36600319011261029057602090517fd810f479110c9771ec744414e571d78468b4e92a20f345df2ffbdc5f927a182e8152f35b5034610290575f366003190112610290576020905162ed4e008152f35b50346102905780600319360112610290576020906106606106576113ec565b602435906115b4565b9051908152f35b5034610290575f366003190112610290578051918183019083821067ffffffffffffffff8311176106d457508152600582526020820191640352e302e360dc1b83528151928391602083525180918160208501528484015e5f828201840152601f01601f19168101030190f35b604190634e487b7160e01b5f525260245ffd5b5034610290576020366003190112610290576001600160a01b036107096113ec565b165f9081526002602052818120805490825b82811061072c576020848651908152f35b60ff600561073a838561145b565b50015460081c161561074f575b60010161071b565b9261076f600191610769610763878661145b565b50611a84565b90611576565b939050610747565b5034610290575f366003190112610290576020906001549051908152f35b5034610290575f36600319011261029057602090515f8152f35b5090346102905760603660031901126102905767ffffffffffffffff908035828111610290576107e29036908301611545565b939092602435908111610290576107fc9036908401611545565b94909260443592600784101561029057610814611686565b8683036108655750505f5b81811061082857005b6108338183876115a4565b35906001600160a01b03821682036102905761085e84600193610857848b8a6115a4565b3590611bbd565b500161081f565b906020606492519162461bcd60e51b8352820152600f60248201526e098cadccee8d040dad2e6dac2e8c6d608b1b6044820152fd5b5034610290575f36600319011261029057602090516b0121836204bc2ce21e0000008152f35b50346102905780600319360112610290576020916108dc611402565b90355f525f80516020611f988339815191528352815f209060018060a01b03165f52825260ff815f20541690519015158152f35b5034610290575f36600319011261029057602090516b033b2e3c9fd0803ce80000008152f35b5034610290575f3660031901126102905760207f62e78cea01bee320cd4e420270b5ea74000d11b0c9f74754ebdbfc544b05a2589161097361160d565b61097b611a5a565b5f80516020611fb8833981519152805460ff1916600117905551338152a1005b509034610290576020366003190112610290573590600782101561029057816109c5608093611d5f565b916109d96109d28361152e565b5492611517565b54906109e58385611597565b92815194855260208501528301526060820152f35b5090346102905760203660031901126102905735906007821015610290576105d460209261152e565b5034610290575f36600319011261029057602090516303c267008152f35b5034610290578060031936011261029057610a5a6113ec565b9060243591610a676116e1565b60018060a01b039081811694855f526002602052835f208054861015610b3f5785610a919161145b565b5091600583019384549260ff8460081c16610b3157509183917f57c76f5e278bfbd4eeb5207d287aa5a1a9e1113c65f7eefa540e379a2774d13b979593610ada60209896611a84565b9283610afa575b505050505061010061ff001982541617905551908152a2005b60ff610b12916001610b2797016103fe878254611576565b610b1d848254611576565b90555f5416611b02565b5f80808080610ae1565b86516356994e5560e01b8152fd5b5083516366ef36c960e01b8152fd5b5034610290575f3660031901126102905760209060ff5f80516020611fb8833981519152541690519015158152f35b5034610290575f366003190112610290577f00000000000000000000000000000000000000000000000000000000000000006001600160a01b03163003610be757602090517f360894a13ba1a3210667c828492db98dca3e2076cc3735a920a3ca505d382bbc8152f35b5163703e46dd60e11b8152fd5b50908160031936011261029057610c096113ec565b602492833567ffffffffffffffff81116102905736602382011215610290578084013592610c36846114fb565b610c42845191826114d9565b848152602094858201933689838301011161029057815f928a8993018737830101526001600160a01b037f00000000000000000000000000000000000000000000000000000000000000008116308114908115610df4575b50610de457610ca76116e1565b84516352d1902d60e01b815290831695808289818a5afa9182915f93610db4575b5050610ce357505050505191634c9c8ce360e01b8352820152fd5b858588928a7f360894a13ba1a3210667c828492db98dca3e2076cc3735a920a3ca505d382bbc91828103610d9f5750863b15610d8b575080546001600160a01b0319168317905551907fbc7cd75a20ee27fd9adebab32041f755214dbc6bffa90cc0225b39da2e5c2d3b5f80a2825115610d735750505f61035b9381925190845af4610d6d611ee5565b91611f14565b925092505034610d7f57005b63b398979f60e01b8152fd5b9450505191634c9c8ce360e01b8352820152fd5b8351632a87526960e21b815280870191909152fd5b9080929350813d8311610ddd575b610dcc81836114d9565b810103126102905751905f80610cc8565b503d610dc2565b845163703e46dd60e11b81528790fd5b9050817f360894a13ba1a3210667c828492db98dca3e2076cc3735a920a3ca505d382bbc541614155f610c9a565b503461029057606036600319011261029057610e3c6113ec565b906044359160078310156102905760209261066091610e59611686565b60243590611bbd565b5034610290578060031936011261029057610e7b6113ec565b610e83611402565b907ff0c57e16840df040f15088dc2f81fe391c3923bec73e23a9662efc9c229c6a009182549160ff83861c16159267ffffffffffffffff81168015908161100e575b6001149081611004575b159081610ffb575b50610feb5767ffffffffffffffff1981166001178555610f8892919084610fcc575b50610f02611dff565b610f0a611dff565b610f12611dff565b610f1a611dff565b5f80516020611fb8833981519152805460ff19169055610f38611dff565b610f40611dff565b60015f80516020611fd88339815191525560018060a01b03166bffffffffffffffffffffffff60a01b5f5416175f55610f7881611765565b50610f82816117e9565b50611896565b50610f8f57005b805468ff00000000000000001916905551600181527fc7f505b2f371ae2175ee4913f4499e1f2633a7b5936321eed1cdaeb6115181d290602090a1005b68ffffffffffffffffff19166801000000000000000117855586610ef9565b855163f92ee8a960e01b81528790fd5b9050155f610ed7565b303b159150610ecf565b859150610ec5565b5090346102905781600319360112610290576110306113ec565b6001600160a01b03165f908152600260205282902080549092602435918210156102905761106260ff9260e09561145b565b5080549360018201549260028301549060056003850154938501549401549481519788526020880152860152606085015260808401526110a760a08401838316611488565b60081c16151560c0820152f35b5034610290575f366003190112610290576110cd61160d565b5f80516020611fb88339815191529182549060ff82161561111b577f5db9ee0a495bf2e6ff9c91a7834c1ba4fdd244a5e8aa4e537bd38aeae4b073aa602084868560ff1916905551338152a1005b8251638dfc202b60e01b8152fd5b503461029057602036600319011261029057813591611146611a2b565b61114e611a5a565b335f526002602052815f20805484101561122a578361116c9161145b565b5060058101549060ff8260081c1661121a5761118781611a84565b92831561120c575060ff7f9923b4306c6c030f2bdfbf156517d5983b87e15b96176da122cd4f2effa4ba7b94939260016111c793016103fe858254611576565b6111d2828254611576565b90555f546111ec90829033906001600160a01b0316611b02565b815193845260208401523392a260015f80516020611fd883398151915255005b84516312d37ee560e31b8152fd5b83516356994e5560e01b81528390fd5b5090516366ef36c960e01b8152fd5b5034610290578060031936011261029057611252611402565b90336001600160a01b0383160361126e575061035b91356119ac565b5163334bd91960e11b81529050fd5b5034610290575f36600319011261029057602090516aa56fa5b99019a5c80000008152f35b503461029057806003193601126102905761035b91356112c56001610338611402565b61193c565b5034610290575f36600319011261029057602090516302d276008152f35b503461029057602036600319011261029057602091355f525f80516020611f9883398151915282526001815f2001549051908152f35b5034610290575f36600319011261029057602090516305a39a808152f35b5034610290575f366003190112610290575f5490516001600160a01b039091168152602090f35b5034610290576020366003190112610290576020906001600160a01b036113886113ec565b165f5260028252805f20549051908152f35b833461029057602036600319011261029057359063ffffffff60e01b821680920361029057602091637965db0b60e01b81149081156113db575b5015158152f35b6301ffc9a760e01b149050836113d4565b600435906001600160a01b038216820361029057565b602435906001600160a01b038216820361029057565b34610290575f3660031901126102905760206040516a295be96e640669720000008152f35b34610290575f3660031901126102905760206040516301e133808152f35b8054821015611474575f52600660205f20910201905f90565b634e487b7160e01b5f52603260045260245ffd5b9060078210156114955752565b634e487b7160e01b5f52602160045260245ffd5b60e0810190811067ffffffffffffffff8211176114c557604052565b634e487b7160e01b5f52604160045260245ffd5b90601f8019910116810190811067ffffffffffffffff8211176114c557604052565b67ffffffffffffffff81116114c557601f01601f191660200190565b6007811015611495575f52600460205260405f2090565b6007811015611495575f52600360205260405f2090565b9181601f840112156102905782359167ffffffffffffffff8311610290576020808501948460051b01011161029057565b9190820180921161158357565b634e487b7160e01b5f52601160045260245ffd5b9190820391821161158357565b91908110156114745760051b0190565b60018060a01b03165f52600260205260405f209081548110156115fb576115da9161145b565b5060ff600582015460081c166115f6576115f390611a84565b90565b505f90565b50505f90565b60078210156114955752565b335f9081527f75442b0a96088b5456bc4ed01394c96a4feec0f883c9494257d76b96ab1c9b6b60205260409020547f65d7a28e3265b37a6474929f336521b332c1681b933f6cb9f3376673440d862a9060ff16156116685750565b6044906040519063e2517d3f60e01b82523360048301526024820152fd5b335f9081527ff6b279059e15297cdfafd6c492a1181fadb16076d9b8ed83dac2686167f080ba60205260409020547fd810f479110c9771ec744414e571d78468b4e92a20f345df2ffbdc5f927a182e9060ff16156116685750565b335f9081527fb7db2dd08fcb62d0c9e08c51941cae53c267786a0b75803fb7960902fc8ef97d602052604090205460ff161561171957565b60405163e2517d3f60e01b81523360048201525f6024820152604490fd5b805f525f80516020611f9883398151915260205260405f20335f5260205260ff60405f205416156116685750565b6001600160a01b03165f8181527fb7db2dd08fcb62d0c9e08c51941cae53c267786a0b75803fb7960902fc8ef97d60205260409020545f80516020611f988339815191529060ff166115fb575f805260205260405f20815f5260205260405f20600160ff1982541617905533905f5f80516020611f788339815191528180a4600190565b6001600160a01b03165f8181527f75442b0a96088b5456bc4ed01394c96a4feec0f883c9494257d76b96ab1c9b6b60205260409020547f65d7a28e3265b37a6474929f336521b332c1681b933f6cb9f3376673440d862a91905f80516020611f988339815191529060ff1661188f57825f5260205260405f20815f5260205260405f20600160ff1982541617905533915f80516020611f788339815191525f80a4600190565b5050505f90565b6001600160a01b03165f8181527ff6b279059e15297cdfafd6c492a1181fadb16076d9b8ed83dac2686167f080ba60205260409020547fd810f479110c9771ec744414e571d78468b4e92a20f345df2ffbdc5f927a182e91905f80516020611f988339815191529060ff1661188f57825f5260205260405f20815f5260205260405f20600160ff1982541617905533915f80516020611f788339815191525f80a4600190565b90815f525f80516020611f988339815191528060205260405f209160018060a01b031691825f5260205260ff60405f205416155f1461188f57825f5260205260405f20815f5260205260405f20600160ff1982541617905533915f80516020611f788339815191525f80a4600190565b90815f525f80516020611f988339815191528060205260405f209160018060a01b031691825f5260205260ff60405f2054165f1461188f57825f5260205260405f20815f5260205260405f2060ff19815416905533917ff6391f5c32d9c69d2a47ea670b442974b53935d1edc7fd64eb21e047a839171b5f80a4600190565b5f80516020611fd88339815191526002815414611a485760029055565b604051633ee5aeb560e01b8152600490fd5b60ff5f80516020611fb88339815191525416611a7257565b60405163d93c066560e01b8152600490fd5b6002810154611a97600383015482611576565b42106115fb57611aa79042611597565b600482015480821015611aef578254828102928184041490151715611583578015611adb5760016115f39301549104611597565b634e487b7160e01b5f52601260045260245ffd5b50508060016115f3925491015490611597565b60405163a9059cbb60e01b602082019081526001600160a01b03938416602483015260448083019590955293815292608084019067ffffffffffffffff8211858310176114c557611b6b935f9384936040521694519082865af1611b64611ee5565b9083611f14565b8051908115159182611b99575b5050611b815750565b60249060405190635274afe760e01b82526004820152fd5b81925090602091810103126102905760200151801590811503610290575f80611b78565b60015491928215611d4d57611bd181611d5f565b611be485611bde8461152e565b54611576565b11611d3b57611bf281611e40565b92604093845190611c02826114a9565b87825260208201905f8252868301978852606083019485526080830190815260a0830194611c308787611601565b60c08401945f865260018060a01b031698895f526002602052885f208054680100000000000000008110156114c557611c6e9160018201815561145b565b949094611d28576005955185555160018501555160028401555160038301555160048201550191519060078210156114955760ff61ff0084549251151560081b1692169061ffff191617179055611cc48161152e565b611ccf858254611576565b9055825f526002602052815f2054935f19850194851161158357611d24606092847f88bd198100724d6526c055d00ce821058a4523d895f940e6f4029e66c1805e649551938885526020850152830190611488565ba290565b634e487b7160e01b5f525f60045260245ffd5b6040516374a5d1f560e01b8152600490fd5b604051638d50977360e01b8152600490fd5b6007811015611495578015611dee5760018114611dde5760028114611dce5760038114611dbe5760048114611dbe5760058114611dbe57600614611daf57604051636b3ac97b60e11b8152600490fd5b6a295be96e6406697200000090565b506a295be96e6406697200000090565b506aa56fa5b99019a5c800000090565b506acecb8f27f4200f3a00000090565b506b0121836204bc2ce21e00000090565b60ff7ff0c57e16840df040f15088dc2f81fe391c3923bec73e23a9662efc9c229c6a005460401c1615611e2e57565b604051631afcd79f60e31b8152600490fd5b60078110156114955760018103611e6057506301e13380906305a39a8090565b60038103611e7757506301e13380906303c2670090565b60048103611e8d575062ed4e00906302d2760090565b60058103611ea357506276a700906301e1338090565b80611eb357505f90630784ce0090565b60028103611ec657505f906305a39a8090565b600614611edf57604051636b3ac97b60e11b8152600490fd5b5f905f90565b3d15611f0f573d90611ef6826114fb565b91611f0460405193846114d9565b82523d5f602084013e565b606090565b90611f3b5750805115611f2957805190602001fd5b604051630a12f52160e11b8152600490fd5b81511580611f6e575b611f4c575090565b604051639996b31560e01b81526001600160a01b039091166004820152602490fd5b50803b15611f4456fe2f8788117e7eff1d82e926ec794901d17c78024a50270940304540a733656f0d02dd7bc7dec4dceedda775e58dd541e08a116c6c53815c0bd028192f7b626800cd5ed15c6e187e77e9aee88184c21f4f2182ab5827cb3b7e07fbedcd63f033009b779b17422d0df92223018b32b4d1fa46e071723d6817e2486d003becc55f00a26469706673582212206eb6cc4c16905c42f9488d85f8bc513c86702461e3436daf87d903c070417f9a64736f6c63430008190033","linkReferences":{}},"methodIdentifiers":{"COMMUNITY_ALLOCATION()":"993eb1c5","DEFAULT_ADMIN_ROLE()":"a217fddf","LIQUIDITY_ALLOCATION()":"f9428f38","PAUSER_ROLE()":"e63ab1e9","PRIVATE_ALLOCATION()":"ec9f1790","PRIVATE_CLIFF()":"b7891360","PRIVATE_VESTING()":"2d2b09cd","PUBLIC_ALLOCATION()":"e3177e6b","PUBLIC_CLIFF()":"dafcf93e","PUBLIC_VESTING()":"32ec9920","SEED_ALLOCATION()":"2f85dac5","SEED_CLIFF()":"892c0fdb","SEED_VESTING()":"6bd91e8b","SEQUENCERS_ALLOCATION()":"33948143","TEAM_ALLOCATION()":"fd99cbed","TEAM_CLIFF()":"b9972607","TEAM_VESTING()":"1940ca17","TOTAL_SUPPLY()":"902d55a5","UPGRADE_INTERFACE_VERSION()":"ad3cb1cc","VESTING_MANAGER_ROLE()":"b8664dca","allocatedAmounts(uint8)":"6bda0781","andeToken()":"140f021c","claim(uint256)":"379607f5","claimAll()":"d1058e59","claimedAmounts(uint8)":"be0e740a","createBatchVestingSchedules(address[],uint256[],uint8)":"9a7af18a","createVestingSchedule(address,uint256,uint8)":"4cc0c188","getAllClaimableAmount(address)":"a96b5fec","getAllocationStatus(uint8)":"6d85e29a","getClaimableAmount(address,uint256)":"b3743f60","getRoleAdmin(bytes32)":"248a9ca3","getVestingSchedule(address,uint256)":"bed9757e","getVestingScheduleCount(address)":"07d0d916","grantRole(bytes32,address)":"2f2ff15d","hasRole(bytes32,address)":"91d14854","initialize(address,address)":"485cc955","pause()":"8456cb59","paused()":"5c975abb","proxiableUUID()":"52d1902d","renounceRole(bytes32,address)":"36568abe","revokeRole(bytes32,address)":"d547741f","revokeVestingSchedule(address,uint256)":"6239bc36","setTGE(uint256)":"ff1a318d","supportsInterface(bytes4)":"01ffc9a7","tgeTimestamp()":"a4317ef4","unpause()":"3f4ba83a","upgradeToAndCall(address,bytes)":"4f1ef286","vestingSchedules(address,uint256)":"45626bd6"},"id":182}