{"abi":[{"type":"constructor","inputs":[],"stateMutability":"nonpayable"},{"type":"function","name":"COMMUNITY_ALLOCATION","inputs":[],"outputs":[{"name":"","type":"uint256","internalType":"uint256"}],"stateMutability":"view"},{"type":"function","name":"DEFAULT_ADMIN_ROLE","inputs":[],"outputs":[{"name":"","type":"bytes32","internalType":"bytes32"}],"stateMutability":"view"},{"type":"function","name":"LIQUIDITY_ALLOCATION","inputs":[],"outputs":[{"name":"","type":"uint256","internalType":"uint256"}],"stateMutability":"view"},{"type":"function","name":"PAUSER_ROLE","inputs":[],"outputs":[{"name":"","type":"bytes32","internalType":"bytes32"}],"stateMutability":"view"},{"type":"function","name":"PRIVATE_ALLOCATION","inputs":[],"outputs":[{"name":"","type":"uint256","internalType":"uint256"}],"stateMutability":"view"},{"type":"function","name":"PRIVATE_CLIFF","inputs":[],"outputs":[{"name":"","type":"uint256","internalType":"uint256"}],"stateMutability":"view"},{"type":"function","name":"PRIVATE_VESTING","inputs":[],"outputs":[{"name":"","type":"uint256","internalType":"uint256"}],"stateMutability":"view"},{"type":"function","name":"PUBLIC_ALLOCATION","inputs":[],"outputs":[{"name":"","type":"uint256","internalType":"uint256"}],"stateMutability":"view"},{"type":"function","name":"PUBLIC_CLIFF","inputs":[],"outputs":[{"name":"","type":"uint256","internalType":"uint256"}],"stateMutability":"view"},{"type":"function","name":"PUBLIC_VESTING","inputs":[],"outputs":[{"name":"","type":"uint256","internalType":"uint256"}],"stateMutability":"view"},{"type":"function","name":"SEED_ALLOCATION","inputs":[],"outputs":[{"name":"","type":"uint256","internalType":"uint256"}],"stateMutability":"view"},{"type":"function","name":"SEED_CLIFF","inputs":[],"outputs":[{"name":"","type":"uint256","internalType":"uint256"}],"stateMutability":"view"},{"type":"function","name":"SEED_VESTING","inputs":[],"outputs":[{"name":"","type":"uint256","internalType":"uint256"}],"stateMutability":"view"},{"type":"function","name":"SEQUENCERS_ALLOCATION","inputs":[],"outputs":[{"name":"","type":"uint256","internalType":"uint256"}],"stateMutability":"view"},{"type":"function","name":"TEAM_ALLOCATION","inputs":[],"outputs":[{"name":"","type":"uint256","internalType":"uint256"}],"stateMutability":"view"},{"type":"function","name":"TEAM_CLIFF","inputs":[],"outputs":[{"name":"","type":"uint256","internalType":"uint256"}],"stateMutability":"view"},{"type":"function","name":"TEAM_VESTING","inputs":[],"outputs":[{"name":"","type":"uint256","internalType":"uint256"}],"stateMutability":"view"},{"type":"function","name":"TOTAL_SUPPLY","inputs":[],"outputs":[{"name":"","type":"uint256","internalType":"uint256"}],"stateMutability":"view"},{"type":"function","name":"UPGRADE_INTERFACE_VERSION","inputs":[],"outputs":[{"name":"","type":"string","internalType":"string"}],"stateMutability":"view"},{"type":"function","name":"VESTING_MANAGER_ROLE","inputs":[],"outputs":[{"name":"","type":"bytes32","internalType":"bytes32"}],"stateMutability":"view"},{"type":"function","name":"allocatedAmounts","inputs":[{"name":"","type":"uint8","internalType":"enum AndeVesting.AllocationCategory"}],"outputs":[{"name":"","type":"uint256","internalType":"uint256"}],"stateMutability":"view"},{"type":"function","name":"andeToken","inputs":[],"outputs":[{"name":"","type":"address","internalType":"contract IERC20"}],"stateMutability":"view"},{"type":"function","name":"claim","inputs":[{"name":"scheduleId","type":"uint256","internalType":"uint256"}],"outputs":[],"stateMutability":"nonpayable"},{"type":"function","name":"claimAll","inputs":[],"outputs":[],"stateMutability":"nonpayable"},{"type":"function","name":"claimedAmounts","inputs":[{"name":"","type":"uint8","internalType":"enum AndeVesting.AllocationCategory"}],"outputs":[{"name":"","type":"uint256","internalType":"uint256"}],"stateMutability":"view"},{"type":"function","name":"createBatchVestingSchedules","inputs":[{"name":"beneficiaries","type":"address[]","internalType":"address[]"},{"name":"amounts","type":"uint256[]","internalType":"uint256[]"},{"name":"category","type":"uint8","internalType":"enum AndeVesting.AllocationCategory"}],"outputs":[],"stateMutability":"nonpayable"},{"type":"function","name":"createVestingSchedule","inputs":[{"name":"beneficiary","type":"address","internalType":"address"},{"name":"amount","type":"uint256","internalType":"uint256"},{"name":"category","type":"uint8","internalType":"enum AndeVesting.AllocationCategory"}],"outputs":[{"name":"","type":"uint256","internalType":"uint256"}],"stateMutability":"nonpayable"},{"type":"function","name":"getAllClaimableAmount","inputs":[{"name":"beneficiary","type":"address","internalType":"address"}],"outputs":[{"name":"","type":"uint256","internalType":"uint256"}],"stateMutability":"view"},{"type":"function","name":"getAllocationStatus","inputs":[{"name":"category","type":"uint8","internalType":"enum AndeVesting.AllocationCategory"}],"outputs":[{"name":"maxAllocation","type":"uint256","internalType":"uint256"},{"name":"allocated","type":"uint256","internalType":"uint256"},{"name":"claimed","type":"uint256","internalType":"uint256"},{"name":"available","type":"uint256","internalType":"uint256"}],"stateMutability":"view"},{"type":"function","name":"getClaimableAmount","inputs":[{"name":"beneficiary","type":"address","internalType":"address"},{"name":"scheduleId","type":"uint256","internalType":"uint256"}],"outputs":[{"name":"","type":"uint256","internalType":"uint256"}],"stateMutability":"view"},{"type":"function","name":"getRoleAdmin","inputs":[{"name":"role","type":"bytes32","internalType":"bytes32"}],"outputs":[{"name":"","type":"bytes32","internalType":"bytes32"}],"stateMutability":"view"},{"type":"function","name":"getVestingSchedule","inputs":[{"name":"beneficiary","type":"address","internalType":"address"},{"name":"scheduleId","type":"uint256","internalType":"uint256"}],"outputs":[{"name":"","type":"tuple","internalType":"struct AndeVesting.VestingSchedule","components":[{"name":"totalAmount","type":"uint256","internalType":"uint256"},{"name":"claimedAmount","type":"uint256","internalType":"uint256"},{"name":"startTime","type":"uint256","internalType":"uint256"},{"name":"cliffDuration","type":"uint256","internalType":"uint256"},{"name":"vestingDuration","type":"uint256","internalType":"uint256"},{"name":"category","type":"uint8","internalType":"enum AndeVesting.AllocationCategory"},{"name":"revoked","type":"bool","internalType":"bool"}]}],"stateMutability":"view"},{"type":"function","name":"getVestingScheduleCount","inputs":[{"name":"beneficiary","type":"address","internalType":"address"}],"outputs":[{"name":"","type":"uint256","internalType":"uint256"}],"stateMutability":"view"},{"type":"function","name":"grantRole","inputs":[{"name":"role","type":"bytes32","internalType":"bytes32"},{"name":"account","type":"address","internalType":"address"}],"outputs":[],"stateMutability":"nonpayable"},{"type":"function","name":"hasRole","inputs":[{"name":"role","type":"bytes32","internalType":"bytes32"},{"name":"account","type":"address","internalType":"address"}],"outputs":[{"name":"","type":"bool","internalType":"bool"}],"stateMutability":"view"},{"type":"function","name":"initialize","inputs":[{"name":"_andeToken","type":"address","internalType":"address"},{"name":"defaultAdmin","type":"address","internalType":"address"}],"outputs":[],"stateMutability":"nonpayable"},{"type":"function","name":"pause","inputs":[],"outputs":[],"stateMutability":"nonpayable"},{"type":"function","name":"paused","inputs":[],"outputs":[{"name":"","type":"bool","internalType":"bool"}],"stateMutability":"view"},{"type":"function","name":"proxiableUUID","inputs":[],"outputs":[{"name":"","type":"bytes32","internalType":"bytes32"}],"stateMutability":"view"},{"type":"function","name":"renounceRole","inputs":[{"name":"role","type":"bytes32","internalType":"bytes32"},{"name":"callerConfirmation","type":"address","internalType":"address"}],"outputs":[],"stateMutability":"nonpayable"},{"type":"function","name":"revokeRole","inputs":[{"name":"role","type":"bytes32","internalType":"bytes32"},{"name":"account","type":"address","internalType":"address"}],"outputs":[],"stateMutability":"nonpayable"},{"type":"function","name":"revokeVestingSchedule","inputs":[{"name":"beneficiary","type":"address","internalType":"address"},{"name":"scheduleId","type":"uint256","internalType":"uint256"}],"outputs":[],"stateMutability":"nonpayable"},{"type":"function","name":"setTGE","inputs":[{"name":"timestamp","type":"uint256","internalType":"uint256"}],"outputs":[],"stateMutability":"nonpayable"},{"type":"function","name":"supportsInterface","inputs":[{"name":"interfaceId","type":"bytes4","internalType":"bytes4"}],"outputs":[{"name":"","type":"bool","internalType":"bool"}],"stateMutability":"view"},{"type":"function","name":"tgeTimestamp","inputs":[],"outputs":[{"name":"","type":"uint256","internalType":"uint256"}],"stateMutability":"view"},{"type":"function","name":"unpause","inputs":[],"outputs":[],"stateMutability":"nonpayable"},{"type":"function","name":"upgradeToAndCall","inputs":[{"name":"newImplementation","type":"address","internalType":"address"},{"name":"data","type":"bytes","internalType":"bytes"}],"outputs":[],"stateMutability":"payable"},{"type":"function","name":"vestingSchedules","inputs":[{"name":"","type":"address","internalType":"address"},{"name":"","type":"uint256","internalType":"uint256"}],"outputs":[{"name":"totalAmount","type":"uint256","internalType":"uint256"},{"name":"claimedAmount","type":"uint256","internalType":"uint256"},{"name":"startTime","type":"uint256","internalType":"uint256"},{"name":"cliffDuration","type":"uint256","internalType":"uint256"},{"name":"vestingDuration","type":"uint256","internalType":"uint256"},{"name":"category","type":"uint8","internalType":"enum AndeVesting.AllocationCategory"},{"name":"revoked","type":"bool","internalType":"bool"}],"stateMutability":"view"},{"type":"event","name":"Initialized","inputs":[{"name":"version","type":"uint64","indexed":false,"internalType":"uint64"}],"anonymous":false},{"type":"event","name":"Paused","inputs":[{"name":"account","type":"address","indexed":false,"internalType":"address"}],"anonymous":false},{"type":"event","name":"RoleAdminChanged","inputs":[{"name":"role","type":"bytes32","indexed":true,"internalType":"bytes32"},{"name":"previousAdminRole","type":"bytes32","indexed":true,"internalType":"bytes32"},{"name":"newAdminRole","type":"bytes32","indexed":true,"internalType":"bytes32"}],"anonymous":false},{"type":"event","name":"RoleGranted","inputs":[{"name":"role","type":"bytes32","indexed":true,"internalType":"bytes32"},{"name":"account","type":"address","indexed":true,"internalType":"address"},{"name":"sender","type":"address","indexed":true,"internalType":"address"}],"anonymous":false},{"type":"event","name":"RoleRevoked","inputs":[{"name":"role","type":"bytes32","indexed":true,"internalType":"bytes32"},{"name":"account","type":"address","indexed":true,"internalType":"address"},{"name":"sender","type":"address","indexed":true,"internalType":"address"}],"anonymous":false},{"type":"event","name":"TGESet","inputs":[{"name":"timestamp","type":"uint256","indexed":false,"internalType":"uint256"}],"anonymous":false},{"type":"event","name":"TokensClaimed","inputs":[{"name":"beneficiary","type":"address","indexed":true,"internalType":"address"},{"name":"scheduleId","type":"uint256","indexed":false,"internalType":"uint256"},{"name":"amount","type":"uint256","indexed":false,"internalType":"uint256"}],"anonymous":false},{"type":"event","name":"Unpaused","inputs":[{"name":"account","type":"address","indexed":false,"internalType":"address"}],"anonymous":false},{"type":"event","name":"Upgraded","inputs":[{"name":"implementation","type":"address","indexed":true,"internalType":"address"}],"anonymous":false},{"type":"event","name":"VestingRevoked","inputs":[{"name":"beneficiary","type":"address","indexed":true,"internalType":"address"},{"name":"scheduleId","type":"uint256","indexed":false,"internalType":"uint256"}],"anonymous":false},{"type":"event","name":"VestingScheduleCreated","inputs":[{"name":"beneficiary","type":"address","indexed":true,"internalType":"address"},{"name":"scheduleId","type":"uint256","indexed":false,"internalType":"uint256"},{"name":"amount","type":"uint256","indexed":false,"internalType":"uint256"},{"name":"category","type":"uint8","indexed":false,"internalType":"enum AndeVesting.AllocationCategory"}],"anonymous":false},{"type":"error","name":"AccessControlBadConfirmation","inputs":[]},{"type":"error","name":"AccessControlUnauthorizedAccount","inputs":[{"name":"account","type":"address","internalType":"address"},{"name":"neededRole","type":"bytes32","internalType":"bytes32"}]},{"type":"error","name":"AddressEmptyCode","inputs":[{"name":"target","type":"address","internalType":"address"}]},{"type":"error","name":"AddressInsufficientBalance","inputs":[{"name":"account","type":"address","internalType":"address"}]},{"type":"error","name":"AllocationExceeded","inputs":[]},{"type":"error","name":"ERC1967InvalidImplementation","inputs":[{"name":"implementation","type":"address","internalType":"address"}]},{"type":"error","name":"ERC1967NonPayable","inputs":[]},{"type":"error","name":"EnforcedPause","inputs":[]},{"type":"error","name":"ExpectedPause","inputs":[]},{"type":"error","name":"FailedInnerCall","inputs":[]},{"type":"error","name":"InvalidCategory","inputs":[]},{"type":"error","name":"InvalidInitialization","inputs":[]},{"type":"error","name":"InvalidSchedule","inputs":[]},{"type":"error","name":"NoVestingSchedule","inputs":[]},{"type":"error","name":"NotInitializing","inputs":[]},{"type":"error","name":"NothingToClaim","inputs":[]},{"type":"error","name":"ReentrancyGuardReentrantCall","inputs":[]},{"type":"error","name":"SafeERC20FailedOperation","inputs":[{"name":"token","type":"address","internalType":"address"}]},{"type":"error","name":"TGEAlreadySet","inputs":[]},{"type":"error","name":"TGENotSet","inputs":[]},{"type":"error","name":"UUPSUnauthorizedCallContext","inputs":[]},{"type":"error","name":"UUPSUnsupportedProxiableUUID","inputs":[{"name":"slot","type":"bytes32","internalType":"bytes32"}]},{"type":"error","name":"VestingAlreadyRevoked","inputs":[]}],"bytecode":{"object":"0x60a0806040523460c857306080527ff0c57e16840df040f15088dc2f81fe391c3923bec73e23a9662efc9c229c6a009081549060ff8260401c1660b957506001600160401b036002600160401b0319828216016075575b6040516128d290816100cd8239608051818181610d810152610e7e0152f35b6001600160401b031990911681179091556040519081527fc7f505b2f371ae2175ee4913f4499e1f2633a7b5936321eed1cdaeb6115181d290602090a15f80806056565b63f92ee8a960e01b8152600490fd5b5f80fdfe6080604081815260049182361015610015575f80fd5b5f3560e01c90816301ffc9a7146118205750806307d0d916146117dc578063140f021c146117a95780631940ca171461178b578063248a9ca3146117425780632d2b09cd146117245780632f2ff15d146116fc5780632f85dac5146102d257806332ec99201461066557806333948143146116d757806336568abe1461166d578063379607f5146114f65780633f4ba83a1461143757806345626bd61461138f578063485cc9551461111d5780634cc0c188146110dd5780634f1ef28614610df657806352d1902d14610d595780635c975abb14610d175780636239bc3614610bad5780636bd91e8b14610b8f5780636bda078114610b665780636d85e29a14610b075780638456cb5914610a71578063892c0fdb14610665578063902d55a514610a4b57806391d14854146109da578063993eb1c5146109b45780639a7af18a14610894578063a217fddf1461087a578063a4317ef41461085c578063a96b5fec146107bf578063ad3cb1cc146106f0578063b3743f60146106c1578063b7891360146106a4578063b8664dca1461066a578063b997260714610665578063be0e740a14610634578063bed9757e1461051e578063d1058e5914610389578063d547741f1461032e578063dafcf93e14610311578063e3177e6b146102d2578063e63ab1e9146102d7578063ec9f1790146102d2578063f9428f38146102d2578063fd99cbed146102ad5763ff1a318d1461022f575f80fd5b346102a95760206003193601126102a95781359161024b611c94565b600154610282577f9f5b1d2626fe1a57b989b4566912279df2387b8a481a7297f0a11373c230073c602084848160015551908152a1005b90517f9fbfc84a000000000000000000000000000000000000000000000000000000008152fd5b5f80fd5b50346102a9575f6003193601126102a957602090516acecb8f27f4200f3a0000008152f35b611903565b50346102a9575f6003193601126102a957602090517f65d7a28e3265b37a6474929f336521b332c1681b933f6cb9f3376673440d862a8152f35b50346102a9575f6003193601126102a957602090516276a7008152f35b50346102a957806003193601126102a957610387913561038260016103516118e0565b93835f527f02dd7bc7dec4dceedda775e58dd541e08a116c6c53815c0bd028192f7b6268006020525f200154611d02565b6120cf565b005b5090346102a9575f6003193601126102a9576103a361218d565b6103ab6121e7565b335f5260206002602052825f20928354156104f6575f905f5b855481101561047d576103d78187611946565b50600581015460ff90818160081c16156103f7575b5050506001016103c4565b6104008361223c565b928361040d575b506103ec565b95610432610444938598936001809897950161042a868254611ae9565b905516611a8a565b61043d838254611ae9565b9055611ae9565b93835190828252868201527f9923b4306c6c030f2bdfbf156517d5983b87e15b96176da122cd4f2effa4ba7b843392a2905f8080610407565b84838381156104ce576104a8823373ffffffffffffffffffffffffffffffffffffffff5f54166122d3565b60017f9b779b17422d0df92223018b32b4d1fa46e071723d6817e2486d003becc55f0055005b9050517f969bf728000000000000000000000000000000000000000000000000000000008152fd5b9050517f66ef36c9000000000000000000000000000000000000000000000000000000008152fd5b5090346102a957816003193601126102a95760e09173ffffffffffffffffffffffffffffffffffffffff6105506118bd565b5f60c0845161055e816119c6565b82815282602082015282868201528260608201528260808201528260a08201520152165f52600260205261062a610599602435835f20611946565b50928251936105a7856119c6565b8054855260018101549160208601928352600282015494808701958652600560038401549260608901938452840154936080890194855201549560a08801946105f360ff891687611b9b565b60ff60c08a019860081c161515885282519851895251602089015251908701525160608601525160808501525160a084019061198c565b51151560c0820152f35b5090346102a95760206003193601126102a957359060078210156102a95761065d602092611a8a565b549051908152f35b611928565b50346102a9575f6003193601126102a957602090517fd810f479110c9771ec744414e571d78468b4e92a20f345df2ffbdc5f927a182e8152f35b50346102a9575f6003193601126102a9576020905162ed4e008152f35b50346102a957806003193601126102a9576020906106e96106e06118bd565b60243590611b40565b9051908152f35b50346102a9575f6003193601126102a9578051918183019083821067ffffffffffffffff831117610793575081526005825260208201917f352e302e3000000000000000000000000000000000000000000000000000000083527fffffffffffffffffffffffffffffffffffffffffffffffffffffffffffffffe0601f8351948593602085525180918160208701528686015e5f85828601015201168101030190f35b6041907f4e487b71000000000000000000000000000000000000000000000000000000005f525260245ffd5b50346102a95760206003193601126102a95773ffffffffffffffffffffffffffffffffffffffff6107ee6118bd565b165f9081526002602052818120805490825b828110610811576020848651908152f35b60ff600561081f8385611946565b50015460081c1615610834575b600101610800565b9261085460019161084e6108488786611946565b5061223c565b90611ae9565b93905061082c565b50346102a9575f6003193601126102a9576020906001549051908152f35b50346102a9575f6003193601126102a957602090515f8152f35b5090346102a95760606003193601126102a95767ffffffffffffffff9080358281116102a9576108c79036908301611ab8565b9390926024359081116102a9576108e19036908401611ab8565b9490926044359260078410156102a9576108f9611c39565b8683036109575750505f5b81811061090d57005b610918818387611b30565b359073ffffffffffffffffffffffffffffffffffffffff821682036102a95761095084600193610949848b8a611b30565b35906123ca565b5001610904565b90602060649251917f08c379a0000000000000000000000000000000000000000000000000000000008352820152600f60248201527f4c656e677468206d69736d6174636800000000000000000000000000000000006044820152fd5b50346102a9575f6003193601126102a957602090516b0121836204bc2ce21e0000008152f35b50346102a957806003193601126102a9576020916109f66118e0565b90355f527f02dd7bc7dec4dceedda775e58dd541e08a116c6c53815c0bd028192f7b626800835273ffffffffffffffffffffffffffffffffffffffff825f2091165f52825260ff815f20541690519015158152f35b50346102a9575f6003193601126102a957602090516b033b2e3c9fd0803ce80000008152f35b50346102a9575f6003193601126102a95760207f62e78cea01bee320cd4e420270b5ea74000d11b0c9f74754ebdbfc544b05a25891610aae611ba7565b610ab66121e7565b7fcd5ed15c6e187e77e9aee88184c21f4f2182ab5827cb3b7e07fbedcd63f0330060017fffffffffffffffffffffffffffffffffffffffffffffffffffffffffffffff0082541617905551338152a1005b5090346102a95760206003193601126102a957359060078210156102a95781610b316080936125ff565b91610b45610b3e83611aa1565b5492611a8a565b5490610b518385611b23565b92815194855260208501528301526060820152f35b5090346102a95760206003193601126102a957359060078210156102a95761065d602092611aa1565b50346102a9575f6003193601126102a957602090516303c267008152f35b50346102a957806003193601126102a957610bc66118bd565b9060243591610bd3611c94565b73ffffffffffffffffffffffffffffffffffffffff9081811694855f526002602052835f208054861015610cef5785610c0b91611946565b5091600583019384549260ff8460081c16610cc857509183917f57c76f5e278bfbd4eeb5207d287aa5a1a9e1113c65f7eefa540e379a2774d13b979593610c546020989661223c565b9283610c91575b50505050506101007fffffffffffffffffffffffffffffffffffffffffffffffffffffffffffff00ff82541617905551908152a2005b60ff610ca9916001610cbe970161042a878254611ae9565b610cb4848254611ae9565b90555f54166122d3565b5f80808080610c5b565b86517f56994e55000000000000000000000000000000000000000000000000000000008152fd5b5083517f66ef36c9000000000000000000000000000000000000000000000000000000008152fd5b50346102a9575f6003193601126102a95760209060ff7fcd5ed15c6e187e77e9aee88184c21f4f2182ab5827cb3b7e07fbedcd63f03300541690519015158152f35b50346102a9575f6003193601126102a95773ffffffffffffffffffffffffffffffffffffffff7f0000000000000000000000000000000000000000000000000000000000000000163003610dd057602090517f360894a13ba1a3210667c828492db98dca3e2076cc3735a920a3ca505d382bbc8152f35b517fe07c8dba000000000000000000000000000000000000000000000000000000008152fd5b5090816003193601126102a957610e0b6118bd565b602492833567ffffffffffffffff81116102a957366023820112156102a9578084013592610e3884611a50565b610e4484519182611a0f565b84815260209485820193368983830101116102a957815f928a89930187378301015273ffffffffffffffffffffffffffffffffffffffff807f0000000000000000000000000000000000000000000000000000000000000000168030149081156110af575b5061108757610eb6611c94565b8216948451907f52d1902d000000000000000000000000000000000000000000000000000000008252808289818a5afa9182915f93611057575b5050610f24575050505051917f4c9c8ce3000000000000000000000000000000000000000000000000000000008352820152fd5b858588928a7f360894a13ba1a3210667c828492db98dca3e2076cc3735a920a3ca505d382bbc9182810361102a5750863b15610ffd5750827fffffffffffffffffffffffff000000000000000000000000000000000000000082541617905551907fbc7cd75a20ee27fd9adebab32041f755214dbc6bffa90cc0225b39da2e5c2d3b5f80a2825115610fcc5750505f6103879381925190845af4610fc66127cd565b916127fc565b925092505034610fd857005b7fb398979f000000000000000000000000000000000000000000000000000000008152fd5b94505051917f4c9c8ce3000000000000000000000000000000000000000000000000000000008352820152fd5b85908451917faa1d49a4000000000000000000000000000000000000000000000000000000008352820152fd5b9080929350813d8311611080575b61106f8183611a0f565b810103126102a95751905f80610ef0565b503d611065565b8685517fe07c8dba000000000000000000000000000000000000000000000000000000008152fd5b9050817f360894a13ba1a3210667c828492db98dca3e2076cc3735a920a3ca505d382bbc541614155f610ea9565b50346102a95760606003193601126102a9576110f76118bd565b906044359160078310156102a9576020926106e991611114611c39565b602435906123ca565b5090346102a957816003193601126102a9576111376118bd565b906111406118e0565b7ff0c57e16840df040f15088dc2f81fe391c3923bec73e23a9662efc9c229c6a0092835460ff81871c16159367ffffffffffffffff821680159081611387575b600114908161137d575b159081611374575b5061134d57506112be9291818560017fffffffffffffffffffffffffffffffffffffffffffffffff000000000000000073ffffffffffffffffffffffffffffffffffffffff9516178855611318575b506111ea6126b7565b6111f26126b7565b6111fa6126b7565b6112026126b7565b7fcd5ed15c6e187e77e9aee88184c21f4f2182ab5827cb3b7e07fbedcd63f033007fffffffffffffffffffffffffffffffffffffffffffffffffffffffffffffff0081541690556112516126b7565b6112596126b7565b60017f9b779b17422d0df92223018b32b4d1fa46e071723d6817e2486d003becc55f0055167fffffffffffffffffffffffff00000000000000000000000000000000000000005f5416175f556112ae81611d43565b506112b881611e18565b50611f16565b506112c557005b7fc7f505b2f371ae2175ee4913f4499e1f2633a7b5936321eed1cdaeb6115181d291817fffffffffffffffffffffffffffffffffffffffffffffff00ffffffffffffffff602093541690555160018152a1005b7fffffffffffffffffffffffffffffffffffffffffffffff00000000000000000016680100000000000000011786555f6111e1565b86517ff92ee8a9000000000000000000000000000000000000000000000000000000008152fd5b9050155f611192565b303b15915061118a565b869150611180565b5090346102a957816003193601126102a9576113a96118bd565b73ffffffffffffffffffffffffffffffffffffffff60243591165f526002602052825f209283548210156102a9576113e560ff9260e095611946565b50805493600182015492600283015490600560038501549385015494015494815197885260208801528601526060850152608084015261142a60a0840183831661198c565b60081c16151560c0820152f35b50346102a9575f6003193601126102a957611450611ba7565b7fcd5ed15c6e187e77e9aee88184c21f4f2182ab5827cb3b7e07fbedcd63f033009182549060ff8216156114cf577f5db9ee0a495bf2e6ff9c91a7834c1ba4fdd244a5e8aa4e537bd38aeae4b073aa602084867fffffffffffffffffffffffffffffffffffffffffffffffffffffffffffffff008616905551338152a1005b82517f8dfc202b000000000000000000000000000000000000000000000000000000008152fd5b50346102a95760206003193601126102a95781359161151361218d565b61151b6121e7565b335f526002602052815f208054841015611645578361153991611946565b5060058101549060ff8260081c1661161d576115548161223c565b9283156115f6575060ff7f9923b4306c6c030f2bdfbf156517d5983b87e15b96176da122cd4f2effa4ba7b9493926001611594930161042a858254611ae9565b61159f828254611ae9565b90556115c3813373ffffffffffffffffffffffffffffffffffffffff5f54166122d3565b815193845260208401523392a260017f9b779b17422d0df92223018b32b4d1fa46e071723d6817e2486d003becc55f0055005b84517f969bf728000000000000000000000000000000000000000000000000000000008152fd5b8284517f56994e55000000000000000000000000000000000000000000000000000000008152fd5b5090517f66ef36c9000000000000000000000000000000000000000000000000000000008152fd5b50346102a957806003193601126102a9576116866118e0565b903373ffffffffffffffffffffffffffffffffffffffff8316036116af575061038791356120cf565b9050517f6697b232000000000000000000000000000000000000000000000000000000008152fd5b50346102a9575f6003193601126102a957602090516aa56fa5b99019a5c80000008152f35b50346102a957806003193601126102a957610387913561171f60016103516118e0565b61200d565b50346102a9575f6003193601126102a957602090516302d276008152f35b50346102a95760206003193601126102a957602091355f527f02dd7bc7dec4dceedda775e58dd541e08a116c6c53815c0bd028192f7b62680082526001815f2001549051908152f35b50346102a9575f6003193601126102a957602090516305a39a808152f35b50346102a9575f6003193601126102a95760209073ffffffffffffffffffffffffffffffffffffffff5f54169051908152f35b50346102a95760206003193601126102a95760209073ffffffffffffffffffffffffffffffffffffffff61180e6118bd565b165f5260028252805f20549051908152f35b83346102a95760206003193601126102a95735907fffffffff0000000000000000000000000000000000000000000000000000000082168092036102a957817f7965db0b0000000000000000000000000000000000000000000000000000000060209314908115611893575b5015158152f35b7f01ffc9a7000000000000000000000000000000000000000000000000000000009150148361188c565b6004359073ffffffffffffffffffffffffffffffffffffffff821682036102a957565b6024359073ffffffffffffffffffffffffffffffffffffffff821682036102a957565b346102a9575f6003193601126102a95760206040516a295be96e640669720000008152f35b346102a9575f6003193601126102a95760206040516301e133808152f35b805482101561195f575f52600660205f20910201905f90565b7f4e487b71000000000000000000000000000000000000000000000000000000005f52603260045260245ffd5b9060078210156119995752565b7f4e487b71000000000000000000000000000000000000000000000000000000005f52602160045260245ffd5b60e0810190811067ffffffffffffffff8211176119e257604052565b7f4e487b71000000000000000000000000000000000000000000000000000000005f52604160045260245ffd5b90601f7fffffffffffffffffffffffffffffffffffffffffffffffffffffffffffffffe0910116810190811067ffffffffffffffff8211176119e257604052565b67ffffffffffffffff81116119e257601f017fffffffffffffffffffffffffffffffffffffffffffffffffffffffffffffffe01660200190565b6007811015611999575f52600460205260405f2090565b6007811015611999575f52600360205260405f2090565b9181601f840112156102a95782359167ffffffffffffffff83116102a9576020808501948460051b0101116102a957565b91908201809211611af657565b7f4e487b71000000000000000000000000000000000000000000000000000000005f52601160045260245ffd5b91908203918211611af657565b919081101561195f5760051b0190565b73ffffffffffffffffffffffffffffffffffffffff165f52600260205260405f20908154811015611b9557611b7491611946565b5060ff600582015460081c16611b9057611b8d9061223c565b90565b505f90565b50505f90565b60078210156119995752565b335f9081527f75442b0a96088b5456bc4ed01394c96a4feec0f883c9494257d76b96ab1c9b6b60205260409020547f65d7a28e3265b37a6474929f336521b332c1681b933f6cb9f3376673440d862a9060ff1615611c025750565b604490604051907fe2517d3f0000000000000000000000000000000000000000000000000000000082523360048301526024820152fd5b335f9081527ff6b279059e15297cdfafd6c492a1181fadb16076d9b8ed83dac2686167f080ba60205260409020547fd810f479110c9771ec744414e571d78468b4e92a20f345df2ffbdc5f927a182e9060ff1615611c025750565b335f9081527fb7db2dd08fcb62d0c9e08c51941cae53c267786a0b75803fb7960902fc8ef97d602052604090205460ff1615611ccc57565b60446040517fe2517d3f0000000000000000000000000000000000000000000000000000000081523360048201525f6024820152fd5b805f527f02dd7bc7dec4dceedda775e58dd541e08a116c6c53815c0bd028192f7b62680060205260405f20335f5260205260ff60405f20541615611c025750565b73ffffffffffffffffffffffffffffffffffffffff165f8181527fb7db2dd08fcb62d0c9e08c51941cae53c267786a0b75803fb7960902fc8ef97d60205260409020547f02dd7bc7dec4dceedda775e58dd541e08a116c6c53815c0bd028192f7b6268009060ff16611b95575f805260205260405f20815f5260205260405f2060017fffffffffffffffffffffffffffffffffffffffffffffffffffffffffffffff0082541617905533905f7f2f8788117e7eff1d82e926ec794901d17c78024a50270940304540a733656f0d8180a4600190565b73ffffffffffffffffffffffffffffffffffffffff165f8181527f75442b0a96088b5456bc4ed01394c96a4feec0f883c9494257d76b96ab1c9b6b60205260409020547f65d7a28e3265b37a6474929f336521b332c1681b933f6cb9f3376673440d862a91907f02dd7bc7dec4dceedda775e58dd541e08a116c6c53815c0bd028192f7b6268009060ff16611f0f57825f5260205260405f20815f5260205260405f2060017fffffffffffffffffffffffffffffffffffffffffffffffffffffffffffffff0082541617905533917f2f8788117e7eff1d82e926ec794901d17c78024a50270940304540a733656f0d5f80a4600190565b5050505f90565b73ffffffffffffffffffffffffffffffffffffffff165f8181527ff6b279059e15297cdfafd6c492a1181fadb16076d9b8ed83dac2686167f080ba60205260409020547fd810f479110c9771ec744414e571d78468b4e92a20f345df2ffbdc5f927a182e91907f02dd7bc7dec4dceedda775e58dd541e08a116c6c53815c0bd028192f7b6268009060ff16611f0f57825f5260205260405f20815f5260205260405f2060017fffffffffffffffffffffffffffffffffffffffffffffffffffffffffffffff0082541617905533917f2f8788117e7eff1d82e926ec794901d17c78024a50270940304540a733656f0d5f80a4600190565b90815f527f02dd7bc7dec4dceedda775e58dd541e08a116c6c53815c0bd028192f7b6268008060205273ffffffffffffffffffffffffffffffffffffffff60405f20921691825f5260205260ff60405f205416155f14611f0f57825f5260205260405f20815f5260205260405f2060017fffffffffffffffffffffffffffffffffffffffffffffffffffffffffffffff0082541617905533917f2f8788117e7eff1d82e926ec794901d17c78024a50270940304540a733656f0d5f80a4600190565b90815f527f02dd7bc7dec4dceedda775e58dd541e08a116c6c53815c0bd028192f7b6268008060205273ffffffffffffffffffffffffffffffffffffffff60405f20921691825f5260205260ff60405f2054165f14611f0f57825f5260205260405f20815f5260205260405f207fffffffffffffffffffffffffffffffffffffffffffffffffffffffffffffff00815416905533917ff6391f5c32d9c69d2a47ea670b442974b53935d1edc7fd64eb21e047a839171b5f80a4600190565b7f9b779b17422d0df92223018b32b4d1fa46e071723d6817e2486d003becc55f0060028154146121bd5760029055565b60046040517f3ee5aeb5000000000000000000000000000000000000000000000000000000008152fd5b60ff7fcd5ed15c6e187e77e9aee88184c21f4f2182ab5827cb3b7e07fbedcd63f03300541661221257565b60046040517fd93c0665000000000000000000000000000000000000000000000000000000008152fd5b600281015461224f600383015482611ae9565b4210611b955761225f9042611b23565b6004820154808210156122c0578254828102928184041490151715611af6578015612293576001611b8d9301549104611b23565b7f4e487b71000000000000000000000000000000000000000000000000000000005f52601260045260245ffd5b5050806001611b8d925491015490611b23565b6040519260208401907fa9059cbb00000000000000000000000000000000000000000000000000000000825273ffffffffffffffffffffffffffffffffffffffff8094166024860152604485015260448452608084019084821067ffffffffffffffff8311176119e25761235f935f9384936040521694519082865af16123586127cd565b90836127fc565b80519081151591826123a6575b50506123755750565b602490604051907f5274afe70000000000000000000000000000000000000000000000000000000082526004820152fd5b81925090602091810103126102a957602001518015908115036102a9575f8061236c565b600154919282156125d5576123de816125ff565b6123f1856123eb84611aa1565b54611ae9565b116125ab576123ff81612710565b9260409384519061240f826119c6565b87825260208201905f8252868301978852606083019485526080830190815260a083019461243d8787611b9b565b73ffffffffffffffffffffffffffffffffffffffff60c08501955f87521698895f526002602052885f208054680100000000000000008110156119e25761248991600182018155611946565b94909461257f57600595518555516001850155516002840155516003830155516004820155019151906007821015611999577fffffffffffffffffffffffffffffffffffffffffffffffffffffffffffff000060ff61ff0085549351151560081b1693169116171790556124fc81611aa1565b612507858254611ae9565b9055825f526002602052815f2054937fffffffffffffffffffffffffffffffffffffffffffffffffffffffffffffffff8501948511611af65761257b606092847f88bd198100724d6526c055d00ce821058a4523d895f940e6f4029e66c1805e64955193888552602085015283019061198c565ba290565b7f4e487b71000000000000000000000000000000000000000000000000000000005f525f60045260245ffd5b60046040517f74a5d1f5000000000000000000000000000000000000000000000000000000008152fd5b60046040517f8d509773000000000000000000000000000000000000000000000000000000008152fd5b60078110156119995780156126a657600181146126965760028114612686576003811461267657600481146126765760058114612676576006146126675760046040517fd67592f6000000000000000000000000000000000000000000000000000000008152fd5b6a295be96e6406697200000090565b506a295be96e6406697200000090565b506aa56fa5b99019a5c800000090565b506acecb8f27f4200f3a00000090565b506b0121836204bc2ce21e00000090565b60ff7ff0c57e16840df040f15088dc2f81fe391c3923bec73e23a9662efc9c229c6a005460401c16156126e657565b60046040517fd7e6bcf8000000000000000000000000000000000000000000000000000000008152fd5b6007811015611999576001810361273057506301e13380906305a39a8090565b6003810361274757506301e13380906303c2670090565b6004810361275d575062ed4e00906302d2760090565b6005810361277357506276a700906301e1338090565b8061278357505f90630784ce0090565b6002810361279657505f906305a39a8090565b6006146127c75760046040517fd67592f6000000000000000000000000000000000000000000000000000000008152fd5b5f905f90565b3d156127f7573d906127de82611a50565b916127ec6040519384611a0f565b82523d5f602084013e565b606090565b9061283b575080511561281157805190602001fd5b60046040517f1425ea42000000000000000000000000000000000000000000000000000000008152fd5b81511580612893575b61284c575090565b60249073ffffffffffffffffffffffffffffffffffffffff604051917f9996b315000000000000000000000000000000000000000000000000000000008352166004820152fd5b50803b1561284456fea2646970667358221220a935a2ff1cac89dde542571b2d84cd85488eed6a79c63bb9ec555dcae261fcee64736f6c63430008190033","linkReferences":{}},"methodIdentifiers":{"COMMUNITY_ALLOCATION()":"993eb1c5","DEFAULT_ADMIN_ROLE()":"a217fddf","LIQUIDITY_ALLOCATION()":"f9428f38","PAUSER_ROLE()":"e63ab1e9","PRIVATE_ALLOCATION()":"ec9f1790","PRIVATE_CLIFF()":"b7891360","PRIVATE_VESTING()":"2d2b09cd","PUBLIC_ALLOCATION()":"e3177e6b","PUBLIC_CLIFF()":"dafcf93e","PUBLIC_VESTING()":"32ec9920","SEED_ALLOCATION()":"2f85dac5","SEED_CLIFF()":"892c0fdb","SEED_VESTING()":"6bd91e8b","SEQUENCERS_ALLOCATION()":"33948143","TEAM_ALLOCATION()":"fd99cbed","TEAM_CLIFF()":"b9972607","TEAM_VESTING()":"1940ca17","TOTAL_SUPPLY()":"902d55a5","UPGRADE_INTERFACE_VERSION()":"ad3cb1cc","VESTING_MANAGER_ROLE()":"b8664dca","allocatedAmounts(uint8)":"6bda0781","andeToken()":"140f021c","claim(uint256)":"379607f5","claimAll()":"d1058e59","claimedAmounts(uint8)":"be0e740a","createBatchVestingSchedules(address[],uint256[],uint8)":"9a7af18a","createVestingSchedule(address,uint256,uint8)":"4cc0c188","getAllClaimableAmount(address)":"a96b5fec","getAllocationStatus(uint8)":"6d85e29a","getClaimableAmount(address,uint256)":"b3743f60","getRoleAdmin(bytes32)":"248a9ca3","getVestingSchedule(address,uint256)":"bed9757e","getVestingScheduleCount(address)":"07d0d916","grantRole(bytes32,address)":"2f2ff15d","hasRole(bytes32,address)":"91d14854","initialize(address,address)":"485cc955","pause()":"8456cb59","paused()":"5c975abb","proxiableUUID()":"52d1902d","renounceRole(bytes32,address)":"36568abe","revokeRole(bytes32,address)":"d547741f","revokeVestingSchedule(address,uint256)":"6239bc36","setTGE(uint256)":"ff1a318d","supportsInterface(bytes4)":"01ffc9a7","tgeTimestamp()":"a4317ef4","unpause()":"3f4ba83a","upgradeToAndCall(address,bytes)":"4f1ef286","vestingSchedules(address,uint256)":"45626bd6"},"id":182}