{"abi":[{"type":"function","name":"getPrice","inputs":[{"name":"asset","type":"address","internalType":"address"}],"outputs":[{"name":"price","type":"uint256","internalType":"uint256"}],"stateMutability":"view"},{"type":"function","name":"getPrices","inputs":[{"name":"assets","type":"address[]","internalType":"address[]"}],"outputs":[{"name":"","type":"uint256[]","internalType":"uint256[]"}],"stateMutability":"view"},{"type":"function","name":"setPrice","inputs":[{"name":"asset","type":"address","internalType":"address"},{"name":"price","type":"uint256","internalType":"uint256"}],"outputs":[],"stateMutability":"nonpayable"}],"bytecode":{"object":"0x60808060405234601557610251908161001a8239f35b5f80fdfe604060808152600480361015610013575f80fd5b5f3560e01c8062e4768b146101ba57806341976e091461018457638fb5a4821461003b575f80fd5b3461016c576020908160031936011261016c576004359167ffffffffffffffff9182841161016c573660238501121561016c57836004013583811161016c576024916005953660248460051b8301011161016c57601f9661009b84610203565b89518919999098910189168801908111888210176101705789989799528389526100c484610203565b89870197013688375f5b8481106101175750505050505082519384938285019183865251809252840192915f5b82811061010057505050500390f35b8351855286955093810193928101926001016100f1565b9798969780821b8381018701356001600160a01b0381169081900361016c575f525f88528a5f205490895183101561015a578901880152969897966001016100ce565b87603287634e487b7160e01b5f52525ffd5b5f80fd5b634e487b7160e01b5f52604160045260245ffd5b823461016c57602036600319011261016c576020906001600160a01b036101a96101ed565b165f525f8252805f20549051908152f35b823461016c578060031936011261016c576001600160a01b036101db6101ed565b165f525f602052602435905f20555f80f35b600435906001600160a01b038216820361016c57565b67ffffffffffffffff81116101705760051b6020019056fea2646970667358221220ac662425411e445a6ba65fdc2d0b429d9060e994549e525ab8f0c019559c18ac64736f6c63430008190033","linkReferences":{}},"methodIdentifiers":{"getPrice(address)":"41976e09","getPrices(address[])":"8fb5a482","setPrice(address,uint256)":"00e4768b"},"id":173}