{"abi":[{"type":"function","name":"getPrice","inputs":[{"name":"asset","type":"address","internalType":"address"}],"outputs":[{"name":"price","type":"uint256","internalType":"uint256"}],"stateMutability":"view"},{"type":"function","name":"getPrices","inputs":[{"name":"assets","type":"address[]","internalType":"address[]"}],"outputs":[{"name":"","type":"uint256[]","internalType":"uint256[]"}],"stateMutability":"view"},{"type":"function","name":"setPrice","inputs":[{"name":"asset","type":"address","internalType":"address"},{"name":"price","type":"uint256","internalType":"uint256"}],"outputs":[],"stateMutability":"nonpayable"}],"bytecode":{"object":"0x6080806040523460155761032f908161001a8239f35b5f80fdfe604060808152600480361015610013575f80fd5b5f3560e01c8062e4768b1461026057806341976e09146101ff57638fb5a4821461003b575f80fd5b346101ce57602090817ffffffffffffffffffffffffffffffffffffffffffffffffffffffffffffffffc3601126101ce576004359167ffffffffffffffff918284116101ce57366023850112156101ce5783600401358381116101ce576024916005953660248460051b830101116101ce57601f966100b9846102e1565b89517fffffffffffffffffffffffffffffffffffffffffffffffffffffffffffffffe0999098910189168801908111888210176101d2578998979952838952610101846102e1565b89870197013688375f5b8481106101545750505050505082519384938285019183865251809252840192915f5b82811061013d57505050500390f35b83518552869550938101939281019260010161012e565b80829a98999a1b86818501013573ffffffffffffffffffffffffffffffffffffffff81168091036101ce575f525f88528a5f20549089518310156101a35789018801529698979660010161010b565b876032877f4e487b71000000000000000000000000000000000000000000000000000000005f52525ffd5b5f80fd5b7f4e487b71000000000000000000000000000000000000000000000000000000005f52604160045260245ffd5b82346101ce5760207ffffffffffffffffffffffffffffffffffffffffffffffffffffffffffffffffc3601126101ce5760209073ffffffffffffffffffffffffffffffffffffffff61024f6102be565b165f525f8252805f20549051908152f35b82346101ce57807ffffffffffffffffffffffffffffffffffffffffffffffffffffffffffffffffc3601126101ce5773ffffffffffffffffffffffffffffffffffffffff6102ac6102be565b165f525f602052602435905f20555f80f35b6004359073ffffffffffffffffffffffffffffffffffffffff821682036101ce57565b67ffffffffffffffff81116101d25760051b6020019056fea26469706673582212201129d0cdcd151cfd2a6a2efaa0744aa0a43b9120f72a50cb560bef6c9eea786264736f6c63430008190033","linkReferences":{}},"methodIdentifiers":{"getPrice(address)":"41976e09","getPrices(address[])":"8fb5a482","setPrice(address,uint256)":"00e4768b"},"id":173}