{"abi":[{"type":"constructor","inputs":[{"name":"_authorizedCaller","type":"address","internalType":"address"}],"stateMutability":"nonpayable"},{"type":"fallback","stateMutability":"nonpayable"},{"type":"receive","stateMutability":"payable"},{"type":"function","name":"authorizedCaller","inputs":[],"outputs":[{"name":"","type":"address","internalType":"address"}],"stateMutability":"view"},{"type":"function","name":"depositNativeBalance","inputs":[{"name":"account","type":"address","internalType":"address"},{"name":"amount","type":"uint256","internalType":"uint256"}],"outputs":[],"stateMutability":"nonpayable"},{"type":"function","name":"getNativeBalance","inputs":[{"name":"account","type":"address","internalType":"address"}],"outputs":[{"name":"","type":"uint256","internalType":"uint256"}],"stateMutability":"view"},{"type":"function","name":"setAuthorizedCaller","inputs":[{"name":"_authorizedCaller","type":"address","internalType":"address"}],"outputs":[],"stateMutability":"nonpayable"},{"type":"function","name":"totalSupply","inputs":[],"outputs":[{"name":"","type":"uint256","internalType":"uint256"}],"stateMutability":"view"},{"type":"event","name":"NativeDeposit","inputs":[{"name":"account","type":"address","indexed":true,"internalType":"address"},{"name":"amount","type":"uint256","indexed":false,"internalType":"uint256"}],"anonymous":false},{"type":"event","name":"NativeTransfer","inputs":[{"name":"from","type":"address","indexed":true,"internalType":"address"},{"name":"to","type":"address","indexed":true,"internalType":"address"},{"name":"value","type":"uint256","indexed":false,"internalType":"uint256"}],"anonymous":false},{"type":"error","name":"InsufficientBalance","inputs":[{"name":"account","type":"address","internalType":"address"},{"name":"required","type":"uint256","internalType":"uint256"},{"name":"available","type":"uint256","internalType":"uint256"}]},{"type":"error","name":"InvalidInput","inputs":[{"name":"reason","type":"string","internalType":"string"}]},{"type":"error","name":"TransferToZeroAddress","inputs":[]},{"type":"error","name":"UnauthorizedCaller","inputs":[{"name":"caller","type":"address","internalType":"address"}]}],"bytecode":{"object":"0x608034606f57601f61058538819003918201601f19168301916001600160401b03831184841017607357808492602094604052833981010312606f57516001600160a01b03811690819003606f575f80546001600160a01b0319169190911790556040516104fd90816100888239f35b5f80fd5b634e487b7160e01b5f52604160045260245ffdfe608060409080825260049081361015610082575b50361561003457346100305761002836610356565b602081519101f35b5f80fd5b6020608492519162461bcd60e51b8352820152602360248201527f507265636f6d70696c65206d6f636b20646f6573206e6f74206163636570742060448201526208aa8960eb1b6064820152fd5b5f3560e01c90816318160ddd146102d5575080632db6b0e7146101f057806397dc97cb146101c9578063cf8fbec9146100fc5763efd8be62146100c5575f610013565b5034610030576020366003190112610030576020906001600160a01b036100ea6102ef565b165f5260018252805f20549051908152f35b5034610030576020366003190112610030576101166102ef565b5f5491906001600160a01b039081841661018657169283156101435750506001600160a01b031916175f55005b906020606492519162461bcd60e51b8352820152601a60248201527f43616e6e6f742073657420746f207a65726f20616464726573730000000000006044820152fd5b845162461bcd60e51b8152602081850152601d60248201527f417574686f72697a65642063616c6c657220616c7265616479207365740000006044820152606490fd5b8234610030575f366003190112610030575f5490516001600160a01b039091168152602090f35b50903461003057806003193601126100305761020a6102ef565b5f5460243592916001600160a01b0391821633036102bf571692831561027d57507fcd9850463422a7449c406a036e35e5edb6fbe35a64c9f12a2354be98a750c0d391602091845f5260018352805f20610265838254610305565b905561027382600254610305565b60025551908152a2005b6020606492519162461bcd60e51b8352820152601e60248201527f43616e6e6f74206465706f73697420746f207a65726f206164647265737300006044820152fd5b825163d86ad9cf60e01b81523381870152602490fd5b34610030575f366003190112610030576020906002548152f35b600435906001600160a01b038216820361003057565b9190820180921161031257565b634e487b7160e01b5f52601160045260245ffd5b6040810190811067ffffffffffffffff82111761034257604052565b634e487b7160e01b5f52604160045260245ffd5b5f546001600160a01b039190821633036104af576060810361045957606013610030575f35818116809103610030576020918235908116809103610030576040918235821561044857801561043257815f5260018552835f205481811061041057817fce8688f853ffa65c042b72302433c25d7a230c322caba0901587534b6551091d928792855f526001845203865f2055845f52855f208181540190558551908152a35190600181830152815261040d81610326565b90565b6064929185519263db42144d60e01b8452600484015260248301526044820152fd5b5050505190600181830152815261040d81610326565b8351633a954ecd60e21b8152600490fd5b60405163d647364f60e01b815260206004820152602760248201527f496e707574206d7573742062652065786163746c7920393620627974657320286044820152663320782033322960c81b6064820152608490fd5b60405163d86ad9cf60e01b8152336004820152602490fdfea26469706673582212205ee9b2e71b16e5a70ac9d501955ff207fb57c5e6c68f6cec7a4f10284e41225764736f6c63430008190033","linkReferences":{}},"methodIdentifiers":{"authorizedCaller()":"97dc97cb","depositNativeBalance(address,uint256)":"2db6b0e7","getNativeBalance(address)":"efd8be62","setAuthorizedCaller(address)":"cf8fbec9","totalSupply()":"18160ddd"},"id":174}