{"abi":[{"type":"constructor","inputs":[{"name":"_authorizedCaller","type":"address","internalType":"address"}],"stateMutability":"nonpayable"},{"type":"fallback","stateMutability":"nonpayable"},{"type":"receive","stateMutability":"payable"},{"type":"function","name":"authorizedCaller","inputs":[],"outputs":[{"name":"","type":"address","internalType":"address"}],"stateMutability":"view"},{"type":"function","name":"depositNativeBalance","inputs":[{"name":"account","type":"address","internalType":"address"},{"name":"amount","type":"uint256","internalType":"uint256"}],"outputs":[],"stateMutability":"nonpayable"},{"type":"function","name":"getNativeBalance","inputs":[{"name":"account","type":"address","internalType":"address"}],"outputs":[{"name":"","type":"uint256","internalType":"uint256"}],"stateMutability":"view"},{"type":"function","name":"setAuthorizedCaller","inputs":[{"name":"_authorizedCaller","type":"address","internalType":"address"}],"outputs":[],"stateMutability":"nonpayable"},{"type":"function","name":"totalSupply","inputs":[],"outputs":[{"name":"","type":"uint256","internalType":"uint256"}],"stateMutability":"view"},{"type":"event","name":"NativeDeposit","inputs":[{"name":"account","type":"address","indexed":true,"internalType":"address"},{"name":"amount","type":"uint256","indexed":false,"internalType":"uint256"}],"anonymous":false},{"type":"event","name":"NativeTransfer","inputs":[{"name":"from","type":"address","indexed":true,"internalType":"address"},{"name":"to","type":"address","indexed":true,"internalType":"address"},{"name":"value","type":"uint256","indexed":false,"internalType":"uint256"}],"anonymous":false},{"type":"error","name":"InsufficientBalance","inputs":[{"name":"account","type":"address","internalType":"address"},{"name":"required","type":"uint256","internalType":"uint256"},{"name":"available","type":"uint256","internalType":"uint256"}]},{"type":"error","name":"InvalidInput","inputs":[{"name":"reason","type":"string","internalType":"string"}]},{"type":"error","name":"TransferToZeroAddress","inputs":[]},{"type":"error","name":"UnauthorizedCaller","inputs":[{"name":"caller","type":"address","internalType":"address"}]}],"bytecode":{"object":"0x608034606f57601f6107c338819003918201601f19168301916001600160401b03831184841017607357808492602094604052833981010312606f57516001600160a01b03811690819003606f575f80546001600160a01b03191691909117905560405161073b90816100888239f35b5f80fd5b634e487b7160e01b5f52604160045260245ffdfe6080604090808252600490813610156100b6575b50361561003457346100305761002836610511565b602081519101f35b5f80fd5b602060849251917f08c379a0000000000000000000000000000000000000000000000000000000008352820152602360248201527f507265636f6d70696c65206d6f636b20646f6573206e6f74206163636570742060448201527f45544800000000000000000000000000000000000000000000000000000000006064820152fd5b5f3560e01c90816318160ddd14610433575080632db6b0e7146102f057806397dc97cb1461029f578063cf8fbec91461015b5763efd8be62146100f9575f610013565b50346100305760207ffffffffffffffffffffffffffffffffffffffffffffffffffffffffffffffffc3601126100305760209073ffffffffffffffffffffffffffffffffffffffff61014961046b565b165f5260018252805f20549051908152f35b50346100305760207ffffffffffffffffffffffffffffffffffffffffffffffffffffffffffffffffc3601126100305761019361046b565b905f549173ffffffffffffffffffffffffffffffffffffffff9081841661024257169283156101e5577fffffffffffffffffffffffff0000000000000000000000000000000000000000831684175f55005b90602060649251917f08c379a0000000000000000000000000000000000000000000000000000000008352820152601a60248201527f43616e6e6f742073657420746f207a65726f20616464726573730000000000006044820152fd5b60648360208751917f08c379a0000000000000000000000000000000000000000000000000000000008352820152601d60248201527f417574686f72697a65642063616c6c657220616c7265616479207365740000006044820152fd5b8234610030575f7ffffffffffffffffffffffffffffffffffffffffffffffffffffffffffffffffc3601126100305760209073ffffffffffffffffffffffffffffffffffffffff5f54169051908152f35b50903461003057807ffffffffffffffffffffffffffffffffffffffffffffffffffffffffffffffffc3601126100305761032861046b565b906024359173ffffffffffffffffffffffffffffffffffffffff90815f5416330361040457169283156103a857507fcd9850463422a7449c406a036e35e5edb6fbe35a64c9f12a2354be98a750c0d391602091845f5260018352805f2061039083825461048e565b905561039e8260025461048e565b60025551908152a2005b602060649251917f08c379a0000000000000000000000000000000000000000000000000000000008352820152601e60248201527f43616e6e6f74206465706f73697420746f207a65726f206164647265737300006044820152fd5b82517fd86ad9cf0000000000000000000000000000000000000000000000000000000081523381870152602490fd5b34610030575f7ffffffffffffffffffffffffffffffffffffffffffffffffffffffffffffffffc360112610030576020906002548152f35b6004359073ffffffffffffffffffffffffffffffffffffffff8216820361003057565b9190820180921161049b57565b7f4e487b71000000000000000000000000000000000000000000000000000000005f52601160045260245ffd5b6040810190811067ffffffffffffffff8211176104e457604052565b7f4e487b71000000000000000000000000000000000000000000000000000000005f52604160045260245ffd5b73ffffffffffffffffffffffffffffffffffffffff90815f541633036106d5576060810361065157606013610030575f35818116809103610030576020918235908116809103610030576040918235821561062857801561061257815f5260018552835f20548181106105d757817fce8688f853ffa65c042b72302433c25d7a230c322caba0901587534b6551091d928792855f526001845203865f2055845f52855f208181540190558551908152a3519060018183015281526105d4816104c8565b90565b606492918551927fdb42144d000000000000000000000000000000000000000000000000000000008452600484015260248301526044820152fd5b505050519060018183015281526105d4816104c8565b600484517fea553b34000000000000000000000000000000000000000000000000000000008152fd5b60846040517fd647364f00000000000000000000000000000000000000000000000000000000815260206004820152602760248201527f496e707574206d7573742062652065786163746c79203936206279746573202860448201527f33207820333229000000000000000000000000000000000000000000000000006064820152fd5b60246040517fd86ad9cf000000000000000000000000000000000000000000000000000000008152336004820152fdfea26469706673582212201b0f7937e47e55dcf9181122beed388b1acd9d1cc7db90a671bd2aca5862157164736f6c63430008190033","linkReferences":{}},"methodIdentifiers":{"authorizedCaller()":"97dc97cb","depositNativeBalance(address,uint256)":"2db6b0e7","getNativeBalance(address)":"efd8be62","setAuthorizedCaller(address)":"cf8fbec9","totalSupply()":"18160ddd"},"id":174}