{"abi":[{"type":"constructor","inputs":[{"name":"_factory","type":"address","internalType":"address"}],"stateMutability":"nonpayable"},{"type":"receive","stateMutability":"payable"},{"type":"function","name":"ANDE","inputs":[],"outputs":[{"name":"","type":"address","internalType":"address"}],"stateMutability":"view"},{"type":"function","name":"addLiquidity","inputs":[{"name":"tokenA","type":"address","internalType":"address"},{"name":"tokenB","type":"address","internalType":"address"},{"name":"amountADesired","type":"uint256","internalType":"uint256"},{"name":"amountBDesired","type":"uint256","internalType":"uint256"},{"name":"amountAMin","type":"uint256","internalType":"uint256"},{"name":"amountBMin","type":"uint256","internalType":"uint256"},{"name":"to","type":"address","internalType":"address"},{"name":"deadline","type":"uint256","internalType":"uint256"}],"outputs":[{"name":"amountA","type":"uint256","internalType":"uint256"},{"name":"amountB","type":"uint256","internalType":"uint256"},{"name":"liquidity","type":"uint256","internalType":"uint256"}],"stateMutability":"nonpayable"},{"type":"function","name":"addLiquidityANDE","inputs":[{"name":"token","type":"address","internalType":"address"},{"name":"amountTokenDesired","type":"uint256","internalType":"uint256"},{"name":"amountTokenMin","type":"uint256","internalType":"uint256"},{"name":"amountANDEMin","type":"uint256","internalType":"uint256"},{"name":"to","type":"address","internalType":"address"},{"name":"deadline","type":"uint256","internalType":"uint256"}],"outputs":[{"name":"amountToken","type":"uint256","internalType":"uint256"},{"name":"amountANDE","type":"uint256","internalType":"uint256"},{"name":"liquidity","type":"uint256","internalType":"uint256"}],"stateMutability":"payable"},{"type":"function","name":"factory","inputs":[],"outputs":[{"name":"","type":"address","internalType":"address"}],"stateMutability":"view"},{"type":"function","name":"getAmountIn","inputs":[{"name":"amountOut","type":"uint256","internalType":"uint256"},{"name":"reserveIn","type":"uint256","internalType":"uint256"},{"name":"reserveOut","type":"uint256","internalType":"uint256"}],"outputs":[{"name":"amountIn","type":"uint256","internalType":"uint256"}],"stateMutability":"pure"},{"type":"function","name":"getAmountOut","inputs":[{"name":"amountIn","type":"uint256","internalType":"uint256"},{"name":"reserveIn","type":"uint256","internalType":"uint256"},{"name":"reserveOut","type":"uint256","internalType":"uint256"}],"outputs":[{"name":"amountOut","type":"uint256","internalType":"uint256"}],"stateMutability":"pure"},{"type":"function","name":"getAmountsIn","inputs":[{"name":"amountOut","type":"uint256","internalType":"uint256"},{"name":"path","type":"address[]","internalType":"address[]"}],"outputs":[{"name":"amounts","type":"uint256[]","internalType":"uint256[]"}],"stateMutability":"view"},{"type":"function","name":"getAmountsOut","inputs":[{"name":"amountIn","type":"uint256","internalType":"uint256"},{"name":"path","type":"address[]","internalType":"address[]"}],"outputs":[{"name":"amounts","type":"uint256[]","internalType":"uint256[]"}],"stateMutability":"view"},{"type":"function","name":"quote","inputs":[{"name":"amountIn","type":"uint256","internalType":"uint256"},{"name":"reserveIn","type":"uint256","internalType":"uint256"},{"name":"reserveOut","type":"uint256","internalType":"uint256"}],"outputs":[{"name":"amountOut","type":"uint256","internalType":"uint256"}],"stateMutability":"pure"},{"type":"function","name":"removeLiquidity","inputs":[{"name":"tokenA","type":"address","internalType":"address"},{"name":"tokenB","type":"address","internalType":"address"},{"name":"liquidity","type":"uint256","internalType":"uint256"},{"name":"amountAMin","type":"uint256","internalType":"uint256"},{"name":"amountBMin","type":"uint256","internalType":"uint256"},{"name":"to","type":"address","internalType":"address"},{"name":"deadline","type":"uint256","internalType":"uint256"}],"outputs":[{"name":"amountA","type":"uint256","internalType":"uint256"},{"name":"amountB","type":"uint256","internalType":"uint256"}],"stateMutability":"nonpayable"},{"type":"function","name":"removeLiquidityANDE","inputs":[{"name":"token","type":"address","internalType":"address"},{"name":"liquidity","type":"uint256","internalType":"uint256"},{"name":"amountTokenMin","type":"uint256","internalType":"uint256"},{"name":"amountANDEMin","type":"uint256","internalType":"uint256"},{"name":"to","type":"address","internalType":"address"},{"name":"deadline","type":"uint256","internalType":"uint256"}],"outputs":[{"name":"amountToken","type":"uint256","internalType":"uint256"},{"name":"amountANDE","type":"uint256","internalType":"uint256"}],"stateMutability":"nonpayable"},{"type":"function","name":"swapExactANDEForTokens","inputs":[{"name":"amountOutMin","type":"uint256","internalType":"uint256"},{"name":"path","type":"address[]","internalType":"address[]"},{"name":"to","type":"address","internalType":"address"},{"name":"deadline","type":"uint256","internalType":"uint256"}],"outputs":[{"name":"amounts","type":"uint256[]","internalType":"uint256[]"}],"stateMutability":"payable"},{"type":"function","name":"swapExactTokensForTokens","inputs":[{"name":"amountIn","type":"uint256","internalType":"uint256"},{"name":"amountOutMin","type":"uint256","internalType":"uint256"},{"name":"path","type":"address[]","internalType":"address[]"},{"name":"to","type":"address","internalType":"address"},{"name":"deadline","type":"uint256","internalType":"uint256"}],"outputs":[{"name":"amounts","type":"uint256[]","internalType":"uint256[]"}],"stateMutability":"nonpayable"},{"type":"function","name":"swapTokensForExactANDE","inputs":[{"name":"amountOut","type":"uint256","internalType":"uint256"},{"name":"amountInMax","type":"uint256","internalType":"uint256"},{"name":"path","type":"address[]","internalType":"address[]"},{"name":"to","type":"address","internalType":"address"},{"name":"deadline","type":"uint256","internalType":"uint256"}],"outputs":[{"name":"amounts","type":"uint256[]","internalType":"uint256[]"}],"stateMutability":"nonpayable"},{"type":"function","name":"swapTokensForExactTokens","inputs":[{"name":"amountOut","type":"uint256","internalType":"uint256"},{"name":"amountInMax","type":"uint256","internalType":"uint256"},{"name":"path","type":"address[]","internalType":"address[]"},{"name":"to","type":"address","internalType":"address"},{"name":"deadline","type":"uint256","internalType":"uint256"}],"outputs":[{"name":"amounts","type":"uint256[]","internalType":"uint256[]"}],"stateMutability":"nonpayable"},{"type":"error","name":"AddressEmptyCode","inputs":[{"name":"target","type":"address","internalType":"address"}]},{"type":"error","name":"AddressInsufficientBalance","inputs":[{"name":"account","type":"address","internalType":"address"}]},{"type":"error","name":"ExcessiveInputAmount","inputs":[]},{"type":"error","name":"Expired","inputs":[]},{"type":"error","name":"FailedInnerCall","inputs":[]},{"type":"error","name":"InsufficientAAmount","inputs":[]},{"type":"error","name":"InsufficientAmount","inputs":[]},{"type":"error","name":"InsufficientBAmount","inputs":[]},{"type":"error","name":"InsufficientInputAmount","inputs":[]},{"type":"error","name":"InsufficientLiquidity","inputs":[]},{"type":"error","name":"InsufficientLiquidity","inputs":[]},{"type":"error","name":"InsufficientOutputAmount","inputs":[]},{"type":"error","name":"InsufficientOutputAmount","inputs":[]},{"type":"error","name":"InvalidPath","inputs":[]},{"type":"error","name":"SafeERC20FailedOperation","inputs":[{"name":"token","type":"address","internalType":"address"}]},{"type":"error","name":"ZeroAddress","inputs":[]}],"bytecode":{"object":"0x60a034609e57601f612ef638819003918201601f19168301916001600160401b0383118484101760a257808492602094604052833981010312609e57516001600160a01b0381168103609e57608052604051612e3f90816100b78239608051818181610374015281816105a501528181610a9701528181610bc701528181610e7901528181610faa015281816114d7015281816125150152612c940152f35b5f80fd5b634e487b7160e01b5f52604160045260245ffdfe6040608081526004908136101561001f575b5050361561001d575f80fd5b005b5f3560e01c8063054d50d414611cd757806315ed85ba146118785780631f00ca741461186257806338ed1739146117985780634b5fe751146114b75780634ca143af14610f8f57806385f8c25914610f745780638803dbee14610d8e578063ad615dec14610d6c578063baa2abde14610af4578063c1c1c74014610abb578063c45a015514610a4d578063d06ca61f14610a26578063e8e337001461052b5763f436ff82036100115760807ffffffffffffffffffffffffffffffffffffffffffffffffffffffffffffffffc360112610527576024803567ffffffffffffffff8111610527576101129036908501611d2a565b9290916044359473ffffffffffffffffffffffffffffffffffffffff80871687036105275760643542116104ff5785156104ed5760fd816101528761213b565b16036104c557610163368787611efb565b96610172600289511015612288565b61017c88516122ed565b95346101878861215c565b525f5b89517fffffffffffffffffffffffffffffffffffffffffffffffffffffffffffffffff81019081116104b35781101561030757836101c8828c61217d565b511660018201908183116102f557856101ee816101e68f869061217d565b511683612b7d565b5016036102ee575f805b60ff8091169116610209848c61217d565b519081156102c6578015928380156102be575b610296576103e580840293840403610284576102389083612033565b926103e880830292830414171561027257600194939261025e61026b936102649361205a565b90612067565b918b61217d565b520161018a565b8960118a634e487b7160e01b5f52525ffd5b8a60118b634e487b7160e01b5f52525ffd5b898c517fbb55fd27000000000000000000000000000000000000000000000000000000008152fd5b50801561021c565b888b517f098fb561000000000000000000000000000000000000000000000000000000008152fd5b5f806101f8565b87601188634e487b7160e01b5f52525ffd5b868884848c898b85517fffffffffffffffffffffffffffffffffffffffffffffffffffffffffffffffff81019081116104a1576103468335918861217d565b5110610479576103558461213b565b908360011015610468575061039860209161037183870161213b565b907f000000000000000000000000000000000000000000000000000000000000000061248d565b6103a18761215c565b5188517fa9059cbb00000000000000000000000000000000000000000000000000000000815273ffffffffffffffffffffffffffffffffffffffff9092169382019384526020840152918290819060400103815f60fd5af1801561045e579261042b96949261041b926104219561042f575b503691611efb565b846124f7565b5191829182611e1b565b0390f35b6104509060203d602011610457575b6104488183611ea2565b810190612191565b5088610413565b503d61043e565b86513d5f823e3d90fd5b603283634e487b7160e01b5f52525ffd5b5085517f42301c23000000000000000000000000000000000000000000000000000000008152fd5b50601182634e487b7160e01b5f52525ffd5b86601187634e487b7160e01b5f52525ffd5b5082517f20db8267000000000000000000000000000000000000000000000000000000008152fd5b50603290634e487b7160e01b5f52525ffd5b5082517f203d82d8000000000000000000000000000000000000000000000000000000008152fd5b5f80fd5b5034610527576101007ffffffffffffffffffffffffffffffffffffffffffffffffffffffffffffffffc36011261052757610564611d5b565b9161056d611d7e565b92604435926064359260c4359073ffffffffffffffffffffffffffffffffffffffff8083168093036105275760e43542116104ff57807f000000000000000000000000000000000000000000000000000000000000000016978451957fe6a43905000000000000000000000000000000000000000000000000000000009788885260209788818d818061062a89898d840190602090939293604083019473ffffffffffffffffffffffffffffffffffffffff809216845216910152565b03915afa9081156109365790859392915f91610a09575b5083811615610940575b606090878a51809681937f0902f1ac000000000000000000000000000000000000000000000000000000008352165afa8015610936575f935f91610900575b5083816106978786612c0a565b509588808716971687036108f5575b50506dffffffffffffffffffffffffffff809116918215806108eb575b1561082c57505050610712999a9b899285929d9c5b8a519c8d948593849384528b840190602090939293604083019473ffffffffffffffffffffffffffffffffffffffff809216845216910152565b03915afa97881561045e578a92918a915f9a6107e2575b50889695938a5f94610744602498958361074d963390612a38565b84339116612a38565b865198899586947f6a627842000000000000000000000000000000000000000000000000000000008652850152165af19182156107d8575f926107a6575b50519283526020830193909352506040810191909152606090f35b90915082813d83116107d1575b6107bd8183611ea2565b810103126105275761042b9151905f61078b565b503d6107b3565b50513d5f823e3d90fd5b602495929a509361074d915f946107446108148d9b9a988c8d3d10610825575b61080c8183611ea2565b8101906121a9565b9d9598505094509150939596610729565b503d610802565b16919061083a83828f61225b565b928284116108855750505060a435811061085d579a6107129989928592916106d8565b8588517fef71d091000000000000000000000000000000000000000000000000000000008152fd5b8261089193945061225b565b9a8b116108d8576084358b106108b0579a6107129989928592916106d8565b8588517f8dc525d1000000000000000000000000000000000000000000000000000000008152fd5b600186634e487b7160e01b5f525260245ffd5b50818116156106c3565b925090505f806106a6565b905061092591935060603d60601161092f575b61091d8183611ea2565b810190612bd4565b509290925f61068a565b503d610913565b88513d5f823e3d90fd5b5087517fc9c6539600000000000000000000000000000000000000000000000000000000815273ffffffffffffffffffffffffffffffffffffffff80841682890190815290861660208201529293509091899082908e9082905f90829060400103925af1908115610936575f916109ec575b50848116156109c4579084929161064b565b8588517f20db8267000000000000000000000000000000000000000000000000000000008152fd5b610a039150893d8b116108255761080c8183611ea2565b5f6109b2565b610a2091508a3d8c116108255761080c8183611ea2565b5f610641565b50346105275761042b90610a42610a3c36611f66565b90612962565b905191829182611e1b565b5034610527575f7ffffffffffffffffffffffffffffffffffffffffffffffffffffffffffffffffc360112610527576020905173ffffffffffffffffffffffffffffffffffffffff7f0000000000000000000000000000000000000000000000000000000000000000168152f35b5034610527575f7ffffffffffffffffffffffffffffffffffffffffffffffffffffffffffffffffc360112610527576020905160fd8152f35b5090346105275760e07ffffffffffffffffffffffffffffffffffffffffffffffffffffffffffffffffc36011261052757610b2d611d5b565b90610b36611d7e565b9160a4359073ffffffffffffffffffffffffffffffffffffffff8083168093036105275760c4354211610d4457858051937fe6a4390500000000000000000000000000000000000000000000000000000000855260208580610bc28a888b840190602090939293604083019473ffffffffffffffffffffffffffffffffffffffff809216845216910152565b0381867f0000000000000000000000000000000000000000000000000000000000000000165afa908115610d3a575f958692610d16575b50602490610c0f85841693604435903386612a38565b835196879384927f89afcb440000000000000000000000000000000000000000000000000000000084528a8401525af194851561045e575f935f96610cdc575b50610c5b829184612c0a565b50169116145f14610cd65791905b6064358310610caf576084358210610c88575082519182526020820152f35b83517fef71d091000000000000000000000000000000000000000000000000000000008152fd5b83517f8dc525d1000000000000000000000000000000000000000000000000000000008152fd5b90610c69565b82919650610c5b9450610d0490883d8a11610d0f575b610cfc8183611ea2565b8101906121d5565b949094969150610c4f565b503d610cf2565b6024919250610d339060203d6020116108255761080c8183611ea2565b9190610bf9565b82513d5f823e3d90fd5b8386517f203d82d8000000000000000000000000000000000000000000000000000000008152fd5b503461052757602090610d87610d8136611cf2565b9161225b565b9051908152f35b50903461052757610d9e36611da1565b95919293959490944211610f4c57610dc190610dbb368587611efb565b90612851565b94610dcb8661215c565b5111610f25578115610f125773ffffffffffffffffffffffffffffffffffffffff9081610df78561213b565b1691610e028561213b565b8460011015610eff5791602091610e7593610e1e84890161213b565b8b517fe6a4390500000000000000000000000000000000000000000000000000000000815273ffffffffffffffffffffffffffffffffffffffff928316948101948552911660208401529384928391829160400190565b03917f0000000000000000000000000000000000000000000000000000000000000000165afa908115610ef55792610ecf61041b93610421969361042b9a98965f91610ed6575b50610ec68a61215c565b51913390612a38565b3691611efb565b610eef915060203d6020116108255761080c8183611ea2565b5f610ebc565b87513d5f823e3d90fd5b603283634e487b7160e01b5f525260245ffd5b603290634e487b7160e01b5f525260245ffd5b85517fe1b0da4f000000000000000000000000000000000000000000000000000000008152fd5b5085517f203d82d8000000000000000000000000000000000000000000000000000000008152fd5b503461052757602090610d87610f8936611cf2565b916121eb565b5090610f9a36611fc8565b9693969592949195421161148f577f00000000000000000000000000000000000000000000000000000000000000009573ffffffffffffffffffffffffffffffffffffffff92838816968651927fe6a4390500000000000000000000000000000000000000000000000000000000845285831693848882015260fd60248201526020998a82604481845afa91821561148557908895949392915f92611466575b50858216156113bd575b50606090898b51809781937f0902f1ac000000000000000000000000000000000000000000000000000000008352165afa9182156113b357908a9392915f955f9361138b575b508592809660fd89105f14611383578a865b168903611378575b50508d6dffffffffffffffffffffffffffff8094169384158061136e575b156112bb5750505050505f92506110de61113f91349c9b612367565b88517f23b872dd0000000000000000000000000000000000000000000000000000000081523389820190815273ffffffffffffffffffffffffffffffffffffffff83166020820152604081018d905291959094859391928492839160600190565b03925af1801561045e5761129e575b5084517fa9059cbb00000000000000000000000000000000000000000000000000000000815273ffffffffffffffffffffffffffffffffffffffff8216858201908152602081018a905287908290819060400103815f60fd5af1801561045e5784602493899695935f93611281575b50885197889687957f6a6278420000000000000000000000000000000000000000000000000000000087521690850152165af1928315610d3a575f93611251575b5050833411611221575b5191825260208201929092526040810191909152606090f35b5f80808061122f883461212e565b818115611248575b3390f1611208575b513d5f823e3d90fd5b506108fc611237565b9080929350813d831161127a575b6112698183611ea2565b810103126105275751905f806111fe565b503d61125f565b61129790883d8a11610457576104488183611ea2565b505f6111bd565b6112b490873d8911610457576104488183611ea2565b505f61114e565b8496506112cf92949395971695869161225b565b933485116113195750505081106112f15761113f6110de5f938a939c9b612367565b8587517fef71d091000000000000000000000000000000000000000000000000000000008152fd5b9091935061132892503461225b565b998a116108d8578910611346578661113f6110de5f93349c9b612367565b8486517f8dc525d1000000000000000000000000000000000000000000000000000000008152fd5b50808816156110c2565b965092505f806110a4565b8a60fd61109c565b9092506113a891955060603d60601161092f5761091d8183611ea2565b50949094915f61108a565b89513d5f823e3d90fd5b919293945050898560448a5f8d5195869485937fc9c6539600000000000000000000000000000000000000000000000000000000855284015260fd60248401525af19081156113b3575f91611449575b50868116156114215790869392915f611044565b8789517f20db8267000000000000000000000000000000000000000000000000000000008152fd5b61146091508a3d8c116108255761080c8183611ea2565b5f61140d565b61147e9192508c8d3d106108255761080c8183611ea2565b905f61103a565b8a513d5f823e3d90fd5b8284517f203d82d8000000000000000000000000000000000000000000000000000000008152fd5b509034610527576114c736611fc8565b949092944211611770576114fb817f0000000000000000000000000000000000000000000000000000000000000000612367565b87517f23b872dd0000000000000000000000000000000000000000000000000000000081523381890190815273ffffffffffffffffffffffffffffffffffffffff9283166020828101829052604083019890985291989294918a9188908b90819060600103815f855af1998a15610d3a575f9a611753575b5060248251809b81937f89afcb4400000000000000000000000000000000000000000000000000000000835230888401525af19788156113b3575f905f99611731575b508484169360fd851461170157859060fd861015611729575b1680156117015784036116fb5797965b88106116d35786106116ac5787517fa9059cbb00000000000000000000000000000000000000000000000000000000815273ffffffffffffffffffffffffffffffffffffffff851691810191825260208201889052939291859185919082905f90829060400103925af1928315610ef5575f93849384938493899361168f575b5083918315611685575b1690f11561167b578351928352820152f35b83513d5f823e3d90fd5b6108fc9250611669565b6116a590893d8b11610457576104488183611ea2565b505f61165f565b87517fef71d091000000000000000000000000000000000000000000000000000000008152fd5b5087517f8dc525d1000000000000000000000000000000000000000000000000000000008152fd5b966115df565b838b517fd92e233d000000000000000000000000000000000000000000000000000000008152fd5b5060fd6115cf565b905061174b919850893d8b11610d0f57610cfc8183611ea2565b97905f6115b6565b61176990893d8b11610457576104488183611ea2565b505f611573565b8587517f203d82d8000000000000000000000000000000000000000000000000000000008152fd5b509034610527576117a836611da1565b95919293959490944211610f4c576117c590610a3c368587611efb565b9485517fffffffffffffffffffffffffffffffffffffffffffffffffffffffffffffffff810190811161184f576117fc908761217d565b5110611828578115610f125773ffffffffffffffffffffffffffffffffffffffff9081610df78561213b565b85517f42301c23000000000000000000000000000000000000000000000000000000008152fd5b601183634e487b7160e01b5f525260245ffd5b50346105275761042b90610a42610dbb36611f66565b50346105275761188736611da1565b96919093964211611caf577fffffffffffffffffffffffffffffffffffffffffffffffffffffffffffffffff9283820197828911611c9c5782891015611c895760fd6118f197989973ffffffffffffffffffffffffffffffffffffffff98899160051b850161213b565b1603611c6157611902368484611efb565b611910600282511015612288565b61191a81516122ed565b988951878101908111611c3b57611931908b61217d565b528051868101908111611c4e57805b611ad857505061194f8861215c565b5111611ab0578115610eff57856119658261213b565b1661196f8261213b565b8360011015611a9d57829161198f602092610371846119fb98970161213b565b906119998b61215c565b51915f8d518098819582947f23b872dd000000000000000000000000000000000000000000000000000000008452338d850160409194939294606082019573ffffffffffffffffffffffffffffffffffffffff80921683521660208201520152565b03925af19081156113b357611a2393611a1d92611a7e575b5030923691611efb565b876124f7565b8451918201918211611a6b57505f80938193611a4083948861217d565b519183918315611a61575b1690f1156107d85761042b915191829182611e1b565b6108fc9250611a4b565b601190634e487b7160e01b5f525260245ffd5b611a969060203d602011610457576104488183611ea2565b505f611a13565b603285634e487b7160e01b5f525260245ffd5b8288517fe1b0da4f000000000000000000000000000000000000000000000000000000008152fd5b868101818111611c3b5789611aed828561217d565b51168a611afe816101e6868861217d565b501603611c2f575f8b611b1a845f5b60ff80911694169261217d565b51908115611c075780158015611bff575b611bd75781611b3991612033565b916103e892838102938185041490151715611bc45790611b589161212e565b906103e591828102928184041490151715611bb15790611b7791612067565b9060018201809211611b9e5790611b92611b9893928d61217d565b5261233c565b80611940565b601188634e487b7160e01b5f525260245ffd5b601189634e487b7160e01b5f525260245ffd5b60118a634e487b7160e01b5f525260245ffd5b898f517fbb55fd27000000000000000000000000000000000000000000000000000000008152fd5b508215611b2b565b898f517f42301c23000000000000000000000000000000000000000000000000000000008152fd5b5f8b611b1a845f611b0d565b601187634e487b7160e01b5f525260245ffd5b601186634e487b7160e01b5f525260245ffd5b8389517f20db8267000000000000000000000000000000000000000000000000000000008152fd5b603284634e487b7160e01b5f525260245ffd5b601184634e487b7160e01b5f525260245ffd5b5084517f203d82d8000000000000000000000000000000000000000000000000000000008152fd5b503461052757602090610d87611cec36611cf2565b91612085565b7ffffffffffffffffffffffffffffffffffffffffffffffffffffffffffffffffc606091011261052757600435906024359060443590565b9181601f840112156105275782359167ffffffffffffffff8311610527576020808501948460051b01011161052757565b6004359073ffffffffffffffffffffffffffffffffffffffff8216820361052757565b6024359073ffffffffffffffffffffffffffffffffffffffff8216820361052757565b60a07ffffffffffffffffffffffffffffffffffffffffffffffffffffffffffffffffc8201126105275760043591602435916044359067ffffffffffffffff821161052757611df291600401611d2a565b909160643573ffffffffffffffffffffffffffffffffffffffff81168103610527579060843590565b60209060206040818301928281528551809452019301915f5b828110611e42575050505090565b835185529381019392810192600101611e34565b6060810190811067ffffffffffffffff821117611e7257604052565b634e487b7160e01b5f52604160045260245ffd5b6080810190811067ffffffffffffffff821117611e7257604052565b90601f7fffffffffffffffffffffffffffffffffffffffffffffffffffffffffffffffe0910116810190811067ffffffffffffffff821117611e7257604052565b67ffffffffffffffff8111611e725760051b60200190565b9291611f0682611ee3565b91611f146040519384611ea2565b829481845260208094019160051b810192831161052757905b828210611f3a5750505050565b813573ffffffffffffffffffffffffffffffffffffffff81168103610527578152908301908301611f2d565b9060407ffffffffffffffffffffffffffffffffffffffffffffffffffffffffffffffffc83011261052757600435916024359067ffffffffffffffff8211610527578060238301121561052757816024611fc593600401359101611efb565b90565b7ffffffffffffffffffffffffffffffffffffffffffffffffffffffffffffffffc60c09101126105275773ffffffffffffffffffffffffffffffffffffffff600435818116810361052757916024359160443591606435916084359081168103610527579060a43590565b8181029291811591840414171561204657565b634e487b7160e01b5f52601160045260245ffd5b9190820180921161204657565b8115612071570490565b634e487b7160e01b5f52601260045260245ffd5b91908215612104578015918280156120fc575b6120d2576103e580850294850403612046576120b49084612033565b916103e880830292830414171561204657611fc59261025e9161205a565b60046040517fbb55fd27000000000000000000000000000000000000000000000000000000008152fd5b508015612098565b60046040517f5945ea56000000000000000000000000000000000000000000000000000000008152fd5b9190820391821161204657565b3573ffffffffffffffffffffffffffffffffffffffff811681036105275790565b8051156121695760200190565b634e487b7160e01b5f52603260045260245ffd5b80518210156121695760209160051b010190565b90816020910312610527575180151581036105275790565b90816020910312610527575173ffffffffffffffffffffffffffffffffffffffff811681036105275790565b9190826040910312610527576020825192015190565b919082156121045780158015612253575b6120d2578261220a91612033565b916103e892838102938185041490151715612046576122289161212e565b6103e5908181029181830414901517156120465761224591612067565b600181018091116120465790565b5081156121fc565b80156121045781158015612280575b6120d257611fc59261227b91612033565b612067565b50821561226a565b1561228f57565b60646040517f08c379a000000000000000000000000000000000000000000000000000000000815260206004820152601d60248201527f416e6465537761704c6962726172793a20494e56414c49445f504154480000006044820152fd5b906122f782611ee3565b6123046040519182611ea2565b8281527fffffffffffffffffffffffffffffffffffffffffffffffffffffffffffffffe06123328294611ee3565b0190602036910137565b8015612046577fffffffffffffffffffffffffffffffffffffffffffffffffffffffffffffffff0190565b73ffffffffffffffffffffffffffffffffffffffff9182811660fd811461245c5760fd11156124865760fd905b8381161561245c5760405160208101917fffffffffffffffffffffffffffffffffffffffff0000000000000000000000009384809260601b16845260601b166034820152602881526123e581611e56565b5190206040519160208301937fff00000000000000000000000000000000000000000000000000000000000000855260601b16602183015260358201527f96e8ac4277198ff8b6f785478aa9a39f403cb768dd02cbee326c3e7da348845f60558201526055815261245581611e86565b5190201690565b60046040517fd92e233d000000000000000000000000000000000000000000000000000000008152fd5b60fd612394565b9073ffffffffffffffffffffffffffffffffffffffff926124ad91612b7d565b9060405160208101917fffffffffffffffffffffffffffffffffffffffff0000000000000000000000009384809260601b16845260601b166034820152602881526123e581611e56565b909291925f73ffffffffffffffffffffffffffffffffffffffff92837f000000000000000000000000000000000000000000000000000000000000000016915b83517fffffffffffffffffffffffffffffffffffffffffffffffffffffffffffffffff8101908111612046578110156128485784612575828661217d565b511660018201808311612046578661258d828861217d565b511691876125a661259e8584612c0a565b50938761217d565b5192168103612841575f5b87517ffffffffffffffffffffffffffffffffffffffffffffffffffffffffffffffffe8101908111612046578510156128345760028501808611612046576125fa8a918a61217d565b51604080517fe6a4390500000000000000000000000000000000000000000000000000000000815273ffffffffffffffffffffffffffffffffffffffff8881166004830152939092169092166024820152602080826044818d5afa92831561123f5750906126d39695949392915f92612817575b50505b6040948551907fe6a4390500000000000000000000000000000000000000000000000000000000825281806020998a9360049889840190602090939293604083019473ffffffffffffffffffffffffffffffffffffffff809216845216910152565b03818d5afa90811561045e57908c915f916127fa575b50169085519687019167ffffffffffffffff93888410858511176127e7578388525f8952813b15610527575f80948f9a7fffffffffffffffffffffffffffffffffffffffffffffffffffffffffffffffe0601f8a928d519e8f998a9889967f022c0d9f00000000000000000000000000000000000000000000000000000000885287015260249e8f87015216604485015260806064850152518060848501528060a4958686015e85858286010152011681010301925af180156127dd576127b8575b5050505050600101612537565b84116127cc5750505260015f8080806127ab565b604190634e487b7160e01b5f52525ffd5b84513d5f823e3d90fd5b604186634e487b7160e01b5f525260245ffd5b6128119150883d8a116108255761080c8183611ea2565b5f6126e9565b61282d9250803d106108255761080c8183611ea2565b5f8061266e565b906126d39392918b612671565b5f916125b1565b50505050509050565b919060028151106129385761286681516122ed565b928351907fffffffffffffffffffffffffffffffffffffffffffffffffffffffffffffffff91828101908111612046576128a0908661217d565b52815181810190811161204657805b6128b857505050565b818101908082116120465761293291611b9261292b61290573ffffffffffffffffffffffffffffffffffffffff806128f0868b61217d565b5116906128fd878b61217d565b511690612c32565b61290f868c61217d565b51906dffffffffffffffffffffffffffff8091169216906121eb565b918861217d565b806128af565b60046040517f20db8267000000000000000000000000000000000000000000000000000000008152fd5b91909160028351106129385761297883516122ed565b906129828261215c565b525f5b83517fffffffffffffffffffffffffffffffffffffffffffffffffffffffffffffffff810190811161204657811015612a335773ffffffffffffffffffffffffffffffffffffffff90816129d9828761217d565b511691600182019081831161204657612a256129ff600195612a2c936128fd868c61217d565b612a09868961217d565b51906dffffffffffffffffffffffffffff809116921690612085565b918561217d565b5201612985565b509150565b6040517f23b872dd000000000000000000000000000000000000000000000000000000006020820190815273ffffffffffffffffffffffffffffffffffffffff938416602483015293831660448201526064808201959095529384527fffffffffffffffffffffffffffffffffffffffffffffffffffffffffffffffe0925f928392612ac5608488611ea2565b1694519082865af1903d15612b70573d9167ffffffffffffffff8311611e7257612b0e92612afe602060405194601f8401160184611ea2565b82523d5f602084013e5b83612d69565b8051908115159182612b55575b5050612b245750565b602490604051907f5274afe70000000000000000000000000000000000000000000000000000000082526004820152fd5b612b689250602080918301019101612191565b155f80612b1b565b50612b0e90606090612b08565b909173ffffffffffffffffffffffffffffffffffffffff9182841683821681811461245c571015612bb457925b9183161561245c57565b612baa565b51906dffffffffffffffffffffffffffff8216820361052757565b9081606091031261052757612be881612bb9565b916040612bf760208401612bb9565b92015163ffffffff811681036105275790565b73ffffffffffffffffffffffffffffffffffffffff8281169082161015612c2e5791565b9091565b90612c3d8183612c0a565b506040517fe6a4390500000000000000000000000000000000000000000000000000000000815273ffffffffffffffffffffffffffffffffffffffff848116600483015292831660248201529092906020816044817f000000000000000000000000000000000000000000000000000000000000000087165afa908115612d3f5783916060915f91612d4a575b506004604051809681937f0902f1ac000000000000000000000000000000000000000000000000000000008352165afa938415612d3f575f935f95612d19575b5081169116145f14612c2e5791565b612d3691955082945060603d60601161092f5761091d8183611ea2565b50949093612d0a565b6040513d5f823e3d90fd5b612d63915060203d6020116108255761080c8183611ea2565b5f612cca565b90612da85750805115612d7e57805190602001fd5b60046040517f1425ea42000000000000000000000000000000000000000000000000000000008152fd5b81511580612e00575b612db9575090565b60249073ffffffffffffffffffffffffffffffffffffffff604051917f9996b315000000000000000000000000000000000000000000000000000000008352166004820152fd5b50803b15612db156fea264697066735822122044ca88a19ca24e3c9cf3cbcc21e40fc637858e8345dd4976bc410df18cbade4d64736f6c63430008190033","linkReferences":{}},"methodIdentifiers":{"ANDE()":"c1c1c740","addLiquidity(address,address,uint256,uint256,uint256,uint256,address,uint256)":"e8e33700","addLiquidityANDE(address,uint256,uint256,uint256,address,uint256)":"4ca143af","factory()":"c45a0155","getAmountIn(uint256,uint256,uint256)":"85f8c259","getAmountOut(uint256,uint256,uint256)":"054d50d4","getAmountsIn(uint256,address[])":"1f00ca74","getAmountsOut(uint256,address[])":"d06ca61f","quote(uint256,uint256,uint256)":"ad615dec","removeLiquidity(address,address,uint256,uint256,uint256,address,uint256)":"baa2abde","removeLiquidityANDE(address,uint256,uint256,uint256,address,uint256)":"4b5fe751","swapExactANDEForTokens(uint256,address[],address,uint256)":"f436ff82","swapExactTokensForTokens(uint256,uint256,address[],address,uint256)":"38ed1739","swapTokensForExactANDE(uint256,uint256,address[],address,uint256)":"15ed85ba","swapTokensForExactTokens(uint256,uint256,address[],address,uint256)":"8803dbee"},"id":127}