{"abi":[{"type":"constructor","inputs":[{"name":"_factory","type":"address","internalType":"address"}],"stateMutability":"nonpayable"},{"type":"receive","stateMutability":"payable"},{"type":"function","name":"ANDE","inputs":[],"outputs":[{"name":"","type":"address","internalType":"address"}],"stateMutability":"view"},{"type":"function","name":"addLiquidity","inputs":[{"name":"tokenA","type":"address","internalType":"address"},{"name":"tokenB","type":"address","internalType":"address"},{"name":"amountADesired","type":"uint256","internalType":"uint256"},{"name":"amountBDesired","type":"uint256","internalType":"uint256"},{"name":"amountAMin","type":"uint256","internalType":"uint256"},{"name":"amountBMin","type":"uint256","internalType":"uint256"},{"name":"to","type":"address","internalType":"address"},{"name":"deadline","type":"uint256","internalType":"uint256"}],"outputs":[{"name":"amountA","type":"uint256","internalType":"uint256"},{"name":"amountB","type":"uint256","internalType":"uint256"},{"name":"liquidity","type":"uint256","internalType":"uint256"}],"stateMutability":"nonpayable"},{"type":"function","name":"addLiquidityANDE","inputs":[{"name":"token","type":"address","internalType":"address"},{"name":"amountTokenDesired","type":"uint256","internalType":"uint256"},{"name":"amountTokenMin","type":"uint256","internalType":"uint256"},{"name":"amountANDEMin","type":"uint256","internalType":"uint256"},{"name":"to","type":"address","internalType":"address"},{"name":"deadline","type":"uint256","internalType":"uint256"}],"outputs":[{"name":"amountToken","type":"uint256","internalType":"uint256"},{"name":"amountANDE","type":"uint256","internalType":"uint256"},{"name":"liquidity","type":"uint256","internalType":"uint256"}],"stateMutability":"payable"},{"type":"function","name":"factory","inputs":[],"outputs":[{"name":"","type":"address","internalType":"address"}],"stateMutability":"view"},{"type":"function","name":"getAmountIn","inputs":[{"name":"amountOut","type":"uint256","internalType":"uint256"},{"name":"reserveIn","type":"uint256","internalType":"uint256"},{"name":"reserveOut","type":"uint256","internalType":"uint256"}],"outputs":[{"name":"amountIn","type":"uint256","internalType":"uint256"}],"stateMutability":"pure"},{"type":"function","name":"getAmountOut","inputs":[{"name":"amountIn","type":"uint256","internalType":"uint256"},{"name":"reserveIn","type":"uint256","internalType":"uint256"},{"name":"reserveOut","type":"uint256","internalType":"uint256"}],"outputs":[{"name":"amountOut","type":"uint256","internalType":"uint256"}],"stateMutability":"pure"},{"type":"function","name":"getAmountsIn","inputs":[{"name":"amountOut","type":"uint256","internalType":"uint256"},{"name":"path","type":"address[]","internalType":"address[]"}],"outputs":[{"name":"amounts","type":"uint256[]","internalType":"uint256[]"}],"stateMutability":"view"},{"type":"function","name":"getAmountsOut","inputs":[{"name":"amountIn","type":"uint256","internalType":"uint256"},{"name":"path","type":"address[]","internalType":"address[]"}],"outputs":[{"name":"amounts","type":"uint256[]","internalType":"uint256[]"}],"stateMutability":"view"},{"type":"function","name":"quote","inputs":[{"name":"amountIn","type":"uint256","internalType":"uint256"},{"name":"reserveIn","type":"uint256","internalType":"uint256"},{"name":"reserveOut","type":"uint256","internalType":"uint256"}],"outputs":[{"name":"amountOut","type":"uint256","internalType":"uint256"}],"stateMutability":"pure"},{"type":"function","name":"removeLiquidity","inputs":[{"name":"tokenA","type":"address","internalType":"address"},{"name":"tokenB","type":"address","internalType":"address"},{"name":"liquidity","type":"uint256","internalType":"uint256"},{"name":"amountAMin","type":"uint256","internalType":"uint256"},{"name":"amountBMin","type":"uint256","internalType":"uint256"},{"name":"to","type":"address","internalType":"address"},{"name":"deadline","type":"uint256","internalType":"uint256"}],"outputs":[{"name":"amountA","type":"uint256","internalType":"uint256"},{"name":"amountB","type":"uint256","internalType":"uint256"}],"stateMutability":"nonpayable"},{"type":"function","name":"removeLiquidityANDE","inputs":[{"name":"token","type":"address","internalType":"address"},{"name":"liquidity","type":"uint256","internalType":"uint256"},{"name":"amountTokenMin","type":"uint256","internalType":"uint256"},{"name":"amountANDEMin","type":"uint256","internalType":"uint256"},{"name":"to","type":"address","internalType":"address"},{"name":"deadline","type":"uint256","internalType":"uint256"}],"outputs":[{"name":"amountToken","type":"uint256","internalType":"uint256"},{"name":"amountANDE","type":"uint256","internalType":"uint256"}],"stateMutability":"nonpayable"},{"type":"function","name":"swapExactANDEForTokens","inputs":[{"name":"amountOutMin","type":"uint256","internalType":"uint256"},{"name":"path","type":"address[]","internalType":"address[]"},{"name":"to","type":"address","internalType":"address"},{"name":"deadline","type":"uint256","internalType":"uint256"}],"outputs":[{"name":"amounts","type":"uint256[]","internalType":"uint256[]"}],"stateMutability":"payable"},{"type":"function","name":"swapExactTokensForTokens","inputs":[{"name":"amountIn","type":"uint256","internalType":"uint256"},{"name":"amountOutMin","type":"uint256","internalType":"uint256"},{"name":"path","type":"address[]","internalType":"address[]"},{"name":"to","type":"address","internalType":"address"},{"name":"deadline","type":"uint256","internalType":"uint256"}],"outputs":[{"name":"amounts","type":"uint256[]","internalType":"uint256[]"}],"stateMutability":"nonpayable"},{"type":"function","name":"swapTokensForExactANDE","inputs":[{"name":"amountOut","type":"uint256","internalType":"uint256"},{"name":"amountInMax","type":"uint256","internalType":"uint256"},{"name":"path","type":"address[]","internalType":"address[]"},{"name":"to","type":"address","internalType":"address"},{"name":"deadline","type":"uint256","internalType":"uint256"}],"outputs":[{"name":"amounts","type":"uint256[]","internalType":"uint256[]"}],"stateMutability":"nonpayable"},{"type":"function","name":"swapTokensForExactTokens","inputs":[{"name":"amountOut","type":"uint256","internalType":"uint256"},{"name":"amountInMax","type":"uint256","internalType":"uint256"},{"name":"path","type":"address[]","internalType":"address[]"},{"name":"to","type":"address","internalType":"address"},{"name":"deadline","type":"uint256","internalType":"uint256"}],"outputs":[{"name":"amounts","type":"uint256[]","internalType":"uint256[]"}],"stateMutability":"nonpayable"},{"type":"error","name":"AddressEmptyCode","inputs":[{"name":"target","type":"address","internalType":"address"}]},{"type":"error","name":"AddressInsufficientBalance","inputs":[{"name":"account","type":"address","internalType":"address"}]},{"type":"error","name":"ExcessiveInputAmount","inputs":[]},{"type":"error","name":"Expired","inputs":[]},{"type":"error","name":"FailedInnerCall","inputs":[]},{"type":"error","name":"InsufficientAAmount","inputs":[]},{"type":"error","name":"InsufficientAmount","inputs":[]},{"type":"error","name":"InsufficientBAmount","inputs":[]},{"type":"error","name":"InsufficientInputAmount","inputs":[]},{"type":"error","name":"InsufficientLiquidity","inputs":[]},{"type":"error","name":"InsufficientLiquidity","inputs":[]},{"type":"error","name":"InsufficientOutputAmount","inputs":[]},{"type":"error","name":"InsufficientOutputAmount","inputs":[]},{"type":"error","name":"InvalidPath","inputs":[]},{"type":"error","name":"SafeERC20FailedOperation","inputs":[{"name":"token","type":"address","internalType":"address"}]},{"type":"error","name":"ZeroAddress","inputs":[]}],"bytecode":{"object":"0x60a034609e57601f6124cc38819003918201601f19168301916001600160401b0383118484101760a257808492602094604052833981010312609e57516001600160a01b0381168103609e5760805260405161241590816100b782396080518181816102dd01528181610475015281816108550152818161091f01528181610b3b01528181610c5e0152818161104701528181611d1401526122c00152f35b5f80fd5b634e487b7160e01b5f52604160045260245ffdfe6040608081526004908136101561001f575b5050361561001d575f80fd5b005b5f3560e01c8063054d50d41461167457806315ed85ba146112dc5780631f00ca74146112c657806338ed1739146112415780634b5fe751146110275780634ca143af14610c1f57806385f8c25914610c045780638803dbee14610a83578063ad615dec14610a61578063baa2abde1461089f578063c1c1c74014610884578063c45a015514610841578063d06ca61f1461081a578063e8e33700146104255763f436ff8203610011576080366003190112610421576024803567ffffffffffffffff8111610421576100f490369085016116a9565b6044359490939192906001600160a01b0380871687036104215760643542116104125785156104005760fd81610129876119d0565b16036103f15761013a368787611816565b96610149600289511015611b03565b6101538851611b4f565b953461015e886119e4565b525f5b89515f1981019081116103df5781101561028f5783610180828c611a05565b5116600182019081831161027d57856101a68161019e8f8690611a05565b5116836121f0565b501603610276575f805b60ff80911691166101c1848c611a05565b519081156102665780159283801561025e575b61024e576103e58084029384040361023c576101f090836118f8565b926103e880830292830414171561022a5760019493926102166102239361021c9361191f565b9061192c565b918b611a05565b5201610161565b8960118a634e487b7160e01b5f52525ffd5b8a60118b634e487b7160e01b5f52525ffd5b8b5163bb55fd2760e01b81528a90fd5b5080156101d4565b8a5163098fb56160e01b81528990fd5b5f806101b0565b87601188634e487b7160e01b5f52525ffd5b868884848c898b85515f1981019081116103cc576102af83359188611a05565b51106103bd576102be846119d0565b9083600110156103ab57506103016020916102da8387016119d0565b907f0000000000000000000000000000000000000000000000000000000000000000611c5f565b61030a876119e4565b51885163a9059cbb60e01b81526001600160a01b039092169382019384526020840152918290819060400103815f60fd5af180156103a1579261036e96949261035e9261036495610372575b503691611816565b84611d05565b5191829182611755565b0390f35b6103939060203d60201161039a575b61038b81836117dc565b810190611a19565b5088610356565b503d610381565b86513d5f823e3d90fd5b634e487b7160e01b5f90815260328452fd5b5085516342301c2360e01b8152fd5b50634e487b7160e01b5f90815260118352fd5b86601187634e487b7160e01b5f52525ffd5b5082516320db826760e01b8152fd5b50603290634e487b7160e01b5f52525ffd5b508251630407b05b60e31b8152fd5b5f80fd5b503461042157610100366003190112610421576104406116da565b916104496116f0565b92604435926064359260c4356001600160a01b0381811692918390036104215760e435421161041257807f0000000000000000000000000000000000000000000000000000000000000000169784519563e6a4390560e01b9788885260209788818d81806104d389898d840190602090939293604083019460018060a01b03809216845216910152565b03915afa9081156107685790859392915f916107fd575b5083811615610772575b606090878a5180968193630240bc6b60e21b8352165afa8015610768575f935f91610732575b5083816105278786612269565b50958880871697168703610727575b50506001600160701b038091169182158061071d575b1561068e5750505061058d999a9b899285929d9c5b8a519081526001600160a01b039182168982019081529390911660208401529a8b928391829160400190565b03915afa9788156103a1578a92918a915f9a610644575b50889695938a5f946105bf60249895836105c89633906120fe565b843391166120fe565b865198899586946335313c2160e11b8652850152165af191821561063a575f92610608575b50519283526020830193909352506040810191909152606090f35b90915082813d8311610633575b61061f81836117dc565b810103126104215761036e9151905f6105ed565b503d610615565b50513d5f823e3d90fd5b602495929a50936105c8915f946105bf6106768d9b9a988c8d3d10610687575b61066e81836117dc565b810190611a31565b9d95985050945091509395966105a4565b503d610664565b16919061069c83828f611ad6565b928284116106cf5750505060a43581106106bf579a61058d998992859291610561565b875163ef71d09160e01b81528690fd5b826106db939450611ad6565b9a8b1161070a576084358b106106fa579a61058d998992859291610561565b8751638dc525d160e01b81528690fd5b600186634e487b7160e01b5f525260245ffd5b508181161561054c565b925090505f80610536565b905061075791935060603d606011610761575b61074f81836117dc565b810190612233565b509290925f61051a565b503d610745565b88513d5f823e3d90fd5b5087516364e329cb60e11b81526001600160a01b0380841682890190815290861660208201529293509091899082908e9082905f90829060400103925af1908115610768575f916107e0575b50848116156107d057908492916104f4565b87516320db826760e01b81528690fd5b6107f79150893d8b116106875761066e81836117dc565b5f6107be565b61081491508a3d8c116106875761066e81836117dc565b5f6104ea565b50346104215761036e9061083661083036611874565b9061205b565b905191829182611755565b5034610421575f36600319011261042157517f00000000000000000000000000000000000000000000000000000000000000006001600160a01b03168152602090f35b5034610421575f366003190112610421576020905160fd8152f35b5090346104215760e0366003190112610421576108ba6116da565b906108c36116f0565b9160a4356001600160a01b0381811692918390036104215760c4354211610a5157855163e6a4390560e01b81526001600160a01b03808416868301908152908716602082810191909152919488929091869081906040010381867f0000000000000000000000000000000000000000000000000000000000000000165afa908115610a47575f958692610a23575b50602490610967858416936044359033866120fe565b8351968793849263226bf2d160e21b84528a8401525af19485156103a1575f935f966109e9575b5061099a829184612269565b50169116145f146109e35791905b60643583106109d55760843582106109c7575082519182526020820152f35b835163ef71d09160e01b8152fd5b8351638dc525d160e01b8152fd5b906109a8565b8291965061099a9450610a1190883d8a11610a1c575b610a0981836117dc565b810190611a50565b94909496915061098e565b503d6109ff565b6024919250610a409060203d6020116106875761066e81836117dc565b9190610951565b82513d5f823e3d90fd5b8551630407b05b60e31b81528490fd5b503461042157602090610a7c610a763661168f565b91611ad6565b9051908152f35b50903461042157610a9336611706565b95919293959490944211610bf557610ab690610ab0368587611816565b90611f95565b94610ac0866119e4565b5111610be7578115610bd4576001600160a01b039081610adf856119d0565b1691610aea856119d0565b8460011015610bc15791602091610b3793610b068489016119d0565b8b5163e6a4390560e01b81526001600160a01b03928316948101948552911660208401529384928391829160400190565b03917f0000000000000000000000000000000000000000000000000000000000000000165afa908115610bb75792610b9161035e93610364969361036e9a98965f91610b98575b50610b888a6119e4565b519133906120fe565b3691611816565b610bb1915060203d6020116106875761066e81836117dc565b5f610b7e565b87513d5f823e3d90fd5b603283634e487b7160e01b5f525260245ffd5b603290634e487b7160e01b5f525260245ffd5b855163e1b0da4f60e01b8152fd5b508551630407b05b60e31b8152fd5b503461042157602090610a7c610c193661168f565b91611a66565b5090610c2a366118b8565b9693969592949195421161101757835163e6a4390560e01b81526001600160a01b0383811685830181905260fd60248401527f00000000000000000000000000000000000000000000000000000000000000009860209892959193919291868b168a82604481845afa91821561100d57908895949392915f92610fee575b5085821615610f76575b50606090898b5180978193630240bc6b60e21b8352165afa918215610f6c57908a9392915f955f93610f44575b508592809660fd89105f14610f3c578a865b168903610f31575b50508d6001600160701b0380941693841580610f27575b15610ea45750505050505f9250610d2c610d6791349c9b611b8d565b88516323b872dd60e01b8152338982019081526001600160a01b0383166020820152604081018d905291959094859391928492839160600190565b03925af180156103a157610e87575b50845163a9059cbb60e01b81526001600160a01b038216858201908152602081018a905287908290819060400103815f60fd5af180156103a15784602493899695935f93610e6a575b50885197889687956335313c2160e11b87521690850152165af1928315610a47575f93610e3a575b5050833411610e0a575b5191825260208201929092526040810191909152606090f35b5f808080610e1888346119c3565b818115610e31575b3390f1610df1575b513d5f823e3d90fd5b506108fc610e20565b9080929350813d8311610e63575b610e5281836117dc565b810103126104215751905f80610de7565b503d610e48565b610e8090883d8a1161039a5761038b81836117dc565b505f610dbf565b610e9d90873d891161039a5761038b81836117dc565b505f610d76565b849650610eb8929493959716958691611ad6565b93348511610eea575050508110610eda57610d67610d2c5f938a939c9b611b8d565b865163ef71d09160e01b81528690fd5b90919350610ef9925034611ad6565b998a1161070a578910610f175786610d67610d2c5f93349c9b611b8d565b8551638dc525d160e01b81528590fd5b5080881615610d10565b965092505f80610cf9565b8a60fd610cf1565b909250610f6191955060603d6060116107615761074f81836117dc565b50949094915f610cdf565b89513d5f823e3d90fd5b919293945050898560448a5f8d5195869485936364e329cb60e11b855284015260fd60248401525af1908115610f6c575f91610fd1575b5086811615610fc15790869392915f610cb2565b88516320db826760e01b81528890fd5b610fe891508a3d8c116106875761066e81836117dc565b5f610fad565b6110069192508c8d3d106106875761066e81836117dc565b905f610ca8565b8a513d5f823e3d90fd5b8351630407b05b60e31b81528390fd5b50903461042157611037366118b8565b9490929442116112315761106b817f0000000000000000000000000000000000000000000000000000000000000000611b8d565b87516323b872dd60e01b8152338189019081526001600160a01b039283166020828101829052604083019890985291989294918a9188908b90819060600103815f855af1998a15610a47575f9a611214575b5060248251809b819363226bf2d160e21b835230888401525af1978815610f6c575f905f996111f2575b508484169360fd85146111da57859060fd8610156111ea575b1680156111da5784036111d45797965b88106111c55786106111b757875163a9059cbb60e01b81526001600160a01b03851691810191825260208201889052939291859185919082905f90829060400103925af1928315610bb7575f93849384938493899361119a575b5083918315611190575b1690f115611186578351928352820152f35b83513d5f823e3d90fd5b6108fc9250611174565b6111b090893d8b1161039a5761038b81836117dc565b505f61116a565b875163ef71d09160e01b8152fd5b508751638dc525d160e01b8152fd5b96611110565b8a5163d92e233d60e01b81528490fd5b5060fd611100565b905061120c919850893d8b11610a1c57610a0981836117dc565b97905f6110e7565b61122a90893d8b1161039a5761038b81836117dc565b505f6110bd565b8651630407b05b60e31b81528690fd5b5090346104215761125136611706565b95919293959490944211610bf55761126e90610830368587611816565b9485515f1981019081116112b3576112869087611a05565b51106112a5578115610bd4576001600160a01b039081610adf856119d0565b85516342301c2360e01b8152fd5b601183634e487b7160e01b5f525260245ffd5b50346104215761036e90610836610ab036611874565b5034610421576112eb36611706565b96919093964211611665575f199283820197828911611652578289101561163f57969795966001600160a01b039660fd90889061132c9060051b85016119d0565b160361162f5761133d368484611816565b61134b600282511015611b03565b6113558151611b4f565b9889518781019081116116095761136c908b611a05565b52805186810190811161161c57805b6114d657505061138a886119e4565b51116114c6578115610bc157856113a0826119d0565b166113aa826119d0565b83600110156114b35782916113ca6020926102da846114119897016119d0565b906113d48b6119e4565b518c516323b872dd60e01b8152338982019081526001600160a01b039094166020850152604084019190915295869283915f918391606090910190565b03925af1908115610f6c576114399361143392611494575b5030923691611816565b87611d05565b845191820191821161148157505f80938193611456839488611a05565b519183918315611477575b1690f11561063a5761036e915191829182611755565b6108fc9250611461565b601190634e487b7160e01b5f525260245ffd5b6114ac9060203d60201161039a5761038b81836117dc565b505f611429565b603285634e487b7160e01b5f525260245ffd5b875163e1b0da4f60e01b81528390fd5b86810181811161160957896114eb8285611a05565b51168a6114fc8161019e8688611a05565b5016036115fd575f8b611518845f5b60ff809116941692611a05565b519081156115ed57801580156115e5575b6115d55781611537916118f8565b916103e8928381029381850414901517156115c25790611556916119c3565b906103e5918281029281840414901517156115af57906115759161192c565b906001820180921161159c579061159061159693928d611a05565b52611b81565b8061137b565b601188634e487b7160e01b5f525260245ffd5b601189634e487b7160e01b5f525260245ffd5b60118a634e487b7160e01b5f525260245ffd5b8e5163bb55fd2760e01b81528a90fd5b508215611529565b8e516342301c2360e01b81528a90fd5b5f8b611518845f61150b565b601187634e487b7160e01b5f525260245ffd5b601186634e487b7160e01b5f525260245ffd5b88516320db826760e01b81528490fd5b603284634e487b7160e01b5f525260245ffd5b601184634e487b7160e01b5f525260245ffd5b508451630407b05b60e31b8152fd5b503461042157602090610a7c6116893661168f565b9161194a565b606090600319011261042157600435906024359060443590565b9181601f840112156104215782359167ffffffffffffffff8311610421576020808501948460051b01011161042157565b600435906001600160a01b038216820361042157565b602435906001600160a01b038216820361042157565b60a06003198201126104215760043591602435916044359067ffffffffffffffff821161042157611739916004016116a9565b90916064356001600160a01b0381168103610421579060843590565b60209060206040818301928281528551809452019301915f5b82811061177c575050505090565b83518552938101939281019260010161176e565b6060810190811067ffffffffffffffff8211176117ac57604052565b634e487b7160e01b5f52604160045260245ffd5b6080810190811067ffffffffffffffff8211176117ac57604052565b90601f8019910116810190811067ffffffffffffffff8211176117ac57604052565b67ffffffffffffffff81116117ac5760051b60200190565b9291611821826117fe565b9161182f60405193846117dc565b829481845260208094019160051b810192831161042157905b8282106118555750505050565b81356001600160a01b0381168103610421578152908301908301611848565b90604060031983011261042157600435916024359067ffffffffffffffff82116104215780602383011215610421578160246118b593600401359101611816565b90565b60c0906003190112610421576001600160a01b03600435818116810361042157916024359160443591606435916084359081168103610421579060a43590565b8181029291811591840414171561190b57565b634e487b7160e01b5f52601160045260245ffd5b9190820180921161190b57565b8115611936570490565b634e487b7160e01b5f52601260045260245ffd5b919082156119b1578015918280156119a9575b611997576103e58085029485040361190b5761197990846118f8565b916103e880830292830414171561190b576118b5926102169161191f565b60405163bb55fd2760e01b8152600490fd5b50801561195d565b604051632ca2f52b60e11b8152600490fd5b9190820391821161190b57565b356001600160a01b03811681036104215790565b8051156119f15760200190565b634e487b7160e01b5f52603260045260245ffd5b80518210156119f15760209160051b010190565b90816020910312610421575180151581036104215790565b9081602091031261042157516001600160a01b03811681036104215790565b9190826040910312610421576020825192015190565b919082156119b15780158015611ace575b6119975782611a85916118f8565b916103e89283810293818504149015171561190b57611aa3916119c3565b6103e59081810291818304149015171561190b57611ac09161192c565b6001810180911161190b5790565b508115611a77565b80156119b15781158015611afb575b611997576118b592611af6916118f8565b61192c565b508215611ae5565b15611b0a57565b60405162461bcd60e51b815260206004820152601d60248201527f416e6465537761704c6962726172793a20494e56414c49445f504154480000006044820152606490fd5b90611b59826117fe565b611b6660405191826117dc565b8281528092611b77601f19916117fe565b0190602036910137565b801561190b575f190190565b6001600160a01b039180831660fd8114611c465760fd1115611c585760fd905b83811615611c465760405160208101916bffffffffffffffffffffffff199384809260601b16845260601b16603482015260288152611beb81611790565b51902060405191602083019360ff60f81b855260601b16602183015260358201527f96e8ac4277198ff8b6f785478aa9a39f403cb768dd02cbee326c3e7da348845f605582015260558152611c3f816117c0565b5190201690565b60405163d92e233d60e01b8152600490fd5b60fd611bad565b91611c69916121f0565b919060405160208101916bffffffffffffffffffffffff199485809260601b16845260601b16603482015260288152611ca181611790565b51902060405192602084019260ff60f81b845260601b16602184015260358301527f96e8ac4277198ff8b6f785478aa9a39f403cb768dd02cbee326c3e7da348845f605583015260558252611cf5826117c0565b905190206001600160a01b031690565b9192916001600160a01b0391907f00000000000000000000000000000000000000000000000000000000000000008316905f5b83515f19810190811161190b57811015611f8c5784611d578286611a05565b51166001820180831161190b5786611d6f8288611a05565b51169187611d88611d808584612269565b509387611a05565b5192168103611f85575f5b8751600119810190811161190b57851015611f77576002850180861161190b57611dbe8a918a611a05565b516040805163e6a4390560e01b81526001600160a01b038881166004830152939092169092166024820152602080826044818d5afa928315610e28575090611e4e9695949392915f92611f5a575b5050905b6040805163e6a4390560e01b81526001600160a01b039485166004808301919091529490961660248701526020969095908790829081906044820190565b03818d5afa9081156103a157908c915f91611f3d575b501685519687019067ffffffffffffffff9388831085841117611f2a578288525f8952813b15610421575f8e9381958a519b8c968795869363022c0d9f60e01b85528c85015260249c8d85015216604483015260806064830152518060848301528060a4938484015e8181018301849052601f01601f191681010301925af18015611f2057611efb575b5050505050600101611d38565b8411611f0f5750505260015f808080611eee565b604190634e487b7160e01b5f52525ffd5b84513d5f823e3d90fd5b604186634e487b7160e01b5f525260245ffd5b611f549150883d8a116106875761066e81836117dc565b5f611e64565b611f709250803d106106875761066e81836117dc565b5f80611e0c565b90611e4e9392918b90611e10565b5f91611d93565b50505050509050565b9190600281511061204957611faa8151611b4f565b805190935f199182810190811161190b57611fc59086611a05565b52815181810190811161190b57805b611fdd57505050565b8181019080821161190b576120439161159061203c61201d6001600160a01b0380612008868b611a05565b511690612015878b611a05565b511690612284565b612027868c611a05565b51906001600160701b03809116921690611a66565b9188611a05565b80611fd4565b6040516320db826760e01b8152600490fd5b9190916002835110612049576120718351611b4f565b9061207b826119e4565b525f5b83515f19810190811161190b578110156120f9576001600160a01b0390816120a68287611a05565b511691600182019081831161190b576120eb6120cc6001956120f293612015868c611a05565b6120d68689611a05565b51906001600160701b0380911692169061194a565b9185611a05565b520161207e565b509150565b6040516323b872dd60e01b602082019081526001600160a01b03938416602483015293909216604483015260648083019490945292815291601f19915f9182919061214a6084876117dc565b60018060a01b031694519082865af1903d156121e3573d9167ffffffffffffffff83116117ac5761219a9261218a602060405194601f84011601846117dc565b82523d5f602084013e5b8361237c565b80519081151591826121c8575b50506121b05750565b60249060405190635274afe760e01b82526004820152fd5b6121db9250602080918301019101611a19565b155f806121a7565b5061219a90606090612194565b90916001600160a01b0391828416838216808214611c4657101561221a57925b91831615611c4657565b612210565b51906001600160701b038216820361042157565b90816060910312610421576122478161221f565b9160406122566020840161221f565b92015163ffffffff811681036104215790565b6001600160a01b0382811690821610156122805791565b9091565b9061228f8183612269565b5060405163e6a4390560e01b81526001600160a01b03848116600483015292831660248201529092906020816044817f000000000000000000000000000000000000000000000000000000000000000087165afa9081156123525783916060915f9161235d575b50600460405180968193630240bc6b60e21b8352165afa938415612352575f935f9561232c575b5081169116145f146122805791565b61234991955082945060603d6060116107615761074f81836117dc565b5094909361231d565b6040513d5f823e3d90fd5b612376915060203d6020116106875761066e81836117dc565b5f6122f6565b906123a3575080511561239157805190602001fd5b604051630a12f52160e11b8152600490fd5b815115806123d6575b6123b4575090565b604051639996b31560e01b81526001600160a01b039091166004820152602490fd5b50803b156123ac56fea2646970667358221220d683222e0dfa99cc0fc94238bc05c274612b361f70ed87ffbf9decf826ace26964736f6c63430008190033","linkReferences":{}},"methodIdentifiers":{"ANDE()":"c1c1c740","addLiquidity(address,address,uint256,uint256,uint256,uint256,address,uint256)":"e8e33700","addLiquidityANDE(address,uint256,uint256,uint256,address,uint256)":"4ca143af","factory()":"c45a0155","getAmountIn(uint256,uint256,uint256)":"85f8c259","getAmountOut(uint256,uint256,uint256)":"054d50d4","getAmountsIn(uint256,address[])":"1f00ca74","getAmountsOut(uint256,address[])":"d06ca61f","quote(uint256,uint256,uint256)":"ad615dec","removeLiquidity(address,address,uint256,uint256,uint256,address,uint256)":"baa2abde","removeLiquidityANDE(address,uint256,uint256,uint256,address,uint256)":"4b5fe751","swapExactANDEForTokens(uint256,address[],address,uint256)":"f436ff82","swapExactTokensForTokens(uint256,uint256,address[],address,uint256)":"38ed1739","swapTokensForExactANDE(uint256,uint256,address[],address,uint256)":"15ed85ba","swapTokensForExactTokens(uint256,uint256,address[],address,uint256)":"8803dbee"},"id":127}