{"abi":[{"type":"constructor","inputs":[{"name":"anEntryPoint","type":"address","internalType":"contract IEntryPoint"}],"stateMutability":"nonpayable"},{"type":"receive","stateMutability":"payable"},{"type":"function","name":"UPGRADE_INTERFACE_VERSION","inputs":[],"outputs":[{"name":"","type":"string","internalType":"string"}],"stateMutability":"view"},{"type":"function","name":"addDeposit","inputs":[],"outputs":[],"stateMutability":"payable"},{"type":"function","name":"entryPoint","inputs":[],"outputs":[{"name":"","type":"address","internalType":"contract IEntryPoint"}],"stateMutability":"view"},{"type":"function","name":"execute","inputs":[{"name":"dest","type":"address","internalType":"address"},{"name":"value","type":"uint256","internalType":"uint256"},{"name":"func","type":"bytes","internalType":"bytes"}],"outputs":[],"stateMutability":"nonpayable"},{"type":"function","name":"executeBatch","inputs":[{"name":"dest","type":"address[]","internalType":"address[]"},{"name":"func","type":"bytes[]","internalType":"bytes[]"}],"outputs":[],"stateMutability":"nonpayable"},{"type":"function","name":"getDeposit","inputs":[],"outputs":[{"name":"","type":"uint256","internalType":"uint256"}],"stateMutability":"view"},{"type":"function","name":"getNonce","inputs":[],"outputs":[{"name":"","type":"uint256","internalType":"uint256"}],"stateMutability":"view"},{"type":"function","name":"initialize","inputs":[{"name":"anOwner","type":"address","internalType":"address"}],"outputs":[],"stateMutability":"nonpayable"},{"type":"function","name":"owner","inputs":[],"outputs":[{"name":"","type":"address","internalType":"address"}],"stateMutability":"view"},{"type":"function","name":"proxiableUUID","inputs":[],"outputs":[{"name":"","type":"bytes32","internalType":"bytes32"}],"stateMutability":"view"},{"type":"function","name":"upgradeToAndCall","inputs":[{"name":"newImplementation","type":"address","internalType":"address"},{"name":"data","type":"bytes","internalType":"bytes"}],"outputs":[],"stateMutability":"payable"},{"type":"function","name":"validateUserOp","inputs":[{"name":"userOp","type":"tuple","internalType":"struct UserOperation","components":[{"name":"sender","type":"address","internalType":"address"},{"name":"nonce","type":"uint256","internalType":"uint256"},{"name":"initCode","type":"bytes","internalType":"bytes"},{"name":"callData","type":"bytes","internalType":"bytes"},{"name":"callGasLimit","type":"uint256","internalType":"uint256"},{"name":"verificationGasLimit","type":"uint256","internalType":"uint256"},{"name":"preVerificationGas","type":"uint256","internalType":"uint256"},{"name":"maxFeePerGas","type":"uint256","internalType":"uint256"},{"name":"maxPriorityFeePerGas","type":"uint256","internalType":"uint256"},{"name":"paymasterAndData","type":"bytes","internalType":"bytes"},{"name":"signature","type":"bytes","internalType":"bytes"}]},{"name":"userOpHash","type":"bytes32","internalType":"bytes32"},{"name":"missingAccountFunds","type":"uint256","internalType":"uint256"}],"outputs":[{"name":"validationData","type":"uint256","internalType":"uint256"}],"stateMutability":"nonpayable"},{"type":"function","name":"withdrawDepositTo","inputs":[{"name":"withdrawAddress","type":"address","internalType":"address payable"},{"name":"amount","type":"uint256","internalType":"uint256"}],"outputs":[],"stateMutability":"nonpayable"},{"type":"event","name":"Initialized","inputs":[{"name":"version","type":"uint64","indexed":false,"internalType":"uint64"}],"anonymous":false},{"type":"event","name":"SimpleAccountInitialized","inputs":[{"name":"entryPoint","type":"address","indexed":true,"internalType":"contract IEntryPoint"},{"name":"owner","type":"address","indexed":true,"internalType":"address"}],"anonymous":false},{"type":"event","name":"Upgraded","inputs":[{"name":"implementation","type":"address","indexed":true,"internalType":"address"}],"anonymous":false},{"type":"error","name":"AddressEmptyCode","inputs":[{"name":"target","type":"address","internalType":"address"}]},{"type":"error","name":"ECDSAInvalidSignature","inputs":[]},{"type":"error","name":"ECDSAInvalidSignatureLength","inputs":[{"name":"length","type":"uint256","internalType":"uint256"}]},{"type":"error","name":"ECDSAInvalidSignatureS","inputs":[{"name":"s","type":"bytes32","internalType":"bytes32"}]},{"type":"error","name":"ERC1967InvalidImplementation","inputs":[{"name":"implementation","type":"address","internalType":"address"}]},{"type":"error","name":"ERC1967NonPayable","inputs":[]},{"type":"error","name":"FailedInnerCall","inputs":[]},{"type":"error","name":"InvalidInitialization","inputs":[]},{"type":"error","name":"NotInitializing","inputs":[]},{"type":"error","name":"UUPSUnauthorizedCallContext","inputs":[]},{"type":"error","name":"UUPSUnsupportedProxiableUUID","inputs":[{"name":"slot","type":"bytes32","internalType":"bytes32"}]}],"bytecode":{"object":"0x60c034610142576001600160401b0390601f61113238819003918201601f1916830191848311848410176101465780849260209460405283398101031261014257516001600160a01b0381168103610142573060805260a0527ff0c57e16840df040f15088dc2f81fe391c3923bec73e23a9662efc9c229c6a009081549060ff8260401c166101305780808316036100eb575b604051610fd7908161015b82396080518181816104e10152610616015260a05181818161022e015281816102e10152818161038d01528181610715015281816107d50152818161099801528181610ac90152610c910152f35b6001600160401b031990911681179091556040519081527fc7f505b2f371ae2175ee4913f4499e1f2633a7b5936321eed1cdaeb6115181d290602090a15f8080610092565b60405163f92ee8a960e01b8152600490fd5b5f80fd5b634e487b7160e01b5f52604160045260245ffdfe6080604052600436101561001a575b3615610018575f80fd5b005b5f3560e01c806318dfb3c7146100e95780633a871cdd146100e45780634a58db19146100df5780634d44560d146100da5780634f1ef286146100d557806352d1902d146100d05780638da5cb5b146100cb578063ad3cb1cc146100c6578063b0d691fe146100c1578063b61d27f6146100bc578063c399ec88146100b7578063c4d66de8146100b25763d087d2880361000e57610967565b610835565b6107aa565b610744565b610700565b610694565b61066d565b610604565b61048d565b61035d565b6102d3565b6101fa565b610123565b9181601f8401121561011f5782359167ffffffffffffffff831161011f576020808501948460051b01011161011f57565b5f80fd5b3461011f57604036600319011261011f5767ffffffffffffffff60043581811161011f576101559036906004016100ee565b909160243590811161011f5761016f9036906004016100ee565b90610178610abf565b8183036101bf575f5b83811061018a57005b806101b961019e60019360051b8801610a03565b6101b36101ac848888610a43565b3691610457565b90610b7b565b01610181565b60405162461bcd60e51b815260206004820152601360248201527277726f6e67206172726179206c656e6774687360681b6044820152606490fd5b3461011f5760031960603682011261011f576004359067ffffffffffffffff821161011f5761016090823603011261011f577f00000000000000000000000000000000000000000000000000000000000000006001600160a01b0316330361028e5761026f61028a9160243590600401610b91565b61027a604435610bfe565b6040519081529081906020820190565b0390f35b60405162461bcd60e51b815260206004820152601c60248201527f6163636f756e743a206e6f742066726f6d20456e747279506f696e74000000006044820152606490fd5b5f8060031936011261011f577f00000000000000000000000000000000000000000000000000000000000000006001600160a01b0316803b1561011f575f6024916040519283809263b760faf960e01b825230600483015234905af180156103475761033d575080f35b6100189150610400565b610a72565b6001600160a01b0381160361011f57565b3461011f575f604036600319011261011f5760043561037b8161034c565b610383610c1b565b6001600160a01b037f000000000000000000000000000000000000000000000000000000000000000081169190823b1561011f5760445f9283604051958694859363040b850f60e31b855216600484015260243560248401525af180156103475761033d575080f35b634e487b7160e01b5f52604160045260245ffd5b67ffffffffffffffff811161041457604052565b6103ec565b90601f8019910116810190811067ffffffffffffffff82111761041457604052565b67ffffffffffffffff811161041457601f01601f191660200190565b9291926104638261043b565b916104716040519384610419565b82948184528183011161011f578281602093845f960137010152565b604036600319011261011f5760048035906104a78261034c565b60243567ffffffffffffffff811161011f573660238201121561011f576104d79036906024818501359101610457565b6001600160a01b037f000000000000000000000000000000000000000000000000000000000000000081163081149081156105e9575b506105d857906020839261051f610c1b565b6040516352d1902d60e01b8152938491829088165afa5f92816105a7575b5061056b575050604051634c9c8ce360e01b81526001600160a01b0390921690820190815281906020010390fd5b83835f80516020610f62833981519152840361058b576100188383610cd8565b604051632a87526960e21b815290810184815281906020010390fd5b6105ca91935060203d6020116105d1575b6105c28183610419565b810190610ab0565b915f61053d565b503d6105b8565b60405163703e46dd60e11b81528390fd5b9050815f80516020610f62833981519152541614155f61050d565b3461011f575f36600319011261011f577f00000000000000000000000000000000000000000000000000000000000000006001600160a01b0316300361065b5760206040515f80516020610f628339815191528152f35b60405163703e46dd60e11b8152600490fd5b3461011f575f36600319011261011f575f546040516001600160a01b039091168152602090f35b3461011f575f36600319011261011f57604080519080820182811067ffffffffffffffff821117610414578152600582526020820191640352e302e360dc1b83528151928391602083525180918160208501528484015e5f828201840152601f01601f19168101030190f35b3461011f575f36600319011261011f576040517f00000000000000000000000000000000000000000000000000000000000000006001600160a01b03168152602090f35b3461011f57606036600319011261011f576004356107618161034c565b6044359067ffffffffffffffff9081831161011f573660238401121561011f57826004013591821161011f57366024838501011161011f57602461001893019060243590610a7d565b3461011f575f36600319011261011f576040516370a0823160e01b81523060048201526020816024817f00000000000000000000000000000000000000000000000000000000000000006001600160a01b03165afa8015610347576020915f91610818575b50604051908152f35b61082f9150823d84116105d1576105c28183610419565b5f61080f565b3461011f57602036600319011261011f576004356108528161034c565b5f80516020610f82833981519152549067ffffffffffffffff60ff8360401c161592168015908161095f575b6001149081610955575b15908161094c575b5061093a575f80516020610f82833981519152805467ffffffffffffffff191660011790556108c3908261091157610c71565b6108c957005b5f80516020610f82833981519152805460ff60401b19169055604051600181527fc7f505b2f371ae2175ee4913f4499e1f2633a7b5936321eed1cdaeb6115181d290602090a1005b5f80516020610f82833981519152805460ff60401b191668010000000000000000179055610c71565b60405163f92ee8a960e01b8152600490fd5b9050155f610890565b303b159150610888565b83915061087e565b3461011f575f36600319011261011f57604051631aab3f0d60e11b81523060048201525f60248201526020816044817f00000000000000000000000000000000000000000000000000000000000000006001600160a01b03165afa80156103475761028a915f916109e4575b506040519081529081906020820190565b6109fd915060203d6020116105d1576105c28183610419565b5f6109d3565b35610a0d8161034c565b90565b903590601e198136030182121561011f570180359067ffffffffffffffff821161011f5760200191813603831361011f57565b90821015610a5e57610a5a9160051b810190610a10565b9091565b634e487b7160e01b5f52603260045260245ffd5b6040513d5f823e3d90fd5b610a8d5f949385946101ac610abf565b91602083519301915af1610a9f610b4c565b9015610aa85750565b602081519101fd5b9081602091031261011f575190565b60018060a01b03807f0000000000000000000000000000000000000000000000000000000000000000163314908115610b3f575b5015610afb57565b606460405162461bcd60e51b815260206004820152602060248201527f6163636f756e743a206e6f74204f776e6572206f7220456e747279506f696e746044820152fd5b90505f541633145f610af3565b3d15610b76573d90610b5d8261043b565b91610b6b6040519384610419565b82523d5f602084013e565b606090565b5f91829182602083519301915af1610a9f610b4c565b907f19457468657265756d205369676e6564204d6573736167653a0a3332000000005f52601c52603c5f20610bef610be660018060a01b0392610be06101ac855f541696610140810190610a10565b90610d7a565b90929192610dd2565b1603610bf9575f90565b600190565b80610c065750565b5f80808093338219f150610c18610b4c565b50565b5f546001600160a01b031633148015610c68575b15610c3657565b60405162461bcd60e51b815260206004820152600a60248201526937b7363c9037bbb732b960b11b6044820152606490fd5b50303314610c2f565b5f80546001600160a01b0319166001600160a01b039283169081178255917f000000000000000000000000000000000000000000000000000000000000000016907f47e55c76e7a6f1fd8996a1da8008c1ea29699cca35e7bcd057f2dec313b6e5de9080a3565b90813b15610d59575f80516020610f6283398151915280546001600160a01b0319166001600160a01b0384169081179091557fbc7cd75a20ee27fd9adebab32041f755214dbc6bffa90cc0225b39da2e5c2d3b5f80a2805115610d3e57610c1891610e5f565b505034610d4757565b60405163b398979f60e01b8152600490fd5b604051634c9c8ce360e01b81526001600160a01b0383166004820152602490fd5b8151919060418303610daa57610da39250602082015190606060408401519301515f1a90610e7c565b9192909190565b50505f9160029190565b60041115610dbe57565b634e487b7160e01b5f52602160045260245ffd5b610ddb81610db4565b80610de4575050565b610ded81610db4565b60018103610e075760405163f645eedf60e01b8152600490fd5b610e1081610db4565b60028103610e315760405163fce698f760e01b815260048101839052602490fd5b80610e3d600392610db4565b14610e455750565b6040516335e2f38360e21b81526004810191909152602490fd5b5f80610a0d93602081519101845af4610e76610b4c565b91610efe565b91907f7fffffffffffffffffffffffffffffff5d576e7357a4501ddfe92f46681b20a08411610ef3579160209360809260ff5f9560405194855216868401526040830152606082015282805260015afa15610347575f516001600160a01b03811615610ee957905f905f90565b505f906001905f90565b5050505f9160039190565b90610f255750805115610f1357805190602001fd5b604051630a12f52160e11b8152600490fd5b81511580610f58575b610f36575090565b604051639996b31560e01b81526001600160a01b039091166004820152602490fd5b50803b15610f2e56fe360894a13ba1a3210667c828492db98dca3e2076cc3735a920a3ca505d382bbcf0c57e16840df040f15088dc2f81fe391c3923bec73e23a9662efc9c229c6a00a2646970667358221220e5f52aefb5b56eaa580e4b32876c4129941606df53f094ff7f16b6a54e769e0564736f6c63430008190033","linkReferences":{}},"methodIdentifiers":{"UPGRADE_INTERFACE_VERSION()":"ad3cb1cc","addDeposit()":"4a58db19","entryPoint()":"b0d691fe","execute(address,uint256,bytes)":"b61d27f6","executeBatch(address[],bytes[])":"18dfb3c7","getDeposit()":"c399ec88","getNonce()":"d087d288","initialize(address)":"c4d66de8","owner()":"8da5cb5b","proxiableUUID()":"52d1902d","upgradeToAndCall(address,bytes)":"4f1ef286","validateUserOp((address,uint256,bytes,bytes,uint256,uint256,uint256,uint256,uint256,bytes,bytes),bytes32,uint256)":"3a871cdd","withdrawDepositTo(address,uint256)":"4d44560d"},"id":107}