{"abi":[{"type":"constructor","inputs":[{"name":"anEntryPoint","type":"address","internalType":"contract IEntryPoint"}],"stateMutability":"nonpayable"},{"type":"receive","stateMutability":"payable"},{"type":"function","name":"UPGRADE_INTERFACE_VERSION","inputs":[],"outputs":[{"name":"","type":"string","internalType":"string"}],"stateMutability":"view"},{"type":"function","name":"addDeposit","inputs":[],"outputs":[],"stateMutability":"payable"},{"type":"function","name":"entryPoint","inputs":[],"outputs":[{"name":"","type":"address","internalType":"contract IEntryPoint"}],"stateMutability":"view"},{"type":"function","name":"execute","inputs":[{"name":"dest","type":"address","internalType":"address"},{"name":"value","type":"uint256","internalType":"uint256"},{"name":"func","type":"bytes","internalType":"bytes"}],"outputs":[],"stateMutability":"nonpayable"},{"type":"function","name":"executeBatch","inputs":[{"name":"dest","type":"address[]","internalType":"address[]"},{"name":"func","type":"bytes[]","internalType":"bytes[]"}],"outputs":[],"stateMutability":"nonpayable"},{"type":"function","name":"getDeposit","inputs":[],"outputs":[{"name":"","type":"uint256","internalType":"uint256"}],"stateMutability":"view"},{"type":"function","name":"getNonce","inputs":[],"outputs":[{"name":"","type":"uint256","internalType":"uint256"}],"stateMutability":"view"},{"type":"function","name":"initialize","inputs":[{"name":"anOwner","type":"address","internalType":"address"}],"outputs":[],"stateMutability":"nonpayable"},{"type":"function","name":"owner","inputs":[],"outputs":[{"name":"","type":"address","internalType":"address"}],"stateMutability":"view"},{"type":"function","name":"proxiableUUID","inputs":[],"outputs":[{"name":"","type":"bytes32","internalType":"bytes32"}],"stateMutability":"view"},{"type":"function","name":"upgradeToAndCall","inputs":[{"name":"newImplementation","type":"address","internalType":"address"},{"name":"data","type":"bytes","internalType":"bytes"}],"outputs":[],"stateMutability":"payable"},{"type":"function","name":"validateUserOp","inputs":[{"name":"userOp","type":"tuple","internalType":"struct UserOperation","components":[{"name":"sender","type":"address","internalType":"address"},{"name":"nonce","type":"uint256","internalType":"uint256"},{"name":"initCode","type":"bytes","internalType":"bytes"},{"name":"callData","type":"bytes","internalType":"bytes"},{"name":"callGasLimit","type":"uint256","internalType":"uint256"},{"name":"verificationGasLimit","type":"uint256","internalType":"uint256"},{"name":"preVerificationGas","type":"uint256","internalType":"uint256"},{"name":"maxFeePerGas","type":"uint256","internalType":"uint256"},{"name":"maxPriorityFeePerGas","type":"uint256","internalType":"uint256"},{"name":"paymasterAndData","type":"bytes","internalType":"bytes"},{"name":"signature","type":"bytes","internalType":"bytes"}]},{"name":"userOpHash","type":"bytes32","internalType":"bytes32"},{"name":"missingAccountFunds","type":"uint256","internalType":"uint256"}],"outputs":[{"name":"validationData","type":"uint256","internalType":"uint256"}],"stateMutability":"nonpayable"},{"type":"function","name":"withdrawDepositTo","inputs":[{"name":"withdrawAddress","type":"address","internalType":"address payable"},{"name":"amount","type":"uint256","internalType":"uint256"}],"outputs":[],"stateMutability":"nonpayable"},{"type":"event","name":"Initialized","inputs":[{"name":"version","type":"uint64","indexed":false,"internalType":"uint64"}],"anonymous":false},{"type":"event","name":"SimpleAccountInitialized","inputs":[{"name":"entryPoint","type":"address","indexed":true,"internalType":"contract IEntryPoint"},{"name":"owner","type":"address","indexed":true,"internalType":"address"}],"anonymous":false},{"type":"event","name":"Upgraded","inputs":[{"name":"implementation","type":"address","indexed":true,"internalType":"address"}],"anonymous":false},{"type":"error","name":"AddressEmptyCode","inputs":[{"name":"target","type":"address","internalType":"address"}]},{"type":"error","name":"ECDSAInvalidSignature","inputs":[]},{"type":"error","name":"ECDSAInvalidSignatureLength","inputs":[{"name":"length","type":"uint256","internalType":"uint256"}]},{"type":"error","name":"ECDSAInvalidSignatureS","inputs":[{"name":"s","type":"bytes32","internalType":"bytes32"}]},{"type":"error","name":"ERC1967InvalidImplementation","inputs":[{"name":"implementation","type":"address","internalType":"address"}]},{"type":"error","name":"ERC1967NonPayable","inputs":[]},{"type":"error","name":"FailedInnerCall","inputs":[]},{"type":"error","name":"InvalidInitialization","inputs":[]},{"type":"error","name":"NotInitializing","inputs":[]},{"type":"error","name":"UUPSUnauthorizedCallContext","inputs":[]},{"type":"error","name":"UUPSUnsupportedProxiableUUID","inputs":[{"name":"slot","type":"bytes32","internalType":"bytes32"}]}],"bytecode":{"object":"0x60c034610142576001600160401b0390601f61162538819003918201601f1916830191848311848410176101465780849260209460405283398101031261014257516001600160a01b0381168103610142573060805260a0527ff0c57e16840df040f15088dc2f81fe391c3923bec73e23a9662efc9c229c6a009081549060ff8260401c166101305780808316036100eb575b6040516114ca908161015b82396080518181816105e701526107c5015260a0518181816102660152818161033f015281816104180152818161093f01528181610a2201528181610ccb01528181610e3901526110a40152f35b6001600160401b031990911681179091556040519081527fc7f505b2f371ae2175ee4913f4499e1f2633a7b5936321eed1cdaeb6115181d290602090a15f8080610092565b60405163f92ee8a960e01b8152600490fd5b5f80fd5b634e487b7160e01b5f52604160045260245ffdfe6080604052600436101561001a575b3615610018575f80fd5b005b5f3560e01c806318dfb3c7146100e95780633a871cdd146100e45780634a58db19146100df5780634d44560d146100da5780634f1ef286146100d557806352d1902d146100d05780638da5cb5b146100cb578063ad3cb1cc146100c6578063b0d691fe146100c1578063b61d27f6146100bc578063c399ec88146100b7578063c4d66de8146100b25763d087d2880361000e57610c6c565b610a7a565b6109c9565b610963565b610913565b610871565b61083f565b61079e565b610585565b6103d9565b61031c565b61021d565b610123565b9181601f8401121561011f5782359167ffffffffffffffff831161011f576020808501948460051b01011161011f57565b5f80fd5b3461011f57604060031936011261011f5767ffffffffffffffff60043581811161011f576101559036906004016100ee565b909160243590811161011f5761016f9036906004016100ee565b90610178610e21565b8183036101bf575f5b83811061018a57005b806101b961019e60019360051b8801610d2e565b6101b36101ac848888610d8c565b369161054f565b90610f05565b01610181565b60646040517f08c379a000000000000000000000000000000000000000000000000000000000815260206004820152601360248201527f77726f6e67206172726179206c656e67746873000000000000000000000000006044820152fd5b3461011f5760031960608136011261011f576004359067ffffffffffffffff821161011f5761016090823603011261011f5773ffffffffffffffffffffffffffffffffffffffff7f00000000000000000000000000000000000000000000000000000000000000001633036102be5761029f6102ba9160243590600401610f1b565b6102aa604435610f96565b6040519081529081906020820190565b0390f35b60646040517f08c379a000000000000000000000000000000000000000000000000000000000815260206004820152601c60248201527f6163636f756e743a206e6f742066726f6d20456e747279506f696e74000000006044820152fd5b5f8060031936011261011f5773ffffffffffffffffffffffffffffffffffffffff7f000000000000000000000000000000000000000000000000000000000000000016803b1561011f575f602491604051928380927fb760faf900000000000000000000000000000000000000000000000000000000825230600483015234905af180156103b6576103ac575080f35b61001891506104bb565b610dd4565b73ffffffffffffffffffffffffffffffffffffffff81160361011f57565b3461011f575f604060031936011261011f576004356103f7816103bb565b6103ff610fd2565b73ffffffffffffffffffffffffffffffffffffffff90817f00000000000000000000000000000000000000000000000000000000000000001691823b1561011f5760445f928360405195869485937f205c287800000000000000000000000000000000000000000000000000000000855216600484015260243560248401525af180156103b6576103ac575080f35b7f4e487b71000000000000000000000000000000000000000000000000000000005f52604160045260245ffd5b67ffffffffffffffff81116104cf57604052565b61048e565b90601f7fffffffffffffffffffffffffffffffffffffffffffffffffffffffffffffffe0910116810190811067ffffffffffffffff8211176104cf57604052565b67ffffffffffffffff81116104cf57601f017fffffffffffffffffffffffffffffffffffffffffffffffffffffffffffffffe01660200190565b92919261055b82610515565b9161056960405193846104d4565b82948184528183011161011f578281602093845f960137010152565b604060031936011261011f57600480359061059f826103bb565b60243567ffffffffffffffff811161011f573660238201121561011f576105cf903690602481850135910161054f565b73ffffffffffffffffffffffffffffffffffffffff807f000000000000000000000000000000000000000000000000000000000000000016803014908115610770575b50610747579060208392610624610fd2565b604051938480927f52d1902d00000000000000000000000000000000000000000000000000000000825288165afa5f9281610716575b506106ae5750506040517f4c9c8ce300000000000000000000000000000000000000000000000000000000815273ffffffffffffffffffffffffffffffffffffffff90921690820190815281906020010390fd5b83837f360894a13ba1a3210667c828492db98dca3e2076cc3735a920a3ca505d382bbc84036106e15761001883836110ea565b6040517faa1d49a400000000000000000000000000000000000000000000000000000000815290810184815281906020010390fd5b61073991935060203d602011610740575b61073181836104d4565b810190610e12565b915f61065a565b503d610727565b826040517fe07c8dba000000000000000000000000000000000000000000000000000000008152fd5b9050817f360894a13ba1a3210667c828492db98dca3e2076cc3735a920a3ca505d382bbc541614155f610612565b3461011f575f60031936011261011f5773ffffffffffffffffffffffffffffffffffffffff7f00000000000000000000000000000000000000000000000000000000000000001630036108155760206040517f360894a13ba1a3210667c828492db98dca3e2076cc3735a920a3ca505d382bbc8152f35b60046040517fe07c8dba000000000000000000000000000000000000000000000000000000008152fd5b3461011f575f60031936011261011f57602073ffffffffffffffffffffffffffffffffffffffff5f5416604051908152f35b3461011f575f60031936011261011f57604080519080820182811067ffffffffffffffff8211176104cf5781526005825260208201917f352e302e3000000000000000000000000000000000000000000000000000000083527fffffffffffffffffffffffffffffffffffffffffffffffffffffffffffffffe0601f8351948593602085525180918160208701528686015e5f85828601015201168101030190f35b3461011f575f60031936011261011f57602060405173ffffffffffffffffffffffffffffffffffffffff7f0000000000000000000000000000000000000000000000000000000000000000168152f35b3461011f57606060031936011261011f57600435610980816103bb565b6044359067ffffffffffffffff9081831161011f573660238401121561011f57826004013591821161011f57366024838501011161011f57602461001893019060243590610ddf565b3461011f575f60031936011261011f576040517f70a0823100000000000000000000000000000000000000000000000000000000815230600482015260208160248173ffffffffffffffffffffffffffffffffffffffff7f0000000000000000000000000000000000000000000000000000000000000000165afa80156103b6576020915f91610a5d575b50604051908152f35b610a749150823d84116107405761073181836104d4565b5f610a54565b3461011f57602060031936011261011f57600435610a97816103bb565b7ff0c57e16840df040f15088dc2f81fe391c3923bec73e23a9662efc9c229c6a00549067ffffffffffffffff60ff8360401c1615921680159081610c64575b6001149081610c5a575b159081610c51575b50610c2757610b4a9082610b417ff0c57e16840df040f15088dc2f81fe391c3923bec73e23a9662efc9c229c6a0060017fffffffffffffffffffffffffffffffffffffffffffffffff0000000000000000825416179055565b610bcb57611061565b610b5057005b610b9c7ff0c57e16840df040f15088dc2f81fe391c3923bec73e23a9662efc9c229c6a007fffffffffffffffffffffffffffffffffffffffffffffff00ffffffffffffffff8154169055565b604051600181527fc7f505b2f371ae2175ee4913f4499e1f2633a7b5936321eed1cdaeb6115181d290602090a1005b610c227ff0c57e16840df040f15088dc2f81fe391c3923bec73e23a9662efc9c229c6a00680100000000000000007fffffffffffffffffffffffffffffffffffffffffffffff00ffffffffffffffff825416179055565b611061565b60046040517ff92ee8a9000000000000000000000000000000000000000000000000000000008152fd5b9050155f610ae8565b303b159150610ae0565b839150610ad6565b3461011f575f60031936011261011f576040517f35567e1a0000000000000000000000000000000000000000000000000000000081523060048201525f602482015260208160448173ffffffffffffffffffffffffffffffffffffffff7f0000000000000000000000000000000000000000000000000000000000000000165afa80156103b6576102ba915f91610d0f575b506040519081529081906020820190565b610d28915060203d6020116107405761073181836104d4565b5f610cfe565b35610d38816103bb565b90565b9035907fffffffffffffffffffffffffffffffffffffffffffffffffffffffffffffffe18136030182121561011f570180359067ffffffffffffffff821161011f5760200191813603831361011f57565b90821015610da757610da39160051b810190610d3b565b9091565b7f4e487b71000000000000000000000000000000000000000000000000000000005f52603260045260245ffd5b6040513d5f823e3d90fd5b610def5f949385946101ac610e21565b91602083519301915af1610e01610ed6565b9015610e0a5750565b602081519101fd5b9081602091031261011f575190565b73ffffffffffffffffffffffffffffffffffffffff807f0000000000000000000000000000000000000000000000000000000000000000163314908115610ec9575b5015610e6b57565b60646040517f08c379a000000000000000000000000000000000000000000000000000000000815260206004820152602060248201527f6163636f756e743a206e6f74204f776e6572206f7220456e747279506f696e746044820152fd5b90505f541633145f610e63565b3d15610f00573d90610ee782610515565b91610ef560405193846104d4565b82523d5f602084013e565b606090565b5f91829182602083519301915af1610e01610ed6565b907f19457468657265756d205369676e6564204d6573736167653a0a3332000000005f52601c52603c5f20610f87610f7e73ffffffffffffffffffffffffffffffffffffffff92610f786101ac855f541696610140810190610d3b565b90611200565b90929192611271565b1603610f91575f90565b600190565b80610f9e5750565b5f80808093337ffffffffffffffffffffffffffffffffffffffffffffffffffffffffffffffffff150610fcf610ed6565b50565b73ffffffffffffffffffffffffffffffffffffffff5f541633148015611058575b15610ffa57565b60646040517f08c379a000000000000000000000000000000000000000000000000000000000815260206004820152600a60248201527f6f6e6c79206f776e6572000000000000000000000000000000000000000000006044820152fd5b50303314610ff3565b73ffffffffffffffffffffffffffffffffffffffff80911690817fffffffffffffffffffffffff00000000000000000000000000000000000000005f5416175f557f0000000000000000000000000000000000000000000000000000000000000000167f47e55c76e7a6f1fd8996a1da8008c1ea29699cca35e7bcd057f2dec313b6e5de5f80a3565b90813b156111b95773ffffffffffffffffffffffffffffffffffffffff82167f360894a13ba1a3210667c828492db98dca3e2076cc3735a920a3ca505d382bbc817fffffffffffffffffffffffff00000000000000000000000000000000000000008254161790557fbc7cd75a20ee27fd9adebab32041f755214dbc6bffa90cc0225b39da2e5c2d3b5f80a280511561118657610fcf91611348565b50503461118f57565b60046040517fb398979f000000000000000000000000000000000000000000000000000000008152fd5b60248273ffffffffffffffffffffffffffffffffffffffff604051917f4c9c8ce3000000000000000000000000000000000000000000000000000000008352166004820152fd5b8151919060418303611230576112299250602082015190606060408401519301515f1a90611365565b9192909190565b50505f9160029190565b6004111561124457565b7f4e487b71000000000000000000000000000000000000000000000000000000005f52602160045260245ffd5b61127a8161123a565b80611283575050565b61128c8161123a565b600181036112be5760046040517ff645eedf000000000000000000000000000000000000000000000000000000008152fd5b6112c78161123a565b60028103611301576040517ffce698f700000000000000000000000000000000000000000000000000000000815260048101839052602490fd5b8061130d60039261123a565b146113155750565b6040517fd78bce0c0000000000000000000000000000000000000000000000000000000081526004810191909152602490fd5b5f80610d3893602081519101845af461135f610ed6565b916113f4565b91907f7fffffffffffffffffffffffffffffff5d576e7357a4501ddfe92f46681b20a084116113e9579160209360809260ff5f9560405194855216868401526040830152606082015282805260015afa156103b6575f5173ffffffffffffffffffffffffffffffffffffffff8116156113df57905f905f90565b505f906001905f90565b5050505f9160039190565b90611433575080511561140957805190602001fd5b60046040517f1425ea42000000000000000000000000000000000000000000000000000000008152fd5b8151158061148b575b611444575090565b60249073ffffffffffffffffffffffffffffffffffffffff604051917f9996b315000000000000000000000000000000000000000000000000000000008352166004820152fd5b50803b1561143c56fea2646970667358221220a3b988601509b018142c346a2b99549a9c9f230d0071cbf7c44fb9bc3c5e0a7d64736f6c63430008190033","linkReferences":{}},"methodIdentifiers":{"UPGRADE_INTERFACE_VERSION()":"ad3cb1cc","addDeposit()":"4a58db19","entryPoint()":"b0d691fe","execute(address,uint256,bytes)":"b61d27f6","executeBatch(address[],bytes[])":"18dfb3c7","getDeposit()":"c399ec88","getNonce()":"d087d288","initialize(address)":"c4d66de8","owner()":"8da5cb5b","proxiableUUID()":"52d1902d","upgradeToAndCall(address,bytes)":"4f1ef286","validateUserOp((address,uint256,bytes,bytes,uint256,uint256,uint256,uint256,uint256,bytes,bytes),bytes32,uint256)":"3a871cdd","withdrawDepositTo(address,uint256)":"4d44560d"},"id":107}