{"abi":[{"type":"constructor","inputs":[],"stateMutability":"nonpayable"},{"type":"function","name":"FEE_HIGH","inputs":[],"outputs":[{"name":"","type":"uint24","internalType":"uint24"}],"stateMutability":"view"},{"type":"function","name":"FEE_LOW","inputs":[],"outputs":[{"name":"","type":"uint24","internalType":"uint24"}],"stateMutability":"view"},{"type":"function","name":"FEE_MEDIUM","inputs":[],"outputs":[{"name":"","type":"uint24","internalType":"uint24"}],"stateMutability":"view"},{"type":"function","name":"MAX_TICK","inputs":[],"outputs":[{"name":"","type":"int24","internalType":"int24"}],"stateMutability":"view"},{"type":"function","name":"MIN_LIQUIDITY","inputs":[],"outputs":[{"name":"","type":"uint128","internalType":"uint128"}],"stateMutability":"view"},{"type":"function","name":"MIN_TICK","inputs":[],"outputs":[{"name":"","type":"int24","internalType":"int24"}],"stateMutability":"view"},{"type":"function","name":"burn","inputs":[{"name":"tickLower","type":"int24","internalType":"int24"},{"name":"tickUpper","type":"int24","internalType":"int24"},{"name":"amount","type":"uint128","internalType":"uint128"}],"outputs":[{"name":"amount0","type":"uint256","internalType":"uint256"},{"name":"amount1","type":"uint256","internalType":"uint256"}],"stateMutability":"nonpayable"},{"type":"function","name":"factory","inputs":[],"outputs":[{"name":"","type":"address","internalType":"address"}],"stateMutability":"view"},{"type":"function","name":"fee","inputs":[],"outputs":[{"name":"","type":"uint24","internalType":"uint24"}],"stateMutability":"view"},{"type":"function","name":"feeGrowthGlobal0X128","inputs":[],"outputs":[{"name":"","type":"uint256","internalType":"uint256"}],"stateMutability":"view"},{"type":"function","name":"feeGrowthGlobal1X128","inputs":[],"outputs":[{"name":"","type":"uint256","internalType":"uint256"}],"stateMutability":"view"},{"type":"function","name":"initialize","inputs":[{"name":"sqrtPriceX96","type":"uint160","internalType":"uint160"}],"outputs":[],"stateMutability":"nonpayable"},{"type":"function","name":"liquidity","inputs":[],"outputs":[{"name":"","type":"uint128","internalType":"uint128"}],"stateMutability":"view"},{"type":"function","name":"mint","inputs":[{"name":"recipient","type":"address","internalType":"address"},{"name":"tickLower","type":"int24","internalType":"int24"},{"name":"tickUpper","type":"int24","internalType":"int24"},{"name":"amount","type":"uint128","internalType":"uint128"},{"name":"data","type":"bytes","internalType":"bytes"}],"outputs":[{"name":"amount0","type":"uint256","internalType":"uint256"},{"name":"amount1","type":"uint256","internalType":"uint256"}],"stateMutability":"nonpayable"},{"type":"function","name":"positions","inputs":[{"name":"","type":"bytes32","internalType":"bytes32"}],"outputs":[{"name":"liquidity","type":"uint128","internalType":"uint128"},{"name":"feeGrowthInside0LastX128","type":"uint256","internalType":"uint256"},{"name":"feeGrowthInside1LastX128","type":"uint256","internalType":"uint256"},{"name":"tokensOwed0","type":"uint128","internalType":"uint128"},{"name":"tokensOwed1","type":"uint128","internalType":"uint128"}],"stateMutability":"view"},{"type":"function","name":"slot0","inputs":[],"outputs":[{"name":"sqrtPriceX96","type":"uint160","internalType":"uint160"},{"name":"tick","type":"int24","internalType":"int24"},{"name":"observationIndex","type":"uint16","internalType":"uint16"},{"name":"observationCardinality","type":"uint16","internalType":"uint16"},{"name":"unlocked","type":"bool","internalType":"bool"}],"stateMutability":"view"},{"type":"function","name":"swap","inputs":[{"name":"recipient","type":"address","internalType":"address"},{"name":"zeroForOne","type":"bool","internalType":"bool"},{"name":"amountSpecified","type":"int256","internalType":"int256"},{"name":"sqrtPriceLimitX96","type":"uint160","internalType":"uint160"},{"name":"data","type":"bytes","internalType":"bytes"}],"outputs":[{"name":"amount0","type":"int256","internalType":"int256"},{"name":"amount1","type":"int256","internalType":"int256"}],"stateMutability":"nonpayable"},{"type":"function","name":"tickSpacing","inputs":[],"outputs":[{"name":"","type":"int24","internalType":"int24"}],"stateMutability":"view"},{"type":"function","name":"ticks","inputs":[{"name":"","type":"int24","internalType":"int24"}],"outputs":[{"name":"liquidityGross","type":"uint128","internalType":"uint128"},{"name":"liquidityNet","type":"int128","internalType":"int128"},{"name":"feeGrowthOutside0X128","type":"uint256","internalType":"uint256"},{"name":"feeGrowthOutside1X128","type":"uint256","internalType":"uint256"},{"name":"initialized","type":"bool","internalType":"bool"}],"stateMutability":"view"},{"type":"function","name":"token0","inputs":[],"outputs":[{"name":"","type":"address","internalType":"address"}],"stateMutability":"view"},{"type":"function","name":"token1","inputs":[],"outputs":[{"name":"","type":"address","internalType":"address"}],"stateMutability":"view"},{"type":"event","name":"Burn","inputs":[{"name":"owner","type":"address","indexed":true,"internalType":"address"},{"name":"tickLower","type":"int24","indexed":true,"internalType":"int24"},{"name":"tickUpper","type":"int24","indexed":false,"internalType":"int24"},{"name":"amount","type":"uint128","indexed":false,"internalType":"uint128"},{"name":"amount0","type":"uint256","indexed":false,"internalType":"uint256"},{"name":"amount1","type":"uint256","indexed":false,"internalType":"uint256"}],"anonymous":false},{"type":"event","name":"Mint","inputs":[{"name":"sender","type":"address","indexed":true,"internalType":"address"},{"name":"owner","type":"address","indexed":true,"internalType":"address"},{"name":"tickLower","type":"int24","indexed":true,"internalType":"int24"},{"name":"tickUpper","type":"int24","indexed":false,"internalType":"int24"},{"name":"amount","type":"uint128","indexed":false,"internalType":"uint128"},{"name":"amount0","type":"uint256","indexed":false,"internalType":"uint256"},{"name":"amount1","type":"uint256","indexed":false,"internalType":"uint256"}],"anonymous":false},{"type":"event","name":"Swap","inputs":[{"name":"sender","type":"address","indexed":true,"internalType":"address"},{"name":"recipient","type":"address","indexed":true,"internalType":"address"},{"name":"amount0","type":"int256","indexed":false,"internalType":"int256"},{"name":"amount1","type":"int256","indexed":false,"internalType":"int256"},{"name":"sqrtPriceX96","type":"uint160","indexed":false,"internalType":"uint160"},{"name":"liquidity","type":"uint128","indexed":false,"internalType":"uint128"},{"name":"tick","type":"int24","indexed":false,"internalType":"int24"}],"anonymous":false},{"type":"error","name":"InsufficientLiquidity","inputs":[]},{"type":"error","name":"InvalidAmount","inputs":[]},{"type":"error","name":"InvalidTick","inputs":[]},{"type":"error","name":"Locked","inputs":[]},{"type":"error","name":"PriceLimitReached","inputs":[]},{"type":"error","name":"ReentrancyGuardReentrantCall","inputs":[]}],"bytecode":{"object":"0x61012080604052346101205760015f55608090338252630890357360e41b81528181600481335afa90811561013f575f905f905f905f946100a7575b5061010093845260e05260c05260a0526001805460ff60d81b1916600160d81b179055604051611a7f929091908361015f8439518261041e015260a05182818161127f01526113a4015260c0518281816103720152611192015260e05182610321015251816103ae0152f35b9350505050813d8311610138575b601f8101601f191682016001600160401b03811183821017610124578391839160405281010312610120576100e98161014a565b906100f66020820161014a565b9060408101519062ffffff821682036101205760600151928360020b84036101205791905f61003b565b5f80fd5b634e487b7160e01b5f52604160045260245ffd5b503d6100b5565b6040513d5f823e3d90fd5b51906001600160a01b03821682036101205756fe6080806040526004361015610012575f80fd5b5f905f3560e01c9081630dfe16811461137a57508063128acb0814610a755780631a68650214610a4557806321b77d6314610a285780633850c7bd146109c25780633add5c05146109a55780633c8a7d8d146106c057806346141319146106a2578063514ea4bf1461063757806363075eb91461061a5780636882a888146105fc578063a1634b14146105c1578063a34123a714610442578063c45a0155146103f1578063ca216247146103d4578063d0c93a7c14610396578063d21220a714610345578063ddca3f4314610305578063f3058399146102e7578063f30dba931461026f5763f637731d14610105575f80fd5b3461026c57602060031936011261026c5761011e6113c8565b60015473ffffffffffffffffffffffffffffffffffffffff9081811661020e577b01000000000000000000000000000000000000000000000000000000927fffffffffff00000000000000000000000000000000000000000000000000000079010000000000000000000000000000000000000000000000000092600160807fffffffff00ffffffffffffffffffffffffffffffffffffffffffffffffffffff96604051956101cc87611439565b16948581528960208201528960408201528260608201520152161776ffffff00000000000000000000000000000000000000008560a01b161717161760015580f35b60646040517f08c379a000000000000000000000000000000000000000000000000000000000815260206004820152601360248201527f414c52454144595f494e495449414c495a4544000000000000000000000000006044820152fd5b80fd5b503461026c57602060031936011261026c57604060a09161028e611429565b60020b815260056020522080549060018101549060ff600360028301549201541691604051936fffffffffffffffffffffffffffffffff8116855260801d600f0b60208501526040840152606083015215156080820152f35b503461026c578060031936011261026c576020600254604051908152f35b503461026c578060031936011261026c57602060405162ffffff7f0000000000000000000000000000000000000000000000000000000000000000168152f35b503461026c578060031936011261026c57602060405173ffffffffffffffffffffffffffffffffffffffff7f0000000000000000000000000000000000000000000000000000000000000000168152f35b503461026c578060031936011261026c5760206040517f000000000000000000000000000000000000000000000000000000000000000060020b8152f35b503461026c578060031936011261026c576020604051610bb88152f35b503461026c578060031936011261026c57602060405173ffffffffffffffffffffffffffffffffffffffff7f0000000000000000000000000000000000000000000000000000000000000000168152f35b503461026c57606060031936011261026c5761045c611429565b610464611419565b90604435916fffffffffffffffffffffffffffffffff83168084036105bd576001549060ff8260d81c1615610593576040957f0c396cd989a39f4459b5fa1aed6a9a8dcdbc45908acfd67e028cd568da98982c947b01000000000000000000000000000000000000000000000000000000946105446105156001957fffffffff00ffffffffffffffffffffffffffffffffffffffffffffffffffffff809816875561050d6115a8565b600f0b6114aa565b928a519061052282611469565b33825260020b938460208301528360020b8c830152600f0b6060820152611750565b8a5160029390930b83526fffffffffffffffffffffffffffffffff999099166020830152604082018190526060820189905297963391608090a355600154161760015582519182526020820152f35b60046040517f0f2e5b6c000000000000000000000000000000000000000000000000000000008152fd5b5f80fd5b503461026c578060031936011261026c5760206040517ffffffffffffffffffffffffffffffffffffffffffffffffffffffffffff276188152f35b503461026c578060031936011261026c576020604051620d89e88152f35b503461026c578060031936011261026c5760206040516127108152f35b503461026c57602060031936011261026c57604060a09160043581526006602052206fffffffffffffffffffffffffffffffff9081815416916001820154916003600282015491015492604051948552602085015260408401528116606083015260801c6080820152f35b503461026c578060031936011261026c576020600354604051908152f35b503461026c5760a060031936011261026c576106da6113c8565b6106e2611419565b90604435918260020b918284036105bd57606435926fffffffffffffffffffffffffffffffff8416948585036105bd5760843567ffffffffffffffff8111610929576107329036906004016113eb565b9590966001549560ff8760d81c1615610593577fffffffff00ffffffffffffffffffffffffffffffffffffffffffffffffffffff8097166001556107746115a8565b811561097b5760020b9484861215610945577ffffffffffffffffffffffffffffffffffffffffffffffffffffffffffff276188612801561096f575b610945576107f79173ffffffffffffffffffffffffffffffffffffffff604051926107da84611469565b16958683528760208401526040830152600f0b6060820152611750565b969097881580159061093c575b6108a9575b505092600192604098927f7a53080ba414158be7ec69b987b5fb7d07dee101fe85488f0853ae16239d0bde897b0100000000000000000000000000000000000000000000000000000098976108918b8e51938493339785909493926fffffffffffffffffffffffffffffffff606093608084019760020b845216602083015260408201520152565b0390a455600154161760015582519182526020820152f35b8990333b15610938576108fe9260405193849283927f8bb71a490000000000000000000000000000000000000000000000000000000084528d60048501528c602485015260606044850152606484019161154b565b038183335af1801561092d57610915575b80610809565b61091f8991611455565b610929575f61090f565b8780fd5b6040513d8b823e3d90fd5b5080fd5b50871515610804565b60046040517fce8ef7fc000000000000000000000000000000000000000000000000000000008152fd5b50620d89e885136107b0565b60046040517f2c5211c6000000000000000000000000000000000000000000000000000000008152fd5b503461026c578060031936011261026c5760206040516101f48152f35b503461026c578060031936011261026c5760a060015460ff61ffff916040519273ffffffffffffffffffffffffffffffffffffffff8216845281851c60020b6020850152808260b81c1660408501528160c81c16606084015260d81c1615156080820152f35b503461026c578060031936011261026c5760206040516103e88152f35b503461026c578060031936011261026c5760206fffffffffffffffffffffffffffffffff60045416604051908152f35b50346105bd5760a06003193601126105bd57610a8f6113c8565b906024351515602435036105bd5773ffffffffffffffffffffffffffffffffffffffff60643516606435036105bd5760843567ffffffffffffffff81116105bd57610ade9036906004016113eb565b60015460ff8160d81c1615610593577fffffffff00ffffffffffffffffffffffffffffffffffffffffffffffffffffff16600155610b1a6115a8565b6044351561097b5760405193610b2f85611439565b60015473ffffffffffffffffffffffffffffffffffffffff811686528060a01c60020b602087015261ffff808260b81c1660408801528160c81c16606087015260ff8160d81c16151560808701526024355f1461137157600254955b6fffffffffffffffffffffffffffffffff60045416604051978860c081011067ffffffffffffffff60c08b011117610f695760c0890160405260443589525f60208a015273ffffffffffffffffffffffffffffffffffffffff841660408a01528360a01c60020b60608a0152608089015260a08801525b8651151580611335575b15610f96576040518060e081011067ffffffffffffffff60e083011117610f695760e081016040525f81525f60208201525f60408201525f606082015287610cfa608083015f8152610ced610ce660a08601925f8452606060c08801965f885273ffffffffffffffffffffffffffffffffffffffff6040820151168952015160020b60208801526024355f14610f635773ffffffffffffffffffffffffffffffffffffffff6064351615155b15610f45578d604073ffffffffffffffffffffffffffffffffffffffff6064355b1691015251855190611485565b8c51611492565b8b525160208b0151611492565b60208a01526fffffffffffffffffffffffffffffffff60a08a015116610ebc575b5073ffffffffffffffffffffffffffffffffffffffff60408901511673ffffffffffffffffffffffffffffffffffffffff60608301511681145f14610e9457506040810151610e0b575b60243515610dff576020015160020b7fffffffffffffffffffffffffffffffffffffffffffffffffffffffffffffffff017fffffffffffffffffffffffffffffffffffffffffffffffffffffffffff8000008112627fffff821317610dd2575b60020b6060880152610c02565b7f4e487b71000000000000000000000000000000000000000000000000000000005f52601160045260245ffd5b6020015160020b610dc5565b602081015160020b5f5260056020526fffffffffffffffffffffffffffffffff60405f205460801d602435610e86575b5f81600f0b125f14610e6e57610e6390610e5b8360a08d015116916114aa565b8316906114fd565b1660a0890152610d65565b60a08a0151610e819183169083166114d9565b610e63565b610e8f906114aa565b610e3b565b905173ffffffffffffffffffffffffffffffffffffffff1614610c02575f6060880152610c02565b51808060801b047001000000000000000000000000000000001481151715610dd2576fffffffffffffffffffffffffffffffff60a08a0151168015610f1857610f0d9160801b0460808a0151611485565b60808901525f610d1b565b7f4e487b71000000000000000000000000000000000000000000000000000000005f52601260045260245ffd5b8d604073ffffffffffffffffffffffffffffffffffffffff5f610cd9565b5f610cb8565b7f4e487b71000000000000000000000000000000000000000000000000000000005f52604160045260245ffd5b908692916020606085015191015160020b8160020b036112ce575b5050602435156112c15760808201516002555b6fffffffffffffffffffffffffffffffff60a0830151167fffffffffffffffffffffffffffffffff0000000000000000000000000000000060045416176004556024355f146112a85761101a8251604435611492565b936020830151935b602435156111bb578690818612611183575b333b15610938576110759260405193849283927fcd52a26b000000000000000000000000000000000000000000000000000000008452898b60048601611589565b038183335af1801561117857611160575b509360019173ffffffffffffffffffffffffffffffffffffffff6040965b8188840151169260606fffffffffffffffffffffffffffffffff60a08301511691015160020b908951948986528860208701528a8601526060850152608084015216907fc42079f94a6350d7e6235f29174924f928cc2ac818eb64fed8004e115fbcca6760a03392a3557b010000000000000000000000000000000000000000000000000000007fffffffff00ffffffffffffffffffffffffffffffffffffffffffffffffffffff600154161760015582519182526020820152f35b61116a8691611455565b6111745785611086565b8480fd5b6040513d88823e3d90fd5b6111b661118f8761151f565b857f00000000000000000000000000000000000000000000000000000000000000006115e1565b611034565b959192905f8612611270575b333b156105bd5761120a965f9160405198899283927fcd52a26b000000000000000000000000000000000000000000000000000000008452898b60048601611589565b038183335af19283156112655760409660019461123e575b5073ffffffffffffffffffffffffffffffffffffffff906110a4565b611249919350611455565b5f9173ffffffffffffffffffffffffffffffffffffffff611222565b6040513d5f823e3d90fd5b6112a361127c8761151f565b857f00000000000000000000000000000000000000000000000000000000000000006115e1565b6111c7565b6020820151936112bb8351604435611492565b93611022565b6080820151600355610fc4565b7fffffffffffffffffff000000000000000000000000000000000000000000000073ffffffffffffffffffffffffffffffffffffffff6040860151169160a01b76ffffff000000000000000000000000000000000000000016921617176001558580610fb1565b5073ffffffffffffffffffffffffffffffffffffffff6064351673ffffffffffffffffffffffffffffffffffffffff6040890151161415610c0c565b60035495610b8b565b346105bd575f6003193601126105bd5760209073ffffffffffffffffffffffffffffffffffffffff7f0000000000000000000000000000000000000000000000000000000000000000168152f35b6004359073ffffffffffffffffffffffffffffffffffffffff821682036105bd57565b9181601f840112156105bd5782359167ffffffffffffffff83116105bd57602083818601950101116105bd57565b602435908160020b82036105bd57565b600435908160020b82036105bd57565b60a0810190811067ffffffffffffffff821117610f6957604052565b67ffffffffffffffff8111610f6957604052565b6080810190811067ffffffffffffffff821117610f6957604052565b91908201809211610dd257565b81810392915f138015828513169184121617610dd257565b600f0b7fffffffffffffffffffffffffffffffff800000000000000000000000000000008114610dd2575f0390565b9190916fffffffffffffffffffffffffffffffff80809416911601918211610dd257565b6fffffffffffffffffffffffffffffffff9182169082160391908211610dd257565b7f80000000000000000000000000000000000000000000000000000000000000008114610dd2575f0390565b601f82602094937fffffffffffffffffffffffffffffffffffffffffffffffffffffffffffffffe093818652868601375f8582860101520116010190565b6115a5949260609282526020820152816040820152019161154b565b90565b60025f54146115b75760025f55565b60046040517f3ee5aeb5000000000000000000000000000000000000000000000000000000008152fd5b5f92918380936040519073ffffffffffffffffffffffffffffffffffffffff60208301947fa9059cbb00000000000000000000000000000000000000000000000000000000865216602483015260448201526044815261164081611469565b51925af13d156117495767ffffffffffffffff3d818111610f695760405191601f82017fffffffffffffffffffffffffffffffffffffffffffffffffffffffffffffffe0908116603f0116830190811183821017610f695760405281523d5f602083013e5b81611711575b50156116b357565b60646040517f08c379a000000000000000000000000000000000000000000000000000000000815260206004820152600f60248201527f5452414e534645525f4641494c454400000000000000000000000000000000006044820152fd5b8051801592508215611726575b50505f6116ab565b81925090602091810103126105bd576020015180151581036105bd575f8061171e565b60606116a5565b5f915f916020810180519160608101928351600f9381850b9260020b5f526005602052604091825f209060038201805460ff811615611a1b575b50505f8512156119f457506117be6fffffffffffffffffffffffffffffffff80835416906117b7876114aa565b16906114fd565b945b6fffffffffffffffffffffffffffffffff8096167fffffffffffffffffffffffffffffffff000000000000000000000000000000009581878554161760801d890b01927fffffffffffffffffffffffffffffffff80000000000000000000000000000000916f7fffffffffffffffffffffffffffffff9483811286821317610dd257889060801b1617905584820192835160020b908a5192838b0b925f52600560205289885f209460038601805460ff8116156119c6575b50505f8512156119b1575061189381865416610e5b866114aa565b1692838a8654161760801d8c0b0391821390821217610dd257879060801b1617905551915190518351917fffffffffffffffffffffffffffffffffffffffff000000000000000000000000602084019460601b16845260e81b603483015260e81b6037820152601a815282810181811067ffffffffffffffff821117610f695783525190205f5260066020525f2091845180850b80611936575b50505050505050565b90919395985083929497505f81125f146119a95761195491506114aa565b81165b1694859680515f81840b125f146119915750610e5b61197d92848754169251900b6114aa565b16908254161790555f80808080808061192d565b85546119a49350908416915083166114d9565b61197d565b508116611957565b85546119c19183169083166114d9565b611893565b7fffffffffffffffffffffffffffffffffffffffffffffffffffffffffffffff001660011790555f80611878565b8154611a15916fffffffffffffffffffffffffffffffff90811691166114d9565b946117c0565b7fffffffffffffffffffffffffffffffffffffffffffffffffffffffffffffff001660011790555f8061178a56fea2646970667358221220c8402f86fcec924861dd3acc2a3ef160fd104e77593709b97401bfe33909331164736f6c63430008190033","linkReferences":{}},"methodIdentifiers":{"FEE_HIGH()":"63075eb9","FEE_LOW()":"3add5c05","FEE_MEDIUM()":"ca216247","MAX_TICK()":"6882a888","MIN_LIQUIDITY()":"21b77d63","MIN_TICK()":"a1634b14","burn(int24,int24,uint128)":"a34123a7","factory()":"c45a0155","fee()":"ddca3f43","feeGrowthGlobal0X128()":"f3058399","feeGrowthGlobal1X128()":"46141319","initialize(uint160)":"f637731d","liquidity()":"1a686502","mint(address,int24,int24,uint128,bytes)":"3c8a7d8d","positions(bytes32)":"514ea4bf","slot0()":"3850c7bd","swap(address,bool,int256,uint160,bytes)":"128acb08","tickSpacing()":"d0c93a7c","ticks(int24)":"f30dba93","token0()":"0dfe1681","token1()":"d21220a7"},"id":128}