{"abi":[{"type":"constructor","inputs":[],"stateMutability":"nonpayable"},{"type":"function","name":"FEE_HIGH","inputs":[],"outputs":[{"name":"","type":"uint24","internalType":"uint24"}],"stateMutability":"view"},{"type":"function","name":"FEE_LOW","inputs":[],"outputs":[{"name":"","type":"uint24","internalType":"uint24"}],"stateMutability":"view"},{"type":"function","name":"FEE_MEDIUM","inputs":[],"outputs":[{"name":"","type":"uint24","internalType":"uint24"}],"stateMutability":"view"},{"type":"function","name":"MAX_TICK","inputs":[],"outputs":[{"name":"","type":"int24","internalType":"int24"}],"stateMutability":"view"},{"type":"function","name":"MIN_LIQUIDITY","inputs":[],"outputs":[{"name":"","type":"uint128","internalType":"uint128"}],"stateMutability":"view"},{"type":"function","name":"MIN_TICK","inputs":[],"outputs":[{"name":"","type":"int24","internalType":"int24"}],"stateMutability":"view"},{"type":"function","name":"burn","inputs":[{"name":"tickLower","type":"int24","internalType":"int24"},{"name":"tickUpper","type":"int24","internalType":"int24"},{"name":"amount","type":"uint128","internalType":"uint128"}],"outputs":[{"name":"amount0","type":"uint256","internalType":"uint256"},{"name":"amount1","type":"uint256","internalType":"uint256"}],"stateMutability":"nonpayable"},{"type":"function","name":"factory","inputs":[],"outputs":[{"name":"","type":"address","internalType":"address"}],"stateMutability":"view"},{"type":"function","name":"fee","inputs":[],"outputs":[{"name":"","type":"uint24","internalType":"uint24"}],"stateMutability":"view"},{"type":"function","name":"feeGrowthGlobal0X128","inputs":[],"outputs":[{"name":"","type":"uint256","internalType":"uint256"}],"stateMutability":"view"},{"type":"function","name":"feeGrowthGlobal1X128","inputs":[],"outputs":[{"name":"","type":"uint256","internalType":"uint256"}],"stateMutability":"view"},{"type":"function","name":"initialize","inputs":[{"name":"sqrtPriceX96","type":"uint160","internalType":"uint160"}],"outputs":[],"stateMutability":"nonpayable"},{"type":"function","name":"liquidity","inputs":[],"outputs":[{"name":"","type":"uint128","internalType":"uint128"}],"stateMutability":"view"},{"type":"function","name":"mint","inputs":[{"name":"recipient","type":"address","internalType":"address"},{"name":"tickLower","type":"int24","internalType":"int24"},{"name":"tickUpper","type":"int24","internalType":"int24"},{"name":"amount","type":"uint128","internalType":"uint128"},{"name":"data","type":"bytes","internalType":"bytes"}],"outputs":[{"name":"amount0","type":"uint256","internalType":"uint256"},{"name":"amount1","type":"uint256","internalType":"uint256"}],"stateMutability":"nonpayable"},{"type":"function","name":"positions","inputs":[{"name":"","type":"bytes32","internalType":"bytes32"}],"outputs":[{"name":"liquidity","type":"uint128","internalType":"uint128"},{"name":"feeGrowthInside0LastX128","type":"uint256","internalType":"uint256"},{"name":"feeGrowthInside1LastX128","type":"uint256","internalType":"uint256"},{"name":"tokensOwed0","type":"uint128","internalType":"uint128"},{"name":"tokensOwed1","type":"uint128","internalType":"uint128"}],"stateMutability":"view"},{"type":"function","name":"slot0","inputs":[],"outputs":[{"name":"sqrtPriceX96","type":"uint160","internalType":"uint160"},{"name":"tick","type":"int24","internalType":"int24"},{"name":"observationIndex","type":"uint16","internalType":"uint16"},{"name":"observationCardinality","type":"uint16","internalType":"uint16"},{"name":"unlocked","type":"bool","internalType":"bool"}],"stateMutability":"view"},{"type":"function","name":"swap","inputs":[{"name":"recipient","type":"address","internalType":"address"},{"name":"zeroForOne","type":"bool","internalType":"bool"},{"name":"amountSpecified","type":"int256","internalType":"int256"},{"name":"sqrtPriceLimitX96","type":"uint160","internalType":"uint160"},{"name":"data","type":"bytes","internalType":"bytes"}],"outputs":[{"name":"amount0","type":"int256","internalType":"int256"},{"name":"amount1","type":"int256","internalType":"int256"}],"stateMutability":"nonpayable"},{"type":"function","name":"tickSpacing","inputs":[],"outputs":[{"name":"","type":"int24","internalType":"int24"}],"stateMutability":"view"},{"type":"function","name":"ticks","inputs":[{"name":"","type":"int24","internalType":"int24"}],"outputs":[{"name":"liquidityGross","type":"uint128","internalType":"uint128"},{"name":"liquidityNet","type":"int128","internalType":"int128"},{"name":"feeGrowthOutside0X128","type":"uint256","internalType":"uint256"},{"name":"feeGrowthOutside1X128","type":"uint256","internalType":"uint256"},{"name":"initialized","type":"bool","internalType":"bool"}],"stateMutability":"view"},{"type":"function","name":"token0","inputs":[],"outputs":[{"name":"","type":"address","internalType":"address"}],"stateMutability":"view"},{"type":"function","name":"token1","inputs":[],"outputs":[{"name":"","type":"address","internalType":"address"}],"stateMutability":"view"},{"type":"event","name":"Burn","inputs":[{"name":"owner","type":"address","indexed":true,"internalType":"address"},{"name":"tickLower","type":"int24","indexed":true,"internalType":"int24"},{"name":"tickUpper","type":"int24","indexed":false,"internalType":"int24"},{"name":"amount","type":"uint128","indexed":false,"internalType":"uint128"},{"name":"amount0","type":"uint256","indexed":false,"internalType":"uint256"},{"name":"amount1","type":"uint256","indexed":false,"internalType":"uint256"}],"anonymous":false},{"type":"event","name":"Mint","inputs":[{"name":"sender","type":"address","indexed":true,"internalType":"address"},{"name":"owner","type":"address","indexed":true,"internalType":"address"},{"name":"tickLower","type":"int24","indexed":true,"internalType":"int24"},{"name":"tickUpper","type":"int24","indexed":false,"internalType":"int24"},{"name":"amount","type":"uint128","indexed":false,"internalType":"uint128"},{"name":"amount0","type":"uint256","indexed":false,"internalType":"uint256"},{"name":"amount1","type":"uint256","indexed":false,"internalType":"uint256"}],"anonymous":false},{"type":"event","name":"Swap","inputs":[{"name":"sender","type":"address","indexed":true,"internalType":"address"},{"name":"recipient","type":"address","indexed":true,"internalType":"address"},{"name":"amount0","type":"int256","indexed":false,"internalType":"int256"},{"name":"amount1","type":"int256","indexed":false,"internalType":"int256"},{"name":"sqrtPriceX96","type":"uint160","indexed":false,"internalType":"uint160"},{"name":"liquidity","type":"uint128","indexed":false,"internalType":"uint128"},{"name":"tick","type":"int24","indexed":false,"internalType":"int24"}],"anonymous":false},{"type":"error","name":"InsufficientLiquidity","inputs":[]},{"type":"error","name":"InvalidAmount","inputs":[]},{"type":"error","name":"InvalidTick","inputs":[]},{"type":"error","name":"Locked","inputs":[]},{"type":"error","name":"PriceLimitReached","inputs":[]},{"type":"error","name":"ReentrancyGuardReentrantCall","inputs":[]}],"bytecode":{"object":"0x61012080604052346101205760015f55608090338252630890357360e41b81528181600481335afa90811561013f575f905f905f905f946100a7575b5061010093845260e05260c05260a0526001805460ff60d81b1916600160d81b17905560405161145d929091908361015f84395182610354015260a051828181610e4a0152610f05015260c0518281816102b40152610d9f015260e0518261027a015251816102fb0152f35b9350505050813d8311610138575b601f8101601f191682016001600160401b03811183821017610124578391839160405281010312610120576100e98161014a565b906100f66020820161014a565b9060408101519062ffffff821682036101205760600151928360020b84036101205791905f61003b565b5f80fd5b634e487b7160e01b5f52604160045260245ffd5b503d6100b5565b6040513d5f823e3d90fd5b51906001600160a01b03821682036101205756fe6080806040526004361015610012575f80fd5b5f905f3560e01c9081630dfe168114610ef357508063128acb08146108685780631a6865021461084157806321b77d63146108245780633850c7bd146107cd5780633add5c05146107b05780633c8a7d8d1461057f5780634614131914610561578063514ea4bf146104ff57806363075eb9146104e25780636882a888146104c4578063a1634b14146104a5578063a34123a714610383578063c45a01551461033e578063ca21624714610321578063d0c93a7c146102e3578063d21220a71461029e578063ddca3f431461025e578063f305839914610240578063f30dba93146101d15763f637731d14610105575f80fd5b346101ce5760203660031901126101ce5761011e610f34565b600154906001600160a01b038083166101935760806001916040519361014385610f98565b1680845260208401869052604084018690526060840183905292015260a083901b62ffffff60a01b166001600160d81b03199092161717600160c81b1760ff60d81b1916600160d81b1760015580f35b60405162461bcd60e51b81526020600482015260136024820152721053149150511657d253925512505312569151606a1b6044820152606490fd5b80fd5b50346101ce5760203660031901126101ce57604060a0916101f0610f88565b60020b815260056020522080549060018101549060ff600360028301549201541691604051936001600160801b038116855260801d600f0b60208501526040840152606083015215156080820152f35b50346101ce57806003193601126101ce576020600254604051908152f35b50346101ce57806003193601126101ce57602060405162ffffff7f0000000000000000000000000000000000000000000000000000000000000000168152f35b50346101ce57806003193601126101ce576040517f00000000000000000000000000000000000000000000000000000000000000006001600160a01b03168152602090f35b50346101ce57806003193601126101ce5760206040517f000000000000000000000000000000000000000000000000000000000000000060020b8152f35b50346101ce57806003193601126101ce576020604051610bb88152f35b50346101ce57806003193601126101ce576040517f00000000000000000000000000000000000000000000000000000000000000006001600160a01b03168152602090f35b50346101ce5760603660031901126101ce5761039d610f88565b906103a6610f78565b604435916001600160801b0383168084036104a1576001549160ff8360d81c161561048f576040957f0c396cd989a39f4459b5fa1aed6a9a8dcdbc45908acfd67e028cd568da98982c9461044361041460019560ff60d81b19809816875561040c6110ac565b600f0b611009565b9289519061042182610fc8565b33825260020b938460208301528360020b8b830152600f0b60608201526111d0565b895160029390930b83526001600160801b03989098166020830152604082018190526060820188905296953391608090a355600160d81b90600154161760015582519182526020820152f35b6040516303cb96db60e21b8152600490fd5b5f80fd5b50346101ce57806003193601126101ce576020604051620d89e7198152f35b50346101ce57806003193601126101ce576020604051620d89e88152f35b50346101ce57806003193601126101ce5760206040516127108152f35b50346101ce5760203660031901126101ce57604060a09160043581526006602052206001600160801b039081815416916001820154916003600282015491015492604051948552602085015260408401528116606083015260801c6080820152f35b50346101ce57806003193601126101ce576020600354604051908152f35b50346101ce5760a03660031901126101ce57610599610f34565b6105a1610f78565b90604435918260020b918284036104a157606435926001600160801b038416948585036104a15760843567ffffffffffffffff8111610764576105e8903690600401610f4a565b9590966001549560ff8760d81c161561048f5760ff60d81b1996871660015561060f6110ac565b811561079e5760020b948486121561078057620d89e71986128015610792575b6107805761066c916040519161064483610fc8565b6001600160a01b0316808352602083018890526040830196909652600f0b60608201526111d0565b9690978815801590610777575b6106fd575b505091600193917f7a53080ba414158be7ec69b987b5fb7d07dee101fe85488f0853ae16239d0bde8860409a956106df8a8d51938493339785909493926001600160801b03606093608084019760020b845216602083015260408201520152565b0390a455600160d81b90600154161760015582519182526020820152f35b8990333b1561077357610739926040519384928392638bb71a4960e01b84528d60048501528c602485015260606044850152606484019161106d565b038183335af1801561076857610750575b8061067e565b61075a8991610fb4565b610764575f61074a565b8780fd5b6040513d8b823e3d90fd5b5080fd5b50871515610679565b6040516333a3bdff60e21b8152600490fd5b50620d89e8851361062f565b60405163162908e360e11b8152600490fd5b50346101ce57806003193601126101ce5760206040516101f48152f35b50346101ce57806003193601126101ce5760a060015460ff61ffff9160405192600180861b038216845281851c60020b6020850152808260b81c1660408501528160c81c16606084015260d81c1615156080820152f35b50346101ce57806003193601126101ce5760206040516103e88152f35b50346101ce57806003193601126101ce5760206001600160801b0360045416604051908152f35b50346104a15760a03660031901126104a157610882610f34565b906024351515602435036104a1576064356001600160a01b03811690036104a15760843567ffffffffffffffff81116104a1576108c3903690600401610f4a565b60015460ff8160d81c161561048f5760ff60d81b19166001556108e46110ac565b6044351561079e57604051936108f985610f98565b60015460018060a01b03811686528060a01c60020b602087015261ffff808260b81c1660408801528160c81c16606087015260ff8160d81c16151560808701526024355f14610eea57600254955b6001600160801b0360045416604051978860c081011067ffffffffffffffff60c08b011117610c0e5760c0890160405260443589525f60208a015260018060a01b03841660408a01528360a01c60020b60608a0152608089015260a08801525b8651151580610ecd575b15610c22576040518060e081011067ffffffffffffffff60e083011117610c0e5760e081016040525f81525f60208201525f60408201525f606082015287610a77608083015f8152610a6a610a6360a08601925f8452606060c08801965f885260018060a01b036040820151168952015160020b60208801526024355f14610c08576064356001600160a01b031615155b15610bff578d60406064355b6001600160a01b031691015251855190610fe4565b8c51610ff1565b8b525160208b0151610ff1565b60208a01526001600160801b0360a08a015116610ba5575b50604088015160608201516001600160a01b0391821691168103610b8a57506040810151610b0a575b60243515610afe576020015160020b5f1901627fffff198112627fffff821317610aea575b60020b60608801526109a7565b634e487b7160e01b5f52601160045260245ffd5b6020015160020b610add565b602081015160020b5f5260056020526001600160801b0360405f205460801d602435610b7c575b5f81600f0b125f14610b6457610b5990610b518360a08d01511691611009565b831690611044565b1660a0890152610ab8565b60a08a0151610b77918316908316611029565b610b59565b610b8590611009565b610b31565b90516001600160a01b0316146109a7575f60608801526109a7565b51808060801b04600160801b1481151715610aea576001600160801b0360a08a0151168015610beb57610be09160801b0460808a0151610fe4565b60808901525f610a8f565b634e487b7160e01b5f52601260045260245ffd5b8d60405f610a4e565b5f610a42565b634e487b7160e01b5f52604160045260245ffd5b908692916020606085015191015160020b8160020b03610e99575b505060243515610e8c5760808201516002555b6001600160801b0360a0830151166001600160801b031960045416176004556024355f14610e7357610c858251604435610ff1565b936020830151935b60243515610dc8578690818612610d90575b333b156107735760405163cd52a26b60e01b81529283918291610cc89190898b6004860161108d565b038183335af18015610d8557610d6d575b50936001916040955b838060a01b0387830151169160606001600160801b0360a08301511691015160020b908851938885528760208601528985015260608401526080830152838060a01b0316907fc42079f94a6350d7e6235f29174924f928cc2ac818eb64fed8004e115fbcca6760a03392a3556001805460ff60d81b1916600160d81b17905582519182526020820152f35b610d778691610fb4565b610d815785610cd9565b8480fd5b6040513d88823e3d90fd5b610dc3610d9c8761105d565b857f00000000000000000000000000000000000000000000000000000000000000006110cd565b610c9f565b959192905f8612610e3b575b333b156104a15760405163cd52a26b60e01b8152965f9188918291610dff9190898b6004860161108d565b038183335af1928315610e3057604096600194610e1d575b50610ce2565b610e28919350610fb4565b5f9187610e17565b6040513d5f823e3d90fd5b610e6e610e478761105d565b857f00000000000000000000000000000000000000000000000000000000000000006110cd565b610dd4565b602082015193610e868351604435610ff1565b93610c8d565b6080820151600355610c50565b60018060a01b036040850151169060a01b62ffffff60a01b169168ffffffffffffffffff60b81b1617176001558580610c3d565b5060408701516064356001600160a01b03908116911614156109b1565b60035495610947565b346104a1575f3660031901126104a1577f00000000000000000000000000000000000000000000000000000000000000006001600160a01b03168152602090f35b600435906001600160a01b03821682036104a157565b9181601f840112156104a15782359167ffffffffffffffff83116104a157602083818601950101116104a157565b602435908160020b82036104a157565b600435908160020b82036104a157565b60a0810190811067ffffffffffffffff821117610c0e57604052565b67ffffffffffffffff8111610c0e57604052565b6080810190811067ffffffffffffffff821117610c0e57604052565b91908201809211610aea57565b81810392915f138015828513169184121617610aea57565b600f0b6f7fffffffffffffffffffffffffffffff198114610aea575f0390565b9190916001600160801b0380809416911601918211610aea57565b6001600160801b039182169082160391908211610aea57565b600160ff1b8114610aea575f0390565b908060209392818452848401375f828201840152601f01601f1916010190565b6110a9949260609282526020820152816040820152019161106d565b90565b60025f54146110bb5760025f55565b604051633ee5aeb560e01b8152600490fd5b5f929183809360405190602082019363a9059cbb60e01b855260018060a01b0316602483015260448201526044815261110581610fc8565b51925af13d156111c95767ffffffffffffffff3d818111610c0e5760405191601f8201601f19908116603f0116830190811183821017610c0e5760405281523d5f602083013e5b81611191575b501561115a57565b60405162461bcd60e51b815260206004820152600f60248201526e1514905394d1915497d19052531151608a1b6044820152606490fd5b80518015925082156111a6575b50505f611152565b81925090602091810103126104a1576020015180151581036104a1575f8061119e565b606061114c565b5f915f916020810180519160608101928351600f9381850b9260020b5f526005602052604091825f209060038201805460ff811615611417575b50505f8512156113f957506112356001600160801b03808354169061122e87611009565b1690611044565b945b6001600160801b038096166001600160801b03199581878554161760801d890b019260016001607f1b03199160016001607f1b039483811286821317610aea57889060801b1617905584820192835160020b908a5192838b0b925f52600560205289885f209460038601805460ff8116156113e9575b50505f8512156113d457506112c881865416610b5186611009565b1692838a8654161760801d8c0b0391821390821217610aea57879060801b16179055519151905183519160208301936bffffffffffffffffffffffff199060601b16845260e81b603483015260e81b6037820152601a815282810181811067ffffffffffffffff821117610c0e5783525190205f5260066020525f2091845180850b80611359575b50505050505050565b90919395985083929497505f81125f146113cc576113779150611009565b81165b1694859680515f81840b125f146113b45750610b516113a092848754169251900b611009565b16908254161790555f808080808080611350565b85546113c7935090841691508316611029565b6113a0565b50811661137a565b85546113e4918316908316611029565b6112c8565b60ff191660011790555f806112ad565b8154611411916001600160801b039081169116611029565b94611237565b60ff191660011790555f8061120a56fea26469706673582212207451c320a416bd39ba34b5cdac0e8981f39425229205f82c657239a69a46ee2264736f6c63430008190033","linkReferences":{}},"methodIdentifiers":{"FEE_HIGH()":"63075eb9","FEE_LOW()":"3add5c05","FEE_MEDIUM()":"ca216247","MAX_TICK()":"6882a888","MIN_LIQUIDITY()":"21b77d63","MIN_TICK()":"a1634b14","burn(int24,int24,uint128)":"a34123a7","factory()":"c45a0155","fee()":"ddca3f43","feeGrowthGlobal0X128()":"f3058399","feeGrowthGlobal1X128()":"46141319","initialize(uint160)":"f637731d","liquidity()":"1a686502","mint(address,int24,int24,uint128,bytes)":"3c8a7d8d","positions(bytes32)":"514ea4bf","slot0()":"3850c7bd","swap(address,bool,int256,uint160,bytes)":"128acb08","tickSpacing()":"d0c93a7c","ticks(int24)":"f30dba93","token0()":"0dfe1681","token1()":"d21220a7"},"id":128}