{"abi":[{"type":"constructor","inputs":[{"name":"_andeSwapFactory","type":"address","internalType":"address"},{"name":"_andeSwapRouter","type":"address","internalType":"address"},{"name":"_andeToken","type":"address","internalType":"address"},{"name":"_feeRecipient","type":"address","internalType":"address"}],"stateMutability":"nonpayable"},{"type":"receive","stateMutability":"payable"},{"type":"function","name":"MAX_SUPPLY","inputs":[],"outputs":[{"name":"","type":"uint256","internalType":"uint256"}],"stateMutability":"view"},{"type":"function","name":"MIN_CREATION_FEE","inputs":[],"outputs":[{"name":"","type":"uint256","internalType":"uint256"}],"stateMutability":"view"},{"type":"function","name":"MIN_LOCK_DURATION","inputs":[],"outputs":[{"name":"","type":"uint256","internalType":"uint256"}],"stateMutability":"view"},{"type":"function","name":"allTokens","inputs":[{"name":"","type":"uint256","internalType":"uint256"}],"outputs":[{"name":"","type":"address","internalType":"address"}],"stateMutability":"view"},{"type":"function","name":"andeSwapFactory","inputs":[],"outputs":[{"name":"","type":"address","internalType":"address"}],"stateMutability":"view"},{"type":"function","name":"andeSwapRouter","inputs":[],"outputs":[{"name":"","type":"address","internalType":"address"}],"stateMutability":"view"},{"type":"function","name":"andeToken","inputs":[],"outputs":[{"name":"","type":"address","internalType":"address"}],"stateMutability":"view"},{"type":"function","name":"autoListToken","inputs":[{"name":"tokenAddress","type":"address","internalType":"address"},{"name":"andeAmount","type":"uint256","internalType":"uint256"},{"name":"lockDuration","type":"uint256","internalType":"uint256"}],"outputs":[],"stateMutability":"nonpayable"},{"type":"function","name":"createBurnableToken","inputs":[{"name":"name","type":"string","internalType":"string"},{"name":"symbol","type":"string","internalType":"string"},{"name":"totalSupply","type":"uint256","internalType":"uint256"},{"name":"","type":"uint256","internalType":"uint256"}],"outputs":[{"name":"token","type":"address","internalType":"address"}],"stateMutability":"payable"},{"type":"function","name":"createMintableToken","inputs":[{"name":"name","type":"string","internalType":"string"},{"name":"symbol","type":"string","internalType":"string"},{"name":"initialSupply","type":"uint256","internalType":"uint256"},{"name":"maxSupply","type":"uint256","internalType":"uint256"}],"outputs":[{"name":"token","type":"address","internalType":"address"}],"stateMutability":"payable"},{"type":"function","name":"createReflectionToken","inputs":[{"name":"name","type":"string","internalType":"string"},{"name":"symbol","type":"string","internalType":"string"},{"name":"totalSupply","type":"uint256","internalType":"uint256"},{"name":"reflectionFee","type":"uint256","internalType":"uint256"}],"outputs":[{"name":"token","type":"address","internalType":"address"}],"stateMutability":"payable"},{"type":"function","name":"createStandardToken","inputs":[{"name":"name","type":"string","internalType":"string"},{"name":"symbol","type":"string","internalType":"string"},{"name":"totalSupply","type":"uint256","internalType":"uint256"},{"name":"autoList","type":"bool","internalType":"bool"},{"name":"initialLiquidity","type":"uint256","internalType":"uint256"}],"outputs":[{"name":"token","type":"address","internalType":"address"}],"stateMutability":"payable"},{"type":"function","name":"createTaxableToken","inputs":[{"name":"name","type":"string","internalType":"string"},{"name":"symbol","type":"string","internalType":"string"},{"name":"totalSupply","type":"uint256","internalType":"uint256"},{"name":"taxConfig","type":"tuple","internalType":"struct AndeTokenFactory.TaxConfig","components":[{"name":"buyTax","type":"uint256","internalType":"uint256"},{"name":"sellTax","type":"uint256","internalType":"uint256"},{"name":"taxRecipient","type":"address","internalType":"address"},{"name":"maxTx","type":"uint256","internalType":"uint256"},{"name":"maxWallet","type":"uint256","internalType":"uint256"}]}],"outputs":[{"name":"token","type":"address","internalType":"address"}],"stateMutability":"payable"},{"type":"function","name":"creationFee","inputs":[],"outputs":[{"name":"","type":"uint256","internalType":"uint256"}],"stateMutability":"view"},{"type":"function","name":"creatorTokens","inputs":[{"name":"","type":"address","internalType":"address"},{"name":"","type":"uint256","internalType":"uint256"}],"outputs":[{"name":"","type":"address","internalType":"address"}],"stateMutability":"view"},{"type":"function","name":"deployedTokens","inputs":[{"name":"","type":"address","internalType":"address"}],"outputs":[{"name":"tokenAddress","type":"address","internalType":"address"},{"name":"config","type":"tuple","internalType":"struct AndeTokenFactory.TokenConfig","components":[{"name":"name","type":"string","internalType":"string"},{"name":"symbol","type":"string","internalType":"string"},{"name":"totalSupply","type":"uint256","internalType":"uint256"},{"name":"tokenType","type":"uint8","internalType":"enum AndeTokenFactory.TokenType"},{"name":"creator","type":"address","internalType":"address"},{"name":"createdAt","type":"uint256","internalType":"uint256"},{"name":"autoList","type":"bool","internalType":"bool"},{"name":"initialLiquidity","type":"uint256","internalType":"uint256"},{"name":"lockDuration","type":"uint256","internalType":"uint256"}]},{"name":"verified","type":"bool","internalType":"bool"},{"name":"liquidityLocked","type":"uint256","internalType":"uint256"},{"name":"unlockTime","type":"uint256","internalType":"uint256"}],"stateMutability":"view"},{"type":"function","name":"feeRecipient","inputs":[],"outputs":[{"name":"","type":"address","internalType":"address"}],"stateMutability":"view"},{"type":"function","name":"getAllTokensLength","inputs":[],"outputs":[{"name":"","type":"uint256","internalType":"uint256"}],"stateMutability":"view"},{"type":"function","name":"getCreatorTokens","inputs":[{"name":"creator","type":"address","internalType":"address"}],"outputs":[{"name":"","type":"address[]","internalType":"address[]"}],"stateMutability":"view"},{"type":"function","name":"owner","inputs":[],"outputs":[{"name":"","type":"address","internalType":"address"}],"stateMutability":"view"},{"type":"function","name":"predictTokenAddress","inputs":[{"name":"creator","type":"address","internalType":"address"},{"name":"name","type":"string","internalType":"string"},{"name":"symbol","type":"string","internalType":"string"},{"name":"timestamp","type":"uint256","internalType":"uint256"}],"outputs":[{"name":"predicted","type":"address","internalType":"address"}],"stateMutability":"view"},{"type":"function","name":"renounceOwnership","inputs":[],"outputs":[],"stateMutability":"nonpayable"},{"type":"function","name":"setCreationFee","inputs":[{"name":"newFee","type":"uint256","internalType":"uint256"}],"outputs":[],"stateMutability":"nonpayable"},{"type":"function","name":"setFeeRecipient","inputs":[{"name":"newRecipient","type":"address","internalType":"address"}],"outputs":[],"stateMutability":"nonpayable"},{"type":"function","name":"tokensCreated","inputs":[],"outputs":[{"name":"","type":"uint256","internalType":"uint256"}],"stateMutability":"view"},{"type":"function","name":"transferOwnership","inputs":[{"name":"newOwner","type":"address","internalType":"address"}],"outputs":[],"stateMutability":"nonpayable"},{"type":"function","name":"unlockLiquidity","inputs":[{"name":"tokenAddress","type":"address","internalType":"address"}],"outputs":[],"stateMutability":"nonpayable"},{"type":"function","name":"verifyToken","inputs":[{"name":"tokenAddress","type":"address","internalType":"address"}],"outputs":[],"stateMutability":"nonpayable"},{"type":"function","name":"withdrawFees","inputs":[],"outputs":[],"stateMutability":"nonpayable"},{"type":"event","name":"CreationFeeUpdated","inputs":[{"name":"oldFee","type":"uint256","indexed":false,"internalType":"uint256"},{"name":"newFee","type":"uint256","indexed":false,"internalType":"uint256"}],"anonymous":false},{"type":"event","name":"FeeRecipientUpdated","inputs":[{"name":"oldRecipient","type":"address","indexed":false,"internalType":"address"},{"name":"newRecipient","type":"address","indexed":false,"internalType":"address"}],"anonymous":false},{"type":"event","name":"LiquidityUnlocked","inputs":[{"name":"tokenAddress","type":"address","indexed":true,"internalType":"address"},{"name":"amount","type":"uint256","indexed":false,"internalType":"uint256"}],"anonymous":false},{"type":"event","name":"OwnershipTransferred","inputs":[{"name":"previousOwner","type":"address","indexed":true,"internalType":"address"},{"name":"newOwner","type":"address","indexed":true,"internalType":"address"}],"anonymous":false},{"type":"event","name":"TokenCreated","inputs":[{"name":"creator","type":"address","indexed":true,"internalType":"address"},{"name":"tokenAddress","type":"address","indexed":true,"internalType":"address"},{"name":"name","type":"string","indexed":false,"internalType":"string"},{"name":"symbol","type":"string","indexed":false,"internalType":"string"},{"name":"tokenType","type":"uint8","indexed":false,"internalType":"enum AndeTokenFactory.TokenType"},{"name":"totalSupply","type":"uint256","indexed":false,"internalType":"uint256"}],"anonymous":false},{"type":"event","name":"TokenListed","inputs":[{"name":"tokenAddress","type":"address","indexed":true,"internalType":"address"},{"name":"pair","type":"address","indexed":true,"internalType":"address"},{"name":"liquidityAdded","type":"uint256","indexed":false,"internalType":"uint256"}],"anonymous":false},{"type":"event","name":"TokenVerified","inputs":[{"name":"tokenAddress","type":"address","indexed":true,"internalType":"address"}],"anonymous":false},{"type":"error","name":"InsufficientFee","inputs":[]},{"type":"error","name":"InvalidConfig","inputs":[]},{"type":"error","name":"InvalidParameters","inputs":[]},{"type":"error","name":"InvalidSupply","inputs":[]},{"type":"error","name":"InvalidTaxRate","inputs":[]},{"type":"error","name":"LiquidityStillLocked","inputs":[]},{"type":"error","name":"OwnableInvalidOwner","inputs":[{"name":"owner","type":"address","internalType":"address"}]},{"type":"error","name":"OwnableUnauthorizedAccount","inputs":[{"name":"account","type":"address","internalType":"address"}]},{"type":"error","name":"ReentrancyGuardReentrantCall","inputs":[]},{"type":"error","name":"TokenAlreadyExists","inputs":[]},{"type":"error","name":"UnauthorizedCaller","inputs":[]}],"bytecode":{"object":"0x60e03461014a57601f6170f938819003918201601f19168301916001600160401b0383118484101761014e5780849260809460405283398101031261014a5761004781610162565b61005360208301610162565b61006b606061006460408601610162565b9401610162565b3315610132575f549360018060a01b039260018060a01b03199433868816175f5560405196853391167f8be0079c531659141344cd1fd0a4f28419497f9722a3daafe3b4186f6b6457e05f80a36001805560805260a05260c05216906003541617600355662386f26fc10000600255616f82908161017782396080518181816106210152818161090c0152818161125701526115ab015260a051818181610c9401526115e6015260c0518181816105b4015281816108d80152818161152e01526119bb0152f35b604051631e4fbdf760e01b81525f6004820152602490fd5b5f80fd5b634e487b7160e01b5f52604160045260245ffd5b51906001600160a01b038216820361014a5756fe6080806040526004908136101561001f575b5050361561001d575f80fd5b005b5f3560e01c908163140f021c146119a9575080632f8c2a141461184957806332cb6b0c146118225780634128b8c1146114ad5780634130276b14611442578063427500201461142557806346904840146113fd578063476343ee146113bc5780634aa9a56c146112865780634d1dcc3e146112425780635ad20c3a14611225578063634282af146111cc578063637aa0fd146110d45780636743f90c14610e2c5780636a0c97fe14610e0b578063715018a614610db457806374abfa5414610d0757806378b4330f14610cea5780638da5cb5b14610cc35780638e4c619814610c7f57806393d0aead14610ad2578063b7d8622514610a60578063d58c66ab1461085f578063db3fa4cc14610808578063dce0b4e4146107eb578063e49675eb14610406578063e74b981b1461038f578063ed2c718f146101f85763f2fde38b1461016a5780610011565b346101f45760203660031901126101f457610183611af9565b61018b6121ed565b6001600160a01b039081169182156101dd57505f54826bffffffffffffffffffffffff60a01b8216175f55167f8be0079c531659141344cd1fd0a4f28419497f9722a3daafe3b4186f6b6457e05f80a3005b6024905f60405191631e4fbdf760e01b8352820152fd5b5f80fd5b5061020236611aab565b61020e94919394611cf4565b61021784611d17565b6102218386611d6b565b6103e8811161037f5760405160208101906102518161024342888b3388611c36565b03601f198101835282611a35565b519020906040519061139d90818301918383106001600160401b0384111761036c5790839291613b93843960a0825260806102a061029260a085018c611c12565b848103602086015289611c12565b92896040820152336060820152015203905ff5801561036157602094610344945f80516020616f2d8339815191529260018060a01b03169586956103226040516102e9816119ea565b858152828b8201528460408201528760608201523360808201524260a08201525f60c08201525f60e08201525f61010082015288611d98565b61033760405194608086526080860190611c12565b908482038a860152611c12565b93604083015260608201528033930390a360018055604051908152f35b6040513d5f823e3d90fd5b604186634e487b7160e01b5f525260245ffd5b506040516367e3b83560e01b8152fd5b346101f45760203660031901126101f4576103a8611af9565b6103b06121ed565b600354604080516001600160a01b03808416825284811660208301529293917faaebcf1bfa00580e41d966056b48521fa9f202645c86d4ddf28113e617c1b1d391a16001600160a01b0319909216911617600355005b5060a03660031901126101f4576001600160401b039080358281116101f4576104329036908301611a56565b906024358381116101f45761044a9036908301611a56565b60443560643593841515928386036101f45760843594610468611cf4565b61047184611d17565b61047b8284611d6b565b60405197602098898101906104978161024342888a3388611c36565b5190206040519091610aa4808301918211838310176107d85782916104c591614f3084398887893393611cb4565b03905ff5958615610361576040516001600160a01b039788169889979091610528916104f0826119ea565b878252868d8301528860408301525f60608301523360808301524260a083015260c08201528360e08201525f61010082015288611d98565b806107cf575b61058b575b50505f80516020616f2d8339815191529293945061056d9061056060405193608085526080850190611c12565b9083820389850152611c12565b925f604083015260608201528033930390a360018055604051908152f35b604080516323b872dd60e01b8152338185019081523060208201529182018390529296509091907f0000000000000000000000000000000000000000000000000000000000000000908a908390819060600103815f8c86165af191821561036157610651926107a2575b506040805163e6a4390560e01b81526001600160a01b03808c168a8301908152908416602082015290937f00000000000000000000000000000000000000000000000000000000000000008b1693928d92869283929190910190565b0381855afa918215610361578a988c945f94610783575b508a8416156106c1575b505050957f48a4867ae1de558174634fbaacefa7e5f70d61c782ceaeba4770449f19ab62c161056d94939282995f80516020616f2d83398151915298996040519586521693a390859493610533565b604080516364e329cb60e11b81526001600160a01b039b8c169281019283529a909316602082015297989497949594869350909183915f9183910103925af193841561036157877f48a4867ae1de558174634fbaacefa7e5f70d61c782ceaeba4770449f19ab62c18a82995f80516020616f2d8339815191529861056d975f91610756575b5093509998978194959650610672565b6107769150833d851161077c575b61076e8183611a35565b810190611c95565b5f610746565b503d610764565b61079b919450853d871161077c5761076e8183611a35565b925f610668565b6107c1908b3d8d116107c8575b6107b98183611a35565b810190611c7d565b505f6105f5565b503d6107af565b5080151561052e565b604185634e487b7160e01b5f525260245ffd5b346101f4575f3660031901126101f4576020600254604051908152f35b346101f45760403660031901126101f457610821611af9565b6024359060018060a01b038091165f52600760205260405f2080548310156101f45760209261084f91611b0f565b9190546040519260031b1c168152f35b50346101f457602090816003193601126101f45761087b611af9565b91610884611cf4565b6001600160a01b038381165f81815260058452604090208481015491959160081c83163303610a4f57600b01544210610a3e576040805163e6a4390560e01b81526001600160a01b039283168682019081527f0000000000000000000000000000000000000000000000000000000000000000909316602084015291849183918291010381857f0000000000000000000000000000000000000000000000000000000000000000165afa908115610361575f91610a21575b506040516370a0823160e01b8152308582015291168282602481845afa918215610361575f926109f0575b506040805163a9059cbb60e01b815233958101958652602086018490529484928692909183915f918391015b03925af1928315610361577fbc075837768dcd77a58731f7945fff3f5c9d285e3ade5c5b3c6f4fd153424578936109d3575b50604051908152a260018055005b6109e990833d85116107c8576107b98183611a35565b505f6109c5565b9091508281813d8311610a1a575b610a088183611a35565b810103126101f4575190610993610967565b503d6109fe565b610a389150833d851161077c5761076e8183611a35565b5f61093c565b604051635ee7b8d760e11b81528490fd5b604051635c427cd960e01b81528590fd5b50346101f45760203660031901126101f457803590610a7d6121ed565b662386f26fc100008210610ac357507f5de302eeb1c80d4fb0c0953b692353f09ddf431411b8eb2034d5e8576956191260406002548151908152836020820152a1600255005b6040516306b7c75960e31b8152fd5b50346101f45760203660031901126101f4576001600160a01b03610af4611af9565b165f52600560205260405f2060018060a01b0381541660405190610b17826119ea565b610b2360018401611b70565b8252610b3160028401611b70565b9260208301938452600381015460408401528481015460ff81169260608501936005811015610c6c578452608085019160018060a01b039060081c168252600583015460a0860190815260ff60068501541660c08701901515815260078501549160e08801928352600886015493610100890194855260ff60098801541695600b600a890154980154986040610bfd81519d8e95865260a060208701528d5195610be9610120978860a08401526101c0830190611c12565b91519060c0609f1982850301910152611c12565b9b015160e08d0152516005811015610c59576101008c0152516001600160a01b0316908a01525161014089015251151561016088015251610180870152516101a086015215156040850152606084015260808301528190039150f35b60218d634e487b7160e01b5f525260245ffd5b602188634e487b7160e01b5f525260245ffd5b346101f4575f3660031901126101f4576040517f00000000000000000000000000000000000000000000000000000000000000006001600160a01b03168152602090f35b346101f4575f3660031901126101f4575f546040516001600160a01b039091168152602090f35b346101f4575f3660031901126101f457602060405162278d008152f35b346101f4576020806003193601126101f4576001600160a01b039081610d2b611af9565b165f526007815260405f20604051918281835491828152019081935f52825f20905f5b818110610d9e5750505083610d64910384611a35565b6040519281840190828552518091526040840192915f5b828110610d885785850386f35b8351871685529381019392810192600101610d7b565b8254881684529284019260019283019201610d4e565b346101f4575f3660031901126101f457610dcc6121ed565b5f80546001600160a01b0319811682556001600160a01b03167f8be0079c531659141344cd1fd0a4f28419497f9722a3daafe3b4186f6b6457e08280a3005b346101f4575f3660031901126101f4576020604051662386f26fc100008152f35b506101003660031901126101f4576001600160401b0381358181116101f457610e589036908401611a56565b906024358181116101f457610e709036908501611a56565b9060a03660631901126101f45760405190610e8a82611a1a565b60643582526084356020830190815260a4356001600160a01b03811681036101f457604084019081526060840160c4358152608085019060e4358252610ece611cf4565b610ed9604435611d17565b610ee38789611d6b565b6109c4808751119081156110c9575b506110b85780511580156110af575b61109e576040516020810190610f1e81610243428c8e3388611c36565b519020955193519260018060a01b0390511690519151926040519586611559810110906115598801111761108b578596979899506115596159d48739610f8c610f76610120806115598a01526115598901018c611c12565b6115598801810360206115598a0101528a611c12565b946044356040611559890101523360606115598901015260806115598801015260a06115598701015260c06115598601015260e0611559850101526101006115598401015203905ff5908115610361576020925f80516020616f2d8339815191526110699360018060a01b031693849361104760405161100b816119ea565b85815282898201526044356040820152600360608201523360808201524260a08201525f60c08201525f60e08201525f61010082015286611d98565b61105c60405194608086526080860190611c12565b9084820388860152611c12565b916003604082015260443560608201528033930390a360018055604051908152f35b60418a634e487b7160e01b5f525260245ffd5b6040516306b7c75960e31b81528990fd5b50815115610f01565b6040516367e3b83560e01b81528990fd5b90508451115f610ef2565b50346101f45760803660031901126101f4576110ee611af9565b6001600160401b03906024358281116101f45761110e9036908501611a56565b906044358381116101f4576111296111419136908701611a56565b61024360405193849260208401966064359288611c36565b519020610aa46040516111576020830182611a35565b8181526020810191614f3083395190209060405191602083019160ff60f81b83523060601b602185015260358401526055830152605582526080820192828410908411176111b9576040839052905190206001600160a01b0316815260209150f35b604184634e487b7160e01b5f525260245ffd5b50346101f45760203660031901126101f457356006548110156101f45760065f527ff652222313e28459528d920b65115c16c04f3efc82aaedc97be59f3f377c0d3f01546040516001600160a01b039091168152602090f35b346101f4575f3660031901126101f4576020600654604051908152f35b346101f4575f3660031901126101f4576040517f00000000000000000000000000000000000000000000000000000000000000006001600160a01b03168152602090f35b5061129036611aab565b509261129a611cf4565b6112a384611d17565b6112ad8284611d6b565b60405160208101906112c6816102434287893388611c36565b5190209060405190610bbd808301918383106001600160401b038411176113a9575082916112fd9161221984398786883393611cb4565b03905ff5928315610361576040516020946001600160a01b03169384935f80516020616f2d8339815191529261138a91906113759061133b816119ea565b848152828a820152866040820152600260608201523360808201524260a08201525f60c08201525f60e08201525f61010082015287611d98565b61056060405193608085526080850190611c12565b926002604083015260608201528033930390a360018055604051908152f35b604190634e487b7160e01b5f525260245ffd5b346101f4575f3660031901126101f4576113d46121ed565b5f8080804760018060a01b03600354168282156113f4575bf11561036157005b506108fc6113ec565b346101f4575f3660031901126101f4576003546040516001600160a01b039091168152602090f35b50346101f4575f3660031901126101f45760209054604051908152f35b346101f45760203660031901126101f45761145b611af9565b6114636121ed565b6001600160a01b03165f818152600560205260408120600901805460ff191660011790557f62f9febaf4690d6df2716e783e6c2352e1fa133b117d53882d323c316161464b9080a2005b50346101f45760603660031901126101f4576114c7611af9565b60243590604435926114d7611cf4565b60018060a01b0380831692835f526020926005845260405f2096838289015460081c1633036118125762278d00811061180257604080516323b872dd60e01b815233848201908152306020820152918201899052937f00000000000000000000000000000000000000000000000000000000000000008681169288908790819060600103815f875af1918215610361576115a59689936117e5575b50604080516364e329cb60e11b81526001600160a01b039283168882019081529290931660208301529196879283920190565b03815f897f0000000000000000000000000000000000000000000000000000000000000000165af1938415610361575f946117c6575b50600389015460011c7f0000000000000000000000000000000000000000000000000000000000000000908460405189818c815f8161163d898b63095ea7b360e01b9a8b8552840160209093929193604081019460018060a01b031681520152565b03925af180156103615761167e928b928e926117a9575b50604080519182526001600160a01b0387168a830190815260208101939093529093849283920190565b03815f885af180156103615761178c575b50610e1042019081421161177957855f896060958d958f610104966040519a8b998a9862e8e33760e81b8a528901526024880152806044880152816064880152608487015260a48601523060c486015260e4850152165af180156103615761174e575b5086600a89015542019081421161173b5750600b7f48a4867ae1de558174634fbaacefa7e5f70d61c782ceaeba4770449f19ab62c195969701556040519586521693a360018055005b601190634e487b7160e01b5f525260245ffd5b606090813d8311611772575b6117648183611a35565b810103126101f4575f6116f2565b503d61175a565b601186634e487b7160e01b5f525260245ffd5b6117a290893d8b116107c8576107b98183611a35565b505f61168f565b6117bf90843d86116107c8576107b98183611a35565b505f611654565b6117de919450863d881161077c5761076e8183611a35565b925f6115db565b6117fb90843d86116107c8576107b98183611a35565b505f611572565b506040516306b7c75960e31b8152fd5b50604051635c427cd960e01b8152fd5b346101f4575f3660031901126101f45760206040516c0c9f2c9cd04674edea400000008152f35b5061185336611aab565b909361185d611cf4565b61186685611d17565b6118708385611d6b565b6c0c9f2c9cd04674edea40000000821161199a5784821061199a5760405160208101906118a48161024342888a3388611c36565b5190209160405191610dbd808401918483106001600160401b038411176113a9575090839291612dd6843960a081526118f16118e360a0830189611c12565b828103602084015287611c12565b91886040830152606082015260803391015203905ff5928315610361576040516020946001600160a01b03169384935f80516020616f2d8339815191529261197b919061137590611941816119ea565b848152828a820152866040820152600160608201523360808201524260a08201525f60c08201525f60e08201525f61010082015287611d98565b926001604083015260608201528033930390a360018055604051908152f35b6040516315ae672760e01b8152fd5b346101f4575f3660031901126101f4577f00000000000000000000000000000000000000000000000000000000000000006001600160a01b03168152602090f35b61012081019081106001600160401b03821117611a0657604052565b634e487b7160e01b5f52604160045260245ffd5b60a081019081106001600160401b03821117611a0657604052565b90601f801991011681019081106001600160401b03821117611a0657604052565b81601f820112156101f4578035906001600160401b038211611a065760405192611a8a601f8401601f191660200185611a35565b828452602083830101116101f457815f926020809301838601378301015290565b9060806003198301126101f4576001600160401b036004358181116101f45783611ad791600401611a56565b926024359182116101f457611aee91600401611a56565b906044359060643590565b600435906001600160a01b03821682036101f457565b8054821015611b24575f5260205f2001905f90565b634e487b7160e01b5f52603260045260245ffd5b90600182811c92168015611b66575b6020831014611b5257565b634e487b7160e01b5f52602260045260245ffd5b91607f1691611b47565b9060405191825f8254611b8281611b38565b908184526020946001916001811690815f14611bf05750600114611bb2575b505050611bb092500383611a35565b565b5f90815285812095935091905b818310611bd8575050611bb093508201015f8080611ba1565b85548884018501529485019487945091830191611bbf565b92505050611bb094925060ff191682840152151560051b8201015f8080611ba1565b805180835260209291819084018484015e5f828201840152601f01601f1916010190565b60209290839160349695936bffffffffffffffffffffffff199060601b168252805192839101601483015e0190601482015f8152815193849201905e019060148201520190565b908160209103126101f4575180151581036101f45790565b908160209103126101f457516001600160a01b03811681036101f45790565b92949390606092611cd0611cde92608087526080870190611c12565b908582036020870152611c12565b60408401959095526001600160a01b0316910152565b600260015414611d05576002600155565b604051633ee5aeb560e01b8152600490fd5b6002543410611d5a578015908115611d43575b50611d3157565b6040516315ae672760e01b8152600490fd5b6c0c9f2c9cd04674edea400000009150115f611d2a565b60405162976f7560e21b8152600490fd5b5115908115611d8e575b50611d7c57565b604051630e52390960e41b8152600490fd5b905051155f611d75565b60405191611da583611a1a565b6001600160a01b0382811680855260208086019384525f60408088018290526060880182905260808801829052928152600590915220845181546001600160a01b0319169216919091178155905180518051919491906001600160401b038211611a06578190611e186001860154611b38565b601f811161219d575b50602090601f831160011461212f575f92612124575b50508160011b915f199060031b1c19161760018301555b60208401518051906001600160401b038211611a06578190611e736002860154611b38565b601f81116120d1575b50602090601f8311600114612063575f92612058575b50508160011b915f199060031b1c19161760028301555b6040840151600383015560049384830160608201516005811015612045576080928261010092600b96945460ff85600160a81b038886015160081b169216906affffffffffffffffffffff60a81b161717905560a08101516005870155611f2560c08201511515600688019060ff801983541691151516179055565b60e0810151600787015501516008850155611f5560408201511515600986019060ff801983541691151516179055565b6060810151600a85015501519101556006546801000000000000000090818110156111b9576001810180600655811015612032577ff652222313e28459528d920b65115c16c04f3efc82aaedc97be59f3f377c0d3f0180546001600160a01b0319166001600160a01b038416179055335f9081526007602052604090208054918210156111b95790611fec91600182018155611b0f565b81546001600160a01b0393841660039290921b91821b9390911b191691909117905580545f19811461201f576001019055565b601182634e487b7160e01b5f525260245ffd5b603284634e487b7160e01b5f525260245ffd5b602187634e487b7160e01b5f525260245ffd5b015190505f80611e92565b9250600285015f5260205f20905f935b601f19841685106120b6576001945083601f1981161061209e575b505050811b016002830155611ea9565b01515f1960f88460031b161c191690555f808061208e565b81810151835560209485019460019093019290910190612073565b909150600285015f5260205f20601f840160051c8101916020851061211a575b90601f859493920160051c01905b81811061210c5750611e7c565b5f81558493506001016120ff565b90915081906120f1565b015190505f80611e37565b9250600185015f5260205f20905f935b601f1984168510612182576001945083601f1981161061216a575b505050811b016001830155611e4e565b01515f1960f88460031b161c191690555f808061215a565b8181015183556020948501946001909301929091019061213f565b909150600185015f5260205f20601f840160051c8101602085106121e6575b90849392915b601f830160051c820181106121d8575050611e21565b5f81558594506001016121c2565b50806121bc565b5f546001600160a01b0316330361220057565b60405163118cdaa760e01b8152336004820152602490fdfe604060a081523461037557610bbd8038038061001a81610379565b92833981016080828203126103755781516001600160401b039290838111610375578261004891830161039e565b60209283830151908582116103755761006291840161039e565b906060868401519301519060018060a01b0382169586830361037557815181811161028a576003908154906001948583811c9316801561036b575b8a841014610357578190601f93848111610309575b508a908483116001146102a9575f9261029e575b50505f1982851b1c191690851b1782555b855192831161028a5760049586548581811c91168015610280575b8a82101461026d5782811161022a575b50889184116001146101c8579383949184925f956101bd575b50501b925f19911b1c19161782555b60805283156101a7576002549082820180921161019457506002555f8381528083528481208054830190558451918252917fddf252ad1be2c89b69c2b068fc378daa952ba7f163c4a11628f55a4df523b3ef91a3516107cd90816103f08239608051816104cc0152f35b601190634e487b7160e01b5f525260245ffd5b6024905f86519163ec442f0560e01b8352820152fd5b015193505f8061011b565b9190601f19841692875f52848a5f20945f5b8c8983831061021357505050106101fa575b50505050811b01825561012a565b01519060f8845f19921b161c191690555f8080806101ec565b8686015189559097019694850194889350016101da565b875f52895f208380870160051c8201928c8810610264575b0160051c019086905b828110610259575050610102565b5f815501869061024b565b92508192610242565b602288634e487b7160e01b5f525260245ffd5b90607f16906100f2565b634e487b7160e01b5f52604160045260245ffd5b015190505f806100c6565b5f8681528c8120899550929190601f198516908e5b8282106102f257505084116102db575b505050811b0182556100d7565b01515f1983871b60f8161c191690555f80806102ce565b8385015186558b979095019493840193018e6102be565b909150845f528a5f208480850160051c8201928d861061034e575b918991869594930160051c01915b8281106103405750506100b2565b5f8155859450899101610332565b92508192610324565b634e487b7160e01b5f52602260045260245ffd5b92607f169261009d565b5f80fd5b6040519190601f01601f191682016001600160401b0381118382101761028a57604052565b81601f82011215610375578051906001600160401b03821161028a576103cd601f8301601f1916602001610379565b928284526020838301011161037557815f9260208093018386015e830101529056fe6080604090808252600480361015610015575f80fd5b5f3560e01c91826302d05d3f146104ba5750816306fdde03146103df578163095ea7b31461033757816318160ddd1461031957816323b872dd146102dd578163313ce567146102c257816342966c68146102a657816370a082311461027057816379cc67901461023f57816395d89b411461012057508063a9059cbb146100f05763dd62ed3e146100a4575f80fd5b346100ec57806003193601126100ec576020906100bf610525565b6100c761053b565b9060018060a01b038091165f5260018452825f2091165f528252805f20549051908152f35b5f80fd5b50346100ec57806003193601126100ec5760209061011961010f610525565b602435903361061e565b5160018152f35b82346100ec575f3660031901126100ec578051905f835460018160011c9060018316928315610235575b60209384841081146102225783885290811561020657506001146101b2575b505050829003601f01601f191682019267ffffffffffffffff84118385101761019f575082918261019b9252826104fb565b0390f35b604190634e487b7160e01b5f525260245ffd5b5f878152929350837f8a35acfbc15ff81a39ae7d344fd709f28e8600b4aa8c65c6b64bfe7fe36bd19b5b8385106101f25750505050830101848080610169565b8054888601830152930192849082016101dc565b60ff1916878501525050151560051b8401019050848080610169565b602289634e487b7160e01b5f525260245ffd5b91607f169161014a565b82346100ec573660031901126100ec5761026e61025a610525565b60243590610269823383610551565b6106f8565b005b82346100ec5760203660031901126100ec576020906001600160a01b03610295610525565b165f525f8252805f20549051908152f35b346100ec5760203660031901126100ec5761026e9035336106f8565b82346100ec575f3660031901126100ec576020905160128152f35b82346100ec5760603660031901126100ec576020906101196102fd610525565b61030561053b565b60443591610314833383610551565b61061e565b82346100ec575f3660031901126100ec576020906002549051908152f35b82346100ec57806003193601126100ec57610350610525565b6024359033156103c9576001600160a01b03169081156103b35760209350335f5260018452825f20825f52845280835f205582519081527f8c5be1e5ebec7d5bd14f71427d1e84f3dd0314c0f7b2291e5b200ac8c7c3b925843392a35160018152f35b8251634a1406b160e11b81525f81860152602490fd5b825163e602df0560e01b81525f81860152602490fd5b82346100ec575f3660031901126100ec578051905f60035460018160011c90600183169283156104b0575b602093848410811461022257838852908115610206575060011461045a57505050829003601f01601f191682019267ffffffffffffffff84118385101761019f575082918261019b9252826104fb565b60035f908152929350837fc2575a0e9e593c00f959f8c92f12db2869c3395a3b0502d05e2516446f71f85b5b83851061049c5750505050830101848080610169565b805488860183015293019284908201610486565b91607f169161040a565b346100ec575f3660031901126100ec577f00000000000000000000000000000000000000000000000000000000000000006001600160a01b03168152602090f35b602060409281835280519182918282860152018484015e5f828201840152601f01601f1916010190565b600435906001600160a01b03821682036100ec57565b602435906001600160a01b03821682036100ec57565b919060018060a01b0380931692835f526001602052604093845f2091831691825f52602052845f2054925f19840361058c575b505050505050565b8484106105ee575080156105d75781156105c0575f526001602052835f20905f5260205203905f20555f8080808080610584565b8451634a1406b160e11b81525f6004820152602490fd5b845163e602df0560e01b81525f6004820152602490fd5b8551637dc7a0d960e11b81526001600160a01b039190911660048201526024810184905260448101859052606490fd5b916001600160a01b038084169283156106e057169283156106c857825f525f60205260405f2054908282106106965750817fddf252ad1be2c89b69c2b068fc378daa952ba7f163c4a11628f55a4df523b3ef92602092855f525f84520360405f2055845f5260405f20818154019055604051908152a3565b60405163391434e360e21b81526001600160a01b03919091166004820152602481019190915260448101829052606490fd5b60405163ec442f0560e01b81525f6004820152602490fd5b604051634b637e8f60e11b81525f6004820152602490fd5b91906001600160a01b0383169081156106e057815f525f60205260405f20549381851061076557506020817fddf252ad1be2c89b69c2b068fc378daa952ba7f163c4a11628f55a4df523b3ef925f95968587528684520360408620558060025403600255604051908152a3565b60405163391434e360e21b81526001600160a01b03919091166004820152602481018590526044810191909152606490fdfea2646970667358221220dcaa1536e1d0b5983dc573b0cf0f49bfbdb91e1f03f251f7851f98549543360164736f6c63430008190033604060c08152346103e257610dbd8038038061001a816103e6565b928339810160a0828203126103e25781516001600160401b0392908381116103e2578261004891830161040b565b9060209283820151908582116103e25761006391830161040b565b908581015192608060608301519201519060018060a01b0390818316978884036103e25781518181116102ea576003908154906001948583811c931680156103d8575b8c8410146103c45781908c601f94858111610373575b50508c90848311600114610309575f926102fe575b50505f1982851b1c191690851b1782555b87519283116102ea5760049788548581811c911680156102e0575b8c8210146102cd5780838d9211610288575b50508a918411600114610224579383949184925f95610219575b50501b925f19911b1c19161784555b861561020357600580546001600160a01b0319811689179091558791167f8be0079c531659141344cd1fd0a4f28419497f9722a3daafe3b4186f6b6457e05f80a360a052608052600254908282018092116101f057506002555f8381528083528481208054830190558451918252917fddf252ad1be2c89b69c2b068fc378daa952ba7f163c4a11628f55a4df523b3ef91a351610960908161045d82396080518181816101b60152610419015260a0518161077e0152f35b601190634e487b7160e01b5f525260245ffd5b8751631e4fbdf760e01b81525f81860152602490fd5b015193505f80610129565b9190601f19841692895f52848c5f20948d5f905b898383106102705750505010610257575b50505050811b018455610138565b01519060f8845f19921b161c191690555f808080610249565b8686015189559097019694850194889350018e610238565b8a5f5283825f209181880160051c83019388106102c4575b0160051c019086905b8281106102b957508c915061010f565b5f81550186906102a9565b925081926102a0565b60228a634e487b7160e01b5f525260245ffd5b90607f16906100fd565b634e487b7160e01b5f52604160045260245ffd5b015190505f806100d1565b879350908d91601f198416875f52835f20935f905b828210610352575050841161033b575b505050811b0182556100e2565b01515f1983871b60f8161c191690555f808061032e565b91929395968291958786015181550195019301908f918a969594939261031e565b90919250855f5284825f209181860160051c83019386106103bb575b918991869594930160051c01915b8281106103ad57508e91506100bc565b5f815585945089910161039d565b9250819261038f565b634e487b7160e01b5f52602260045260245ffd5b92607f16926100a6565b5f80fd5b6040519190601f01601f191682016001600160401b038111838210176102ea57604052565b81601f820112156103e2578051906001600160401b0382116102ea5761043a601f8301601f19166020016103e6565b92828452602083830101116103e257815f9260208093018386015e830101529056fe608060409080825260049081361015610016575f80fd5b5f3560e01c90816302d05d3f1461076c5750806306fdde0314610690578063095ea7b3146105e757806318160ddd146105c957806323b872dd146104d8578063313ce567146104bd57806340c10f19146103e257806370a08231146103ac578063715018a6146103515780638da5cb5b1461032957806395d89b4114610209578063a9059cbb146101d9578063d5abeb011461019f578063dd62ed3e146101565763f2fde38b146100c5575f80fd5b34610152576020366003190112610152576100de6107d7565b906100e76108fe565b6001600160a01b0391821692831561013c575050600554826bffffffffffffffffffffffff60a01b821617600555167f8be0079c531659141344cd1fd0a4f28419497f9722a3daafe3b4186f6b6457e05f80a3005b905f6024925191631e4fbdf760e01b8352820152fd5b5f80fd5b82346101525780600319360112610152576020906101726107d7565b61017a6107ed565b9060018060a01b038091165f5260018452825f2091165f528252805f20549051908152f35b8234610152575f36600319011261015257602090517f00000000000000000000000000000000000000000000000000000000000000008152f35b82346101525780600319360112610152576020906102026101f86107d7565b6024359033610824565b5160018152f35b509034610152575f366003190112610152578051905f835460018160011c906001831692831561031f575b602093848410811461030c578388529081156102f0575060011461029c575b505050829003601f01601f191682019267ffffffffffffffff84118385101761028957508291826102859252826107ad565b0390f35b604190634e487b7160e01b5f525260245ffd5b5f878152929350837f8a35acfbc15ff81a39ae7d344fd709f28e8600b4aa8c65c6b64bfe7fe36bd19b5b8385106102dc57505050508301015f8080610253565b8054888601830152930192849082016102c6565b60ff1916878501525050151560051b84010190505f8080610253565b602289634e487b7160e01b5f525260245ffd5b91607f1691610234565b8234610152575f3660031901126101525760055490516001600160a01b039091168152602090f35b34610152575f366003190112610152576103696108fe565b600580546001600160a01b031981169091555f906001600160a01b03167f8be0079c531659141344cd1fd0a4f28419497f9722a3daafe3b4186f6b6457e08280a3005b8234610152576020366003190112610152576020906001600160a01b036103d16107d7565b165f525f8252805f20549051908152f35b5090346101525780600319360112610152576103fc6107d7565b90602435916104096108fe565b600254906104178483610803565b7f0000000000000000000000000000000000000000000000000000000000000000106104ad576001600160a01b03169384156104975750827fddf252ad1be2c89b69c2b068fc378daa952ba7f163c4a11628f55a4df523b3ef9261047e5f95602094610803565b60025585855284835280852082815401905551908152a3005b6024905f84519163ec442f0560e01b8352820152fd5b8251638a164f6360e01b81528590fd5b8234610152575f366003190112610152576020905160128152f35b5034610152576060366003190112610152576104f26107d7565b6104fa6107ed565b906044359260018060a01b038216805f526001602052855f20335f52602052855f2054915f198303610535575b602087610202888888610824565b85831061059d57811561058757331561057157505f90815260016020908152868220338352815290869020918590039091558290610202610527565b6024905f885191634a1406b160e11b8352820152fd5b6024905f88519163e602df0560e01b8352820152fd5b8651637dc7a0d960e11b8152339181019182526020820193909352604081018690528291506060010390fd5b8234610152575f366003190112610152576020906002549051908152f35b5090346101525780600319360112610152576106016107d7565b60243590331561067a576001600160a01b03169081156106645760209350335f5260018452825f20825f52845280835f205582519081527f8c5be1e5ebec7d5bd14f71427d1e84f3dd0314c0f7b2291e5b200ac8c7c3b925843392a35160018152f35b8251634a1406b160e11b81525f81860152602490fd5b825163e602df0560e01b81525f81860152602490fd5b509034610152575f366003190112610152578051905f60035460018160011c9060018316928315610762575b602093848410811461030c578388529081156102f0575060011461070c57505050829003601f01601f191682019267ffffffffffffffff84118385101761028957508291826102859252826107ad565b60035f908152929350837fc2575a0e9e593c00f959f8c92f12db2869c3395a3b0502d05e2516446f71f85b5b83851061074e57505050508301015f8080610253565b805488860183015293019284908201610738565b91607f16916106bc565b34610152575f366003190112610152577f00000000000000000000000000000000000000000000000000000000000000006001600160a01b03168152602090f35b602060409281835280519182918282860152018484015e5f828201840152601f01601f1916010190565b600435906001600160a01b038216820361015257565b602435906001600160a01b038216820361015257565b9190820180921161081057565b634e487b7160e01b5f52601160045260245ffd5b916001600160a01b038084169283156108e657169283156108ce57825f525f60205260405f20549082821061089c5750817fddf252ad1be2c89b69c2b068fc378daa952ba7f163c4a11628f55a4df523b3ef92602092855f525f84520360405f2055845f5260405f20818154019055604051908152a3565b60405163391434e360e21b81526001600160a01b03919091166004820152602481019190915260448101829052606490fd5b60405163ec442f0560e01b81525f6004820152602490fd5b604051634b637e8f60e11b81525f6004820152602490fd5b6005546001600160a01b0316330361091257565b60405163118cdaa760e01b8152336004820152602490fdfea26469706673582212208cdbe0474676cb413ef76f00603856f49b761b5034aa58aac04ca20315b5314664736f6c63430008190033604060a08152346103ce5761139d8038038061001a816103d2565b928339810160a0828203126103ce5781516001600160401b03908181116103ce57826100479185016103f7565b9060209283850151908282116103ce576100629186016103f7565b8585015191606086015160018060a01b0394858216978883036103ce57608001519281518181116102d6576003908154906001948583811c931680156103c4575b8c8410146103b05781908c601f9485811161035f575b50508c908483116001146102f5575f926102ea575b50505f1982851b1c191690851b1782555b86519283116102d65760049687548581811c911680156102cc575b8c8210146102b95780838d9211610274575b50508a918411600114610210579383949184925f95610205575b50501b925f19911b1c19161783555b86156101ef57600580546001600160a01b0319811689179091558851958891167f8be0079c531659141344cd1fd0a4f28419497f9722a3daafe3b4186f6b6457e05f80a36080526006558160075581156101dc5750917fddf252ad1be2c89b69c2b068fc378daa952ba7f163c4a11628f55a4df523b3ef91835f948519061980600855868652600a8452878620558152a351610f549081610449823960805181610a520152f35b601290634e487b7160e01b5f525260245ffd5b8751631e4fbdf760e01b81525f81850152602490fd5b015193505f80610126565b9190601f19841692885f52848c5f20948d5f905b8983831061025c5750505010610243575b50505050811b018355610135565b01519060f8845f19921b161c191690555f808080610235565b8686015189559097019694850194889350018e610224565b895f5283825f209181880160051c83019388106102b0575b0160051c019086905b8281106102a557508c915061010c565b5f8155018690610295565b9250819261028c565b602289634e487b7160e01b5f525260245ffd5b90607f16906100fa565b634e487b7160e01b5f52604160045260245ffd5b015190505f806100ce565b879350908d91601f198416875f52835f20935f905b82821061033e5750508411610327575b505050811b0182556100df565b01515f1983871b60f8161c191690555f808061031a565b91929395968291958786015181550195019301908f918a969594939261030a565b90919250855f5284825f209181860160051c83019386106103a7575b918991869594930160051c01915b82811061039957508e91506100b9565b5f8155859450899101610389565b9250819261037b565b634e487b7160e01b5f52602260045260245ffd5b92607f16926100a3565b5f80fd5b6040519190601f01601f191682016001600160401b038111838210176102d657604052565b81601f820112156103ce578051906001600160401b0382116102d657610426601f8301601f19166020016103d2565b92828452602083830101116103ce57815f9260208093018386015e830101529056fe608060409080825260049081361015610016575f80fd5b5f3560e01c90816302d05d3f14610a405750806306fdde0314610964578063095ea7b3146108bb57806313114a9d1461089d57806318160ddd1461087f57806323b872dd146107975780632d83811914610778578063313ce5671461075d5780633685d419146105c55780634be26b191461039557806352390c021461049e57806370a0823114610472578063715018a61461041757806372b50928146103b357806383ad79941461039557806388f82020146103595780638da5cb5b1461033157806395d89b4114610211578063a9059cbb146101e1578063dd62ed3e146101985763f2fde38b14610107575f80fd5b3461019457602036600319011261019457610120610aab565b90610129610dd4565b6001600160a01b0391821692831561017e575050600554826bffffffffffffffffffffffff60a01b821617600555167f8be0079c531659141344cd1fd0a4f28419497f9722a3daafe3b4186f6b6457e05f80a3005b905f6024925191631e4fbdf760e01b8352820152fd5b5f80fd5b82346101945780600319360112610194576020906101b4610aab565b6101bc610ac1565b9060018060a01b038091165f5260018452825f2091165f528252805f20549051908152f35b823461019457806003193601126101945760209061020a610200610aab565b6024359033610c15565b5160018152f35b509034610194575f366003190112610194578051905f835460018160011c9060018316928315610327575b6020938484108114610314578388529081156102f857506001146102a4575b505050829003601f01601f191682019267ffffffffffffffff841183851017610291575082918261028d925282610a81565b0390f35b604190634e487b7160e01b5f525260245ffd5b5f878152929350837f8a35acfbc15ff81a39ae7d344fd709f28e8600b4aa8c65c6b64bfe7fe36bd19b5b8385106102e457505050508301015f808061025b565b8054888601830152930192849082016102ce565b60ff1916878501525050151560051b84010190505f808061025b565b602289634e487b7160e01b5f525260245ffd5b91607f169161023c565b8234610194575f3660031901126101945760055490516001600160a01b039091168152602090f35b8234610194576020366003190112610194576020906001600160a01b0361037e610aab565b165f52600c825260ff815f20541690519015158152f35b8234610194575f366003190112610194576020906006549051908152f35b509034610194576020366003190112610194578135916103d1610dd4565b600a8311610409577f8518b128247bb734c31c3f85e2de792e4d3830c6d17eb5b6bf6a52dd8f193872602084848160065551908152a1005b9051630adad23360e31b8152fd5b34610194575f3660031901126101945761042f610dd4565b600580546001600160a01b031981169091555f906001600160a01b03167f8be0079c531659141344cd1fd0a4f28419497f9722a3daafe3b4186f6b6457e08280a3005b823461019457602036600319011261019457602090610497610492610aab565b610bd8565b9051908152f35b50346101945760209081600319360112610194576104ba610aab565b926104c3610dd4565b6001600160a01b0384165f818152600c85528290205490929060ff1661059157825f52600a8452815f205480610577575b50600c8452815f20600160ff19825416179055600d54906801000000000000000082101561029157507f110b1fbed46dec7bc9019c3fba97541a3d64821a824872bb7b2ad678490855bf946105528260016105709401600d55610b6e565b90919060018060a01b038084549260031b9316831b921b1916179055565b51908152a1005b61058090610af5565b835f52600b8552825f20555f6104f4565b83606492519162461bcd60e51b8352820152601060248201526f105b1c9958591e48195e18db1d59195960821b6044820152fd5b50903461019457602080600319360112610194576105e1610aab565b916105ea610dd4565b60018060a01b0380931690815f52600c93600c845260ff825f2054161561072b575f5b600d8054808310156106fb579083918661062685610b6e565b949054600395861b1c16146106405750505060010161060d565b91949596979093925f19928381019081116106e857906105528561066661067394610b6e565b9054908a1b1c1691610b6e565b865f52600b88525f868120558752845f2060ff198154169055825480156106d5577f47ab6b2d1f416edec684889dc42cd04ed7cc6c6244edaa04c4215e1077548614985001926106c284610b6e565b81939154921b1b191690555551908152a1005b603189634e487b7160e01b5f525260245ffd5b60118b634e487b7160e01b5f525260245ffd5b50505050909192507f47ab6b2d1f416edec684889dc42cd04ed7cc6c6244edaa04c4215e10775486149350610570565b815162461bcd60e51b8152808701859052600c60248201526b139bdd08195e18db1d59195960a21b6044820152606490fd5b8234610194575f366003190112610194576020905160128152f35b5090346101945760203660031901126101945761049760209235610af5565b5034610194576060366003190112610194576107b1610aab565b6107b9610ac1565b906044359260018060a01b038216805f526001602052855f20335f52602052855f2054915f1983036107f4575b60208761020a888888610c15565b85831061085c57811561084657331561083057505f9081526001602090815286822033835281529086902091859003909155829061020a6107e6565b6024905f885191634a1406b160e11b8352820152fd5b6024905f88519163e602df0560e01b8352820152fd5b6064908684895192637dc7a0d960e11b8452339084015260248301526044820152fd5b8234610194575f366003190112610194576020906007549051908152f35b8234610194575f366003190112610194576020906009549051908152f35b5090346101945780600319360112610194576108d5610aab565b60243590331561094e576001600160a01b03169081156109385760209350335f5260018452825f20825f52845280835f205582519081527f8c5be1e5ebec7d5bd14f71427d1e84f3dd0314c0f7b2291e5b200ac8c7c3b925843392a35160018152f35b8251634a1406b160e11b81525f81860152602490fd5b825163e602df0560e01b81525f81860152602490fd5b509034610194575f366003190112610194578051905f60035460018160011c9060018316928315610a36575b6020938484108114610314578388529081156102f857506001146109e057505050829003601f01601f191682019267ffffffffffffffff841183851017610291575082918261028d925282610a81565b60035f908152929350837fc2575a0e9e593c00f959f8c92f12db2869c3395a3b0502d05e2516446f71f85b5b838510610a2257505050508301015f808061025b565b805488860183015293019284908201610a0c565b91607f1691610990565b34610194575f366003190112610194577f00000000000000000000000000000000000000000000000000000000000000006001600160a01b03168152602090f35b602060409281835280519182918282860152018484015e5f828201840152601f01601f1916010190565b600435906001600160a01b038216820361019457565b602435906001600160a01b038216820361019457565b8115610ae1570490565b634e487b7160e01b5f52601260045260245ffd5b6008548111610b1657610b1390610b0d610b0d610e20565b90610ad7565b90565b60405162461bcd60e51b815260206004820152602a60248201527f416d6f756e74206d757374206265206c657373207468616e20746f74616c207260448201526965666c656374696f6e7360b01b6064820152608490fd5b600d54811015610ba357600d5f527fd7b6990105719101dabeb77144f2a3385c8033acd3af97e9423a695e81ad1eb501905f90565b634e487b7160e01b5f52603260045260245ffd5b91908203918211610bc457565b634e487b7160e01b5f52601160045260245ffd5b6001600160a01b03165f908152600c602052604090205460ff16610c0857600a602052610b1360405f2054610af5565b600b60205260405f205490565b6001600160a01b03908116918215610dbc5716918215610da4578015610d4d577fddf252ad1be2c89b69c2b068fc378daa952ba7f163c4a11628f55a4df523b3ef906064610c6560065483610e00565b0490610c718282610bb7565b90610d10610c80610b0d610e20565b93610d05610c98610c918786610e00565b9683610e00565b610ca28188610bb7565b895f52602097600c895260409660ff885f205416610d33575b508a5f52600a8952610cd1875f20918254610bb7565b90558a5f52600c885260ff865f205416610d1a575b8a5f52600a8852610cfb865f20918254610e13565b9055600854610bb7565b600855600954610e13565b60095551908152a3565b600b8852855f20610d2c888254610e13565b9055610ce6565b600b8a52610d45885f20918254610bb7565b90555f610cbb565b60405162461bcd60e51b815260206004820152602960248201527f5472616e7366657220616d6f756e74206d7573742062652067726561746572206044820152687468616e207a65726f60b81b6064820152608490fd5b60405163ec442f0560e01b81525f6004820152602490fd5b604051634b637e8f60e11b81525f6004820152602490fd5b6005546001600160a01b03163303610de857565b60405163118cdaa760e01b8152336004820152602490fd5b81810292918115918404141715610bc457565b91908201809211610bc457565b60085490816007549283905f600d545b808210610e56575050610e438282610ad7565b8310610e4f5750509190565b9350919050565b90949395610e6386610b6e565b979060018060a01b0380915460039a8b1b1c165f52600a986020928a845260409a818c5f2054118015610efb575b610eec5793838b9c93610ed2610ecc600b958f9e9f9960019b99610eb7610ee49c610b6e565b905490871b1c165f528652875f205490610bb7565b9c610b6e565b9054911b1c165f52525f205490610bb7565b960190610e30565b50959950959750505050505050565b5083610f068c610b6e565b905490851b1c165f52600b8552858c5f205411610e9156fea2646970667358221220abc1360837675f1553bfa44252a311102253535af6752f07e87576f63f9098df64736f6c63430008190033604060a081523461037557610aa48038038061001a81610379565b92833981016080828203126103755781516001600160401b039290838111610375578261004891830161039e565b60209283830151908582116103755761006291840161039e565b906060868401519301519060018060a01b0382169586830361037557815181811161028a576003908154906001948583811c9316801561036b575b8a841014610357578190601f93848111610309575b508a908483116001146102a9575f9261029e575b50505f1982851b1c191690851b1782555b855192831161028a5760049586548581811c91168015610280575b8a82101461026d5782811161022a575b50889184116001146101c8579383949184925f956101bd575b50501b925f19911b1c19161782555b60805283156101a7576002549082820180921161019457506002555f8381528083528481208054830190558451918252917fddf252ad1be2c89b69c2b068fc378daa952ba7f163c4a11628f55a4df523b3ef91a3516106b490816103f082396080518161051f0152f35b601190634e487b7160e01b5f525260245ffd5b6024905f86519163ec442f0560e01b8352820152fd5b015193505f8061011b565b9190601f19841692875f52848a5f20945f5b8c8983831061021357505050106101fa575b50505050811b01825561012a565b01519060f8845f19921b161c191690555f8080806101ec565b8686015189559097019694850194889350016101da565b875f52895f208380870160051c8201928c8810610264575b0160051c019086905b828110610259575050610102565b5f815501869061024b565b92508192610242565b602288634e487b7160e01b5f525260245ffd5b90607f16906100f2565b634e487b7160e01b5f52604160045260245ffd5b015190505f806100c6565b5f8681528c8120899550929190601f198516908e5b8282106102f257505084116102db575b505050811b0182556100d7565b01515f1983871b60f8161c191690555f80806102ce565b8385015186558b979095019493840193018e6102be565b909150845f528a5f208480850160051c8201928d861061034e575b918991869594930160051c01915b8281106103405750506100b2565b5f8155859450899101610332565b92508192610324565b634e487b7160e01b5f52602260045260245ffd5b92607f169261009d565b5f80fd5b6040519190601f01601f191682016001600160401b0381118382101761028a57604052565b81601f82011215610375578051906001600160401b03821161028a576103cd601f8301601f1916602001610379565b928284526020838301011161037557815f9260208093018386015e830101529056fe6080604090808252600480361015610015575f80fd5b5f3560e01c91826302d05d3f1461050d5750816306fdde0314610432578163095ea7b31461038a57816318160ddd1461036c57816323b872dd1461027a578163313ce5671461025f57816370a082311461022957816395d89b411461010a57508063a9059cbb146100da5763dd62ed3e1461008e575f80fd5b346100d657806003193601126100d6576020906100a9610578565b6100b161058e565b9060018060a01b038091165f5260018452825f2091165f528252805f20549051908152f35b5f80fd5b50346100d657806003193601126100d6576020906101036100f9610578565b60243590336105a4565b5160018152f35b82346100d6575f3660031901126100d6578051905f835460018160011c906001831692831561021f575b602093848410811461020c578388529081156101f0575060011461019c575b505050829003601f01601f191682019267ffffffffffffffff841183851017610189575082918261018592528261054e565b0390f35b604190634e487b7160e01b5f525260245ffd5b5f878152929350837f8a35acfbc15ff81a39ae7d344fd709f28e8600b4aa8c65c6b64bfe7fe36bd19b5b8385106101dc5750505050830101848080610153565b8054888601830152930192849082016101c6565b60ff1916878501525050151560051b8401019050848080610153565b602289634e487b7160e01b5f525260245ffd5b91607f1691610134565b82346100d65760203660031901126100d6576020906001600160a01b0361024e610578565b165f525f8252805f20549051908152f35b82346100d6575f3660031901126100d6576020905160128152f35b9050346100d65760603660031901126100d657610295610578565b61029d61058e565b906044359260018060a01b038216805f526001602052855f20335f52602052855f2054915f1983036102d8575b6020876101038888886105a4565b85831061034057811561032a57331561031457505f908152600160209081528682203383528152908690209185900390915582906101036102ca565b6024905f885191634a1406b160e11b8352820152fd5b6024905f88519163e602df0560e01b8352820152fd5b8651637dc7a0d960e11b8152339181019182526020820193909352604081018690528291506060010390fd5b82346100d6575f3660031901126100d6576020906002549051908152f35b82346100d657806003193601126100d6576103a3610578565b60243590331561041c576001600160a01b03169081156104065760209350335f5260018452825f20825f52845280835f205582519081527f8c5be1e5ebec7d5bd14f71427d1e84f3dd0314c0f7b2291e5b200ac8c7c3b925843392a35160018152f35b8251634a1406b160e11b81525f81860152602490fd5b825163e602df0560e01b81525f81860152602490fd5b82346100d6575f3660031901126100d6578051905f60035460018160011c9060018316928315610503575b602093848410811461020c578388529081156101f057506001146104ad57505050829003601f01601f191682019267ffffffffffffffff841183851017610189575082918261018592528261054e565b60035f908152929350837fc2575a0e9e593c00f959f8c92f12db2869c3395a3b0502d05e2516446f71f85b5b8385106104ef5750505050830101848080610153565b8054888601830152930192849082016104d9565b91607f169161045d565b346100d6575f3660031901126100d6577f00000000000000000000000000000000000000000000000000000000000000006001600160a01b03168152602090f35b602060409281835280519182918282860152018484015e5f828201840152601f01601f1916010190565b600435906001600160a01b03821682036100d657565b602435906001600160a01b03821682036100d657565b916001600160a01b03808416928315610666571692831561064e57825f525f60205260405f20549082821061061c5750817fddf252ad1be2c89b69c2b068fc378daa952ba7f163c4a11628f55a4df523b3ef92602092855f525f84520360405f2055845f5260405f20818154019055604051908152a3565b60405163391434e360e21b81526001600160a01b03919091166004820152602481019190915260448101829052606490fd5b60405163ec442f0560e01b81525f6004820152602490fd5b604051634b637e8f60e11b81525f6004820152602490fdfea2646970667358221220353dbe4dcb246e81c43604e7f21820eb78d128f45c900bc2baa0cbfb71e028bd64736f6c6343000819003360a06040523461061c576115598038038061001981610620565b9283398101906101208183031261061c5780516001600160401b03919082811161061c5783610049918301610645565b9260208201519083821161061c57610062918301610645565b60408201519361007460608401610696565b92608081015160a08201519561008c60c08401610696565b9461010060e0850151940151948051908382116105015760035490600182811c92168015610612575b60208310146104e35781601f8493116105a4575b50602090601f8311600114610520575f92610515575b50508160011b915f199060031b1c1916176003555b80519182116105015760045490600182811c921680156104f7575b60208310146104e35781601f849311610478575b50602090601f83116001146103f4575f926103e9575b50508160011b915f199060031b1c1916176004555b6001600160a01b03958587169485156103d157600580546001600160a01b031980821689179092559093899391889085167f8be0079c531659141344cd1fd0a4f28419497f9722a3daafe3b4186f6b6457e05f80a38860805260085560095516906006541617600655600a55600b55805f52600e60205260405f2060ff1990600182825416179055305f5260405f20600182825416179055815f52600f60205260405f20600182825416179055305f52600160405f2091825416179055839260ff600c541615806103c4575b806103b6575b6103a4575f8052600f6020527ff4803e074bd026baaf6ed2e288c9515f68c72fb7216eebdd7cae1718a53ec3755460ff161580610392575b610333575b5f915f8052600e60205260ff60405f2054161580610321575b6102df575b50816102a4575b61028c84846106ca565b604051610e219081610738823960805181610a0e0152f35b81929350906102b691600654166106ca565b82039182116102cb5761028c91905f80610282565b634e487b7160e01b5f52601160045260245ffd5b60075482169081610305575050905060646102fc600854866106b7565b04905b5f61027b565b036102ff579050606461031a600954866106b7565b04906102ff565b50805f5260ff60405f20541615610276565b600a54851161038057806007541682141580610361575b1561025d57604051630ebe2dbd60e41b8152600490fd5b50815f525f6020526103778560405f20546106aa565b600b541061034a565b60405163864c7e9b60e01b8152600490fd5b50815f5260ff60405f20541615610258565b6040516312f1f92360e01b8152600490fd5b508060055416821415610220565b508060055416151561021a565b604051631e4fbdf760e01b81525f6004820152602490fd5b015190505f80610139565b60045f9081527f8a35acfbc15ff81a39ae7d344fd709f28e8600b4aa8c65c6b64bfe7fe36bd19b9350601f198516905b8181106104605750908460019594939210610448575b505050811b0160045561014e565b01515f1960f88460031b161c191690555f808061043a565b92936020600181928786015181550195019301610424565b60045f529091507f8a35acfbc15ff81a39ae7d344fd709f28e8600b4aa8c65c6b64bfe7fe36bd19b601f840160051c8101602085106104dc575b90849392915b601f830160051c820181106104ce575050610123565b5f81558594506001016104b8565b50806104b2565b634e487b7160e01b5f52602260045260245ffd5b91607f169161010f565b634e487b7160e01b5f52604160045260245ffd5b015190505f806100df565b60035f9081527fc2575a0e9e593c00f959f8c92f12db2869c3395a3b0502d05e2516446f71f85b9350601f198516905b81811061058c5750908460019594939210610574575b505050811b016003556100f4565b01515f1960f88460031b161c191690555f8080610566565b92936020600181928786015181550195019301610550565b60035f529091507fc2575a0e9e593c00f959f8c92f12db2869c3395a3b0502d05e2516446f71f85b601f840160051c81019160208510610608575b90601f859493920160051c01905b8181106105fa57506100c9565b5f81558493506001016105ed565b90915081906105df565b91607f16916100b5565b5f80fd5b6040519190601f01601f191682016001600160401b0381118382101761050157604052565b81601f8201121561061c578051906001600160401b03821161050157610674601f8301601f1916602001610620565b928284526020838301011161061c57815f9260208093018386015e8301015290565b51906001600160a01b038216820361061c57565b919082018092116102cb57565b818102929181159184041417156102cb57565b7fddf252ad1be2c89b69c2b068fc378daa952ba7f163c4a11628f55a4df523b3ef60205f926106fb856002546106aa565b6002556001600160a01b031693841584146107225780600254036002555b604051908152a3565b8484528382526040842081815401905561071956fe6080604090808252600480361015610015575f80fd5b5f3560e01c91826302d05d3f146109fc5750816306fdde0314610921578163095ea7b3146108795781631006ee0c146107fb57816318160ddd146107dd57816323b872dd146106eb578163313ce567146106d05781634ada218b146106ad5781634f7041a51461068f5781635342acb4146106535781636fd8fb7a1461063557816370a08231146105ff578163715018a6146105a4578163737ea06e1461057c5781637437681e1461055e57816381905bf81461051f5781638a8c523c146104ca5781638da5cb5b146104a257816395d89b4114610383578163a22d483214610340578163a8b0898214610318578163a9059cbb146102e8578163cc1776d3146102ca578163d94160e01461028e578163dd62ed3e14610245578163df8408fe14610204578163f2fde38b14610175575063f8b45b0514610154575f80fd5b34610171575f36600319011261017157602090600b549051908152f35b5f80fd5b90503461017157602036600319011261017157610190610a67565b90610199610ac2565b6001600160a01b039182169283156101ee575050600554826bffffffffffffffffffffffff60a01b821617600555167f8be0079c531659141344cd1fd0a4f28419497f9722a3daafe3b4186f6b6457e05f80a3005b905f6024925191631e4fbdf760e01b8352820152fd5b8234610171576102439061021736610a93565b9190610221610ac2565b60018060a01b03165f52600e6020525f209060ff801983541691151516179055565b005b8234610171578060031936011261017157602090610261610a67565b610269610a7d565b9060018060a01b038091165f5260018452825f2091165f528252805f20549051908152f35b8234610171576020366003190112610171576020906001600160a01b036102b3610a67565b165f52600f825260ff815f20541690519015158152f35b8234610171575f366003190112610171576020906009549051908152f35b8234610171578060031936011261017157602090610311610307610a67565b6024359033610aee565b5160018152f35b8234610171575f3660031901126101715760075490516001600160a01b039091168152602090f35b3461017157602036600319011261017157610359610a67565b610361610ac2565b600780546001600160a01b0319166001600160a01b0392909216919091179055005b8234610171575f366003190112610171578051905f835460018160011c9060018316928315610498575b6020938484108114610485578388529081156104695750600114610415575b505050829003601f01601f191682019267ffffffffffffffff84118385101761040257508291826103fe925282610a3d565b0390f35b604190634e487b7160e01b5f525260245ffd5b5f878152929350837f8a35acfbc15ff81a39ae7d344fd709f28e8600b4aa8c65c6b64bfe7fe36bd19b5b83851061045557505050508301018480806103cc565b80548886018301529301928490820161043f565b60ff1916878501525050151560051b84010190508480806103cc565b602289634e487b7160e01b5f525260245ffd5b91607f16916103ad565b8234610171575f3660031901126101715760055490516001600160a01b039091168152602090f35b8234610171575f3660031901126101715760207fb3da2db3dfc3778f99852546c6e9ab39ec253f9de7b0847afec61bd27878e92391610507610ac2565b600160ff19600c541617600c5542600d5551428152a1005b8234610171576102439061053236610a93565b919061053c610ac2565b60018060a01b03165f52600f6020525f209060ff801983541691151516179055565b8234610171575f36600319011261017157602090600a549051908152f35b8234610171575f3660031901126101715760065490516001600160a01b039091168152602090f35b34610171575f366003190112610171576105bc610ac2565b600580546001600160a01b031981169091555f906001600160a01b03167f8be0079c531659141344cd1fd0a4f28419497f9722a3daafe3b4186f6b6457e08280a3005b8234610171576020366003190112610171576020906001600160a01b03610624610a67565b165f525f8252805f20549051908152f35b8234610171575f36600319011261017157602090600d549051908152f35b8234610171576020366003190112610171576020906001600160a01b03610678610a67565b165f52600e825260ff815f20541690519015158152f35b8234610171575f366003190112610171576020906008549051908152f35b8234610171575f3660031901126101715760209060ff600c541690519015158152f35b8234610171575f366003190112610171576020905160128152f35b90503461017157606036600319011261017157610706610a67565b61070e610a7d565b906044359260018060a01b038216805f526001602052855f20335f52602052855f2054915f198303610749575b602087610311888888610aee565b8583106107b157811561079b57331561078557505f9081526001602090815286822033835281529086902091859003909155829061031161073b565b6024905f885191634a1406b160e11b8352820152fd5b6024905f88519163e602df0560e01b8352820152fd5b8651637dc7a0d960e11b8152339181019182526020820193909352604081018690528291506060010390fd5b8234610171575f366003190112610171576020906002549051908152f35b82346101715780600319360112610171578135602435610819610ac2565b60198211801561086f575b610860577fb841faf0d1b32571f4ef966a2f35e3ae51f3cdda45318c3da5570a5b2ad856059350816008558060095582519182526020820152a1005b5050516367e3b83560e01b8152fd5b5060198111610824565b8234610171578060031936011261017157610892610a67565b60243590331561090b576001600160a01b03169081156108f55760209350335f5260018452825f20825f52845280835f205582519081527f8c5be1e5ebec7d5bd14f71427d1e84f3dd0314c0f7b2291e5b200ac8c7c3b925843392a35160018152f35b8251634a1406b160e11b81525f81860152602490fd5b825163e602df0560e01b81525f81860152602490fd5b8234610171575f366003190112610171578051905f60035460018160011c90600183169283156109f2575b602093848410811461048557838852908115610469575060011461099c57505050829003601f01601f191682019267ffffffffffffffff84118385101761040257508291826103fe925282610a3d565b60035f908152929350837fc2575a0e9e593c00f959f8c92f12db2869c3395a3b0502d05e2516446f71f85b5b8385106109de57505050508301018480806103cc565b8054888601830152930192849082016109c8565b91607f169161094c565b34610171575f366003190112610171577f00000000000000000000000000000000000000000000000000000000000000006001600160a01b03168152602090f35b602060409281835280519182918282860152018484015e5f828201840152601f01601f1916010190565b600435906001600160a01b038216820361017157565b602435906001600160a01b038216820361017157565b6040906003190112610171576004356001600160a01b0381168103610171579060243580151581036101715790565b6005546001600160a01b03163303610ad657565b60405163118cdaa760e01b8152336004820152602490fd5b6001600160a01b038082169291908315610cbd57808316908115610ca557859460ff600c54161580610c97575b80610c89575b610c7757805f52600f60205260409260ff845f2054161580610c66575b610c0a575b5f93825f52600e60205260ff815f205416159081610bf8575b50610bb4575b505081610b78575b5050610b769350610cf5565b565b8192945090610b8b916006541685610cf5565b8303928311610ba057610b7692915f80610b6a565b634e487b7160e01b5f52601160045260245ffd5b6007548316918203610bdc57505090506064610bd260085487610ce2565b04905b5f80610b62565b03610bd55790506064610bf160095487610ce2565b0490610bd5565b60ff9150825f525f205416155f610b5c565b600a548811610c5557826007541681141580610c37575b15610b43578351630ebe2dbd60e41b8152600490fd5b50805f525f602052610c4c88855f2054610cd5565b600b5410610c21565b835163864c7e9b60e01b8152600490fd5b50805f5260ff845f20541615610b3e565b6040516312f1f92360e01b8152600490fd5b508160055416831415610b21565b508160055416811415610b1b565b60405163ec442f0560e01b81525f6004820152602490fd5b604051634b637e8f60e11b81525f6004820152602490fd5b91908201809211610ba057565b81810292918115918404141715610ba057565b6001600160a01b0380821692909183610d6c57507fddf252ad1be2c89b69c2b068fc378daa952ba7f163c4a11628f55a4df523b3ef91602091610d3a86600254610cd5565b6002555b169384610d575780600254036002555b604051908152a3565b845f525f825260405f20818154019055610d4e565b835f525f60205260405f205490858210610db9575091602091857fddf252ad1be2c89b69c2b068fc378daa952ba7f163c4a11628f55a4df523b3ef94865f525f85520360405f2055610d3e565b60405163391434e360e21b81526001600160a01b03919091166004820152602481019190915260448101859052606490fdfea2646970667358221220959d53a40e5eca6bd06f9ac175bd95427c7eb2c963e8ba9c11639e415b43a9e364736f6c634300081900336aba688e0d9fb13e49808a9f69e09384142cd46853e4ecfcf79aa7e4d63c1832a26469706673582212203408ae40059125e1c35d057ac114674c0b4792790f7d5f2176d49362a8bee80664736f6c63430008190033","linkReferences":{}},"methodIdentifiers":{"MAX_SUPPLY()":"32cb6b0c","MIN_CREATION_FEE()":"6a0c97fe","MIN_LOCK_DURATION()":"78b4330f","allTokens(uint256)":"634282af","andeSwapFactory()":"4d1dcc3e","andeSwapRouter()":"8e4c6198","andeToken()":"140f021c","autoListToken(address,uint256,uint256)":"4128b8c1","createBurnableToken(string,string,uint256,uint256)":"4aa9a56c","createMintableToken(string,string,uint256,uint256)":"2f8c2a14","createReflectionToken(string,string,uint256,uint256)":"ed2c718f","createStandardToken(string,string,uint256,bool,uint256)":"e49675eb","createTaxableToken(string,string,uint256,(uint256,uint256,address,uint256,uint256))":"6743f90c","creationFee()":"dce0b4e4","creatorTokens(address,uint256)":"db3fa4cc","deployedTokens(address)":"93d0aead","feeRecipient()":"46904840","getAllTokensLength()":"5ad20c3a","getCreatorTokens(address)":"74abfa54","owner()":"8da5cb5b","predictTokenAddress(address,string,string,uint256)":"637aa0fd","renounceOwnership()":"715018a6","setCreationFee(uint256)":"b7d86225","setFeeRecipient(address)":"e74b981b","tokensCreated()":"42750020","transferOwnership(address)":"f2fde38b","unlockLiquidity(address)":"d58c66ab","verifyToken(address)":"4130276b","withdrawFees()":"476343ee"},"id":151}