{"abi":[{"type":"constructor","inputs":[{"name":"_andeSwapFactory","type":"address","internalType":"address"},{"name":"_andeSwapRouter","type":"address","internalType":"address"},{"name":"_andeToken","type":"address","internalType":"address"},{"name":"_feeRecipient","type":"address","internalType":"address"}],"stateMutability":"nonpayable"},{"type":"receive","stateMutability":"payable"},{"type":"function","name":"MAX_SUPPLY","inputs":[],"outputs":[{"name":"","type":"uint256","internalType":"uint256"}],"stateMutability":"view"},{"type":"function","name":"MIN_CREATION_FEE","inputs":[],"outputs":[{"name":"","type":"uint256","internalType":"uint256"}],"stateMutability":"view"},{"type":"function","name":"MIN_LOCK_DURATION","inputs":[],"outputs":[{"name":"","type":"uint256","internalType":"uint256"}],"stateMutability":"view"},{"type":"function","name":"allTokens","inputs":[{"name":"","type":"uint256","internalType":"uint256"}],"outputs":[{"name":"","type":"address","internalType":"address"}],"stateMutability":"view"},{"type":"function","name":"andeSwapFactory","inputs":[],"outputs":[{"name":"","type":"address","internalType":"address"}],"stateMutability":"view"},{"type":"function","name":"andeSwapRouter","inputs":[],"outputs":[{"name":"","type":"address","internalType":"address"}],"stateMutability":"view"},{"type":"function","name":"andeToken","inputs":[],"outputs":[{"name":"","type":"address","internalType":"address"}],"stateMutability":"view"},{"type":"function","name":"autoListToken","inputs":[{"name":"tokenAddress","type":"address","internalType":"address"},{"name":"andeAmount","type":"uint256","internalType":"uint256"},{"name":"lockDuration","type":"uint256","internalType":"uint256"}],"outputs":[],"stateMutability":"nonpayable"},{"type":"function","name":"createBurnableToken","inputs":[{"name":"name","type":"string","internalType":"string"},{"name":"symbol","type":"string","internalType":"string"},{"name":"totalSupply","type":"uint256","internalType":"uint256"},{"name":"","type":"uint256","internalType":"uint256"}],"outputs":[{"name":"token","type":"address","internalType":"address"}],"stateMutability":"payable"},{"type":"function","name":"createMintableToken","inputs":[{"name":"name","type":"string","internalType":"string"},{"name":"symbol","type":"string","internalType":"string"},{"name":"initialSupply","type":"uint256","internalType":"uint256"},{"name":"maxSupply","type":"uint256","internalType":"uint256"}],"outputs":[{"name":"token","type":"address","internalType":"address"}],"stateMutability":"payable"},{"type":"function","name":"createReflectionToken","inputs":[{"name":"name","type":"string","internalType":"string"},{"name":"symbol","type":"string","internalType":"string"},{"name":"totalSupply","type":"uint256","internalType":"uint256"},{"name":"reflectionFee","type":"uint256","internalType":"uint256"}],"outputs":[{"name":"token","type":"address","internalType":"address"}],"stateMutability":"payable"},{"type":"function","name":"createStandardToken","inputs":[{"name":"name","type":"string","internalType":"string"},{"name":"symbol","type":"string","internalType":"string"},{"name":"totalSupply","type":"uint256","internalType":"uint256"},{"name":"autoList","type":"bool","internalType":"bool"},{"name":"initialLiquidity","type":"uint256","internalType":"uint256"}],"outputs":[{"name":"token","type":"address","internalType":"address"}],"stateMutability":"payable"},{"type":"function","name":"createTaxableToken","inputs":[{"name":"name","type":"string","internalType":"string"},{"name":"symbol","type":"string","internalType":"string"},{"name":"totalSupply","type":"uint256","internalType":"uint256"},{"name":"taxConfig","type":"tuple","internalType":"struct AndeTokenFactory.TaxConfig","components":[{"name":"buyTax","type":"uint256","internalType":"uint256"},{"name":"sellTax","type":"uint256","internalType":"uint256"},{"name":"taxRecipient","type":"address","internalType":"address"},{"name":"maxTx","type":"uint256","internalType":"uint256"},{"name":"maxWallet","type":"uint256","internalType":"uint256"}]}],"outputs":[{"name":"token","type":"address","internalType":"address"}],"stateMutability":"payable"},{"type":"function","name":"creationFee","inputs":[],"outputs":[{"name":"","type":"uint256","internalType":"uint256"}],"stateMutability":"view"},{"type":"function","name":"creatorTokens","inputs":[{"name":"","type":"address","internalType":"address"},{"name":"","type":"uint256","internalType":"uint256"}],"outputs":[{"name":"","type":"address","internalType":"address"}],"stateMutability":"view"},{"type":"function","name":"deployedTokens","inputs":[{"name":"","type":"address","internalType":"address"}],"outputs":[{"name":"tokenAddress","type":"address","internalType":"address"},{"name":"config","type":"tuple","internalType":"struct AndeTokenFactory.TokenConfig","components":[{"name":"name","type":"string","internalType":"string"},{"name":"symbol","type":"string","internalType":"string"},{"name":"totalSupply","type":"uint256","internalType":"uint256"},{"name":"tokenType","type":"uint8","internalType":"enum AndeTokenFactory.TokenType"},{"name":"creator","type":"address","internalType":"address"},{"name":"createdAt","type":"uint256","internalType":"uint256"},{"name":"autoList","type":"bool","internalType":"bool"},{"name":"initialLiquidity","type":"uint256","internalType":"uint256"},{"name":"lockDuration","type":"uint256","internalType":"uint256"}]},{"name":"verified","type":"bool","internalType":"bool"},{"name":"liquidityLocked","type":"uint256","internalType":"uint256"},{"name":"unlockTime","type":"uint256","internalType":"uint256"}],"stateMutability":"view"},{"type":"function","name":"feeRecipient","inputs":[],"outputs":[{"name":"","type":"address","internalType":"address"}],"stateMutability":"view"},{"type":"function","name":"getAllTokensLength","inputs":[],"outputs":[{"name":"","type":"uint256","internalType":"uint256"}],"stateMutability":"view"},{"type":"function","name":"getCreatorTokens","inputs":[{"name":"creator","type":"address","internalType":"address"}],"outputs":[{"name":"","type":"address[]","internalType":"address[]"}],"stateMutability":"view"},{"type":"function","name":"owner","inputs":[],"outputs":[{"name":"","type":"address","internalType":"address"}],"stateMutability":"view"},{"type":"function","name":"predictTokenAddress","inputs":[{"name":"creator","type":"address","internalType":"address"},{"name":"name","type":"string","internalType":"string"},{"name":"symbol","type":"string","internalType":"string"},{"name":"timestamp","type":"uint256","internalType":"uint256"}],"outputs":[{"name":"predicted","type":"address","internalType":"address"}],"stateMutability":"view"},{"type":"function","name":"renounceOwnership","inputs":[],"outputs":[],"stateMutability":"nonpayable"},{"type":"function","name":"setCreationFee","inputs":[{"name":"newFee","type":"uint256","internalType":"uint256"}],"outputs":[],"stateMutability":"nonpayable"},{"type":"function","name":"setFeeRecipient","inputs":[{"name":"newRecipient","type":"address","internalType":"address"}],"outputs":[],"stateMutability":"nonpayable"},{"type":"function","name":"tokensCreated","inputs":[],"outputs":[{"name":"","type":"uint256","internalType":"uint256"}],"stateMutability":"view"},{"type":"function","name":"transferOwnership","inputs":[{"name":"newOwner","type":"address","internalType":"address"}],"outputs":[],"stateMutability":"nonpayable"},{"type":"function","name":"unlockLiquidity","inputs":[{"name":"tokenAddress","type":"address","internalType":"address"}],"outputs":[],"stateMutability":"nonpayable"},{"type":"function","name":"verifyToken","inputs":[{"name":"tokenAddress","type":"address","internalType":"address"}],"outputs":[],"stateMutability":"nonpayable"},{"type":"function","name":"withdrawFees","inputs":[],"outputs":[],"stateMutability":"nonpayable"},{"type":"event","name":"CreationFeeUpdated","inputs":[{"name":"oldFee","type":"uint256","indexed":false,"internalType":"uint256"},{"name":"newFee","type":"uint256","indexed":false,"internalType":"uint256"}],"anonymous":false},{"type":"event","name":"FeeRecipientUpdated","inputs":[{"name":"oldRecipient","type":"address","indexed":false,"internalType":"address"},{"name":"newRecipient","type":"address","indexed":false,"internalType":"address"}],"anonymous":false},{"type":"event","name":"LiquidityUnlocked","inputs":[{"name":"tokenAddress","type":"address","indexed":true,"internalType":"address"},{"name":"amount","type":"uint256","indexed":false,"internalType":"uint256"}],"anonymous":false},{"type":"event","name":"OwnershipTransferred","inputs":[{"name":"previousOwner","type":"address","indexed":true,"internalType":"address"},{"name":"newOwner","type":"address","indexed":true,"internalType":"address"}],"anonymous":false},{"type":"event","name":"TokenCreated","inputs":[{"name":"creator","type":"address","indexed":true,"internalType":"address"},{"name":"tokenAddress","type":"address","indexed":true,"internalType":"address"},{"name":"name","type":"string","indexed":false,"internalType":"string"},{"name":"symbol","type":"string","indexed":false,"internalType":"string"},{"name":"tokenType","type":"uint8","indexed":false,"internalType":"enum AndeTokenFactory.TokenType"},{"name":"totalSupply","type":"uint256","indexed":false,"internalType":"uint256"}],"anonymous":false},{"type":"event","name":"TokenListed","inputs":[{"name":"tokenAddress","type":"address","indexed":true,"internalType":"address"},{"name":"pair","type":"address","indexed":true,"internalType":"address"},{"name":"liquidityAdded","type":"uint256","indexed":false,"internalType":"uint256"}],"anonymous":false},{"type":"event","name":"TokenVerified","inputs":[{"name":"tokenAddress","type":"address","indexed":true,"internalType":"address"}],"anonymous":false},{"type":"error","name":"InsufficientFee","inputs":[]},{"type":"error","name":"InvalidConfig","inputs":[]},{"type":"error","name":"InvalidParameters","inputs":[]},{"type":"error","name":"InvalidSupply","inputs":[]},{"type":"error","name":"InvalidTaxRate","inputs":[]},{"type":"error","name":"LiquidityStillLocked","inputs":[]},{"type":"error","name":"OwnableInvalidOwner","inputs":[{"name":"owner","type":"address","internalType":"address"}]},{"type":"error","name":"OwnableUnauthorizedAccount","inputs":[{"name":"account","type":"address","internalType":"address"}]},{"type":"error","name":"ReentrancyGuardReentrantCall","inputs":[]},{"type":"error","name":"TokenAlreadyExists","inputs":[]},{"type":"error","name":"UnauthorizedCaller","inputs":[]}],"bytecode":{"object":"0x60e03461014a57601f618d5938819003918201601f19168301916001600160401b0383118484101761014e5780849260809460405283398101031261014a5761004781610162565b61005360208301610162565b61006b606061006460408601610162565b9401610162565b3315610132575f549360018060a01b039260018060a01b03199433868816175f5560405196853391167f8be0079c531659141344cd1fd0a4f28419497f9722a3daafe3b4186f6b6457e05f80a36001805560805260a05260c05216906003541617600355662386f26fc10000600255618be29081610177823960805181818161070401528181610ae0015281816116800152611a64015260a051818181610f820152611a9f015260c0518181816106bf01528181610aac015281816119c10152611f750152f35b604051631e4fbdf760e01b81525f6004820152602490fd5b5f80fd5b634e487b7160e01b5f52604160045260245ffd5b51906001600160a01b038216820361014a5756fe6080806040526004908136101561001f575b5050361561001d575f80fd5b005b5f3560e01c908163140f021c14611f4b575080632f8c2a1414611db457806332cb6b0c14611d8d5780634128b8c1146119195780634130276b1461188457806342750020146118675780634690484014611834578063476343ee146117e55780634aa9a56c146116a45780634d1dcc3e146116545780635ad20c3a14611637578063634282af146115d2578063637aa0fd146114975780636743f90c1461114c5780636a0c97fe1461112b578063715018a6146110af57806374abfa5414610ff557806378b4330f14610fd85780638da5cb5b14610fa65780638e4c619814610f5657806393d0aead14610d21578063b7d8622514610c96578063d58c66ab14610a03578063db3fa4cc1461099e578063dce0b4e414610981578063e49675eb146104d8578063e74b981b14610438578063ed2c718f1461022f5763f2fde38b1461016a5780610011565b3461022b57602060031936011261022b57610183612103565b61018b612b56565b73ffffffffffffffffffffffffffffffffffffffff8091169182156101fb57505f54827fffffffffffffffffffffffff00000000000000000000000000000000000000008216175f55167f8be0079c531659141344cd1fd0a4f28419497f9722a3daafe3b4186f6b6457e05f80a3005b6024905f604051917f1e4fbdf7000000000000000000000000000000000000000000000000000000008352820152fd5b5f80fd5b50610239366120b4565b610245949193946123a4565b61024e846123df565b6102588386612464565b6103e8811161040f5760405160208101906102a68161027a42888b33886122bd565b037fffffffffffffffffffffffffffffffffffffffffffffffffffffffffffffffe08101835282611fff565b5190209060405190611859908183019183831067ffffffffffffffff8411176103e35790839291614b3f843960a0825260806102f66102e860a085018c61227a565b84810360208601528961227a565b92896040820152336060820152015203905ff580156103d8576020946103bb9473ffffffffffffffffffffffffffffffffffffffff7f6aba688e0d9fb13e49808a9f69e09384142cd46853e4ecfcf79aa7e4d63c1832931695869561039960405161036081611f99565b858152828b8201528460408201528760608201523360808201524260a08201525f60c08201525f60e08201525f610100820152886124a9565b6103ae6040519460808652608086019061227a565b908482038a86015261227a565b93604083015260608201528033930390a360018055604051908152f35b6040513d5f823e3d90fd5b6041867f4e487b71000000000000000000000000000000000000000000000000000000005f525260245ffd5b506040517f67e3b835000000000000000000000000000000000000000000000000000000008152fd5b3461022b57602060031936011261022b57610451612103565b610459612b56565b6003546040805173ffffffffffffffffffffffffffffffffffffffff8084168252848116602083015292937fffffffffffffffffffffffff0000000000000000000000000000000000000000939290917faaebcf1bfa00580e41d966056b48521fa9f202645c86d4ddf28113e617c1b1d39190a1169116176003555f80f35b5060a060031936011261022b5767ffffffffffffffff90803582811161022b576105059036908301612040565b9060243583811161022b5761051d9036908301612040565b604435606435938415159283860361022b576084359461053b6123a4565b610544846123df565b61054e8284612464565b604051976020988981019061056a8161027a42888a33886122bd565b5190206040519091610e5180830191821183831017610955578291610598916163988439888789339361235a565b03905ff59586156103d8576106079773ffffffffffffffffffffffffffffffffffffffff809816988997604051906105cf82611f99565b878252868d8301528860408301525f60608301523360808301524260a083015260c08201528360e08201525f610100820152886124a9565b8061094c575b61067d575b50507f6aba688e0d9fb13e49808a9f69e09384142cd46853e4ecfcf79aa7e4d63c18329293945061065f906106526040519360808552608085019061227a565b908382038985015261227a565b925f604083015260608201528033930390a360018055604051908152f35b604080517f23b872dd000000000000000000000000000000000000000000000000000000008152338185019081523060208201529182018390529296509091907f0000000000000000000000000000000000000000000000000000000000000000908a908390819060600103815f8c86165af19182156103d8576107829261091f575b50877f000000000000000000000000000000000000000000000000000000000000000016908a818b60405195869283927fe6a439050000000000000000000000000000000000000000000000000000000084528d840190602090939293604083019473ffffffffffffffffffffffffffffffffffffffff809216845216910152565b0381855afa9182156103d8578a988c945f94610900575b508a841615610805575b505050957f48a4867ae1de558174634fbaacefa7e5f70d61c782ceaeba4770449f19ab62c161065f94939282997f6aba688e0d9fb13e49808a9f69e09384142cd46853e4ecfcf79aa7e4d63c183298996040519586521693a390859493610612565b604080517fc9c6539600000000000000000000000000000000000000000000000000000000815273ffffffffffffffffffffffffffffffffffffffff9b8c169281019283529a909316602082015297989497949594869350909183915f9183910103925af19384156103d857877f48a4867ae1de558174634fbaacefa7e5f70d61c782ceaeba4770449f19ab62c18a82997f6aba688e0d9fb13e49808a9f69e09384142cd46853e4ecfcf79aa7e4d63c18329861065f975f916108d3575b50935099989781949596506107a3565b6108f39150833d85116108f9575b6108eb8183611fff565b81019061232e565b5f6108c3565b503d6108e1565b610918919450853d87116108f9576108eb8183611fff565b925f610799565b61093e908b3d8d11610945575b6109368183611fff565b810190612316565b505f610700565b503d61092c565b5080151561060d565b6041857f4e487b71000000000000000000000000000000000000000000000000000000005f525260245ffd5b3461022b575f60031936011261022b576020600254604051908152f35b3461022b57604060031936011261022b576109b7612103565b6024359073ffffffffffffffffffffffffffffffffffffffff8091165f52600760205260405f20805483101561022b576020926109f391612126565b9190546040519260031b1c168152f35b503461022b576020908160031936011261022b57610a1f612103565b91610a286123a4565b73ffffffffffffffffffffffffffffffffffffffff80841693845f526005835260405f20828582015460081c163303610c6d57600b01544210610c4457604080517fe6a4390500000000000000000000000000000000000000000000000000000000815273ffffffffffffffffffffffffffffffffffffffff9283168682019081527f0000000000000000000000000000000000000000000000000000000000000000909316602084015291849183918291010381857f0000000000000000000000000000000000000000000000000000000000000000165afa9081156103d8575f91610c27575b5016604051907f70a0823100000000000000000000000000000000000000000000000000000000825230848301528282602481845afa9182156103d8575f92610bf6575b50604080517fa9059cbb00000000000000000000000000000000000000000000000000000000815233958101958652602086018490529484928692909183915f918391015b03925af19283156103d8577fbc075837768dcd77a58731f7945fff3f5c9d285e3ade5c5b3c6f4fd15342457893610bd9575b50604051908152a260018055005b610bef90833d8511610945576109368183611fff565b505f610bcb565b9091508281813d8311610c20575b610c0e8183611fff565b8101031261022b575190610b99610b54565b503d610c04565b610c3e9150833d85116108f9576108eb8183611fff565b5f610b10565b836040517fbdcf71ae000000000000000000000000000000000000000000000000000000008152fd5b846040517f5c427cd9000000000000000000000000000000000000000000000000000000008152fd5b503461022b57602060031936011261022b57803590610cb3612b56565b662386f26fc100008210610cf957507f5de302eeb1c80d4fb0c0953b692353f09ddf431411b8eb2034d5e8576956191260406002548151908152836020820152a1600255005b6040517f35be3ac8000000000000000000000000000000000000000000000000000000008152fd5b503461022b57602060031936011261022b5773ffffffffffffffffffffffffffffffffffffffff610d50612103565b165f52600560205260405f2073ffffffffffffffffffffffffffffffffffffffff81541660405190610d8182611f99565b610d8d600184016121b9565b8252610d9b600284016121b9565b926020830193845260038101546040840152848101549460ff86169260608501936005811015610f2a57845273ffffffffffffffffffffffffffffffffffffffff608086019760081c168752600583015460a0860190815260ff60068501541660c08701901515815260078501549160e08801928352600886015493610100890194855260ff60098801541695600b600a890154980154986040610e9381519d8e95865260a060208701528d5195610e61610120978860a08401526101c083019061227a565b91519060c07fffffffffffffffffffffffffffffffffffffffffffffffffffffffffffffff608285030191015261227a565b9b015160e08d015251906005821015610efe57508a9b73ffffffffffffffffffffffffffffffffffffffff916101008d01525116908a01525161014089015251151561016088015251610180870152516101a086015215156040850152606084015260808301520390f35b6021907f4e487b71000000000000000000000000000000000000000000000000000000005f525260245ffd5b6021837f4e487b71000000000000000000000000000000000000000000000000000000005f525260245ffd5b3461022b575f60031936011261022b57602060405173ffffffffffffffffffffffffffffffffffffffff7f0000000000000000000000000000000000000000000000000000000000000000168152f35b3461022b575f60031936011261022b57602073ffffffffffffffffffffffffffffffffffffffff5f5416604051908152f35b3461022b575f60031936011261022b57602060405162278d008152f35b3461022b5760208060031936011261022b5773ffffffffffffffffffffffffffffffffffffffff9081611026612103565b165f526007815260405f20604051918281835491828152019081935f52825f20905f5b818110611099575050508361105f910384611fff565b6040519281840190828552518091526040840192915f5b8281106110835785850386f35b8351871685529381019392810192600101611076565b8254881684529284019260019283019201611049565b3461022b575f60031936011261022b576110c7612b56565b5f73ffffffffffffffffffffffffffffffffffffffff81547fffffffffffffffffffffffff000000000000000000000000000000000000000081168355167f8be0079c531659141344cd1fd0a4f28419497f9722a3daafe3b4186f6b6457e08280a3005b3461022b575f60031936011261022b576020604051662386f26fc100008152f35b5061010060031936011261022b5767ffffffffffffffff813581811161022b576111799036908401612040565b9060243581811161022b576111919036908501612040565b9060a07fffffffffffffffffffffffffffffffffffffffffffffffffffffffffffffff9c36011261022b57604051906111c982611fe3565b606435825260208201608435815260a43573ffffffffffffffffffffffffffffffffffffffff8116810361022b57604084019081526060840160c4358152608085019060e43582526112196123a4565b6112246044356123df565b61122e8789612464565b6109c48087511190811561148c575b5061146357805115801561145a575b6114315773ffffffffffffffffffffffffffffffffffffffff604051602081019061127f8161027a8d8d429133886122bd565b51902096519451935116905191519260405195866119c4810110906119c488011117611405578596979899506119c46171e987396112e56112cf610120806119c48a01526119c48901018c61227a565b6119c48801810360206119c48a0101528a61227a565b9460443560406119c4890101523360606119c48901015260806119c48801015260a06119c48701015260c06119c48601015260e06119c4850101526101006119c48401015203905ff59081156103d8576020927f6aba688e0d9fb13e49808a9f69e09384142cd46853e4ecfcf79aa7e4d63c183273ffffffffffffffffffffffffffffffffffffffff6113e394169384936113c160405161138581611f99565b85815282898201526044356040820152600360608201523360808201524260a08201525f60c08201525f60e08201525f610100820152866124a9565b6113d66040519460808652608086019061227a565b908482038886015261227a565b916003604082015260443560608201528033930390a360018055604051908152f35b60418a7f4e487b71000000000000000000000000000000000000000000000000000000005f525260245ffd5b886040517f35be3ac8000000000000000000000000000000000000000000000000000000008152fd5b5081511561124c565b886040517f67e3b835000000000000000000000000000000000000000000000000000000008152fd5b90508451115f61123d565b503461022b57608060031936011261022b576114b1612103565b67ffffffffffffffff9060243582811161022b576114d29036908501612040565b9060443583811161022b576114ed6115059136908701612040565b61027a604051938492602084019660643592886122bd565b51902091610e5160405161151c6020830182611fff565b81815260208101916163988339519020906040519160208301947fff0000000000000000000000000000000000000000000000000000000000000086523060601b602185015260358401526055830152605582526080820192828410908411176115a6575060209273ffffffffffffffffffffffffffffffffffffffff9183604052519020168152f35b6041907f4e487b71000000000000000000000000000000000000000000000000000000005f525260245ffd5b503461022b57602060031936011261022b573560065481101561022b5773ffffffffffffffffffffffffffffffffffffffff60209160065f527ff652222313e28459528d920b65115c16c04f3efc82aaedc97be59f3f377c0d3f015416604051908152f35b3461022b575f60031936011261022b576020600654604051908152f35b3461022b575f60031936011261022b57602060405173ffffffffffffffffffffffffffffffffffffffff7f0000000000000000000000000000000000000000000000000000000000000000168152f35b506116ae366120b4565b50926116b86123a4565b6116c1846123df565b6116cb8284612464565b60405160208101906116e48161027a42878933886122bd565b5190209060405190610e7c8083019183831067ffffffffffffffff8411176115a65750829161171c91612ba78439878688339361235a565b03905ff59283156103d8577f6aba688e0d9fb13e49808a9f69e09384142cd46853e4ecfcf79aa7e4d63c18326117c69373ffffffffffffffffffffffffffffffffffffffff602096169485946117b160405161177781611f99565b848152828a820152866040820152600260608201523360808201524260a08201525f60c08201525f60e08201525f610100820152876124a9565b6106526040519360808552608085019061227a565b926002604083015260608201528033930390a360018055604051908152f35b3461022b575f60031936011261022b576117fd612b56565b5f8080804773ffffffffffffffffffffffffffffffffffffffff6003541682821561182b575bf1156103d857005b506108fc611823565b3461022b575f60031936011261022b57602073ffffffffffffffffffffffffffffffffffffffff60035416604051908152f35b503461022b575f60031936011261022b5760209054604051908152f35b3461022b57602060031936011261022b5773ffffffffffffffffffffffffffffffffffffffff6118b2612103565b6118ba612b56565b16805f526005602052600960405f200160017fffffffffffffffffffffffffffffffffffffffffffffffffffffffffffffff008254161790557f62f9febaf4690d6df2716e783e6c2352e1fa133b117d53882d323c316161464b5f80a2005b503461022b57606060031936011261022b57611933612103565b60243590604435926119436123a4565b73ffffffffffffffffffffffffffffffffffffffff80831692835f526020926005845260405f2096838289015460081c163303611d645762278d008110611d3b57604080517f23b872dd00000000000000000000000000000000000000000000000000000000815233848201908152306020820152918201899052937f00000000000000000000000000000000000000000000000000000000000000008681169288908790819060600103815f875af19182156103d857611a5e968993611d1e575b50604080517fc9c6539600000000000000000000000000000000000000000000000000000000815273ffffffffffffffffffffffffffffffffffffffff9283168882019081529290931660208301529196879283920190565b03815f897f0000000000000000000000000000000000000000000000000000000000000000165af19384156103d8575f94611cff575b50600389015460011c7f0000000000000000000000000000000000000000000000000000000000000000908460405189818c815f81611b1d898b7f095ea7b3000000000000000000000000000000000000000000000000000000009a8b855284016020909392919373ffffffffffffffffffffffffffffffffffffffff60408201951681520152565b03925af180156103d857611b6b928b928e92611ce2575b5060405193849283928352878b84016020909392919373ffffffffffffffffffffffffffffffffffffffff60408201951681520152565b03815f885af180156103d857611cc5575b50610e10420190814211611c9957855f896060958d958f610104966040519a8b998a987fe8e33700000000000000000000000000000000000000000000000000000000008a528901526024880152806044880152816064880152608487015260a48601523060c486015260e4850152165af180156103d857611c6e575b5086600a890155420190814211611c425750600b7f48a4867ae1de558174634fbaacefa7e5f70d61c782ceaeba4770449f19ab62c195969701556040519586521693a360018055005b6011907f4e487b71000000000000000000000000000000000000000000000000000000005f525260245ffd5b606090813d8311611c92575b611c848183611fff565b8101031261022b575f611bf9565b503d611c7a565b6011867f4e487b71000000000000000000000000000000000000000000000000000000005f525260245ffd5b611cdb90893d8b11610945576109368183611fff565b505f611b7c565b611cf890843d8611610945576109368183611fff565b505f611b34565b611d17919450863d88116108f9576108eb8183611fff565b925f611a94565b611d3490843d8611610945576109368183611fff565b505f611a05565b506040517f35be3ac8000000000000000000000000000000000000000000000000000000008152fd5b506040517f5c427cd9000000000000000000000000000000000000000000000000000000008152fd5b3461022b575f60031936011261022b5760206040516c0c9f2c9cd04674edea400000008152f35b50611dbe366120b4565b9093611dc86123a4565b611dd1856123df565b611ddb8385612464565b6c0c9f2c9cd04674edea400000008211611f2357848210611f23576040516020810190611e0f8161027a42888a33886122bd565b519020916040519161111c8084019184831067ffffffffffffffff8411176115a6575090839291613a23843960a08152611e5d611e4f60a083018961227a565b82810360208401528761227a565b91886040830152606082015260803391015203905ff59283156103d8577f6aba688e0d9fb13e49808a9f69e09384142cd46853e4ecfcf79aa7e4d63c1832611f049373ffffffffffffffffffffffffffffffffffffffff602096169485946117b1604051611eca81611f99565b848152828a820152866040820152600160608201523360808201524260a08201525f60c08201525f60e08201525f610100820152876124a9565b926001604083015260608201528033930390a360018055604051908152f35b6040517f15ae6727000000000000000000000000000000000000000000000000000000008152fd5b3461022b575f60031936011261022b5760209073ffffffffffffffffffffffffffffffffffffffff7f0000000000000000000000000000000000000000000000000000000000000000168152f35b610120810190811067ffffffffffffffff821117611fb657604052565b7f4e487b71000000000000000000000000000000000000000000000000000000005f52604160045260245ffd5b60a0810190811067ffffffffffffffff821117611fb657604052565b90601f7fffffffffffffffffffffffffffffffffffffffffffffffffffffffffffffffe0910116810190811067ffffffffffffffff821117611fb657604052565b81601f8201121561022b5780359067ffffffffffffffff8211611fb6576040519261209360207fffffffffffffffffffffffffffffffffffffffffffffffffffffffffffffffe0601f8601160185611fff565b8284526020838301011161022b57815f926020809301838601378301015290565b90608060031983011261022b5767ffffffffffffffff60043581811161022b57836120e191600401612040565b9260243591821161022b576120f891600401612040565b906044359060643590565b6004359073ffffffffffffffffffffffffffffffffffffffff8216820361022b57565b805482101561213b575f5260205f2001905f90565b7f4e487b71000000000000000000000000000000000000000000000000000000005f52603260045260245ffd5b90600182811c921680156121af575b602083101461218257565b7f4e487b71000000000000000000000000000000000000000000000000000000005f52602260045260245ffd5b91607f1691612177565b9060405191825f82546121cb81612168565b908184526020946001916001811690815f1461223957506001146121fb575b5050506121f992500383611fff565b565b5f90815285812095935091905b8183106122215750506121f993508201015f80806121ea565b85548884018501529485019487945091830191612208565b9150506121f99593507fffffffffffffffffffffffffffffffffffffffffffffffffffffffffffffff0091501682840152151560051b8201015f80806121ea565b907fffffffffffffffffffffffffffffffffffffffffffffffffffffffffffffffe0601f602080948051918291828752018686015e5f8582860101520116010190565b6020929083917fffffffffffffffffffffffffffffffffffffffff000000000000000000000000603497969460601b168252805192839101601483015e0190601482015f8152815193849201905e019060148201520190565b9081602091031261022b5751801515810361022b5790565b9081602091031261022b575173ffffffffffffffffffffffffffffffffffffffff8116810361022b5790565b92949361239860609361238a73ffffffffffffffffffffffffffffffffffffffff9460808852608088019061227a565b90868203602088015261227a565b95604085015216910152565b6002600154146123b5576002600155565b60046040517f3ee5aeb5000000000000000000000000000000000000000000000000000000008152fd5b600254341061243a578015908115612423575b506123f957565b60046040517f15ae6727000000000000000000000000000000000000000000000000000000008152fd5b6c0c9f2c9cd04674edea400000009150115f6123f2565b60046040517f025dbdd4000000000000000000000000000000000000000000000000000000008152fd5b511590811561249f575b5061247557565b60046040517fe5239090000000000000000000000000000000000000000000000000000000008152fd5b905051155f61246e565b604051916124b683611fe3565b73ffffffffffffffffffffffffffffffffffffffff82168352602083019081525f60408401525f60608401525f608084015273ffffffffffffffffffffffffffffffffffffffff82165f52600560205260405f209073ffffffffffffffffffffffffffffffffffffffff8451167fffffffffffffffffffffffff00000000000000000000000000000000000000008354161782555192835180519067ffffffffffffffff8211611fb657819061256f6001860154612168565b601f8111612b06575b50602090601f8311600114612a3d575f92612a32575b50507fffffffffffffffffffffffffffffffffffffffffffffffffffffffffffffffff8260011b9260031b1c19161760018301555b602084015180519067ffffffffffffffff8211611fb65781906125e96002860154612168565b601f81116129df575b50602090601f8311600114612916575f9261290b575b50507fffffffffffffffffffffffffffffffffffffffffffffffffffffffffffffffff8260011b9260031b1c19161760028301555b60408401516003830155600493848301606082015160058110156128df576080928261010092600b9694547fffffffffffffffffffffff00000000000000000000000000000000000000000060ff74ffffffffffffffffffffffffffffffffffffffff008987015160081b16931691161717905560a081015160058701556126f960c08201511515600688019060ff7fffffffffffffffffffffffffffffffffffffffffffffffffffffffffffffff0083541691151516179055565b60e081015160078701550151600885015561274860408201511515600986019060ff7fffffffffffffffffffffffffffffffffffffffffffffffffffffffffffffff0083541691151516179055565b6060810151600a85015501519101556006546801000000000000000090818110156128875760018101806006558110156128b3577ff652222313e28459528d920b65115c16c04f3efc82aaedc97be59f3f377c0d3f0173ffffffffffffffffffffffffffffffffffffffff83167fffffffffffffffffffffffff0000000000000000000000000000000000000000825416179055335f52600760205260405f20805491821015612887579061280291600182018155612126565b73ffffffffffffffffffffffffffffffffffffffff80839493549260031b9316831b921b191617905580547fffffffffffffffffffffffffffffffffffffffffffffffffffffffffffffffff811461285b576001019055565b6011827f4e487b71000000000000000000000000000000000000000000000000000000005f525260245ffd5b6041847f4e487b71000000000000000000000000000000000000000000000000000000005f525260245ffd5b6032847f4e487b71000000000000000000000000000000000000000000000000000000005f525260245ffd5b6021877f4e487b71000000000000000000000000000000000000000000000000000000005f525260245ffd5b015190505f80612608565b9250600285015f5260205f20905f935b7fffffffffffffffffffffffffffffffffffffffffffffffffffffffffffffffe0841685106129c45760019450837fffffffffffffffffffffffffffffffffffffffffffffffffffffffffffffffe081161061298d575b505050811b01600283015561263d565b01517fffffffffffffffffffffffffffffffffffffffffffffffffffffffffffffffff60f88460031b161c191690555f808061297d565b81810151835560209485019460019093019290910190612926565b909150600285015f5260205f20601f840160051c81019160208510612a28575b90601f859493920160051c01905b818110612a1a57506125f2565b5f8155849350600101612a0d565b90915081906129ff565b015190505f8061258e565b9250600185015f5260205f20905f935b7fffffffffffffffffffffffffffffffffffffffffffffffffffffffffffffffe084168510612aeb5760019450837fffffffffffffffffffffffffffffffffffffffffffffffffffffffffffffffe0811610612ab4575b505050811b0160018301556125c3565b01517fffffffffffffffffffffffffffffffffffffffffffffffffffffffffffffffff60f88460031b161c191690555f8080612aa4565b81810151835560209485019460019093019290910190612a4d565b909150600185015f5260205f20601f840160051c810160208510612b4f575b90849392915b601f830160051c82018110612b41575050612578565b5f8155859450600101612b2b565b5080612b25565b73ffffffffffffffffffffffffffffffffffffffff5f54163303612b7657565b60246040517f118cdaa7000000000000000000000000000000000000000000000000000000008152336004820152fdfe604060a081523461037557610e7c8038038061001a81610379565b92833981016080828203126103755781516001600160401b039290838111610375578261004891830161039e565b60209283830151908582116103755761006291840161039e565b906060868401519301519060018060a01b0382169586830361037557815181811161028a576003908154906001948583811c9316801561036b575b8a841014610357578190601f93848111610309575b508a908483116001146102a9575f9261029e575b50505f1982851b1c191690851b1782555b855192831161028a5760049586548581811c91168015610280575b8a82101461026d5782811161022a575b50889184116001146101c8579383949184925f956101bd575b50501b925f19911b1c19161782555b60805283156101a7576002549082820180921161019457506002555f8381528083528481208054830190558451918252917fddf252ad1be2c89b69c2b068fc378daa952ba7f163c4a11628f55a4df523b3ef91a351610a8c90816103f08239608051816106450152f35b601190634e487b7160e01b5f525260245ffd5b6024905f86519163ec442f0560e01b8352820152fd5b015193505f8061011b565b9190601f19841692875f52848a5f20945f5b8c8983831061021357505050106101fa575b50505050811b01825561012a565b01519060f8845f19921b161c191690555f8080806101ec565b8686015189559097019694850194889350016101da565b875f52895f208380870160051c8201928c8810610264575b0160051c019086905b828110610259575050610102565b5f815501869061024b565b92508192610242565b602288634e487b7160e01b5f525260245ffd5b90607f16906100f2565b634e487b7160e01b5f52604160045260245ffd5b015190505f806100c6565b5f8681528c8120899550929190601f198516908e5b8282106102f257505084116102db575b505050811b0182556100d7565b01515f1983871b60f8161c191690555f80806102ce565b8385015186558b979095019493840193018e6102be565b909150845f528a5f208480850160051c8201928d861061034e575b918991869594930160051c01915b8281106103405750506100b2565b5f8155859450899101610332565b92508192610324565b634e487b7160e01b5f52602260045260245ffd5b92607f169261009d565b5f80fd5b6040519190601f01601f191682016001600160401b0381118382101761028a57604052565b81601f82011215610375578051906001600160401b03821161028a576103cd601f8301601f1916602001610379565b928284526020838301011161037557815f9260208093018386015e830101529056fe6080604090808252600480361015610015575f80fd5b5f3560e01c91826302d05d3f1461061b5750816306fdde03146104f5578163095ea7b31461040e57816318160ddd146103f057816323b872dd146103b4578163313ce5671461039957816342966c681461037d57816370a082311461033a57816379cc67901461030957816395d89b411461012e57508063a9059cbb146100fe5763dd62ed3e146100a4575f80fd5b346100fa57806003193601126100fa576020906100bf6106b1565b6100c76106d4565b9073ffffffffffffffffffffffffffffffffffffffff8091165f5260018452825f2091165f528252805f20549051908152f35b5f80fd5b50346100fa57806003193601126100fa5760209061012761011d6106b1565b6024359033610847565b5160018152f35b9050346100fa575f6003193601126100fa5781515f928254936001948060011c600182169687156102ff575b60209283831089146102d357869798838897985290815f1461027857506001146101fd575b50505003601f017fffffffffffffffffffffffffffffffffffffffffffffffffffffffffffffffe01682019267ffffffffffffffff8411838510176101d157508291826101cd925282610669565b0390f35b6041907f4e487b71000000000000000000000000000000000000000000000000000000005f525260245ffd5b5f888152929493507f8a35acfbc15ff81a39ae7d344fd709f28e8600b4aa8c65c6b64bfe7fe36bd19b5b82841061026257505050907fffffffffffffffffffffffffffffffffffffffffffffffffffffffffffffffe092601f9282010191819361017f565b8054888501870152879450928501928101610227565b7fffffffffffffffffffffffffffffffffffffffffffffffffffffffffffffff0016848701525050151560051b830101905081601f7fffffffffffffffffffffffffffffffffffffffffffffffffffffffffffffffe061017f565b6022887f4e487b71000000000000000000000000000000000000000000000000000000005f525260245ffd5b90607f169061015a565b82346100fa576003193601126100fa576103386103246106b1565b602435906103338233836106f7565b610984565b005b82346100fa5760206003193601126100fa5760209073ffffffffffffffffffffffffffffffffffffffff61036c6106b1565b165f525f8252805f20549051908152f35b346100fa5760206003193601126100fa57610338903533610984565b82346100fa575f6003193601126100fa576020905160128152f35b82346100fa5760606003193601126100fa576020906101276103d46106b1565b6103dc6106d4565b604435916103eb8333836106f7565b610847565b82346100fa575f6003193601126100fa576020906002549051908152f35b82346100fa57806003193601126100fa576104276106b1565b6024359033156104c65773ffffffffffffffffffffffffffffffffffffffff169081156104975760209350335f5260018452825f20825f52845280835f205582519081527f8c5be1e5ebec7d5bd14f71427d1e84f3dd0314c0f7b2291e5b200ac8c7c3b925843392a35160018152f35b6024845f8551917f94280d62000000000000000000000000000000000000000000000000000000008352820152fd5b6024845f8551917fe602df05000000000000000000000000000000000000000000000000000000008352820152fd5b9050346100fa575f6003193601126100fa5781515f92600354936001948060011c60018216968715610611575b60209283831089146102d357869798838897985290815f1461027857506001146105945750505003601f017fffffffffffffffffffffffffffffffffffffffffffffffffffffffffffffffe01682019267ffffffffffffffff8411838510176101d157508291826101cd925282610669565b60035f908152929493507fc2575a0e9e593c00f959f8c92f12db2869c3395a3b0502d05e2516446f71f85b5b8284106105fb57505050907fffffffffffffffffffffffffffffffffffffffffffffffffffffffffffffffe092601f9282010191819361017f565b80548885018701528794509285019281016105c0565b90607f1690610522565b346100fa575f6003193601126100fa5760209073ffffffffffffffffffffffffffffffffffffffff7f0000000000000000000000000000000000000000000000000000000000000000168152f35b7fffffffffffffffffffffffffffffffffffffffffffffffffffffffffffffffe0601f602060409481855280519182918282880152018686015e5f8582860101520116010190565b6004359073ffffffffffffffffffffffffffffffffffffffff821682036100fa57565b6024359073ffffffffffffffffffffffffffffffffffffffff821682036100fa57565b919073ffffffffffffffffffffffffffffffffffffffff80931692835f526001602052604093845f2091831691825f52602052845f2054927fffffffffffffffffffffffffffffffffffffffffffffffffffffffffffffffff840361075f575b505050505050565b8484106107f1575080156107c2578115610793575f526001602052835f20905f5260205203905f20555f8080808080610757565b602485517f94280d620000000000000000000000000000000000000000000000000000000081525f6004820152fd5b602485517fe602df050000000000000000000000000000000000000000000000000000000081525f6004820152fd5b85517ffb8f41b200000000000000000000000000000000000000000000000000000000815273ffffffffffffffffffffffffffffffffffffffff9190911660048201526024810184905260448101859052606490fd5b9173ffffffffffffffffffffffffffffffffffffffff808416928315610954571692831561092457825f525f60205260405f2054908282106108cc5750817fddf252ad1be2c89b69c2b068fc378daa952ba7f163c4a11628f55a4df523b3ef92602092855f525f84520360405f2055845f5260405f20818154019055604051908152a3565b6040517fe450d38c00000000000000000000000000000000000000000000000000000000815273ffffffffffffffffffffffffffffffffffffffff919091166004820152602481019190915260448101829052606490fd5b60246040517fec442f050000000000000000000000000000000000000000000000000000000081525f6004820152fd5b60246040517f96c6fd1e0000000000000000000000000000000000000000000000000000000081525f6004820152fd5b919073ffffffffffffffffffffffffffffffffffffffff831690811561095457815f525f60205260405f2054938185106109fe57506020817fddf252ad1be2c89b69c2b068fc378daa952ba7f163c4a11628f55a4df523b3ef925f95968587528684520360408620558060025403600255604051908152a3565b6040517fe450d38c00000000000000000000000000000000000000000000000000000000815273ffffffffffffffffffffffffffffffffffffffff919091166004820152602481018590526044810191909152606490fdfea2646970667358221220a35cebb9cc0a633bbd27126fe6821de0a880d996af7bf514e41c82f551bb10a364736f6c63430008190033604060c08152346103e25761111c8038038061001a816103e6565b928339810160a0828203126103e25781516001600160401b0392908381116103e2578261004891830161040b565b9060209283820151908582116103e25761006391830161040b565b908581015192608060608301519201519060018060a01b0390818316978884036103e25781518181116102ea576003908154906001948583811c931680156103d8575b8c8410146103c45781908c601f94858111610373575b50508c90848311600114610309575f926102fe575b50505f1982851b1c191690851b1782555b87519283116102ea5760049788548581811c911680156102e0575b8c8210146102cd5780838d9211610288575b50508a918411600114610224579383949184925f95610219575b50501b925f19911b1c19161784555b861561020357600580546001600160a01b0319811689179091558791167f8be0079c531659141344cd1fd0a4f28419497f9722a3daafe3b4186f6b6457e05f80a360a052608052600254908282018092116101f057506002555f8381528083528481208054830190558451918252917fddf252ad1be2c89b69c2b068fc378daa952ba7f163c4a11628f55a4df523b3ef91a351610cbf908161045d82396080518181816101fb0152610554015260a05181610a0f0152f35b601190634e487b7160e01b5f525260245ffd5b8751631e4fbdf760e01b81525f81860152602490fd5b015193505f80610129565b9190601f19841692895f52848c5f20948d5f905b898383106102705750505010610257575b50505050811b018455610138565b01519060f8845f19921b161c191690555f808080610249565b8686015189559097019694850194889350018e610238565b8a5f5283825f209181880160051c83019388106102c4575b0160051c019086905b8281106102b957508c915061010f565b5f81550186906102a9565b925081926102a0565b60228a634e487b7160e01b5f525260245ffd5b90607f16906100fd565b634e487b7160e01b5f52604160045260245ffd5b015190505f806100d1565b879350908d91601f198416875f52835f20935f905b828210610352575050841161033b575b505050811b0182556100e2565b01515f1983871b60f8161c191690555f808061032e565b91929395968291958786015181550195019301908f918a969594939261031e565b90919250855f5284825f209181860160051c83019386106103bb575b918991869594930160051c01915b8281106103ad57508e91506100bc565b5f815585945089910161039d565b9250819261038f565b634e487b7160e01b5f52602260045260245ffd5b92607f16926100a6565b5f80fd5b6040519190601f01601f191682016001600160401b038111838210176102ea57604052565b81601f820112156103e2578051906001600160401b0382116102ea5761043a601f8301601f19166020016103e6565b92828452602083830101116103e257815f9260208093018386015e830101529056fe608060409080825260049081361015610016575f80fd5b5f3560e01c90816302d05d3f146109e55750806306fdde03146108c0578063095ea7b3146107d857806318160ddd146107ba57806323b872dd14610651578063313ce5671461063657806340c10f191461051d57806370a08231146104da578063715018a61461045c5780638da5cb5b1461042857806395d89b411461024e578063a9059cbb1461021e578063d5abeb01146101e4578063dd62ed3e1461018d5763f2fde38b146100c5575f80fd5b34610189576020600319360112610189576100de610a7b565b906100e7610c38565b73ffffffffffffffffffffffffffffffffffffffff80921692831561015a575050600554827fffffffffffffffffffffffff0000000000000000000000000000000000000000821617600555167f8be0079c531659141344cd1fd0a4f28419497f9722a3daafe3b4186f6b6457e05f80a3005b905f60249251917f1e4fbdf7000000000000000000000000000000000000000000000000000000008352820152fd5b5f80fd5b82346101895780600319360112610189576020906101a9610a7b565b6101b1610a9e565b9073ffffffffffffffffffffffffffffffffffffffff8091165f5260018452825f2091165f528252805f20549051908152f35b8234610189575f60031936011261018957602090517f00000000000000000000000000000000000000000000000000000000000000008152f35b823461018957806003193601126101895760209061024761023d610a7b565b6024359033610afb565b5160018152f35b5034610189575f6003193601126101895781515f928254936001948060011c6001821696871561041e575b60209283831089146103f257869798838897985290815f14610397575060011461031c575b50505003601f017fffffffffffffffffffffffffffffffffffffffffffffffffffffffffffffffe01682019267ffffffffffffffff8411838510176102f057508291826102ec925282610a33565b0390f35b6041907f4e487b71000000000000000000000000000000000000000000000000000000005f525260245ffd5b5f888152929493507f8a35acfbc15ff81a39ae7d344fd709f28e8600b4aa8c65c6b64bfe7fe36bd19b5b82841061038157505050907fffffffffffffffffffffffffffffffffffffffffffffffffffffffffffffffe092601f9282010191819361029e565b8054888501870152879450928501928101610346565b7fffffffffffffffffffffffffffffffffffffffffffffffffffffffffffffff0016848701525050151560051b830101905081601f7fffffffffffffffffffffffffffffffffffffffffffffffffffffffffffffffe061029e565b6022887f4e487b71000000000000000000000000000000000000000000000000000000005f525260245ffd5b90607f1690610279565b8234610189575f6003193601126101895760209073ffffffffffffffffffffffffffffffffffffffff600554169051908152f35b34610189575f60031936011261018957610474610c38565b5f73ffffffffffffffffffffffffffffffffffffffff6005547fffffffffffffffffffffffff00000000000000000000000000000000000000008116600555167f8be0079c531659141344cd1fd0a4f28419497f9722a3daafe3b4186f6b6457e08280a3005b82346101895760206003193601126101895760209073ffffffffffffffffffffffffffffffffffffffff61050c610a7b565b165f525f8252805f20549051908152f35b509034610189578060031936011261018957610537610a7b565b9060243591610544610c38565b600254906105528483610ac1565b7f00000000000000000000000000000000000000000000000000000000000000001061060e5773ffffffffffffffffffffffffffffffffffffffff169384156105df5750827fddf252ad1be2c89b69c2b068fc378daa952ba7f163c4a11628f55a4df523b3ef926105c65f95602094610ac1565b60025585855284835280852082815401905551908152a3005b6024905f8451917fec442f05000000000000000000000000000000000000000000000000000000008352820152fd5b8483517f8a164f63000000000000000000000000000000000000000000000000000000008152fd5b8234610189575f600319360112610189576020905160128152f35b50346101895760606003193601126101895761066b610a7b565b610673610a9e565b906044359273ffffffffffffffffffffffffffffffffffffffff8216805f526001602052855f20335f52602052855f2054917fffffffffffffffffffffffffffffffffffffffffffffffffffffffffffffffff83036106db575b602087610247888888610afb565b85831061077557811561074657331561071757505f908152600160209081528682203383528152908690209185900390915582906102476106cd565b6024905f8851917f94280d62000000000000000000000000000000000000000000000000000000008352820152fd5b6024905f8851917fe602df05000000000000000000000000000000000000000000000000000000008352820152fd5b86517ffb8f41b2000000000000000000000000000000000000000000000000000000008152339181019182526020820193909352604081018690528291506060010390fd5b8234610189575f600319360112610189576020906002549051908152f35b5090346101895780600319360112610189576107f2610a7b565b6024359033156108915773ffffffffffffffffffffffffffffffffffffffff169081156108625760209350335f5260018452825f20825f52845280835f205582519081527f8c5be1e5ebec7d5bd14f71427d1e84f3dd0314c0f7b2291e5b200ac8c7c3b925843392a35160018152f35b6024845f8551917f94280d62000000000000000000000000000000000000000000000000000000008352820152fd5b6024845f8551917fe602df05000000000000000000000000000000000000000000000000000000008352820152fd5b5034610189575f6003193601126101895781515f92600354936001948060011c600182169687156109db575b60209283831089146103f257869798838897985290815f14610397575060011461095e5750505003601f017fffffffffffffffffffffffffffffffffffffffffffffffffffffffffffffffe01682019267ffffffffffffffff8411838510176102f057508291826102ec925282610a33565b60035f908152929493507fc2575a0e9e593c00f959f8c92f12db2869c3395a3b0502d05e2516446f71f85b5b8284106109c557505050907fffffffffffffffffffffffffffffffffffffffffffffffffffffffffffffffe092601f9282010191819361029e565b805488850187015287945092850192810161098a565b90607f16906108ec565b34610189575f6003193601126101895760209073ffffffffffffffffffffffffffffffffffffffff7f0000000000000000000000000000000000000000000000000000000000000000168152f35b7fffffffffffffffffffffffffffffffffffffffffffffffffffffffffffffffe0601f602060409481855280519182918282880152018686015e5f8582860101520116010190565b6004359073ffffffffffffffffffffffffffffffffffffffff8216820361018957565b6024359073ffffffffffffffffffffffffffffffffffffffff8216820361018957565b91908201809211610ace57565b7f4e487b71000000000000000000000000000000000000000000000000000000005f52601160045260245ffd5b9173ffffffffffffffffffffffffffffffffffffffff808416928315610c085716928315610bd857825f525f60205260405f205490828210610b805750817fddf252ad1be2c89b69c2b068fc378daa952ba7f163c4a11628f55a4df523b3ef92602092855f525f84520360405f2055845f5260405f20818154019055604051908152a3565b6040517fe450d38c00000000000000000000000000000000000000000000000000000000815273ffffffffffffffffffffffffffffffffffffffff919091166004820152602481019190915260448101829052606490fd5b60246040517fec442f050000000000000000000000000000000000000000000000000000000081525f6004820152fd5b60246040517f96c6fd1e0000000000000000000000000000000000000000000000000000000081525f6004820152fd5b73ffffffffffffffffffffffffffffffffffffffff600554163303610c5957565b60246040517f118cdaa7000000000000000000000000000000000000000000000000000000008152336004820152fdfea2646970667358221220e6a2eaa11f563431866f3f2a4ad56cafdb379c48d5a341df2aa8f1a74f6f06ba64736f6c63430008190033604060a08152346103ce576118598038038061001a816103d2565b928339810160a0828203126103ce5781516001600160401b03908181116103ce57826100479185016103f7565b9060209283850151908282116103ce576100629186016103f7565b8585015191606086015160018060a01b0394858216978883036103ce57608001519281518181116102d6576003908154906001948583811c931680156103c4575b8c8410146103b05781908c601f9485811161035f575b50508c908483116001146102f5575f926102ea575b50505f1982851b1c191690851b1782555b86519283116102d65760049687548581811c911680156102cc575b8c8210146102b95780838d9211610274575b50508a918411600114610210579383949184925f95610205575b50501b925f19911b1c19161783555b86156101ef57600580546001600160a01b0319811689179091558851958891167f8be0079c531659141344cd1fd0a4f28419497f9722a3daafe3b4186f6b6457e05f80a36080526006558160075581156101dc5750917fddf252ad1be2c89b69c2b068fc378daa952ba7f163c4a11628f55a4df523b3ef91835f948519061980600855868652600a8452878620558152a3516114109081610449823960805181610dc20152f35b601290634e487b7160e01b5f525260245ffd5b8751631e4fbdf760e01b81525f81850152602490fd5b015193505f80610126565b9190601f19841692885f52848c5f20948d5f905b8983831061025c5750505010610243575b50505050811b018355610135565b01519060f8845f19921b161c191690555f808080610235565b8686015189559097019694850194889350018e610224565b895f5283825f209181880160051c83019388106102b0575b0160051c019086905b8281106102a557508c915061010c565b5f8155018690610295565b9250819261028c565b602289634e487b7160e01b5f525260245ffd5b90607f16906100fa565b634e487b7160e01b5f52604160045260245ffd5b015190505f806100ce565b879350908d91601f198416875f52835f20935f905b82821061033e5750508411610327575b505050811b0182556100df565b01515f1983871b60f8161c191690555f808061031a565b91929395968291958786015181550195019301908f918a969594939261030a565b90919250855f5284825f209181860160051c83019386106103a7575b918991869594930160051c01915b82811061039957508e91506100b9565b5f8155859450899101610389565b9250819261037b565b634e487b7160e01b5f52602260045260245ffd5b92607f16926100a3565b5f80fd5b6040519190601f01601f191682016001600160401b038111838210176102d657604052565b81601f820112156103ce578051906001600160401b0382116102d657610426601f8301601f19166020016103d2565b92828452602083830101116103ce57815f9260208093018386015e830101529056fe608060409080825260049081361015610016575f80fd5b5f3560e01c90816302d05d3f14610d985750806306fdde0314610c73578063095ea7b314610b8b57806313114a9d14610b6d57806318160ddd14610b4f57806323b872dd146109ef5780632d838119146109d0578063313ce567146109b55780633685d419146107765780634be26b19146104ad57806352390c02146105f257806370a08231146105c6578063715018a61461054857806372b50928146104cb57806383ad7994146104ad57806388f82020146104645780638da5cb5b1461043057806395d89b4114610256578063a9059cbb14610226578063dd62ed3e146101cf5763f2fde38b14610107575f80fd5b346101cb5760206003193601126101cb57610120610e2e565b9061012961125d565b73ffffffffffffffffffffffffffffffffffffffff80921692831561019c575050600554827fffffffffffffffffffffffff0000000000000000000000000000000000000000821617600555167f8be0079c531659141344cd1fd0a4f28419497f9722a3daafe3b4186f6b6457e05f80a3005b905f60249251917f1e4fbdf7000000000000000000000000000000000000000000000000000000008352820152fd5b5f80fd5b82346101cb57806003193601126101cb576020906101eb610e2e565b6101f3610e51565b9073ffffffffffffffffffffffffffffffffffffffff8091165f5260018452825f2091165f528252805f20549051908152f35b82346101cb57806003193601126101cb5760209061024f610245610e2e565b6024359033611034565b5160018152f35b50346101cb575f6003193601126101cb5781515f928254936001948060011c60018216968715610426575b60209283831089146103fa57869798838897985290815f1461039f5750600114610324575b50505003601f017fffffffffffffffffffffffffffffffffffffffffffffffffffffffffffffffe01682019267ffffffffffffffff8411838510176102f857508291826102f4925282610de6565b0390f35b6041907f4e487b71000000000000000000000000000000000000000000000000000000005f525260245ffd5b5f888152929493507f8a35acfbc15ff81a39ae7d344fd709f28e8600b4aa8c65c6b64bfe7fe36bd19b5b82841061038957505050907fffffffffffffffffffffffffffffffffffffffffffffffffffffffffffffffe092601f928201019181936102a6565b805488850187015287945092850192810161034e565b7fffffffffffffffffffffffffffffffffffffffffffffffffffffffffffffff0016848701525050151560051b830101905081601f7fffffffffffffffffffffffffffffffffffffffffffffffffffffffffffffffe06102a6565b6022887f4e487b71000000000000000000000000000000000000000000000000000000005f525260245ffd5b90607f1690610281565b82346101cb575f6003193601126101cb5760209073ffffffffffffffffffffffffffffffffffffffff600554169051908152f35b82346101cb5760206003193601126101cb5760209073ffffffffffffffffffffffffffffffffffffffff610496610e2e565b165f52600c825260ff815f20541690519015158152f35b82346101cb575f6003193601126101cb576020906006549051908152f35b5090346101cb5760206003193601126101cb578135916104e961125d565b600a8311610521577f8518b128247bb734c31c3f85e2de792e4d3830c6d17eb5b6bf6a52dd8f193872602084848160065551908152a1005b90517f56d69198000000000000000000000000000000000000000000000000000000008152fd5b346101cb575f6003193601126101cb5761056061125d565b5f73ffffffffffffffffffffffffffffffffffffffff6005547fffffffffffffffffffffffff00000000000000000000000000000000000000008116600555167f8be0079c531659141344cd1fd0a4f28419497f9722a3daafe3b4186f6b6457e08280a3005b82346101cb5760206003193601126101cb576020906105eb6105e6610e2e565b610fec565b9051908152f35b50346101cb57602090816003193601126101cb5761060e610e2e565b9261061761125d565b73ffffffffffffffffffffffffffffffffffffffff841691825f52600c845260ff825f20541661071b57825f52600a8452815f205480610701575b50600c8452815f2060017fffffffffffffffffffffffffffffffffffffffffffffffffffffffffffffff00825416179055600d5490680100000000000000008210156102f857507f110b1fbed46dec7bc9019c3fba97541a3d64821a824872bb7b2ad678490855bf946106ce8260016106fa9401600d55610f50565b90919073ffffffffffffffffffffffffffffffffffffffff8084549260031b9316831b921b1916179055565b51908152a1005b61070a90610eab565b835f52600b8552825f20555f610652565b8360649251917f08c379a0000000000000000000000000000000000000000000000000000000008352820152601060248201527f416c7265616479206578636c75646564000000000000000000000000000000006044820152fd5b5090346101cb576020806003193601126101cb57610792610e2e565b9161079b61125d565b73ffffffffffffffffffffffffffffffffffffffff80931690815f52600c93600c845260ff825f20541615610959575f5b600d80548083101561092957908391866107e585610f50565b949054600395861b1c16146107ff575050506001016107cc565b91949596979093927fffffffffffffffffffffffffffffffffffffffffffffffffffffffffffffffff928381019081116108fd57906106ce8561084461085194610f50565b9054908a1b1c1691610f50565b865f52600b88525f868120558752845f207fffffffffffffffffffffffffffffffffffffffffffffffffffffffffffffff008154169055825480156108d1577f47ab6b2d1f416edec684889dc42cd04ed7cc6c6244edaa04c4215e1077548614985001926108be84610f50565b81939154921b1b191690555551908152a1005b6031897f4e487b71000000000000000000000000000000000000000000000000000000005f525260245ffd5b60118b7f4e487b71000000000000000000000000000000000000000000000000000000005f525260245ffd5b50505050909192507f47ab6b2d1f416edec684889dc42cd04ed7cc6c6244edaa04c4215e107754861493506106fa565b606486858451917f08c379a0000000000000000000000000000000000000000000000000000000008352820152600c60248201527f4e6f74206578636c7564656400000000000000000000000000000000000000006044820152fd5b82346101cb575f6003193601126101cb576020905160128152f35b5090346101cb5760206003193601126101cb576105eb60209235610eab565b50346101cb5760606003193601126101cb57610a09610e2e565b610a11610e51565b906044359273ffffffffffffffffffffffffffffffffffffffff8216805f526001602052855f20335f52602052855f2054917fffffffffffffffffffffffffffffffffffffffffffffffffffffffffffffffff8303610a79575b60208761024f888888611034565b858310610b13578115610ae4573315610ab557505f9081526001602090815286822033835281529086902091859003909155829061024f610a6b565b6024905f8851917f94280d62000000000000000000000000000000000000000000000000000000008352820152fd5b6024905f8851917fe602df05000000000000000000000000000000000000000000000000000000008352820152fd5b60649086848951927ffb8f41b2000000000000000000000000000000000000000000000000000000008452339084015260248301526044820152fd5b82346101cb575f6003193601126101cb576020906007549051908152f35b82346101cb575f6003193601126101cb576020906009549051908152f35b5090346101cb57806003193601126101cb57610ba5610e2e565b602435903315610c445773ffffffffffffffffffffffffffffffffffffffff16908115610c155760209350335f5260018452825f20825f52845280835f205582519081527f8c5be1e5ebec7d5bd14f71427d1e84f3dd0314c0f7b2291e5b200ac8c7c3b925843392a35160018152f35b6024845f8551917f94280d62000000000000000000000000000000000000000000000000000000008352820152fd5b6024845f8551917fe602df05000000000000000000000000000000000000000000000000000000008352820152fd5b50346101cb575f6003193601126101cb5781515f92600354936001948060011c60018216968715610d8e575b60209283831089146103fa57869798838897985290815f1461039f5750600114610d115750505003601f017fffffffffffffffffffffffffffffffffffffffffffffffffffffffffffffffe01682019267ffffffffffffffff8411838510176102f857508291826102f4925282610de6565b60035f908152929493507fc2575a0e9e593c00f959f8c92f12db2869c3395a3b0502d05e2516446f71f85b5b828410610d7857505050907fffffffffffffffffffffffffffffffffffffffffffffffffffffffffffffffe092601f928201019181936102a6565b8054888501870152879450928501928101610d3d565b90607f1690610c9f565b346101cb575f6003193601126101cb5760209073ffffffffffffffffffffffffffffffffffffffff7f0000000000000000000000000000000000000000000000000000000000000000168152f35b7fffffffffffffffffffffffffffffffffffffffffffffffffffffffffffffffe0601f602060409481855280519182918282880152018686015e5f8582860101520116010190565b6004359073ffffffffffffffffffffffffffffffffffffffff821682036101cb57565b6024359073ffffffffffffffffffffffffffffffffffffffff821682036101cb57565b8115610e7e570490565b7f4e487b71000000000000000000000000000000000000000000000000000000005f52601260045260245ffd5b6008548111610ecc57610ec990610ec3610ec36112ce565b90610e74565b90565b60846040517f08c379a000000000000000000000000000000000000000000000000000000000815260206004820152602a60248201527f416d6f756e74206d757374206265206c657373207468616e20746f74616c207260448201527f65666c656374696f6e73000000000000000000000000000000000000000000006064820152fd5b600d54811015610f8557600d5f527fd7b6990105719101dabeb77144f2a3385c8033acd3af97e9423a695e81ad1eb501905f90565b7f4e487b71000000000000000000000000000000000000000000000000000000005f52603260045260245ffd5b91908203918211610fbf57565b7f4e487b71000000000000000000000000000000000000000000000000000000005f52601160045260245ffd5b73ffffffffffffffffffffffffffffffffffffffff165f52600c60205260ff60405f20541661102757600a602052610ec960405f2054610eab565b600b60205260405f205490565b73ffffffffffffffffffffffffffffffffffffffff80911691821561122d57169182156111fd578015611179577fddf252ad1be2c89b69c2b068fc378daa952ba7f163c4a11628f55a4df523b3ef906064611091600654836112ae565b049061109d8282610fb2565b9061113c6110ac610ec36112ce565b936111316110c46110bd87866112ae565b96836112ae565b6110ce8188610fb2565b895f52602097600c895260409660ff885f20541661115f575b508a5f52600a89526110fd875f20918254610fb2565b90558a5f52600c885260ff865f205416611146575b8a5f52600a8852611127865f209182546112c1565b9055600854610fb2565b6008556009546112c1565b60095551908152a3565b600b8852855f206111588882546112c1565b9055611112565b600b8a52611171885f20918254610fb2565b90555f6110e7565b60846040517f08c379a000000000000000000000000000000000000000000000000000000000815260206004820152602960248201527f5472616e7366657220616d6f756e74206d75737420626520677265617465722060448201527f7468616e207a65726f00000000000000000000000000000000000000000000006064820152fd5b60246040517fec442f050000000000000000000000000000000000000000000000000000000081525f6004820152fd5b60246040517f96c6fd1e0000000000000000000000000000000000000000000000000000000081525f6004820152fd5b73ffffffffffffffffffffffffffffffffffffffff60055416330361127e57565b60246040517f118cdaa7000000000000000000000000000000000000000000000000000000008152336004820152fd5b81810292918115918404141715610fbf57565b91908201809211610fbf57565b60085490816007549283905f600d545b8082106113045750506112f18282610e74565b83106112fd5750509190565b9350919050565b9094939561131186610f50565b979073ffffffffffffffffffffffffffffffffffffffff80915460039a8b1b1c165f52600a986020928a845260409a818c5f20541180156113b7575b6113a85793838b9c9361138e611388600b958f9e9f9960019b996113736113a09c610f50565b905490871b1c165f528652875f205490610fb2565b9c610f50565b9054911b1c165f52525f205490610fb2565b9601906112de565b50959950959750505050505050565b50836113c28c610f50565b905490851b1c165f52600b8552858c5f20541161134d56fea264697066735822122055f2b868e509d0640d1f2f1aaf4e565e3ddad30188e9d1c380559d2ce60d32f464736f6c63430008190033604060a081523461037557610e518038038061001a81610379565b92833981016080828203126103755781516001600160401b039290838111610375578261004891830161039e565b60209283830151908582116103755761006291840161039e565b906060868401519301519060018060a01b0382169586830361037557815181811161028a576003908154906001948583811c9316801561036b575b8a841014610357578190601f93848111610309575b508a908483116001146102a9575f9261029e575b50505f1982851b1c191690851b1782555b855192831161028a5760049586548581811c91168015610280575b8a82101461026d5782811161022a575b50889184116001146101c8579383949184925f956101bd575b50501b925f19911b1c19161782555b60805283156101a7576002549082820180921161019457506002555f8381528083528481208054830190558451918252917fddf252ad1be2c89b69c2b068fc378daa952ba7f163c4a11628f55a4df523b3ef91a351610a6190816103f082396080518161083c0152f35b601190634e487b7160e01b5f525260245ffd5b6024905f86519163ec442f0560e01b8352820152fd5b015193505f8061011b565b9190601f19841692875f52848a5f20945f5b8c8983831061021357505050106101fa575b50505050811b01825561012a565b01519060f8845f19921b161c191690555f8080806101ec565b8686015189559097019694850194889350016101da565b875f52895f208380870160051c8201928c8810610264575b0160051c019086905b828110610259575050610102565b5f815501869061024b565b92508192610242565b602288634e487b7160e01b5f525260245ffd5b90607f16906100f2565b634e487b7160e01b5f52604160045260245ffd5b015190505f806100c6565b5f8681528c8120899550929190601f198516908e5b8282106102f257505084116102db575b505050811b0182556100d7565b01515f1983871b60f8161c191690555f80806102ce565b8385015186558b979095019493840193018e6102be565b909150845f528a5f208480850160051c8201928d861061034e575b918991869594930160051c01915b8281106103405750506100b2565b5f8155859450899101610332565b92508192610324565b634e487b7160e01b5f52602260045260245ffd5b92607f169261009d565b5f80fd5b6040519190601f01601f191682016001600160401b0381118382101761028a57604052565b81601f82011215610375578051906001600160401b03821161028a576103cd601f8301601f1916602001610379565b928284526020838301011161037557815f9260208093018386015e830101529056fe6080604090808252600480361015610015575f80fd5b5f3560e01c91826302d05d3f146107f45750816306fdde03146106b0578163095ea7b3146105ab57816318160ddd1461056f57816323b872dd146103e7578163313ce567146103ae57816370a082311461034d57816395d89b411461015457508063a9059cbb146101065763dd62ed3e1461008e575f80fd5b3461010257807ffffffffffffffffffffffffffffffffffffffffffffffffffffffffffffffffc360112610102576020906100c76108a8565b6100cf6108cb565b9073ffffffffffffffffffffffffffffffffffffffff8091165f5260018452825f2091165f528252805f20549051908152f35b5f80fd5b503461010257807ffffffffffffffffffffffffffffffffffffffffffffffffffffffffffffffffc3601126101025760209061014d6101436108a8565b60243590336108ee565b5160018152f35b905034610102575f7ffffffffffffffffffffffffffffffffffffffffffffffffffffffffffffffffc3601126101025781515f928254936001948060011c60018216968715610343575b602092838310891461031757869798838897985290815f146102bc5750600114610241575b50505003601f017fffffffffffffffffffffffffffffffffffffffffffffffffffffffffffffffe01682019267ffffffffffffffff8411838510176102155750829182610211925282610860565b0390f35b6041907f4e487b71000000000000000000000000000000000000000000000000000000005f525260245ffd5b5f888152929493507f8a35acfbc15ff81a39ae7d344fd709f28e8600b4aa8c65c6b64bfe7fe36bd19b5b8284106102a657505050907fffffffffffffffffffffffffffffffffffffffffffffffffffffffffffffffe092601f928201019181936101c3565b805488850187015287945092850192810161026b565b7fffffffffffffffffffffffffffffffffffffffffffffffffffffffffffffff0016848701525050151560051b830101905081601f7fffffffffffffffffffffffffffffffffffffffffffffffffffffffffffffffe06101c3565b6022887f4e487b71000000000000000000000000000000000000000000000000000000005f525260245ffd5b90607f169061019e565b82346101025760207ffffffffffffffffffffffffffffffffffffffffffffffffffffffffffffffffc3601126101025760209073ffffffffffffffffffffffffffffffffffffffff61039d6108a8565b165f525f8252805f20549051908152f35b8234610102575f7ffffffffffffffffffffffffffffffffffffffffffffffffffffffffffffffffc360112610102576020905160128152f35b9050346101025760607ffffffffffffffffffffffffffffffffffffffffffffffffffffffffffffffffc360112610102576104206108a8565b6104286108cb565b906044359273ffffffffffffffffffffffffffffffffffffffff8216805f526001602052855f20335f52602052855f2054917fffffffffffffffffffffffffffffffffffffffffffffffffffffffffffffffff8303610490575b60208761014d8888886108ee565b85831061052a5781156104fb5733156104cc57505f9081526001602090815286822033835281529086902091859003909155829061014d610482565b6024905f8851917f94280d62000000000000000000000000000000000000000000000000000000008352820152fd5b6024905f8851917fe602df05000000000000000000000000000000000000000000000000000000008352820152fd5b86517ffb8f41b2000000000000000000000000000000000000000000000000000000008152339181019182526020820193909352604081018690528291506060010390fd5b8234610102575f7ffffffffffffffffffffffffffffffffffffffffffffffffffffffffffffffffc360112610102576020906002549051908152f35b823461010257807ffffffffffffffffffffffffffffffffffffffffffffffffffffffffffffffffc360112610102576105e26108a8565b6024359033156106815773ffffffffffffffffffffffffffffffffffffffff169081156106525760209350335f5260018452825f20825f52845280835f205582519081527f8c5be1e5ebec7d5bd14f71427d1e84f3dd0314c0f7b2291e5b200ac8c7c3b925843392a35160018152f35b6024845f8551917f94280d62000000000000000000000000000000000000000000000000000000008352820152fd5b6024845f8551917fe602df05000000000000000000000000000000000000000000000000000000008352820152fd5b905034610102575f7ffffffffffffffffffffffffffffffffffffffffffffffffffffffffffffffffc3601126101025781515f92600354936001948060011c600182169687156107ea575b602092838310891461031757869798838897985290815f146102bc575060011461076d5750505003601f017fffffffffffffffffffffffffffffffffffffffffffffffffffffffffffffffe01682019267ffffffffffffffff8411838510176102155750829182610211925282610860565b60035f908152929493507fc2575a0e9e593c00f959f8c92f12db2869c3395a3b0502d05e2516446f71f85b5b8284106107d457505050907fffffffffffffffffffffffffffffffffffffffffffffffffffffffffffffffe092601f928201019181936101c3565b8054888501870152879450928501928101610799565b90607f16906106fb565b34610102575f7ffffffffffffffffffffffffffffffffffffffffffffffffffffffffffffffffc3601126101025760209073ffffffffffffffffffffffffffffffffffffffff7f0000000000000000000000000000000000000000000000000000000000000000168152f35b7fffffffffffffffffffffffffffffffffffffffffffffffffffffffffffffffe0601f602060409481855280519182918282880152018686015e5f8582860101520116010190565b6004359073ffffffffffffffffffffffffffffffffffffffff8216820361010257565b6024359073ffffffffffffffffffffffffffffffffffffffff8216820361010257565b9173ffffffffffffffffffffffffffffffffffffffff8084169283156109fb57169283156109cb57825f525f60205260405f2054908282106109735750817fddf252ad1be2c89b69c2b068fc378daa952ba7f163c4a11628f55a4df523b3ef92602092855f525f84520360405f2055845f5260405f20818154019055604051908152a3565b6040517fe450d38c00000000000000000000000000000000000000000000000000000000815273ffffffffffffffffffffffffffffffffffffffff919091166004820152602481019190915260448101829052606490fd5b60246040517fec442f050000000000000000000000000000000000000000000000000000000081525f6004820152fd5b60246040517f96c6fd1e0000000000000000000000000000000000000000000000000000000081525f6004820152fdfea26469706673582212208627b8e9a39a982a94bf458c8f47f118b3eb07aa8935d005857345e0e38098cb64736f6c6343000819003360a06040523461061c576119c48038038061001981610620565b9283398101906101208183031261061c5780516001600160401b03919082811161061c5783610049918301610645565b9260208201519083821161061c57610062918301610645565b60408201519361007460608401610696565b92608081015160a08201519561008c60c08401610696565b9461010060e0850151940151948051908382116105015760035490600182811c92168015610612575b60208310146104e35781601f8493116105a4575b50602090601f8311600114610520575f92610515575b50508160011b915f199060031b1c1916176003555b80519182116105015760045490600182811c921680156104f7575b60208310146104e35781601f849311610478575b50602090601f83116001146103f4575f926103e9575b50508160011b915f199060031b1c1916176004555b6001600160a01b03958587169485156103d157600580546001600160a01b031980821689179092559093899391889085167f8be0079c531659141344cd1fd0a4f28419497f9722a3daafe3b4186f6b6457e05f80a38860805260085560095516906006541617600655600a55600b55805f52600e60205260405f2060ff1990600182825416179055305f5260405f20600182825416179055815f52600f60205260405f20600182825416179055305f52600160405f2091825416179055839260ff600c541615806103c4575b806103b6575b6103a4575f8052600f6020527ff4803e074bd026baaf6ed2e288c9515f68c72fb7216eebdd7cae1718a53ec3755460ff161580610392575b610333575b5f915f8052600e60205260ff60405f2054161580610321575b6102df575b50816102a4575b61028c84846106ca565b60405161128c9081610738823960805181610d490152f35b81929350906102b691600654166106ca565b82039182116102cb5761028c91905f80610282565b634e487b7160e01b5f52601160045260245ffd5b60075482169081610305575050905060646102fc600854866106b7565b04905b5f61027b565b036102ff579050606461031a600954866106b7565b04906102ff565b50805f5260ff60405f20541615610276565b600a54851161038057806007541682141580610361575b1561025d57604051630ebe2dbd60e41b8152600490fd5b50815f525f6020526103778560405f20546106aa565b600b541061034a565b60405163864c7e9b60e01b8152600490fd5b50815f5260ff60405f20541615610258565b6040516312f1f92360e01b8152600490fd5b508060055416821415610220565b508060055416151561021a565b604051631e4fbdf760e01b81525f6004820152602490fd5b015190505f80610139565b60045f9081527f8a35acfbc15ff81a39ae7d344fd709f28e8600b4aa8c65c6b64bfe7fe36bd19b9350601f198516905b8181106104605750908460019594939210610448575b505050811b0160045561014e565b01515f1960f88460031b161c191690555f808061043a565b92936020600181928786015181550195019301610424565b60045f529091507f8a35acfbc15ff81a39ae7d344fd709f28e8600b4aa8c65c6b64bfe7fe36bd19b601f840160051c8101602085106104dc575b90849392915b601f830160051c820181106104ce575050610123565b5f81558594506001016104b8565b50806104b2565b634e487b7160e01b5f52602260045260245ffd5b91607f169161010f565b634e487b7160e01b5f52604160045260245ffd5b015190505f806100df565b60035f9081527fc2575a0e9e593c00f959f8c92f12db2869c3395a3b0502d05e2516446f71f85b9350601f198516905b81811061058c5750908460019594939210610574575b505050811b016003556100f4565b01515f1960f88460031b161c191690555f8080610566565b92936020600181928786015181550195019301610550565b60035f529091507fc2575a0e9e593c00f959f8c92f12db2869c3395a3b0502d05e2516446f71f85b601f840160051c81019160208510610608575b90601f859493920160051c01905b8181106105fa57506100c9565b5f81558493506001016105ed565b90915081906105df565b91607f16916100b5565b5f80fd5b6040519190601f01601f191682016001600160401b0381118382101761050157604052565b81601f8201121561061c578051906001600160401b03821161050157610674601f8301601f1916602001610620565b928284526020838301011161061c57815f9260208093018386015e8301015290565b51906001600160a01b038216820361061c57565b919082018092116102cb57565b818102929181159184041417156102cb57565b7fddf252ad1be2c89b69c2b068fc378daa952ba7f163c4a11628f55a4df523b3ef60205f926106fb856002546106aa565b6002556001600160a01b031693841584146107225780600254036002555b604051908152a3565b8484528382526040842081815401905561071956fe6080604090808252600480361015610015575f80fd5b5f3560e01c91826302d05d3f14610d1f5750816306fdde0314610bf9578163095ea7b314610b125781631006ee0c14610a7b57816318160ddd14610a5d57816323b872dd146108f3578163313ce567146108d85781634ada218b146108b55781634f7041a5146108975781635342acb41461084e5781636fd8fb7a1461083057816370a08231146107ed578163715018a61461076f578163737ea06e1461073b5781637437681e1461071d57816381905bf8146106b15781638a8c523c1461063e5781638da5cb5b1461060a57816395d89b411461042f578163a22d4832146103cb578163a8b0898214610397578163a9059cbb14610367578163cc1776d314610349578163d94160e014610300578163dd62ed3e146102a9578163df8408fe1461023b578163f2fde38b14610175575063f8b45b0514610154575f80fd5b34610171575f60031936011261017157602090600b549051908152f35b5f80fd5b90503461017157602060031936011261017157610190610db5565b90610199610e37565b73ffffffffffffffffffffffffffffffffffffffff80921692831561020c575050600554827fffffffffffffffffffffffff0000000000000000000000000000000000000000821617600555167f8be0079c531659141344cd1fd0a4f28419497f9722a3daafe3b4186f6b6457e05f80a3005b905f60249251917f1e4fbdf7000000000000000000000000000000000000000000000000000000008352820152fd5b82346101715773ffffffffffffffffffffffffffffffffffffffff6102a79161026336610dfb565b929061026d610e37565b165f52600e6020525f209060ff7fffffffffffffffffffffffffffffffffffffffffffffffffffffffffffffff0083541691151516179055565b005b82346101715780600319360112610171576020906102c5610db5565b6102cd610dd8565b9073ffffffffffffffffffffffffffffffffffffffff8091165f5260018452825f2091165f528252805f20549051908152f35b82346101715760206003193601126101715760209073ffffffffffffffffffffffffffffffffffffffff610332610db5565b165f52600f825260ff815f20541690519015158152f35b8234610171575f600319360112610171576020906009549051908152f35b8234610171578060031936011261017157602090610390610386610db5565b6024359033610e88565b5160018152f35b8234610171575f6003193601126101715760209073ffffffffffffffffffffffffffffffffffffffff600754169051908152f35b346101715760206003193601126101715773ffffffffffffffffffffffffffffffffffffffff6103f9610db5565b610401610e37565b167fffffffffffffffffffffffff000000000000000000000000000000000000000060075416176007555f80f35b905034610171575f6003193601126101715781515f928254936001948060011c60018216968715610600575b60209283831089146105d457869798838897985290815f1461057957506001146104fe575b50505003601f017fffffffffffffffffffffffffffffffffffffffffffffffffffffffffffffffe01682019267ffffffffffffffff8411838510176104d257508291826104ce925282610d6d565b0390f35b6041907f4e487b71000000000000000000000000000000000000000000000000000000005f525260245ffd5b5f888152929493507f8a35acfbc15ff81a39ae7d344fd709f28e8600b4aa8c65c6b64bfe7fe36bd19b5b82841061056357505050907fffffffffffffffffffffffffffffffffffffffffffffffffffffffffffffffe092601f92820101918193610480565b8054888501870152879450928501928101610528565b7fffffffffffffffffffffffffffffffffffffffffffffffffffffffffffffff0016848701525050151560051b830101905081601f7fffffffffffffffffffffffffffffffffffffffffffffffffffffffffffffffe0610480565b6022887f4e487b71000000000000000000000000000000000000000000000000000000005f525260245ffd5b90607f169061045b565b8234610171575f6003193601126101715760209073ffffffffffffffffffffffffffffffffffffffff600554169051908152f35b8234610171575f6003193601126101715760207fb3da2db3dfc3778f99852546c6e9ab39ec253f9de7b0847afec61bd27878e9239161067b610e37565b60017fffffffffffffffffffffffffffffffffffffffffffffffffffffffffffffff00600c541617600c5542600d5551428152a1005b82346101715773ffffffffffffffffffffffffffffffffffffffff6102a7916106d936610dfb565b92906106e3610e37565b165f52600f6020525f209060ff7fffffffffffffffffffffffffffffffffffffffffffffffffffffffffffffff0083541691151516179055565b8234610171575f60031936011261017157602090600a549051908152f35b8234610171575f6003193601126101715760209073ffffffffffffffffffffffffffffffffffffffff600654169051908152f35b34610171575f60031936011261017157610787610e37565b5f73ffffffffffffffffffffffffffffffffffffffff6005547fffffffffffffffffffffffff00000000000000000000000000000000000000008116600555167f8be0079c531659141344cd1fd0a4f28419497f9722a3daafe3b4186f6b6457e08280a3005b82346101715760206003193601126101715760209073ffffffffffffffffffffffffffffffffffffffff61081f610db5565b165f525f8252805f20549051908152f35b8234610171575f60031936011261017157602090600d549051908152f35b82346101715760206003193601126101715760209073ffffffffffffffffffffffffffffffffffffffff610880610db5565b165f52600e825260ff815f20541690519015158152f35b8234610171575f600319360112610171576020906008549051908152f35b8234610171575f6003193601126101715760209060ff600c541690519015158152f35b8234610171575f600319360112610171576020905160128152f35b9050346101715760606003193601126101715761090e610db5565b610916610dd8565b906044359273ffffffffffffffffffffffffffffffffffffffff8216805f526001602052855f20335f52602052855f2054917fffffffffffffffffffffffffffffffffffffffffffffffffffffffffffffffff830361097e575b602087610390888888610e88565b858310610a185781156109e95733156109ba57505f90815260016020908152868220338352815290869020918590039091558290610390610970565b6024905f8851917f94280d62000000000000000000000000000000000000000000000000000000008352820152fd5b6024905f8851917fe602df05000000000000000000000000000000000000000000000000000000008352820152fd5b86517ffb8f41b2000000000000000000000000000000000000000000000000000000008152339181019182526020820193909352604081018690528291506060010390fd5b8234610171575f600319360112610171576020906002549051908152f35b82346101715780600319360112610171578135602435610a99610e37565b601982118015610b08575b610ae0577fb841faf0d1b32571f4ef966a2f35e3ae51f3cdda45318c3da5570a5b2ad856059350816008558060095582519182526020820152a1005b5050517f67e3b835000000000000000000000000000000000000000000000000000000008152fd5b5060198111610aa4565b8234610171578060031936011261017157610b2b610db5565b602435903315610bca5773ffffffffffffffffffffffffffffffffffffffff16908115610b9b5760209350335f5260018452825f20825f52845280835f205582519081527f8c5be1e5ebec7d5bd14f71427d1e84f3dd0314c0f7b2291e5b200ac8c7c3b925843392a35160018152f35b6024845f8551917f94280d62000000000000000000000000000000000000000000000000000000008352820152fd5b6024845f8551917fe602df05000000000000000000000000000000000000000000000000000000008352820152fd5b905034610171575f6003193601126101715781515f92600354936001948060011c60018216968715610d15575b60209283831089146105d457869798838897985290815f146105795750600114610c985750505003601f017fffffffffffffffffffffffffffffffffffffffffffffffffffffffffffffffe01682019267ffffffffffffffff8411838510176104d257508291826104ce925282610d6d565b60035f908152929493507fc2575a0e9e593c00f959f8c92f12db2869c3395a3b0502d05e2516446f71f85b5b828410610cff57505050907fffffffffffffffffffffffffffffffffffffffffffffffffffffffffffffffe092601f92820101918193610480565b8054888501870152879450928501928101610cc4565b90607f1690610c26565b34610171575f6003193601126101715760209073ffffffffffffffffffffffffffffffffffffffff7f0000000000000000000000000000000000000000000000000000000000000000168152f35b7fffffffffffffffffffffffffffffffffffffffffffffffffffffffffffffffe0601f602060409481855280519182918282880152018686015e5f8582860101520116010190565b6004359073ffffffffffffffffffffffffffffffffffffffff8216820361017157565b6024359073ffffffffffffffffffffffffffffffffffffffff8216820361017157565b60031960409101126101715760043573ffffffffffffffffffffffffffffffffffffffff81168103610171579060243580151581036101715790565b73ffffffffffffffffffffffffffffffffffffffff600554163303610e5857565b60246040517f118cdaa7000000000000000000000000000000000000000000000000000000008152336004820152fd5b9073ffffffffffffffffffffffffffffffffffffffff918281169283156110dd578083169081156110ad57859460ff600c5416158061109f575b80611091575b61106757805f52600f60205260409260ff845f2054161580611056575b610fca575b5f93825f52600e60205260ff815f205416159081610fb8575b50610f74575b505081610f1f575b5050610f1d935061112d565b565b8192945090610f3291600654168561112d565b8303928311610f4757610f1d92915f80610f11565b7f4e487b71000000000000000000000000000000000000000000000000000000005f52601160045260245ffd5b6007548316918203610f9c57505090506064610f926008548761111a565b04905b5f80610f09565b03610f955790506064610fb16009548761111a565b0490610f95565b60ff9150825f525f205416155f610f03565b600a54881161102d5782600754168114158061100f575b15610eea57600484517febe2dbd0000000000000000000000000000000000000000000000000000000008152fd5b50805f525f60205261102488855f205461110d565b600b5410610fe1565b600484517f864c7e9b000000000000000000000000000000000000000000000000000000008152fd5b50805f5260ff845f20541615610ee5565b60046040517f12f1f923000000000000000000000000000000000000000000000000000000008152fd5b508160055416831415610ec8565b508160055416811415610ec2565b60246040517fec442f050000000000000000000000000000000000000000000000000000000081525f6004820152fd5b60246040517f96c6fd1e0000000000000000000000000000000000000000000000000000000081525f6004820152fd5b91908201809211610f4757565b81810292918115918404141715610f4757565b73ffffffffffffffffffffffffffffffffffffffff808216929091836111b157507fddf252ad1be2c89b69c2b068fc378daa952ba7f163c4a11628f55a4df523b3ef9160209161117f8660025461110d565b6002555b16938461119c5780600254036002555b604051908152a3565b845f525f825260405f20818154019055611193565b835f525f60205260405f2054908582106111fe575091602091857fddf252ad1be2c89b69c2b068fc378daa952ba7f163c4a11628f55a4df523b3ef94865f525f85520360405f2055611183565b6040517fe450d38c00000000000000000000000000000000000000000000000000000000815273ffffffffffffffffffffffffffffffffffffffff919091166004820152602481019190915260448101859052606490fdfea264697066735822122093657385a9051bd131a7a0f1be9308613531cb97c859715b59a92b92eb274e1864736f6c63430008190033a2646970667358221220ff0288120e1a7f19437bafc76fd60061c94ae53639ec7a9398f45a1b49d44a5c64736f6c63430008190033","linkReferences":{}},"methodIdentifiers":{"MAX_SUPPLY()":"32cb6b0c","MIN_CREATION_FEE()":"6a0c97fe","MIN_LOCK_DURATION()":"78b4330f","allTokens(uint256)":"634282af","andeSwapFactory()":"4d1dcc3e","andeSwapRouter()":"8e4c6198","andeToken()":"140f021c","autoListToken(address,uint256,uint256)":"4128b8c1","createBurnableToken(string,string,uint256,uint256)":"4aa9a56c","createMintableToken(string,string,uint256,uint256)":"2f8c2a14","createReflectionToken(string,string,uint256,uint256)":"ed2c718f","createStandardToken(string,string,uint256,bool,uint256)":"e49675eb","createTaxableToken(string,string,uint256,(uint256,uint256,address,uint256,uint256))":"6743f90c","creationFee()":"dce0b4e4","creatorTokens(address,uint256)":"db3fa4cc","deployedTokens(address)":"93d0aead","feeRecipient()":"46904840","getAllTokensLength()":"5ad20c3a","getCreatorTokens(address)":"74abfa54","owner()":"8da5cb5b","predictTokenAddress(address,string,string,uint256)":"637aa0fd","renounceOwnership()":"715018a6","setCreationFee(uint256)":"b7d86225","setFeeRecipient(address)":"e74b981b","tokensCreated()":"42750020","transferOwnership(address)":"f2fde38b","unlockLiquidity(address)":"d58c66ab","verifyToken(address)":"4130276b","withdrawFees()":"476343ee"},"id":151}