{"abi":[{"type":"constructor","inputs":[{"name":"name","type":"string","internalType":"string"},{"name":"symbol","type":"string","internalType":"string"},{"name":"totalSupply","type":"uint256","internalType":"uint256"},{"name":"_creator","type":"address","internalType":"address"}],"stateMutability":"nonpayable"},{"type":"function","name":"allowance","inputs":[{"name":"owner","type":"address","internalType":"address"},{"name":"spender","type":"address","internalType":"address"}],"outputs":[{"name":"","type":"uint256","internalType":"uint256"}],"stateMutability":"view"},{"type":"function","name":"approve","inputs":[{"name":"spender","type":"address","internalType":"address"},{"name":"value","type":"uint256","internalType":"uint256"}],"outputs":[{"name":"","type":"bool","internalType":"bool"}],"stateMutability":"nonpayable"},{"type":"function","name":"balanceOf","inputs":[{"name":"account","type":"address","internalType":"address"}],"outputs":[{"name":"","type":"uint256","internalType":"uint256"}],"stateMutability":"view"},{"type":"function","name":"creator","inputs":[],"outputs":[{"name":"","type":"address","internalType":"address"}],"stateMutability":"view"},{"type":"function","name":"decimals","inputs":[],"outputs":[{"name":"","type":"uint8","internalType":"uint8"}],"stateMutability":"view"},{"type":"function","name":"name","inputs":[],"outputs":[{"name":"","type":"string","internalType":"string"}],"stateMutability":"view"},{"type":"function","name":"symbol","inputs":[],"outputs":[{"name":"","type":"string","internalType":"string"}],"stateMutability":"view"},{"type":"function","name":"totalSupply","inputs":[],"outputs":[{"name":"","type":"uint256","internalType":"uint256"}],"stateMutability":"view"},{"type":"function","name":"transfer","inputs":[{"name":"to","type":"address","internalType":"address"},{"name":"value","type":"uint256","internalType":"uint256"}],"outputs":[{"name":"","type":"bool","internalType":"bool"}],"stateMutability":"nonpayable"},{"type":"function","name":"transferFrom","inputs":[{"name":"from","type":"address","internalType":"address"},{"name":"to","type":"address","internalType":"address"},{"name":"value","type":"uint256","internalType":"uint256"}],"outputs":[{"name":"","type":"bool","internalType":"bool"}],"stateMutability":"nonpayable"},{"type":"event","name":"Approval","inputs":[{"name":"owner","type":"address","indexed":true,"internalType":"address"},{"name":"spender","type":"address","indexed":true,"internalType":"address"},{"name":"value","type":"uint256","indexed":false,"internalType":"uint256"}],"anonymous":false},{"type":"event","name":"Transfer","inputs":[{"name":"from","type":"address","indexed":true,"internalType":"address"},{"name":"to","type":"address","indexed":true,"internalType":"address"},{"name":"value","type":"uint256","indexed":false,"internalType":"uint256"}],"anonymous":false},{"type":"error","name":"ERC20InsufficientAllowance","inputs":[{"name":"spender","type":"address","internalType":"address"},{"name":"allowance","type":"uint256","internalType":"uint256"},{"name":"needed","type":"uint256","internalType":"uint256"}]},{"type":"error","name":"ERC20InsufficientBalance","inputs":[{"name":"sender","type":"address","internalType":"address"},{"name":"balance","type":"uint256","internalType":"uint256"},{"name":"needed","type":"uint256","internalType":"uint256"}]},{"type":"error","name":"ERC20InvalidApprover","inputs":[{"name":"approver","type":"address","internalType":"address"}]},{"type":"error","name":"ERC20InvalidReceiver","inputs":[{"name":"receiver","type":"address","internalType":"address"}]},{"type":"error","name":"ERC20InvalidSender","inputs":[{"name":"sender","type":"address","internalType":"address"}]},{"type":"error","name":"ERC20InvalidSpender","inputs":[{"name":"spender","type":"address","internalType":"address"}]}],"bytecode":{"object":"0x604060a081523461037557610e518038038061001a81610379565b92833981016080828203126103755781516001600160401b039290838111610375578261004891830161039e565b60209283830151908582116103755761006291840161039e565b906060868401519301519060018060a01b0382169586830361037557815181811161028a576003908154906001948583811c9316801561036b575b8a841014610357578190601f93848111610309575b508a908483116001146102a9575f9261029e575b50505f1982851b1c191690851b1782555b855192831161028a5760049586548581811c91168015610280575b8a82101461026d5782811161022a575b50889184116001146101c8579383949184925f956101bd575b50501b925f19911b1c19161782555b60805283156101a7576002549082820180921161019457506002555f8381528083528481208054830190558451918252917fddf252ad1be2c89b69c2b068fc378daa952ba7f163c4a11628f55a4df523b3ef91a351610a6190816103f082396080518161083c0152f35b601190634e487b7160e01b5f525260245ffd5b6024905f86519163ec442f0560e01b8352820152fd5b015193505f8061011b565b9190601f19841692875f52848a5f20945f5b8c8983831061021357505050106101fa575b50505050811b01825561012a565b01519060f8845f19921b161c191690555f8080806101ec565b8686015189559097019694850194889350016101da565b875f52895f208380870160051c8201928c8810610264575b0160051c019086905b828110610259575050610102565b5f815501869061024b565b92508192610242565b602288634e487b7160e01b5f525260245ffd5b90607f16906100f2565b634e487b7160e01b5f52604160045260245ffd5b015190505f806100c6565b5f8681528c8120899550929190601f198516908e5b8282106102f257505084116102db575b505050811b0182556100d7565b01515f1983871b60f8161c191690555f80806102ce565b8385015186558b979095019493840193018e6102be565b909150845f528a5f208480850160051c8201928d861061034e575b918991869594930160051c01915b8281106103405750506100b2565b5f8155859450899101610332565b92508192610324565b634e487b7160e01b5f52602260045260245ffd5b92607f169261009d565b5f80fd5b6040519190601f01601f191682016001600160401b0381118382101761028a57604052565b81601f82011215610375578051906001600160401b03821161028a576103cd601f8301601f1916602001610379565b928284526020838301011161037557815f9260208093018386015e830101529056fe6080604090808252600480361015610015575f80fd5b5f3560e01c91826302d05d3f146107f45750816306fdde03146106b0578163095ea7b3146105ab57816318160ddd1461056f57816323b872dd146103e7578163313ce567146103ae57816370a082311461034d57816395d89b411461015457508063a9059cbb146101065763dd62ed3e1461008e575f80fd5b3461010257807ffffffffffffffffffffffffffffffffffffffffffffffffffffffffffffffffc360112610102576020906100c76108a8565b6100cf6108cb565b9073ffffffffffffffffffffffffffffffffffffffff8091165f5260018452825f2091165f528252805f20549051908152f35b5f80fd5b503461010257807ffffffffffffffffffffffffffffffffffffffffffffffffffffffffffffffffc3601126101025760209061014d6101436108a8565b60243590336108ee565b5160018152f35b905034610102575f7ffffffffffffffffffffffffffffffffffffffffffffffffffffffffffffffffc3601126101025781515f928254936001948060011c60018216968715610343575b602092838310891461031757869798838897985290815f146102bc5750600114610241575b50505003601f017fffffffffffffffffffffffffffffffffffffffffffffffffffffffffffffffe01682019267ffffffffffffffff8411838510176102155750829182610211925282610860565b0390f35b6041907f4e487b71000000000000000000000000000000000000000000000000000000005f525260245ffd5b5f888152929493507f8a35acfbc15ff81a39ae7d344fd709f28e8600b4aa8c65c6b64bfe7fe36bd19b5b8284106102a657505050907fffffffffffffffffffffffffffffffffffffffffffffffffffffffffffffffe092601f928201019181936101c3565b805488850187015287945092850192810161026b565b7fffffffffffffffffffffffffffffffffffffffffffffffffffffffffffffff0016848701525050151560051b830101905081601f7fffffffffffffffffffffffffffffffffffffffffffffffffffffffffffffffe06101c3565b6022887f4e487b71000000000000000000000000000000000000000000000000000000005f525260245ffd5b90607f169061019e565b82346101025760207ffffffffffffffffffffffffffffffffffffffffffffffffffffffffffffffffc3601126101025760209073ffffffffffffffffffffffffffffffffffffffff61039d6108a8565b165f525f8252805f20549051908152f35b8234610102575f7ffffffffffffffffffffffffffffffffffffffffffffffffffffffffffffffffc360112610102576020905160128152f35b9050346101025760607ffffffffffffffffffffffffffffffffffffffffffffffffffffffffffffffffc360112610102576104206108a8565b6104286108cb565b906044359273ffffffffffffffffffffffffffffffffffffffff8216805f526001602052855f20335f52602052855f2054917fffffffffffffffffffffffffffffffffffffffffffffffffffffffffffffffff8303610490575b60208761014d8888886108ee565b85831061052a5781156104fb5733156104cc57505f9081526001602090815286822033835281529086902091859003909155829061014d610482565b6024905f8851917f94280d62000000000000000000000000000000000000000000000000000000008352820152fd5b6024905f8851917fe602df05000000000000000000000000000000000000000000000000000000008352820152fd5b86517ffb8f41b2000000000000000000000000000000000000000000000000000000008152339181019182526020820193909352604081018690528291506060010390fd5b8234610102575f7ffffffffffffffffffffffffffffffffffffffffffffffffffffffffffffffffc360112610102576020906002549051908152f35b823461010257807ffffffffffffffffffffffffffffffffffffffffffffffffffffffffffffffffc360112610102576105e26108a8565b6024359033156106815773ffffffffffffffffffffffffffffffffffffffff169081156106525760209350335f5260018452825f20825f52845280835f205582519081527f8c5be1e5ebec7d5bd14f71427d1e84f3dd0314c0f7b2291e5b200ac8c7c3b925843392a35160018152f35b6024845f8551917f94280d62000000000000000000000000000000000000000000000000000000008352820152fd5b6024845f8551917fe602df05000000000000000000000000000000000000000000000000000000008352820152fd5b905034610102575f7ffffffffffffffffffffffffffffffffffffffffffffffffffffffffffffffffc3601126101025781515f92600354936001948060011c600182169687156107ea575b602092838310891461031757869798838897985290815f146102bc575060011461076d5750505003601f017fffffffffffffffffffffffffffffffffffffffffffffffffffffffffffffffe01682019267ffffffffffffffff8411838510176102155750829182610211925282610860565b60035f908152929493507fc2575a0e9e593c00f959f8c92f12db2869c3395a3b0502d05e2516446f71f85b5b8284106107d457505050907fffffffffffffffffffffffffffffffffffffffffffffffffffffffffffffffe092601f928201019181936101c3565b8054888501870152879450928501928101610799565b90607f16906106fb565b34610102575f7ffffffffffffffffffffffffffffffffffffffffffffffffffffffffffffffffc3601126101025760209073ffffffffffffffffffffffffffffffffffffffff7f0000000000000000000000000000000000000000000000000000000000000000168152f35b7fffffffffffffffffffffffffffffffffffffffffffffffffffffffffffffffe0601f602060409481855280519182918282880152018686015e5f8582860101520116010190565b6004359073ffffffffffffffffffffffffffffffffffffffff8216820361010257565b6024359073ffffffffffffffffffffffffffffffffffffffff8216820361010257565b9173ffffffffffffffffffffffffffffffffffffffff8084169283156109fb57169283156109cb57825f525f60205260405f2054908282106109735750817fddf252ad1be2c89b69c2b068fc378daa952ba7f163c4a11628f55a4df523b3ef92602092855f525f84520360405f2055845f5260405f20818154019055604051908152a3565b6040517fe450d38c00000000000000000000000000000000000000000000000000000000815273ffffffffffffffffffffffffffffffffffffffff919091166004820152602481019190915260448101829052606490fd5b60246040517fec442f050000000000000000000000000000000000000000000000000000000081525f6004820152fd5b60246040517f96c6fd1e0000000000000000000000000000000000000000000000000000000081525f6004820152fdfea26469706673582212208627b8e9a39a982a94bf458c8f47f118b3eb07aa8935d005857345e0e38098cb64736f6c63430008190033","linkReferences":{}},"methodIdentifiers":{"allowance(address,address)":"dd62ed3e","approve(address,uint256)":"095ea7b3","balanceOf(address)":"70a08231","creator()":"02d05d3f","decimals()":"313ce567","name()":"06fdde03","symbol()":"95d89b41","totalSupply()":"18160ddd","transfer(address,uint256)":"a9059cbb","transferFrom(address,address,uint256)":"23b872dd"},"id":158}