{"abi":[{"type":"constructor","inputs":[{"name":"_lp_addr","type":"address","internalType":"address"},{"name":"_minter","type":"address","internalType":"address"},{"name":"_reward_token","type":"address","internalType":"address"}],"stateMutability":"nonpayable"},{"type":"function","name":"WEEK","inputs":[],"outputs":[{"name":"","type":"uint256","internalType":"uint256"}],"stateMutability":"view"},{"type":"function","name":"allowance","inputs":[{"name":"owner","type":"address","internalType":"address"},{"name":"spender","type":"address","internalType":"address"}],"outputs":[{"name":"","type":"uint256","internalType":"uint256"}],"stateMutability":"view"},{"type":"function","name":"approve","inputs":[{"name":"spender","type":"address","internalType":"address"},{"name":"value","type":"uint256","internalType":"uint256"}],"outputs":[{"name":"","type":"bool","internalType":"bool"}],"stateMutability":"nonpayable"},{"type":"function","name":"balanceOf","inputs":[{"name":"account","type":"address","internalType":"address"}],"outputs":[{"name":"","type":"uint256","internalType":"uint256"}],"stateMutability":"view"},{"type":"function","name":"claim_rewards","inputs":[],"outputs":[],"stateMutability":"nonpayable"},{"type":"function","name":"decimals","inputs":[],"outputs":[{"name":"","type":"uint8","internalType":"uint8"}],"stateMutability":"view"},{"type":"function","name":"deposit","inputs":[{"name":"_value","type":"uint256","internalType":"uint256"}],"outputs":[{"name":"","type":"bool","internalType":"bool"}],"stateMutability":"nonpayable"},{"type":"function","name":"earned","inputs":[{"name":"_user","type":"address","internalType":"address"}],"outputs":[{"name":"","type":"uint256","internalType":"uint256"}],"stateMutability":"view"},{"type":"function","name":"last_update_time","inputs":[],"outputs":[{"name":"","type":"uint256","internalType":"uint256"}],"stateMutability":"view"},{"type":"function","name":"lp_token","inputs":[],"outputs":[{"name":"","type":"address","internalType":"contract IERC20"}],"stateMutability":"view"},{"type":"function","name":"minter","inputs":[],"outputs":[{"name":"","type":"address","internalType":"address"}],"stateMutability":"view"},{"type":"function","name":"name","inputs":[],"outputs":[{"name":"","type":"string","internalType":"string"}],"stateMutability":"view"},{"type":"function","name":"notifyRewardAmount","inputs":[{"name":"_amount","type":"uint256","internalType":"uint256"}],"outputs":[],"stateMutability":"nonpayable"},{"type":"function","name":"reward_per_token","inputs":[],"outputs":[{"name":"","type":"uint256","internalType":"uint256"}],"stateMutability":"view"},{"type":"function","name":"reward_per_token_stored","inputs":[],"outputs":[{"name":"","type":"uint256","internalType":"uint256"}],"stateMutability":"view"},{"type":"function","name":"reward_rate","inputs":[],"outputs":[{"name":"","type":"uint256","internalType":"uint256"}],"stateMutability":"view"},{"type":"function","name":"reward_token","inputs":[],"outputs":[{"name":"","type":"address","internalType":"contract IERC20"}],"stateMutability":"view"},{"type":"function","name":"rewards","inputs":[{"name":"","type":"address","internalType":"address"}],"outputs":[{"name":"","type":"uint256","internalType":"uint256"}],"stateMutability":"view"},{"type":"function","name":"symbol","inputs":[],"outputs":[{"name":"","type":"string","internalType":"string"}],"stateMutability":"view"},{"type":"function","name":"totalSupply","inputs":[],"outputs":[{"name":"","type":"uint256","internalType":"uint256"}],"stateMutability":"view"},{"type":"function","name":"transfer","inputs":[{"name":"to","type":"address","internalType":"address"},{"name":"value","type":"uint256","internalType":"uint256"}],"outputs":[{"name":"","type":"bool","internalType":"bool"}],"stateMutability":"nonpayable"},{"type":"function","name":"transferFrom","inputs":[{"name":"from","type":"address","internalType":"address"},{"name":"to","type":"address","internalType":"address"},{"name":"value","type":"uint256","internalType":"uint256"}],"outputs":[{"name":"","type":"bool","internalType":"bool"}],"stateMutability":"nonpayable"},{"type":"function","name":"user_reward_per_token_paid","inputs":[{"name":"","type":"address","internalType":"address"}],"outputs":[{"name":"","type":"uint256","internalType":"uint256"}],"stateMutability":"view"},{"type":"function","name":"withdraw","inputs":[{"name":"_value","type":"uint256","internalType":"uint256"}],"outputs":[{"name":"","type":"bool","internalType":"bool"}],"stateMutability":"nonpayable"},{"type":"event","name":"Approval","inputs":[{"name":"owner","type":"address","indexed":true,"internalType":"address"},{"name":"spender","type":"address","indexed":true,"internalType":"address"},{"name":"value","type":"uint256","indexed":false,"internalType":"uint256"}],"anonymous":false},{"type":"event","name":"Transfer","inputs":[{"name":"from","type":"address","indexed":true,"internalType":"address"},{"name":"to","type":"address","indexed":true,"internalType":"address"},{"name":"value","type":"uint256","indexed":false,"internalType":"uint256"}],"anonymous":false},{"type":"error","name":"AddressEmptyCode","inputs":[{"name":"target","type":"address","internalType":"address"}]},{"type":"error","name":"AddressInsufficientBalance","inputs":[{"name":"account","type":"address","internalType":"address"}]},{"type":"error","name":"ERC20InsufficientAllowance","inputs":[{"name":"spender","type":"address","internalType":"address"},{"name":"allowance","type":"uint256","internalType":"uint256"},{"name":"needed","type":"uint256","internalType":"uint256"}]},{"type":"error","name":"ERC20InsufficientBalance","inputs":[{"name":"sender","type":"address","internalType":"address"},{"name":"balance","type":"uint256","internalType":"uint256"},{"name":"needed","type":"uint256","internalType":"uint256"}]},{"type":"error","name":"ERC20InvalidApprover","inputs":[{"name":"approver","type":"address","internalType":"address"}]},{"type":"error","name":"ERC20InvalidReceiver","inputs":[{"name":"receiver","type":"address","internalType":"address"}]},{"type":"error","name":"ERC20InvalidSender","inputs":[{"name":"sender","type":"address","internalType":"address"}]},{"type":"error","name":"ERC20InvalidSpender","inputs":[{"name":"spender","type":"address","internalType":"address"}]},{"type":"error","name":"FailedInnerCall","inputs":[]},{"type":"error","name":"ReentrancyGuardReentrantCall","inputs":[]},{"type":"error","name":"SafeERC20FailedOperation","inputs":[{"name":"token","type":"address","internalType":"address"}]}],"bytecode":{"object":"0x60a03461037c57601f196001600160401b03601f61137738819003828101851686019190848311878410176102975780879260609460405283398101031261037c5761004a8461039f565b92602092610065604061005e86890161039f565b970161039f565b9361006e610380565b93601485527f416e6465204c6971756964697479204761756765000000000000000000000000828601526100a0610380565b60039283825262614c4760e81b8183015286518581116102975784546001988982811c92168015610372575b8483101461035e578186849311610310575b5083908683116001146102b6575f926102ab575b50505f1982871b1c191690881b1784555b81519485116102975760049586548881811c9116801561028d575b8382101461027a5790818588979695949311610224575b50819386116001146101c25750505f936101b7575b505082851b925f19911b1c19161790555b6005556001600160a01b03918216608052600680546001600160a01b0319908116948416949094179055600780549093169116179055604051610fc390816103b482396080518181816102f20152818161055b01526107690152f35b015191505f8061014a565b8896949392919416875f52845f20945f905b82821061020b57505085116101f2575b50505050811b01905561015b565b01519060f8845f19921b161c191690555f8080806101e4565b8484015187558a989096019593840193908101906101d4565b90919293949550875f52825f208580890160051c820192858a10610271575b918b918a999897969594930160051c01915b828110610263575050610135565b5f81558998508b9101610255565b92508192610243565b602288634e487b7160e01b5f525260245ffd5b90607f169061011e565b634e487b7160e01b5f52604160045260245ffd5b015190505f806100f2565b90898b941691885f52855f20925f5b878282106102fa57505084116102e3575b505050811b018455610103565b01515f1983891b60f8161c191690555f80806102d6565b8385015186558e979095019493840193016102c5565b909150865f52835f208680850160051c820192868610610355575b918c91869594930160051c01915b8281106103475750506100de565b5f81558594508c9101610339565b9250819261032b565b634e487b7160e01b5f52602260045260245ffd5b91607f16916100cc565b5f80fd5b60408051919082016001600160401b0381118382101761029757604052565b51906001600160a01b038216820361037c5756fe604060808152600480361015610013575f80fd5b5f3560e01c9081628cc26214610b8957816306fdde0314610a955781630700037d14610a5e5781630754617214610a36578163095ea7b31461098e5781631633c9ac1461097057816318160ddd1461095257816323b872dd146108605781632638c09e146108385781632e1a7d4d146106cf578163313ce567146106b45781633c6b16ab146105de578163629d46c2146105c057816370a082311461058a57816382c630661461054757816395d89b41146104455781639e0ffbce14610427578163a9059cbb146103f7578163b6b55f251461027257508063cdb0f7241461023b578063dd62ed3e146101f2578063e6f1daf214610167578063f4359ce51461014a5763fb8c50e714610124575f80fd5b34610146575f3660031901126101465760209061013f610cda565b9051908152f35b5f80fd5b5034610146575f366003190112610146576020905162093a808152f35b5034610146575f36600319011261014657610180610dfc565b610188610cda565b600c5542600b55336101cc575b335f5260086020525f208054806101ae575b6001600555005b5f6101c592553360018060a01b0360075416610e1f565b5f806101a7565b6101d533610c45565b335f526008602052815f2055600c546009602052815f2055610195565b503461014657806003193601126101465760209061020e610bae565b610216610bc4565b9060018060a01b038091165f5260018452825f2091165f528252805f20549051908152f35b5034610146576020366003190112610146576020906001600160a01b03610260610bae565b165f5260098252805f20549051908152f35b8234610146576020918260031936011261014657803590610291610dfc565b610299610cda565b600c5542600b55331580156103d3575b82156103995783516323b872dd60e01b868201523360248201523060448201526064808201859052815260a0810167ffffffffffffffff811182821017610386578552610316907f0000000000000000000000000000000000000000000000000000000000000000610e71565b610370575061032781600254610c38565b600255335f525f8352815f2081815401905581519081525f7fddf252ad1be2c89b69c2b068fc378daa952ba7f163c4a11628f55a4df523b3ef843393a360016005555160018152f35b6024905f84519163ec442f0560e01b8352820152fd5b604184634e487b7160e01b5f525260245ffd5b835162461bcd60e51b8152808301869052601460248201527304c473a2043616e6e6f74206465706f73697420360641b6044820152606490fd5b6103dc33610c45565b335f5260088652845f2055600c5460098652845f20556102a9565b8234610146578060031936011261014657602090610420610416610bae565b6024359033610d22565b5160018152f35b8234610146575f36600319011261014657602090600a549051908152f35b8234610146575f366003190112610146578051905f9280549060018260011c916001841693841561053d575b602094858510811461052a5784885290811561050857506001146104af575b6104ab86866104a1828b0383610ca4565b5191829182610bda565b0390f35b5f9081529295507f8a35acfbc15ff81a39ae7d344fd709f28e8600b4aa8c65c6b64bfe7fe36bd19b5b8284106104f557505050826104ab946104a1928201019486610490565b80548685018801529286019281016104d8565b60ff191687860152505050151560051b83010192506104a1826104ab86610490565b602283634e487b7160e01b5f525260245ffd5b92607f1692610471565b8234610146575f36600319011261014657517f00000000000000000000000000000000000000000000000000000000000000006001600160a01b03168152602090f35b8234610146576020366003190112610146576020906001600160a01b036105af610bae565b165f525f8252805f20549051908152f35b8234610146575f36600319011261014657602090600b549051908152f35b8234610146576020366003190112610146578135906105fb610cda565b600c556006546001600160a01b03163303610672575062093a80918242019081421161065f5750428111610635575004600a555b42600b55005b90610650610647610656934290610c04565b600a5490610c25565b90610c38565b04600a5561062f565b601190634e487b7160e01b5f525260245ffd5b5162461bcd60e51b8152602081840152601a60248201527f4c473a204f6e6c79206d696e7465722063616e206e6f746966790000000000006044820152606490fd5b8234610146575f366003190112610146576020905160128152f35b823461014657602090816003193601126101465782356106ed610dfc565b6106f5610cda565b600c5542600b5533158015610814575b81156107d9576107c357335f525f8352815f20549381851061079957508061078d9185335f525f865203835f205580600254036002555f83518281527fddf252ad1be2c89b69c2b068fc378daa952ba7f163c4a11628f55a4df523b3ef863392a3337f0000000000000000000000000000000000000000000000000000000000000000610e1f565b60016005555160018152f35b915163391434e360e21b815233928101928352602083019490945260408201528291506060010390fd5b8151634b637e8f60e11b81525f81860152602490fd5b825162461bcd60e51b8152808601859052601560248201527404c473a2043616e6e6f74207769746864726177203605c1b6044820152606490fd5b61081d33610c45565b335f5260088552835f2055600c5460098552835f2055610705565b8234610146575f3660031901126101465760075490516001600160a01b039091168152602090f35b9050346101465760603660031901126101465761087b610bae565b610883610bc4565b906044359260018060a01b038216805f526001602052855f20335f52602052855f2054915f1983036108be575b602087610420888888610d22565b8583106109265781156109105733156108fa57505f908152600160209081528682203383528152908690209185900390915582906104206108b0565b6024905f885191634a1406b160e11b8352820152fd5b6024905f88519163e602df0560e01b8352820152fd5b8651637dc7a0d960e11b8152339181019182526020820193909352604081018690528291506060010390fd5b8234610146575f366003190112610146576020906002549051908152f35b8234610146575f36600319011261014657602090600c549051908152f35b82346101465780600319360112610146576109a7610bae565b602435903315610a20576001600160a01b0316908115610a0a5760209350335f5260018452825f20825f52845280835f205582519081527f8c5be1e5ebec7d5bd14f71427d1e84f3dd0314c0f7b2291e5b200ac8c7c3b925843392a35160018152f35b8251634a1406b160e11b81525f81860152602490fd5b825163e602df0560e01b81525f81860152602490fd5b8234610146575f3660031901126101465760065490516001600160a01b039091168152602090f35b8234610146576020366003190112610146576020906001600160a01b03610a83610bae565b165f5260088252805f20549051908152f35b8234610146575f366003190112610146578051905f9260035460018160011c91600181168015610b7f575b6020948585108214610b6c5750838752908115610b4c5750600114610af2575b5050506104a1826104ab940383610ca4565b60035f9081529295507fc2575a0e9e593c00f959f8c92f12db2869c3395a3b0502d05e2516446f71f85b5b828410610b3957505050826104ab946104a19282010194610ae0565b8054868501880152928601928101610b1d565b60ff1916868501525050151560051b83010192506104a1826104ab610ae0565b602290634e487b7160e01b5f525260245ffd5b92607f1692610ac0565b82346101465760203660031901126101465760209061013f610ba9610bae565b610c45565b600435906001600160a01b038216820361014657565b602435906001600160a01b038216820361014657565b602060409281835280519182918282860152018484015e5f828201840152601f01601f1916010190565b91908203918211610c1157565b634e487b7160e01b5f52601160045260245ffd5b81810292918115918404141715610c1157565b91908201809211610c1157565b610ca19060018060a01b0316805f525f602052670de0b6b3a7640000610c8d60405f2054610c87610c74610cda565b855f52600960205260405f205490610c04565b90610c25565b04905f52600860205260405f205490610c38565b90565b90601f8019910116810190811067ffffffffffffffff821117610cc657604052565b634e487b7160e01b5f52604160045260245ffd5b6002548015610d1b57600c54610cf5610647600b5442610c04565b91670de0b6b3a764000092838102938185041490151715610c1157610ca1920490610c38565b50600c5490565b916001600160a01b03808416928315610de45716928315610dcc57825f525f60205260405f205490828210610d9a5750817fddf252ad1be2c89b69c2b068fc378daa952ba7f163c4a11628f55a4df523b3ef92602092855f525f84520360405f2055845f5260405f20818154019055604051908152a3565b60405163391434e360e21b81526001600160a01b03919091166004820152602481019190915260448101829052606490fd5b60405163ec442f0560e01b81525f6004820152602490fd5b604051634b637e8f60e11b81525f6004820152602490fd5b600260055414610e0d576002600555565b604051633ee5aeb560e01b8152600490fd5b60405163a9059cbb60e01b60208201526001600160a01b039092166024830152604480830193909352918152608081019167ffffffffffffffff831182841017610cc657610e6f92604052610e71565b565b81516001600160a01b03909116915f91829160200182855af13d15610f1e573d67ffffffffffffffff8111610cc657610ecc9160405191610ebc6020601f19601f8401160184610ca4565b82523d5f602084013e5b83610f2a565b8051908115159182610efa575b5050610ee25750565b60249060405190635274afe760e01b82526004820152fd5b81925090602091810103126101465760200151801590811503610146575f80610ed9565b610ecc90606090610ec6565b90610f515750805115610f3f57805190602001fd5b604051630a12f52160e11b8152600490fd5b81511580610f84575b610f62575090565b604051639996b31560e01b81526001600160a01b039091166004820152602490fd5b50803b15610f5a56fea264697066735822122086051bc5b264bc5f8cf36fb95853ccb35c953bf72aca577787bf7ccb6f0360ef64736f6c63430008190033","linkReferences":{}},"methodIdentifiers":{"WEEK()":"f4359ce5","allowance(address,address)":"dd62ed3e","approve(address,uint256)":"095ea7b3","balanceOf(address)":"70a08231","claim_rewards()":"e6f1daf2","decimals()":"313ce567","deposit(uint256)":"b6b55f25","earned(address)":"008cc262","last_update_time()":"629d46c2","lp_token()":"82c63066","minter()":"07546172","name()":"06fdde03","notifyRewardAmount(uint256)":"3c6b16ab","reward_per_token()":"fb8c50e7","reward_per_token_stored()":"1633c9ac","reward_rate()":"9e0ffbce","reward_token()":"2638c09e","rewards(address)":"0700037d","symbol()":"95d89b41","totalSupply()":"18160ddd","transfer(address,uint256)":"a9059cbb","transferFrom(address,address,uint256)":"23b872dd","user_reward_per_token_paid(address)":"cdb0f724","withdraw(uint256)":"2e1a7d4d"},"id":133}