{"abi":[{"type":"constructor","inputs":[{"name":"_lp_addr","type":"address","internalType":"address"},{"name":"_minter","type":"address","internalType":"address"},{"name":"_reward_token","type":"address","internalType":"address"}],"stateMutability":"nonpayable"},{"type":"function","name":"WEEK","inputs":[],"outputs":[{"name":"","type":"uint256","internalType":"uint256"}],"stateMutability":"view"},{"type":"function","name":"allowance","inputs":[{"name":"owner","type":"address","internalType":"address"},{"name":"spender","type":"address","internalType":"address"}],"outputs":[{"name":"","type":"uint256","internalType":"uint256"}],"stateMutability":"view"},{"type":"function","name":"approve","inputs":[{"name":"spender","type":"address","internalType":"address"},{"name":"value","type":"uint256","internalType":"uint256"}],"outputs":[{"name":"","type":"bool","internalType":"bool"}],"stateMutability":"nonpayable"},{"type":"function","name":"balanceOf","inputs":[{"name":"account","type":"address","internalType":"address"}],"outputs":[{"name":"","type":"uint256","internalType":"uint256"}],"stateMutability":"view"},{"type":"function","name":"claim_rewards","inputs":[],"outputs":[],"stateMutability":"nonpayable"},{"type":"function","name":"decimals","inputs":[],"outputs":[{"name":"","type":"uint8","internalType":"uint8"}],"stateMutability":"view"},{"type":"function","name":"deposit","inputs":[{"name":"_value","type":"uint256","internalType":"uint256"}],"outputs":[{"name":"","type":"bool","internalType":"bool"}],"stateMutability":"nonpayable"},{"type":"function","name":"earned","inputs":[{"name":"_user","type":"address","internalType":"address"}],"outputs":[{"name":"","type":"uint256","internalType":"uint256"}],"stateMutability":"view"},{"type":"function","name":"last_update_time","inputs":[],"outputs":[{"name":"","type":"uint256","internalType":"uint256"}],"stateMutability":"view"},{"type":"function","name":"lp_token","inputs":[],"outputs":[{"name":"","type":"address","internalType":"contract IERC20"}],"stateMutability":"view"},{"type":"function","name":"minter","inputs":[],"outputs":[{"name":"","type":"address","internalType":"address"}],"stateMutability":"view"},{"type":"function","name":"name","inputs":[],"outputs":[{"name":"","type":"string","internalType":"string"}],"stateMutability":"view"},{"type":"function","name":"notifyRewardAmount","inputs":[{"name":"_amount","type":"uint256","internalType":"uint256"}],"outputs":[],"stateMutability":"nonpayable"},{"type":"function","name":"reward_per_token","inputs":[],"outputs":[{"name":"","type":"uint256","internalType":"uint256"}],"stateMutability":"view"},{"type":"function","name":"reward_per_token_stored","inputs":[],"outputs":[{"name":"","type":"uint256","internalType":"uint256"}],"stateMutability":"view"},{"type":"function","name":"reward_rate","inputs":[],"outputs":[{"name":"","type":"uint256","internalType":"uint256"}],"stateMutability":"view"},{"type":"function","name":"reward_token","inputs":[],"outputs":[{"name":"","type":"address","internalType":"contract IERC20"}],"stateMutability":"view"},{"type":"function","name":"rewards","inputs":[{"name":"","type":"address","internalType":"address"}],"outputs":[{"name":"","type":"uint256","internalType":"uint256"}],"stateMutability":"view"},{"type":"function","name":"symbol","inputs":[],"outputs":[{"name":"","type":"string","internalType":"string"}],"stateMutability":"view"},{"type":"function","name":"totalSupply","inputs":[],"outputs":[{"name":"","type":"uint256","internalType":"uint256"}],"stateMutability":"view"},{"type":"function","name":"transfer","inputs":[{"name":"to","type":"address","internalType":"address"},{"name":"value","type":"uint256","internalType":"uint256"}],"outputs":[{"name":"","type":"bool","internalType":"bool"}],"stateMutability":"nonpayable"},{"type":"function","name":"transferFrom","inputs":[{"name":"from","type":"address","internalType":"address"},{"name":"to","type":"address","internalType":"address"},{"name":"value","type":"uint256","internalType":"uint256"}],"outputs":[{"name":"","type":"bool","internalType":"bool"}],"stateMutability":"nonpayable"},{"type":"function","name":"user_reward_per_token_paid","inputs":[{"name":"","type":"address","internalType":"address"}],"outputs":[{"name":"","type":"uint256","internalType":"uint256"}],"stateMutability":"view"},{"type":"function","name":"withdraw","inputs":[{"name":"_value","type":"uint256","internalType":"uint256"}],"outputs":[{"name":"","type":"bool","internalType":"bool"}],"stateMutability":"nonpayable"},{"type":"event","name":"Approval","inputs":[{"name":"owner","type":"address","indexed":true,"internalType":"address"},{"name":"spender","type":"address","indexed":true,"internalType":"address"},{"name":"value","type":"uint256","indexed":false,"internalType":"uint256"}],"anonymous":false},{"type":"event","name":"Transfer","inputs":[{"name":"from","type":"address","indexed":true,"internalType":"address"},{"name":"to","type":"address","indexed":true,"internalType":"address"},{"name":"value","type":"uint256","indexed":false,"internalType":"uint256"}],"anonymous":false},{"type":"error","name":"AddressEmptyCode","inputs":[{"name":"target","type":"address","internalType":"address"}]},{"type":"error","name":"AddressInsufficientBalance","inputs":[{"name":"account","type":"address","internalType":"address"}]},{"type":"error","name":"ERC20InsufficientAllowance","inputs":[{"name":"spender","type":"address","internalType":"address"},{"name":"allowance","type":"uint256","internalType":"uint256"},{"name":"needed","type":"uint256","internalType":"uint256"}]},{"type":"error","name":"ERC20InsufficientBalance","inputs":[{"name":"sender","type":"address","internalType":"address"},{"name":"balance","type":"uint256","internalType":"uint256"},{"name":"needed","type":"uint256","internalType":"uint256"}]},{"type":"error","name":"ERC20InvalidApprover","inputs":[{"name":"approver","type":"address","internalType":"address"}]},{"type":"error","name":"ERC20InvalidReceiver","inputs":[{"name":"receiver","type":"address","internalType":"address"}]},{"type":"error","name":"ERC20InvalidSender","inputs":[{"name":"sender","type":"address","internalType":"address"}]},{"type":"error","name":"ERC20InvalidSpender","inputs":[{"name":"spender","type":"address","internalType":"address"}]},{"type":"error","name":"FailedInnerCall","inputs":[]},{"type":"error","name":"ReentrancyGuardReentrantCall","inputs":[]},{"type":"error","name":"SafeERC20FailedOperation","inputs":[{"name":"token","type":"address","internalType":"address"}]}],"bytecode":{"object":"0x60a03461037c57601f196001600160401b03601f6117b838819003828101851686019190848311878410176102975780879260609460405283398101031261037c5761004a8461039f565b92602092610065604061005e86890161039f565b970161039f565b9361006e610380565b93601485527f416e6465204c6971756964697479204761756765000000000000000000000000828601526100a0610380565b60039283825262614c4760e81b8183015286518581116102975784546001988982811c92168015610372575b8483101461035e578186849311610310575b5083908683116001146102b6575f926102ab575b50505f1982871b1c191690881b1784555b81519485116102975760049586548881811c9116801561028d575b8382101461027a5790818588979695949311610224575b50819386116001146101c25750505f936101b7575b505082851b925f19911b1c19161790555b6005556001600160a01b03918216608052600680546001600160a01b031990811694841694909417905560078054909316911617905560405161140490816103b482396080518181816103340152818161064001526108900152f35b015191505f8061014a565b8896949392919416875f52845f20945f905b82821061020b57505085116101f2575b50505050811b01905561015b565b01519060f8845f19921b161c191690555f8080806101e4565b8484015187558a989096019593840193908101906101d4565b90919293949550875f52825f208580890160051c820192858a10610271575b918b918a999897969594930160051c01915b828110610263575050610135565b5f81558998508b9101610255565b92508192610243565b602288634e487b7160e01b5f525260245ffd5b90607f169061011e565b634e487b7160e01b5f52604160045260245ffd5b015190505f806100f2565b90898b941691885f52855f20925f5b878282106102fa57505084116102e3575b505050811b018455610103565b01515f1983891b60f8161c191690555f80806102d6565b8385015186558e979095019493840193016102c5565b909150865f52835f208680850160051c820192868610610355575b918c91869594930160051c01915b8281106103475750506100de565b5f81558594508c9101610339565b9250819261032b565b634e487b7160e01b5f52602260045260245ffd5b91607f16916100cc565b5f80fd5b60408051919082016001600160401b0381118382101761029757604052565b51906001600160a01b038216820361037c5756fe604060808152600480361015610013575f80fd5b5f3560e01c9081628cc26214610e1657816306fdde0314610ceb5781630700037d14610ca75781630754617214610c73578163095ea7b314610b8c5781631633c9ac14610b6e57816318160ddd14610b5057816323b872dd146109e65781632638c09e146109b25781632e1a7d4d146107f6578163313ce567146107db5781633c6b16ab146106c5578163629d46c2146106a757816370a082311461066457816382c630661461061457816395d89b41146104db5781639e0ffbce146104bd578163a9059cbb1461048d578163b6b55f251461029b57508063cdb0f72414610257578063dd62ed3e14610200578063e6f1daf214610167578063f4359ce51461014a5763fb8c50e714610124575f80fd5b34610146575f6003193601126101465760209061013f610ffe565b9051908152f35b5f80fd5b5034610146575f600319360112610146576020905162093a808152f35b5034610146575f60031936011261014657610180611183565b610188610ffe565b600c5542600b55336101da575b335f5260086020525f208054806101ae575b6001600555005b5f6101d392553373ffffffffffffffffffffffffffffffffffffffff600754166111be565b5f806101a7565b6101e333610f23565b335f526008602052815f2055600c546009602052815f2055610195565b503461014657806003193601126101465760209061021c610e3b565b610224610e5e565b9073ffffffffffffffffffffffffffffffffffffffff8091165f5260018452825f2091165f528252805f20549051908152f35b50346101465760206003193601126101465760209073ffffffffffffffffffffffffffffffffffffffff610289610e3b565b165f5260098252805f20549051908152f35b82346101465760209182600319360112610146578035906102ba611183565b6102c2610ffe565b600c5542600b5533158015610469575b821561040d5783517f23b872dd00000000000000000000000000000000000000000000000000000000868201523360248201523060448201528360648201526064815260a0810181811067ffffffffffffffff8211176103e1578552610358907f0000000000000000000000000000000000000000000000000000000000000000611233565b6103b2575061036981600254610f16565b600255335f525f8352815f2081815401905581519081525f7fddf252ad1be2c89b69c2b068fc378daa952ba7f163c4a11628f55a4df523b3ef843393a360016005555160018152f35b6024905f8451917fec442f05000000000000000000000000000000000000000000000000000000008352820152fd5b6041847f4e487b71000000000000000000000000000000000000000000000000000000005f525260245ffd5b606482868651917f08c379a0000000000000000000000000000000000000000000000000000000008352820152601460248201527f4c473a2043616e6e6f74206465706f73697420300000000000000000000000006044820152fd5b61047233610f23565b335f5260088652845f2055600c5460098652845f20556102d2565b82346101465780600319360112610146576020906104b66104ac610e3b565b6024359033611046565b5160018152f35b8234610146575f60031936011261014657602090600a549051908152f35b8234610146575f600319360112610146578051905f9280549060018260011c916001841693841561060a575b60209485851081146105de5784885290811561059e5750600114610545575b6105418686610537828b0383610f90565b5191829182610e81565b0390f35b5f9081529295507f8a35acfbc15ff81a39ae7d344fd709f28e8600b4aa8c65c6b64bfe7fe36bd19b5b82841061058b575050508261054194610537928201019486610526565b805486850188015292860192810161056e565b7fffffffffffffffffffffffffffffffffffffffffffffffffffffffffffffff001687860152505050151560051b83010192506105378261054186610526565b6022837f4e487b71000000000000000000000000000000000000000000000000000000005f525260245ffd5b92607f1692610507565b8234610146575f600319360112610146576020905173ffffffffffffffffffffffffffffffffffffffff7f0000000000000000000000000000000000000000000000000000000000000000168152f35b82346101465760206003193601126101465760209073ffffffffffffffffffffffffffffffffffffffff610696610e3b565b165f525f8252805f20549051908152f35b8234610146575f60031936011261014657602090600b549051908152f35b8234610146576020600319360112610146578135906106e2610ffe565b600c5573ffffffffffffffffffffffffffffffffffffffff60065416330361077f575062093a8091824201908142116107535750428111610729575004600a555b42600b55005b9061074461073b61074a934290610ec9565b600a5490610f03565b90610f16565b04600a55610723565b6011907f4e487b71000000000000000000000000000000000000000000000000000000005f525260245ffd5b517f08c379a0000000000000000000000000000000000000000000000000000000008152602081840152601a60248201527f4c473a204f6e6c79206d696e7465722063616e206e6f746966790000000000006044820152606490fd5b8234610146575f600319360112610146576020905160128152f35b82346101465760209081600319360112610146578235610814611183565b61081c610ffe565b600c5542600b553315801561098e575b81156109325761090357335f525f8352815f2054938185106108c05750806108b49185335f525f865203835f205580600254036002555f83518281527fddf252ad1be2c89b69c2b068fc378daa952ba7f163c4a11628f55a4df523b3ef863392a3337f00000000000000000000000000000000000000000000000000000000000000006111be565b60016005555160018152f35b91517fe450d38c00000000000000000000000000000000000000000000000000000000815233928101928352602083019490945260408201528291506060010390fd5b6024845f8451917f96c6fd1e000000000000000000000000000000000000000000000000000000008352820152fd5b606485858551917f08c379a0000000000000000000000000000000000000000000000000000000008352820152601560248201527f4c473a2043616e6e6f74207769746864726177203000000000000000000000006044820152fd5b61099733610f23565b335f5260088552835f2055600c5460098552835f205561082c565b8234610146575f6003193601126101465760209073ffffffffffffffffffffffffffffffffffffffff600754169051908152f35b90503461014657606060031936011261014657610a01610e3b565b610a09610e5e565b906044359273ffffffffffffffffffffffffffffffffffffffff8216805f526001602052855f20335f52602052855f2054917fffffffffffffffffffffffffffffffffffffffffffffffffffffffffffffffff8303610a71575b6020876104b6888888611046565b858310610b0b578115610adc573315610aad57505f908152600160209081528682203383528152908690209185900390915582906104b6610a63565b6024905f8851917f94280d62000000000000000000000000000000000000000000000000000000008352820152fd5b6024905f8851917fe602df05000000000000000000000000000000000000000000000000000000008352820152fd5b86517ffb8f41b2000000000000000000000000000000000000000000000000000000008152339181019182526020820193909352604081018690528291506060010390fd5b8234610146575f600319360112610146576020906002549051908152f35b8234610146575f60031936011261014657602090600c549051908152f35b8234610146578060031936011261014657610ba5610e3b565b602435903315610c445773ffffffffffffffffffffffffffffffffffffffff16908115610c155760209350335f5260018452825f20825f52845280835f205582519081527f8c5be1e5ebec7d5bd14f71427d1e84f3dd0314c0f7b2291e5b200ac8c7c3b925843392a35160018152f35b6024845f8551917f94280d62000000000000000000000000000000000000000000000000000000008352820152fd5b6024845f8551917fe602df05000000000000000000000000000000000000000000000000000000008352820152fd5b8234610146575f6003193601126101465760209073ffffffffffffffffffffffffffffffffffffffff600654169051908152f35b82346101465760206003193601126101465760209073ffffffffffffffffffffffffffffffffffffffff610cd9610e3b565b165f5260088252805f20549051908152f35b8234610146575f600319360112610146578051905f9260035460018160011c91600181168015610e0c575b6020948585108214610de05750838752908115610da25750600114610d48575b50505061053782610541940383610f90565b60035f9081529295507fc2575a0e9e593c00f959f8c92f12db2869c3395a3b0502d05e2516446f71f85b5b828410610d8f5750505082610541946105379282010194610d36565b8054868501880152928601928101610d73565b7fffffffffffffffffffffffffffffffffffffffffffffffffffffffffffffff0016868501525050151560051b830101925061053782610541610d36565b6022907f4e487b71000000000000000000000000000000000000000000000000000000005f525260245ffd5b92607f1692610d16565b82346101465760206003193601126101465760209061013f610e36610e3b565b610f23565b6004359073ffffffffffffffffffffffffffffffffffffffff8216820361014657565b6024359073ffffffffffffffffffffffffffffffffffffffff8216820361014657565b7fffffffffffffffffffffffffffffffffffffffffffffffffffffffffffffffe0601f602060409481855280519182918282880152018686015e5f8582860101520116010190565b91908203918211610ed657565b7f4e487b71000000000000000000000000000000000000000000000000000000005f52601160045260245ffd5b81810292918115918404141715610ed657565b91908201809211610ed657565b73ffffffffffffffffffffffffffffffffffffffff610f8d9116805f525f602052670de0b6b3a7640000610f7960405f2054610f73610f60610ffe565b855f52600960205260405f205490610ec9565b90610f03565b04905f52600860205260405f205490610f16565b90565b90601f7fffffffffffffffffffffffffffffffffffffffffffffffffffffffffffffffe0910116810190811067ffffffffffffffff821117610fd157604052565b7f4e487b71000000000000000000000000000000000000000000000000000000005f52604160045260245ffd5b600254801561103f57600c5461101961073b600b5442610ec9565b91670de0b6b3a764000092838102938185041490151715610ed657610f8d920490610f16565b50600c5490565b9173ffffffffffffffffffffffffffffffffffffffff808416928315611153571692831561112357825f525f60205260405f2054908282106110cb5750817fddf252ad1be2c89b69c2b068fc378daa952ba7f163c4a11628f55a4df523b3ef92602092855f525f84520360405f2055845f5260405f20818154019055604051908152a3565b6040517fe450d38c00000000000000000000000000000000000000000000000000000000815273ffffffffffffffffffffffffffffffffffffffff919091166004820152602481019190915260448101829052606490fd5b60246040517fec442f050000000000000000000000000000000000000000000000000000000081525f6004820152fd5b60246040517f96c6fd1e0000000000000000000000000000000000000000000000000000000081525f6004820152fd5b600260055414611194576002600555565b60046040517f3ee5aeb5000000000000000000000000000000000000000000000000000000008152fd5b9173ffffffffffffffffffffffffffffffffffffffff604051927fa9059cbb000000000000000000000000000000000000000000000000000000006020850152166024830152604482015260448152608081019181831067ffffffffffffffff841117610fd15761123192604052611233565b565b5f73ffffffffffffffffffffffffffffffffffffffff8192169260208151910182855af13d15611322573d67ffffffffffffffff8111610fd1576112b791604051916112a760207fffffffffffffffffffffffffffffffffffffffffffffffffffffffffffffffe0601f8401160184610f90565b82523d5f602084013e5b8361132e565b80519081151591826112fe575b50506112cd5750565b602490604051907f5274afe70000000000000000000000000000000000000000000000000000000082526004820152fd5b81925090602091810103126101465760200151801590811503610146575f806112c4565b6112b7906060906112b1565b9061136d575080511561134357805190602001fd5b60046040517f1425ea42000000000000000000000000000000000000000000000000000000008152fd5b815115806113c5575b61137e575090565b60249073ffffffffffffffffffffffffffffffffffffffff604051917f9996b315000000000000000000000000000000000000000000000000000000008352166004820152fd5b50803b1561137656fea26469706673582212207338b3b9d49799d3052c0319e8889c7c5eabe4fd843974953a79550d991b6d1f64736f6c63430008190033","linkReferences":{}},"methodIdentifiers":{"WEEK()":"f4359ce5","allowance(address,address)":"dd62ed3e","approve(address,uint256)":"095ea7b3","balanceOf(address)":"70a08231","claim_rewards()":"e6f1daf2","decimals()":"313ce567","deposit(uint256)":"b6b55f25","earned(address)":"008cc262","last_update_time()":"629d46c2","lp_token()":"82c63066","minter()":"07546172","name()":"06fdde03","notifyRewardAmount(uint256)":"3c6b16ab","reward_per_token()":"fb8c50e7","reward_per_token_stored()":"1633c9ac","reward_rate()":"9e0ffbce","reward_token()":"2638c09e","rewards(address)":"0700037d","symbol()":"95d89b41","totalSupply()":"18160ddd","transfer(address,uint256)":"a9059cbb","transferFrom(address,address,uint256)":"23b872dd","user_reward_per_token_paid(address)":"cdb0f724","withdraw(uint256)":"2e1a7d4d"},"id":133}