{"abi":[{"type":"constructor","inputs":[{"name":"_asset","type":"address","internalType":"address"},{"name":"_rewardToken","type":"address","internalType":"address"},{"name":"_router","type":"address","internalType":"address"},{"name":"_gauge","type":"address","internalType":"address"},{"name":"_treasury","type":"address","internalType":"address"},{"name":"_name","type":"string","internalType":"string"},{"name":"_symbol","type":"string","internalType":"string"}],"stateMutability":"nonpayable"},{"type":"function","name":"MAX_PERFORMANCE_FEE","inputs":[],"outputs":[{"name":"","type":"uint256","internalType":"uint256"}],"stateMutability":"view"},{"type":"function","name":"MAX_WITHDRAWAL_FEE","inputs":[],"outputs":[{"name":"","type":"uint256","internalType":"uint256"}],"stateMutability":"view"},{"type":"function","name":"PRECISION","inputs":[],"outputs":[{"name":"","type":"uint256","internalType":"uint256"}],"stateMutability":"view"},{"type":"function","name":"allowance","inputs":[{"name":"owner","type":"address","internalType":"address"},{"name":"spender","type":"address","internalType":"address"}],"outputs":[{"name":"","type":"uint256","internalType":"uint256"}],"stateMutability":"view"},{"type":"function","name":"approve","inputs":[{"name":"spender","type":"address","internalType":"address"},{"name":"value","type":"uint256","internalType":"uint256"}],"outputs":[{"name":"","type":"bool","internalType":"bool"}],"stateMutability":"nonpayable"},{"type":"function","name":"asset","inputs":[],"outputs":[{"name":"","type":"address","internalType":"address"}],"stateMutability":"view"},{"type":"function","name":"balanceOf","inputs":[{"name":"account","type":"address","internalType":"address"}],"outputs":[{"name":"","type":"uint256","internalType":"uint256"}],"stateMutability":"view"},{"type":"function","name":"convertToAssets","inputs":[{"name":"shares","type":"uint256","internalType":"uint256"}],"outputs":[{"name":"","type":"uint256","internalType":"uint256"}],"stateMutability":"view"},{"type":"function","name":"convertToShares","inputs":[{"name":"assets","type":"uint256","internalType":"uint256"}],"outputs":[{"name":"","type":"uint256","internalType":"uint256"}],"stateMutability":"view"},{"type":"function","name":"decimals","inputs":[],"outputs":[{"name":"","type":"uint8","internalType":"uint8"}],"stateMutability":"view"},{"type":"function","name":"deposit","inputs":[{"name":"assets","type":"uint256","internalType":"uint256"},{"name":"receiver","type":"address","internalType":"address"}],"outputs":[{"name":"shares","type":"uint256","internalType":"uint256"}],"stateMutability":"nonpayable"},{"type":"function","name":"gauge","inputs":[],"outputs":[{"name":"","type":"address","internalType":"address"}],"stateMutability":"view"},{"type":"function","name":"getAPY","inputs":[],"outputs":[{"name":"","type":"uint256","internalType":"uint256"}],"stateMutability":"view"},{"type":"function","name":"harvest","inputs":[],"outputs":[],"stateMutability":"nonpayable"},{"type":"function","name":"lastHarvest","inputs":[],"outputs":[{"name":"","type":"uint256","internalType":"uint256"}],"stateMutability":"view"},{"type":"function","name":"maxDeposit","inputs":[{"name":"","type":"address","internalType":"address"}],"outputs":[{"name":"","type":"uint256","internalType":"uint256"}],"stateMutability":"view"},{"type":"function","name":"maxMint","inputs":[{"name":"","type":"address","internalType":"address"}],"outputs":[{"name":"","type":"uint256","internalType":"uint256"}],"stateMutability":"view"},{"type":"function","name":"maxRedeem","inputs":[{"name":"owner","type":"address","internalType":"address"}],"outputs":[{"name":"","type":"uint256","internalType":"uint256"}],"stateMutability":"view"},{"type":"function","name":"maxWithdraw","inputs":[{"name":"owner","type":"address","internalType":"address"}],"outputs":[{"name":"","type":"uint256","internalType":"uint256"}],"stateMutability":"view"},{"type":"function","name":"mint","inputs":[{"name":"shares","type":"uint256","internalType":"uint256"},{"name":"receiver","type":"address","internalType":"address"}],"outputs":[{"name":"","type":"uint256","internalType":"uint256"}],"stateMutability":"nonpayable"},{"type":"function","name":"name","inputs":[],"outputs":[{"name":"","type":"string","internalType":"string"}],"stateMutability":"view"},{"type":"function","name":"owner","inputs":[],"outputs":[{"name":"","type":"address","internalType":"address"}],"stateMutability":"view"},{"type":"function","name":"pause","inputs":[],"outputs":[],"stateMutability":"nonpayable"},{"type":"function","name":"paused","inputs":[],"outputs":[{"name":"","type":"bool","internalType":"bool"}],"stateMutability":"view"},{"type":"function","name":"pendingRewards","inputs":[],"outputs":[{"name":"","type":"uint256","internalType":"uint256"}],"stateMutability":"view"},{"type":"function","name":"performanceFee","inputs":[],"outputs":[{"name":"","type":"uint256","internalType":"uint256"}],"stateMutability":"view"},{"type":"function","name":"previewDeposit","inputs":[{"name":"assets","type":"uint256","internalType":"uint256"}],"outputs":[{"name":"","type":"uint256","internalType":"uint256"}],"stateMutability":"view"},{"type":"function","name":"previewMint","inputs":[{"name":"shares","type":"uint256","internalType":"uint256"}],"outputs":[{"name":"","type":"uint256","internalType":"uint256"}],"stateMutability":"view"},{"type":"function","name":"previewRedeem","inputs":[{"name":"shares","type":"uint256","internalType":"uint256"}],"outputs":[{"name":"","type":"uint256","internalType":"uint256"}],"stateMutability":"view"},{"type":"function","name":"previewWithdraw","inputs":[{"name":"assets","type":"uint256","internalType":"uint256"}],"outputs":[{"name":"","type":"uint256","internalType":"uint256"}],"stateMutability":"view"},{"type":"function","name":"redeem","inputs":[{"name":"shares","type":"uint256","internalType":"uint256"},{"name":"receiver","type":"address","internalType":"address"},{"name":"owner","type":"address","internalType":"address"}],"outputs":[{"name":"","type":"uint256","internalType":"uint256"}],"stateMutability":"nonpayable"},{"type":"function","name":"renounceOwnership","inputs":[],"outputs":[],"stateMutability":"nonpayable"},{"type":"function","name":"rewardToken","inputs":[],"outputs":[{"name":"","type":"address","internalType":"address"}],"stateMutability":"view"},{"type":"function","name":"router","inputs":[],"outputs":[{"name":"","type":"address","internalType":"address"}],"stateMutability":"view"},{"type":"function","name":"setPerformanceFee","inputs":[{"name":"newFee","type":"uint256","internalType":"uint256"}],"outputs":[],"stateMutability":"nonpayable"},{"type":"function","name":"setTreasury","inputs":[{"name":"newTreasury","type":"address","internalType":"address"}],"outputs":[],"stateMutability":"nonpayable"},{"type":"function","name":"setWithdrawalFee","inputs":[{"name":"newFee","type":"uint256","internalType":"uint256"}],"outputs":[],"stateMutability":"nonpayable"},{"type":"function","name":"symbol","inputs":[],"outputs":[{"name":"","type":"string","internalType":"string"}],"stateMutability":"view"},{"type":"function","name":"totalAssets","inputs":[],"outputs":[{"name":"","type":"uint256","internalType":"uint256"}],"stateMutability":"view"},{"type":"function","name":"totalHarvested","inputs":[],"outputs":[{"name":"","type":"uint256","internalType":"uint256"}],"stateMutability":"view"},{"type":"function","name":"totalSupply","inputs":[],"outputs":[{"name":"","type":"uint256","internalType":"uint256"}],"stateMutability":"view"},{"type":"function","name":"transfer","inputs":[{"name":"to","type":"address","internalType":"address"},{"name":"value","type":"uint256","internalType":"uint256"}],"outputs":[{"name":"","type":"bool","internalType":"bool"}],"stateMutability":"nonpayable"},{"type":"function","name":"transferFrom","inputs":[{"name":"from","type":"address","internalType":"address"},{"name":"to","type":"address","internalType":"address"},{"name":"value","type":"uint256","internalType":"uint256"}],"outputs":[{"name":"","type":"bool","internalType":"bool"}],"stateMutability":"nonpayable"},{"type":"function","name":"transferOwnership","inputs":[{"name":"newOwner","type":"address","internalType":"address"}],"outputs":[],"stateMutability":"nonpayable"},{"type":"function","name":"treasury","inputs":[],"outputs":[{"name":"","type":"address","internalType":"address"}],"stateMutability":"view"},{"type":"function","name":"unpause","inputs":[],"outputs":[],"stateMutability":"nonpayable"},{"type":"function","name":"withdraw","inputs":[{"name":"assets","type":"uint256","internalType":"uint256"},{"name":"receiver","type":"address","internalType":"address"},{"name":"owner","type":"address","internalType":"address"}],"outputs":[{"name":"shares","type":"uint256","internalType":"uint256"}],"stateMutability":"nonpayable"},{"type":"function","name":"withdrawalFee","inputs":[],"outputs":[{"name":"","type":"uint256","internalType":"uint256"}],"stateMutability":"view"},{"type":"event","name":"Approval","inputs":[{"name":"owner","type":"address","indexed":true,"internalType":"address"},{"name":"spender","type":"address","indexed":true,"internalType":"address"},{"name":"value","type":"uint256","indexed":false,"internalType":"uint256"}],"anonymous":false},{"type":"event","name":"Deposit","inputs":[{"name":"sender","type":"address","indexed":true,"internalType":"address"},{"name":"owner","type":"address","indexed":true,"internalType":"address"},{"name":"assets","type":"uint256","indexed":false,"internalType":"uint256"},{"name":"shares","type":"uint256","indexed":false,"internalType":"uint256"}],"anonymous":false},{"type":"event","name":"Harvest","inputs":[{"name":"rewards","type":"uint256","indexed":false,"internalType":"uint256"},{"name":"compounded","type":"uint256","indexed":false,"internalType":"uint256"},{"name":"fee","type":"uint256","indexed":false,"internalType":"uint256"}],"anonymous":false},{"type":"event","name":"OwnershipTransferred","inputs":[{"name":"previousOwner","type":"address","indexed":true,"internalType":"address"},{"name":"newOwner","type":"address","indexed":true,"internalType":"address"}],"anonymous":false},{"type":"event","name":"Paused","inputs":[],"anonymous":false},{"type":"event","name":"PerformanceFeeUpdated","inputs":[{"name":"newFee","type":"uint256","indexed":false,"internalType":"uint256"}],"anonymous":false},{"type":"event","name":"Transfer","inputs":[{"name":"from","type":"address","indexed":true,"internalType":"address"},{"name":"to","type":"address","indexed":true,"internalType":"address"},{"name":"value","type":"uint256","indexed":false,"internalType":"uint256"}],"anonymous":false},{"type":"event","name":"TreasuryUpdated","inputs":[{"name":"newTreasury","type":"address","indexed":false,"internalType":"address"}],"anonymous":false},{"type":"event","name":"Unpaused","inputs":[],"anonymous":false},{"type":"event","name":"Withdraw","inputs":[{"name":"sender","type":"address","indexed":true,"internalType":"address"},{"name":"receiver","type":"address","indexed":true,"internalType":"address"},{"name":"owner","type":"address","indexed":true,"internalType":"address"},{"name":"assets","type":"uint256","indexed":false,"internalType":"uint256"},{"name":"shares","type":"uint256","indexed":false,"internalType":"uint256"}],"anonymous":false},{"type":"event","name":"WithdrawalFeeUpdated","inputs":[{"name":"newFee","type":"uint256","indexed":false,"internalType":"uint256"}],"anonymous":false},{"type":"error","name":"AddressEmptyCode","inputs":[{"name":"target","type":"address","internalType":"address"}]},{"type":"error","name":"AddressInsufficientBalance","inputs":[{"name":"account","type":"address","internalType":"address"}]},{"type":"error","name":"ERC20InsufficientAllowance","inputs":[{"name":"spender","type":"address","internalType":"address"},{"name":"allowance","type":"uint256","internalType":"uint256"},{"name":"needed","type":"uint256","internalType":"uint256"}]},{"type":"error","name":"ERC20InsufficientBalance","inputs":[{"name":"sender","type":"address","internalType":"address"},{"name":"balance","type":"uint256","internalType":"uint256"},{"name":"needed","type":"uint256","internalType":"uint256"}]},{"type":"error","name":"ERC20InvalidApprover","inputs":[{"name":"approver","type":"address","internalType":"address"}]},{"type":"error","name":"ERC20InvalidReceiver","inputs":[{"name":"receiver","type":"address","internalType":"address"}]},{"type":"error","name":"ERC20InvalidSender","inputs":[{"name":"sender","type":"address","internalType":"address"}]},{"type":"error","name":"ERC20InvalidSpender","inputs":[{"name":"spender","type":"address","internalType":"address"}]},{"type":"error","name":"ERC4626ExceededMaxDeposit","inputs":[{"name":"receiver","type":"address","internalType":"address"},{"name":"assets","type":"uint256","internalType":"uint256"},{"name":"max","type":"uint256","internalType":"uint256"}]},{"type":"error","name":"ERC4626ExceededMaxMint","inputs":[{"name":"receiver","type":"address","internalType":"address"},{"name":"shares","type":"uint256","internalType":"uint256"},{"name":"max","type":"uint256","internalType":"uint256"}]},{"type":"error","name":"ERC4626ExceededMaxRedeem","inputs":[{"name":"owner","type":"address","internalType":"address"},{"name":"shares","type":"uint256","internalType":"uint256"},{"name":"max","type":"uint256","internalType":"uint256"}]},{"type":"error","name":"ERC4626ExceededMaxWithdraw","inputs":[{"name":"owner","type":"address","internalType":"address"},{"name":"assets","type":"uint256","internalType":"uint256"},{"name":"max","type":"uint256","internalType":"uint256"}]},{"type":"error","name":"FailedInnerCall","inputs":[]},{"type":"error","name":"InvalidAddress","inputs":[]},{"type":"error","name":"InvalidFee","inputs":[]},{"type":"error","name":"MathOverflowedMulDiv","inputs":[]},{"type":"error","name":"OwnableInvalidOwner","inputs":[{"name":"owner","type":"address","internalType":"address"}]},{"type":"error","name":"OwnableUnauthorizedAccount","inputs":[{"name":"account","type":"address","internalType":"address"}]},{"type":"error","name":"ReentrancyGuardReentrantCall","inputs":[]},{"type":"error","name":"SafeERC20FailedOperation","inputs":[{"name":"token","type":"address","internalType":"address"}]},{"type":"error","name":"VaultPaused","inputs":[]},{"type":"error","name":"ZeroAmount","inputs":[]}],"bytecode":{"object":"0x61010080604052346104aa576126d4803803809161001d82856104ae565b833981019060e0818303126104aa57610035816104d1565b90610042602082016104d1565b9161004f604083016104d1565b9361005c606084016104d1565b91610069608085016104d1565b60a08501519094906001600160401b0381116104aa578361008b918301610500565b60c08201519093906001600160401b0381116104aa576100ab9201610500565b825190926001600160401b0382116103775760035490600182811c921680156104a0575b602083101461048c5781601f84931161041e575b50602090601f8311600114610396575f9261038b575b50508160011b915f199060031b1c1916176003555b81516001600160401b038111610377576004928354600181811c9116801561036d575b602082101461035a579081601f84931161030a575b50602090601f83116001146102a6575f9261029b575b50508160011b915f199060031b1c19161782555b6101826001600160a01b038216610546565b9015610293575b60a0526001600160a01b0316608052331561027c575060058054336001600160a01b03198083168217909355604051969295916001600160a01b03167f8be0079c531659141344cd1fd0a4f28419497f9722a3daafe3b4186f6b6457e05f80a360016006556103e8600955600a805560c05260e0526007805484166001600160a01b0392831617905560088054909316911617905542600b556120d890816105fc823960805181818161071501528181610c7b01528181610e4f015281816113f401528181611bf70152611d82015260a05181610e88015260c0518181816102ac0152611516015260e051816102580152f35b6024905f60405191631e4fbdf760e01b8352820152fd5b506012610189565b015190505f8061015c565b5f868152602081209350601f198516905b8181106102f257509084600195949392106102da575b505050811b018255610170565b01515f1960f88460031b161c191690555f80806102cd565b929360206001819287860151815501950193016102b7565b909150845f5260205f20601f840160051c81019160208510610350575b90601f859493920160051c01905b8181106103425750610146565b5f8155849350600101610335565b9091508190610327565b602285634e487b7160e01b5f525260245ffd5b90607f1690610131565b634e487b7160e01b5f52604160045260245ffd5b015190505f806100f9565b60035f90815293507fc2575a0e9e593c00f959f8c92f12db2869c3395a3b0502d05e2516446f71f85b91905b601f1984168510610403576001945083601f198116106103eb575b505050811b0160035561010e565b01515f1960f88460031b161c191690555f80806103dd565b818101518355602094850194600190930192909101906103c2565b60035f529091507fc2575a0e9e593c00f959f8c92f12db2869c3395a3b0502d05e2516446f71f85b601f840160051c81019160208510610482575b90601f859493920160051c01905b81811061047457506100e3565b5f8155849350600101610467565b9091508190610459565b634e487b7160e01b5f52602260045260245ffd5b91607f16916100cf565b5f80fd5b601f909101601f19168101906001600160401b0382119082101761037757604052565b51906001600160a01b03821682036104aa57565b6001600160401b03811161037757601f01601f191660200190565b81601f820112156104aa57805190610517826104e5565b9261052560405194856104ae565b828452602083830101116104aa57815f9260208093018386015e8301015290565b6040805163313ce56760e01b6020820190815260048252909291830191906001600160401b03831184841017610377575f938493604052519160018060a01b03165afa3d156105f3573d9061059a826104e5565b916105a860405193846104ae565b82523d5f602084013e5b806105e7575b6105c4575b505f905f90565b6020818051810103126104aa576020015160ff81116105bd579060ff6001921690565b506020815110156105b8565b6060906105b256fe604060808152600480361015610013575f80fd5b5f3560e01c90816301e1d1141461118f57816306fdde031461106457816307a2d13a14610d91578163095ea7b314610f7d5781630a28a47714610f5f57816318160ddd14610f4157816323b872dd14610f0557816323dc114214610ee7578163313ce56714610e7357816338d52e0f14610e235781633f4ba83a14610dbd578163402d267d146105ae5781634641257d14610d965781634cdad50614610d915781635c975abb14610d6e57816361d027b314610d3a5781636e553f6514610b9a57816370897b2314610b4457816370a082311461050a578163715018a614610ac65781638456cb5914610a5d5781638778878214610a3f5781638bc7e8c414610a215781638da5cb5b146109ed57816394bf804d146109ba57816395d89b4114610881578163a6f19c841461084d578163a9059cbb1461081d578163aaf5eb6814610801578163ac1e502514610785578163b3d7f6b914610767578163b460af941461068c578163ba087652146105cf578163bdca9165146105b3578163c63d75b6146105ae578163c6e6f59214610470578163ce96cb771461056a578163d2cbf7ad1461054e578163d905777e1461050a578163dd62ed3e146104b3578163eb6ed33014610498578163eded3fda14610475578163ef8b30f714610470578163f0f44260146103b4578163f1a392da14610396578163f2fde38b146102d057508063f7c618c1146102805763f887ea401461022d575f80fd5b3461027c575f60031936011261027c576020905173ffffffffffffffffffffffffffffffffffffffff7f0000000000000000000000000000000000000000000000000000000000000000168152f35b5f80fd5b503461027c575f60031936011261027c576020905173ffffffffffffffffffffffffffffffffffffffff7f0000000000000000000000000000000000000000000000000000000000000000168152f35b90503461027c57602060031936011261027c576102eb611219565b906102f4611a85565b73ffffffffffffffffffffffffffffffffffffffff809216928315610367575050600554827fffffffffffffffffffffffff0000000000000000000000000000000000000000821617600555167f8be0079c531659141344cd1fd0a4f28419497f9722a3daafe3b4186f6b6457e05f80a3005b905f60249251917f1e4fbdf7000000000000000000000000000000000000000000000000000000008352820152fd5b823461027c575f60031936011261027c57602090600b549051908152f35b823461027c57602060031936011261027c5773ffffffffffffffffffffffffffffffffffffffff6103e3611219565b6103eb611a85565b16918215610449577f7dae230f18360d76a040c81f050aa14eb9d6dc7901b20fc5d855e2a20fe814d160208484817fffffffffffffffffffffffff0000000000000000000000000000000000000000600854161760085551908152a1005b90517fe6c4247b000000000000000000000000000000000000000000000000000000008152fd5b6112e5565b823461027c575f60031936011261027c5760209061049161172a565b9051908152f35b823461027c575f60031936011261027c576020905160648152f35b823461027c578060031936011261027c576020906104cf611219565b6104d761123c565b9073ffffffffffffffffffffffffffffffffffffffff8091165f5260018452825f2091165f528252805f20549051908152f35b823461027c57602060031936011261027c5760209061049161052a611219565b73ffffffffffffffffffffffffffffffffffffffff165f525f60205260405f205490565b823461027c575f60031936011261027c576020906104916116a3565b823461027c57602060031936011261027c5760209073ffffffffffffffffffffffffffffffffffffffff61059c611219565b165f525f8252610491815f2054611777565b61125f565b823461027c575f60031936011261027c57602090516107d08152f35b823461027c576105de366112a3565b9291936106098473ffffffffffffffffffffffffffffffffffffffff165f525f60205260405f205490565b8086116106315750508361062b91610622602096611777565b94859133611ccd565b51908152f35b92517fb94abeec00000000000000000000000000000000000000000000000000000000815273ffffffffffffffffffffffffffffffffffffffff90941690840190815260208101949094525060408301529081906060010390fd5b823461027c5761069b366112a3565b929190936106a7611ad6565b81156107405750602093816106be6106e9936117a2565b9485926106db6127106106d3600a5486611492565b048094611485565b92806106f4575b5033611ccd565b600160065551908152f35b61073a9073ffffffffffffffffffffffffffffffffffffffff8060085416907f000000000000000000000000000000000000000000000000000000000000000016611b11565b886106e2565b82517f1f2a2005000000000000000000000000000000000000000000000000000000008152fd5b823461027c57602060031936011261027c576104916020923561174c565b823461027c57602060031936011261027c578135916107a2611a85565b606483116107da577fe94edcc114da5287ecb30ee8aacf12e6c16b11b8583d7f9e477ab1616e33d53d6020848481600a5551908152a1005b90517f58d620b3000000000000000000000000000000000000000000000000000000008152fd5b823461027c575f60031936011261027c57602090516127108152f35b823461027c578060031936011261027c5760209061084661083c611219565b6024359033611948565b5160018152f35b823461027c575f60031936011261027c5760209073ffffffffffffffffffffffffffffffffffffffff600754169051908152f35b823461027c575f60031936011261027c578051905f9280549060018260011c91600184169384156109b0575b60209485851081146109845784885290811561094457506001146108eb575b6108e786866108dd828b0383611303565b51918291826111ab565b0390f35b5f9081529295507f8a35acfbc15ff81a39ae7d344fd709f28e8600b4aa8c65c6b64bfe7fe36bd19b5b82841061093157505050826108e7946108dd9282010194866108cc565b8054868501880152928601928101610914565b7fffffffffffffffffffffffffffffffffffffffffffffffffffffffffffffff001687860152505050151560051b83010192506108dd826108e7866108cc565b6022837f4e487b71000000000000000000000000000000000000000000000000000000005f525260245ffd5b92607f16926108ad565b823461027c578060031936011261027c57602091359061062b6109db61123c565b926109e58161174c565b809433611b7a565b823461027c575f60031936011261027c5760209073ffffffffffffffffffffffffffffffffffffffff600554169051908152f35b823461027c575f60031936011261027c57602090600a549051908152f35b823461027c575f60031936011261027c576020906009549051908152f35b3461027c575f60031936011261027c57610a75611a85565b60017fffffffffffffffffffffffffffffffffffffffffffffffffffffffffffffff00600d541617600d557f9e87fac88ff661f02d44f95383c817fece4bce600a3dab7a54406878b965e7525f80a1005b3461027c575f60031936011261027c57610ade611a85565b5f73ffffffffffffffffffffffffffffffffffffffff6005547fffffffffffffffffffffffff00000000000000000000000000000000000000008116600555167f8be0079c531659141344cd1fd0a4f28419497f9722a3daafe3b4186f6b6457e08280a3005b823461027c57602060031936011261027c57813591610b61611a85565b6107d083116107da577f9b49d0cd76012d9c67241c2f68f836efbaf50ea29901a250040671402d5263f5602084848160095551908152a1005b823461027c578060031936011261027c57813590610bb661123c565b60ff600d5416610d1257610bc8611ad6565b8215610cea5792610be68394610bdd856117cd565b94859133611b7a565b73ffffffffffffffffffffffffffffffffffffffff9081600754169081610c17575b60208585600160065551908152f35b91610c7795915f6020948651988995869485937f095ea7b300000000000000000000000000000000000000000000000000000000855284016020909392919373ffffffffffffffffffffffffffffffffffffffff60408201951681520152565b03927f0000000000000000000000000000000000000000000000000000000000000000165af1928315610ce057602093610cb3575b8080610c08565b610cd290843d8611610cd9575b610cca8183611303565b8101906114dc565b5083610cac565b503d610cc0565b50513d5f823e3d90fd5b8382517f1f2a2005000000000000000000000000000000000000000000000000000000008152fd5b8382517fda9f8b34000000000000000000000000000000000000000000000000000000008152fd5b823461027c575f60031936011261027c5760209073ffffffffffffffffffffffffffffffffffffffff600854169051908152f35b823461027c575f60031936011261027c5760209060ff600d541690519015158152f35b6111f3565b3461027c575f60031936011261027c57610dae611ad6565b610db66114f4565b6001600655005b3461027c575f60031936011261027c57610dd5611a85565b7fffffffffffffffffffffffffffffffffffffffffffffffffffffffffffffff00600d5416600d557fa45f47fdea8a1efdd9029a5691c7f759c32b7c698632b563573e155625d169335f80a1005b823461027c575f60031936011261027c576020905173ffffffffffffffffffffffffffffffffffffffff7f0000000000000000000000000000000000000000000000000000000000000000168152f35b823461027c575f60031936011261027c5760ff7f0000000000000000000000000000000000000000000000000000000000000000169060ff8211610ebb576020925051908152f35b6011837f4e487b71000000000000000000000000000000000000000000000000000000005f525260245ffd5b823461027c575f60031936011261027c57602090600c549051908152f35b823461027c57606060031936011261027c57602090610846610f25611219565b610f2d61123c565b60443591610f3c8333836117f8565b611948565b823461027c575f60031936011261027c576020906002549051908152f35b823461027c57602060031936011261027c57610491602092356117a2565b823461027c578060031936011261027c57610f96611219565b6024359033156110355773ffffffffffffffffffffffffffffffffffffffff169081156110065760209350335f5260018452825f20825f52845280835f205582519081527f8c5be1e5ebec7d5bd14f71427d1e84f3dd0314c0f7b2291e5b200ac8c7c3b925843392a35160018152f35b6024845f8551917f94280d62000000000000000000000000000000000000000000000000000000008352820152fd5b6024845f8551917fe602df05000000000000000000000000000000000000000000000000000000008352820152fd5b823461027c575f60031936011261027c578051905f9260035460018160011c91600181168015611185575b6020948585108214611159575083875290811561111b57506001146110c1575b5050506108dd826108e7940383611303565b60035f9081529295507fc2575a0e9e593c00f959f8c92f12db2869c3395a3b0502d05e2516446f71f85b5b82841061110857505050826108e7946108dd92820101946110af565b80548685018801529286019281016110ec565b7fffffffffffffffffffffffffffffffffffffffffffffffffffffffffffffff0016868501525050151560051b83010192506108dd826108e76110af565b6022907f4e487b71000000000000000000000000000000000000000000000000000000005f525260245ffd5b92607f169261108f565b823461027c575f60031936011261027c576020906104916113ab565b7fffffffffffffffffffffffffffffffffffffffffffffffffffffffffffffffe0601f602060409481855280519182918282880152018686015e5f8582860101520116010190565b3461027c57602060031936011261027c576020611211600435611777565b604051908152f35b6004359073ffffffffffffffffffffffffffffffffffffffff8216820361027c57565b6024359073ffffffffffffffffffffffffffffffffffffffff8216820361027c57565b3461027c57602060031936011261027c57611278611219565b5060206040517fffffffffffffffffffffffffffffffffffffffffffffffffffffffffffffffff8152f35b600319606091011261027c576004359073ffffffffffffffffffffffffffffffffffffffff90602435828116810361027c5791604435908116810361027c5790565b3461027c57602060031936011261027c5760206112116004356117cd565b90601f7fffffffffffffffffffffffffffffffffffffffffffffffffffffffffffffffe0910116810190811067ffffffffffffffff82111761134457604052565b7f4e487b71000000000000000000000000000000000000000000000000000000005f52604160045260245ffd5b9190820180921161137e57565b7f4e487b71000000000000000000000000000000000000000000000000000000005f52601160045260245ffd5b6040517f70a0823100000000000000000000000000000000000000000000000000000000815230600482015273ffffffffffffffffffffffffffffffffffffffff6020826024817f000000000000000000000000000000000000000000000000000000000000000085165afa90811561147a575f91611444575b60075461143a9350161561143d575f90611371565b90565b5f90611371565b90506020823d602011611472575b8161145f60209383611303565b8101031261027c5761143a915190611425565b3d9150611452565b6040513d5f823e3d90fd5b9190820391821161137e57565b8181029291811591840414171561137e57565b81156114af570490565b7f4e487b71000000000000000000000000000000000000000000000000000000005f52601260045260245ffd5b9081602091031261027c5751801515810361027c5790565b73ffffffffffffffffffffffffffffffffffffffff8060075416156116a057807f00000000000000000000000000000000000000000000000000000000000000001660408051917f70a08231000000000000000000000000000000000000000000000000000000008084523060048501526020938481602481865afa908115611669575f91611673575b5083519182523060048301528482602481865afa8015611669575f9061163a575b6115a99250611485565b918215611633575f6060947f4ec2d4038813a7f233af1d6d09519189db3ed5bc5b823bf72f6d3144574721de966127106115e560095488611492565b0480956115f28289611485565b508161161d575b50505061160885600c54611371565b600c5542600b558251948552840152820152a1565b61162b926008541690611b11565b5f84816115f9565b5050505050565b508482813d8311611662575b6116508183611303565b8101031261027c576115a9915161159f565b503d611646565b84513d5f823e3d90fd5b90508481813d8311611699575b61168a8183611303565b8101031261027c57515f61157e565b503d611680565b50565b6116ab6113ab565b158015611720575b61171c576116c3600b5442611485565b8015611717576116d161172a565b906301e133809182810292818404149015171561137e576116f1916114a5565b6127109081810291818304149015171561137e5761143a906117116113ab565b906114a5565b505f90565b5f90565b50600b54156116b3565b73ffffffffffffffffffffffffffffffffffffffff600754161561171c575f90565b6117546113ab565b6001810180911161137e57600254906001820180921161137e5761143a92611e1d565b61177f6113ab565b6001810180911161137e57600254906001820180921161137e5761143a92611f39565b6002546001810180911161137e576117b86113ab565b906001820180921161137e5761143a92611e1d565b6002546001810180911161137e576117e36113ab565b906001820180921161137e5761143a92611f39565b919073ffffffffffffffffffffffffffffffffffffffff80931692835f526001602052604093845f2091831691825f52602052845f2054927fffffffffffffffffffffffffffffffffffffffffffffffffffffffffffffffff8403611860575b505050505050565b8484106118f2575080156118c3578115611894575f526001602052835f20905f5260205203905f20555f8080808080611858565b602485517f94280d620000000000000000000000000000000000000000000000000000000081525f6004820152fd5b602485517fe602df050000000000000000000000000000000000000000000000000000000081525f6004820152fd5b85517ffb8f41b200000000000000000000000000000000000000000000000000000000815273ffffffffffffffffffffffffffffffffffffffff9190911660048201526024810184905260448101859052606490fd5b9173ffffffffffffffffffffffffffffffffffffffff808416928315611a555716928315611a2557825f525f60205260405f2054908282106119cd5750817fddf252ad1be2c89b69c2b068fc378daa952ba7f163c4a11628f55a4df523b3ef92602092855f525f84520360405f2055845f5260405f20818154019055604051908152a3565b6040517fe450d38c00000000000000000000000000000000000000000000000000000000815273ffffffffffffffffffffffffffffffffffffffff919091166004820152602481019190915260448101829052606490fd5b60246040517fec442f050000000000000000000000000000000000000000000000000000000081525f6004820152fd5b60246040517f96c6fd1e0000000000000000000000000000000000000000000000000000000081525f6004820152fd5b73ffffffffffffffffffffffffffffffffffffffff600554163303611aa657565b60246040517f118cdaa7000000000000000000000000000000000000000000000000000000008152336004820152fd5b600260065414611ae7576002600655565b60046040517f3ee5aeb5000000000000000000000000000000000000000000000000000000008152fd5b6040517fa9059cbb00000000000000000000000000000000000000000000000000000000602082015273ffffffffffffffffffffffffffffffffffffffff929092166024830152604480830193909352918152611b7891611b73606483611303565b611e47565b565b90916040918251937f23b872dd00000000000000000000000000000000000000000000000000000000602086015273ffffffffffffffffffffffffffffffffffffffff809216948560248201523060448201528360648201526064815260a081019080821067ffffffffffffffff83111761134457611c1b9186527f0000000000000000000000000000000000000000000000000000000000000000611e47565b16938415611c9e579081611c537fdcbc1c05240f31ff3ad067ef1ee35ce4997762752e3a095284754544f4c709d79493600254611371565b600255855f525f602052825f20818154019055855f7fddf252ad1be2c89b69c2b068fc378daa952ba7f163c4a11628f55a4df523b3ef60208651858152a382519182526020820152a3565b602483517fec442f050000000000000000000000000000000000000000000000000000000081525f6004820152fd5b919073ffffffffffffffffffffffffffffffffffffffff90818316958285169481888703611e0c575b50508615611a5557865f525f602052604093845f205490828210611db5575090807ffbde797d201c681b91056529119e0b02407c7bb96a4a2c75c01fc9667232c8db95949392895f525f60205203845f205580600254036002555f887fddf252ad1be2c89b69c2b068fc378daa952ba7f163c4a11628f55a4df523b3ef60208751858152a3611da687837f0000000000000000000000000000000000000000000000000000000000000000611b11565b835196875260208701521693a4565b85517fe450d38c00000000000000000000000000000000000000000000000000000000815273ffffffffffffffffffffffffffffffffffffffff919091166004820152602481019190915260448101829052606490fd5b611e1691866117f8565b5f81611cf6565b9190611e2a828285611f39565b9282156114af5709611e395790565b6001810180911161137e5790565b5f73ffffffffffffffffffffffffffffffffffffffff8192169260208151910182855af13d15611f2d573d67ffffffffffffffff811161134457611ecb9160405191611ebb60207fffffffffffffffffffffffffffffffffffffffffffffffffffffffffffffffe0601f8401160184611303565b82523d5f602084013e5b83612002565b8051908115159182611f12575b5050611ee15750565b602490604051907f5274afe70000000000000000000000000000000000000000000000000000000082526004820152fd5b611f2592506020809183010191016114dc565b155f80611ed8565b611ecb90606090611ec5565b9091828202917fffffffffffffffffffffffffffffffffffffffffffffffffffffffffffffffff84820993838086109503948086039514611ff55784831115611fcb57829109815f038216809204600280826003021880830282030280830282030280830282030280830282030280830282030280920290030293600183805f03040190848311900302920304170290565b60046040517f227bc153000000000000000000000000000000000000000000000000000000008152fd5b50509061143a92506114a5565b90612041575080511561201757805190602001fd5b60046040517f1425ea42000000000000000000000000000000000000000000000000000000008152fd5b81511580612099575b612052575090565b60249073ffffffffffffffffffffffffffffffffffffffff604051917f9996b315000000000000000000000000000000000000000000000000000000008352166004820152fd5b50803b1561204a56fea26469706673582212208d93b150995405e20c51193e7e1e101d8cde2bec1b628acd6099f7fd70cc68f364736f6c63430008190033","linkReferences":{}},"methodIdentifiers":{"MAX_PERFORMANCE_FEE()":"bdca9165","MAX_WITHDRAWAL_FEE()":"eb6ed330","PRECISION()":"aaf5eb68","allowance(address,address)":"dd62ed3e","approve(address,uint256)":"095ea7b3","asset()":"38d52e0f","balanceOf(address)":"70a08231","convertToAssets(uint256)":"07a2d13a","convertToShares(uint256)":"c6e6f592","decimals()":"313ce567","deposit(uint256,address)":"6e553f65","gauge()":"a6f19c84","getAPY()":"d2cbf7ad","harvest()":"4641257d","lastHarvest()":"f1a392da","maxDeposit(address)":"402d267d","maxMint(address)":"c63d75b6","maxRedeem(address)":"d905777e","maxWithdraw(address)":"ce96cb77","mint(uint256,address)":"94bf804d","name()":"06fdde03","owner()":"8da5cb5b","pause()":"8456cb59","paused()":"5c975abb","pendingRewards()":"eded3fda","performanceFee()":"87788782","previewDeposit(uint256)":"ef8b30f7","previewMint(uint256)":"b3d7f6b9","previewRedeem(uint256)":"4cdad506","previewWithdraw(uint256)":"0a28a477","redeem(uint256,address,address)":"ba087652","renounceOwnership()":"715018a6","rewardToken()":"f7c618c1","router()":"f887ea40","setPerformanceFee(uint256)":"70897b23","setTreasury(address)":"f0f44260","setWithdrawalFee(uint256)":"ac1e5025","symbol()":"95d89b41","totalAssets()":"01e1d114","totalHarvested()":"23dc1142","totalSupply()":"18160ddd","transfer(address,uint256)":"a9059cbb","transferFrom(address,address,uint256)":"23b872dd","transferOwnership(address)":"f2fde38b","treasury()":"61d027b3","unpause()":"3f4ba83a","withdraw(uint256,address,address)":"b460af94","withdrawalFee()":"8bc7e8c4"},"id":184}