{"abi":[{"type":"constructor","inputs":[{"name":"_asset","type":"address","internalType":"address"},{"name":"_rewardToken","type":"address","internalType":"address"},{"name":"_router","type":"address","internalType":"address"},{"name":"_gauge","type":"address","internalType":"address"},{"name":"_treasury","type":"address","internalType":"address"},{"name":"_name","type":"string","internalType":"string"},{"name":"_symbol","type":"string","internalType":"string"}],"stateMutability":"nonpayable"},{"type":"function","name":"MAX_PERFORMANCE_FEE","inputs":[],"outputs":[{"name":"","type":"uint256","internalType":"uint256"}],"stateMutability":"view"},{"type":"function","name":"MAX_WITHDRAWAL_FEE","inputs":[],"outputs":[{"name":"","type":"uint256","internalType":"uint256"}],"stateMutability":"view"},{"type":"function","name":"PRECISION","inputs":[],"outputs":[{"name":"","type":"uint256","internalType":"uint256"}],"stateMutability":"view"},{"type":"function","name":"allowance","inputs":[{"name":"owner","type":"address","internalType":"address"},{"name":"spender","type":"address","internalType":"address"}],"outputs":[{"name":"","type":"uint256","internalType":"uint256"}],"stateMutability":"view"},{"type":"function","name":"approve","inputs":[{"name":"spender","type":"address","internalType":"address"},{"name":"value","type":"uint256","internalType":"uint256"}],"outputs":[{"name":"","type":"bool","internalType":"bool"}],"stateMutability":"nonpayable"},{"type":"function","name":"asset","inputs":[],"outputs":[{"name":"","type":"address","internalType":"address"}],"stateMutability":"view"},{"type":"function","name":"balanceOf","inputs":[{"name":"account","type":"address","internalType":"address"}],"outputs":[{"name":"","type":"uint256","internalType":"uint256"}],"stateMutability":"view"},{"type":"function","name":"convertToAssets","inputs":[{"name":"shares","type":"uint256","internalType":"uint256"}],"outputs":[{"name":"","type":"uint256","internalType":"uint256"}],"stateMutability":"view"},{"type":"function","name":"convertToShares","inputs":[{"name":"assets","type":"uint256","internalType":"uint256"}],"outputs":[{"name":"","type":"uint256","internalType":"uint256"}],"stateMutability":"view"},{"type":"function","name":"decimals","inputs":[],"outputs":[{"name":"","type":"uint8","internalType":"uint8"}],"stateMutability":"view"},{"type":"function","name":"deposit","inputs":[{"name":"assets","type":"uint256","internalType":"uint256"},{"name":"receiver","type":"address","internalType":"address"}],"outputs":[{"name":"shares","type":"uint256","internalType":"uint256"}],"stateMutability":"nonpayable"},{"type":"function","name":"gauge","inputs":[],"outputs":[{"name":"","type":"address","internalType":"address"}],"stateMutability":"view"},{"type":"function","name":"getAPY","inputs":[],"outputs":[{"name":"","type":"uint256","internalType":"uint256"}],"stateMutability":"view"},{"type":"function","name":"harvest","inputs":[],"outputs":[],"stateMutability":"nonpayable"},{"type":"function","name":"lastHarvest","inputs":[],"outputs":[{"name":"","type":"uint256","internalType":"uint256"}],"stateMutability":"view"},{"type":"function","name":"maxDeposit","inputs":[{"name":"","type":"address","internalType":"address"}],"outputs":[{"name":"","type":"uint256","internalType":"uint256"}],"stateMutability":"view"},{"type":"function","name":"maxMint","inputs":[{"name":"","type":"address","internalType":"address"}],"outputs":[{"name":"","type":"uint256","internalType":"uint256"}],"stateMutability":"view"},{"type":"function","name":"maxRedeem","inputs":[{"name":"owner","type":"address","internalType":"address"}],"outputs":[{"name":"","type":"uint256","internalType":"uint256"}],"stateMutability":"view"},{"type":"function","name":"maxWithdraw","inputs":[{"name":"owner","type":"address","internalType":"address"}],"outputs":[{"name":"","type":"uint256","internalType":"uint256"}],"stateMutability":"view"},{"type":"function","name":"mint","inputs":[{"name":"shares","type":"uint256","internalType":"uint256"},{"name":"receiver","type":"address","internalType":"address"}],"outputs":[{"name":"","type":"uint256","internalType":"uint256"}],"stateMutability":"nonpayable"},{"type":"function","name":"name","inputs":[],"outputs":[{"name":"","type":"string","internalType":"string"}],"stateMutability":"view"},{"type":"function","name":"owner","inputs":[],"outputs":[{"name":"","type":"address","internalType":"address"}],"stateMutability":"view"},{"type":"function","name":"pause","inputs":[],"outputs":[],"stateMutability":"nonpayable"},{"type":"function","name":"paused","inputs":[],"outputs":[{"name":"","type":"bool","internalType":"bool"}],"stateMutability":"view"},{"type":"function","name":"pendingRewards","inputs":[],"outputs":[{"name":"","type":"uint256","internalType":"uint256"}],"stateMutability":"view"},{"type":"function","name":"performanceFee","inputs":[],"outputs":[{"name":"","type":"uint256","internalType":"uint256"}],"stateMutability":"view"},{"type":"function","name":"previewDeposit","inputs":[{"name":"assets","type":"uint256","internalType":"uint256"}],"outputs":[{"name":"","type":"uint256","internalType":"uint256"}],"stateMutability":"view"},{"type":"function","name":"previewMint","inputs":[{"name":"shares","type":"uint256","internalType":"uint256"}],"outputs":[{"name":"","type":"uint256","internalType":"uint256"}],"stateMutability":"view"},{"type":"function","name":"previewRedeem","inputs":[{"name":"shares","type":"uint256","internalType":"uint256"}],"outputs":[{"name":"","type":"uint256","internalType":"uint256"}],"stateMutability":"view"},{"type":"function","name":"previewWithdraw","inputs":[{"name":"assets","type":"uint256","internalType":"uint256"}],"outputs":[{"name":"","type":"uint256","internalType":"uint256"}],"stateMutability":"view"},{"type":"function","name":"redeem","inputs":[{"name":"shares","type":"uint256","internalType":"uint256"},{"name":"receiver","type":"address","internalType":"address"},{"name":"owner","type":"address","internalType":"address"}],"outputs":[{"name":"","type":"uint256","internalType":"uint256"}],"stateMutability":"nonpayable"},{"type":"function","name":"renounceOwnership","inputs":[],"outputs":[],"stateMutability":"nonpayable"},{"type":"function","name":"rewardToken","inputs":[],"outputs":[{"name":"","type":"address","internalType":"address"}],"stateMutability":"view"},{"type":"function","name":"router","inputs":[],"outputs":[{"name":"","type":"address","internalType":"address"}],"stateMutability":"view"},{"type":"function","name":"setPerformanceFee","inputs":[{"name":"newFee","type":"uint256","internalType":"uint256"}],"outputs":[],"stateMutability":"nonpayable"},{"type":"function","name":"setTreasury","inputs":[{"name":"newTreasury","type":"address","internalType":"address"}],"outputs":[],"stateMutability":"nonpayable"},{"type":"function","name":"setWithdrawalFee","inputs":[{"name":"newFee","type":"uint256","internalType":"uint256"}],"outputs":[],"stateMutability":"nonpayable"},{"type":"function","name":"symbol","inputs":[],"outputs":[{"name":"","type":"string","internalType":"string"}],"stateMutability":"view"},{"type":"function","name":"totalAssets","inputs":[],"outputs":[{"name":"","type":"uint256","internalType":"uint256"}],"stateMutability":"view"},{"type":"function","name":"totalHarvested","inputs":[],"outputs":[{"name":"","type":"uint256","internalType":"uint256"}],"stateMutability":"view"},{"type":"function","name":"totalSupply","inputs":[],"outputs":[{"name":"","type":"uint256","internalType":"uint256"}],"stateMutability":"view"},{"type":"function","name":"transfer","inputs":[{"name":"to","type":"address","internalType":"address"},{"name":"value","type":"uint256","internalType":"uint256"}],"outputs":[{"name":"","type":"bool","internalType":"bool"}],"stateMutability":"nonpayable"},{"type":"function","name":"transferFrom","inputs":[{"name":"from","type":"address","internalType":"address"},{"name":"to","type":"address","internalType":"address"},{"name":"value","type":"uint256","internalType":"uint256"}],"outputs":[{"name":"","type":"bool","internalType":"bool"}],"stateMutability":"nonpayable"},{"type":"function","name":"transferOwnership","inputs":[{"name":"newOwner","type":"address","internalType":"address"}],"outputs":[],"stateMutability":"nonpayable"},{"type":"function","name":"treasury","inputs":[],"outputs":[{"name":"","type":"address","internalType":"address"}],"stateMutability":"view"},{"type":"function","name":"unpause","inputs":[],"outputs":[],"stateMutability":"nonpayable"},{"type":"function","name":"withdraw","inputs":[{"name":"assets","type":"uint256","internalType":"uint256"},{"name":"receiver","type":"address","internalType":"address"},{"name":"owner","type":"address","internalType":"address"}],"outputs":[{"name":"shares","type":"uint256","internalType":"uint256"}],"stateMutability":"nonpayable"},{"type":"function","name":"withdrawalFee","inputs":[],"outputs":[{"name":"","type":"uint256","internalType":"uint256"}],"stateMutability":"view"},{"type":"event","name":"Approval","inputs":[{"name":"owner","type":"address","indexed":true,"internalType":"address"},{"name":"spender","type":"address","indexed":true,"internalType":"address"},{"name":"value","type":"uint256","indexed":false,"internalType":"uint256"}],"anonymous":false},{"type":"event","name":"Deposit","inputs":[{"name":"sender","type":"address","indexed":true,"internalType":"address"},{"name":"owner","type":"address","indexed":true,"internalType":"address"},{"name":"assets","type":"uint256","indexed":false,"internalType":"uint256"},{"name":"shares","type":"uint256","indexed":false,"internalType":"uint256"}],"anonymous":false},{"type":"event","name":"Harvest","inputs":[{"name":"rewards","type":"uint256","indexed":false,"internalType":"uint256"},{"name":"compounded","type":"uint256","indexed":false,"internalType":"uint256"},{"name":"fee","type":"uint256","indexed":false,"internalType":"uint256"}],"anonymous":false},{"type":"event","name":"OwnershipTransferred","inputs":[{"name":"previousOwner","type":"address","indexed":true,"internalType":"address"},{"name":"newOwner","type":"address","indexed":true,"internalType":"address"}],"anonymous":false},{"type":"event","name":"Paused","inputs":[],"anonymous":false},{"type":"event","name":"PerformanceFeeUpdated","inputs":[{"name":"newFee","type":"uint256","indexed":false,"internalType":"uint256"}],"anonymous":false},{"type":"event","name":"Transfer","inputs":[{"name":"from","type":"address","indexed":true,"internalType":"address"},{"name":"to","type":"address","indexed":true,"internalType":"address"},{"name":"value","type":"uint256","indexed":false,"internalType":"uint256"}],"anonymous":false},{"type":"event","name":"TreasuryUpdated","inputs":[{"name":"newTreasury","type":"address","indexed":false,"internalType":"address"}],"anonymous":false},{"type":"event","name":"Unpaused","inputs":[],"anonymous":false},{"type":"event","name":"Withdraw","inputs":[{"name":"sender","type":"address","indexed":true,"internalType":"address"},{"name":"receiver","type":"address","indexed":true,"internalType":"address"},{"name":"owner","type":"address","indexed":true,"internalType":"address"},{"name":"assets","type":"uint256","indexed":false,"internalType":"uint256"},{"name":"shares","type":"uint256","indexed":false,"internalType":"uint256"}],"anonymous":false},{"type":"event","name":"WithdrawalFeeUpdated","inputs":[{"name":"newFee","type":"uint256","indexed":false,"internalType":"uint256"}],"anonymous":false},{"type":"error","name":"AddressEmptyCode","inputs":[{"name":"target","type":"address","internalType":"address"}]},{"type":"error","name":"AddressInsufficientBalance","inputs":[{"name":"account","type":"address","internalType":"address"}]},{"type":"error","name":"ERC20InsufficientAllowance","inputs":[{"name":"spender","type":"address","internalType":"address"},{"name":"allowance","type":"uint256","internalType":"uint256"},{"name":"needed","type":"uint256","internalType":"uint256"}]},{"type":"error","name":"ERC20InsufficientBalance","inputs":[{"name":"sender","type":"address","internalType":"address"},{"name":"balance","type":"uint256","internalType":"uint256"},{"name":"needed","type":"uint256","internalType":"uint256"}]},{"type":"error","name":"ERC20InvalidApprover","inputs":[{"name":"approver","type":"address","internalType":"address"}]},{"type":"error","name":"ERC20InvalidReceiver","inputs":[{"name":"receiver","type":"address","internalType":"address"}]},{"type":"error","name":"ERC20InvalidSender","inputs":[{"name":"sender","type":"address","internalType":"address"}]},{"type":"error","name":"ERC20InvalidSpender","inputs":[{"name":"spender","type":"address","internalType":"address"}]},{"type":"error","name":"ERC4626ExceededMaxDeposit","inputs":[{"name":"receiver","type":"address","internalType":"address"},{"name":"assets","type":"uint256","internalType":"uint256"},{"name":"max","type":"uint256","internalType":"uint256"}]},{"type":"error","name":"ERC4626ExceededMaxMint","inputs":[{"name":"receiver","type":"address","internalType":"address"},{"name":"shares","type":"uint256","internalType":"uint256"},{"name":"max","type":"uint256","internalType":"uint256"}]},{"type":"error","name":"ERC4626ExceededMaxRedeem","inputs":[{"name":"owner","type":"address","internalType":"address"},{"name":"shares","type":"uint256","internalType":"uint256"},{"name":"max","type":"uint256","internalType":"uint256"}]},{"type":"error","name":"ERC4626ExceededMaxWithdraw","inputs":[{"name":"owner","type":"address","internalType":"address"},{"name":"assets","type":"uint256","internalType":"uint256"},{"name":"max","type":"uint256","internalType":"uint256"}]},{"type":"error","name":"FailedInnerCall","inputs":[]},{"type":"error","name":"InvalidAddress","inputs":[]},{"type":"error","name":"InvalidFee","inputs":[]},{"type":"error","name":"MathOverflowedMulDiv","inputs":[]},{"type":"error","name":"OwnableInvalidOwner","inputs":[{"name":"owner","type":"address","internalType":"address"}]},{"type":"error","name":"OwnableUnauthorizedAccount","inputs":[{"name":"account","type":"address","internalType":"address"}]},{"type":"error","name":"ReentrancyGuardReentrantCall","inputs":[]},{"type":"error","name":"SafeERC20FailedOperation","inputs":[{"name":"token","type":"address","internalType":"address"}]},{"type":"error","name":"VaultPaused","inputs":[]},{"type":"error","name":"ZeroAmount","inputs":[]}],"bytecode":{"object":"0x61010080604052346104aa57612065803803809161001d82856104ae565b833981019060e0818303126104aa57610035816104d1565b90610042602082016104d1565b9161004f604083016104d1565b9361005c606084016104d1565b91610069608085016104d1565b60a08501519094906001600160401b0381116104aa578361008b918301610500565b60c08201519093906001600160401b0381116104aa576100ab9201610500565b825190926001600160401b0382116103775760035490600182811c921680156104a0575b602083101461048c5781601f84931161041e575b50602090601f8311600114610396575f9261038b575b50508160011b915f199060031b1c1916176003555b81516001600160401b038111610377576004928354600181811c9116801561036d575b602082101461035a579081601f84931161030a575b50602090601f83116001146102a6575f9261029b575b50508160011b915f199060031b1c19161782555b6101826001600160a01b038216610546565b9015610293575b60a0526001600160a01b0316608052331561027c575060058054336001600160a01b03198083168217909355604051969295916001600160a01b03167f8be0079c531659141344cd1fd0a4f28419497f9722a3daafe3b4186f6b6457e05f80a360016006556103e8600955600a805560c05260e0526007805484166001600160a01b0392831617905560088054909316911617905542600b55611a6990816105fc823960805181818161062901528181610a9501528181610bf70152818161103d0152818161168901526117ef015260a05181610c3b015260c051818181610287015261113a015260e051816102400152f35b6024905f60405191631e4fbdf760e01b8352820152fd5b506012610189565b015190505f8061015c565b5f868152602081209350601f198516905b8181106102f257509084600195949392106102da575b505050811b018255610170565b01515f1960f88460031b161c191690555f80806102cd565b929360206001819287860151815501950193016102b7565b909150845f5260205f20601f840160051c81019160208510610350575b90601f859493920160051c01905b8181106103425750610146565b5f8155849350600101610335565b9091508190610327565b602285634e487b7160e01b5f525260245ffd5b90607f1690610131565b634e487b7160e01b5f52604160045260245ffd5b015190505f806100f9565b60035f90815293507fc2575a0e9e593c00f959f8c92f12db2869c3395a3b0502d05e2516446f71f85b91905b601f1984168510610403576001945083601f198116106103eb575b505050811b0160035561010e565b01515f1960f88460031b161c191690555f80806103dd565b818101518355602094850194600190930192909101906103c2565b60035f529091507fc2575a0e9e593c00f959f8c92f12db2869c3395a3b0502d05e2516446f71f85b601f840160051c81019160208510610482575b90601f859493920160051c01905b81811061047457506100e3565b5f8155849350600101610467565b9091508190610459565b634e487b7160e01b5f52602260045260245ffd5b91607f16916100cf565b5f80fd5b601f909101601f19168101906001600160401b0382119082101761037757604052565b51906001600160a01b03821682036104aa57565b6001600160401b03811161037757601f01601f191660200190565b81601f820112156104aa57805190610517826104e5565b9261052560405194856104ae565b828452602083830101116104aa57815f9260208093018386015e8301015290565b6040805163313ce56760e01b6020820190815260048252909291830191906001600160401b03831184841017610377575f938493604052519160018060a01b03165afa3d156105f3573d9061059a826104e5565b916105a860405193846104ae565b82523d5f602084013e5b806105e7575b6105c4575b505f905f90565b6020818051810103126104aa576020015160ff81116105bd579060ff6001921690565b506020815110156105b8565b6060906105b256fe604060808152600480361015610013575f80fd5b5f3560e01c90816301e1d11414610eb357816306fdde0314610dbf57816307a2d13a14610b6f578163095ea7b314610d175781630a28a47714610cf957816318160ddd14610cdb57816323b872dd14610c9f57816323dc114214610c81578163313ce56714610c2657816338d52e0f14610be35781633f4ba83a14610b9b578163402d267d146105015781634641257d14610b745781634cdad50614610b6f5781635c975abb14610b4c57816361d027b314610b245781636e553f65146109ec57816370897b231461099657816370a0823114610474578163715018a61461093b5781638456cb59146108f057816387788782146108d25781638bc7e8c4146108b45781638da5cb5b1461088c57816394bf804d1461085957816395d89b4114610757578163a6f19c841461072f578163a9059cbb146106ff578163aaf5eb68146106e3578163ac1e502514610680578163b3d7f6b914610662578163b460af94146105ab578163ba08765214610522578163bdca916514610506578163c63d75b614610501578163c6e6f592146103e8578163ce96cb77146104ca578163d2cbf7ad146104ae578163d905777e14610474578163dd62ed3e1461042b578163eb6ed33014610410578163eded3fda146103ed578163ef8b30f7146103e8578163f0f4426014610363578163f1a392da14610345578163f2fde38b146102b657508063f7c618c1146102735763f887ea401461022d575f80fd5b3461026f575f36600319011261026f57517f00000000000000000000000000000000000000000000000000000000000000006001600160a01b03168152602090f35b5f80fd5b503461026f575f36600319011261026f57517f00000000000000000000000000000000000000000000000000000000000000006001600160a01b03168152602090f35b90503461026f57602036600319011261026f576102d1610f1f565b906102da61159d565b6001600160a01b0391821692831561032f575050600554826bffffffffffffffffffffffff60a01b821617600555167f8be0079c531659141344cd1fd0a4f28419497f9722a3daafe3b4186f6b6457e05f80a3005b905f6024925191631e4fbdf760e01b8352820152fd5b823461026f575f36600319011261026f57602090600b549051908152f35b823461026f57602036600319011261026f5761037d610f1f565b61038561159d565b6001600160a01b03169182156103da577f7dae230f18360d76a040c81f050aa14eb9d6dc7901b20fc5d855e2a20fe814d160208484816bffffffffffffffffffffffff60a01b600854161760085551908152a1005b905163e6c4247b60e01b8152fd5b610fa5565b823461026f575f36600319011261026f57602090610409611335565b9051908152f35b823461026f575f36600319011261026f576020905160648152f35b823461026f578060031936011261026f57602090610447610f1f565b61044f610f35565b9060018060a01b038091165f5260018452825f2091165f528252805f20549051908152f35b823461026f57602036600319011261026f57602090610409610494610f1f565b6001600160a01b03165f9081526020819052604090205490565b823461026f575f36600319011261026f576020906104096112ae565b823461026f57602036600319011261026f576020906001600160a01b036104ef610f1f565b165f525f8252610409815f2054611375565b610f4b565b823461026f575f36600319011261026f57602090516107d08152f35b823461026f5761053136610f70565b92919361054e8460018060a01b03165f525f60205260405f205490565b8086116105765750508361057091610567602096611375565b94859133611747565b51908152f35b9251632e52afbb60e21b81526001600160a01b0390941690840190815260208101949094525060408301529081906060010390fd5b823461026f576105ba36610f70565b929190936105c66115c9565b81156106545750602093816105dd610608936113a0565b9485926105fa6127106105f2600a54866110db565b0480946110ce565b9280610613575b5033611747565b600160065551908152f35b60085461064e91906001600160a01b03908116907f0000000000000000000000000000000000000000000000000000000000000000166115ec565b88610601565b8251631f2a200560e01b8152fd5b823461026f57602036600319011261026f576104096020923561134a565b823461026f57602036600319011261026f5781359161069d61159d565b606483116106d5577fe94edcc114da5287ecb30ee8aacf12e6c16b11b8583d7f9e477ab1616e33d53d6020848481600a5551908152a1005b90516358d620b360e01b8152fd5b823461026f575f36600319011261026f57602090516127108152f35b823461026f578060031936011261026f5760209061072861071e610f1f565b60243590336114c3565b5160018152f35b823461026f575f36600319011261026f5760075490516001600160a01b039091168152602090f35b823461026f575f36600319011261026f578051905f9280549060018260011c916001841693841561084f575b602094858510811461083c5784885290811561081a57506001146107c1575b6107bd86866107b3828b0383610fc3565b5191829182610ecf565b0390f35b5f9081529295507f8a35acfbc15ff81a39ae7d344fd709f28e8600b4aa8c65c6b64bfe7fe36bd19b5b82841061080757505050826107bd946107b39282010194866107a2565b80548685018801529286019281016107ea565b60ff191687860152505050151560051b83010192506107b3826107bd866107a2565b602283634e487b7160e01b5f525260245ffd5b92607f1692610783565b823461026f578060031936011261026f57602091359061057061087a610f35565b926108848161134a565b80943361162f565b823461026f575f36600319011261026f5760055490516001600160a01b039091168152602090f35b823461026f575f36600319011261026f57602090600a549051908152f35b823461026f575f36600319011261026f576020906009549051908152f35b3461026f575f36600319011261026f5761090861159d565b600160ff19600d541617600d557f9e87fac88ff661f02d44f95383c817fece4bce600a3dab7a54406878b965e7525f80a1005b3461026f575f36600319011261026f5761095361159d565b600580546001600160a01b031981169091555f906001600160a01b03167f8be0079c531659141344cd1fd0a4f28419497f9722a3daafe3b4186f6b6457e08280a3005b823461026f57602036600319011261026f578135916109b361159d565b6107d083116106d5577f9b49d0cd76012d9c67241c2f68f836efbaf50ea29901a250040671402d5263f5602084848160095551908152a1005b823461026f578060031936011261026f57813590610a08610f35565b60ff600d5416610b1457610a1a6115c9565b8215610b045792610a388394610a2f856113cb565b9485913361162f565b6007546001600160a01b03919082169081610a5d575b60208585600160065551908152f35b835163095ea7b360e01b81526001600160a01b03909216908201908152602081810196909652909491859182905f90829060400103927f0000000000000000000000000000000000000000000000000000000000000000165af1928315610afa57602093610acd575b8080610a4e565b610aec90843d8611610af3575b610ae48183610fc3565b81019061110c565b5083610ac6565b503d610ada565b50513d5f823e3d90fd5b8151631f2a200560e01b81528490fd5b81516336a7e2cd60e21b81528490fd5b823461026f575f36600319011261026f5760085490516001600160a01b039091168152602090f35b823461026f575f36600319011261026f5760209060ff600d541690519015158152f35b610ef9565b3461026f575f36600319011261026f57610b8c6115c9565b610b94611124565b6001600655005b3461026f575f36600319011261026f57610bb361159d565b60ff19600d5416600d557fa45f47fdea8a1efdd9029a5691c7f759c32b7c698632b563573e155625d169335f80a1005b823461026f575f36600319011261026f57517f00000000000000000000000000000000000000000000000000000000000000006001600160a01b03168152602090f35b823461026f575f36600319011261026f5760ff7f0000000000000000000000000000000000000000000000000000000000000000169060ff8211610c6e576020925051908152f35b601183634e487b7160e01b5f525260245ffd5b823461026f575f36600319011261026f57602090600c549051908152f35b823461026f57606036600319011261026f57602090610728610cbf610f1f565b610cc7610f35565b60443591610cd68333836113f6565b6114c3565b823461026f575f36600319011261026f576020906002549051908152f35b823461026f57602036600319011261026f57610409602092356113a0565b823461026f578060031936011261026f57610d30610f1f565b602435903315610da9576001600160a01b0316908115610d935760209350335f5260018452825f20825f52845280835f205582519081527f8c5be1e5ebec7d5bd14f71427d1e84f3dd0314c0f7b2291e5b200ac8c7c3b925843392a35160018152f35b8251634a1406b160e11b81525f81860152602490fd5b825163e602df0560e01b81525f81860152602490fd5b823461026f575f36600319011261026f578051905f9260035460018160011c91600181168015610ea9575b6020948585108214610e965750838752908115610e765750600114610e1c575b5050506107b3826107bd940383610fc3565b60035f9081529295507fc2575a0e9e593c00f959f8c92f12db2869c3395a3b0502d05e2516446f71f85b5b828410610e6357505050826107bd946107b39282010194610e0a565b8054868501880152928601928101610e47565b60ff1916868501525050151560051b83010192506107b3826107bd610e0a565b602290634e487b7160e01b5f525260245ffd5b92607f1692610dea565b823461026f575f36600319011261026f5760209061040961101a565b602060409281835280519182918282860152018484015e5f828201840152601f01601f1916010190565b3461026f57602036600319011261026f576020610f17600435611375565b604051908152f35b600435906001600160a01b038216820361026f57565b602435906001600160a01b038216820361026f57565b3461026f57602036600319011261026f57610f64610f1f565b5060206040515f198152f35b606090600319011261026f57600435906001600160a01b0390602435828116810361026f5791604435908116810361026f5790565b3461026f57602036600319011261026f576020610f176004356113cb565b90601f8019910116810190811067ffffffffffffffff821117610fe557604052565b634e487b7160e01b5f52604160045260245ffd5b9190820180921161100657565b634e487b7160e01b5f52601160045260245ffd5b6040516370a0823160e01b81523060048201526001600160a01b036020826024817f000000000000000000000000000000000000000000000000000000000000000085165afa9081156110c3575f9161108d575b60075461108393501615611086575f90610ff9565b90565b5f90610ff9565b90506020823d6020116110bb575b816110a860209383610fc3565b8101031261026f5761108391519061106e565b3d915061109b565b6040513d5f823e3d90fd5b9190820391821161100657565b8181029291811591840414171561100657565b81156110f8570490565b634e487b7160e01b5f52601260045260245ffd5b9081602091031261026f5751801515810361026f5790565b6007546001600160a01b03908116156112ab57807f00000000000000000000000000000000000000000000000000000000000000001660408051916370a0823160e01b8084523060048501526020938481602481865afa908115611274575f9161127e575b5083519182523060048301528482602481865afa8015611274575f90611245575b6111b492506110ce565b91821561123e575f6060947f4ec2d4038813a7f233af1d6d09519189db3ed5bc5b823bf72f6d3144574721de966127106111f0600954886110db565b0480956111fd82896110ce565b5081611228575b50505061121385600c54610ff9565b600c5542600b558251948552840152820152a1565b6112369260085416906115ec565b5f8481611204565b5050505050565b508482813d831161126d575b61125b8183610fc3565b8101031261026f576111b491516111aa565b503d611251565b84513d5f823e3d90fd5b90508481813d83116112a4575b6112958183610fc3565b8101031261026f57515f611189565b503d61128b565b50565b6112b661101a565b15801561132b575b611327576112ce600b54426110ce565b8015611322576112dc611335565b906301e1338091828102928184041490151715611006576112fc916110ee565b61271090818102918183041490151715611006576110839061131c61101a565b906110ee565b505f90565b5f90565b50600b54156112be565b6007546001600160a01b031615611327575f90565b61135261101a565b600181018091116110065760025490600182018092116110065761108392611864565b61137d61101a565b60018101809111611006576002549060018201809211611006576110839261193e565b60025460018101809111611006576113b661101a565b90600182018092116110065761108392611864565b60025460018101809111611006576113e161101a565b9060018201809211611006576110839261193e565b919060018060a01b0380931692835f526001602052604093845f2091831691825f52602052845f2054925f198403611431575b505050505050565b8484106114935750801561147c578115611465575f526001602052835f20905f5260205203905f20555f8080808080611429565b8451634a1406b160e11b81525f6004820152602490fd5b845163e602df0560e01b81525f6004820152602490fd5b8551637dc7a0d960e11b81526001600160a01b039190911660048201526024810184905260448101859052606490fd5b916001600160a01b03808416928315611585571692831561156d57825f525f60205260405f20549082821061153b5750817fddf252ad1be2c89b69c2b068fc378daa952ba7f163c4a11628f55a4df523b3ef92602092855f525f84520360405f2055845f5260405f20818154019055604051908152a3565b60405163391434e360e21b81526001600160a01b03919091166004820152602481019190915260448101829052606490fd5b60405163ec442f0560e01b81525f6004820152602490fd5b604051634b637e8f60e11b81525f6004820152602490fd5b6005546001600160a01b031633036115b157565b60405163118cdaa760e01b8152336004820152602490fd5b6002600654146115da576002600655565b604051633ee5aeb560e01b8152600490fd5b60405163a9059cbb60e01b60208201526001600160a01b0392909216602483015260448083019390935291815261162d91611628606483610fc3565b61188e565b565b604080516323b872dd60e01b60208201526001600160a01b0392831660248201819052306044830152606480830187905282529491939192919060a081019067ffffffffffffffff821181831017610fe5576116ad9186527f000000000000000000000000000000000000000000000000000000000000000061188e565b169384156117305790816116e57fdcbc1c05240f31ff3ad067ef1ee35ce4997762752e3a095284754544f4c709d79493600254610ff9565b600255855f525f602052825f20818154019055855f7fddf252ad1be2c89b69c2b068fc378daa952ba7f163c4a11628f55a4df523b3ef60208651858152a382519182526020820152a3565b825163ec442f0560e01b81525f6004820152602490fd5b6001600160a01b03808416958183169493919281888703611853575b5050861561158557865f525f602052604093845f205490828210611822575090807ffbde797d201c681b91056529119e0b02407c7bb96a4a2c75c01fc9667232c8db95949392895f525f60205203845f205580600254036002555f887fddf252ad1be2c89b69c2b068fc378daa952ba7f163c4a11628f55a4df523b3ef60208751858152a361181387837f00000000000000000000000000000000000000000000000000000000000000006115ec565b835196875260208701521693a4565b855163391434e360e21b81526001600160a01b03919091166004820152602481019190915260448101829052606490fd5b61185d91866113f6565b5f81611763565b919061187182828561193e565b9282156110f857096118805790565b600181018091116110065790565b81516001600160a01b03909116915f91829160200182855af13d15611932573d67ffffffffffffffff8111610fe5576118e991604051916118d96020601f19601f8401160184610fc3565b82523d5f602084013e5b836119d0565b8051908115159182611917575b50506118ff5750565b60249060405190635274afe760e01b82526004820152fd5b61192a925060208091830101910161110c565b155f806118f6565b6118e9906060906118e3565b9091828202915f19848209938380861095039480860395146119c357848311156119b157829109815f038216809204600280826003021880830282030280830282030280830282030280830282030280830282030280920290030293600183805f03040190848311900302920304170290565b60405163227bc15360e01b8152600490fd5b50509061108392506110ee565b906119f757508051156119e557805190602001fd5b604051630a12f52160e11b8152600490fd5b81511580611a2a575b611a08575090565b604051639996b31560e01b81526001600160a01b039091166004820152602490fd5b50803b15611a0056fea26469706673582212203438244525e6486534c9448c85ba5285c4c1794cc75ae44473968bc51278188f64736f6c63430008190033","linkReferences":{}},"methodIdentifiers":{"MAX_PERFORMANCE_FEE()":"bdca9165","MAX_WITHDRAWAL_FEE()":"eb6ed330","PRECISION()":"aaf5eb68","allowance(address,address)":"dd62ed3e","approve(address,uint256)":"095ea7b3","asset()":"38d52e0f","balanceOf(address)":"70a08231","convertToAssets(uint256)":"07a2d13a","convertToShares(uint256)":"c6e6f592","decimals()":"313ce567","deposit(uint256,address)":"6e553f65","gauge()":"a6f19c84","getAPY()":"d2cbf7ad","harvest()":"4641257d","lastHarvest()":"f1a392da","maxDeposit(address)":"402d267d","maxMint(address)":"c63d75b6","maxRedeem(address)":"d905777e","maxWithdraw(address)":"ce96cb77","mint(uint256,address)":"94bf804d","name()":"06fdde03","owner()":"8da5cb5b","pause()":"8456cb59","paused()":"5c975abb","pendingRewards()":"eded3fda","performanceFee()":"87788782","previewDeposit(uint256)":"ef8b30f7","previewMint(uint256)":"b3d7f6b9","previewRedeem(uint256)":"4cdad506","previewWithdraw(uint256)":"0a28a477","redeem(uint256,address,address)":"ba087652","renounceOwnership()":"715018a6","rewardToken()":"f7c618c1","router()":"f887ea40","setPerformanceFee(uint256)":"70897b23","setTreasury(address)":"f0f44260","setWithdrawalFee(uint256)":"ac1e5025","symbol()":"95d89b41","totalAssets()":"01e1d114","totalHarvested()":"23dc1142","totalSupply()":"18160ddd","transfer(address,uint256)":"a9059cbb","transferFrom(address,address,uint256)":"23b872dd","transferOwnership(address)":"f2fde38b","treasury()":"61d027b3","unpause()":"3f4ba83a","withdraw(uint256,address,address)":"b460af94","withdrawalFee()":"8bc7e8c4"},"id":184}