{"abi":[{"type":"constructor","inputs":[],"stateMutability":"nonpayable"},{"type":"function","name":"BASIS_POINTS","inputs":[],"outputs":[{"name":"","type":"uint256","internalType":"uint256"}],"stateMutability":"view"},{"type":"function","name":"BFT_THRESHOLD_DENOMINATOR","inputs":[],"outputs":[{"name":"","type":"uint256","internalType":"uint256"}],"stateMutability":"view"},{"type":"function","name":"BFT_THRESHOLD_NUMERATOR","inputs":[],"outputs":[{"name":"","type":"uint256","internalType":"uint256"}],"stateMutability":"view"},{"type":"function","name":"DEFAULT_ADMIN_ROLE","inputs":[],"outputs":[{"name":"","type":"bytes32","internalType":"bytes32"}],"stateMutability":"view"},{"type":"function","name":"DOUBLE_SIGN_SLASH_BPS","inputs":[],"outputs":[{"name":"","type":"uint256","internalType":"uint256"}],"stateMutability":"view"},{"type":"function","name":"DOWNTIME_JAIL_BLOCKS","inputs":[],"outputs":[{"name":"","type":"uint256","internalType":"uint256"}],"stateMutability":"view"},{"type":"function","name":"DOWNTIME_SLASH_BPS","inputs":[],"outputs":[{"name":"","type":"uint256","internalType":"uint256"}],"stateMutability":"view"},{"type":"function","name":"EPOCH_DURATION_BLOCKS","inputs":[],"outputs":[{"name":"","type":"uint256","internalType":"uint256"}],"stateMutability":"view"},{"type":"function","name":"MAX_TOTAL_VOTING_POWER","inputs":[],"outputs":[{"name":"","type":"int256","internalType":"int256"}],"stateMutability":"view"},{"type":"function","name":"MIN_UPTIME_BPS","inputs":[],"outputs":[{"name":"","type":"uint256","internalType":"uint256"}],"stateMutability":"view"},{"type":"function","name":"PAUSER_ROLE","inputs":[],"outputs":[{"name":"","type":"bytes32","internalType":"bytes32"}],"stateMutability":"view"},{"type":"function","name":"SLASHER_ROLE","inputs":[],"outputs":[{"name":"","type":"bytes32","internalType":"bytes32"}],"stateMutability":"view"},{"type":"function","name":"UPGRADE_INTERFACE_VERSION","inputs":[],"outputs":[{"name":"","type":"string","internalType":"string"}],"stateMutability":"view"},{"type":"function","name":"VALIDATOR_MANAGER_ROLE","inputs":[],"outputs":[{"name":"","type":"bytes32","internalType":"bytes32"}],"stateMutability":"view"},{"type":"function","name":"activeValidators","inputs":[{"name":"","type":"uint256","internalType":"uint256"}],"outputs":[{"name":"","type":"address","internalType":"address"}],"stateMutability":"view"},{"type":"function","name":"advanceEpoch","inputs":[],"outputs":[],"stateMutability":"nonpayable"},{"type":"function","name":"attestBlock","inputs":[{"name":"blockNumber","type":"uint256","internalType":"uint256"},{"name":"blockHash","type":"bytes32","internalType":"bytes32"},{"name":"signature","type":"bytes","internalType":"bytes"}],"outputs":[],"stateMutability":"nonpayable"},{"type":"function","name":"attestationPower","inputs":[{"name":"","type":"bytes32","internalType":"bytes32"}],"outputs":[{"name":"","type":"uint256","internalType":"uint256"}],"stateMutability":"view"},{"type":"function","name":"attestations","inputs":[{"name":"","type":"bytes32","internalType":"bytes32"},{"name":"","type":"uint256","internalType":"uint256"}],"outputs":[{"name":"validator","type":"address","internalType":"address"},{"name":"blockHash","type":"bytes32","internalType":"bytes32"},{"name":"signature","type":"bytes","internalType":"bytes"},{"name":"timestamp","type":"uint256","internalType":"uint256"}],"stateMutability":"view"},{"type":"function","name":"blockProposals","inputs":[{"name":"","type":"uint256","internalType":"uint256"}],"outputs":[{"name":"blockNumber","type":"uint256","internalType":"uint256"},{"name":"blockHash","type":"bytes32","internalType":"bytes32"},{"name":"producer","type":"address","internalType":"address"},{"name":"signature","type":"bytes","internalType":"bytes"},{"name":"timestamp","type":"uint256","internalType":"uint256"},{"name":"verified","type":"bool","internalType":"bool"}],"stateMutability":"view"},{"type":"function","name":"currentBlockNumber","inputs":[],"outputs":[{"name":"","type":"uint256","internalType":"uint256"}],"stateMutability":"view"},{"type":"function","name":"currentEpoch","inputs":[],"outputs":[{"name":"","type":"uint256","internalType":"uint256"}],"stateMutability":"view"},{"type":"function","name":"currentProposer","inputs":[],"outputs":[{"name":"","type":"address","internalType":"address"}],"stateMutability":"view"},{"type":"function","name":"deactivateValidator","inputs":[{"name":"validator","type":"address","internalType":"address"}],"outputs":[],"stateMutability":"nonpayable"},{"type":"function","name":"epochs","inputs":[{"name":"","type":"uint256","internalType":"uint256"}],"outputs":[{"name":"epochNumber","type":"uint256","internalType":"uint256"},{"name":"startBlock","type":"uint256","internalType":"uint256"},{"name":"endBlock","type":"uint256","internalType":"uint256"},{"name":"startTime","type":"uint256","internalType":"uint256"},{"name":"endTime","type":"uint256","internalType":"uint256"},{"name":"totalVotingPower","type":"uint256","internalType":"uint256"}],"stateMutability":"view"},{"type":"function","name":"getActiveValidators","inputs":[],"outputs":[{"name":"","type":"address[]","internalType":"address[]"}],"stateMutability":"view"},{"type":"function","name":"getActiveValidatorsCount","inputs":[],"outputs":[{"name":"","type":"uint256","internalType":"uint256"}],"stateMutability":"view"},{"type":"function","name":"getAttestationPower","inputs":[{"name":"blockHash","type":"bytes32","internalType":"bytes32"}],"outputs":[{"name":"","type":"uint256","internalType":"uint256"}],"stateMutability":"view"},{"type":"function","name":"getAttestations","inputs":[{"name":"blockHash","type":"bytes32","internalType":"bytes32"}],"outputs":[{"name":"","type":"tuple[]","internalType":"struct AndeConsensus.Attestation[]","components":[{"name":"validator","type":"address","internalType":"address"},{"name":"blockHash","type":"bytes32","internalType":"bytes32"},{"name":"signature","type":"bytes","internalType":"bytes"},{"name":"timestamp","type":"uint256","internalType":"uint256"}]}],"stateMutability":"view"},{"type":"function","name":"getBlockProducer","inputs":[{"name":"blockNumber","type":"uint256","internalType":"uint256"}],"outputs":[{"name":"","type":"address","internalType":"address"}],"stateMutability":"view"},{"type":"function","name":"getBlockProposal","inputs":[{"name":"blockNumber","type":"uint256","internalType":"uint256"}],"outputs":[{"name":"","type":"tuple","internalType":"struct AndeConsensus.BlockProposal","components":[{"name":"blockNumber","type":"uint256","internalType":"uint256"},{"name":"blockHash","type":"bytes32","internalType":"bytes32"},{"name":"producer","type":"address","internalType":"address"},{"name":"signature","type":"bytes","internalType":"bytes"},{"name":"timestamp","type":"uint256","internalType":"uint256"},{"name":"verified","type":"bool","internalType":"bool"}]}],"stateMutability":"view"},{"type":"function","name":"getCurrentProposer","inputs":[],"outputs":[{"name":"","type":"address","internalType":"address"}],"stateMutability":"view"},{"type":"function","name":"getEpochInfo","inputs":[{"name":"epoch","type":"uint256","internalType":"uint256"}],"outputs":[{"name":"","type":"tuple","internalType":"struct AndeConsensus.EpochInfo","components":[{"name":"epochNumber","type":"uint256","internalType":"uint256"},{"name":"startBlock","type":"uint256","internalType":"uint256"},{"name":"endBlock","type":"uint256","internalType":"uint256"},{"name":"startTime","type":"uint256","internalType":"uint256"},{"name":"endTime","type":"uint256","internalType":"uint256"},{"name":"validators","type":"address[]","internalType":"address[]"},{"name":"totalVotingPower","type":"uint256","internalType":"uint256"}]}],"stateMutability":"view"},{"type":"function","name":"getRoleAdmin","inputs":[{"name":"role","type":"bytes32","internalType":"bytes32"}],"outputs":[{"name":"","type":"bytes32","internalType":"bytes32"}],"stateMutability":"view"},{"type":"function","name":"getValidatorInfo","inputs":[{"name":"validator","type":"address","internalType":"address"}],"outputs":[{"name":"","type":"tuple","internalType":"struct AndeConsensus.ValidatorInfo","components":[{"name":"validator","type":"address","internalType":"address"},{"name":"p2pPeerId","type":"bytes32","internalType":"bytes32"},{"name":"rpcEndpoint","type":"string","internalType":"string"},{"name":"stake","type":"uint256","internalType":"uint256"},{"name":"power","type":"uint256","internalType":"uint256"},{"name":"accumulatedPriority","type":"int256","internalType":"int256"},{"name":"totalBlocksProduced","type":"uint256","internalType":"uint256"},{"name":"totalBlocksMissed","type":"uint256","internalType":"uint256"},{"name":"uptime","type":"uint256","internalType":"uint256"},{"name":"lastBlockProduced","type":"uint256","internalType":"uint256"},{"name":"registeredAt","type":"uint256","internalType":"uint256"},{"name":"jailed","type":"bool","internalType":"bool"},{"name":"active","type":"bool","internalType":"bool"},{"name":"isPermanent","type":"bool","internalType":"bool"}]}],"stateMutability":"view"},{"type":"function","name":"grantRole","inputs":[{"name":"role","type":"bytes32","internalType":"bytes32"},{"name":"account","type":"address","internalType":"address"}],"outputs":[],"stateMutability":"nonpayable"},{"type":"function","name":"hasRole","inputs":[{"name":"role","type":"bytes32","internalType":"bytes32"},{"name":"account","type":"address","internalType":"address"}],"outputs":[{"name":"","type":"bool","internalType":"bool"}],"stateMutability":"view"},{"type":"function","name":"initialize","inputs":[{"name":"defaultAdmin","type":"address","internalType":"address"},{"name":"_stakingContract","type":"address","internalType":"address"},{"name":"_sequencerRegistry","type":"address","internalType":"address"},{"name":"genesisValidator","type":"address","internalType":"address"},{"name":"genesisP2pPeerId","type":"bytes32","internalType":"bytes32"},{"name":"genesisRpcEndpoint","type":"string","internalType":"string"}],"outputs":[],"stateMutability":"nonpayable"},{"type":"function","name":"isBlockFinalized","inputs":[{"name":"blockHash","type":"bytes32","internalType":"bytes32"}],"outputs":[{"name":"","type":"bool","internalType":"bool"}],"stateMutability":"view"},{"type":"function","name":"isValidator","inputs":[{"name":"addr","type":"address","internalType":"address"}],"outputs":[{"name":"","type":"bool","internalType":"bool"}],"stateMutability":"view"},{"type":"function","name":"missedBlocks","inputs":[],"outputs":[{"name":"","type":"uint256","internalType":"uint256"}],"stateMutability":"view"},{"type":"function","name":"pause","inputs":[],"outputs":[],"stateMutability":"nonpayable"},{"type":"function","name":"paused","inputs":[],"outputs":[{"name":"","type":"bool","internalType":"bool"}],"stateMutability":"view"},{"type":"function","name":"proposeBlock","inputs":[{"name":"blockNumber","type":"uint256","internalType":"uint256"},{"name":"blockHash","type":"bytes32","internalType":"bytes32"},{"name":"signature","type":"bytes","internalType":"bytes"}],"outputs":[],"stateMutability":"nonpayable"},{"type":"function","name":"proxiableUUID","inputs":[],"outputs":[{"name":"","type":"bytes32","internalType":"bytes32"}],"stateMutability":"view"},{"type":"function","name":"registerValidator","inputs":[{"name":"validator","type":"address","internalType":"address"},{"name":"p2pPeerId","type":"bytes32","internalType":"bytes32"},{"name":"rpcEndpoint","type":"string","internalType":"string"},{"name":"stake","type":"uint256","internalType":"uint256"},{"name":"power","type":"uint256","internalType":"uint256"}],"outputs":[],"stateMutability":"nonpayable"},{"type":"function","name":"renounceRole","inputs":[{"name":"role","type":"bytes32","internalType":"bytes32"},{"name":"callerConfirmation","type":"address","internalType":"address"}],"outputs":[],"stateMutability":"nonpayable"},{"type":"function","name":"revokeRole","inputs":[{"name":"role","type":"bytes32","internalType":"bytes32"},{"name":"account","type":"address","internalType":"address"}],"outputs":[],"stateMutability":"nonpayable"},{"type":"function","name":"sequencerRegistry","inputs":[],"outputs":[{"name":"","type":"address","internalType":"address"}],"stateMutability":"view"},{"type":"function","name":"slashDoubleSign","inputs":[{"name":"validator","type":"address","internalType":"address"},{"name":"blockNumber","type":"uint256","internalType":"uint256"},{"name":"blockHash1","type":"bytes32","internalType":"bytes32"},{"name":"signature1","type":"bytes","internalType":"bytes"},{"name":"blockHash2","type":"bytes32","internalType":"bytes32"},{"name":"signature2","type":"bytes","internalType":"bytes"}],"outputs":[],"stateMutability":"nonpayable"},{"type":"function","name":"slashDowntime","inputs":[{"name":"validator","type":"address","internalType":"address"}],"outputs":[],"stateMutability":"nonpayable"},{"type":"function","name":"stakingContract","inputs":[],"outputs":[{"name":"","type":"address","internalType":"address"}],"stateMutability":"view"},{"type":"function","name":"supportsInterface","inputs":[{"name":"interfaceId","type":"bytes4","internalType":"bytes4"}],"outputs":[{"name":"","type":"bool","internalType":"bool"}],"stateMutability":"view"},{"type":"function","name":"totalVotingPower","inputs":[],"outputs":[{"name":"","type":"uint256","internalType":"uint256"}],"stateMutability":"view"},{"type":"function","name":"unjailValidator","inputs":[{"name":"validator","type":"address","internalType":"address"}],"outputs":[],"stateMutability":"nonpayable"},{"type":"function","name":"unpause","inputs":[],"outputs":[],"stateMutability":"nonpayable"},{"type":"function","name":"updateValidatorPower","inputs":[{"name":"validator","type":"address","internalType":"address"},{"name":"newPower","type":"uint256","internalType":"uint256"}],"outputs":[],"stateMutability":"nonpayable"},{"type":"function","name":"upgradeToAndCall","inputs":[{"name":"newImplementation","type":"address","internalType":"address"},{"name":"data","type":"bytes","internalType":"bytes"}],"outputs":[],"stateMutability":"payable"},{"type":"function","name":"validators","inputs":[{"name":"","type":"address","internalType":"address"}],"outputs":[{"name":"validator","type":"address","internalType":"address"},{"name":"p2pPeerId","type":"bytes32","internalType":"bytes32"},{"name":"rpcEndpoint","type":"string","internalType":"string"},{"name":"stake","type":"uint256","internalType":"uint256"},{"name":"power","type":"uint256","internalType":"uint256"},{"name":"accumulatedPriority","type":"int256","internalType":"int256"},{"name":"totalBlocksProduced","type":"uint256","internalType":"uint256"},{"name":"totalBlocksMissed","type":"uint256","internalType":"uint256"},{"name":"uptime","type":"uint256","internalType":"uint256"},{"name":"lastBlockProduced","type":"uint256","internalType":"uint256"},{"name":"registeredAt","type":"uint256","internalType":"uint256"},{"name":"jailed","type":"bool","internalType":"bool"},{"name":"active","type":"bool","internalType":"bool"},{"name":"isPermanent","type":"bool","internalType":"bool"}],"stateMutability":"view"},{"type":"event","name":"BlockAttested","inputs":[{"name":"blockNumber","type":"uint256","indexed":true,"internalType":"uint256"},{"name":"blockHash","type":"bytes32","indexed":true,"internalType":"bytes32"},{"name":"validator","type":"address","indexed":true,"internalType":"address"},{"name":"totalPower","type":"uint256","indexed":false,"internalType":"uint256"}],"anonymous":false},{"type":"event","name":"BlockFinalized","inputs":[{"name":"blockNumber","type":"uint256","indexed":true,"internalType":"uint256"},{"name":"blockHash","type":"bytes32","indexed":true,"internalType":"bytes32"},{"name":"totalPower","type":"uint256","indexed":false,"internalType":"uint256"},{"name":"threshold","type":"uint256","indexed":false,"internalType":"uint256"}],"anonymous":false},{"type":"event","name":"BlockProposed","inputs":[{"name":"blockNumber","type":"uint256","indexed":true,"internalType":"uint256"},{"name":"blockHash","type":"bytes32","indexed":true,"internalType":"bytes32"},{"name":"producer","type":"address","indexed":true,"internalType":"address"},{"name":"timestamp","type":"uint256","indexed":false,"internalType":"uint256"}],"anonymous":false},{"type":"event","name":"EpochEnded","inputs":[{"name":"epoch","type":"uint256","indexed":true,"internalType":"uint256"},{"name":"endBlock","type":"uint256","indexed":false,"internalType":"uint256"},{"name":"endTime","type":"uint256","indexed":false,"internalType":"uint256"}],"anonymous":false},{"type":"event","name":"EpochStarted","inputs":[{"name":"epoch","type":"uint256","indexed":true,"internalType":"uint256"},{"name":"startBlock","type":"uint256","indexed":false,"internalType":"uint256"},{"name":"startTime","type":"uint256","indexed":false,"internalType":"uint256"},{"name":"validators","type":"address[]","indexed":false,"internalType":"address[]"}],"anonymous":false},{"type":"event","name":"Initialized","inputs":[{"name":"version","type":"uint64","indexed":false,"internalType":"uint64"}],"anonymous":false},{"type":"event","name":"Paused","inputs":[{"name":"account","type":"address","indexed":false,"internalType":"address"}],"anonymous":false},{"type":"event","name":"ProposerSelected","inputs":[{"name":"blockNumber","type":"uint256","indexed":true,"internalType":"uint256"},{"name":"proposer","type":"address","indexed":true,"internalType":"address"},{"name":"priority","type":"int256","indexed":false,"internalType":"int256"}],"anonymous":false},{"type":"event","name":"RoleAdminChanged","inputs":[{"name":"role","type":"bytes32","indexed":true,"internalType":"bytes32"},{"name":"previousAdminRole","type":"bytes32","indexed":true,"internalType":"bytes32"},{"name":"newAdminRole","type":"bytes32","indexed":true,"internalType":"bytes32"}],"anonymous":false},{"type":"event","name":"RoleGranted","inputs":[{"name":"role","type":"bytes32","indexed":true,"internalType":"bytes32"},{"name":"account","type":"address","indexed":true,"internalType":"address"},{"name":"sender","type":"address","indexed":true,"internalType":"address"}],"anonymous":false},{"type":"event","name":"RoleRevoked","inputs":[{"name":"role","type":"bytes32","indexed":true,"internalType":"bytes32"},{"name":"account","type":"address","indexed":true,"internalType":"address"},{"name":"sender","type":"address","indexed":true,"internalType":"address"}],"anonymous":false},{"type":"event","name":"Unpaused","inputs":[{"name":"account","type":"address","indexed":false,"internalType":"address"}],"anonymous":false},{"type":"event","name":"Upgraded","inputs":[{"name":"implementation","type":"address","indexed":true,"internalType":"address"}],"anonymous":false},{"type":"event","name":"ValidatorJailed","inputs":[{"name":"validator","type":"address","indexed":true,"internalType":"address"},{"name":"reason","type":"string","indexed":false,"internalType":"string"},{"name":"timestamp","type":"uint256","indexed":false,"internalType":"uint256"}],"anonymous":false},{"type":"event","name":"ValidatorSetUpdated","inputs":[{"name":"epoch","type":"uint256","indexed":true,"internalType":"uint256"},{"name":"validators","type":"address[]","indexed":false,"internalType":"address[]"},{"name":"powers","type":"uint256[]","indexed":false,"internalType":"uint256[]"},{"name":"totalPower","type":"uint256","indexed":false,"internalType":"uint256"}],"anonymous":false},{"type":"event","name":"ValidatorSlashed","inputs":[{"name":"validator","type":"address","indexed":true,"internalType":"address"},{"name":"amount","type":"uint256","indexed":false,"internalType":"uint256"},{"name":"reason","type":"string","indexed":false,"internalType":"string"},{"name":"timestamp","type":"uint256","indexed":false,"internalType":"uint256"}],"anonymous":false},{"type":"event","name":"ValidatorUnjailed","inputs":[{"name":"validator","type":"address","indexed":true,"internalType":"address"},{"name":"timestamp","type":"uint256","indexed":false,"internalType":"uint256"}],"anonymous":false},{"type":"error","name":"AccessControlBadConfirmation","inputs":[]},{"type":"error","name":"AccessControlUnauthorizedAccount","inputs":[{"name":"account","type":"address","internalType":"address"},{"name":"neededRole","type":"bytes32","internalType":"bytes32"}]},{"type":"error","name":"AddressEmptyCode","inputs":[{"name":"target","type":"address","internalType":"address"}]},{"type":"error","name":"BlockAlreadyProposed","inputs":[{"name":"blockNumber","type":"uint256","internalType":"uint256"}]},{"type":"error","name":"DoubleSign","inputs":[{"name":"validator","type":"address","internalType":"address"},{"name":"blockNumber","type":"uint256","internalType":"uint256"}]},{"type":"error","name":"ECDSAInvalidSignature","inputs":[]},{"type":"error","name":"ECDSAInvalidSignatureLength","inputs":[{"name":"length","type":"uint256","internalType":"uint256"}]},{"type":"error","name":"ECDSAInvalidSignatureS","inputs":[{"name":"s","type":"bytes32","internalType":"bytes32"}]},{"type":"error","name":"ERC1967InvalidImplementation","inputs":[{"name":"implementation","type":"address","internalType":"address"}]},{"type":"error","name":"ERC1967NonPayable","inputs":[]},{"type":"error","name":"EnforcedPause","inputs":[]},{"type":"error","name":"EpochNotEnded","inputs":[]},{"type":"error","name":"ExpectedPause","inputs":[]},{"type":"error","name":"FailedInnerCall","inputs":[]},{"type":"error","name":"InsufficientVotingPower","inputs":[{"name":"have","type":"uint256","internalType":"uint256"},{"name":"need","type":"uint256","internalType":"uint256"}]},{"type":"error","name":"InvalidBlockNumber","inputs":[{"name":"expected","type":"uint256","internalType":"uint256"},{"name":"actual","type":"uint256","internalType":"uint256"}]},{"type":"error","name":"InvalidInitialization","inputs":[]},{"type":"error","name":"InvalidSignature","inputs":[]},{"type":"error","name":"InvalidVotingPower","inputs":[]},{"type":"error","name":"NotDesignatedProposer","inputs":[{"name":"expected","type":"address","internalType":"address"},{"name":"actual","type":"address","internalType":"address"}]},{"type":"error","name":"NotInitializing","inputs":[]},{"type":"error","name":"ReentrancyGuardReentrantCall","inputs":[]},{"type":"error","name":"UUPSUnauthorizedCallContext","inputs":[]},{"type":"error","name":"UUPSUnsupportedProxiableUUID","inputs":[{"name":"slot","type":"bytes32","internalType":"bytes32"}]},{"type":"error","name":"ValidatorIsJailed","inputs":[{"name":"validator","type":"address","internalType":"address"}]},{"type":"error","name":"ValidatorNotActive","inputs":[{"name":"validator","type":"address","internalType":"address"}]},{"type":"error","name":"ValidatorNotFound","inputs":[{"name":"validator","type":"address","internalType":"address"}]}],"bytecode":{"object":"0x60a0806040523460c857306080527ff0c57e16840df040f15088dc2f81fe391c3923bec73e23a9662efc9c229c6a009081549060ff8260401c1660b957506001600160401b036002600160401b0319828216016075575b6040516145b990816100cd823960805181818161249c01526125ae0152f35b6001600160401b031990911681179091556040519081527fc7f505b2f371ae2175ee4913f4499e1f2633a7b5936321eed1cdaeb6115181d290602090a15f80806056565b63f92ee8a960e01b8152600490fd5b5f80fdfe6080806040526004361015610012575f80fd5b5f3560e01c90816301ffc9a714613209575080630a7a2241146131ed578063135022c21461306657806314f64c78146130185780631ce5a23b14612ffd578063248a9ca314612fb15780632e75293b14612e9e5780632f2ff15d14612e425780632ff521eb14612da757806331147c3014612d8a57806336568abe14612d1e578063378ec23b14612d0157806337e59e3614612b8a5780633b10244b146102c45780633cf80e6c146129775780633f4ba83a146128d75780634134a985146128bb57806342e8cd7f14610cc3578063462a4f8e1461289e5780634adab1a41461287c5780634f1ef286146125505780635095af641461251657806352d1902d146124755780635ab9d955146122825780635c975abb146122415780635caf297714611de6578063671b379314611dc957806376662c2814611aed5780637667180814611ad15780637867e1641461165957806379f1c2181461163d5780637cafdd79146116145780637d898f60146115065780638456cb591461148e5780638a11d7c91461125b57806391d14854146111e55780639bc1b70314610dd95780639de7025814610d58578063a217fddf14610d3e578063a5513a1314610ced578063a7405c6214610cc3578063a78c52bb14610c2a578063ad3cb1cc14610bb6578063b1b623d814610b7c578063b3c82fd014610888578063b95f05601461086c578063ba50b8791461063b578063c6b61e4c146105da578063d547741f1461057c578063e1f1c4a714610560578063e63ab1e914610526578063eb90e39f146104f3578063ee99205c146104c0578063f575c31414610484578063fa52c7d81461037a578063fa8f5e961461035d578063facd743b146102f7578063fe82d082146102c45763ff88db3e146102a5575f80fd5b346102c0575f6003193601126102c057602060405160038152f35b5f80fd5b346102c0575f6003193601126102c057602073ffffffffffffffffffffffffffffffffffffffff60095416604051908152f35b346102c05760206003193601126102c057602073ffffffffffffffffffffffffffffffffffffffff806103286132dc565b165f526003825260405f20908154161515908161034b575b506040519015158152f35b60ff9150600b015460081c1682610340565b346102c0575f6003193601126102c0576020604051623b53808152f35b346102c05760206003193601126102c05773ffffffffffffffffffffffffffffffffffffffff806103a96132dc565b165f5260036020526040805f20918254169160ff60018201548351926103dd846103d68160028501613373565b0385613491565b60038101549360048201546005830154600684015460078501549160088601549361042f600988015496600b600a8a0154990154998d519e8f9e8f6101c09384938252602082015201528d01906134d2565b9960608c015260808b015260a08a015260c089015260e08801526101008701526101208601526101408501528181161515610160850152818160081c16151561018085015260101c1615156101a08301520390f35b346102c05760206003193601126102c05760206104a26004356137ec565b73ffffffffffffffffffffffffffffffffffffffff60405191168152f35b346102c0575f6003193601126102c057602073ffffffffffffffffffffffffffffffffffffffff600c5416604051908152f35b346102c0575f6003193601126102c057602073ffffffffffffffffffffffffffffffffffffffff600d5416604051908152f35b346102c0575f6003193601126102c05760206040517f65d7a28e3265b37a6474929f336521b332c1681b933f6cb9f3376673440d862a8152f35b346102c0575f6003193601126102c05760206040516127108152f35b346102c05760406003193601126102c0576105d860043561059b6132ff565b90805f527f02dd7bc7dec4dceedda775e58dd541e08a116c6c53815c0bd028192f7b6268006020526105d3600160405f200154613980565b613e09565b005b346102c05760206003193601126102c0576004355f52600560205260c060405f2080549060018101549060028101546003820154906006600484015493015493604051958652602086015260408501526060840152608083015260a0820152f35b346102c05760206003193601126102c0576106546132dc565b61065c613838565b73ffffffffffffffffffffffffffffffffffffffff809116805f52600391600360205260405f20818154161561083b57600b8101805460ff8160101c1661080a577fffffffffffffffffffffffffffffffffffffffffffffffffffffffffffff00ff169055600401546002546106d29190613674565b6002555f5b600454808210156108005783836106ed846132a7565b905490881b1c161461070257506001016106d7565b909192507fffffffffffffffffffffffffffffffffffffffffffffffffffffffffffffffff918282019182116107d35761074f8461074261077b946132a7565b905490881b1c16916132a7565b90919073ffffffffffffffffffffffffffffffffffffffff8084549260031b9316831b921b1916179055565b60045480156107a657019161078f836132a7565b81939154921b1b191690556004555b6105d8614053565b7f4e487b71000000000000000000000000000000000000000000000000000000005f52603160045260245ffd5b7f4e487b71000000000000000000000000000000000000000000000000000000005f52601160045260245ffd5b505050505061079e565b602485604051907fb9d292500000000000000000000000000000000000000000000000000000000082526004820152fd5b602483604051907f5a4887e10000000000000000000000000000000000000000000000000000000082526004820152fd5b346102c0575f6003193601126102c05760206040516126ac8152f35b346102c05760a06003193601126102c0576108a16132dc565b67ffffffffffffffff6044358181116102c0576108c2903690600401613585565b91608435926108cf613838565b6108d76139c1565b73ffffffffffffffffffffffffffffffffffffffff80861693845f52602091600360205260405f205416610b4b5785158015610b3a575b610b1057845f52600360205260405f20947fffffffffffffffffffffffff00000000000000000000000000000000000000008654161785556001602435600187015560028601948411610ae35761096f846109698754613322565b876136e9565b5f92601f8511600114610a34575050926109c983600b94610a169794610a1e9a975f92610a29575b50507fffffffffffffffffffffffffffffffffffffffffffffffffffffffffffffffff8260011b9260031b1c19161790565b90555b60643560038201558460048201555f600582015542600a820155016101007fffffffffffffffffffffffffffffffffffffffffffffffffffffffffff0000ff8254161790556137c4565b600254613681565b6002556105d8614053565b013590508a80610997565b5f8681526020812094927fffffffffffffffffffffffffffffffffffffffffffffffffffffffffffffffe0871692905b838310610acc5750505093610a169693610a1e99969360019383600b9810610a94575b505050811b0190556109cc565b7fffffffffffffffffffffffffffffffffffffffffffffffffffffffffffffffff60f88560031b161c19910135169055898080610a87565b858501358755958601959381019391810191610a64565b7f4e487b71000000000000000000000000000000000000000000000000000000005f52604160045260245ffd5b60046040517f7b9ed6f4000000000000000000000000000000000000000000000000000000008152fd5b50677fffffffffffffff861161090e565b602485604051907f5a4887e10000000000000000000000000000000000000000000000000000000082526004820152fd5b346102c0575f6003193601126102c05760206040517f87421e189bd94dc1673f0d5255fa9f0cb8ff65bb74e34e0a80b07e9f0b4e34d58152f35b346102c0575f6003193601126102c057604051604081019080821067ffffffffffffffff831117610ae357610c2691604052600581527f352e302e3000000000000000000000000000000000000000000000000000000060208201526040519182916020835260208301906134d2565b0390f35b346102c05760406003193601126102c0576024356004355f52600760205260405f209081548110156102c057610c5f916135ea565b5073ffffffffffffffffffffffffffffffffffffffff815416600182015491610cb9600360405192610c98846103d68160028501613373565b015491604051948594855260208501526080604085015260808401906134d2565b9060608301520390f35b346102c05760206003193601126102c0576004355f526008602052602060405f2054604051908152f35b346102c05760206003193601126102c0576002548060011b90808204600214901517156107d35760039004600181018091116107d3576020906004355f526008825260405f20541015604051908152f35b346102c0575f6003193601126102c05760206040515f8152f35b346102c0575f6003193601126102c057604051610d7f81610d7881613603565b0382613491565b604051809160208083016020845282518091526020604085019301915f5b828110610dac57505050500390f35b835173ffffffffffffffffffffffffffffffffffffffff1685528695509381019392810192600101610d9d565b346102c057610de7366135b3565b90610df39392936139c1565b335f526020906003825260405f2090600b82015460ff8160081c16156111b55760ff16611185576040518381019086825287604082015260408152610e3781613475565b5190207f19457468657265756d205369676e6564204d6573736167653a0a3332000000005f52601c52610e84610e7b603c5f20610e7536888661354f565b9061432a565b90929192614364565b73ffffffffffffffffffffffffffffffffffffffff90813391160361115b57865f526007845260405f2094610ed060405193610ebf85613420565b338552868501928a8452369161354f565b90604084019182526060840192428452875468010000000000000000811015610ae357610f04906001998a820181556135ea565b95909561112f5751167fffffffffffffffffffffffff0000000000000000000000000000000000000000855416178455518684015560028301905180519067ffffffffffffffff8211610ae357610f6582610f5f8554613322565b856136e9565b8690601f8311600114611087578260049796959360039593610fb9935f9261107c5750507fffffffffffffffffffffffffffffffffffffffffffffffffffffffffffffffff8260011b9260031b1c19161790565b90555b519101550154845f5260088252610fd860405f20918254613681565b9055835f526008815260405f205460405190815284847f925ef2b40a2bd604e5dd747fc38b64bfa1dafdeabc12b86e2b1bfd40ffabfb84843394a460025480831b90808204600214901517156107d357600390049182018092116107d357835f526008815260405f20548281101561104c57005b7f93b89a1a93b9d108091d2250fc662991c2a084e44d6690fbc59968bbf93efefd926040928351928352820152a3005b015190508d80610997565b82917fffffffffffffffffffffffffffffffffffffffffffffffffffffffffffffffe08a941691855f52895f20925f5b8b828210611119575050916004999897959391856003989694106110e3575b505050811b019055610fbc565b01517fffffffffffffffffffffffffffffffffffffffffffffffffffffffffffffffff60f884891b161c191690558c80806110d6565b8385015186558d979095019493840193016110b7565b7f4e487b71000000000000000000000000000000000000000000000000000000005f525f60045260245ffd5b60046040517f8baa579f000000000000000000000000000000000000000000000000000000008152fd5b60246040517f7ca2f4a9000000000000000000000000000000000000000000000000000000008152336004820152fd5b60246040517fb9d29250000000000000000000000000000000000000000000000000000000008152336004820152fd5b346102c05760406003193601126102c0576111fe6132ff565b6004355f527f02dd7bc7dec4dceedda775e58dd541e08a116c6c53815c0bd028192f7b62680060205273ffffffffffffffffffffffffffffffffffffffff60405f2091165f52602052602060ff60405f2054166040519015158152f35b346102c05760206003193601126102c05773ffffffffffffffffffffffffffffffffffffffff6112896132dc565b5f6101a060405161129981613458565b828152826020820152606060408201528260608201528260808201528260a08201528260c08201528260e082015282610100820152826101208201528261014082015282610160820152826101808201520152165f52600360205260405f2060ff600b6040519261130984613458565b73ffffffffffffffffffffffffffffffffffffffff81541684526001810154602085015260405161134181610d788160028601613373565b60408501526003810154606085015260048101546080850152600581015460a0850152600681015460c0850152600781015460e085015260088101546101008501526009810154610120850152600a81015461014085015201548181161515610160840152818160081c16151561018084015260101c1615156101a082015260405180916020825273ffffffffffffffffffffffffffffffffffffffff8151166020830152602081015160408301526101a061140e60408301516101c060608601526101e08501906134d2565b9160608101516080850152608081015160a085015260a081015160c085015260c081015160e085015260e08101516101008501526101008101516101208501526101208101516101408501526101408101516101608501526101608101511515610180850152610180810151151582850152015115156101c08301520390f35b346102c0575f6003193601126102c0576114a66138ca565b6114ae6139c1565b7fcd5ed15c6e187e77e9aee88184c21f4f2182ab5827cb3b7e07fbedcd63f03300600160ff198254161790557f62e78cea01bee320cd4e420270b5ea74000d11b0c9f74754ebdbfc544b05a2586020604051338152a1005b346102c0576020806003193601126102c0575f60a06040516115278161343c565b828152828482015282604082015260608082015282608082015201526004355f526006815260405f206040519061155d8261343c565b80548252600181015483830190815261160173ffffffffffffffffffffffffffffffffffffffff806002850154169060408601918252604051916115af836115a88160038a01613373565b0384613491565b6060870192835260ff600560048801549760808a019889520154169460a088019515158652604051988998818a525190890152516040880152511660608601525160c0608086015260e08501906134d2565b915160a084015251151560c08301520390f35b346102c05760206003193601126102c0576105d86116306132dc565b611638613838565b61372e565b346102c0575f6003193601126102c05760206040516103e88152f35b346102c057611667366135b3565b61166f6139c1565b60027f9b779b17422d0df92223018b32b4d1fa46e071723d6817e2486d003becc55f005414611aa75760027f9b779b17422d0df92223018b32b4d1fa46e071723d6817e2486d003becc55f0055600154600181018091116107d357808503611a705750835f52600660205273ffffffffffffffffffffffffffffffffffffffff9182600260405f20015416611a3f578260095416803303611a085750335f52600360205260405f2092600b84015460ff8160081c16156111b55760ff166111855760405160208101908782528660408201526040815261174e81613475565b5190207f19457468657265756d205369676e6564204d6573736167653a0a3332000000005f52601c5261178c610e7b603c5f20610e7536878761354f565b813391160361115b57604051926117a28461343c565b8684526117bf60208501938785526040860192338452369161354f565b9160608501928352426080860152600160a0860152875f52600660205260405f209385518555516001850155600284019151167fffffffffffffffffffffffff00000000000000000000000000000000000000008254161790555180519067ffffffffffffffff8211610ae3576118468261183d6003860154613322565b600386016136e9565b602090601f831160011461193c578260059360a09593611898935f926119315750507fffffffffffffffffffffffffffffffffffffffffffffffffffffffffffffffff8260011b9260031b1c19161790565b60038201555b6080840151600482015501910151151560ff60ff198354169116179055600681016118c981546136a6565b9055600942910155816001556118dd614053565b50604051914283527fa167896f9c84808ae49655f45265c2860fa9024c1ce49452d0121caf0c93e71c60203394a460017f9b779b17422d0df92223018b32b4d1fa46e071723d6817e2486d003becc55f0055005b015190508a80610997565b90600384015f5260205f20915f5b7fffffffffffffffffffffffffffffffffffffffffffffffffffffffffffffffe0851681106119f057509260a09492600192600595837fffffffffffffffffffffffffffffffffffffffffffffffffffffffffffffffe08116106119b9575b505050811b01600382015561189e565b01517fffffffffffffffffffffffffffffffffffffffffffffffffffffffffffffffff60f88460031b161c191690558980806119a9565b9192602060018192868501518155019401920161194a565b604490604051907f49d6f2dc0000000000000000000000000000000000000000000000000000000082526004820152336024820152fd5b602485604051907f64de349a0000000000000000000000000000000000000000000000000000000082526004820152fd5b60449085604051917fd5dc642d00000000000000000000000000000000000000000000000000000000835260048301526024820152fd5b60046040517f3ee5aeb5000000000000000000000000000000000000000000000000000000008152fd5b346102c0575f6003193601126102c05760205f54604051908152f35b346102c05760c06003193601126102c057611b066132dc565b602435906044356064359167ffffffffffffffff928381116102c057611b30903690600401613585565b9190946084359460a4359081116102c057611b4f903690600401613585565b949091611b5a613925565b73ffffffffffffffffffffffffffffffffffffffff80941697885f52600360205260405f20978589541615611d9857604051602081019084825285604082015260408152611ba781613475565b519020926040516020810191825282604082015260408152611bc881613475565b519020931461115b57611c4496610e758a97958795611c2a95611c218b99610e75611c3b987f19457468657265756d205369676e6564204d6573736167653a0a33320000000094855f52601c52603c5f2092369161354f565b90989198614364565b5f52601c52603c5f2092369161354f565b90979197614364565b161492831593611d8b575b50505061115b576003810180546113888082029082820414821517156107d35784937f6122b6e3c2260123744d4ac36297c96185ce8b0f7ca2760c09c30a46c3d9dcae93611ca4612710600b94048095613674565b90550160017fffffffffffffffffffffffffffffffffffffffffffffffffffffffffffff00008254161790556040519081526060602082015280611d1660608201604090600b81527f446f75626c65207369676e00000000000000000000000000000000000000000060208201520190565b4260408301520390a27f2f312d0546b0a2cdb051028de9041f76dd85d9a260cbb3fe7107ea398f2f6a8b6040516040815280611d8060408201604090600b81527f446f75626c65207369676e00000000000000000000000000000000000000000060208201520190565b4260208301520390a2005b1614159050828480611c4f565b60248a604051907f5a4887e10000000000000000000000000000000000000000000000000000000082526004820152fd5b346102c0575f6003193601126102c0576020600254604051908152f35b346102c05760c06003193601126102c057611dff6132dc565b611e076132ff565b60443573ffffffffffffffffffffffffffffffffffffffff8082168092036102c05760643592818416908185036102c05767ffffffffffffffff9460a4358681116102c057611e5a903690600401613585565b97907ff0c57e16840df040f15088dc2f81fe391c3923bec73e23a9662efc9c229c6a009889549760ff8960401c1615978a8a16998a158061223a575b6001809c149081612230575b159081612227575b506121fd57611fc9958d828c8e7fffffffffffffffffffffffffffffffffffffffffffffffff0000000000000000611f8696161783556121c7575b5050611eef6142d1565b611ef76142d1565b611eff6142d1565b611f076142d1565b7fcd5ed15c6e187e77e9aee88184c21f4f2182ab5827cb3b7e07fbedcd63f0330060ff198154169055611f386142d1565b611f406142d1565b8b7f9b779b17422d0df92223018b32b4d1fa46e071723d6817e2486d003becc55f0055611f6c81613a16565b50611f7681613ad3565b50611f8081613bb3565b50613c8c565b507fffffffffffffffffffffffff0000000000000000000000000000000000000000961686600c541617600c5585600d541617600d55875f555f8855369161354f565b95835f526020966003885260405f209185858454161783556084358884015560028301918051918211610ae35761200482610f5f8554613322565b8990601f831160011461211c57826120a5969593600b9593612058935f926121115750507fffffffffffffffffffffffffffffffffffffffffffffffffffffffffffffffff8260011b9260031b1c19161790565b90555b5f6003820155606460048201555f600582015542600a82015501620101007fffffffffffffffffffffffffffffffffffffffffffffffffffffffffff0000ff8254161790556137c4565b606460025560095416176009556120ba613f67565b6120c057005b827fffffffffffffffffffffffffffffffffffffffffffffff00ffffffffffffffff7fc7f505b2f371ae2175ee4913f4499e1f2633a7b5936321eed1cdaeb6115181d29454169055604051908152a1005b015190508e80610997565b82917fffffffffffffffffffffffffffffffffffffffffffffffffffffffffffffffe08b941691855f528c5f20928d5f905b8282106121b0575050916120a5989795939185600b98969410612179575b505050811b01905561205b565b01517fffffffffffffffffffffffffffffffffffffffffffffffffffffffffffffffff60f88460031b161c191690558d808061216c565b8385015186558e979095019493840193018e61214e565b7fffffffffffffffffffffffffffffffffffffffffffffff00000000000000000016680100000000000000011790558d8f611ee5565b60046040517ff92ee8a9000000000000000000000000000000000000000000000000000000008152fd5b9050158e611eaa565b303b159150611ea2565b5089611e96565b346102c0575f6003193601126102c057602060ff7fcd5ed15c6e187e77e9aee88184c21f4f2182ab5827cb3b7e07fbedcd63f0330054166040519015158152f35b346102c05760206003193601126102c05761229b6132dc565b6122a3613925565b73ffffffffffffffffffffffffffffffffffffffff80911690815f52600360205260405f2090815416156124445760088101546126ac8082101561240d5750506003810180546101f48082029082820414821517156107d35784937f6122b6e3c2260123744d4ac36297c96185ce8b0f7ca2760c09c30a46c3d9dcae93612331612710600b94048095613674565b90550160017fffffffffffffffffffffffffffffffffffffffffffffffffffffffffffff000082541617905560405190815260606020820152806123a360608201604090600881527f446f776e74696d6500000000000000000000000000000000000000000000000060208201520190565b4260408301520390a27f2f312d0546b0a2cdb051028de9041f76dd85d9a260cbb3fe7107ea398f2f6a8b6040516040815280611d8060408201604090600881527f446f776e74696d6500000000000000000000000000000000000000000000000060208201520190565b60449250604051917f5db18e8e00000000000000000000000000000000000000000000000000000000835260048301526024820152fd5b602482604051907f5a4887e10000000000000000000000000000000000000000000000000000000082526004820152fd5b346102c0575f6003193601126102c05773ffffffffffffffffffffffffffffffffffffffff7f00000000000000000000000000000000000000000000000000000000000000001630036124ec5760206040517f360894a13ba1a3210667c828492db98dca3e2076cc3735a920a3ca505d382bbc8152f35b60046040517fe07c8dba000000000000000000000000000000000000000000000000000000008152fd5b346102c0575f6003193601126102c05760206040517f12b42e8a160f6064dc959c6f251e3af0750ad213dbecf573b4710d67d6c28e398152f35b60406003193601126102c0576125646132dc565b602490813567ffffffffffffffff81116102c057366023820112156102c057612596903690848160040135910161354f565b73ffffffffffffffffffffffffffffffffffffffff807f00000000000000000000000000000000000000000000000000000000000000001680301490811561284e575b506124ec57335f9081527fb7db2dd08fcb62d0c9e08c51941cae53c267786a0b75803fb7960902fc8ef97d602090815260409091205490919060ff1615612818578316926040517f52d1902d0000000000000000000000000000000000000000000000000000000081528281600481885afa5f91816127e9575b50612688578585604051907f4c9c8ce30000000000000000000000000000000000000000000000000000000082526004820152fd5b8490867f360894a13ba1a3210667c828492db98dca3e2076cc3735a920a3ca505d382bbc918281036127bb5750833b1561278c5750817fffffffffffffffffffffffff0000000000000000000000000000000000000000825416179055604051907fbc7cd75a20ee27fd9adebab32041f755214dbc6bffa90cc0225b39da2e5c2d3b5f80a283511561275957505f8084846105d896519101845af4903d15612750573d61273481613515565b906127426040519283613491565b81525f81943d92013e6144e3565b606092506144e3565b925050503461276457005b807fb398979f0000000000000000000000000000000000000000000000000000000060049252fd5b82604051907f4c9c8ce30000000000000000000000000000000000000000000000000000000082526004820152fd5b604051907faa1d49a40000000000000000000000000000000000000000000000000000000082526004820152fd5b9091508381813d8311612811575b6128018183613491565b810103126102c057519087612653565b503d6127f7565b6044855f604051917fe2517d3f000000000000000000000000000000000000000000000000000000008352336004840152820152fd5b9050817f360894a13ba1a3210667c828492db98dca3e2076cc3735a920a3ca505d382bbc54161415856125d9565b346102c0575f6003193601126102c0576020604051670fffffffffffffff8152f35b346102c0575f6003193601126102c0576020600b54604051908152f35b346102c0575f6003193601126102c05760206040516101f48152f35b346102c0575f6003193601126102c0576128ef6138ca565b7fcd5ed15c6e187e77e9aee88184c21f4f2182ab5827cb3b7e07fbedcd63f03300805460ff81161561294d5760ff191690557f5db9ee0a495bf2e6ff9c91a7834c1ba4fdd244a5e8aa4e537bd38aeae4b073aa6020604051338152a1005b60046040517f8dfc202b000000000000000000000000000000000000000000000000000000008152fd5b346102c0575f6003193601126102c05761298f613838565b5f545f52600560206005815260405f20906001916001546001820154623b538081018091116107d3578110612b60576002820155600442910155612a055f54807f469dcd0c8170c8faf3678737ed5cc64107d6d30846f97438a0feefacbed00ec2604060015481519081524287820152a26136a6565b5f55612a0f613f67565b600454612a1b8161368e565b90612a296040519283613491565b808252612a358161368e565b947fffffffffffffffffffffffffffffffffffffffffffffffffffffffffffffffe084840196013687375f5b828110612ae55750505090915f549260025491604051936060855282612a8960608701613603565b918683038288015251918281520196925f5b828110612ad257877ff401f5a770121fc0f928a49d6d2bbd6210392212fde4d7421059b944afba516588808c8a60408301520390a2005b8451895297810197938101938301612a9b565b73ffffffffffffffffffffffffffffffffffffffff612b03826132a7565b919054600392831b1c165f528552600460405f200154908451811015612b335786918682851b8701015201612a61565b7f4e487b71000000000000000000000000000000000000000000000000000000005f52603260045260245ffd5b60046040517f756b7857000000000000000000000000000000000000000000000000000000008152fd5b346102c0576020806003193601126102c0576004355f526007815260405f2090815491612bb68361368e565b92612bc46040519485613491565b80845282840180925f52835f205f915b838310612c965750505050604051918083019381845251809452604083019360408160051b85010192915f955b828710612c0e5785850386f35b909192938280827fffffffffffffffffffffffffffffffffffffffffffffffffffffffffffffffc08960019503018552875190612c7c608073ffffffffffffffffffffffffffffffffffffffff845116835284840151858401526040840151908060408501528301906134d2565b916060809101519101529601920196019592919092612c01565b600486600192604099989951612cab81613420565b73ffffffffffffffffffffffffffffffffffffffff86541681528486015483820152604051612ce181610d788160028b01613373565b604082015260038601546060820152815201920192019190959495612bd4565b346102c0575f6003193601126102c0576020600154604051908152f35b346102c05760406003193601126102c057612d376132ff565b3373ffffffffffffffffffffffffffffffffffffffff821603612d60576105d890600435613e09565b60046040517f6697b232000000000000000000000000000000000000000000000000000000008152fd5b346102c0575f6003193601126102c0576020600454604051908152f35b346102c05760206003193601126102c0576004355f52600660205260405f20805460018201549173ffffffffffffffffffffffffffffffffffffffff600282015416612e31604051612e0081610d788160038801613373565b60ff60056004860154950154169260405196879687526020870152604086015260c0606086015260c08501906134d2565b916080840152151560a08301520390f35b346102c05760406003193601126102c0576105d8600435612e616132ff565b90805f527f02dd7bc7dec4dceedda775e58dd541e08a116c6c53815c0bd028192f7b626800602052612e99600160405f200154613980565b613d65565b346102c05760406003193601126102c057612eb76132dc565b60243590612ec3613838565b612ecb6139c1565b73ffffffffffffffffffffffffffffffffffffffff809116805f52600360205260405f209182541615612f805760ff600b83015460081c1615612f4f575081158015612f3e575b610b1057612f3282612f2d6004600254940193845490613674565b613681565b600255556105d8614053565b50677fffffffffffffff8211612f12565b602490604051907fb9d292500000000000000000000000000000000000000000000000000000000082526004820152fd5b602490604051907f5a4887e10000000000000000000000000000000000000000000000000000000082526004820152fd5b346102c05760206003193601126102c0576004355f527f02dd7bc7dec4dceedda775e58dd541e08a116c6c53815c0bd028192f7b6268006020526020600160405f200154604051908152f35b346102c0575f6003193601126102c057602060405160028152f35b346102c05760206003193601126102c0576004356004548110156102c05773ffffffffffffffffffffffffffffffffffffffff6130566020926132a7565b9190546040519260031b1c168152f35b346102c0576020806003193601126102c0575f60c060405161308781613404565b8281528284820152826040820152826060820152826080820152606060a082015201526004355f526005815260405f20906040516130c481613404565b825481526001926001810154928083019384526002820154916040840192835260038101546060850190815260048201549060808601918252600583019260405193848682549182815201915f52865f20908b5f5b8281106131c4575050505090613133856006930386613491565b60a0880194855201549460c087019586526040519785895261010089019751868a01525160408901525160608801525160808701525160a0860152519260e060c086015283518091528161012086019401915f5b82811061319b57845160e088015286860387f35b835173ffffffffffffffffffffffffffffffffffffffff16865294810194928101928701613187565b835473ffffffffffffffffffffffffffffffffffffffff16855293890193928101928101613119565b346102c0575f6003193601126102c05760206040516113888152f35b346102c05760206003193601126102c057600435907fffffffff0000000000000000000000000000000000000000000000000000000082168092036102c057817f7965db0b000000000000000000000000000000000000000000000000000000006020931490811561327d575b5015158152f35b7f01ffc9a70000000000000000000000000000000000000000000000000000000091501483613276565b600454811015612b335760045f527f8a35acfbc15ff81a39ae7d344fd709f28e8600b4aa8c65c6b64bfe7fe36bd19b01905f90565b6004359073ffffffffffffffffffffffffffffffffffffffff821682036102c057565b6024359073ffffffffffffffffffffffffffffffffffffffff821682036102c057565b90600182811c92168015613369575b602083101461333c57565b7f4e487b71000000000000000000000000000000000000000000000000000000005f52602260045260245ffd5b91607f1691613331565b80545f939261338182613322565b918282526020936001916001811690815f146133e557506001146133a7575b5050505050565b90939495505f92919252835f2092845f945b8386106133d157505050500101905f808080806133a0565b8054858701830152940193859082016133b9565b60ff19168685015250505090151560051b010191505f808080806133a0565b60e0810190811067ffffffffffffffff821117610ae357604052565b6080810190811067ffffffffffffffff821117610ae357604052565b60c0810190811067ffffffffffffffff821117610ae357604052565b6101c0810190811067ffffffffffffffff821117610ae357604052565b6060810190811067ffffffffffffffff821117610ae357604052565b90601f7fffffffffffffffffffffffffffffffffffffffffffffffffffffffffffffffe0910116810190811067ffffffffffffffff821117610ae357604052565b907fffffffffffffffffffffffffffffffffffffffffffffffffffffffffffffffe0601f602080948051918291828752018686015e5f8582860101520116010190565b67ffffffffffffffff8111610ae357601f017fffffffffffffffffffffffffffffffffffffffffffffffffffffffffffffffe01660200190565b92919261355b82613515565b916135696040519384613491565b8294818452818301116102c0578281602093845f960137010152565b9181601f840112156102c05782359167ffffffffffffffff83116102c057602083818601950101116102c057565b60606003198201126102c05760043591602435916044359067ffffffffffffffff82116102c0576135e691600401613585565b9091565b8054821015612b33575f5260205f209060021b01905f90565b6004549081815260208091019160045f527f8a35acfbc15ff81a39ae7d344fd709f28e8600b4aa8c65c6b64bfe7fe36bd19b915f905b828210613647575050505090565b835473ffffffffffffffffffffffffffffffffffffffff1685529384019360019384019390910190613639565b919082039182116107d357565b919082018092116107d357565b67ffffffffffffffff8111610ae35760051b60200190565b7fffffffffffffffffffffffffffffffffffffffffffffffffffffffffffffffff81146107d35760010190565b8181106136de575050565b5f81556001016136d3565b9190601f81116136f857505050565b613722925f5260205f20906020601f840160051c83019310613724575b601f0160051c01906136d3565b565b9091508190613715565b73ffffffffffffffffffffffffffffffffffffffff80911690815f52600360205260405f20908154161561244457600b01805460ff8116156137bf577fffffffffffffffffffffffffffffffffffffffffffffffffffffffffffff000061010091161790557f6bb2436cb6b6eb65d5a52fac2ae0373a77ade6661e523ef3004ee2d5524e6c6e6020604051428152a2565b505050565b6004549068010000000000000000821015610ae35761074f82600161372294016004556132a7565b60015490600182018092116107d3571461381c5773ffffffffffffffffffffffffffffffffffffffff6009541690565b73ffffffffffffffffffffffffffffffffffffffff6009541690565b335f9081527f453a6d943a8ce2b55346a57be9edb3b5a9c9eacff8947d1529361145ee8b887360205260409020547f87421e189bd94dc1673f0d5255fa9f0cb8ff65bb74e34e0a80b07e9f0b4e34d59060ff16156138935750565b604490604051907fe2517d3f0000000000000000000000000000000000000000000000000000000082523360048301526024820152fd5b335f9081527f75442b0a96088b5456bc4ed01394c96a4feec0f883c9494257d76b96ab1c9b6b60205260409020547f65d7a28e3265b37a6474929f336521b332c1681b933f6cb9f3376673440d862a9060ff16156138935750565b335f9081527f69892194d2f1eb4d48bd09f166bfce1754a681e8e17011b3e12b710cce56a87b60205260409020547f12b42e8a160f6064dc959c6f251e3af0750ad213dbecf573b4710d67d6c28e399060ff16156138935750565b805f527f02dd7bc7dec4dceedda775e58dd541e08a116c6c53815c0bd028192f7b62680060205260405f20335f5260205260ff60405f205416156138935750565b60ff7fcd5ed15c6e187e77e9aee88184c21f4f2182ab5827cb3b7e07fbedcd63f0330054166139ec57565b60046040517fd93c0665000000000000000000000000000000000000000000000000000000008152fd5b73ffffffffffffffffffffffffffffffffffffffff165f8181527fb7db2dd08fcb62d0c9e08c51941cae53c267786a0b75803fb7960902fc8ef97d60205260409020547f02dd7bc7dec4dceedda775e58dd541e08a116c6c53815c0bd028192f7b6268009060ff16613acd575f805260205260405f20815f5260205260405f20600160ff1982541617905533905f7f2f8788117e7eff1d82e926ec794901d17c78024a50270940304540a733656f0d8180a4600190565b50505f90565b73ffffffffffffffffffffffffffffffffffffffff165f8181527f75442b0a96088b5456bc4ed01394c96a4feec0f883c9494257d76b96ab1c9b6b60205260409020547f65d7a28e3265b37a6474929f336521b332c1681b933f6cb9f3376673440d862a91907f02dd7bc7dec4dceedda775e58dd541e08a116c6c53815c0bd028192f7b6268009060ff16613bac57825f5260205260405f20815f5260205260405f20600160ff1982541617905533917f2f8788117e7eff1d82e926ec794901d17c78024a50270940304540a733656f0d5f80a4600190565b5050505f90565b73ffffffffffffffffffffffffffffffffffffffff165f8181527f453a6d943a8ce2b55346a57be9edb3b5a9c9eacff8947d1529361145ee8b887360205260409020547f87421e189bd94dc1673f0d5255fa9f0cb8ff65bb74e34e0a80b07e9f0b4e34d591907f02dd7bc7dec4dceedda775e58dd541e08a116c6c53815c0bd028192f7b6268009060ff16613bac57825f5260205260405f20815f5260205260405f20600160ff1982541617905533917f2f8788117e7eff1d82e926ec794901d17c78024a50270940304540a733656f0d5f80a4600190565b73ffffffffffffffffffffffffffffffffffffffff165f8181527f69892194d2f1eb4d48bd09f166bfce1754a681e8e17011b3e12b710cce56a87b60205260409020547f12b42e8a160f6064dc959c6f251e3af0750ad213dbecf573b4710d67d6c28e3991907f02dd7bc7dec4dceedda775e58dd541e08a116c6c53815c0bd028192f7b6268009060ff16613bac57825f5260205260405f20815f5260205260405f20600160ff1982541617905533917f2f8788117e7eff1d82e926ec794901d17c78024a50270940304540a733656f0d5f80a4600190565b90815f527f02dd7bc7dec4dceedda775e58dd541e08a116c6c53815c0bd028192f7b6268008060205273ffffffffffffffffffffffffffffffffffffffff60405f20921691825f5260205260ff60405f205416155f14613bac57825f5260205260405f20815f5260205260405f20600160ff1982541617905533917f2f8788117e7eff1d82e926ec794901d17c78024a50270940304540a733656f0d5f80a4600190565b90815f527f02dd7bc7dec4dceedda775e58dd541e08a116c6c53815c0bd028192f7b6268008060205273ffffffffffffffffffffffffffffffffffffffff60405f20921691825f5260205260ff60405f2054165f14613bac57825f5260205260405f20815f5260205260405f2060ff19815416905533917ff6391f5c32d9c69d2a47ea670b442974b53935d1edc7fd64eb21e047a839171b5f80a4600190565b60048114613f64576004549067ffffffffffffffff8211610ae357680100000000000000008211610ae3578054828255808310613f48575b505f908152602081207f8a35acfbc15ff81a39ae7d344fd709f28e8600b4aa8c65c6b64bfe7fe36bd19b80545b848410613f1c575050505050565b600173ffffffffffffffffffffffffffffffffffffffff81921692019384549281850155019290613f0e565b613f5e90825f528360205f2091820191016136d3565b5f613ee1565b50565b5f54805f52602090600560205260405f209081556001906001546001820155426003820155613f9860058201613ea9565b60066002549101555f549160015490604051926060840192845242602085015260606040850152600454809352608084019260045f527f8a35acfbc15ff81a39ae7d344fd709f28e8600b4aa8c65c6b64bfe7fe36bd19b925f905b82821061402857505050505090807faa1a0febc456a9d036bcd1847fc84c9b97135a2b4cecd9050659b628f6e525cb920390a2565b845473ffffffffffffffffffffffffffffffffffffffff168652948501949383019390830190613ff3565b600480548015613acd576001809114614293575f9182917f80000000000000000000000000000000000000000000000000000000000000009083815b6141ab575b505073ffffffffffffffffffffffffffffffffffffffff84169283156141a257600254845f526003602052600560405f200180545f83820393128184128116918413901516176141765755837fffffffffffffffffffffffff00000000000000000000000000000000000000006009541617600955600a55600154916001830180931161414a575060207fe8ce938ca6e1f058a6e0c3f0e2e06eccd88b108a29e1662c7a2c6858002f011491604051908152a390565b6011907f4e487b71000000000000000000000000000000000000000000000000000000005f525260245ffd5b6011857f4e487b71000000000000000000000000000000000000000000000000000000005f525260245ffd5b50505050505f90565b835481101561428e5773ffffffffffffffffffffffffffffffffffffffff6141d2826132a7565b919054600392831b1c1690815f5260205260405f2083600b82015460ff808260081c1615918215614284575b50506142795750600586820154910180545f838201938412911290801582169115161761424d5781905584811361423d575b50508180915b019061408f565b9096509094509150838180614230565b6011877f4e487b71000000000000000000000000000000000000000000000000000000005f525260245ffd5b929050829150614236565b1690505f806141fe565b614094565b505f5273ffffffffffffffffffffffffffffffffffffffff7f8a35acfbc15ff81a39ae7d344fd709f28e8600b4aa8c65c6b64bfe7fe36bd19b541690565b60ff7ff0c57e16840df040f15088dc2f81fe391c3923bec73e23a9662efc9c229c6a005460401c161561430057565b60046040517fd7e6bcf8000000000000000000000000000000000000000000000000000000008152fd5b815191906041830361435a576143539250602082015190606060408401519301515f1a90614449565b9192909190565b50505f9160029190565b600481101561441c5780614376575050565b600181036143a85760046040517ff645eedf000000000000000000000000000000000000000000000000000000008152fd5b600281036143e157602482604051907ffce698f70000000000000000000000000000000000000000000000000000000082526004820152fd5b6003146143eb5750565b602490604051907fd78bce0c0000000000000000000000000000000000000000000000000000000082526004820152fd5b7f4e487b71000000000000000000000000000000000000000000000000000000005f52602160045260245ffd5b91907f7fffffffffffffffffffffffffffffff5d576e7357a4501ddfe92f46681b20a084116144d8579160209360809260ff5f9560405194855216868401526040830152606082015282805260015afa156144cd575f5173ffffffffffffffffffffffffffffffffffffffff8116156144c357905f905f90565b505f906001905f90565b6040513d5f823e3d90fd5b5050505f9160039190565b9061452257508051156144f857805190602001fd5b60046040517f1425ea42000000000000000000000000000000000000000000000000000000008152fd5b8151158061457a575b614533575090565b60249073ffffffffffffffffffffffffffffffffffffffff604051917f9996b315000000000000000000000000000000000000000000000000000000008352166004820152fd5b50803b1561452b56fea264697066735822122024363f2f4a44ee1df6a4473591b6fbb1b754b6b8f4c0a5320159253b6d5cd1bf64736f6c63430008190033","linkReferences":{}},"methodIdentifiers":{"BASIS_POINTS()":"e1f1c4a7","BFT_THRESHOLD_DENOMINATOR()":"ff88db3e","BFT_THRESHOLD_NUMERATOR()":"1ce5a23b","DEFAULT_ADMIN_ROLE()":"a217fddf","DOUBLE_SIGN_SLASH_BPS()":"0a7a2241","DOWNTIME_JAIL_BLOCKS()":"79f1c218","DOWNTIME_SLASH_BPS()":"4134a985","EPOCH_DURATION_BLOCKS()":"fa8f5e96","MAX_TOTAL_VOTING_POWER()":"4adab1a4","MIN_UPTIME_BPS()":"b95f0560","PAUSER_ROLE()":"e63ab1e9","SLASHER_ROLE()":"5095af64","UPGRADE_INTERFACE_VERSION()":"ad3cb1cc","VALIDATOR_MANAGER_ROLE()":"b1b623d8","activeValidators(uint256)":"14f64c78","advanceEpoch()":"3cf80e6c","attestBlock(uint256,bytes32,bytes)":"9bc1b703","attestationPower(bytes32)":"a7405c62","attestations(bytes32,uint256)":"a78c52bb","blockProposals(uint256)":"2ff521eb","currentBlockNumber()":"378ec23b","currentEpoch()":"76671808","currentProposer()":"fe82d082","deactivateValidator(address)":"ba50b879","epochs(uint256)":"c6b61e4c","getActiveValidators()":"9de70258","getActiveValidatorsCount()":"31147c30","getAttestationPower(bytes32)":"42e8cd7f","getAttestations(bytes32)":"37e59e36","getBlockProducer(uint256)":"f575c314","getBlockProposal(uint256)":"7d898f60","getCurrentProposer()":"3b10244b","getEpochInfo(uint256)":"135022c2","getRoleAdmin(bytes32)":"248a9ca3","getValidatorInfo(address)":"8a11d7c9","grantRole(bytes32,address)":"2f2ff15d","hasRole(bytes32,address)":"91d14854","initialize(address,address,address,address,bytes32,string)":"5caf2977","isBlockFinalized(bytes32)":"a5513a13","isValidator(address)":"facd743b","missedBlocks()":"462a4f8e","pause()":"8456cb59","paused()":"5c975abb","proposeBlock(uint256,bytes32,bytes)":"7867e164","proxiableUUID()":"52d1902d","registerValidator(address,bytes32,string,uint256,uint256)":"b3c82fd0","renounceRole(bytes32,address)":"36568abe","revokeRole(bytes32,address)":"d547741f","sequencerRegistry()":"eb90e39f","slashDoubleSign(address,uint256,bytes32,bytes,bytes32,bytes)":"76662c28","slashDowntime(address)":"5ab9d955","stakingContract()":"ee99205c","supportsInterface(bytes4)":"01ffc9a7","totalVotingPower()":"671b3793","unjailValidator(address)":"7cafdd79","unpause()":"3f4ba83a","updateValidatorPower(address,uint256)":"2e75293b","upgradeToAndCall(address,bytes)":"4f1ef286","validators(address)":"fa52c7d8"},"id":123}