{"abi":[{"type":"constructor","inputs":[],"stateMutability":"nonpayable"},{"type":"function","name":"BASIS_POINTS","inputs":[],"outputs":[{"name":"","type":"uint256","internalType":"uint256"}],"stateMutability":"view"},{"type":"function","name":"BFT_THRESHOLD_DENOMINATOR","inputs":[],"outputs":[{"name":"","type":"uint256","internalType":"uint256"}],"stateMutability":"view"},{"type":"function","name":"BFT_THRESHOLD_NUMERATOR","inputs":[],"outputs":[{"name":"","type":"uint256","internalType":"uint256"}],"stateMutability":"view"},{"type":"function","name":"DEFAULT_ADMIN_ROLE","inputs":[],"outputs":[{"name":"","type":"bytes32","internalType":"bytes32"}],"stateMutability":"view"},{"type":"function","name":"DOUBLE_SIGN_SLASH_BPS","inputs":[],"outputs":[{"name":"","type":"uint256","internalType":"uint256"}],"stateMutability":"view"},{"type":"function","name":"DOWNTIME_JAIL_BLOCKS","inputs":[],"outputs":[{"name":"","type":"uint256","internalType":"uint256"}],"stateMutability":"view"},{"type":"function","name":"DOWNTIME_SLASH_BPS","inputs":[],"outputs":[{"name":"","type":"uint256","internalType":"uint256"}],"stateMutability":"view"},{"type":"function","name":"EPOCH_DURATION_BLOCKS","inputs":[],"outputs":[{"name":"","type":"uint256","internalType":"uint256"}],"stateMutability":"view"},{"type":"function","name":"MAX_TOTAL_VOTING_POWER","inputs":[],"outputs":[{"name":"","type":"int256","internalType":"int256"}],"stateMutability":"view"},{"type":"function","name":"MIN_UPTIME_BPS","inputs":[],"outputs":[{"name":"","type":"uint256","internalType":"uint256"}],"stateMutability":"view"},{"type":"function","name":"PAUSER_ROLE","inputs":[],"outputs":[{"name":"","type":"bytes32","internalType":"bytes32"}],"stateMutability":"view"},{"type":"function","name":"SLASHER_ROLE","inputs":[],"outputs":[{"name":"","type":"bytes32","internalType":"bytes32"}],"stateMutability":"view"},{"type":"function","name":"UPGRADE_INTERFACE_VERSION","inputs":[],"outputs":[{"name":"","type":"string","internalType":"string"}],"stateMutability":"view"},{"type":"function","name":"VALIDATOR_MANAGER_ROLE","inputs":[],"outputs":[{"name":"","type":"bytes32","internalType":"bytes32"}],"stateMutability":"view"},{"type":"function","name":"activeValidators","inputs":[{"name":"","type":"uint256","internalType":"uint256"}],"outputs":[{"name":"","type":"address","internalType":"address"}],"stateMutability":"view"},{"type":"function","name":"advanceEpoch","inputs":[],"outputs":[],"stateMutability":"nonpayable"},{"type":"function","name":"attestBlock","inputs":[{"name":"blockNumber","type":"uint256","internalType":"uint256"},{"name":"blockHash","type":"bytes32","internalType":"bytes32"},{"name":"signature","type":"bytes","internalType":"bytes"}],"outputs":[],"stateMutability":"nonpayable"},{"type":"function","name":"attestationPower","inputs":[{"name":"","type":"bytes32","internalType":"bytes32"}],"outputs":[{"name":"","type":"uint256","internalType":"uint256"}],"stateMutability":"view"},{"type":"function","name":"attestations","inputs":[{"name":"","type":"bytes32","internalType":"bytes32"},{"name":"","type":"uint256","internalType":"uint256"}],"outputs":[{"name":"validator","type":"address","internalType":"address"},{"name":"blockHash","type":"bytes32","internalType":"bytes32"},{"name":"signature","type":"bytes","internalType":"bytes"},{"name":"timestamp","type":"uint256","internalType":"uint256"}],"stateMutability":"view"},{"type":"function","name":"blockProposals","inputs":[{"name":"","type":"uint256","internalType":"uint256"}],"outputs":[{"name":"blockNumber","type":"uint256","internalType":"uint256"},{"name":"blockHash","type":"bytes32","internalType":"bytes32"},{"name":"producer","type":"address","internalType":"address"},{"name":"signature","type":"bytes","internalType":"bytes"},{"name":"timestamp","type":"uint256","internalType":"uint256"},{"name":"verified","type":"bool","internalType":"bool"}],"stateMutability":"view"},{"type":"function","name":"currentBlockNumber","inputs":[],"outputs":[{"name":"","type":"uint256","internalType":"uint256"}],"stateMutability":"view"},{"type":"function","name":"currentEpoch","inputs":[],"outputs":[{"name":"","type":"uint256","internalType":"uint256"}],"stateMutability":"view"},{"type":"function","name":"currentProposer","inputs":[],"outputs":[{"name":"","type":"address","internalType":"address"}],"stateMutability":"view"},{"type":"function","name":"deactivateValidator","inputs":[{"name":"validator","type":"address","internalType":"address"}],"outputs":[],"stateMutability":"nonpayable"},{"type":"function","name":"epochs","inputs":[{"name":"","type":"uint256","internalType":"uint256"}],"outputs":[{"name":"epochNumber","type":"uint256","internalType":"uint256"},{"name":"startBlock","type":"uint256","internalType":"uint256"},{"name":"endBlock","type":"uint256","internalType":"uint256"},{"name":"startTime","type":"uint256","internalType":"uint256"},{"name":"endTime","type":"uint256","internalType":"uint256"},{"name":"totalVotingPower","type":"uint256","internalType":"uint256"}],"stateMutability":"view"},{"type":"function","name":"getActiveValidators","inputs":[],"outputs":[{"name":"","type":"address[]","internalType":"address[]"}],"stateMutability":"view"},{"type":"function","name":"getActiveValidatorsCount","inputs":[],"outputs":[{"name":"","type":"uint256","internalType":"uint256"}],"stateMutability":"view"},{"type":"function","name":"getAttestationPower","inputs":[{"name":"blockHash","type":"bytes32","internalType":"bytes32"}],"outputs":[{"name":"","type":"uint256","internalType":"uint256"}],"stateMutability":"view"},{"type":"function","name":"getAttestations","inputs":[{"name":"blockHash","type":"bytes32","internalType":"bytes32"}],"outputs":[{"name":"","type":"tuple[]","internalType":"struct AndeConsensus.Attestation[]","components":[{"name":"validator","type":"address","internalType":"address"},{"name":"blockHash","type":"bytes32","internalType":"bytes32"},{"name":"signature","type":"bytes","internalType":"bytes"},{"name":"timestamp","type":"uint256","internalType":"uint256"}]}],"stateMutability":"view"},{"type":"function","name":"getBlockProducer","inputs":[{"name":"blockNumber","type":"uint256","internalType":"uint256"}],"outputs":[{"name":"","type":"address","internalType":"address"}],"stateMutability":"view"},{"type":"function","name":"getBlockProposal","inputs":[{"name":"blockNumber","type":"uint256","internalType":"uint256"}],"outputs":[{"name":"","type":"tuple","internalType":"struct AndeConsensus.BlockProposal","components":[{"name":"blockNumber","type":"uint256","internalType":"uint256"},{"name":"blockHash","type":"bytes32","internalType":"bytes32"},{"name":"producer","type":"address","internalType":"address"},{"name":"signature","type":"bytes","internalType":"bytes"},{"name":"timestamp","type":"uint256","internalType":"uint256"},{"name":"verified","type":"bool","internalType":"bool"}]}],"stateMutability":"view"},{"type":"function","name":"getCurrentProposer","inputs":[],"outputs":[{"name":"","type":"address","internalType":"address"}],"stateMutability":"view"},{"type":"function","name":"getEpochInfo","inputs":[{"name":"epoch","type":"uint256","internalType":"uint256"}],"outputs":[{"name":"","type":"tuple","internalType":"struct AndeConsensus.EpochInfo","components":[{"name":"epochNumber","type":"uint256","internalType":"uint256"},{"name":"startBlock","type":"uint256","internalType":"uint256"},{"name":"endBlock","type":"uint256","internalType":"uint256"},{"name":"startTime","type":"uint256","internalType":"uint256"},{"name":"endTime","type":"uint256","internalType":"uint256"},{"name":"validators","type":"address[]","internalType":"address[]"},{"name":"totalVotingPower","type":"uint256","internalType":"uint256"}]}],"stateMutability":"view"},{"type":"function","name":"getRoleAdmin","inputs":[{"name":"role","type":"bytes32","internalType":"bytes32"}],"outputs":[{"name":"","type":"bytes32","internalType":"bytes32"}],"stateMutability":"view"},{"type":"function","name":"getValidatorInfo","inputs":[{"name":"validator","type":"address","internalType":"address"}],"outputs":[{"name":"","type":"tuple","internalType":"struct AndeConsensus.ValidatorInfo","components":[{"name":"validator","type":"address","internalType":"address"},{"name":"p2pPeerId","type":"bytes32","internalType":"bytes32"},{"name":"rpcEndpoint","type":"string","internalType":"string"},{"name":"stake","type":"uint256","internalType":"uint256"},{"name":"power","type":"uint256","internalType":"uint256"},{"name":"accumulatedPriority","type":"int256","internalType":"int256"},{"name":"totalBlocksProduced","type":"uint256","internalType":"uint256"},{"name":"totalBlocksMissed","type":"uint256","internalType":"uint256"},{"name":"uptime","type":"uint256","internalType":"uint256"},{"name":"lastBlockProduced","type":"uint256","internalType":"uint256"},{"name":"registeredAt","type":"uint256","internalType":"uint256"},{"name":"jailed","type":"bool","internalType":"bool"},{"name":"active","type":"bool","internalType":"bool"},{"name":"isPermanent","type":"bool","internalType":"bool"}]}],"stateMutability":"view"},{"type":"function","name":"grantRole","inputs":[{"name":"role","type":"bytes32","internalType":"bytes32"},{"name":"account","type":"address","internalType":"address"}],"outputs":[],"stateMutability":"nonpayable"},{"type":"function","name":"hasRole","inputs":[{"name":"role","type":"bytes32","internalType":"bytes32"},{"name":"account","type":"address","internalType":"address"}],"outputs":[{"name":"","type":"bool","internalType":"bool"}],"stateMutability":"view"},{"type":"function","name":"initialize","inputs":[{"name":"defaultAdmin","type":"address","internalType":"address"},{"name":"_stakingContract","type":"address","internalType":"address"},{"name":"_sequencerRegistry","type":"address","internalType":"address"},{"name":"genesisValidator","type":"address","internalType":"address"},{"name":"genesisP2pPeerId","type":"bytes32","internalType":"bytes32"},{"name":"genesisRpcEndpoint","type":"string","internalType":"string"}],"outputs":[],"stateMutability":"nonpayable"},{"type":"function","name":"isBlockFinalized","inputs":[{"name":"blockHash","type":"bytes32","internalType":"bytes32"}],"outputs":[{"name":"","type":"bool","internalType":"bool"}],"stateMutability":"view"},{"type":"function","name":"isValidator","inputs":[{"name":"addr","type":"address","internalType":"address"}],"outputs":[{"name":"","type":"bool","internalType":"bool"}],"stateMutability":"view"},{"type":"function","name":"missedBlocks","inputs":[],"outputs":[{"name":"","type":"uint256","internalType":"uint256"}],"stateMutability":"view"},{"type":"function","name":"pause","inputs":[],"outputs":[],"stateMutability":"nonpayable"},{"type":"function","name":"paused","inputs":[],"outputs":[{"name":"","type":"bool","internalType":"bool"}],"stateMutability":"view"},{"type":"function","name":"proposeBlock","inputs":[{"name":"blockNumber","type":"uint256","internalType":"uint256"},{"name":"blockHash","type":"bytes32","internalType":"bytes32"},{"name":"signature","type":"bytes","internalType":"bytes"}],"outputs":[],"stateMutability":"nonpayable"},{"type":"function","name":"proxiableUUID","inputs":[],"outputs":[{"name":"","type":"bytes32","internalType":"bytes32"}],"stateMutability":"view"},{"type":"function","name":"registerValidator","inputs":[{"name":"validator","type":"address","internalType":"address"},{"name":"p2pPeerId","type":"bytes32","internalType":"bytes32"},{"name":"rpcEndpoint","type":"string","internalType":"string"},{"name":"stake","type":"uint256","internalType":"uint256"},{"name":"power","type":"uint256","internalType":"uint256"}],"outputs":[],"stateMutability":"nonpayable"},{"type":"function","name":"renounceRole","inputs":[{"name":"role","type":"bytes32","internalType":"bytes32"},{"name":"callerConfirmation","type":"address","internalType":"address"}],"outputs":[],"stateMutability":"nonpayable"},{"type":"function","name":"revokeRole","inputs":[{"name":"role","type":"bytes32","internalType":"bytes32"},{"name":"account","type":"address","internalType":"address"}],"outputs":[],"stateMutability":"nonpayable"},{"type":"function","name":"sequencerRegistry","inputs":[],"outputs":[{"name":"","type":"address","internalType":"address"}],"stateMutability":"view"},{"type":"function","name":"slashDoubleSign","inputs":[{"name":"validator","type":"address","internalType":"address"},{"name":"blockNumber","type":"uint256","internalType":"uint256"},{"name":"blockHash1","type":"bytes32","internalType":"bytes32"},{"name":"signature1","type":"bytes","internalType":"bytes"},{"name":"blockHash2","type":"bytes32","internalType":"bytes32"},{"name":"signature2","type":"bytes","internalType":"bytes"}],"outputs":[],"stateMutability":"nonpayable"},{"type":"function","name":"slashDowntime","inputs":[{"name":"validator","type":"address","internalType":"address"}],"outputs":[],"stateMutability":"nonpayable"},{"type":"function","name":"stakingContract","inputs":[],"outputs":[{"name":"","type":"address","internalType":"address"}],"stateMutability":"view"},{"type":"function","name":"supportsInterface","inputs":[{"name":"interfaceId","type":"bytes4","internalType":"bytes4"}],"outputs":[{"name":"","type":"bool","internalType":"bool"}],"stateMutability":"view"},{"type":"function","name":"totalVotingPower","inputs":[],"outputs":[{"name":"","type":"uint256","internalType":"uint256"}],"stateMutability":"view"},{"type":"function","name":"unjailValidator","inputs":[{"name":"validator","type":"address","internalType":"address"}],"outputs":[],"stateMutability":"nonpayable"},{"type":"function","name":"unpause","inputs":[],"outputs":[],"stateMutability":"nonpayable"},{"type":"function","name":"updateValidatorPower","inputs":[{"name":"validator","type":"address","internalType":"address"},{"name":"newPower","type":"uint256","internalType":"uint256"}],"outputs":[],"stateMutability":"nonpayable"},{"type":"function","name":"upgradeToAndCall","inputs":[{"name":"newImplementation","type":"address","internalType":"address"},{"name":"data","type":"bytes","internalType":"bytes"}],"outputs":[],"stateMutability":"payable"},{"type":"function","name":"validators","inputs":[{"name":"","type":"address","internalType":"address"}],"outputs":[{"name":"validator","type":"address","internalType":"address"},{"name":"p2pPeerId","type":"bytes32","internalType":"bytes32"},{"name":"rpcEndpoint","type":"string","internalType":"string"},{"name":"stake","type":"uint256","internalType":"uint256"},{"name":"power","type":"uint256","internalType":"uint256"},{"name":"accumulatedPriority","type":"int256","internalType":"int256"},{"name":"totalBlocksProduced","type":"uint256","internalType":"uint256"},{"name":"totalBlocksMissed","type":"uint256","internalType":"uint256"},{"name":"uptime","type":"uint256","internalType":"uint256"},{"name":"lastBlockProduced","type":"uint256","internalType":"uint256"},{"name":"registeredAt","type":"uint256","internalType":"uint256"},{"name":"jailed","type":"bool","internalType":"bool"},{"name":"active","type":"bool","internalType":"bool"},{"name":"isPermanent","type":"bool","internalType":"bool"}],"stateMutability":"view"},{"type":"event","name":"BlockAttested","inputs":[{"name":"blockNumber","type":"uint256","indexed":true,"internalType":"uint256"},{"name":"blockHash","type":"bytes32","indexed":true,"internalType":"bytes32"},{"name":"validator","type":"address","indexed":true,"internalType":"address"},{"name":"totalPower","type":"uint256","indexed":false,"internalType":"uint256"}],"anonymous":false},{"type":"event","name":"BlockFinalized","inputs":[{"name":"blockNumber","type":"uint256","indexed":true,"internalType":"uint256"},{"name":"blockHash","type":"bytes32","indexed":true,"internalType":"bytes32"},{"name":"totalPower","type":"uint256","indexed":false,"internalType":"uint256"},{"name":"threshold","type":"uint256","indexed":false,"internalType":"uint256"}],"anonymous":false},{"type":"event","name":"BlockProposed","inputs":[{"name":"blockNumber","type":"uint256","indexed":true,"internalType":"uint256"},{"name":"blockHash","type":"bytes32","indexed":true,"internalType":"bytes32"},{"name":"producer","type":"address","indexed":true,"internalType":"address"},{"name":"timestamp","type":"uint256","indexed":false,"internalType":"uint256"}],"anonymous":false},{"type":"event","name":"EpochEnded","inputs":[{"name":"epoch","type":"uint256","indexed":true,"internalType":"uint256"},{"name":"endBlock","type":"uint256","indexed":false,"internalType":"uint256"},{"name":"endTime","type":"uint256","indexed":false,"internalType":"uint256"}],"anonymous":false},{"type":"event","name":"EpochStarted","inputs":[{"name":"epoch","type":"uint256","indexed":true,"internalType":"uint256"},{"name":"startBlock","type":"uint256","indexed":false,"internalType":"uint256"},{"name":"startTime","type":"uint256","indexed":false,"internalType":"uint256"},{"name":"validators","type":"address[]","indexed":false,"internalType":"address[]"}],"anonymous":false},{"type":"event","name":"Initialized","inputs":[{"name":"version","type":"uint64","indexed":false,"internalType":"uint64"}],"anonymous":false},{"type":"event","name":"Paused","inputs":[{"name":"account","type":"address","indexed":false,"internalType":"address"}],"anonymous":false},{"type":"event","name":"ProposerSelected","inputs":[{"name":"blockNumber","type":"uint256","indexed":true,"internalType":"uint256"},{"name":"proposer","type":"address","indexed":true,"internalType":"address"},{"name":"priority","type":"int256","indexed":false,"internalType":"int256"}],"anonymous":false},{"type":"event","name":"RoleAdminChanged","inputs":[{"name":"role","type":"bytes32","indexed":true,"internalType":"bytes32"},{"name":"previousAdminRole","type":"bytes32","indexed":true,"internalType":"bytes32"},{"name":"newAdminRole","type":"bytes32","indexed":true,"internalType":"bytes32"}],"anonymous":false},{"type":"event","name":"RoleGranted","inputs":[{"name":"role","type":"bytes32","indexed":true,"internalType":"bytes32"},{"name":"account","type":"address","indexed":true,"internalType":"address"},{"name":"sender","type":"address","indexed":true,"internalType":"address"}],"anonymous":false},{"type":"event","name":"RoleRevoked","inputs":[{"name":"role","type":"bytes32","indexed":true,"internalType":"bytes32"},{"name":"account","type":"address","indexed":true,"internalType":"address"},{"name":"sender","type":"address","indexed":true,"internalType":"address"}],"anonymous":false},{"type":"event","name":"Unpaused","inputs":[{"name":"account","type":"address","indexed":false,"internalType":"address"}],"anonymous":false},{"type":"event","name":"Upgraded","inputs":[{"name":"implementation","type":"address","indexed":true,"internalType":"address"}],"anonymous":false},{"type":"event","name":"ValidatorJailed","inputs":[{"name":"validator","type":"address","indexed":true,"internalType":"address"},{"name":"reason","type":"string","indexed":false,"internalType":"string"},{"name":"timestamp","type":"uint256","indexed":false,"internalType":"uint256"}],"anonymous":false},{"type":"event","name":"ValidatorSetUpdated","inputs":[{"name":"epoch","type":"uint256","indexed":true,"internalType":"uint256"},{"name":"validators","type":"address[]","indexed":false,"internalType":"address[]"},{"name":"powers","type":"uint256[]","indexed":false,"internalType":"uint256[]"},{"name":"totalPower","type":"uint256","indexed":false,"internalType":"uint256"}],"anonymous":false},{"type":"event","name":"ValidatorSlashed","inputs":[{"name":"validator","type":"address","indexed":true,"internalType":"address"},{"name":"amount","type":"uint256","indexed":false,"internalType":"uint256"},{"name":"reason","type":"string","indexed":false,"internalType":"string"},{"name":"timestamp","type":"uint256","indexed":false,"internalType":"uint256"}],"anonymous":false},{"type":"event","name":"ValidatorUnjailed","inputs":[{"name":"validator","type":"address","indexed":true,"internalType":"address"},{"name":"timestamp","type":"uint256","indexed":false,"internalType":"uint256"}],"anonymous":false},{"type":"error","name":"AccessControlBadConfirmation","inputs":[]},{"type":"error","name":"AccessControlUnauthorizedAccount","inputs":[{"name":"account","type":"address","internalType":"address"},{"name":"neededRole","type":"bytes32","internalType":"bytes32"}]},{"type":"error","name":"AddressEmptyCode","inputs":[{"name":"target","type":"address","internalType":"address"}]},{"type":"error","name":"BlockAlreadyProposed","inputs":[{"name":"blockNumber","type":"uint256","internalType":"uint256"}]},{"type":"error","name":"DoubleSign","inputs":[{"name":"validator","type":"address","internalType":"address"},{"name":"blockNumber","type":"uint256","internalType":"uint256"}]},{"type":"error","name":"ECDSAInvalidSignature","inputs":[]},{"type":"error","name":"ECDSAInvalidSignatureLength","inputs":[{"name":"length","type":"uint256","internalType":"uint256"}]},{"type":"error","name":"ECDSAInvalidSignatureS","inputs":[{"name":"s","type":"bytes32","internalType":"bytes32"}]},{"type":"error","name":"ERC1967InvalidImplementation","inputs":[{"name":"implementation","type":"address","internalType":"address"}]},{"type":"error","name":"ERC1967NonPayable","inputs":[]},{"type":"error","name":"EnforcedPause","inputs":[]},{"type":"error","name":"EpochNotEnded","inputs":[]},{"type":"error","name":"ExpectedPause","inputs":[]},{"type":"error","name":"FailedInnerCall","inputs":[]},{"type":"error","name":"InsufficientVotingPower","inputs":[{"name":"have","type":"uint256","internalType":"uint256"},{"name":"need","type":"uint256","internalType":"uint256"}]},{"type":"error","name":"InvalidBlockNumber","inputs":[{"name":"expected","type":"uint256","internalType":"uint256"},{"name":"actual","type":"uint256","internalType":"uint256"}]},{"type":"error","name":"InvalidInitialization","inputs":[]},{"type":"error","name":"InvalidSignature","inputs":[]},{"type":"error","name":"InvalidVotingPower","inputs":[]},{"type":"error","name":"NotDesignatedProposer","inputs":[{"name":"expected","type":"address","internalType":"address"},{"name":"actual","type":"address","internalType":"address"}]},{"type":"error","name":"NotInitializing","inputs":[]},{"type":"error","name":"ReentrancyGuardReentrantCall","inputs":[]},{"type":"error","name":"UUPSUnauthorizedCallContext","inputs":[]},{"type":"error","name":"UUPSUnsupportedProxiableUUID","inputs":[{"name":"slot","type":"bytes32","internalType":"bytes32"}]},{"type":"error","name":"ValidatorIsJailed","inputs":[{"name":"validator","type":"address","internalType":"address"}]},{"type":"error","name":"ValidatorNotActive","inputs":[{"name":"validator","type":"address","internalType":"address"}]},{"type":"error","name":"ValidatorNotFound","inputs":[{"name":"validator","type":"address","internalType":"address"}]}],"bytecode":{"object":"0x60a0806040523460c857306080527ff0c57e16840df040f15088dc2f81fe391c3923bec73e23a9662efc9c229c6a009081549060ff8260401c1660b957506001600160401b036002600160401b0319828216016075575b60405161386a90816100cd8239608051818181611da60152611e990152f35b6001600160401b031990911681179091556040519081527fc7f505b2f371ae2175ee4913f4499e1f2633a7b5936321eed1cdaeb6115181d290602090a15f80806056565b63f92ee8a960e01b8152600490fd5b5f80fdfe6080806040526004361015610012575f80fd5b5f3560e01c90816301ffc9a7146128cd575080630a7a2241146128b1578063135022c21461274457806314f64c78146127025780631ce5a23b146126e7578063248a9ca3146126ae5780632e75293b146125d85780632f2ff15d1461258f5780632ff521eb1461250257806331147c30146124e557806336568abe1461249e578063378ec23b1461248157806337e59e36146123465780633b10244b146102c45780633cf80e6c1461218b5780633f4ba83a146121165780634134a985146120fa57806342e8cd7f14610aa3578063462a4f8e146120dd5780634adab1a4146120bb5780634f1ef28614611e4a5780635095af6414611e1057806352d1902d14611d945780635ab9d95514611c2d5780635c975abb14611bff5780635caf2977146118c0578063671b3793146118a357806376662c2814611639578063766718081461161d5780637867e164146112dc57806379f1c218146112c05780637cafdd79146112975780637d898f60146111955780638456cb59146111305780638a11d7c914610f2657806391d1485414610ed15780639bc1b70314610bac5780639de7025814610b38578063a217fddf14610b1e578063a5513a1314610acd578063a7405c6214610aa3578063a78c52bb14610a18578063ad3cb1cc146109bd578063b1b623d814610983578063b3c82fd014610774578063b95f056014610758578063ba50b879146105e1578063c6b61e4c14610580578063d547741f14610535578063e1f1c4a714610519578063e63ab1e9146104df578063eb90e39f146104b7578063ee99205c1461048f578063f575c3141461045f578063fa52c7d814610362578063fa8f5e9614610345578063facd743b146102ec578063fe82d082146102c45763ff88db3e146102a5575f80fd5b346102c0575f3660031901126102c057602060405160038152f35b5f80fd5b346102c0575f3660031901126102c0576009546040516001600160a01b039091168152602090f35b346102c05760203660031901126102c05760206001600160a01b0380610310612942565b165f526003825260405f209081541615159081610333575b506040519015158152f35b60ff9150600b015460081c1682610328565b346102c0575f3660031901126102c0576020604051623b53808152f35b346102c05760203660031901126102c0576001600160a01b0380610384612942565b165f5260036020526040805f20918254169160ff60018201548351926103b8846103b181600285016129a6565b0385612abf565b60038101549360048201546005830154600684015460078501549160088601549361040a600988015496600b600a8a0154990154998d519e8f9e8f6101c09384938252602082015201528d0190612ae0565b9960608c015260808b015260a08a015260c089015260e08801526101008701526101208601526101408501528181161515610160850152818160081c16151561018085015260101c1615156101a08301520390f35b346102c05760203660031901126102c057602061047d600435612d4e565b6040516001600160a01b039091168152f35b346102c0575f3660031901126102c057600c546040516001600160a01b039091168152602090f35b346102c0575f3660031901126102c057600d546040516001600160a01b039091168152602090f35b346102c0575f3660031901126102c05760206040517f65d7a28e3265b37a6474929f336521b332c1681b933f6cb9f3376673440d862a8152f35b346102c0575f3660031901126102c05760206040516127108152f35b346102c05760403660031901126102c05761057e600435610554612958565b90805f525f805160206137b5833981519152602052610579600160405f200154612eaf565b6131fa565b005b346102c05760203660031901126102c0576004355f52600560205260c060405f2080549060018101549060028101546003820154906006600484015493015493604051958652602086015260408501526060840152608083015260a0820152f35b346102c05760203660031901126102c0576105fa612942565b610602612d80565b60018060a01b03809116805f52600391600360205260405f20818154161561073f57600b8101805460ff8160101c166107265761ff00191690556004015460025461064d9190612c22565b6002555f5b6004548082101561071c57838361066884612920565b905490881b1c161461067d5750600101610652565b9192505f199182810191908211610708576106ab8461069e6106c994612920565b905490881b1c1691612920565b90919060018060a01b038084549260031b9316831b921b1916179055565b60045480156106f45701916106dd83612920565b81939154921b1b191690556004555b61057e6133df565b634e487b7160e01b5f52603160045260245ffd5b634e487b7160e01b5f52601160045260245ffd5b50505050506106ec565b604051630b9d292560e41b815260048101869052602490fd5b604051635a4887e160e01b815260048101849052602490fd5b346102c0575f3660031901126102c05760206040516126ac8152f35b346102c05760a03660031901126102c05761078d612942565b6001600160401b036044358181116102c0576107ad903690600401612b55565b91608435926107ba612d80565b6107c2612edd565b60018060a01b0380861693845f52602091600360205260405f20541661096a5785158015610959575b61094757845f52600360205260405f20946001600160601b0360a01b86541617855560016024356001870155600286019484116109335761083684610830875461296e565b87612c77565b5f92601f85116001146108c15750509261087283600b946108a397946108ab9a975f926108b6575b50508160011b915f199060031b1c19161790565b90555b60643560038201558460048201555f600582015542600a8201550161010062ffff0019825416179055612d2b565b600254612c2f565b60025561057e6133df565b013590508a8061085e565b5f868152602081209492601f19871692905b83831061091c57505050936108a396936108ab99969360019383600b9810610903575b505050811b019055610875565b01355f19600384901b60f8161c191690558980806108f6565b8585013587559586019593810193918101916108d3565b634e487b7160e01b5f52604160045260245ffd5b604051631ee7b5bd60e21b8152600490fd5b50677fffffffffffffff86116107eb565b604051635a4887e160e01b815260048101869052602490fd5b346102c0575f3660031901126102c05760206040517f87421e189bd94dc1673f0d5255fa9f0cb8ff65bb74e34e0a80b07e9f0b4e34d58152f35b346102c0575f3660031901126102c05760405160408101908082106001600160401b0383111761093357610a149160405260058152640352e302e360dc1b6020820152604051918291602083526020830190612ae0565b0390f35b346102c05760403660031901126102c0576024356004355f52600760205260405f209081548110156102c057610a4d91612bb8565b5060018060a01b03815416600182015491610a99600360405192610a78846103b181600285016129a6565b01549160405194859485526020850152608060408501526080840190612ae0565b9060608301520390f35b346102c05760203660031901126102c0576004355f526008602052602060405f2054604051908152f35b346102c05760203660031901126102c0576002548060011b9080820460021490151715610708576003900460018101809111610708576020906004355f526008825260405f20541015604051908152f35b346102c0575f3660031901126102c05760206040515f8152f35b346102c0575f3660031901126102c057604051610b5f81610b5881612bd1565b0382612abf565b604051809160208083016020845282518091526020604085019301915f5b828110610b8c57505050500390f35b83516001600160a01b031685528695509381019392810192600101610b7d565b346102c057610bba36612b82565b90610bc6939293612edd565b335f526020906003825260405f2090600b82015460ff8160081c1615610eb95760ff16610ea1576040518381019086825287604082015260408152610c0a81612aa4565b5190207f19457468657265756d205369676e6564204d6573736167653a0a3332000000005f52601c52610c57610c4e603c5f20610c48368886612b1f565b906135e7565b90929192613621565b6001600160a01b03903390821603610e8f57865f526007845260405f2094610c9660405193610c8585612a52565b338552868501928a84523691612b1f565b906040840191825260608401924284528754600160401b81101561093357610cc5906001998a82018155612bb8565b959095610e7c575185546001600160a01b0319169116178455518684015551805160028401916001600160401b03821161093357610d0d82610d07855461296e565b85612c77565b8690601f8311600114610e11578260049796959360039593610d43935f92610e065750508160011b915f199060031b1c19161790565b90555b519101550154845f5260088252610d6260405f20918254612c2f565b9055835f526008815260405f205460405190815284847f925ef2b40a2bd604e5dd747fc38b64bfa1dafdeabc12b86e2b1bfd40ffabfb84843394a460025480831b9080820460021490151715610708576003900491820180921161070857835f526008815260405f205482811015610dd657005b7f93b89a1a93b9d108091d2250fc662991c2a084e44d6690fbc59968bbf93efefd926040928351928352820152a3005b015190508d8061085e565b889291601f19831691855f52895f20925f5b8b828210610e6657505091600499989795939185600398969410610e4f575b505050811b019055610d46565b01515f1983881b60f8161c191690558c8080610e42565b8385015186558d97909501949384019301610e23565b634e487b7160e01b5f525f60045260245ffd5b604051638baa579f60e01b8152600490fd5b604051637ca2f4a960e01b8152336004820152602490fd5b604051630b9d292560e41b8152336004820152602490fd5b346102c05760403660031901126102c057610eea612958565b6004355f525f805160206137b583398151915260205260405f209060018060a01b03165f52602052602060ff60405f2054166040519015158152f35b346102c05760203660031901126102c057610f3f612942565b5f6101a0604051610f4f81612a88565b828152826020820152606060408201528260608201528260808201528260a08201528260c08201528260e08201528261010082015282610120820152826101408201528261016082015282610180820152015260018060a01b03165f52600360205260405f2060ff600b60405192610fc684612a88565b80546001600160a01b0316845260018101546020850152604051610ff181610b5881600286016129a6565b60408501526003810154606085015260048101546080850152600581015460a0850152600681015460c0850152600781015460e085015260088101546101008501526009810154610120850152600a81015461014085015201548181161515610160840152818160081c16151561018084015260101c1615156101a082015260405180916020825260018060a01b038151166020830152602081015160408301526101a06110b060408301516101c060608601526101e0850190612ae0565b9160608101516080850152608081015160a085015260a081015160c085015260c081015160e085015260e08101516101008501526101008101516101208501526101208101516101408501526101408101516101608501526101608101511515610180850152610180810151151582850152015115156101c08301520390f35b346102c0575f3660031901126102c057611148612df9565b611150612edd565b5f805160206137d5833981519152600160ff198254161790557f62e78cea01bee320cd4e420270b5ea74000d11b0c9f74754ebdbfc544b05a2586020604051338152a1005b346102c0576020806003193601126102c0575f60a06040516111b681612a6d565b828152828482015282604082015260608082015282608082015201526004355f526006815260405f20604051906111ec82612a6d565b80548252600181015483830190815260028201546001600160a01b039081166040808601918252516112849290916112328361122b8160038a016129a6565b0384612abf565b6060870192835260ff600560048801549760808a019889520154169460a088019515158652604051988998818a525190890152516040880152511660608601525160c0608086015260e0850190612ae0565b915160a084015251151560c08301520390f35b346102c05760203660031901126102c05761057e6112b3612942565b6112bb612d80565b612cbc565b346102c0575f3660031901126102c05760206040516103e88152f35b346102c0576112ea36612b82565b6112f2612edd565b60025f80516020613815833981519152541461160b5760025f805160206138158339815191525560015460018101809111610708578085036115ed57505f848152600660205260409020600201546001600160a01b03929083166115d45782600954168033036115b65750335f52600360205260405f2092600b84015460ff8160081c1615610eb95760ff16610ea1576040516020810190878252866040820152604081526113a081612aa4565b5190207f19457468657265756d205369676e6564204d6573736167653a0a3332000000005f52601c526113de610c4e603c5f20610c48368787612b1f565b8133911603610e8f57604051926113f484612a6d565b868452611411602085019387855260408601923384523691612b1f565b9160608501928352426080860152600160a0860152875f52600660205260405f209385518555516001850155600284019151166001600160601b0360a01b825416179055518051906001600160401b0382116109335761148182611478600386015461296e565b60038601612c77565b602090601f8311600114611545578260059360a095936114b5935f9261153a5750508160011b915f199060031b1c19161790565b60038201555b6080840151600482015501910151151560ff80198354169116179055600681016114e58154612c53565b9055600942910155816001556114f96133df565b50604051914283527fa167896f9c84808ae49655f45265c2860fa9024c1ce49452d0121caf0c93e71c60203394a460015f8051602061381583398151915255005b015190508a8061085e565b90600384015f5260205f20915f5b601f198516811061159e57509260a0949260019260059583601f19811610611586575b505050811b0160038201556114bb565b01515f1960f88460031b161c19169055898080611576565b91926020600181928685015181550194019201611553565b60449060405190631275bcb760e21b82526004820152336024820152fd5b60405163326f1a4d60e11b815260048101869052602490fd5b604490856040519163d5dc642d60e01b835260048301526024820152fd5b604051633ee5aeb560e01b8152600490fd5b346102c0575f3660031901126102c05760205f54604051908152f35b346102c05760c03660031901126102c057611652612942565b60243590604435606435916001600160401b03928381116102c05761167b903690600401612b55565b9190946084359460a4359081116102c05761169a903690600401612b55565b9490916116a5612e54565b60018060a01b0380941697885f52600360205260405f2097858954161561188a576040516020810190848252856040820152604081526116e481612aa4565b51902092604051602081019182528260408201526040815261170581612aa4565b5190209314610e8f5761178196610c488a979587956117679561175e8b99610c48611778987f19457468657265756d205369676e6564204d6573736167653a0a33320000000094855f52601c52603c5f20923691612b1f565b90989198613621565b5f52601c52603c5f20923691612b1f565b90979197613621565b16149283159361187d575b505050610e8f576003810180546113888082029082820414821517156107085784937f6122b6e3c2260123744d4ac36297c96185ce8b0f7ca2760c09c30a46c3d9dcae936117e1612710600b94048095612c22565b905501805461ffff1916600117905560408051918252606060208301819052600b908301526a2237bab136329039b4b3b760a91b6080830152429082015260a090a27f2f312d0546b0a2cdb051028de9041f76dd85d9a260cbb3fe7107ea398f2f6a8b604051604081528061187260408201604090600b81526a2237bab136329039b4b3b760a91b60208201520190565b4260208301520390a2005b161415905082848061178c565b604051635a4887e160e01b8152600481018b9052602490fd5b346102c0575f3660031901126102c0576020600254604051908152f35b346102c05760c03660031901126102c0576118d9612942565b6118e1612958565b6044356001600160a01b03818116918290036102c05760643592818416908185036102c0576001600160401b039460a4358681116102c057611927903690600401612b55565b97907ff0c57e16840df040f15088dc2f81fe391c3923bec73e23a9662efc9c229c6a009889549760ff8960401c1615978a8a16998a1580611bf8575b6001809c149081611bee575b159081611be5575b50611bd357611a42958d611a15928c8e6001600160401b03198316178355611bb3575b50506119a46135a6565b6119ac6135a6565b6119b46135a6565b6119bc6135a6565b5f805160206137d5833981519152805460ff191690556119da6135a6565b6119e26135a6565b8b5f80516020613815833981519152556119fb81612f07565b50611a0581612f91565b50611a0f8161303e565b506130e4565b506001600160601b0360a01b961686600c541617600c5585600d541617600d55875f555f88553691612b1f565b95835f526020966003885260405f20918585845416178355608435888401556002830191805191821161093357611a7d82610d07855461296e565b8990601f8311600114611b455782611ae4969593600b9593611ab3935f92611b3a5750508160011b915f199060031b1c19161790565b90555b5f6003820155606460048201555f600582015542600a820155016201010062ffff0019825416179055612d2b565b60646002556009541617600955611af9613313565b611aff57005b7fc7f505b2f371ae2175ee4913f4499e1f2633a7b5936321eed1cdaeb6115181d29268ff0000000000000000198154169055604051908152a1005b015190508e8061085e565b899291601f19831691855f528c5f20928d5f905b828210611b9c57505091611ae4989795939185600b98969410611b84575b505050811b019055611ab6565b01515f1960f88460031b161c191690558d8080611b77565b8385015186558e979095019493840193018e611b59565b68ffffffffffffffffff1916680100000000000000011790558d8f61199a565b60405163f92ee8a960e01b8152600490fd5b9050158e611977565b303b15915061196f565b5089611963565b346102c0575f3660031901126102c057602060ff5f805160206137d583398151915254166040519015158152f35b346102c05760203660031901126102c057611c46612942565b611c4e612e54565b6001600160a01b039081165f8181526003602052604090208054919290911615611d7b5760088101546126ac80821015611d5d5750506003810180546101f48082029082820414821517156107085784937f6122b6e3c2260123744d4ac36297c96185ce8b0f7ca2760c09c30a46c3d9dcae93611cd2612710600b94048095612c22565b905501805461ffff191660011790556040805191825260606020830181905260089083015267446f776e74696d6560c01b6080830152429082015260a090a27f2f312d0546b0a2cdb051028de9041f76dd85d9a260cbb3fe7107ea398f2f6a8b6040516040815280611872604082016040906008815267446f776e74696d6560c01b60208201520190565b6044925060405191632ed8c74760e11b835260048301526024820152fd5b604051635a4887e160e01b815260048101839052602490fd5b346102c0575f3660031901126102c0577f00000000000000000000000000000000000000000000000000000000000000006001600160a01b03163003611dfe5760206040517f360894a13ba1a3210667c828492db98dca3e2076cc3735a920a3ca505d382bbc8152f35b60405163703e46dd60e11b8152600490fd5b346102c0575f3660031901126102c05760206040517f12b42e8a160f6064dc959c6f251e3af0750ad213dbecf573b4710d67d6c28e398152f35b60403660031901126102c057611e5e612942565b60249081356001600160401b0381116102c057366023820112156102c057611e8f9036908481600401359101612b1f565b6001600160a01b037f0000000000000000000000000000000000000000000000000000000000000000811630811490811561208d575b50611dfe57335f9081527fb7db2dd08fcb62d0c9e08c51941cae53c267786a0b75803fb7960902fc8ef97d602090815260409091205490919060ff1615612070578316926040516352d1902d60e01b81528281600481885afa5f9181612041575b50611f4357604051634c9c8ce360e01b8152600481018690528690fd5b8490867f360894a13ba1a3210667c828492db98dca3e2076cc3735a920a3ca505d382bbc9182810361202c5750833b15612016575080546001600160a01b03191682179055604051907fbc7cd75a20ee27fd9adebab32041f755214dbc6bffa90cc0225b39da2e5c2d3b5f80a2835115611ffc57505f80848461057e96519101845af4903d15611ff3573d611fd781612b04565b90611fe56040519283612abf565b81525f81943d92013e613731565b60609250613731565b925050503461200757005b63b398979f60e01b8152600490fd5b604051634c9c8ce360e01b815260048101849052fd5b60405190632a87526960e21b82526004820152fd5b9091508381813d8311612069575b6120598183612abf565b810103126102c057519087611f26565b503d61204f565b60405163e2517d3f60e01b81523360048201525f81870152604490fd5b9050817f360894a13ba1a3210667c828492db98dca3e2076cc3735a920a3ca505d382bbc5416141585611ec5565b346102c0575f3660031901126102c0576020604051670fffffffffffffff8152f35b346102c0575f3660031901126102c0576020600b54604051908152f35b346102c0575f3660031901126102c05760206040516101f48152f35b346102c0575f3660031901126102c05761212e612df9565b5f805160206137d5833981519152805460ff8116156121795760ff191690557f5db9ee0a495bf2e6ff9c91a7834c1ba4fdd244a5e8aa4e537bd38aeae4b073aa6020604051338152a1005b604051638dfc202b60e01b8152600490fd5b346102c0575f3660031901126102c0576121a3612d80565b5f545f52600560206005815260405f20906001916001546001820154623b538081018091116107085781106123345760028201556004429101556122195f54807f469dcd0c8170c8faf3678737ed5cc64107d6d30846f97438a0feefacbed00ec2604060015481519081524287820152a2612c53565b5f55612223613313565b60045461222f81612c3c565b9061223d6040519283612abf565b80825261224981612c3c565b8284019590601f19013687375f5b8281106122db5750505090915f54926002549160405193606085528261227f60608701612bd1565b918683038288015251918281520196925f5b8281106122c857877ff401f5a770121fc0f928a49d6d2bbd6210392212fde4d7421059b944afba516588808c8a60408301520390a2005b8451895297810197938101938301612291565b6122e481612920565b9054600391821b1c6001600160a01b03165f908152908652604090206004015484519091908110156123205786918682851b8701015201612257565b634e487b7160e01b5f52603260045260245ffd5b60405163756b785760e01b8152600490fd5b346102c0576020806003193601126102c0576004355f526007815260405f209081549161237283612c3c565b926123806040519485612abf565b80845282840180925f52835f205f915b8383106124255750505050604051918083019381845251809452604083019360408160051b85010192915f955b8287106123ca5785850386f35b909192938280600192603f1989820301855287519061240b6080868060a01b0384511683528484015185840152604084015190806040850152830190612ae0565b9160608091015191015296019201960195929190926123bd565b60048660019260409998995161243a81612a52565b848060a01b038654168152848601548382015260405161246181610b588160028b016129a6565b604082015260038601546060820152815201920192019190959495612390565b346102c0575f3660031901126102c0576020600154604051908152f35b346102c05760403660031901126102c0576124b7612958565b336001600160a01b038216036124d35761057e906004356131fa565b60405163334bd91960e11b8152600490fd5b346102c0575f3660031901126102c0576020600454604051908152f35b346102c05760203660031901126102c0576004355f52600660205260405f20805460018201549160018060a01b0360028201541661257e60405161254d81610b5881600388016129a6565b60ff60056004860154950154169260405196879687526020870152604086015260c0606086015260c0850190612ae0565b916080840152151560a08301520390f35b346102c05760403660031901126102c05761057e6004356125ae612958565b90805f525f805160206137b58339815191526020526125d3600160405f200154612eaf565b61318a565b346102c05760403660031901126102c0576125f1612942565b602435906125fd612d80565b612605612edd565b6001600160a01b039081165f8181526003602052604090208054909216156126965760ff600b83015460081c161561267e57508115801561266d575b610947576126618261265c6004600254940193845490612c22565b612c2f565b6002555561057e6133df565b50677fffffffffffffff8211612641565b60249060405190630b9d292560e41b82526004820152fd5b60249060405190635a4887e160e01b82526004820152fd5b346102c05760203660031901126102c0576004355f525f805160206137b58339815191526020526020600160405f200154604051908152f35b346102c0575f3660031901126102c057602060405160028152f35b346102c05760203660031901126102c0576004356004548110156102c05761272b602091612920565b905460405160039290921b1c6001600160a01b03168152f35b346102c0576020806003193601126102c0575f60c060405161276581612a37565b8281528284820152826040820152826060820152826080820152606060a082015201526004355f526005815260405f20906040516127a281612a37565b825481526001926001810154928083019384526002820154916040840192835260038101546060850190815260048201549060808601918252600583019260405193848682549182815201915f52865f20908b5f5b828110612895575050505090612811856006930386612abf565b60a0880194855201549460c087019586526040519785895261010089019751868a01525160408901525160608801525160808701525160a0860152519260e060c086015283518091528161012086019401915f5b82811061287957845160e088015286860387f35b83516001600160a01b0316865294810194928101928701612865565b83546001600160a01b03168552938901939281019281016127f7565b346102c0575f3660031901126102c05760206040516113888152f35b346102c05760203660031901126102c0576004359063ffffffff60e01b82168092036102c057602091637965db0b60e01b811490811561290f575b5015158152f35b6301ffc9a760e01b14905083612908565b6004548110156123205760045f525f805160206137f583398151915201905f90565b600435906001600160a01b03821682036102c057565b602435906001600160a01b03821682036102c057565b90600182811c9216801561299c575b602083101461298857565b634e487b7160e01b5f52602260045260245ffd5b91607f169161297d565b80545f93926129b48261296e565b918282526020936001916001811690815f14612a1857506001146129da575b5050505050565b90939495505f92919252835f2092845f945b838610612a0457505050500101905f808080806129d3565b8054858701830152940193859082016129ec565b60ff19168685015250505090151560051b010191505f808080806129d3565b60e081019081106001600160401b0382111761093357604052565b608081019081106001600160401b0382111761093357604052565b60c081019081106001600160401b0382111761093357604052565b6101c081019081106001600160401b0382111761093357604052565b606081019081106001600160401b0382111761093357604052565b90601f801991011681019081106001600160401b0382111761093357604052565b805180835260209291819084018484015e5f828201840152601f01601f1916010190565b6001600160401b03811161093357601f01601f191660200190565b929192612b2b82612b04565b91612b396040519384612abf565b8294818452818301116102c0578281602093845f960137010152565b9181601f840112156102c0578235916001600160401b0383116102c057602083818601950101116102c057565b60606003198201126102c0576004359160243591604435906001600160401b0382116102c057612bb491600401612b55565b9091565b8054821015612320575f5260205f209060021b01905f90565b6004549081815260208091019160045f525f805160206137f5833981519152915f905b828210612c02575050505090565b83546001600160a01b031685529384019360019384019390910190612bf4565b9190820391821161070857565b9190820180921161070857565b6001600160401b0381116109335760051b60200190565b5f1981146107085760010190565b818110612c6c575050565b5f8155600101612c61565b9190601f8111612c8657505050565b612cb0925f5260205f20906020601f840160051c83019310612cb2575b601f0160051c0190612c61565b565b9091508190612ca3565b6001600160a01b039081165f8181526003602052604090208054919290911615611d7b57600b01805460ff811615612d26576101009061ffff19161790557f6bb2436cb6b6eb65d5a52fac2ae0373a77ade6661e523ef3004ee2d5524e6c6e6020604051428152a2565b505050565b60045490600160401b821015610933576106ab826001612cb09401600455612920565b60015490600182018092116107085714612d71576009546001600160a01b031690565b6009546001600160a01b031690565b335f9081527f453a6d943a8ce2b55346a57be9edb3b5a9c9eacff8947d1529361145ee8b887360205260409020547f87421e189bd94dc1673f0d5255fa9f0cb8ff65bb74e34e0a80b07e9f0b4e34d59060ff1615612ddb5750565b6044906040519063e2517d3f60e01b82523360048301526024820152fd5b335f9081527f75442b0a96088b5456bc4ed01394c96a4feec0f883c9494257d76b96ab1c9b6b60205260409020547f65d7a28e3265b37a6474929f336521b332c1681b933f6cb9f3376673440d862a9060ff1615612ddb5750565b335f9081527f69892194d2f1eb4d48bd09f166bfce1754a681e8e17011b3e12b710cce56a87b60205260409020547f12b42e8a160f6064dc959c6f251e3af0750ad213dbecf573b4710d67d6c28e399060ff1615612ddb5750565b805f525f805160206137b583398151915260205260405f20335f5260205260ff60405f20541615612ddb5750565b60ff5f805160206137d58339815191525416612ef557565b60405163d93c066560e01b8152600490fd5b6001600160a01b03165f8181527fb7db2dd08fcb62d0c9e08c51941cae53c267786a0b75803fb7960902fc8ef97d60205260409020545f805160206137b58339815191529060ff16612f8b575f805260205260405f20815f5260205260405f20600160ff1982541617905533905f5f805160206137958339815191528180a4600190565b50505f90565b6001600160a01b03165f8181527f75442b0a96088b5456bc4ed01394c96a4feec0f883c9494257d76b96ab1c9b6b60205260409020547f65d7a28e3265b37a6474929f336521b332c1681b933f6cb9f3376673440d862a91905f805160206137b58339815191529060ff1661303757825f5260205260405f20815f5260205260405f20600160ff1982541617905533915f805160206137958339815191525f80a4600190565b5050505f90565b6001600160a01b03165f8181527f453a6d943a8ce2b55346a57be9edb3b5a9c9eacff8947d1529361145ee8b887360205260409020547f87421e189bd94dc1673f0d5255fa9f0cb8ff65bb74e34e0a80b07e9f0b4e34d591905f805160206137b58339815191529060ff1661303757825f5260205260405f20815f5260205260405f20600160ff1982541617905533915f805160206137958339815191525f80a4600190565b6001600160a01b03165f8181527f69892194d2f1eb4d48bd09f166bfce1754a681e8e17011b3e12b710cce56a87b60205260409020547f12b42e8a160f6064dc959c6f251e3af0750ad213dbecf573b4710d67d6c28e3991905f805160206137b58339815191529060ff1661303757825f5260205260405f20815f5260205260405f20600160ff1982541617905533915f805160206137958339815191525f80a4600190565b90815f525f805160206137b58339815191528060205260405f209160018060a01b031691825f5260205260ff60405f205416155f1461303757825f5260205260405f20815f5260205260405f20600160ff1982541617905533915f805160206137958339815191525f80a4600190565b90815f525f805160206137b58339815191528060205260405f209160018060a01b031691825f5260205260ff60405f2054165f1461303757825f5260205260405f20815f5260205260405f2060ff19815416905533917ff6391f5c32d9c69d2a47ea670b442974b53935d1edc7fd64eb21e047a839171b5f80a4600190565b6004811461331057600454906001600160401b03821161093357600160401b82116109335780548282558083106132f4575b505f908152602081205f805160206137f583398151915280545b8484106132d3575050505050565b600191820180546001600160a01b03909216848601559390910192906132c5565b61330a90825f528360205f209182019101612c61565b5f6132ab565b50565b5f54805f52602090600560205260405f20908155600190600154600182015542600382015561334460058201613279565b60066002549101555f549160015490604051926060840192845242602085015260606040850152600454809352608084019260045f525f805160206137f5833981519152925f905b8282106133c157505050505090807faa1a0febc456a9d036bcd1847fc84c9b97135a2b4cecd9050659b628f6e525cb920390a2565b84546001600160a01b0316865294850194938301939083019061338c565b600480548015612f8b576001809114613588575f918291600160ff1b9083815b6134c6575b50506001600160a01b0384169283156134bd57600254845f526003602052600560405f200180545f83820393128184128116918413901516176134aa5755836001600160601b0360a01b6009541617600955600a556001549160018301809311613497575060207fe8ce938ca6e1f058a6e0c3f0e2e06eccd88b108a29e1662c7a2c6858002f011491604051908152a390565b601190634e487b7160e01b5f525260245ffd5b601185634e487b7160e01b5f525260245ffd5b50505050505f90565b8354811015613583576134d881612920565b90549060039160018060a01b0391831b1c1690815f5260205260405f2083600b82015460ff808260081c1615918215613579575b505061356e5750600586820154910180545f838201938412911290801582169115161761355b5781905584811361354b575b50508180915b01906133ff565b909650909450915083818061353e565b601187634e487b7160e01b5f525260245ffd5b929050829150613544565b1690505f8061350c565b613404565b505f525f805160206137f5833981519152546001600160a01b031690565b60ff7ff0c57e16840df040f15088dc2f81fe391c3923bec73e23a9662efc9c229c6a005460401c16156135d557565b604051631afcd79f60e31b8152600490fd5b8151919060418303613617576136109250602082015190606060408401519301515f1a906136a4565b9192909190565b50505f9160029190565b60048110156136905780613633575050565b6001810361364d5760405163f645eedf60e01b8152600490fd5b6002810361366e5760405163fce698f760e01b815260048101839052602490fd5b6003146136785750565b602490604051906335e2f38360e21b82526004820152fd5b634e487b7160e01b5f52602160045260245ffd5b91907f7fffffffffffffffffffffffffffffff5d576e7357a4501ddfe92f46681b20a08411613726579160209360809260ff5f9560405194855216868401526040830152606082015282805260015afa1561371b575f516001600160a01b0381161561371157905f905f90565b505f906001905f90565b6040513d5f823e3d90fd5b5050505f9160039190565b90613758575080511561374657805190602001fd5b604051630a12f52160e11b8152600490fd5b8151158061378b575b613769575090565b604051639996b31560e01b81526001600160a01b039091166004820152602490fd5b50803b1561376156fe2f8788117e7eff1d82e926ec794901d17c78024a50270940304540a733656f0d02dd7bc7dec4dceedda775e58dd541e08a116c6c53815c0bd028192f7b626800cd5ed15c6e187e77e9aee88184c21f4f2182ab5827cb3b7e07fbedcd63f033008a35acfbc15ff81a39ae7d344fd709f28e8600b4aa8c65c6b64bfe7fe36bd19b9b779b17422d0df92223018b32b4d1fa46e071723d6817e2486d003becc55f00a2646970667358221220e0db28d10c4f8b5702c2f49e920dc64f6fdffc2af08ad98a746d8746aef53d9164736f6c63430008190033","linkReferences":{}},"methodIdentifiers":{"BASIS_POINTS()":"e1f1c4a7","BFT_THRESHOLD_DENOMINATOR()":"ff88db3e","BFT_THRESHOLD_NUMERATOR()":"1ce5a23b","DEFAULT_ADMIN_ROLE()":"a217fddf","DOUBLE_SIGN_SLASH_BPS()":"0a7a2241","DOWNTIME_JAIL_BLOCKS()":"79f1c218","DOWNTIME_SLASH_BPS()":"4134a985","EPOCH_DURATION_BLOCKS()":"fa8f5e96","MAX_TOTAL_VOTING_POWER()":"4adab1a4","MIN_UPTIME_BPS()":"b95f0560","PAUSER_ROLE()":"e63ab1e9","SLASHER_ROLE()":"5095af64","UPGRADE_INTERFACE_VERSION()":"ad3cb1cc","VALIDATOR_MANAGER_ROLE()":"b1b623d8","activeValidators(uint256)":"14f64c78","advanceEpoch()":"3cf80e6c","attestBlock(uint256,bytes32,bytes)":"9bc1b703","attestationPower(bytes32)":"a7405c62","attestations(bytes32,uint256)":"a78c52bb","blockProposals(uint256)":"2ff521eb","currentBlockNumber()":"378ec23b","currentEpoch()":"76671808","currentProposer()":"fe82d082","deactivateValidator(address)":"ba50b879","epochs(uint256)":"c6b61e4c","getActiveValidators()":"9de70258","getActiveValidatorsCount()":"31147c30","getAttestationPower(bytes32)":"42e8cd7f","getAttestations(bytes32)":"37e59e36","getBlockProducer(uint256)":"f575c314","getBlockProposal(uint256)":"7d898f60","getCurrentProposer()":"3b10244b","getEpochInfo(uint256)":"135022c2","getRoleAdmin(bytes32)":"248a9ca3","getValidatorInfo(address)":"8a11d7c9","grantRole(bytes32,address)":"2f2ff15d","hasRole(bytes32,address)":"91d14854","initialize(address,address,address,address,bytes32,string)":"5caf2977","isBlockFinalized(bytes32)":"a5513a13","isValidator(address)":"facd743b","missedBlocks()":"462a4f8e","pause()":"8456cb59","paused()":"5c975abb","proposeBlock(uint256,bytes32,bytes)":"7867e164","proxiableUUID()":"52d1902d","registerValidator(address,bytes32,string,uint256,uint256)":"b3c82fd0","renounceRole(bytes32,address)":"36568abe","revokeRole(bytes32,address)":"d547741f","sequencerRegistry()":"eb90e39f","slashDoubleSign(address,uint256,bytes32,bytes,bytes32,bytes)":"76662c28","slashDowntime(address)":"5ab9d955","stakingContract()":"ee99205c","supportsInterface(bytes4)":"01ffc9a7","totalVotingPower()":"671b3793","unjailValidator(address)":"7cafdd79","unpause()":"3f4ba83a","updateValidatorPower(address,uint256)":"2e75293b","upgradeToAndCall(address,bytes)":"4f1ef286","validators(address)":"fa52c7d8"},"id":123}