{"abi":[{"type":"constructor","inputs":[],"stateMutability":"nonpayable"},{"type":"function","name":"FEE_DENOMINATOR","inputs":[],"outputs":[{"name":"","type":"uint256","internalType":"uint256"}],"stateMutability":"view"},{"type":"function","name":"FEE_NUMERATOR","inputs":[],"outputs":[{"name":"","type":"uint256","internalType":"uint256"}],"stateMutability":"view"},{"type":"function","name":"MINIMUM_LIQUIDITY","inputs":[],"outputs":[{"name":"","type":"uint256","internalType":"uint256"}],"stateMutability":"view"},{"type":"function","name":"PROTOCOL_FEE_SHARE","inputs":[],"outputs":[{"name":"","type":"uint256","internalType":"uint256"}],"stateMutability":"view"},{"type":"function","name":"allowance","inputs":[{"name":"owner","type":"address","internalType":"address"},{"name":"spender","type":"address","internalType":"address"}],"outputs":[{"name":"","type":"uint256","internalType":"uint256"}],"stateMutability":"view"},{"type":"function","name":"approve","inputs":[{"name":"spender","type":"address","internalType":"address"},{"name":"value","type":"uint256","internalType":"uint256"}],"outputs":[{"name":"","type":"bool","internalType":"bool"}],"stateMutability":"nonpayable"},{"type":"function","name":"balanceOf","inputs":[{"name":"account","type":"address","internalType":"address"}],"outputs":[{"name":"","type":"uint256","internalType":"uint256"}],"stateMutability":"view"},{"type":"function","name":"burn","inputs":[{"name":"to","type":"address","internalType":"address"}],"outputs":[{"name":"amount0","type":"uint256","internalType":"uint256"},{"name":"amount1","type":"uint256","internalType":"uint256"}],"stateMutability":"nonpayable"},{"type":"function","name":"decimals","inputs":[],"outputs":[{"name":"","type":"uint8","internalType":"uint8"}],"stateMutability":"view"},{"type":"function","name":"factory","inputs":[],"outputs":[{"name":"","type":"address","internalType":"address"}],"stateMutability":"view"},{"type":"function","name":"feeTo","inputs":[],"outputs":[{"name":"","type":"address","internalType":"address"}],"stateMutability":"view"},{"type":"function","name":"getReserves","inputs":[],"outputs":[{"name":"_reserve0","type":"uint112","internalType":"uint112"},{"name":"_reserve1","type":"uint112","internalType":"uint112"},{"name":"_blockTimestampLast","type":"uint32","internalType":"uint32"}],"stateMutability":"view"},{"type":"function","name":"initialize","inputs":[{"name":"_token0","type":"address","internalType":"address"},{"name":"_token1","type":"address","internalType":"address"}],"outputs":[],"stateMutability":"nonpayable"},{"type":"function","name":"kLast","inputs":[],"outputs":[{"name":"","type":"uint256","internalType":"uint256"}],"stateMutability":"view"},{"type":"function","name":"mint","inputs":[{"name":"to","type":"address","internalType":"address"}],"outputs":[{"name":"liquidity","type":"uint256","internalType":"uint256"}],"stateMutability":"nonpayable"},{"type":"function","name":"name","inputs":[],"outputs":[{"name":"","type":"string","internalType":"string"}],"stateMutability":"view"},{"type":"function","name":"price0CumulativeLast","inputs":[],"outputs":[{"name":"","type":"uint256","internalType":"uint256"}],"stateMutability":"view"},{"type":"function","name":"price1CumulativeLast","inputs":[],"outputs":[{"name":"","type":"uint256","internalType":"uint256"}],"stateMutability":"view"},{"type":"function","name":"skim","inputs":[{"name":"to","type":"address","internalType":"address"}],"outputs":[],"stateMutability":"nonpayable"},{"type":"function","name":"swap","inputs":[{"name":"amount0Out","type":"uint256","internalType":"uint256"},{"name":"amount1Out","type":"uint256","internalType":"uint256"},{"name":"to","type":"address","internalType":"address"},{"name":"data","type":"bytes","internalType":"bytes"}],"outputs":[],"stateMutability":"nonpayable"},{"type":"function","name":"symbol","inputs":[],"outputs":[{"name":"","type":"string","internalType":"string"}],"stateMutability":"view"},{"type":"function","name":"sync","inputs":[],"outputs":[],"stateMutability":"nonpayable"},{"type":"function","name":"token0","inputs":[],"outputs":[{"name":"","type":"address","internalType":"address"}],"stateMutability":"view"},{"type":"function","name":"token1","inputs":[],"outputs":[{"name":"","type":"address","internalType":"address"}],"stateMutability":"view"},{"type":"function","name":"totalSupply","inputs":[],"outputs":[{"name":"","type":"uint256","internalType":"uint256"}],"stateMutability":"view"},{"type":"function","name":"transfer","inputs":[{"name":"to","type":"address","internalType":"address"},{"name":"value","type":"uint256","internalType":"uint256"}],"outputs":[{"name":"","type":"bool","internalType":"bool"}],"stateMutability":"nonpayable"},{"type":"function","name":"transferFrom","inputs":[{"name":"from","type":"address","internalType":"address"},{"name":"to","type":"address","internalType":"address"},{"name":"value","type":"uint256","internalType":"uint256"}],"outputs":[{"name":"","type":"bool","internalType":"bool"}],"stateMutability":"nonpayable"},{"type":"event","name":"Approval","inputs":[{"name":"owner","type":"address","indexed":true,"internalType":"address"},{"name":"spender","type":"address","indexed":true,"internalType":"address"},{"name":"value","type":"uint256","indexed":false,"internalType":"uint256"}],"anonymous":false},{"type":"event","name":"Burn","inputs":[{"name":"sender","type":"address","indexed":true,"internalType":"address"},{"name":"amount0","type":"uint256","indexed":false,"internalType":"uint256"},{"name":"amount1","type":"uint256","indexed":false,"internalType":"uint256"},{"name":"to","type":"address","indexed":true,"internalType":"address"}],"anonymous":false},{"type":"event","name":"Mint","inputs":[{"name":"sender","type":"address","indexed":true,"internalType":"address"},{"name":"amount0","type":"uint256","indexed":false,"internalType":"uint256"},{"name":"amount1","type":"uint256","indexed":false,"internalType":"uint256"}],"anonymous":false},{"type":"event","name":"Swap","inputs":[{"name":"sender","type":"address","indexed":true,"internalType":"address"},{"name":"amount0In","type":"uint256","indexed":false,"internalType":"uint256"},{"name":"amount1In","type":"uint256","indexed":false,"internalType":"uint256"},{"name":"amount0Out","type":"uint256","indexed":false,"internalType":"uint256"},{"name":"amount1Out","type":"uint256","indexed":false,"internalType":"uint256"},{"name":"to","type":"address","indexed":true,"internalType":"address"}],"anonymous":false},{"type":"event","name":"Sync","inputs":[{"name":"reserve0","type":"uint112","indexed":false,"internalType":"uint112"},{"name":"reserve1","type":"uint112","indexed":false,"internalType":"uint112"}],"anonymous":false},{"type":"event","name":"Transfer","inputs":[{"name":"from","type":"address","indexed":true,"internalType":"address"},{"name":"to","type":"address","indexed":true,"internalType":"address"},{"name":"value","type":"uint256","indexed":false,"internalType":"uint256"}],"anonymous":false},{"type":"error","name":"ERC20InsufficientAllowance","inputs":[{"name":"spender","type":"address","internalType":"address"},{"name":"allowance","type":"uint256","internalType":"uint256"},{"name":"needed","type":"uint256","internalType":"uint256"}]},{"type":"error","name":"ERC20InsufficientBalance","inputs":[{"name":"sender","type":"address","internalType":"address"},{"name":"balance","type":"uint256","internalType":"uint256"},{"name":"needed","type":"uint256","internalType":"uint256"}]},{"type":"error","name":"ERC20InvalidApprover","inputs":[{"name":"approver","type":"address","internalType":"address"}]},{"type":"error","name":"ERC20InvalidReceiver","inputs":[{"name":"receiver","type":"address","internalType":"address"}]},{"type":"error","name":"ERC20InvalidSender","inputs":[{"name":"sender","type":"address","internalType":"address"}]},{"type":"error","name":"ERC20InvalidSpender","inputs":[{"name":"spender","type":"address","internalType":"address"}]},{"type":"error","name":"InsufficientInputAmount","inputs":[]},{"type":"error","name":"InsufficientLiquidity","inputs":[]},{"type":"error","name":"InsufficientLiquidityBurned","inputs":[]},{"type":"error","name":"InsufficientLiquidityMinted","inputs":[]},{"type":"error","name":"InsufficientOutputAmount","inputs":[]},{"type":"error","name":"InvalidK","inputs":[]},{"type":"error","name":"InvalidTo","inputs":[]},{"type":"error","name":"Overflow","inputs":[]},{"type":"error","name":"ReentrancyGuardReentrantCall","inputs":[]}],"bytecode":{"object":"0x60a034610306576001600160401b03906040908082018381118282101761021d578252600b81526020926a0416e646553776170204c560ac1b848301528251908382018281108282111761021d57845260078252660414e44452d4c560cc1b85830152825181811161021d576003908154906001958683811c931680156102fc575b898410146102e8578190601f9384811161029a575b50899084831160011461023c575f92610231575b50505f1982851b1c191690861b1782555b835192831161021d576004938454978689811c99168015610213575b818a1014610200578883869798999a116101ac575b508092851160011461014757505f9361013c575b505082851b925f19911b1c19161790555b60055533608052516122c7908161030b823960805181818161035b01528181610e7b0152611fbf0152f35b015191505f80610100565b929190879550601f198516875f52845f20945f905b828210610193575050851161017a575b50505050811b019055610111565b01519060f8845f19921b161c191690555f80808061016c565b8484015187558a9890960195938401939081019061015c565b909192939450865f52815f208480880160051c8201928489106101f7575b918a91899897969594930160051c01915b8281106101e95750506100ec565b5f81558897508a91016101db565b925081926101ca565b602286634e487b7160e01b5f525260245ffd5b98607f16986100d7565b634e487b7160e01b5f52604160045260245ffd5b015190505f806100aa565b90889350601f19831691865f528b5f20925f5b8d828210610284575050841161026d575b505050811b0182556100bb565b01515f1983871b60f8161c191690555f8080610260565b8385015186558c9790950194938401930161024f565b909150845f52895f208480850160051c8201928c86106102df575b918a91869594930160051c01915b8281106102d1575050610096565b5f81558594508a91016102c3565b925081926102b5565b634e487b7160e01b5f52602260045260245ffd5b92607f1692610081565b5f80fdfe6080806040526004361015610012575f80fd5b5f905f3560e01c908163017e7e581461195057508063022c0d9f146112d557806306fdde03146112185780630902f1ac146111b1578063095ea7b3146111215780630dfe1681146110ed57806318160ddd146110cf57806323b872dd14610f72578063313ce56714610f5657806341cd47bf14610f39578063485cc95514610e405780635909c0d514610e225780635a3d549314610e045780636a62784214610ac057806370a0823114610a7c5780637464fc3d14610a5e5780637f791d6014610a4257806389afcb441461065457806395d89b4114610519578063a9059cbb146104e7578063ba9a7a56146102f5578063bc25cf771461037f578063c45a01551461032e578063d21220a7146102fa578063d73792a9146102f5578063dd62ed3e1461029a5763fff6cae914610147575f80fd5b3461029757806003193601126102975761015f611ac2565b73ffffffffffffffffffffffffffffffffffffffff80600654169060405190817f70a08231000000000000000000000000000000000000000000000000000000009384825230600483015281602460209586935afa91821561028c578391869361025b575b50600754169360246040518096819382523060048301525afa91821561025057849261021a575b506102129250600854916dffffffffffffffffffffffffffff808460701c16931691611c9d565b600160055580f35b90915082813d8311610249575b6102318183611a2a565b81010312610245576102129151905f6101eb565b5f80fd5b503d610227565b6040513d86823e3d90fd5b8281939294503d8311610285575b6102738183611a2a565b8101031261024557829051915f6101c4565b503d610269565b6040513d87823e3d90fd5b80fd5b5034610297576040600319360112610297576102b4611980565b60406102be6119a3565b9273ffffffffffffffffffffffffffffffffffffffff809316815260016020522091165f52602052602060405f2054604051908152f35b611a0e565b5034610297578060031936011261029757602073ffffffffffffffffffffffffffffffffffffffff60075416604051908152f35b5034610297578060031936011261029757602060405173ffffffffffffffffffffffffffffffffffffffff7f0000000000000000000000000000000000000000000000000000000000000000168152f35b5034610297576020806003193601126104e35761039a611980565b906103a3611ac2565b73ffffffffffffffffffffffffffffffffffffffff918260065416926007541691604051937f70a0823100000000000000000000000000000000000000000000000000000000908186523060048701528286602481845afa9586156104d85787966104a7575b50610433908461042d6dffffffffffffffffffffffffffff98896008541690611a6b565b91611afd565b6040519081523060048201528181602481875afa91821561049c57869261046c575b505061042d906102129460085460701c1690611a6b565b90809250813d8311610495575b6104838183611a2a565b8101031261024557518361042d610455565b503d610479565b6040513d88823e3d90fd5b9095508281813d83116104d1575b6104bf8183611a2a565b81010312610245575194610433610409565b503d6104b5565b6040513d89823e3d90fd5b5080fd5b50346102975760406003193601126102975761050e610504611980565b6024359033611e2e565b602060405160018152f35b5034610297578060031936011261029757604051816004549060018260011c916001841693841561064a575b602094858510811461061d578487529081156105dd5750600114610584575b6105808561057481890382611a2a565b604051918291826119c6565b0390f35b929450600483527f8a35acfbc15ff81a39ae7d344fd709f28e8600b4aa8c65c6b64bfe7fe36bd19b5b8284106105ca57505050816105809361057492820101935f610564565b80548585018701529285019281016105ad565b7fffffffffffffffffffffffffffffffffffffffffffffffffffffffffffffff001686860152505050151560051b8201019150610574816105805f610564565b6024837f4e487b710000000000000000000000000000000000000000000000000000000081526022600452fd5b92607f1692610545565b5034610297576020908160031936011261029757610670611980565b90610679611ac2565b61069f6008546dffffffffffffffffffffffffffff91828216928260701c169160e01c90565b5093909273ffffffffffffffffffffffffffffffffffffffff806006541693816007541696604051917f70a08231000000000000000000000000000000000000000000000000000000009889845230600485015286846024818b5afa938415610a37578294610a08575b5060405199808b523060048c0152878b602481855afa9889156109fd578a9b849b9a6109ca575b5030845283895261076b6107498660408720549c611f78565b9661075f6107648d61075f600254948592611a78565b611a8b565b9d8d611a78565b998b1580156109c2575b61099857301561096757305f525f8a5260405f205481811061092657915f828c93602497969530845283865203604083205580600254036002556040519081527fddf252ad1be2c89b69c2b068fc378daa952ba7f163c4a11628f55a4df523b3ef843092a36107e58d8b83611afd565b6107f08c8b86611afd565b604051948580928582523060048301525afa9283156102505790899185946108f5575b5060246040518094819382523060048301525afa9283156108e957926108b3575b5098610843929160409a611c9d565b610889575b855191858352848484015216907fdccd412f0b1252819cb1fd330b93224ca42612892bb3f4f789976e6d81936496863392a360016005558351928352820152f35b6108ab6008546dffffffffffffffffffffffffffff808260701c169116611a78565b600b55610848565b929150988683813d83116108e2575b6108cc8183611a2a565b8101031261024557915191989091906040610834565b503d6108c2565b604051903d90823e3d90fd5b8281939295503d831161091f575b61090d8183611a2a565b8101031261024557889051925f610813565b503d610903565b6040517fe450d38c00000000000000000000000000000000000000000000000000000000815230600482015260248101919091526044810191909152606490fd5b602485604051907f96c6fd1e0000000000000000000000000000000000000000000000000000000082526004820152fd5b60046040517f749383ad000000000000000000000000000000000000000000000000000000008152fd5b508a15610775565b8980929c50819b503d83116109f6575b6109e48183611a2a565b81010312610245578a9851995f610730565b503d6109da565b6040513d85823e3d90fd5b9093508681813d8311610a30575b610a208183611a2a565b810103126102455751925f610709565b503d610a16565b6040513d84823e3d90fd5b5034610297578060031936011261029757602060405160068152f35b50346102975780600319360112610297576020600b54604051908152f35b503461029757602060031936011261029757604060209173ffffffffffffffffffffffffffffffffffffffff610ab0611980565b1681528083522054604051908152f35b5034610297576020908160031936011261029757610adc611980565b610ae4611ac2565b610b0a6008546dffffffffffffffffffffffffffff91828216928260701c169160e01c90565b5073ffffffffffffffffffffffffffffffffffffffff9391938060065416936040519187836024817f70a0823100000000000000000000000000000000000000000000000000000000998a82523060048301525afa92831561028c579088918694610dd3575b50600754169560246040518098819382523060048301525afa948515610250578495610da4575b506dffffffffffffffffffffffffffff9283871696610bb68885611a6b565b9685831694610bc58683611a6b565b97610bd08585611f78565b966002549b8c155f14610d6b575050610bf1610bec8a8c611a78565b6120e6565b907ffffffffffffffffffffffffffffffffffffffffffffffffffffffffffffffc188201918211610d3e5750996103e890818101809111610d11576002555f7fddf252ad1be2c89b69c2b068fc378daa952ba7f163c4a11628f55a4df523b3ef8d61dead9384845283825260408420818154019055604051908152a35b8915610ce757610c818a610c8696612227565b611c9d565b610cc9575b50604051918252838201527f4c209b5fc8ad50758f13e2e1088ba56a560dff690a1c6fef26394f4c03821c4f60403392a26001600555604051908152f35b610cde9060085490808260701c169116611a78565b600b555f610c8b565b60046040517fd226f9d4000000000000000000000000000000000000000000000000000000008152fd5b7f4e487b71000000000000000000000000000000000000000000000000000000005f52601160045260245ffd5b807f4e487b7100000000000000000000000000000000000000000000000000000000602492526011600452fd5b9061075f610d84610d8b938f969f8f9061075f91611a78565b948c611a78565b905080821015610d9d57505b98610c6e565b9050610d97565b9094508681813d8311610dcc575b610dbc8183611a2a565b810103126102455751935f610b97565b503d610db2565b8281939295503d8311610dfd575b610deb8183611a2a565b8101031261024557879051925f610b70565b503d610de1565b50346102975780600319360112610297576020600a54604051908152f35b50346102975780600319360112610297576020600954604051908152f35b503461029757604060031936011261029757610e5a611980565b610e626119a3565b73ffffffffffffffffffffffffffffffffffffffff90817f0000000000000000000000000000000000000000000000000000000000000000163303610edb57817fffffffffffffffffffffffff000000000000000000000000000000000000000093168360065416176006551690600754161760075580f35b60646040517f08c379a000000000000000000000000000000000000000000000000000000000815260206004820152600960248201527f464f5242494444454e00000000000000000000000000000000000000000000006044820152fd5b503461029757806003193601126102975760206040516103e58152f35b5034610297578060031936011261029757602060405160128152f35b503461029757606060031936011261029757610f8c611980565b610f946119a3565b60443591604073ffffffffffffffffffffffffffffffffffffffff821694858152600160205220335f5260205260405f2054937fffffffffffffffffffffffffffffffffffffffffffffffffffffffffffffffff8503610ffa575b5061050e9350611e2e565b8385106110905780156110605733156110305761050e9484915f52600160205260405f20335f526020520360405f20555f610fef565b60246040517f94280d620000000000000000000000000000000000000000000000000000000081525f6004820152fd5b60246040517fe602df050000000000000000000000000000000000000000000000000000000081525f6004820152fd5b6040517ffb8f41b20000000000000000000000000000000000000000000000000000000081523360048201526024810186905260448101859052606490fd5b50346102975780600319360112610297576020600254604051908152f35b5034610297578060031936011261029757602073ffffffffffffffffffffffffffffffffffffffff60065416604051908152f35b50346102975760406003193601126102975761113b611980565b6024359033156110605773ffffffffffffffffffffffffffffffffffffffff1690811561103057335f52600160205260405f20825f526020528060405f20556040519081527f8c5be1e5ebec7d5bd14f71427d1e84f3dd0314c0f7b2291e5b200ac8c7c3b92560203392a3602060405160018152f35b5034610297578060031936011261029757606063ffffffff6111ef6008546dffffffffffffffffffffffffffff91828216928260701c169160e01c90565b909291604051936dffffffffffffffffffffffffffff8092168552166020840152166040820152f35b5034610297578060031936011261029757604051816003549060018260011c91600184169384156112cb575b602094858510811461061d578487529081156105dd5750600114611272576105808561057481890382611a2a565b929450600383527fc2575a0e9e593c00f959f8c92f12db2869c3395a3b0502d05e2516446f71f85b5b8284106112b857505050816105809361057492820101935f610564565b805485850187015292850192810161129b565b92607f1692611244565b50346102455760806003193601126102455773ffffffffffffffffffffffffffffffffffffffff8060443516604435036102455767ffffffffffffffff60643511610245573660236064350112156102455767ffffffffffffffff6064356004013511610245573660246064356004013560643501011161024557611358611ac2565b60043515908180611946575b61191c5761138e6008546dffffffffffffffffffffffffffff91828216928260701c169160e01c90565b506dffffffffffffffffffffffffffff8294921660043510801590611900575b6118d6578260065416908360075416928285604435161480156118c9575b61189f571561188b575b602435611877575b60643560040135611759575b604051916020836024817f70a0823100000000000000000000000000000000000000000000000000000000948582523060048301525afa9283156104d8578793611724575b5060209060246040518096819382523060048301525afa92831561049c5786936116f0575b506114716004356dffffffffffffffffffffffffffff8716611a6b565b8211156116e95761149d6114976004356dffffffffffffffffffffffffffff8816611a6b565b83611a6b565b945b6114bb6024356dffffffffffffffffffffffffffff8416611a6b565b8411156116e2576114e76114e16024356dffffffffffffffffffffffffffff8516611a6b565b85611a6b565b935b861580806116da575b6116b057846103e88102046103e81485151715611683576003880290888204600314171561168357611528906103e88602611a6b565b6103e882028281046103e814831517156116295760038702908782046003148815171561165657611563929161155d91611a6b565b90611a78565b61158d6dffffffffffffffffffffffffffff85166dffffffffffffffffffffffffffff8516611a78565b90620f42409182810292818404149015171561162957106115ff576115b193611c9d565b60405192835260208301526004356040830152602435606083015260443516907fd78ad95fa46c994b6551d0da85fc275fe613ce37657fb8d5e3d130840159d82260803392a3600160055580f35b60046040517fbd8bc364000000000000000000000000000000000000000000000000000000008152fd5b60248a7f4e487b710000000000000000000000000000000000000000000000000000000081526011600452fd5b60248b7f4e487b710000000000000000000000000000000000000000000000000000000081526011600452fd5b6024897f4e487b710000000000000000000000000000000000000000000000000000000081526011600452fd5b60046040517f098fb561000000000000000000000000000000000000000000000000000000008152fd5b5085156114f2565b86936114e9565b859461149f565b9092506020813d60201161171c575b8161170c60209383611a2a565b810103126102455751915f611454565b3d91506116ff565b9092506020813d602011611751575b8161174060209383611a2a565b81010312610245575191602061142f565b3d9150611733565b83604435163b15610245576040517f66f543f500000000000000000000000000000000000000000000000000000000815233600482015260043560248201526024356044820152608060648201526064356004013560848201526064356004013560246064350160a48301375f60a460643560040135830101525f8160a4817fffffffffffffffffffffffffffffffffffffffffffffffffffffffffffffffe0601f60643560040135011681010301818389604435165af1801561186c57611822575b506113ea565b90955067ffffffffffffffff811161183f576040525f945f61181c565b7f4e487b71000000000000000000000000000000000000000000000000000000005f52604160045260245ffd5b6040513d5f823e3d90fd5b61188660243560443585611afd565b6113de565b61189a60043560443584611afd565b6113d6565b60046040517f290fa188000000000000000000000000000000000000000000000000000000008152fd5b50838560443516146113cc565b60046040517fbb55fd27000000000000000000000000000000000000000000000000000000008152fd5b506dffffffffffffffffffffffffffff811660243510156113ae565b60046040517f42301c23000000000000000000000000000000000000000000000000000000008152fd5b5060243515611364565b34610245575f6003193601126102455760209073ffffffffffffffffffffffffffffffffffffffff600c54168152f35b6004359073ffffffffffffffffffffffffffffffffffffffff8216820361024557565b6024359073ffffffffffffffffffffffffffffffffffffffff8216820361024557565b7fffffffffffffffffffffffffffffffffffffffffffffffffffffffffffffffe0601f602060409481855280519182918282880152018686015e5f8582860101520116010190565b34610245575f6003193601126102455760206040516103e88152f35b90601f7fffffffffffffffffffffffffffffffffffffffffffffffffffffffffffffffe0910116810190811067ffffffffffffffff82111761183f57604052565b91908203918211610d1157565b81810292918115918404141715610d1157565b8115611a95570490565b7f4e487b71000000000000000000000000000000000000000000000000000000005f52601260045260245ffd5b600260055414611ad3576002600555565b60046040517f3ee5aeb5000000000000000000000000000000000000000000000000000000008152fd5b60405160209373ffffffffffffffffffffffffffffffffffffffff858301947fa9059cbb000000000000000000000000000000000000000000000000000000008652166024830152604482015260448152608081019167ffffffffffffffff938284108585111761183f575f809493819460405251925af1903d15611c68573d90811161183f5760405190611bb9847fffffffffffffffffffffffffffffffffffffffffffffffffffffffffffffffe0601f8401160183611a2a565b81523d5f8483013e5b81611c2f575b5015611bd15750565b606490604051907f08c379a00000000000000000000000000000000000000000000000000000000082526004820152600f60248201527f5452414e534645525f4641494c454400000000000000000000000000000000006044820152fd5b80915051828115918215611c48575b505090505f611bc8565b83809293500103126102455781015180151581036102455780825f611c3e565b506060611bc2565b907bffffffffffffffffffffffffffffffffffffffffffffffffffffffff809116918215611a9557160490565b926dffffffffffffffffffffffffffff908185118015611e25575b611dfb577f1c411e9a96e071241c2f21f7726b17ae89e3cab4c78be50e062b03a9fffbbad194604094839263ffffffff60085460e01c81421603169182151580611df0575b80611de5575b611d6d575b5050501691827bffffffffffffffffffffffffffff00000000000000000000000000007fffffffff000000000000000000000000000000000000000000000000000000004260e01b169260701b16171780600855835192835260701c166020820152a1565b611dd4907bffffffffffffffffffffffffffff0000000000000000000000000000867bffffffffffffffffffffffffffffffffffffffffffffffffffffffff948686611dc0848716868560701b16611c70565b160260095401600955169160701b16611c70565b1602600a5401600a555f8080611d08565b508482161515611d03565b508481161515611cfd565b60046040517f35278d12000000000000000000000000000000000000000000000000000000008152fd5b50818311611cb8565b9173ffffffffffffffffffffffffffffffffffffffff808416928315611f3b5716928315611f0b57825f525f60205260405f205490828210611eb35750817fddf252ad1be2c89b69c2b068fc378daa952ba7f163c4a11628f55a4df523b3ef92602092855f525f84520360405f2055845f5260405f20818154019055604051908152a3565b6040517fe450d38c00000000000000000000000000000000000000000000000000000000815273ffffffffffffffffffffffffffffffffffffffff919091166004820152602481019190915260448101829052606490fd5b60246040517fec442f050000000000000000000000000000000000000000000000000000000081525f6004820152fd5b60246040517f96c6fd1e0000000000000000000000000000000000000000000000000000000081525f6004820152fd5b91908201809211610d1157565b6040517f017e7e580000000000000000000000000000000000000000000000000000000081529192919073ffffffffffffffffffffffffffffffffffffffff6020836004817f000000000000000000000000000000000000000000000000000000000000000085165afa92831561186c575f936120a9575b508216151593600b5491855f14612099578261200d575b50505050565b610bec61203191612037936dffffffffffffffffffffffffffff8091169116611a78565b916120e6565b90818111612046575b80612007565b61205660025461155d8484611a6b565b90600581029080820460051490151715610d115761207d9261207791611f6b565b90611a8b565b80612089575b80612040565b61209291612227565b5f80612083565b505090506120a357565b5f600b55565b9092506020813d6020116120de575b816120c560209383611a2a565b810103126102455751828116810361024557915f611ff0565b3d91506120b8565b8015612222576121b0815f908360801c80612216575b508060401c80612209575b508060201c806121fc575b508060101c806121ef575b508060081c806121e2575b508060041c806121d5575b508060021c806121c8575b50600191828092811c6121c1575b1c1b6121588185611a8b565b01811c6121658185611a8b565b01811c6121728185611a8b565b01811c61217f8185611a8b565b01811c61218c8185611a8b565b01811c6121998185611a8b565b01811c6121a68185611a8b565b01901c8092611a8b565b808210156121bc575090565b905090565b018161214c565b600291509101905f61213e565b600491509101905f612133565b600891509101905f612128565b601091509101905f61211d565b602091509101905f612112565b604091509101905f612107565b9150506080905f6120fc565b505f90565b73ffffffffffffffffffffffffffffffffffffffff16908115611f0b577fddf252ad1be2c89b69c2b068fc378daa952ba7f163c4a11628f55a4df523b3ef6020826122755f94600254611f6b565b60025584845283825260408420818154019055604051908152a356fea2646970667358221220b555503e73e88d295bcf1ba733d97634465c989dda19d2a7d3d331ee6fefa6c564736f6c63430008190033","linkReferences":{}},"methodIdentifiers":{"FEE_DENOMINATOR()":"d73792a9","FEE_NUMERATOR()":"41cd47bf","MINIMUM_LIQUIDITY()":"ba9a7a56","PROTOCOL_FEE_SHARE()":"7f791d60","allowance(address,address)":"dd62ed3e","approve(address,uint256)":"095ea7b3","balanceOf(address)":"70a08231","burn(address)":"89afcb44","decimals()":"313ce567","factory()":"c45a0155","feeTo()":"017e7e58","getReserves()":"0902f1ac","initialize(address,address)":"485cc955","kLast()":"7464fc3d","mint(address)":"6a627842","name()":"06fdde03","price0CumulativeLast()":"5909c0d5","price1CumulativeLast()":"5a3d5493","skim(address)":"bc25cf77","swap(uint256,uint256,address,bytes)":"022c0d9f","symbol()":"95d89b41","sync()":"fff6cae9","token0()":"0dfe1681","token1()":"d21220a7","totalSupply()":"18160ddd","transfer(address,uint256)":"a9059cbb","transferFrom(address,address,uint256)":"23b872dd"},"id":126}