{"abi":[{"type":"constructor","inputs":[{"name":"_xerc20","type":"address","internalType":"address"},{"name":"_erc20","type":"address","internalType":"address"}],"stateMutability":"nonpayable"},{"type":"function","name":"ERC20","inputs":[],"outputs":[{"name":"","type":"address","internalType":"address"}],"stateMutability":"view"},{"type":"function","name":"ERC20_TOKEN","inputs":[],"outputs":[{"name":"","type":"address","internalType":"contract IERC20"}],"stateMutability":"view"},{"type":"function","name":"XERC20","inputs":[],"outputs":[{"name":"","type":"address","internalType":"address"}],"stateMutability":"view"},{"type":"function","name":"XERC20_TOKEN","inputs":[],"outputs":[{"name":"","type":"address","internalType":"contract IXERC20"}],"stateMutability":"view"},{"type":"function","name":"deposit","inputs":[{"name":"_amount","type":"uint256","internalType":"uint256"}],"outputs":[],"stateMutability":"nonpayable"},{"type":"function","name":"depositTo","inputs":[{"name":"_to","type":"address","internalType":"address"},{"name":"_amount","type":"uint256","internalType":"uint256"}],"outputs":[],"stateMutability":"nonpayable"},{"type":"function","name":"withdraw","inputs":[{"name":"_amount","type":"uint256","internalType":"uint256"}],"outputs":[],"stateMutability":"nonpayable"},{"type":"function","name":"withdrawTo","inputs":[{"name":"_to","type":"address","internalType":"address"},{"name":"_amount","type":"uint256","internalType":"uint256"}],"outputs":[],"stateMutability":"nonpayable"},{"type":"event","name":"Deposit","inputs":[{"name":"sender","type":"address","indexed":true,"internalType":"address"},{"name":"amount","type":"uint256","indexed":false,"internalType":"uint256"}],"anonymous":false},{"type":"event","name":"Withdraw","inputs":[{"name":"sender","type":"address","indexed":true,"internalType":"address"},{"name":"amount","type":"uint256","indexed":false,"internalType":"uint256"}],"anonymous":false},{"type":"error","name":"AddressEmptyCode","inputs":[{"name":"target","type":"address","internalType":"address"}]},{"type":"error","name":"AddressInsufficientBalance","inputs":[{"name":"account","type":"address","internalType":"address"}]},{"type":"error","name":"FailedInnerCall","inputs":[]},{"type":"error","name":"IXERC20Lockbox_Invalid_Amount","inputs":[]},{"type":"error","name":"IXERC20Lockbox_Withdrawal_Failed","inputs":[]},{"type":"error","name":"ReentrancyGuardReentrantCall","inputs":[]},{"type":"error","name":"SafeERC20FailedOperation","inputs":[{"name":"token","type":"address","internalType":"address"}]}],"bytecode":{"object":"0x60c0346100d457601f610b2038819003918201601f19168301916001600160401b038311848410176100d85780849260409485528339810103126100d457610052602061004b836100ec565b92016100ec565b60015f556001600160a01b03918216801580156100ca575b6100b85760a05216608052604051610a1f9081610101823960805181818160e201526102f2015260a05181818161011d0152818161027f015281816103ba015281816104a801526106090152f35b604051631807839b60e21b8152600490fd5b508282161561006a565b5f80fd5b634e487b7160e01b5f52604160045260245ffd5b51906001600160a01b03821682036100d45756fe604060808152600480361015610013575f80fd5b5f915f3560e01c8063205c2878146105d45780632e1a7d4d1461044e578063b20a0fb914610234578063b6b55f2514610316578063cc4aa204146102a7578063efc4c631146102a7578063f786f8a5146102345763ffaad6a514610075575f80fd5b346101fa5761008336610726565b929061008d610815565b831561020c5790849161010684517f23b872dd000000000000000000000000000000000000000000000000000000006020820152336024820152306044820152866064820152606481526100e0816107b8565b7f000000000000000000000000000000000000000000000000000000000000000061084e565b73ffffffffffffffffffffffffffffffffffffffff7f00000000000000000000000000000000000000000000000000000000000000001691823b15610208576101a49284928388938851968795869485937f40c10f1900000000000000000000000000000000000000000000000000000000855284016020909392919373ffffffffffffffffffffffffffffffffffffffff60408201951681520152565b03925af180156101fe576101e6575b5050519081527fe1fffcc4923d04b559f4d29a8bfc6cda04eb5b0d3c460751c2402c5c5cc9109c60203392a26001815580f35b6101ef90610777565b6101fa57825f6101b3565b8280fd5b83513d84823e3d90fd5b8380fd5b5090517f601e0e6c000000000000000000000000000000000000000000000000000000008152fd5b8382346102a357817ffffffffffffffffffffffffffffffffffffffffffffffffffffffffffffffffc3601126102a3576020905173ffffffffffffffffffffffffffffffffffffffff7f0000000000000000000000000000000000000000000000000000000000000000168152f35b5080fd5b8382346102a357817ffffffffffffffffffffffffffffffffffffffffffffffffffffffffffffffffc3601126102a3576020905173ffffffffffffffffffffffffffffffffffffffff7f0000000000000000000000000000000000000000000000000000000000000000168152f35b50346101fa5760207ffffffffffffffffffffffffffffffffffffffffffffffffffffffffffffffffc3601126101fa57813591610351610815565b82156104275783906103a383517f23b872dd000000000000000000000000000000000000000000000000000000006020820152336024820152306044820152856064820152606481526100e0816107b8565b73ffffffffffffffffffffffffffffffffffffffff7f000000000000000000000000000000000000000000000000000000000000000016803b156101fa5783517f40c10f19000000000000000000000000000000000000000000000000000000008152339281019283526020830186905291839183918290849082906040016101a4565b90517f601e0e6c000000000000000000000000000000000000000000000000000000008152fd5b50346101fa5760207ffffffffffffffffffffffffffffffffffffffffffffffffffffffffffffffffc3601126101fa57813591610489610815565b821561042757839073ffffffffffffffffffffffffffffffffffffffff7f000000000000000000000000000000000000000000000000000000000000000016803b156101fa5783517f9dc29fac0000000000000000000000000000000000000000000000000000000081523392810192835260208301869052918391839182908490829060400103925af180156101fe576105c0575b505080517fa9059cbb0000000000000000000000000000000000000000000000000000000060208201523360248201526044810183905261058f906100e081606481015b037fffffffffffffffffffffffffffffffffffffffffffffffffffffffffffffffe081018352826107d4565b519081527f884edad9ce6fa2440d8a54cc123490eb96d2768479d49ff9c7366125a942436460203392a26001815580f35b6105c990610777565b6101fa57825f61051f565b50346106fb576105e336610726565b926105ec610815565b83156106ff5773ffffffffffffffffffffffffffffffffffffffff7f000000000000000000000000000000000000000000000000000000000000000016803b156106fb5783517f9dc29fac0000000000000000000000000000000000000000000000000000000081523392810192835260208301869052915f91839182908490829060400103925af180156106f1576106de575b5081517fa9059cbb00000000000000000000000000000000000000000000000000000000602082015273ffffffffffffffffffffffffffffffffffffffff90911660248201526044810183905261058f906100e08160648101610563565b6106e9919450610777565b5f9282610680565b83513d5f823e3d90fd5b5f80fd5b82517f601e0e6c000000000000000000000000000000000000000000000000000000008152fd5b7ffffffffffffffffffffffffffffffffffffffffffffffffffffffffffffffffc60409101126106fb5760043573ffffffffffffffffffffffffffffffffffffffff811681036106fb579060243590565b67ffffffffffffffff811161078b57604052565b7f4e487b71000000000000000000000000000000000000000000000000000000005f52604160045260245ffd5b60a0810190811067ffffffffffffffff82111761078b57604052565b90601f7fffffffffffffffffffffffffffffffffffffffffffffffffffffffffffffffe0910116810190811067ffffffffffffffff82111761078b57604052565b60025f54146108245760025f55565b60046040517f3ee5aeb5000000000000000000000000000000000000000000000000000000008152fd5b5f73ffffffffffffffffffffffffffffffffffffffff8192169260208151910182855af13d1561093d573d67ffffffffffffffff811161078b576108d291604051916108c260207fffffffffffffffffffffffffffffffffffffffffffffffffffffffffffffffe0601f84011601846107d4565b82523d5f602084013e5b83610949565b8051908115159182610919575b50506108e85750565b602490604051907f5274afe70000000000000000000000000000000000000000000000000000000082526004820152fd5b81925090602091810103126106fb57602001518015908115036106fb575f806108df565b6108d2906060906108cc565b90610988575080511561095e57805190602001fd5b60046040517f1425ea42000000000000000000000000000000000000000000000000000000008152fd5b815115806109e0575b610999575090565b60249073ffffffffffffffffffffffffffffffffffffffff604051917f9996b315000000000000000000000000000000000000000000000000000000008352166004820152fd5b50803b1561099156fea26469706673582212203d2444a439780d67d7a5047338d39956c99d07de41bdc36d9450780422647f6764736f6c63430008190033","linkReferences":{}},"methodIdentifiers":{"ERC20()":"cc4aa204","ERC20_TOKEN()":"efc4c631","XERC20()":"b20a0fb9","XERC20_TOKEN()":"f786f8a5","deposit(uint256)":"b6b55f25","depositTo(address,uint256)":"ffaad6a5","withdraw(uint256)":"2e1a7d4d","withdrawTo(address,uint256)":"205c2878"},"id":186}