{"abi":[{"type":"constructor","inputs":[{"name":"_xerc20","type":"address","internalType":"address"},{"name":"_erc20","type":"address","internalType":"address"}],"stateMutability":"nonpayable"},{"type":"function","name":"ERC20","inputs":[],"outputs":[{"name":"","type":"address","internalType":"address"}],"stateMutability":"view"},{"type":"function","name":"ERC20_TOKEN","inputs":[],"outputs":[{"name":"","type":"address","internalType":"contract IERC20"}],"stateMutability":"view"},{"type":"function","name":"XERC20","inputs":[],"outputs":[{"name":"","type":"address","internalType":"address"}],"stateMutability":"view"},{"type":"function","name":"XERC20_TOKEN","inputs":[],"outputs":[{"name":"","type":"address","internalType":"contract IXERC20"}],"stateMutability":"view"},{"type":"function","name":"deposit","inputs":[{"name":"_amount","type":"uint256","internalType":"uint256"}],"outputs":[],"stateMutability":"nonpayable"},{"type":"function","name":"depositTo","inputs":[{"name":"_to","type":"address","internalType":"address"},{"name":"_amount","type":"uint256","internalType":"uint256"}],"outputs":[],"stateMutability":"nonpayable"},{"type":"function","name":"withdraw","inputs":[{"name":"_amount","type":"uint256","internalType":"uint256"}],"outputs":[],"stateMutability":"nonpayable"},{"type":"function","name":"withdrawTo","inputs":[{"name":"_to","type":"address","internalType":"address"},{"name":"_amount","type":"uint256","internalType":"uint256"}],"outputs":[],"stateMutability":"nonpayable"},{"type":"event","name":"Deposit","inputs":[{"name":"sender","type":"address","indexed":true,"internalType":"address"},{"name":"amount","type":"uint256","indexed":false,"internalType":"uint256"}],"anonymous":false},{"type":"event","name":"Withdraw","inputs":[{"name":"sender","type":"address","indexed":true,"internalType":"address"},{"name":"amount","type":"uint256","indexed":false,"internalType":"uint256"}],"anonymous":false},{"type":"error","name":"AddressEmptyCode","inputs":[{"name":"target","type":"address","internalType":"address"}]},{"type":"error","name":"AddressInsufficientBalance","inputs":[{"name":"account","type":"address","internalType":"address"}]},{"type":"error","name":"FailedInnerCall","inputs":[]},{"type":"error","name":"IXERC20Lockbox_Invalid_Amount","inputs":[]},{"type":"error","name":"IXERC20Lockbox_Withdrawal_Failed","inputs":[]},{"type":"error","name":"ReentrancyGuardReentrantCall","inputs":[]},{"type":"error","name":"SafeERC20FailedOperation","inputs":[{"name":"token","type":"address","internalType":"address"}]}],"bytecode":{"object":"0x60c0346100d357601f61081038819003918201601f19168301916001600160401b038311848410176100d75780849260409485528339810103126100d357610052602061004b836100eb565b92016100eb565b60015f556001600160a01b03918216801580156100c9575b6100b75760a052166080526040516107109081610100823960805181818160c90152610228015260a05181818160ef015281816101e0015281816102af0152818161034001526104440152f35b604051631807839b60e21b8152600490fd5b508282161561006a565b5f80fd5b634e487b7160e01b5f52604160045260245ffd5b51906001600160a01b03821682036100d35756fe604060808152600480361015610013575f80fd5b5f915f3560e01c8063205c2878146104245780632e1a7d4d14610319578063b20a0fb9146101cb578063b6b55f2514610257578063cc4aa20414610213578063efc4c63114610213578063f786f8a5146101cb5763ffaad6a514610075575f80fd5b346101aa5761008336610511565b929061008d61059d565b83156101bc579084916100ed84516323b872dd60e01b6020820152336024820152306044820152866064820152606481526100c78161055f565b7f00000000000000000000000000000000000000000000000000000000000000006105be565b7f00000000000000000000000000000000000000000000000000000000000000006001600160a01b031691823b156101b85784516340c10f1960e01b81526001600160a01b0390921690820190815260208101869052909183918391908290849082906040015b03925af180156101ae57610196575b5050519081527fe1fffcc4923d04b559f4d29a8bfc6cda04eb5b0d3c460751c2402c5c5cc9109c60203392a26001815580f35b61019f90610537565b6101aa57825f610163565b8280fd5b83513d84823e3d90fd5b8380fd5b509051631807839b60e21b8152fd5b83823461020f578160031936011261020f57517f00000000000000000000000000000000000000000000000000000000000000006001600160a01b03168152602090f35b5080fd5b83823461020f578160031936011261020f57517f00000000000000000000000000000000000000000000000000000000000000006001600160a01b03168152602090f35b50346101aa5760203660031901126101aa5781359161027461059d565b821561030b5783906102ad83516323b872dd60e01b6020820152336024820152306044820152856064820152606481526100c78161055f565b7f00000000000000000000000000000000000000000000000000000000000000006001600160a01b0316803b156101aa5783516340c10f1960e01b815233928101928352602083018690529183918391829084908290604001610154565b9051631807839b60e21b8152fd5b50346101aa5760203660031901126101aa5781359161033661059d565b821561030b5783907f00000000000000000000000000000000000000000000000000000000000000006001600160a01b0316803b156101aa578351632770a7eb60e21b81523392810192835260208301869052918391839182908490829060400103925af180156101ae57610410575b5050805163a9059cbb60e01b6020820152336024820152604481018390526103df906100c781606481015b03601f19810183528261057b565b519081527f884edad9ce6fa2440d8a54cc123490eb96d2768479d49ff9c7366125a942436460203392a26001815580f35b61041990610537565b6101aa57825f6103a6565b50346104ff5761043336610511565b9261043c61059d565b8315610503577f00000000000000000000000000000000000000000000000000000000000000006001600160a01b0316803b156104ff578351632770a7eb60e21b81523392810192835260208301869052915f91839182908490829060400103925af180156104f5576104e2575b50815163a9059cbb60e01b60208201526001600160a01b039091166024820152604481018390526103df906100c781606481016103d1565b6104ed919450610537565b5f92826104aa565b83513d5f823e3d90fd5b5f80fd5b8251631807839b60e21b8152fd5b60409060031901126104ff576004356001600160a01b03811681036104ff579060243590565b67ffffffffffffffff811161054b57604052565b634e487b7160e01b5f52604160045260245ffd5b60a0810190811067ffffffffffffffff82111761054b57604052565b90601f8019910116810190811067ffffffffffffffff82111761054b57604052565b60025f54146105ac5760025f55565b604051633ee5aeb560e01b8152600490fd5b81516001600160a01b03909116915f91829160200182855af13d1561066b573d67ffffffffffffffff811161054b5761061991604051916106096020601f19601f840116018461057b565b82523d5f602084013e5b83610677565b8051908115159182610647575b505061062f5750565b60249060405190635274afe760e01b82526004820152fd5b81925090602091810103126104ff57602001518015908115036104ff575f80610626565b61061990606090610613565b9061069e575080511561068c57805190602001fd5b604051630a12f52160e11b8152600490fd5b815115806106d1575b6106af575090565b604051639996b31560e01b81526001600160a01b039091166004820152602490fd5b50803b156106a756fea26469706673582212204d36952f59a3d2af9deefd37b990f633542ad36bf1d447a532ca04b2ba41eb5864736f6c63430008190033","linkReferences":{}},"methodIdentifiers":{"ERC20()":"cc4aa204","ERC20_TOKEN()":"efc4c631","XERC20()":"b20a0fb9","XERC20_TOKEN()":"f786f8a5","deposit(uint256)":"b6b55f25","depositTo(address,uint256)":"ffaad6a5","withdraw(uint256)":"2e1a7d4d","withdrawTo(address,uint256)":"205c2878"},"id":186}