{"abi":[{"type":"constructor","inputs":[],"stateMutability":"nonpayable"},{"type":"function","name":"BRIDGE_MANAGER_ROLE","inputs":[],"outputs":[{"name":"","type":"bytes32","internalType":"bytes32"}],"stateMutability":"view"},{"type":"function","name":"DEFAULT_ADMIN_ROLE","inputs":[],"outputs":[{"name":"","type":"bytes32","internalType":"bytes32"}],"stateMutability":"view"},{"type":"function","name":"DOMAIN_SEPARATOR","inputs":[],"outputs":[{"name":"","type":"bytes32","internalType":"bytes32"}],"stateMutability":"view"},{"type":"function","name":"UPGRADE_INTERFACE_VERSION","inputs":[],"outputs":[{"name":"","type":"string","internalType":"string"}],"stateMutability":"view"},{"type":"function","name":"allowance","inputs":[{"name":"owner","type":"address","internalType":"address"},{"name":"spender","type":"address","internalType":"address"}],"outputs":[{"name":"","type":"uint256","internalType":"uint256"}],"stateMutability":"view"},{"type":"function","name":"approve","inputs":[{"name":"spender","type":"address","internalType":"address"},{"name":"value","type":"uint256","internalType":"uint256"}],"outputs":[{"name":"","type":"bool","internalType":"bool"}],"stateMutability":"nonpayable"},{"type":"function","name":"balanceOf","inputs":[{"name":"account","type":"address","internalType":"address"}],"outputs":[{"name":"","type":"uint256","internalType":"uint256"}],"stateMutability":"view"},{"type":"function","name":"bridges","inputs":[{"name":"","type":"address","internalType":"address"}],"outputs":[{"name":"minterParams","type":"tuple","internalType":"struct IXERC20.BridgeParameters","components":[{"name":"timestamp","type":"uint256","internalType":"uint256"},{"name":"ratePerSecond","type":"uint256","internalType":"uint256"},{"name":"maxLimit","type":"uint256","internalType":"uint256"},{"name":"currentLimit","type":"uint256","internalType":"uint256"}]},{"name":"burnerParams","type":"tuple","internalType":"struct IXERC20.BridgeParameters","components":[{"name":"timestamp","type":"uint256","internalType":"uint256"},{"name":"ratePerSecond","type":"uint256","internalType":"uint256"},{"name":"maxLimit","type":"uint256","internalType":"uint256"},{"name":"currentLimit","type":"uint256","internalType":"uint256"}]}],"stateMutability":"view"},{"type":"function","name":"burn","inputs":[{"name":"_user","type":"address","internalType":"address"},{"name":"_amount","type":"uint256","internalType":"uint256"}],"outputs":[],"stateMutability":"nonpayable"},{"type":"function","name":"burningCurrentLimitOf","inputs":[{"name":"_burner","type":"address","internalType":"address"}],"outputs":[{"name":"","type":"uint256","internalType":"uint256"}],"stateMutability":"view"},{"type":"function","name":"burningMaxLimitOf","inputs":[{"name":"_burner","type":"address","internalType":"address"}],"outputs":[{"name":"","type":"uint256","internalType":"uint256"}],"stateMutability":"view"},{"type":"function","name":"decimals","inputs":[],"outputs":[{"name":"","type":"uint8","internalType":"uint8"}],"stateMutability":"view"},{"type":"function","name":"eip712Domain","inputs":[],"outputs":[{"name":"fields","type":"bytes1","internalType":"bytes1"},{"name":"name","type":"string","internalType":"string"},{"name":"version","type":"string","internalType":"string"},{"name":"chainId","type":"uint256","internalType":"uint256"},{"name":"verifyingContract","type":"address","internalType":"address"},{"name":"salt","type":"bytes32","internalType":"bytes32"},{"name":"extensions","type":"uint256[]","internalType":"uint256[]"}],"stateMutability":"view"},{"type":"function","name":"getRoleAdmin","inputs":[{"name":"role","type":"bytes32","internalType":"bytes32"}],"outputs":[{"name":"","type":"bytes32","internalType":"bytes32"}],"stateMutability":"view"},{"type":"function","name":"grantRole","inputs":[{"name":"role","type":"bytes32","internalType":"bytes32"},{"name":"account","type":"address","internalType":"address"}],"outputs":[],"stateMutability":"nonpayable"},{"type":"function","name":"hasRole","inputs":[{"name":"role","type":"bytes32","internalType":"bytes32"},{"name":"account","type":"address","internalType":"address"}],"outputs":[{"name":"","type":"bool","internalType":"bool"}],"stateMutability":"view"},{"type":"function","name":"initialize","inputs":[{"name":"name","type":"string","internalType":"string"},{"name":"symbol","type":"string","internalType":"string"},{"name":"admin","type":"address","internalType":"address"}],"outputs":[],"stateMutability":"nonpayable"},{"type":"function","name":"lockbox","inputs":[],"outputs":[{"name":"","type":"address","internalType":"address"}],"stateMutability":"view"},{"type":"function","name":"mint","inputs":[{"name":"_user","type":"address","internalType":"address"},{"name":"_amount","type":"uint256","internalType":"uint256"}],"outputs":[],"stateMutability":"nonpayable"},{"type":"function","name":"mintingCurrentLimitOf","inputs":[{"name":"_minter","type":"address","internalType":"address"}],"outputs":[{"name":"","type":"uint256","internalType":"uint256"}],"stateMutability":"view"},{"type":"function","name":"mintingMaxLimitOf","inputs":[{"name":"_minter","type":"address","internalType":"address"}],"outputs":[{"name":"","type":"uint256","internalType":"uint256"}],"stateMutability":"view"},{"type":"function","name":"name","inputs":[],"outputs":[{"name":"","type":"string","internalType":"string"}],"stateMutability":"view"},{"type":"function","name":"nonces","inputs":[{"name":"owner","type":"address","internalType":"address"}],"outputs":[{"name":"","type":"uint256","internalType":"uint256"}],"stateMutability":"view"},{"type":"function","name":"permit","inputs":[{"name":"owner","type":"address","internalType":"address"},{"name":"spender","type":"address","internalType":"address"},{"name":"value","type":"uint256","internalType":"uint256"},{"name":"deadline","type":"uint256","internalType":"uint256"},{"name":"v","type":"uint8","internalType":"uint8"},{"name":"r","type":"bytes32","internalType":"bytes32"},{"name":"s","type":"bytes32","internalType":"bytes32"}],"outputs":[],"stateMutability":"nonpayable"},{"type":"function","name":"proxiableUUID","inputs":[],"outputs":[{"name":"","type":"bytes32","internalType":"bytes32"}],"stateMutability":"view"},{"type":"function","name":"renounceRole","inputs":[{"name":"role","type":"bytes32","internalType":"bytes32"},{"name":"callerConfirmation","type":"address","internalType":"address"}],"outputs":[],"stateMutability":"nonpayable"},{"type":"function","name":"revokeRole","inputs":[{"name":"role","type":"bytes32","internalType":"bytes32"},{"name":"account","type":"address","internalType":"address"}],"outputs":[],"stateMutability":"nonpayable"},{"type":"function","name":"setLimits","inputs":[{"name":"_bridge","type":"address","internalType":"address"},{"name":"_mintingLimit","type":"uint256","internalType":"uint256"},{"name":"_burningLimit","type":"uint256","internalType":"uint256"}],"outputs":[],"stateMutability":"nonpayable"},{"type":"function","name":"setLockbox","inputs":[{"name":"_lockbox","type":"address","internalType":"address"}],"outputs":[],"stateMutability":"nonpayable"},{"type":"function","name":"supportsInterface","inputs":[{"name":"interfaceId","type":"bytes4","internalType":"bytes4"}],"outputs":[{"name":"","type":"bool","internalType":"bool"}],"stateMutability":"view"},{"type":"function","name":"symbol","inputs":[],"outputs":[{"name":"","type":"string","internalType":"string"}],"stateMutability":"view"},{"type":"function","name":"totalSupply","inputs":[],"outputs":[{"name":"","type":"uint256","internalType":"uint256"}],"stateMutability":"view"},{"type":"function","name":"transfer","inputs":[{"name":"to","type":"address","internalType":"address"},{"name":"value","type":"uint256","internalType":"uint256"}],"outputs":[{"name":"","type":"bool","internalType":"bool"}],"stateMutability":"nonpayable"},{"type":"function","name":"transferFrom","inputs":[{"name":"from","type":"address","internalType":"address"},{"name":"to","type":"address","internalType":"address"},{"name":"value","type":"uint256","internalType":"uint256"}],"outputs":[{"name":"","type":"bool","internalType":"bool"}],"stateMutability":"nonpayable"},{"type":"function","name":"upgradeToAndCall","inputs":[{"name":"newImplementation","type":"address","internalType":"address"},{"name":"data","type":"bytes","internalType":"bytes"}],"outputs":[],"stateMutability":"payable"},{"type":"event","name":"Approval","inputs":[{"name":"owner","type":"address","indexed":true,"internalType":"address"},{"name":"spender","type":"address","indexed":true,"internalType":"address"},{"name":"value","type":"uint256","indexed":false,"internalType":"uint256"}],"anonymous":false},{"type":"event","name":"BridgeLimitsSet","inputs":[{"name":"mintingLimit","type":"uint256","indexed":false,"internalType":"uint256"},{"name":"burningLimit","type":"uint256","indexed":false,"internalType":"uint256"},{"name":"bridge","type":"address","indexed":true,"internalType":"address"}],"anonymous":false},{"type":"event","name":"EIP712DomainChanged","inputs":[],"anonymous":false},{"type":"event","name":"Initialized","inputs":[{"name":"version","type":"uint64","indexed":false,"internalType":"uint64"}],"anonymous":false},{"type":"event","name":"LockboxSet","inputs":[{"name":"lockbox","type":"address","indexed":true,"internalType":"address"}],"anonymous":false},{"type":"event","name":"RoleAdminChanged","inputs":[{"name":"role","type":"bytes32","indexed":true,"internalType":"bytes32"},{"name":"previousAdminRole","type":"bytes32","indexed":true,"internalType":"bytes32"},{"name":"newAdminRole","type":"bytes32","indexed":true,"internalType":"bytes32"}],"anonymous":false},{"type":"event","name":"RoleGranted","inputs":[{"name":"role","type":"bytes32","indexed":true,"internalType":"bytes32"},{"name":"account","type":"address","indexed":true,"internalType":"address"},{"name":"sender","type":"address","indexed":true,"internalType":"address"}],"anonymous":false},{"type":"event","name":"RoleRevoked","inputs":[{"name":"role","type":"bytes32","indexed":true,"internalType":"bytes32"},{"name":"account","type":"address","indexed":true,"internalType":"address"},{"name":"sender","type":"address","indexed":true,"internalType":"address"}],"anonymous":false},{"type":"event","name":"Transfer","inputs":[{"name":"from","type":"address","indexed":true,"internalType":"address"},{"name":"to","type":"address","indexed":true,"internalType":"address"},{"name":"value","type":"uint256","indexed":false,"internalType":"uint256"}],"anonymous":false},{"type":"event","name":"Upgraded","inputs":[{"name":"implementation","type":"address","indexed":true,"internalType":"address"}],"anonymous":false},{"type":"error","name":"AccessControlBadConfirmation","inputs":[]},{"type":"error","name":"AccessControlUnauthorizedAccount","inputs":[{"name":"account","type":"address","internalType":"address"},{"name":"neededRole","type":"bytes32","internalType":"bytes32"}]},{"type":"error","name":"AddressEmptyCode","inputs":[{"name":"target","type":"address","internalType":"address"}]},{"type":"error","name":"ECDSAInvalidSignature","inputs":[]},{"type":"error","name":"ECDSAInvalidSignatureLength","inputs":[{"name":"length","type":"uint256","internalType":"uint256"}]},{"type":"error","name":"ECDSAInvalidSignatureS","inputs":[{"name":"s","type":"bytes32","internalType":"bytes32"}]},{"type":"error","name":"ERC1967InvalidImplementation","inputs":[{"name":"implementation","type":"address","internalType":"address"}]},{"type":"error","name":"ERC1967NonPayable","inputs":[]},{"type":"error","name":"ERC20InsufficientAllowance","inputs":[{"name":"spender","type":"address","internalType":"address"},{"name":"allowance","type":"uint256","internalType":"uint256"},{"name":"needed","type":"uint256","internalType":"uint256"}]},{"type":"error","name":"ERC20InsufficientBalance","inputs":[{"name":"sender","type":"address","internalType":"address"},{"name":"balance","type":"uint256","internalType":"uint256"},{"name":"needed","type":"uint256","internalType":"uint256"}]},{"type":"error","name":"ERC20InvalidApprover","inputs":[{"name":"approver","type":"address","internalType":"address"}]},{"type":"error","name":"ERC20InvalidReceiver","inputs":[{"name":"receiver","type":"address","internalType":"address"}]},{"type":"error","name":"ERC20InvalidSender","inputs":[{"name":"sender","type":"address","internalType":"address"}]},{"type":"error","name":"ERC20InvalidSpender","inputs":[{"name":"spender","type":"address","internalType":"address"}]},{"type":"error","name":"ERC2612ExpiredSignature","inputs":[{"name":"deadline","type":"uint256","internalType":"uint256"}]},{"type":"error","name":"ERC2612InvalidSigner","inputs":[{"name":"signer","type":"address","internalType":"address"},{"name":"owner","type":"address","internalType":"address"}]},{"type":"error","name":"FailedInnerCall","inputs":[]},{"type":"error","name":"IXERC20_INVALID_0_VALUE","inputs":[]},{"type":"error","name":"IXERC20_NotFactory","inputs":[]},{"type":"error","name":"IXERC20_NotHighEnoughLimits","inputs":[]},{"type":"error","name":"InvalidAccountNonce","inputs":[{"name":"account","type":"address","internalType":"address"},{"name":"currentNonce","type":"uint256","internalType":"uint256"}]},{"type":"error","name":"InvalidInitialization","inputs":[]},{"type":"error","name":"NotInitializing","inputs":[]},{"type":"error","name":"UUPSUnauthorizedCallContext","inputs":[]},{"type":"error","name":"UUPSUnsupportedProxiableUUID","inputs":[{"name":"slot","type":"bytes32","internalType":"bytes32"}]}],"bytecode":{"object":"0x60a0806040523460c857306080527ff0c57e16840df040f15088dc2f81fe391c3923bec73e23a9662efc9c229c6a009081549060ff8260401c1660b957506001600160401b036002600160401b0319828216016075575b6040516127c490816100cd8239608051818181610cd40152610d890152f35b6001600160401b031990911681179091556040519081527fc7f505b2f371ae2175ee4913f4499e1f2633a7b5936321eed1cdaeb6115181d290602090a15f80806056565b63f92ee8a960e01b8152600490fd5b5f80fdfe6080604090808252600480361015610015575f80fd5b5f3560e01c91826301ffc9a714611b435750816306fdde0314611a70578163077f224a146112f4578163095ea7b3146112cb5781630c05f82c1461129157816318160ddd1461125457816323b872dd14611218578163248a9ca3146111e25781632f2ff15d146111ba578163313ce5671461119f5781633644e5151461118357816336568abe1461113f57816340c10f1914610ff0578163435350b714610f8b5781634f1ef28614610d3857816352d1902d14610cc1578163651fd26814610c7757816366cc570214610c5057816370a0823114610c0d5781637ecebe0014610bb757816384b0196e14610a4a57816391d14854146109fa57816395d89b41146108f0578163998955d31461089c5781639dc29fac146106ea578163a08d565414610551578163a217fddf14610537578163a9059cbb14610507578163ad3cb1cc146104bf578163c1eb713714610485578163ced67f0c146103e9578163d505accf1461026b578163d547741f1461022357508063dd62ed3e146101de5763f75e8512146101a1575f80fd5b346101da575f3660031901126101da57602090517fcce296b040332a080e6df13515a3ec2869e21cd20f7344af0987ddb938d8bd218152f35b5f80fd5b50346101da57806003193601126101da576020906101fa611c7b565b61020b610205611c91565b91611ca7565b9060018060a01b03165f528252805f20549051908152f35b82346101da57806003193601126101da5761026991356102646001610246611c91565b93835f525f8051602061276f8339815191526020525f2001546122e8565b612334565b005b9050346101da5760e03660031901126101da57610286611c7b565b61028e611c91565b906044359260643560843560ff811681036101da578142116103d25760018060a01b039081851692835f527f5ab42ced628888259c08ac98db1eb0cf702fc1501344311d8b100cd1bfe4bb00602052885f209081549160018301905589519060208201927f6e71edae12b1b97f4d1f60370fef10105fa2faae0126114a169c64845d6126c98452868c840152858a1660608401528a608084015260a083015260c082015260c0815260e0810181811067ffffffffffffffff8211176103bf578a5251902061039191610388916103626124b6565b908b519161190160f01b83526002830152602282015260c43591604260a435922061252c565b909291926125b9565b168181036103a45761026986868661245a565b86516325c0072360e11b815292830152602482015260449150fd5b604187634e487b7160e01b5f525260245ffd5b865163313c898160e11b8152808401839052602490fd5b9050346101da5760203660031901126101da5761010091610483906001600160a01b03610414611c7b565b165f52600160205261045d610436825f209461042f86611cdf565b9501611cdf565b91518094606080918051845260208101516020850152604081015160408501520151910152565b80516080840152602081015160a0840152604081015160c08401526060015160e0830152565bf35b82346101da5760203660031901126101da576020906001600160a01b036104aa611c7b565b165f52600182526006815f2001549051908152f35b82346101da575f3660031901126101da578051610503916104df82611bb9565b60058252640352e302e360dc1b602083015251918291602083526020830190611b95565b0390f35b82346101da57806003193601126101da57602090610530610526611c7b565b60243590336121a9565b5160018152f35b82346101da575f3660031901126101da57602090515f8152f35b9050346101da5760603660031901126101da5761056c611c7b565b916024356044357fcce296b040332a080e6df13515a3ec2869e21cd20f7344af0987ddb938d8bd2194855f526020905f8051602061276f8339815191528252845f20335f52825260ff855f205416156106cd576001600160a01b03165f8181526001835285902080549197507f93f3bbfe8cfb354ec059175107653f49f6eb479a8622a7d83866ea015435c94496919081610698575050600784915b885f5260018452865f20428155620151809384880460018301558760028301556003820155818101549081155f1461066957505084925b895f5260018552875f209142908301558504600582015584600682015501558351928352820152a2005b61068291848201549160056006820154910154926123e1565b858111156106935750845b9261063f565b61068d565b6106b29160038201549160016002820154910154926123e1565b848111156106c557506007845b91610608565b6007906106bf565b845163e2517d3f60e01b8152338188015260248101889052604490fd5b9050346101da57816003193601126101da57610704611c7b565b916001600160a01b038084169260243592913385900361088c575b5f541633036107fc575b83156107e757835f525f8051602061274f8339815191529485602052825f2054918483106107b3575f867fddf252ad1be2c89b69c2b068fc378daa952ba7f163c4a11628f55a4df523b3ef6020888881898e878952855203818720557f52c63247e1f47db19d5ce0460030c497f067ca4cebf71ba98eeadabe20bace0282815403905551908152a3005b835163391434e360e21b81526001600160a01b03909216908201908152602081018390526040810185905281906060010390fd5b5f6024925191634b637e8f60e11b8352820152fd5b335f52600160205282610825835f206007810154906006810154600586830154920154926123e1565b1061087e57335f52600160205261086a83610856845f206007810154906006810154600587830154920154926123e1565b335f5260016020524284865f2001556123b3565b335f5260016020526007835f200155610729565b90516305b4215560e11b8152fd5b6108978433886120e1565b61071f565b82346101da5760203660031901126101da576020916108e9906001600160a01b036108c5611c7b565b165f5260018452825f206007810154916005600683015491830154920154926123e1565b9051908152f35b82346101da575f3660031901126101da578051905f90827f52c63247e1f47db19d5ce0460030c497f067ca4cebf71ba98eeadabe20bace0492835461093481611d22565b90818452602095600191876001821691825f146109d3575050600114610977575b5050506105039291610968910385611be9565b51928284938452830190611b95565b5f90815286935091907f46a2803e59a4de4e7a4c574b1243f25977ac4c77d5a1a4a609b5394cebb4a2aa5b8284106109bb5750505082010181610968610503610955565b8054848a0186015288955087949093019281016109a2565b60ff19168782015293151560051b8601909301935084925061096891506105039050610955565b82346101da57806003193601126101da57602091610a16611c91565b90355f525f8051602061276f8339815191528352815f209060018060a01b03165f52825260ff815f20541690519015158152f35b9050346101da575f3660031901126101da577fa16a46d94261c7517cc8ff89f61c0ce93598e3c849801011dee649a6a557d100541580610b8e575b15610b5457610a92611d5a565b91610a9b611e42565b815191602091602084019484861067ffffffffffffffff871117610b415750610af68260209287610ae999989795525f85528151988998600f60f81b8a5260e0868b015260e08a0190611b95565b9188830390890152611b95565b914660608701523060808701525f60a087015285830360c087015251918281520192915f5b828110610b2a57505050500390f35b835185528695509381019392810192600101610b1b565b604190634e487b7160e01b5f525260245ffd5b6020606492519162461bcd60e51b835282015260156024820152741152540dcc4c8e88155b9a5b9a5d1a585b1a5e9959605a1b6044820152fd5b507fa16a46d94261c7517cc8ff89f61c0ce93598e3c849801011dee649a6a557d1015415610a85565b82346101da5760203660031901126101da576020906001600160a01b03610bdc611c7b565b165f527f5ab42ced628888259c08ac98db1eb0cf702fc1501344311d8b100cd1bfe4bb008252805f20549051908152f35b82346101da5760203660031901126101da576020906001600160a01b03610c32611c7b565b165f525f8051602061274f8339815191528252805f20549051908152f35b82346101da575f3660031901126101da575f5490516001600160a01b039091168152602090f35b82346101da5760203660031901126101da576020906001600160a01b03610c9c611c7b565b165f52600182526108e9815f20600381015490600281015460018254920154926123e1565b82346101da575f3660031901126101da577f00000000000000000000000000000000000000000000000000000000000000006001600160a01b03163003610d2b57602090517f360894a13ba1a3210667c828492db98dca3e2076cc3735a920a3ca505d382bbc8152f35b5163703e46dd60e11b8152fd5b9050816003193601126101da57610d4d611c7b565b9160243567ffffffffffffffff81116101da57366023820112156101da57610d7e9036906024818601359101611c27565b906001600160a01b037f00000000000000000000000000000000000000000000000000000000000000008116308114908115610f5d575b50610f4d57610dc2612292565b8416918151946352d1902d60e01b865260209081878781885afa5f9781610f1e575b50610e00578351634c9c8ce360e01b8152808701869052602490fd5b919490937f360894a13ba1a3210667c828492db98dca3e2076cc3735a920a3ca505d382bbc877fc9f76b5ec45e5cdef99837d7b6d2467235c1df8933c8ca56df5c35afa2c7d4448101610f085750833b15610ef15780546001600160a01b031916821790558351907fbc7cd75a20ee27fd9adebab32041f755214dbc6bffa90cc0225b39da2e5c2d3b5f80a2855115610ed85750505f80858561026997519101845af4913d15610ece573d610ec0610eb782611c0b565b92519283611be9565b81525f81943d92013e6126eb565b50606092506126eb565b93509350505034610ee557005b63b398979f60e01b8152fd5b8451634c9c8ce360e01b8152808401839052602490fd5b83602491875191632a87526960e21b8352820152fd5b9097508281813d8311610f46575b610f368183611be9565b810103126101da5751965f610de4565b503d610f2c565b815163703e46dd60e11b81528490fd5b9050817f360894a13ba1a3210667c828492db98dca3e2076cc3735a920a3ca505d382bbc541614155f610db5565b346101da5760203660031901126101da57610fa4611c7b565b610fac612292565b5f80546001600160a01b0319166001600160a01b039290921691821781557ffa2e15ea41196e438f0593ecdd6036acd83bdfcd39d627b77c17eab43f376a399080a2005b82346101da57806003193601126101da57611009611c7b565b5f5460243592916001600160a01b0391821633036110b7575b169283156110a2575060205f927fddf252ad1be2c89b69c2b068fc378daa952ba7f163c4a11628f55a4df523b3ef927f52c63247e1f47db19d5ce0460030c497f067ca4cebf71ba98eeadabe20bace0261107d8382546123d4565b90558585525f8051602061274f833981519152835280852082815401905551908152a3005b5f602492519163ec442f0560e01b8352820152fd5b335f52600180602052846110de855f206003810154906002810154858254920154926123e1565b1061112f57335f528060205261111c8561110b865f206003810154906002810154868254920154926123e1565b335f528360205242875f20556123b3565b90335f526020526003845f200155611022565b83516305b4215560e11b81528690fd5b82346101da57806003193601126101da57611158611c91565b90336001600160a01b0383160361117457506102699135612334565b5163334bd91960e11b81529050fd5b82346101da575f3660031901126101da576020906108e96124b6565b82346101da575f3660031901126101da576020905160128152f35b82346101da57806003193601126101da5761026991356111dd6001610246611c91565b61205e565b82346101da5760203660031901126101da57602091355f525f8051602061276f83398151915282526001815f2001549051908152f35b82346101da5760603660031901126101da57602090610530611238611c7b565b611240611c91565b6044359161124f8333836120e1565b6121a9565b82346101da575f3660031901126101da576020907f52c63247e1f47db19d5ce0460030c497f067ca4cebf71ba98eeadabe20bace02549051908152f35b82346101da5760203660031901126101da576020906001600160a01b036112b6611c7b565b165f52600182526002815f2001549051908152f35b82346101da57806003193601126101da576020906105306112ea611c7b565b602435903361245a565b9050346101da5760603660031901126101da5767ffffffffffffffff9080358281116101da576113279036908301611c5d565b906024358381116101da5761133f9036908301611c5d565b91604435906001600160a01b03821682036101da577ff0c57e16840df040f15088dc2f81fe391c3923bec73e23a9662efc9c229c6a009485549460ff86891c16159482871696871580611a69575b60018099149081611a5f575b159081611a56575b50611a475767ffffffffffffffff1981168817895586611a28575b506113c5612419565b6113cd612419565b835191838311611a15577f52c63247e1f47db19d5ce0460030c497f067ca4cebf71ba98eeadabe20bace036114028154611d22565b93601f948581116119b3575b50806020868211600114611937575f9161192c575b505f19600383901b1c1916908a1b1790555b805184811161182457807f52c63247e1f47db19d5ce0460030c497f067ca4cebf71ba98eeadabe20bace049261146b8454611d22565b8681116118bf575b50602090868311600114611842575f92611837575b50505f19600383901b1c191690891b1790555b6114a3612419565b8851936114af85611bb9565b878552603160f81b60208601526114c4612419565b805184811161182457807fa16a46d94261c7517cc8ff89f61c0ce93598e3c849801011dee649a6a557d102926114fa8454611d22565b8681116117b7575b5060209086831160011461173a575f9261172f575b50505f19600383901b1c191690891b1790555b8351928311610b4157507fa16a46d94261c7517cc8ff89f61c0ce93598e3c849801011dee649a6a557d103926115608454611d22565b8281116116cd575b50602091831160011461164a576115fc949392915f918361163f575b50505f19600383901b1c191690861b1790555b5f7fa16a46d94261c7517cc8ff89f61c0ce93598e3c849801011dee649a6a557d100555f7fa16a46d94261c7517cc8ff89f61c0ce93598e3c849801011dee649a6a557d101556115e5612419565b6115ed612419565b6115f681611f01565b50611f9e565b5061160357005b7fc7f505b2f371ae2175ee4913f4499e1f2633a7b5936321eed1cdaeb6115181d29260209268ff000000000000000019815416905551908152a1005b015190505f80611584565b9392918691601f19821690845f527f5f9ce34815f8e11431c7bb75a8e6886a91478f7ffc1dbb0a98dc240fddd76b75915f5b8181106116b5575096836115fc981061169d575b505050811b019055611597565b01515f1960f88460031b161c191690555f8080611690565b8289015184558a95909301926020928301920161167c565b845f527f5f9ce34815f8e11431c7bb75a8e6886a91478f7ffc1dbb0a98dc240fddd76b758380860160051c82019260208710611726575b0160051c019088905b82811061171b575050611568565b5f815501889061170d565b92508192611704565b015190505f80611517565b908b9350601f19831691855f527f42ad5d3e1f2e6e70edcf6d991b8a3023d3fca8047a131592f9edb9fd9b89d57d925f5b81811061179f57508411611787575b505050811b01905561152a565b01515f1960f88460031b161c191690555f808061177a565b8284015185558e96909401936020938401930161176b565b909150835f527f42ad5d3e1f2e6e70edcf6d991b8a3023d3fca8047a131592f9edb9fd9b89d57d8680850160051c8201926020861061181b575b918d91869594930160051c01915b82811061180d575050611502565b5f81558594508d91016117ff565b925081926117f1565b604183634e487b7160e01b5f525260245ffd5b015190505f80611488565b908b9350601f19831691855f527f46a2803e59a4de4e7a4c574b1243f25977ac4c77d5a1a4a609b5394cebb4a2aa925f5b8181106118a75750841161188f575b505050811b01905561149b565b01515f1960f88460031b161c191690555f8080611882565b8284015185558e969094019360209384019301611873565b909150835f527f46a2803e59a4de4e7a4c574b1243f25977ac4c77d5a1a4a609b5394cebb4a2aa8680850160051c82019260208610611923575b918d91869594930160051c01915b828110611915575050611473565b5f81558594508d9101611907565b925081926118f9565b90508701515f611423565b8b9250601f19821690845f527f2ae08a8e29253f69ac5d979a101956ab8f8d9d7ded63fa7a83b16fc47648eab0915f5b8b82821061199c5750508311611984575b5050811b019055611435565b8901515f1960f88460031b161c191690555f80611978565b83015184558e959093019260209283019201611967565b825f527f2ae08a8e29253f69ac5d979a101956ab8f8d9d7ded63fa7a83b16fc47648eab08680840160051c82019260208510611a0c575b0160051c01908b905b828110611a0157505061140e565b5f8155018b906119f3565b925081926119ea565b604182634e487b7160e01b5f525260245ffd5b68ffffffffffffffffff1916680100000000000000011788555f6113bc565b50885163f92ee8a960e01b8152fd5b9050155f6113a1565b303b159150611399565b508661138d565b82346101da575f3660031901126101da578051905f90827f52c63247e1f47db19d5ce0460030c497f067ca4cebf71ba98eeadabe20bace03928354611ab481611d22565b90818452602095600191876001821691825f146109d3575050600114611ae7575050506105039291610968910385611be9565b5f90815286935091907f2ae08a8e29253f69ac5d979a101956ab8f8d9d7ded63fa7a83b16fc47648eab05b828410611b2b5750505082010181610968610503610955565b8054848a018601528895508794909301928101611b12565b90346101da5760203660031901126101da57359063ffffffff60e01b82168092036101da57602091637965db0b60e01b8114908115611b84575b5015158152f35b6301ffc9a760e01b14905083611b7d565b805180835260209291819084018484015e5f828201840152601f01601f1916010190565b6040810190811067ffffffffffffffff821117611bd557604052565b634e487b7160e01b5f52604160045260245ffd5b90601f8019910116810190811067ffffffffffffffff821117611bd557604052565b67ffffffffffffffff8111611bd557601f01601f191660200190565b929192611c3382611c0b565b91611c416040519384611be9565b8294818452818301116101da578281602093845f960137010152565b9080601f830112156101da57816020611c7893359101611c27565b90565b600435906001600160a01b03821682036101da57565b602435906001600160a01b03821682036101da57565b6001600160a01b03165f9081527f52c63247e1f47db19d5ce0460030c497f067ca4cebf71ba98eeadabe20bace016020526040902090565b906040516080810181811067ffffffffffffffff821117611bd5576040526060600382948054845260018101546020850152600281015460408501520154910152565b90600182811c92168015611d50575b6020831014611d3c57565b634e487b7160e01b5f52602260045260245ffd5b91607f1691611d31565b604051905f827fa16a46d94261c7517cc8ff89f61c0ce93598e3c849801011dee649a6a557d10291825492611d8e84611d22565b80845293602091600191828116908115611e1c5750600114611dbc575b505050611dba92500383611be9565b565b5f9081527f42ad5d3e1f2e6e70edcf6d991b8a3023d3fca8047a131592f9edb9fd9b89d57d9590935091905b828410611e045750611dba9450505081016020015f8080611dab565b85548885018301529485019487945092810192611de8565b9250505060209250611dba94915060ff191682840152151560051b8201015f8080611dab565b604051905f827fa16a46d94261c7517cc8ff89f61c0ce93598e3c849801011dee649a6a557d10391825492611e7684611d22565b80845293602091600191828116908115611e1c5750600114611ea157505050611dba92500383611be9565b5f9081527f5f9ce34815f8e11431c7bb75a8e6886a91478f7ffc1dbb0a98dc240fddd76b759590935091905b828410611ee95750611dba9450505081016020015f8080611dab565b85548885018301529485019487945092810192611ecd565b6001600160a01b03165f8181527fb7db2dd08fcb62d0c9e08c51941cae53c267786a0b75803fb7960902fc8ef97d60205260409020545f8051602061276f8339815191529060ff16611f98575f805260205260405f20815f5260205260405f20600160ff1982541617905533905f7f2f8788117e7eff1d82e926ec794901d17c78024a50270940304540a733656f0d8180a4600190565b50505f90565b6001600160a01b03165f8181527f4d44061e302ce240c09e60f815c0f6347fd82839d7b74858e680e192c4602a0c60205260409020547fcce296b040332a080e6df13515a3ec2869e21cd20f7344af0987ddb938d8bd2191905f8051602061276f8339815191529060ff1661205757825f5260205260405f20815f5260205260405f20600160ff1982541617905533917f2f8788117e7eff1d82e926ec794901d17c78024a50270940304540a733656f0d5f80a4600190565b5050505f90565b90815f525f8051602061276f8339815191528060205260405f209160018060a01b031691825f5260205260ff60405f205416155f1461205757825f5260205260405f20815f5260205260405f20600160ff1982541617905533917f2f8788117e7eff1d82e926ec794901d17c78024a50270940304540a733656f0d5f80a4600190565b6120ea81611ca7565b9060018060a01b0380841692835f5260205260405f2054935f198503612113575b505050505050565b85851061217857508116156121605781156121485761213190611ca7565b905f526020520360405f20555f808080808061210b565b604051634a1406b160e11b81525f6004820152602490fd5b60405163e602df0560e01b81525f6004820152602490fd5b604051637dc7a0d960e11b81526001600160a01b039190911660048201526024810185905260448101869052606490fd5b916001600160a01b0380841692831561227a571692831561226257825f525f8051602061274f8339815191528060205260405f20549183831061222f575091806020927fddf252ad1be2c89b69c2b068fc378daa952ba7f163c4a11628f55a4df523b3ef94865f5284520360405f2055845f5260405f20818154019055604051908152a3565b60405163391434e360e21b81526001600160a01b0391909116600482015260248101929092525060448101829052606490fd5b60405163ec442f0560e01b81525f6004820152602490fd5b604051634b637e8f60e11b81525f6004820152602490fd5b335f9081527fb7db2dd08fcb62d0c9e08c51941cae53c267786a0b75803fb7960902fc8ef97d602052604090205460ff16156122ca57565b60405163e2517d3f60e01b81523360048201525f6024820152604490fd5b805f525f8051602061276f83398151915260205260405f20335f5260205260ff60405f205416156123165750565b6044906040519063e2517d3f60e01b82523360048301526024820152fd5b90815f525f8051602061276f8339815191528060205260405f209160018060a01b031691825f5260205260ff60405f2054165f1461205757825f5260205260405f20815f5260205260405f2060ff19815416905533917ff6391f5c32d9c69d2a47ea670b442974b53935d1edc7fd64eb21e047a839171b5f80a4600190565b919082039182116123c057565b634e487b7160e01b5f52601160045260245ffd5b919082018092116123c057565b916123ef90939193426123b3565b8181029181830414901517156123c057612408916123d4565b81811115612414575090565b905090565b60ff7ff0c57e16840df040f15088dc2f81fe391c3923bec73e23a9662efc9c229c6a005460401c161561244857565b604051631afcd79f60e31b8152600490fd5b916001600160a01b038084169283156121605716928315612148577f8c5be1e5ebec7d5bd14f71427d1e84f3dd0314c0f7b2291e5b200ac8c7c3b925916124a2602092611ca7565b855f5282528060405f2055604051908152a3565b6124be61263c565b6124c66126a6565b6040519060208201927f8b73c3c69bb8fe3d512ecc4cf759cc79239f7b179b0ffacaa9a75d522b39400f8452604083015260608201524660808201523060a082015260a0815260c0810181811067ffffffffffffffff821117611bd55760405251902090565b91907f7fffffffffffffffffffffffffffffff5d576e7357a4501ddfe92f46681b20a084116125ae579160209360809260ff5f9560405194855216868401526040830152606082015282805260015afa156125a3575f516001600160a01b0381161561259957905f905f90565b505f906001905f90565b6040513d5f823e3d90fd5b5050505f9160039190565b600481101561262857806125cb575050565b600181036125e55760405163f645eedf60e01b8152600490fd5b600281036126065760405163fce698f760e01b815260048101839052602490fd5b6003146126105750565b602490604051906335e2f38360e21b82526004820152fd5b634e487b7160e01b5f52602160045260245ffd5b612644611d5a565b8051908115612654576020012090565b50507fa16a46d94261c7517cc8ff89f61c0ce93598e3c849801011dee649a6a557d1005480156126815790565b507fc5d2460186f7233c927e7db2dcc703c0e500b653ca82273b7bfad8045d85a47090565b6126ae611e42565b80519081156126be576020012090565b50507fa16a46d94261c7517cc8ff89f61c0ce93598e3c849801011dee649a6a557d1015480156126815790565b90612712575080511561270057805190602001fd5b604051630a12f52160e11b8152600490fd5b81511580612745575b612723575090565b604051639996b31560e01b81526001600160a01b039091166004820152602490fd5b50803b1561271b56fe52c63247e1f47db19d5ce0460030c497f067ca4cebf71ba98eeadabe20bace0002dd7bc7dec4dceedda775e58dd541e08a116c6c53815c0bd028192f7b626800a2646970667358221220f63a5e5394d4124ebaff01c64f3bde3a067208fe92c5bbf8241781663e348ffb64736f6c63430008190033","linkReferences":{}},"methodIdentifiers":{"BRIDGE_MANAGER_ROLE()":"f75e8512","DEFAULT_ADMIN_ROLE()":"a217fddf","DOMAIN_SEPARATOR()":"3644e515","UPGRADE_INTERFACE_VERSION()":"ad3cb1cc","allowance(address,address)":"dd62ed3e","approve(address,uint256)":"095ea7b3","balanceOf(address)":"70a08231","bridges(address)":"ced67f0c","burn(address,uint256)":"9dc29fac","burningCurrentLimitOf(address)":"998955d3","burningMaxLimitOf(address)":"c1eb7137","decimals()":"313ce567","eip712Domain()":"84b0196e","getRoleAdmin(bytes32)":"248a9ca3","grantRole(bytes32,address)":"2f2ff15d","hasRole(bytes32,address)":"91d14854","initialize(string,string,address)":"077f224a","lockbox()":"66cc5702","mint(address,uint256)":"40c10f19","mintingCurrentLimitOf(address)":"651fd268","mintingMaxLimitOf(address)":"0c05f82c","name()":"06fdde03","nonces(address)":"7ecebe00","permit(address,address,uint256,uint256,uint8,bytes32,bytes32)":"d505accf","proxiableUUID()":"52d1902d","renounceRole(bytes32,address)":"36568abe","revokeRole(bytes32,address)":"d547741f","setLimits(address,uint256,uint256)":"a08d5654","setLockbox(address)":"435350b7","supportsInterface(bytes4)":"01ffc9a7","symbol()":"95d89b41","totalSupply()":"18160ddd","transfer(address,uint256)":"a9059cbb","transferFrom(address,address,uint256)":"23b872dd","upgradeToAndCall(address,bytes)":"4f1ef286"},"id":185}