{"abi":[{"type":"constructor","inputs":[{"name":"_andeToken","type":"address","internalType":"address"},{"name":"_sequencer","type":"address","internalType":"address"},{"name":"_minimumBid","type":"uint256","internalType":"uint256"},{"name":"_registrationDeposit","type":"uint256","internalType":"uint256"}],"stateMutability":"nonpayable"},{"type":"function","name":"andeToken","inputs":[],"outputs":[{"name":"","type":"address","internalType":"contract IERC20"}],"stateMutability":"view"},{"type":"function","name":"blockBundles","inputs":[{"name":"","type":"uint256","internalType":"uint256"},{"name":"","type":"uint256","internalType":"uint256"}],"outputs":[{"name":"","type":"bytes32","internalType":"bytes32"}],"stateMutability":"view"},{"type":"function","name":"bundles","inputs":[{"name":"","type":"bytes32","internalType":"bytes32"}],"outputs":[{"name":"bundleHash","type":"bytes32","internalType":"bytes32"},{"name":"searcher","type":"address","internalType":"address"},{"name":"bidAmount","type":"uint256","internalType":"uint256"},{"name":"blockNumber","type":"uint256","internalType":"uint256"},{"name":"executed","type":"bool","internalType":"bool"},{"name":"timestamp","type":"uint256","internalType":"uint256"},{"name":"mevCaptured","type":"uint256","internalType":"uint256"}],"stateMutability":"view"},{"type":"function","name":"emergencyWithdraw","inputs":[{"name":"token","type":"address","internalType":"address"},{"name":"to","type":"address","internalType":"address"},{"name":"amount","type":"uint256","internalType":"uint256"}],"outputs":[],"stateMutability":"nonpayable"},{"type":"function","name":"forceUnregisterSearcher","inputs":[{"name":"searcher","type":"address","internalType":"address"}],"outputs":[],"stateMutability":"nonpayable"},{"type":"function","name":"getAuctionStats","inputs":[],"outputs":[{"name":"totalBundles","type":"uint256","internalType":"uint256"},{"name":"totalExecuted","type":"uint256","internalType":"uint256"},{"name":"totalMEVCaptured","type":"uint256","internalType":"uint256"},{"name":"registeredSearchersCount","type":"uint256","internalType":"uint256"}],"stateMutability":"view"},{"type":"function","name":"getBlockBundles","inputs":[{"name":"blockNumber","type":"uint256","internalType":"uint256"}],"outputs":[{"name":"bundleHashes","type":"bytes32[]","internalType":"bytes32[]"}],"stateMutability":"view"},{"type":"function","name":"getBundle","inputs":[{"name":"bundleHash","type":"bytes32","internalType":"bytes32"}],"outputs":[{"name":"bundle","type":"tuple","internalType":"struct MEVAuctionManager.Bundle","components":[{"name":"bundleHash","type":"bytes32","internalType":"bytes32"},{"name":"searcher","type":"address","internalType":"address"},{"name":"bidAmount","type":"uint256","internalType":"uint256"},{"name":"blockNumber","type":"uint256","internalType":"uint256"},{"name":"executed","type":"bool","internalType":"bool"},{"name":"timestamp","type":"uint256","internalType":"uint256"},{"name":"mevCaptured","type":"uint256","internalType":"uint256"}]}],"stateMutability":"view"},{"type":"function","name":"getSearcherStats","inputs":[{"name":"searcher","type":"address","internalType":"address"}],"outputs":[{"name":"stats","type":"tuple","internalType":"struct MEVAuctionManager.SearcherStats","components":[{"name":"totalBundles","type":"uint256","internalType":"uint256"},{"name":"executedBundles","type":"uint256","internalType":"uint256"},{"name":"totalMEVCaptured","type":"uint256","internalType":"uint256"},{"name":"totalBidsPaid","type":"uint256","internalType":"uint256"},{"name":"registered","type":"bool","internalType":"bool"}]}],"stateMutability":"view"},{"type":"function","name":"markBundleExecuted","inputs":[{"name":"bundleHash","type":"bytes32","internalType":"bytes32"},{"name":"mevCaptured","type":"uint256","internalType":"uint256"},{"name":"bidPaid","type":"uint256","internalType":"uint256"}],"outputs":[],"stateMutability":"nonpayable"},{"type":"function","name":"markBundleRejected","inputs":[{"name":"bundleHash","type":"bytes32","internalType":"bytes32"},{"name":"reason","type":"string","internalType":"string"}],"outputs":[],"stateMutability":"nonpayable"},{"type":"function","name":"minimumBid","inputs":[],"outputs":[{"name":"","type":"uint256","internalType":"uint256"}],"stateMutability":"view"},{"type":"function","name":"owner","inputs":[],"outputs":[{"name":"","type":"address","internalType":"address"}],"stateMutability":"view"},{"type":"function","name":"registerSearcher","inputs":[],"outputs":[],"stateMutability":"nonpayable"},{"type":"function","name":"registeredSearchers","inputs":[{"name":"","type":"address","internalType":"address"}],"outputs":[{"name":"","type":"bool","internalType":"bool"}],"stateMutability":"view"},{"type":"function","name":"registrationDeposit","inputs":[],"outputs":[{"name":"","type":"uint256","internalType":"uint256"}],"stateMutability":"view"},{"type":"function","name":"registrationDeposits","inputs":[{"name":"","type":"address","internalType":"address"}],"outputs":[{"name":"","type":"uint256","internalType":"uint256"}],"stateMutability":"view"},{"type":"function","name":"registrationOpen","inputs":[],"outputs":[{"name":"","type":"bool","internalType":"bool"}],"stateMutability":"view"},{"type":"function","name":"renounceOwnership","inputs":[],"outputs":[],"stateMutability":"nonpayable"},{"type":"function","name":"searcherBundleCount","inputs":[{"name":"","type":"address","internalType":"address"}],"outputs":[{"name":"","type":"uint256","internalType":"uint256"}],"stateMutability":"view"},{"type":"function","name":"searcherMEVCaptured","inputs":[{"name":"","type":"address","internalType":"address"}],"outputs":[{"name":"","type":"uint256","internalType":"uint256"}],"stateMutability":"view"},{"type":"function","name":"sequencer","inputs":[],"outputs":[{"name":"","type":"address","internalType":"address"}],"stateMutability":"view"},{"type":"function","name":"setRegistrationOpen","inputs":[{"name":"open","type":"bool","internalType":"bool"}],"outputs":[],"stateMutability":"nonpayable"},{"type":"function","name":"submitBundle","inputs":[{"name":"bundleHash","type":"bytes32","internalType":"bytes32"},{"name":"bidAmount","type":"uint256","internalType":"uint256"},{"name":"targetBlock","type":"uint256","internalType":"uint256"}],"outputs":[],"stateMutability":"nonpayable"},{"type":"function","name":"transferOwnership","inputs":[{"name":"newOwner","type":"address","internalType":"address"}],"outputs":[],"stateMutability":"nonpayable"},{"type":"function","name":"unregisterSearcher","inputs":[],"outputs":[],"stateMutability":"nonpayable"},{"type":"function","name":"updateMinimumBid","inputs":[{"name":"newMinimumBid","type":"uint256","internalType":"uint256"}],"outputs":[],"stateMutability":"nonpayable"},{"type":"function","name":"updateRegistrationDeposit","inputs":[{"name":"newDeposit","type":"uint256","internalType":"uint256"}],"outputs":[],"stateMutability":"nonpayable"},{"type":"function","name":"updateSequencer","inputs":[{"name":"newSequencer","type":"address","internalType":"address"}],"outputs":[],"stateMutability":"nonpayable"},{"type":"event","name":"BundleExecuted","inputs":[{"name":"bundleHash","type":"bytes32","indexed":true,"internalType":"bytes32"},{"name":"searcher","type":"address","indexed":true,"internalType":"address"},{"name":"mevCaptured","type":"uint256","indexed":false,"internalType":"uint256"},{"name":"bidPaid","type":"uint256","indexed":false,"internalType":"uint256"}],"anonymous":false},{"type":"event","name":"BundleRejected","inputs":[{"name":"bundleHash","type":"bytes32","indexed":true,"internalType":"bytes32"},{"name":"reason","type":"string","indexed":false,"internalType":"string"}],"anonymous":false},{"type":"event","name":"BundleSubmitted","inputs":[{"name":"bundleHash","type":"bytes32","indexed":true,"internalType":"bytes32"},{"name":"searcher","type":"address","indexed":true,"internalType":"address"},{"name":"bidAmount","type":"uint256","indexed":false,"internalType":"uint256"},{"name":"targetBlock","type":"uint256","indexed":false,"internalType":"uint256"}],"anonymous":false},{"type":"event","name":"MinimumBidUpdated","inputs":[{"name":"oldMinimum","type":"uint256","indexed":false,"internalType":"uint256"},{"name":"newMinimum","type":"uint256","indexed":false,"internalType":"uint256"}],"anonymous":false},{"type":"event","name":"OwnershipTransferred","inputs":[{"name":"previousOwner","type":"address","indexed":true,"internalType":"address"},{"name":"newOwner","type":"address","indexed":true,"internalType":"address"}],"anonymous":false},{"type":"event","name":"RegistrationDepositUpdated","inputs":[{"name":"oldDeposit","type":"uint256","indexed":false,"internalType":"uint256"},{"name":"newDeposit","type":"uint256","indexed":false,"internalType":"uint256"}],"anonymous":false},{"type":"event","name":"RegistrationStatusChanged","inputs":[{"name":"open","type":"bool","indexed":false,"internalType":"bool"}],"anonymous":false},{"type":"event","name":"SearcherRegistered","inputs":[{"name":"searcher","type":"address","indexed":true,"internalType":"address"},{"name":"deposit","type":"uint256","indexed":false,"internalType":"uint256"}],"anonymous":false},{"type":"event","name":"SearcherUnregistered","inputs":[{"name":"searcher","type":"address","indexed":true,"internalType":"address"},{"name":"depositRefunded","type":"uint256","indexed":false,"internalType":"uint256"}],"anonymous":false},{"type":"event","name":"SequencerUpdated","inputs":[{"name":"oldSequencer","type":"address","indexed":true,"internalType":"address"},{"name":"newSequencer","type":"address","indexed":true,"internalType":"address"}],"anonymous":false},{"type":"error","name":"AddressEmptyCode","inputs":[{"name":"target","type":"address","internalType":"address"}]},{"type":"error","name":"AddressInsufficientBalance","inputs":[{"name":"account","type":"address","internalType":"address"}]},{"type":"error","name":"AlreadyRegistered","inputs":[]},{"type":"error","name":"BundleAlreadyExecuted","inputs":[]},{"type":"error","name":"BundleAlreadyExists","inputs":[]},{"type":"error","name":"BundleNotFound","inputs":[]},{"type":"error","name":"FailedInnerCall","inputs":[]},{"type":"error","name":"InsufficientDeposit","inputs":[]},{"type":"error","name":"InvalidAmount","inputs":[]},{"type":"error","name":"InvalidBlockNumber","inputs":[]},{"type":"error","name":"NoDepositToRefund","inputs":[]},{"type":"error","name":"NotRegistered","inputs":[]},{"type":"error","name":"OnlySequencer","inputs":[]},{"type":"error","name":"OwnableInvalidOwner","inputs":[{"name":"owner","type":"address","internalType":"address"}]},{"type":"error","name":"OwnableUnauthorizedAccount","inputs":[{"name":"account","type":"address","internalType":"address"}]},{"type":"error","name":"ReentrancyGuardReentrantCall","inputs":[]},{"type":"error","name":"RegistrationClosed","inputs":[]},{"type":"error","name":"SafeERC20FailedOperation","inputs":[{"name":"token","type":"address","internalType":"address"}]}],"bytecode":{"object":"0x60a03461016057601f61169b38819003918201601f191683019291906001600160401b038411838510176101645781608092849260409687528339810103126101605761004b81610178565b9061005860208201610178565b606084830151920151923315610149575f549160018060a01b03908160018060a01b03199333858716175f55885195823391167f8be0079c531659141344cd1fd0a4f28419497f9722a3daafe3b4186f6b6457e05f80a3600180551693841561013a575016918215610129576080526002541617600255600355600455600160ff1960055416176005555161150e908161018d823960805181818161048e015281816106e90152818161097201528181610b0c01528181610b6f01528181611050015281816110c201526111b20152f35b855163162908e360e11b8152600490fd5b63162908e360e11b8152600490fd5b8451631e4fbdf760e01b81525f6004820152602490fd5b5f80fd5b634e487b7160e01b5f52604160045260245ffd5b51906001600160a01b03821682036101605756fe6080806040526004361015610012575f80fd5b5f3560e01c9081630f5c09f5146111e157508063140f021c1461119d5780631fe7362014611149578063228f3e6e1461107b57806329e5bb1d14610fa85780632ecdee5b14610f7c57806330067bc814610f1a5780633160682814610efd57806333067dd714610ec5578063348b806b14610c6357806343ae20a314610bf55780634473c03014610bb05780634473eeb814610a3357806349efd5fa146109fb5780634c089ba9146108a05780635c1bba3814610878578063663deff214610682578063715018a61461062b578063736f88cd146106095780638da5cb5b146105e25780638fefc863146105a557806393862c3b1461052d578063944290e31461044d578063b8b7b3b8146103f9578063d3a86386146103dc578063e63ea40814610376578063f24f6148146102d6578063f2fde38b1461024c5763ff2a136c1461015b575f80fd5b34610248576020366003190112610248575f60c060405161017b8161126e565b8281528260208201528260408201528260608201528260808201528260a082015201526004355f52600860205260e060405f206040516101ba8161126e565b81549182825260018060a01b038060018301541690602084019182526002830154604085019081526003840154916060860192835260ff6004860154169360808701941515855260c0600660058801549760a08a01988952015497019687526040519788525116602087015251604086015251606085015251151560808401525160a08301525160c0820152f35b5f80fd5b3461024857602036600319011261024857610265611215565b61026d6112c7565b6001600160a01b039081169081156102be575f54826bffffffffffffffffffffffff60a01b8216175f55167f8be0079c531659141344cd1fd0a4f28419497f9722a3daafe3b4186f6b6457e05f80a3005b604051631e4fbdf760e01b81525f6004820152602490fd5b3461024857602080600319360112610248576004355f526009815260405f20604051908183825491828152019081925f52845f20905f5b868282106103625786866103238288038361128a565b60405192839281840190828552518091526040840192915f5b82811061034b57505050500390f35b83518552869550938101939281019260010161033c565b83548552909301926001928301920161030d565b346102485760603660031901126102485761038f611215565b602435906001600160a01b0380831691828403610248576103ae6112c7565b169081156103ca57156103ca576103c89160443591611315565b005b60405163162908e360e11b8152600490fd5b34610248575f366003190112610248576020600354604051908152f35b34610248576020366003190112610248577f436a06579aa553b55c371407349f0050b626f297c4780ff0cb4dc06cf500f43460406004356104386112c7565b600354908060035582519182526020820152a1005b34610248575f3660031901126102485760ff600554161561051b576104706112f2565b335f52600660205260ff60405f205416610509576104b260045430337f0000000000000000000000000000000000000000000000000000000000000000611367565b335f52600660205260405f20600160ff1982541617905560045460076020528060405f20556040519081527ff93bf74a3c30b28778384313b61d85ec5300e896a933ee4ed4d4f44a0f8da21060203392a260018055005b604051630ea075bf60e21b8152600490fd5b604051632fc209f360e01b8152600490fd5b34610248576020366003190112610248576004355f52600860205260e060405f2080549060018060a01b03600182015416906002810154600382015460ff6004840154169160066005850154940154946040519687526020870152604086015260608501521515608084015260a083015260c0820152f35b34610248576020366003190112610248576001600160a01b036105c6611215565b165f526006602052602060ff60405f2054166040519015158152f35b34610248575f366003190112610248575f546040516001600160a01b039091168152602090f35b34610248575f36600319011261024857602060ff600554166040519015158152f35b34610248575f366003190112610248576106436112c7565b5f80546001600160a01b0319811682556001600160a01b03167f8be0079c531659141344cd1fd0a4f28419497f9722a3daafe3b4186f6b6457e08280a3005b346102485761069036611254565b919091335f5260206006815260ff60405f20541615610866576106b16112f2565b60035484106103ca5743821115610854575f8381526008825260409020600101546001600160a01b039081166108425761070d8530337f0000000000000000000000000000000000000000000000000000000000000000611367565b60066040519161071c8361126e565b858352838301338152604084018881526060850187815260808601915f835260a087019342855260c08801955f87528b5f5260088a5260405f2098518955600189019151166bffffffffffffffffffffffff60a01b825416179055516002870155516003860155600485019051151560ff8019835416911617905551600584015551910155815f526009815260405f2080546801000000000000000081101561082e576107ce9160018201815561122b565b81549060031b9085821b915f19901b1916179055335f52600a815260405f206107f781546112b9565b90556040519384528301527f3f4d36304a1ca5dcc463e9a6f264b5563d243932f96495c3e7fa6cdbe1f68ce660403393a360018055005b634e487b7160e01b5f52604160045260245ffd5b60405163748eab8360e01b8152600490fd5b604051631391e11b60e21b8152600490fd5b60405163aba4733960e01b8152600490fd5b34610248575f366003190112610248576002546040516001600160a01b039091168152602090f35b346102485760403660031901126102485760043560243567ffffffffffffffff8082116102485736602383011215610248578160040135908111610248573660248284010111610248576002546001600160a01b0390811633036109e9576109066112f2565b835f52600860205260405f20906001820154169283156109d757600482019283549360ff85166109c5577f93e81d7b3d237cdfb5a82efa94bdcfb8a5d8d40125b0ffb4608012ab1357467c95600260409561099693600160249960ff19161790555f60068201550154907f0000000000000000000000000000000000000000000000000000000000000000611315565b8083519485936020855282602086015201848401375f828201840152601f01601f19168101030190a260018055005b6040516348b2d54b60e11b8152600490fd5b604051630462738560e21b8152600490fd5b60405163bb62587160e01b8152600490fd5b34610248576020366003190112610248576001600160a01b03610a1c611215565b165f52600b602052602060405f2054604051908152f35b3461024857610a4136611254565b6002549092916001600160a01b0391821633036109e957610a606112f2565b825f52600860205260405f20916001830192818454169081156109d757600481019182549260ff84166109c557600160029460ff19161790558460068301555f52600b60205260405f20610ab58582546112ac565b90550154808610610b35575b50906040917fd5ea278bc322da09da5b1bd6a99464f44524fc8301c10aa72da15f6dcc54e8b69386610b02575b54169482519182526020820152a360018055005b610b3087835f54167f0000000000000000000000000000000000000000000000000000000000000000611315565b610aee565b9190858303928311610b9c5783610b93604094837fd5ea278bc322da09da5b1bd6a99464f44524fc8301c10aa72da15f6dcc54e8b69754167f0000000000000000000000000000000000000000000000000000000000000000611315565b93509091610ac1565b634e487b7160e01b5f52601160045260245ffd5b34610248576040366003190112610248576024356004355f52600960205260405f20805482101561024857602091610be79161122b565b90546040519160031b1c8152f35b3461024857602036600319011261024857610c0e611215565b610c166112c7565b6001600160a01b039081169081156103ca57816002549182167fcd58b762453bd126b48db83f2cecd464f5281dd7e5e6824b528c09d0482984d65f80a36001600160a01b03191617600255005b3461024857602036600319011261024857610c7c611215565b60405160a0810181811067ffffffffffffffff82111761082e5760409081525f808352602080840182905283830182815260608501839052608085018381526001600160a01b038716808552600a8452858520548752808552600b84528585205490925290835260069091529181205460ff161515909152806103e8431115610ebe576103e7194301438111610b9c575b606443014311610b9c57935b60644301851115610d66575060a093506020830152606082015260806040519180518352602081015160208401526040810151604084015260608101516060840152015115156080820152f35b845f9493929452600960205260405f209260405190818560208297549485815201905f5260205f205f945b808610610ea6575050610da7929350038561128a565b5f5b8451811015610e91576005602082821b870101515f52600860205260405f209060405191610dd68361126e565b8054835260018101546001600160a01b03908116602085018190526002830154604086015260038301546060860152600483015460ff161515608086018190529383015460a086015260069092015460c085018190529190871614610e41575b505050600101610da9565b92959281610e87575b50610e6a575b6001916040610e61920151906112ac565b93908880610e36565b956001916040610e7c610e61936112b9565b989250509150610e50565b9050151589610e4a565b509391925093610ea0906112b9565b93610d19565b90916001602081928554815201930195019490610d91565b6001610d0d565b34610248576020366003190112610248576001600160a01b03610ee6611215565b165f526007602052602060405f2054604051908152f35b34610248575f366003190112610248576020600454604051908152f35b34610248576020366003190112610248576004358015158091036102485760207f1a30f630d0950ddfc90d43ec4e405fd012ddb4ba669dd2bd5e95439631c4221f91610f646112c7565b60ff196005541660ff821617600555604051908152a1005b34610248575f3660031901126102485760806040515f81525f60208201525f60408201525f6060820152f35b346102485760208060031936011261024857610fc2611215565b610fca6112c7565b6001600160a01b0381165f81815260068452604090205490929060ff1615610866577f1706cc2289df6353f9727fa3d2da2edf9aa83d2ba48bd9ceddfb1a96599b9a0991835f526007825260405f205490818061104a575b5050835f526006825260405f2060ff198154169055600782525f6040812055604051908152a2005b611074917f0000000000000000000000000000000000000000000000000000000000000000611315565b8481611022565b34610248575f366003190112610248576110936112f2565b335f52600660205260ff60405f2054161561086657335f52600760205260405f20548015611137576110e681337f0000000000000000000000000000000000000000000000000000000000000000611315565b335f52600660205260405f2060ff19815416905560076020525f60408120556040519081527f1706cc2289df6353f9727fa3d2da2edf9aa83d2ba48bd9ceddfb1a96599b9a0960203392a260018055005b604051630ba3ad7560e41b8152600490fd5b34610248576020366003190112610248577f5e4fe748b32486fda68ed3357939b83850f902bb20dfbe8e7e317ac6a97f749960406004356111886112c7565b600454908060045582519182526020820152a1005b34610248575f366003190112610248576040517f00000000000000000000000000000000000000000000000000000000000000006001600160a01b03168152602090f35b34610248576020366003190112610248576020906001600160a01b03611205611215565b165f52600a825260405f20548152f35b600435906001600160a01b038216820361024857565b8054821015611240575f5260205f2001905f90565b634e487b7160e01b5f52603260045260245ffd5b606090600319011261024857600435906024359060443590565b60e0810190811067ffffffffffffffff82111761082e57604052565b90601f8019910116810190811067ffffffffffffffff82111761082e57604052565b91908201809211610b9c57565b5f198114610b9c5760010190565b5f546001600160a01b031633036112da57565b60405163118cdaa760e01b8152336004820152602490fd5b600260015414611303576002600155565b604051633ee5aeb560e01b8152600490fd5b60405163a9059cbb60e01b60208201526001600160a01b039092166024830152604480830193909352918152608081019167ffffffffffffffff83118284101761082e57611365926040526113bc565b565b6040516323b872dd60e01b60208201526001600160a01b03928316602482015292909116604483015260648083019390935291815260a081019181831067ffffffffffffffff84111761082e57611365926040525b81516001600160a01b03909116915f91829160200182855af13d15611469573d67ffffffffffffffff811161082e5761141791604051916114076020601f19601f840116018461128a565b82523d5f602084013e5b83611475565b8051908115159182611445575b505061142d5750565b60249060405190635274afe760e01b82526004820152fd5b81925090602091810103126102485760200151801590811503610248575f80611424565b61141790606090611411565b9061149c575080511561148a57805190602001fd5b604051630a12f52160e11b8152600490fd5b815115806114cf575b6114ad575090565b604051639996b31560e01b81526001600160a01b039091166004820152602490fd5b50803b156114a556fea2646970667358221220ffd4f2359ce91df3fbf49df3a197e0871438a7a4c0703b6c3542288a755d96cd64736f6c63430008190033","linkReferences":{}},"methodIdentifiers":{"andeToken()":"140f021c","blockBundles(uint256,uint256)":"4473c030","bundles(bytes32)":"93862c3b","emergencyWithdraw(address,address,uint256)":"e63ea408","forceUnregisterSearcher(address)":"29e5bb1d","getAuctionStats()":"2ecdee5b","getBlockBundles(uint256)":"f24f6148","getBundle(bytes32)":"ff2a136c","getSearcherStats(address)":"348b806b","markBundleExecuted(bytes32,uint256,uint256)":"4473eeb8","markBundleRejected(bytes32,string)":"4c089ba9","minimumBid()":"d3a86386","owner()":"8da5cb5b","registerSearcher()":"944290e3","registeredSearchers(address)":"8fefc863","registrationDeposit()":"31606828","registrationDeposits(address)":"33067dd7","registrationOpen()":"736f88cd","renounceOwnership()":"715018a6","searcherBundleCount(address)":"0f5c09f5","searcherMEVCaptured(address)":"49efd5fa","sequencer()":"5c1bba38","setRegistrationOpen(bool)":"30067bc8","submitBundle(bytes32,uint256,uint256)":"663deff2","transferOwnership(address)":"f2fde38b","unregisterSearcher()":"228f3e6e","updateMinimumBid(uint256)":"b8b7b3b8","updateRegistrationDeposit(uint256)":"1fe73620","updateSequencer(address)":"43ae20a3"},"id":167}