{"abi":[{"type":"constructor","inputs":[{"name":"_andeToken","type":"address","internalType":"address"},{"name":"_sequencer","type":"address","internalType":"address"},{"name":"_minimumBid","type":"uint256","internalType":"uint256"},{"name":"_registrationDeposit","type":"uint256","internalType":"uint256"}],"stateMutability":"nonpayable"},{"type":"function","name":"andeToken","inputs":[],"outputs":[{"name":"","type":"address","internalType":"contract IERC20"}],"stateMutability":"view"},{"type":"function","name":"blockBundles","inputs":[{"name":"","type":"uint256","internalType":"uint256"},{"name":"","type":"uint256","internalType":"uint256"}],"outputs":[{"name":"","type":"bytes32","internalType":"bytes32"}],"stateMutability":"view"},{"type":"function","name":"bundles","inputs":[{"name":"","type":"bytes32","internalType":"bytes32"}],"outputs":[{"name":"bundleHash","type":"bytes32","internalType":"bytes32"},{"name":"searcher","type":"address","internalType":"address"},{"name":"bidAmount","type":"uint256","internalType":"uint256"},{"name":"blockNumber","type":"uint256","internalType":"uint256"},{"name":"executed","type":"bool","internalType":"bool"},{"name":"timestamp","type":"uint256","internalType":"uint256"},{"name":"mevCaptured","type":"uint256","internalType":"uint256"}],"stateMutability":"view"},{"type":"function","name":"emergencyWithdraw","inputs":[{"name":"token","type":"address","internalType":"address"},{"name":"to","type":"address","internalType":"address"},{"name":"amount","type":"uint256","internalType":"uint256"}],"outputs":[],"stateMutability":"nonpayable"},{"type":"function","name":"forceUnregisterSearcher","inputs":[{"name":"searcher","type":"address","internalType":"address"}],"outputs":[],"stateMutability":"nonpayable"},{"type":"function","name":"getAuctionStats","inputs":[],"outputs":[{"name":"totalBundles","type":"uint256","internalType":"uint256"},{"name":"totalExecuted","type":"uint256","internalType":"uint256"},{"name":"totalMEVCaptured","type":"uint256","internalType":"uint256"},{"name":"registeredSearchersCount","type":"uint256","internalType":"uint256"}],"stateMutability":"view"},{"type":"function","name":"getBlockBundles","inputs":[{"name":"blockNumber","type":"uint256","internalType":"uint256"}],"outputs":[{"name":"bundleHashes","type":"bytes32[]","internalType":"bytes32[]"}],"stateMutability":"view"},{"type":"function","name":"getBundle","inputs":[{"name":"bundleHash","type":"bytes32","internalType":"bytes32"}],"outputs":[{"name":"bundle","type":"tuple","internalType":"struct MEVAuctionManager.Bundle","components":[{"name":"bundleHash","type":"bytes32","internalType":"bytes32"},{"name":"searcher","type":"address","internalType":"address"},{"name":"bidAmount","type":"uint256","internalType":"uint256"},{"name":"blockNumber","type":"uint256","internalType":"uint256"},{"name":"executed","type":"bool","internalType":"bool"},{"name":"timestamp","type":"uint256","internalType":"uint256"},{"name":"mevCaptured","type":"uint256","internalType":"uint256"}]}],"stateMutability":"view"},{"type":"function","name":"getSearcherStats","inputs":[{"name":"searcher","type":"address","internalType":"address"}],"outputs":[{"name":"stats","type":"tuple","internalType":"struct MEVAuctionManager.SearcherStats","components":[{"name":"totalBundles","type":"uint256","internalType":"uint256"},{"name":"executedBundles","type":"uint256","internalType":"uint256"},{"name":"totalMEVCaptured","type":"uint256","internalType":"uint256"},{"name":"totalBidsPaid","type":"uint256","internalType":"uint256"},{"name":"registered","type":"bool","internalType":"bool"}]}],"stateMutability":"view"},{"type":"function","name":"markBundleExecuted","inputs":[{"name":"bundleHash","type":"bytes32","internalType":"bytes32"},{"name":"mevCaptured","type":"uint256","internalType":"uint256"},{"name":"bidPaid","type":"uint256","internalType":"uint256"}],"outputs":[],"stateMutability":"nonpayable"},{"type":"function","name":"markBundleRejected","inputs":[{"name":"bundleHash","type":"bytes32","internalType":"bytes32"},{"name":"reason","type":"string","internalType":"string"}],"outputs":[],"stateMutability":"nonpayable"},{"type":"function","name":"minimumBid","inputs":[],"outputs":[{"name":"","type":"uint256","internalType":"uint256"}],"stateMutability":"view"},{"type":"function","name":"owner","inputs":[],"outputs":[{"name":"","type":"address","internalType":"address"}],"stateMutability":"view"},{"type":"function","name":"registerSearcher","inputs":[],"outputs":[],"stateMutability":"nonpayable"},{"type":"function","name":"registeredSearchers","inputs":[{"name":"","type":"address","internalType":"address"}],"outputs":[{"name":"","type":"bool","internalType":"bool"}],"stateMutability":"view"},{"type":"function","name":"registrationDeposit","inputs":[],"outputs":[{"name":"","type":"uint256","internalType":"uint256"}],"stateMutability":"view"},{"type":"function","name":"registrationDeposits","inputs":[{"name":"","type":"address","internalType":"address"}],"outputs":[{"name":"","type":"uint256","internalType":"uint256"}],"stateMutability":"view"},{"type":"function","name":"registrationOpen","inputs":[],"outputs":[{"name":"","type":"bool","internalType":"bool"}],"stateMutability":"view"},{"type":"function","name":"renounceOwnership","inputs":[],"outputs":[],"stateMutability":"nonpayable"},{"type":"function","name":"searcherBundleCount","inputs":[{"name":"","type":"address","internalType":"address"}],"outputs":[{"name":"","type":"uint256","internalType":"uint256"}],"stateMutability":"view"},{"type":"function","name":"searcherMEVCaptured","inputs":[{"name":"","type":"address","internalType":"address"}],"outputs":[{"name":"","type":"uint256","internalType":"uint256"}],"stateMutability":"view"},{"type":"function","name":"sequencer","inputs":[],"outputs":[{"name":"","type":"address","internalType":"address"}],"stateMutability":"view"},{"type":"function","name":"setRegistrationOpen","inputs":[{"name":"open","type":"bool","internalType":"bool"}],"outputs":[],"stateMutability":"nonpayable"},{"type":"function","name":"submitBundle","inputs":[{"name":"bundleHash","type":"bytes32","internalType":"bytes32"},{"name":"bidAmount","type":"uint256","internalType":"uint256"},{"name":"targetBlock","type":"uint256","internalType":"uint256"}],"outputs":[],"stateMutability":"nonpayable"},{"type":"function","name":"transferOwnership","inputs":[{"name":"newOwner","type":"address","internalType":"address"}],"outputs":[],"stateMutability":"nonpayable"},{"type":"function","name":"unregisterSearcher","inputs":[],"outputs":[],"stateMutability":"nonpayable"},{"type":"function","name":"updateMinimumBid","inputs":[{"name":"newMinimumBid","type":"uint256","internalType":"uint256"}],"outputs":[],"stateMutability":"nonpayable"},{"type":"function","name":"updateRegistrationDeposit","inputs":[{"name":"newDeposit","type":"uint256","internalType":"uint256"}],"outputs":[],"stateMutability":"nonpayable"},{"type":"function","name":"updateSequencer","inputs":[{"name":"newSequencer","type":"address","internalType":"address"}],"outputs":[],"stateMutability":"nonpayable"},{"type":"event","name":"BundleExecuted","inputs":[{"name":"bundleHash","type":"bytes32","indexed":true,"internalType":"bytes32"},{"name":"searcher","type":"address","indexed":true,"internalType":"address"},{"name":"mevCaptured","type":"uint256","indexed":false,"internalType":"uint256"},{"name":"bidPaid","type":"uint256","indexed":false,"internalType":"uint256"}],"anonymous":false},{"type":"event","name":"BundleRejected","inputs":[{"name":"bundleHash","type":"bytes32","indexed":true,"internalType":"bytes32"},{"name":"reason","type":"string","indexed":false,"internalType":"string"}],"anonymous":false},{"type":"event","name":"BundleSubmitted","inputs":[{"name":"bundleHash","type":"bytes32","indexed":true,"internalType":"bytes32"},{"name":"searcher","type":"address","indexed":true,"internalType":"address"},{"name":"bidAmount","type":"uint256","indexed":false,"internalType":"uint256"},{"name":"targetBlock","type":"uint256","indexed":false,"internalType":"uint256"}],"anonymous":false},{"type":"event","name":"MinimumBidUpdated","inputs":[{"name":"oldMinimum","type":"uint256","indexed":false,"internalType":"uint256"},{"name":"newMinimum","type":"uint256","indexed":false,"internalType":"uint256"}],"anonymous":false},{"type":"event","name":"OwnershipTransferred","inputs":[{"name":"previousOwner","type":"address","indexed":true,"internalType":"address"},{"name":"newOwner","type":"address","indexed":true,"internalType":"address"}],"anonymous":false},{"type":"event","name":"RegistrationDepositUpdated","inputs":[{"name":"oldDeposit","type":"uint256","indexed":false,"internalType":"uint256"},{"name":"newDeposit","type":"uint256","indexed":false,"internalType":"uint256"}],"anonymous":false},{"type":"event","name":"RegistrationStatusChanged","inputs":[{"name":"open","type":"bool","indexed":false,"internalType":"bool"}],"anonymous":false},{"type":"event","name":"SearcherRegistered","inputs":[{"name":"searcher","type":"address","indexed":true,"internalType":"address"},{"name":"deposit","type":"uint256","indexed":false,"internalType":"uint256"}],"anonymous":false},{"type":"event","name":"SearcherUnregistered","inputs":[{"name":"searcher","type":"address","indexed":true,"internalType":"address"},{"name":"depositRefunded","type":"uint256","indexed":false,"internalType":"uint256"}],"anonymous":false},{"type":"event","name":"SequencerUpdated","inputs":[{"name":"oldSequencer","type":"address","indexed":true,"internalType":"address"},{"name":"newSequencer","type":"address","indexed":true,"internalType":"address"}],"anonymous":false},{"type":"error","name":"AddressEmptyCode","inputs":[{"name":"target","type":"address","internalType":"address"}]},{"type":"error","name":"AddressInsufficientBalance","inputs":[{"name":"account","type":"address","internalType":"address"}]},{"type":"error","name":"AlreadyRegistered","inputs":[]},{"type":"error","name":"BundleAlreadyExecuted","inputs":[]},{"type":"error","name":"BundleAlreadyExists","inputs":[]},{"type":"error","name":"BundleNotFound","inputs":[]},{"type":"error","name":"FailedInnerCall","inputs":[]},{"type":"error","name":"InsufficientDeposit","inputs":[]},{"type":"error","name":"InvalidAmount","inputs":[]},{"type":"error","name":"InvalidBlockNumber","inputs":[]},{"type":"error","name":"NoDepositToRefund","inputs":[]},{"type":"error","name":"NotRegistered","inputs":[]},{"type":"error","name":"OnlySequencer","inputs":[]},{"type":"error","name":"OwnableInvalidOwner","inputs":[{"name":"owner","type":"address","internalType":"address"}]},{"type":"error","name":"OwnableUnauthorizedAccount","inputs":[{"name":"account","type":"address","internalType":"address"}]},{"type":"error","name":"ReentrancyGuardReentrantCall","inputs":[]},{"type":"error","name":"RegistrationClosed","inputs":[]},{"type":"error","name":"SafeERC20FailedOperation","inputs":[{"name":"token","type":"address","internalType":"address"}]}],"bytecode":{"object":"0x60a03461016057601f611be638819003918201601f191683019291906001600160401b038411838510176101645781608092849260409687528339810103126101605761004b81610178565b9061005860208201610178565b606084830151920151923315610149575f549160018060a01b03908160018060a01b03199333858716175f55885195823391167f8be0079c531659141344cd1fd0a4f28419497f9722a3daafe3b4186f6b6457e05f80a3600180551693841561013a575016918215610129576080526002541617600255600355600455600160ff19600554161760055551611a59908161018d82396080518181816104f7015281816107f601528181610b8801528181610d9c01528181610dff015281816113e60152818161145801526115950152f35b855163162908e360e11b8152600490fd5b63162908e360e11b8152600490fd5b8451631e4fbdf760e01b81525f6004820152602490fd5b5f80fd5b634e487b7160e01b5f52604160045260245ffd5b51906001600160a01b03821682036101605756fe6080806040526004361015610012575f80fd5b5f3560e01c9081630f5c09f5146115b957508063140f021c146115695780631fe7362014611515578063228f3e6e1461141157806329e5bb1d146113165780632ecdee5b146112ea57806330067bc81461126a578063316068281461124d57806333067dd714611208578063348b806b14610f3257806343ae20a314610e9e5780634473c03014610e595780634473eeb814610c9957806349efd5fa14610c545780634c089ba914610a675780635c1bba3814610a34578063663deff214610784578063715018a614610708578063736f88cd146106e65780638da5cb5b146106b45780638fefc8631461066a57806393862c3b146105e4578063944290e3146104b6578063b8b7b3b814610462578063d3a8638614610445578063e63ea408146103ba578063f24f61481461031a578063f2fde38b1461025a5763ff2a136c1461015b575f80fd5b34610256576020600319360112610256575f60c060405161017b81611679565b8281528260208201528260408201528260608201528260808201528260a082015201526004355f52600860205260e060405f206040516101ba81611679565b81549182825273ffffffffffffffffffffffffffffffffffffffff8060018301541690602084019182526002830154604085019081526003840154916060860192835260ff6004860154169360808701941515855260c0600660058801549760a08a01988952015497019687526040519788525116602087015251604086015251606085015251151560808401525160a08301525160c0820152f35b5f80fd5b34610256576020600319360112610256576102736115fa565b61027b611710565b73ffffffffffffffffffffffffffffffffffffffff8091169081156102ea575f54827fffffffffffffffffffffffff00000000000000000000000000000000000000008216175f55167f8be0079c531659141344cd1fd0a4f28419497f9722a3daafe3b4186f6b6457e05f80a3005b60246040517f1e4fbdf70000000000000000000000000000000000000000000000000000000081525f6004820152fd5b3461025657602080600319360112610256576004355f526009815260405f20604051908183825491828152019081925f52845f20905f5b868282106103a657868661036782880383611695565b60405192839281840190828552518091526040840192915f5b82811061038f57505050500390f35b835185528695509381019392810192600101610380565b835485529093019260019283019201610351565b34610256576060600319360112610256576103d36115fa565b6024359073ffffffffffffffffffffffffffffffffffffffff80831691828403610256576103ff611710565b1690811561041b571561041b57610419916044359161179b565b005b60046040517f2c5211c6000000000000000000000000000000000000000000000000000000008152fd5b34610256575f600319360112610256576020600354604051908152f35b34610256576020600319360112610256577f436a06579aa553b55c371407349f0050b626f297c4780ff0cb4dc06cf500f43460406004356104a1611710565b600354908060035582519182526020820152a1005b34610256575f6003193601126102565760ff60055416156105ba576104d9611760565b335f52600660205260ff60405f2054166105905761051b60045430337f0000000000000000000000000000000000000000000000000000000000000000611810565b335f52600660205260405f2060017fffffffffffffffffffffffffffffffffffffffffffffffffffffffffffffff0082541617905560045460076020528060405f20556040519081527ff93bf74a3c30b28778384313b61d85ec5300e896a933ee4ed4d4f44a0f8da21060203392a260018055005b60046040517f3a81d6fc000000000000000000000000000000000000000000000000000000008152fd5b60046040517f2fc209f3000000000000000000000000000000000000000000000000000000008152fd5b34610256576020600319360112610256576004355f52600860205260e060405f2080549073ffffffffffffffffffffffffffffffffffffffff600182015416906002810154600382015460ff6004840154169160066005850154940154946040519687526020870152604086015260608501521515608084015260a083015260c0820152f35b346102565760206003193601126102565773ffffffffffffffffffffffffffffffffffffffff6106986115fa565b165f526006602052602060ff60405f2054166040519015158152f35b34610256575f60031936011261025657602073ffffffffffffffffffffffffffffffffffffffff5f5416604051908152f35b34610256575f60031936011261025657602060ff600554166040519015158152f35b34610256575f60031936011261025657610720611710565b5f73ffffffffffffffffffffffffffffffffffffffff81547fffffffffffffffffffffffff000000000000000000000000000000000000000081168355167f8be0079c531659141344cd1fd0a4f28419497f9722a3daafe3b4186f6b6457e08280a3005b34610256576107923661165f565b919091335f5260206006815260ff60405f20541615610a0a576107b3611760565b600354841061041b57438211156109e057825f526008815273ffffffffffffffffffffffffffffffffffffffff80600160405f200154166109b65761081a8530337f0000000000000000000000000000000000000000000000000000000000000000611810565b60066040519161082983611679565b858352838301338152604084018881526060850187815260808601915f835260a087019342855260c08801955f87528b5f5260088a5260405f2098518955600189019151167fffffffffffffffffffffffff0000000000000000000000000000000000000000825416179055516002870155516003860155600485019051151560ff7fffffffffffffffffffffffffffffffffffffffffffffffffffffffffffffff00835416911617905551600584015551910155815f526009815260405f208054680100000000000000008110156109895761090b9160018201815561161d565b81549060031b907fffffffffffffffffffffffffffffffffffffffffffffffffffffffffffffffff86831b921b1916179055335f52600a815260405f2061095281546116e3565b90556040519384528301527f3f4d36304a1ca5dcc463e9a6f264b5563d243932f96495c3e7fa6cdbe1f68ce660403393a360018055005b7f4e487b71000000000000000000000000000000000000000000000000000000005f52604160045260245ffd5b60046040517f748eab83000000000000000000000000000000000000000000000000000000008152fd5b60046040517f4e47846c000000000000000000000000000000000000000000000000000000008152fd5b60046040517faba47339000000000000000000000000000000000000000000000000000000008152fd5b34610256575f60031936011261025657602073ffffffffffffffffffffffffffffffffffffffff60025416604051908152f35b346102565760406003193601126102565760043567ffffffffffffffff60243581811161025657366023820112156102565780600401359182116102565736602483830101116102565773ffffffffffffffffffffffffffffffffffffffff9081600254163303610c2a57610ada611760565b835f52600860205260405f2091600183015416908115610c0057600483019283549060ff8216610bd6577f93e81d7b3d237cdfb5a82efa94bdcfb8a5d8d40125b0ffb4608012ab1357467c95610bac6040956002601f9460249960017fffffffffffffffffffffffffffffffffffffffffffffffffffffffffffffff007fffffffffffffffffffffffffffffffffffffffffffffffffffffffffffffffe099161790555f60068201550154907f000000000000000000000000000000000000000000000000000000000000000061179b565b8085519687956020875282602088015201868601375f85828601015201168101030190a260018055005b60046040517f9165aa96000000000000000000000000000000000000000000000000000000008152fd5b60046040517f1189ce14000000000000000000000000000000000000000000000000000000008152fd5b60046040517fbb625871000000000000000000000000000000000000000000000000000000008152fd5b346102565760206003193601126102565773ffffffffffffffffffffffffffffffffffffffff610c826115fa565b165f52600b602052602060405f2054604051908152f35b3461025657610ca73661165f565b919073ffffffffffffffffffffffffffffffffffffffff9081600254163303610c2a57610cd2611760565b825f52600860205260405f2091600183019281845416908115610c0057600481019182549260ff8416610bd65760017fffffffffffffffffffffffffffffffffffffffffffffffffffffffffffffff00600295161790558460068301555f52600b60205260405f20610d458582546116d6565b90550154808610610dc5575b50906040917fd5ea278bc322da09da5b1bd6a99464f44524fc8301c10aa72da15f6dcc54e8b69386610d92575b54169482519182526020820152a360018055005b610dc087835f54167f000000000000000000000000000000000000000000000000000000000000000061179b565b610d7e565b9190858303928311610e2c5783610e23604094837fd5ea278bc322da09da5b1bd6a99464f44524fc8301c10aa72da15f6dcc54e8b69754167f000000000000000000000000000000000000000000000000000000000000000061179b565b93509091610d51565b7f4e487b71000000000000000000000000000000000000000000000000000000005f52601160045260245ffd5b34610256576040600319360112610256576024356004355f52600960205260405f20805482101561025657602091610e909161161d565b90546040519160031b1c8152f35b3461025657602060031936011261025657610eb76115fa565b610ebf611710565b73ffffffffffffffffffffffffffffffffffffffff80911690811561041b577fffffffffffffffffffffffff000000000000000000000000000000000000000090826002549182167fcd58b762453bd126b48db83f2cecd464f5281dd7e5e6824b528c09d0482984d65f80a31617600255005b3461025657602060031936011261025657610f4b6115fa565b60405160a0810181811067ffffffffffffffff821117610989576040525f81525f60208201525f60408201525f60608201525f608082015273ffffffffffffffffffffffffffffffffffffffff82165f52600a60205260405f2054815273ffffffffffffffffffffffffffffffffffffffff82165f52600b60205260405f2054604082015273ffffffffffffffffffffffffffffffffffffffff82165f52600660205260ff60405f205416151560808201525f806103e843115f14611201577ffffffffffffffffffffffffffffffffffffffffffffffffffffffffffffffc184301438111610e2c575b606443014311610e2c57935b6064430185111561108e575060a093506020830152606082015260806040519180518352602081015160208401526040810151604084015260608101516060840152015115156080820152f35b845f9493929452600960205260405f209260405190818560208297549485815201905f5260205f205f945b8086106111e95750506110cf9293500385611695565b5f5b84518110156111d4576005602082821b870101515f52600860205260405f2090604051916110fe83611679565b80548352600673ffffffffffffffffffffffffffffffffffffffff60018301541691826020860152600281015460408601526003810154606086015260ff60048201541615159384608087015281015460a08601520154908160c085015273ffffffffffffffffffffffffffffffffffffffff871614611184575b5050506001016110d1565b929592816111ca575b506111ad575b60019160406111a4920151906116d6565b93908880611179565b9560019160406111bf6111a4936116e3565b989250509150611193565b905015158961118d565b5093919250936111e3906116e3565b93611041565b909160016020819285548152019301950194906110b9565b6001611035565b346102565760206003193601126102565773ffffffffffffffffffffffffffffffffffffffff6112366115fa565b165f526007602052602060405f2054604051908152f35b34610256575f600319360112610256576020600454604051908152f35b34610256576020600319360112610256576004358015158091036102565760207f1a30f630d0950ddfc90d43ec4e405fd012ddb4ba669dd2bd5e95439631c4221f916112b4611710565b7fffffffffffffffffffffffffffffffffffffffffffffffffffffffffffffff006005541660ff821617600555604051908152a1005b34610256575f6003193601126102565760806040515f81525f60208201525f60408201525f6060820152f35b3461025657602080600319360112610256576113306115fa565b611338611710565b73ffffffffffffffffffffffffffffffffffffffff811691825f526006815260ff60405f20541615610a0a577f1706cc2289df6353f9727fa3d2da2edf9aa83d2ba48bd9ceddfb1a96599b9a0991835f526007825260405f20549081806113e0575b5050835f526006825260405f207fffffffffffffffffffffffffffffffffffffffffffffffffffffffffffffff008154169055600782525f6040812055604051908152a2005b61140a917f000000000000000000000000000000000000000000000000000000000000000061179b565b848161139a565b34610256575f60031936011261025657611429611760565b335f52600660205260ff60405f20541615610a0a57335f52600760205260405f205480156114eb5761147c81337f000000000000000000000000000000000000000000000000000000000000000061179b565b335f52600660205260405f207fffffffffffffffffffffffffffffffffffffffffffffffffffffffffffffff00815416905560076020525f60408120556040519081527f1706cc2289df6353f9727fa3d2da2edf9aa83d2ba48bd9ceddfb1a96599b9a0960203392a260018055005b60046040517fba3ad750000000000000000000000000000000000000000000000000000000008152fd5b34610256576020600319360112610256577f5e4fe748b32486fda68ed3357939b83850f902bb20dfbe8e7e317ac6a97f74996040600435611554611710565b600454908060045582519182526020820152a1005b34610256575f60031936011261025657602060405173ffffffffffffffffffffffffffffffffffffffff7f0000000000000000000000000000000000000000000000000000000000000000168152f35b346102565760206003193601126102565760209073ffffffffffffffffffffffffffffffffffffffff6115ea6115fa565b165f52600a825260405f20548152f35b6004359073ffffffffffffffffffffffffffffffffffffffff8216820361025657565b8054821015611632575f5260205f2001905f90565b7f4e487b71000000000000000000000000000000000000000000000000000000005f52603260045260245ffd5b600319606091011261025657600435906024359060443590565b60e0810190811067ffffffffffffffff82111761098957604052565b90601f7fffffffffffffffffffffffffffffffffffffffffffffffffffffffffffffffe0910116810190811067ffffffffffffffff82111761098957604052565b91908201809211610e2c57565b7fffffffffffffffffffffffffffffffffffffffffffffffffffffffffffffffff8114610e2c5760010190565b73ffffffffffffffffffffffffffffffffffffffff5f5416330361173057565b60246040517f118cdaa7000000000000000000000000000000000000000000000000000000008152336004820152fd5b600260015414611771576002600155565b60046040517f3ee5aeb5000000000000000000000000000000000000000000000000000000008152fd5b9173ffffffffffffffffffffffffffffffffffffffff604051927fa9059cbb000000000000000000000000000000000000000000000000000000006020850152166024830152604482015260448152608081019181831067ffffffffffffffff8411176109895761180e92604052611888565b565b9290604051927f23b872dd00000000000000000000000000000000000000000000000000000000602085015273ffffffffffffffffffffffffffffffffffffffff809216602485015216604483015260648201526064815260a081019181831067ffffffffffffffff8411176109895761180e926040525b5f73ffffffffffffffffffffffffffffffffffffffff8192169260208151910182855af13d15611977573d67ffffffffffffffff81116109895761190c91604051916118fc60207fffffffffffffffffffffffffffffffffffffffffffffffffffffffffffffffe0601f8401160184611695565b82523d5f602084013e5b83611983565b8051908115159182611953575b50506119225750565b602490604051907f5274afe70000000000000000000000000000000000000000000000000000000082526004820152fd5b81925090602091810103126102565760200151801590811503610256575f80611919565b61190c90606090611906565b906119c2575080511561199857805190602001fd5b60046040517f1425ea42000000000000000000000000000000000000000000000000000000008152fd5b81511580611a1a575b6119d3575090565b60249073ffffffffffffffffffffffffffffffffffffffff604051917f9996b315000000000000000000000000000000000000000000000000000000008352166004820152fd5b50803b156119cb56fea2646970667358221220ff07a83e8b2c70c59c8f0198cc7a3b5e7468a4ee383effcc939c1af65632188764736f6c63430008190033","linkReferences":{}},"methodIdentifiers":{"andeToken()":"140f021c","blockBundles(uint256,uint256)":"4473c030","bundles(bytes32)":"93862c3b","emergencyWithdraw(address,address,uint256)":"e63ea408","forceUnregisterSearcher(address)":"29e5bb1d","getAuctionStats()":"2ecdee5b","getBlockBundles(uint256)":"f24f6148","getBundle(bytes32)":"ff2a136c","getSearcherStats(address)":"348b806b","markBundleExecuted(bytes32,uint256,uint256)":"4473eeb8","markBundleRejected(bytes32,string)":"4c089ba9","minimumBid()":"d3a86386","owner()":"8da5cb5b","registerSearcher()":"944290e3","registeredSearchers(address)":"8fefc863","registrationDeposit()":"31606828","registrationDeposits(address)":"33067dd7","registrationOpen()":"736f88cd","renounceOwnership()":"715018a6","searcherBundleCount(address)":"0f5c09f5","searcherMEVCaptured(address)":"49efd5fa","sequencer()":"5c1bba38","setRegistrationOpen(bool)":"30067bc8","submitBundle(bytes32,uint256,uint256)":"663deff2","transferOwnership(address)":"f2fde38b","unregisterSearcher()":"228f3e6e","updateMinimumBid(uint256)":"b8b7b3b8","updateRegistrationDeposit(uint256)":"1fe73620","updateSequencer(address)":"43ae20a3"},"id":167}