{"abi":[{"type":"constructor","inputs":[{"name":"_andeToken","type":"address","internalType":"address"},{"name":"_router","type":"address","internalType":"address"},{"name":"_treasury","type":"address","internalType":"address"}],"stateMutability":"nonpayable"},{"type":"function","name":"BRONZE_MULTIPLIER","inputs":[],"outputs":[{"name":"","type":"uint256","internalType":"uint256"}],"stateMutability":"view"},{"type":"function","name":"BRONZE_TIER","inputs":[],"outputs":[{"name":"","type":"uint256","internalType":"uint256"}],"stateMutability":"view"},{"type":"function","name":"GOLD_MULTIPLIER","inputs":[],"outputs":[{"name":"","type":"uint256","internalType":"uint256"}],"stateMutability":"view"},{"type":"function","name":"GOLD_TIER","inputs":[],"outputs":[{"name":"","type":"uint256","internalType":"uint256"}],"stateMutability":"view"},{"type":"function","name":"MAX_RAISE_DURATION","inputs":[],"outputs":[{"name":"","type":"uint256","internalType":"uint256"}],"stateMutability":"view"},{"type":"function","name":"MIN_RAISE_DURATION","inputs":[],"outputs":[{"name":"","type":"uint256","internalType":"uint256"}],"stateMutability":"view"},{"type":"function","name":"PLATINUM_MULTIPLIER","inputs":[],"outputs":[{"name":"","type":"uint256","internalType":"uint256"}],"stateMutability":"view"},{"type":"function","name":"PLATINUM_TIER","inputs":[],"outputs":[{"name":"","type":"uint256","internalType":"uint256"}],"stateMutability":"view"},{"type":"function","name":"PRECISION","inputs":[],"outputs":[{"name":"","type":"uint256","internalType":"uint256"}],"stateMutability":"view"},{"type":"function","name":"SILVER_MULTIPLIER","inputs":[],"outputs":[{"name":"","type":"uint256","internalType":"uint256"}],"stateMutability":"view"},{"type":"function","name":"SILVER_TIER","inputs":[],"outputs":[{"name":"","type":"uint256","internalType":"uint256"}],"stateMutability":"view"},{"type":"function","name":"andeToken","inputs":[],"outputs":[{"name":"","type":"address","internalType":"address"}],"stateMutability":"view"},{"type":"function","name":"claimTokens","inputs":[{"name":"launchId","type":"uint256","internalType":"uint256"}],"outputs":[],"stateMutability":"nonpayable"},{"type":"function","name":"createLaunch","inputs":[{"name":"token","type":"address","internalType":"address"},{"name":"paymentToken","type":"address","internalType":"address"},{"name":"tokenPrice","type":"uint256","internalType":"uint256"},{"name":"softCap","type":"uint256","internalType":"uint256"},{"name":"hardCap","type":"uint256","internalType":"uint256"},{"name":"minContribution","type":"uint256","internalType":"uint256"},{"name":"maxContribution","type":"uint256","internalType":"uint256"},{"name":"startTime","type":"uint256","internalType":"uint256"},{"name":"duration","type":"uint256","internalType":"uint256"},{"name":"whitelistDuration","type":"uint256","internalType":"uint256"},{"name":"whitelistRoot","type":"bytes32","internalType":"bytes32"},{"name":"liquidityPercent","type":"uint256","internalType":"uint256"}],"outputs":[{"name":"launchId","type":"uint256","internalType":"uint256"}],"stateMutability":"nonpayable"},{"type":"function","name":"emergencyWithdraw","inputs":[{"name":"token","type":"address","internalType":"address"},{"name":"amount","type":"uint256","internalType":"uint256"}],"outputs":[],"stateMutability":"nonpayable"},{"type":"function","name":"finalizeLaunch","inputs":[{"name":"launchId","type":"uint256","internalType":"uint256"}],"outputs":[],"stateMutability":"nonpayable"},{"type":"function","name":"getClaimableTokens","inputs":[{"name":"launchId","type":"uint256","internalType":"uint256"},{"name":"user","type":"address","internalType":"address"}],"outputs":[{"name":"","type":"uint256","internalType":"uint256"}],"stateMutability":"view"},{"type":"function","name":"getUserMultiplier","inputs":[{"name":"user","type":"address","internalType":"address"}],"outputs":[{"name":"multiplier","type":"uint256","internalType":"uint256"}],"stateMutability":"view"},{"type":"function","name":"getUserTier","inputs":[{"name":"user","type":"address","internalType":"address"}],"outputs":[{"name":"tier","type":"uint256","internalType":"uint256"}],"stateMutability":"view"},{"type":"function","name":"launches","inputs":[{"name":"","type":"uint256","internalType":"uint256"}],"outputs":[{"name":"token","type":"address","internalType":"address"},{"name":"paymentToken","type":"address","internalType":"address"},{"name":"creator","type":"address","internalType":"address"},{"name":"tokenPrice","type":"uint256","internalType":"uint256"},{"name":"softCap","type":"uint256","internalType":"uint256"},{"name":"hardCap","type":"uint256","internalType":"uint256"},{"name":"minContribution","type":"uint256","internalType":"uint256"},{"name":"maxContribution","type":"uint256","internalType":"uint256"},{"name":"startTime","type":"uint256","internalType":"uint256"},{"name":"endTime","type":"uint256","internalType":"uint256"},{"name":"whitelistEndTime","type":"uint256","internalType":"uint256"},{"name":"totalRaised","type":"uint256","internalType":"uint256"},{"name":"totalTokensSold","type":"uint256","internalType":"uint256"},{"name":"whitelistRoot","type":"bytes32","internalType":"bytes32"},{"name":"status","type":"uint8","internalType":"enum AndeLaunchpad.LaunchStatus"},{"name":"vestingType","type":"uint8","internalType":"enum AndeLaunchpad.VestingType"},{"name":"liquidityPercent","type":"uint256","internalType":"uint256"},{"name":"platformFee","type":"uint256","internalType":"uint256"},{"name":"finalized","type":"bool","internalType":"bool"},{"name":"refundEnabled","type":"bool","internalType":"bool"}],"stateMutability":"view"},{"type":"function","name":"minLiquidityPercent","inputs":[],"outputs":[{"name":"","type":"uint256","internalType":"uint256"}],"stateMutability":"view"},{"type":"function","name":"nextLaunchId","inputs":[],"outputs":[{"name":"","type":"uint256","internalType":"uint256"}],"stateMutability":"view"},{"type":"function","name":"owner","inputs":[],"outputs":[{"name":"","type":"address","internalType":"address"}],"stateMutability":"view"},{"type":"function","name":"participate","inputs":[{"name":"launchId","type":"uint256","internalType":"uint256"},{"name":"amount","type":"uint256","internalType":"uint256"},{"name":"merkleProof","type":"bytes32[]","internalType":"bytes32[]"}],"outputs":[],"stateMutability":"nonpayable"},{"type":"function","name":"platformFeeRate","inputs":[],"outputs":[{"name":"","type":"uint256","internalType":"uint256"}],"stateMutability":"view"},{"type":"function","name":"refund","inputs":[{"name":"launchId","type":"uint256","internalType":"uint256"}],"outputs":[],"stateMutability":"nonpayable"},{"type":"function","name":"renounceOwnership","inputs":[],"outputs":[],"stateMutability":"nonpayable"},{"type":"function","name":"router","inputs":[],"outputs":[{"name":"","type":"address","internalType":"address"}],"stateMutability":"view"},{"type":"function","name":"setPlatformFee","inputs":[{"name":"newFee","type":"uint256","internalType":"uint256"}],"outputs":[],"stateMutability":"nonpayable"},{"type":"function","name":"setTreasury","inputs":[{"name":"newTreasury","type":"address","internalType":"address"}],"outputs":[],"stateMutability":"nonpayable"},{"type":"function","name":"setVesting","inputs":[{"name":"launchId","type":"uint256","internalType":"uint256"},{"name":"vestingType","type":"uint8","internalType":"enum AndeLaunchpad.VestingType"},{"name":"cliff","type":"uint256","internalType":"uint256"},{"name":"duration","type":"uint256","internalType":"uint256"},{"name":"slicePeriod","type":"uint256","internalType":"uint256"},{"name":"initialUnlock","type":"uint256","internalType":"uint256"}],"outputs":[],"stateMutability":"nonpayable"},{"type":"function","name":"stakeAnde","inputs":[{"name":"amount","type":"uint256","internalType":"uint256"}],"outputs":[],"stateMutability":"nonpayable"},{"type":"function","name":"transferOwnership","inputs":[{"name":"newOwner","type":"address","internalType":"address"}],"outputs":[],"stateMutability":"nonpayable"},{"type":"function","name":"treasury","inputs":[],"outputs":[{"name":"","type":"address","internalType":"address"}],"stateMutability":"view"},{"type":"function","name":"unstakeAnde","inputs":[{"name":"amount","type":"uint256","internalType":"uint256"}],"outputs":[],"stateMutability":"nonpayable"},{"type":"function","name":"userAllocations","inputs":[{"name":"","type":"uint256","internalType":"uint256"},{"name":"","type":"address","internalType":"address"}],"outputs":[{"name":"amount","type":"uint256","internalType":"uint256"},{"name":"tokensPurchased","type":"uint256","internalType":"uint256"},{"name":"tokensClaimed","type":"uint256","internalType":"uint256"},{"name":"claimed","type":"bool","internalType":"bool"},{"name":"refunded","type":"bool","internalType":"bool"}],"stateMutability":"view"},{"type":"function","name":"userAndeStaked","inputs":[{"name":"","type":"address","internalType":"address"}],"outputs":[{"name":"","type":"uint256","internalType":"uint256"}],"stateMutability":"view"},{"type":"function","name":"vestingSchedules","inputs":[{"name":"","type":"uint256","internalType":"uint256"}],"outputs":[{"name":"cliff","type":"uint256","internalType":"uint256"},{"name":"duration","type":"uint256","internalType":"uint256"},{"name":"slicePeriod","type":"uint256","internalType":"uint256"},{"name":"initialUnlock","type":"uint256","internalType":"uint256"}],"stateMutability":"view"},{"type":"event","name":"AndeStaked","inputs":[{"name":"user","type":"address","indexed":true,"internalType":"address"},{"name":"amount","type":"uint256","indexed":false,"internalType":"uint256"}],"anonymous":false},{"type":"event","name":"AndeUnstaked","inputs":[{"name":"user","type":"address","indexed":true,"internalType":"address"},{"name":"amount","type":"uint256","indexed":false,"internalType":"uint256"}],"anonymous":false},{"type":"event","name":"LaunchCancelled","inputs":[{"name":"launchId","type":"uint256","indexed":true,"internalType":"uint256"}],"anonymous":false},{"type":"event","name":"LaunchCreated","inputs":[{"name":"launchId","type":"uint256","indexed":true,"internalType":"uint256"},{"name":"token","type":"address","indexed":true,"internalType":"address"},{"name":"creator","type":"address","indexed":true,"internalType":"address"},{"name":"hardCap","type":"uint256","indexed":false,"internalType":"uint256"}],"anonymous":false},{"type":"event","name":"LaunchFinalized","inputs":[{"name":"launchId","type":"uint256","indexed":true,"internalType":"uint256"},{"name":"totalRaised","type":"uint256","indexed":false,"internalType":"uint256"},{"name":"liquidityAdded","type":"uint256","indexed":false,"internalType":"uint256"}],"anonymous":false},{"type":"event","name":"OwnershipTransferred","inputs":[{"name":"previousOwner","type":"address","indexed":true,"internalType":"address"},{"name":"newOwner","type":"address","indexed":true,"internalType":"address"}],"anonymous":false},{"type":"event","name":"Purchase","inputs":[{"name":"launchId","type":"uint256","indexed":true,"internalType":"uint256"},{"name":"user","type":"address","indexed":true,"internalType":"address"},{"name":"amount","type":"uint256","indexed":false,"internalType":"uint256"},{"name":"tokens","type":"uint256","indexed":false,"internalType":"uint256"}],"anonymous":false},{"type":"event","name":"Refund","inputs":[{"name":"launchId","type":"uint256","indexed":true,"internalType":"uint256"},{"name":"user","type":"address","indexed":true,"internalType":"address"},{"name":"amount","type":"uint256","indexed":false,"internalType":"uint256"}],"anonymous":false},{"type":"event","name":"TokensClaimed","inputs":[{"name":"launchId","type":"uint256","indexed":true,"internalType":"uint256"},{"name":"user","type":"address","indexed":true,"internalType":"address"},{"name":"amount","type":"uint256","indexed":false,"internalType":"uint256"}],"anonymous":false},{"type":"error","name":"AddressEmptyCode","inputs":[{"name":"target","type":"address","internalType":"address"}]},{"type":"error","name":"AddressInsufficientBalance","inputs":[{"name":"account","type":"address","internalType":"address"}]},{"type":"error","name":"AlreadyClaimed","inputs":[]},{"type":"error","name":"ContributionTooHigh","inputs":[]},{"type":"error","name":"ContributionTooLow","inputs":[]},{"type":"error","name":"FailedInnerCall","inputs":[]},{"type":"error","name":"HardCapReached","inputs":[]},{"type":"error","name":"InvalidLaunch","inputs":[]},{"type":"error","name":"InvalidParameters","inputs":[]},{"type":"error","name":"LaunchEnded","inputs":[]},{"type":"error","name":"LaunchNotActive","inputs":[]},{"type":"error","name":"NoRefund","inputs":[]},{"type":"error","name":"NotWhitelisted","inputs":[]},{"type":"error","name":"OwnableInvalidOwner","inputs":[{"name":"owner","type":"address","internalType":"address"}]},{"type":"error","name":"OwnableUnauthorizedAccount","inputs":[{"name":"account","type":"address","internalType":"address"}]},{"type":"error","name":"ReentrancyGuardReentrantCall","inputs":[]},{"type":"error","name":"SafeERC20FailedOperation","inputs":[{"name":"token","type":"address","internalType":"address"}]},{"type":"error","name":"Unauthorized","inputs":[]},{"type":"error","name":"VestingNotStarted","inputs":[]}],"bytecode":{"object":"0x60c03461011e57601f611ce238819003918201601f19168301916001600160401b038311848410176101225780849260609460405283398101031261011e5761004781610136565b61005f604061005860208501610136565b9301610136565b913315610106575f549260018060a01b039160018060a01b03199333858716175f5560405195843391167f8be0079c531659141344cd1fd0a4f28419497f9722a3daafe3b4186f6b6457e05f80a36001805560c860035561138860045560805260a05216906002541617600255611b97908161014b823960805181818161087b015281816109dd015261131b015260a0518181816101d3015281816115a901526116dc0152f35b604051631e4fbdf760e01b81525f6004820152602490fd5b5f80fd5b634e487b7160e01b5f52604160045260245ffd5b51906001600160a01b038216820361011e5756fe60e0806040526004361015610012575f80fd5b5f3560e01c90816303fbf4b2146113975750806312aa29211461137457806312e8e2c31461134a578063140f021c1461130657806315fd0f87146112ea578063278ecde11461120b57806327e0d885146111f057806340bdcb12146111d557806340d1c0f2146111b257806346e04a2f146110af57806358f2360e1461108c5780635fb831db1461106257806361d027b31461103a5780636d3cbe2114610fee578063715018a614610f975780637b443a7614610e235780637f22cdf814610a755780638da5cb5b14610a4e5780638e640fbc1461098e578063926f82c51461096a57806395ccea671461092c578063979bd9cc1461090f578063aaf5eb68146108f3578063af437f4314610857578063bb2c73481461083c578063c5e22f3f14610819578063c7ce70de146107fc578063d5a7760d146107e1578063dea3c0eb14610769578063e4d2620e14610746578063edcdf7211461065a578063eeca08f01461063d578063f02a9df81461060f578063f0f44260146105cc578063f2fde38b14610542578063f43ae50714610525578063f864bac9146102065763f887ea40146101be575f80fd5b34610202575f366003190112610202576040517f00000000000000000000000000000000000000000000000000000000000000006001600160a01b03168152602090f35b5f80fd5b346102025760608060031936011261020257600435906024359160443567ffffffffffffffff92838211610202573660238301121561020257816004013591848311610202576005958360051b9460248684010136811161020257610269611875565b815f526020956006875260405f20916008830154421061051357600983015442101561050157600683015485106104ef57600a8301544210156104d157604051958887013360601b815260148852604088019b888d10908d11176104bd578b60405287519020926102e18a600d8701549c018d611442565b8b5260240188606088015b8383106104ad5750505050965f975b895189101561033857888b1b86018701519081811015610328575f528752600160405f205b9801976102fb565b905f528752600160405f20610320565b945094509550955095500361049b57600e8201805460ff191660011790555b825f526008815260405f20335f52815260405f20916103778584546113f7565b61038e600783015461038833611795565b90611404565b1061048957600b8101906103a38683546113f7565b6005820154106104775760018101546103ca908790309033906001600160a01b03166119f9565b670de0b6b3a7640000918287029287840414871517156104635760016103f7600c94600385015490611417565b956104038982546113f7565b8155016104118682546113f7565b905561041e8782546113f7565b90550161042c8382546113f7565b90556040519384528301527f9d507133ca47d3afd7d870243115c9867ea2325ba4c3014950405d35dae67cd660403393a360018055005b634e487b7160e01b5f52601160045260245ffd5b604051634bc461a160e11b8152600490fd5b604051635e508cd360e11b8152600490fd5b604051630b094f2760e31b8152600490fd5b82358152918101918a91016102ec565b634e487b7160e01b5f52604160045260245ffd5b50509550955095505050600e8201600260ff19825416179055610357565b604051636c7591b560e11b8152600490fd5b60405163254121b360e11b8152600490fd5b604051633405189f60e21b8152600490fd5b34610202575f36600319011261020257602060405162278d008152f35b346102025760203660031901126102025761055b6113cb565b61056361184a565b6001600160a01b039081169081156105b4575f54826bffffffffffffffffffffffff60a01b8216175f55167f8be0079c531659141344cd1fd0a4f28419497f9722a3daafe3b4186f6b6457e05f80a3005b604051631e4fbdf760e01b81525f6004820152602490fd5b34610202576020366003190112610202576105e56113cb565b6105ed61184a565b600280546001600160a01b0319166001600160a01b0392909216919091179055005b3461020257604036600319011261020257602061063561062d6113e1565b6004356118db565b604051908152f35b34610202575f366003190112610202576020600354604051908152f35b346102025760c0366003190112610202576004356024356003811015610202575f82815260066020526040902060028101546001600160a01b0316330361073557600e019060ff825416600581101561072157610513576106ba91611776565b60405190608082019082821067ffffffffffffffff8311176104bd57600391604052604435835260208301606435815260408401906084358252606085019260a43584525f52600760205260405f2094518555516001850155516002840155519101555f80f35b634e487b7160e01b5f52602160045260245ffd5b6040516282b42960e81b8152600490fd5b346102025760203660031901126102025760206106356107646113cb565b6117d9565b34610202576040366003190112610202576107826113e1565b6004355f52600860205260405f209060018060a01b03165f5260205260a060405f2060ff8154916001810154906003600282015491015491604051948552602085015260408401528181161515606084015260081c1615156080820152f35b34610202575f366003190112610202576020604051600f8152f35b34610202575f366003190112610202576020600454604051908152f35b346102025760203660031901126102025760206106356108376113cb565b611795565b34610202575f36600319011261020257602060405160058152f35b3461020257602036600319011261020257600435610873611875565b6108a88130337f00000000000000000000000000000000000000000000000000000000000000006001600160a01b03166119f9565b335f52600960205260405f206108bf8282546113f7565b90556040519081527f15c308a04f2caed76101a6636d993dd43c9d29a211d3cac5849d3165b3a8177b60203392a260018055005b34610202575f3660031901126102025760206040516127108152f35b34610202575f366003190112610202576020600554604051908152f35b34610202576040366003190112610202576109686109486113cb565b61095061184a565b5f54602435916001600160a01b039182169116611898565b005b34610202575f36600319011261020257602060405169010f0cf064dd592000008152f35b34610202576020366003190112610202576004356109aa611875565b335f5260096020528060405f205410610a3c57335f52600960205260405f206109d4828254611435565b9055610a0a81337f00000000000000000000000000000000000000000000000000000000000000006001600160a01b0316611898565b6040519081527f35d9393939dfb4e98dfa34f61ceaa22e2cadd20a00f7d1715d905356418a7d6960203392a260018055005b604051630e52390960e41b8152600490fd5b34610202575f366003190112610202575f546040516001600160a01b039091168152602090f35b346102025761018036600319011261020257610a8f6113cb565b610a976113e1565b6101043590610aa4611875565b6001600160a01b038316158015610e19575b8015610e0c575b8015610dff575b8015610df4575b8015610de9575b8015610ddd575b8015610dcf575b610a3c57600554915f19831461046357610b03906001840160055560e4356113f7565b610b126101243560e4356113f7565b60035491604051938461028081011067ffffffffffffffff610280870111176104bd57610280850160405260018060a01b038716855260018060a01b031660208501523360408501526044356060850152606435608085015260843560a085015260a43560c085015260c43560e085015260e4356101008501526101208401526101408301525f6101608301525f610180830152610144356101a08301525f6101c08301525f6101e0830152610164356102008301526102208201525f6102408201525f610260820152815f52600660205260405f2060018060a01b038251166bffffffffffffffffffffffff60a01b90818354161782556001820160018060a01b0360208501511682825416179055600282019060018060a01b0360408501511690825416179055606082015160038201556080820151600482015560a0820151600582015560c0820151600682015560e0820151600782015561010082015160088201556101208201516009820155610140820151600a820155610160820151600b820155610180820151600c8201556101a0820151600d820155600e8101906101c083015160058110156107215760ff801984541691161782556101e083015191600383101561072157601192610ceb91611776565b610200830151600f8201556102208301516010820155019061024081015115159060ff61ff006102608554930151151560081b1692169061ffff191617179055670de0b6b3a76400009182608435029260843584041460843515171561046357610d88610d77610d6060209560443590611417565b612710610d706101643583611404565b04906113f7565b30336001600160a01b0385166119f9565b604051608435815233916001600160a01b03169083907fd81a19f5d994769a415baf3c7241750c2680c525dbf114a82a45d4358d8e382c908690a460018055604051908152f35b506004546101643510610ae0565b5062278d008211610ad9565b50610e108210610ad2565b504260e43510610acb565b5060c43560a43511610ac4565b5060643560843510610abd565b5060443515610ab6565b34610202576020366003190112610202576004355f52600660205260405f20600160a01b6001900380825416908060018401541660c05260028301541691600381015460048201546005830154600684015460078501546008860154600987015491600a88015493600b89015495600c8a015497600d8b015499600e8c0154608052600f8c01549d60108d01549c601101549d60405160a05260a0515260c05160a0516020015260a0516040015260a0516060015260a0516080015260a05160a0015260a05160c0015260a05160e0015260a051610100015260a051610120015260a051610140015260a051610160015260a051610180015260a0516101a0015260805160ff16600511156107215760ff608051166101c060a0510152600360ff60805160081c1610156107215760ff928360805160081c166101e060a051015261020060a051015261022060a0510152818116151561024060a051015260081c16151561026060a051015261028060a051f35b34610202575f36600319011261020257610faf61184a565b5f80546001600160a01b0319811682556001600160a01b03167f8be0079c531659141344cd1fd0a4f28419497f9722a3daafe3b4186f6b6457e08280a3005b34610202576020366003190112610202576004355f526007602052608060405f208054906001810154906003600282015491015491604051938452602084015260408301526060820152f35b34610202575f366003190112610202576002546040516001600160a01b039091168152602090f35b346102025760203660031901126102025761107b611875565b61108660043561147c565b60018055005b34610202575f36600319011261020257602060405168056bc75e2d631000008152f35b34610202576020366003190112610202576004356110cb611875565b805f52600660205260405f209060ff601183015416156111a057805f52600860205260405f20335f5260205260405f20600181015480156111a05761111033846118db565b93841561118e578285926002611148950161112c8582546113f7565b809155101561117a575b505433906001600160a01b0316611898565b6040519182527f880f2ef2613b092f1a0a819f294155c98667eb294b7e6bf7a3810278142c1a1c60203393a360018055005b600301805460ff1916600117905585611136565b604051630c8d9eab60e31b8152600490fd5b6040516336f1f42360e11b8152600490fd5b34610202575f366003190112610202576020604051683635c9adc5dea000008152f35b34610202575f36600319011261020257602060405160018152f35b34610202575f36600319011261020257602060405160328152f35b3461020257602036600319011261020257600435611227611875565b805f52600660205260405f209060ff601183015460081c16156112c757805f52600860205260405f20335f5260205260405f2091825492831580156112d9575b6112c757600301805461ff0019166101001790556001015461129590839033906001600160a01b0316611898565b6040519182527f21e12a7cad0da5928167e1084ea4d5fdf8d9af66657a2543a9ac76a0ca08147760203393a360018055005b60405163c6dfc20160e01b8152600490fd5b5060ff600382015460081c16611267565b34610202575f366003190112610202576020604051610e108152f35b34610202575f366003190112610202576040517f00000000000000000000000000000000000000000000000000000000000000006001600160a01b03168152602090f35b346102025760203660031901126102025760043561136661184a565b6103e88111610a3c57600355005b34610202575f366003190112610202576020604051681b1ae4d6e2ef5000008152f35b34610202576020366003190112610202576020906001600160a01b036113bb6113cb565b165f526009825260405f20548152f35b600435906001600160a01b038216820361020257565b602435906001600160a01b038216820361020257565b9190820180921161046357565b8181029291811591840414171561046357565b8115611421570490565b634e487b7160e01b5f52601260045260245ffd5b9190820391821161046357565b90601f8019910116810190811067ffffffffffffffff8211176104bd57604052565b90816020910312610202575180151581036102025790565b90815f52602091600683526040805f20936009850154421061176557601185019485549560ff87166117545760ff196001818916178255600b83019182549860048501548a106117305750506003600e840191825416179055612710916114f3836114eb60108401548b611404565b048099611435565b978061170b575b50600f8101549261151b8161150f868c611404565b0494600c840154611404565b04831515806116d9575b611595575b50611558837f263b23d9b2cab56070be836744ca814236a9e4ea7a3843341ec410490c2940c2979899611435565b8061156d575b505054918351928352820152a2565b600182015460029092015461158e926001600160a01b039182169116611898565b5f8061155e565b6001820154865163095ea7b360e01b8082527f00000000000000000000000000000000000000000000000000000000000000006001600160a01b0381811660048501526024840189905291939092908990829060449082905f9087165af180156116cf578994926116379694925f926116b2575b50875416928b519687958694859384526004840160209093929193604081019460018060a01b031681520152565b03925af180156116a8577f263b23d9b2cab56070be836744ca814236a9e4ea7a3843341ec410490c2940c297989961155892869261167b575b50999897505061152a565b61169a90883d8a116116a1575b6116928183611442565b810190611464565b505f611670565b503d611688565b86513d5f823e3d90fd5b6116c890873d89116116a1576116928183611442565b505f611609565b8a513d5f823e3d90fd5b507f00000000000000000000000000000000000000000000000000000000000000006001600160a01b03161515611525565b600182015460025461172a92916001600160a01b039182169116611898565b5f6114fa565b61ffff1916610101179055600e909201805490921660041790915550929350505050565b83516336f1f42360e11b8152600490fd5b8151633405189f60e21b8152600490fd5b9060038110156107215761ff0082549160081b169061ff001916179055565b61179e906117d9565b600481146117d357600381146117cd57600281146117c7576001146117c257600190565b600190565b50600590565b50600f90565b50603290565b6001600160a01b03165f9081526009602052604090205469010f0cf064dd5920000081101561184457683635c9adc5dea0000081101561183e57681b1ae4d6e2ef5000008110156118385768056bc75e2d6310000011156117c2575f90565b50600290565b50600390565b50600490565b5f546001600160a01b0316330361185d57565b60405163118cdaa760e01b8152336004820152602490fd5b600260015414611886576002600155565b604051633ee5aeb560e01b8152600490fd5b60405163a9059cbb60e01b60208201526001600160a01b039290921660248301526044808301939093529181526118d9916118d4606483611442565b611a4e565b565b90815f52600660205260405f2090600860205260405f209060018060a01b03165f5260205260405f209160ff600e83015460081c16600381101561072157156119e3575f52600760205260405f206001830154906009612710611942600384015485611404565b0493015481549061195382826113f7565b42106119c85761196860019261196e926113f7565b42611435565b91015491828210156119b6576119999261198e6002959361199393611404565b611417565b906113f7565b910154808211156119b0576119ad91611435565b90565b50505f90565b9250505060026119ad92015490611435565b5050505090600201548082115f146119b0576119ad91611435565b505080600260016119ad93015491015490611435565b6040516323b872dd60e01b60208201526001600160a01b03928316602482015292909116604483015260648083019390935291815260a081019181831067ffffffffffffffff8411176104bd576118d9926040525b81516001600160a01b03909116915f91829160200182855af13d15611af2573d67ffffffffffffffff81116104bd57611aa99160405191611a996020601f19601f8401160184611442565b82523d5f602084013e5b83611afe565b8051908115159182611ad7575b5050611abf5750565b60249060405190635274afe760e01b82526004820152fd5b611aea9250602080918301019101611464565b155f80611ab6565b611aa990606090611aa3565b90611b255750805115611b1357805190602001fd5b604051630a12f52160e11b8152600490fd5b81511580611b58575b611b36575090565b604051639996b31560e01b81526001600160a01b039091166004820152602490fd5b50803b15611b2e56fea26469706673582212201d4933129bd0d813f6937ec2f96a59d956c20634eb0306dcbf6442bdf7db340b64736f6c63430008190033","linkReferences":{}},"methodIdentifiers":{"BRONZE_MULTIPLIER()":"40bdcb12","BRONZE_TIER()":"58f2360e","GOLD_MULTIPLIER()":"d5a7760d","GOLD_TIER()":"40d1c0f2","MAX_RAISE_DURATION()":"f43ae507","MIN_RAISE_DURATION()":"15fd0f87","PLATINUM_MULTIPLIER()":"27e0d885","PLATINUM_TIER()":"926f82c5","PRECISION()":"aaf5eb68","SILVER_MULTIPLIER()":"bb2c7348","SILVER_TIER()":"12aa2921","andeToken()":"140f021c","claimTokens(uint256)":"46e04a2f","createLaunch(address,address,uint256,uint256,uint256,uint256,uint256,uint256,uint256,uint256,bytes32,uint256)":"7f22cdf8","emergencyWithdraw(address,uint256)":"95ccea67","finalizeLaunch(uint256)":"5fb831db","getClaimableTokens(uint256,address)":"f02a9df8","getUserMultiplier(address)":"c5e22f3f","getUserTier(address)":"e4d2620e","launches(uint256)":"7b443a76","minLiquidityPercent()":"c7ce70de","nextLaunchId()":"979bd9cc","owner()":"8da5cb5b","participate(uint256,uint256,bytes32[])":"f864bac9","platformFeeRate()":"eeca08f0","refund(uint256)":"278ecde1","renounceOwnership()":"715018a6","router()":"f887ea40","setPlatformFee(uint256)":"12e8e2c3","setTreasury(address)":"f0f44260","setVesting(uint256,uint8,uint256,uint256,uint256,uint256)":"edcdf721","stakeAnde(uint256)":"af437f43","transferOwnership(address)":"f2fde38b","treasury()":"61d027b3","unstakeAnde(uint256)":"8e640fbc","userAllocations(uint256,address)":"dea3c0eb","userAndeStaked(address)":"03fbf4b2","vestingSchedules(uint256)":"6d3cbe21"},"id":150}