{"abi":[{"type":"constructor","inputs":[{"name":"_andeToken","type":"address","internalType":"address"},{"name":"_router","type":"address","internalType":"address"},{"name":"_treasury","type":"address","internalType":"address"}],"stateMutability":"nonpayable"},{"type":"function","name":"BRONZE_MULTIPLIER","inputs":[],"outputs":[{"name":"","type":"uint256","internalType":"uint256"}],"stateMutability":"view"},{"type":"function","name":"BRONZE_TIER","inputs":[],"outputs":[{"name":"","type":"uint256","internalType":"uint256"}],"stateMutability":"view"},{"type":"function","name":"GOLD_MULTIPLIER","inputs":[],"outputs":[{"name":"","type":"uint256","internalType":"uint256"}],"stateMutability":"view"},{"type":"function","name":"GOLD_TIER","inputs":[],"outputs":[{"name":"","type":"uint256","internalType":"uint256"}],"stateMutability":"view"},{"type":"function","name":"MAX_RAISE_DURATION","inputs":[],"outputs":[{"name":"","type":"uint256","internalType":"uint256"}],"stateMutability":"view"},{"type":"function","name":"MIN_RAISE_DURATION","inputs":[],"outputs":[{"name":"","type":"uint256","internalType":"uint256"}],"stateMutability":"view"},{"type":"function","name":"PLATINUM_MULTIPLIER","inputs":[],"outputs":[{"name":"","type":"uint256","internalType":"uint256"}],"stateMutability":"view"},{"type":"function","name":"PLATINUM_TIER","inputs":[],"outputs":[{"name":"","type":"uint256","internalType":"uint256"}],"stateMutability":"view"},{"type":"function","name":"PRECISION","inputs":[],"outputs":[{"name":"","type":"uint256","internalType":"uint256"}],"stateMutability":"view"},{"type":"function","name":"SILVER_MULTIPLIER","inputs":[],"outputs":[{"name":"","type":"uint256","internalType":"uint256"}],"stateMutability":"view"},{"type":"function","name":"SILVER_TIER","inputs":[],"outputs":[{"name":"","type":"uint256","internalType":"uint256"}],"stateMutability":"view"},{"type":"function","name":"andeToken","inputs":[],"outputs":[{"name":"","type":"address","internalType":"address"}],"stateMutability":"view"},{"type":"function","name":"claimTokens","inputs":[{"name":"launchId","type":"uint256","internalType":"uint256"}],"outputs":[],"stateMutability":"nonpayable"},{"type":"function","name":"createLaunch","inputs":[{"name":"token","type":"address","internalType":"address"},{"name":"paymentToken","type":"address","internalType":"address"},{"name":"tokenPrice","type":"uint256","internalType":"uint256"},{"name":"softCap","type":"uint256","internalType":"uint256"},{"name":"hardCap","type":"uint256","internalType":"uint256"},{"name":"minContribution","type":"uint256","internalType":"uint256"},{"name":"maxContribution","type":"uint256","internalType":"uint256"},{"name":"startTime","type":"uint256","internalType":"uint256"},{"name":"duration","type":"uint256","internalType":"uint256"},{"name":"whitelistDuration","type":"uint256","internalType":"uint256"},{"name":"whitelistRoot","type":"bytes32","internalType":"bytes32"},{"name":"liquidityPercent","type":"uint256","internalType":"uint256"}],"outputs":[{"name":"launchId","type":"uint256","internalType":"uint256"}],"stateMutability":"nonpayable"},{"type":"function","name":"emergencyWithdraw","inputs":[{"name":"token","type":"address","internalType":"address"},{"name":"amount","type":"uint256","internalType":"uint256"}],"outputs":[],"stateMutability":"nonpayable"},{"type":"function","name":"finalizeLaunch","inputs":[{"name":"launchId","type":"uint256","internalType":"uint256"}],"outputs":[],"stateMutability":"nonpayable"},{"type":"function","name":"getClaimableTokens","inputs":[{"name":"launchId","type":"uint256","internalType":"uint256"},{"name":"user","type":"address","internalType":"address"}],"outputs":[{"name":"","type":"uint256","internalType":"uint256"}],"stateMutability":"view"},{"type":"function","name":"getUserMultiplier","inputs":[{"name":"user","type":"address","internalType":"address"}],"outputs":[{"name":"multiplier","type":"uint256","internalType":"uint256"}],"stateMutability":"view"},{"type":"function","name":"getUserTier","inputs":[{"name":"user","type":"address","internalType":"address"}],"outputs":[{"name":"tier","type":"uint256","internalType":"uint256"}],"stateMutability":"view"},{"type":"function","name":"launches","inputs":[{"name":"","type":"uint256","internalType":"uint256"}],"outputs":[{"name":"token","type":"address","internalType":"address"},{"name":"paymentToken","type":"address","internalType":"address"},{"name":"creator","type":"address","internalType":"address"},{"name":"tokenPrice","type":"uint256","internalType":"uint256"},{"name":"softCap","type":"uint256","internalType":"uint256"},{"name":"hardCap","type":"uint256","internalType":"uint256"},{"name":"minContribution","type":"uint256","internalType":"uint256"},{"name":"maxContribution","type":"uint256","internalType":"uint256"},{"name":"startTime","type":"uint256","internalType":"uint256"},{"name":"endTime","type":"uint256","internalType":"uint256"},{"name":"whitelistEndTime","type":"uint256","internalType":"uint256"},{"name":"totalRaised","type":"uint256","internalType":"uint256"},{"name":"totalTokensSold","type":"uint256","internalType":"uint256"},{"name":"whitelistRoot","type":"bytes32","internalType":"bytes32"},{"name":"status","type":"uint8","internalType":"enum AndeLaunchpad.LaunchStatus"},{"name":"vestingType","type":"uint8","internalType":"enum AndeLaunchpad.VestingType"},{"name":"liquidityPercent","type":"uint256","internalType":"uint256"},{"name":"platformFee","type":"uint256","internalType":"uint256"},{"name":"finalized","type":"bool","internalType":"bool"},{"name":"refundEnabled","type":"bool","internalType":"bool"}],"stateMutability":"view"},{"type":"function","name":"minLiquidityPercent","inputs":[],"outputs":[{"name":"","type":"uint256","internalType":"uint256"}],"stateMutability":"view"},{"type":"function","name":"nextLaunchId","inputs":[],"outputs":[{"name":"","type":"uint256","internalType":"uint256"}],"stateMutability":"view"},{"type":"function","name":"owner","inputs":[],"outputs":[{"name":"","type":"address","internalType":"address"}],"stateMutability":"view"},{"type":"function","name":"participate","inputs":[{"name":"launchId","type":"uint256","internalType":"uint256"},{"name":"amount","type":"uint256","internalType":"uint256"},{"name":"merkleProof","type":"bytes32[]","internalType":"bytes32[]"}],"outputs":[],"stateMutability":"nonpayable"},{"type":"function","name":"platformFeeRate","inputs":[],"outputs":[{"name":"","type":"uint256","internalType":"uint256"}],"stateMutability":"view"},{"type":"function","name":"refund","inputs":[{"name":"launchId","type":"uint256","internalType":"uint256"}],"outputs":[],"stateMutability":"nonpayable"},{"type":"function","name":"renounceOwnership","inputs":[],"outputs":[],"stateMutability":"nonpayable"},{"type":"function","name":"router","inputs":[],"outputs":[{"name":"","type":"address","internalType":"address"}],"stateMutability":"view"},{"type":"function","name":"setPlatformFee","inputs":[{"name":"newFee","type":"uint256","internalType":"uint256"}],"outputs":[],"stateMutability":"nonpayable"},{"type":"function","name":"setTreasury","inputs":[{"name":"newTreasury","type":"address","internalType":"address"}],"outputs":[],"stateMutability":"nonpayable"},{"type":"function","name":"setVesting","inputs":[{"name":"launchId","type":"uint256","internalType":"uint256"},{"name":"vestingType","type":"uint8","internalType":"enum AndeLaunchpad.VestingType"},{"name":"cliff","type":"uint256","internalType":"uint256"},{"name":"duration","type":"uint256","internalType":"uint256"},{"name":"slicePeriod","type":"uint256","internalType":"uint256"},{"name":"initialUnlock","type":"uint256","internalType":"uint256"}],"outputs":[],"stateMutability":"nonpayable"},{"type":"function","name":"stakeAnde","inputs":[{"name":"amount","type":"uint256","internalType":"uint256"}],"outputs":[],"stateMutability":"nonpayable"},{"type":"function","name":"transferOwnership","inputs":[{"name":"newOwner","type":"address","internalType":"address"}],"outputs":[],"stateMutability":"nonpayable"},{"type":"function","name":"treasury","inputs":[],"outputs":[{"name":"","type":"address","internalType":"address"}],"stateMutability":"view"},{"type":"function","name":"unstakeAnde","inputs":[{"name":"amount","type":"uint256","internalType":"uint256"}],"outputs":[],"stateMutability":"nonpayable"},{"type":"function","name":"userAllocations","inputs":[{"name":"","type":"uint256","internalType":"uint256"},{"name":"","type":"address","internalType":"address"}],"outputs":[{"name":"amount","type":"uint256","internalType":"uint256"},{"name":"tokensPurchased","type":"uint256","internalType":"uint256"},{"name":"tokensClaimed","type":"uint256","internalType":"uint256"},{"name":"claimed","type":"bool","internalType":"bool"},{"name":"refunded","type":"bool","internalType":"bool"}],"stateMutability":"view"},{"type":"function","name":"userAndeStaked","inputs":[{"name":"","type":"address","internalType":"address"}],"outputs":[{"name":"","type":"uint256","internalType":"uint256"}],"stateMutability":"view"},{"type":"function","name":"vestingSchedules","inputs":[{"name":"","type":"uint256","internalType":"uint256"}],"outputs":[{"name":"cliff","type":"uint256","internalType":"uint256"},{"name":"duration","type":"uint256","internalType":"uint256"},{"name":"slicePeriod","type":"uint256","internalType":"uint256"},{"name":"initialUnlock","type":"uint256","internalType":"uint256"}],"stateMutability":"view"},{"type":"event","name":"AndeStaked","inputs":[{"name":"user","type":"address","indexed":true,"internalType":"address"},{"name":"amount","type":"uint256","indexed":false,"internalType":"uint256"}],"anonymous":false},{"type":"event","name":"AndeUnstaked","inputs":[{"name":"user","type":"address","indexed":true,"internalType":"address"},{"name":"amount","type":"uint256","indexed":false,"internalType":"uint256"}],"anonymous":false},{"type":"event","name":"LaunchCancelled","inputs":[{"name":"launchId","type":"uint256","indexed":true,"internalType":"uint256"}],"anonymous":false},{"type":"event","name":"LaunchCreated","inputs":[{"name":"launchId","type":"uint256","indexed":true,"internalType":"uint256"},{"name":"token","type":"address","indexed":true,"internalType":"address"},{"name":"creator","type":"address","indexed":true,"internalType":"address"},{"name":"hardCap","type":"uint256","indexed":false,"internalType":"uint256"}],"anonymous":false},{"type":"event","name":"LaunchFinalized","inputs":[{"name":"launchId","type":"uint256","indexed":true,"internalType":"uint256"},{"name":"totalRaised","type":"uint256","indexed":false,"internalType":"uint256"},{"name":"liquidityAdded","type":"uint256","indexed":false,"internalType":"uint256"}],"anonymous":false},{"type":"event","name":"OwnershipTransferred","inputs":[{"name":"previousOwner","type":"address","indexed":true,"internalType":"address"},{"name":"newOwner","type":"address","indexed":true,"internalType":"address"}],"anonymous":false},{"type":"event","name":"Purchase","inputs":[{"name":"launchId","type":"uint256","indexed":true,"internalType":"uint256"},{"name":"user","type":"address","indexed":true,"internalType":"address"},{"name":"amount","type":"uint256","indexed":false,"internalType":"uint256"},{"name":"tokens","type":"uint256","indexed":false,"internalType":"uint256"}],"anonymous":false},{"type":"event","name":"Refund","inputs":[{"name":"launchId","type":"uint256","indexed":true,"internalType":"uint256"},{"name":"user","type":"address","indexed":true,"internalType":"address"},{"name":"amount","type":"uint256","indexed":false,"internalType":"uint256"}],"anonymous":false},{"type":"event","name":"TokensClaimed","inputs":[{"name":"launchId","type":"uint256","indexed":true,"internalType":"uint256"},{"name":"user","type":"address","indexed":true,"internalType":"address"},{"name":"amount","type":"uint256","indexed":false,"internalType":"uint256"}],"anonymous":false},{"type":"error","name":"AddressEmptyCode","inputs":[{"name":"target","type":"address","internalType":"address"}]},{"type":"error","name":"AddressInsufficientBalance","inputs":[{"name":"account","type":"address","internalType":"address"}]},{"type":"error","name":"AlreadyClaimed","inputs":[]},{"type":"error","name":"ContributionTooHigh","inputs":[]},{"type":"error","name":"ContributionTooLow","inputs":[]},{"type":"error","name":"FailedInnerCall","inputs":[]},{"type":"error","name":"HardCapReached","inputs":[]},{"type":"error","name":"InvalidLaunch","inputs":[]},{"type":"error","name":"InvalidParameters","inputs":[]},{"type":"error","name":"LaunchEnded","inputs":[]},{"type":"error","name":"LaunchNotActive","inputs":[]},{"type":"error","name":"NoRefund","inputs":[]},{"type":"error","name":"NotWhitelisted","inputs":[]},{"type":"error","name":"OwnableInvalidOwner","inputs":[{"name":"owner","type":"address","internalType":"address"}]},{"type":"error","name":"OwnableUnauthorizedAccount","inputs":[{"name":"account","type":"address","internalType":"address"}]},{"type":"error","name":"ReentrancyGuardReentrantCall","inputs":[]},{"type":"error","name":"SafeERC20FailedOperation","inputs":[{"name":"token","type":"address","internalType":"address"}]},{"type":"error","name":"Unauthorized","inputs":[]},{"type":"error","name":"VestingNotStarted","inputs":[]}],"bytecode":{"object":"0x60c03461011e57601f6122e938819003918201601f19168301916001600160401b038311848410176101225780849260609460405283398101031261011e5761004781610136565b61005f604061005860208501610136565b9301610136565b913315610106575f549260018060a01b039160018060a01b03199333858716175f5560405195843391167f8be0079c531659141344cd1fd0a4f28419497f9722a3daafe3b4186f6b6457e05f80a36001805560c860035561138860045560805260a0521690600254161760025561219e908161014b8239608051818181610a4801528181610bc401526116d0015260a0518181816101ea015281816119f40152611b570152f35b604051631e4fbdf760e01b81525f6004820152602490fd5b5f80fd5b634e487b7160e01b5f52604160045260245ffd5b51906001600160a01b038216820361011e5756fe60e0806040526004361015610012575f80fd5b5f3560e01c90816303fbf4b2146117415750806312aa29211461171e57806312e8e2c3146116f4578063140f021c146116a457806315fd0f8714611688578063278ecde11461156757806327e0d8851461154c57806340bdcb121461153157806340d1c0f21461150e57806346e04a2f146113b057806358f2360e1461138d5780635fb831db1461136357806361d027b3146113305780636d3cbe21146112e4578063715018a6146112685780637b443a76146110e85780637f22cdf814610c775780638da5cb5b14610c455780638e640fbc14610b60578063926f82c514610b3c57806395ccea6714610af1578063979bd9cc14610ad4578063aaf5eb6814610ab8578063af437f4314610a0f578063bb2c7348146109f4578063c5e22f3f146109d1578063c7ce70de146109b4578063d5a7760d14610999578063dea3c0eb14610913578063e4d2620e146108f0578063edcdf721146107c6578063eeca08f0146107a9578063f02a9df81461077b578063f0f4426014610717578063f2fde38b14610657578063f43ae5071461063a578063f864bac9146102125763f887ea40146101be575f80fd5b3461020e575f60031936011261020e57602060405173ffffffffffffffffffffffffffffffffffffffff7f0000000000000000000000000000000000000000000000000000000000000000168152f35b5f80fd5b3461020e5760608060031936011261020e57600435906024359160443567ffffffffffffffff9283821161020e573660238301121561020e5781600401359184831161020e576005958360051b9460248684010136811161020e57610275611d8e565b815f526020956006875260405f2091600883015442106106105760098301544210156105e657600683015485106105bc57600a83015442101561058057604051958887013360601b815260148852604088019b888d10908d1117610553578b60405287519020926102ed8a600d8701549c018d61182c565b8b5260240188606088015b8383106105435750505050965f975b895189101561034457888b1b86018701519081811015610334575f528752600160405f205b980197610307565b905f528752600160405f2061032c565b945094509550955095500361051957600e820160017fffffffffffffffffffffffffffffffffffffffffffffffffffffffffffffff008254161790555b825f526008815260405f20335f52815260405f20916103a18584546117c8565b6103b860078301546103b233611c7e565b906117d5565b106104ef57600b8101906103cd8683546117c8565b6005820154106104c5576103ff8673ffffffffffffffffffffffffffffffffffffffff60018401541630903390611f5e565b670de0b6b3a76400009182870292878404148715171561049857600161042c600c946003850154906117e8565b956104388982546117c8565b8155016104468682546117c8565b90556104538782546117c8565b9055016104618382546117c8565b90556040519384528301527f9d507133ca47d3afd7d870243115c9867ea2325ba4c3014950405d35dae67cd660403393a360018055005b7f4e487b71000000000000000000000000000000000000000000000000000000005f52601160045260245ffd5b60046040517f9788c342000000000000000000000000000000000000000000000000000000008152fd5b60046040517fbca119a6000000000000000000000000000000000000000000000000000000008152fd5b60046040517f584a7938000000000000000000000000000000000000000000000000000000008152fd5b82358152918101918a91016102f8565b7f4e487b71000000000000000000000000000000000000000000000000000000005f52604160045260245ffd5b50509550955095505050600e820160027fffffffffffffffffffffffffffffffffffffffffffffffffffffffffffffff00825416179055610381565b60046040517fd8eb236a000000000000000000000000000000000000000000000000000000008152fd5b60046040517f4a824366000000000000000000000000000000000000000000000000000000008152fd5b60046040517fd014627c000000000000000000000000000000000000000000000000000000008152fd5b3461020e575f60031936011261020e57602060405162278d008152f35b3461020e57602060031936011261020e57610670611782565b610678611d3e565b73ffffffffffffffffffffffffffffffffffffffff8091169081156106e7575f54827fffffffffffffffffffffffff00000000000000000000000000000000000000008216175f55167f8be0079c531659141344cd1fd0a4f28419497f9722a3daafe3b4186f6b6457e05f80a3005b60246040517f1e4fbdf70000000000000000000000000000000000000000000000000000000081525f6004820152fd5b3461020e57602060031936011261020e5773ffffffffffffffffffffffffffffffffffffffff610745611782565b61074d611d3e565b167fffffffffffffffffffffffff000000000000000000000000000000000000000060025416176002555f80f35b3461020e57604060031936011261020e5760206107a16107996117a5565b600435611e32565b604051908152f35b3461020e575f60031936011261020e576020600354604051908152f35b3461020e5760c060031936011261020e57600435602435600381101561020e57815f52600660205260405f2073ffffffffffffffffffffffffffffffffffffffff60028201541633036108c657600e019060ff8254166005811015610899576106105761083291611c42565b60405190608082019082821067ffffffffffffffff83111761055357600391604052604435835260208301606435815260408401906084358252606085019260a43584525f52600760205260405f2094518555516001850155516002840155519101555f80f35b7f4e487b71000000000000000000000000000000000000000000000000000000005f52602160045260245ffd5b60046040517f82b42900000000000000000000000000000000000000000000000000000000008152fd5b3461020e57602060031936011261020e5760206107a161090e611782565b611cc2565b3461020e57604060031936011261020e5761092c6117a5565b6004355f52600860205273ffffffffffffffffffffffffffffffffffffffff60405f2091165f5260205260a060405f2060ff8154916001810154906003600282015491015491604051948552602085015260408401528181161515606084015260081c1615156080820152f35b3461020e575f60031936011261020e576020604051600f8152f35b3461020e575f60031936011261020e576020600454604051908152f35b3461020e57602060031936011261020e5760206107a16109ef611782565b611c7e565b3461020e575f60031936011261020e57602060405160058152f35b3461020e57602060031936011261020e57600435610a2b611d8e565b610a6d81303373ffffffffffffffffffffffffffffffffffffffff7f000000000000000000000000000000000000000000000000000000000000000016611f5e565b335f52600960205260405f20610a848282546117c8565b90556040519081527f15c308a04f2caed76101a6636d993dd43c9d29a211d3cac5849d3165b3a8177b60203392a260018055005b3461020e575f60031936011261020e5760206040516127108152f35b3461020e575f60031936011261020e576020600554604051908152f35b3461020e57604060031936011261020e57610b3a610b0d611782565b610b15611d3e565b73ffffffffffffffffffffffffffffffffffffffff9060243591805f54169116611dc9565b005b3461020e575f60031936011261020e57602060405169010f0cf064dd592000008152f35b3461020e57602060031936011261020e57600435610b7c611d8e565b335f5260096020528060405f205410610c1b57335f52600960205260405f20610ba682825461181f565b9055610be9813373ffffffffffffffffffffffffffffffffffffffff7f000000000000000000000000000000000000000000000000000000000000000016611dc9565b6040519081527f35d9393939dfb4e98dfa34f61ceaa22e2cadd20a00f7d1715d905356418a7d6960203392a260018055005b60046040517fe5239090000000000000000000000000000000000000000000000000000000008152fd5b3461020e575f60031936011261020e57602073ffffffffffffffffffffffffffffffffffffffff5f5416604051908152f35b3461020e5761018060031936011261020e57610c91611782565b610c996117a5565b6101043590610ca6611d8e565b73ffffffffffffffffffffffffffffffffffffffff83161580156110de575b80156110d1575b80156110c4575b80156110b9575b80156110ae575b80156110a2575b8015611094575b610c1b57600554917fffffffffffffffffffffffffffffffffffffffffffffffffffffffffffffffff831461049857610d31906001840160055560e4356117c8565b610d406101243560e4356117c8565b60035491604051938461028081011067ffffffffffffffff610280870111176105535773ffffffffffffffffffffffffffffffffffffffff90610280860160405281881686521660208501523360408501526044356060850152606435608085015260843560a085015260a43560c085015260c43560e085015260e4356101008501526101208401526101408301525f6101608301525f610180830152610144356101a08301525f6101c08301525f6101e0830152610164356102008301526102208201525f6102408201525f610260820152815f52600660205260405f2073ffffffffffffffffffffffffffffffffffffffff8251167fffffffffffffffffffffffff000000000000000000000000000000000000000090818354161782556001820173ffffffffffffffffffffffffffffffffffffffff60208501511682825416179055600282019073ffffffffffffffffffffffffffffffffffffffff60408501511690825416179055606082015160038201556080820151600482015560a0820151600582015560c0820151600682015560e0820151600782015561010082015160088201556101208201516009820155610140820151600a820155610160820151600b820155610180820151600c8201556101a0820151600d820155600e8101906101c083015160058110156108995760ff7fffffffffffffffffffffffffffffffffffffffffffffffffffffffffffffff0084541691161782556101e083015191600383101561089957601192610f7c91611c42565b610200830151600f820155610220830151601082015501906102408101511515907fffffffffffffffffffffffffffffffffffffffffffffffffffffffffffff000060ff61ff006102608654940151151560081b169316911617179055670de0b6b3a7640000918260843502926084358404146084351517156104985761104361102561100e602095604435906117e8565b61271061101e61016435836117d5565b04906117c8565b303373ffffffffffffffffffffffffffffffffffffffff8516611f5e565b6040516084358152827fd81a19f5d994769a415baf3c7241750c2680c525dbf114a82a45d4358d8e382c8573ffffffffffffffffffffffffffffffffffffffff33951693a460018055604051908152f35b506004546101643510610cef565b5062278d008211610ce8565b50610e108210610ce1565b504260e43510610cda565b5060c43560a43511610cd3565b5060643560843510610ccc565b5060443515610cc5565b3461020e57602060031936011261020e576004355f52600660205260405f2073ffffffffffffffffffffffffffffffffffffffff80825416908060018401541660c05260028301541691600381015460048201546005830154600684015460078501546008860154600987015491600a88015493600b89015495600c8a015497600d8b015499600e8c0154608052600f8c01549d60108d01549c601101549d60405160a05260a0515260c05160a0516020015260a0516040015260a0516060015260a0516080015260a05160a0015260a05160c0015260a05160e0015260a051610100015260a051610120015260a051610140015260a051610160015260a051610180015260a0516101a0015260805160ff16600511156108995760ff608051166101c060a0510152600360ff60805160081c1610156108995760ff928360805160081c166101e060a051015261020060a051015261022060a0510152818116151561024060a051015260081c16151561026060a051015261028060a051f35b3461020e575f60031936011261020e57611280611d3e565b5f73ffffffffffffffffffffffffffffffffffffffff81547fffffffffffffffffffffffff000000000000000000000000000000000000000081168355167f8be0079c531659141344cd1fd0a4f28419497f9722a3daafe3b4186f6b6457e08280a3005b3461020e57602060031936011261020e576004355f526007602052608060405f208054906001810154906003600282015491015491604051938452602084015260408301526060820152f35b3461020e575f60031936011261020e57602073ffffffffffffffffffffffffffffffffffffffff60025416604051908152f35b3461020e57602060031936011261020e5761137c611d8e565b611387600435611885565b60018055005b3461020e575f60031936011261020e57602060405168056bc75e2d631000008152f35b3461020e57602060031936011261020e576004356113cc611d8e565b805f52600660205260405f209060ff601183015416156114e457805f52600860205260405f20335f5260205260405f20600181015480156114e4576114113384611e32565b9384156114ba578285926002611456950161142d8582546117c8565b8091551015611488575b5073ffffffffffffffffffffffffffffffffffffffff33915416611dc9565b6040519182527f880f2ef2613b092f1a0a819f294155c98667eb294b7e6bf7a3810278142c1a1c60203393a360018055005b60030160017fffffffffffffffffffffffffffffffffffffffffffffffffffffffffffffff0082541617905585611437565b60046040517f646cf558000000000000000000000000000000000000000000000000000000008152fd5b60046040517f6de3e846000000000000000000000000000000000000000000000000000000008152fd5b3461020e575f60031936011261020e576020604051683635c9adc5dea000008152f35b3461020e575f60031936011261020e57602060405160018152f35b3461020e575f60031936011261020e57602060405160328152f35b3461020e57602060031936011261020e57600435611583611d8e565b805f52600660205260405f209060ff601183015460081c161561164d57805f52600860205260405f20335f5260205260405f209182549283158015611677575b61164d5761161b9160038592016101007fffffffffffffffffffffffffffffffffffffffffffffffffffffffffffff00ff82541617905573ffffffffffffffffffffffffffffffffffffffff60013392015416611dc9565b6040519182527f21e12a7cad0da5928167e1084ea4d5fdf8d9af66657a2543a9ac76a0ca08147760203393a360018055005b60046040517fc6dfc201000000000000000000000000000000000000000000000000000000008152fd5b5060ff600382015460081c166115c3565b3461020e575f60031936011261020e576020604051610e108152f35b3461020e575f60031936011261020e57602060405173ffffffffffffffffffffffffffffffffffffffff7f0000000000000000000000000000000000000000000000000000000000000000168152f35b3461020e57602060031936011261020e57600435611710611d3e565b6103e88111610c1b57600355005b3461020e575f60031936011261020e576020604051681b1ae4d6e2ef5000008152f35b3461020e57602060031936011261020e5760209073ffffffffffffffffffffffffffffffffffffffff611772611782565b165f526009825260405f20548152f35b6004359073ffffffffffffffffffffffffffffffffffffffff8216820361020e57565b6024359073ffffffffffffffffffffffffffffffffffffffff8216820361020e57565b9190820180921161049857565b8181029291811591840414171561049857565b81156117f2570490565b7f4e487b71000000000000000000000000000000000000000000000000000000005f52601260045260245ffd5b9190820391821161049857565b90601f7fffffffffffffffffffffffffffffffffffffffffffffffffffffffffffffffe0910116810190811067ffffffffffffffff82111761055357604052565b9081602091031261020e5751801515810361020e5790565b90815f52602091600683526040805f209360098501544210611c1957601185019485549560ff8716611bf0577fffffffffffffffffffffffffffffffffffffffffffffffffffffffffffffff006001818916178255600b83019182549860048501548a10611baf5750506003600e8401918254161790556127109161191a8361191260108401548b6117d5565b04809961181f565b9780611b7e575b50600f8101549261194281611936868c6117d5565b0494600c8401546117d5565b0483151580611b3f575b6119c7575b5061197f837f263b23d9b2cab56070be836744ca814236a9e4ea7a3843341ec410490c2940c297989961181f565b80611994575b505054918351928352820152a2565b6119c09173ffffffffffffffffffffffffffffffffffffffff6002816001840154169201541690611dc9565b5f80611985565b600182015486517f095ea7b3000000000000000000000000000000000000000000000000000000008082527f000000000000000000000000000000000000000000000000000000000000000073ffffffffffffffffffffffffffffffffffffffff81811660048501526024840189905291939092908990829060449082905f9087165af18015611b3557899492611a9d9694925f92611b18575b50875416928b51968795869485938452600484016020909392919373ffffffffffffffffffffffffffffffffffffffff60408201951681520152565b03925af18015611b0e577f263b23d9b2cab56070be836744ca814236a9e4ea7a3843341ec410490c2940c297989961197f928692611ae1575b509998975050611951565b611b0090883d8a11611b07575b611af8818361182c565b81019061186d565b505f611ad6565b503d611aee565b86513d5f823e3d90fd5b611b2e90873d8911611b0757611af8818361182c565b505f611a61565b8a513d5f823e3d90fd5b5073ffffffffffffffffffffffffffffffffffffffff7f000000000000000000000000000000000000000000000000000000000000000016151561194c565b611ba99073ffffffffffffffffffffffffffffffffffffffff80600185015416906002541690611dc9565b5f611921565b7fffffffffffffffffffffffffffffffffffffffffffffffffffffffffffff000016610101179055600e909201805490921660041790915550929350505050565b600484517f6de3e846000000000000000000000000000000000000000000000000000000008152fd5b600482517fd014627c000000000000000000000000000000000000000000000000000000008152fd5b906003811015610899577fffffffffffffffffffffffffffffffffffffffffffffffffffffffffffff00ff61ff0083549260081b169116179055565b611c8790611cc2565b60048114611cbc5760038114611cb65760028114611cb057600114611cab57600190565b600190565b50600590565b50600f90565b50603290565b73ffffffffffffffffffffffffffffffffffffffff165f52600960205260405f205469010f0cf064dd59200000811015611d3857683635c9adc5dea00000811015611d3257681b1ae4d6e2ef500000811015611d2c5768056bc75e2d631000001115611cab575f90565b50600290565b50600390565b50600490565b73ffffffffffffffffffffffffffffffffffffffff5f54163303611d5e57565b60246040517f118cdaa7000000000000000000000000000000000000000000000000000000008152336004820152fd5b600260015414611d9f576002600155565b60046040517f3ee5aeb5000000000000000000000000000000000000000000000000000000008152fd5b6040517fa9059cbb00000000000000000000000000000000000000000000000000000000602082015273ffffffffffffffffffffffffffffffffffffffff929092166024830152604480830193909352918152611e3091611e2b60648361182c565b611fd6565b565b90815f52600660205260405f2090600860205273ffffffffffffffffffffffffffffffffffffffff60405f2091165f5260205260405f209160ff600e83015460081c1660038110156108995715611f48575f52600760205260405f206001830154906009612710611ea76003840154856117d5565b04930154815490611eb882826117c8565b4210611f2d57611ecd600192611ed3926117c8565b4261181f565b9101549182821015611f1b57611efe92611ef360029593611ef8936117d5565b6117e8565b906117c8565b91015480821115611f1557611f129161181f565b90565b50505f90565b925050506002611f129201549061181f565b5050505090600201548082115f14611f1557611f129161181f565b50508060026001611f129301549101549061181f565b9290604051927f23b872dd00000000000000000000000000000000000000000000000000000000602085015273ffffffffffffffffffffffffffffffffffffffff809216602485015216604483015260648201526064815260a081019181831067ffffffffffffffff84111761055357611e30926040525b5f73ffffffffffffffffffffffffffffffffffffffff8192169260208151910182855af13d156120bc573d67ffffffffffffffff81116105535761205a916040519161204a60207fffffffffffffffffffffffffffffffffffffffffffffffffffffffffffffffe0601f840116018461182c565b82523d5f602084013e5b836120c8565b80519081151591826120a1575b50506120705750565b602490604051907f5274afe70000000000000000000000000000000000000000000000000000000082526004820152fd5b6120b4925060208091830101910161186d565b155f80612067565b61205a90606090612054565b9061210757508051156120dd57805190602001fd5b60046040517f1425ea42000000000000000000000000000000000000000000000000000000008152fd5b8151158061215f575b612118575090565b60249073ffffffffffffffffffffffffffffffffffffffff604051917f9996b315000000000000000000000000000000000000000000000000000000008352166004820152fd5b50803b1561211056fea264697066735822122060d22ab24b91630e432be287e9afb53da79581a4fffecb889d0ea6d8fc4302ee64736f6c63430008190033","linkReferences":{}},"methodIdentifiers":{"BRONZE_MULTIPLIER()":"40bdcb12","BRONZE_TIER()":"58f2360e","GOLD_MULTIPLIER()":"d5a7760d","GOLD_TIER()":"40d1c0f2","MAX_RAISE_DURATION()":"f43ae507","MIN_RAISE_DURATION()":"15fd0f87","PLATINUM_MULTIPLIER()":"27e0d885","PLATINUM_TIER()":"926f82c5","PRECISION()":"aaf5eb68","SILVER_MULTIPLIER()":"bb2c7348","SILVER_TIER()":"12aa2921","andeToken()":"140f021c","claimTokens(uint256)":"46e04a2f","createLaunch(address,address,uint256,uint256,uint256,uint256,uint256,uint256,uint256,uint256,bytes32,uint256)":"7f22cdf8","emergencyWithdraw(address,uint256)":"95ccea67","finalizeLaunch(uint256)":"5fb831db","getClaimableTokens(uint256,address)":"f02a9df8","getUserMultiplier(address)":"c5e22f3f","getUserTier(address)":"e4d2620e","launches(uint256)":"7b443a76","minLiquidityPercent()":"c7ce70de","nextLaunchId()":"979bd9cc","owner()":"8da5cb5b","participate(uint256,uint256,bytes32[])":"f864bac9","platformFeeRate()":"eeca08f0","refund(uint256)":"278ecde1","renounceOwnership()":"715018a6","router()":"f887ea40","setPlatformFee(uint256)":"12e8e2c3","setTreasury(address)":"f0f44260","setVesting(uint256,uint8,uint256,uint256,uint256,uint256)":"edcdf721","stakeAnde(uint256)":"af437f43","transferOwnership(address)":"f2fde38b","treasury()":"61d027b3","unstakeAnde(uint256)":"8e640fbc","userAllocations(uint256,address)":"dea3c0eb","userAndeStaked(address)":"03fbf4b2","vestingSchedules(uint256)":"6d3cbe21"},"id":150}