{"abi":[{"type":"constructor","inputs":[{"name":"_andeToken","type":"address","internalType":"address"},{"name":"_priceOracle","type":"address","internalType":"contract IPriceOracle"},{"name":"_accountFactory","type":"address","internalType":"address"},{"name":"_entryPoint","type":"address","internalType":"contract IEntryPoint"},{"name":"initialOwner","type":"address","internalType":"address"}],"stateMutability":"nonpayable"},{"type":"function","name":"COST_OF_POST","inputs":[],"outputs":[{"name":"","type":"uint256","internalType":"uint256"}],"stateMutability":"view"},{"type":"function","name":"PRICE_CACHE_DURATION","inputs":[],"outputs":[{"name":"","type":"uint256","internalType":"uint256"}],"stateMutability":"view"},{"type":"function","name":"accountFactory","inputs":[],"outputs":[{"name":"","type":"address","internalType":"address"}],"stateMutability":"view"},{"type":"function","name":"addStake","inputs":[{"name":"unstakeDelaySec","type":"uint32","internalType":"uint32"}],"outputs":[],"stateMutability":"payable"},{"type":"function","name":"addToWhitelist","inputs":[{"name":"account","type":"address","internalType":"address"}],"outputs":[],"stateMutability":"nonpayable"},{"type":"function","name":"andeToken","inputs":[],"outputs":[{"name":"","type":"address","internalType":"contract IERC20"}],"stateMutability":"view"},{"type":"function","name":"calculateANDECost","inputs":[{"name":"gasUsed","type":"uint256","internalType":"uint256"},{"name":"gasPrice","type":"uint256","internalType":"uint256"}],"outputs":[{"name":"","type":"uint256","internalType":"uint256"}],"stateMutability":"view"},{"type":"function","name":"deposit","inputs":[],"outputs":[],"stateMutability":"payable"},{"type":"function","name":"entryPoint","inputs":[],"outputs":[{"name":"","type":"address","internalType":"contract IEntryPoint"}],"stateMutability":"view"},{"type":"function","name":"getANDEToken","inputs":[],"outputs":[{"name":"","type":"address","internalType":"address"}],"stateMutability":"view"},{"type":"function","name":"getCurrentExchangeRate","inputs":[],"outputs":[{"name":"","type":"uint256","internalType":"uint256"}],"stateMutability":"view"},{"type":"function","name":"getDeposit","inputs":[],"outputs":[{"name":"","type":"uint256","internalType":"uint256"}],"stateMutability":"view"},{"type":"function","name":"getMaxGasLimit","inputs":[],"outputs":[{"name":"","type":"uint256","internalType":"uint256"}],"stateMutability":"view"},{"type":"function","name":"getPriceOracle","inputs":[],"outputs":[{"name":"","type":"address","internalType":"address"}],"stateMutability":"view"},{"type":"function","name":"isWhitelisted","inputs":[{"name":"user","type":"address","internalType":"address"}],"outputs":[{"name":"","type":"bool","internalType":"bool"}],"stateMutability":"view"},{"type":"function","name":"maxGasLimit","inputs":[],"outputs":[{"name":"","type":"uint256","internalType":"uint256"}],"stateMutability":"view"},{"type":"function","name":"owner","inputs":[],"outputs":[{"name":"","type":"address","internalType":"address"}],"stateMutability":"view"},{"type":"function","name":"postOp","inputs":[{"name":"mode","type":"uint8","internalType":"enum IPaymaster.PostOpMode"},{"name":"context","type":"bytes","internalType":"bytes"},{"name":"actualGasCost","type":"uint256","internalType":"uint256"}],"outputs":[],"stateMutability":"nonpayable"},{"type":"function","name":"priceOracle","inputs":[],"outputs":[{"name":"","type":"address","internalType":"contract IPriceOracle"}],"stateMutability":"view"},{"type":"function","name":"removeFromWhitelist","inputs":[{"name":"account","type":"address","internalType":"address"}],"outputs":[],"stateMutability":"nonpayable"},{"type":"function","name":"renounceOwnership","inputs":[],"outputs":[],"stateMutability":"nonpayable"},{"type":"function","name":"setMaxGasLimit","inputs":[{"name":"newLimit","type":"uint256","internalType":"uint256"}],"outputs":[],"stateMutability":"nonpayable"},{"type":"function","name":"setPriceOracle","inputs":[{"name":"newOracle","type":"address","internalType":"contract IPriceOracle"}],"outputs":[],"stateMutability":"nonpayable"},{"type":"function","name":"setWhitelistEnabled","inputs":[{"name":"enabled","type":"bool","internalType":"bool"}],"outputs":[],"stateMutability":"nonpayable"},{"type":"function","name":"transferOwnership","inputs":[{"name":"newOwner","type":"address","internalType":"address"}],"outputs":[],"stateMutability":"nonpayable"},{"type":"function","name":"unlockStake","inputs":[],"outputs":[],"stateMutability":"nonpayable"},{"type":"function","name":"updatePriceCache","inputs":[],"outputs":[],"stateMutability":"nonpayable"},{"type":"function","name":"validatePaymasterUserOp","inputs":[{"name":"userOp","type":"tuple","internalType":"struct UserOperation","components":[{"name":"sender","type":"address","internalType":"address"},{"name":"nonce","type":"uint256","internalType":"uint256"},{"name":"initCode","type":"bytes","internalType":"bytes"},{"name":"callData","type":"bytes","internalType":"bytes"},{"name":"callGasLimit","type":"uint256","internalType":"uint256"},{"name":"verificationGasLimit","type":"uint256","internalType":"uint256"},{"name":"preVerificationGas","type":"uint256","internalType":"uint256"},{"name":"maxFeePerGas","type":"uint256","internalType":"uint256"},{"name":"maxPriorityFeePerGas","type":"uint256","internalType":"uint256"},{"name":"paymasterAndData","type":"bytes","internalType":"bytes"},{"name":"signature","type":"bytes","internalType":"bytes"}]},{"name":"userOpHash","type":"bytes32","internalType":"bytes32"},{"name":"maxCost","type":"uint256","internalType":"uint256"}],"outputs":[{"name":"context","type":"bytes","internalType":"bytes"},{"name":"validationData","type":"uint256","internalType":"uint256"}],"stateMutability":"nonpayable"},{"type":"function","name":"whitelist","inputs":[{"name":"","type":"address","internalType":"address"}],"outputs":[{"name":"","type":"bool","internalType":"bool"}],"stateMutability":"view"},{"type":"function","name":"whitelistEnabled","inputs":[],"outputs":[{"name":"","type":"bool","internalType":"bool"}],"stateMutability":"view"},{"type":"function","name":"withdrawANDE","inputs":[{"name":"to","type":"address","internalType":"address"},{"name":"amount","type":"uint256","internalType":"uint256"}],"outputs":[],"stateMutability":"nonpayable"},{"type":"function","name":"withdrawStake","inputs":[{"name":"withdrawAddress","type":"address","internalType":"address payable"}],"outputs":[],"stateMutability":"nonpayable"},{"type":"function","name":"withdrawTo","inputs":[{"name":"withdrawAddress","type":"address","internalType":"address payable"},{"name":"amount","type":"uint256","internalType":"uint256"}],"outputs":[],"stateMutability":"nonpayable"},{"type":"event","name":"MaxGasLimitUpdated","inputs":[{"name":"oldLimit","type":"uint256","indexed":false,"internalType":"uint256"},{"name":"newLimit","type":"uint256","indexed":false,"internalType":"uint256"}],"anonymous":false},{"type":"event","name":"OwnershipTransferred","inputs":[{"name":"previousOwner","type":"address","indexed":true,"internalType":"address"},{"name":"newOwner","type":"address","indexed":true,"internalType":"address"}],"anonymous":false},{"type":"event","name":"PriceOracleUpdated","inputs":[{"name":"oldOracle","type":"address","indexed":true,"internalType":"address"},{"name":"newOracle","type":"address","indexed":true,"internalType":"address"}],"anonymous":false},{"type":"event","name":"UserOperationSponsored","inputs":[{"name":"sender","type":"address","indexed":true,"internalType":"address"},{"name":"actualGasCost","type":"uint256","indexed":false,"internalType":"uint256"},{"name":"andeCharge","type":"uint256","indexed":false,"internalType":"uint256"}],"anonymous":false},{"type":"event","name":"WhitelistStatusChanged","inputs":[{"name":"enabled","type":"bool","indexed":false,"internalType":"bool"}],"anonymous":false},{"type":"event","name":"WhitelistUpdated","inputs":[{"name":"account","type":"address","indexed":true,"internalType":"address"},{"name":"isWhitelisted","type":"bool","indexed":false,"internalType":"bool"}],"anonymous":false},{"type":"error","name":"AddressEmptyCode","inputs":[{"name":"target","type":"address","internalType":"address"}]},{"type":"error","name":"AddressInsufficientBalance","inputs":[{"name":"account","type":"address","internalType":"address"}]},{"type":"error","name":"FailedInnerCall","inputs":[]},{"type":"error","name":"GasLimitTooHigh","inputs":[]},{"type":"error","name":"InsufficientANDEBalance","inputs":[]},{"type":"error","name":"InvalidConstructor","inputs":[]},{"type":"error","name":"InvalidFactory","inputs":[]},{"type":"error","name":"InvalidOracle","inputs":[]},{"type":"error","name":"InvalidToken","inputs":[]},{"type":"error","name":"NotWhitelisted","inputs":[]},{"type":"error","name":"OwnableInvalidOwner","inputs":[{"name":"owner","type":"address","internalType":"address"}]},{"type":"error","name":"OwnableUnauthorizedAccount","inputs":[{"name":"account","type":"address","internalType":"address"}]},{"type":"error","name":"SafeERC20FailedOperation","inputs":[{"name":"token","type":"address","internalType":"address"}]},{"type":"error","name":"TransferFailed","inputs":[]}],"bytecode":{"object":"0x60e0346101a457601f61150938819003918201601f1916830191906001600160401b038311848410176101a8578160a092859260409586528339810103126101a45761004a826101bc565b60208301516001600160a01b03939190848116908190036101a4576100708484016101bc565b9160608401519386851685036101a457608061008c91016101bc565b93331561018d5790869161009f336101d0565b6080521694851561017c57811561016b5782161561015a576100de939460a05260018060a01b0319600154161760015560c052620f42406002556101d0565b516112f29081610217823960805181818161058601528181610632015281816106e101528181610757015281816107e501528181610d8601528181610ec701526110ec015260a0518181816102a20152818161093001528181610a0c01528181610d32015261103e015260c0518181816103950152610b6f0152f35b8351637a44db9560e01b8152600490fd5b8451639589a27d60e01b8152600490fd5b845163c1ab6dc160e01b8152600490fd5b8551631e4fbdf760e01b81525f6004820152602490fd5b5f80fd5b634e487b7160e01b5f52604160045260245ffd5b51906001600160a01b03821682036101a457565b5f80546001600160a01b039283166001600160a01b03198216811783559216907f8be0079c531659141344cd1fd0a4f28419497f9722a3daafe3b4186f6b6457e09080a356fe60406080815260049081361015610014575f80fd5b5f915f3560e01c9081630396cb6014610e9d578163052d9e7e14610e38578163140f021c146109f75781631776834a14610de357838263205c287814610d595750816320c612fa14610b9e57816321cf3a9d14610cd85781632630c12f14610caf5781633af32abf146109915781633ca967f314610c8b57816351fb012d14610c68578163530e784f14610bd9578163539f51db14610bbd5781635e45da2314610b9e578163687cd9c114610b5a578163715018a614610b01578163796d437114610ae457816388e79d6414610aa55781638ab1d68114610a3b5781638b6808f5146109f75781638da5cb5b146109cf5781639b19251a14610991578163a9a2340914610814578163b0d691fe146107d0578163baff9667146107ad57838263bb9fe6bf1461073a578263c23a5cea146106b357508163c399ec881461060457838263d0e30db01461057657508163e43252d714610505578163f2fde38b14610477578163f465c77e146101bc575063fca513a814610191575f80fd5b346101b857816003193601126101b85760015490516001600160a01b039091168152602090f35b5080fd5b90508234610474576060916003199183833601126104745781359167ffffffffffffffff83116101b8576101608382019484360301126101b8576101fe6110ea565b60ff8154168061044d575b61043f57670de0b6b3a7640000610229610221611012565b604435610fb3565b049260a481013561024c610241826084850135611005565b60c484013590611005565b6002541061042f576188b810156103de5760440161026a818661116d565b9050610382575b506001600160a01b039361028481611159565b87516370a0823160e01b8152908616818401526020929083816024817f00000000000000000000000000000000000000000000000000000000000000008b165afa908115610378579086918691610343575b501061033557506102e690611159565b9286519482860194168452868501526024358585015284845261030884610f75565b855195869481865251938480928701528686015e8383018501829052830152601f01601f19168101030190f35b875163259bb25760e11b8152fd5b809250858092503d8311610371575b61035c8183610f91565b8101031261036d578590518a6102d6565b5f80fd5b503d610352565b89513d87823e3d90fd5b61038c908561116d565b6014116103da577f00000000000000000000000000000000000000000000000000000000000000006001600160a01b03169035861c036103cc5786610271565b85516312c1701b60e01b8152fd5b8280fd5b865162461bcd60e51b8152602081840152602560248201527f414e44455061796d61737465723a2067617320746f6f206c6f7720666f72207060448201526406f73744f760dc1b6064820152608490fd5b8751637d2e4eb560e01b81528390fd5b8551630b094f2760e31b8152fd5b506001600160a01b0361045f85611159565b168252600360205260ff868320541615610209565b80fd5b9050346103da5760203660031901126103da57610492610f37565b9061049b610fda565b6001600160a01b039182169283156104ef5750505f54826bffffffffffffffffffffffff60a01b8216175f55167f8be0079c531659141344cd1fd0a4f28419497f9722a3daafe3b4186f6b6457e05f80a380f35b51631e4fbdf760e01b8152908101849052602490fd5b5050346101b85760203660031901126101b8577ff93f9a76c1bf3444d22400a00cb9fe990e6abe9dbb333fda48859cfee864543d6020610543610f37565b61054b610fda565b6001600160a01b031680855260038252838520805460ff19166001908117909155935193845292a280f35b80918482600319360112610600577f00000000000000000000000000000000000000000000000000000000000000006001600160a01b031691823b156105fb578390602483518095819363b760faf960e01b8352309083015234905af19081156105f257506105e25750f35b6105eb90610f4d565b6104745780f35b513d84823e3d90fd5b505050fd5b5050fd5b8383346101b857816003193601126101b85780516370a0823160e01b815230938101939093526020836024817f00000000000000000000000000000000000000000000000000000000000000006001600160a01b03165afa9182156106a85791610673575b6020925051908152f35b90506020823d6020116106a0575b8161068e60209383610f91565b8101031261036d576020915190610669565b3d9150610681565b9051903d90823e3d90fd5b80918434610600576020366003190112610600576106cf610f37565b6106d7610fda565b6001600160a01b037f00000000000000000000000000000000000000000000000000000000000000008116803b15610736578592836024928651978895869463611d2e7560e11b865216908401525af19081156105f257506105e25750f35b8580fd5b80918434610600578260031936011261060057610755610fda565b7f00000000000000000000000000000000000000000000000000000000000000006001600160a01b031691823b156105fb57815163bb9fe6bf60e01b81529284918491829084905af19081156105f257506105e25750f35b83346104745780600319360112610474576107c6611012565b6005554260065580f35b5050346101b857816003193601126101b857517f00000000000000000000000000000000000000000000000000000000000000006001600160a01b03168152602090f35b8383346101b85760603660031901126101b8576003833510156101b85760249081359167ffffffffffffffff9081841161098d573660238501121561098d578386013582811161073657840191368284011161073657606085604435946108796110ea565b031261073657818501356001600160a01b038116959086900361036d5760440135916188b8840180851161097b576108c2670de0b6b3a7640000916108bc611012565b90610fb3565b0492808411610973575b5084516323b872dd60e01b6020820152818101879052306044820152606480820185905281529760a08901928311898410176109625750507f472a42a044527b87df02c0ce8e6c00c0057fac40d6c424c93c24b02322eb14b59495966109549185527f00000000000000000000000000000000000000000000000000000000000000006111a0565b82519182526020820152a280f35b604190634e487b7160e01b5f52525ffd5b9250886108cc565b50634e487b7160e01b87526011885286fd5b8480fd5b5050346101b85760203660031901126101b85760209160ff9082906001600160a01b036109bc610f37565b1681526003855220541690519015158152f35b5050346101b857816003193601126101b857905490516001600160a01b039091168152602090f35b5050346101b857816003193601126101b857517f00000000000000000000000000000000000000000000000000000000000000006001600160a01b03168152602090f35b5050346101b85760203660031901126101b8577ff93f9a76c1bf3444d22400a00cb9fe990e6abe9dbb333fda48859cfee864543d6020610a79610f37565b610a81610fda565b6001600160a01b031680855260038252838520805460ff191690559251848152a280f35b82843461047457816003193601126104745750670de0b6b3a7640000610adc610ad46020946024359035610fb3565b6108bc611012565b049051908152f35b5050346101b857816003193601126101b857602090516188b88152f35b8334610474578060031936011261047457610b1a610fda565b5f80546001600160a01b0319811682556001600160a01b03167f8be0079c531659141344cd1fd0a4f28419497f9722a3daafe3b4186f6b6457e08280a380f35b5050346101b857816003193601126101b857517f00000000000000000000000000000000000000000000000000000000000000006001600160a01b03168152602090f35b5050346101b857816003193601126101b8576020906002549051908152f35b5050346101b857816003193601126101b85760209051603c8152f35b919050346103da5760203660031901126103da576001600160a01b0382358181169391929084900361098d57610c0d610fda565b8315610c5b575050600154826bffffffffffffffffffffffff60a01b82161760015583600655167f56b5f80d8cac1479698aa7d01605fd6111e90b15fc4d2b377417f46034876cbd8380a380f35b51639589a27d60e01b8152fd5b8284346104745780600319360112610474575060ff602092541690519015158152f35b5050346101b857816003193601126101b857602090610ca8611012565b9051908152f35b5050346101b857816003193601126101b85760015490516001600160a01b039091168152602090f35b5050346101b857806003193601126101b857610d5690610cf6610f37565b90610cff610fda565b519063a9059cbb60e01b602083015260018060a01b03166024820152602435604482015260448152610d3081610f75565b7f00000000000000000000000000000000000000000000000000000000000000006111a0565b80f35b80918434610600578060031936011261060057610d74610f37565b610d7c610fda565b6001600160a01b037f00000000000000000000000000000000000000000000000000000000000000008116803b15610736578592836044928651978895869463040b850f60e31b8652169084015260243560248401525af19081156105f257506105e25750f35b919050346103da5760203660031901126103da577fbe7b61c51ba98d0a7b30b6fb3f546bb16480f4e13f7e238cd7748212533003b69135610e22610fda565b600254908060025582519182526020820152a180f35b9050346103da5760203660031901126103da578035801515809103610e99577f1cf28b997975c7be355bcef74f2f5019aa48253bc1e54b3c8b002471865fdba892602092610e84610fda565b60ff1981541660ff841617905551908152a180f35b8380fd5b919050602036600319011261036d5781359163ffffffff831680930361036d57610ec5610fda565b7f00000000000000000000000000000000000000000000000000000000000000006001600160a01b031692833b1561036d5760245f9284519586938492621cb65b60e51b845283015234905af1908115610f2e5750610f22575080f35b610f2c9150610f4d565b005b513d5f823e3d90fd5b600435906001600160a01b038216820361036d57565b67ffffffffffffffff8111610f6157604052565b634e487b7160e01b5f52604160045260245ffd5b6080810190811067ffffffffffffffff821117610f6157604052565b90601f8019910116810190811067ffffffffffffffff821117610f6157604052565b81810292918115918404141715610fc657565b634e487b7160e01b5f52601160045260245ffd5b5f546001600160a01b03163303610fed57565b60405163118cdaa760e01b8152336004820152602490fd5b91908201809211610fc657565b60065480151590816110d5575b506110cf5760015460405163adfe34f760e01b81526001600160a01b037f000000000000000000000000000000000000000000000000000000000000000081166004830152909160209183916024918391165afa5f918161109b575b5061108b5750600554801561108e575b90565b50670de0b6b3a764000090565b9091506020813d6020116110c7575b816110b760209383610f91565b8101031261036d5751905f61107b565b3d91506110aa565b60055490565b9050603c8101809111610fc65742105f61101f565b7f00000000000000000000000000000000000000000000000000000000000000006001600160a01b0316330361111c57565b60405162461bcd60e51b815260206004820152601560248201527414d95b99195c881b9bdd08115b9d1c9e541bda5b9d605a1b6044820152606490fd5b356001600160a01b038116810361036d5790565b903590601e198136030182121561036d570180359067ffffffffffffffff821161036d5760200191813603831361036d57565b81516001600160a01b03909116915f91829160200182855af13d1561124d573d67ffffffffffffffff8111610f61576111fb91604051916111eb6020601f19601f8401160184610f91565b82523d5f602084013e5b83611259565b8051908115159182611229575b50506112115750565b60249060405190635274afe760e01b82526004820152fd5b819250906020918101031261036d576020015180159081150361036d575f80611208565b6111fb906060906111f5565b90611280575080511561126e57805190602001fd5b604051630a12f52160e11b8152600490fd5b815115806112b3575b611291575090565b604051639996b31560e01b81526001600160a01b039091166004820152602490fd5b50803b1561128956fea264697066735822122084fea2fba472941130c451b340b60cc17426f40edf37c536074b20449585d81e64736f6c63430008190033","linkReferences":{}},"methodIdentifiers":{"COST_OF_POST()":"796d4371","PRICE_CACHE_DURATION()":"539f51db","accountFactory()":"687cd9c1","addStake(uint32)":"0396cb60","addToWhitelist(address)":"e43252d7","andeToken()":"140f021c","calculateANDECost(uint256,uint256)":"88e79d64","deposit()":"d0e30db0","entryPoint()":"b0d691fe","getANDEToken()":"8b6808f5","getCurrentExchangeRate()":"3ca967f3","getDeposit()":"c399ec88","getMaxGasLimit()":"20c612fa","getPriceOracle()":"fca513a8","isWhitelisted(address)":"3af32abf","maxGasLimit()":"5e45da23","owner()":"8da5cb5b","postOp(uint8,bytes,uint256)":"a9a23409","priceOracle()":"2630c12f","removeFromWhitelist(address)":"8ab1d681","renounceOwnership()":"715018a6","setMaxGasLimit(uint256)":"1776834a","setPriceOracle(address)":"530e784f","setWhitelistEnabled(bool)":"052d9e7e","transferOwnership(address)":"f2fde38b","unlockStake()":"bb9fe6bf","updatePriceCache()":"baff9667","validatePaymasterUserOp((address,uint256,bytes,bytes,uint256,uint256,uint256,uint256,uint256,bytes,bytes),bytes32,uint256)":"f465c77e","whitelist(address)":"9b19251a","whitelistEnabled()":"51fb012d","withdrawANDE(address,uint256)":"21cf3a9d","withdrawStake(address)":"c23a5cea","withdrawTo(address,uint256)":"205c2878"},"id":100}