{"abi":[{"type":"constructor","inputs":[{"name":"_andeToken","type":"address","internalType":"address"},{"name":"_priceOracle","type":"address","internalType":"contract IPriceOracle"},{"name":"_accountFactory","type":"address","internalType":"address"},{"name":"_entryPoint","type":"address","internalType":"contract IEntryPoint"},{"name":"initialOwner","type":"address","internalType":"address"}],"stateMutability":"nonpayable"},{"type":"function","name":"COST_OF_POST","inputs":[],"outputs":[{"name":"","type":"uint256","internalType":"uint256"}],"stateMutability":"view"},{"type":"function","name":"PRICE_CACHE_DURATION","inputs":[],"outputs":[{"name":"","type":"uint256","internalType":"uint256"}],"stateMutability":"view"},{"type":"function","name":"accountFactory","inputs":[],"outputs":[{"name":"","type":"address","internalType":"address"}],"stateMutability":"view"},{"type":"function","name":"addStake","inputs":[{"name":"unstakeDelaySec","type":"uint32","internalType":"uint32"}],"outputs":[],"stateMutability":"payable"},{"type":"function","name":"addToWhitelist","inputs":[{"name":"account","type":"address","internalType":"address"}],"outputs":[],"stateMutability":"nonpayable"},{"type":"function","name":"andeToken","inputs":[],"outputs":[{"name":"","type":"address","internalType":"contract IERC20"}],"stateMutability":"view"},{"type":"function","name":"calculateANDECost","inputs":[{"name":"gasUsed","type":"uint256","internalType":"uint256"},{"name":"gasPrice","type":"uint256","internalType":"uint256"}],"outputs":[{"name":"","type":"uint256","internalType":"uint256"}],"stateMutability":"view"},{"type":"function","name":"deposit","inputs":[],"outputs":[],"stateMutability":"payable"},{"type":"function","name":"entryPoint","inputs":[],"outputs":[{"name":"","type":"address","internalType":"contract IEntryPoint"}],"stateMutability":"view"},{"type":"function","name":"getANDEToken","inputs":[],"outputs":[{"name":"","type":"address","internalType":"address"}],"stateMutability":"view"},{"type":"function","name":"getCurrentExchangeRate","inputs":[],"outputs":[{"name":"","type":"uint256","internalType":"uint256"}],"stateMutability":"view"},{"type":"function","name":"getDeposit","inputs":[],"outputs":[{"name":"","type":"uint256","internalType":"uint256"}],"stateMutability":"view"},{"type":"function","name":"getMaxGasLimit","inputs":[],"outputs":[{"name":"","type":"uint256","internalType":"uint256"}],"stateMutability":"view"},{"type":"function","name":"getPriceOracle","inputs":[],"outputs":[{"name":"","type":"address","internalType":"address"}],"stateMutability":"view"},{"type":"function","name":"isWhitelisted","inputs":[{"name":"user","type":"address","internalType":"address"}],"outputs":[{"name":"","type":"bool","internalType":"bool"}],"stateMutability":"view"},{"type":"function","name":"maxGasLimit","inputs":[],"outputs":[{"name":"","type":"uint256","internalType":"uint256"}],"stateMutability":"view"},{"type":"function","name":"owner","inputs":[],"outputs":[{"name":"","type":"address","internalType":"address"}],"stateMutability":"view"},{"type":"function","name":"postOp","inputs":[{"name":"mode","type":"uint8","internalType":"enum IPaymaster.PostOpMode"},{"name":"context","type":"bytes","internalType":"bytes"},{"name":"actualGasCost","type":"uint256","internalType":"uint256"}],"outputs":[],"stateMutability":"nonpayable"},{"type":"function","name":"priceOracle","inputs":[],"outputs":[{"name":"","type":"address","internalType":"contract IPriceOracle"}],"stateMutability":"view"},{"type":"function","name":"removeFromWhitelist","inputs":[{"name":"account","type":"address","internalType":"address"}],"outputs":[],"stateMutability":"nonpayable"},{"type":"function","name":"renounceOwnership","inputs":[],"outputs":[],"stateMutability":"nonpayable"},{"type":"function","name":"setMaxGasLimit","inputs":[{"name":"newLimit","type":"uint256","internalType":"uint256"}],"outputs":[],"stateMutability":"nonpayable"},{"type":"function","name":"setPriceOracle","inputs":[{"name":"newOracle","type":"address","internalType":"contract IPriceOracle"}],"outputs":[],"stateMutability":"nonpayable"},{"type":"function","name":"setWhitelistEnabled","inputs":[{"name":"enabled","type":"bool","internalType":"bool"}],"outputs":[],"stateMutability":"nonpayable"},{"type":"function","name":"transferOwnership","inputs":[{"name":"newOwner","type":"address","internalType":"address"}],"outputs":[],"stateMutability":"nonpayable"},{"type":"function","name":"unlockStake","inputs":[],"outputs":[],"stateMutability":"nonpayable"},{"type":"function","name":"updatePriceCache","inputs":[],"outputs":[],"stateMutability":"nonpayable"},{"type":"function","name":"validatePaymasterUserOp","inputs":[{"name":"userOp","type":"tuple","internalType":"struct UserOperation","components":[{"name":"sender","type":"address","internalType":"address"},{"name":"nonce","type":"uint256","internalType":"uint256"},{"name":"initCode","type":"bytes","internalType":"bytes"},{"name":"callData","type":"bytes","internalType":"bytes"},{"name":"callGasLimit","type":"uint256","internalType":"uint256"},{"name":"verificationGasLimit","type":"uint256","internalType":"uint256"},{"name":"preVerificationGas","type":"uint256","internalType":"uint256"},{"name":"maxFeePerGas","type":"uint256","internalType":"uint256"},{"name":"maxPriorityFeePerGas","type":"uint256","internalType":"uint256"},{"name":"paymasterAndData","type":"bytes","internalType":"bytes"},{"name":"signature","type":"bytes","internalType":"bytes"}]},{"name":"userOpHash","type":"bytes32","internalType":"bytes32"},{"name":"maxCost","type":"uint256","internalType":"uint256"}],"outputs":[{"name":"context","type":"bytes","internalType":"bytes"},{"name":"validationData","type":"uint256","internalType":"uint256"}],"stateMutability":"nonpayable"},{"type":"function","name":"whitelist","inputs":[{"name":"","type":"address","internalType":"address"}],"outputs":[{"name":"","type":"bool","internalType":"bool"}],"stateMutability":"view"},{"type":"function","name":"whitelistEnabled","inputs":[],"outputs":[{"name":"","type":"bool","internalType":"bool"}],"stateMutability":"view"},{"type":"function","name":"withdrawANDE","inputs":[{"name":"to","type":"address","internalType":"address"},{"name":"amount","type":"uint256","internalType":"uint256"}],"outputs":[],"stateMutability":"nonpayable"},{"type":"function","name":"withdrawStake","inputs":[{"name":"withdrawAddress","type":"address","internalType":"address payable"}],"outputs":[],"stateMutability":"nonpayable"},{"type":"function","name":"withdrawTo","inputs":[{"name":"withdrawAddress","type":"address","internalType":"address payable"},{"name":"amount","type":"uint256","internalType":"uint256"}],"outputs":[],"stateMutability":"nonpayable"},{"type":"event","name":"MaxGasLimitUpdated","inputs":[{"name":"oldLimit","type":"uint256","indexed":false,"internalType":"uint256"},{"name":"newLimit","type":"uint256","indexed":false,"internalType":"uint256"}],"anonymous":false},{"type":"event","name":"OwnershipTransferred","inputs":[{"name":"previousOwner","type":"address","indexed":true,"internalType":"address"},{"name":"newOwner","type":"address","indexed":true,"internalType":"address"}],"anonymous":false},{"type":"event","name":"PriceOracleUpdated","inputs":[{"name":"oldOracle","type":"address","indexed":true,"internalType":"address"},{"name":"newOracle","type":"address","indexed":true,"internalType":"address"}],"anonymous":false},{"type":"event","name":"UserOperationSponsored","inputs":[{"name":"sender","type":"address","indexed":true,"internalType":"address"},{"name":"actualGasCost","type":"uint256","indexed":false,"internalType":"uint256"},{"name":"andeCharge","type":"uint256","indexed":false,"internalType":"uint256"}],"anonymous":false},{"type":"event","name":"WhitelistStatusChanged","inputs":[{"name":"enabled","type":"bool","indexed":false,"internalType":"bool"}],"anonymous":false},{"type":"event","name":"WhitelistUpdated","inputs":[{"name":"account","type":"address","indexed":true,"internalType":"address"},{"name":"isWhitelisted","type":"bool","indexed":false,"internalType":"bool"}],"anonymous":false},{"type":"error","name":"AddressEmptyCode","inputs":[{"name":"target","type":"address","internalType":"address"}]},{"type":"error","name":"AddressInsufficientBalance","inputs":[{"name":"account","type":"address","internalType":"address"}]},{"type":"error","name":"FailedInnerCall","inputs":[]},{"type":"error","name":"GasLimitTooHigh","inputs":[]},{"type":"error","name":"InsufficientANDEBalance","inputs":[]},{"type":"error","name":"InvalidConstructor","inputs":[]},{"type":"error","name":"InvalidFactory","inputs":[]},{"type":"error","name":"InvalidOracle","inputs":[]},{"type":"error","name":"InvalidToken","inputs":[]},{"type":"error","name":"NotWhitelisted","inputs":[]},{"type":"error","name":"OwnableInvalidOwner","inputs":[{"name":"owner","type":"address","internalType":"address"}]},{"type":"error","name":"OwnableUnauthorizedAccount","inputs":[{"name":"account","type":"address","internalType":"address"}]},{"type":"error","name":"SafeERC20FailedOperation","inputs":[{"name":"token","type":"address","internalType":"address"}]},{"type":"error","name":"TransferFailed","inputs":[]}],"bytecode":{"object":"0x60e0346101a457601f611a3338819003918201601f1916830191906001600160401b038311848410176101a8578160a092859260409586528339810103126101a45761004a826101bc565b60208301516001600160a01b03939190848116908190036101a4576100708484016101bc565b9160608401519386851685036101a457608061008c91016101bc565b93331561018d5790869161009f336101d0565b6080521694851561017c57811561016b5782161561015a576100de939460a05260018060a01b0319600154161760015560c052620f42406002556101d0565b5161181c908161021782396080518181816106fb015281816107e4015281816108990152818161093c015281816109f2015281816110d5015281816112610152611553015260a0518181816102d501528181610b5701528181610c9301528181611073015261149e015260c0518181816104150152610e530152f35b8351637a44db9560e01b8152600490fd5b8451639589a27d60e01b8152600490fd5b845163c1ab6dc160e01b8152600490fd5b8551631e4fbdf760e01b81525f6004820152602490fd5b5f80fd5b634e487b7160e01b5f52604160045260245ffd5b51906001600160a01b03821682036101a457565b5f80546001600160a01b039283166001600160a01b03198216811783559216907f8be0079c531659141344cd1fd0a4f28419497f9722a3daafe3b4186f6b6457e09080a356fe60406080815260049081361015610014575f80fd5b5f915f3560e01c9081630396cb6014611222578163052d9e7e1461119f578163140f021c14610c665781631776834a1461114a57838263205c28781461109a5750816320c612fa14610e7757816321cf3a9d14610ff25781632630c12f14610fbd5781633af32abf14610bea5781633ca967f314610f9957816351fb012d14610f76578163530e784f14610eb2578163539f51db14610e965781635e45da2314610e77578163687cd9c114610e26578163715018a614610da8578163796d437114610d8b57816388e79d6414610d4c5781638ab1d68114610cb75781638b6808f514610c665781638da5cb5b14610c335781639b19251a14610bea578163a9a2340914610a16578163b0d691fe146109c5578163baff9667146109a257838263bb9fe6bf1461090a578263c23a5cea1461085d57508163c399ec881461078a57838263d0e30db0146106d657508163e43252d71461063d578163f2fde38b14610578578163f465c77e146101c8575063fca513a814610191575f80fd5b346101c457816003193601126101c45760209073ffffffffffffffffffffffffffffffffffffffff600154169051908152f35b5080fd5b90508234610575576060916003199183833601126105755781359167ffffffffffffffff83116101c4576101608382019484360301126101c45761020a61153c565b60ff81541680610541575b61051a57670de0b6b3a764000061023561022d611441565b6044356113a4565b049260a481013561025861024d826084850135611434565b60c484013590611434565b600254106104f2576188b8101561046f5760440161027681866115fa565b90506103ed575b5073ffffffffffffffffffffffffffffffffffffffff9361029d816115d9565b91858851937f70a08231000000000000000000000000000000000000000000000000000000008552168184015260209283816024818a7f0000000000000000000000000000000000000000000000000000000000000000165afa9081156103e35790869186916103ae575b50106103875750917fffffffffffffffffffffffffffffffffffffffffffffffffffffffffffffffe0939161033e601f946115d9565b9288519682880194168452888701526024358787015286865261036086611347565b875197889681885251938480928901528888015e8187848801015285015201168101030190f35b87517f4b3764ae000000000000000000000000000000000000000000000000000000008152fd5b809250858092503d83116103dc575b6103c78183611363565b810103126103d8578590518a610308565b5f80fd5b503d6103bd565b89513d87823e3d90fd5b6103f790856115fa565b60141161046b5773ffffffffffffffffffffffffffffffffffffffff7f0000000000000000000000000000000000000000000000000000000000000000169035861c03610444578661027d565b85517f12c1701b000000000000000000000000000000000000000000000000000000008152fd5b8280fd5b60848260208951917f08c379a0000000000000000000000000000000000000000000000000000000008352820152602560248201527f414e44455061796d61737465723a2067617320746f6f206c6f7720666f72207060448201527f6f73744f700000000000000000000000000000000000000000000000000000006064820152fd5b8288517f7d2e4eb5000000000000000000000000000000000000000000000000000000008152fd5b85517f584a7938000000000000000000000000000000000000000000000000000000008152fd5b5073ffffffffffffffffffffffffffffffffffffffff610560856115d9565b168252600360205260ff868320541615610215565b80fd5b90503461046b57602060031936011261046b576105936112e3565b9061059c6113e4565b73ffffffffffffffffffffffffffffffffffffffff80921692831561060e5750505f54827fffffffffffffffffffffffff00000000000000000000000000000000000000008216175f55167f8be0079c531659141344cd1fd0a4f28419497f9722a3daafe3b4186f6b6457e05f80a380f35b908460249251917f1e4fbdf7000000000000000000000000000000000000000000000000000000008352820152fd5b5050346101c45760206003193601126101c4577ff93f9a76c1bf3444d22400a00cb9fe990e6abe9dbb333fda48859cfee864543d602073ffffffffffffffffffffffffffffffffffffffff6106906112e3565b6106986113e4565b16928385526003825280852060017fffffffffffffffffffffffffffffffffffffffffffffffffffffffffffffff008254161790555160018152a280f35b809184826003193601126107865773ffffffffffffffffffffffffffffffffffffffff7f00000000000000000000000000000000000000000000000000000000000000001691823b1561078157839060248351809581937fb760faf9000000000000000000000000000000000000000000000000000000008352309083015234905af190811561077857506107685750f35b61077190611306565b6105755780f35b513d84823e3d90fd5b505050fd5b5050fd5b8383346101c457816003193601126101c4578051927f70a08231000000000000000000000000000000000000000000000000000000008452309084015260208360248173ffffffffffffffffffffffffffffffffffffffff7f0000000000000000000000000000000000000000000000000000000000000000165afa918215610852579161081d575b6020925051908152f35b90506020823d60201161084a575b8161083860209383611363565b810103126103d8576020915190610813565b3d915061082b565b9051903d90823e3d90fd5b80918434610786576020600319360112610786576108796112e3565b6108816113e4565b73ffffffffffffffffffffffffffffffffffffffff807f000000000000000000000000000000000000000000000000000000000000000016803b1561090657859283602492865197889586947fc23a5cea00000000000000000000000000000000000000000000000000000000865216908401525af190811561077857506107685750f35b8580fd5b809184346107865782600319360112610786576109256113e4565b73ffffffffffffffffffffffffffffffffffffffff7f00000000000000000000000000000000000000000000000000000000000000001691823b1561078157839283918351809581937fbb9fe6bf0000000000000000000000000000000000000000000000000000000083525af190811561077857506107685750f35b83346105755780600319360112610575576109bb611441565b6005554260065580f35b5050346101c457816003193601126101c4576020905173ffffffffffffffffffffffffffffffffffffffff7f0000000000000000000000000000000000000000000000000000000000000000168152f35b8383346101c45760606003193601126101c4576003833510156101c45760249081359167ffffffffffffffff90818411610be65736602385011215610be657838601358281116109065784019136828401116109065760608560443594610a7b61153c565b031261090657818501359473ffffffffffffffffffffffffffffffffffffffff86168096036103d85760440135916188b88401808511610bbb57610ad0670de0b6b3a764000091610aca611441565b906113a4565b0492808411610bb3575b508451977f23b872dd0000000000000000000000000000000000000000000000000000000060208a015286828a01523060448a01528360648a01526064895260a089019289841090841117610b895750507f472a42a044527b87df02c0ce8e6c00c0057fac40d6c424c93c24b02322eb14b5949596610b7b9185527f000000000000000000000000000000000000000000000000000000000000000061164b565b82519182526020820152a280f35b6041907f4e487b71000000000000000000000000000000000000000000000000000000005f52525ffd5b925088610ada565b50866011897f4e487b7100000000000000000000000000000000000000000000000000000000835252fd5b8480fd5b5050346101c45760206003193601126101c45760ff8160209373ffffffffffffffffffffffffffffffffffffffff610c206112e3565b1681526003855220541690519015158152f35b5050346101c457816003193601126101c45773ffffffffffffffffffffffffffffffffffffffff60209254169051908152f35b5050346101c457816003193601126101c4576020905173ffffffffffffffffffffffffffffffffffffffff7f0000000000000000000000000000000000000000000000000000000000000000168152f35b5050346101c45760206003193601126101c4577ff93f9a76c1bf3444d22400a00cb9fe990e6abe9dbb333fda48859cfee864543d602073ffffffffffffffffffffffffffffffffffffffff610d0a6112e3565b610d126113e4565b1692838552600382528085207fffffffffffffffffffffffffffffffffffffffffffffffffffffffffffffff00815416905551848152a280f35b82843461057557816003193601126105755750670de0b6b3a7640000610d83610d7b60209460243590356113a4565b610aca611441565b049051908152f35b5050346101c457816003193601126101c457602090516188b88152f35b8334610575578060031936011261057557610dc16113e4565b5f73ffffffffffffffffffffffffffffffffffffffff81547fffffffffffffffffffffffff000000000000000000000000000000000000000081168355167f8be0079c531659141344cd1fd0a4f28419497f9722a3daafe3b4186f6b6457e08280a380f35b5050346101c457816003193601126101c4576020905173ffffffffffffffffffffffffffffffffffffffff7f0000000000000000000000000000000000000000000000000000000000000000168152f35b5050346101c457816003193601126101c4576020906002549051908152f35b5050346101c457816003193601126101c45760209051603c8152f35b9190503461046b57602060031936011261046b5781359173ffffffffffffffffffffffffffffffffffffffff91828416809403610be657610ef16113e4565b8315610f50575050600154827fffffffffffffffffffffffff000000000000000000000000000000000000000082161760015583600655167f56b5f80d8cac1479698aa7d01605fd6111e90b15fc4d2b377417f46034876cbd8380a380f35b517f9589a27d000000000000000000000000000000000000000000000000000000008152fd5b8284346105755780600319360112610575575060ff602092541690519015158152f35b5050346101c457816003193601126101c457602090610fb6611441565b9051908152f35b5050346101c457816003193601126101c45760209073ffffffffffffffffffffffffffffffffffffffff600154169051908152f35b5050346101c457806003193601126101c4576110979073ffffffffffffffffffffffffffffffffffffffff6110256112e3565b9161102e6113e4565b51917fa9059cbb00000000000000000000000000000000000000000000000000000000602084015216602482015260243560448201526044815261107181611347565b7f000000000000000000000000000000000000000000000000000000000000000061164b565b80f35b809184346107865780600319360112610786576110b56112e3565b6110bd6113e4565b73ffffffffffffffffffffffffffffffffffffffff807f000000000000000000000000000000000000000000000000000000000000000016803b1561090657859283604492865197889586947f205c2878000000000000000000000000000000000000000000000000000000008652169084015260243560248401525af190811561077857506107685750f35b9190503461046b57602060031936011261046b577fbe7b61c51ba98d0a7b30b6fb3f546bb16480f4e13f7e238cd7748212533003b691356111896113e4565b600254908060025582519182526020820152a180f35b90503461046b57602060031936011261046b57803580151580910361121e577f1cf28b997975c7be355bcef74f2f5019aa48253bc1e54b3c8b002471865fdba8926020926111eb6113e4565b7fffffffffffffffffffffffffffffffffffffffffffffffffffffffffffffff0081541660ff841617905551908152a180f35b8380fd5b91905060206003193601126103d85781359163ffffffff83168093036103d85761124a6113e4565b73ffffffffffffffffffffffffffffffffffffffff7f00000000000000000000000000000000000000000000000000000000000000001692833b156103d85760245f92845195869384927f0396cb6000000000000000000000000000000000000000000000000000000000845283015234905af19081156112da57506112ce575080f35b6112d89150611306565b005b513d5f823e3d90fd5b6004359073ffffffffffffffffffffffffffffffffffffffff821682036103d857565b67ffffffffffffffff811161131a57604052565b7f4e487b71000000000000000000000000000000000000000000000000000000005f52604160045260245ffd5b6080810190811067ffffffffffffffff82111761131a57604052565b90601f7fffffffffffffffffffffffffffffffffffffffffffffffffffffffffffffffe0910116810190811067ffffffffffffffff82111761131a57604052565b818102929181159184041417156113b757565b7f4e487b71000000000000000000000000000000000000000000000000000000005f52601160045260245ffd5b73ffffffffffffffffffffffffffffffffffffffff5f5416330361140457565b60246040517f118cdaa7000000000000000000000000000000000000000000000000000000008152336004820152fd5b919082018092116113b757565b6006548015159081611527575b506115215773ffffffffffffffffffffffffffffffffffffffff60208160015416916024604051809481937fadfe34f70000000000000000000000000000000000000000000000000000000083527f00000000000000000000000000000000000000000000000000000000000000001660048301525afa5f91816114ed575b506114dd575060055480156114e0575b90565b50670de0b6b3a764000090565b9091506020813d602011611519575b8161150960209383611363565b810103126103d85751905f6114cd565b3d91506114fc565b60055490565b9050603c81018091116113b75742105f61144e565b73ffffffffffffffffffffffffffffffffffffffff7f000000000000000000000000000000000000000000000000000000000000000016330361157b57565b60646040517f08c379a000000000000000000000000000000000000000000000000000000000815260206004820152601560248201527f53656e646572206e6f7420456e747279506f696e7400000000000000000000006044820152fd5b3573ffffffffffffffffffffffffffffffffffffffff811681036103d85790565b9035907fffffffffffffffffffffffffffffffffffffffffffffffffffffffffffffffe1813603018212156103d8570180359067ffffffffffffffff82116103d8576020019181360383136103d857565b5f73ffffffffffffffffffffffffffffffffffffffff8192169260208151910182855af13d1561173a573d67ffffffffffffffff811161131a576116cf91604051916116bf60207fffffffffffffffffffffffffffffffffffffffffffffffffffffffffffffffe0601f8401160184611363565b82523d5f602084013e5b83611746565b8051908115159182611716575b50506116e55750565b602490604051907f5274afe70000000000000000000000000000000000000000000000000000000082526004820152fd5b81925090602091810103126103d857602001518015908115036103d8575f806116dc565b6116cf906060906116c9565b90611785575080511561175b57805190602001fd5b60046040517f1425ea42000000000000000000000000000000000000000000000000000000008152fd5b815115806117dd575b611796575090565b60249073ffffffffffffffffffffffffffffffffffffffff604051917f9996b315000000000000000000000000000000000000000000000000000000008352166004820152fd5b50803b1561178e56fea26469706673582212209096717c6c714db2f487b4cb9bfb0cb8ff28ce8f2012dc6e6e65a326371226ac64736f6c63430008190033","linkReferences":{}},"methodIdentifiers":{"COST_OF_POST()":"796d4371","PRICE_CACHE_DURATION()":"539f51db","accountFactory()":"687cd9c1","addStake(uint32)":"0396cb60","addToWhitelist(address)":"e43252d7","andeToken()":"140f021c","calculateANDECost(uint256,uint256)":"88e79d64","deposit()":"d0e30db0","entryPoint()":"b0d691fe","getANDEToken()":"8b6808f5","getCurrentExchangeRate()":"3ca967f3","getDeposit()":"c399ec88","getMaxGasLimit()":"20c612fa","getPriceOracle()":"fca513a8","isWhitelisted(address)":"3af32abf","maxGasLimit()":"5e45da23","owner()":"8da5cb5b","postOp(uint8,bytes,uint256)":"a9a23409","priceOracle()":"2630c12f","removeFromWhitelist(address)":"8ab1d681","renounceOwnership()":"715018a6","setMaxGasLimit(uint256)":"1776834a","setPriceOracle(address)":"530e784f","setWhitelistEnabled(bool)":"052d9e7e","transferOwnership(address)":"f2fde38b","unlockStake()":"bb9fe6bf","updatePriceCache()":"baff9667","validatePaymasterUserOp((address,uint256,bytes,bytes,uint256,uint256,uint256,uint256,uint256,bytes,bytes),bytes32,uint256)":"f465c77e","whitelist(address)":"9b19251a","whitelistEnabled()":"51fb012d","withdrawANDE(address,uint256)":"21cf3a9d","withdrawStake(address)":"c23a5cea","withdrawTo(address,uint256)":"205c2878"},"id":100}