{"abi":[{"type":"constructor","inputs":[],"stateMutability":"nonpayable"},{"type":"function","name":"BASIS_POINTS","inputs":[],"outputs":[{"name":"","type":"uint256","internalType":"uint256"}],"stateMutability":"view"},{"type":"function","name":"BLOCKS_PER_ROTATION","inputs":[],"outputs":[{"name":"","type":"uint256","internalType":"uint256"}],"stateMutability":"view"},{"type":"function","name":"DEFAULT_ADMIN_ROLE","inputs":[],"outputs":[{"name":"","type":"bytes32","internalType":"bytes32"}],"stateMutability":"view"},{"type":"function","name":"FORCE_INCLUSION_TIMEOUT","inputs":[],"outputs":[{"name":"","type":"uint256","internalType":"uint256"}],"stateMutability":"view"},{"type":"function","name":"MIN_STAKE_AMOUNT","inputs":[],"outputs":[{"name":"","type":"uint256","internalType":"uint256"}],"stateMutability":"view"},{"type":"function","name":"MIN_UPTIME_PERCENTAGE","inputs":[],"outputs":[{"name":"","type":"uint256","internalType":"uint256"}],"stateMutability":"view"},{"type":"function","name":"ORACLE_ROLE","inputs":[],"outputs":[{"name":"","type":"bytes32","internalType":"bytes32"}],"stateMutability":"view"},{"type":"function","name":"PAUSER_ROLE","inputs":[],"outputs":[{"name":"","type":"bytes32","internalType":"bytes32"}],"stateMutability":"view"},{"type":"function","name":"SEQUENCER_MANAGER_ROLE","inputs":[],"outputs":[{"name":"","type":"bytes32","internalType":"bytes32"}],"stateMutability":"view"},{"type":"function","name":"SLASH_PERCENTAGE_INVALID","inputs":[],"outputs":[{"name":"","type":"uint256","internalType":"uint256"}],"stateMutability":"view"},{"type":"function","name":"SLASH_PERCENTAGE_TIMEOUT","inputs":[],"outputs":[{"name":"","type":"uint256","internalType":"uint256"}],"stateMutability":"view"},{"type":"function","name":"TIMEOUT_BLOCKS","inputs":[],"outputs":[{"name":"","type":"uint256","internalType":"uint256"}],"stateMutability":"view"},{"type":"function","name":"UPGRADE_INTERFACE_VERSION","inputs":[],"outputs":[{"name":"","type":"string","internalType":"string"}],"stateMutability":"view"},{"type":"function","name":"activateEmergencyMode","inputs":[{"name":"reason","type":"string","internalType":"string"}],"outputs":[],"stateMutability":"nonpayable"},{"type":"function","name":"activeSequencers","inputs":[{"name":"","type":"uint256","internalType":"uint256"}],"outputs":[{"name":"","type":"address","internalType":"address"}],"stateMutability":"view"},{"type":"function","name":"andeToken","inputs":[],"outputs":[{"name":"","type":"address","internalType":"contract IERC20"}],"stateMutability":"view"},{"type":"function","name":"checkForceInclusionTimeout","inputs":[],"outputs":[],"stateMutability":"nonpayable"},{"type":"function","name":"checkTimeout","inputs":[],"outputs":[],"stateMutability":"nonpayable"},{"type":"function","name":"currentLeader","inputs":[],"outputs":[{"name":"","type":"address","internalType":"address"}],"stateMutability":"view"},{"type":"function","name":"currentLeaderIndex","inputs":[],"outputs":[{"name":"","type":"uint256","internalType":"uint256"}],"stateMutability":"view"},{"type":"function","name":"currentRotationNumber","inputs":[],"outputs":[{"name":"","type":"uint256","internalType":"uint256"}],"stateMutability":"view"},{"type":"function","name":"deactivateEmergencyMode","inputs":[],"outputs":[],"stateMutability":"nonpayable"},{"type":"function","name":"emergencyMode","inputs":[],"outputs":[{"name":"","type":"bool","internalType":"bool"}],"stateMutability":"view"},{"type":"function","name":"emergencySequencer","inputs":[],"outputs":[{"name":"","type":"address","internalType":"address"}],"stateMutability":"view"},{"type":"function","name":"forceInclusionRequests","inputs":[{"name":"","type":"bytes32","internalType":"bytes32"}],"outputs":[{"name":"requester","type":"address","internalType":"address"},{"name":"txHash","type":"bytes32","internalType":"bytes32"},{"name":"requestedAt","type":"uint256","internalType":"uint256"},{"name":"included","type":"bool","internalType":"bool"}],"stateMutability":"view"},{"type":"function","name":"forceRotation","inputs":[{"name":"reason","type":"string","internalType":"string"}],"outputs":[],"stateMutability":"nonpayable"},{"type":"function","name":"getActiveSequencers","inputs":[],"outputs":[{"name":"","type":"address[]","internalType":"address[]"}],"stateMutability":"view"},{"type":"function","name":"getCurrentRotation","inputs":[],"outputs":[{"name":"","type":"tuple","internalType":"struct AndeSequencerCoordinator.RotationInfo","components":[{"name":"rotationNumber","type":"uint256","internalType":"uint256"},{"name":"startBlock","type":"uint256","internalType":"uint256"},{"name":"endBlock","type":"uint256","internalType":"uint256"},{"name":"leader","type":"address","internalType":"address"},{"name":"blocksProduced","type":"uint256","internalType":"uint256"},{"name":"missedBlocks","type":"uint256","internalType":"uint256"},{"name":"completedSuccessfully","type":"bool","internalType":"bool"}]}],"stateMutability":"view"},{"type":"function","name":"getPendingForceInclusions","inputs":[],"outputs":[{"name":"","type":"bytes32[]","internalType":"bytes32[]"}],"stateMutability":"view"},{"type":"function","name":"getRoleAdmin","inputs":[{"name":"role","type":"bytes32","internalType":"bytes32"}],"outputs":[{"name":"","type":"bytes32","internalType":"bytes32"}],"stateMutability":"view"},{"type":"function","name":"getRotationInfo","inputs":[{"name":"rotationNumber","type":"uint256","internalType":"uint256"}],"outputs":[{"name":"","type":"tuple","internalType":"struct AndeSequencerCoordinator.RotationInfo","components":[{"name":"rotationNumber","type":"uint256","internalType":"uint256"},{"name":"startBlock","type":"uint256","internalType":"uint256"},{"name":"endBlock","type":"uint256","internalType":"uint256"},{"name":"leader","type":"address","internalType":"address"},{"name":"blocksProduced","type":"uint256","internalType":"uint256"},{"name":"missedBlocks","type":"uint256","internalType":"uint256"},{"name":"completedSuccessfully","type":"bool","internalType":"bool"}]}],"stateMutability":"view"},{"type":"function","name":"getSequencerInfo","inputs":[{"name":"sequencer","type":"address","internalType":"address"}],"outputs":[{"name":"","type":"tuple","internalType":"struct AndeSequencerCoordinator.SequencerInfo","components":[{"name":"sequencerAddress","type":"address","internalType":"address"},{"name":"stakedAmount","type":"uint256","internalType":"uint256"},{"name":"registeredAt","type":"uint256","internalType":"uint256"},{"name":"lastBlockProduced","type":"uint256","internalType":"uint256"},{"name":"lastBlockNumber","type":"uint256","internalType":"uint256"},{"name":"totalBlocksProduced","type":"uint256","internalType":"uint256"},{"name":"totalTimeouts","type":"uint256","internalType":"uint256"},{"name":"totalSlashes","type":"uint256","internalType":"uint256"},{"name":"uptimePercentage","type":"uint256","internalType":"uint256"},{"name":"isActive","type":"bool","internalType":"bool"},{"name":"isJailed","type":"bool","internalType":"bool"},{"name":"jailEndTime","type":"uint256","internalType":"uint256"},{"name":"endpoint","type":"string","internalType":"string"},{"name":"nodeId","type":"bytes32","internalType":"bytes32"}]}],"stateMutability":"view"},{"type":"function","name":"grantRole","inputs":[{"name":"role","type":"bytes32","internalType":"bytes32"},{"name":"account","type":"address","internalType":"address"}],"outputs":[],"stateMutability":"nonpayable"},{"type":"function","name":"hasRole","inputs":[{"name":"role","type":"bytes32","internalType":"bytes32"},{"name":"account","type":"address","internalType":"address"}],"outputs":[{"name":"","type":"bool","internalType":"bool"}],"stateMutability":"view"},{"type":"function","name":"heartbeat","inputs":[],"outputs":[],"stateMutability":"nonpayable"},{"type":"function","name":"increaseStake","inputs":[{"name":"amount","type":"uint256","internalType":"uint256"}],"outputs":[],"stateMutability":"nonpayable"},{"type":"function","name":"initialize","inputs":[{"name":"defaultAdmin","type":"address","internalType":"address"},{"name":"_andeToken","type":"address","internalType":"address"},{"name":"_emergencySequencer","type":"address","internalType":"address"}],"outputs":[],"stateMutability":"nonpayable"},{"type":"function","name":"isTimeoutReached","inputs":[],"outputs":[{"name":"","type":"bool","internalType":"bool"}],"stateMutability":"view"},{"type":"function","name":"lastBlockNumber","inputs":[],"outputs":[{"name":"","type":"uint256","internalType":"uint256"}],"stateMutability":"view"},{"type":"function","name":"lastHeartbeat","inputs":[{"name":"","type":"address","internalType":"address"}],"outputs":[{"name":"","type":"uint256","internalType":"uint256"}],"stateMutability":"view"},{"type":"function","name":"lastRotationBlock","inputs":[],"outputs":[{"name":"","type":"uint256","internalType":"uint256"}],"stateMutability":"view"},{"type":"function","name":"markForceInclusionCompleted","inputs":[{"name":"txHash","type":"bytes32","internalType":"bytes32"},{"name":"includedAtBlock","type":"uint256","internalType":"uint256"}],"outputs":[],"stateMutability":"nonpayable"},{"type":"function","name":"pause","inputs":[],"outputs":[],"stateMutability":"nonpayable"},{"type":"function","name":"paused","inputs":[],"outputs":[{"name":"","type":"bool","internalType":"bool"}],"stateMutability":"view"},{"type":"function","name":"pendingForceInclusions","inputs":[{"name":"","type":"uint256","internalType":"uint256"}],"outputs":[{"name":"","type":"bytes32","internalType":"bytes32"}],"stateMutability":"view"},{"type":"function","name":"proxiableUUID","inputs":[],"outputs":[{"name":"","type":"bytes32","internalType":"bytes32"}],"stateMutability":"view"},{"type":"function","name":"recordBlockProduced","inputs":[{"name":"sequencer","type":"address","internalType":"address"},{"name":"blockNumber","type":"uint256","internalType":"uint256"},{"name":"gasUsed","type":"uint256","internalType":"uint256"}],"outputs":[],"stateMutability":"nonpayable"},{"type":"function","name":"registerSequencer","inputs":[{"name":"stakedAmount","type":"uint256","internalType":"uint256"},{"name":"endpoint","type":"string","internalType":"string"},{"name":"nodeId","type":"bytes32","internalType":"bytes32"}],"outputs":[],"stateMutability":"nonpayable"},{"type":"function","name":"renounceRole","inputs":[{"name":"role","type":"bytes32","internalType":"bytes32"},{"name":"callerConfirmation","type":"address","internalType":"address"}],"outputs":[],"stateMutability":"nonpayable"},{"type":"function","name":"reportInvalidBlock","inputs":[{"name":"sequencer","type":"address","internalType":"address"},{"name":"blockNumber","type":"uint256","internalType":"uint256"},{"name":"reason","type":"string","internalType":"string"}],"outputs":[],"stateMutability":"nonpayable"},{"type":"function","name":"requestForceInclusion","inputs":[{"name":"txHash","type":"bytes32","internalType":"bytes32"}],"outputs":[],"stateMutability":"nonpayable"},{"type":"function","name":"revokeRole","inputs":[{"name":"role","type":"bytes32","internalType":"bytes32"},{"name":"account","type":"address","internalType":"address"}],"outputs":[],"stateMutability":"nonpayable"},{"type":"function","name":"rotations","inputs":[{"name":"","type":"uint256","internalType":"uint256"}],"outputs":[{"name":"rotationNumber","type":"uint256","internalType":"uint256"},{"name":"startBlock","type":"uint256","internalType":"uint256"},{"name":"endBlock","type":"uint256","internalType":"uint256"},{"name":"leader","type":"address","internalType":"address"},{"name":"blocksProduced","type":"uint256","internalType":"uint256"},{"name":"missedBlocks","type":"uint256","internalType":"uint256"},{"name":"completedSuccessfully","type":"bool","internalType":"bool"}],"stateMutability":"view"},{"type":"function","name":"sequencerList","inputs":[{"name":"","type":"uint256","internalType":"uint256"}],"outputs":[{"name":"","type":"address","internalType":"address"}],"stateMutability":"view"},{"type":"function","name":"sequencers","inputs":[{"name":"","type":"address","internalType":"address"}],"outputs":[{"name":"sequencerAddress","type":"address","internalType":"address"},{"name":"stakedAmount","type":"uint256","internalType":"uint256"},{"name":"registeredAt","type":"uint256","internalType":"uint256"},{"name":"lastBlockProduced","type":"uint256","internalType":"uint256"},{"name":"lastBlockNumber","type":"uint256","internalType":"uint256"},{"name":"totalBlocksProduced","type":"uint256","internalType":"uint256"},{"name":"totalTimeouts","type":"uint256","internalType":"uint256"},{"name":"totalSlashes","type":"uint256","internalType":"uint256"},{"name":"uptimePercentage","type":"uint256","internalType":"uint256"},{"name":"isActive","type":"bool","internalType":"bool"},{"name":"isJailed","type":"bool","internalType":"bool"},{"name":"jailEndTime","type":"uint256","internalType":"uint256"},{"name":"endpoint","type":"string","internalType":"string"},{"name":"nodeId","type":"bytes32","internalType":"bytes32"}],"stateMutability":"view"},{"type":"function","name":"setBlocksPerRotation","inputs":[{"name":"newBlocks","type":"uint256","internalType":"uint256"}],"outputs":[],"stateMutability":"nonpayable"},{"type":"function","name":"setEmergencySequencer","inputs":[{"name":"newEmergencySequencer","type":"address","internalType":"address"}],"outputs":[],"stateMutability":"nonpayable"},{"type":"function","name":"slashSequencer","inputs":[{"name":"sequencer","type":"address","internalType":"address"},{"name":"amount","type":"uint256","internalType":"uint256"},{"name":"reason","type":"string","internalType":"string"}],"outputs":[],"stateMutability":"nonpayable"},{"type":"function","name":"supportsInterface","inputs":[{"name":"interfaceId","type":"bytes4","internalType":"bytes4"}],"outputs":[{"name":"","type":"bool","internalType":"bool"}],"stateMutability":"view"},{"type":"function","name":"unjailSequencer","inputs":[{"name":"sequencer","type":"address","internalType":"address"}],"outputs":[],"stateMutability":"nonpayable"},{"type":"function","name":"unpause","inputs":[],"outputs":[],"stateMutability":"nonpayable"},{"type":"function","name":"unregisterSequencer","inputs":[],"outputs":[],"stateMutability":"nonpayable"},{"type":"function","name":"updateSequencerUptime","inputs":[{"name":"sequencer","type":"address","internalType":"address"},{"name":"uptimePercentage","type":"uint256","internalType":"uint256"}],"outputs":[],"stateMutability":"nonpayable"},{"type":"function","name":"upgradeToAndCall","inputs":[{"name":"newImplementation","type":"address","internalType":"address"},{"name":"data","type":"bytes","internalType":"bytes"}],"outputs":[],"stateMutability":"payable"},{"type":"event","name":"BlockProduced","inputs":[{"name":"sequencer","type":"address","indexed":true,"internalType":"address"},{"name":"blockNumber","type":"uint256","indexed":false,"internalType":"uint256"},{"name":"timestamp","type":"uint256","indexed":false,"internalType":"uint256"},{"name":"gasUsed","type":"uint256","indexed":false,"internalType":"uint256"}],"anonymous":false},{"type":"event","name":"EmergencyModeActivated","inputs":[{"name":"emergencySequencer","type":"address","indexed":true,"internalType":"address"},{"name":"reason","type":"string","indexed":false,"internalType":"string"}],"anonymous":false},{"type":"event","name":"EmergencyModeDeactivated","inputs":[],"anonymous":false},{"type":"event","name":"ForceInclusionCompleted","inputs":[{"name":"txHash","type":"bytes32","indexed":true,"internalType":"bytes32"},{"name":"includedAtBlock","type":"uint256","indexed":false,"internalType":"uint256"}],"anonymous":false},{"type":"event","name":"ForceInclusionRequested","inputs":[{"name":"txHash","type":"bytes32","indexed":true,"internalType":"bytes32"},{"name":"requester","type":"address","indexed":true,"internalType":"address"},{"name":"requestBlock","type":"uint256","indexed":false,"internalType":"uint256"}],"anonymous":false},{"type":"event","name":"Initialized","inputs":[{"name":"version","type":"uint64","indexed":false,"internalType":"uint64"}],"anonymous":false},{"type":"event","name":"InvalidBlockDetected","inputs":[{"name":"sequencer","type":"address","indexed":true,"internalType":"address"},{"name":"blockNumber","type":"uint256","indexed":false,"internalType":"uint256"},{"name":"reason","type":"string","indexed":false,"internalType":"string"}],"anonymous":false},{"type":"event","name":"LeaderRotated","inputs":[{"name":"rotationNumber","type":"uint256","indexed":true,"internalType":"uint256"},{"name":"oldLeader","type":"address","indexed":true,"internalType":"address"},{"name":"newLeader","type":"address","indexed":true,"internalType":"address"},{"name":"blockNumber","type":"uint256","indexed":false,"internalType":"uint256"},{"name":"reason","type":"string","indexed":false,"internalType":"string"}],"anonymous":false},{"type":"event","name":"Paused","inputs":[{"name":"account","type":"address","indexed":false,"internalType":"address"}],"anonymous":false},{"type":"event","name":"RoleAdminChanged","inputs":[{"name":"role","type":"bytes32","indexed":true,"internalType":"bytes32"},{"name":"previousAdminRole","type":"bytes32","indexed":true,"internalType":"bytes32"},{"name":"newAdminRole","type":"bytes32","indexed":true,"internalType":"bytes32"}],"anonymous":false},{"type":"event","name":"RoleGranted","inputs":[{"name":"role","type":"bytes32","indexed":true,"internalType":"bytes32"},{"name":"account","type":"address","indexed":true,"internalType":"address"},{"name":"sender","type":"address","indexed":true,"internalType":"address"}],"anonymous":false},{"type":"event","name":"RoleRevoked","inputs":[{"name":"role","type":"bytes32","indexed":true,"internalType":"bytes32"},{"name":"account","type":"address","indexed":true,"internalType":"address"},{"name":"sender","type":"address","indexed":true,"internalType":"address"}],"anonymous":false},{"type":"event","name":"SequencerJailed","inputs":[{"name":"sequencer","type":"address","indexed":true,"internalType":"address"},{"name":"jailEndTime","type":"uint256","indexed":false,"internalType":"uint256"},{"name":"reason","type":"string","indexed":false,"internalType":"string"}],"anonymous":false},{"type":"event","name":"SequencerRegistered","inputs":[{"name":"sequencer","type":"address","indexed":true,"internalType":"address"},{"name":"stakedAmount","type":"uint256","indexed":false,"internalType":"uint256"},{"name":"endpoint","type":"string","indexed":false,"internalType":"string"},{"name":"nodeId","type":"bytes32","indexed":false,"internalType":"bytes32"}],"anonymous":false},{"type":"event","name":"SequencerSlashed","inputs":[{"name":"sequencer","type":"address","indexed":true,"internalType":"address"},{"name":"amount","type":"uint256","indexed":false,"internalType":"uint256"},{"name":"reason","type":"string","indexed":false,"internalType":"string"},{"name":"newStake","type":"uint256","indexed":false,"internalType":"uint256"}],"anonymous":false},{"type":"event","name":"SequencerUnjailed","inputs":[{"name":"sequencer","type":"address","indexed":true,"internalType":"address"}],"anonymous":false},{"type":"event","name":"SequencerUnregistered","inputs":[{"name":"sequencer","type":"address","indexed":true,"internalType":"address"},{"name":"returnedStake","type":"uint256","indexed":false,"internalType":"uint256"}],"anonymous":false},{"type":"event","name":"TimeoutDetected","inputs":[{"name":"sequencer","type":"address","indexed":true,"internalType":"address"},{"name":"missedBlocks","type":"uint256","indexed":false,"internalType":"uint256"},{"name":"slashedAmount","type":"uint256","indexed":false,"internalType":"uint256"}],"anonymous":false},{"type":"event","name":"Unpaused","inputs":[{"name":"account","type":"address","indexed":false,"internalType":"address"}],"anonymous":false},{"type":"event","name":"Upgraded","inputs":[{"name":"implementation","type":"address","indexed":true,"internalType":"address"}],"anonymous":false},{"type":"event","name":"UptimeUpdated","inputs":[{"name":"sequencer","type":"address","indexed":true,"internalType":"address"},{"name":"uptimePercentage","type":"uint256","indexed":false,"internalType":"uint256"}],"anonymous":false},{"type":"error","name":"AccessControlBadConfirmation","inputs":[]},{"type":"error","name":"AccessControlUnauthorizedAccount","inputs":[{"name":"account","type":"address","internalType":"address"},{"name":"neededRole","type":"bytes32","internalType":"bytes32"}]},{"type":"error","name":"AddressEmptyCode","inputs":[{"name":"target","type":"address","internalType":"address"}]},{"type":"error","name":"ERC1967InvalidImplementation","inputs":[{"name":"implementation","type":"address","internalType":"address"}]},{"type":"error","name":"ERC1967NonPayable","inputs":[]},{"type":"error","name":"EmergencyModeActive","inputs":[]},{"type":"error","name":"EnforcedPause","inputs":[]},{"type":"error","name":"ExpectedPause","inputs":[]},{"type":"error","name":"FailedInnerCall","inputs":[]},{"type":"error","name":"ForceInclusionNotDue","inputs":[]},{"type":"error","name":"InsufficientStake","inputs":[]},{"type":"error","name":"InvalidBlockNumber","inputs":[]},{"type":"error","name":"InvalidInitialization","inputs":[]},{"type":"error","name":"NoActiveSequencers","inputs":[]},{"type":"error","name":"NotCurrentLeader","inputs":[]},{"type":"error","name":"NotInitializing","inputs":[]},{"type":"error","name":"ReentrancyGuardReentrantCall","inputs":[]},{"type":"error","name":"RotationNotDue","inputs":[]},{"type":"error","name":"SequencerAlreadyRegistered","inputs":[]},{"type":"error","name":"SequencerIsJailed","inputs":[]},{"type":"error","name":"SequencerNotActive","inputs":[]},{"type":"error","name":"SequencerNotFound","inputs":[]},{"type":"error","name":"TimeoutNotReached","inputs":[]},{"type":"error","name":"UUPSUnauthorizedCallContext","inputs":[]},{"type":"error","name":"UUPSUnsupportedProxiableUUID","inputs":[{"name":"slot","type":"bytes32","internalType":"bytes32"}]}],"bytecode":{"object":"0x60a0806040523460c857306080527ff0c57e16840df040f15088dc2f81fe391c3923bec73e23a9662efc9c229c6a009081549060ff8260401c1660b957506001600160401b036002600160401b0319828216016075575b60405161394e90816100cd8239608051818181611b5c0152611c150152f35b6001600160401b031990911681179091556040519081527fc7f505b2f371ae2175ee4913f4499e1f2633a7b5936321eed1cdaeb6115181d290602090a15f80806056565b63f92ee8a960e01b8152600490fd5b5f80fdfe6080806040526004361015610012575f80fd5b5f3560e01c908163010cf64414612b7d5750806301ffc9a714612b2757806307e2cea514612aed5780630905f56014612ac857806309bbd6a014612922578063140f021c146128fb5780631a5425c51461245b5780631c7a07ee1461236c5780632220967e14612334578063248a9ca3146122fb5780632552317c146122de57806327ed7188146122ba5780632d151ab11461229f5780632e9c3bb8146122825780632f2ff15d1461223957806332c58b6c146120cb57806336568abe146120845780633defb962146120385780633f4ba83a14611fc357806342c689bf14611fa8578063494d0f3d14611f8c57806349d25f4414611e2b5780634e89386e14611df05780634f1ef28614611bc657806352d1902d14611b4a5780635c975abb14611b1c57806364de8010146119f1578063657eb44a146119795780638456cb59146119145780638a4c0988146118d15780638ff831971461176157806391d148541461170c57806399b20eaf146116875780639a91be3c146115aa578063a0c8c095146114be578063a217fddf146114a4578063a99a05e614611488578063aa378a7d1461128b578063ac4bd53a14611263578063ad3cb1cc1461121a578063af21041214610f0f578063b1f602f514610ef6578063b33d3e1914610d79578063b3b9ecbe14610d5d578063b6e5c59014610d13578063b75b846c14610cd9578063b967fccb14610cbc578063be228f9214610c62578063c0c53b8b14610a77578063c124a247146109c9578063c637ef7514610987578063c90f9e48146107f1578063ce69ac91146107ba578063d1c6ed55146106f0578063d547741f146106a5578063e1f1c4a714610689578063e26d2d8d1461066c578063e31e08d314610613578063e63ab1e9146105d9578063e908154e146105b5578063e940e56a1461058d578063eeb619e2146104db578063eedad66b146103a45763f4eba842146102dc575f80fd5b346103a0575f3660031901126103a057604051806003548083526020809301809160035f527fc2575a0e9e593c00f959f8c92f12db2869c3395a3b0502d05e2516446f71f85b905f5b8682821061038357868661033b82880383612c79565b60405192839281840190828552518091526040840192915f5b82811061036357505050500390f35b83516001600160a01b031685528695509381019392810192600101610354565b83546001600160a01b031685529093019260019283019201610325565b5f80fd5b346103a0576020806003193601126103a057600435906103c2613107565b335f526001815260405f209060018060a01b0380835416156104c9575f80546040516323b872dd60e01b8152336004820152306024820152604481018790529284928492606492849291165af19081156104be575f91610491575b501561045b57506001018054918201809211610447575560015f805160206138d983398151915255005b634e487b7160e01b5f52601160045260245ffd5b6064906040519062461bcd60e51b82526004820152600f60248201526e151c985b9cd9995c8819985a5b1959608a1b6044820152fd5b6104b19150823d84116104b7575b6104a98183612c79565b810190612e7c565b8461041d565b503d61049f565b6040513d5f823e3d90fd5b604051630c6ab20360e01b8152600490fd5b346103a0575f3660031901126103a05760405180600c5480835260208093018091600c5f527fdf6966c971051c3d54ec59162606531493a51404a002842f56009d7e5cf4a8c7905f5b8682821061057957868661053a82880383612c79565b60405192839281840190828552518091526040840192915f5b82811061056257505050500390f35b835185528695509381019392810192600101610553565b835485529093019260019283019201610524565b346103a0575f3660031901126103a057600d546040516001600160a01b039091168152602090f35b346103a0575f3660031901126103a05760206105cf612f2b565b6040519015158152f35b346103a0575f3660031901126103a05760206040517f65d7a28e3265b37a6474929f336521b332c1681b933f6cb9f3376673440d862a8152f35b346103a05760203660031901126103a0576004355f52600b602052608060405f2060018060a01b038154169060018101549060ff6003600283015492015416916040519384526020840152604083015215156060820152f35b346103a0575f3660031901126103a0576020600454604051908152f35b346103a0575f3660031901126103a05760206040516127108152f35b346103a05760403660031901126103a0576106ee6004356106c4612bd9565b90805f525f805160206138998339815191526020526106e9600160405f200154613362565b613683565b005b346103a05760403660031901126103a057610709612bc3565b6024356107146131dd565b6001600160a01b038281165f81815260016020526040902080549093919216156104c9576126ac918160088501557f5813235528d9bfc726c4ffa2f6e0ad329d24b145b1b79aaa1b7be6699d31d66f6020604051848152a21090816107a7575b5061077b57005b6040516106ee9161078b82612c5e565b600a8252694c6f7720757074696d6560b01b6020830152612f61565b60ff91506009015460081c161582610774565b346103a05760203660031901126103a057600435600c548110156103a0576107e3602091612df7565b90546040519160031b1c8152f35b346103a0575f3660031901126103a057610809613107565b335f5260206001815260405f209060018060a01b039182815416156104c957600981019081549360ff8560081c16610975575f926001859301549560ff1916905561085333613702565b338160065416148061096a575b610932575b82541660446040518094819363a9059cbb60e01b83523360048401528860248401525af19081156104be575f91610915575b50156108db577ff30566b6d5b4cee577f40701796dc3a8b610c4ca3ad23e1e15018d3ce5ed0f51906040519283523392a260015f805160206138d983398151915255005b6064906040519062461bcd60e51b82526004820152601360248201527214dd185ad9481c995d1d5c9b8819985a5b1959606a1b6044820152fd5b61092c9150823d84116104b7576104a98183612c79565b83610897565b61096560405161094181612c5e565b601381527213195859195c881d5b9c9959da5cdd195c9959606a1b84820152613007565b610865565b506003541515610860565b60405163770035a960e01b8152600490fd5b346103a05760203660031901126103a0576004356003548110156103a0576109b0602091612e2c565b905460405160039290921b1c6001600160a01b03168152f35b346103a05760203660031901126103a0576004356001600160401b0381116103a057610a1a7fa8bfc00a82dac609a5575e0d4bf2d4f2284be6d96c469bef935e1f8319277f4b913690600401612b96565b9190610a246132b1565b600d805460ff60a01b198116600160a01b17909155600680546001600160a01b0319166001600160a01b0390921691821790556040516020808252919490928392610a729290840191612ed5565b0390a2005b346103a05760603660031901126103a057610a90612bc3565b610a98612bd9565b906044356001600160a01b03818116918290036103a0577ff0c57e16840df040f15088dc2f81fe391c3923bec73e23a9662efc9c229c6a0093845460ff8160401c1615946001600160401b03821680159081610c5a575b6001149081610c50575b159081610c47575b50610c355767ffffffffffffffff1982166001178755610b9c9186610c16575b50610b2a6137d4565b610b326137d4565b610b3a6137d4565b610b426137d4565b5f805160206138b9833981519152805460ff19169055610b606137d4565b610b686137d4565b60015f805160206138d983398151915255610b8281613390565b50610b8c8161341a565b50610b96816134c7565b5061356d565b50166001600160601b0360a01b5f5416175f556affffffffffffffffffffff60a81b600d541617600d5560016004555f60055543600755610bd957005b68ff00000000000000001981541690557fc7f505b2f371ae2175ee4913f4499e1f2633a7b5936321eed1cdaeb6115181d2602060405160018152a1005b68ffffffffffffffffff19166801000000000000000117875587610b21565b60405163f92ee8a960e01b8152600490fd5b90501588610b01565b303b159150610af9565b879150610aef565b346103a05760203660031901126103a0576004356002548110156103a05760025f527f405787fa12a823e0f2b7631cc41b3ba8828b3321ca811111fa75cd3aa3bb5ace01546040516001600160a01b039091168152602090f35b346103a0575f3660031901126103a0576020600554604051908152f35b346103a0575f3660031901126103a05760206040517f725346f2674e7a610d0ae6e19dd9b45a4380674de24b5ed8476a591399281da38152f35b346103a05760203660031901126103a0576004356001600160401b0381116103a057610d58610d496106ee923690600401612b96565b610d51613307565b3691612d7b565b613007565b346103a0575f3660031901126103a05760206040516126ac8152f35b346103a057610d8736612db1565b9192610d916131dd565b60018060a01b039283821694855f52600160205260405f2085815416156104c9576001810180549061138896878302978389041483151715610447577fcc817284fab3dfe3c62527ca8ce8422341f7c4de74cb5529241b96d4b2937b438a965f805160206138f983398151915296610e458994600760a099610e1c610ead9f6127109004809b612e61565b80995501610e2a8154612e6e565b90556040519384938452604060208501526040840191612ed5565b0390a2604051918252606060208301526016606083015275125b9d985b1a5908189b1bd8dac81c1c9bd91d58d95960521b60808301526040820152a260405190610e8e82612c5e565b600d82526c496e76616c696420626c6f636b60981b6020830152612f61565b6006541614610eb857005b6106ee604051610ec781612c5e565b601d81527f4c65616465722070726f647563656420696e76616c696420626c6f636b0000006020820152613007565b346103a05760203660031901126103a0576106ee6132b1565b346103a05760603660031901126103a057610f28612bc3565b6024803590610f356131dd565b610f3d6130dd565b60018060a01b0380931692835f5260019360209285845260405f209083825416156104c95760ff9060099160ff60098501541615611208578560065416851415806111f8575b6111e65760039442868601558860048601556005809501610fa48154612e6e565b9055805f52600988524260405f205588600a556004545f527f5616d214d2bb1d57e77ffdf77a24c65cd38fc0a6358d21c7f3ae8238cea9c2b4606060089a60088b52600460405f2001610ff78154612e6e565b9055604051908152428b8201526044356040820152a26007546064810180911161044757431015806111dc575b61102a57005b8454156111ca576004545f526008875260405f20436002820155600681018a60ff19825416179055846110608b83015443612e61565b6004830154808211156111c15761107691612e61565b915b01558560065416978454938a850180951161044757876110a86110a08998978e9a5490612fe9565b808855612e2c565b905490881b1c169a5b61113f575b505050505050506110ef90841693846001600160601b0360a01b6006541617600655436007556110e7600454612e6e565b600455613136565b7f79137f4c48cf8ba36b8b2aac69e26a0fc6cf6b300f7e872d7dda33355e312f806080600454926040805191438352820152600b60408201526a2937bab73216b937b134b760a91b6060820152a4005b909192939495998781165f528a8952838260405f200154841c16806111b7575b156111b1575084548a810180911161119e57908761118e6111868d979695948a5490612fe9565b808955612e2c565b905490891b1c169a9695946110b1565b84634e487b7160e01b5f5260116004525ffd5b996110b6565b508a87541161115f565b50505f91611078565b60405163473b7a1360e11b8152600490fd5b5088855411611024565b604051633d9fe98b60e01b8152600490fd5b5060ff600d5460a01c1615610f83565b604051635a066b5160e11b8152600490fd5b346103a0575f3660031901126103a05761125f60405161123981612c5e565b60058152640352e302e360dc1b6020820152604051918291602083526020830190612d3c565b0390f35b346103a0575f3660031901126103a0576006546040516001600160a01b039091168152602090f35b346103a05760203660031901126103a0576112a4612bc3565b5f6101a06040516112b481612c27565b8281528260208201528260408201528260608201528260808201528260a08201528260c08201528260e0820152826101008201528261012082015282610140820152826101608201526060610180820152015260018060a01b03165f52600160205260405f20600c6040519161132983612c27565b80546001600160a01b0316835260018101546020840152600281015460408401526003810154606084015260048101546080840152600581015460a0840152600681015460c0840152600781015460e0840152600880820154610100850152600982015460ff8181161515610120870152911c161515610140840152600a8101546101608401526113bc600b8201612c9a565b61018084015201546101a082015260405180916020825260018060a01b038151166020830152602081015160408301526040810151606083015260608101516080830152608081015160a083015260a081015160c083015260c081015160e083015260e0810151610100830152610100810151610120830152610120810151151561014083015261014081015115156101608301526101608101516101808301526101808101516101a061147d6101c09283838701526101e0860190612d3c565b920151908301520390f35b346103a0575f3660031901126103a05760206040516103e88152f35b346103a0575f3660031901126103a05760206040515f8152f35b346103a0576114cc36612db1565b6114d4613307565b60018060a01b039182851691825f52600160205260405f2093845416156104c95769152d02c7e14af68000009461155a5f805160206138f983398151915293600760018801978854948581115f1461159f57506115318580612e61565b8099550161153f8154612e6e565b90556040519384938452606060208501526060840191612ed5565b8560408301520390a21061156a57005b6040516106ee9161157a82612c5e565b60138252725374616b652062656c6f77206d696e696d756d60681b6020830152612f61565b611531908096612e61565b346103a05760203660031901126103a0576115c3612ef5565b506004355f52600860205261125f60405f2060ff6006604051926115e684612c43565b80548452600181015460208501526002810154604085015260018060a01b03600382015416606085015260048101546080850152600581015460a0850152015416151560c08201526040519182918291909160c08060e083019480518452602081015160208501526040810151604085015260018060a01b0360608201511660608501526080810151608085015260a081015160a085015201511515910152565b346103a0575f3660031901126103a05761169f6132b1565b600d805460ff60a01b191690556003546116da575b7f70b9dcaceb756943ac1a4f48b8df9ea82fbb012b87e405cba4ed77d1ded0df415f80a1005b6116e5600554612e2c565b60018060a01b0391549060031b1c166001600160601b0360a01b60065416176006556116b4565b346103a05760403660031901126103a057611725612bd9565b6004355f525f8051602061389983398151915260205260405f209060018060a01b03165f52602052602060ff60405f2054166040519015158152f35b346103a0575f3660031901126103a0575f5b600c548110156106ee5761178681612df7565b919054600392831b1c5f52602091600b835260ff60405f2091820154161590816118b7575b506117bb575b6001915001611773565b60018060a01b0391600690838254165f52600180825260405f20908101908154906101f491828102928184041481151715610447576001976118b296600760c0946118196127105f805160206138f983398151915298048096612e61565b809855016118278154612e6e565b9055541693602460405192606090845280888501528301527f43656e736f7273686970202d20666f72636520696e636c7573696f6e2074696d608083015263195bdd5d60e21b60a08301526040820152a27f466f72636520696e636c7573696f6e2074696d656f7574000000000000000000604051916118a683612c5e565b60178352820152613007565b6117b1565b6002915001546032810180911161044757431015836117ab565b346103a05760203660031901126103a0576118ea612bc3565b6118f26132b1565b600d80546001600160a01b0319166001600160a01b0392909216919091179055005b346103a0575f3660031901126103a05761192c613256565b6119346130dd565b5f805160206138b9833981519152600160ff198254161790557f62e78cea01bee320cd4e420270b5ea74000d11b0c9f74754ebdbfc544b05a2586020604051338152a1005b346103a05760203660031901126103a0576004355f52600860205260e060405f20805490600181015490600281015460018060a01b0360038301541660048301549160ff600660058601549501541694604051968752602087015260408601526060850152608084015260a0830152151560c0820152f35b346103a05760203660031901126103a057611a0a612bc3565b60018060a01b0380821691825f52600160205260405f2091825416156104c9576009820180549260ff8460081c1615611aea57600a81019081544210611aad57600169152d02c7e14af680000091015410611a9b57611a75935f6001925561ffff1916179055612e94565b7f566f71043714a122b7f765dcfa4cd820776e3e2acf7492455840d88e163f6f3d5f80a2005b6040516378de4a6960e11b8152600490fd5b60405162461bcd60e51b815260206004820152601560248201527412985a5b081c195c9a5bd9081b9bdd08195b991959605a1b6044820152606490fd5b60405162461bcd60e51b815260206004820152600a602482015269139bdd081a985a5b195960b21b6044820152606490fd5b346103a0575f3660031901126103a057602060ff5f805160206138b983398151915254166040519015158152f35b346103a0575f3660031901126103a0577f00000000000000000000000000000000000000000000000000000000000000006001600160a01b03163003611bb45760206040517f360894a13ba1a3210667c828492db98dca3e2076cc3735a920a3ca505d382bbc8152f35b60405163703e46dd60e11b8152600490fd5b60403660031901126103a057611bda612bc3565b6024356001600160401b0381116103a057366023820112156103a057611c0a903690602481600401359101612d7b565b906001600160a01b037f00000000000000000000000000000000000000000000000000000000000000008116308114908115611dc2575b50611bb457611c4e6132b1565b6040516352d1902d60e01b8152908216916020918281600481875afa5f9181611d93575b50611c9057604051634c9c8ce360e01b815260048101859052602490fd5b9284937f360894a13ba1a3210667c828492db98dca3e2076cc3735a920a3ca505d382bbc90818103611d7b5750823b15611d625780546001600160a01b03191682179055604051907fbc7cd75a20ee27fd9adebab32041f755214dbc6bffa90cc0225b39da2e5c2d3b5f80a2835115611d4857505f8084846106ee96519101845af4903d15611d3f573d611d2381612d60565b90611d316040519283612c79565b81525f81943d92013e613815565b60609250613815565b9250505034611d5357005b63b398979f60e01b8152600490fd5b604051634c9c8ce360e01b815260048101839052602490fd5b60249060405190632a87526960e21b82526004820152fd5b9091508381813d8311611dbb575b611dab8183612c79565b810103126103a057519086611c72565b503d611da1565b9050817f360894a13ba1a3210667c828492db98dca3e2076cc3735a920a3ca505d382bbc5416141584611c41565b346103a0575f3660031901126103a057611e08612ef5565b506004545f52600860205261125f60405f2060ff6006604051926115e684612c43565b346103a0576020806003193601126103a057600435805f52600b8252600260405f200154611f535760405160808101908082106001600160401b03831117611f3f57611ed79160405233815260038482018481526040830143815260608401915f8352865f52600b885260405f209460018060a01b039051166001600160601b0360a01b86541617855551600185015551600284015551151591019060ff801983541691151516179055565b600c54600160401b811015611f3f57611f10611efa826001859401600c55612df7565b819391549060031b91821b915f19901b19161790565b90557fd3d4f440600d6cecf15d54393430dd55f4da1c59574d2dc0c840555d7f1e204b604051924384523393a3005b634e487b7160e01b5f52604160045260245ffd5b60405162461bcd60e51b8152600481018390526011602482015270105b1c9958591e481c995c5d595cdd1959607a1b6044820152606490fd5b346103a0575f3660031901126103a05760206040516113888152f35b346103a0575f3660031901126103a057602060405160648152f35b346103a0575f3660031901126103a057611fdb613256565b5f805160206138b9833981519152805460ff8116156120265760ff191690557f5db9ee0a495bf2e6ff9c91a7834c1ba4fdd244a5e8aa4e537bd38aeae4b073aa6020604051338152a1005b604051638dfc202b60e01b8152600490fd5b346103a0575f3660031901126103a057335f90815260016020526040902080546001600160a01b0316156104c9576009015460ff161561120857335f5260096020524260405f20555f80f35b346103a05760403660031901126103a05761209d612bd9565b336001600160a01b038216036120b9576106ee90600435613683565b60405163334bd91960e11b8152600490fd5b346103a05760403660031901126103a05760043560246120e96131dd565b815f52600b60205260405f20600281015415612200576003809101906001928392600160ff198254161790555f935b61214c575b847fd621e20c6f1132356ca940462c937c3f11ca256a67fa3d3229f6c834da9db9da60206040516024358152a2005b600c8054808610156121f9578661216287612df7565b905490861b1c146121795750508280940193612118565b92949093505f19928381019081116121e657611efa61219a6121a692612df7565b905490881b1c92612df7565b905582549081156121d357508101926121be84612df7565b81939154921b1b19169055558180808061211d565b634e487b7160e01b5f9081526031600452fd5b82634e487b7160e01b5f5260116004525ffd5b505061211d565b60405162461bcd60e51b815260206004820152601160248201527014995c5d595cdd081b9bdd08199bdd5b99607a1b6044820152606490fd5b346103a05760403660031901126103a0576106ee600435612258612bd9565b90805f525f8051602061389983398151915260205261227d600160405f200154613362565b613613565b346103a0575f3660031901126103a0576020600754604051908152f35b346103a0575f3660031901126103a057602060405160328152f35b346103a0575f3660031901126103a057602060405169152d02c7e14af68000008152f35b346103a0575f3660031901126103a0576020600a54604051908152f35b346103a05760203660031901126103a0576004355f525f805160206138998339815191526020526020600160405f200154604051908152f35b346103a05760203660031901126103a0576001600160a01b03612355612bc3565b165f526009602052602060405f2054604051908152f35b346103a05760203660031901126103a0576001600160a01b038061238e612bc3565b165f52600160205260405f20908154166001820154906002830154926003810154916004820154600583015460068401546007850154600886015491600987015493600a88015495600b89016123e390612c9a565b98600c0154996040519c8d9c8d6101c09b81526020015260408d015260608c015260808b015260a08a015260c089015260e088015261010087015260ff8116151561012087015260081c60ff16151561014086015261016085015280610180850152830161245091612d3c565b906101a08301520390f35b346103a05760603660031901126103a0576024356001600160401b0381116103a05761248b903690600401612b96565b906124946130dd565b61249c613107565b335f908152600160205260409020546001600160a01b03166128e95769152d02c7e14af680000060043510611a9b575f80546040516323b872dd60e01b8152336004808301919091523060248301523560448201529160209183916064918391906001600160a01b03165af19081156104be575f916128ca575b501561288d5760405161252881612c27565b33815260043560208201524260408201524260608201524360808201525f60a08201525f60c08201525f60e082015261271061010082015260016101208201525f6101408201525f610160820152612581368484612d7b565b6101808201526044356101a0820152335f52600160205260405f209060018060a01b038151166001600160601b0360a01b8354161782556020810151600183015560408101516002830155606081015160038301556080810151600483015560a0810151600583015560c0810151600683015560e0810151600783015561010081015160088301556009820161262a6101208301511515829060ff801983541691151516179055565b610140820151815461ff00191690151560081b61ff0016179055610160810151600a8301556101808101518051906001600160401b038211611f3f57612673600b850154612bef565b601f8111612845575b50602090601f83116001146127d3579180600c94926101a0945f926127c8575b50508160011b915f199060031b1c191617600b8501555b0151910155600254600160401b811015611f3f5760018101806002558110156127b4577f21cc56a8858f14905dc4305357f54d29c136580aecd1b3f7882590512a530e4c916127709160025f527f405787fa12a823e0f2b7631cc41b3ba8828b3321ca811111fa75cd3aa3bb5ace01336001600160601b0360a01b82541617905561273d33612e94565b335f5260096020524260405f2055600160035414612792575b604051936004358552606060208601526060850191612ed5565b9160443560408201528033930390a260015f805160206138d983398151915255005b336001600160601b0360a01b60065416176006556127af33613136565b612756565b634e487b7160e01b5f52603260045260245ffd5b01519050888061269c565b90600b85015f5260205f20915f5b601f198516811061282d575092600c94926001926101a09583601f19811610612815575b505050811b01600b8501556126b3565b01515f1960f88460031b161c19169055888080612805565b919260206001819286850151815501940192016127e1565b600b85015f5260205f20601f840160051c81019160208510612883575b601f0160051c01905b818110612878575061267c565b5f815560010161286b565b9091508190612862565b60405162461bcd60e51b815260206004820152601560248201527414dd185ad9481d1c985b9cd9995c8819985a5b1959605a1b6044820152606490fd5b6128e3915060203d6020116104b7576104a98183612c79565b83612516565b604051639a30fa6760e01b8152600490fd5b346103a0575f3660031901126103a0575f546040516001600160a01b039091168152602090f35b346103a0575f3660031901126103a057600354156111ca5760018060a01b0380600654165f52600160205260405f2061295f600482015443612e61565b90600a8210612ab65760018101918254936103e8808602908682041486151715610447577f286952bd7df13c7ac4471e7b8cb2efb504f22a9a6fc2dd487ffaa8bbca192333956003956040945f805160206138f9833981519152946129cb61271060a096048095612e61565b809355600760068901986129df8a54612e6e565b809a55016129ed8154612e6e565b90556006541698868a9792889351908152856020820152a260405191825260606020830152601c60608301527f54696d656f7574202d206e6f20626c6f636b732070726f64756365640000000060808301526040820152a21015612a7d575b6106ee604051612a5b81612c5e565b601081526f151a5b595bdd5d0819195d1958dd195960821b6020820152613007565b604051612ab091612a8d82612c5e565b60118252704d756c7469706c652074696d656f75747360781b6020830152612f61565b80612a4c565b6040516326c015ab60e21b8152600490fd5b346103a0575f3660031901126103a057602060ff600d5460a01c166040519015158152f35b346103a0575f3660031901126103a05760206040517f68e79a7bf1e0bc45d0a330c573bc367f9cf464fd326078812f301165fbda4ef18152f35b346103a05760203660031901126103a05760043563ffffffff60e01b81168091036103a057602090637965db0b60e01b8114908115612b6c575b506040519015158152f35b6301ffc9a760e01b14905082612b61565b346103a0575f3660031901126103a05780600a60209252f35b9181601f840112156103a0578235916001600160401b0383116103a057602083818601950101116103a057565b600435906001600160a01b03821682036103a057565b602435906001600160a01b03821682036103a057565b90600182811c92168015612c1d575b6020831014612c0957565b634e487b7160e01b5f52602260045260245ffd5b91607f1691612bfe565b6101c081019081106001600160401b03821117611f3f57604052565b60e081019081106001600160401b03821117611f3f57604052565b604081019081106001600160401b03821117611f3f57604052565b90601f801991011681019081106001600160401b03821117611f3f57604052565b9060405191825f8254612cac81612bef565b908184526020946001916001811690815f14612d1a5750600114612cdc575b505050612cda92500383612c79565b565b5f90815285812095935091905b818310612d02575050612cda93508201015f8080612ccb565b85548884018501529485019487945091830191612ce9565b92505050612cda94925060ff191682840152151560051b8201015f8080612ccb565b805180835260209291819084018484015e5f828201840152601f01601f1916010190565b6001600160401b038111611f3f57601f01601f191660200190565b929192612d8782612d60565b91612d956040519384612c79565b8294818452818301116103a0578281602093845f960137010152565b60606003198201126103a0576004356001600160a01b03811681036103a0579160243591604435906001600160401b0382116103a057612df391600401612b96565b9091565b600c548110156127b457600c5f527fdf6966c971051c3d54ec59162606531493a51404a002842f56009d7e5cf4a8c701905f90565b6003548110156127b45760035f527fc2575a0e9e593c00f959f8c92f12db2869c3395a3b0502d05e2516446f71f85b01905f90565b9190820391821161044757565b5f1981146104475760010190565b908160209103126103a0575180151581036103a05790565b60035490600160401b821015611f3f57612eb7826001612cda9401600355612e2c565b90919060018060a01b038084549260031b9316831b921b1916179055565b908060209392818452848401375f828201840152601f01601f1916010190565b60405190612f0282612c43565b5f60c0838281528260208201528260408201528260608201528260808201528260a08201520152565b60035415612f5d5760018060a01b03600654165f526001602052600a612f58600460405f20015443612e61565b101590565b5f90565b60018060a01b03811691825f52600160205260405f206009810161010061ff001982541617905562093a80420190814211610447577f3ec2a26a57c92fe5d1a8f7d1a2dcbb93671e3f3c9ef7dd9bcadebd917a6b5c9793600a612fc79201928355613702565b54612fe46040519283928352604060208401526040830190612d3c565b0390a2565b8115612ff3570690565b634e487b7160e01b5f52601260045260245ffd5b600354156111ca5760018060a01b038060065416906004545f526008602052600660405f204360028201550160ff19815416905560055460018101809111610447578161306661305d6130919360035490612fe9565b80600555612e2c565b90549060031b1c16806001600160601b0360a01b6006541617600655436007556110e7600454612e6e565b7f79137f4c48cf8ba36b8b2aac69e26a0fc6cf6b300f7e872d7dda33355e312f806130d8600454926006541694604051918291438352604060208401526040830190612d3c565b0390a4565b60ff5f805160206138b983398151915254166130f557565b60405163d93c066560e01b8152600490fd5b5f805160206138d983398151915260028154146131245760029055565b604051633ee5aeb560e01b8152600490fd5b612cda9060066004546040519261314c84612c43565b818452602084019043825260408501905f8252606086019060018060a01b03809116825260808701925f845260a08801945f865260c08901965f88525f52600860205260405f2098518955516001890155516002880155600387019151166001600160601b0360a01b82541617905551600485015551600584015551151591019060ff801983541691151516179055565b335f9081527f0b45fb0a7d123af421db170fce034e3ce3a70e5f1150428004face1400c458f260205260409020547f68e79a7bf1e0bc45d0a330c573bc367f9cf464fd326078812f301165fbda4ef19060ff16156132385750565b6044906040519063e2517d3f60e01b82523360048301526024820152fd5b335f9081527f75442b0a96088b5456bc4ed01394c96a4feec0f883c9494257d76b96ab1c9b6b60205260409020547f65d7a28e3265b37a6474929f336521b332c1681b933f6cb9f3376673440d862a9060ff16156132385750565b335f9081527fb7db2dd08fcb62d0c9e08c51941cae53c267786a0b75803fb7960902fc8ef97d602052604090205460ff16156132e957565b60405163e2517d3f60e01b81523360048201525f6024820152604490fd5b335f9081527fc157d408da348139bf70cfd0baf22a48779057d99f6df6b2706ae8add81bdb7360205260409020547f725346f2674e7a610d0ae6e19dd9b45a4380674de24b5ed8476a591399281da39060ff16156132385750565b805f525f8051602061389983398151915260205260405f20335f5260205260ff60405f205416156132385750565b6001600160a01b03165f8181527fb7db2dd08fcb62d0c9e08c51941cae53c267786a0b75803fb7960902fc8ef97d60205260409020545f805160206138998339815191529060ff16613414575f805260205260405f20815f5260205260405f20600160ff1982541617905533905f5f805160206138798339815191528180a4600190565b50505f90565b6001600160a01b03165f8181527f75442b0a96088b5456bc4ed01394c96a4feec0f883c9494257d76b96ab1c9b6b60205260409020547f65d7a28e3265b37a6474929f336521b332c1681b933f6cb9f3376673440d862a91905f805160206138998339815191529060ff166134c057825f5260205260405f20815f5260205260405f20600160ff1982541617905533915f805160206138798339815191525f80a4600190565b5050505f90565b6001600160a01b03165f8181527fc157d408da348139bf70cfd0baf22a48779057d99f6df6b2706ae8add81bdb7360205260409020547f725346f2674e7a610d0ae6e19dd9b45a4380674de24b5ed8476a591399281da391905f805160206138998339815191529060ff166134c057825f5260205260405f20815f5260205260405f20600160ff1982541617905533915f805160206138798339815191525f80a4600190565b6001600160a01b03165f8181527f0b45fb0a7d123af421db170fce034e3ce3a70e5f1150428004face1400c458f260205260409020547f68e79a7bf1e0bc45d0a330c573bc367f9cf464fd326078812f301165fbda4ef191905f805160206138998339815191529060ff166134c057825f5260205260405f20815f5260205260405f20600160ff1982541617905533915f805160206138798339815191525f80a4600190565b90815f525f805160206138998339815191528060205260405f209160018060a01b031691825f5260205260ff60405f205416155f146134c057825f5260205260405f20815f5260205260405f20600160ff1982541617905533915f805160206138798339815191525f80a4600190565b90815f525f805160206138998339815191528060205260405f209160018060a01b031691825f5260205260ff60405f2054165f146134c057825f5260205260405f20815f5260205260405f2060ff19815416905533917ff6391f5c32d9c69d2a47ea670b442974b53935d1edc7fd64eb21e047a839171b5f80a4600190565b5f5b6003805490818310156137ce5761371a83612e2c565b90546001600160a01b039291821b1c82168583161461373e57505050600101613704565b9293505f19929091838101908111610447578261375d61376d92612e2c565b905490841b1c16612eb786612e2c565b805480156137ba5783019161378183612e2c565b9091825491841b1b1916905555600591825480911115806137b1575b6137a657505050565b801561044757019055565b5080151561379d565b634e487b7160e01b5f52603160045260245ffd5b50505050565b60ff7ff0c57e16840df040f15088dc2f81fe391c3923bec73e23a9662efc9c229c6a005460401c161561380357565b604051631afcd79f60e31b8152600490fd5b9061383c575080511561382a57805190602001fd5b604051630a12f52160e11b8152600490fd5b8151158061386f575b61384d575090565b604051639996b31560e01b81526001600160a01b039091166004820152602490fd5b50803b1561384556fe2f8788117e7eff1d82e926ec794901d17c78024a50270940304540a733656f0d02dd7bc7dec4dceedda775e58dd541e08a116c6c53815c0bd028192f7b626800cd5ed15c6e187e77e9aee88184c21f4f2182ab5827cb3b7e07fbedcd63f033009b779b17422d0df92223018b32b4d1fa46e071723d6817e2486d003becc55f0013694938dd2e03b0abb17f2892c27096ceb14ef30cc3084fc683d0166224deb4a2646970667358221220304b4cb0ece4af5011c3a3716a77c915dc05f1654a947b62569b078bebe6fc8a64736f6c63430008190033","linkReferences":{}},"methodIdentifiers":{"BASIS_POINTS()":"e1f1c4a7","BLOCKS_PER_ROTATION()":"42c689bf","DEFAULT_ADMIN_ROLE()":"a217fddf","FORCE_INCLUSION_TIMEOUT()":"2d151ab1","MIN_STAKE_AMOUNT()":"27ed7188","MIN_UPTIME_PERCENTAGE()":"b3b9ecbe","ORACLE_ROLE()":"07e2cea5","PAUSER_ROLE()":"e63ab1e9","SEQUENCER_MANAGER_ROLE()":"b75b846c","SLASH_PERCENTAGE_INVALID()":"494d0f3d","SLASH_PERCENTAGE_TIMEOUT()":"a99a05e6","TIMEOUT_BLOCKS()":"010cf644","UPGRADE_INTERFACE_VERSION()":"ad3cb1cc","activateEmergencyMode(string)":"c124a247","activeSequencers(uint256)":"c637ef75","andeToken()":"140f021c","checkForceInclusionTimeout()":"8ff83197","checkTimeout()":"09bbd6a0","currentLeader()":"ac4bd53a","currentLeaderIndex()":"b967fccb","currentRotationNumber()":"e26d2d8d","deactivateEmergencyMode()":"99b20eaf","emergencyMode()":"0905f560","emergencySequencer()":"e940e56a","forceInclusionRequests(bytes32)":"e31e08d3","forceRotation(string)":"b6e5c590","getActiveSequencers()":"f4eba842","getCurrentRotation()":"4e89386e","getPendingForceInclusions()":"eeb619e2","getRoleAdmin(bytes32)":"248a9ca3","getRotationInfo(uint256)":"9a91be3c","getSequencerInfo(address)":"aa378a7d","grantRole(bytes32,address)":"2f2ff15d","hasRole(bytes32,address)":"91d14854","heartbeat()":"3defb962","increaseStake(uint256)":"eedad66b","initialize(address,address,address)":"c0c53b8b","isTimeoutReached()":"e908154e","lastBlockNumber()":"2552317c","lastHeartbeat(address)":"2220967e","lastRotationBlock()":"2e9c3bb8","markForceInclusionCompleted(bytes32,uint256)":"32c58b6c","pause()":"8456cb59","paused()":"5c975abb","pendingForceInclusions(uint256)":"ce69ac91","proxiableUUID()":"52d1902d","recordBlockProduced(address,uint256,uint256)":"af210412","registerSequencer(uint256,string,bytes32)":"1a5425c5","renounceRole(bytes32,address)":"36568abe","reportInvalidBlock(address,uint256,string)":"b33d3e19","requestForceInclusion(bytes32)":"49d25f44","revokeRole(bytes32,address)":"d547741f","rotations(uint256)":"657eb44a","sequencerList(uint256)":"be228f92","sequencers(address)":"1c7a07ee","setBlocksPerRotation(uint256)":"b1f602f5","setEmergencySequencer(address)":"8a4c0988","slashSequencer(address,uint256,string)":"a0c8c095","supportsInterface(bytes4)":"01ffc9a7","unjailSequencer(address)":"64de8010","unpause()":"3f4ba83a","unregisterSequencer()":"c90f9e48","updateSequencerUptime(address,uint256)":"d1c6ed55","upgradeToAndCall(address,bytes)":"4f1ef286"},"id":178}